{
  "contractName": "BPool",
  "abi": [
    {
      "inputs": [],
      "payable": false,
      "stateMutability": "nonpayable",
      "type": "constructor"
    },
    {
      "anonymous": false,
      "inputs": [
        {
          "indexed": true,
          "internalType": "address",
          "name": "src",
          "type": "address"
        },
        {
          "indexed": true,
          "internalType": "address",
          "name": "dst",
          "type": "address"
        },
        {
          "indexed": false,
          "internalType": "uint256",
          "name": "amt",
          "type": "uint256"
        }
      ],
      "name": "Approval",
      "type": "event"
    },
    {
      "anonymous": true,
      "inputs": [
        {
          "indexed": true,
          "internalType": "bytes4",
          "name": "sig",
          "type": "bytes4"
        },
        {
          "indexed": true,
          "internalType": "address",
          "name": "caller",
          "type": "address"
        },
        {
          "indexed": false,
          "internalType": "bytes",
          "name": "data",
          "type": "bytes"
        }
      ],
      "name": "LOG_CALL",
      "type": "event"
    },
    {
      "anonymous": false,
      "inputs": [
        {
          "indexed": true,
          "internalType": "address",
          "name": "caller",
          "type": "address"
        },
        {
          "indexed": true,
          "internalType": "address",
          "name": "tokenOut",
          "type": "address"
        },
        {
          "indexed": false,
          "internalType": "uint256",
          "name": "tokenAmountOut",
          "type": "uint256"
        }
      ],
      "name": "LOG_EXIT",
      "type": "event"
    },
    {
      "anonymous": false,
      "inputs": [
        {
          "indexed": true,
          "internalType": "address",
          "name": "caller",
          "type": "address"
        },
        {
          "indexed": true,
          "internalType": "address",
          "name": "tokenIn",
          "type": "address"
        },
        {
          "indexed": false,
          "internalType": "uint256",
          "name": "tokenAmountIn",
          "type": "uint256"
        }
      ],
      "name": "LOG_JOIN",
      "type": "event"
    },
    {
      "anonymous": false,
      "inputs": [
        {
          "indexed": true,
          "internalType": "address",
          "name": "caller",
          "type": "address"
        },
        {
          "indexed": true,
          "internalType": "address",
          "name": "tokenIn",
          "type": "address"
        },
        {
          "indexed": true,
          "internalType": "address",
          "name": "tokenOut",
          "type": "address"
        },
        {
          "indexed": false,
          "internalType": "uint256",
          "name": "tokenAmountIn",
          "type": "uint256"
        },
        {
          "indexed": false,
          "internalType": "uint256",
          "name": "tokenAmountOut",
          "type": "uint256"
        }
      ],
      "name": "LOG_SWAP",
      "type": "event"
    },
    {
      "anonymous": false,
      "inputs": [
        {
          "indexed": true,
          "internalType": "address",
          "name": "src",
          "type": "address"
        },
        {
          "indexed": true,
          "internalType": "address",
          "name": "dst",
          "type": "address"
        },
        {
          "indexed": false,
          "internalType": "uint256",
          "name": "amt",
          "type": "uint256"
        }
      ],
      "name": "Transfer",
      "type": "event"
    },
    {
      "constant": true,
      "inputs": [],
      "name": "BONE",
      "outputs": [
        {
          "internalType": "uint256",
          "name": "",
          "type": "uint256"
        }
      ],
      "payable": false,
      "stateMutability": "view",
      "type": "function"
    },
    {
      "constant": true,
      "inputs": [],
      "name": "BPOW_PRECISION",
      "outputs": [
        {
          "internalType": "uint256",
          "name": "",
          "type": "uint256"
        }
      ],
      "payable": false,
      "stateMutability": "view",
      "type": "function"
    },
    {
      "constant": true,
      "inputs": [],
      "name": "EXIT_FEE",
      "outputs": [
        {
          "internalType": "uint256",
          "name": "",
          "type": "uint256"
        }
      ],
      "payable": false,
      "stateMutability": "view",
      "type": "function"
    },
    {
      "constant": true,
      "inputs": [],
      "name": "MAX_BALANCE",
      "outputs": [
        {
          "internalType": "uint256",
          "name": "",
          "type": "uint256"
        }
      ],
      "payable": false,
      "stateMutability": "view",
      "type": "function"
    },
    {
      "constant": true,
      "inputs": [],
      "name": "MAX_BOUND_TOKENS",
      "outputs": [
        {
          "internalType": "uint256",
          "name": "",
          "type": "uint256"
        }
      ],
      "payable": false,
      "stateMutability": "view",
      "type": "function"
    },
    {
      "constant": true,
      "inputs": [],
      "name": "MAX_BPOW_BASE",
      "outputs": [
        {
          "internalType": "uint256",
          "name": "",
          "type": "uint256"
        }
      ],
      "payable": false,
      "stateMutability": "view",
      "type": "function"
    },
    {
      "constant": true,
      "inputs": [],
      "name": "MAX_FEE",
      "outputs": [
        {
          "internalType": "uint256",
          "name": "",
          "type": "uint256"
        }
      ],
      "payable": false,
      "stateMutability": "view",
      "type": "function"
    },
    {
      "constant": true,
      "inputs": [],
      "name": "MAX_IN_RATIO",
      "outputs": [
        {
          "internalType": "uint256",
          "name": "",
          "type": "uint256"
        }
      ],
      "payable": false,
      "stateMutability": "view",
      "type": "function"
    },
    {
      "constant": true,
      "inputs": [],
      "name": "MAX_OUT_RATIO",
      "outputs": [
        {
          "internalType": "uint256",
          "name": "",
          "type": "uint256"
        }
      ],
      "payable": false,
      "stateMutability": "view",
      "type": "function"
    },
    {
      "constant": true,
      "inputs": [],
      "name": "MAX_TOTAL_WEIGHT",
      "outputs": [
        {
          "internalType": "uint256",
          "name": "",
          "type": "uint256"
        }
      ],
      "payable": false,
      "stateMutability": "view",
      "type": "function"
    },
    {
      "constant": true,
      "inputs": [],
      "name": "MAX_WEIGHT",
      "outputs": [
        {
          "internalType": "uint256",
          "name": "",
          "type": "uint256"
        }
      ],
      "payable": false,
      "stateMutability": "view",
      "type": "function"
    },
    {
      "constant": true,
      "inputs": [],
      "name": "MIN_BALANCE",
      "outputs": [
        {
          "internalType": "uint256",
          "name": "",
          "type": "uint256"
        }
      ],
      "payable": false,
      "stateMutability": "view",
      "type": "function"
    },
    {
      "constant": true,
      "inputs": [],
      "name": "MIN_BPOW_BASE",
      "outputs": [
        {
          "internalType": "uint256",
          "name": "",
          "type": "uint256"
        }
      ],
      "payable": false,
      "stateMutability": "view",
      "type": "function"
    },
    {
      "constant": true,
      "inputs": [],
      "name": "MIN_FEE",
      "outputs": [
        {
          "internalType": "uint256",
          "name": "",
          "type": "uint256"
        }
      ],
      "payable": false,
      "stateMutability": "view",
      "type": "function"
    },
    {
      "constant": true,
      "inputs": [],
      "name": "MIN_POOL_SUPPLY",
      "outputs": [
        {
          "internalType": "uint256",
          "name": "",
          "type": "uint256"
        }
      ],
      "payable": false,
      "stateMutability": "view",
      "type": "function"
    },
    {
      "constant": true,
      "inputs": [],
      "name": "MIN_WEIGHT",
      "outputs": [
        {
          "internalType": "uint256",
          "name": "",
          "type": "uint256"
        }
      ],
      "payable": false,
      "stateMutability": "view",
      "type": "function"
    },
    {
      "constant": true,
      "inputs": [
        {
          "internalType": "address",
          "name": "src",
          "type": "address"
        },
        {
          "internalType": "address",
          "name": "dst",
          "type": "address"
        }
      ],
      "name": "allowance",
      "outputs": [
        {
          "internalType": "uint256",
          "name": "",
          "type": "uint256"
        }
      ],
      "payable": false,
      "stateMutability": "view",
      "type": "function"
    },
    {
      "constant": false,
      "inputs": [
        {
          "internalType": "address",
          "name": "dst",
          "type": "address"
        },
        {
          "internalType": "uint256",
          "name": "amt",
          "type": "uint256"
        }
      ],
      "name": "approve",
      "outputs": [
        {
          "internalType": "bool",
          "name": "",
          "type": "bool"
        }
      ],
      "payable": false,
      "stateMutability": "nonpayable",
      "type": "function"
    },
    {
      "constant": true,
      "inputs": [
        {
          "internalType": "address",
          "name": "whom",
          "type": "address"
        }
      ],
      "name": "balanceOf",
      "outputs": [
        {
          "internalType": "uint256",
          "name": "",
          "type": "uint256"
        }
      ],
      "payable": false,
      "stateMutability": "view",
      "type": "function"
    },
    {
      "constant": false,
      "inputs": [
        {
          "internalType": "address",
          "name": "dst",
          "type": "address"
        },
        {
          "internalType": "uint256",
          "name": "amt",
          "type": "uint256"
        }
      ],
      "name": "decreaseApproval",
      "outputs": [
        {
          "internalType": "bool",
          "name": "",
          "type": "bool"
        }
      ],
      "payable": false,
      "stateMutability": "nonpayable",
      "type": "function"
    },
    {
      "constant": true,
      "inputs": [],
      "name": "getColor",
      "outputs": [
        {
          "internalType": "bytes32",
          "name": "",
          "type": "bytes32"
        }
      ],
      "payable": false,
      "stateMutability": "view",
      "type": "function"
    },
    {
      "constant": false,
      "inputs": [
        {
          "internalType": "address",
          "name": "dst",
          "type": "address"
        },
        {
          "internalType": "uint256",
          "name": "amt",
          "type": "uint256"
        }
      ],
      "name": "increaseApproval",
      "outputs": [
        {
          "internalType": "bool",
          "name": "",
          "type": "bool"
        }
      ],
      "payable": false,
      "stateMutability": "nonpayable",
      "type": "function"
    },
    {
      "constant": true,
      "inputs": [],
      "name": "totalSupply",
      "outputs": [
        {
          "internalType": "uint256",
          "name": "",
          "type": "uint256"
        }
      ],
      "payable": false,
      "stateMutability": "view",
      "type": "function"
    },
    {
      "constant": false,
      "inputs": [
        {
          "internalType": "address",
          "name": "dst",
          "type": "address"
        },
        {
          "internalType": "uint256",
          "name": "amt",
          "type": "uint256"
        }
      ],
      "name": "transfer",
      "outputs": [
        {
          "internalType": "bool",
          "name": "",
          "type": "bool"
        }
      ],
      "payable": false,
      "stateMutability": "nonpayable",
      "type": "function"
    },
    {
      "constant": false,
      "inputs": [
        {
          "internalType": "address",
          "name": "src",
          "type": "address"
        },
        {
          "internalType": "address",
          "name": "dst",
          "type": "address"
        },
        {
          "internalType": "uint256",
          "name": "amt",
          "type": "uint256"
        }
      ],
      "name": "transferFrom",
      "outputs": [
        {
          "internalType": "bool",
          "name": "",
          "type": "bool"
        }
      ],
      "payable": false,
      "stateMutability": "nonpayable",
      "type": "function"
    },
    {
      "constant": true,
      "inputs": [],
      "name": "isPublicSwap",
      "outputs": [
        {
          "internalType": "bool",
          "name": "",
          "type": "bool"
        }
      ],
      "payable": false,
      "stateMutability": "view",
      "type": "function"
    },
    {
      "constant": true,
      "inputs": [],
      "name": "isFinalized",
      "outputs": [
        {
          "internalType": "bool",
          "name": "",
          "type": "bool"
        }
      ],
      "payable": false,
      "stateMutability": "view",
      "type": "function"
    },
    {
      "constant": true,
      "inputs": [
        {
          "internalType": "address",
          "name": "t",
          "type": "address"
        }
      ],
      "name": "isBound",
      "outputs": [
        {
          "internalType": "bool",
          "name": "",
          "type": "bool"
        }
      ],
      "payable": false,
      "stateMutability": "view",
      "type": "function"
    },
    {
      "constant": true,
      "inputs": [],
      "name": "getNumTokens",
      "outputs": [
        {
          "internalType": "uint256",
          "name": "",
          "type": "uint256"
        }
      ],
      "payable": false,
      "stateMutability": "view",
      "type": "function"
    },
    {
      "constant": true,
      "inputs": [],
      "name": "getCurrentTokens",
      "outputs": [
        {
          "internalType": "address[]",
          "name": "tokens",
          "type": "address[]"
        }
      ],
      "payable": false,
      "stateMutability": "view",
      "type": "function"
    },
    {
      "constant": true,
      "inputs": [],
      "name": "getFinalTokens",
      "outputs": [
        {
          "internalType": "address[]",
          "name": "tokens",
          "type": "address[]"
        }
      ],
      "payable": false,
      "stateMutability": "view",
      "type": "function"
    },
    {
      "constant": true,
      "inputs": [
        {
          "internalType": "address",
          "name": "token",
          "type": "address"
        }
      ],
      "name": "getDenormalizedWeight",
      "outputs": [
        {
          "internalType": "uint256",
          "name": "",
          "type": "uint256"
        }
      ],
      "payable": false,
      "stateMutability": "view",
      "type": "function"
    },
    {
      "constant": true,
      "inputs": [],
      "name": "getTotalDenormalizedWeight",
      "outputs": [
        {
          "internalType": "uint256",
          "name": "",
          "type": "uint256"
        }
      ],
      "payable": false,
      "stateMutability": "view",
      "type": "function"
    },
    {
      "constant": true,
      "inputs": [
        {
          "internalType": "address",
          "name": "token",
          "type": "address"
        }
      ],
      "name": "getNormalizedWeight",
      "outputs": [
        {
          "internalType": "uint256",
          "name": "",
          "type": "uint256"
        }
      ],
      "payable": false,
      "stateMutability": "view",
      "type": "function"
    },
    {
      "constant": true,
      "inputs": [
        {
          "internalType": "address",
          "name": "token",
          "type": "address"
        }
      ],
      "name": "getBalance",
      "outputs": [
        {
          "internalType": "uint256",
          "name": "",
          "type": "uint256"
        }
      ],
      "payable": false,
      "stateMutability": "view",
      "type": "function"
    },
    {
      "constant": true,
      "inputs": [],
      "name": "getSwapFee",
      "outputs": [
        {
          "internalType": "uint256",
          "name": "",
          "type": "uint256"
        }
      ],
      "payable": false,
      "stateMutability": "view",
      "type": "function"
    },
    {
      "constant": true,
      "inputs": [],
      "name": "getController",
      "outputs": [
        {
          "internalType": "address",
          "name": "",
          "type": "address"
        }
      ],
      "payable": false,
      "stateMutability": "view",
      "type": "function"
    },
    {
      "constant": false,
      "inputs": [
        {
          "internalType": "uint256",
          "name": "swapFee",
          "type": "uint256"
        }
      ],
      "name": "setSwapFee",
      "outputs": [],
      "payable": false,
      "stateMutability": "nonpayable",
      "type": "function"
    },
    {
      "constant": false,
      "inputs": [
        {
          "internalType": "address",
          "name": "manager",
          "type": "address"
        }
      ],
      "name": "setController",
      "outputs": [],
      "payable": false,
      "stateMutability": "nonpayable",
      "type": "function"
    },
    {
      "constant": false,
      "inputs": [
        {
          "internalType": "bool",
          "name": "public_",
          "type": "bool"
        }
      ],
      "name": "setPublicSwap",
      "outputs": [],
      "payable": false,
      "stateMutability": "nonpayable",
      "type": "function"
    },
    {
      "constant": false,
      "inputs": [
        {
          "internalType": "uint256",
          "name": "initSupply",
          "type": "uint256"
        }
      ],
      "name": "finalize",
      "outputs": [],
      "payable": false,
      "stateMutability": "nonpayable",
      "type": "function"
    },
    {
      "constant": false,
      "inputs": [
        {
          "internalType": "address",
          "name": "token",
          "type": "address"
        },
        {
          "internalType": "uint256",
          "name": "balance",
          "type": "uint256"
        },
        {
          "internalType": "uint256",
          "name": "denorm",
          "type": "uint256"
        }
      ],
      "name": "bind",
      "outputs": [],
      "payable": false,
      "stateMutability": "nonpayable",
      "type": "function"
    },
    {
      "constant": false,
      "inputs": [
        {
          "internalType": "address",
          "name": "token",
          "type": "address"
        },
        {
          "internalType": "uint256",
          "name": "balance",
          "type": "uint256"
        },
        {
          "internalType": "uint256",
          "name": "denorm",
          "type": "uint256"
        }
      ],
      "name": "rebind",
      "outputs": [],
      "payable": false,
      "stateMutability": "nonpayable",
      "type": "function"
    },
    {
      "constant": false,
      "inputs": [
        {
          "internalType": "address",
          "name": "token",
          "type": "address"
        }
      ],
      "name": "unbind",
      "outputs": [],
      "payable": false,
      "stateMutability": "nonpayable",
      "type": "function"
    },
    {
      "constant": false,
      "inputs": [
        {
          "internalType": "address",
          "name": "token",
          "type": "address"
        }
      ],
      "name": "gulp",
      "outputs": [],
      "payable": false,
      "stateMutability": "nonpayable",
      "type": "function"
    },
    {
      "constant": true,
      "inputs": [
        {
          "internalType": "address",
          "name": "tokenIn",
          "type": "address"
        },
        {
          "internalType": "address",
          "name": "tokenOut",
          "type": "address"
        }
      ],
      "name": "getSpotPrice",
      "outputs": [
        {
          "internalType": "uint256",
          "name": "spotPrice",
          "type": "uint256"
        }
      ],
      "payable": false,
      "stateMutability": "view",
      "type": "function"
    },
    {
      "constant": true,
      "inputs": [
        {
          "internalType": "address",
          "name": "tokenIn",
          "type": "address"
        },
        {
          "internalType": "address",
          "name": "tokenOut",
          "type": "address"
        }
      ],
      "name": "getSpotPriceSansFee",
      "outputs": [
        {
          "internalType": "uint256",
          "name": "spotPrice",
          "type": "uint256"
        }
      ],
      "payable": false,
      "stateMutability": "view",
      "type": "function"
    },
    {
      "constant": false,
      "inputs": [
        {
          "internalType": "uint256",
          "name": "poolAmountOut",
          "type": "uint256"
        }
      ],
      "name": "joinPool",
      "outputs": [],
      "payable": false,
      "stateMutability": "nonpayable",
      "type": "function"
    },
    {
      "constant": false,
      "inputs": [
        {
          "internalType": "uint256",
          "name": "poolAmountIn",
          "type": "uint256"
        }
      ],
      "name": "exitPool",
      "outputs": [],
      "payable": false,
      "stateMutability": "nonpayable",
      "type": "function"
    },
    {
      "constant": false,
      "inputs": [
        {
          "internalType": "address",
          "name": "tokenIn",
          "type": "address"
        },
        {
          "internalType": "uint256",
          "name": "tokenAmountIn",
          "type": "uint256"
        },
        {
          "internalType": "address",
          "name": "tokenOut",
          "type": "address"
        },
        {
          "internalType": "uint256",
          "name": "minAmountOut",
          "type": "uint256"
        },
        {
          "internalType": "uint256",
          "name": "maxPrice",
          "type": "uint256"
        }
      ],
      "name": "swapExactAmountIn",
      "outputs": [
        {
          "internalType": "uint256",
          "name": "tokenAmountOut",
          "type": "uint256"
        },
        {
          "internalType": "uint256",
          "name": "spotPriceTarget",
          "type": "uint256"
        }
      ],
      "payable": false,
      "stateMutability": "nonpayable",
      "type": "function"
    },
    {
      "constant": false,
      "inputs": [
        {
          "internalType": "address",
          "name": "tokenIn",
          "type": "address"
        },
        {
          "internalType": "uint256",
          "name": "maxAmountIn",
          "type": "uint256"
        },
        {
          "internalType": "address",
          "name": "tokenOut",
          "type": "address"
        },
        {
          "internalType": "uint256",
          "name": "tokenAmountOut",
          "type": "uint256"
        },
        {
          "internalType": "uint256",
          "name": "maxPrice",
          "type": "uint256"
        }
      ],
      "name": "swapExactAmountOut",
      "outputs": [
        {
          "internalType": "uint256",
          "name": "tokenAmountIn",
          "type": "uint256"
        },
        {
          "internalType": "uint256",
          "name": "spotPriceTarget",
          "type": "uint256"
        }
      ],
      "payable": false,
      "stateMutability": "nonpayable",
      "type": "function"
    },
    {
      "constant": false,
      "inputs": [
        {
          "internalType": "address",
          "name": "tokenIn",
          "type": "address"
        },
        {
          "internalType": "uint256",
          "name": "tokenAmountIn",
          "type": "uint256"
        }
      ],
      "name": "joinswapExternAmountIn",
      "outputs": [
        {
          "internalType": "uint256",
          "name": "poolAmountOut",
          "type": "uint256"
        }
      ],
      "payable": false,
      "stateMutability": "nonpayable",
      "type": "function"
    },
    {
      "constant": false,
      "inputs": [
        {
          "internalType": "uint256",
          "name": "poolAmountOut",
          "type": "uint256"
        },
        {
          "internalType": "address",
          "name": "tokenIn",
          "type": "address"
        }
      ],
      "name": "joinswapPoolAmountOut",
      "outputs": [
        {
          "internalType": "uint256",
          "name": "tokenAmountIn",
          "type": "uint256"
        }
      ],
      "payable": false,
      "stateMutability": "nonpayable",
      "type": "function"
    },
    {
      "constant": false,
      "inputs": [
        {
          "internalType": "uint256",
          "name": "poolAmountIn",
          "type": "uint256"
        },
        {
          "internalType": "address",
          "name": "tokenOut",
          "type": "address"
        }
      ],
      "name": "exitswapPoolAmountIn",
      "outputs": [
        {
          "internalType": "uint256",
          "name": "tokenAmountOut",
          "type": "uint256"
        }
      ],
      "payable": false,
      "stateMutability": "nonpayable",
      "type": "function"
    },
    {
      "constant": false,
      "inputs": [
        {
          "internalType": "address",
          "name": "tokenOut",
          "type": "address"
        },
        {
          "internalType": "uint256",
          "name": "tokenAmountOut",
          "type": "uint256"
        }
      ],
      "name": "exitswapExternAmountOut",
      "outputs": [
        {
          "internalType": "uint256",
          "name": "poolAmountIn",
          "type": "uint256"
        }
      ],
      "payable": false,
      "stateMutability": "nonpayable",
      "type": "function"
    }
  ],
  "bytecode": "0x608060405234801561001057600080fd5b50600480546003805461010060a860020a0319163361010081029190911790915564e8d4a51000600555600160a060020a03199091161760a060020a60ff02191690556006805460ff19169055614e288061006c6000396000f3fe608060405234801561001057600080fd5b506004361061037a576000357c010000000000000000000000000000000000000000000000000000000090048063936c3477116101f0578063cc77828d11610121578063e4a28a52116100bf578063ec09302111610099578063ec09302114610947578063f1b8a9b71461094f578063f8b2cb4f14610975578063fde924f71461099b5761037a565b8063e4a28a52146103de578063e4e1e538146108e9578063e4f348f71461091b5761037a565b8063d4cadf68116100fb578063d4cadf681461087f578063d73dd62314610887578063dd62ed3e146108b3578063def92c69146108e15761037a565b8063cc77828d14610849578063cd2ed8fb14610851578063cf5e7bd3146108595761037a565b8063bc063e1a1161018e578063be3bbd2e11610168578063be3bbd2e146107bd578063c36596a614610464578063c424fe8914610815578063c6580d12146108415761037a565b8063bc063e1a14610790578063bc694ea214610798578063be1d24ad146107a05761037a565b80639a86139b116101ca5780639a86139b1461074c578063a9059cbb14610754578063b0e0d13614610780578063ba019dab146107885761037a565b8063936c347714610716578063948d8ce61461071e578063992e2a92146107445761037a565b80633fdddaa2116102ca5780637c5e9ea411610268578063867378c511610242578063867378c5146106215780638c28cbe8146106c25780638d4e4083146106e857806392eefe9b146106f05761037a565b80637c5e9ea4146106295780637e88781c146104645780638201aa3f146106825761037a565b806366188463116102a457806366188463146105a35780636d4fd626146105cf57806370a08231146105fb57806376c7a3c7146106215761037a565b80633fdddaa214610526578063447fc5cc1461055857806349b59552146105845761037a565b8063189d00ca116103375780632f37b624116103115780632f37b624146104a25780633018205f146104c857806334e19907146104ec57806334e7a19f146105095761037a565b8063189d00ca1461045c578063218b53821461046457806323b872dd1461046c5761037a565b806305261aea1461037f578063095ea7b31461039e57806309a3bbe4146103de5780631446a7ff146103f857806315e84af91461042657806318160ddd14610454575b600080fd5b61039c6004803603602081101561039557600080fd5b50356109a3565b005b6103ca600480360360408110156103b457600080fd5b50600160a060020a038135169060200135610bb7565b604080519115158252519081900360200190f35b6103e6610c0a565b60408051918252519081900360200190f35b6103e66004803603604081101561040e57600080fd5b50600160a060020a0381358116916020013516610c17565b6103e66004803603604081101561043c57600080fd5b50600160a060020a0381358116916020013516610d46565b6103e6610e6c565b6103e6610e72565b6103e6610e86565b6103ca6004803603606081101561048257600080fd5b50600160a060020a03813581169160208101359091169060400135610e92565b6103ca600480360360208110156104b857600080fd5b5035600160a060020a0316610fef565b6104d061100d565b60408051600160a060020a039092168252519081900360200190f35b61039c6004803603602081101561050257600080fd5b5035611069565b61039c6004803603602081101561051f57600080fd5b5035611285565b61039c6004803603606081101561053c57600080fd5b50600160a060020a0381351690602081013590604001356114c5565b6103e66004803603604081101561056e57600080fd5b50600160a060020a038135169060200135611968565b61039c6004803603602081101561059a57600080fd5b50351515611bb4565b6103ca600480360360408110156105b957600080fd5b50600160a060020a038135169060200135611d4e565b6103e6600480360360408110156105e557600080fd5b5080359060200135600160a060020a0316611e1e565b6103e66004803603602081101561061157600080fd5b5035600160a060020a031661202a565b6103e6612045565b610669600480360360a081101561063f57600080fd5b50600160a060020a0381358116916020810135916040820135169060608101359060800135612057565b6040805192835260208301919091528051918290030190f35b610669600480360360a081101561069857600080fd5b50600160a060020a038135811691602081013591604082013516906060810135906080013561252d565b61039c600480360360208110156106d857600080fd5b5035600160a060020a03166129ea565b6103ca612ba3565b61039c6004803603602081101561070657600080fd5b5035600160a060020a0316612bac565b6103e6612cee565b6103e66004803603602081101561073457600080fd5b5035600160a060020a0316612d41565b6103e6612df7565b6103e6612e03565b6103ca6004803603604081101561076a57600080fd5b50600160a060020a038135169060200135612e27565b6103e6612e3d565b6103e6612e42565b6103e6612e47565b6103e6612e57565b61039c600480360360208110156107b657600080fd5b5035612e63565b6107c56130e7565b60408051602080825283518183015283519192839290830191858101910280838360005b838110156108015781810151838201526020016107e9565b505050509050019250505060405180910390f35b6103e66004803603604081101561082b57600080fd5b5080359060200135600160a060020a03166131ed565b6103e6613422565b6107c5613433565b6103e661347f565b61039c6004803603602081101561086f57600080fd5b5035600160a060020a0316613485565b6103e66137ff565b6103ca6004803603604081101561089d57600080fd5b50600160a060020a038135169060200135613852565b6103e6600480360360408110156108c957600080fd5b50600160a060020a03813581169160200135166138cf565b6103e66138f8565b61039c600480360360608110156108ff57600080fd5b50600160a060020a038135169060208101359060400135613909565b6103e66004803603604081101561093157600080fd5b50600160a060020a038135169060200135613b7c565b6103e6613d77565b6103e66004803603602081101561096557600080fd5b5035600160a060020a0316613d87565b6103e66004803603602081101561098b57600080fd5b5035600160a060020a0316613e4f565b6103ca613f05565b33600160a060020a0316600035600160e060020a031916600160e060020a03191660003660405180806020018281038252848482818152602001925080828437600083820152604051601f909101601f19169092018290039550909350505050a260035460ff1615610a4d576040805160e560020a62461bcd02815260206004820152600b6024820152600080516020614d14833981519152604482015290519081900360640190fd5b6003805460ff1916600117905560045433600160a060020a0390911614610aac576040805160e560020a62461bcd0281526020600482015260126024820152600080516020614d54833981519152604482015290519081900360640190fd5b60065460ff1615610af5576040805160e560020a62461bcd0281526020600482015260106024820152600080516020614db4833981519152604482015290519081900360640190fd5b670de0b6b3a7640000811015610b55576040805160e560020a62461bcd02815260206004820152601360248201527f4552525f4d494e5f504f4f4c5f535550504c5900000000000000000000000000604482015290519081900360640190fd5b6006805460ff191660011790556004805474ff0000000000000000000000000000000000000000191674010000000000000000000000000000000000000000179055610ba081613f26565b610baa3382613f32565b506003805460ff19169055565b33600081815260208181526040808320600160a060020a03871680855290835281842086905581518681529151939490939092600080516020614d94833981519152928290030190a35060015b92915050565b6802b5e3af16b188000081565b60035460009060ff1615610c63576040805160e560020a62461bcd02815260206004820152600b6024820152600080516020614d14833981519152604482015290519081900360640190fd5b610c6c83610fef565b610cae576040805160e560020a62461bcd02815260206004820152600d6024820152600080516020614d74833981519152604482015290519081900360640190fd5b610cb782610fef565b610cf9576040805160e560020a62461bcd02815260206004820152600d6024820152600080516020614d74833981519152604482015290519081900360640190fd5b600160a060020a038084166000908152600860205260408082209285168252812060038084015460028086015492840154908401549394610d3d9492939290613f40565b95945050505050565b60035460009060ff1615610d92576040805160e560020a62461bcd02815260206004820152600b6024820152600080516020614d14833981519152604482015290519081900360640190fd5b610d9b83610fef565b610ddd576040805160e560020a62461bcd02815260206004820152600d6024820152600080516020614d74833981519152604482015290519081900360640190fd5b610de682610fef565b610e28576040805160e560020a62461bcd02815260206004820152600d6024820152600080516020614d74833981519152604482015290519081900360640190fd5b600160a060020a03808416600090815260086020526040808220928516825290206003808301546002808501549284015490840154600554610d3d94929190613f40565b60025490565b6402540be400670de0b6b3a76400005b0481565b670de0b6b3a764000081565b600033600160a060020a0385161480610ecc5750600160a060020a0384166000908152602081815260408083203384529091529020548211155b610f20576040805160e560020a62461bcd02815260206004820152601560248201527f4552525f42544f4b454e5f4241445f43414c4c45520000000000000000000000604482015290519081900360640190fd5b610f2b848484613faa565b33600160a060020a03851614801590610f675750600160a060020a03841660009081526020818152604080832033845290915290205460001914155b15610fe557600160a060020a038416600090815260208181526040808320338452909152902054610f9890836140c8565b600160a060020a038581166000908152602081815260408083203380855290835292819020859055805194855251928716939192600080516020614d948339815191529281900390910190a35b5060019392505050565b600160a060020a031660009081526008602052604090205460ff1690565b60035460009060ff1615611059576040805160e560020a62461bcd02815260206004820152600b6024820152600080516020614d14833981519152604482015290519081900360640190fd5b50600454600160a060020a031690565b33600160a060020a0316600035600160e060020a031916600160e060020a03191660003660405180806020018281038252848482818152602001925080828437600083820152604051601f909101601f19169092018290039550909350505050a260035460ff1615611113576040805160e560020a62461bcd02815260206004820152600b6024820152600080516020614d14833981519152604482015290519081900360640190fd5b6003805460ff1916600117905560065460ff1615611169576040805160e560020a62461bcd0281526020600482015260106024820152600080516020614db4833981519152604482015290519081900360640190fd5b600454600160a060020a031633146111b9576040805160e560020a62461bcd0281526020600482015260126024820152600080516020614d54833981519152604482015290519081900360640190fd5b64e8d4a51000811015611216576040805160e560020a62461bcd02815260206004820152600b60248201527f4552525f4d494e5f464545000000000000000000000000000000000000000000604482015290519081900360640190fd5b67016345785d8a0000811115611276576040805160e560020a62461bcd02815260206004820152600b60248201527f4552525f4d41585f464545000000000000000000000000000000000000000000604482015290519081900360640190fd5b6005556003805460ff19169055565b33600160a060020a0316600035600160e060020a031916600160e060020a03191660003660405180806020018281038252848482818152602001925080828437600083820152604051601f909101601f19169092018290039550909350505050a260035460ff161561132f576040805160e560020a62461bcd02815260206004820152600b6024820152600080516020614d14833981519152604482015290519081900360640190fd5b6003805460ff1916600117905560065460ff16611396576040805160e560020a62461bcd02815260206004820152601160248201527f4552525f4e4f545f46494e414c495a4544000000000000000000000000000000604482015290519081900360640190fd5b60006113a0610e6c565b905060006113ae8383614139565b9050806113ba57600080fd5b60005b6007548110156114a2576000600782815481106113d657fe5b6000918252602080832090910154600160a060020a0316808352600890915260408220600301549092509061140b8583614280565b600160a060020a0384166000908152600860205260409020600301549091506114349082614362565b600160a060020a0384166000818152600860209081526040918290206003019390935580518481529051919233927f63982df10efd8dfaaaa0fcc7f50b2d93b7cba26ccc48adee2873220d485dc39a9281900390910190a36114978333836143bf565b5050506001016113bd565b506114ac83613f26565b6114b63384613f32565b50506003805460ff1916905550565b33600160a060020a0316600035600160e060020a031916600160e060020a03191660003660405180806020018281038252848482818152602001925080828437600083820152604051601f909101601f19169092018290039550909350505050a260035460ff161561156f576040805160e560020a62461bcd02815260206004820152600b6024820152600080516020614d14833981519152604482015290519081900360640190fd5b6003805460ff1916600117905560045433600160a060020a03909116146115ce576040805160e560020a62461bcd0281526020600482015260126024820152600080516020614d54833981519152604482015290519081900360640190fd5b6115d783610fef565b611619576040805160e560020a62461bcd02815260206004820152600d6024820152600080516020614d74833981519152604482015290519081900360640190fd5b60065460ff1615611662576040805160e560020a62461bcd0281526020600482015260106024820152600080516020614db4833981519152604482015290519081900360640190fd5b670de0b6b3a76400008110156116c2576040805160e560020a62461bcd02815260206004820152600e60248201527f4552525f4d494e5f574549474854000000000000000000000000000000000000604482015290519081900360640190fd5b6802b5e3af16b1880000811115611723576040805160e560020a62461bcd02815260206004820152600e60248201527f4552525f4d41585f574549474854000000000000000000000000000000000000604482015290519081900360640190fd5b64e8d4a51000821015611780576040805160e560020a62461bcd02815260206004820152600f60248201527f4552525f4d494e5f42414c414e43450000000000000000000000000000000000604482015290519081900360640190fd5b6c0c9f2c9cd04674edea400000008211156117e5576040805160e560020a62461bcd02815260206004820152600f60248201527f4552525f4d41585f42414c414e43450000000000000000000000000000000000604482015290519081900360640190fd5b600160a060020a038316600090815260086020526040902060020154808211156118885761181e60095461181984846140c8565b614362565b60098190556802b5e3af16b18800001015611883576040805160e560020a62461bcd02815260206004820152601460248201527f4552525f4d41585f544f54414c5f574549474854000000000000000000000000604482015290519081900360640190fd5b6118a9565b808210156118a9576118a56009546118a083856140c8565b6140c8565b6009555b600160a060020a038416600090815260086020526040902060028101839055600301805490849055808411156118f2576118ed85336118e887856140c8565b6143bf565b611957565b8084101561195757600061190682866140c8565b9050600061192182612710670de0b6b3a76400005b04614280565b9050611937873361193285856140c8565b6144ba565b6003546119549088906101009004600160a060020a0316836144ba565b50505b50506003805460ff19169055505050565b600033600160a060020a0316600035600160e060020a031916600160e060020a03191660003660405180806020018281038252848482818152602001925080828437600083820152604051601f909101601f19169092018290039550909350505050a260035460ff1615611a14576040805160e560020a62461bcd02815260206004820152600b6024820152600080516020614d14833981519152604482015290519081900360640190fd5b6003805460ff19166001179055611a2a83610fef565b611a6c576040805160e560020a62461bcd02815260206004820152600d6024820152600080516020614d74833981519152604482015290519081900360640190fd5b611a74613f05565b611ab6576040805160e560020a62461bcd0281526020600482015260136024820152600080516020614d34833981519152604482015290519081900360640190fd5b600160a060020a038316600090815260086020526040902060038101546002808301549054600954600554611af094939291908890614526565b9150611b008160030154846140c8565b60038201556000611b1c83612710670de0b6b3a764000061191b565b604080518681529051919250600160a060020a0387169133917fe74c91552b64c2e2e7bd255639e004e693bd3e1d01cc33e65610b86afcc1ffed919081900360200190a3611b6a33846145e9565b611b7c611b7784836140c8565b6145f3565b600354611b97906101009004600160a060020a031682613f32565b611ba28533866144ba565b50506003805460ff1916905592915050565b33600160a060020a0316600035600160e060020a031916600160e060020a03191660003660405180806020018281038252848482818152602001925080828437600083820152604051601f909101601f19169092018290039550909350505050a260035460ff1615611c5e576040805160e560020a62461bcd02815260206004820152600b6024820152600080516020614d14833981519152604482015290519081900360640190fd5b6003805460ff1916600117905560065460ff1615611cb4576040805160e560020a62461bcd0281526020600482015260106024820152600080516020614db4833981519152604482015290519081900360640190fd5b600454600160a060020a03163314611d04576040805160e560020a62461bcd0281526020600482015260126024820152600080516020614d54833981519152604482015290519081900360640190fd5b60048054911515740100000000000000000000000000000000000000000274ff0000000000000000000000000000000000000000199092169190911790556003805460ff19169055565b33600090815260208181526040808320600160a060020a038616845290915281205480831115611d9f5733600090815260208181526040808320600160a060020a0388168452909152812055611dcc565b611da981846140c8565b33600090815260208181526040808320600160a060020a03891684529091529020555b33600081815260208181526040808320600160a060020a038916808552908352928190205481519081529051929392600080516020614d94833981519152929181900390910190a35060019392505050565b600033600160a060020a0316600035600160e060020a031916600160e060020a03191660003660405180806020018281038252848482818152602001925080828437600083820152604051601f909101601f19169092018290039550909350505050a260035460ff1615611eca576040805160e560020a62461bcd02815260206004820152600b6024820152600080516020614d14833981519152604482015290519081900360640190fd5b6003805460ff19166001179055611ee082610fef565b611f22576040805160e560020a62461bcd02815260206004820152600d6024820152600080516020614d74833981519152604482015290519081900360640190fd5b611f2a613f05565b611f6c576040805160e560020a62461bcd0281526020600482015260136024820152600080516020614d34833981519152604482015290519081900360640190fd5b600160a060020a038216600090815260086020526040902060038101546002808301549054600954600554611fa6949392919089906145fc565b9150611fb6816003015483614362565b6003820155604080518381529051600160a060020a0385169133917f63982df10efd8dfaaaa0fcc7f50b2d93b7cba26ccc48adee2873220d485dc39a9181900360200190a361200484613f26565b61200e3385613f32565b6120198333846143bf565b506003805460ff1916905592915050565b600160a060020a031660009081526001602052604090205490565b620f4240670de0b6b3a7640000610e82565b6040805160208082523690820181905260009283923392600160e060020a03198535169285929081908101848480828437600083820152604051601f909101601f19169092018290039550909350505050a260035460ff16156120f2576040805160e560020a62461bcd02815260206004820152600b6024820152600080516020614d14833981519152604482015290519081900360640190fd5b6003805460ff1916600117905561210887610fef565b61214a576040805160e560020a62461bcd02815260206004820152600d6024820152600080516020614d74833981519152604482015290519081900360640190fd5b61215385610fef565b612195576040805160e560020a62461bcd02815260206004820152600d6024820152600080516020614d74833981519152604482015290519081900360640190fd5b61219d613f05565b6121df576040805160e560020a62461bcd0281526020600482015260136024820152600080516020614d34833981519152604482015290519081900360640190fd5b600160a060020a03878116600090815260086020526040808220928816825290206003810154612217906704a03ce68d215556614280565b86111561226e576040805160e560020a62461bcd02815260206004820152601160248201527f4552525f4d41585f4f55545f524154494f000000000000000000000000000000604482015290519081900360640190fd5b600061228f8360030154846002015484600301548560020154600554613f40565b9050858111156122e9576040805160e560020a62461bcd02815260206004820152601360248201527f4552525f4241445f4c494d49545f505249434500000000000000000000000000604482015290519081900360640190fd5b61230983600301548460020154846003015485600201548b6005546146af565b945088851115612363576040805160e560020a62461bcd02815260206004820152600c60248201527f4552525f4c494d49545f494e0000000000000000000000000000000000000000604482015290519081900360640190fd5b612371836003015486614362565b83600301819055506123878260030154886140c8565b826003018190555060006123b08460030154856002015485600301548660020154600554613f40565b9050818110156123f8576040805160e560020a62461bcd02815260206004820152600f6024820152600080516020614dd4833981519152604482015290519081900360640190fd5b86811115612450576040805160e560020a62461bcd02815260206004820152600f60248201527f4552525f4c494d49545f50524943450000000000000000000000000000000000604482015290519081900360640190fd5b61245a8689614139565b82111561249f576040805160e560020a62461bcd02815260206004820152600f6024820152600080516020614dd4833981519152604482015290519081900360640190fd5b88600160a060020a03168b600160a060020a031633600160a060020a03167f908fb5ee8f16c6bc9bc3690973819f32a4d4b10188134543c88706e0e1d43378898c604051808381526020018281526020019250505060405180910390a46125078b33886143bf565b61251289338a6144ba565b93505050506003805460ff1916905590969095509350505050565b6040805160208082523690820181905260009283923392600160e060020a03198535169285929081908101848480828437600083820152604051601f909101601f19169092018290039550909350505050a260035460ff16156125c8576040805160e560020a62461bcd02815260206004820152600b6024820152600080516020614d14833981519152604482015290519081900360640190fd5b6003805460ff191660011790556125de87610fef565b612620576040805160e560020a62461bcd02815260206004820152600d6024820152600080516020614d74833981519152604482015290519081900360640190fd5b61262985610fef565b61266b576040805160e560020a62461bcd02815260206004820152600d6024820152600080516020614d74833981519152604482015290519081900360640190fd5b612673613f05565b6126b5576040805160e560020a62461bcd0281526020600482015260136024820152600080516020614d34833981519152604482015290519081900360640190fd5b600160a060020a038088166000908152600860205260408082209288168252902060038201546126ef906002670de0b6b3a764000061191b565b881115612746576040805160e560020a62461bcd02815260206004820152601060248201527f4552525f4d41585f494e5f524154494f00000000000000000000000000000000604482015290519081900360640190fd5b60006127678360030154846002015484600301548560020154600554613f40565b9050858111156127c1576040805160e560020a62461bcd02815260206004820152601360248201527f4552525f4241445f4c494d49545f505249434500000000000000000000000000604482015290519081900360640190fd5b6127e183600301548460020154846003015485600201548d600554614732565b94508685101561283b576040805160e560020a62461bcd02815260206004820152600d60248201527f4552525f4c494d49545f4f555400000000000000000000000000000000000000604482015290519081900360640190fd5b61284983600301548a614362565b836003018190555061285f8260030154866140c8565b826003018190555060006128888460030154856002015485600301548660020154600554613f40565b9050818110156128d0576040805160e560020a62461bcd02815260206004820152600f6024820152600080516020614dd4833981519152604482015290519081900360640190fd5b86811115612928576040805160e560020a62461bcd02815260206004820152600f60248201527f4552525f4c494d49545f50524943450000000000000000000000000000000000604482015290519081900360640190fd5b6129328a87614139565b821115612977576040805160e560020a62461bcd02815260206004820152600f6024820152600080516020614dd4833981519152604482015290519081900360640190fd5b88600160a060020a03168b600160a060020a031633600160a060020a03167f908fb5ee8f16c6bc9bc3690973819f32a4d4b10188134543c88706e0e1d433788d8a604051808381526020018281526020019250505060405180910390a46129df8b338c6143bf565b6125128933886144ba565b33600160a060020a0316600035600160e060020a031916600160e060020a03191660003660405180806020018281038252848482818152602001925080828437600083820152604051601f909101601f19169092018290039550909350505050a260035460ff1615612a94576040805160e560020a62461bcd02815260206004820152600b6024820152600080516020614d14833981519152604482015290519081900360640190fd5b6003805460ff19166001179055612aaa81610fef565b612aec576040805160e560020a62461bcd02815260206004820152600d6024820152600080516020614d74833981519152604482015290519081900360640190fd5b604080517f70a082310000000000000000000000000000000000000000000000000000000081523060048201529051600160a060020a038316916370a08231916024808301926020929190829003018186803b158015612b4b57600080fd5b505afa158015612b5f573d6000803e3d6000fd5b505050506040513d6020811015612b7557600080fd5b5051600160a060020a039091166000908152600860205260409020600390810191909155805460ff19169055565b60065460ff1690565b33600160a060020a0316600035600160e060020a031916600160e060020a03191660003660405180806020018281038252848482818152602001925080828437600083820152604051601f909101601f19169092018290039550909350505050a260035460ff1615612c56576040805160e560020a62461bcd02815260206004820152600b6024820152600080516020614d14833981519152604482015290519081900360640190fd5b6003805460ff1916600117905560045433600160a060020a0390911614612cb5576040805160e560020a62461bcd0281526020600482015260126024820152600080516020614d54833981519152604482015290519081900360640190fd5b6004805473ffffffffffffffffffffffffffffffffffffffff1916600160a060020a03929092169190911790556003805460ff19169055565b60035460009060ff1615612d3a576040805160e560020a62461bcd02815260206004820152600b6024820152600080516020614d14833981519152604482015290519081900360640190fd5b5060095490565b60035460009060ff1615612d8d576040805160e560020a62461bcd02815260206004820152600b6024820152600080516020614d14833981519152604482015290519081900360640190fd5b612d9682610fef565b612dd8576040805160e560020a62461bcd02815260206004820152600d6024820152600080516020614d74833981519152604482015290519081900360640190fd5b50600160a060020a031660009081526008602052604090206002015490565b6704a03ce68d21555681565b7f42524f4e5a45000000000000000000000000000000000000000000000000000090565b6000612e34338484613faa565b50600192915050565b600881565b600181565b600a670de0b6b3a7640000610e82565b671bc16d674ec7ffff81565b33600160a060020a0316600035600160e060020a031916600160e060020a03191660003660405180806020018281038252848482818152602001925080828437600083820152604051601f909101601f19169092018290039550909350505050a260035460ff1615612f0d576040805160e560020a62461bcd02815260206004820152600b6024820152600080516020614d14833981519152604482015290519081900360640190fd5b6003805460ff1916600117905560065460ff16612f74576040805160e560020a62461bcd02815260206004820152601160248201527f4552525f4e4f545f46494e414c495a4544000000000000000000000000000000604482015290519081900360640190fd5b6000612f7e610e6c565b90506000612f9783612710670de0b6b3a764000061191b565b90506000612fa584836140c8565b90506000612fb38285614139565b905080612fbf57600080fd5b612fc933866145e9565b600354612fe4906101009004600160a060020a031684613f32565b612fed826145f3565b60005b6007548110156130d55760006007828154811061300957fe5b6000918252602080832090910154600160a060020a0316808352600890915260408220600301549092509061303e8583614280565b600160a060020a03841660009081526008602052604090206003015490915061306790826140c8565b600160a060020a0384166000818152600860209081526040918290206003019390935580518481529051919233927fe74c91552b64c2e2e7bd255639e004e693bd3e1d01cc33e65610b86afcc1ffed9281900390910190a36130ca8333836144ba565b505050600101612ff0565b50506003805460ff1916905550505050565b60035460609060ff1615613133576040805160e560020a62461bcd02815260206004820152600b6024820152600080516020614d14833981519152604482015290519081900360640190fd5b60065460ff1661318d576040805160e560020a62461bcd02815260206004820152601160248201527f4552525f4e4f545f46494e414c495a4544000000000000000000000000000000604482015290519081900360640190fd5b60078054806020026020016040519081016040528092919081815260200182805480156131e357602002820191906000526020600020905b8154600160a060020a031681526001909101906020018083116131c5575b5050505050905090565b600033600160a060020a0316600035600160e060020a031916600160e060020a03191660003660405180806020018281038252848482818152602001925080828437600083820152604051601f909101601f19169092018290039550909350505050a260035460ff1615613299576040805160e560020a62461bcd02815260206004820152600b6024820152600080516020614d14833981519152604482015290519081900360640190fd5b6003805460ff191660011790556132af82610fef565b6132f1576040805160e560020a62461bcd02815260206004820152600d6024820152600080516020614d74833981519152604482015290519081900360640190fd5b6132f9613f05565b61333b576040805160e560020a62461bcd0281526020600482015260136024820152600080516020614d34833981519152604482015290519081900360640190fd5b600160a060020a038216600090815260086020526040902060038101546002808301549054600954600554613375949392919089906147b3565b91506133858160030154836140c8565b600382015560006133a185612710670de0b6b3a764000061191b565b604080518581529051919250600160a060020a0386169133917fe74c91552b64c2e2e7bd255639e004e693bd3e1d01cc33e65610b86afcc1ffed919081900360200190a36133ef33866145e9565b6133fc611b7786836140c8565b600354613417906101009004600160a060020a031682613f32565b611ba28433856144ba565b612710670de0b6b3a7640000610e82565b60035460609060ff161561318d576040805160e560020a62461bcd02815260206004820152600b6024820152600080516020614d14833981519152604482015290519081900360640190fd5b60075490565b33600160a060020a0316600035600160e060020a031916600160e060020a03191660003660405180806020018281038252848482818152602001925080828437600083820152604051601f909101601f19169092018290039550909350505050a260035460ff161561352f576040805160e560020a62461bcd02815260206004820152600b6024820152600080516020614d14833981519152604482015290519081900360640190fd5b6003805460ff1916600117905560045433600160a060020a039091161461358e576040805160e560020a62461bcd0281526020600482015260126024820152600080516020614d54833981519152604482015290519081900360640190fd5b61359781610fef565b6135d9576040805160e560020a62461bcd02815260206004820152600d6024820152600080516020614d74833981519152604482015290519081900360640190fd5b60065460ff1615613622576040805160e560020a62461bcd0281526020600482015260106024820152600080516020614db4833981519152604482015290519081900360640190fd5b600160a060020a0381166000908152600860205260408120600301549061365482612710670de0b6b3a764000061191b565b600954600160a060020a03851660009081526008602052604090206002015491925061367f916140c8565b600955600160a060020a038316600090815260086020526040902060010154600780546000199283019281019190829081106136b757fe5b60009182526020909120015460078054600160a060020a0390921691849081106136dd57fe5b9060005260206000200160006101000a815481600160a060020a030219169083600160a060020a03160217905550600780548061371657fe5b6001900381819060005260206000200160006101000a815490600160a060020a030219169055905581600860006007858154811061375057fe5b600091825260208083209190910154600160a060020a0390811684528382019490945260409283018220600190810195909555825160808101845282815280820183815281850184815260608301858152968d1685526008909352939092209151825460ff1916901515178255915193810193909355516002830155516003909101556137e2853361193287876140c8565b6003546119579086906101009004600160a060020a0316856144ba565b60035460009060ff161561384b576040805160e560020a62461bcd02815260206004820152600b6024820152600080516020614d14833981519152604482015290519081900360640190fd5b5060055490565b33600090815260208181526040808320600160a060020a038616845290915281205461387e9083614362565b33600081815260208181526040808320600160a060020a038916808552908352928190208590558051948552519193600080516020614d94833981519152929081900390910190a350600192915050565b600160a060020a0391821660009081526020818152604080832093909416825291909152205490565b6c0c9f2c9cd04674edea4000000081565b33600160a060020a0316600035600160e060020a031916600160e060020a03191660003660405180806020018281038252848482818152602001925080828437600083820152604051601f909101601f19169092018290039550909350505050a2600454600160a060020a031633146139ba576040805160e560020a62461bcd0281526020600482015260126024820152600080516020614d54833981519152604482015290519081900360640190fd5b6139c383610fef565b15613a18576040805160e560020a62461bcd02815260206004820152600c60248201527f4552525f49535f424f554e440000000000000000000000000000000000000000604482015290519081900360640190fd5b613a20612ba3565b15613a63576040805160e560020a62461bcd0281526020600482015260106024820152600080516020614db4833981519152604482015290519081900360640190fd5b600754600811613abd576040805160e560020a62461bcd02815260206004820152600e60248201527f4552525f4d41585f544f4b454e53000000000000000000000000000000000000604482015290519081900360640190fd5b604080516080810182526001808252600780546020808501918252600085870181815260608701828152600160a060020a038c1680845260089094529782209651875460ff1916901515178755925186860155915160028601559451600390940193909355805491820181559091527fa66cc928b5edb82af9bd49922954155ab7b0942694bea4ce44661d9a8736c68801805473ffffffffffffffffffffffffffffffffffffffff19169091179055613b778383836114c5565b505050565b600033600160a060020a0316600035600160e060020a031916600160e060020a03191660003660405180806020018281038252848482818152602001925080828437600083820152604051601f909101601f19169092018290039550909350505050a260035460ff1615613c28576040805160e560020a62461bcd02815260206004820152600b6024820152600080516020614d14833981519152604482015290519081900360640190fd5b6003805460ff19166001179055613c3e83610fef565b613c80576040805160e560020a62461bcd02815260206004820152600d6024820152600080516020614d74833981519152604482015290519081900360640190fd5b613c88613f05565b613cca576040805160e560020a62461bcd0281526020600482015260136024820152600080516020614d34833981519152604482015290519081900360640190fd5b600160a060020a038316600090815260086020526040902060038101546002808301549054600954600554613d049493929190889061486a565b9150613d14816003015484614362565b6003820155604080518481529051600160a060020a0386169133917f63982df10efd8dfaaaa0fcc7f50b2d93b7cba26ccc48adee2873220d485dc39a9181900360200190a3613d6282613f26565b613d6c3383613f32565b6120198433856143bf565b6002670de0b6b3a7640000610e82565b60035460009060ff1615613dd3576040805160e560020a62461bcd02815260206004820152600b6024820152600080516020614d14833981519152604482015290519081900360640190fd5b613ddc82610fef565b613e1e576040805160e560020a62461bcd02815260206004820152600d6024820152600080516020614d74833981519152604482015290519081900360640190fd5b600160a060020a038216600090815260086020526040902060020154600954613e48908290614139565b9392505050565b60035460009060ff1615613e9b576040805160e560020a62461bcd02815260206004820152600b6024820152600080516020614d14833981519152604482015290519081900360640190fd5b613ea482610fef565b613ee6576040805160e560020a62461bcd02815260206004820152600d6024820152600080516020614d74833981519152604482015290519081900360640190fd5b50600160a060020a031660009081526008602052604090206003015490565b60045474010000000000000000000000000000000000000000900460ff1690565b613f2f81614906565b50565b613f3c828261497b565b5050565b600080613f4d8787614139565b90506000613f5b8686614139565b90506000613f698383614139565b90506000613f90670de0b6b3a7640000613f8b670de0b6b3a7640000896140c8565b614139565b9050613f9c8282614280565b9a9950505050505050505050565b600160a060020a03831660009081526001602052604090205481111561401a576040805160e560020a62461bcd02815260206004820152601460248201527f4552525f494e53554646494349454e545f42414c000000000000000000000000604482015290519081900360640190fd5b600160a060020a03831660009081526001602052604090205461403d90826140c8565b600160a060020a03808516600090815260016020526040808220939093559084168152205461406c9082614362565b600160a060020a0380841660008181526001602090815260409182902094909455805185815290519193928716927fddf252ad1be2c89b69c2b068fc378daa952ba7f163c4a11628f55a4df523b3ef92918290030190a3505050565b60008060006140d78585614986565b915091508015614131576040805160e560020a62461bcd02815260206004820152601160248201527f4552525f5355425f554e444552464c4f57000000000000000000000000000000604482015290519081900360640190fd5b509392505050565b600081614190576040805160e560020a62461bcd02815260206004820152600c60248201527f4552525f4449565f5a45524f0000000000000000000000000000000000000000604482015290519081900360640190fd5b670de0b6b3a764000083028315806141b85750670de0b6b3a76400008482816141b557fe5b04145b61420c576040805160e560020a62461bcd02815260206004820152601060248201527f4552525f4449565f494e5445524e414c00000000000000000000000000000000604482015290519081900360640190fd5b6002830481018181101561426a576040805160e560020a62461bcd02815260206004820152601060248201527f4552525f4449565f494e5445524e414c00000000000000000000000000000000604482015290519081900360640190fd5b600084828161427557fe5b049695505050505050565b600082820283158061429a57508284828161429757fe5b04145b6142ee576040805160e560020a62461bcd02815260206004820152601060248201527f4552525f4d554c5f4f564552464c4f5700000000000000000000000000000000604482015290519081900360640190fd5b6706f05b59d3b20000810181811015614351576040805160e560020a62461bcd02815260206004820152601060248201527f4552525f4d554c5f4f564552464c4f5700000000000000000000000000000000604482015290519081900360640190fd5b6000670de0b6b3a764000082614275565b600082820183811015613e48576040805160e560020a62461bcd02815260206004820152601060248201527f4552525f4144445f4f564552464c4f5700000000000000000000000000000000604482015290519081900360640190fd5b604080517f23b872dd000000000000000000000000000000000000000000000000000000008152600160a060020a0384811660048301523060248301526044820184905291516000928616916323b872dd91606480830192602092919082900301818787803b15801561443157600080fd5b505af1158015614445573d6000803e3d6000fd5b505050506040513d602081101561445b57600080fd5b50519050806144b4576040805160e560020a62461bcd02815260206004820152600f60248201527f4552525f45524332305f46414c53450000000000000000000000000000000000604482015290519081900360640190fd5b50505050565b604080517fa9059cbb000000000000000000000000000000000000000000000000000000008152600160a060020a03848116600483015260248201849052915160009286169163a9059cbb91604480830192602092919082900301818787803b15801561443157600080fd5b6000806145338786614139565b90506000614549670de0b6b3a7640000836140c8565b905060006145578286614280565b9050600061457187613f8b670de0b6b3a7640000856140c8565b9050600061457f8c836140c8565b9050600061458d828e614139565b9050600061459b82886149ab565b905060006145a9828e614280565b905060006145b78e836140c8565b90506145d481613f8b670de0b6b3a7640000612710815b046140c8565b99505050505050505050509695505050505050565b613f3c8282614ace565b613f2f81614ad9565b6000806146098786614139565b905060006146178786614362565b905060006146258289614139565b9050600061463b670de0b6b3a764000085614139565b9050600061464983836149ab565b90506000614657828e614280565b90506000614665828f6140c8565b9050600061468461467e670de0b6b3a76400008a6140c8565b8b614280565b905061469c82613f8b670de0b6b3a7640000846140c8565b9f9e505050505050505050505050505050565b6000806146bc8588614139565b905060006146ca87866140c8565b905060006146d88883614139565b905060006146e682856149ab565b90506146fa81670de0b6b3a76400006140c8565b905061470e670de0b6b3a7640000876140c8565b945061472361471d8c83614280565b86614139565b9b9a5050505050505050505050565b60008061473f8786614139565b90506000614755670de0b6b3a7640000856140c8565b90506147618582614280565b905060006147738a613f8b8c85614362565b9050600061478182856149ab565b90506000614797670de0b6b3a7640000836140c8565b90506147a38a82614280565b9c9b505050505050505050505050565b6000806147c08786614139565b905060006147e2856147dd670de0b6b3a7640000612710816145ce565b614280565b905060006147f088836140c8565b905060006147fe828a614139565b9050600061481d82614818670de0b6b3a764000088614139565b6149ab565b9050600061482b828e614280565b905060006148398e836140c8565b9050600061485261467e670de0b6b3a76400008a6140c8565b905061469c826147dd670de0b6b3a7640000846140c8565b6000806148778786614139565b90506000614896614890670de0b6b3a7640000846140c8565b85614280565b905060006148b0866147dd670de0b6b3a7640000856140c8565b905060006148be8b83614362565b905060006148cc828d614139565b905060006148da82876149ab565b905060006148e8828d614280565b90506148f4818d6140c8565b9e9d5050505050505050505050505050565b306000908152600160205260409020546149209082614362565b3060009081526001602052604090205560025461493d9082614362565b60025560408051828152905130916000917fddf252ad1be2c89b69c2b068fc378daa952ba7f163c4a11628f55a4df523b3ef9181900360200190a350565b613f3c308383613faa565b60008082841061499c57505080820360006149a4565b505081810360015b9250929050565b60006001831015614a06576040805160e560020a62461bcd02815260206004820152601560248201527f4552525f42504f575f424153455f544f4f5f4c4f570000000000000000000000604482015290519081900360640190fd5b671bc16d674ec7ffff831115614a66576040805160e560020a62461bcd02815260206004820152601660248201527f4552525f42504f575f424153455f544f4f5f4849474800000000000000000000604482015290519081900360640190fd5b6000614a7183614bb5565b90506000614a7f84836140c8565b90506000614a9586614a9085614bd0565b614bde565b905081614aa6579250610c04915050565b6000614ab787846305f5e100614c35565b9050614ac38282614280565b979650505050505050565b613f3c823083613faa565b30600090815260016020526040902054811115614b40576040805160e560020a62461bcd02815260206004820152601460248201527f4552525f494e53554646494349454e545f42414c000000000000000000000000604482015290519081900360640190fd5b30600090815260016020526040902054614b5a90826140c8565b30600090815260016020526040902055600254614b7790826140c8565b60025560408051828152905160009130917fddf252ad1be2c89b69c2b068fc378daa952ba7f163c4a11628f55a4df523b3ef9181900360200190a350565b6000670de0b6b3a7640000614bc983614bd0565b0292915050565b670de0b6b3a7640000900490565b60008060028306614bf757670de0b6b3a7640000614bf9565b835b90506002830492505b8215613e4857614c128485614280565b93506002830615614c2a57614c278185614280565b90505b600283049250614c02565b6000828180614c4c87670de0b6b3a7640000614986565b9092509050670de0b6b3a764000080600060015b888410614d04576000670de0b6b3a764000082029050600080614c948a614c8f85670de0b6b3a76400006140c8565b614986565b91509150614ca6876147dd848c614280565b9650614cb28784614139565b965086614cc157505050614d04565b8715614ccb579315935b8015614cd5579315935b8415614cec57614ce586886140c8565b9550614cf9565b614cf68688614362565b95505b505050600101614c60565b5090999850505050505050505056fe4552525f5245454e5452590000000000000000000000000000000000000000004552525f535741505f4e4f545f5055424c4943000000000000000000000000004552525f4e4f545f434f4e54524f4c4c455200000000000000000000000000004552525f4e4f545f424f554e44000000000000000000000000000000000000008c5be1e5ebec7d5bd14f71427d1e84f3dd0314c0f7b2291e5b200ac8c7c3b9254552525f49535f46494e414c495a4544000000000000000000000000000000004552525f4d4154485f415050524f580000000000000000000000000000000000a265627a7a72315820d99090d78cb1008c8d643928551f414940600c68174cf36603c36f4a9771b3be64736f6c634300050c0032",
  "source": "// This program is free software: you can redistribute it and/or modify\n// it under the terms of the GNU General Public License as published by\n// the Free Software Foundation, either version 3 of the License, or\n// (at your option) any later version.\n\n// This program is distributed in the hope that it will be useful,\n// but WITHOUT ANY WARRANTY; without even the implied warranty of\n// MERCHANTABILITY or FITNESS FOR A PARTICULAR PURPOSE.  See the\n// GNU General Public License for more details.\n\n// You should have received a copy of the GNU General Public License\n// along with this program.  If not, see <http://www.gnu.org/licenses/>.\n\npragma solidity 0.5.12;\n\nimport \"./BToken.sol\";\nimport \"./BMath.sol\";\n\ncontract BPool is BBronze, BToken, BMath {\n\n    struct Record {\n        bool bound;\n        uint index;   // private\n        uint denorm;  // denormalized weight\n        uint balance;\n    }\n\n    event LOG_SWAP(\n        address indexed caller,\n        address indexed tokenIn,\n        address indexed tokenOut,\n        uint256         tokenAmountIn,\n        uint256         tokenAmountOut\n    );\n\n    event LOG_JOIN(\n        address indexed caller,\n        address indexed tokenIn,\n        uint256         tokenAmountIn\n    );\n\n    event LOG_EXIT(\n        address indexed caller,\n        address indexed tokenOut,\n        uint256         tokenAmountOut\n    );\n\n    event LOG_CALL(\n        bytes4  indexed sig,\n        address indexed caller,\n        bytes           data\n    ) anonymous;\n\n    modifier _logs_() {\n        emit LOG_CALL(msg.sig, msg.sender, msg.data);\n        _;\n    }\n\n    modifier _lock_() {\n        require(!_mutex, \"ERR_REENTRY\");\n        _mutex = true;\n        _;\n        _mutex = false;\n    }\n\n    modifier _viewlock_() {\n        require(!_mutex, \"ERR_REENTRY\");\n        _;\n    }\n\n    bool private _mutex; // TODO: consider  messageNonce\n\n    // Emulates a rudimentary role-based access control system\n    address private _factory;    // has FACTORY role\n    address private _controller; // has CONTROL role\n    bool private _publicSwap; // true if PUBLIC can call SWAP functions\n\n    // `setSwapFee` and `finalize` require CONTROL\n    // `finalize` sets `PUBLIC can SWAP`, `PUBLIC can JOIN`\n    uint private _swapFee;\n    bool private _finalized;\n\n    address[] private _tokens;\n    mapping(address=>Record) private  _records;\n    uint private _totalWeight;\n\n    constructor() public {\n        _controller = msg.sender;\n        _factory = msg.sender;\n        _swapFee = MIN_FEE;\n        _publicSwap = false;\n        _finalized = false;\n    }\n\n    function isPublicSwap()\n        public view\n        returns (bool)\n    {\n        return _publicSwap;\n    }\n\n    function isFinalized()\n        public view\n        returns (bool)\n    {\n        return _finalized;\n    }\n\n    function isBound(address t)\n        public view\n        returns (bool)\n    {\n        return _records[t].bound;\n    }\n\n    function getNumTokens()\n        external view\n        returns (uint) \n    {\n        return _tokens.length;\n    }\n\n    function getCurrentTokens()\n        external view _viewlock_\n        returns (address[] memory tokens)\n    {\n        return _tokens;\n    }\n\n    function getFinalTokens()\n        external view\n        _viewlock_\n        returns (address[] memory tokens)\n    {\n        require(_finalized, \"ERR_NOT_FINALIZED\");\n        return _tokens;\n    }\n\n    function getDenormalizedWeight(address token)\n        external view\n        _viewlock_\n        returns (uint)\n    {\n\n        require(isBound(token), \"ERR_NOT_BOUND\");\n        return _records[token].denorm;\n    }\n\n    function getTotalDenormalizedWeight()\n        external view\n        _viewlock_\n        returns (uint)\n    {\n        return _totalWeight;\n    }\n\n    function getNormalizedWeight(address token)\n        external view\n        _viewlock_\n        returns (uint)\n    {\n\n        require(isBound(token), \"ERR_NOT_BOUND\");\n        uint denorm = _records[token].denorm;\n        return bdiv(denorm, _totalWeight);\n    }\n\n    function getBalance(address token)\n        external view\n        _viewlock_\n        returns (uint)\n    {\n\n        require(isBound(token), \"ERR_NOT_BOUND\");\n        return _records[token].balance;\n    }\n\n    function getSwapFee()\n        external view\n        _viewlock_\n        returns (uint)\n    {\n        return _swapFee;\n    }\n\n    function getController()\n        external view\n        _viewlock_\n        returns (address)\n    {\n        return _controller;\n    }\n\n    function setSwapFee(uint swapFee)\n        external\n        _logs_\n        _lock_\n    { \n        require(!_finalized, \"ERR_IS_FINALIZED\");\n        require(msg.sender == _controller, \"ERR_NOT_CONTROLLER\");\n        require(swapFee >= MIN_FEE, \"ERR_MIN_FEE\");\n        require(swapFee <= MAX_FEE, \"ERR_MAX_FEE\");\n        _swapFee = swapFee;\n    }\n\n    function setController(address manager)\n        external\n        _logs_\n        _lock_\n    {\n        require(msg.sender == _controller, \"ERR_NOT_CONTROLLER\");\n        _controller = manager;\n    }\n\n    function setPublicSwap(bool public_)\n        external\n        _logs_\n        _lock_\n    {\n        require(!_finalized, \"ERR_IS_FINALIZED\");\n        require(msg.sender == _controller, \"ERR_NOT_CONTROLLER\");\n        _publicSwap = public_;\n    }\n\n    function finalize(uint initSupply)\n        external\n        _logs_\n        _lock_\n    {\n        require(msg.sender == _controller, \"ERR_NOT_CONTROLLER\");\n        require(!_finalized, \"ERR_IS_FINALIZED\");\n        require(initSupply >= MIN_POOL_SUPPLY, \"ERR_MIN_POOL_SUPPLY\");\n\n        _finalized = true;\n        _publicSwap = true;\n\n        _mintPoolShare(initSupply);\n        _pushPoolShare(msg.sender, initSupply);\n    }\n\n\n    function bind(address token, uint balance, uint denorm)\n        external\n        _logs_\n        // _lock_  Bind does not lock because it jumps to `rebind`, which does\n    {\n        require(msg.sender == _controller, \"ERR_NOT_CONTROLLER\");\n        require(!isBound(token), \"ERR_IS_BOUND\");\n        require(!isFinalized(), \"ERR_IS_FINALIZED\");\n\n        require(_tokens.length < MAX_BOUND_TOKENS, \"ERR_MAX_TOKENS\");\n\n        _records[token] = Record({\n            bound: true,\n            index: _tokens.length, // 1-indexed (0 is 'unbound' state)\n            denorm: 0,    // balance and denorm will be validated\n            balance: 0   // and set by `rebind`\n        });\n        _tokens.push(token);\n        rebind(token, balance, denorm);\n    }\n\n    function rebind(address token, uint balance, uint denorm)\n        public\n        _logs_\n        _lock_\n    {\n\n        require(msg.sender == _controller, \"ERR_NOT_CONTROLLER\");\n        require(isBound(token), \"ERR_NOT_BOUND\");\n        require(!_finalized, \"ERR_IS_FINALIZED\");\n\n        require(denorm >= MIN_WEIGHT, \"ERR_MIN_WEIGHT\");\n        require(denorm <= MAX_WEIGHT, \"ERR_MAX_WEIGHT\");\n        require(balance >= MIN_BALANCE, \"ERR_MIN_BALANCE\");\n        require(balance <= MAX_BALANCE, \"ERR_MAX_BALANCE\");\n\n        // Adjust the denorm and totalWeight\n        uint oldWeight = _records[token].denorm;\n        if (denorm > oldWeight) {\n            _totalWeight = badd(_totalWeight, bsub(denorm, oldWeight));\n            require(_totalWeight <= MAX_TOTAL_WEIGHT, \"ERR_MAX_TOTAL_WEIGHT\");\n        } else if (denorm < oldWeight) {\n            _totalWeight = bsub(_totalWeight, bsub(oldWeight, denorm));\n        }        \n        _records[token].denorm = denorm;\n\n        // Adjust the balance record and actual token balance\n        uint oldBalance = _records[token].balance;\n        _records[token].balance = balance;\n        if (balance > oldBalance) {\n            _pullUnderlying(token, msg.sender, bsub(balance, oldBalance));\n        } else if (balance < oldBalance) {\n            // In this case liquidity is being withdrawn, so charge EXIT_FEE\n            uint tokenBalanceWithdrawn = bsub(oldBalance, balance);\n            uint tokenExitFee = bmul(tokenBalanceWithdrawn, EXIT_FEE);\n            _pushUnderlying(token, msg.sender, bsub(tokenBalanceWithdrawn, tokenExitFee));\n            _pushUnderlying(token, _factory, tokenExitFee);\n        }\n    }\n\n    function unbind(address token)\n        external\n        _logs_\n        _lock_\n    {\n\n        require(msg.sender == _controller, \"ERR_NOT_CONTROLLER\");\n        require(isBound(token), \"ERR_NOT_BOUND\");\n        require(!_finalized, \"ERR_IS_FINALIZED\");\n\n        uint tokenBalance = _records[token].balance;\n        uint tokenExitFee = bmul(tokenBalance, EXIT_FEE);\n\n        _totalWeight = bsub(_totalWeight, _records[token].denorm);\n\n        // Swap the token-to-unbind with the last token,\n        // then delete the last token\n        uint index = _records[token].index - 1;\n        uint last = _tokens.length - 1;\n        _tokens[index] = _tokens[last];\n        _tokens.pop();\n        _records[_tokens[index]].index = index;\n        _records[token] = Record({\n            bound: false,\n            index: 0,\n            denorm: 0,\n            balance: 0\n        });\n\n        _pushUnderlying(token, msg.sender, bsub(tokenBalance, tokenExitFee));\n        _pushUnderlying(token, _factory, tokenExitFee);\n    }\n\n    // Absorb any tokens that have been sent to this contract into the pool\n    function gulp(address token)\n        external\n        _logs_\n        _lock_\n    {\n        require(isBound(token), \"ERR_NOT_BOUND\");\n        _records[token].balance = IERC20(token).balanceOf(address(this));\n    }\n\n    function getSpotPrice(address tokenIn, address tokenOut)\n        external view\n        _viewlock_\n        returns (uint spotPrice)\n    {\n        require(isBound(tokenIn), \"ERR_NOT_BOUND\");\n        require(isBound(tokenOut), \"ERR_NOT_BOUND\");\n        Record storage inRecord = _records[tokenIn];\n        Record storage outRecord = _records[tokenOut];\n        return calcSpotPrice(inRecord.balance, inRecord.denorm, outRecord.balance, outRecord.denorm, _swapFee);\n    }\n\n    function getSpotPriceSansFee(address tokenIn, address tokenOut)\n        external view\n        _viewlock_\n        returns (uint spotPrice)\n    {\n        require(isBound(tokenIn), \"ERR_NOT_BOUND\");\n        require(isBound(tokenOut), \"ERR_NOT_BOUND\");\n        Record storage inRecord = _records[tokenIn];\n        Record storage outRecord = _records[tokenOut];\n        return calcSpotPrice(inRecord.balance, inRecord.denorm, outRecord.balance, outRecord.denorm, 0);\n    }\n\n    function joinPool(uint poolAmountOut)\n        external\n        _logs_\n        _lock_\n    {\n        require(_finalized, \"ERR_NOT_FINALIZED\");\n\n        uint poolTotal = totalSupply();\n        uint ratio = bdiv(poolAmountOut, poolTotal);\n        require(ratio != 0);\n\n        for (uint i = 0; i < _tokens.length; i++) {\n            address t = _tokens[i];\n            uint bal = _records[t].balance;\n            uint tokenAmountIn = bmul(ratio, bal);\n            _records[t].balance = badd(_records[t].balance, tokenAmountIn);\n            emit LOG_JOIN(msg.sender, t, tokenAmountIn);\n            _pullUnderlying(t, msg.sender, tokenAmountIn);\n        }\n        _mintPoolShare(poolAmountOut);\n        _pushPoolShare(msg.sender, poolAmountOut);\n    }\n\n    function exitPool(uint poolAmountIn)\n        external\n        _logs_\n        _lock_\n    {\n        require(_finalized, \"ERR_NOT_FINALIZED\");\n\n        uint poolTotal = totalSupply();\n        uint exitFee = bmul(poolAmountIn, EXIT_FEE);\n        uint pAiAfterExitFee = bsub(poolAmountIn, exitFee);\n        uint ratio = bdiv(pAiAfterExitFee, poolTotal);\n        require(ratio != 0);\n\n        _pullPoolShare(msg.sender, poolAmountIn);\n        _pushPoolShare(_factory, exitFee);\n        _burnPoolShare(pAiAfterExitFee);\n\n        for (uint i = 0; i < _tokens.length; i++) {\n            address t = _tokens[i];\n            uint bal = _records[t].balance;\n            uint tAo = bmul(ratio, bal);\n            _records[t].balance = bsub(_records[t].balance, tAo);\n            emit LOG_EXIT(msg.sender, t, tAo);\n            _pushUnderlying(t, msg.sender, tAo);\n        }\n\n    }\n\n\n    function swapExactAmountIn(\n        address tokenIn,\n        uint tokenAmountIn,\n        address tokenOut,\n        uint minAmountOut,\n        uint maxPrice\n    )\n        external\n        _logs_\n        _lock_\n        returns (uint tokenAmountOut, uint spotPriceTarget)\n    {\n\n        require(isBound(tokenIn), \"ERR_NOT_BOUND\");\n        require(isBound(tokenOut), \"ERR_NOT_BOUND\");\n        require(isPublicSwap(), \"ERR_SWAP_NOT_PUBLIC\");\n\n        Record storage inRecord = _records[address(tokenIn)];\n        Record storage outRecord = _records[address(tokenOut)];\n\n        require(tokenAmountIn <= bmul(inRecord.balance, MAX_IN_RATIO), \"ERR_MAX_IN_RATIO\");\n\n        uint spotPriceBefore = calcSpotPrice(\n                                    inRecord.balance,\n                                    inRecord.denorm,\n                                    outRecord.balance,\n                                    outRecord.denorm,\n                                    _swapFee\n                                );\n        require(spotPriceBefore <= maxPrice, \"ERR_BAD_LIMIT_PRICE\");\n\n        tokenAmountOut = calcOutGivenIn(\n                            inRecord.balance,\n                            inRecord.denorm,\n                            outRecord.balance,\n                            outRecord.denorm,\n                            tokenAmountIn,\n                            _swapFee\n                        );\n        require(tokenAmountOut >= minAmountOut, \"ERR_LIMIT_OUT\");\n\n        inRecord.balance = badd(inRecord.balance, tokenAmountIn);\n        outRecord.balance = bsub(outRecord.balance, tokenAmountOut);\n\n        uint spotPriceAfter = calcSpotPrice(\n                                inRecord.balance,\n                                inRecord.denorm,\n                                outRecord.balance,\n                                outRecord.denorm,\n                                _swapFee\n                            );\n        require(spotPriceAfter >= spotPriceBefore, \"ERR_MATH_APPROX\");     \n        require(spotPriceAfter <= maxPrice, \"ERR_LIMIT_PRICE\");\n        require(spotPriceBefore <= bdiv(tokenAmountIn, tokenAmountOut), \"ERR_MATH_APPROX\");\n\n        emit LOG_SWAP(msg.sender, tokenIn, tokenOut, tokenAmountIn, tokenAmountOut);\n\n        _pullUnderlying(tokenIn, msg.sender, tokenAmountIn);\n        _pushUnderlying(tokenOut, msg.sender, tokenAmountOut);\n\n        return (tokenAmountOut, spotPriceAfter);\n    }\n\n    function swapExactAmountOut(\n        address tokenIn,\n        uint maxAmountIn,\n        address tokenOut,\n        uint tokenAmountOut,\n        uint maxPrice\n    )\n        external\n        _logs_\n        _lock_ \n        returns (uint tokenAmountIn, uint spotPriceTarget)\n    {\n        require(isBound(tokenIn), \"ERR_NOT_BOUND\");\n        require(isBound(tokenOut), \"ERR_NOT_BOUND\");\n        require(isPublicSwap(), \"ERR_SWAP_NOT_PUBLIC\");\n\n        Record storage inRecord = _records[address(tokenIn)];\n        Record storage outRecord = _records[address(tokenOut)];\n\n        require(tokenAmountOut <= bmul(outRecord.balance, MAX_OUT_RATIO), \"ERR_MAX_OUT_RATIO\");\n\n        uint spotPriceBefore = calcSpotPrice(\n                                    inRecord.balance,\n                                    inRecord.denorm,\n                                    outRecord.balance,\n                                    outRecord.denorm,\n                                    _swapFee\n                                );\n        require(spotPriceBefore <= maxPrice, \"ERR_BAD_LIMIT_PRICE\");\n\n        tokenAmountIn = calcInGivenOut(\n                            inRecord.balance,\n                            inRecord.denorm,\n                            outRecord.balance,\n                            outRecord.denorm,\n                            tokenAmountOut,\n                            _swapFee\n                        );\n        require(tokenAmountIn <= maxAmountIn, \"ERR_LIMIT_IN\");\n\n        inRecord.balance = badd(inRecord.balance, tokenAmountIn);\n        outRecord.balance = bsub(outRecord.balance, tokenAmountOut);\n\n        uint spotPriceAfter = calcSpotPrice(\n                                inRecord.balance,\n                                inRecord.denorm,\n                                outRecord.balance,\n                                outRecord.denorm,\n                                _swapFee\n                            );\n        require(spotPriceAfter >= spotPriceBefore, \"ERR_MATH_APPROX\");\n        require(spotPriceAfter <= maxPrice, \"ERR_LIMIT_PRICE\");\n        require(spotPriceBefore <= bdiv(tokenAmountIn, tokenAmountOut), \"ERR_MATH_APPROX\");\n\n        emit LOG_SWAP(msg.sender, tokenIn, tokenOut, tokenAmountIn, tokenAmountOut);\n\n        _pullUnderlying(tokenIn, msg.sender, tokenAmountIn);\n        _pushUnderlying(tokenOut, msg.sender, tokenAmountOut);\n\n        return (tokenAmountIn, spotPriceAfter);\n    }\n\n\n    function joinswapExternAmountIn(address tokenIn, uint256 tokenAmountIn)\n        external\n        _logs_\n        _lock_\n        returns (uint poolAmountOut)\n    {\n\n        require(isBound(tokenIn), \"ERR_NOT_BOUND\");\n        require(isPublicSwap(), \"ERR_SWAP_NOT_PUBLIC\");\n\n        Record storage inRecord = _records[tokenIn];\n\n        poolAmountOut = calcPoolOutGivenSingleIn(\n                            inRecord.balance,\n                            inRecord.denorm,\n                            _totalSupply,\n                            _totalWeight,\n                            tokenAmountIn,\n                            _swapFee\n                        );\n        inRecord.balance = badd(inRecord.balance, tokenAmountIn);\n\n        emit LOG_JOIN(msg.sender, tokenIn, tokenAmountIn);\n\n        _mintPoolShare(poolAmountOut);\n        _pushPoolShare(msg.sender, poolAmountOut);\n        _pullUnderlying(tokenIn, msg.sender, tokenAmountIn);\n\n        return poolAmountOut;\n    }\n\n    function joinswapPoolAmountOut(uint poolAmountOut, address tokenIn)\n        external\n        _logs_\n        _lock_\n        returns (uint tokenAmountIn)\n    {\n        require(isBound(tokenIn), \"ERR_NOT_BOUND\");\n        require(isPublicSwap(), \"ERR_SWAP_NOT_PUBLIC\");\n\n        Record storage inRecord = _records[tokenIn];\n\n        tokenAmountIn = calcSingleInGivenPoolOut(\n                            inRecord.balance,\n                            inRecord.denorm,\n                            _totalSupply,\n                            _totalWeight,\n                            poolAmountOut,\n                            _swapFee\n                        );\n        inRecord.balance = badd(inRecord.balance, tokenAmountIn);\n\n        emit LOG_JOIN(msg.sender, tokenIn, tokenAmountIn);\n\n        _mintPoolShare(poolAmountOut);\n        _pushPoolShare(msg.sender, poolAmountOut);\n        _pullUnderlying(tokenIn, msg.sender, tokenAmountIn);\n\n        return tokenAmountIn;\n    }\n\n    function exitswapPoolAmountIn(uint poolAmountIn, address tokenOut)\n        external\n        _logs_\n        _lock_\n        returns (uint tokenAmountOut)\n    {\n        require(isBound(tokenOut), \"ERR_NOT_BOUND\");\n        require(isPublicSwap(), \"ERR_SWAP_NOT_PUBLIC\");\n\n        Record storage outRecord = _records[tokenOut];\n\n        tokenAmountOut = calcSingleOutGivenPoolIn(\n                            outRecord.balance,\n                            outRecord.denorm,\n                            _totalSupply,\n                            _totalWeight,\n                            poolAmountIn,\n                            _swapFee\n                        );\n        outRecord.balance = bsub(outRecord.balance, tokenAmountOut);\n\n        uint exitFee = bmul(poolAmountIn, EXIT_FEE);\n\n        emit LOG_EXIT(msg.sender, tokenOut, tokenAmountOut);\n\n        _pullPoolShare(msg.sender, poolAmountIn);\n        _burnPoolShare(bsub(poolAmountIn, exitFee));\n        _pushPoolShare(_factory, exitFee);\n        _pushUnderlying(tokenOut, msg.sender, tokenAmountOut);\n\n        return tokenAmountOut;\n    }\n\n    function exitswapExternAmountOut(address tokenOut, uint tokenAmountOut)\n        external\n        _logs_\n        _lock_\n        returns (uint poolAmountIn)\n    {\n\n        require(isBound(tokenOut), \"ERR_NOT_BOUND\");\n        require(isPublicSwap(), \"ERR_SWAP_NOT_PUBLIC\");\n\n        Record storage outRecord = _records[tokenOut];\n\n        poolAmountIn = calcPoolInGivenSingleOut(\n                            outRecord.balance,\n                            outRecord.denorm,\n                            _totalSupply,\n                            _totalWeight,\n                            tokenAmountOut,\n                            _swapFee\n                        );\n        outRecord.balance = bsub(outRecord.balance, tokenAmountOut);\n\n        uint exitFee = bmul(poolAmountIn, EXIT_FEE);\n\n        emit LOG_EXIT(msg.sender, tokenOut, tokenAmountOut);\n\n        _pullPoolShare(msg.sender, poolAmountIn);\n        _burnPoolShare(bsub(poolAmountIn, exitFee));\n        _pushPoolShare(_factory, exitFee);\n        _pushUnderlying(tokenOut, msg.sender, tokenAmountOut);        \n\n        return poolAmountIn;\n    }\n\n\n    // ==\n    // 'Underlying' token-manipulation functions make external calls but are NOT locked\n    // You must `_lock_` or otherwise ensure reentry-safety\n\n    function _pullUnderlying(address erc20, address from, uint amount)\n        internal\n    {\n        bool xfer = IERC20(erc20).transferFrom(from, address(this), amount);\n        require(xfer, \"ERR_ERC20_FALSE\");\n    }\n\n    function _pushUnderlying(address erc20, address to, uint amount)\n        internal\n    {\n        bool xfer = IERC20(erc20).transfer(to, amount);\n        require(xfer, \"ERR_ERC20_FALSE\");\n    }\n\n    function _pullPoolShare(address from, uint amount)\n        internal\n    {\n        _pull(from, amount);\n    }\n\n    function _pushPoolShare(address to, uint amount)\n        internal\n    {\n        _push(to, amount);\n    }\n\n    function _mintPoolShare(uint amount)\n        internal\n    {\n        _mint(amount);\n    }\n\n    function _burnPoolShare(uint amount)\n        internal\n    {\n        _burn(amount);\n    }\n\n}\n",
  "sourcePath": "/Users/mike/Projects/balancer/balancer-core/contracts/BPool.sol",
  "compiler": {
    "name": "solc",
    "version": "0.5.12+commit.7709ece9.Emscripten.clang"
  },
  "schemaVersion": "3.0.16",
  "updatedAt": "2019-12-06T19:39:51.013Z",
  "devdoc": {
    "methods": {}
  },
  "userdoc": {
    "methods": {}
  }
}