{
  "contractName": "BPool",
  "abi": [
    {
      "constant": false,
      "inputs": [
        {
          "internalType": "address",
          "name": "guy",
          "type": "address"
        },
        {
          "internalType": "uint256",
          "name": "wad",
          "type": "uint256"
        }
      ],
      "name": "approve",
      "outputs": [
        {
          "internalType": "bool",
          "name": "",
          "type": "bool"
        }
      ],
      "payable": false,
      "stateMutability": "nonpayable",
      "type": "function"
    },
    {
      "constant": true,
      "inputs": [],
      "name": "totalSupply",
      "outputs": [
        {
          "internalType": "uint256",
          "name": "",
          "type": "uint256"
        }
      ],
      "payable": false,
      "stateMutability": "view",
      "type": "function"
    },
    {
      "constant": false,
      "inputs": [
        {
          "internalType": "address",
          "name": "src",
          "type": "address"
        },
        {
          "internalType": "address",
          "name": "dst",
          "type": "address"
        },
        {
          "internalType": "uint256",
          "name": "wad",
          "type": "uint256"
        }
      ],
      "name": "transferFrom",
      "outputs": [
        {
          "internalType": "bool",
          "name": "",
          "type": "bool"
        }
      ],
      "payable": false,
      "stateMutability": "nonpayable",
      "type": "function"
    },
    {
      "constant": true,
      "inputs": [
        {
          "internalType": "address",
          "name": "whom",
          "type": "address"
        }
      ],
      "name": "balanceOf",
      "outputs": [
        {
          "internalType": "uint256",
          "name": "",
          "type": "uint256"
        }
      ],
      "payable": false,
      "stateMutability": "view",
      "type": "function"
    },
    {
      "constant": true,
      "inputs": [],
      "name": "getColor",
      "outputs": [
        {
          "internalType": "bytes32",
          "name": "",
          "type": "bytes32"
        }
      ],
      "payable": false,
      "stateMutability": "view",
      "type": "function"
    },
    {
      "constant": false,
      "inputs": [
        {
          "internalType": "address",
          "name": "dst",
          "type": "address"
        },
        {
          "internalType": "uint256",
          "name": "wad",
          "type": "uint256"
        }
      ],
      "name": "transfer",
      "outputs": [
        {
          "internalType": "bool",
          "name": "",
          "type": "bool"
        }
      ],
      "payable": false,
      "stateMutability": "nonpayable",
      "type": "function"
    },
    {
      "constant": true,
      "inputs": [
        {
          "internalType": "address",
          "name": "src",
          "type": "address"
        },
        {
          "internalType": "address",
          "name": "guy",
          "type": "address"
        }
      ],
      "name": "allowance",
      "outputs": [
        {
          "internalType": "uint256",
          "name": "",
          "type": "uint256"
        }
      ],
      "payable": false,
      "stateMutability": "view",
      "type": "function"
    },
    {
      "inputs": [],
      "payable": false,
      "stateMutability": "nonpayable",
      "type": "constructor"
    },
    {
      "anonymous": false,
      "inputs": [
        {
          "indexed": true,
          "internalType": "address",
          "name": "caller",
          "type": "address"
        },
        {
          "indexed": true,
          "internalType": "address",
          "name": "tokenIn",
          "type": "address"
        },
        {
          "indexed": true,
          "internalType": "address",
          "name": "tokenOut",
          "type": "address"
        },
        {
          "indexed": false,
          "internalType": "uint256",
          "name": "amountIn",
          "type": "uint256"
        },
        {
          "indexed": false,
          "internalType": "uint256",
          "name": "amountOut",
          "type": "uint256"
        }
      ],
      "name": "LOG_SWAP",
      "type": "event"
    },
    {
      "anonymous": false,
      "inputs": [
        {
          "indexed": true,
          "internalType": "address",
          "name": "caller",
          "type": "address"
        },
        {
          "indexed": true,
          "internalType": "address",
          "name": "tokenIn",
          "type": "address"
        },
        {
          "indexed": false,
          "internalType": "uint256",
          "name": "amountIn",
          "type": "uint256"
        }
      ],
      "name": "LOG_JOIN",
      "type": "event"
    },
    {
      "anonymous": false,
      "inputs": [
        {
          "indexed": true,
          "internalType": "address",
          "name": "caller",
          "type": "address"
        },
        {
          "indexed": true,
          "internalType": "address",
          "name": "tokenOut",
          "type": "address"
        },
        {
          "indexed": false,
          "internalType": "uint256",
          "name": "amountOut",
          "type": "uint256"
        }
      ],
      "name": "LOG_EXIT",
      "type": "event"
    },
    {
      "anonymous": true,
      "inputs": [
        {
          "indexed": true,
          "internalType": "bytes4",
          "name": "sig",
          "type": "bytes4"
        },
        {
          "indexed": true,
          "internalType": "address",
          "name": "caller",
          "type": "address"
        },
        {
          "indexed": false,
          "internalType": "bytes",
          "name": "data",
          "type": "bytes"
        }
      ],
      "name": "LOG_CALL",
      "type": "event"
    },
    {
      "anonymous": false,
      "inputs": [
        {
          "indexed": true,
          "internalType": "address",
          "name": "src",
          "type": "address"
        },
        {
          "indexed": true,
          "internalType": "address",
          "name": "guy",
          "type": "address"
        },
        {
          "indexed": false,
          "internalType": "uint256",
          "name": "wad",
          "type": "uint256"
        }
      ],
      "name": "Approval",
      "type": "event"
    },
    {
      "anonymous": false,
      "inputs": [
        {
          "indexed": true,
          "internalType": "address",
          "name": "src",
          "type": "address"
        },
        {
          "indexed": true,
          "internalType": "address",
          "name": "dst",
          "type": "address"
        },
        {
          "indexed": false,
          "internalType": "uint256",
          "name": "wad",
          "type": "uint256"
        }
      ],
      "name": "Transfer",
      "type": "event"
    },
    {
      "anonymous": false,
      "inputs": [
        {
          "indexed": false,
          "internalType": "uint256",
          "name": "amt",
          "type": "uint256"
        }
      ],
      "name": "Mint",
      "type": "event"
    },
    {
      "anonymous": false,
      "inputs": [
        {
          "indexed": false,
          "internalType": "uint256",
          "name": "amt",
          "type": "uint256"
        }
      ],
      "name": "Burn",
      "type": "event"
    },
    {
      "anonymous": false,
      "inputs": [
        {
          "indexed": true,
          "internalType": "address",
          "name": "src",
          "type": "address"
        },
        {
          "indexed": true,
          "internalType": "address",
          "name": "dst",
          "type": "address"
        },
        {
          "indexed": false,
          "internalType": "uint256",
          "name": "amt",
          "type": "uint256"
        }
      ],
      "name": "Move",
      "type": "event"
    },
    {
      "constant": true,
      "inputs": [],
      "name": "isPublicSwap",
      "outputs": [
        {
          "internalType": "bool",
          "name": "",
          "type": "bool"
        }
      ],
      "payable": false,
      "stateMutability": "view",
      "type": "function"
    },
    {
      "constant": true,
      "inputs": [],
      "name": "isPublicJoin",
      "outputs": [
        {
          "internalType": "bool",
          "name": "",
          "type": "bool"
        }
      ],
      "payable": false,
      "stateMutability": "view",
      "type": "function"
    },
    {
      "constant": true,
      "inputs": [],
      "name": "isPublicExit",
      "outputs": [
        {
          "internalType": "bool",
          "name": "",
          "type": "bool"
        }
      ],
      "payable": false,
      "stateMutability": "view",
      "type": "function"
    },
    {
      "constant": true,
      "inputs": [],
      "name": "isFinalized",
      "outputs": [
        {
          "internalType": "bool",
          "name": "",
          "type": "bool"
        }
      ],
      "payable": false,
      "stateMutability": "view",
      "type": "function"
    },
    {
      "constant": true,
      "inputs": [
        {
          "internalType": "address",
          "name": "t",
          "type": "address"
        }
      ],
      "name": "isBound",
      "outputs": [
        {
          "internalType": "bool",
          "name": "",
          "type": "bool"
        }
      ],
      "payable": false,
      "stateMutability": "view",
      "type": "function"
    },
    {
      "constant": true,
      "inputs": [],
      "name": "getNumTokens",
      "outputs": [
        {
          "internalType": "uint256",
          "name": "",
          "type": "uint256"
        }
      ],
      "payable": false,
      "stateMutability": "view",
      "type": "function"
    },
    {
      "constant": true,
      "inputs": [],
      "name": "getCurrentTokens",
      "outputs": [
        {
          "internalType": "address[]",
          "name": "tokens",
          "type": "address[]"
        }
      ],
      "payable": false,
      "stateMutability": "view",
      "type": "function"
    },
    {
      "constant": true,
      "inputs": [],
      "name": "getFinalTokens",
      "outputs": [
        {
          "internalType": "address[]",
          "name": "tokens",
          "type": "address[]"
        }
      ],
      "payable": false,
      "stateMutability": "view",
      "type": "function"
    },
    {
      "constant": true,
      "inputs": [
        {
          "internalType": "address",
          "name": "token",
          "type": "address"
        }
      ],
      "name": "getDenormalizedWeight",
      "outputs": [
        {
          "internalType": "uint256",
          "name": "",
          "type": "uint256"
        }
      ],
      "payable": false,
      "stateMutability": "view",
      "type": "function"
    },
    {
      "constant": true,
      "inputs": [],
      "name": "getTotalDenormalizedWeight",
      "outputs": [
        {
          "internalType": "uint256",
          "name": "",
          "type": "uint256"
        }
      ],
      "payable": false,
      "stateMutability": "view",
      "type": "function"
    },
    {
      "constant": true,
      "inputs": [
        {
          "internalType": "address",
          "name": "token",
          "type": "address"
        }
      ],
      "name": "getNormalizedWeight",
      "outputs": [
        {
          "internalType": "uint256",
          "name": "",
          "type": "uint256"
        }
      ],
      "payable": false,
      "stateMutability": "view",
      "type": "function"
    },
    {
      "constant": true,
      "inputs": [
        {
          "internalType": "address",
          "name": "token",
          "type": "address"
        }
      ],
      "name": "getBalance",
      "outputs": [
        {
          "internalType": "uint256",
          "name": "",
          "type": "uint256"
        }
      ],
      "payable": false,
      "stateMutability": "view",
      "type": "function"
    },
    {
      "constant": true,
      "inputs": [],
      "name": "getFees",
      "outputs": [
        {
          "internalType": "uint256",
          "name": "",
          "type": "uint256"
        },
        {
          "internalType": "uint256",
          "name": "",
          "type": "uint256"
        }
      ],
      "payable": false,
      "stateMutability": "view",
      "type": "function"
    },
    {
      "constant": true,
      "inputs": [],
      "name": "getController",
      "outputs": [
        {
          "internalType": "address",
          "name": "",
          "type": "address"
        }
      ],
      "payable": false,
      "stateMutability": "view",
      "type": "function"
    },
    {
      "constant": false,
      "inputs": [
        {
          "internalType": "uint256",
          "name": "swapFee",
          "type": "uint256"
        },
        {
          "internalType": "uint256",
          "name": "exitFee",
          "type": "uint256"
        }
      ],
      "name": "setFees",
      "outputs": [],
      "payable": false,
      "stateMutability": "nonpayable",
      "type": "function"
    },
    {
      "constant": false,
      "inputs": [
        {
          "internalType": "address",
          "name": "manager",
          "type": "address"
        }
      ],
      "name": "setController",
      "outputs": [],
      "payable": false,
      "stateMutability": "nonpayable",
      "type": "function"
    },
    {
      "constant": false,
      "inputs": [
        {
          "internalType": "bool",
          "name": "public_",
          "type": "bool"
        }
      ],
      "name": "setPublicSwap",
      "outputs": [],
      "payable": false,
      "stateMutability": "nonpayable",
      "type": "function"
    },
    {
      "constant": false,
      "inputs": [
        {
          "internalType": "bool",
          "name": "public_",
          "type": "bool"
        }
      ],
      "name": "setPublicJoin",
      "outputs": [],
      "payable": false,
      "stateMutability": "nonpayable",
      "type": "function"
    },
    {
      "constant": false,
      "inputs": [
        {
          "internalType": "bool",
          "name": "public_",
          "type": "bool"
        }
      ],
      "name": "setPublicExit",
      "outputs": [],
      "payable": false,
      "stateMutability": "nonpayable",
      "type": "function"
    },
    {
      "constant": false,
      "inputs": [
        {
          "internalType": "uint256",
          "name": "initSupply",
          "type": "uint256"
        }
      ],
      "name": "finalize",
      "outputs": [],
      "payable": false,
      "stateMutability": "nonpayable",
      "type": "function"
    },
    {
      "constant": false,
      "inputs": [
        {
          "internalType": "address",
          "name": "token",
          "type": "address"
        },
        {
          "internalType": "uint256",
          "name": "balance",
          "type": "uint256"
        },
        {
          "internalType": "uint256",
          "name": "denorm",
          "type": "uint256"
        }
      ],
      "name": "bind",
      "outputs": [],
      "payable": false,
      "stateMutability": "nonpayable",
      "type": "function"
    },
    {
      "constant": false,
      "inputs": [
        {
          "internalType": "address",
          "name": "token",
          "type": "address"
        },
        {
          "internalType": "uint256",
          "name": "balance",
          "type": "uint256"
        },
        {
          "internalType": "uint256",
          "name": "denorm",
          "type": "uint256"
        }
      ],
      "name": "rebind",
      "outputs": [],
      "payable": false,
      "stateMutability": "nonpayable",
      "type": "function"
    },
    {
      "constant": false,
      "inputs": [
        {
          "internalType": "address",
          "name": "token",
          "type": "address"
        }
      ],
      "name": "unbind",
      "outputs": [],
      "payable": false,
      "stateMutability": "nonpayable",
      "type": "function"
    },
    {
      "constant": false,
      "inputs": [
        {
          "internalType": "address",
          "name": "token",
          "type": "address"
        }
      ],
      "name": "gulp",
      "outputs": [],
      "payable": false,
      "stateMutability": "nonpayable",
      "type": "function"
    },
    {
      "constant": false,
      "inputs": [],
      "name": "collect",
      "outputs": [
        {
          "internalType": "uint256",
          "name": "collected",
          "type": "uint256"
        }
      ],
      "payable": false,
      "stateMutability": "nonpayable",
      "type": "function"
    },
    {
      "constant": true,
      "inputs": [
        {
          "internalType": "address",
          "name": "Ti",
          "type": "address"
        },
        {
          "internalType": "address",
          "name": "To",
          "type": "address"
        }
      ],
      "name": "getSpotPrice",
      "outputs": [
        {
          "internalType": "uint256",
          "name": "P",
          "type": "uint256"
        }
      ],
      "payable": false,
      "stateMutability": "view",
      "type": "function"
    },
    {
      "constant": true,
      "inputs": [
        {
          "internalType": "address",
          "name": "Ti",
          "type": "address"
        },
        {
          "internalType": "address",
          "name": "To",
          "type": "address"
        }
      ],
      "name": "getSpotPriceSansFee",
      "outputs": [
        {
          "internalType": "uint256",
          "name": "P",
          "type": "uint256"
        }
      ],
      "payable": false,
      "stateMutability": "view",
      "type": "function"
    },
    {
      "constant": false,
      "inputs": [
        {
          "internalType": "uint256",
          "name": "poolAo",
          "type": "uint256"
        }
      ],
      "name": "joinPool",
      "outputs": [],
      "payable": false,
      "stateMutability": "nonpayable",
      "type": "function"
    },
    {
      "constant": false,
      "inputs": [
        {
          "internalType": "uint256",
          "name": "pAi",
          "type": "uint256"
        }
      ],
      "name": "exitPool",
      "outputs": [],
      "payable": false,
      "stateMutability": "nonpayable",
      "type": "function"
    },
    {
      "constant": false,
      "inputs": [
        {
          "internalType": "address",
          "name": "Ti",
          "type": "address"
        },
        {
          "internalType": "uint256",
          "name": "Ai",
          "type": "uint256"
        },
        {
          "internalType": "address",
          "name": "To",
          "type": "address"
        },
        {
          "internalType": "uint256",
          "name": "MinAo",
          "type": "uint256"
        },
        {
          "internalType": "uint256",
          "name": "MaxP",
          "type": "uint256"
        }
      ],
      "name": "swap_ExactAmountIn",
      "outputs": [
        {
          "internalType": "uint256",
          "name": "Ao",
          "type": "uint256"
        },
        {
          "internalType": "uint256",
          "name": "MP",
          "type": "uint256"
        }
      ],
      "payable": false,
      "stateMutability": "nonpayable",
      "type": "function"
    },
    {
      "constant": false,
      "inputs": [
        {
          "internalType": "address",
          "name": "Ti",
          "type": "address"
        },
        {
          "internalType": "uint256",
          "name": "MaxAi",
          "type": "uint256"
        },
        {
          "internalType": "address",
          "name": "To",
          "type": "address"
        },
        {
          "internalType": "uint256",
          "name": "Ao",
          "type": "uint256"
        },
        {
          "internalType": "uint256",
          "name": "MaxP",
          "type": "uint256"
        }
      ],
      "name": "swap_ExactAmountOut",
      "outputs": [
        {
          "internalType": "uint256",
          "name": "Ai",
          "type": "uint256"
        },
        {
          "internalType": "uint256",
          "name": "MP",
          "type": "uint256"
        }
      ],
      "payable": false,
      "stateMutability": "nonpayable",
      "type": "function"
    },
    {
      "constant": false,
      "inputs": [
        {
          "internalType": "address",
          "name": "Ti",
          "type": "address"
        },
        {
          "internalType": "uint256",
          "name": "Li",
          "type": "uint256"
        },
        {
          "internalType": "address",
          "name": "To",
          "type": "address"
        },
        {
          "internalType": "uint256",
          "name": "Lo",
          "type": "uint256"
        },
        {
          "internalType": "uint256",
          "name": "MarP",
          "type": "uint256"
        }
      ],
      "name": "swap_ExactMarginalPrice",
      "outputs": [
        {
          "internalType": "uint256",
          "name": "Ai",
          "type": "uint256"
        },
        {
          "internalType": "uint256",
          "name": "Ao",
          "type": "uint256"
        }
      ],
      "payable": false,
      "stateMutability": "nonpayable",
      "type": "function"
    },
    {
      "constant": false,
      "inputs": [
        {
          "internalType": "address",
          "name": "Ti",
          "type": "address"
        },
        {
          "internalType": "uint256",
          "name": "tAi",
          "type": "uint256"
        }
      ],
      "name": "joinswap_ExternAmountIn",
      "outputs": [
        {
          "internalType": "uint256",
          "name": "pAo",
          "type": "uint256"
        }
      ],
      "payable": false,
      "stateMutability": "nonpayable",
      "type": "function"
    },
    {
      "constant": false,
      "inputs": [
        {
          "internalType": "uint256",
          "name": "pAo",
          "type": "uint256"
        },
        {
          "internalType": "address",
          "name": "Ti",
          "type": "address"
        }
      ],
      "name": "joinswap_PoolAmountOut",
      "outputs": [
        {
          "internalType": "uint256",
          "name": "tAi",
          "type": "uint256"
        }
      ],
      "payable": false,
      "stateMutability": "nonpayable",
      "type": "function"
    },
    {
      "constant": false,
      "inputs": [
        {
          "internalType": "uint256",
          "name": "pAi",
          "type": "uint256"
        },
        {
          "internalType": "address",
          "name": "To",
          "type": "address"
        }
      ],
      "name": "exitswap_PoolAmountIn",
      "outputs": [
        {
          "internalType": "uint256",
          "name": "tAo",
          "type": "uint256"
        }
      ],
      "payable": false,
      "stateMutability": "nonpayable",
      "type": "function"
    },
    {
      "constant": false,
      "inputs": [
        {
          "internalType": "address",
          "name": "To",
          "type": "address"
        },
        {
          "internalType": "uint256",
          "name": "tAo",
          "type": "uint256"
        }
      ],
      "name": "exitswap_ExternAmountOut",
      "outputs": [
        {
          "internalType": "uint256",
          "name": "pAi",
          "type": "uint256"
        }
      ],
      "payable": false,
      "stateMutability": "nonpayable",
      "type": "function"
    }
  ],
  "bytecode": "0x608060405234801561001057600080fd5b50600480546003805461010060a860020a031916336101008102919091179091556007805460ff19169055760100000000000000000000000000000000000000000000600160a060020a03199092161760a060020a62ffffff021916179055616beb806200007f6000396000f3fe608060405234801561001057600080fd5b5060043610610286576000357c01000000000000000000000000000000000000000000000000000000009004806392eefe9b1161016e578063ce1d477d116100e0578063e4e1e538116100a4578063e4e1e538146107de578063e522538114610810578063f1b8a9b714610818578063f5ae62591461083e578063f8b2cb4f1461085d578063fde924f71461088357610286565b8063ce1d477d14610742578063cf5e7bd314610782578063db8d55f1146107a8578063dd318279146104c9578063dd62ed3e146107b057610286565b8063ab48c9cf11610132578063ab48c9cf14610672578063be1d24ad14610691578063be3bbd2e146106ae578063c83d529e14610706578063cc77828d14610732578063cd2ed8fb1461073a57610286565b806392eefe9b146105ea578063936c347714610610578063948d8ce6146106185780639a86139b1461063e578063a9059cbb1461064657610286565b806334e7a19f116102075780634b0f9faa116101cb5780634b0f9faa146104d15780635718db49146104fd57806362fd79421461055657806370a08231146105965780638c28cbe8146105bc5780638d4e4083146105e257610286565b806334e7a19f1461042f5780633fdddaa21461044c578063483605e81461047e57806349b59552146104aa5780634a8402e6146104c957610286565b806318160ddd1161024e57806318160ddd1461037b5780631ecc61bc1461038357806323b872dd146103af5780632f37b624146103e55780633018205f1461040b57610286565b806305261aea1461028b578063095ea7b3146102aa5780630b78f9c0146102ea5780631446a7ff1461030d57806315e84af91461034d575b600080fd5b6102a8600480360360208110156102a157600080fd5b503561088b565b005b6102d6600480360360408110156102c057600080fd5b50600160a060020a038135169060200135610c04565b604080519115158252519081900360200190f35b6102a86004803603604081101561030057600080fd5b5080359060200135610c69565b61033b6004803603604081101561032357600080fd5b50600160a060020a0381358116916020013516610f7c565b60408051918252519081900360200190f35b61033b6004803603604081101561036357600080fd5b50600160a060020a038135811691602001351661113e565b61033b6112f7565b61033b6004803603604081101561039957600080fd5b5080359060200135600160a060020a03166112fd565b6102d6600480360360608110156103c557600080fd5b50600160a060020a0381358116916020810135909116906040013561162a565b6102d6600480360360208110156103fb57600080fd5b5035600160a060020a03166117a8565b6104136117c5565b60408051600160a060020a039092168252519081900360200190f35b6102a86004803603602081101561044557600080fd5b5035611850565b6102a86004803603606081101561046257600080fd5b50600160a060020a038135169060208101359060400135611b78565b61033b6004803603604081101561049457600080fd5b50600160a060020a038135169060200135612177565b6102a8600480360360208110156104c057600080fd5b503515156124a4565b6102d66126ce565b61033b600480360360408110156104e757600080fd5b50600160a060020a0381351690602001356126f0565b61053d600480360360a081101561051357600080fd5b50600160a060020a0381358116916020810135916040820135169060608101359060800135612a55565b6040805192835260208301919091528051918290030190f35b61053d600480360360a081101561056c57600080fd5b50600160a060020a0381358116916020810135916040820135169060608101359060800135613021565b61033b600480360360208110156105ac57600080fd5b5035600160a060020a03166135f2565b6102a8600480360360208110156105d257600080fd5b5035600160a060020a031661360d565b6102d6613825565b6102a86004803603602081101561060057600080fd5b5035600160a060020a031661382e565b61033b6139d0565b61033b6004803603602081101561062e57600080fd5b5035600160a060020a0316613a52565b61033b613b69565b6102d66004803603604081101561065c57600080fd5b50600160a060020a038135169060200135613b8d565b6102a86004803603602081101561068857600080fd5b50351515613be3565b6102a8600480360360208110156106a757600080fd5b5035613e95565b6106b66141f8565b60408051602080825283518183015283519192839290830191858101910280838360005b838110156106f25781810151838201526020016106da565b505050509050019250505060405180910390f35b61033b6004803603604081101561071c57600080fd5b5080359060200135600160a060020a031661435d565b6106b66146bd565b61033b614737565b61053d600480360360a081101561075857600080fd5b50600160a060020a038135811691602081013591604082013516906060810135906080013561473d565b6102a86004803603602081101561079857600080fd5b5035600160a060020a0316614d0c565b61053d61510f565b61033b600480360360408110156107c657600080fd5b50600160a060020a038135811691602001351661519b565b6102a8600480360360608110156107f457600080fd5b50600160a060020a0381351690602081013590604001356151c4565b61033b6154e2565b61033b6004803603602081101561082e57600080fd5b5035600160a060020a031661569d565b6102a86004803603602081101561085457600080fd5b503515156157c6565b61033b6004803603602081101561087357600080fd5b5035600160a060020a03166159f2565b6102d6615b09565b33600160a060020a0316600035600160e060020a031916600160e060020a03191660003660405180806020018281038252848482818152602001925080828437600083820152604051601f909101601f19169092018290039550909350505050a260035460408051808201909152600b8152600080516020616b1783398151915260208201529060ff16156109a15760405160e560020a62461bcd0281526004018080602001828103825283818151815260200191508051906020019080838360005b8381101561096657818101518382015260200161094e565b50505050905090810190601f1680156109935780820380516001836020036101000a031916815260200191505b509250505060405180910390fd5b506003805460ff191660011790556004546040805180820190915260128152600080516020616b5783398151915260208201529033600160a060020a0390911614610a305760405160e560020a62461bcd02815260206004820181815283516024840152835190928392604490910191908501908083836000831561096657818101518382015260200161094e565b506007546040805180820190915260108152600080516020616b9783398151915260208201529060ff1615610aa95760405160e560020a62461bcd02815260206004820181815283516024840152835190928392604490910191908501908083836000831561096657818101518382015260200161094e565b5060408051808201909152601381527f4552525f4d494e5f504f4f4c5f535550504c59000000000000000000000000006020820152670de0b6b3a7640000821015610b385760405160e560020a62461bcd02815260206004820181815283516024840152835190928392604490910191908501908083836000831561096657818101518382015260200161094e565b506007805460ff191660011790556004805476ff000000000000000000000000000000000000000000001975ff0000000000000000000000000000000000000000001974ff00000000000000000000000000000000000000001990921674010000000000000000000000000000000000000000179190911675010000000000000000000000000000000000000000001716760100000000000000000000000000000000000000000000179055610bed81615b2a565b610bf73382615b36565b506003805460ff19169055565b33600081815260208181526040808320600160a060020a038716808552908352818420869055815186815291519394909390927f8c5be1e5ebec7d5bd14f71427d1e84f3dd0314c0f7b2291e5b200ac8c7c3b925928290030190a35060015b92915050565b33600160a060020a0316600035600160e060020a031916600160e060020a03191660003660405180806020018281038252848482818152602001925080828437600083820152604051601f909101601f19169092018290039550909350505050a260035460408051808201909152600b8152600080516020616b1783398151915260208201529060ff1615610d425760405160e560020a62461bcd02815260206004820181815283516024840152835190928392604490910191908501908083836000831561096657818101518382015260200161094e565b506003805460ff191660011790556007546040805180820190915260108152600080516020616b9783398151915260208201529060ff1615610dc85760405160e560020a62461bcd02815260206004820181815283516024840152835190928392604490910191908501908083836000831561096657818101518382015260200161094e565b506004546040805180820190915260128152600080516020616b57833981519152602082015290600160a060020a03163314610e485760405160e560020a62461bcd02815260206004820181815283516024840152835190928392604490910191908501908083836000831561096657818101518382015260200161094e565b5060408051808201909152600b81527f4552525f4d41585f464545000000000000000000000000000000000000000000602082015267016345785d8a0000831115610ed75760405160e560020a62461bcd02815260206004820181815283516024840152835190928392604490910191908501908083836000831561096657818101518382015260200161094e565b5060408051808201909152600b81527f4552525f4d41585f464545000000000000000000000000000000000000000000602082015267016345785d8a0000821115610f665760405160e560020a62461bcd02815260206004820181815283516024840152835190928392604490910191908501908083836000831561096657818101518382015260200161094e565b506005919091556006556003805460ff19169055565b60035460408051808201909152600b8152600080516020616b17833981519152602082015260009160ff1615610ff65760405160e560020a62461bcd02815260206004820181815283516024840152835190928392604490910191908501908083836000831561096657818101518382015260200161094e565b50611000836117a8565b6040518060400160405280600d8152602001600080516020616b77833981519152815250906110735760405160e560020a62461bcd02815260206004820181815283516024840152835190928392604490910191908501908083836000831561096657818101518382015260200161094e565b5061107d826117a8565b6040518060400160405280600d8152602001600080516020616b77833981519152815250906110f05760405160e560020a62461bcd02815260206004820181815283516024840152835190928392604490910191908501908083836000831561096657818101518382015260200161094e565b50600160a060020a0380841660009081526009602052604080822092851682528120600280840154600180860154928401549084015493946111359492939290615b44565b95945050505050565b60035460408051808201909152600b8152600080516020616b17833981519152602082015260009160ff16156111b85760405160e560020a62461bcd02815260206004820181815283516024840152835190928392604490910191908501908083836000831561096657818101518382015260200161094e565b506111c2836117a8565b6040518060400160405280600d8152602001600080516020616b77833981519152815250906112355760405160e560020a62461bcd02815260206004820181815283516024840152835190928392604490910191908501908083836000831561096657818101518382015260200161094e565b5061123f826117a8565b6040518060400160405280600d8152602001600080516020616b77833981519152815250906112b25760405160e560020a62461bcd02815260206004820181815283516024840152835190928392604490910191908501908083836000831561096657818101518382015260200161094e565b50600160a060020a0380841660009081526009602052604080822092851682529020600280830154600180850154928401549084015460055461113594929190615b44565b60025490565b600033600160a060020a0316600035600160e060020a031916600160e060020a03191660003660405180806020018281038252848482818152602001925080828437600083820152604051601f909101601f19169092018290039550909350505050a260035460408051808201909152600b8152600080516020616b1783398151915260208201529060ff16156113d85760405160e560020a62461bcd02815260206004820181815283516024840152835190928392604490910191908501908083836000831561096657818101518382015260200161094e565b506003805460ff191660011790556113ef826117a8565b6040518060400160405280600d8152602001600080516020616b77833981519152815250906114625760405160e560020a62461bcd02815260206004820181815283516024840152835190928392604490910191908501908083836000831561096657818101518382015260200161094e565b5061146b6126ce565b6040518060400160405280601381526020017f4552525f4a4f494e5f4e4f545f5055424c494300000000000000000000000000815250906114f05760405160e560020a62461bcd02815260206004820181815283516024840152835190928392604490910191908501908083836000831561096657818101518382015260200161094e565b506114f9615b09565b604051806040016040528060138152602001600080516020616b378339815191528152509061156c5760405160e560020a62461bcd02815260206004820181815283516024840152835190928392604490910191908501908083836000831561096657818101518382015260200161094e565b50600160a060020a038216600090815260096020526040902060028082015460018301549154600a546005546115a6949291908990615bae565b91506115b184615b2a565b6115bb3385615b36565b6115c6833384615c61565b6115d4816002015483615d8c565b6002820155604080518381529051600160a060020a0385169133917f63982df10efd8dfaaaa0fcc7f50b2d93b7cba26ccc48adee2873220d485dc39a9181900360200190a3506003805460ff1916905592915050565b600033600160a060020a03851614806116645750600160a060020a0384166000908152602081815260408083203384529091529020548211155b6116b8576040805160e560020a62461bcd02815260206004820152601560248201527f4552525f42544f4b454e5f4241445f43414c4c45520000000000000000000000604482015290519081900360640190fd5b6116c3848484615e21565b82600160a060020a031684600160a060020a03167fddf252ad1be2c89b69c2b068fc378daa952ba7f163c4a11628f55a4df523b3ef846040518082815260200191505060405180910390a333600160a060020a0385161480159061174a5750600160a060020a03841660009081526020818152604080832033845290915290205460001914155b1561179e57600160a060020a03841660009081526020818152604080832033845290915290205461177b9083615ecf565b600160a060020a0385166000908152602081815260408083203384529091529020555b5060019392505050565b600160a060020a0316600090815260096020526040902054151590565b60035460408051808201909152600b8152600080516020616b17833981519152602082015260009160ff161561183f5760405160e560020a62461bcd02815260206004820181815283516024840152835190928392604490910191908501908083836000831561096657818101518382015260200161094e565b5050600454600160a060020a031690565b33600160a060020a0316600035600160e060020a031916600160e060020a03191660003660405180806020018281038252848482818152602001925080828437600083820152604051601f909101601f19169092018290039550909350505050a260035460408051808201909152600b8152600080516020616b1783398151915260208201529060ff16156119295760405160e560020a62461bcd02815260206004820181815283516024840152835190928392604490910191908501908083836000831561096657818101518382015260200161094e565b506003805460ff1916600117905560075460408051808201909152601181527f4552525f4e4f545f46494e414c495a454400000000000000000000000000000060208201529060ff166119c05760405160e560020a62461bcd02815260206004820181815283516024840152835190928392604490910191908501908083836000831561096657818101518382015260200161094e565b506119c96126ce565b6040518060400160405280601381526020017f4552525f4a4f494e5f4e4f545f5055424c49430000000000000000000000000081525090611a4e5760405160e560020a62461bcd02815260206004820181815283516024840152835190928392604490910191908501908083836000831561096657818101518382015260200161094e565b506000611a596112f7565b90506000611a678383615f2f565b905060005b600854811015611b5557600060088281548110611a8557fe5b6000918252602080832090910154600160a060020a03168083526009909152604082206002015490925090611aba8583616108565b600160a060020a038416600090815260096020526040902060020154909150611ae39082615d8c565b600160a060020a038416600090815260096020526040902060020155611b0a833383615c61565b604080518281529051600160a060020a0385169133917f63982df10efd8dfaaaa0fcc7f50b2d93b7cba26ccc48adee2873220d485dc39a9181900360200190a3505050600101611a6c565b50611b5f83615b2a565b611b693384615b36565b50506003805460ff1916905550565b33600160a060020a0316600035600160e060020a031916600160e060020a03191660003660405180806020018281038252848482818152602001925080828437600083820152604051601f909101601f19169092018290039550909350505050a260035460408051808201909152600b8152600080516020616b1783398151915260208201529060ff1615611c515760405160e560020a62461bcd02815260206004820181815283516024840152835190928392604490910191908501908083836000831561096657818101518382015260200161094e565b506003805460ff191660011790556004546040805180820190915260128152600080516020616b5783398151915260208201529033600160a060020a0390911614611ce05760405160e560020a62461bcd02815260206004820181815283516024840152835190928392604490910191908501908083836000831561096657818101518382015260200161094e565b50611cea836117a8565b6040518060400160405280600d8152602001600080516020616b7783398151915281525090611d5d5760405160e560020a62461bcd02815260206004820181815283516024840152835190928392604490910191908501908083836000831561096657818101518382015260200161094e565b506007546040805180820190915260108152600080516020616b9783398151915260208201529060ff1615611dd65760405160e560020a62461bcd02815260206004820181815283516024840152835190928392604490910191908501908083836000831561096657818101518382015260200161094e565b5060408051808201909152600e81527f4552525f4d494e5f5745494748540000000000000000000000000000000000006020820152670de0b6b3a7640000821015611e655760405160e560020a62461bcd02815260206004820181815283516024840152835190928392604490910191908501908083836000831561096657818101518382015260200161094e565b5060408051808201909152600e81527f4552525f4d41585f57454947485400000000000000000000000000000000000060208201526802b5e3af16b1880000821115611ef55760405160e560020a62461bcd02815260206004820181815283516024840152835190928392604490910191908501908083836000831561096657818101518382015260200161094e565b5060408051808201909152600f81527f4552525f4d494e5f42414c414e43450000000000000000000000000000000000602082015264e8d4a51000831015611f815760405160e560020a62461bcd02815260206004820181815283516024840152835190928392604490910191908501908083836000831561096657818101518382015260200161094e565b5060408051808201909152600f81527f4552525f4d41585f42414c414e4345000000000000000000000000000000000060208201526c0c9f2c9cd04674edea400000008311156120155760405160e560020a62461bcd02815260206004820181815283516024840152835190928392604490910191908501908083836000831561096657818101518382015260200161094e565b50600160a060020a038316600090815260096020526040902060010154808211156120e85761204f600a5461204a848461624c565b615d8c565b600a81905560408051808201909152601481527f4552525f4d41585f544f54414c5f5745494748540000000000000000000000006020820152906802b5e3af16b1880000116120e25760405160e560020a62461bcd02815260206004820181815283516024840152835190928392604490910191908501908083836000831561096657818101518382015260200161094e565b50612101565b6120fd600a546120f8838561624c565b61624c565b600a555b600160a060020a0384166000908152600960205260409020600181018390556002018054908490558084111561214a576121458533612140878561624c565b615c61565b612166565b80841015612166576121668533612161848861624c565b6162f0565b50506003805460ff19169055505050565b600033600160a060020a0316600035600160e060020a031916600160e060020a03191660003660405180806020018281038252848482818152602001925080828437600083820152604051601f909101601f19169092018290039550909350505050a260035460408051808201909152600b8152600080516020616b1783398151915260208201529060ff16156122525760405160e560020a62461bcd02815260206004820181815283516024840152835190928392604490910191908501908083836000831561096657818101518382015260200161094e565b506003805460ff19166001179055612269836117a8565b6040518060400160405280600d8152602001600080516020616b77833981519152815250906122dc5760405160e560020a62461bcd02815260206004820181815283516024840152835190928392604490910191908501908083836000831561096657818101518382015260200161094e565b506122e56126ce565b6040518060400160405280601381526020017f4552525f4a4f494e5f4e4f545f5055424c4943000000000000000000000000008152509061236a5760405160e560020a62461bcd02815260206004820181815283516024840152835190928392604490910191908501908083836000831561096657818101518382015260200161094e565b50612373615b09565b604051806040016040528060138152602001600080516020616b37833981519152815250906123e65760405160e560020a62461bcd02815260206004820181815283516024840152835190928392604490910191908501908083836000831561096657818101518382015260200161094e565b50600160a060020a038316600090815260096020526040902060028082015460018301549154600a5460055461242094929190889061635c565b915061242b82615b2a565b6124353383615b36565b612440843385615c61565b61244e816002015484615d8c565b6002820155604080518481529051600160a060020a0386169133917f63982df10efd8dfaaaa0fcc7f50b2d93b7cba26ccc48adee2873220d485dc39a9181900360200190a3506003805460ff1916905592915050565b33600160a060020a0316600035600160e060020a031916600160e060020a03191660003660405180806020018281038252848482818152602001925080828437600083820152604051601f909101601f19169092018290039550909350505050a260035460408051808201909152600b8152600080516020616b1783398151915260208201529060ff161561257d5760405160e560020a62461bcd02815260206004820181815283516024840152835190928392604490910191908501908083836000831561096657818101518382015260200161094e565b506003805460ff191660011790556007546040805180820190915260108152600080516020616b9783398151915260208201529060ff16156126035760405160e560020a62461bcd02815260206004820181815283516024840152835190928392604490910191908501908083836000831561096657818101518382015260200161094e565b506004546040805180820190915260128152600080516020616b57833981519152602082015290600160a060020a031633146126835760405160e560020a62461bcd02815260206004820181815283516024840152835190928392604490910191908501908083836000831561096657818101518382015260200161094e565b5060048054911515740100000000000000000000000000000000000000000274ff0000000000000000000000000000000000000000199092169190911790556003805460ff19169055565b6004547501000000000000000000000000000000000000000000900460ff1690565b600033600160a060020a0316600035600160e060020a031916600160e060020a03191660003660405180806020018281038252848482818152602001925080828437600083820152604051601f909101601f19169092018290039550909350505050a260035460408051808201909152600b8152600080516020616b1783398151915260208201529060ff16156127cb5760405160e560020a62461bcd02815260206004820181815283516024840152835190928392604490910191908501908083836000831561096657818101518382015260200161094e565b506003805460ff191660011790556127e2836117a8565b6040518060400160405280600d8152602001600080516020616b77833981519152815250906128555760405160e560020a62461bcd02815260206004820181815283516024840152835190928392604490910191908501908083836000831561096657818101518382015260200161094e565b5061285e615b09565b604051806040016040528060138152602001600080516020616b37833981519152815250906128d15760405160e560020a62461bcd02815260206004820181815283516024840152835190928392604490910191908501908083836000831561096657818101518382015260200161094e565b506128da6126ce565b6040518060400160405280601381526020017f4552525f455849545f4e4f545f5055424c4943000000000000000000000000008152509061295f5760405160e560020a62461bcd02815260206004820181815283516024840152835190928392604490910191908501908083836000831561096657818101518382015260200161094e565b50600160a060020a038316600090815260096020526040902060028082015460018301549154600a5460055460065461299c9593929189916163fd565b91506129a833836164bc565b60006129b683600654616108565b90506129ca6129c5848361624c565b6164c6565b6003546129e5906101009004600160a060020a031682615b36565b6129f08533866162f0565b6129fe82600201548561624c565b6002830155604080518581529051600160a060020a0387169133917fe74c91552b64c2e2e7bd255639e004e693bd3e1d01cc33e65610b86afcc1ffed9181900360200190a350506003805460ff1916905592915050565b6040805160208082523690820181905260009283923392600160e060020a03198535169285929081908101848480828437600083820152604051601f909101601f19169092018290039550909350505050a260035460408051808201909152600b8152600080516020616b1783398151915260208201529060ff1615612b1f5760405160e560020a62461bcd02815260206004820181815283516024840152835190928392604490910191908501908083836000831561096657818101518382015260200161094e565b506003805460ff19166001179055612b36876117a8565b6040518060400160405280600d8152602001600080516020616b7783398151915281525090612ba95760405160e560020a62461bcd02815260206004820181815283516024840152835190928392604490910191908501908083836000831561096657818101518382015260200161094e565b50612bb3856117a8565b6040518060400160405280600d8152602001600080516020616b7783398151915281525090612c265760405160e560020a62461bcd02815260206004820181815283516024840152835190928392604490910191908501908083836000831561096657818101518382015260200161094e565b50612c2f615b09565b604051806040016040528060138152602001600080516020616b3783398151915281525090612ca25760405160e560020a62461bcd02815260206004820181815283516024840152835190928392604490910191908501908083836000831561096657818101518382015260200161094e565b50600160a060020a03808816600090815260096020526040808220928816825290206002810154612ce2906003670de0b6b3a76400005b04600101616108565b8311156040518060400160405280601181526020017f4552525f4d41585f4f55545f524154494f00000000000000000000000000000081525090612d6a5760405160e560020a62461bcd02815260206004820181815283516024840152835190928392604490910191908501908083836000831561096657818101518382015260200161094e565b506000612d8c8360020154846001015484600201548560010154600554615b44565b90508086116040518060400160405280601381526020017f4552525f4152475f4c494d49545f50524943450000000000000000000000000081525090612e165760405160e560020a62461bcd02815260206004820181815283516024840152835190928392604490910191908501908083836000831561096657818101518382015260200161094e565b50612e3783600201548460010154846002015485600101548a6005546164cf565b9450612e5983600201548460010154846002015485600101548960055461655a565b9350888511156040518060400160405280600c81526020017f4552525f4c494d49545f494e000000000000000000000000000000000000000081525090612ee45760405160e560020a62461bcd02815260206004820181815283516024840152835190928392604490910191908501908083836000831561096657818101518382015260200161094e565b5060408051808201909152600d81527f4552525f4c494d49545f4f555400000000000000000000000000000000000000602082015287851015612f6b5760405160e560020a62461bcd02815260206004820181815283516024840152835190928392604490910191908501908083836000831561096657818101518382015260200161094e565b50612f7a836002015486615d8c565b8360020181905550612f9082600201548561624c565b6002830155612fa08a3387615c61565b612fab8833866162f0565b87600160a060020a03168a600160a060020a031633600160a060020a03167f908fb5ee8f16c6bc9bc3690973819f32a4d4b10188134543c88706e0e1d433788888604051808381526020018281526020019250505060405180910390a45050506003805460ff1916905590969095509350505050565b6040805160208082523690820181905260009283923392600160e060020a03198535169285929081908101848480828437600083820152604051601f909101601f19169092018290039550909350505050a260035460408051808201909152600b8152600080516020616b1783398151915260208201529060ff16156130eb5760405160e560020a62461bcd02815260206004820181815283516024840152835190928392604490910191908501908083836000831561096657818101518382015260200161094e565b506003805460ff19166001179055613102876117a8565b6040518060400160405280600d8152602001600080516020616b77833981519152815250906131755760405160e560020a62461bcd02815260206004820181815283516024840152835190928392604490910191908501908083836000831561096657818101518382015260200161094e565b5061317f856117a8565b6040518060400160405280600d8152602001600080516020616b77833981519152815250906131f25760405160e560020a62461bcd02815260206004820181815283516024840152835190928392604490910191908501908083836000831561096657818101518382015260200161094e565b506131fb615b09565b604051806040016040528060138152602001600080516020616b378339815191528152509061326e5760405160e560020a62461bcd02815260206004820181815283516024840152835190928392604490910191908501908083836000831561096657818101518382015260200161094e565b50600160a060020a038088166000908152600960205260408082209288168252902060028101546132a9906003670de0b6b3a7640000612cd9565b8611156040518060400160405280601181526020017f4552525f4d41585f4f55545f524154494f000000000000000000000000000000815250906133315760405160e560020a62461bcd02815260206004820181815283516024840152835190928392604490910191908501908083836000831561096657818101518382015260200161094e565b5060006133538360020154846001015484600201548560010154600554615b44565b9050858111156040518060400160405280601381526020017f4552525f4152475f4c494d49545f505249434500000000000000000000000000815250906133de5760405160e560020a62461bcd02815260206004820181815283516024840152835190928392604490910191908501908083836000831561096657818101518382015260200161094e565b506133ff83600201548460010154846002015485600101548b6005546165db565b9450888511156040518060400160405280600c81526020017f4552525f4c494d49545f494e00000000000000000000000000000000000000008152509061348a5760405160e560020a62461bcd02815260206004820181815283516024840152835190928392604490910191908501908083836000831561096657818101518382015260200161094e565b50613499836002015486615d8c565b83600201819055506134af82600201548861624c565b826002018190555060006134d88460020154856001015485600201548660010154600554615b44565b9050868111156040518060400160405280600f81526020017f4552525f4c494d49545f50524943450000000000000000000000000000000000815250906135635760405160e560020a62461bcd02815260206004820181815283516024840152835190928392604490910191908501908083836000831561096657818101518382015260200161094e565b5061356f8b3388615c61565b61357a89338a6162f0565b88600160a060020a03168b600160a060020a031633600160a060020a03167f908fb5ee8f16c6bc9bc3690973819f32a4d4b10188134543c88706e0e1d43378898c604051808381526020018281526020019250505060405180910390a493505050506003805460ff1916905590969095509350505050565b600160a060020a031660009081526001602052604090205490565b33600160a060020a0316600035600160e060020a031916600160e060020a03191660003660405180806020018281038252848482818152602001925080828437600083820152604051601f909101601f19169092018290039550909350505050a260035460408051808201909152600b8152600080516020616b1783398151915260208201529060ff16156136e65760405160e560020a62461bcd02815260206004820181815283516024840152835190928392604490910191908501908083836000831561096657818101518382015260200161094e565b506003805460ff191660011790556136fd816117a8565b6040518060400160405280600d8152602001600080516020616b77833981519152815250906137705760405160e560020a62461bcd02815260206004820181815283516024840152835190928392604490910191908501908083836000831561096657818101518382015260200161094e565b50604080517f70a082310000000000000000000000000000000000000000000000000000000081523060048201529051600160a060020a038316916370a08231916024808301926020929190829003018186803b1580156137d057600080fd5b505afa1580156137e4573d6000803e3d6000fd5b505050506040513d60208110156137fa57600080fd5b5051600160a060020a039091166000908152600960205260409020600201556003805460ff19169055565b60075460ff1690565b33600160a060020a0316600035600160e060020a031916600160e060020a03191660003660405180806020018281038252848482818152602001925080828437600083820152604051601f909101601f19169092018290039550909350505050a260035460408051808201909152600b8152600080516020616b1783398151915260208201529060ff16156139075760405160e560020a62461bcd02815260206004820181815283516024840152835190928392604490910191908501908083836000831561096657818101518382015260200161094e565b506003805460ff191660011790556004546040805180820190915260128152600080516020616b5783398151915260208201529033600160a060020a03909116146139965760405160e560020a62461bcd02815260206004820181815283516024840152835190928392604490910191908501908083836000831561096657818101518382015260200161094e565b506004805473ffffffffffffffffffffffffffffffffffffffff1916600160a060020a03929092169190911790556003805460ff19169055565b60035460408051808201909152600b8152600080516020616b17833981519152602082015260009160ff1615613a4a5760405160e560020a62461bcd02815260206004820181815283516024840152835190928392604490910191908501908083836000831561096657818101518382015260200161094e565b5050600a5490565b60035460408051808201909152600b8152600080516020616b17833981519152602082015260009160ff1615613acc5760405160e560020a62461bcd02815260206004820181815283516024840152835190928392604490910191908501908083836000831561096657818101518382015260200161094e565b50613ad6826117a8565b6040518060400160405280600d8152602001600080516020616b7783398151915281525090613b495760405160e560020a62461bcd02815260206004820181815283516024840152835190928392604490910191908501908083836000831561096657818101518382015260200161094e565b5050600160a060020a031660009081526009602052604090206001015490565b7f42524f4e5a45000000000000000000000000000000000000000000000000000090565b6000613b9a338484615e21565b604080518381529051600160a060020a0385169133917fddf252ad1be2c89b69c2b068fc378daa952ba7f163c4a11628f55a4df523b3ef9181900360200190a350600192915050565b33600160a060020a0316600035600160e060020a031916600160e060020a03191660003660405180806020018281038252848482818152602001925080828437600083820152604051601f909101601f19169092018290039550909350505050a260035460408051808201909152600b8152600080516020616b1783398151915260208201529060ff1615613cbc5760405160e560020a62461bcd02815260206004820181815283516024840152835190928392604490910191908501908083836000831561096657818101518382015260200161094e565b506003805460ff1916600117905560408051808201909152601681527f4552525f455849545f414c574159535f5055424c494300000000000000000000602082015281613d4d5760405160e560020a62461bcd02815260206004820181815283516024840152835190928392604490910191908501908083836000831561096657818101518382015260200161094e565b506007546040805180820190915260108152600080516020616b9783398151915260208201529060ff1615613dc65760405160e560020a62461bcd02815260206004820181815283516024840152835190928392604490910191908501908083836000831561096657818101518382015260200161094e565b506004546040805180820190915260128152600080516020616b57833981519152602082015290600160a060020a03163314613e465760405160e560020a62461bcd02815260206004820181815283516024840152835190928392604490910191908501908083836000831561096657818101518382015260200161094e565b50600480549115157601000000000000000000000000000000000000000000000276ff00000000000000000000000000000000000000000000199092169190911790556003805460ff19169055565b33600160a060020a0316600035600160e060020a031916600160e060020a03191660003660405180806020018281038252848482818152602001925080828437600083820152604051601f909101601f19169092018290039550909350505050a260035460408051808201909152600b8152600080516020616b1783398151915260208201529060ff1615613f6e5760405160e560020a62461bcd02815260206004820181815283516024840152835190928392604490910191908501908083836000831561096657818101518382015260200161094e565b506003805460ff1916600117905560075460408051808201909152601181527f4552525f4e4f545f46494e414c495a454400000000000000000000000000000060208201529060ff166140055760405160e560020a62461bcd02815260206004820181815283516024840152835190928392604490910191908501908083836000831561096657818101518382015260200161094e565b5061400e6126ce565b6040518060400160405280601381526020017f4552525f455849545f4e4f545f5055424c494300000000000000000000000000815250906140935760405160e560020a62461bcd02815260206004820181815283516024840152835190928392604490910191908501908083836000831561096657818101518382015260200161094e565b50600061409e6112f7565b905060006140ae83600654616108565b905060006140bc848361624c565b905060006140ca8285615f2f565b90506140d633866164bc565b6003546140f1906101009004600160a060020a031684615b36565b6140fa826164c6565b60005b6008548110156141e65760006008828154811061411657fe5b6000918252602080832090910154600160a060020a0316808352600990915260408220600201549092509061414b8583616108565b600160a060020a038416600090815260096020526040902060020154909150614174908261624c565b600160a060020a03841660009081526009602052604090206002015561419b8333836162f0565b604080518281529051600160a060020a0385169133917fe74c91552b64c2e2e7bd255639e004e693bd3e1d01cc33e65610b86afcc1ffed9181900360200190a35050506001016140fd565b50506003805460ff1916905550505050565b60035460408051808201909152600b8152600080516020616b17833981519152602082015260609160ff16156142725760405160e560020a62461bcd02815260206004820181815283516024840152835190928392604490910191908501908083836000831561096657818101518382015260200161094e565b5060075460408051808201909152601181527f4552525f4e4f545f46494e414c495a454400000000000000000000000000000060208201529060ff166142fc5760405160e560020a62461bcd02815260206004820181815283516024840152835190928392604490910191908501908083836000831561096657818101518382015260200161094e565b50600880548060200260200160405190810160405280929190818152602001828054801561435357602002820191906000526020600020905b8154600160a060020a03168152600190910190602001808311614335575b5050505050905090565b600033600160a060020a0316600035600160e060020a031916600160e060020a03191660003660405180806020018281038252848482818152602001925080828437600083820152604051601f909101601f19169092018290039550909350505050a260035460408051808201909152600b8152600080516020616b1783398151915260208201529060ff16156144385760405160e560020a62461bcd02815260206004820181815283516024840152835190928392604490910191908501908083836000831561096657818101518382015260200161094e565b506003805460ff1916600117905561444f826117a8565b6040518060400160405280600d8152602001600080516020616b77833981519152815250906144c25760405160e560020a62461bcd02815260206004820181815283516024840152835190928392604490910191908501908083836000831561096657818101518382015260200161094e565b506144cb615b09565b604051806040016040528060138152602001600080516020616b378339815191528152509061453e5760405160e560020a62461bcd02815260206004820181815283516024840152835190928392604490910191908501908083836000831561096657818101518382015260200161094e565b506145476126ce565b6040518060400160405280601381526020017f4552525f455849545f4e4f545f5055424c494300000000000000000000000000815250906145cc5760405160e560020a62461bcd02815260206004820181815283516024840152835190928392604490910191908501908083836000831561096657818101518382015260200161094e565b50600160a060020a038216600090815260096020526040902060028082015460018301549154600a54600554600654614609959392918a9161664f565b915061461533856164bc565b600061462385600654616108565b90506146326129c5868361624c565b60035461464d906101009004600160a060020a031682615b36565b6146588433856162f0565b61466682600201548461624c565b6002830155604080518481529051600160a060020a0386169133917fe74c91552b64c2e2e7bd255639e004e693bd3e1d01cc33e65610b86afcc1ffed9181900360200190a350506003805460ff1916905592915050565b60035460408051808201909152600b8152600080516020616b17833981519152602082015260609160ff16156142fc5760405160e560020a62461bcd02815260206004820181815283516024840152835190928392604490910191908501908083836000831561096657818101518382015260200161094e565b60085490565b6040805160208082523690820181905260009283923392600160e060020a03198535169285929081908101848480828437600083820152604051601f909101601f19169092018290039550909350505050a260035460408051808201909152600b8152600080516020616b1783398151915260208201529060ff16156148075760405160e560020a62461bcd02815260206004820181815283516024840152835190928392604490910191908501908083836000831561096657818101518382015260200161094e565b506003805460ff1916600117905561481e876117a8565b6040518060400160405280600d8152602001600080516020616b77833981519152815250906148915760405160e560020a62461bcd02815260206004820181815283516024840152835190928392604490910191908501908083836000831561096657818101518382015260200161094e565b5061489b856117a8565b6040518060400160405280600d8152602001600080516020616b778339815191528152509061490e5760405160e560020a62461bcd02815260206004820181815283516024840152835190928392604490910191908501908083836000831561096657818101518382015260200161094e565b50614917615b09565b604051806040016040528060138152602001600080516020616b378339815191528152509061498a5760405160e560020a62461bcd02815260206004820181815283516024840152835190928392604490910191908501908083836000831561096657818101518382015260200161094e565b50600160a060020a038781166000908152600960205260408082209288168252902060028201546149c3906706f05b59d3b20000616108565b8811156040518060400160405280601081526020017f4552525f4d41585f494e5f524154494f0000000000000000000000000000000081525090614a4b5760405160e560020a62461bcd02815260206004820181815283516024840152835190928392604490910191908501908083836000831561096657818101518382015260200161094e565b506000614a6d8360020154846001015484600201548560010154600554615b44565b9050858111156040518060400160405280601081526020017f4552525f4152475f4c494d49545f494e0000000000000000000000000000000081525090614af85760405160e560020a62461bcd02815260206004820181815283516024840152835190928392604490910191908501908083836000831561096657818101518382015260200161094e565b50614b1983600201548460010154846002015485600101548d60055461655a565b9450868510156040518060400160405280600d81526020017f4552525f4c494d49545f4f55540000000000000000000000000000000000000081525090614ba45760405160e560020a62461bcd02815260206004820181815283516024840152835190928392604490910191908501908083836000831561096657818101518382015260200161094e565b50614bb383600201548a615d8c565b8360020181905550614bc982600201548661624c565b82600201819055506000614bf28460020154856001015485600201548660010154600554615b44565b9050868111156040518060400160405280600f81526020017f4552525f4c494d49545f5052494345000000000000000000000000000000000081525090614c7d5760405160e560020a62461bcd02815260206004820181815283516024840152835190928392604490910191908501908083836000831561096657818101518382015260200161094e565b50614c898b338c615c61565b614c948933886162f0565b88600160a060020a03168b600160a060020a031633600160a060020a03167f908fb5ee8f16c6bc9bc3690973819f32a4d4b10188134543c88706e0e1d433788d8a604051808381526020018281526020019250505060405180910390a493505050506003805460ff1916905590969095509350505050565b33600160a060020a0316600035600160e060020a031916600160e060020a03191660003660405180806020018281038252848482818152602001925080828437600083820152604051601f909101601f19169092018290039550909350505050a260035460408051808201909152600b8152600080516020616b1783398151915260208201529060ff1615614de55760405160e560020a62461bcd02815260206004820181815283516024840152835190928392604490910191908501908083836000831561096657818101518382015260200161094e565b506003805460ff191660011790556004546040805180820190915260128152600080516020616b5783398151915260208201529033600160a060020a0390911614614e745760405160e560020a62461bcd02815260206004820181815283516024840152835190928392604490910191908501908083836000831561096657818101518382015260200161094e565b50614e7e816117a8565b6040518060400160405280600d8152602001600080516020616b7783398151915281525090614ef15760405160e560020a62461bcd02815260206004820181815283516024840152835190928392604490910191908501908083836000831561096657818101518382015260200161094e565b506007546040805180820190915260108152600080516020616b9783398151915260208201529060ff1615614f6a5760405160e560020a62461bcd02815260206004820181815283516024840152835190928392604490910191908501908083836000831561096657818101518382015260200161094e565b50600160a060020a038116600090815260096020526040902060020154614f9490829033906162f0565b600a54600160a060020a038216600090815260096020526040902060010154614fbd919061624c565b600a55600160a060020a03811660009081526009602052604090205460088054600019928301928101919082908110614ff257fe5b60009182526020909120015460088054600160a060020a03909216918490811061501857fe5b9060005260206000200160006101000a815481600160a060020a030219169083600160a060020a0316021790555081600101600960006008858154811061505b57fe5b6000918252602080832090910154600160a060020a03168352820192909252604001902055600880548061508b57fe5b600082815260208082208301600019908101805473ffffffffffffffffffffffffffffffffffffffff1916905590920190925560408051606081018252838152808301848152818301858152600160a060020a039890981685526009909352922091518255516001820155925160029093019290925550506003805460ff19169055565b60035460408051808201909152600b8152600080516020616b17833981519152602082015260009182919060ff161561518c5760405160e560020a62461bcd02815260206004820181815283516024840152835190928392604490910191908501908083836000831561096657818101518382015260200161094e565b50600554600654915091509091565b600160a060020a0391821660009081526020818152604080832093909416825291909152205490565b33600160a060020a0316600035600160e060020a031916600160e060020a03191660003660405180806020018281038252848482818152602001925080828437600083820152604051601f909101601f19169092018290039550909350505050a26004546040805180820190915260128152600080516020616b57833981519152602082015290600160a060020a031633146152a45760405160e560020a62461bcd02815260206004820181815283516024840152835190928392604490910191908501908083836000831561096657818101518382015260200161094e565b506152ae836117a8565b156040518060400160405280600c81526020017f4552525f49535f424f554e440000000000000000000000000000000000000000815250906153345760405160e560020a62461bcd02815260206004820181815283516024840152835190928392604490910191908501908083836000831561096657818101518382015260200161094e565b5061533d613825565b15604051806040016040528060108152602001600080516020616b97833981519152815250906153b15760405160e560020a62461bcd02815260206004820181815283516024840152835190928392604490910191908501908083836000831561096657818101518382015260200161094e565b506008805460408051808201909152600e81527f4552525f4d41585f544f4b454e530000000000000000000000000000000000006020820152911161543a5760405160e560020a62461bcd02815260206004820181815283516024840152835190928392604490910191908501908083836000831561096657818101518382015260200161094e565b50600880546001808201928390557ff3f7a9fe364faab93b216da50a3214154f22a0a2b415b23a84c8169e8b636ee3909101805473ffffffffffffffffffffffffffffffffffffffff1916600160a060020a0387169081179091556040805160608101825284815260006020808301828152838501838152958352600990915292902090518155905192810192909255516002909101556154dc848484611b78565b50505050565b600033600160a060020a0316600035600160e060020a031916600160e060020a03191660003660405180806020018281038252848482818152602001925080828437600083820152604051601f909101601f19169092018290039550909350505050a260035460408051808201909152600b8152600080516020616b1783398151915260208201529060ff16156155bd5760405160e560020a62461bcd02815260206004820181815283516024840152835190928392604490910191908501908083836000831561096657818101518382015260200161094e565b5060038054600160ff19909116179081905560408051808201909152600f81527f4552525f4e4f545f464143544f525900000000000000000000000000000000006020820152906101009004600160a060020a031633146156625760405160e560020a62461bcd02815260206004820181815283516024840152835190928392604490910191908501908083836000831561096657818101518382015260200161094e565b506003546101009004600160a060020a03166000818152600160205260409020549061568e9082615b36565b90506003805460ff1916905590565b60035460408051808201909152600b8152600080516020616b17833981519152602082015260009160ff16156157175760405160e560020a62461bcd02815260206004820181815283516024840152835190928392604490910191908501908083836000831561096657818101518382015260200161094e565b50615721826117a8565b6040518060400160405280600d8152602001600080516020616b77833981519152815250906157945760405160e560020a62461bcd02815260206004820181815283516024840152835190928392604490910191908501908083836000831561096657818101518382015260200161094e565b50600160a060020a038216600090815260096020526040902060010154600a546157bf908290615f2f565b9392505050565b33600160a060020a0316600035600160e060020a031916600160e060020a03191660003660405180806020018281038252848482818152602001925080828437600083820152604051601f909101601f19169092018290039550909350505050a260035460408051808201909152600b8152600080516020616b1783398151915260208201529060ff161561589f5760405160e560020a62461bcd02815260206004820181815283516024840152835190928392604490910191908501908083836000831561096657818101518382015260200161094e565b506003805460ff191660011790556007546040805180820190915260108152600080516020616b9783398151915260208201529060ff16156159255760405160e560020a62461bcd02815260206004820181815283516024840152835190928392604490910191908501908083836000831561096657818101518382015260200161094e565b506004546040805180820190915260128152600080516020616b57833981519152602082015290600160a060020a031633146159a55760405160e560020a62461bcd02815260206004820181815283516024840152835190928392604490910191908501908083836000831561096657818101518382015260200161094e565b506004805491151575010000000000000000000000000000000000000000000275ff000000000000000000000000000000000000000000199092169190911790556003805460ff19169055565b60035460408051808201909152600b8152600080516020616b17833981519152602082015260009160ff1615615a6c5760405160e560020a62461bcd02815260206004820181815283516024840152835190928392604490910191908501908083836000831561096657818101518382015260200161094e565b50615a76826117a8565b6040518060400160405280600d8152602001600080516020616b7783398151915281525090615ae95760405160e560020a62461bcd02815260206004820181815283516024840152835190928392604490910191908501908083836000831561096657818101518382015260200161094e565b5050600160a060020a031660009081526009602052604090206002015490565b60045474010000000000000000000000000000000000000000900460ff1690565b615b3381616719565b50565b615b408282616789565b5050565b600080615b518787615f2f565b90506000615b5f8686615f2f565b90506000615b6d8383615f2f565b90506000615b94670de0b6b3a7640000615b8f670de0b6b3a76400008961624c565b615f2f565b9050615ba08282616108565b9a9950505050505050505050565b600080615bbb8786615f2f565b90506000615bc98786615d8c565b90506000615bd78289615f2f565b90506000615bed670de0b6b3a764000085615f2f565b90506000615bfb8383616794565b90506000615c09828e616108565b90506000615c17828f61624c565b90506000615c36615c30670de0b6b3a76400008a61624c565b8b616108565b9050615c4e82615b8f670de0b6b3a76400008461624c565b9f9e505050505050505050505050505050565b604080517f23b872dd000000000000000000000000000000000000000000000000000000008152600160a060020a0384811660048301523060248301526044820184905291516000928616916323b872dd91606480830192602092919082900301818787803b158015615cd357600080fd5b505af1158015615ce7573d6000803e3d6000fd5b505050506040513d6020811015615cfd57600080fd5b505160408051808201909152600f81527f4552525f45524332305f46414c53450000000000000000000000000000000000602082015290915081615d855760405160e560020a62461bcd02815260206004820181815283516024840152835190928392604490910191908501908083836000831561096657818101518382015260200161094e565b5050505050565b60408051808201909152601081527f4552525f4144445f4f564552464c4f570000000000000000000000000000000060208201526000908383019084821015615e195760405160e560020a62461bcd02815260206004820181815283516024840152835190928392604490910191908501908083836000831561096657818101518382015260200161094e565b509392505050565b600160a060020a038316600090815260016020526040902054615e449082615ecf565b600160a060020a038085166000908152600160205260408082209390935590841681522054615e739082615d8c565b600160a060020a0380841660008181526001602090815260409182902094909455805185815290519193928716927fdeb3a6837278f6e9914a507e4d73f08e841d8fca434fb97d4307b3b0d3d6b10592918290030190a3505050565b600081831015615f29576040805160e560020a62461bcd02815260206004820152601460248201527f4552525f42544f4b454e5f554e444552464c4f57000000000000000000000000604482015290519081900360640190fd5b50900390565b60408051808201909152600c81527f4552525f4449565f5a45524f0000000000000000000000000000000000000000602082015260009082615fb55760405160e560020a62461bcd02815260206004820181815283516024840152835190928392604490910191908501908083836000831561096657818101518382015260200161094e565b50670de0b6b3a76400008302831580615fde5750670de0b6b3a7640000848281615fdb57fe5b04145b6040518060400160405280601081526020017f4552525f4449565f494e5445524e414c00000000000000000000000000000000815250906160635760405160e560020a62461bcd02815260206004820181815283516024840152835190928392604490910191908501908083836000831561096657818101518382015260200161094e565b5060408051808201909152601081527f4552525f4449565f494e5445524e414c00000000000000000000000000000000602082015260028404820190828210156160f15760405160e560020a62461bcd02815260206004820181815283516024840152835190928392604490910191908501908083836000831561096657818101518382015260200161094e565b5060008482816160fd57fe5b049695505050505050565b600082820283158061612257508284828161611f57fe5b04145b6040518060400160405280601081526020017f4552525f4d554c5f4f564552464c4f5700000000000000000000000000000000815250906161a75760405160e560020a62461bcd02815260206004820181815283516024840152835190928392604490910191908501908083836000831561096657818101518382015260200161094e565b5060408051808201909152601081527f4552525f4d554c5f4f564552464c4f570000000000000000000000000000000060208201526706f05b59d3b200008201908282101561623a5760405160e560020a62461bcd02815260206004820181815283516024840152835190928392604490910191908501908083836000831561096657818101518382015260200161094e565b506000670de0b6b3a7640000826160fd565b600080600061625b8585616918565b9150915080156040518060400160405280601181526020017f4552525f5355425f554e444552464c4f57000000000000000000000000000000815250906162e65760405160e560020a62461bcd02815260206004820181815283516024840152835190928392604490910191908501908083836000831561096657818101518382015260200161094e565b5090949350505050565b604080517fa9059cbb000000000000000000000000000000000000000000000000000000008152600160a060020a03848116600483015260248201849052915160009286169163a9059cbb91604480830192602092919082900301818787803b158015615cd357600080fd5b6000806163698786615f2f565b90506000616388616382670de0b6b3a76400008461624c565b85616108565b905060006163a7866163a2670de0b6b3a76400008561624c565b616108565b905060006163b58b83615d8c565b905060006163c3828d615f2f565b905060006163d18287616794565b905060006163df828d616108565b90506163eb818d61624c565b9e9d5050505050505050505050505050565b60008061640a8887615f2f565b90506000616420670de0b6b3a76400008361624c565b9050600061642e8287616108565b9050600061644888615b8f670de0b6b3a76400008561624c565b905060006164568d8361624c565b90506000616464828f615f2f565b905060006164728288616794565b90506000616480828f616108565b9050600061648e8f8361624c565b90506164a681615b8f670de0b6b3a76400008e61624c565b9950505050505050505050979650505050505050565b615b40828261693d565b615b3381616948565b6000806164e0888888886000615b44565b905060006164ee8583615f2f565b9050600061650087615b8f898c615d8c565b905061651d61650f8383616794565b670de0b6b3a764000061624c565b9350616529848b616108565b9350600061653f670de0b6b3a76400008761624c565b905061654b8582615f2f565b9b9a5050505050505050505050565b6000806165678786615f2f565b9050600061657d670de0b6b3a76400008561624c565b90506165898582616108565b9050600061659b8a615b8f8c85615d8c565b905060006165a98285616794565b905060006165bf670de0b6b3a76400008361624c565b90506165cb8a82616108565b9c9b505050505050505050505050565b6000806165e88588615f2f565b905060006165f6878661624c565b905060006166048883615f2f565b905060006166128285616794565b905061662681670de0b6b3a764000061624c565b905061663a670de0b6b3a76400008761624c565b945061654b6166498c83616108565b86615f2f565b60008061665c8887615f2f565b90506000616676866163a2670de0b6b3a76400008761624c565b90506000616684898361624c565b90506000616692828b615f2f565b905060006166b1826166ac670de0b6b3a764000088615f2f565b616794565b905060006166bf828f616108565b905060006166cd8f8361624c565b905060006166ec6166e6670de0b6b3a76400008a61624c565b8c616108565b9050616704826163a2670de0b6b3a76400008461624c565b98505050505050505050979650505050505050565b306000908152600160205260409020546167339082615d8c565b306000908152600160205260409020556002546167509082615d8c565b6002556040805182815290517f07883703ed0e86588a40d76551c92f8a4b329e3bf19765e0e6749473c1a846659181900360200190a150565b615b40308383615e21565b600060018310156040518060400160405280601581526020017f4552525f42504f575f424153455f544f4f5f4c4f570000000000000000000000815250906168205760405160e560020a62461bcd02815260206004820181815283516024840152835190928392604490910191908501908083836000831561096657818101518382015260200161094e565b5060408051808201909152601681527f4552525f42504f575f424153455f544f4f5f48494748000000000000000000006020820152671bc16d674ec7ffff8411156168af5760405160e560020a62461bcd02815260206004820181815283516024840152835190928392604490910191908501908083836000831561096657818101518382015260200161094e565b5060006168bb836169b8565b905060006168c9848361624c565b905060006168df866168da856169d3565b6169e1565b9050816168f0579250610c63915050565b600061690187846305f5e100616a38565b905061690d8282616108565b979650505050505050565b60008082841061692e5750508082036000616936565b505081810360015b9250929050565b615b40823083615e21565b306000908152600160205260409020546169629082615ecf565b3060009081526001602052604090205560025461697f9082615ecf565b6002556040805182815290517fb90306ad06b2a6ff86ddc9327db583062895ef6540e62dc50add009db5b356eb9181900360200190a150565b6000670de0b6b3a76400006169cc836169d3565b0292915050565b670de0b6b3a7640000900490565b600080600283066169fa57670de0b6b3a76400006169fc565b835b90506002830492505b82156157bf57616a158485616108565b93506002830615616a2d57616a2a8185616108565b90505b600283049250616a05565b6000828180616a4f87670de0b6b3a7640000616918565b9092509050670de0b6b3a764000080600060015b888410616b07576000670de0b6b3a764000082029050600080616a978a616a9285670de0b6b3a764000061624c565b616918565b91509150616aa9876163a2848c616108565b9650616ab58784615f2f565b965086616ac457505050616b07565b8715616ace579315935b8015616ad8579315935b8415616aef57616ae8868861624c565b9550616afc565b616af98688615d8c565b95505b505050600101616a63565b5090999850505050505050505056fe4552525f5245454e5452590000000000000000000000000000000000000000004552525f535741505f4e4f545f5055424c4943000000000000000000000000004552525f4e4f545f434f4e54524f4c4c455200000000000000000000000000004552525f4e4f545f424f554e44000000000000000000000000000000000000004552525f49535f46494e414c495a454400000000000000000000000000000000a265627a7a723158207973f6aaf114dd53196b5c77253baab42c94f31527bc11b1e2ff26d3b64d01b764736f6c634300050b0032",
  "source": "// This program is free software: you can redistribute it and/or modify\n// it under the terms of the GNU General Public License as published by\n// the Free Software Foundation, either version 3 of the License, or\n// (at your option) any later version.\n\n// This program is distributed in the hope that it will be useful,\n// but WITHOUT ANY WARRANTY; without even the implied warranty of\n// MERCHANTABILITY or FITNESS FOR A PARTICULAR PURPOSE.  See the\n// GNU General Public License for more details.\n\n// You should have received a copy of the GNU General Public License\n// along with this program.  If not, see <http://www.gnu.org/licenses/>.\n\npragma solidity ^0.5.11;\n\nimport \"contracts/BColor.sol\";\nimport \"contracts/BToken.sol\";\nimport \"contracts/BMath.sol\";\n\ncontract BPool is BBronze, BToken, BMath\n{\n    // Invariant: if any one field of a Record is zero, then the rest are zero\n    // Invariant: MIN_WEIGHT < denorm < MAX_WEIGHT\n    // Invariant: MIN_BALANCE < balance < MAX_BALANCE\n    struct Record {\n        uint index;   // private and off-by-one to maintain invariant\n        uint denorm;  // denormalized weight\n        uint balance;\n    }\n\n    event LOG_SWAP( address indexed caller\n                  , address indexed tokenIn\n                  , address indexed tokenOut\n                  , uint256         amountIn\n                  , uint256         amountOut );\n\n    event LOG_JOIN( address indexed caller\n                  , address indexed tokenIn\n                  , uint256         amountIn);\n\n    event LOG_EXIT( address indexed caller\n                  , address indexed tokenOut\n                  , uint256         amountOut);\n\n    event LOG_CALL( bytes4  indexed sig\n                  , address indexed caller\n                  , bytes           data\n                  )\n          anonymous;\n\n    modifier _logs_() {\n        emit LOG_CALL(msg.sig, msg.sender, msg.data);\n        _;\n    }\n\n    modifier _lock_() {\n        require( !_mutex, ERR_REENTRY);\n        _mutex = true;\n        _;\n        _mutex = false;\n    }\n\n    modifier _viewlock_() {\n        require( !_mutex, ERR_REENTRY);\n        _;\n    }\n\n    bool                      _mutex; // TODO: consider  messageNonce\n\n    // Emulates a rudimentary role-based access control system\n    address                   _factory;    // has FACTORY role\n    address                   _controller; // has CONTROL role\n    bool                      _publicSwap; // true if PUBLIC can call SWAP functions\n    bool                      _publicJoin; // true if PUBLIC can call JOIN functions\n    bool                      _publicExit; // true if PUBLIC can call Exit functions\n                                           //   always true for bronze pools!\n\n    // `setFees` and `finalize` require CONTROL\n    // `finalize` sets `PUBLIC can SWAP`, `PUBLIC can JOIN`, and sets `_controller` to NULL\n    uint                      _swapFee;\n    uint                      _exitFee;\n    bool                      _finalized;\n\n    address[]                 _tokens;\n    mapping(address=>Record)  _records;\n    uint                      _totalWeight;\n\n    constructor() public {\n        _controller = msg.sender;\n        _factory = msg.sender;\n\n        _publicSwap = false;\n        _publicJoin = false;\n        _finalized = false;\n\n        _publicExit = true;\n    }\n\n    function isPublicSwap()\n      public view returns (bool) {\n        return _publicSwap;\n    }\n\n    function isPublicJoin()\n      public view returns (bool) {\n        return _publicJoin;\n    }\n\n    function isPublicExit()\n      public view returns (bool) {\n        return _publicJoin;\n    }\n\n    function isFinalized()\n      public view returns (bool) {\n        return _finalized;\n    }\n\n    function isBound(address t) public view returns (bool) {\n        return _records[t].index != 0;\n    }\n\n    function getNumTokens()\n      public view returns (uint) {\n        return _tokens.length;\n    }\n\n    function getCurrentTokens()\n      public view _viewlock_\n        returns (address[] memory tokens)\n    {\n        return _tokens;\n    }\n\n    function getFinalTokens()\n      public view _viewlock_\n        returns (address[] memory tokens)\n    {\n        require(_finalized, ERR_NOT_FINALIZED);\n        return _tokens;\n    }\n\n    function getDenormalizedWeight(address token)\n      public view _viewlock_\n        returns (uint)\n    {\n        require( isBound(token), ERR_NOT_BOUND);\n        return _records[token].denorm;\n    }\n\n    function getTotalDenormalizedWeight()\n      public view _viewlock_\n        returns (uint)\n    {\n        return _totalWeight;\n    }\n\n    function getNormalizedWeight(address token)\n      public view _viewlock_\n        returns (uint)\n    {\n        require( isBound(token), ERR_NOT_BOUND);\n        uint denorm = _records[token].denorm;\n        return bdiv(denorm, _totalWeight);\n    }\n\n    function getBalance(address token)\n      public view _viewlock_\n        returns (uint)\n    {\n        require( isBound(token), ERR_NOT_BOUND);\n        return _records[token].balance;\n    }\n\n    function getFees()\n      public view _viewlock_\n        returns (uint,uint)\n    {\n        return (_swapFee, _exitFee);\n    }\n\n    function getController()\n      public view _viewlock_\n        returns (address)\n    {\n        return _controller;\n    }\n\n    function setFees(uint swapFee, uint exitFee)\n      _logs_\n      _lock_\n      public\n    { \n        require( ! _finalized, ERR_IS_FINALIZED);\n        require(msg.sender == _controller, ERR_NOT_CONTROLLER);\n        // TODO min fees\n        require(swapFee <= MAX_FEE, ERR_MAX_FEE);\n        require(exitFee <= MAX_FEE, ERR_MAX_FEE);\n        _swapFee = swapFee;\n        _exitFee = exitFee;\n    }\n\n    function setController(address manager)\n      _logs_\n      _lock_\n      public\n    {\n        require(msg.sender == _controller, ERR_NOT_CONTROLLER);\n        _controller = manager;\n    }\n\n    function setPublicSwap(bool public_)\n        _logs_\n        _lock_\n        public\n    {\n        require( ! _finalized, ERR_IS_FINALIZED);\n        require(msg.sender == _controller, ERR_NOT_CONTROLLER);\n        _publicSwap = public_;\n    }\n\n    function setPublicJoin(bool public_)\n        _logs_\n        _lock_\n        public\n    {\n        require( ! _finalized, ERR_IS_FINALIZED);\n        require(msg.sender == _controller, ERR_NOT_CONTROLLER);\n        _publicJoin = public_;\n    }\n\n    function setPublicExit(bool public_)\n        _logs_\n        _lock_\n        public\n    {\n        require( public_, ERR_EXIT_ALWAYS_PUBLIC );\n        require( ! _finalized, ERR_IS_FINALIZED);\n        require(msg.sender == _controller, ERR_NOT_CONTROLLER);\n        _publicExit = public_;\n    }\n\n    function finalize(uint initSupply)\n      _logs_\n      _lock_\n      public\n    {\n        require(msg.sender == _controller, ERR_NOT_CONTROLLER);\n        require( !_finalized, ERR_IS_FINALIZED);\n        require(initSupply >= MIN_POOL_SUPPLY, ERR_MIN_POOL_SUPPLY);\n\n        _finalized = true;\n        _publicSwap = true;\n        _publicJoin = true;\n        _publicExit = true;\n\n        _mintPoolShare(initSupply);\n        _pushPoolShare(msg.sender, initSupply);\n    }\n\n\n    function bind(address token, uint balance, uint denorm)\n      _logs_\n      // _lock_  Bind does not lock because it jumps to `rebind`, which does\n      public\n    {\n        require(msg.sender == _controller, ERR_NOT_CONTROLLER);\n        require( ! isBound(token), ERR_IS_BOUND);\n        require( ! isFinalized(), ERR_IS_FINALIZED);\n\n        require(_tokens.length < MAX_BOUND_TOKENS, ERR_MAX_TOKENS);\n\n        uint length = _tokens.push(token);\n        _records[token] = Record({\n            index: length // 1-indexed (0 is 'unbound' state)\n          , denorm: 0    // balance and denorm will be validated\n          , balance: 0   // and set by `rebind`\n        });\n        rebind(token, balance, denorm);\n    }\n\n    function rebind(address token, uint balance, uint denorm)\n      _logs_\n      _lock_\n      public\n    {\n        require(msg.sender == _controller, ERR_NOT_CONTROLLER);\n        require(isBound(token), ERR_NOT_BOUND);\n        require( ! _finalized, ERR_IS_FINALIZED);\n\n        require(denorm >= MIN_WEIGHT, ERR_MIN_WEIGHT);\n        require(denorm <= MAX_WEIGHT, ERR_MAX_WEIGHT);\n        require(balance >= MIN_BALANCE, ERR_MIN_BALANCE);\n        require(balance <= MAX_BALANCE, ERR_MAX_BALANCE);\n\n        // Adjust the denorm and totalWeight\n        uint oldWeight = _records[token].denorm;\n        if (denorm > oldWeight) {\n            _totalWeight = badd(_totalWeight, bsub(denorm, oldWeight));\n            require( _totalWeight < MAX_TOTAL_WEIGHT, ERR_MAX_TOTAL_WEIGHT );\n        } else {\n            _totalWeight = bsub(_totalWeight, bsub(oldWeight, denorm));\n        }        \n        _records[token].denorm = denorm;\n\n        // Adjust the balance record and actual token balance\n        uint oldBalance = _records[token].balance;\n        _records[token].balance = balance;\n        if (balance > oldBalance) {\n            _pullUnderlying(token, msg.sender, bsub(balance, oldBalance));\n        } else if( balance < oldBalance) {\n            _pushUnderlying(token, msg.sender, bsub(oldBalance, balance));\n        }\n    }\n\n    function unbind(address token)\n        _logs_\n        _lock_\n        public\n    {\n        require(msg.sender == _controller, ERR_NOT_CONTROLLER);\n        require(isBound(token), ERR_NOT_BOUND);\n        require( ! _finalized, ERR_IS_FINALIZED);\n\n        _pushUnderlying(token, msg.sender, _records[token].balance);\n        _totalWeight = bsub(_totalWeight, _records[token].denorm);\n\n        // Swap the token-to-unbind with the last token,\n        // then delete the last token\n        uint index = _records[token].index - 1;\n        uint last = _tokens.length - 1;\n        _tokens[index] = _tokens[last];\n        _records[_tokens[index]].index = index + 1;\n        _tokens.pop();\n        _records[token] = Record({\n            index: 0\n          , denorm: 0\n          , balance: 0\n        });\n    }\n\n    // Absorb any tokens that have been sent to this contract into the pool\n    function gulp(address token)\n      _logs_\n      _lock_\n      public\n    {\n        require(isBound(token), ERR_NOT_BOUND);\n        _records[token].balance = ERC20(token).balanceOf(address(this));\n    }\n\n    function collect()\n      _logs_\n      _lock_\n      public returns (uint collected)\n    {\n        require(msg.sender == _factory, ERR_NOT_FACTORY);\n        uint fees = _balance[_factory];\n        _pushPoolShare(_factory, fees);\n        return (collected = fees);\n    }\n\n    function getSpotPrice(address Ti, address To)\n      public view\n        _viewlock_\n        returns (uint P)\n    {\n        require(isBound(Ti), ERR_NOT_BOUND);\n        require(isBound(To), ERR_NOT_BOUND);\n        Record storage I = _records[Ti];\n        Record storage O = _records[To];\n        return _calc_SpotPrice(I.balance, I.denorm, O.balance, O.denorm, _swapFee);\n    }\n\n    function getSpotPriceSansFee(address Ti, address To)\n      public view\n        _viewlock_\n        returns (uint P)\n    {\n        require(isBound(Ti), ERR_NOT_BOUND);\n        require(isBound(To), ERR_NOT_BOUND);\n        Record storage I = _records[Ti];\n        Record storage O = _records[To];\n        return _calc_SpotPrice(I.balance, I.denorm, O.balance, O.denorm, 0);\n    }\n\n    function joinPool(uint poolAo)\n      public\n        _logs_\n        _lock_\n    {\n        require(_finalized, ERR_NOT_FINALIZED);\n        require(isPublicJoin(), ERR_JOIN_NOT_PUBLIC);\n\n        uint poolTotal = totalSupply();\n        uint ratio = bdiv(poolAo, poolTotal);\n        for( uint i = 0; i < _tokens.length; i++ ) {\n            address t = _tokens[i];\n            uint bal = _records[t].balance;\n            uint tAi = bmul(ratio, bal);\n            _records[t].balance = badd(_records[t].balance, tAi);\n            _pullUnderlying(t, msg.sender, tAi);\n\n            emit LOG_JOIN(msg.sender, t, tAi);\n        }\n        _mintPoolShare(poolAo);\n        _pushPoolShare(msg.sender, poolAo);\n    }\n\n    function exitPool(uint pAi)\n      public\n        _logs_\n        _lock_\n    {\n        require(_finalized, ERR_NOT_FINALIZED);\n        require(isPublicExit(), ERR_EXIT_NOT_PUBLIC);\n\n        uint poolTotal = totalSupply();\n        uint pAiExitFee = bmul(pAi, _exitFee);\n        uint pAiAfterExitFee = bsub(pAi, pAiExitFee);\n        uint ratio = bdiv(pAiAfterExitFee, poolTotal);\n       \n        _pullPoolShare(msg.sender, pAi);\n        _pushPoolShare(_factory, pAiExitFee);\n        _burnPoolShare(pAiAfterExitFee);\n\n        for( uint i = 0; i < _tokens.length; i++ ) {\n            address t = _tokens[i];\n            uint bal = _records[t].balance;\n            uint tAo = bmul(ratio, bal);\n            _records[t].balance = bsub(_records[t].balance, tAo);\n            _pushUnderlying(t, msg.sender, tAo);\n\n            emit LOG_EXIT(msg.sender, t, tAo);\n        }\n\n    }\n\n\n    function swap_ExactAmountIn(address Ti, uint Ai, address To, uint MinAo, uint MaxP)\n        _logs_\n        _lock_\n        public returns (uint Ao, uint MP)\n    {\n        require( isBound(Ti), ERR_NOT_BOUND );\n        require( isBound(To), ERR_NOT_BOUND );\n        require( isPublicSwap(), ERR_SWAP_NOT_PUBLIC );\n\n        Record storage I = _records[address(Ti)];\n        Record storage O = _records[address(To)];\n\n        require( Ai <= bmul(I.balance, MAX_IN_RATIO), ERR_MAX_IN_RATIO );\n\n        uint SP0 = _calc_SpotPrice(I.balance, I.denorm, O.balance, O.denorm, _swapFee);\n        require( SP0 <= MaxP, ERR_ARG_LIMIT_IN);\n\n        Ao = _calc_OutGivenIn(I.balance, I.denorm, O.balance, O.denorm, Ai, _swapFee);\n        require( Ao >= MinAo, ERR_LIMIT_OUT );\n\n        I.balance = badd(I.balance, Ai);\n        O.balance = bsub(O.balance, Ao);\n\n        uint SP1 = _calc_SpotPrice(I.balance, I.denorm, O.balance, O.denorm, _swapFee);\n        require(SP1 <= MaxP, ERR_LIMIT_PRICE);\n\n        _pullUnderlying(Ti, msg.sender, Ai);\n        _pushUnderlying(To, msg.sender, Ao);\n\n        emit LOG_SWAP(msg.sender, Ti, To, Ai, Ao);\n\n        return (Ao, SP1);\n    }\n\n    function swap_ExactAmountOut(address Ti, uint MaxAi, address To, uint Ao, uint MaxP)\n        _logs_\n        _lock_ \n        public returns (uint Ai, uint MP)\n    {\n        require( isBound(Ti), ERR_NOT_BOUND);\n        require( isBound(To), ERR_NOT_BOUND);\n        require( isPublicSwap(), ERR_SWAP_NOT_PUBLIC );\n\n        Record storage I = _records[address(Ti)];\n        Record storage O = _records[address(To)];\n\n        require(Ao <= bmul(O.balance, MAX_OUT_RATIO), ERR_MAX_OUT_RATIO );\n\n        uint SP0 = _calc_SpotPrice(I.balance, I.denorm, O.balance, O.denorm, _swapFee);\n        require(SP0 <= MaxP, ERR_ARG_LIMIT_PRICE );\n\n        Ai = _calc_InGivenOut(I.balance, I.denorm, O.balance, O.denorm, Ao, _swapFee);\n        require( Ai <= MaxAi, ERR_LIMIT_IN);\n\n        I.balance = badd(I.balance, Ai);\n        O.balance = bsub(O.balance, Ao);\n\n        uint SP1 = _calc_SpotPrice(I.balance, I.denorm, O.balance, O.denorm, _swapFee);\n        require( SP1 <= MaxP, ERR_LIMIT_PRICE);\n\n        _pullUnderlying(Ti, msg.sender, Ai);\n        _pushUnderlying(To, msg.sender, Ao);\n\n        emit LOG_SWAP(msg.sender, Ti, To, Ai, Ao);\n\n        return (Ai, SP1);\n    }\n\n    function swap_ExactMarginalPrice(address Ti, uint Li, address To, uint Lo, uint MarP)\n        _logs_\n        _lock_\n        public returns (uint Ai, uint Ao)\n    {\n        require( isBound(Ti), ERR_NOT_BOUND);\n        require( isBound(To), ERR_NOT_BOUND);\n        require( isPublicSwap(), ERR_SWAP_NOT_PUBLIC );\n\n        Record storage I = _records[address(Ti)];\n        Record storage O = _records[address(To)];\n\n        require(Ao <= bmul(O.balance, MAX_OUT_RATIO), ERR_MAX_OUT_RATIO);\n\n        uint SP0 = _calc_SpotPrice(I.balance, I.denorm, O.balance, O.denorm, _swapFee);\n        require(MarP > SP0, ERR_ARG_LIMIT_PRICE);\n\n        Ai = _calc_InGivenPrice( I.balance, I.denorm, O.balance, O.denorm, MarP, _swapFee );\n        Ao = _calc_OutGivenIn( I.balance, I.denorm, O.balance, O.denorm, Ai, _swapFee );\n\n        require( Ai <= Li, ERR_LIMIT_IN);\n        require( Ao >= Lo, ERR_LIMIT_OUT);\n\n        I.balance = badd(I.balance, Ai);\n        O.balance = bsub(O.balance, Ao);\n\n        _pullUnderlying(Ti, msg.sender, Ai);\n        _pushUnderlying(To, msg.sender, Ao);\n\n        emit LOG_SWAP(msg.sender, Ti, To, Ai, Ao);\n\n        return (Ai, Ao);\n    }\n\n    function joinswap_ExternAmountIn(address Ti, uint256 tAi)\n      public\n        _logs_\n        _lock_\n        returns (uint pAo)\n    {\n        require( isBound(Ti), ERR_NOT_BOUND );\n        require( isPublicJoin(), ERR_JOIN_NOT_PUBLIC );\n        require( isPublicSwap(), ERR_SWAP_NOT_PUBLIC );\n\n        Record storage T = _records[Ti];\n\n        pAo = _calc_PoolOutGivenSingleIn(T.balance, T.denorm, _totalSupply, _totalWeight, tAi, _swapFee);\n\n        _mintPoolShare(pAo);\n        _pushPoolShare(msg.sender, pAo);\n        _pullUnderlying(Ti, msg.sender, tAi);\n        T.balance = badd(T.balance, tAi);\n        \n        emit LOG_JOIN(msg.sender, Ti, tAi);\n\n        return pAo;\n    }\n\n    function joinswap_PoolAmountOut(uint pAo, address Ti)\n      public\n        _logs_\n        _lock_\n        returns (uint tAi)\n    {\n        require( isBound(Ti), ERR_NOT_BOUND );\n        require( isPublicJoin(), ERR_JOIN_NOT_PUBLIC );\n        require( isPublicSwap(), ERR_SWAP_NOT_PUBLIC );\n\n        Record storage T = _records[Ti];\n\n        tAi = _calc_SingleInGivenPoolOut(T.balance, T.denorm, _totalSupply, _totalWeight, pAo, _swapFee);\n\n        _mintPoolShare(pAo);\n        _pushPoolShare(msg.sender, pAo);\n        _pullUnderlying(Ti, msg.sender, tAi);\n        T.balance = badd(T.balance, tAi);\n\n        emit LOG_JOIN(msg.sender, Ti, tAi);\n\n        return tAi;\n    }\n\n    function exitswap_PoolAmountIn(uint pAi, address To)\n      public\n        _logs_\n        _lock_\n        returns (uint tAo)\n    {\n        require( isBound(To), ERR_NOT_BOUND );\n        require( isPublicSwap(), ERR_SWAP_NOT_PUBLIC );\n        require( isPublicExit(), ERR_EXIT_NOT_PUBLIC);\n\n        Record storage T = _records[To];\n\n        tAo = _calc_SingleOutGivenPoolIn(T.balance, T.denorm, _totalSupply, _totalWeight, pAi, _swapFee, _exitFee);\n\n        _pullPoolShare(msg.sender, pAi);\n        uint pAiExitFee = bmul(pAi,_exitFee);\n        _burnPoolShare(bsub(pAi,pAiExitFee));\n        _pushPoolShare(_factory, pAiExitFee);\n        _pushUnderlying(To, msg.sender, tAo);\n        T.balance = bsub(T.balance, tAo);\n\n        emit LOG_EXIT(msg.sender, To, tAo);\n\n        return tAo;\n    }\n\n    function exitswap_ExternAmountOut(address To, uint tAo)\n      public\n        _logs_\n        _lock_\n        returns (uint pAi)\n    {\n        require( isBound(To), ERR_NOT_BOUND );\n        require( isPublicSwap(), ERR_SWAP_NOT_PUBLIC );\n        require( isPublicExit(), ERR_EXIT_NOT_PUBLIC);\n\n        Record storage T = _records[To];\n\n        pAi = _calc_PoolInGivenSingleOut(T.balance, T.denorm, _totalSupply, _totalWeight, tAo, _swapFee, _exitFee);\n     \n\n        _pullPoolShare(msg.sender, pAi);\n        uint pAiExitFee = bmul(pAi,_exitFee);\n        _burnPoolShare(bsub(pAi,pAiExitFee));\n        _pushPoolShare(_factory, pAiExitFee);\n        _pushUnderlying(To, msg.sender, tAo);\n        T.balance = bsub(T.balance, tAo);\n\n        emit LOG_EXIT(msg.sender, To, tAo);\n\n        return pAi;\n    }\n\n\n    // ==\n    // 'Underlying' token-manipulation functions make external calls but are NOT locked\n    // You must `_lock_` or otherwise ensure reentry-safety\n\n    function _pullUnderlying(address erc20, address from, uint amt)\n      internal\n    {\n        bool xfer = ERC20(erc20).transferFrom(from, address(this), amt);\n        require(xfer, ERR_ERC20_FALSE);\n    }\n\n    function _pushUnderlying(address erc20, address to, uint amt)\n      internal\n    {\n        bool xfer = ERC20(erc20).transfer(to, amt);\n        require(xfer, ERR_ERC20_FALSE);\n    }\n\n    function _pullPoolShare(address from, uint amount)\n      internal {\n        _pull(from, amount);\n    }\n\n    function _pushPoolShare(address to, uint amount)\n      internal {\n        _push(to, amount);\n    }\n\n    function _mintPoolShare(uint amount)\n      internal {\n        _mint(amount);\n    }\n\n    function _burnPoolShare(uint amount)\n      internal {\n        _burn(amount);\n    }\n\n}\n",
  "sourcePath": "contracts/BPool.sol",
  "compiler": {
    "name": "solc",
    "version": "0.5.11+commit.c082d0b4.Emscripten.clang"
  },
  "schemaVersion": "3.0.16",
  "updatedAt": "2019-10-29T00:16:43.933Z",
  "devdoc": {
    "methods": {}
  },
  "userdoc": {
    "methods": {}
  }
}