{
  "contractName": "BPool",
  "abi": [
    {
      "constant": false,
      "inputs": [
        {
          "internalType": "address",
          "name": "guy",
          "type": "address"
        },
        {
          "internalType": "uint256",
          "name": "wad",
          "type": "uint256"
        }
      ],
      "name": "approve",
      "outputs": [
        {
          "internalType": "bool",
          "name": "",
          "type": "bool"
        }
      ],
      "payable": false,
      "stateMutability": "nonpayable",
      "type": "function"
    },
    {
      "constant": true,
      "inputs": [],
      "name": "totalSupply",
      "outputs": [
        {
          "internalType": "uint256",
          "name": "",
          "type": "uint256"
        }
      ],
      "payable": false,
      "stateMutability": "view",
      "type": "function"
    },
    {
      "constant": false,
      "inputs": [
        {
          "internalType": "address",
          "name": "src",
          "type": "address"
        },
        {
          "internalType": "address",
          "name": "dst",
          "type": "address"
        },
        {
          "internalType": "uint256",
          "name": "wad",
          "type": "uint256"
        }
      ],
      "name": "transferFrom",
      "outputs": [
        {
          "internalType": "bool",
          "name": "",
          "type": "bool"
        }
      ],
      "payable": false,
      "stateMutability": "nonpayable",
      "type": "function"
    },
    {
      "constant": true,
      "inputs": [
        {
          "internalType": "address",
          "name": "whom",
          "type": "address"
        }
      ],
      "name": "balanceOf",
      "outputs": [
        {
          "internalType": "uint256",
          "name": "",
          "type": "uint256"
        }
      ],
      "payable": false,
      "stateMutability": "view",
      "type": "function"
    },
    {
      "constant": true,
      "inputs": [],
      "name": "getColor",
      "outputs": [
        {
          "internalType": "bytes32",
          "name": "",
          "type": "bytes32"
        }
      ],
      "payable": false,
      "stateMutability": "view",
      "type": "function"
    },
    {
      "constant": false,
      "inputs": [
        {
          "internalType": "address",
          "name": "dst",
          "type": "address"
        },
        {
          "internalType": "uint256",
          "name": "wad",
          "type": "uint256"
        }
      ],
      "name": "transfer",
      "outputs": [
        {
          "internalType": "bool",
          "name": "",
          "type": "bool"
        }
      ],
      "payable": false,
      "stateMutability": "nonpayable",
      "type": "function"
    },
    {
      "constant": true,
      "inputs": [
        {
          "internalType": "address",
          "name": "src",
          "type": "address"
        },
        {
          "internalType": "address",
          "name": "guy",
          "type": "address"
        }
      ],
      "name": "allowance",
      "outputs": [
        {
          "internalType": "uint256",
          "name": "",
          "type": "uint256"
        }
      ],
      "payable": false,
      "stateMutability": "view",
      "type": "function"
    },
    {
      "inputs": [],
      "payable": false,
      "stateMutability": "nonpayable",
      "type": "constructor"
    },
    {
      "anonymous": false,
      "inputs": [
        {
          "indexed": true,
          "internalType": "address",
          "name": "caller",
          "type": "address"
        },
        {
          "indexed": true,
          "internalType": "address",
          "name": "tokenIn",
          "type": "address"
        },
        {
          "indexed": true,
          "internalType": "address",
          "name": "tokenOut",
          "type": "address"
        },
        {
          "indexed": false,
          "internalType": "uint256",
          "name": "amountIn",
          "type": "uint256"
        },
        {
          "indexed": false,
          "internalType": "uint256",
          "name": "amountOut",
          "type": "uint256"
        }
      ],
      "name": "LOG_SWAP",
      "type": "event"
    },
    {
      "anonymous": false,
      "inputs": [
        {
          "indexed": true,
          "internalType": "address",
          "name": "caller",
          "type": "address"
        },
        {
          "indexed": true,
          "internalType": "address",
          "name": "tokenIn",
          "type": "address"
        },
        {
          "indexed": false,
          "internalType": "uint256",
          "name": "amountIn",
          "type": "uint256"
        }
      ],
      "name": "LOG_JOIN",
      "type": "event"
    },
    {
      "anonymous": false,
      "inputs": [
        {
          "indexed": true,
          "internalType": "address",
          "name": "caller",
          "type": "address"
        },
        {
          "indexed": true,
          "internalType": "address",
          "name": "tokenOut",
          "type": "address"
        },
        {
          "indexed": false,
          "internalType": "uint256",
          "name": "amountOut",
          "type": "uint256"
        }
      ],
      "name": "LOG_EXIT",
      "type": "event"
    },
    {
      "anonymous": true,
      "inputs": [
        {
          "indexed": true,
          "internalType": "bytes4",
          "name": "sig",
          "type": "bytes4"
        },
        {
          "indexed": true,
          "internalType": "address",
          "name": "caller",
          "type": "address"
        },
        {
          "indexed": false,
          "internalType": "bytes",
          "name": "data",
          "type": "bytes"
        }
      ],
      "name": "LOG_CALL",
      "type": "event"
    },
    {
      "anonymous": false,
      "inputs": [
        {
          "indexed": true,
          "internalType": "address",
          "name": "src",
          "type": "address"
        },
        {
          "indexed": true,
          "internalType": "address",
          "name": "guy",
          "type": "address"
        },
        {
          "indexed": false,
          "internalType": "uint256",
          "name": "wad",
          "type": "uint256"
        }
      ],
      "name": "Approval",
      "type": "event"
    },
    {
      "anonymous": false,
      "inputs": [
        {
          "indexed": true,
          "internalType": "address",
          "name": "src",
          "type": "address"
        },
        {
          "indexed": true,
          "internalType": "address",
          "name": "dst",
          "type": "address"
        },
        {
          "indexed": false,
          "internalType": "uint256",
          "name": "wad",
          "type": "uint256"
        }
      ],
      "name": "Transfer",
      "type": "event"
    },
    {
      "anonymous": false,
      "inputs": [
        {
          "indexed": false,
          "internalType": "uint256",
          "name": "amt",
          "type": "uint256"
        }
      ],
      "name": "Mint",
      "type": "event"
    },
    {
      "anonymous": false,
      "inputs": [
        {
          "indexed": false,
          "internalType": "uint256",
          "name": "amt",
          "type": "uint256"
        }
      ],
      "name": "Burn",
      "type": "event"
    },
    {
      "anonymous": false,
      "inputs": [
        {
          "indexed": true,
          "internalType": "address",
          "name": "src",
          "type": "address"
        },
        {
          "indexed": true,
          "internalType": "address",
          "name": "dst",
          "type": "address"
        },
        {
          "indexed": false,
          "internalType": "uint256",
          "name": "amt",
          "type": "uint256"
        }
      ],
      "name": "Move",
      "type": "event"
    },
    {
      "constant": true,
      "inputs": [],
      "name": "isPublicSwap",
      "outputs": [
        {
          "internalType": "bool",
          "name": "",
          "type": "bool"
        }
      ],
      "payable": false,
      "stateMutability": "view",
      "type": "function"
    },
    {
      "constant": true,
      "inputs": [],
      "name": "isPublicJoin",
      "outputs": [
        {
          "internalType": "bool",
          "name": "",
          "type": "bool"
        }
      ],
      "payable": false,
      "stateMutability": "view",
      "type": "function"
    },
    {
      "constant": true,
      "inputs": [],
      "name": "isPublicExit",
      "outputs": [
        {
          "internalType": "bool",
          "name": "",
          "type": "bool"
        }
      ],
      "payable": false,
      "stateMutability": "view",
      "type": "function"
    },
    {
      "constant": true,
      "inputs": [],
      "name": "isFinalized",
      "outputs": [
        {
          "internalType": "bool",
          "name": "",
          "type": "bool"
        }
      ],
      "payable": false,
      "stateMutability": "view",
      "type": "function"
    },
    {
      "constant": true,
      "inputs": [
        {
          "internalType": "address",
          "name": "t",
          "type": "address"
        }
      ],
      "name": "isBound",
      "outputs": [
        {
          "internalType": "bool",
          "name": "",
          "type": "bool"
        }
      ],
      "payable": false,
      "stateMutability": "view",
      "type": "function"
    },
    {
      "constant": true,
      "inputs": [],
      "name": "getNumTokens",
      "outputs": [
        {
          "internalType": "uint256",
          "name": "",
          "type": "uint256"
        }
      ],
      "payable": false,
      "stateMutability": "view",
      "type": "function"
    },
    {
      "constant": true,
      "inputs": [],
      "name": "getCurrentTokens",
      "outputs": [
        {
          "internalType": "address[]",
          "name": "tokens",
          "type": "address[]"
        }
      ],
      "payable": false,
      "stateMutability": "view",
      "type": "function"
    },
    {
      "constant": true,
      "inputs": [],
      "name": "getFinalTokens",
      "outputs": [
        {
          "internalType": "address[]",
          "name": "tokens",
          "type": "address[]"
        }
      ],
      "payable": false,
      "stateMutability": "view",
      "type": "function"
    },
    {
      "constant": true,
      "inputs": [
        {
          "internalType": "address",
          "name": "token",
          "type": "address"
        }
      ],
      "name": "getDenormalizedWeight",
      "outputs": [
        {
          "internalType": "uint256",
          "name": "",
          "type": "uint256"
        }
      ],
      "payable": false,
      "stateMutability": "view",
      "type": "function"
    },
    {
      "constant": true,
      "inputs": [],
      "name": "getTotalDenormalizedWeight",
      "outputs": [
        {
          "internalType": "uint256",
          "name": "",
          "type": "uint256"
        }
      ],
      "payable": false,
      "stateMutability": "view",
      "type": "function"
    },
    {
      "constant": true,
      "inputs": [
        {
          "internalType": "address",
          "name": "token",
          "type": "address"
        }
      ],
      "name": "getNormalizedWeight",
      "outputs": [
        {
          "internalType": "uint256",
          "name": "",
          "type": "uint256"
        }
      ],
      "payable": false,
      "stateMutability": "view",
      "type": "function"
    },
    {
      "constant": true,
      "inputs": [
        {
          "internalType": "address",
          "name": "token",
          "type": "address"
        }
      ],
      "name": "getBalance",
      "outputs": [
        {
          "internalType": "uint256",
          "name": "",
          "type": "uint256"
        }
      ],
      "payable": false,
      "stateMutability": "view",
      "type": "function"
    },
    {
      "constant": true,
      "inputs": [],
      "name": "getSwapFee",
      "outputs": [
        {
          "internalType": "uint256",
          "name": "",
          "type": "uint256"
        }
      ],
      "payable": false,
      "stateMutability": "view",
      "type": "function"
    },
    {
      "constant": true,
      "inputs": [],
      "name": "getController",
      "outputs": [
        {
          "internalType": "address",
          "name": "",
          "type": "address"
        }
      ],
      "payable": false,
      "stateMutability": "view",
      "type": "function"
    },
    {
      "constant": false,
      "inputs": [
        {
          "internalType": "uint256",
          "name": "swapFee",
          "type": "uint256"
        }
      ],
      "name": "setSwapFee",
      "outputs": [],
      "payable": false,
      "stateMutability": "nonpayable",
      "type": "function"
    },
    {
      "constant": false,
      "inputs": [
        {
          "internalType": "address",
          "name": "manager",
          "type": "address"
        }
      ],
      "name": "setController",
      "outputs": [],
      "payable": false,
      "stateMutability": "nonpayable",
      "type": "function"
    },
    {
      "constant": false,
      "inputs": [
        {
          "internalType": "bool",
          "name": "public_",
          "type": "bool"
        }
      ],
      "name": "setPublicSwap",
      "outputs": [],
      "payable": false,
      "stateMutability": "nonpayable",
      "type": "function"
    },
    {
      "constant": false,
      "inputs": [
        {
          "internalType": "bool",
          "name": "public_",
          "type": "bool"
        }
      ],
      "name": "setPublicJoin",
      "outputs": [],
      "payable": false,
      "stateMutability": "nonpayable",
      "type": "function"
    },
    {
      "constant": false,
      "inputs": [
        {
          "internalType": "bool",
          "name": "public_",
          "type": "bool"
        }
      ],
      "name": "setPublicExit",
      "outputs": [],
      "payable": false,
      "stateMutability": "nonpayable",
      "type": "function"
    },
    {
      "constant": false,
      "inputs": [
        {
          "internalType": "uint256",
          "name": "initSupply",
          "type": "uint256"
        }
      ],
      "name": "finalize",
      "outputs": [],
      "payable": false,
      "stateMutability": "nonpayable",
      "type": "function"
    },
    {
      "constant": false,
      "inputs": [
        {
          "internalType": "address",
          "name": "token",
          "type": "address"
        },
        {
          "internalType": "uint256",
          "name": "balance",
          "type": "uint256"
        },
        {
          "internalType": "uint256",
          "name": "denorm",
          "type": "uint256"
        }
      ],
      "name": "bind",
      "outputs": [],
      "payable": false,
      "stateMutability": "nonpayable",
      "type": "function"
    },
    {
      "constant": false,
      "inputs": [
        {
          "internalType": "address",
          "name": "token",
          "type": "address"
        },
        {
          "internalType": "uint256",
          "name": "balance",
          "type": "uint256"
        },
        {
          "internalType": "uint256",
          "name": "denorm",
          "type": "uint256"
        }
      ],
      "name": "rebind",
      "outputs": [],
      "payable": false,
      "stateMutability": "nonpayable",
      "type": "function"
    },
    {
      "constant": false,
      "inputs": [
        {
          "internalType": "address",
          "name": "token",
          "type": "address"
        }
      ],
      "name": "unbind",
      "outputs": [],
      "payable": false,
      "stateMutability": "nonpayable",
      "type": "function"
    },
    {
      "constant": false,
      "inputs": [
        {
          "internalType": "address",
          "name": "token",
          "type": "address"
        }
      ],
      "name": "gulp",
      "outputs": [],
      "payable": false,
      "stateMutability": "nonpayable",
      "type": "function"
    },
    {
      "constant": true,
      "inputs": [
        {
          "internalType": "address",
          "name": "Ti",
          "type": "address"
        },
        {
          "internalType": "address",
          "name": "To",
          "type": "address"
        }
      ],
      "name": "getSpotPrice",
      "outputs": [
        {
          "internalType": "uint256",
          "name": "P",
          "type": "uint256"
        }
      ],
      "payable": false,
      "stateMutability": "view",
      "type": "function"
    },
    {
      "constant": true,
      "inputs": [
        {
          "internalType": "address",
          "name": "Ti",
          "type": "address"
        },
        {
          "internalType": "address",
          "name": "To",
          "type": "address"
        }
      ],
      "name": "getSpotPriceSansFee",
      "outputs": [
        {
          "internalType": "uint256",
          "name": "P",
          "type": "uint256"
        }
      ],
      "payable": false,
      "stateMutability": "view",
      "type": "function"
    },
    {
      "constant": false,
      "inputs": [
        {
          "internalType": "uint256",
          "name": "poolAo",
          "type": "uint256"
        }
      ],
      "name": "joinPool",
      "outputs": [],
      "payable": false,
      "stateMutability": "nonpayable",
      "type": "function"
    },
    {
      "constant": false,
      "inputs": [
        {
          "internalType": "uint256",
          "name": "pAi",
          "type": "uint256"
        }
      ],
      "name": "exitPool",
      "outputs": [],
      "payable": false,
      "stateMutability": "nonpayable",
      "type": "function"
    },
    {
      "constant": false,
      "inputs": [
        {
          "internalType": "address",
          "name": "Ti",
          "type": "address"
        },
        {
          "internalType": "uint256",
          "name": "Ai",
          "type": "uint256"
        },
        {
          "internalType": "address",
          "name": "To",
          "type": "address"
        },
        {
          "internalType": "uint256",
          "name": "MinAo",
          "type": "uint256"
        },
        {
          "internalType": "uint256",
          "name": "MaxP",
          "type": "uint256"
        }
      ],
      "name": "swap_ExactAmountIn",
      "outputs": [
        {
          "internalType": "uint256",
          "name": "Ao",
          "type": "uint256"
        },
        {
          "internalType": "uint256",
          "name": "MP",
          "type": "uint256"
        }
      ],
      "payable": false,
      "stateMutability": "nonpayable",
      "type": "function"
    },
    {
      "constant": false,
      "inputs": [
        {
          "internalType": "address",
          "name": "Ti",
          "type": "address"
        },
        {
          "internalType": "uint256",
          "name": "MaxAi",
          "type": "uint256"
        },
        {
          "internalType": "address",
          "name": "To",
          "type": "address"
        },
        {
          "internalType": "uint256",
          "name": "Ao",
          "type": "uint256"
        },
        {
          "internalType": "uint256",
          "name": "MaxP",
          "type": "uint256"
        }
      ],
      "name": "swap_ExactAmountOut",
      "outputs": [
        {
          "internalType": "uint256",
          "name": "Ai",
          "type": "uint256"
        },
        {
          "internalType": "uint256",
          "name": "MP",
          "type": "uint256"
        }
      ],
      "payable": false,
      "stateMutability": "nonpayable",
      "type": "function"
    },
    {
      "constant": false,
      "inputs": [
        {
          "internalType": "address",
          "name": "Ti",
          "type": "address"
        },
        {
          "internalType": "uint256",
          "name": "Li",
          "type": "uint256"
        },
        {
          "internalType": "address",
          "name": "To",
          "type": "address"
        },
        {
          "internalType": "uint256",
          "name": "Lo",
          "type": "uint256"
        },
        {
          "internalType": "uint256",
          "name": "MarP",
          "type": "uint256"
        }
      ],
      "name": "swap_ExactMarginalPrice",
      "outputs": [
        {
          "internalType": "uint256",
          "name": "Ai",
          "type": "uint256"
        },
        {
          "internalType": "uint256",
          "name": "Ao",
          "type": "uint256"
        }
      ],
      "payable": false,
      "stateMutability": "nonpayable",
      "type": "function"
    },
    {
      "constant": false,
      "inputs": [
        {
          "internalType": "address",
          "name": "Ti",
          "type": "address"
        },
        {
          "internalType": "uint256",
          "name": "tAi",
          "type": "uint256"
        }
      ],
      "name": "joinswap_ExternAmountIn",
      "outputs": [
        {
          "internalType": "uint256",
          "name": "pAo",
          "type": "uint256"
        }
      ],
      "payable": false,
      "stateMutability": "nonpayable",
      "type": "function"
    },
    {
      "constant": false,
      "inputs": [
        {
          "internalType": "uint256",
          "name": "pAo",
          "type": "uint256"
        },
        {
          "internalType": "address",
          "name": "Ti",
          "type": "address"
        }
      ],
      "name": "joinswap_PoolAmountOut",
      "outputs": [
        {
          "internalType": "uint256",
          "name": "tAi",
          "type": "uint256"
        }
      ],
      "payable": false,
      "stateMutability": "nonpayable",
      "type": "function"
    },
    {
      "constant": false,
      "inputs": [
        {
          "internalType": "uint256",
          "name": "pAi",
          "type": "uint256"
        },
        {
          "internalType": "address",
          "name": "To",
          "type": "address"
        }
      ],
      "name": "exitswap_PoolAmountIn",
      "outputs": [
        {
          "internalType": "uint256",
          "name": "tAo",
          "type": "uint256"
        }
      ],
      "payable": false,
      "stateMutability": "nonpayable",
      "type": "function"
    },
    {
      "constant": false,
      "inputs": [
        {
          "internalType": "address",
          "name": "To",
          "type": "address"
        },
        {
          "internalType": "uint256",
          "name": "tAo",
          "type": "uint256"
        }
      ],
      "name": "exitswap_ExternAmountOut",
      "outputs": [
        {
          "internalType": "uint256",
          "name": "pAi",
          "type": "uint256"
        }
      ],
      "payable": false,
      "stateMutability": "nonpayable",
      "type": "function"
    }
  ],
  "bytecode": "0x608060405234801561001057600080fd5b50600480546003805461010060a860020a031916336101008102919091179091556006805460ff19169055760100000000000000000000000000000000000000000000600160a060020a03199092161760a060020a62ffffff021916179055616d3c806200007f6000396000f3fe608060405234801561001057600080fd5b506004361061027b576000357c01000000000000000000000000000000000000000000000000000000009004806392eefe9b11610163578063cd2ed8fb116100e0578063dd62ed3e116100a4578063dd62ed3e146107a7578063e4e1e538146107d5578063f1b8a9b714610807578063f5ae62591461082d578063f8b2cb4f1461084c578063fde924f7146108725761027b565b8063cd2ed8fb14610729578063ce1d477d14610731578063cf5e7bd314610771578063d4cadf6814610797578063dd3182791461079f5761027b565b8063ab48c9cf11610127578063ab48c9cf14610661578063be1d24ad14610680578063be3bbd2e1461069d578063c83d529e146106f5578063cc77828d146107215761027b565b806392eefe9b146105d9578063936c3477146105ff578063948d8ce6146106075780639a86139b1461062d578063a9059cbb146106355761027b565b806334e7a19f116101fc5780634b0f9faa116101c05780634b0f9faa146104c05780635718db49146104ec57806362fd79421461054557806370a08231146105855780638c28cbe8146105ab5780638d4e4083146105d15761027b565b806334e7a19f1461041e5780633fdddaa21461043b578063483605e81461046d57806349b59552146104995780634a8402e6146104b85761027b565b80631ecc61bc116102435780631ecc61bc1461035557806323b872dd146103815780632f37b624146103b75780633018205f146103dd57806334e19907146104015761027b565b806305261aea14610280578063095ea7b31461029f5780631446a7ff146102df57806315e84af91461031f57806318160ddd1461034d575b600080fd5b61029d6004803603602081101561029657600080fd5b503561087a565b005b6102cb600480360360408110156102b557600080fd5b50600160a060020a038135169060200135610bf3565b604080519115158252519081900360200190f35b61030d600480360360408110156102f557600080fd5b50600160a060020a0381358116916020013516610c58565b60408051918252519081900360200190f35b61030d6004803603604081101561033557600080fd5b50600160a060020a0381358116916020013516610e1a565b61030d610fd3565b61030d6004803603604081101561036b57600080fd5b5080359060200135600160a060020a0316610fd9565b6102cb6004803603606081101561039757600080fd5b50600160a060020a03813581169160208101359091169060400135611306565b6102cb600480360360208110156103cd57600080fd5b5035600160a060020a0316611484565b6103e56114a1565b60408051600160a060020a039092168252519081900360200190f35b61029d6004803603602081101561041757600080fd5b503561152c565b61029d6004803603602081101561043457600080fd5b50356117aa565b61029d6004803603606081101561045157600080fd5b50600160a060020a038135169060208101359060400135611ad2565b61030d6004803603604081101561048357600080fd5b50600160a060020a03813516906020013561211b565b61029d600480360360208110156104af57600080fd5b50351515612448565b6102cb612672565b61030d600480360360408110156104d657600080fd5b50600160a060020a038135169060200135612694565b61052c600480360360a081101561050257600080fd5b50600160a060020a03813581169160208101359160408201351690606081013590608001356129ff565b6040805192835260208301919091528051918290030190f35b61052c600480360360a081101561055b57600080fd5b50600160a060020a03813581169160208101359160408201351690606081013590608001356130eb565b61030d6004803603602081101561059b57600080fd5b5035600160a060020a03166137b2565b61029d600480360360208110156105c157600080fd5b5035600160a060020a03166137cd565b6102cb6139e5565b61029d600480360360208110156105ef57600080fd5b5035600160a060020a03166139ee565b61030d613b90565b61030d6004803603602081101561061d57600080fd5b5035600160a060020a0316613c12565b61030d613d29565b6102cb6004803603604081101561064b57600080fd5b50600160a060020a038135169060200135613d4d565b61029d6004803603602081101561067757600080fd5b50351515613da3565b61029d6004803603602081101561069657600080fd5b5035614055565b6106a56143c1565b60408051602080825283518183015283519192839290830191858101910280838360005b838110156106e15781810151838201526020016106c9565b505050509050019250505060405180910390f35b61030d6004803603604081101561070b57600080fd5b5080359060200135600160a060020a0316614526565b6106a561488c565b61030d614906565b61052c600480360360a081101561074757600080fd5b50600160a060020a038135811691602081013591604082013516906060810135906080013561490c565b61029d6004803603602081101561078757600080fd5b5035600160a060020a0316614fd2565b61030d6153f5565b6102cb615477565b61030d600480360360408110156107bd57600080fd5b50600160a060020a038135811691602001351661549a565b61029d600480360360608110156107eb57600080fd5b50600160a060020a0381351690602081013590604001356154c3565b61030d6004803603602081101561081d57600080fd5b5035600160a060020a03166157e2565b61029d6004803603602081101561084357600080fd5b5035151561590b565b61030d6004803603602081101561086257600080fd5b5035600160a060020a0316615b37565b6102cb615c4e565b33600160a060020a0316600035600160e060020a031916600160e060020a03191660003660405180806020018281038252848482818152602001925080828437600083820152604051601f909101601f19169092018290039550909350505050a260035460408051808201909152600b8152600080516020616c4883398151915260208201529060ff16156109905760405160e560020a62461bcd0281526004018080602001828103825283818151815260200191508051906020019080838360005b8381101561095557818101518382015260200161093d565b50505050905090810190601f1680156109825780820380516001836020036101000a031916815260200191505b509250505060405180910390fd5b506003805460ff191660011790556004546040805180820190915260128152600080516020616c8883398151915260208201529033600160a060020a0390911614610a1f5760405160e560020a62461bcd02815260206004820181815283516024840152835190928392604490910191908501908083836000831561095557818101518382015260200161093d565b506006546040805180820190915260108152600080516020616cc883398151915260208201529060ff1615610a985760405160e560020a62461bcd02815260206004820181815283516024840152835190928392604490910191908501908083836000831561095557818101518382015260200161093d565b5060408051808201909152601381527f4552525f4d494e5f504f4f4c5f535550504c59000000000000000000000000006020820152670de0b6b3a7640000821015610b275760405160e560020a62461bcd02815260206004820181815283516024840152835190928392604490910191908501908083836000831561095557818101518382015260200161093d565b506006805460ff191660011790556004805476ff000000000000000000000000000000000000000000001975ff0000000000000000000000000000000000000000001974ff00000000000000000000000000000000000000001990921674010000000000000000000000000000000000000000179190911675010000000000000000000000000000000000000000001716760100000000000000000000000000000000000000000000179055610bdc81615c6f565b610be63382615c7b565b506003805460ff19169055565b33600081815260208181526040808320600160a060020a038716808552908352818420869055815186815291519394909390927f8c5be1e5ebec7d5bd14f71427d1e84f3dd0314c0f7b2291e5b200ac8c7c3b925928290030190a35060015b92915050565b60035460408051808201909152600b8152600080516020616c48833981519152602082015260009160ff1615610cd25760405160e560020a62461bcd02815260206004820181815283516024840152835190928392604490910191908501908083836000831561095557818101518382015260200161093d565b50610cdc83611484565b6040518060400160405280600d8152602001600080516020616ca883398151915281525090610d4f5760405160e560020a62461bcd02815260206004820181815283516024840152835190928392604490910191908501908083836000831561095557818101518382015260200161093d565b50610d5982611484565b6040518060400160405280600d8152602001600080516020616ca883398151915281525090610dcc5760405160e560020a62461bcd02815260206004820181815283516024840152835190928392604490910191908501908083836000831561095557818101518382015260200161093d565b50600160a060020a038084166000908152600860205260408082209285168252812060028084015460018086015492840154908401549394610e119492939290615c89565b95945050505050565b60035460408051808201909152600b8152600080516020616c48833981519152602082015260009160ff1615610e945760405160e560020a62461bcd02815260206004820181815283516024840152835190928392604490910191908501908083836000831561095557818101518382015260200161093d565b50610e9e83611484565b6040518060400160405280600d8152602001600080516020616ca883398151915281525090610f115760405160e560020a62461bcd02815260206004820181815283516024840152835190928392604490910191908501908083836000831561095557818101518382015260200161093d565b50610f1b82611484565b6040518060400160405280600d8152602001600080516020616ca883398151915281525090610f8e5760405160e560020a62461bcd02815260206004820181815283516024840152835190928392604490910191908501908083836000831561095557818101518382015260200161093d565b50600160a060020a03808416600090815260086020526040808220928516825290206002808301546001808501549284015490840154600554610e1194929190615c89565b60025490565b600033600160a060020a0316600035600160e060020a031916600160e060020a03191660003660405180806020018281038252848482818152602001925080828437600083820152604051601f909101601f19169092018290039550909350505050a260035460408051808201909152600b8152600080516020616c4883398151915260208201529060ff16156110b45760405160e560020a62461bcd02815260206004820181815283516024840152835190928392604490910191908501908083836000831561095557818101518382015260200161093d565b506003805460ff191660011790556110cb82611484565b6040518060400160405280600d8152602001600080516020616ca88339815191528152509061113e5760405160e560020a62461bcd02815260206004820181815283516024840152835190928392604490910191908501908083836000831561095557818101518382015260200161093d565b50611147615c4e565b604051806040016040528060138152602001600080516020616c68833981519152815250906111ba5760405160e560020a62461bcd02815260206004820181815283516024840152835190928392604490910191908501908083836000831561095557818101518382015260200161093d565b506111c3612672565b6040518060400160405280601381526020017f4552525f4a4f494e5f4e4f545f5055424c494300000000000000000000000000815250906112485760405160e560020a62461bcd02815260206004820181815283516024840152835190928392604490910191908501908083836000831561095557818101518382015260200161093d565b50600160a060020a038216600090815260086020526040902060028082015460018301549154600954600554611282949291908990615cf3565b9150611292816002015483615da6565b60028201556112a084615c6f565b6112aa3385615c7b565b6112b5833384615e3b565b604080518381529051600160a060020a0385169133917f63982df10efd8dfaaaa0fcc7f50b2d93b7cba26ccc48adee2873220d485dc39a9181900360200190a3506003805460ff1916905592915050565b600033600160a060020a03851614806113405750600160a060020a0384166000908152602081815260408083203384529091529020548211155b611394576040805160e560020a62461bcd02815260206004820152601560248201527f4552525f42544f4b454e5f4241445f43414c4c45520000000000000000000000604482015290519081900360640190fd5b61139f848484615f66565b82600160a060020a031684600160a060020a03167fddf252ad1be2c89b69c2b068fc378daa952ba7f163c4a11628f55a4df523b3ef846040518082815260200191505060405180910390a333600160a060020a038516148015906114265750600160a060020a03841660009081526020818152604080832033845290915290205460001914155b1561147a57600160a060020a0384166000908152602081815260408083203384529091529020546114579083616014565b600160a060020a0385166000908152602081815260408083203384529091529020555b5060019392505050565b600160a060020a0316600090815260086020526040902054151590565b60035460408051808201909152600b8152600080516020616c48833981519152602082015260009160ff161561151b5760405160e560020a62461bcd02815260206004820181815283516024840152835190928392604490910191908501908083836000831561095557818101518382015260200161093d565b5050600454600160a060020a031690565b33600160a060020a0316600035600160e060020a031916600160e060020a03191660003660405180806020018281038252848482818152602001925080828437600083820152604051601f909101601f19169092018290039550909350505050a260035460408051808201909152600b8152600080516020616c4883398151915260208201529060ff16156116055760405160e560020a62461bcd02815260206004820181815283516024840152835190928392604490910191908501908083836000831561095557818101518382015260200161093d565b506003805460ff191660011790556006546040805180820190915260108152600080516020616cc883398151915260208201529060ff161561168b5760405160e560020a62461bcd02815260206004820181815283516024840152835190928392604490910191908501908083836000831561095557818101518382015260200161093d565b506004546040805180820190915260128152600080516020616c88833981519152602082015290600160a060020a0316331461170b5760405160e560020a62461bcd02815260206004820181815283516024840152835190928392604490910191908501908083836000831561095557818101518382015260200161093d565b5060408051808201909152600b81527f4552525f4d41585f464545000000000000000000000000000000000000000000602082015267016345785d8a000082111561179a5760405160e560020a62461bcd02815260206004820181815283516024840152835190928392604490910191908501908083836000831561095557818101518382015260200161093d565b506005556003805460ff19169055565b33600160a060020a0316600035600160e060020a031916600160e060020a03191660003660405180806020018281038252848482818152602001925080828437600083820152604051601f909101601f19169092018290039550909350505050a260035460408051808201909152600b8152600080516020616c4883398151915260208201529060ff16156118835760405160e560020a62461bcd02815260206004820181815283516024840152835190928392604490910191908501908083836000831561095557818101518382015260200161093d565b506003805460ff1916600117905560065460408051808201909152601181527f4552525f4e4f545f46494e414c495a454400000000000000000000000000000060208201529060ff1661191a5760405160e560020a62461bcd02815260206004820181815283516024840152835190928392604490910191908501908083836000831561095557818101518382015260200161093d565b50611923612672565b6040518060400160405280601381526020017f4552525f4a4f494e5f4e4f545f5055424c494300000000000000000000000000815250906119a85760405160e560020a62461bcd02815260206004820181815283516024840152835190928392604490910191908501908083836000831561095557818101518382015260200161093d565b5060006119b3610fd3565b905060006119c18383616074565b905060005b600754811015611aaf576000600782815481106119df57fe5b6000918252602080832090910154600160a060020a03168083526008909152604082206002015490925090611a14858361624d565b600160a060020a038416600090815260086020526040902060020154909150611a3d9082615da6565b600160a060020a038416600090815260086020526040902060020155611a64833383615e3b565b604080518281529051600160a060020a0385169133917f63982df10efd8dfaaaa0fcc7f50b2d93b7cba26ccc48adee2873220d485dc39a9181900360200190a35050506001016119c6565b50611ab983615c6f565b611ac33384615c7b565b50506003805460ff1916905550565b33600160a060020a0316600035600160e060020a031916600160e060020a03191660003660405180806020018281038252848482818152602001925080828437600083820152604051601f909101601f19169092018290039550909350505050a260035460408051808201909152600b8152600080516020616c4883398151915260208201529060ff1615611bab5760405160e560020a62461bcd02815260206004820181815283516024840152835190928392604490910191908501908083836000831561095557818101518382015260200161093d565b506003805460ff191660011790556004546040805180820190915260128152600080516020616c8883398151915260208201529033600160a060020a0390911614611c3a5760405160e560020a62461bcd02815260206004820181815283516024840152835190928392604490910191908501908083836000831561095557818101518382015260200161093d565b50611c4483611484565b6040518060400160405280600d8152602001600080516020616ca883398151915281525090611cb75760405160e560020a62461bcd02815260206004820181815283516024840152835190928392604490910191908501908083836000831561095557818101518382015260200161093d565b506006546040805180820190915260108152600080516020616cc883398151915260208201529060ff1615611d305760405160e560020a62461bcd02815260206004820181815283516024840152835190928392604490910191908501908083836000831561095557818101518382015260200161093d565b5060408051808201909152600e81527f4552525f4d494e5f5745494748540000000000000000000000000000000000006020820152670de0b6b3a7640000821015611dbf5760405160e560020a62461bcd02815260206004820181815283516024840152835190928392604490910191908501908083836000831561095557818101518382015260200161093d565b5060408051808201909152600e81527f4552525f4d41585f57454947485400000000000000000000000000000000000060208201526802b5e3af16b1880000821115611e4f5760405160e560020a62461bcd02815260206004820181815283516024840152835190928392604490910191908501908083836000831561095557818101518382015260200161093d565b5060408051808201909152600f81527f4552525f4d494e5f42414c414e43450000000000000000000000000000000000602082015264e8d4a51000831015611edb5760405160e560020a62461bcd02815260206004820181815283516024840152835190928392604490910191908501908083836000831561095557818101518382015260200161093d565b5060408051808201909152600f81527f4552525f4d41585f42414c414e4345000000000000000000000000000000000060208201526c0c9f2c9cd04674edea40000000831115611f6f5760405160e560020a62461bcd02815260206004820181815283516024840152835190928392604490910191908501908083836000831561095557818101518382015260200161093d565b50600160a060020a0383166000908152600860205260409020600101548082111561204357611fa9600954611fa48484616391565b615da6565b600981905560408051808201909152601481527f4552525f4d41585f544f54414c5f5745494748540000000000000000000000006020820152906802b5e3af16b1880000101561203d5760405160e560020a62461bcd02815260206004820181815283516024840152835190928392604490910191908501908083836000831561095557818101518382015260200161093d565b5061205c565b6120586009546120538385616391565b616391565b6009555b600160a060020a038416600090815260086020526040902060018101839055600201805490849055808411156120a5576120a0853361209b8785616391565b615e3b565b61210a565b8084101561210a5760006120b98286616391565b905060006120d482612710670de0b6b3a76400005b0461624d565b90506120ea87336120e58585616391565b616435565b6003546121079088906101009004600160a060020a031683616435565b50505b50506003805460ff19169055505050565b600033600160a060020a0316600035600160e060020a031916600160e060020a03191660003660405180806020018281038252848482818152602001925080828437600083820152604051601f909101601f19169092018290039550909350505050a260035460408051808201909152600b8152600080516020616c4883398151915260208201529060ff16156121f65760405160e560020a62461bcd02815260206004820181815283516024840152835190928392604490910191908501908083836000831561095557818101518382015260200161093d565b506003805460ff1916600117905561220d83611484565b6040518060400160405280600d8152602001600080516020616ca8833981519152815250906122805760405160e560020a62461bcd02815260206004820181815283516024840152835190928392604490910191908501908083836000831561095557818101518382015260200161093d565b50612289615c4e565b604051806040016040528060138152602001600080516020616c68833981519152815250906122fc5760405160e560020a62461bcd02815260206004820181815283516024840152835190928392604490910191908501908083836000831561095557818101518382015260200161093d565b50612305612672565b6040518060400160405280601381526020017f4552525f4a4f494e5f4e4f545f5055424c4943000000000000000000000000008152509061238a5760405160e560020a62461bcd02815260206004820181815283516024840152835190928392604490910191908501908083836000831561095557818101518382015260200161093d565b50600160a060020a0383166000908152600860205260409020600280820154600183015491546009546005546123c49492919088906164a1565b91506123d4816002015484615da6565b60028201556123e282615c6f565b6123ec3383615c7b565b6123f7843385615e3b565b604080518481529051600160a060020a0386169133917f63982df10efd8dfaaaa0fcc7f50b2d93b7cba26ccc48adee2873220d485dc39a9181900360200190a3506003805460ff1916905592915050565b33600160a060020a0316600035600160e060020a031916600160e060020a03191660003660405180806020018281038252848482818152602001925080828437600083820152604051601f909101601f19169092018290039550909350505050a260035460408051808201909152600b8152600080516020616c4883398151915260208201529060ff16156125215760405160e560020a62461bcd02815260206004820181815283516024840152835190928392604490910191908501908083836000831561095557818101518382015260200161093d565b506003805460ff191660011790556006546040805180820190915260108152600080516020616cc883398151915260208201529060ff16156125a75760405160e560020a62461bcd02815260206004820181815283516024840152835190928392604490910191908501908083836000831561095557818101518382015260200161093d565b506004546040805180820190915260128152600080516020616c88833981519152602082015290600160a060020a031633146126275760405160e560020a62461bcd02815260206004820181815283516024840152835190928392604490910191908501908083836000831561095557818101518382015260200161093d565b5060048054911515740100000000000000000000000000000000000000000274ff0000000000000000000000000000000000000000199092169190911790556003805460ff19169055565b6004547501000000000000000000000000000000000000000000900460ff1690565b600033600160a060020a0316600035600160e060020a031916600160e060020a03191660003660405180806020018281038252848482818152602001925080828437600083820152604051601f909101601f19169092018290039550909350505050a260035460408051808201909152600b8152600080516020616c4883398151915260208201529060ff161561276f5760405160e560020a62461bcd02815260206004820181815283516024840152835190928392604490910191908501908083836000831561095557818101518382015260200161093d565b506003805460ff1916600117905561278683611484565b6040518060400160405280600d8152602001600080516020616ca8833981519152815250906127f95760405160e560020a62461bcd02815260206004820181815283516024840152835190928392604490910191908501908083836000831561095557818101518382015260200161093d565b50612802615c4e565b604051806040016040528060138152602001600080516020616c68833981519152815250906128755760405160e560020a62461bcd02815260206004820181815283516024840152835190928392604490910191908501908083836000831561095557818101518382015260200161093d565b5061287e615477565b6040518060400160405280601381526020017f4552525f455849545f4e4f545f5055424c494300000000000000000000000000815250906129035760405160e560020a62461bcd02815260206004820181815283516024840152835190928392604490910191908501908083836000831561095557818101518382015260200161093d565b50600160a060020a03831660009081526008602052604090206002808201546001830154915460095460055461293d949291908890616542565b915061294d816002015484616391565b600282015561295c3383616605565b600061297383612710670de0b6b3a76400006120ce565b90506129876129828483616391565b61660f565b6003546129a2906101009004600160a060020a031682615c7b565b6129ad853386616435565b604080518581529051600160a060020a0387169133917fe74c91552b64c2e2e7bd255639e004e693bd3e1d01cc33e65610b86afcc1ffed9181900360200190a350506003805460ff1916905592915050565b6040805160208082523690820181905260009283923392600160e060020a03198535169285929081908101848480828437600083820152604051601f909101601f19169092018290039550909350505050a260035460408051808201909152600b8152600080516020616c4883398151915260208201529060ff1615612ac95760405160e560020a62461bcd02815260206004820181815283516024840152835190928392604490910191908501908083836000831561095557818101518382015260200161093d565b506003805460ff19166001179055612ae087611484565b6040518060400160405280600d8152602001600080516020616ca883398151915281525090612b535760405160e560020a62461bcd02815260206004820181815283516024840152835190928392604490910191908501908083836000831561095557818101518382015260200161093d565b50612b5d85611484565b6040518060400160405280600d8152602001600080516020616ca883398151915281525090612bd05760405160e560020a62461bcd02815260206004820181815283516024840152835190928392604490910191908501908083836000831561095557818101518382015260200161093d565b50612bd9615c4e565b604051806040016040528060138152602001600080516020616c6883398151915281525090612c4c5760405160e560020a62461bcd02815260206004820181815283516024840152835190928392604490910191908501908083836000831561095557818101518382015260200161093d565b50600160a060020a03808816600090815260086020526040808220928816825290206002810154612c8c906003670de0b6b3a76400005b0460010161624d565b8311156040518060400160405280601181526020017f4552525f4d41585f4f55545f524154494f00000000000000000000000000000081525090612d145760405160e560020a62461bcd02815260206004820181815283516024840152835190928392604490910191908501908083836000831561095557818101518382015260200161093d565b506000612d368360020154846001015484600201548560010154600554615c89565b90508086116040518060400160405280601381526020017f4552525f4241445f4c494d49545f50524943450000000000000000000000000081525090612dc05760405160e560020a62461bcd02815260206004820181815283516024840152835190928392604490910191908501908083836000831561095557818101518382015260200161093d565b50612de183600201548460010154846002015485600101548a600554616618565b9450612e038360020154846001015484600201548560010154896005546166a3565b9350888511156040518060400160405280600c81526020017f4552525f4c494d49545f494e000000000000000000000000000000000000000081525090612e8e5760405160e560020a62461bcd02815260206004820181815283516024840152835190928392604490910191908501908083836000831561095557818101518382015260200161093d565b5060408051808201909152600d81527f4552525f4c494d49545f4f555400000000000000000000000000000000000000602082015287851015612f155760405160e560020a62461bcd02815260206004820181815283516024840152835190928392604490910191908501908083836000831561095557818101518382015260200161093d565b50612f24836002015486615da6565b8360020181905550612f3a826002015485616391565b82600201819055506000612f638460020154856001015485600201548660010154600554615c89565b9050818110156040518060400160405280600f8152602001600080516020616ce883398151915281525090612fdc5760405160e560020a62461bcd02815260206004820181815283516024840152835190928392604490910191908501908083836000831561095557818101518382015260200161093d565b50612fe78686616074565b8211156040518060400160405280600f8152602001600080516020616ce88339815191528152509061305d5760405160e560020a62461bcd02815260206004820181815283516024840152835190928392604490910191908501908083836000831561095557818101518382015260200161093d565b506130698b3388615e3b565b613074893387616435565b88600160a060020a03168b600160a060020a031633600160a060020a03167f908fb5ee8f16c6bc9bc3690973819f32a4d4b10188134543c88706e0e1d433788989604051808381526020018281526020019250505060405180910390a4505050506003805460ff1916905590969095509350505050565b6040805160208082523690820181905260009283923392600160e060020a03198535169285929081908101848480828437600083820152604051601f909101601f19169092018290039550909350505050a260035460408051808201909152600b8152600080516020616c4883398151915260208201529060ff16156131b55760405160e560020a62461bcd02815260206004820181815283516024840152835190928392604490910191908501908083836000831561095557818101518382015260200161093d565b506003805460ff191660011790556131cc87611484565b6040518060400160405280600d8152602001600080516020616ca88339815191528152509061323f5760405160e560020a62461bcd02815260206004820181815283516024840152835190928392604490910191908501908083836000831561095557818101518382015260200161093d565b5061324985611484565b6040518060400160405280600d8152602001600080516020616ca8833981519152815250906132bc5760405160e560020a62461bcd02815260206004820181815283516024840152835190928392604490910191908501908083836000831561095557818101518382015260200161093d565b506132c5615c4e565b604051806040016040528060138152602001600080516020616c68833981519152815250906133385760405160e560020a62461bcd02815260206004820181815283516024840152835190928392604490910191908501908083836000831561095557818101518382015260200161093d565b50600160a060020a03808816600090815260086020526040808220928816825290206002810154613373906003670de0b6b3a7640000612c83565b8611156040518060400160405280601181526020017f4552525f4d41585f4f55545f524154494f000000000000000000000000000000815250906133fb5760405160e560020a62461bcd02815260206004820181815283516024840152835190928392604490910191908501908083836000831561095557818101518382015260200161093d565b50600061341d8360020154846001015484600201548560010154600554615c89565b9050858111156040518060400160405280601381526020017f4552525f4241445f4c494d49545f505249434500000000000000000000000000815250906134a85760405160e560020a62461bcd02815260206004820181815283516024840152835190928392604490910191908501908083836000831561095557818101518382015260200161093d565b506134c983600201548460010154846002015485600101548b600554616724565b9450888511156040518060400160405280600c81526020017f4552525f4c494d49545f494e0000000000000000000000000000000000000000815250906135545760405160e560020a62461bcd02815260206004820181815283516024840152835190928392604490910191908501908083836000831561095557818101518382015260200161093d565b50613563836002015486615da6565b8360020181905550613579826002015488616391565b826002018190555060006135a28460020154856001015485600201548660010154600554615c89565b9050818110156040518060400160405280600f8152602001600080516020616ce88339815191528152509061361b5760405160e560020a62461bcd02815260206004820181815283516024840152835190928392604490910191908501908083836000831561095557818101518382015260200161093d565b5060408051808201909152600f81527f4552525f4c494d49545f505249434500000000000000000000000000000000006020820152878211156136a25760405160e560020a62461bcd02815260206004820181815283516024840152835190928392604490910191908501908083836000831561095557818101518382015260200161093d565b506136ad8689616074565b8211156040518060400160405280600f8152602001600080516020616ce8833981519152815250906137235760405160e560020a62461bcd02815260206004820181815283516024840152835190928392604490910191908501908083836000831561095557818101518382015260200161093d565b5061372f8b3388615e3b565b61373a89338a616435565b88600160a060020a03168b600160a060020a031633600160a060020a03167f908fb5ee8f16c6bc9bc3690973819f32a4d4b10188134543c88706e0e1d43378898c604051808381526020018281526020019250505060405180910390a493505050506003805460ff1916905590969095509350505050565b600160a060020a031660009081526001602052604090205490565b33600160a060020a0316600035600160e060020a031916600160e060020a03191660003660405180806020018281038252848482818152602001925080828437600083820152604051601f909101601f19169092018290039550909350505050a260035460408051808201909152600b8152600080516020616c4883398151915260208201529060ff16156138a65760405160e560020a62461bcd02815260206004820181815283516024840152835190928392604490910191908501908083836000831561095557818101518382015260200161093d565b506003805460ff191660011790556138bd81611484565b6040518060400160405280600d8152602001600080516020616ca8833981519152815250906139305760405160e560020a62461bcd02815260206004820181815283516024840152835190928392604490910191908501908083836000831561095557818101518382015260200161093d565b50604080517f70a082310000000000000000000000000000000000000000000000000000000081523060048201529051600160a060020a038316916370a08231916024808301926020929190829003018186803b15801561399057600080fd5b505afa1580156139a4573d6000803e3d6000fd5b505050506040513d60208110156139ba57600080fd5b5051600160a060020a039091166000908152600860205260409020600201556003805460ff19169055565b60065460ff1690565b33600160a060020a0316600035600160e060020a031916600160e060020a03191660003660405180806020018281038252848482818152602001925080828437600083820152604051601f909101601f19169092018290039550909350505050a260035460408051808201909152600b8152600080516020616c4883398151915260208201529060ff1615613ac75760405160e560020a62461bcd02815260206004820181815283516024840152835190928392604490910191908501908083836000831561095557818101518382015260200161093d565b506003805460ff191660011790556004546040805180820190915260128152600080516020616c8883398151915260208201529033600160a060020a0390911614613b565760405160e560020a62461bcd02815260206004820181815283516024840152835190928392604490910191908501908083836000831561095557818101518382015260200161093d565b506004805473ffffffffffffffffffffffffffffffffffffffff1916600160a060020a03929092169190911790556003805460ff19169055565b60035460408051808201909152600b8152600080516020616c48833981519152602082015260009160ff1615613c0a5760405160e560020a62461bcd02815260206004820181815283516024840152835190928392604490910191908501908083836000831561095557818101518382015260200161093d565b505060095490565b60035460408051808201909152600b8152600080516020616c48833981519152602082015260009160ff1615613c8c5760405160e560020a62461bcd02815260206004820181815283516024840152835190928392604490910191908501908083836000831561095557818101518382015260200161093d565b50613c9682611484565b6040518060400160405280600d8152602001600080516020616ca883398151915281525090613d095760405160e560020a62461bcd02815260206004820181815283516024840152835190928392604490910191908501908083836000831561095557818101518382015260200161093d565b5050600160a060020a031660009081526008602052604090206001015490565b7f42524f4e5a45000000000000000000000000000000000000000000000000000090565b6000613d5a338484615f66565b604080518381529051600160a060020a0385169133917fddf252ad1be2c89b69c2b068fc378daa952ba7f163c4a11628f55a4df523b3ef9181900360200190a350600192915050565b33600160a060020a0316600035600160e060020a031916600160e060020a03191660003660405180806020018281038252848482818152602001925080828437600083820152604051601f909101601f19169092018290039550909350505050a260035460408051808201909152600b8152600080516020616c4883398151915260208201529060ff1615613e7c5760405160e560020a62461bcd02815260206004820181815283516024840152835190928392604490910191908501908083836000831561095557818101518382015260200161093d565b506003805460ff1916600117905560408051808201909152601681527f4552525f455849545f414c574159535f5055424c494300000000000000000000602082015281613f0d5760405160e560020a62461bcd02815260206004820181815283516024840152835190928392604490910191908501908083836000831561095557818101518382015260200161093d565b506006546040805180820190915260108152600080516020616cc883398151915260208201529060ff1615613f865760405160e560020a62461bcd02815260206004820181815283516024840152835190928392604490910191908501908083836000831561095557818101518382015260200161093d565b506004546040805180820190915260128152600080516020616c88833981519152602082015290600160a060020a031633146140065760405160e560020a62461bcd02815260206004820181815283516024840152835190928392604490910191908501908083836000831561095557818101518382015260200161093d565b50600480549115157601000000000000000000000000000000000000000000000276ff00000000000000000000000000000000000000000000199092169190911790556003805460ff19169055565b33600160a060020a0316600035600160e060020a031916600160e060020a03191660003660405180806020018281038252848482818152602001925080828437600083820152604051601f909101601f19169092018290039550909350505050a260035460408051808201909152600b8152600080516020616c4883398151915260208201529060ff161561412e5760405160e560020a62461bcd02815260206004820181815283516024840152835190928392604490910191908501908083836000831561095557818101518382015260200161093d565b506003805460ff1916600117905560065460408051808201909152601181527f4552525f4e4f545f46494e414c495a454400000000000000000000000000000060208201529060ff166141c55760405160e560020a62461bcd02815260206004820181815283516024840152835190928392604490910191908501908083836000831561095557818101518382015260200161093d565b506141ce615477565b6040518060400160405280601381526020017f4552525f455849545f4e4f545f5055424c494300000000000000000000000000815250906142535760405160e560020a62461bcd02815260206004820181815283516024840152835190928392604490910191908501908083836000831561095557818101518382015260200161093d565b50600061425e610fd3565b9050600061427783612710670de0b6b3a76400006120ce565b905060006142858483616391565b905060006142938285616074565b905061429f3386616605565b6003546142ba906101009004600160a060020a031684615c7b565b6142c38261660f565b60005b6007548110156143af576000600782815481106142df57fe5b6000918252602080832090910154600160a060020a03168083526008909152604082206002015490925090614314858361624d565b600160a060020a03841660009081526008602052604090206002015490915061433d9082616391565b600160a060020a038416600090815260086020526040902060020155614364833383616435565b604080518281529051600160a060020a0385169133917fe74c91552b64c2e2e7bd255639e004e693bd3e1d01cc33e65610b86afcc1ffed9181900360200190a35050506001016142c6565b50506003805460ff1916905550505050565b60035460408051808201909152600b8152600080516020616c48833981519152602082015260609160ff161561443b5760405160e560020a62461bcd02815260206004820181815283516024840152835190928392604490910191908501908083836000831561095557818101518382015260200161093d565b5060065460408051808201909152601181527f4552525f4e4f545f46494e414c495a454400000000000000000000000000000060208201529060ff166144c55760405160e560020a62461bcd02815260206004820181815283516024840152835190928392604490910191908501908083836000831561095557818101518382015260200161093d565b50600780548060200260200160405190810160405280929190818152602001828054801561451c57602002820191906000526020600020905b8154600160a060020a031681526001909101906020018083116144fe575b5050505050905090565b600033600160a060020a0316600035600160e060020a031916600160e060020a03191660003660405180806020018281038252848482818152602001925080828437600083820152604051601f909101601f19169092018290039550909350505050a260035460408051808201909152600b8152600080516020616c4883398151915260208201529060ff16156146015760405160e560020a62461bcd02815260206004820181815283516024840152835190928392604490910191908501908083836000831561095557818101518382015260200161093d565b506003805460ff1916600117905561461882611484565b6040518060400160405280600d8152602001600080516020616ca88339815191528152509061468b5760405160e560020a62461bcd02815260206004820181815283516024840152835190928392604490910191908501908083836000831561095557818101518382015260200161093d565b50614694615c4e565b604051806040016040528060138152602001600080516020616c68833981519152815250906147075760405160e560020a62461bcd02815260206004820181815283516024840152835190928392604490910191908501908083836000831561095557818101518382015260200161093d565b50614710615477565b6040518060400160405280601381526020017f4552525f455849545f4e4f545f5055424c494300000000000000000000000000815250906147955760405160e560020a62461bcd02815260206004820181815283516024840152835190928392604490910191908501908083836000831561095557818101518382015260200161093d565b50600160a060020a0382166000908152600860205260409020600280820154600183015491546009546005546147cf949291908990616798565b91506147df816002015483616391565b60028201556147ee3385616605565b600061480585612710670de0b6b3a76400006120ce565b90506148146129828683616391565b60035461482f906101009004600160a060020a031682615c7b565b61483a843385616435565b604080518481529051600160a060020a0386169133917fe74c91552b64c2e2e7bd255639e004e693bd3e1d01cc33e65610b86afcc1ffed9181900360200190a350506003805460ff1916905592915050565b60035460408051808201909152600b8152600080516020616c48833981519152602082015260609160ff16156144c55760405160e560020a62461bcd02815260206004820181815283516024840152835190928392604490910191908501908083836000831561095557818101518382015260200161093d565b60075490565b6040805160208082523690820181905260009283923392600160e060020a03198535169285929081908101848480828437600083820152604051601f909101601f19169092018290039550909350505050a260035460408051808201909152600b8152600080516020616c4883398151915260208201529060ff16156149d65760405160e560020a62461bcd02815260206004820181815283516024840152835190928392604490910191908501908083836000831561095557818101518382015260200161093d565b506003805460ff191660011790556149ed87611484565b6040518060400160405280600d8152602001600080516020616ca883398151915281525090614a605760405160e560020a62461bcd02815260206004820181815283516024840152835190928392604490910191908501908083836000831561095557818101518382015260200161093d565b50614a6a85611484565b6040518060400160405280600d8152602001600080516020616ca883398151915281525090614add5760405160e560020a62461bcd02815260206004820181815283516024840152835190928392604490910191908501908083836000831561095557818101518382015260200161093d565b50614ae6615c4e565b604051806040016040528060138152602001600080516020616c6883398151915281525090614b595760405160e560020a62461bcd02815260206004820181815283516024840152835190928392604490910191908501908083836000831561095557818101518382015260200161093d565b50600160a060020a0380881660009081526008602052604080822092881682529020600280830154614b9391670de0b6b3a76400006120ce565b8811156040518060400160405280601081526020017f4552525f4d41585f494e5f524154494f0000000000000000000000000000000081525090614c1b5760405160e560020a62461bcd02815260206004820181815283516024840152835190928392604490910191908501908083836000831561095557818101518382015260200161093d565b506000614c3d8360020154846001015484600201548560010154600554615c89565b9050858111156040518060400160405280601381526020017f4552525f4241445f4c494d49545f50524943450000000000000000000000000081525090614cc85760405160e560020a62461bcd02815260206004820181815283516024840152835190928392604490910191908501908083836000831561095557818101518382015260200161093d565b50614ce983600201548460010154846002015485600101548d6005546166a3565b9450868510156040518060400160405280600d81526020017f4552525f4c494d49545f4f55540000000000000000000000000000000000000081525090614d745760405160e560020a62461bcd02815260206004820181815283516024840152835190928392604490910191908501908083836000831561095557818101518382015260200161093d565b50614d8383600201548a615da6565b8360020181905550614d99826002015486616391565b82600201819055506000614dc28460020154856001015485600201548660010154600554615c89565b9050818110156040518060400160405280600f8152602001600080516020616ce883398151915281525090614e3b5760405160e560020a62461bcd02815260206004820181815283516024840152835190928392604490910191908501908083836000831561095557818101518382015260200161093d565b5060408051808201909152600f81527f4552525f4c494d49545f50524943450000000000000000000000000000000000602082015287821115614ec25760405160e560020a62461bcd02815260206004820181815283516024840152835190928392604490910191908501908083836000831561095557818101518382015260200161093d565b50614ecd8a87616074565b8211156040518060400160405280600f8152602001600080516020616ce883398151915281525090614f435760405160e560020a62461bcd02815260206004820181815283516024840152835190928392604490910191908501908083836000831561095557818101518382015260200161093d565b50614f4f8b338c615e3b565b614f5a893388616435565b88600160a060020a03168b600160a060020a031633600160a060020a03167f908fb5ee8f16c6bc9bc3690973819f32a4d4b10188134543c88706e0e1d433788d8a604051808381526020018281526020019250505060405180910390a493505050506003805460ff1916905590969095509350505050565b33600160a060020a0316600035600160e060020a031916600160e060020a03191660003660405180806020018281038252848482818152602001925080828437600083820152604051601f909101601f19169092018290039550909350505050a260035460408051808201909152600b8152600080516020616c4883398151915260208201529060ff16156150ab5760405160e560020a62461bcd02815260206004820181815283516024840152835190928392604490910191908501908083836000831561095557818101518382015260200161093d565b506003805460ff191660011790556004546040805180820190915260128152600080516020616c8883398151915260208201529033600160a060020a039091161461513a5760405160e560020a62461bcd02815260206004820181815283516024840152835190928392604490910191908501908083836000831561095557818101518382015260200161093d565b5061514481611484565b6040518060400160405280600d8152602001600080516020616ca8833981519152815250906151b75760405160e560020a62461bcd02815260206004820181815283516024840152835190928392604490910191908501908083836000831561095557818101518382015260200161093d565b506006546040805180820190915260108152600080516020616cc883398151915260208201529060ff16156152305760405160e560020a62461bcd02815260206004820181815283516024840152835190928392604490910191908501908083836000831561095557818101518382015260200161093d565b50600160a060020a0381166000908152600860205260408120600201549061526382612710670de0b6b3a76400006120ce565b600954600160a060020a03851660009081526008602052604090206001015491925061528e91616391565b600955600160a060020a038316600090815260086020526040902054600780546000199283019281019190829081106152c357fe5b60009182526020909120015460078054600160a060020a0390921691849081106152e957fe5b9060005260206000200160006101000a815481600160a060020a030219169083600160a060020a0316021790555081600101600860006007858154811061532c57fe5b6000918252602080832090910154600160a060020a0390811684528382019490945260409283018220949094558151606081018352818152808501828152818401838152948b1683526008909552919020905181559151600183015551600290910155600780548061539a57fe5b6000828152602090208101600019908101805473ffffffffffffffffffffffffffffffffffffffff191690550190556153d885336120e58787616391565b60035461210a9086906101009004600160a060020a031685616435565b60035460408051808201909152600b8152600080516020616c48833981519152602082015260009160ff161561546f5760405160e560020a62461bcd02815260206004820181815283516024840152835190928392604490910191908501908083836000831561095557818101518382015260200161093d565b505060055490565b600454760100000000000000000000000000000000000000000000900460ff1690565b600160a060020a0391821660009081526020818152604080832093909416825291909152205490565b33600160a060020a0316600035600160e060020a031916600160e060020a03191660003660405180806020018281038252848482818152602001925080828437600083820152604051601f909101601f19169092018290039550909350505050a26004546040805180820190915260128152600080516020616c88833981519152602082015290600160a060020a031633146155a35760405160e560020a62461bcd02815260206004820181815283516024840152835190928392604490910191908501908083836000831561095557818101518382015260200161093d565b506155ad83611484565b156040518060400160405280600c81526020017f4552525f49535f424f554e440000000000000000000000000000000000000000815250906156335760405160e560020a62461bcd02815260206004820181815283516024840152835190928392604490910191908501908083836000831561095557818101518382015260200161093d565b5061563c6139e5565b15604051806040016040528060108152602001600080516020616cc8833981519152815250906156b05760405160e560020a62461bcd02815260206004820181815283516024840152835190928392604490910191908501908083836000831561095557818101518382015260200161093d565b5060075460408051808201909152600e81527f4552525f4d41585f544f4b454e5300000000000000000000000000000000000060208201529060081161573a5760405160e560020a62461bcd02815260206004820181815283516024840152835190928392604490910191908501908083836000831561095557818101518382015260200161093d565b50600780546001808201928390557fa66cc928b5edb82af9bd49922954155ab7b0942694bea4ce44661d9a8736c688909101805473ffffffffffffffffffffffffffffffffffffffff1916600160a060020a0387169081179091556040805160608101825284815260006020808301828152838501838152958352600890915292902090518155905192810192909255516002909101556157dc848484611ad2565b50505050565b60035460408051808201909152600b8152600080516020616c48833981519152602082015260009160ff161561585c5760405160e560020a62461bcd02815260206004820181815283516024840152835190928392604490910191908501908083836000831561095557818101518382015260200161093d565b5061586682611484565b6040518060400160405280600d8152602001600080516020616ca8833981519152815250906158d95760405160e560020a62461bcd02815260206004820181815283516024840152835190928392604490910191908501908083836000831561095557818101518382015260200161093d565b50600160a060020a038216600090815260086020526040902060010154600954615904908290616074565b9392505050565b33600160a060020a0316600035600160e060020a031916600160e060020a03191660003660405180806020018281038252848482818152602001925080828437600083820152604051601f909101601f19169092018290039550909350505050a260035460408051808201909152600b8152600080516020616c4883398151915260208201529060ff16156159e45760405160e560020a62461bcd02815260206004820181815283516024840152835190928392604490910191908501908083836000831561095557818101518382015260200161093d565b506003805460ff191660011790556006546040805180820190915260108152600080516020616cc883398151915260208201529060ff1615615a6a5760405160e560020a62461bcd02815260206004820181815283516024840152835190928392604490910191908501908083836000831561095557818101518382015260200161093d565b506004546040805180820190915260128152600080516020616c88833981519152602082015290600160a060020a03163314615aea5760405160e560020a62461bcd02815260206004820181815283516024840152835190928392604490910191908501908083836000831561095557818101518382015260200161093d565b506004805491151575010000000000000000000000000000000000000000000275ff000000000000000000000000000000000000000000199092169190911790556003805460ff19169055565b60035460408051808201909152600b8152600080516020616c48833981519152602082015260009160ff1615615bb15760405160e560020a62461bcd02815260206004820181815283516024840152835190928392604490910191908501908083836000831561095557818101518382015260200161093d565b50615bbb82611484565b6040518060400160405280600d8152602001600080516020616ca883398151915281525090615c2e5760405160e560020a62461bcd02815260206004820181815283516024840152835190928392604490910191908501908083836000831561095557818101518382015260200161093d565b5050600160a060020a031660009081526008602052604090206002015490565b60045474010000000000000000000000000000000000000000900460ff1690565b615c788161684a565b50565b615c8582826168ba565b5050565b600080615c968787616074565b90506000615ca48686616074565b90506000615cb28383616074565b90506000615cd9670de0b6b3a7640000615cd4670de0b6b3a764000089616391565b616074565b9050615ce5828261624d565b9a9950505050505050505050565b600080615d008786616074565b90506000615d0e8786615da6565b90506000615d1c8289616074565b90506000615d32670de0b6b3a764000085616074565b90506000615d4083836168c5565b90506000615d4e828e61624d565b90506000615d5c828f616391565b90506000615d7b615d75670de0b6b3a76400008a616391565b8b61624d565b9050615d9382615cd4670de0b6b3a764000084616391565b9f9e505050505050505050505050505050565b60408051808201909152601081527f4552525f4144445f4f564552464c4f570000000000000000000000000000000060208201526000908383019084821015615e335760405160e560020a62461bcd02815260206004820181815283516024840152835190928392604490910191908501908083836000831561095557818101518382015260200161093d565b509392505050565b604080517f23b872dd000000000000000000000000000000000000000000000000000000008152600160a060020a0384811660048301523060248301526044820184905291516000928616916323b872dd91606480830192602092919082900301818787803b158015615ead57600080fd5b505af1158015615ec1573d6000803e3d6000fd5b505050506040513d6020811015615ed757600080fd5b505160408051808201909152600f81527f4552525f45524332305f46414c53450000000000000000000000000000000000602082015290915081615f5f5760405160e560020a62461bcd02815260206004820181815283516024840152835190928392604490910191908501908083836000831561095557818101518382015260200161093d565b5050505050565b600160a060020a038316600090815260016020526040902054615f899082616014565b600160a060020a038085166000908152600160205260408082209390935590841681522054615fb89082615da6565b600160a060020a0380841660008181526001602090815260409182902094909455805185815290519193928716927fdeb3a6837278f6e9914a507e4d73f08e841d8fca434fb97d4307b3b0d3d6b10592918290030190a3505050565b60008183101561606e576040805160e560020a62461bcd02815260206004820152601460248201527f4552525f42544f4b454e5f554e444552464c4f57000000000000000000000000604482015290519081900360640190fd5b50900390565b60408051808201909152600c81527f4552525f4449565f5a45524f00000000000000000000000000000000000000006020820152600090826160fa5760405160e560020a62461bcd02815260206004820181815283516024840152835190928392604490910191908501908083836000831561095557818101518382015260200161093d565b50670de0b6b3a764000083028315806161235750670de0b6b3a764000084828161612057fe5b04145b6040518060400160405280601081526020017f4552525f4449565f494e5445524e414c00000000000000000000000000000000815250906161a85760405160e560020a62461bcd02815260206004820181815283516024840152835190928392604490910191908501908083836000831561095557818101518382015260200161093d565b5060408051808201909152601081527f4552525f4449565f494e5445524e414c00000000000000000000000000000000602082015260028404820190828210156162365760405160e560020a62461bcd02815260206004820181815283516024840152835190928392604490910191908501908083836000831561095557818101518382015260200161093d565b50600084828161624257fe5b049695505050505050565b600082820283158061626757508284828161626457fe5b04145b6040518060400160405280601081526020017f4552525f4d554c5f4f564552464c4f5700000000000000000000000000000000815250906162ec5760405160e560020a62461bcd02815260206004820181815283516024840152835190928392604490910191908501908083836000831561095557818101518382015260200161093d565b5060408051808201909152601081527f4552525f4d554c5f4f564552464c4f570000000000000000000000000000000060208201526706f05b59d3b200008201908282101561637f5760405160e560020a62461bcd02815260206004820181815283516024840152835190928392604490910191908501908083836000831561095557818101518382015260200161093d565b506000670de0b6b3a764000082616242565b60008060006163a08585616a49565b9150915080156040518060400160405280601181526020017f4552525f5355425f554e444552464c4f570000000000000000000000000000008152509061642b5760405160e560020a62461bcd02815260206004820181815283516024840152835190928392604490910191908501908083836000831561095557818101518382015260200161093d565b5090949350505050565b604080517fa9059cbb000000000000000000000000000000000000000000000000000000008152600160a060020a03848116600483015260248201849052915160009286169163a9059cbb91604480830192602092919082900301818787803b158015615ead57600080fd5b6000806164ae8786616074565b905060006164cd6164c7670de0b6b3a764000084616391565b8561624d565b905060006164ec866164e7670de0b6b3a764000085616391565b61624d565b905060006164fa8b83615da6565b90506000616508828d616074565b9050600061651682876168c5565b90506000616524828d61624d565b9050616530818d616391565b9e9d5050505050505050505050505050565b60008061654f8786616074565b90506000616565670de0b6b3a764000083616391565b90506000616573828661624d565b9050600061658d87615cd4670de0b6b3a764000085616391565b9050600061659b8c83616391565b905060006165a9828e616074565b905060006165b782886168c5565b905060006165c5828e61624d565b905060006165d38e83616391565b90506165f081615cd4670de0b6b3a7640000612710815b04616391565b99505050505050505050509695505050505050565b615c858282616a6e565b615c7881616a79565b600080616629888888886000615c89565b905060006166378583616074565b9050600061664987615cd4898c615da6565b905061666661665883836168c5565b670de0b6b3a7640000616391565b9350616672848b61624d565b93506000616688670de0b6b3a764000087616391565b90506166948582616074565b9b9a5050505050505050505050565b6000806166b08786616074565b905060006166c6670de0b6b3a764000085616391565b90506166d2858261624d565b905060006166e48a615cd48c85615da6565b905060006166f282856168c5565b90506000616708670de0b6b3a764000083616391565b90506167148a8261624d565b9c9b505050505050505050505050565b6000806167318588616074565b9050600061673f8786616391565b9050600061674d8883616074565b9050600061675b82856168c5565b905061676f81670de0b6b3a7640000616391565b9050616783670de0b6b3a764000087616391565b94506166946167928c8361624d565b86616074565b6000806167a58786616074565b905060006167c2856164e7670de0b6b3a7640000612710816165ea565b905060006167d08883616391565b905060006167de828a616074565b905060006167fd826167f8670de0b6b3a764000088616074565b6168c5565b9050600061680b828e61624d565b905060006168198e83616391565b90506000616832615d75670de0b6b3a76400008a616391565b9050615d93826164e7670de0b6b3a764000084616391565b306000908152600160205260409020546168649082615da6565b306000908152600160205260409020556002546168819082615da6565b6002556040805182815290517f07883703ed0e86588a40d76551c92f8a4b329e3bf19765e0e6749473c1a846659181900360200190a150565b615c85308383615f66565b600060018310156040518060400160405280601581526020017f4552525f42504f575f424153455f544f4f5f4c4f570000000000000000000000815250906169515760405160e560020a62461bcd02815260206004820181815283516024840152835190928392604490910191908501908083836000831561095557818101518382015260200161093d565b5060408051808201909152601681527f4552525f42504f575f424153455f544f4f5f48494748000000000000000000006020820152671bc16d674ec7ffff8411156169e05760405160e560020a62461bcd02815260206004820181815283516024840152835190928392604490910191908501908083836000831561095557818101518382015260200161093d565b5060006169ec83616ae9565b905060006169fa8483616391565b90506000616a1086616a0b85616b04565b616b12565b905081616a21579250610c52915050565b6000616a3287846305f5e100616b69565b9050616a3e828261624d565b979650505050505050565b600080828410616a5f5750508082036000616a67565b505081810360015b9250929050565b615c85823083615f66565b30600090815260016020526040902054616a939082616014565b30600090815260016020526040902055600254616ab09082616014565b6002556040805182815290517fb90306ad06b2a6ff86ddc9327db583062895ef6540e62dc50add009db5b356eb9181900360200190a150565b6000670de0b6b3a7640000616afd83616b04565b0292915050565b670de0b6b3a7640000900490565b60008060028306616b2b57670de0b6b3a7640000616b2d565b835b90506002830492505b821561590457616b46848561624d565b93506002830615616b5e57616b5b818561624d565b90505b600283049250616b36565b6000828180616b8087670de0b6b3a7640000616a49565b9092509050670de0b6b3a764000080600060015b888410616c38576000670de0b6b3a764000082029050600080616bc88a616bc385670de0b6b3a7640000616391565b616a49565b91509150616bda876164e7848c61624d565b9650616be68784616074565b965086616bf557505050616c38565b8715616bff579315935b8015616c09579315935b8415616c2057616c198688616391565b9550616c2d565b616c2a8688615da6565b95505b505050600101616b94565b5090999850505050505050505056fe4552525f5245454e5452590000000000000000000000000000000000000000004552525f535741505f4e4f545f5055424c4943000000000000000000000000004552525f4e4f545f434f4e54524f4c4c455200000000000000000000000000004552525f4e4f545f424f554e44000000000000000000000000000000000000004552525f49535f46494e414c495a4544000000000000000000000000000000004552525f4d4154485f415050524f580000000000000000000000000000000000a265627a7a72315820b8fd1e1e179fd5b43721ddf28a95f8886c39091290c5ba543d65aa254a86c62964736f6c634300050b0032",
  "source": "// This program is free software: you can redistribute it and/or modify\n// it under the terms of the GNU General Public License as published by\n// the Free Software Foundation, either version 3 of the License, or\n// (at your option) any later version.\n\n// This program is distributed in the hope that it will be useful,\n// but WITHOUT ANY WARRANTY; without even the implied warranty of\n// MERCHANTABILITY or FITNESS FOR A PARTICULAR PURPOSE.  See the\n// GNU General Public License for more details.\n\n// You should have received a copy of the GNU General Public License\n// along with this program.  If not, see <http://www.gnu.org/licenses/>.\n\npragma solidity ^0.5.11;\n\nimport \"./BColor.sol\";\nimport \"./BToken.sol\";\nimport \"./BMath.sol\";\n\ncontract BPool is BBronze, BToken, BMath\n{\n    // Invariant: if any one field of a Record is zero, then the rest are zero\n    // Invariant: MIN_WEIGHT < denorm < MAX_WEIGHT\n    // Invariant: MIN_BALANCE < balance < MAX_BALANCE\n    struct Record {\n        uint index;   // private and off-by-one to maintain invariant\n        uint denorm;  // denormalized weight\n        uint balance;\n    }\n\n    event LOG_SWAP( address indexed caller\n                  , address indexed tokenIn\n                  , address indexed tokenOut\n                  , uint256         amountIn\n                  , uint256         amountOut );\n\n    event LOG_JOIN( address indexed caller\n                  , address indexed tokenIn\n                  , uint256         amountIn);\n\n    event LOG_EXIT( address indexed caller\n                  , address indexed tokenOut\n                  , uint256         amountOut);\n\n    event LOG_CALL( bytes4  indexed sig\n                  , address indexed caller\n                  , bytes           data\n                  )\n          anonymous;\n\n    modifier _logs_() {\n        emit LOG_CALL(msg.sig, msg.sender, msg.data);\n        _;\n    }\n\n    modifier _lock_() {\n        require( !_mutex, ERR_REENTRY);\n        _mutex = true;\n        _;\n        _mutex = false;\n    }\n\n    modifier _viewlock_() {\n        require( !_mutex, ERR_REENTRY);\n        _;\n    }\n\n    bool                      _mutex; // TODO: consider  messageNonce\n\n    // Emulates a rudimentary role-based access control system\n    address                   _factory;    // has FACTORY role\n    address                   _controller; // has CONTROL role\n    bool                      _publicSwap; // true if PUBLIC can call SWAP functions\n    bool                      _publicJoin; // true if PUBLIC can call JOIN functions\n    bool                      _publicExit; // true if PUBLIC can call Exit functions\n                                           //   always true for bronze pools!\n\n    // `setSwapFee` and `finalize` require CONTROL\n    // `finalize` sets `PUBLIC can SWAP`, `PUBLIC can JOIN`, and sets `_controller` to NULL\n    uint                      _swapFee;\n    bool                      _finalized;\n\n    address[]                 _tokens;\n    mapping(address=>Record)  _records;\n    uint                      _totalWeight;\n\n    constructor() public {\n        _controller = msg.sender;\n        _factory = msg.sender;\n\n        _publicSwap = false;\n        _publicJoin = false;\n        _finalized = false;\n\n        _publicExit = true;\n    }\n\n    function isPublicSwap()\n        public view\n        returns (bool)\n    {\n        return _publicSwap;\n    }\n\n    function isPublicJoin()\n        public view\n        returns (bool)\n    {\n        return _publicJoin;\n    }\n\n    function isPublicExit()\n        public view\n        returns (bool)\n    {\n        return _publicExit;\n    }\n\n    function isFinalized()\n        public view\n        returns (bool)\n    {\n        return _finalized;\n    }\n\n    function isBound(address t)\n        public view\n        returns (bool)\n    {\n        return _records[t].index != 0;\n    }\n\n    function getNumTokens()\n        external view\n        returns (uint) \n    {\n        return _tokens.length;\n    }\n\n    function getCurrentTokens()\n      external view _viewlock_\n        returns (address[] memory tokens)\n    {\n        return _tokens;\n    }\n\n    function getFinalTokens()\n        external view\n        _viewlock_\n        returns (address[] memory tokens)\n    {\n        require(_finalized, ERR_NOT_FINALIZED);\n        return _tokens;\n    }\n\n    function getDenormalizedWeight(address token)\n        external view\n        _viewlock_\n        returns (uint)\n    {\n        require( isBound(token), ERR_NOT_BOUND);\n        return _records[token].denorm;\n    }\n\n    function getTotalDenormalizedWeight()\n        external view\n        _viewlock_\n        returns (uint)\n    {\n        return _totalWeight;\n    }\n\n    function getNormalizedWeight(address token)\n        external view\n        _viewlock_\n        returns (uint)\n    {\n        require( isBound(token), ERR_NOT_BOUND);\n        uint denorm = _records[token].denorm;\n        return bdiv(denorm, _totalWeight);\n    }\n\n    function getBalance(address token)\n        external view\n        _viewlock_\n        returns (uint)\n    {\n        require( isBound(token), ERR_NOT_BOUND);\n        return _records[token].balance;\n    }\n\n    function getSwapFee()\n        external view\n        _viewlock_\n        returns (uint)\n    {\n        return _swapFee;\n    }\n\n    function getController()\n        external view\n        _viewlock_\n        returns (address)\n    {\n        return _controller;\n    }\n\n    function setSwapFee(uint swapFee)\n        external\n        _logs_\n        _lock_\n    { \n        require( ! _finalized, ERR_IS_FINALIZED);\n        require(msg.sender == _controller, ERR_NOT_CONTROLLER);\n        // TODO min fees\n        require(swapFee <= MAX_FEE, ERR_MAX_FEE);\n        _swapFee = swapFee;\n    }\n\n    function setController(address manager)\n        external\n        _logs_\n        _lock_\n    {\n        require(msg.sender == _controller, ERR_NOT_CONTROLLER);\n        _controller = manager;\n    }\n\n    function setPublicSwap(bool public_)\n        external\n        _logs_\n        _lock_\n    {\n        require( ! _finalized, ERR_IS_FINALIZED);\n        require(msg.sender == _controller, ERR_NOT_CONTROLLER);\n        _publicSwap = public_;\n    }\n\n    function setPublicJoin(bool public_)\n        external\n        _logs_\n        _lock_\n    {\n        require( ! _finalized, ERR_IS_FINALIZED);\n        require(msg.sender == _controller, ERR_NOT_CONTROLLER);\n        _publicJoin = public_;\n    }\n\n    function setPublicExit(bool public_)\n        external\n        _logs_\n        _lock_\n    {\n        require( public_, ERR_EXIT_ALWAYS_PUBLIC );\n        require( ! _finalized, ERR_IS_FINALIZED);\n        require(msg.sender == _controller, ERR_NOT_CONTROLLER);\n        _publicExit = public_;\n    }\n\n    function finalize(uint initSupply)\n        external\n        _logs_\n        _lock_\n    {\n        require(msg.sender == _controller, ERR_NOT_CONTROLLER);\n        require( !_finalized, ERR_IS_FINALIZED);\n        require(initSupply >= MIN_POOL_SUPPLY, ERR_MIN_POOL_SUPPLY);\n\n        _finalized = true;\n        _publicSwap = true;\n        _publicJoin = true;\n        _publicExit = true;\n\n        _mintPoolShare(initSupply);\n        _pushPoolShare(msg.sender, initSupply);\n    }\n\n\n    function bind(address token, uint balance, uint denorm)\n        external\n        _logs_\n        // _lock_  Bind does not lock because it jumps to `rebind`, which does\n    {\n        require(msg.sender == _controller, ERR_NOT_CONTROLLER);\n        require( ! isBound(token), ERR_IS_BOUND);\n        require( ! isFinalized(), ERR_IS_FINALIZED);\n\n        require(_tokens.length < MAX_BOUND_TOKENS, ERR_MAX_TOKENS);\n\n        uint length = _tokens.push(token);\n        _records[token] = Record({\n            index: length // 1-indexed (0 is 'unbound' state)\n          , denorm: 0    // balance and denorm will be validated\n          , balance: 0   // and set by `rebind`\n        });\n        rebind(token, balance, denorm);\n    }\n\n    function rebind(address token, uint balance, uint denorm)\n        public\n        _logs_\n        _lock_\n    {\n        require(msg.sender == _controller, ERR_NOT_CONTROLLER);\n        require(isBound(token), ERR_NOT_BOUND);\n        require( ! _finalized, ERR_IS_FINALIZED);\n\n        require(denorm >= MIN_WEIGHT, ERR_MIN_WEIGHT);\n        require(denorm <= MAX_WEIGHT, ERR_MAX_WEIGHT);\n        require(balance >= MIN_BALANCE, ERR_MIN_BALANCE);\n        require(balance <= MAX_BALANCE, ERR_MAX_BALANCE);\n\n        // Adjust the denorm and totalWeight\n        uint oldWeight = _records[token].denorm;\n        if (denorm > oldWeight) {\n            _totalWeight = badd(_totalWeight, bsub(denorm, oldWeight));\n            require( _totalWeight <= MAX_TOTAL_WEIGHT, ERR_MAX_TOTAL_WEIGHT );\n        } else {\n            _totalWeight = bsub(_totalWeight, bsub(oldWeight, denorm));\n        }        \n        _records[token].denorm = denorm;\n\n        // Adjust the balance record and actual token balance\n        uint oldBalance = _records[token].balance;\n        _records[token].balance = balance;\n        if (balance > oldBalance) {\n            _pullUnderlying(token, msg.sender, bsub(balance, oldBalance));\n        } else if( balance < oldBalance) {\n            // In this case liquidity is being withdrawn, so charge EXIT_FEE\n            uint tokenBalanceWithdrawn = bsub(oldBalance, balance);\n            uint tokenExitFee = bmul(tokenBalanceWithdrawn,EXIT_FEE);\n            _pushUnderlying(token, msg.sender, bsub(tokenBalanceWithdrawn,tokenExitFee));\n            _pushUnderlying(token, _factory, tokenExitFee);\n        }\n    }\n\n    function unbind(address token)\n        external\n        _logs_\n        _lock_\n    {\n        require(msg.sender == _controller, ERR_NOT_CONTROLLER);\n        require(isBound(token), ERR_NOT_BOUND);\n        require( ! _finalized, ERR_IS_FINALIZED);\n\n        uint tokenBalance = _records[token].balance;\n        uint tokenExitFee = bmul(tokenBalance,EXIT_FEE);\n\n        _totalWeight = bsub(_totalWeight, _records[token].denorm);\n\n        // Swap the token-to-unbind with the last token,\n        // then delete the last token\n        uint index = _records[token].index - 1;\n        uint last = _tokens.length - 1;\n        _tokens[index] = _tokens[last];\n        _records[_tokens[index]].index = index + 1;\n        _records[token] = Record({\n            index: 0\n          , denorm: 0\n          , balance: 0\n        });\n        _tokens.pop();\n\n        _pushUnderlying(token, msg.sender, bsub(tokenBalance,tokenExitFee));\n        _pushUnderlying(token, _factory, tokenExitFee);\n    }\n\n    // Absorb any tokens that have been sent to this contract into the pool\n    function gulp(address token)\n        external\n        _logs_\n        _lock_\n    {\n        require(isBound(token), ERR_NOT_BOUND);\n        _records[token].balance = ERC20(token).balanceOf(address(this));\n    }\n\n    function getSpotPrice(address Ti, address To)\n        external view\n        _viewlock_\n        returns (uint P)\n    {\n        require(isBound(Ti), ERR_NOT_BOUND);\n        require(isBound(To), ERR_NOT_BOUND);\n        Record storage I = _records[Ti];\n        Record storage O = _records[To];\n        return _calc_SpotPrice(I.balance, I.denorm, O.balance, O.denorm, _swapFee);\n    }\n\n    function getSpotPriceSansFee(address Ti, address To)\n        external view\n        _viewlock_\n        returns (uint P)\n    {\n        require(isBound(Ti), ERR_NOT_BOUND);\n        require(isBound(To), ERR_NOT_BOUND);\n        Record storage I = _records[Ti];\n        Record storage O = _records[To];\n        return _calc_SpotPrice(I.balance, I.denorm, O.balance, O.denorm, 0);\n    }\n\n    function joinPool(uint poolAo)\n        external\n        _logs_\n        _lock_\n    {\n        require(_finalized, ERR_NOT_FINALIZED);\n        require(isPublicJoin(), ERR_JOIN_NOT_PUBLIC);\n\n        uint poolTotal = totalSupply();\n        uint ratio = bdiv(poolAo, poolTotal);\n        for( uint i = 0; i < _tokens.length; i++ ) {\n            address t = _tokens[i];\n            uint bal = _records[t].balance;\n            uint tAi = bmul(ratio, bal);\n            _records[t].balance = badd(_records[t].balance, tAi);\n            _pullUnderlying(t, msg.sender, tAi);\n\n            emit LOG_JOIN(msg.sender, t, tAi);\n        }\n        _mintPoolShare(poolAo);\n        _pushPoolShare(msg.sender, poolAo);\n    }\n\n    function exitPool(uint pAi)\n        external\n        _logs_\n        _lock_\n    {\n        require(_finalized, ERR_NOT_FINALIZED);\n        require(isPublicExit(), ERR_EXIT_NOT_PUBLIC);\n\n        uint poolTotal = totalSupply();\n        uint pAiExitFee = bmul(pAi, EXIT_FEE);\n        uint pAiAfterExitFee = bsub(pAi, pAiExitFee);\n        uint ratio = bdiv(pAiAfterExitFee, poolTotal);\n       \n        _pullPoolShare(msg.sender, pAi);\n        _pushPoolShare(_factory, pAiExitFee);\n        _burnPoolShare(pAiAfterExitFee);\n\n        for( uint i = 0; i < _tokens.length; i++ ) {\n            address t = _tokens[i];\n            uint bal = _records[t].balance;\n            uint tAo = bmul(ratio, bal);\n            _records[t].balance = bsub(_records[t].balance, tAo);\n            _pushUnderlying(t, msg.sender, tAo);\n\n            emit LOG_EXIT(msg.sender, t, tAo);\n        }\n\n    }\n\n\n    function swap_ExactAmountIn(address Ti, uint Ai, address To, uint MinAo, uint MaxP)\n        external\n        _logs_\n        _lock_\n        returns (uint Ao, uint MP)\n    {\n        require( isBound(Ti), ERR_NOT_BOUND );\n        require( isBound(To), ERR_NOT_BOUND );\n        require( isPublicSwap(), ERR_SWAP_NOT_PUBLIC );\n\n        Record storage I = _records[address(Ti)];\n        Record storage O = _records[address(To)];\n\n        require( Ai <= bmul(I.balance, MAX_IN_RATIO), ERR_MAX_IN_RATIO );\n\n        uint SP0 = _calc_SpotPrice(I.balance, I.denorm, O.balance, O.denorm, _swapFee);\n        require( SP0 <= MaxP, ERR_BAD_LIMIT_PRICE );\n\n        Ao = _calc_OutGivenIn(I.balance, I.denorm, O.balance, O.denorm, Ai, _swapFee);\n        require( Ao >= MinAo, ERR_LIMIT_OUT );\n\n        I.balance = badd(I.balance, Ai);\n        O.balance = bsub(O.balance, Ao);\n\n        uint SP1 = _calc_SpotPrice(I.balance, I.denorm, O.balance, O.denorm, _swapFee);\n        require(SP1 >= SP0, ERR_MATH_APPROX);     \n        require(SP1 <= MaxP, ERR_LIMIT_PRICE);\n        require(SP0 <= bdiv(Ai,Ao), ERR_MATH_APPROX);\n\n        _pullUnderlying(Ti, msg.sender, Ai);\n        _pushUnderlying(To, msg.sender, Ao);\n\n        emit LOG_SWAP(msg.sender, Ti, To, Ai, Ao);\n\n        return (Ao, SP1);\n    }\n\n    function swap_ExactAmountOut(address Ti, uint MaxAi, address To, uint Ao, uint MaxP)\n        external\n        _logs_\n        _lock_ \n        returns (uint Ai, uint MP)\n    {\n        require( isBound(Ti), ERR_NOT_BOUND);\n        require( isBound(To), ERR_NOT_BOUND);\n        require( isPublicSwap(), ERR_SWAP_NOT_PUBLIC );\n\n        Record storage I = _records[address(Ti)];\n        Record storage O = _records[address(To)];\n\n        require(Ao <= bmul(O.balance, MAX_OUT_RATIO), ERR_MAX_OUT_RATIO );\n\n        uint SP0 = _calc_SpotPrice(I.balance, I.denorm, O.balance, O.denorm, _swapFee);\n        require(SP0 <= MaxP, ERR_BAD_LIMIT_PRICE );\n\n        Ai = _calc_InGivenOut(I.balance, I.denorm, O.balance, O.denorm, Ao, _swapFee);\n        require( Ai <= MaxAi, ERR_LIMIT_IN);\n\n        I.balance = badd(I.balance, Ai);\n        O.balance = bsub(O.balance, Ao);\n\n        uint SP1 = _calc_SpotPrice(I.balance, I.denorm, O.balance, O.denorm, _swapFee);\n        require(SP1 >= SP0, ERR_MATH_APPROX);\n        require(SP1 <= MaxP, ERR_LIMIT_PRICE);\n        require(SP0 <= bdiv(Ai,Ao), ERR_MATH_APPROX);\n\n        _pullUnderlying(Ti, msg.sender, Ai);\n        _pushUnderlying(To, msg.sender, Ao);\n\n        emit LOG_SWAP(msg.sender, Ti, To, Ai, Ao);\n\n        return (Ai, SP1);\n    }\n\n    function swap_ExactMarginalPrice(address Ti, uint Li, address To, uint Lo, uint MarP)\n        external\n        _logs_\n        _lock_\n        returns (uint Ai, uint Ao)\n    {\n        require( isBound(Ti), ERR_NOT_BOUND);\n        require( isBound(To), ERR_NOT_BOUND);\n        require( isPublicSwap(), ERR_SWAP_NOT_PUBLIC );\n\n        Record storage I = _records[address(Ti)];\n        Record storage O = _records[address(To)];\n\n        require(Ao <= bmul(O.balance, MAX_OUT_RATIO), ERR_MAX_OUT_RATIO);\n\n        uint SP0 = _calc_SpotPrice(I.balance, I.denorm, O.balance, O.denorm, _swapFee);\n        require(MarP > SP0, ERR_BAD_LIMIT_PRICE);\n\n        Ai = _calc_InGivenPrice( I.balance, I.denorm, O.balance, O.denorm, MarP, _swapFee );\n        Ao = _calc_OutGivenIn( I.balance, I.denorm, O.balance, O.denorm, Ai, _swapFee );\n\n        require( Ai <= Li, ERR_LIMIT_IN);\n        require( Ao >= Lo, ERR_LIMIT_OUT);\n\n        I.balance = badd(I.balance, Ai);\n        O.balance = bsub(O.balance, Ao);\n\n        uint SP1 = _calc_SpotPrice(I.balance, I.denorm, O.balance, O.denorm, _swapFee);\n        require(SP1 >= SP0, ERR_MATH_APPROX);\n        require(SP0 <= bdiv(Ai,Ao), ERR_MATH_APPROX);\n\n        _pullUnderlying(Ti, msg.sender, Ai);\n        _pushUnderlying(To, msg.sender, Ao);\n\n        emit LOG_SWAP(msg.sender, Ti, To, Ai, Ao);\n\n        return (Ai, Ao);\n    }\n\n    function joinswap_ExternAmountIn(address Ti, uint256 tAi)\n        external\n        _logs_\n        _lock_\n        returns (uint pAo)\n    {\n        require( isBound(Ti), ERR_NOT_BOUND );\n        require( isPublicSwap(), ERR_SWAP_NOT_PUBLIC );\n        require( isPublicJoin(), ERR_JOIN_NOT_PUBLIC );\n\n        Record storage T = _records[Ti];\n\n        pAo = _calc_PoolOutGivenSingleIn(T.balance, T.denorm, _totalSupply, _totalWeight, tAi, _swapFee);\n        T.balance = badd(T.balance, tAi);\n\n        _mintPoolShare(pAo);\n        _pushPoolShare(msg.sender, pAo);\n        _pullUnderlying(Ti, msg.sender, tAi);\n        \n        emit LOG_JOIN(msg.sender, Ti, tAi);\n\n        return pAo;\n    }\n\n    function joinswap_PoolAmountOut(uint pAo, address Ti)\n        external\n        _logs_\n        _lock_\n        returns (uint tAi)\n    {\n        require( isBound(Ti), ERR_NOT_BOUND );\n        require( isPublicSwap(), ERR_SWAP_NOT_PUBLIC );\n        require( isPublicJoin(), ERR_JOIN_NOT_PUBLIC );\n\n        Record storage T = _records[Ti];\n\n        tAi = _calc_SingleInGivenPoolOut(T.balance, T.denorm, _totalSupply, _totalWeight, pAo, _swapFee);\n        T.balance = badd(T.balance, tAi);\n\n        _mintPoolShare(pAo);\n        _pushPoolShare(msg.sender, pAo);\n        _pullUnderlying(Ti, msg.sender, tAi);\n        \n        emit LOG_JOIN(msg.sender, Ti, tAi);\n\n        return tAi;\n    }\n\n    function exitswap_PoolAmountIn(uint pAi, address To)\n        external\n        _logs_\n        _lock_\n        returns (uint tAo)\n    {\n        require( isBound(To), ERR_NOT_BOUND );\n        require( isPublicSwap(), ERR_SWAP_NOT_PUBLIC );\n        require( isPublicExit(), ERR_EXIT_NOT_PUBLIC);\n\n        Record storage T = _records[To];\n\n        tAo = _calc_SingleOutGivenPoolIn(T.balance, T.denorm, _totalSupply, _totalWeight, pAi, _swapFee);\n        T.balance = bsub(T.balance, tAo);\n\n        _pullPoolShare(msg.sender, pAi);\n        uint pAiExitFee = bmul(pAi,EXIT_FEE);\n        _burnPoolShare(bsub(pAi,pAiExitFee));\n        _pushPoolShare(_factory, pAiExitFee);\n        _pushUnderlying(To, msg.sender, tAo);\n\n        emit LOG_EXIT(msg.sender, To, tAo);\n\n        return tAo;\n    }\n\n    function exitswap_ExternAmountOut(address To, uint tAo)\n        external\n        _logs_\n        _lock_\n        returns (uint pAi)\n    {\n        require( isBound(To), ERR_NOT_BOUND );\n        require( isPublicSwap(), ERR_SWAP_NOT_PUBLIC );\n        require( isPublicExit(), ERR_EXIT_NOT_PUBLIC);\n\n        Record storage T = _records[To];\n\n        pAi = _calc_PoolInGivenSingleOut(T.balance, T.denorm, _totalSupply, _totalWeight, tAo, _swapFee);\n        T.balance = bsub(T.balance, tAo);\n\n        _pullPoolShare(msg.sender, pAi);\n        uint pAiExitFee = bmul(pAi,EXIT_FEE);\n        _burnPoolShare(bsub(pAi,pAiExitFee));\n        _pushPoolShare(_factory, pAiExitFee);\n        _pushUnderlying(To, msg.sender, tAo);        \n\n        emit LOG_EXIT(msg.sender, To, tAo);\n\n        return pAi;\n    }\n\n\n    // ==\n    // 'Underlying' token-manipulation functions make external calls but are NOT locked\n    // You must `_lock_` or otherwise ensure reentry-safety\n\n    function _pullUnderlying(address erc20, address from, uint amt)\n      internal\n    {\n        bool xfer = ERC20(erc20).transferFrom(from, address(this), amt);\n        require(xfer, ERR_ERC20_FALSE);\n    }\n\n    function _pushUnderlying(address erc20, address to, uint amt)\n      internal\n    {\n        bool xfer = ERC20(erc20).transfer(to, amt);\n        require(xfer, ERR_ERC20_FALSE);\n    }\n\n    function _pullPoolShare(address from, uint amount)\n      internal {\n        _pull(from, amount);\n    }\n\n    function _pushPoolShare(address to, uint amount)\n      internal {\n        _push(to, amount);\n    }\n\n    function _mintPoolShare(uint amount)\n      internal {\n        _mint(amount);\n    }\n\n    function _burnPoolShare(uint amount)\n      internal {\n        _burn(amount);\n    }\n\n}\n",
  "sourcePath": "/Users/mike/Projects/balancer/balancer-core/contracts/BPool.sol",
  "compiler": {
    "name": "solc",
    "version": "0.5.11+commit.c082d0b4.Emscripten.clang"
  },
  "schemaVersion": "3.0.16",
  "updatedAt": "2019-11-08T17:30:26.747Z",
  "devdoc": {
    "methods": {}
  },
  "userdoc": {
    "methods": {}
  }
}