{
  "contractName": "BPool",
  "abi": [
    {
      "constant": false,
      "inputs": [
        {
          "internalType": "address",
          "name": "guy",
          "type": "address"
        },
        {
          "internalType": "uint256",
          "name": "wad",
          "type": "uint256"
        }
      ],
      "name": "approve",
      "outputs": [
        {
          "internalType": "bool",
          "name": "",
          "type": "bool"
        }
      ],
      "payable": false,
      "stateMutability": "nonpayable",
      "type": "function"
    },
    {
      "constant": true,
      "inputs": [],
      "name": "totalSupply",
      "outputs": [
        {
          "internalType": "uint256",
          "name": "",
          "type": "uint256"
        }
      ],
      "payable": false,
      "stateMutability": "view",
      "type": "function"
    },
    {
      "constant": false,
      "inputs": [
        {
          "internalType": "address",
          "name": "src",
          "type": "address"
        },
        {
          "internalType": "address",
          "name": "dst",
          "type": "address"
        },
        {
          "internalType": "uint256",
          "name": "wad",
          "type": "uint256"
        }
      ],
      "name": "transferFrom",
      "outputs": [
        {
          "internalType": "bool",
          "name": "",
          "type": "bool"
        }
      ],
      "payable": false,
      "stateMutability": "nonpayable",
      "type": "function"
    },
    {
      "constant": true,
      "inputs": [
        {
          "internalType": "address",
          "name": "whom",
          "type": "address"
        }
      ],
      "name": "balanceOf",
      "outputs": [
        {
          "internalType": "uint256",
          "name": "",
          "type": "uint256"
        }
      ],
      "payable": false,
      "stateMutability": "view",
      "type": "function"
    },
    {
      "constant": true,
      "inputs": [],
      "name": "getColor",
      "outputs": [
        {
          "internalType": "bytes32",
          "name": "",
          "type": "bytes32"
        }
      ],
      "payable": false,
      "stateMutability": "view",
      "type": "function"
    },
    {
      "constant": false,
      "inputs": [
        {
          "internalType": "address",
          "name": "dst",
          "type": "address"
        },
        {
          "internalType": "uint256",
          "name": "wad",
          "type": "uint256"
        }
      ],
      "name": "transfer",
      "outputs": [
        {
          "internalType": "bool",
          "name": "",
          "type": "bool"
        }
      ],
      "payable": false,
      "stateMutability": "nonpayable",
      "type": "function"
    },
    {
      "constant": true,
      "inputs": [
        {
          "internalType": "address",
          "name": "src",
          "type": "address"
        },
        {
          "internalType": "address",
          "name": "guy",
          "type": "address"
        }
      ],
      "name": "allowance",
      "outputs": [
        {
          "internalType": "uint256",
          "name": "",
          "type": "uint256"
        }
      ],
      "payable": false,
      "stateMutability": "view",
      "type": "function"
    },
    {
      "inputs": [],
      "payable": false,
      "stateMutability": "nonpayable",
      "type": "constructor"
    },
    {
      "anonymous": false,
      "inputs": [
        {
          "indexed": true,
          "internalType": "address",
          "name": "caller",
          "type": "address"
        },
        {
          "indexed": true,
          "internalType": "address",
          "name": "tokenIn",
          "type": "address"
        },
        {
          "indexed": true,
          "internalType": "address",
          "name": "tokenOut",
          "type": "address"
        },
        {
          "indexed": false,
          "internalType": "uint256",
          "name": "amountIn",
          "type": "uint256"
        },
        {
          "indexed": false,
          "internalType": "uint256",
          "name": "amountOut",
          "type": "uint256"
        }
      ],
      "name": "LOG_SWAP",
      "type": "event"
    },
    {
      "anonymous": true,
      "inputs": [
        {
          "indexed": true,
          "internalType": "bytes4",
          "name": "sig",
          "type": "bytes4"
        },
        {
          "indexed": true,
          "internalType": "address",
          "name": "caller",
          "type": "address"
        },
        {
          "indexed": false,
          "internalType": "bytes",
          "name": "data",
          "type": "bytes"
        }
      ],
      "name": "LOG_CALL",
      "type": "event"
    },
    {
      "anonymous": false,
      "inputs": [
        {
          "indexed": true,
          "internalType": "address",
          "name": "src",
          "type": "address"
        },
        {
          "indexed": true,
          "internalType": "address",
          "name": "guy",
          "type": "address"
        },
        {
          "indexed": false,
          "internalType": "uint256",
          "name": "wad",
          "type": "uint256"
        }
      ],
      "name": "Approval",
      "type": "event"
    },
    {
      "anonymous": false,
      "inputs": [
        {
          "indexed": true,
          "internalType": "address",
          "name": "src",
          "type": "address"
        },
        {
          "indexed": true,
          "internalType": "address",
          "name": "dst",
          "type": "address"
        },
        {
          "indexed": false,
          "internalType": "uint256",
          "name": "wad",
          "type": "uint256"
        }
      ],
      "name": "Transfer",
      "type": "event"
    },
    {
      "anonymous": false,
      "inputs": [
        {
          "indexed": false,
          "internalType": "uint256",
          "name": "amt",
          "type": "uint256"
        }
      ],
      "name": "Mint",
      "type": "event"
    },
    {
      "anonymous": false,
      "inputs": [
        {
          "indexed": false,
          "internalType": "uint256",
          "name": "amt",
          "type": "uint256"
        }
      ],
      "name": "Burn",
      "type": "event"
    },
    {
      "anonymous": false,
      "inputs": [
        {
          "indexed": true,
          "internalType": "address",
          "name": "src",
          "type": "address"
        },
        {
          "indexed": true,
          "internalType": "address",
          "name": "dst",
          "type": "address"
        },
        {
          "indexed": false,
          "internalType": "uint256",
          "name": "amt",
          "type": "uint256"
        }
      ],
      "name": "Move",
      "type": "event"
    },
    {
      "constant": true,
      "inputs": [],
      "name": "isPublicSwap",
      "outputs": [
        {
          "internalType": "bool",
          "name": "",
          "type": "bool"
        }
      ],
      "payable": false,
      "stateMutability": "view",
      "type": "function"
    },
    {
      "constant": true,
      "inputs": [],
      "name": "isPublicJoin",
      "outputs": [
        {
          "internalType": "bool",
          "name": "",
          "type": "bool"
        }
      ],
      "payable": false,
      "stateMutability": "view",
      "type": "function"
    },
    {
      "constant": true,
      "inputs": [],
      "name": "isFinalized",
      "outputs": [
        {
          "internalType": "bool",
          "name": "",
          "type": "bool"
        }
      ],
      "payable": false,
      "stateMutability": "view",
      "type": "function"
    },
    {
      "constant": true,
      "inputs": [
        {
          "internalType": "address",
          "name": "t",
          "type": "address"
        }
      ],
      "name": "isBound",
      "outputs": [
        {
          "internalType": "bool",
          "name": "",
          "type": "bool"
        }
      ],
      "payable": false,
      "stateMutability": "view",
      "type": "function"
    },
    {
      "constant": true,
      "inputs": [],
      "name": "getNumTokens",
      "outputs": [
        {
          "internalType": "uint256",
          "name": "",
          "type": "uint256"
        }
      ],
      "payable": false,
      "stateMutability": "view",
      "type": "function"
    },
    {
      "constant": true,
      "inputs": [],
      "name": "getCurrentTokens",
      "outputs": [
        {
          "internalType": "address[]",
          "name": "tokens",
          "type": "address[]"
        }
      ],
      "payable": false,
      "stateMutability": "view",
      "type": "function"
    },
    {
      "constant": true,
      "inputs": [],
      "name": "getFinalTokens",
      "outputs": [
        {
          "internalType": "address[]",
          "name": "tokens",
          "type": "address[]"
        }
      ],
      "payable": false,
      "stateMutability": "view",
      "type": "function"
    },
    {
      "constant": true,
      "inputs": [
        {
          "internalType": "address",
          "name": "token",
          "type": "address"
        }
      ],
      "name": "getDenormalizedWeight",
      "outputs": [
        {
          "internalType": "uint256",
          "name": "",
          "type": "uint256"
        }
      ],
      "payable": false,
      "stateMutability": "view",
      "type": "function"
    },
    {
      "constant": true,
      "inputs": [],
      "name": "getTotalDenormalizedWeight",
      "outputs": [
        {
          "internalType": "uint256",
          "name": "",
          "type": "uint256"
        }
      ],
      "payable": false,
      "stateMutability": "view",
      "type": "function"
    },
    {
      "constant": true,
      "inputs": [
        {
          "internalType": "address",
          "name": "token",
          "type": "address"
        }
      ],
      "name": "getNormalizedWeight",
      "outputs": [
        {
          "internalType": "uint256",
          "name": "",
          "type": "uint256"
        }
      ],
      "payable": false,
      "stateMutability": "view",
      "type": "function"
    },
    {
      "constant": true,
      "inputs": [
        {
          "internalType": "address",
          "name": "token",
          "type": "address"
        }
      ],
      "name": "getBalance",
      "outputs": [
        {
          "internalType": "uint256",
          "name": "",
          "type": "uint256"
        }
      ],
      "payable": false,
      "stateMutability": "view",
      "type": "function"
    },
    {
      "constant": true,
      "inputs": [],
      "name": "getFees",
      "outputs": [
        {
          "internalType": "uint256",
          "name": "",
          "type": "uint256"
        },
        {
          "internalType": "uint256",
          "name": "",
          "type": "uint256"
        }
      ],
      "payable": false,
      "stateMutability": "view",
      "type": "function"
    },
    {
      "constant": true,
      "inputs": [],
      "name": "getController",
      "outputs": [
        {
          "internalType": "address",
          "name": "",
          "type": "address"
        }
      ],
      "payable": false,
      "stateMutability": "view",
      "type": "function"
    },
    {
      "constant": false,
      "inputs": [
        {
          "internalType": "uint256",
          "name": "swapFee",
          "type": "uint256"
        },
        {
          "internalType": "uint256",
          "name": "exitFee",
          "type": "uint256"
        }
      ],
      "name": "setFees",
      "outputs": [],
      "payable": false,
      "stateMutability": "nonpayable",
      "type": "function"
    },
    {
      "constant": false,
      "inputs": [
        {
          "internalType": "address",
          "name": "manager",
          "type": "address"
        }
      ],
      "name": "setController",
      "outputs": [],
      "payable": false,
      "stateMutability": "nonpayable",
      "type": "function"
    },
    {
      "constant": false,
      "inputs": [
        {
          "internalType": "bool",
          "name": "public_",
          "type": "bool"
        }
      ],
      "name": "setPublicSwap",
      "outputs": [],
      "payable": false,
      "stateMutability": "nonpayable",
      "type": "function"
    },
    {
      "constant": false,
      "inputs": [
        {
          "internalType": "bool",
          "name": "public_",
          "type": "bool"
        }
      ],
      "name": "setPublicJoin",
      "outputs": [],
      "payable": false,
      "stateMutability": "nonpayable",
      "type": "function"
    },
    {
      "constant": false,
      "inputs": [
        {
          "internalType": "uint256",
          "name": "initSupply",
          "type": "uint256"
        }
      ],
      "name": "finalize",
      "outputs": [],
      "payable": false,
      "stateMutability": "nonpayable",
      "type": "function"
    },
    {
      "constant": false,
      "inputs": [
        {
          "internalType": "address",
          "name": "token",
          "type": "address"
        },
        {
          "internalType": "uint256",
          "name": "balance",
          "type": "uint256"
        },
        {
          "internalType": "uint256",
          "name": "denorm",
          "type": "uint256"
        }
      ],
      "name": "bind",
      "outputs": [],
      "payable": false,
      "stateMutability": "nonpayable",
      "type": "function"
    },
    {
      "constant": false,
      "inputs": [
        {
          "internalType": "address",
          "name": "token",
          "type": "address"
        },
        {
          "internalType": "uint256",
          "name": "balance",
          "type": "uint256"
        },
        {
          "internalType": "uint256",
          "name": "denorm",
          "type": "uint256"
        }
      ],
      "name": "rebind",
      "outputs": [],
      "payable": false,
      "stateMutability": "nonpayable",
      "type": "function"
    },
    {
      "constant": false,
      "inputs": [
        {
          "internalType": "address",
          "name": "token",
          "type": "address"
        }
      ],
      "name": "unbind",
      "outputs": [],
      "payable": false,
      "stateMutability": "nonpayable",
      "type": "function"
    },
    {
      "constant": false,
      "inputs": [
        {
          "internalType": "address",
          "name": "token",
          "type": "address"
        }
      ],
      "name": "gulp",
      "outputs": [],
      "payable": false,
      "stateMutability": "nonpayable",
      "type": "function"
    },
    {
      "constant": false,
      "inputs": [],
      "name": "collect",
      "outputs": [
        {
          "internalType": "uint256",
          "name": "collected",
          "type": "uint256"
        }
      ],
      "payable": false,
      "stateMutability": "nonpayable",
      "type": "function"
    },
    {
      "constant": true,
      "inputs": [
        {
          "internalType": "address",
          "name": "Ti",
          "type": "address"
        },
        {
          "internalType": "address",
          "name": "To",
          "type": "address"
        }
      ],
      "name": "getSpotPrice",
      "outputs": [
        {
          "internalType": "uint256",
          "name": "P",
          "type": "uint256"
        }
      ],
      "payable": false,
      "stateMutability": "view",
      "type": "function"
    },
    {
      "constant": true,
      "inputs": [
        {
          "internalType": "address",
          "name": "Ti",
          "type": "address"
        },
        {
          "internalType": "address",
          "name": "To",
          "type": "address"
        }
      ],
      "name": "getSpotRate",
      "outputs": [
        {
          "internalType": "uint256",
          "name": "R",
          "type": "uint256"
        }
      ],
      "payable": false,
      "stateMutability": "view",
      "type": "function"
    },
    {
      "constant": true,
      "inputs": [
        {
          "internalType": "address",
          "name": "Ti",
          "type": "address"
        },
        {
          "internalType": "address",
          "name": "To",
          "type": "address"
        }
      ],
      "name": "getSpotPriceSansFee",
      "outputs": [
        {
          "internalType": "uint256",
          "name": "P",
          "type": "uint256"
        }
      ],
      "payable": false,
      "stateMutability": "view",
      "type": "function"
    },
    {
      "constant": true,
      "inputs": [
        {
          "internalType": "address",
          "name": "Ti",
          "type": "address"
        },
        {
          "internalType": "address",
          "name": "To",
          "type": "address"
        }
      ],
      "name": "getSpotRateSansFee",
      "outputs": [
        {
          "internalType": "uint256",
          "name": "P",
          "type": "uint256"
        }
      ],
      "payable": false,
      "stateMutability": "view",
      "type": "function"
    },
    {
      "constant": false,
      "inputs": [
        {
          "internalType": "uint256",
          "name": "poolAo",
          "type": "uint256"
        }
      ],
      "name": "joinPool",
      "outputs": [],
      "payable": false,
      "stateMutability": "nonpayable",
      "type": "function"
    },
    {
      "constant": false,
      "inputs": [
        {
          "internalType": "uint256",
          "name": "poolAi",
          "type": "uint256"
        }
      ],
      "name": "exitPool",
      "outputs": [],
      "payable": false,
      "stateMutability": "nonpayable",
      "type": "function"
    },
    {
      "constant": false,
      "inputs": [
        {
          "internalType": "address",
          "name": "Ti",
          "type": "address"
        },
        {
          "internalType": "uint256",
          "name": "Ai",
          "type": "uint256"
        },
        {
          "internalType": "address",
          "name": "To",
          "type": "address"
        },
        {
          "internalType": "uint256",
          "name": "Lo",
          "type": "uint256"
        },
        {
          "internalType": "uint256",
          "name": "LP",
          "type": "uint256"
        }
      ],
      "name": "swap_ExactAmountIn",
      "outputs": [
        {
          "internalType": "uint256",
          "name": "Ao",
          "type": "uint256"
        },
        {
          "internalType": "uint256",
          "name": "MP",
          "type": "uint256"
        }
      ],
      "payable": false,
      "stateMutability": "nonpayable",
      "type": "function"
    },
    {
      "constant": false,
      "inputs": [
        {
          "internalType": "address",
          "name": "Ti",
          "type": "address"
        },
        {
          "internalType": "uint256",
          "name": "Li",
          "type": "uint256"
        },
        {
          "internalType": "address",
          "name": "To",
          "type": "address"
        },
        {
          "internalType": "uint256",
          "name": "Ao",
          "type": "uint256"
        },
        {
          "internalType": "uint256",
          "name": "PL",
          "type": "uint256"
        }
      ],
      "name": "swap_ExactAmountOut",
      "outputs": [
        {
          "internalType": "uint256",
          "name": "Ai",
          "type": "uint256"
        },
        {
          "internalType": "uint256",
          "name": "MP",
          "type": "uint256"
        }
      ],
      "payable": false,
      "stateMutability": "nonpayable",
      "type": "function"
    },
    {
      "constant": false,
      "inputs": [
        {
          "internalType": "address",
          "name": "Ti",
          "type": "address"
        },
        {
          "internalType": "uint256",
          "name": "Li",
          "type": "uint256"
        },
        {
          "internalType": "address",
          "name": "To",
          "type": "address"
        },
        {
          "internalType": "uint256",
          "name": "Lo",
          "type": "uint256"
        },
        {
          "internalType": "uint256",
          "name": "MP",
          "type": "uint256"
        }
      ],
      "name": "swap_ExactMarginalPrice",
      "outputs": [
        {
          "internalType": "uint256",
          "name": "Ai",
          "type": "uint256"
        },
        {
          "internalType": "uint256",
          "name": "Ao",
          "type": "uint256"
        }
      ],
      "payable": false,
      "stateMutability": "nonpayable",
      "type": "function"
    },
    {
      "constant": false,
      "inputs": [
        {
          "internalType": "address",
          "name": "Ti",
          "type": "address"
        },
        {
          "internalType": "uint256",
          "name": "tAi",
          "type": "uint256"
        }
      ],
      "name": "joinswap_ExternAmountIn",
      "outputs": [
        {
          "internalType": "uint256",
          "name": "poolAo",
          "type": "uint256"
        }
      ],
      "payable": false,
      "stateMutability": "nonpayable",
      "type": "function"
    },
    {
      "constant": false,
      "inputs": [
        {
          "internalType": "uint256",
          "name": "pAo",
          "type": "uint256"
        },
        {
          "internalType": "address",
          "name": "Ti",
          "type": "address"
        }
      ],
      "name": "joinswap_PoolAmountOut",
      "outputs": [
        {
          "internalType": "uint256",
          "name": "tAi",
          "type": "uint256"
        }
      ],
      "payable": false,
      "stateMutability": "nonpayable",
      "type": "function"
    },
    {
      "constant": false,
      "inputs": [
        {
          "internalType": "uint256",
          "name": "pAi",
          "type": "uint256"
        },
        {
          "internalType": "address",
          "name": "To",
          "type": "address"
        }
      ],
      "name": "exitswap_PoolAmountIn",
      "outputs": [
        {
          "internalType": "uint256",
          "name": "tAo",
          "type": "uint256"
        }
      ],
      "payable": false,
      "stateMutability": "nonpayable",
      "type": "function"
    },
    {
      "constant": false,
      "inputs": [
        {
          "internalType": "address",
          "name": "To",
          "type": "address"
        },
        {
          "internalType": "uint256",
          "name": "tAo",
          "type": "uint256"
        }
      ],
      "name": "exitswap_ExternAmountOut",
      "outputs": [
        {
          "internalType": "uint256",
          "name": "pAi",
          "type": "uint256"
        }
      ],
      "payable": false,
      "stateMutability": "nonpayable",
      "type": "function"
    }
  ],
  "bytecode": "0x608060405234801561001057600080fd5b50600480546003805461010060a860020a03191633610100810291909117909155600160a060020a03199091161760a060020a61ffff02191690556007805460ff1916905561675080620000656000396000f3fe608060405234801561001057600080fd5b5060043610610286576000357c0100000000000000000000000000000000000000000000000000000000900480638d4e40831161016e578063cd2ed8fb116100e0578063e4e1e538116100a4578063e4e1e5381461081b578063e52253811461084d578063f1b8a9b714610855578063f5ae62591461087b578063f8b2cb4f1461089a578063fde924f7146108c057610286565b8063cd2ed8fb14610777578063ce1d477d1461077f578063cf5e7bd3146107bf578063db8d55f1146107e5578063dd62ed3e146107ed57610286565b80639a86139b116101325780639a86139b1461069a578063a9059cbb146106a2578063be1d24ad146106ce578063be3bbd2e146106eb578063c83d529e14610743578063cc77828d1461076f57610286565b80638d4e40831461061057806392eefe9b14610618578063936c34771461063e578063948d8ce614610646578063990e784a1461066c57610286565b80633018205f116102075780634a8402e6116101cb5780634a8402e6146104f75780634b0f9faa146104ff5780635718db491461052b57806362fd79421461058457806370a08231146105c45780638c28cbe8146105ea57610286565b80633018205f1461043957806334e7a19f1461045d5780633fdddaa21461047a578063483605e8146104ac57806349b59552146104d857610286565b806315e84af91161024e57806315e84af91461037b57806318160ddd146103a95780631ecc61bc146103b157806323b872dd146103dd5780632f37b6241461041357610286565b806305261aea1461028b578063095ea7b3146102aa5780630b78f9c0146102ea5780631446a7ff1461030d578063156e38cd1461034d575b600080fd5b6102a8600480360360208110156102a157600080fd5b50356108c8565b005b6102d6600480360360408110156102c057600080fd5b50600160a060020a038135169060200135610c0b565b604080519115158252519081900360200190f35b6102a86004803603604081101561030057600080fd5b5080359060200135610c70565b61033b6004803603604081101561032357600080fd5b50600160a060020a0381358116916020013516610f83565b60408051918252519081900360200190f35b61033b6004803603604081101561036357600080fd5b50600160a060020a0381358116916020013516611145565b61033b6004803603604081101561039157600080fd5b50600160a060020a03813581169160200135166112fe565b61033b6114b7565b61033b600480360360408110156103c757600080fd5b5080359060200135600160a060020a03166114bd565b6102d6600480360360608110156103f357600080fd5b50600160a060020a0381358116916020810135909116906040013561171c565b6102d66004803603602081101561042957600080fd5b5035600160a060020a031661189a565b6104416118b7565b60408051600160a060020a039092168252519081900360200190f35b6102a86004803603602081101561047357600080fd5b5035611942565b6102a86004803603606081101561049057600080fd5b50600160a060020a038135169060208101359060400135611c2a565b61033b600480360360408110156104c257600080fd5b50600160a060020a038135169060200135612229565b6102a8600480360360208110156104ee57600080fd5b5035151561248d565b6102d66126b7565b61033b6004803603604081101561051557600080fd5b50600160a060020a0381351690602001356126d9565b61056b600480360360a081101561054157600080fd5b50600160a060020a038135811691602081013591604082013516906060810135906080013561294e565b6040805192835260208301919091528051918290030190f35b61056b600480360360a081101561059a57600080fd5b50600160a060020a0381358116916020810135916040820135169060608101359060800135612f16565b61033b600480360360208110156105da57600080fd5b5035600160a060020a03166134e5565b6102a86004803603602081101561060057600080fd5b5035600160a060020a0316613500565b6102d6613718565b6102a86004803603602081101561062e57600080fd5b5035600160a060020a0316613721565b61033b6138c3565b61033b6004803603602081101561065c57600080fd5b5035600160a060020a0316613945565b61033b6004803603604081101561068257600080fd5b50600160a060020a0381358116916020013516613a5c565b61033b613c15565b6102d6600480360360408110156106b857600080fd5b50600160a060020a038135169060200135613c39565b6102a8600480360360208110156106e457600080fd5b5035613c8f565b6106f3613ee9565b60408051602080825283518183015283519192839290830191858101910280838360005b8381101561072f578181015183820152602001610717565b505050509050019250505060405180910390f35b61033b6004803603604081101561075957600080fd5b5080359060200135600160a060020a031661404e565b6106f361429a565b61033b614314565b61056b600480360360a081101561079557600080fd5b50600160a060020a038135811691602081013591604082013516906060810135906080013561431a565b6102a8600480360360208110156107d557600080fd5b5035600160a060020a03166148ea565b61056b614c74565b61033b6004803603604081101561080357600080fd5b50600160a060020a0381358116916020013516614d00565b6102a86004803603606081101561083157600080fd5b50600160a060020a038135169060208101359060400135614d29565b61033b615047565b61033b6004803603602081101561086b57600080fd5b5035600160a060020a0316615202565b6102a86004803603602081101561089157600080fd5b5035151561532b565b61033b600480360360208110156108b057600080fd5b5035600160a060020a0316615557565b6102d661566e565b33600160a060020a0316600035600160e060020a031916600160e060020a03191660003660405180806020018281038252848482818152602001925080828437600083820152604051601f909101601f19169092018290039550909350505050a260035460408051808201909152600b815260008051602061667c83398151915260208201529060ff16156109de5760405160e560020a62461bcd0281526004018080602001828103825283818151815260200191508051906020019080838360005b838110156109a357818101518382015260200161098b565b50505050905090810190601f1680156109d05780820380516001836020036101000a031916815260200191505b509250505060405180910390fd5b506003805460ff1916600117905560045460408051808201909152601281526000805160206166bc83398151915260208201529033600160a060020a0390911614610a6d5760405160e560020a62461bcd0281526020600482018181528351602484015283519092839260449091019190850190808383600083156109a357818101518382015260200161098b565b5060075460408051808201909152601081526000805160206166fc83398151915260208201529060ff1615610ae65760405160e560020a62461bcd0281526020600482018181528351602484015283519092839260449091019190850190808383600083156109a357818101518382015260200161098b565b5060408051808201909152601381527f4552525f4d494e5f504f4f4c5f535550504c59000000000000000000000000006020820152670de0b6b3a7640000821015610b755760405160e560020a62461bcd0281526020600482018181528351602484015283519092839260449091019190850190808383600083156109a357818101518382015260200161098b565b506007805460ff191660011790556004805475ff0000000000000000000000000000000000000000001974ff0000000000000000000000000000000000000000199091167401000000000000000000000000000000000000000017167501000000000000000000000000000000000000000000179055610bf48161568f565b610bfe338261569b565b506003805460ff19169055565b33600081815260208181526040808320600160a060020a038716808552908352818420869055815186815291519394909390927f8c5be1e5ebec7d5bd14f71427d1e84f3dd0314c0f7b2291e5b200ac8c7c3b925928290030190a35060015b92915050565b33600160a060020a0316600035600160e060020a031916600160e060020a03191660003660405180806020018281038252848482818152602001925080828437600083820152604051601f909101601f19169092018290039550909350505050a260035460408051808201909152600b815260008051602061667c83398151915260208201529060ff1615610d495760405160e560020a62461bcd0281526020600482018181528351602484015283519092839260449091019190850190808383600083156109a357818101518382015260200161098b565b506003805460ff1916600117905560075460408051808201909152601081526000805160206166fc83398151915260208201529060ff1615610dcf5760405160e560020a62461bcd0281526020600482018181528351602484015283519092839260449091019190850190808383600083156109a357818101518382015260200161098b565b5060045460408051808201909152601281526000805160206166bc833981519152602082015290600160a060020a03163314610e4f5760405160e560020a62461bcd0281526020600482018181528351602484015283519092839260449091019190850190808383600083156109a357818101518382015260200161098b565b5060408051808201909152600b81527f4552525f4d41585f464545000000000000000000000000000000000000000000602082015267016345785d8a0000831115610ede5760405160e560020a62461bcd0281526020600482018181528351602484015283519092839260449091019190850190808383600083156109a357818101518382015260200161098b565b5060408051808201909152600b81527f4552525f4d41585f464545000000000000000000000000000000000000000000602082015267016345785d8a0000821115610f6d5760405160e560020a62461bcd0281526020600482018181528351602484015283519092839260449091019190850190808383600083156109a357818101518382015260200161098b565b506005919091556006556003805460ff19169055565b60035460408051808201909152600b815260008051602061667c833981519152602082015260009160ff1615610ffd5760405160e560020a62461bcd0281526020600482018181528351602484015283519092839260449091019190850190808383600083156109a357818101518382015260200161098b565b506110078361189a565b6040518060400160405280600d81526020016000805160206166dc8339815191528152509061107a5760405160e560020a62461bcd0281526020600482018181528351602484015283519092839260449091019190850190808383600083156109a357818101518382015260200161098b565b506110848261189a565b6040518060400160405280600d81526020016000805160206166dc833981519152815250906110f75760405160e560020a62461bcd0281526020600482018181528351602484015283519092839260449091019190850190808383600083156109a357818101518382015260200161098b565b50600160a060020a03808416600090815260096020526040808220928516825281206002808401546001808601549284015490840154939461113c94929392906156a9565b95945050505050565b60035460408051808201909152600b815260008051602061667c833981519152602082015260009160ff16156111bf5760405160e560020a62461bcd0281526020600482018181528351602484015283519092839260449091019190850190808383600083156109a357818101518382015260200161098b565b506111c98361189a565b6040518060400160405280600d81526020016000805160206166dc8339815191528152509061123c5760405160e560020a62461bcd0281526020600482018181528351602484015283519092839260449091019190850190808383600083156109a357818101518382015260200161098b565b506112468261189a565b6040518060400160405280600d81526020016000805160206166dc833981519152815250906112b95760405160e560020a62461bcd0281526020600482018181528351602484015283519092839260449091019190850190808383600083156109a357818101518382015260200161098b565b50600160a060020a03808416600090815260096020526040808220928516825281206002808401546001808601549284015490840154939461113c9492939290615713565b60035460408051808201909152600b815260008051602061667c833981519152602082015260009160ff16156113785760405160e560020a62461bcd0281526020600482018181528351602484015283519092839260449091019190850190808383600083156109a357818101518382015260200161098b565b506113828361189a565b6040518060400160405280600d81526020016000805160206166dc833981519152815250906113f55760405160e560020a62461bcd0281526020600482018181528351602484015283519092839260449091019190850190808383600083156109a357818101518382015260200161098b565b506113ff8261189a565b6040518060400160405280600d81526020016000805160206166dc833981519152815250906114725760405160e560020a62461bcd0281526020600482018181528351602484015283519092839260449091019190850190808383600083156109a357818101518382015260200161098b565b50600160a060020a0380841660009081526009602052604080822092851682529020600280830154600180850154928401549084015460055461113c949291906156a9565b60025490565b600033600160a060020a0316600035600160e060020a031916600160e060020a03191660003660405180806020018281038252848482818152602001925080828437600083820152604051601f909101601f19169092018290039550909350505050a260035460408051808201909152600b815260008051602061667c83398151915260208201529060ff16156115985760405160e560020a62461bcd0281526020600482018181528351602484015283519092839260449091019190850190808383600083156109a357818101518382015260200161098b565b506003805460ff191660011790556115af8261189a565b6040518060400160405280600d81526020016000805160206166dc833981519152815250906116225760405160e560020a62461bcd0281526020600482018181528351602484015283519092839260449091019190850190808383600083156109a357818101518382015260200161098b565b5061162b61566e565b60405180604001604052806013815260200160008051602061669c8339815191528152509061169e5760405160e560020a62461bcd0281526020600482018181528351602484015283519092839260449091019190850190808383600083156109a357818101518382015260200161098b565b50600160a060020a038216600090815260096020526040902060028082015460018301549154600a546005546116d8949291908990615763565b91506116e38461568f565b6116ed338561569b565b6116f883338461582b565b611706816002015483615956565b6002909101556003805460ff1916905592915050565b600033600160a060020a03851614806117565750600160a060020a0384166000908152602081815260408083203384529091529020548211155b6117aa576040805160e560020a62461bcd02815260206004820152601560248201527f4552525f42544f4b454e5f4241445f43414c4c45520000000000000000000000604482015290519081900360640190fd5b6117b58484846159eb565b82600160a060020a031684600160a060020a03167fddf252ad1be2c89b69c2b068fc378daa952ba7f163c4a11628f55a4df523b3ef846040518082815260200191505060405180910390a333600160a060020a0385161480159061183c5750600160a060020a03841660009081526020818152604080832033845290915290205460001914155b1561189057600160a060020a03841660009081526020818152604080832033845290915290205461186d9083615a99565b600160a060020a0385166000908152602081815260408083203384529091529020555b5060019392505050565b600160a060020a0316600090815260096020526040902054151590565b60035460408051808201909152600b815260008051602061667c833981519152602082015260009160ff16156119315760405160e560020a62461bcd0281526020600482018181528351602484015283519092839260449091019190850190808383600083156109a357818101518382015260200161098b565b5050600454600160a060020a031690565b33600160a060020a0316600035600160e060020a031916600160e060020a03191660003660405180806020018281038252848482818152602001925080828437600083820152604051601f909101601f19169092018290039550909350505050a260035460408051808201909152600b815260008051602061667c83398151915260208201529060ff1615611a1b5760405160e560020a62461bcd0281526020600482018181528351602484015283519092839260449091019190850190808383600083156109a357818101518382015260200161098b565b506003805460ff1916600117905560075460408051808201909152601181527f4552525f4e4f545f46494e414c495a454400000000000000000000000000000060208201529060ff16611ab25760405160e560020a62461bcd0281526020600482018181528351602484015283519092839260449091019190850190808383600083156109a357818101518382015260200161098b565b50611abb6126b7565b6040518060400160405280601381526020017f4552525f4a4f494e5f4e4f545f5055424c49430000000000000000000000000081525090611b405760405160e560020a62461bcd0281526020600482018181528351602484015283519092839260449091019190850190808383600083156109a357818101518382015260200161098b565b506000611b4b6114b7565b90506000611b598383615af9565b905060005b600854811015611c0757600060088281548110611b7757fe5b6000918252602080832090910154600160a060020a03168083526009909152604082206002015490925090611bac8583615cd2565b600160a060020a038416600090815260096020526040902060020154909150611bd59082615956565b600160a060020a038416600090815260096020526040902060020155611bfc83338361582b565b505050600101611b5e565b50611c118361568f565b611c1b338461569b565b50506003805460ff1916905550565b33600160a060020a0316600035600160e060020a031916600160e060020a03191660003660405180806020018281038252848482818152602001925080828437600083820152604051601f909101601f19169092018290039550909350505050a260035460408051808201909152600b815260008051602061667c83398151915260208201529060ff1615611d035760405160e560020a62461bcd0281526020600482018181528351602484015283519092839260449091019190850190808383600083156109a357818101518382015260200161098b565b506003805460ff1916600117905560045460408051808201909152601281526000805160206166bc83398151915260208201529033600160a060020a0390911614611d925760405160e560020a62461bcd0281526020600482018181528351602484015283519092839260449091019190850190808383600083156109a357818101518382015260200161098b565b50611d9c8361189a565b6040518060400160405280600d81526020016000805160206166dc83398151915281525090611e0f5760405160e560020a62461bcd0281526020600482018181528351602484015283519092839260449091019190850190808383600083156109a357818101518382015260200161098b565b5060075460408051808201909152601081526000805160206166fc83398151915260208201529060ff1615611e885760405160e560020a62461bcd0281526020600482018181528351602484015283519092839260449091019190850190808383600083156109a357818101518382015260200161098b565b5060408051808201909152600e81527f4552525f4d494e5f5745494748540000000000000000000000000000000000006020820152670de0b6b3a7640000821015611f175760405160e560020a62461bcd0281526020600482018181528351602484015283519092839260449091019190850190808383600083156109a357818101518382015260200161098b565b5060408051808201909152600e81527f4552525f4d41585f57454947485400000000000000000000000000000000000060208201526802b5e3af16b1880000821115611fa75760405160e560020a62461bcd0281526020600482018181528351602484015283519092839260449091019190850190808383600083156109a357818101518382015260200161098b565b5060408051808201909152600f81527f4552525f4d494e5f42414c414e43450000000000000000000000000000000000602082015264e8d4a510008310156120335760405160e560020a62461bcd0281526020600482018181528351602484015283519092839260449091019190850190808383600083156109a357818101518382015260200161098b565b5060408051808201909152600f81527f4552525f4d41585f42414c414e4345000000000000000000000000000000000060208201526c0c9f2c9cd04674edea400000008311156120c75760405160e560020a62461bcd0281526020600482018181528351602484015283519092839260449091019190850190808383600083156109a357818101518382015260200161098b565b50600160a060020a0383166000908152600960205260409020600101548082111561219a57612101600a546120fc8484615e16565b615956565b600a81905560408051808201909152601481527f4552525f4d41585f544f54414c5f5745494748540000000000000000000000006020820152906802b5e3af16b1880000116121945760405160e560020a62461bcd0281526020600482018181528351602484015283519092839260449091019190850190808383600083156109a357818101518382015260200161098b565b506121b3565b6121af600a546121aa8385615e16565b615e16565b600a555b600160a060020a038416600090815260096020526040902060018101839055600201805490849055808411156121fc576121f785336121f28785615e16565b61582b565b612218565b808410156122185761221885336122138488615e16565b615eba565b50506003805460ff19169055505050565b600033600160a060020a0316600035600160e060020a031916600160e060020a03191660003660405180806020018281038252848482818152602001925080828437600083820152604051601f909101601f19169092018290039550909350505050a260035460408051808201909152600b815260008051602061667c83398151915260208201529060ff16156123045760405160e560020a62461bcd0281526020600482018181528351602484015283519092839260449091019190850190808383600083156109a357818101518382015260200161098b565b506003805460ff1916600117905561231b8361189a565b6040518060400160405280600d81526020016000805160206166dc8339815191528152509061238e5760405160e560020a62461bcd0281526020600482018181528351602484015283519092839260449091019190850190808383600083156109a357818101518382015260200161098b565b5061239761566e565b60405180604001604052806013815260200160008051602061669c8339815191528152509061240a5760405160e560020a62461bcd0281526020600482018181528351602484015283519092839260449091019190850190808383600083156109a357818101518382015260200161098b565b5060028054600160a060020a0385166000908152600960205260409020918201546001830154600a5460055493949361244893929186918990615f26565b92506124538361568f565b61245d338461569b565b61246885338661582b565b612476816002015485615956565b600290910155506003805460ff1916905592915050565b33600160a060020a0316600035600160e060020a031916600160e060020a03191660003660405180806020018281038252848482818152602001925080828437600083820152604051601f909101601f19169092018290039550909350505050a260035460408051808201909152600b815260008051602061667c83398151915260208201529060ff16156125665760405160e560020a62461bcd0281526020600482018181528351602484015283519092839260449091019190850190808383600083156109a357818101518382015260200161098b565b506003805460ff1916600117905560075460408051808201909152601081526000805160206166fc83398151915260208201529060ff16156125ec5760405160e560020a62461bcd0281526020600482018181528351602484015283519092839260449091019190850190808383600083156109a357818101518382015260200161098b565b5060045460408051808201909152601281526000805160206166bc833981519152602082015290600160a060020a0316331461266c5760405160e560020a62461bcd0281526020600482018181528351602484015283519092839260449091019190850190808383600083156109a357818101518382015260200161098b565b5060048054911515740100000000000000000000000000000000000000000274ff0000000000000000000000000000000000000000199092169190911790556003805460ff19169055565b6004547501000000000000000000000000000000000000000000900460ff1690565b600033600160a060020a0316600035600160e060020a031916600160e060020a03191660003660405180806020018281038252848482818152602001925080828437600083820152604051601f909101601f19169092018290039550909350505050a260035460408051808201909152600b815260008051602061667c83398151915260208201529060ff16156127b45760405160e560020a62461bcd0281526020600482018181528351602484015283519092839260449091019190850190808383600083156109a357818101518382015260200161098b565b506003805460ff191660011790556127cb8361189a565b6040518060400160405280600d81526020016000805160206166dc8339815191528152509061283e5760405160e560020a62461bcd0281526020600482018181528351602484015283519092839260449091019190850190808383600083156109a357818101518382015260200161098b565b5061284761566e565b60405180604001604052806013815260200160008051602061669c833981519152815250906128ba5760405160e560020a62461bcd0281526020600482018181528351602484015283519092839260449091019190850190808383600083156109a357818101518382015260200161098b565b5060006009600085600160a060020a0316600160a060020a031681526020019081526020016000209050600061290582600201548360010154600254600a5488600554600654615fc3565b90506129113382616052565b61291a8161605c565b612925853386615eba565b612933826002015485615e16565b60029092019190915590506003805460ff1916905592915050565b6040805160208082523690820181905260009283923392600160e060020a03198535169285929081908101848480828437600083820152604051601f909101601f19169092018290039550909350505050a260035460408051808201909152600b815260008051602061667c83398151915260208201529060ff1615612a185760405160e560020a62461bcd0281526020600482018181528351602484015283519092839260449091019190850190808383600083156109a357818101518382015260200161098b565b506003805460ff19166001179055612a2f8761189a565b6040518060400160405280600d81526020016000805160206166dc83398151915281525090612aa25760405160e560020a62461bcd0281526020600482018181528351602484015283519092839260449091019190850190808383600083156109a357818101518382015260200161098b565b50612aac8561189a565b6040518060400160405280600d81526020016000805160206166dc83398151915281525090612b1f5760405160e560020a62461bcd0281526020600482018181528351602484015283519092839260449091019190850190808383600083156109a357818101518382015260200161098b565b50612b2861566e565b60405180604001604052806013815260200160008051602061669c83398151915281525090612b9b5760405160e560020a62461bcd0281526020600482018181528351602484015283519092839260449091019190850190808383600083156109a357818101518382015260200161098b565b50600160a060020a0380881660009081526009602052604080822092881682529020600280820154612bd791670de0b6b3a76400005b04615cd2565b8311156040518060400160405280601181526020017f4552525f4d41585f4f55545f524154494f00000000000000000000000000000081525090612c5f5760405160e560020a62461bcd0281526020600482018181528351602484015283519092839260449091019190850190808383600083156109a357818101518382015260200161098b565b506000612c818360020154846001015484600201548560010154600554615713565b90508086106040518060400160405280601381526020017f4552525f4152475f4c494d49545f50524943450000000000000000000000000081525090612d0b5760405160e560020a62461bcd0281526020600482018181528351602484015283519092839260449091019190850190808383600083156109a357818101518382015260200161098b565b50612d2c83600201548460010154846002015485600101548a600554616065565b9450612d4e8360020154846001015484600201548560010154896005546160f0565b9350888511156040518060400160405280600c81526020017f4552525f4c494d49545f494e000000000000000000000000000000000000000081525090612dd95760405160e560020a62461bcd0281526020600482018181528351602484015283519092839260449091019190850190808383600083156109a357818101518382015260200161098b565b5060408051808201909152600d81527f4552525f4c494d49545f4f555400000000000000000000000000000000000000602082015287851015612e605760405160e560020a62461bcd0281526020600482018181528351602484015283519092839260449091019190850190808383600083156109a357818101518382015260200161098b565b50612e6f836002015486615956565b8360020181905550612e85826002015485615e16565b6002830155612e958a338761582b565b612ea0883386615eba565b87600160a060020a03168a600160a060020a031633600160a060020a03167f908fb5ee8f16c6bc9bc3690973819f32a4d4b10188134543c88706e0e1d433788888604051808381526020018281526020019250505060405180910390a45050506003805460ff1916905590969095509350505050565b6040805160208082523690820181905260009283923392600160e060020a03198535169285929081908101848480828437600083820152604051601f909101601f19169092018290039550909350505050a260035460408051808201909152600b815260008051602061667c83398151915260208201529060ff1615612fe05760405160e560020a62461bcd0281526020600482018181528351602484015283519092839260449091019190850190808383600083156109a357818101518382015260200161098b565b506003805460ff19166001179055612ff78761189a565b6040518060400160405280600d81526020016000805160206166dc8339815191528152509061306a5760405160e560020a62461bcd0281526020600482018181528351602484015283519092839260449091019190850190808383600083156109a357818101518382015260200161098b565b506130748561189a565b6040518060400160405280600d81526020016000805160206166dc833981519152815250906130e75760405160e560020a62461bcd0281526020600482018181528351602484015283519092839260449091019190850190808383600083156109a357818101518382015260200161098b565b506130f061566e565b60405180604001604052806013815260200160008051602061669c833981519152815250906131635760405160e560020a62461bcd0281526020600482018181528351602484015283519092839260449091019190850190808383600083156109a357818101518382015260200161098b565b50600160a060020a038088166000908152600960205260408082209288168252902060028082015461319d91670de0b6b3a7640000612bd1565b8611156040518060400160405280601181526020017f4552525f4d41585f4f55545f524154494f000000000000000000000000000000815250906132255760405160e560020a62461bcd0281526020600482018181528351602484015283519092839260449091019190850190808383600083156109a357818101518382015260200161098b565b5060006132478360020154846001015484600201548560010154600554615713565b90508086106040518060400160405280601381526020017f4552525f4152475f4c494d49545f505249434500000000000000000000000000815250906132d15760405160e560020a62461bcd0281526020600482018181528351602484015283519092839260449091019190850190808383600083156109a357818101518382015260200161098b565b506132f283600201548460010154846002015485600101548b600554616171565b9450888511156040518060400160405280600c81526020017f4552525f4c494d49545f494e00000000000000000000000000000000000000008152509061337d5760405160e560020a62461bcd0281526020600482018181528351602484015283519092839260449091019190850190808383600083156109a357818101518382015260200161098b565b5061338c836002015486615956565b83600201819055506133a2826002015488615e16565b826002018190555060006133cb8460020154856001015485600201548660010154600554615713565b9050868110156040518060400160405280600f81526020017f4552525f4c494d49545f50524943450000000000000000000000000000000000815250906134565760405160e560020a62461bcd0281526020600482018181528351602484015283519092839260449091019190850190808383600083156109a357818101518382015260200161098b565b506134628b338861582b565b61346d89338a615eba565b88600160a060020a03168b600160a060020a031633600160a060020a03167f908fb5ee8f16c6bc9bc3690973819f32a4d4b10188134543c88706e0e1d43378898c604051808381526020018281526020019250505060405180910390a493505050506003805460ff1916905590969095509350505050565b600160a060020a031660009081526001602052604090205490565b33600160a060020a0316600035600160e060020a031916600160e060020a03191660003660405180806020018281038252848482818152602001925080828437600083820152604051601f909101601f19169092018290039550909350505050a260035460408051808201909152600b815260008051602061667c83398151915260208201529060ff16156135d95760405160e560020a62461bcd0281526020600482018181528351602484015283519092839260449091019190850190808383600083156109a357818101518382015260200161098b565b506003805460ff191660011790556135f08161189a565b6040518060400160405280600d81526020016000805160206166dc833981519152815250906136635760405160e560020a62461bcd0281526020600482018181528351602484015283519092839260449091019190850190808383600083156109a357818101518382015260200161098b565b50604080517f70a082310000000000000000000000000000000000000000000000000000000081523060048201529051600160a060020a038316916370a08231916024808301926020929190829003018186803b1580156136c357600080fd5b505afa1580156136d7573d6000803e3d6000fd5b505050506040513d60208110156136ed57600080fd5b5051600160a060020a039091166000908152600960205260409020600201556003805460ff19169055565b60075460ff1690565b33600160a060020a0316600035600160e060020a031916600160e060020a03191660003660405180806020018281038252848482818152602001925080828437600083820152604051601f909101601f19169092018290039550909350505050a260035460408051808201909152600b815260008051602061667c83398151915260208201529060ff16156137fa5760405160e560020a62461bcd0281526020600482018181528351602484015283519092839260449091019190850190808383600083156109a357818101518382015260200161098b565b506003805460ff1916600117905560045460408051808201909152601281526000805160206166bc83398151915260208201529033600160a060020a03909116146138895760405160e560020a62461bcd0281526020600482018181528351602484015283519092839260449091019190850190808383600083156109a357818101518382015260200161098b565b506004805473ffffffffffffffffffffffffffffffffffffffff1916600160a060020a03929092169190911790556003805460ff19169055565b60035460408051808201909152600b815260008051602061667c833981519152602082015260009160ff161561393d5760405160e560020a62461bcd0281526020600482018181528351602484015283519092839260449091019190850190808383600083156109a357818101518382015260200161098b565b5050600a5490565b60035460408051808201909152600b815260008051602061667c833981519152602082015260009160ff16156139bf5760405160e560020a62461bcd0281526020600482018181528351602484015283519092839260449091019190850190808383600083156109a357818101518382015260200161098b565b506139c98261189a565b6040518060400160405280600d81526020016000805160206166dc83398151915281525090613a3c5760405160e560020a62461bcd0281526020600482018181528351602484015283519092839260449091019190850190808383600083156109a357818101518382015260200161098b565b5050600160a060020a031660009081526009602052604090206001015490565b60035460408051808201909152600b815260008051602061667c833981519152602082015260009160ff1615613ad65760405160e560020a62461bcd0281526020600482018181528351602484015283519092839260449091019190850190808383600083156109a357818101518382015260200161098b565b50613ae08361189a565b6040518060400160405280600d81526020016000805160206166dc83398151915281525090613b535760405160e560020a62461bcd0281526020600482018181528351602484015283519092839260449091019190850190808383600083156109a357818101518382015260200161098b565b50613b5d8261189a565b6040518060400160405280600d81526020016000805160206166dc83398151915281525090613bd05760405160e560020a62461bcd0281526020600482018181528351602484015283519092839260449091019190850190808383600083156109a357818101518382015260200161098b565b50600160a060020a0380841660009081526009602052604080822092851682529020600280830154600180850154928401549084015460055461113c94929190615713565b7f42524f4e5a45000000000000000000000000000000000000000000000000000090565b6000613c463384846159eb565b604080518381529051600160a060020a0385169133917fddf252ad1be2c89b69c2b068fc378daa952ba7f163c4a11628f55a4df523b3ef9181900360200190a350600192915050565b33600160a060020a0316600035600160e060020a031916600160e060020a03191660003660405180806020018281038252848482818152602001925080828437600083820152604051601f909101601f19169092018290039550909350505050a260035460408051808201909152600b815260008051602061667c83398151915260208201529060ff1615613d685760405160e560020a62461bcd0281526020600482018181528351602484015283519092839260449091019190850190808383600083156109a357818101518382015260200161098b565b506003805460ff1916600117905560075460408051808201909152601181527f4552525f4e4f545f46494e414c495a454400000000000000000000000000000060208201529060ff16613dff5760405160e560020a62461bcd0281526020600482018181528351602484015283519092839260449091019190850190808383600083156109a357818101518382015260200161098b565b506000613e0a6114b7565b90506000613e188383615af9565b9050613e243384616052565b613e2d8361605c565b60005b600854811015613ed957600060088281548110613e4957fe5b6000918252602080832090910154600160a060020a03168083526009909152604082206002015490925090613e7e8583615cd2565b600160a060020a038416600090815260096020526040902060020154909150613ea79082615e16565b600160a060020a038416600090815260096020526040902060020155613ece833383615eba565b505050600101613e30565b50506003805460ff191690555050565b60035460408051808201909152600b815260008051602061667c833981519152602082015260609160ff1615613f635760405160e560020a62461bcd0281526020600482018181528351602484015283519092839260449091019190850190808383600083156109a357818101518382015260200161098b565b5060075460408051808201909152601181527f4552525f4e4f545f46494e414c495a454400000000000000000000000000000060208201529060ff16613fed5760405160e560020a62461bcd0281526020600482018181528351602484015283519092839260449091019190850190808383600083156109a357818101518382015260200161098b565b50600880548060200260200160405190810160405280929190818152602001828054801561404457602002820191906000526020600020905b8154600160a060020a03168152600190910190602001808311614026575b5050505050905090565b600033600160a060020a0316600035600160e060020a031916600160e060020a03191660003660405180806020018281038252848482818152602001925080828437600083820152604051601f909101601f19169092018290039550909350505050a260035460408051808201909152600b815260008051602061667c83398151915260208201529060ff16156141295760405160e560020a62461bcd0281526020600482018181528351602484015283519092839260449091019190850190808383600083156109a357818101518382015260200161098b565b506003805460ff191660011790556141408261189a565b6040518060400160405280600d81526020016000805160206166dc833981519152815250906141b35760405160e560020a62461bcd0281526020600482018181528351602484015283519092839260449091019190850190808383600083156109a357818101518382015260200161098b565b506141bc61566e565b60405180604001604052806013815260200160008051602061669c8339815191528152509061422f5760405160e560020a62461bcd0281526020600482018181528351602484015283519092839260449091019190850190808383600083156109a357818101518382015260200161098b565b50600160a060020a038216600090815260096020526040902060028082015460018301549154600a5460055460065461426c959392918a916161e5565b91506142783385616052565b6142818461605c565b61428c833384615eba565b611706816002015483615e16565b60035460408051808201909152600b815260008051602061667c833981519152602082015260609160ff1615613fed5760405160e560020a62461bcd0281526020600482018181528351602484015283519092839260449091019190850190808383600083156109a357818101518382015260200161098b565b60085490565b6040805160208082523690820181905260009283923392600160e060020a03198535169285929081908101848480828437600083820152604051601f909101601f19169092018290039550909350505050a260035460408051808201909152600b815260008051602061667c83398151915260208201529060ff16156143e45760405160e560020a62461bcd0281526020600482018181528351602484015283519092839260449091019190850190808383600083156109a357818101518382015260200161098b565b506003805460ff191660011790556143fb8761189a565b6040518060400160405280600d81526020016000805160206166dc8339815191528152509061446e5760405160e560020a62461bcd0281526020600482018181528351602484015283519092839260449091019190850190808383600083156109a357818101518382015260200161098b565b506144788561189a565b6040518060400160405280600d81526020016000805160206166dc833981519152815250906144eb5760405160e560020a62461bcd0281526020600482018181528351602484015283519092839260449091019190850190808383600083156109a357818101518382015260200161098b565b506144f461566e565b60405180604001604052806013815260200160008051602061669c833981519152815250906145675760405160e560020a62461bcd0281526020600482018181528351602484015283519092839260449091019190850190808383600083156109a357818101518382015260200161098b565b50600160a060020a03808816600090815260096020526040808220928816825290206002808301546145a191670de0b6b3a7640000612bd1565b8811156040518060400160405280601081526020017f4552525f4d41585f494e5f524154494f00000000000000000000000000000000815250906146295760405160e560020a62461bcd0281526020600482018181528351602484015283519092839260449091019190850190808383600083156109a357818101518382015260200161098b565b50600061464b83600201548460010154846002015485600101546005546156a9565b9050808610156040518060400160405280601081526020017f4552525f4152475f4c494d49545f494e00000000000000000000000000000000815250906146d65760405160e560020a62461bcd0281526020600482018181528351602484015283519092839260449091019190850190808383600083156109a357818101518382015260200161098b565b506146f783600201548460010154846002015485600101548d6005546160f0565b9450868510156040518060400160405280600d81526020017f4552525f4c494d49545f4f555400000000000000000000000000000000000000815250906147825760405160e560020a62461bcd0281526020600482018181528351602484015283519092839260449091019190850190808383600083156109a357818101518382015260200161098b565b5061479183600201548a615956565b83600201819055506147a7826002015486615e16565b826002018190555060006147d084600201548560010154856002015486600101546005546156a9565b9050868111156040518060400160405280600f81526020017f4552525f4c494d49545f505249434500000000000000000000000000000000008152509061485b5760405160e560020a62461bcd0281526020600482018181528351602484015283519092839260449091019190850190808383600083156109a357818101518382015260200161098b565b506148678b338c61582b565b614872893388615eba565b88600160a060020a03168b600160a060020a031633600160a060020a03167f908fb5ee8f16c6bc9bc3690973819f32a4d4b10188134543c88706e0e1d433788d8a604051808381526020018281526020019250505060405180910390a493505050506003805460ff1916905590969095509350505050565b33600160a060020a0316600035600160e060020a031916600160e060020a03191660003660405180806020018281038252848482818152602001925080828437600083820152604051601f909101601f19169092018290039550909350505050a260035460408051808201909152600b815260008051602061667c83398151915260208201529060ff16156149c35760405160e560020a62461bcd0281526020600482018181528351602484015283519092839260449091019190850190808383600083156109a357818101518382015260200161098b565b506003805460ff1916600117905560045460408051808201909152601281526000805160206166bc83398151915260208201529033600160a060020a0390911614614a525760405160e560020a62461bcd0281526020600482018181528351602484015283519092839260449091019190850190808383600083156109a357818101518382015260200161098b565b50614a5c8161189a565b6040518060400160405280600d81526020016000805160206166dc83398151915281525090614acf5760405160e560020a62461bcd0281526020600482018181528351602484015283519092839260449091019190850190808383600083156109a357818101518382015260200161098b565b50600160a060020a038116600090815260096020526040902060020154614af99082903390615eba565b600a54600160a060020a038216600090815260096020526040902060010154614b229190615e16565b600a55600160a060020a03811660009081526009602052604090205460088054600019928301928101919082908110614b5757fe5b60009182526020909120015460088054600160a060020a039092169184908110614b7d57fe5b9060005260206000200160006101000a815481600160a060020a030219169083600160a060020a03160217905550816001016009600060088581548110614bc057fe5b6000918252602080832090910154600160a060020a031683528201929092526040019020556008805480614bf057fe5b600082815260208082208301600019908101805473ffffffffffffffffffffffffffffffffffffffff1916905590920190925560408051606081018252838152808301848152818301858152600160a060020a039890981685526009909352922091518255516001820155925160029093019290925550506003805460ff19169055565b60035460408051808201909152600b815260008051602061667c833981519152602082015260009182919060ff1615614cf15760405160e560020a62461bcd0281526020600482018181528351602484015283519092839260449091019190850190808383600083156109a357818101518382015260200161098b565b50600554600654915091509091565b600160a060020a0391821660009081526020818152604080832093909416825291909152205490565b33600160a060020a0316600035600160e060020a031916600160e060020a03191660003660405180806020018281038252848482818152602001925080828437600083820152604051601f909101601f19169092018290039550909350505050a260045460408051808201909152601281526000805160206166bc833981519152602082015290600160a060020a03163314614e095760405160e560020a62461bcd0281526020600482018181528351602484015283519092839260449091019190850190808383600083156109a357818101518382015260200161098b565b50614e138361189a565b156040518060400160405280600c81526020017f4552525f49535f424f554e44000000000000000000000000000000000000000081525090614e995760405160e560020a62461bcd0281526020600482018181528351602484015283519092839260449091019190850190808383600083156109a357818101518382015260200161098b565b50614ea2613718565b156040518060400160405280601081526020016000805160206166fc83398151915281525090614f165760405160e560020a62461bcd0281526020600482018181528351602484015283519092839260449091019190850190808383600083156109a357818101518382015260200161098b565b506008805460408051808201909152600e81527f4552525f4d41585f544f4b454e5300000000000000000000000000000000000060208201529111614f9f5760405160e560020a62461bcd0281526020600482018181528351602484015283519092839260449091019190850190808383600083156109a357818101518382015260200161098b565b50600880546001808201928390557ff3f7a9fe364faab93b216da50a3214154f22a0a2b415b23a84c8169e8b636ee3909101805473ffffffffffffffffffffffffffffffffffffffff1916600160a060020a038716908117909155604080516060810182528481526000602080830182815283850183815295835260099091529290209051815590519281019290925551600290910155615041848484611c2a565b50505050565b600033600160a060020a0316600035600160e060020a031916600160e060020a03191660003660405180806020018281038252848482818152602001925080828437600083820152604051601f909101601f19169092018290039550909350505050a260035460408051808201909152600b815260008051602061667c83398151915260208201529060ff16156151225760405160e560020a62461bcd0281526020600482018181528351602484015283519092839260449091019190850190808383600083156109a357818101518382015260200161098b565b5060038054600160ff19909116179081905560408051808201909152600f81527f4552525f4e4f545f464143544f525900000000000000000000000000000000006020820152906101009004600160a060020a031633146151c75760405160e560020a62461bcd0281526020600482018181528351602484015283519092839260449091019190850190808383600083156109a357818101518382015260200161098b565b506003546101009004600160a060020a0316600081815260016020526040902054906151f3908261569b565b90506003805460ff1916905590565b60035460408051808201909152600b815260008051602061667c833981519152602082015260009160ff161561527c5760405160e560020a62461bcd0281526020600482018181528351602484015283519092839260449091019190850190808383600083156109a357818101518382015260200161098b565b506152868261189a565b6040518060400160405280600d81526020016000805160206166dc833981519152815250906152f95760405160e560020a62461bcd0281526020600482018181528351602484015283519092839260449091019190850190808383600083156109a357818101518382015260200161098b565b50600160a060020a038216600090815260096020526040902060010154600a54615324908290615af9565b9392505050565b33600160a060020a0316600035600160e060020a031916600160e060020a03191660003660405180806020018281038252848482818152602001925080828437600083820152604051601f909101601f19169092018290039550909350505050a260035460408051808201909152600b815260008051602061667c83398151915260208201529060ff16156154045760405160e560020a62461bcd0281526020600482018181528351602484015283519092839260449091019190850190808383600083156109a357818101518382015260200161098b565b506003805460ff1916600117905560075460408051808201909152601081526000805160206166fc83398151915260208201529060ff161561548a5760405160e560020a62461bcd0281526020600482018181528351602484015283519092839260449091019190850190808383600083156109a357818101518382015260200161098b565b5060045460408051808201909152601281526000805160206166bc833981519152602082015290600160a060020a0316331461550a5760405160e560020a62461bcd0281526020600482018181528351602484015283519092839260449091019190850190808383600083156109a357818101518382015260200161098b565b506004805491151575010000000000000000000000000000000000000000000275ff000000000000000000000000000000000000000000199092169190911790556003805460ff19169055565b60035460408051808201909152600b815260008051602061667c833981519152602082015260009160ff16156155d15760405160e560020a62461bcd0281526020600482018181528351602484015283519092839260449091019190850190808383600083156109a357818101518382015260200161098b565b506155db8261189a565b6040518060400160405280600d81526020016000805160206166dc8339815191528152509061564e5760405160e560020a62461bcd0281526020600482018181528351602484015283519092839260449091019190850190808383600083156109a357818101518382015260200161098b565b5050600160a060020a031660009081526009602052604090206002015490565b60045474010000000000000000000000000000000000000000900460ff1690565b61569881616253565b50565b6156a582826162c3565b5050565b6000806156b68787615af9565b905060006156c48686615af9565b905060006156d28383615af9565b905060006156f9670de0b6b3a76400006156f4670de0b6b3a764000089615e16565b615af9565b90506157058282615cd2565b9a9950505050505050505050565b6000806157208585615af9565b9050600061572e8888615af9565b9050600061573c8383615af9565b905060006156f9670de0b6b3a764000061575e670de0b6b3a764000089615e16565b615cd2565b6000806157708786615af9565b9050600061577e8786615956565b9050600061578c8289615af9565b905060006157a2670de0b6b3a764000085615af9565b905060006157b083836162ce565b905060006157be828e615cd2565b905060006157cc828f615e16565b905060006157e2670de0b6b3a764000089615e16565b905060006157f0828c615cd2565b90506000615806670de0b6b3a764000083615e16565b905060006158148583615af9565b9b5050505050505050505050509695505050505050565b604080517f23b872dd000000000000000000000000000000000000000000000000000000008152600160a060020a0384811660048301523060248301526044820184905291516000928616916323b872dd91606480830192602092919082900301818787803b15801561589d57600080fd5b505af11580156158b1573d6000803e3d6000fd5b505050506040513d60208110156158c757600080fd5b505160408051808201909152600f81527f4552525f45524332305f46414c5345000000000000000000000000000000000060208201529091508161594f5760405160e560020a62461bcd0281526020600482018181528351602484015283519092839260449091019190850190808383600083156109a357818101518382015260200161098b565b5050505050565b60408051808201909152601081527f4552525f4144445f4f564552464c4f5700000000000000000000000000000000602082015260009083830190848210156159e35760405160e560020a62461bcd0281526020600482018181528351602484015283519092839260449091019190850190808383600083156109a357818101518382015260200161098b565b509392505050565b600160a060020a038316600090815260016020526040902054615a0e9082615a99565b600160a060020a038085166000908152600160205260408082209390935590841681522054615a3d9082615956565b600160a060020a0380841660008181526001602090815260409182902094909455805185815290519193928716927fdeb3a6837278f6e9914a507e4d73f08e841d8fca434fb97d4307b3b0d3d6b10592918290030190a3505050565b600081831015615af3576040805160e560020a62461bcd02815260206004820152601460248201527f4552525f42544f4b454e5f554e444552464c4f57000000000000000000000000604482015290519081900360640190fd5b50900390565b60408051808201909152600c81527f4552525f4449565f5a45524f0000000000000000000000000000000000000000602082015260009082615b7f5760405160e560020a62461bcd0281526020600482018181528351602484015283519092839260449091019190850190808383600083156109a357818101518382015260200161098b565b50670de0b6b3a76400008302831580615ba85750670de0b6b3a7640000848281615ba557fe5b04145b6040518060400160405280601081526020017f4552525f4449565f494e5445524e414c0000000000000000000000000000000081525090615c2d5760405160e560020a62461bcd0281526020600482018181528351602484015283519092839260449091019190850190808383600083156109a357818101518382015260200161098b565b5060408051808201909152601081527f4552525f4449565f494e5445524e414c0000000000000000000000000000000060208201526002840482019082821015615cbb5760405160e560020a62461bcd0281526020600482018181528351602484015283519092839260449091019190850190808383600083156109a357818101518382015260200161098b565b506000848281615cc757fe5b049695505050505050565b6000828202831580615cec575082848281615ce957fe5b04145b6040518060400160405280601081526020017f4552525f4d554c5f4f564552464c4f570000000000000000000000000000000081525090615d715760405160e560020a62461bcd0281526020600482018181528351602484015283519092839260449091019190850190808383600083156109a357818101518382015260200161098b565b5060408051808201909152601081527f4552525f4d554c5f4f564552464c4f570000000000000000000000000000000060208201526706f05b59d3b2000082019082821015615e045760405160e560020a62461bcd0281526020600482018181528351602484015283519092839260449091019190850190808383600083156109a357818101518382015260200161098b565b506000670de0b6b3a764000082615cc7565b6000806000615e258585616449565b9150915080156040518060400160405280601181526020017f4552525f5355425f554e444552464c4f5700000000000000000000000000000081525090615eb05760405160e560020a62461bcd0281526020600482018181528351602484015283519092839260449091019190850190808383600083156109a357818101518382015260200161098b565b5090949350505050565b604080517fa9059cbb000000000000000000000000000000000000000000000000000000008152600160a060020a03848116600483015260248201849052915160009286169163a9059cbb91604480830192602092919082900301818787803b15801561589d57600080fd5b600080615f338786615af9565b90506000615f49670de0b6b3a764000083615e16565b90506000615f5b8661575e8488615cd2565b90506000615f698783615e16565b9050806000615f788d83615956565b90506000615f86828f615af9565b90506000615f9482896162ce565b90506000615fa2828f615cd2565b9050615fae818f615e16565b99505050505050505050509695505050505050565b600083880381615fd3828b615af9565b90506000615fe1828b6162ce565b90506000615fef828b615cd2565b9050806000615ffe828d615e16565b90506000616014670de0b6b3a76400008f615e16565b90506000616022828c615cd2565b9050600061603c846156f4670de0b6b3a76400008e615e16565b9950505050505050505050979650505050505050565b6156a5828261646e565b61569881616479565b600080616076888888886000615713565b905060006160848286615af9565b90506000616096876156f4898c615956565b90506160b36160a583836162ce565b670de0b6b3a7640000615e16565b93506160bf848b615cd2565b935060006160d5670de0b6b3a764000087615e16565b90506160e18582615af9565b9b9a5050505050505050505050565b6000806160fd8786615af9565b90506000616113670de0b6b3a764000085615e16565b905061611f8582615cd2565b905060006161318a6156f48c85615956565b9050600061613f82856162ce565b90506000616155670de0b6b3a764000083615e16565b90506161618a82615cd2565b9c9b505050505050505050505050565b60008061617e8588615af9565b9050600061618c8786615e16565b9050600061619a8883615af9565b905060006161a882856162ce565b90506161bc81670de0b6b3a7640000615e16565b90506161d0670de0b6b3a764000087615e16565b94506160e16161df8c83615cd2565b86615af9565b6000806161f28887615af9565b905060006162018287876164e9565b9050808803600061621a670de0b6b3a764000085615af9565b9050600061623161622b848d615af9565b836162ce565b9050600061623f828f615cd2565b909d039d9c50505050505050505050505050565b3060009081526001602052604090205461626d9082615956565b3060009081526001602052604090205560025461628a9082615956565b6002556040805182815290517f07883703ed0e86588a40d76551c92f8a4b329e3bf19765e0e6749473c1a846659181900360200190a150565b6156a53083836159eb565b60408051808201909152601681527f4552525f42504f575f424153455f544f4f5f48494748000000000000000000006020820152600090671bc16d674ec8000084111561635f5760405160e560020a62461bcd0281526020600482018181528351602484015283519092839260449091019190850190808383600083156109a357818101518382015260200161098b565b5060408051808201909152601581527f4552525f42504f575f424153455f544f4f5f4c4f5700000000000000000000006020820152836163e35760405160e560020a62461bcd0281526020600482018181528351602484015283519092839260449091019190850190808383600083156109a357818101518382015260200161098b565b5060006163ef8361651d565b905060006163fd8483615e16565b905060006164138661640e85616538565b616546565b905081616424579250610c6a915050565b60006164328784601461659d565b905061643e8282615cd2565b979650505050505050565b60008082841061645f5750508082036000616467565b505081810360015b9250929050565b6156a58230836159eb565b306000908152600160205260409020546164939082615a99565b306000908152600160205260409020556002546164b09082615a99565b6002556040805182815290517fb90306ad06b2a6ff86ddc9327db583062895ef6540e62dc50add009db5b356eb9181900360200190a150565b6000670de0b6b3a7640000849003816165028583615cd2565b905060006165108286615cd2565b9095039695505050505050565b6000670de0b6b3a764000061653183616538565b0292915050565b670de0b6b3a7640000900490565b6000806002830661655f57670de0b6b3a7640000616561565b835b90506002830492505b82156153245761657a8485615cd2565b935060028306156165925761658f8185615cd2565b90505b60028304925061656a565b60008281806165b487670de0b6b3a7640000616449565b9092509050670de0b6b3a764000080600060015b88811161666c576000670de0b6b3a7640000820290506000806165fc8a6165f785670de0b6b3a7640000615e16565b616449565b9150915061660e8761575e848c615cd2565b965061661a8784615af9565b9650866166295750505061666c565b8715616633579315935b801561663d579315935b84156166545761664d8688615e16565b9550616661565b61665e8688615956565b95505b5050506001016165c8565b5090999850505050505050505056fe4552525f5245454e5452590000000000000000000000000000000000000000004552525f535741505f4e4f545f5055424c4943000000000000000000000000004552525f4e4f545f434f4e54524f4c4c455200000000000000000000000000004552525f4e4f545f424f554e44000000000000000000000000000000000000004552525f49535f46494e414c495a454400000000000000000000000000000000a265627a7a72315820f0385a1956ef45b91f0a9de15b9f9effac7f5f5f40b60bcfdff559f82fb1f02164736f6c634300050b0032",
  "source": "// This program is free software: you can redistribute it and/or modify\n// it under the terms of the GNU General Public License as published by\n// the Free Software Foundation, either version 3 of the License, or\n// (at your option) any later version.\n\n// This program is distributed in the hope that it will be useful,\n// but WITHOUT ANY WARRANTY; without even the implied warranty of\n// MERCHANTABILITY or FITNESS FOR A PARTICULAR PURPOSE.  See the\n// GNU General Public License for more details.\n\n// You should have received a copy of the GNU General Public License\n// along with this program.  If not, see <http://www.gnu.org/licenses/>.\n\npragma solidity ^0.5.11;\n\nimport \"contracts/BColor.sol\";\nimport \"contracts/BToken.sol\";\nimport \"contracts/BMath.sol\";\n\ncontract BPool is BBronze, BToken, BMath\n{\n    // Invariant: if any one field of a Record is zero, then the rest are zero\n    // Invariant: MIN_WEIGHT < denorm < MAX_WEIGHT\n    // Invariant: MIN_BALANCE < balance < MAX_BALANCE\n    struct Record {\n        uint index;   // private and off-by-one to maintain invariant\n        uint denorm;  // denormalized weight\n        uint balance;\n    }\n\n    event LOG_SWAP( address indexed caller\n                  , address indexed tokenIn\n                  , address indexed tokenOut\n                  , uint256         amountIn\n                  , uint256         amountOut );\n\n    event LOG_CALL( bytes4  indexed sig\n                  , address indexed caller\n                  , bytes           data\n                  )\n          anonymous;\n\n    modifier _logs_() {\n        emit LOG_CALL(msg.sig, msg.sender, msg.data);\n        _;\n    }\n\n    modifier _lock_() {\n        require( !_mutex, ERR_REENTRY);\n        _mutex = true;\n        _;\n        _mutex = false;\n    }\n\n    modifier _viewlock_() {\n        require( !_mutex, ERR_REENTRY);\n        _;\n    }\n\n    bool                      _mutex; // TODO: consider  messageNonce\n\n    // Emulates a rudimentary role-based access control system\n    address                   _factory;    // has FACTORY role\n    address                   _controller; // has CONTROL role\n    bool                      _publicSwap; // true if PUBLIC can call SWAP functions\n    bool                      _publicJoin; // true if PUBLIC can call JOIN functions\n\n    // `setFees` and `finalize` require CONTROL\n    // `finalize` sets `PUBLIC can SWAP`, `PUBLIC can JOIN`, and sets `_controller` to NULL\n    uint                      _swapFee;\n    uint                      _exitFee;\n    bool                      _finalized;\n\n    address[]                 _tokens;\n    mapping(address=>Record)  _records;\n    uint                      _totalWeight;\n\n    constructor() public {\n        _controller = msg.sender;\n        _factory = msg.sender;\n        _publicSwap = false;\n        _publicJoin = false;\n        _finalized = false;\n    }\n\n    function isPublicSwap()\n      public view returns (bool) {\n        return _publicSwap;\n    }\n\n    function isPublicJoin()\n      public view returns (bool) {\n        return _publicJoin;\n    }\n\n    function isFinalized()\n      public view returns (bool) {\n        return _finalized;\n    }\n\n    function isBound(address t) public view returns (bool) {\n        return _records[t].index != 0;\n    }\n\n    function getNumTokens()\n      public view returns (uint) {\n        return _tokens.length;\n    }\n\n    function getCurrentTokens()\n      public view _viewlock_\n        returns (address[] memory tokens)\n    {\n        return _tokens;\n    }\n\n    function getFinalTokens()\n      public view _viewlock_\n        returns (address[] memory tokens)\n    {\n        require(_finalized, ERR_NOT_FINALIZED);\n        return _tokens;\n    }\n\n    function getDenormalizedWeight(address token)\n      public view _viewlock_\n        returns (uint)\n    {\n        require( isBound(token), ERR_NOT_BOUND);\n        return _records[token].denorm;\n    }\n\n    function getTotalDenormalizedWeight()\n      public view _viewlock_\n      returns (uint)\n    {\n        return _totalWeight;\n    }\n\n    function getNormalizedWeight(address token)\n      public view _viewlock_\n      returns (uint)\n    {\n        require( isBound(token), ERR_NOT_BOUND);\n        uint denorm = _records[token].denorm;\n        return bdiv(denorm, _totalWeight);\n    }\n\n    function getBalance(address token)\n      public view _viewlock_\n      returns (uint)\n    {\n        require( isBound(token), ERR_NOT_BOUND);\n        return _records[token].balance;\n    }\n\n    function getFees()\n      public view _viewlock_\n        returns (uint,uint)\n    {\n        return (_swapFee, _exitFee);\n    }\n\n    function getController()\n      public view _viewlock_\n        returns (address) {\n        return _controller;\n    }\n\n    function setFees(uint swapFee, uint exitFee)\n      _logs_\n      _lock_\n      public\n    { \n        require( ! _finalized, ERR_IS_FINALIZED);\n        require(msg.sender == _controller, ERR_NOT_CONTROLLER);\n        // TODO min fees\n        require(swapFee <= MAX_FEE, ERR_MAX_FEE);\n        require(exitFee <= MAX_FEE, ERR_MAX_FEE);\n        _swapFee = swapFee;\n        _exitFee = exitFee;\n    }\n\n    function setController(address manager)\n      _logs_\n      _lock_\n      public\n    {\n        require(msg.sender == _controller, ERR_NOT_CONTROLLER);\n        _controller = manager;\n    }\n\n    function setPublicSwap(bool public_)\n        _logs_\n        _lock_\n        public\n    {\n        require( ! _finalized, ERR_IS_FINALIZED);\n        require(msg.sender == _controller, ERR_NOT_CONTROLLER);\n        _publicSwap = public_;\n    }\n\n    function setPublicJoin(bool public_)\n        _logs_\n        _lock_\n        public\n    {\n        require( ! _finalized, ERR_IS_FINALIZED);\n        require(msg.sender == _controller, ERR_NOT_CONTROLLER);\n        _publicJoin = public_;\n    }\n\n    function finalize(uint initSupply)\n      _logs_\n      _lock_\n      public\n    {\n        require(msg.sender == _controller, ERR_NOT_CONTROLLER);\n        require( !_finalized, ERR_IS_FINALIZED);\n        require(initSupply >= MIN_POOL_SUPPLY, ERR_MIN_POOL_SUPPLY);\n\n        _finalized = true;\n        _publicSwap = true;\n        _publicJoin = true;\n\n        _mintPoolShare(initSupply);\n        _pushPoolShare(msg.sender, initSupply);\n    }\n\n\n    function bind(address token, uint balance, uint denorm)\n      _logs_\n      // _lock_  Bind does not lock because it jumps to `rebind`, which does\n      public\n    {\n        require(msg.sender == _controller, ERR_NOT_CONTROLLER);\n        require( ! isBound(token), ERR_IS_BOUND);\n        require( ! isFinalized(), ERR_IS_FINALIZED);\n\n        require(_tokens.length < MAX_BOUND_TOKENS, ERR_MAX_TOKENS);\n\n        uint length = _tokens.push(token);\n        _records[token] = Record({\n            index: length // 1-indexed (0 is 'unbound' state)\n          , denorm: 0    // balance and denorm will be validated\n          , balance: 0   // and set by `rebind`\n        });\n        rebind(token, balance, denorm);\n    }\n\n    function rebind(address token, uint balance, uint denorm)\n      _logs_\n      _lock_\n      public\n    {\n        require(msg.sender == _controller, ERR_NOT_CONTROLLER);\n        require(isBound(token), ERR_NOT_BOUND);\n        require( ! _finalized, ERR_IS_FINALIZED);\n\n        require(denorm >= MIN_WEIGHT, ERR_MIN_WEIGHT);\n        require(denorm <= MAX_WEIGHT, ERR_MAX_WEIGHT);\n        require(balance >= MIN_BALANCE, ERR_MIN_BALANCE);\n        require(balance <= MAX_BALANCE, ERR_MAX_BALANCE);\n\n        uint oldWeight = _records[token].denorm;\n        if (denorm > oldWeight) {\n            _totalWeight = badd(_totalWeight, bsub(denorm, oldWeight));\n            require( _totalWeight < MAX_TOTAL_WEIGHT, ERR_MAX_TOTAL_WEIGHT );\n        } else {\n            _totalWeight = bsub(_totalWeight, bsub(oldWeight, denorm));\n        }        \n        _records[token].denorm = denorm;\n\n        uint oldBalance = _records[token].balance;\n        _records[token].balance = balance;\n\n        if (balance > oldBalance) {\n            _pullUnderlying(token, msg.sender, bsub(balance, oldBalance));\n        } else if( balance < oldBalance) {\n            _pushUnderlying(token, msg.sender, bsub(oldBalance, balance));\n        }\n    }\n\n    function unbind(address token)\n        _logs_\n        _lock_\n        public\n    {\n        require(msg.sender == _controller, ERR_NOT_CONTROLLER);\n        require(isBound(token), ERR_NOT_BOUND);\n\n        _pushUnderlying(token, msg.sender, _records[token].balance);\n        _totalWeight = bsub(_totalWeight, _records[token].denorm);\n\n        // Swap the token-to-unbind with the last token,\n        // then delete the last token\n        uint index = _records[token].index - 1;\n        uint last = _tokens.length - 1;\n        _tokens[index] = _tokens[last];\n        _records[_tokens[index]].index = index + 1;\n        _tokens.pop();\n        _records[token] = Record({\n            index: 0\n          , denorm: 0\n          , balance: 0\n        });\n    }\n\n    // Absorb any tokens that have been sent to this contract into the pool\n    function gulp(address token)\n      _logs_\n      _lock_\n      public\n    {\n        require(isBound(token), ERR_NOT_BOUND);\n        _records[token].balance = ERC20(token).balanceOf(address(this));\n    }\n\n    function collect()\n      _logs_\n      _lock_\n      public returns (uint collected)\n    {\n        require(msg.sender == _factory, ERR_NOT_FACTORY);\n        uint fees = _balance[_factory];\n        _pushPoolShare(_factory, fees);\n        return (collected = fees);\n    }\n\n    function getSpotPrice(address Ti, address To)\n      public view\n        _viewlock_\n        returns (uint P)\n    {\n        require(isBound(Ti), ERR_NOT_BOUND);\n        require(isBound(To), ERR_NOT_BOUND);\n        Record storage I = _records[Ti];\n        Record storage O = _records[To];\n        return _calc_SpotPrice(I.balance, I.denorm, O.balance, O.denorm, _swapFee);\n    }\n\n    function getSpotRate(address Ti, address To)\n      public view\n        _viewlock_\n        returns (uint R)\n    {\n        require(isBound(Ti), ERR_NOT_BOUND);\n        require(isBound(To), ERR_NOT_BOUND);\n        Record storage I = _records[Ti];\n        Record storage O = _records[To];\n        return _calc_SpotRate(I.balance, I.denorm, O.balance, O.denorm, _swapFee);\n    }\n\n    function getSpotPriceSansFee(address Ti, address To)\n      public view\n        _viewlock_\n        returns (uint P)\n    {\n        require(isBound(Ti), ERR_NOT_BOUND);\n        require(isBound(To), ERR_NOT_BOUND);\n        Record storage I = _records[Ti];\n        Record storage O = _records[To];\n        return _calc_SpotPrice(I.balance, I.denorm, O.balance, O.denorm, 0);\n    }\n\n    function getSpotRateSansFee(address Ti, address To)\n      public view\n        _viewlock_\n        returns (uint P)\n    {\n        require(isBound(Ti), ERR_NOT_BOUND);\n        require(isBound(To), ERR_NOT_BOUND);\n        Record storage I = _records[Ti];\n        Record storage O = _records[To];\n        return _calc_SpotRate(I.balance, I.denorm, O.balance, O.denorm, 0);\n    }\n\n    function joinPool(uint poolAo)\n      public\n        _logs_\n        _lock_\n    {\n        require(_finalized, ERR_NOT_FINALIZED);\n        require(isPublicJoin(), ERR_JOIN_NOT_PUBLIC);\n\n        uint poolTotal = totalSupply();\n        uint ratio = bdiv(poolAo, poolTotal);\n        for( uint i = 0; i < _tokens.length; i++ ) {\n            address t = _tokens[i];\n            uint bal = _records[t].balance;\n            uint tAi = bmul(ratio, bal);\n            _records[t].balance = badd(_records[t].balance, tAi);\n            _pullUnderlying(t, msg.sender, tAi);\n        }\n        _mintPoolShare(poolAo);\n        _pushPoolShare(msg.sender, poolAo);\n    }\n\n    function exitPool(uint poolAi)\n      public\n        _logs_\n        _lock_\n    {\n        require(_finalized, ERR_NOT_FINALIZED);\n\n        uint poolTotal = totalSupply();\n        uint ratio = bdiv(poolAi, poolTotal);\n       \n        _pullPoolShare(msg.sender, poolAi); \n        _burnPoolShare(poolAi);\n\n        for( uint i = 0; i < _tokens.length; i++ ) {\n            address t = _tokens[i];\n            uint bal = _records[t].balance;\n            uint tAo = bmul(ratio, bal);\n            _records[t].balance = bsub(_records[t].balance, tAo);\n            _pushUnderlying(t, msg.sender, tAo);\n        }\n    }\n\n\n    function swap_ExactAmountIn(address Ti, uint Ai, address To, uint Lo, uint LP)\n        _logs_\n        _lock_\n        public returns (uint Ao, uint MP)\n    {\n        \n        require( isBound(Ti), ERR_NOT_BOUND );\n        require( isBound(To), ERR_NOT_BOUND );\n        require( isPublicSwap(), ERR_SWAP_NOT_PUBLIC );\n\n        Record storage I = _records[address(Ti)];\n        Record storage O = _records[address(To)];\n\n        require( Ai <= bmul(I.balance, MAX_IN_RATIO), ERR_MAX_IN_RATIO );\n\n        uint SP0 = _calc_SpotPrice(I.balance, I.denorm, O.balance, O.denorm, _swapFee);\n        require( LP >= SP0, ERR_ARG_LIMIT_IN);\n\n        Ao = _calc_OutGivenIn(I.balance, I.denorm, O.balance, O.denorm, Ai, _swapFee);\n        require( Ao >= Lo, ERR_LIMIT_OUT );\n\n        I.balance = badd(I.balance, Ai);\n        O.balance = bsub(O.balance, Ao);\n\n        uint SP1 = _calc_SpotPrice(I.balance, I.denorm, O.balance, O.denorm, _swapFee);\n        require(SP1 <= LP, ERR_LIMIT_PRICE);\n\n        _pullUnderlying(Ti, msg.sender, Ai);\n        _pushUnderlying(To, msg.sender, Ao);\n\n        emit LOG_SWAP(msg.sender, Ti, To, Ai, Ao);\n\n        return (Ao, SP1);\n    }\n\n    function swap_ExactAmountOut(address Ti, uint Li, address To, uint Ao, uint PL)\n        _logs_\n        _lock_ \n        public returns (uint Ai, uint MP)\n    {\n        require( isBound(Ti), ERR_NOT_BOUND);\n        require( isBound(To), ERR_NOT_BOUND);\n        require( isPublicSwap(), ERR_SWAP_NOT_PUBLIC );\n\n        Record storage I = _records[address(Ti)];\n        Record storage O = _records[address(To)];\n\n        require(Ao <= bmul(O.balance, MAX_OUT_RATIO), ERR_MAX_OUT_RATIO );\n\n        uint SR0 = _calc_SpotRate(I.balance, I.denorm, O.balance, O.denorm, _swapFee);\n        require(PL < SR0, ERR_ARG_LIMIT_PRICE );\n\n        Ai = _calc_InGivenOut(I.balance, I.denorm, O.balance, O.denorm, Ao, _swapFee);\n        require( Ai <= Li, ERR_LIMIT_IN);\n\n        I.balance = badd(I.balance, Ai);\n        O.balance = bsub(O.balance, Ao);\n\n        uint SR1 = _calc_SpotRate(I.balance, I.denorm, O.balance, O.denorm, _swapFee);\n        require( SR1 >= PL, ERR_LIMIT_PRICE);\n\n        _pullUnderlying(Ti, msg.sender, Ai);\n        _pushUnderlying(To, msg.sender, Ao);\n\n        emit LOG_SWAP(msg.sender, Ti, To, Ai, Ao);\n\n        return (Ai, SR1);\n    }\n\n    function swap_ExactMarginalPrice(address Ti, uint Li, address To, uint Lo, uint MP)\n        _logs_\n        _lock_\n        public returns (uint Ai, uint Ao)\n    {\n        require( isBound(Ti), ERR_NOT_BOUND);\n        require( isBound(To), ERR_NOT_BOUND);\n        require( isPublicSwap(), ERR_SWAP_NOT_PUBLIC );\n\n        Record storage I = _records[address(Ti)];\n        Record storage O = _records[address(To)];\n\n        require(Ao <= bmul(O.balance, MAX_OUT_RATIO), ERR_MAX_OUT_RATIO);\n\n        uint SR0 = _calc_SpotRate(I.balance, I.denorm, O.balance, O.denorm, _swapFee);\n        require(MP < SR0, ERR_ARG_LIMIT_PRICE);\n\n        Ai = _calc_InGivenPrice( I.balance, I.denorm, O.balance, O.denorm, MP, _swapFee );\n        Ao = _calc_OutGivenIn( I.balance, I.denorm, O.balance, O.denorm, Ai, _swapFee );\n\n        require( Ai <= Li, ERR_LIMIT_IN);\n        require( Ao >= Lo, ERR_LIMIT_OUT);\n\n        I.balance = badd(I.balance, Ai);\n        O.balance = bsub(O.balance, Ao);\n\n        _pullUnderlying(Ti, msg.sender, Ai);\n        _pushUnderlying(To, msg.sender, Ao);\n\n        emit LOG_SWAP(msg.sender, Ti, To, Ai, Ao);\n\n        return (Ai, Ao);\n    }\n\n    function joinswap_ExternAmountIn(address Ti, uint256 tAi)\n      public\n        _logs_\n        _lock_\n        returns (uint poolAo)\n    {\n        require( isBound(Ti), ERR_NOT_BOUND );\n        require( isPublicSwap(), ERR_SWAP_NOT_PUBLIC );\n\n        uint oldPoolTotal = _totalSupply;\n\n        Record storage T = _records[Ti];\n\n        poolAo = _calc_PoolOutGivenSingleIn(T.balance, T.denorm, _totalSupply, _totalWeight, tAi, _swapFee);\n\n        _mintPoolShare(poolAo);\n        _pushPoolShare(msg.sender, poolAo);\n        _pullUnderlying(Ti, msg.sender, tAi);\n        T.balance = badd(T.balance, tAi);\n        return poolAo;\n    }\n\n    function joinswap_PoolAmountOut(uint pAo, address Ti)\n      public\n        _logs_\n        _lock_\n        returns (uint tAi)\n    {\n        require( isBound(Ti), ERR_NOT_BOUND );\n        require( isPublicSwap(), ERR_SWAP_NOT_PUBLIC );\n\n        Record storage T = _records[Ti];\n\n        tAi = _calc_SingleInGivenPoolOut(T.balance, T.denorm, _totalSupply, _totalWeight, pAo, _swapFee);\n\n        _mintPoolShare(pAo);\n        _pushPoolShare(msg.sender, pAo);\n        _pullUnderlying(Ti, msg.sender, tAi);\n        T.balance = badd(T.balance, tAi);\n        return tAi;\n    }\n\n    function exitswap_PoolAmountIn(uint pAi, address To)\n      public\n        _logs_\n        _lock_\n        returns (uint tAo)\n    {\n        require( isBound(To), ERR_NOT_BOUND );\n        require( isPublicSwap(), ERR_SWAP_NOT_PUBLIC );\n\n        Record storage T = _records[To];\n\n        tAo = _calc_SingleOutGivenPoolIn(T.balance, T.denorm, _totalSupply, _totalWeight, pAi, _swapFee, _exitFee);\n\n        _pullPoolShare(msg.sender, pAi);\n        _burnPoolShare(pAi);\n        _pushUnderlying(To, msg.sender, tAo);\n        T.balance = bsub(T.balance, tAo);\n        return tAo;\n    }\n\n    function exitswap_ExternAmountOut(address To, uint tAo)\n      public\n        _logs_\n        _lock_\n        returns (uint pAi)\n    {\n        require( isBound(To), ERR_NOT_BOUND );\n        require( isPublicSwap(), ERR_SWAP_NOT_PUBLIC );\n\n        Record storage T = _records[To];\n\n        uint poolAoBeforeFees = _calc_PoolInGivenSingleOut(T.balance, T.denorm, _totalSupply, _totalWeight, tAo, _swapFee, _exitFee);\n     \n        _pullPoolShare(msg.sender, poolAoBeforeFees );  // Pull poolAoBeforeFees , not just poolAo \n        _burnPoolShare(poolAoBeforeFees);    \n        _pushUnderlying(To, msg.sender, tAo);\n        T.balance = bsub(T.balance, tAo);\n        return poolAoBeforeFees;\n    }\n\n\n    // ==\n    // 'Underlying' token-manipulation functions make external calls but are NOT locked\n    // You must `_lock_` or otherwise ensure reentry-safety\n\n    function _pullUnderlying(address erc20, address from, uint amt)\n      internal\n    {\n        bool xfer = ERC20(erc20).transferFrom(from, address(this), amt);\n        require(xfer, ERR_ERC20_FALSE);\n    }\n\n    function _pushUnderlying(address erc20, address to, uint amt)\n      internal\n    {\n        bool xfer = ERC20(erc20).transfer(to, amt);\n        require(xfer, ERR_ERC20_FALSE);\n    }\n\n    function _pullPoolShare(address from, uint amount)\n      internal {\n        _pull(from, amount);\n    }\n\n    function _pushPoolShare(address to, uint amount)\n      internal {\n        _push(to, amount);\n    }\n\n    function _mintPoolShare(uint amount)\n      internal {\n        _mint(amount);\n    }\n\n    function _burnPoolShare(uint amount)\n      internal {\n        _burn(amount);\n    }\n\n}\n",
  "sourcePath": "contracts/BPool.sol",
  "compiler": {
    "name": "solc",
    "version": "0.5.11+commit.c082d0b4.Emscripten.clang"
  },
  "schemaVersion": "3.0.16",
  "updatedAt": "2019-10-18T14:37:05.699Z",
  "devdoc": {
    "methods": {}
  },
  "userdoc": {
    "methods": {}
  }
}