{
  "contractName": "CRPFactory",
  "abi": [
    {
      "anonymous": false,
      "inputs": [
        {
          "indexed": true,
          "internalType": "address",
          "name": "caller",
          "type": "address"
        },
        {
          "indexed": true,
          "internalType": "address",
          "name": "pool",
          "type": "address"
        }
      ],
      "name": "LogNewCrp",
      "type": "event"
    },
    {
      "inputs": [
        {
          "internalType": "address",
          "name": "addr",
          "type": "address"
        }
      ],
      "name": "isCrp",
      "outputs": [
        {
          "internalType": "bool",
          "name": "",
          "type": "bool"
        }
      ],
      "stateMutability": "view",
      "type": "function"
    },
    {
      "inputs": [
        {
          "internalType": "address",
          "name": "factoryAddress",
          "type": "address"
        },
        {
          "internalType": "string",
          "name": "symbol",
          "type": "string"
        },
        {
          "internalType": "address[]",
          "name": "tokens",
          "type": "address[]"
        },
        {
          "internalType": "uint256[]",
          "name": "startBalances",
          "type": "uint256[]"
        },
        {
          "internalType": "uint256[]",
          "name": "startWeights",
          "type": "uint256[]"
        },
        {
          "internalType": "uint256",
          "name": "swapFee",
          "type": "uint256"
        },
        {
          "components": [
            {
              "internalType": "bool",
              "name": "canPauseSwapping",
              "type": "bool"
            },
            {
              "internalType": "bool",
              "name": "canChangeSwapFee",
              "type": "bool"
            },
            {
              "internalType": "bool",
              "name": "canChangeWeights",
              "type": "bool"
            },
            {
              "internalType": "bool",
              "name": "canAddRemoveTokens",
              "type": "bool"
            },
            {
              "internalType": "bool",
              "name": "canWhitelistLPs",
              "type": "bool"
            },
            {
              "internalType": "bool",
              "name": "canChangeCap",
              "type": "bool"
            }
          ],
          "internalType": "struct RightsManager.Rights",
          "name": "rights",
          "type": "tuple"
        }
      ],
      "name": "newCrp",
      "outputs": [
        {
          "internalType": "contract ConfigurableRightsPool",
          "name": "",
          "type": "address"
        }
      ],
      "stateMutability": "nonpayable",
      "type": "function"
    }
  ],
  "bytecode": "0x608060405234801561001057600080fd5b50615ff5806100206000396000f3fe60806040523480156200001157600080fd5b50600436106200003d5760e060020a60003504635f93074c811462000042578063dc19e8421462000071575b600080fd5b62000059620000533660046200033f565b62000097565b60405162000068919062000511565b60405180910390f35b62000088620000823660046200031a565b62000229565b60405162000068919062000608565b60006002881015620000c95760405160e560020a62461bcd028152600401620000c09062000681565b60405180910390fd5b858814620000ee5760405160e560020a62461bcd028152600401620000c0906200064a565b838814620001135760405160e560020a62461bcd028152600401620000c09062000613565b60008c8c8c8c8c8c8c8c8c8c8c6040516200012e9062000247565b620001449b9a9998979695949392919062000525565b604051809103906000f08015801562000161573d6000803e3d6000fd5b50600160a060020a03811660008181526020819052604090819020805460ff191660011790555160e060020a6392eefe9b028152919250906392eefe9b90620001af90339060040162000511565b600060405180830381600087803b158015620001ca57600080fd5b505af1158015620001df573d6000803e3d6000fd5b5050604051600160a060020a03841692503391507f8aaa45dbe91f274e1c80489691f3d62dbf595d587fcc6a989fa27696e7c2a23290600090a39c9b505050505050505050505050565b600160a060020a031660009081526020819052604090205460ff1690565b6158e080620006e083390190565b8035600160a060020a03811681146200026d57600080fd5b92915050565b60008083601f84011262000285578182fd5b50813567ffffffffffffffff8111156200029d578182fd5b6020830191508360208083028501011115620002b857600080fd5b9250929050565b60008083601f840112620002d1578182fd5b50813567ffffffffffffffff811115620002e9578182fd5b602083019150836020828501011115620002b857600080fd5b600060c0828403121562000314578081fd5b50919050565b6000602082840312156200032c578081fd5b62000338838362000255565b9392505050565b60008060008060008060008060008060006101808c8e03121562000361578687fd5b6200036d8d8d62000255565b9a5067ffffffffffffffff8060208e0135111562000389578788fd5b6200039b8e60208f01358f01620002bf565b909b50995060408d0135811015620003b1578788fd5b620003c38e60408f01358f0162000273565b909950975060608d0135811015620003d9578687fd5b620003eb8e60608f01358f0162000273565b909750955060808d013581101562000401578485fd5b50620004148d60808e01358e0162000273565b909450925060a08c013591506200042f8d60c08e0162000302565b90509295989b509295989b9093969950565b600160a060020a0316815260200190565b8183526000600160fb60020a038311156200046b578081fd5b6020830280836020870137939093016020019283525090919050565b80356200049481620006cd565b151582526020810135620004a881620006cd565b151560208301526040810135620004bf81620006cd565b151560408301526060810135620004d681620006cd565b151560608301526080810135620004ed81620006cd565b1515608083015260a08101356200050481620006cd565b80151560a0840152505050565b600160a060020a0391909116815260200190565b600160a060020a038c168152610180602082018190526000906200054c8c848301620006b8565b90506200055b8c828f620006c1565b601f8c01601f191601828103604084015280620005798b82620006b8565b90508b9150825b8b811015620005b25760208301620005a4836200059e838762000255565b62000441565b909350915060010162000580565b508381036060850152620005c8818a8c62000452565b9150508281036080840152620005e081878962000452565b9150508360a0830152620005f860c083018462000487565b9c9b505050505050505050505050565b901515815260200190565b6020808252601a908201527f4552525f53544152545f574549474854535f4d49534d41544348000000000000604082015260600190565b6020808252601b908201527f4552525f53544152545f42414c414e4345535f4d49534d415443480000000000604082015260600190565b60208082526012908201527f4552525f544f4f5f4645575f544f4b454e530000000000000000000000000000604082015260600190565b90815260200190565b82818337506000910152565b8015158114620006dc57600080fd5b5056fe60806040523480156200001157600080fd5b50604051620058e0380380620058e083398101604081905262000034916200069f565b855186906200004b9060039060208401906200030f565b505060048054600160a060020a031916331790556001600555620f4240670de0b6b3a764000004821015620000b7576040517f08c379a0000000000000000000000000000000000000000000000000000000008152600401620000ae906200082a565b60405180910390fd5b67016345785d8a0000821115620000fc576040517f08c379a0000000000000000000000000000000000000000000000000000000008152600401620000ae906200082a565b84518451146200013a576040517f08c379a0000000000000000000000000000000000000000000000000000000008152600401620000ae90620007bc565b845183511462000178576040517f08c379a0000000000000000000000000000000000000000000000000000000008152600401620000ae9062000785565b600285511015620001b7576040517f08c379a0000000000000000000000000000000000000000000000000000000008152600401620000ae90620007f3565b600885511115620001f6576040517f08c379a0000000000000000000000000000000000000000000000000000000008152600401620000ae9062000861565b60068054600160a060020a031916600160a060020a03891617905580516008805460208085015160408601516060870151608088015160a089015160ff199096169715159790971761ff001916610100931515939093029290921762ff0000191662010000911515919091021763ff00000019166301000000911515919091021764ff000000001916640100000000941515949094029390931765ff0000000000191665010000000000911515919091021790558551620002be91600e919088019062000394565b508351620002d490600f906020870190620003fa565b508251620002ea906012906020860190620003fa565b5050600d555050600a60148190556015555050600060105550600019601755620008f1565b828054600181600116156101000203166002900490600052602060002090601f016020900481019282601f106200035257805160ff191683800117855562000382565b8280016001018555821562000382579182015b828111156200038257825182559160200191906001019062000365565b506200039092915062000437565b5090565b828054828255906000526020600020908101928215620003ec579160200282015b82811115620003ec5782518254600160a060020a031916600160a060020a03909116178255602090920191600190910190620003b5565b50620003909291506200044e565b8280548282559060005260206000209081019282156200038257916020028201828111156200038257825182559160200191906001019062000365565b5b8082111562000390576000815560010162000438565b5b8082111562000390578054600160a060020a03191681556001016200044f565b8051600160a060020a03811681146200048757600080fd5b92915050565b600082601f8301126200049e578081fd5b8151620004b5620004af82620008bf565b62000898565b818152915060208083019084810181840286018201871015620004d757600080fd5b60005b848110156200050257620004ef88836200046f565b84529282019290820190600101620004da565b505050505092915050565b600082601f8301126200051e578081fd5b81516200052f620004af82620008bf565b8181529150602080830190848101818402860182018710156200055157600080fd5b60005b84811015620005025781518452928201929082019060010162000554565b600082601f83011262000583578081fd5b81516001604060020a0381111562000599578182fd5b6020620005af601f8301601f1916820162000898565b92508183528481838601011115620005c657600080fd5b60005b82811015620005e6578481018201518482018301528101620005c9565b82811115620005f85760008284860101525b50505092915050565b600060c0828403121562000613578081fd5b6200061f60c062000898565b905081516200062e81620008df565b815260208201516200064081620008df565b602082015260408201516200065581620008df565b604082015260608201516200066a81620008df565b606082015260808201516200067f81620008df565b608082015260a08201516200069481620008df565b60a082015292915050565b6000806000806000806000610180888a031215620006bb578283fd5b620006c789896200046f565b965060208801516001604060020a0380821115620006e3578485fd5b620006f18b838c0162000572565b975060408a015191508082111562000707578485fd5b620007158b838c016200048d565b965060608a01519150808211156200072b578485fd5b620007398b838c016200050d565b955060808a01519150808211156200074f578485fd5b506200075e8a828b016200050d565b93505060a08801519150620007778960c08a0162000601565b905092959891949750929550565b6020808252601a908201527f4552525f53544152545f574549474854535f4d49534d41544348000000000000604082015260600190565b6020808252601b908201527f4552525f53544152545f42414c414e4345535f4d49534d415443480000000000604082015260600190565b60208082526012908201527f4552525f544f4f5f4645575f544f4b454e530000000000000000000000000000604082015260600190565b60208082526014908201527f4552525f494e56414c49445f535741505f464545000000000000000000000000604082015260600190565b60208082526013908201527f4552525f544f4f5f4d414e595f544f4b454e5300000000000000000000000000604082015260600190565b6040518181016001604060020a0381118282101715620008b757600080fd5b604052919050565b60006001604060020a03821115620008d5578081fd5b5060209081020190565b8015158114620008ee57600080fd5b50565b614fdf80620009016000396000f3fe608060405234801561001057600080fd5b50600436106102855760003560e060020a900480636d06dfa011610161578063a835a0de116100cd578063a835a0de1461052b578063a9059cbb14610533578063b02f0b7314610546578063b64ef17b14610559578063c275d81b14610561578063c3391d2714610569578063c83a1c2d1461057c578063d73dd6231461058f578063dd62ed3e146105a2578063e211b875146105b5578063e2762d4b146105bd578063f226b5281461052b578063fde924f7146105d057610285565b80636d06dfa01461046457806370a082311461047757806374983a0d1461048a578063806c6f87146104925780638259e6a0146104a557806392eefe9b146104b8578063948d8ce6146104cb57806395d89b41146104de5780639776e94b146104e6578063980e8db6146104f95780639a82417e146105135780639d829c2b1461051b578063a3f4df7e1461052357610285565b806334e199071161020057806334e199071461037857806337c6f4d91461038b57806346ab38f11461039e57806347786d37146103b157806349b59552146103c45780634ba57882146103d75780634c20d209146103ea5780634f69c0d4146103fd578063554d578d1461041057806355c32a23146104185780635db342771461042b5780635fa7b5841461043e578063661884631461045157610285565b806302c967481461028a57806306fdde03146102b3578063095dcccc146102c8578063095ea7b3146102dd5780630a165940146102fd57806318160ddd14610312578063220eb7601461031a57806323b872dd1461032d578063246bc19b146103405780632e0f2625146103535780633018205f14610368578063313ce56714610370575b600080fd5b61029d61029836600461416f565b6105d8565b6040516102aa9190614e9a565b60405180910390f35b6102bb610796565b6040516102aa91906147a3565b6102db6102d6366004614144565b6107c6565b005b6102f06102eb366004614144565b6107f6565b6040516102aa919061458b565b61030561084e565b6040516102aa9190614519565b61029d61085d565b6102db610328366004614339565b610863565b6102f061033b366004614104565b610891565b6102db61034e36600461423c565b6109c5565b61035b610c73565b6040516102aa9190614eb1565b610305610c78565b61035b610c87565b6102db610386366004614339565b610c8c565b6102f061039936600461431a565b610de5565b61029d6103ac36600461416f565b610e7d565b6102db6103bf366004614339565b611022565b6102db6103d23660046142c6565b61115c565b6102db6103e5366004614339565b611271565b6102db6103f836600461416f565b611334565b6102db61040b366004614369565b6114c8565b61029d611818565b6102db610426366004614144565b61184c565b61029d61043936600461416f565b611878565b6102db61044c3660046140b0565b611ad0565b6102f061045f366004614144565b611d14565b61029d61047236600461416f565b611dee565b61029d6104853660046140b0565b611fae565b610305611fc9565b6102f06104a03660046140b0565b611fe1565b6102db6104b3366004614339565b61202b565b6102db6104c63660046140b0565b612596565b61029d6104d93660046140b0565b612648565b6102bb61271e565b6102db6104f4366004614144565b6127b4565b61050161290c565b6040516102aa96959493929190614596565b610305612948565b610305612960565b6102bb612978565b61029d6129aa565b6102f0610541366004614144565b6129af565b6102db610554366004614369565b6129ee565b610305612c66565b6102db612c75565b6102db610577366004614469565b612de3565b6102db61058a3660046140b0565b6133b2565b6102f061059d366004614144565b6134b2565b61029d6105b03660046140cc565b613526565b6102db613551565b6102db6105cb3660046140b0565b61369c565b6102f06137d3565b6040516000903390600160e060020a0319833516906105fa90849036906145c6565b60405180910390a2600260055414156106315760405160e560020a62461bcd02815260040161062890614af6565b60405180910390fd5b6002600555600754600160a060020a03166106615760405160e560020a62461bcd02815260040161062890614a51565b60075460405160e260020a631ce1a8c9028152600091829173__SmartPoolManager______________________91637386a324916106b5913091600160a060020a03909116908b908b908b90600401614642565b604080518083038186803b1580156106cc57600080fd5b505af41580156106e0573d6000803e3d6000fd5b505050506040513d601f19601f8201168201806040525081019061070491906143f8565b91509150809250600061071784846138e6565b905086600160a060020a031633600160a060020a0316600080516020614f2a8339815191528860405161074a9190614e9a565b60405180910390a361075c338561186e565b61076581610885565b60065461077b90600160a060020a0316846107e8565b610786873388613922565b5050505b60016005559392505050565b6040805180820190915260138152606a60020a7210985b185b98d95c8814db585c9d08141bdbdb02602082015290565b3330146107e85760405160e560020a62461bcd028152600401610628906147f6565b6107f28282613b7d565b5050565b336000818152600260209081526040808320600160a060020a03871680855292528083208590555191929091600080516020614f6a8339815191529061083d908690614e9a565b60405180910390a350600192915050565b600654600160a060020a031681565b60005490565b3330146108855760405160e560020a62461bcd028152600401610628906147f6565b61088e81613b88565b50565b6000600160a060020a0383166108bc5760405160e560020a62461bcd02815260040161062890614975565b33600160a060020a03851614806108f65750600160a060020a03841660009081526002602090815260408083203384529091529020548211155b6109155760405160e560020a62461bcd02815260040161062890614c31565b610920848484613bf0565b600160a060020a038416600081815260026020908152604080832033808552925290912054911480159061095657506000198114155b156109b85761096581846138e6565b600160a060020a038681166000908152600260209081526040808320338085529252918290208490559051918716929091600080516020614f6a833981519152916109af91614e9a565b60405180910390a35b60019150505b9392505050565b33600160a060020a0316600035600160e060020a031916600160e060020a0319166000366040516109f79291906145c6565b60405180910390a260026005541415610a255760405160e560020a62461bcd02815260040161062890614af6565b6002600555600454600160a060020a03163314610a575760405160e560020a62461bcd028152600401610628906147f6565b600754600160a060020a0316610a825760405160e560020a62461bcd02815260040161062890614a51565b60085462010000900460ff16610aad5760405160e560020a62461bcd028152600401610628906149e3565b6007546040805160e060020a63cc77828d0281529051606092600160a060020a03169163cc77828d916004808301926000929190829003018186803b158015610af557600080fd5b505afa158015610b09573d6000803e3d6000fd5b505050506040513d6000823e601f3d908101601f19168201604052610b3191908101906141a3565b80519091508414610b575760405160e560020a62461bcd028152600401610628906148d0565b60075460145460405160e260020a630500fe7b02815260009260609273__SmartPoolManager______________________92631403f9ec92610bb392600160a060020a03909116916009918d918d918d918d919060040161470f565b60006040518083038186803b158015610bcb57600080fd5b505af4158015610bdf573d6000803e3d6000fd5b505050506040513d6000823e601f3d908101601f19168201604052610c0791908101906143b3565b601082905560118690559092509050610c2260138888613fa0565b5060005b8351811015610c6457818181518110610c3b57fe5b602002602001015160128281548110610c5057fe5b600091825260209091200155600101610c26565b50506001600555505050505050565b601281565b600454600160a060020a031690565b601290565b33600160a060020a0316600035600160e060020a031916600160e060020a031916600036604051610cbe9291906145c6565b60405180910390a260026005541415610cec5760405160e560020a62461bcd02815260040161062890614af6565b6002600555600454600160a060020a03163314610d1e5760405160e560020a62461bcd028152600401610628906147f6565b600754600160a060020a0316610d495760405160e560020a62461bcd02815260040161062890614a51565b600854610100900460ff16610d735760405160e560020a62461bcd02815260040161062890614db2565b600d81905560075460405160e060020a6334e19907028152600160a060020a03909116906334e1990790610dab908490600401614e9a565b600060405180830381600087803b158015610dc557600080fd5b505af1158015610dd9573d6000803e3d6000fd5b50506001600555505050565b60405160e160020a6322c1aa2502815260009073__RightsManager_________________________90634583544a90610e25906008908690600401614e20565b60206040518083038186803b158015610e3d57600080fd5b505af4158015610e51573d6000803e3d6000fd5b505050506040513d601f19601f82011682018060405250810190610e7591906142e2565b90505b919050565b6040516000903390600160e060020a031983351690610e9f90849036906145c6565b60405180910390a260026005541415610ecd5760405160e560020a62461bcd02815260040161062890614af6565b6002600555600754600160a060020a0316610efd5760405160e560020a62461bcd02815260040161062890614a51565b60075460405160e160020a633461ee95028152600091829173__SmartPoolManager______________________916368c3dd2a91610f51913091600160a060020a03909116908b908b908b90600401614642565b604080518083038186803b158015610f6857600080fd5b505af4158015610f7c573d6000803e3d6000fd5b505050506040513d601f19601f82011682018060405250810190610fa091906143f8565b915091508092506000610fb386846138e6565b905086600160a060020a031633600160a060020a0316600080516020614f2a83398151915286604051610fe69190614e9a565b60405180910390a3610ff8338761186e565b61100181610885565b60065461101790600160a060020a0316846107e8565b610786873386613922565b33600160a060020a0316600035600160e060020a031916600160e060020a0319166000366040516110549291906145c6565b60405180910390a2600260055414156110825760405160e560020a62461bcd02815260040161062890614af6565b6002600555600754600160a060020a03166110b25760405160e560020a62461bcd02815260040161062890614a51565b600454600160a060020a031633146110df5760405160e560020a62461bcd028152600401610628906147f6565b60085465010000000000900460ff1661110d5760405160e560020a62461bcd02815260040161062890614b8c565b33600160a060020a03167f6bc200110c7794738d401810b22ef824a2044a8ccb022d4ad8769840370331f56017548360405161114a929190614ea3565b60405180910390a26017556001600555565b33600160a060020a0316600035600160e060020a031916600160e060020a03191660003660405161118e9291906145c6565b60405180910390a2600260055414156111bc5760405160e560020a62461bcd02815260040161062890614af6565b6002600555600454600160a060020a031633146111ee5760405160e560020a62461bcd028152600401610628906147f6565b600754600160a060020a03166112195760405160e560020a62461bcd02815260040161062890614a51565b60085460ff1661123e5760405160e560020a62461bcd02815260040161062890614d0d565b60075460405160e160020a6324dacaa9028152600160a060020a03909116906349b5955290610dab90849060040161458b565b3330146112935760405160e560020a62461bcd028152600401610628906147f6565b61129c81613c8f565b60175430600160a060020a03166318160ddd6040518163ffffffff1660e060020a02815260040160206040518083038186803b1580156112db57600080fd5b505afa1580156112ef573d6000803e3d6000fd5b505050506040513d601f19601f820116820180604052508101906113139190614351565b111561088e5760405160e560020a62461bcd02815260040161062890614bfa565b33600160a060020a0316600035600160e060020a031916600160e060020a0319166000366040516113669291906145c6565b60405180910390a2600260055414156113945760405160e560020a62461bcd02815260040161062890614af6565b6002600555600454600160a060020a031633146113c65760405160e560020a62461bcd028152600401610628906147f6565b600754600160a060020a03166113f15760405160e560020a62461bcd02815260040161062890614a51565b6008546301000000900460ff1661141d5760405160e560020a62461bcd0281526004016106289061482d565b601054156114405760405160e560020a62461bcd02815260040161062890614de9565b60075460405160e260020a6307f9f55902815273__SmartPoolManager______________________91631fe7d5649161148e91600160a060020a0316908790879087906009906004016146de565b60006040518083038186803b1580156114a657600080fd5b505af41580156114ba573d6000803e3d6000fd5b505060016005555050505050565b33600160a060020a0316600035600160e060020a031916600160e060020a0319166000366040516114fa9291906145c6565b60405180910390a2600260055414156115285760405160e560020a62461bcd02815260040161062890614af6565b6002600555600754600160a060020a03166115585760405160e560020a62461bcd02815260040161062890614a51565b600854640100000000900460ff16158061158157503360009081526016602052604090205460ff165b6115a05760405160e560020a62461bcd0281526004016106289061493e565b60075460405160e560020a6289af5d02815260609173__SmartPoolManager______________________91631135eba0916115ef913091600160a060020a031690899089908990600401614676565b60006040518083038186803b15801561160757600080fd5b505af415801561161b573d6000803e3d6000fd5b505050506040513d6000823e601f3d908101601f19168201604052611643919081019061428b565b90506060600760009054906101000a9004600160a060020a0316600160a060020a031663cc77828d6040518163ffffffff1660e060020a02815260040160006040518083038186803b15801561169857600080fd5b505afa1580156116ac573d6000803e3d6000fd5b505050506040513d6000823e601f3d908101601f191682016040526116d491908101906141a3565b905060005b81518110156117605760008282815181106116f057fe5b60200260200101519050600084838151811061170857fe5b6020026020010151905081600160a060020a031633600160a060020a0316600080516020614f8a833981519152836040516117439190614e9a565b60405180910390a3611756823383613ced565b50506001016116d9565b5061176a85611293565b61177433866107e8565b505060175430600160a060020a03166318160ddd6040518163ffffffff1660e060020a02815260040160206040518083038186803b1580156117b557600080fd5b505afa1580156117c9573d6000803e3d6000fd5b505050506040513d601f19601f820116820180604052508101906117ed9190614351565b111561180e5760405160e560020a62461bcd02815260040161062890614bfa565b5050600160055550565b6000600260055414156118405760405160e560020a62461bcd02815260040161062890614af6565b50601754600160055590565b33301461186e5760405160e560020a62461bcd028152600401610628906147f6565b6107f28282613f48565b6040516000903390600160e060020a03198335169061189a90849036906145c6565b60405180910390a2600260055414156118c85760405160e560020a62461bcd02815260040161062890614af6565b6002600555600754600160a060020a03166118f85760405160e560020a62461bcd02815260040161062890614a51565b600854640100000000900460ff16158061192157503360009081526016602052604090205460ff165b6119405760405160e560020a62461bcd0281526004016106289061493e565b60075460405160e060020a636f50bd5d02815273__SmartPoolManager______________________91636f50bd5d9161198f913091600160a060020a0390911690899089908990600401614642565b60206040518083038186803b1580156119a757600080fd5b505af41580156119bb573d6000803e3d6000fd5b505050506040513d601f19601f820116820180604052508101906119df9190614351565b905083600160a060020a031633600160a060020a0316600080516020614f8a83398151915285604051611a129190614e9a565b60405180910390a3611a2381611293565b611a2d33826107e8565b611a38843385613ced565b60175430600160a060020a03166318160ddd6040518163ffffffff1660e060020a02815260040160206040518083038186803b158015611a7757600080fd5b505afa158015611a8b573d6000803e3d6000fd5b505050506040513d601f19601f82011682018060405250810190611aaf9190614351565b111561078a5760405160e560020a62461bcd02815260040161062890614bfa565b33600160a060020a0316600035600160e060020a031916600160e060020a031916600036604051611b029291906145c6565b60405180910390a260026005541415611b305760405160e560020a62461bcd02815260040161062890614af6565b6002600555600454600160a060020a03163314611b625760405160e560020a62461bcd028152600401610628906147f6565b600754600160a060020a0316611b8d5760405160e560020a62461bcd02815260040161062890614a51565b6008546301000000900460ff16611bb95760405160e560020a62461bcd0281526004016106289061482d565b6007546040805160e060020a63cc77828d0281529051606092600160a060020a03169163cc77828d916004808301926000929190829003018186803b158015611c0157600080fd5b505afa158015611c15573d6000803e3d6000fd5b505050506040513d6000823e601f3d908101601f19168201604052611c3d91908101906141a3565b90506002815111611c635760405160e560020a62461bcd02815260040161062890614c68565b60095460a060020a900460ff1615611c905760405160e560020a62461bcd02815260040161062890614c9f565b60075460405160e060020a63cfc3120902815273__SmartPoolManager______________________9163cfc3120991611cdb913091600160a060020a039091169087906004016145f5565b60006040518083038186803b158015611cf357600080fd5b505af4158015611d07573d6000803e3d6000fd5b5050600160055550505050565b336000908152600260209081526040808320600160a060020a0386168452909152812054808310611d6857336000908152600260209081526040808320600160a060020a0388168452909152812055611d97565b611d7281846138e6565b336000908152600260209081526040808320600160a060020a03891684529091529020555b336000818152600260209081526040808320600160a060020a038916808552925291829020549151909291600080516020614f6a83398151915291611ddc9190614e9a565b60405180910390a35060019392505050565b6040516000903390600160e060020a031983351690611e1090849036906145c6565b60405180910390a260026005541415611e3e5760405160e560020a62461bcd02815260040161062890614af6565b6002600555600754600160a060020a0316611e6e5760405160e560020a62461bcd02815260040161062890614a51565b600854640100000000900460ff161580611e9757503360009081526016602052604090205460ff165b611eb65760405160e560020a62461bcd0281526004016106289061493e565b60075460405160e060020a63c8ebc9ab02815273__SmartPoolManager______________________9163c8ebc9ab91611f05913091600160a060020a0390911690899089908990600401614642565b60206040518083038186803b158015611f1d57600080fd5b505af4158015611f31573d6000803e3d6000fd5b505050506040513d601f19601f82011682018060405250810190611f559190614351565b905083600160a060020a031633600160a060020a0316600080516020614f8a83398151915283604051611f889190614e9a565b60405180910390a3611f9983611293565b611fa333846107e8565b611a38843383613ced565b600160a060020a031660009081526001602052604090205490565b73__RightsManager_________________________90565b600854600090640100000000900460ff16156120195750600160a060020a03811660009081526016602052604090205460ff16610e78565b50600160a060020a0381161515610e78565b33600160a060020a0316600035600160e060020a031916600160e060020a03191660003660405161205d9291906145c6565b60405180910390a26002600554141561208b5760405160e560020a62461bcd02815260040161062890614af6565b6002600555600754600160a060020a0316156120bc5760405160e560020a62461bcd02815260040161062890614a88565b600081116120df5760405160e560020a62461bcd02815260040161062890614907565b600660009054906101000a9004600160a060020a0316600160a060020a031663d556c5dc6040518163ffffffff1660e060020a028152600401602060405180830381600087803b15801561213257600080fd5b505af1158015612146573d6000803e3d6000fd5b505050506040513d601f19601f8201168201806040525081019061216a91906142fe565b60078054600160a060020a031916600160a060020a0392831617908190556040805160e160020a63632c06890281529051919092169163c6580d12916004808301926020929190829003018186803b1580156121c557600080fd5b505afa1580156121d9573d6000803e3d6000fd5b505050506040513d601f19601f820116820180604052508101906121fd9190614351565b1561221d5760405160e560020a62461bcd02815260040161062890614bc3565b600754600d5460405160e060020a6334e19907028152600160a060020a03909216916334e199079161225191600401614e9a565b600060405180830381600087803b15801561226b57600080fd5b505af115801561227f573d6000803e3d6000fd5b505060085465010000000000900460ff1615915061229f90505760178190555b60005b600e548110156124d9576000600e82815481106122bb57fe5b6000918252602082200154600f8054600160a060020a03909216935090849081106122e257fe5b906000526020600020015490506000601284815481106122fe57fe5b600091825260208220015460405160e060020a6323b872dd028152909250600160a060020a038516906323b872dd9061233f9033903090889060040161452d565b602060405180830381600087803b15801561235957600080fd5b505af115801561236d573d6000803e3d6000fd5b505050506040513d601f19601f8201168201806040525081019061239191906142e2565b9050806123b35760405160e560020a62461bcd02815260040161062890614cd6565b60075460405160e060020a63095ea7b3028152600160a060020a038681169263095ea7b3926123ec929091169060001990600401614551565b602060405180830381600087803b15801561240657600080fd5b505af115801561241a573d6000803e3d6000fd5b505050506040513d601f19601f8201168201806040525081019061243e91906142e2565b9050806124605760405160e560020a62461bcd02815260040161062890614cd6565b60075460405160e360020a631c9c3ca7028152600160a060020a039091169063e4e1e538906124979087908790879060040161456a565b600060405180830381600087803b1580156124b157600080fd5b505af11580156124c5573d6000803e3d6000fd5b5050600190960195506122a2945050505050565b505b600e541561251557600e8054806124ee57fe5b60008281526020902081016000199081018054600160a060020a03191690550190556124db565b60075460405160e160020a6324dacaa9028152600160a060020a03909116906349b59552906125499060019060040161458b565b600060405180830381600087803b15801561256357600080fd5b505af1158015612577573d6000803e3d6000fd5b5050505061258481611293565b61258e33826107e8565b506001600555565b600454600160a060020a031633146125c35760405160e560020a62461bcd028152600401610628906147f6565b600160a060020a0381166125ec5760405160e560020a62461bcd02815260040161062890614975565b600454604051600160a060020a038084169216907f8be0079c531659141344cd1fd0a4f28419497f9722a3daafe3b4186f6b6457e090600090a360048054600160a060020a031916600160a060020a0392909216919091179055565b6000600260055414156126705760405160e560020a62461bcd02815260040161062890614b1e565b600754600160a060020a031661269b5760405160e560020a62461bcd02815260040161062890614a51565b60075460405160e160020a634a46c673028152600160a060020a039091169063948d8ce6906126ce908590600401614519565b60206040518083038186803b1580156126e657600080fd5b505afa1580156126fa573d6000803e3d6000fd5b505050506040513d601f19601f82011682018060405250810190610e759190614351565b60038054604080516020601f60026000196101006001881615020190951694909404938401819004810282018101909252828152606093909290918301828280156127aa5780601f1061277f576101008083540402835291602001916127aa565b820191906000526020600020905b81548152906001019060200180831161278d57829003601f168201915b5050505050905090565b33600160a060020a0316600035600160e060020a031916600160e060020a0319166000366040516127e69291906145c6565b60405180910390a2600260055414156128145760405160e560020a62461bcd02815260040161062890614af6565b6002600555600454600160a060020a031633146128465760405160e560020a62461bcd028152600401610628906147f6565b600754600160a060020a03166128715760405160e560020a62461bcd02815260040161062890614a51565b60085462010000900460ff1661289c5760405160e560020a62461bcd028152600401610628906149e3565b601054156128bf5760405160e560020a62461bcd02815260040161062890614de9565b60075460405160e360020a63089d8f8d02815273__SmartPoolManager______________________916344ec7c6891611cdb913091600160a060020a039091169087908790600401614618565b60085460ff8082169161010081048216916201000082048116916301000000810482169164010000000082048116916501000000000090041686565b73__BalancerSafeMath______________________90565b73__SmartPoolManager______________________90565b604051806040016040528060138152602001606a60020a7210985b185b98d95c8814db585c9d08141bdbdb0281525081565b600a81565b6000600160a060020a0383166129da5760405160e560020a62461bcd02815260040161062890614975565b6129e5338484613bf0565b50600192915050565b33600160a060020a0316600035600160e060020a031916600160e060020a031916600036604051612a209291906145c6565b60405180910390a260026005541415612a4e5760405160e560020a62461bcd02815260040161062890614af6565b6002600555600754600160a060020a0316612a7e5760405160e560020a62461bcd02815260040161062890614a51565b60075460405160e160020a63747591bb028152600091829160609173__SmartPoolManager______________________9163e8eb237691612ad3913091600160a060020a0316908b908b908b90600401614676565b60006040518083038186803b158015612aeb57600080fd5b505af4158015612aff573d6000803e3d6000fd5b505050506040513d6000823e601f3d908101601f19168201604052612b27919081019061441b565b925092509250612b37338761186e565b600654612b4d90600160a060020a0316846107e8565b612b5682610885565b6007546040805160e060020a63cc77828d0281529051606092600160a060020a03169163cc77828d916004808301926000929190829003018186803b158015612b9e57600080fd5b505afa158015612bb2573d6000803e3d6000fd5b505050506040513d6000823e601f3d908101601f19168201604052612bda91908101906141a3565b905060005b8151811015610c64576000828281518110612bf657fe5b602002602001015190506000848381518110612c0e57fe5b6020026020010151905081600160a060020a031633600160a060020a0316600080516020614f2a83398151915283604051612c499190614e9a565b60405180910390a3612c5c823383613922565b5050600101612bdf565b600754600160a060020a031681565b33600160a060020a0316600035600160e060020a031916600160e060020a031916600036604051612ca79291906145c6565b60405180910390a260026005541415612cd55760405160e560020a62461bcd02815260040161062890614af6565b6002600555600454600160a060020a03163314612d075760405160e560020a62461bcd028152600401610628906147f6565b600754600160a060020a0316612d325760405160e560020a62461bcd02815260040161062890614a51565b6008546301000000900460ff16612d5e5760405160e560020a62461bcd0281526004016106289061482d565b60075460155460405160e260020a632235713502815273__SmartPoolManager______________________926388d5c4d492612dac923092600160a060020a031691906009906004016146b5565b60006040518083038186803b158015612dc457600080fd5b505af4158015612dd8573d6000803e3d6000fd5b505060016005555050565b33600160a060020a0316600035600160e060020a031916600160e060020a031916600036604051612e159291906145c6565b60405180910390a260026005541415612e435760405160e560020a62461bcd02815260040161062890614af6565b6002600555600754600160a060020a031615612e745760405160e560020a62461bcd02815260040161062890614a88565b60008311612e975760405160e560020a62461bcd02815260040161062890614907565b600a821015612ebb5760405160e560020a62461bcd02815260040161062890614899565b81811115612ede5760405160e560020a62461bcd02815260040161062890614864565b600a811015612f025760405160e560020a62461bcd02815260040161062890614abf565b601482905560158190556006546040805160e260020a633555b1770281529051600160a060020a039092169163d556c5dc916004808201926020929091908290030181600087803b158015612f5657600080fd5b505af1158015612f6a573d6000803e3d6000fd5b505050506040513d601f19601f82011682018060405250810190612f8e91906142fe565b60078054600160a060020a031916600160a060020a0392831617908190556040805160e160020a63632c06890281529051919092169163c6580d12916004808301926020929190829003018186803b158015612fe957600080fd5b505afa158015612ffd573d6000803e3d6000fd5b505050506040513d601f19601f820116820180604052508101906130219190614351565b156130415760405160e560020a62461bcd02815260040161062890614bc3565b600754600d5460405160e060020a6334e19907028152600160a060020a03909216916334e199079161307591600401614e9a565b600060405180830381600087803b15801561308f57600080fd5b505af11580156130a3573d6000803e3d6000fd5b505060085465010000000000900460ff161591506130c390505760178390555b60005b600e548110156132fd576000600e82815481106130df57fe5b6000918252602082200154600f8054600160a060020a039092169350908490811061310657fe5b9060005260206000200154905060006012848154811061312257fe5b600091825260208220015460405160e060020a6323b872dd028152909250600160a060020a038516906323b872dd906131639033903090889060040161452d565b602060405180830381600087803b15801561317d57600080fd5b505af1158015613191573d6000803e3d6000fd5b505050506040513d601f19601f820116820180604052508101906131b591906142e2565b9050806131d75760405160e560020a62461bcd02815260040161062890614cd6565b60075460405160e060020a63095ea7b3028152600160a060020a038681169263095ea7b392613210929091169060001990600401614551565b602060405180830381600087803b15801561322a57600080fd5b505af115801561323e573d6000803e3d6000fd5b505050506040513d601f19601f8201168201806040525081019061326291906142e2565b9050806132845760405160e560020a62461bcd02815260040161062890614cd6565b60075460405160e360020a631c9c3ca7028152600160a060020a039091169063e4e1e538906132bb9087908790879060040161456a565b600060405180830381600087803b1580156132d557600080fd5b505af11580156132e9573d6000803e3d6000fd5b5050600190960195506130c6945050505050565b505b600e541561333957600e80548061331257fe5b60008281526020902081016000199081018054600160a060020a03191690550190556132ff565b60075460405160e160020a6324dacaa9028152600160a060020a03909116906349b595529061336d9060019060040161458b565b600060405180830381600087803b15801561338757600080fd5b505af115801561339b573d6000803e3d6000fd5b505050506133a883611293565b61180e33846107e8565b600454600160a060020a031633146133df5760405160e560020a62461bcd028152600401610628906147f6565b600260055414156134055760405160e560020a62461bcd02815260040161062890614af6565b6002600555604051339060008035600160e060020a0319169161342a919036906145c6565b60405180910390a2600854640100000000900460ff1661345f5760405160e560020a62461bcd028152600401610628906149ac565b600160a060020a0381166134885760405160e560020a62461bcd02815260040161062890614b55565b600160a060020a03166000908152601660205260409020805460ff19166001908117909155600555565b336000908152600260209081526040808320600160a060020a03861684529091528120546134e09083613f53565b336000818152600260209081526040808320600160a060020a03891680855292529182902084905590519092600080516020614f6a8339815191529161083d9190614e9a565b600160a060020a03918216600090815260026020908152604080832093909416825291909152205490565b33600160a060020a0316600035600160e060020a031916600160e060020a0319166000366040516135839291906145c6565b60405180910390a2600260055414156135b15760405160e560020a62461bcd02815260040161062890614af6565b6002600555600754600160a060020a03166135e15760405160e560020a62461bcd02815260040161062890614a51565b60085462010000900460ff1661360c5760405160e560020a62461bcd028152600401610628906149e3565b601054601154431061361e5760006010555b60075460115460405160e360020a6281bd0502815273__SmartPoolManager______________________9263040de8289261367092600160a060020a0390921691869190601290601390600401614757565b60006040518083038186803b15801561368857600080fd5b505af4158015610dd9573d6000803e3d6000fd5b600454600160a060020a031633146136c95760405160e560020a62461bcd028152600401610628906147f6565b600260055414156136ef5760405160e560020a62461bcd02815260040161062890614af6565b6002600555604051339060008035600160e060020a03191691613714919036906145c6565b60405180910390a2600854640100000000900460ff166137495760405160e560020a62461bcd028152600401610628906149ac565b600160a060020a03811660009081526016602052604090205460ff166137845760405160e560020a62461bcd02815260040161062890614a1a565b600160a060020a0381166137ad5760405160e560020a62461bcd02815260040161062890614b55565b600160a060020a03166000908152601660205260409020805460ff191690556001600555565b6040516000903390600160e060020a0319833516906137f590849036906145c6565b60405180910390a2600260055414156138235760405160e560020a62461bcd02815260040161062890614af6565b6002600555600754600160a060020a03166138535760405160e560020a62461bcd02815260040161062890614a51565b600760009054906101000a9004600160a060020a0316600160a060020a031663fde924f76040518163ffffffff1660e060020a02815260040160206040518083038186803b1580156138a457600080fd5b505afa1580156138b8573d6000803e3d6000fd5b505050506040513d601f19601f820116820180604052508101906138dc91906142e2565b9050600160055590565b60008060006138f58585613f7b565b91509150801561391a5760405160e560020a62461bcd02815260040161062890614d44565b509392505050565b600754600160a060020a031661394d5760405160e560020a62461bcd02815260040161062890614a51565b60075460405160e060020a63f8b2cb4f028152600091600160a060020a03169063f8b2cb4f90613981908790600401614519565b60206040518083038186803b15801561399957600080fd5b505afa1580156139ad573d6000803e3d6000fd5b505050506040513d601f19601f820116820180604052508101906139d19190614351565b60075460405160e160020a634a46c673028152919250600091600160a060020a039091169063948d8ce690613a0a908890600401614519565b60206040518083038186803b158015613a2257600080fd5b505afa158015613a36573d6000803e3d6000fd5b505050506040513d601f19601f82011682018060405250810190613a5a9190614351565b600754909150600160a060020a0316633fdddaa286613a7985876138e6565b846040518463ffffffff1660e060020a028152600401613a9b9392919061456a565b600060405180830381600087803b158015613ab557600080fd5b505af1158015613ac9573d6000803e3d6000fd5b505060405160e060020a63a9059cbb02815260009250600160a060020a038816915063a9059cbb90613b019088908890600401614551565b602060405180830381600087803b158015613b1b57600080fd5b505af1158015613b2f573d6000803e3d6000fd5b505050506040513d601f19601f82011682018060405250810190613b5391906142e2565b905080613b755760405160e560020a62461bcd02815260040161062890614cd6565b505050505050565b6107f2308383613bf0565b30600090815260016020526040902054613ba290826138e6565b3060009081526001602052604081209190915554613bc090826138e6565b60009081556040513090600080516020614f4a83398151915290613be5908590614e9a565b60405180910390a350565b600160a060020a038316600090815260016020526040902054613c1390826138e6565b600160a060020a038085166000908152600160205260408082209390935590841681522054613c429082613f53565b600160a060020a038084166000818152600160205260409081902093909355915190851690600080516020614f4a83398151915290613c82908590614e9a565b60405180910390a3505050565b30600090815260016020526040902054613ca99082613f53565b3060009081526001602052604081209190915554613cc79082613f53565b6000908155604051309190600080516020614f4a83398151915290613be5908590614e9a565b600754600160a060020a0316613d185760405160e560020a62461bcd02815260040161062890614a51565b60075460405160e060020a63f8b2cb4f028152600091600160a060020a03169063f8b2cb4f90613d4c908790600401614519565b60206040518083038186803b158015613d6457600080fd5b505afa158015613d78573d6000803e3d6000fd5b505050506040513d601f19601f82011682018060405250810190613d9c9190614351565b60075460405160e160020a634a46c673028152919250600091600160a060020a039091169063948d8ce690613dd5908890600401614519565b60206040518083038186803b158015613ded57600080fd5b505afa158015613e01573d6000803e3d6000fd5b505050506040513d601f19601f82011682018060405250810190613e259190614351565b9050600085600160a060020a03166323b872dd8630876040518463ffffffff1660e060020a028152600401613e5c9392919061452d565b602060405180830381600087803b158015613e7657600080fd5b505af1158015613e8a573d6000803e3d6000fd5b505050506040513d601f19601f82011682018060405250810190613eae91906142e2565b905080613ed05760405160e560020a62461bcd02815260040161062890614cd6565b600754600160a060020a0316633fdddaa287613eec8688613f53565b856040518463ffffffff1660e060020a028152600401613f0e9392919061456a565b600060405180830381600087803b158015613f2857600080fd5b505af1158015613f3c573d6000803e3d6000fd5b50505050505050505050565b6107f2823083613bf0565b6000828201838110156109be5760405160e560020a62461bcd02815260040161062890614d7b565b600080838311613f915750508082036000613f99565b505081810360015b9250929050565b828054828255906000526020600020908101928215613fdb579160200282015b82811115613fdb578235825591602001919060010190613fc0565b50613fe7929150613feb565b5090565b5b80821115613fe75760008155600101613fec565b60008083601f840112614011578081fd5b50813567ffffffffffffffff811115614028578182fd5b6020830191508360208083028501011115613f9957600080fd5b600082601f830112614052578081fd5b815161406561406082614ee6565b614ebf565b81815291506020808301908481018184028601820187101561408657600080fd5b60005b848110156140a557815184529282019290820190600101614089565b505050505092915050565b6000602082840312156140c1578081fd5b81356109be81614f06565b600080604083850312156140de578081fd5b82356140e981614f06565b915060208301356140f981614f06565b809150509250929050565b600080600060608486031215614118578081fd5b833561412381614f06565b9250602084013561413381614f06565b929592945050506040919091013590565b60008060408385031215614156578182fd5b823561416181614f06565b946020939093013593505050565b600080600060608486031215614183578283fd5b833561418e81614f06565b95602085013595506040909401359392505050565b600060208083850312156141b5578182fd5b825167ffffffffffffffff8111156141cb578283fd5b8301601f810185136141db578283fd5b80516141e961406082614ee6565b8181528381019083850185840285018601891015614205578687fd5b8694505b8385101561423057805161421c81614f06565b835260019490940193918501918501614209565b50979650505050505050565b60008060008060608587031215614251578081fd5b843567ffffffffffffffff811115614267578182fd5b61427387828801614000565b90989097506020870135966040013595509350505050565b60006020828403121561429c578081fd5b815167ffffffffffffffff8111156142b2578182fd5b6142be84828501614042565b949350505050565b6000602082840312156142d7578081fd5b81356109be81614f1b565b6000602082840312156142f3578081fd5b81516109be81614f1b565b60006020828403121561430f578081fd5b81516109be81614f06565b60006020828403121561432b578081fd5b8135600681106109be578182fd5b60006020828403121561434a578081fd5b5035919050565b600060208284031215614362578081fd5b5051919050565b60008060006040848603121561437d578081fd5b83359250602084013567ffffffffffffffff81111561439a578182fd5b6143a686828701614000565b9497909650939450505050565b600080604083850312156143c5578182fd5b82519150602083015167ffffffffffffffff8111156143e2578182fd5b6143ee85828601614042565b9150509250929050565b6000806040838503121561440a578182fd5b505080516020909101519092909150565b60008060006060848603121561442f578081fd5b8351925060208401519150604084015167ffffffffffffffff811115614453578182fd5b61445f86828701614042565b9150509250925092565b60008060006060848603121561447d578081fd5b505081359360208301359350604090920135919050565b8183526000600160fb60020a038311156144ac578081fd5b6020830280836020870137939093016020019283525090919050565b6000815480845260208085019450838352808320835b838110156144fa578154875295820195600191820191016144de565b509495945050505050565b15159052565b6006811061451557fe5b9052565b600160a060020a0391909116815260200190565b600160a060020a039384168152919092166020820152604081019190915260600190565b600160a060020a03929092168252602082015260400190565b600160a060020a039390931683526020830191909152604082015260600190565b901515815260200190565b9515158652931515602086015291151560408501521515606084015215156080830152151560a082015260c00190565b60006020825282602083015282846040840137818301604090810191909152601f909201601f19160101919050565b600160a060020a0393841681529183166020830152909116604082015260600190565b600160a060020a039485168152928416602084015292166040820152606081019190915260800190565b600160a060020a03958616815293851660208501529190931660408301526060820192909252608081019190915260a00190565b600160a060020a03868116825285166020820152604081018490526080606082018190526000906146aa9083018486614494565b979650505050505050565b600160a060020a0394851681529290931660208301526040820152606081019190915260800190565b600160a060020a03958616815293909416602084015260408301919091526060820152608081019190915260a00190565b6000600160a060020a038916825287602083015260c0604083015261473860c083018789614494565b606083019590955250608081019290925260a090910152949350505050565b6000600160a060020a038716825285602083015284604083015260a0606083015261478560a08301856144c8565b828103608084015261479781856144c8565b98975050505050505050565b6000602080835283518082850152825b818110156147cf578581018301518582016040015282016147b3565b818111156147e05783604083870101525b50601f01601f1916929092016040019392505050565b60208082526012908201527f4552525f4e4f545f434f4e54524f4c4c45520000000000000000000000000000604082015260600190565b6020808252601c908201527f4552525f43414e4e4f545f4144445f52454d4f56455f544f4b454e5300000000604082015260600190565b6020808252818101527f4552525f494e434f4e53495354454e545f544f4b454e5f54494d455f4c4f434b604082015260600190565b60208082526018908201527f4552525f494e56414c49445f424c4f434b5f504552494f440000000000000000604082015260600190565b6020808252601a908201527f4552525f53544152545f574549474854535f4d49534d41544348000000000000604082015260600190565b6020808252600f908201527f4552525f494e49545f535550504c590000000000000000000000000000000000604082015260600190565b60208082526014908201527f4552525f4e4f545f4f4e5f57484954454c495354000000000000000000000000604082015260600190565b60208082526010908201527f4552525f5a45524f5f4144445245535300000000000000000000000000000000604082015260600190565b60208082526018908201527f4552525f43414e4e4f545f57484954454c4953545f4c50530000000000000000604082015260600190565b6020808252601c908201527f4552525f4e4f545f434f4e464947555241424c455f5745494748545300000000604082015260600190565b60208082526016908201527f4552525f4c505f4e4f545f57484954454c495354454400000000000000000000604082015260600190565b6020808252600f908201527f4552525f4e4f545f435245415445440000000000000000000000000000000000604082015260600190565b6020808252600e908201527f4552525f49535f43524541544544000000000000000000000000000000000000604082015260600190565b6020808252601b908201527f4552525f494e56414c49445f544f4b454e5f54494d455f4c4f434b0000000000604082015260600190565b6020808252600b9082015260a860020a6a4552525f5245454e54525902604082015260600190565b60208082526010908201527f4552525f5245454e5452595f5649455700000000000000000000000000000000604082015260600190565b60208082526013908201527f4552525f494e56414c49445f4144445245535300000000000000000000000000604082015260600190565b60208082526015908201527f4552525f43414e4e4f545f4348414e47455f4341500000000000000000000000604082015260600190565b60208082526014908201527f4552525f4e4f4e5a45524f5f455849545f464545000000000000000000000000604082015260600190565b60208082526015908201527f4552525f4341505f4c494d49545f524541434845440000000000000000000000604082015260600190565b60208082526016908201527f4552525f5043544f4b454e5f4241445f43414c4c455200000000000000000000604082015260600190565b60208082526012908201527f4552525f544f4f5f4645575f544f4b454e530000000000000000000000000000604082015260600190565b6020808252601b908201527f4552525f52454d4f56455f574954485f4144445f50454e44494e470000000000604082015260600190565b6020808252600f908201527f4552525f45524332305f46414c53450000000000000000000000000000000000604082015260600190565b60208082526015908201527f4552525f4e4f545f5041555341424c455f535741500000000000000000000000604082015260600190565b60208082526011908201527f4552525f5355425f554e444552464c4f57000000000000000000000000000000604082015260600190565b60208082526010908201527f4552525f4144445f4f564552464c4f5700000000000000000000000000000000604082015260600190565b6020808252601d908201527f4552525f4e4f545f434f4e464947555241424c455f535741505f464545000000604082015260600190565b6020808252601c908201527f4552525f4e4f5f5550444154455f445552494e475f4752414455414c00000000604082015260600190565b825460ff8082161515835261010082048116151560208401526201000082048116151560408401526301000000820481161515606084015260e083019190614e746080850164010000000084048316614505565b614e8b60a085018265010000000000850416614505565b50506109be60c083018461450b565b90815260200190565b918252602082015260400190565b60ff91909116815260200190565b60405181810167ffffffffffffffff81118282101715614ede57600080fd5b604052919050565b600067ffffffffffffffff821115614efc578081fd5b5060209081020190565b600160a060020a038116811461088e57600080fd5b801515811461088e57600080fdfec62fc35ac75e3bff532648e2859a3e1694002cfa357614ae8e034df7f83db5e9ddf252ad1be2c89b69c2b068fc378daa952ba7f163c4a11628f55a4df523b3ef8c5be1e5ebec7d5bd14f71427d1e84f3dd0314c0f7b2291e5b200ac8c7c3b925ea39e3b35c5cd8937999ed5f7fbab30acd562a931fc4a887fed2a47c3074aa72a26469706673582212206f7279e6e8504244affac06b582aa204d969ed5567556585dd3f08a00375a93764736f6c634300060c0033a2646970667358221220dd78372f8d11f441a9a3684d7385ea079cbbd2f4aafd6ef19a277ed1ca98f77364736f6c634300060c0033",
  "immutableReferences": {},
  "source": "// SPDX-License-Identifier: GPL-3.0-or-later\npragma solidity ^0.6.6;\n\n// Needed to handle structures externally\npragma experimental ABIEncoderV2;\n\n// Imports\n\nimport \"./ConfigurableRightsPool.sol\";\n\n// Contracts\n\n/**\n * @author Balancer Labs\n * @title Configurable Rights Pool Factory - create parameterized smart pools\n * @dev Rights are held in a corresponding struct in ConfigurableRightsPool\n *      Index values are as follows:\n *      0: canPauseSwapping - can setPublicSwap back to false after turning it on\n *                            by default, it is off on initialization and can only be turned on\n *      1: canChangeSwapFee - can setSwapFee after initialization (by default, it is fixed at create time)\n *      2: canChangeWeights - can bind new token weights (allowed by default in base pool)\n *      3: canAddRemoveTokens - can bind/unbind tokens (allowed by default in base pool)\n *      4: canWhitelistLPs - if set, only whitelisted addresses can join pools\n *                           (enables private pools with more than one LP)\n */\ncontract CRPFactory {\n    // State variables\n\n    // Keep a list of all Configurable Rights Pools\n    mapping(address=>bool) private _isCrp;\n\n    // Event declarations\n\n    // Log the address of each new smart pool, and its creator\n    event LogNewCrp(\n        address indexed caller,\n        address indexed pool\n    );\n\n    // Function declarations\n\n    /**\n     * @notice Check to see if a given address is a CRP\n     * @param addr - address to check\n     * @return boolean indicating whether it is a CRP\n     */\n    function isCrp(address addr) external view returns (bool) {\n        return _isCrp[addr];\n    }\n\n    /**\n     * @notice Create a new CRP\n     * @dev emits a LogNewCRP event\n     * @param factoryAddress - the BFactory instance used to create the underlying pool\n     * @param tokens - initial set of tokens\n     * @param startBalances - initial balances (parallel array)\n     * @param startWeights - initial weights (parallal array)\n     * @param swapFee - initial swap fee\n     * @param rights - struct of permissions, configuring this CRP instance (see above for definitions)\n     */\n    function newCrp(\n        address factoryAddress,\n        string calldata symbol,\n        address[] calldata tokens,\n        uint[] calldata startBalances,\n        uint[] calldata startWeights,\n        uint swapFee,\n        RightsManager.Rights calldata rights\n    )\n        external\n        returns (ConfigurableRightsPool)\n    {\n        require(tokens.length >= BalancerConstants.MIN_ASSET_LIMIT, \"ERR_TOO_FEW_TOKENS\");\n\n        // Arrays must be parallel\n        require(startBalances.length == tokens.length, \"ERR_START_BALANCES_MISMATCH\");\n        require(startWeights.length == tokens.length, \"ERR_START_WEIGHTS_MISMATCH\");\n\n        ConfigurableRightsPool crp = new ConfigurableRightsPool(\n            factoryAddress,\n            symbol,\n            tokens,\n            startBalances,\n            startWeights,\n            swapFee,\n            rights\n        );\n\n        _isCrp[address(crp)] = true;\n        crp.setController(msg.sender);\n\n        emit LogNewCrp(msg.sender, address(crp));\n\n        return crp;\n    }\n}\n",
  "sourcePath": "/Users/fabien/WebstormProjects/balancer/configurable-rights-pool/contracts/CRPFactory.sol",
  "compiler": {
    "name": "solc",
    "version": "0.6.12+commit.27d51765.Emscripten.clang"
  },
  "schemaVersion": "3.1.0",
  "updatedAt": "2020-08-18T20:00:26.277Z",
  "devdoc": {
    "author": "Balancer Labs",
    "details": "Rights are held in a corresponding struct in ConfigurableRightsPool      Index values are as follows:      0: canPauseSwapping - can setPublicSwap back to false after turning it on                            by default, it is off on initialization and can only be turned on      1: canChangeSwapFee - can setSwapFee after initialization (by default, it is fixed at create time)      2: canChangeWeights - can bind new token weights (allowed by default in base pool)      3: canAddRemoveTokens - can bind/unbind tokens (allowed by default in base pool)      4: canWhitelistLPs - if set, only whitelisted addresses can join pools                           (enables private pools with more than one LP)",
    "kind": "dev",
    "methods": {
      "isCrp(address)": {
        "params": {
          "addr": "- address to check"
        },
        "returns": {
          "_0": "boolean indicating whether it is a CRP"
        }
      },
      "newCrp(address,string,address[],uint256[],uint256[],uint256,(bool,bool,bool,bool,bool,bool))": {
        "details": "emits a LogNewCRP event",
        "params": {
          "factoryAddress": "- the BFactory instance used to create the underlying pool",
          "rights": "- struct of permissions, configuring this CRP instance (see above for definitions)",
          "startBalances": "- initial balances (parallel array)",
          "startWeights": "- initial weights (parallal array)",
          "swapFee": "- initial swap fee",
          "tokens": "- initial set of tokens"
        }
      }
    },
    "title": "Configurable Rights Pool Factory - create parameterized smart pools",
    "version": 1
  },
  "userdoc": {
    "kind": "user",
    "methods": {
      "isCrp(address)": {
        "notice": "Check to see if a given address is a CRP"
      },
      "newCrp(address,string,address[],uint256[],uint256[],uint256,(bool,bool,bool,bool,bool,bool))": {
        "notice": "Create a new CRP"
      }
    },
    "version": 1
  }
}