{
  "_format": "hh-sol-artifact-1",
  "contractName": "MarginTradingPool",
  "sourceName": "contracts/MarginTradingPool.sol",
  "abi": [
    {
      "inputs": [
        {
          "internalType": "contract IVault",
          "name": "vault",
          "type": "address"
        },
        {
          "components": [
            {
              "internalType": "string",
              "name": "name",
              "type": "string"
            },
            {
              "internalType": "string",
              "name": "symbol",
              "type": "string"
            },
            {
              "internalType": "address",
              "name": "security",
              "type": "address"
            },
            {
              "internalType": "bytes32",
              "name": "securityType",
              "type": "bytes32"
            },
            {
              "internalType": "address",
              "name": "currency",
              "type": "address"
            },
            {
              "internalType": "bytes32",
              "name": "cficode",
              "type": "bytes32"
            },
            {
              "internalType": "uint256",
              "name": "minOrderSize",
              "type": "uint256"
            },
            {
              "internalType": "uint256",
              "name": "margin",
              "type": "uint256"
            },
            {
              "internalType": "uint256",
              "name": "collateral",
              "type": "uint256"
            },
            {
              "internalType": "uint256",
              "name": "tradeFeePercentage",
              "type": "uint256"
            }
          ],
          "internalType": "struct IMarginTradingPoolFactory.FactoryPoolParams",
          "name": "factoryPoolParams",
          "type": "tuple"
        },
        {
          "internalType": "uint256",
          "name": "pauseWindowDuration",
          "type": "uint256"
        },
        {
          "internalType": "uint256",
          "name": "bufferPeriodDuration",
          "type": "uint256"
        },
        {
          "internalType": "address",
          "name": "owner",
          "type": "address"
        }
      ],
      "stateMutability": "nonpayable",
      "type": "constructor"
    },
    {
      "anonymous": false,
      "inputs": [
        {
          "indexed": true,
          "internalType": "address",
          "name": "owner",
          "type": "address"
        },
        {
          "indexed": true,
          "internalType": "address",
          "name": "spender",
          "type": "address"
        },
        {
          "indexed": false,
          "internalType": "uint256",
          "name": "value",
          "type": "uint256"
        }
      ],
      "name": "Approval",
      "type": "event"
    },
    {
      "anonymous": false,
      "inputs": [
        {
          "indexed": true,
          "internalType": "address",
          "name": "security",
          "type": "address"
        },
        {
          "indexed": false,
          "internalType": "bytes32",
          "name": "securityType",
          "type": "bytes32"
        },
        {
          "indexed": false,
          "internalType": "uint256",
          "name": "minOrderSize",
          "type": "uint256"
        },
        {
          "indexed": false,
          "internalType": "address",
          "name": "currency",
          "type": "address"
        },
        {
          "indexed": false,
          "internalType": "uint256",
          "name": "margin",
          "type": "uint256"
        },
        {
          "indexed": false,
          "internalType": "uint256",
          "name": "collateral",
          "type": "uint256"
        },
        {
          "indexed": false,
          "internalType": "bytes32",
          "name": "CfiCode",
          "type": "bytes32"
        },
        {
          "indexed": false,
          "internalType": "address",
          "name": "orderBook",
          "type": "address"
        },
        {
          "indexed": false,
          "internalType": "address",
          "name": "issueManager",
          "type": "address"
        }
      ],
      "name": "Offer",
      "type": "event"
    },
    {
      "anonymous": false,
      "inputs": [
        {
          "indexed": false,
          "internalType": "address",
          "name": "creator",
          "type": "address"
        },
        {
          "indexed": false,
          "internalType": "address",
          "name": "tokenIn",
          "type": "address"
        },
        {
          "indexed": false,
          "internalType": "address",
          "name": "tokenOut",
          "type": "address"
        },
        {
          "indexed": false,
          "internalType": "uint256",
          "name": "amountOffered",
          "type": "uint256"
        },
        {
          "indexed": false,
          "internalType": "uint256",
          "name": "priceOffered",
          "type": "uint256"
        },
        {
          "indexed": false,
          "internalType": "uint256",
          "name": "stoplossPrice",
          "type": "uint256"
        },
        {
          "indexed": false,
          "internalType": "uint256",
          "name": "timestamp",
          "type": "uint256"
        },
        {
          "indexed": false,
          "internalType": "bytes32",
          "name": "orderRef",
          "type": "bytes32"
        }
      ],
      "name": "OrderBook",
      "type": "event"
    },
    {
      "anonymous": false,
      "inputs": [
        {
          "indexed": false,
          "internalType": "bool",
          "name": "paused",
          "type": "bool"
        }
      ],
      "name": "PausedStateChanged",
      "type": "event"
    },
    {
      "anonymous": false,
      "inputs": [
        {
          "indexed": false,
          "internalType": "bool",
          "name": "enabled",
          "type": "bool"
        }
      ],
      "name": "RecoveryModeStateChanged",
      "type": "event"
    },
    {
      "anonymous": false,
      "inputs": [
        {
          "indexed": false,
          "internalType": "uint256",
          "name": "swapFeePercentage",
          "type": "uint256"
        }
      ],
      "name": "SwapFeePercentageChanged",
      "type": "event"
    },
    {
      "anonymous": false,
      "inputs": [
        {
          "indexed": true,
          "internalType": "address",
          "name": "security",
          "type": "address"
        },
        {
          "indexed": false,
          "internalType": "bytes32",
          "name": "orderRef",
          "type": "bytes32"
        },
        {
          "indexed": false,
          "internalType": "address",
          "name": "party",
          "type": "address"
        },
        {
          "indexed": false,
          "internalType": "address",
          "name": "counterparty",
          "type": "address"
        },
        {
          "indexed": false,
          "internalType": "bytes32",
          "name": "orderType",
          "type": "bytes32"
        },
        {
          "indexed": false,
          "internalType": "uint256",
          "name": "price",
          "type": "uint256"
        },
        {
          "indexed": false,
          "internalType": "address",
          "name": "currency",
          "type": "address"
        },
        {
          "indexed": false,
          "internalType": "uint256",
          "name": "amount",
          "type": "uint256"
        },
        {
          "indexed": false,
          "internalType": "uint256",
          "name": "executionDate",
          "type": "uint256"
        }
      ],
      "name": "TradeReport",
      "type": "event"
    },
    {
      "anonymous": false,
      "inputs": [
        {
          "indexed": true,
          "internalType": "address",
          "name": "from",
          "type": "address"
        },
        {
          "indexed": true,
          "internalType": "address",
          "name": "to",
          "type": "address"
        },
        {
          "indexed": false,
          "internalType": "uint256",
          "name": "value",
          "type": "uint256"
        }
      ],
      "name": "Transfer",
      "type": "event"
    },
    {
      "inputs": [],
      "name": "DOMAIN_SEPARATOR",
      "outputs": [
        {
          "internalType": "bytes32",
          "name": "",
          "type": "bytes32"
        }
      ],
      "stateMutability": "view",
      "type": "function"
    },
    {
      "inputs": [],
      "name": "_orderbook",
      "outputs": [
        {
          "internalType": "contract Orderbook",
          "name": "",
          "type": "address"
        }
      ],
      "stateMutability": "view",
      "type": "function"
    },
    {
      "inputs": [
        {
          "internalType": "address",
          "name": "owner",
          "type": "address"
        },
        {
          "internalType": "address",
          "name": "spender",
          "type": "address"
        }
      ],
      "name": "allowance",
      "outputs": [
        {
          "internalType": "uint256",
          "name": "",
          "type": "uint256"
        }
      ],
      "stateMutability": "view",
      "type": "function"
    },
    {
      "inputs": [
        {
          "internalType": "address",
          "name": "spender",
          "type": "address"
        },
        {
          "internalType": "uint256",
          "name": "amount",
          "type": "uint256"
        }
      ],
      "name": "approve",
      "outputs": [
        {
          "internalType": "bool",
          "name": "",
          "type": "bool"
        }
      ],
      "stateMutability": "nonpayable",
      "type": "function"
    },
    {
      "inputs": [
        {
          "internalType": "address",
          "name": "account",
          "type": "address"
        }
      ],
      "name": "balanceOf",
      "outputs": [
        {
          "internalType": "uint256",
          "name": "",
          "type": "uint256"
        }
      ],
      "stateMutability": "view",
      "type": "function"
    },
    {
      "inputs": [],
      "name": "decimals",
      "outputs": [
        {
          "internalType": "uint8",
          "name": "",
          "type": "uint8"
        }
      ],
      "stateMutability": "view",
      "type": "function"
    },
    {
      "inputs": [
        {
          "internalType": "address",
          "name": "spender",
          "type": "address"
        },
        {
          "internalType": "uint256",
          "name": "amount",
          "type": "uint256"
        }
      ],
      "name": "decreaseAllowance",
      "outputs": [
        {
          "internalType": "bool",
          "name": "",
          "type": "bool"
        }
      ],
      "stateMutability": "nonpayable",
      "type": "function"
    },
    {
      "inputs": [],
      "name": "disableRecoveryMode",
      "outputs": [],
      "stateMutability": "nonpayable",
      "type": "function"
    },
    {
      "inputs": [],
      "name": "enableRecoveryMode",
      "outputs": [],
      "stateMutability": "nonpayable",
      "type": "function"
    },
    {
      "inputs": [
        {
          "internalType": "bytes4",
          "name": "selector",
          "type": "bytes4"
        }
      ],
      "name": "getActionId",
      "outputs": [
        {
          "internalType": "bytes32",
          "name": "",
          "type": "bytes32"
        }
      ],
      "stateMutability": "view",
      "type": "function"
    },
    {
      "inputs": [],
      "name": "getAuthorizer",
      "outputs": [
        {
          "internalType": "contract IAuthorizer",
          "name": "",
          "type": "address"
        }
      ],
      "stateMutability": "view",
      "type": "function"
    },
    {
      "inputs": [],
      "name": "getCollateral",
      "outputs": [
        {
          "internalType": "uint256",
          "name": "",
          "type": "uint256"
        }
      ],
      "stateMutability": "view",
      "type": "function"
    },
    {
      "inputs": [],
      "name": "getCurrency",
      "outputs": [
        {
          "internalType": "address",
          "name": "",
          "type": "address"
        }
      ],
      "stateMutability": "view",
      "type": "function"
    },
    {
      "inputs": [],
      "name": "getDomainSeparator",
      "outputs": [
        {
          "internalType": "bytes32",
          "name": "",
          "type": "bytes32"
        }
      ],
      "stateMutability": "view",
      "type": "function"
    },
    {
      "inputs": [],
      "name": "getMargin",
      "outputs": [
        {
          "internalType": "uint256",
          "name": "",
          "type": "uint256"
        }
      ],
      "stateMutability": "view",
      "type": "function"
    },
    {
      "inputs": [],
      "name": "getMinOrderSize",
      "outputs": [
        {
          "internalType": "uint256",
          "name": "",
          "type": "uint256"
        }
      ],
      "stateMutability": "view",
      "type": "function"
    },
    {
      "inputs": [
        {
          "internalType": "address",
          "name": "account",
          "type": "address"
        }
      ],
      "name": "getNextNonce",
      "outputs": [
        {
          "internalType": "uint256",
          "name": "",
          "type": "uint256"
        }
      ],
      "stateMutability": "view",
      "type": "function"
    },
    {
      "inputs": [],
      "name": "getOrderbook",
      "outputs": [
        {
          "internalType": "address",
          "name": "",
          "type": "address"
        }
      ],
      "stateMutability": "view",
      "type": "function"
    },
    {
      "inputs": [],
      "name": "getOwner",
      "outputs": [
        {
          "internalType": "address",
          "name": "",
          "type": "address"
        }
      ],
      "stateMutability": "view",
      "type": "function"
    },
    {
      "inputs": [],
      "name": "getPausedState",
      "outputs": [
        {
          "internalType": "bool",
          "name": "paused",
          "type": "bool"
        },
        {
          "internalType": "uint256",
          "name": "pauseWindowEndTime",
          "type": "uint256"
        },
        {
          "internalType": "uint256",
          "name": "bufferPeriodEndTime",
          "type": "uint256"
        }
      ],
      "stateMutability": "view",
      "type": "function"
    },
    {
      "inputs": [],
      "name": "getPoolId",
      "outputs": [
        {
          "internalType": "bytes32",
          "name": "",
          "type": "bytes32"
        }
      ],
      "stateMutability": "view",
      "type": "function"
    },
    {
      "inputs": [],
      "name": "getProtocolFeesCollector",
      "outputs": [
        {
          "internalType": "contract IProtocolFeesCollector",
          "name": "",
          "type": "address"
        }
      ],
      "stateMutability": "view",
      "type": "function"
    },
    {
      "inputs": [],
      "name": "getScalingFactors",
      "outputs": [
        {
          "internalType": "uint256[]",
          "name": "",
          "type": "uint256[]"
        }
      ],
      "stateMutability": "view",
      "type": "function"
    },
    {
      "inputs": [],
      "name": "getSecurity",
      "outputs": [
        {
          "internalType": "address",
          "name": "",
          "type": "address"
        }
      ],
      "stateMutability": "view",
      "type": "function"
    },
    {
      "inputs": [],
      "name": "getSwapFeePercentage",
      "outputs": [
        {
          "internalType": "uint256",
          "name": "",
          "type": "uint256"
        }
      ],
      "stateMutability": "view",
      "type": "function"
    },
    {
      "inputs": [],
      "name": "getVault",
      "outputs": [
        {
          "internalType": "contract IVault",
          "name": "",
          "type": "address"
        }
      ],
      "stateMutability": "view",
      "type": "function"
    },
    {
      "inputs": [],
      "name": "inRecoveryMode",
      "outputs": [
        {
          "internalType": "bool",
          "name": "",
          "type": "bool"
        }
      ],
      "stateMutability": "view",
      "type": "function"
    },
    {
      "inputs": [
        {
          "internalType": "address",
          "name": "spender",
          "type": "address"
        },
        {
          "internalType": "uint256",
          "name": "addedValue",
          "type": "uint256"
        }
      ],
      "name": "increaseAllowance",
      "outputs": [
        {
          "internalType": "bool",
          "name": "",
          "type": "bool"
        }
      ],
      "stateMutability": "nonpayable",
      "type": "function"
    },
    {
      "inputs": [],
      "name": "name",
      "outputs": [
        {
          "internalType": "string",
          "name": "",
          "type": "string"
        }
      ],
      "stateMutability": "view",
      "type": "function"
    },
    {
      "inputs": [
        {
          "internalType": "address",
          "name": "owner",
          "type": "address"
        }
      ],
      "name": "nonces",
      "outputs": [
        {
          "internalType": "uint256",
          "name": "",
          "type": "uint256"
        }
      ],
      "stateMutability": "view",
      "type": "function"
    },
    {
      "inputs": [
        {
          "internalType": "bytes32",
          "name": "poolId",
          "type": "bytes32"
        },
        {
          "internalType": "address",
          "name": "sender",
          "type": "address"
        },
        {
          "internalType": "address",
          "name": "recipient",
          "type": "address"
        },
        {
          "internalType": "uint256[]",
          "name": "balances",
          "type": "uint256[]"
        },
        {
          "internalType": "uint256",
          "name": "lastChangeBlock",
          "type": "uint256"
        },
        {
          "internalType": "uint256",
          "name": "protocolSwapFeePercentage",
          "type": "uint256"
        },
        {
          "internalType": "bytes",
          "name": "userData",
          "type": "bytes"
        }
      ],
      "name": "onExitPool",
      "outputs": [
        {
          "internalType": "uint256[]",
          "name": "",
          "type": "uint256[]"
        },
        {
          "internalType": "uint256[]",
          "name": "",
          "type": "uint256[]"
        }
      ],
      "stateMutability": "nonpayable",
      "type": "function"
    },
    {
      "inputs": [
        {
          "internalType": "bytes32",
          "name": "poolId",
          "type": "bytes32"
        },
        {
          "internalType": "address",
          "name": "sender",
          "type": "address"
        },
        {
          "internalType": "address",
          "name": "recipient",
          "type": "address"
        },
        {
          "internalType": "uint256[]",
          "name": "balances",
          "type": "uint256[]"
        },
        {
          "internalType": "uint256",
          "name": "lastChangeBlock",
          "type": "uint256"
        },
        {
          "internalType": "uint256",
          "name": "protocolSwapFeePercentage",
          "type": "uint256"
        },
        {
          "internalType": "bytes",
          "name": "userData",
          "type": "bytes"
        }
      ],
      "name": "onJoinPool",
      "outputs": [
        {
          "internalType": "uint256[]",
          "name": "",
          "type": "uint256[]"
        },
        {
          "internalType": "uint256[]",
          "name": "",
          "type": "uint256[]"
        }
      ],
      "stateMutability": "nonpayable",
      "type": "function"
    },
    {
      "inputs": [
        {
          "components": [
            {
              "internalType": "enum IVault.SwapKind",
              "name": "kind",
              "type": "uint8"
            },
            {
              "internalType": "contract IERC20",
              "name": "tokenIn",
              "type": "address"
            },
            {
              "internalType": "contract IERC20",
              "name": "tokenOut",
              "type": "address"
            },
            {
              "internalType": "uint256",
              "name": "amount",
              "type": "uint256"
            },
            {
              "internalType": "bytes32",
              "name": "poolId",
              "type": "bytes32"
            },
            {
              "internalType": "uint256",
              "name": "lastChangeBlock",
              "type": "uint256"
            },
            {
              "internalType": "address",
              "name": "from",
              "type": "address"
            },
            {
              "internalType": "address",
              "name": "to",
              "type": "address"
            },
            {
              "internalType": "bytes",
              "name": "userData",
              "type": "bytes"
            }
          ],
          "internalType": "struct IPoolSwapStructs.SwapRequest",
          "name": "request",
          "type": "tuple"
        },
        {
          "internalType": "uint256[]",
          "name": "balances",
          "type": "uint256[]"
        },
        {
          "internalType": "uint256",
          "name": "indexIn",
          "type": "uint256"
        },
        {
          "internalType": "uint256",
          "name": "indexOut",
          "type": "uint256"
        }
      ],
      "name": "onSwap",
      "outputs": [
        {
          "internalType": "uint256",
          "name": "",
          "type": "uint256"
        }
      ],
      "stateMutability": "nonpayable",
      "type": "function"
    },
    {
      "inputs": [],
      "name": "pause",
      "outputs": [],
      "stateMutability": "nonpayable",
      "type": "function"
    },
    {
      "inputs": [
        {
          "internalType": "address",
          "name": "owner",
          "type": "address"
        },
        {
          "internalType": "address",
          "name": "spender",
          "type": "address"
        },
        {
          "internalType": "uint256",
          "name": "value",
          "type": "uint256"
        },
        {
          "internalType": "uint256",
          "name": "deadline",
          "type": "uint256"
        },
        {
          "internalType": "uint8",
          "name": "v",
          "type": "uint8"
        },
        {
          "internalType": "bytes32",
          "name": "r",
          "type": "bytes32"
        },
        {
          "internalType": "bytes32",
          "name": "s",
          "type": "bytes32"
        }
      ],
      "name": "permit",
      "outputs": [],
      "stateMutability": "nonpayable",
      "type": "function"
    },
    {
      "inputs": [
        {
          "internalType": "bytes32",
          "name": "poolId",
          "type": "bytes32"
        },
        {
          "internalType": "address",
          "name": "sender",
          "type": "address"
        },
        {
          "internalType": "address",
          "name": "recipient",
          "type": "address"
        },
        {
          "internalType": "uint256[]",
          "name": "balances",
          "type": "uint256[]"
        },
        {
          "internalType": "uint256",
          "name": "lastChangeBlock",
          "type": "uint256"
        },
        {
          "internalType": "uint256",
          "name": "protocolSwapFeePercentage",
          "type": "uint256"
        },
        {
          "internalType": "bytes",
          "name": "userData",
          "type": "bytes"
        }
      ],
      "name": "queryExit",
      "outputs": [
        {
          "internalType": "uint256",
          "name": "bptIn",
          "type": "uint256"
        },
        {
          "internalType": "uint256[]",
          "name": "amountsOut",
          "type": "uint256[]"
        }
      ],
      "stateMutability": "view",
      "type": "function"
    },
    {
      "inputs": [
        {
          "internalType": "bytes32",
          "name": "poolId",
          "type": "bytes32"
        },
        {
          "internalType": "address",
          "name": "sender",
          "type": "address"
        },
        {
          "internalType": "address",
          "name": "recipient",
          "type": "address"
        },
        {
          "internalType": "uint256[]",
          "name": "balances",
          "type": "uint256[]"
        },
        {
          "internalType": "uint256",
          "name": "lastChangeBlock",
          "type": "uint256"
        },
        {
          "internalType": "uint256",
          "name": "protocolSwapFeePercentage",
          "type": "uint256"
        },
        {
          "internalType": "bytes",
          "name": "userData",
          "type": "bytes"
        }
      ],
      "name": "queryJoin",
      "outputs": [
        {
          "internalType": "uint256",
          "name": "bptOut",
          "type": "uint256"
        },
        {
          "internalType": "uint256[]",
          "name": "amountsIn",
          "type": "uint256[]"
        }
      ],
      "stateMutability": "view",
      "type": "function"
    },
    {
      "inputs": [
        {
          "internalType": "contract IERC20",
          "name": "token",
          "type": "address"
        },
        {
          "internalType": "bytes",
          "name": "poolConfig",
          "type": "bytes"
        }
      ],
      "name": "setAssetManagerPoolConfig",
      "outputs": [],
      "stateMutability": "nonpayable",
      "type": "function"
    },
    {
      "inputs": [
        {
          "internalType": "uint256",
          "name": "swapFeePercentage",
          "type": "uint256"
        }
      ],
      "name": "setSwapFeePercentage",
      "outputs": [],
      "stateMutability": "nonpayable",
      "type": "function"
    },
    {
      "inputs": [],
      "name": "symbol",
      "outputs": [
        {
          "internalType": "string",
          "name": "",
          "type": "string"
        }
      ],
      "stateMutability": "view",
      "type": "function"
    },
    {
      "inputs": [],
      "name": "totalSupply",
      "outputs": [
        {
          "internalType": "uint256",
          "name": "",
          "type": "uint256"
        }
      ],
      "stateMutability": "view",
      "type": "function"
    },
    {
      "inputs": [
        {
          "internalType": "address",
          "name": "recipient",
          "type": "address"
        },
        {
          "internalType": "uint256",
          "name": "amount",
          "type": "uint256"
        }
      ],
      "name": "transfer",
      "outputs": [
        {
          "internalType": "bool",
          "name": "",
          "type": "bool"
        }
      ],
      "stateMutability": "nonpayable",
      "type": "function"
    },
    {
      "inputs": [
        {
          "internalType": "address",
          "name": "sender",
          "type": "address"
        },
        {
          "internalType": "address",
          "name": "recipient",
          "type": "address"
        },
        {
          "internalType": "uint256",
          "name": "amount",
          "type": "uint256"
        }
      ],
      "name": "transferFrom",
      "outputs": [
        {
          "internalType": "bool",
          "name": "",
          "type": "bool"
        }
      ],
      "stateMutability": "nonpayable",
      "type": "function"
    },
    {
      "inputs": [],
      "name": "unpause",
      "outputs": [],
      "stateMutability": "nonpayable",
      "type": "function"
    }
  ],
  "bytecode": "0x6103406040523480156200001257600080fd5b506040516200776a3803806200776a833981016040819052620000359162000c0f565b846000856000015186602001516200005d88604001518960800151306200057060201b60201c565b60408051600380825260808201909252906020820160608036833701905050896101200151898989828289898d85336001600160a01b031660001b8480604051806040016040528060018152602001603160f81b81525087878160039080519060200190620000ce92919062000a91565b508051620000e490600490602084019062000a91565b50506005805460ff19166012179055508151602092830120608052805191012060a052507f8b73c3c69bb8fe3d512ecc4cf759cc79239f7b179b0ffacaa9a75d522b39400f60c05260e0526001600160601b0319606091821b81166101005291901b1661012052506200016290506276a7008311156101946200063f565b6200017662278d008211156101956200063f565b429091016101408190520161016052855162000198906002111560c86200063f565b620001b2620001a662000654565b8751111560c96200063f565b620001c8866200065960201b620029521760201c565b620001d38462000665565b6040516309b2760f60e01b81526000906001600160a01b038c16906309b2760f9062000204908d9060040162000e82565b602060405180830381600087803b1580156200021f57600080fd5b505af115801562000234573d6000803e3d6000fd5b505050506040513d601f19601f820116820180604052508101906200025a919062000bd7565b604051633354e3e960e11b81529091506001600160a01b038c16906366a9c7d2906200028f9084908b908b9060040162000da2565b600060405180830381600087803b158015620002aa57600080fd5b505af1158015620002bf573d6000803e3d6000fd5b505050508061018081815250508a6001600160a01b031663d2946c2b6040518163ffffffff1660e01b815260040160206040518083038186803b1580156200030657600080fd5b505afa1580156200031b573d6000803e3d6000fd5b505050506040513d601f19601f8201168201806040525081019062000341919062000bf0565b6001600160a01b03166101a0816001600160a01b031660601b81525050505050505050505050505083604001516001600160a01b03166101c0816001600160a01b031660601b8152505083608001516001600160a01b03166101e0816001600160a01b031660601b8152505084600a60006101000a8154816001600160a01b0302191690836001600160a01b031602179055506000806000620003f48760400151886080015130620006f960201b60201c565b6102c08190526102e083905261030082905260408a015192955090935091506200041e90620007ef565b6102005260808701516200043290620007ef565b6102205260e0870151610240526101008701516102605260c0870151610280526101208701516102a0526001600160601b0319606085901b16610320526040808801516080890151915186929030906200048c9062000b16565b6200049b949392919062000d77565b604051809103906000f080158015620004b8573d6000803e3d6000fd5b50600960006101000a8154816001600160a01b0302191690836001600160a01b0316021790555086604001516001600160a01b03167fd6f5413bc80efac34c691ce040d283808cca483a781bcb2e349e41a52cfc57f688606001518960c001518a608001518b60e001518c61010001518d60a00151600960009054906101000a90046001600160a01b03168c6040516200055a98979695949392919062000e3e565b60405180910390a2505050505050505062000ee9565b60606000808062000583878787620006f9565b6040805160038082526080820190925293965091945092506020820160608036833701905050935086848481518110620005b957fe5b60200260200101906001600160a01b031690816001600160a01b03168152505085848381518110620005e757fe5b60200260200101906001600160a01b031690816001600160a01b031681525050848482815181106200061557fe5b60200260200101906001600160a01b031690816001600160a01b0316815250505050509392505050565b8162000650576200065081620008c3565b5050565b600390565b806200065081620008d8565b6200067e6200067362000964565b82101560cb6200063f565b620006976200068c6200096d565b82111560ca6200063f565b620006b98160c0603f6008546200097960201b6200295c17909392919060201c565b6008556040517fa9ba3ffe0b6c366b81232caab38605a0699ad5398d6cce76f91ee809e322dafc90620006ee90839062000e97565b60405180910390a150565b6000806000846001600160a01b0316866001600160a01b031610156200078257836001600160a01b0316856001600160a01b0316101562000745575060009150600190506002620007e6565b836001600160a01b0316866001600160a01b0316101562000771575060009150600290506001620007e6565b5060019150600290506000620007e6565b846001600160a01b0316846001600160a01b03161015620007ae575060029150600190506000620007e6565b856001600160a01b0316846001600160a01b03161015620007da575060029150600090506001620007e6565b50600191506000905060025b93509350939050565b60006001600160a01b038216301415620008135750670de0b6b3a7640000620008be565b6000826001600160a01b031663313ce5676040518163ffffffff1660e01b815260040160206040518083038186803b1580156200084f57600080fd5b505afa15801562000864573d6000803e3d6000fd5b505050506040513d601f19601f820116820180604052508101906200088a919062000d54565b60ff1690506000620008a96012836200099e60201b6200297f1760201c565b905080600a0a670de0b6b3a764000002925050505b919050565b620008d5816210905360ea1b620009bb565b50565b600281511015620008e957620008d5565b600081600081518110620008f957fe5b602002602001015190506000600190505b82518110156200095f5760008382815181106200092357fe5b6020026020010151905062000954816001600160a01b0316846001600160a01b03161060656200063f60201b60201c565b91506001016200090a565b505050565b64e8d4a5100090565b67016345785d8a000090565b60006200098884848462000a1c565b506001901b60001901811b1992909216911b1790565b6000620009b08383111560016200063f565b508082035b92915050565b62461bcd60e51b600090815260206004526007602452600a808404818106603090810160081b958390069590950190829004918206850160101b01602363ffffff0060e086901c160160181b0190930160c81b60445260e882901c90606490fd5b62000a2d610100831060646200063f565b62000a666001821015801562000a5e575062000a5a60ff846101000362000a7760201b620029951760201c565b8211155b60646200063f565b6200095f83821c156101b46200063f565b600081831062000a88578162000a8a565b825b9392505050565b828054600181600116156101000203166002900490600052602060002090601f016020900481019282601f1062000ad457805160ff191683800117855562000b04565b8280016001018555821562000b04579182015b8281111562000b0457825182559160200191906001019062000ae7565b5062000b1292915062000b24565b5090565b6118278062005f4383390190565b5b8082111562000b12576000815560010162000b25565b8051620009b58162000ed3565b600082601f83011262000b59578081fd5b81516001600160401b0381111562000b6f578182fd5b602062000b85601f8301601f1916820162000ea0565b9250818352848183860101111562000b9c57600080fd5b60005b8281101562000bbc57848101820151848201830152810162000b9f565b8281111562000bce5760008284860101525b50505092915050565b60006020828403121562000be9578081fd5b5051919050565b60006020828403121562000c02578081fd5b815162000a8a8162000ed3565b600080600080600060a0868803121562000c27578081fd5b855162000c348162000ed3565b60208701519095506001600160401b038082111562000c51578283fd5b818801915061014080838b03121562000c68578384fd5b62000c738162000ea0565b905082518281111562000c84578485fd5b62000c928b82860162000b48565b82525060208301518281111562000ca7578485fd5b62000cb58b82860162000b48565b60208301525062000cca8a6040850162000b3b565b60408201526060830151606082015262000ce88a6080850162000b3b565b608082015260a083015160a082015260c083015160c082015260e083015160e08201526101009150818301518282015261012091508183015182820152809650505050604086015192506060860151915062000d48876080880162000b3b565b90509295509295909350565b60006020828403121562000d66578081fd5b815160ff8116811462000a8a578182fd5b6001600160a01b03948516815292841660208401529083166040830152909116606082015260800190565b60006060820185835260206060818501528186518084526080860191508288019350845b8181101562000dee5762000ddb855162000ec7565b8352938301939183019160010162000dc6565b505084810360408601528551808252908201925081860190845b8181101562000e305762000e1d835162000ec7565b8552938301939183019160010162000e08565b509298975050505050505050565b97885260208801969096526001600160a01b0394851660408801526060870193909352608086019190915260a0850152811660c08401521660e08201526101000190565b602081016003831062000e9157fe5b91905290565b90815260200190565b6040518181016001600160401b038111828210171562000ebf57600080fd5b604052919050565b6001600160a01b031690565b6001600160a01b0381168114620008d557600080fd5b60805160a05160c05160e0516101005160601c6101205160601c6101405161016051610180516101a05160601c6101c05160601c6101e05160601c61020051610220516102405161026051610280516102a0516102c0516102e051610300516103205160601c614e5f620010e4600039806135a952508061089f5280612a935280613615528061366f52508061096b5280612a2d525080610a095280611bcc5280611d745280611db15280611def5280612ae852505080611c62528061234852508061173952806117c852806118bb5280611a005280611af35280611e5a5280611ef152806120ab52806123af52508061171852806117a7528061189a52806119df5280611ad25280611e395280611ed0528061208a528061225e52508061134e5280612abb528061364852508061131a5280612a5552508061065552806106eb52806108435280610b855280610de35280610e8e52806112cf52806114f952806116ca52806118455280611a7d5280611cff5280611e825280612035528061240a525080610694528061072b528061090f5280610c385280610d405280610f0b5280610f9352806114ba5280611cc0528061228252508061272c5250806122d5525080612d34525080612d105250806126055250806125e152508061256b5250806137005250806137425250806137215250614e5f6000f3fe608060405234801561001057600080fd5b50600436106102f45760003560e01c806370a0823111610191578063a9059cbb116100e3578063d2946c2b11610097578063dd62ed3e11610071578063dd62ed3e14610580578063ed24911d14610593578063fd19cac81461059b576102f4565b8063d2946c2b14610552578063d505accf1461055a578063d5c096c41461056d576102f4565b8063ab63c607116100c8578063ab63c6071461053a578063b35056b814610542578063b7b814fc1461054a576102f4565b8063a9059cbb1461051f578063aaabadc514610532576102f4565b806387ec68171161014557806390193b7c1161011f57806390193b7c146104f157806395d89b4114610504578063a457c2d71461050c576102f4565b806387ec6817146104ce578063893d20e8146104e15780638d928af8146104e9576102f4565b80637ecebe00116101765780637ecebe00146104a05780638456cb59146104b3578063851c1bb3146104bb576102f4565b806370a082311461046c57806374f3b0091461047f576102f4565b806338e9922e1161024a57806350dd6ed9116101fe5780635c1548fb116101d85780635c1548fb1461043b5780636028bfd4146104435780636945c1fd14610464576102f4565b806350dd6ed91461041857806354a844ba1461042b57806355c6762814610433576102f4565b8063395093511161022f57806339509351146103f55780633f4ba83a146104085780634d6d0fd014610410576102f4565b806338e9922e146103d857806338fff2d0146103ed576102f4565b80631dd746ea116102ac5780632541897f116102865780632541897f146103a6578063313ce567146103bb5780633644e515146103d0576102f4565b80631dd746ea1461037657806323b872dd1461038b57806325117b721461039e576102f4565b8063095ea7b3116102dd578063095ea7b31461033757806318160ddd146103575780631c0de0511461035f576102f4565b806301ec954a146102f957806306fdde0314610322575b600080fd5b61030c610307366004614400565b6105a3565b6040516103199190614907565b60405180910390f35b61032a6120fb565b6040516103199190614a2c565b61034a61034536600461413a565b612191565b60405161031991906148e4565b61030c6121a8565b6103676121ae565b604051610319939291906148ef565b61037e6121d7565b60405161031991906148a3565b61034a61039936600461408a565b6121e6565b61030c61225c565b6103ae612280565b604051610319919061482f565b6103c36122a4565b6040516103199190614da3565b61030c6122ad565b6103eb6103e63660046145ff565b6122b7565b005b61030c6122d3565b61034a61040336600461413a565b6122f7565b6103eb612332565b61030c612346565b6103eb6104263660046142bf565b61236a565b6103eb612388565b61030c61239a565b61030c6123ad565b61045661045136600461419d565b6123d1565b604051610319929190614d8a565b6103ae612408565b61030c61047a366004614036565b61242c565b61049261048d36600461419d565b612447565b6040516103199291906148b6565b61030c6104ae366004614036565b61254a565b6103eb612555565b61030c6104c9366004614263565b612567565b6104566104dc36600461419d565b6125b9565b6103ae6125df565b6103ae612603565b61030c6104ff366004614036565b612627565b61032a612642565b61034a61051a36600461413a565b6126a3565b61034a61052d36600461413a565b6126e1565b6103ae6126ee565b6103ae6126f8565b61034a612707565b6103eb612718565b6103ae61272a565b6103eb6105683660046140ca565b61274e565b61049261057b36600461419d565b6127d9565b61030c61058e366004614052565b6128fc565b61030c612939565b6103ae612943565b600084608001516105d06105b5612603565b6001600160a01b0316336001600160a01b03161460cd6129ab565b6105e56105db6122d3565b82146101f46129ab565b6105ed6129b9565b6000865160018111156105fc57fe5b1480610614575060018651600181111561061257fe5b145b610653576040517f08c379a000000000000000000000000000000000000000000000000000000000815260040161064a90614b78565b60405180910390fd5b7f00000000000000000000000000000000000000000000000000000000000000006001600160a01b031686604001516001600160a01b031614806106cc57507f00000000000000000000000000000000000000000000000000000000000000006001600160a01b031686604001516001600160a01b0316145b806106e3575060408601516001600160a01b031630145b8061072357507f00000000000000000000000000000000000000000000000000000000000000006001600160a01b031686602001516001600160a01b0316145b8061076357507f00000000000000000000000000000000000000000000000000000000000000006001600160a01b031686602001516001600160a01b0316145b8061077a575060208601516001600160a01b031630145b6107b0576040517f08c379a000000000000000000000000000000000000000000000000000000000815260040161064a90614a3f565b60606107ba6129cc565b90506107c68682612b3f565b6107ce613edf565b6000808080808c5160018111156107e157fe5b1415610812576108088c60600151878c815181106107fb57fe5b6020026020010151612bae565b60608d0152610841565b60018c51600181111561082157fe5b14156108415761083b8c60600151878b815181106107fb57fe5b60608d01525b7f00000000000000000000000000000000000000000000000000000000000000006001600160a01b03168c602001516001600160a01b0316148015610892575060008c51600181111561089057fe5b145b1561090d578b606001518b7f0000000000000000000000000000000000000000000000000000000000000000815181106108c857fe5b60200260200101511015610908576040517f08c379a000000000000000000000000000000000000000000000000000000000815260040161064a90614ae4565b610a72565b7f00000000000000000000000000000000000000000000000000000000000000006001600160a01b03168c602001516001600160a01b031614801561095e575060008c51600181111561095c57fe5b145b156109d4578b606001518b7f00000000000000000000000000000000000000000000000000000000000000008151811061099457fe5b60200260200101511015610908576040517f08c379a000000000000000000000000000000000000000000000000000000000815260040161064a90614baf565b60208c01516001600160a01b0316301480156109fc575060008c5160018111156109fa57fe5b145b15610a72578b606001518b7f000000000000000000000000000000000000000000000000000000000000000081518110610a3257fe5b60200260200101511015610a72576040517f08c379a000000000000000000000000000000000000000000000000000000000815260040161064a90614aad565b6101008c01515115611c55578b6101000151806020019051810190610a979190614240565b90945092507f4c696d697400000000000000000000000000000000000000000000000000000091508361141657610acc613ef6565b60095460c08e01516040517fca142f750000000000000000000000000000000000000000000000000000000081526001600160a01b039092169163ca142f7591610b1a91889060040161488a565b60c06040518083038186803b158015610b3257600080fd5b505afa158015610b46573d6000803e3d6000fd5b505050506040513d601f19601f82011682018060405250810190610b6a9190614599565b60208101519091506001600160a01b0316158015610bbd57507f00000000000000000000000000000000000000000000000000000000000000006001600160a01b03168d604001516001600160a01b0316145b8015610bd5575060208d01516001600160a01b031630145b8015610bed575060008d516001811115610beb57fe5b145b15610c2157610c138d60600151888c81518110610c0657fe5b6020026020010151612bba565b9850505050505050506120f2565b60095460c08e015160208301516001600160a01b037f0000000000000000000000000000000000000000000000000000000000000000811693811692635778472a928216911614610c76578360400151610c79565b83515b6040518263ffffffff1660e01b8152600401610c959190614907565b60a06040518083038186803b158015610cad57600080fd5b505afa158015610cc1573d6000803e3d6000fd5b505050506040513d601f19601f82011682018060405250810190610ce5919061451f565b516001600160a01b031614610d1a577f63757272656e6379000000000000000000000000000000000000000000000000610d3c565b7f73656375726974790000000000000000000000000000000000000000000000005b92507f00000000000000000000000000000000000000000000000000000000000000006001600160a01b03168d604001516001600160a01b0316148015610d8f575060008d516001811115610d8d57fe5b145b15610de157806080015191508c606001518160a0015114610ddc576040517f08c379a000000000000000000000000000000000000000000000000000000000815260040161064a90614c43565b610e8a565b7f00000000000000000000000000000000000000000000000000000000000000006001600160a01b03168d604001516001600160a01b0316148015610e32575060008d516001811115610e3057fe5b145b15610e7f578060a0015191508c60600151816080015114610ddc576040517f08c379a000000000000000000000000000000000000000000000000000000000815260040161064a90614be6565b610e8a610163612bc6565b60007f00000000000000000000000000000000000000000000000000000000000000006001600160a01b03168e604001516001600160a01b0316148015610edd575060208e01516001600160a01b031630145b15610f0957507f53656c6c00000000000000000000000000000000000000000000000000000000610f91565b7f00000000000000000000000000000000000000000000000000000000000000006001600160a01b03168e604001516001600160a01b0316148015610f5a575060208e01516001600160a01b031630145b15610f8657507f4275790000000000000000000000000000000000000000000000000000000000610f91565b610f91610163612bc6565b7f00000000000000000000000000000000000000000000000000000000000000006001600160a01b03167fd6a806535ec4f172139ede2e9d6bbbe20957ca8a454fd40c9747fe139efe4247857f736563757269747900000000000000000000000000000000000000000000000087146110a95760095460408087015190517f5778472a0000000000000000000000000000000000000000000000000000000081526001600160a01b0390921691635778472a9161105091600401614907565b60a06040518083038186803b15801561106857600080fd5b505afa15801561107c573d6000803e3d6000fd5b505050506040513d601f19601f820116820180604052508101906110a0919061451f565b60600151611147565b60095485516040517f5778472a0000000000000000000000000000000000000000000000000000000081526001600160a01b0390921691635778472a916110f291600401614907565b60a06040518083038186803b15801561110a57600080fd5b505afa15801561111e573d6000803e3d6000fd5b505050506040513d601f19601f82011682018060405250810190611142919061451f565b606001515b7f63757272656e637900000000000000000000000000000000000000000000000088146112135760095460408088015190517f5778472a0000000000000000000000000000000000000000000000000000000081526001600160a01b0390921691635778472a916111ba91600401614907565b60a06040518083038186803b1580156111d257600080fd5b505afa1580156111e6573d6000803e3d6000fd5b505050506040513d601f19601f8201168201806040525081019061120a919061451f565b606001516112b1565b60095486516040517f5778472a0000000000000000000000000000000000000000000000000000000081526001600160a01b0390921691635778472a9161125c91600401614907565b60a06040518083038186803b15801561127457600080fd5b505afa158015611288573d6000803e3d6000fd5b505050506040513d601f19601f820116820180604052508101906112ac919061451f565b606001515b856112cd88608001518960a00151612bf090919063ffffffff16565b7f00000000000000000000000000000000000000000000000000000000000000008a8a6060015160405161130898979695949392919061492f565b60405180910390a261133e82608001517f0000000000000000000000000000000000000000000000000000000000000000612bba565b608083015260a0820151611372907f0000000000000000000000000000000000000000000000000000000000000000612bba565b60a083015260095460c08f01516040517fd729cf6c0000000000000000000000000000000000000000000000000000000081526001600160a01b039092169163d729cf6c916113c591899060040161488a565b600060405180830381600087803b1580156113df57600080fd5b505af11580156113f3573d6000803e3d6000fd5b5050505061140783898d81518110610c0657fe5b995050505050505050506120f2565b60405160200161142590614806565b604051602081830303815290604052805190602001208414801561144857508215155b1561146a57604080518082019091528060015b81526020018490529450611c50565b604051602001611479906147a7565b604051602081830303815290604052805190602001208414801561149c57508215155b156114b3576040805180820190915280600061145b565b826116c2577f00000000000000000000000000000000000000000000000000000000000000006001600160a01b03168c604001516001600160a01b0316148061153157507f00000000000000000000000000000000000000000000000000000000000000006001600160a01b03168c604001516001600160a01b0316145b8015611549575060208c01516001600160a01b031630145b8015611561575060008c51600181111561155f57fe5b145b156116b2576009546040517f7489ec230000000000000000000000000000000000000000000000000000000081526001600160a01b0390911690637489ec23906115af908790600401614907565b602060405180830381600087803b1580156115c957600080fd5b505af11580156115dd573d6000803e3d6000fd5b505050506040513d601f19601f820116820180604052508101906116019190614185565b90508b606001518114611640576040517f08c379a000000000000000000000000000000000000000000000000000000000815260040161064a90614b1b565b7f8c9f6168236ea8e4ba028817a40a995e0f33c80e6a1b694b522309f73bbad1768c60c001518d602001518e604001518f606001518786428b60405161168d989796959493929190614843565b60405180910390a16116a581878b81518110610c0657fe5b97505050505050506120f2565b6116bd610163612bc6565b611c50565b8215611c45577f00000000000000000000000000000000000000000000000000000000000000006001600160a01b03168c602001516001600160a01b0316141561176d5760608c0151611767906117628161175d7f00000000000000000000000000000000000000000000000000000000000000007f0000000000000000000000000000000000000000000000000000000000000000612c41565b612c53565b61297f565b60608d01525b60208c01516001600160a01b031630148015611795575060008c51600181111561179357fe5b145b156119a5576117ec836117628561175d7f00000000000000000000000000000000000000000000000000000000000000007f0000000000000000000000000000000000000000000000000000000000000000612c41565b90507f8c9f6168236ea8e4ba028817a40a995e0f33c80e6a1b694b522309f73bbad1768c60c001518d602001518e604001518f606001518786428b60405161183b989796959493929190614843565b60405180910390a17f00000000000000000000000000000000000000000000000000000000000000006001600160a01b03168c602001516001600160a01b031614156118ea576118e48c606001516118df670de0b6b3a76400006117627f00000000000000000000000000000000000000000000000000000000000000007f0000000000000000000000000000000000000000000000000000000000000000612c41565b612c41565b60608d01525b6009546040517f567711e10000000000000000000000000000000000000000000000000000000081526001600160a01b039091169063567711e190611933908790600401614907565b60206040518083038186803b15801561194b57600080fd5b505afa15801561195f573d6000803e3d6000fd5b505050506040513d601f19601f820116820180604052508101906119839190614185565b9050611993818d6060015161297f565b90506116a581878b81518110610c0657fe5b60408c01516001600160a01b0316301480156119cd575060008c5160018111156119cb57fe5b145b156116b257611a24836117628561175d7f00000000000000000000000000000000000000000000000000000000000000007f0000000000000000000000000000000000000000000000000000000000000000612c41565b90507f8c9f6168236ea8e4ba028817a40a995e0f33c80e6a1b694b522309f73bbad1768c60c001518d602001518e604001518f606001518786428b604051611a73989796959493929190614843565b60405180910390a17f00000000000000000000000000000000000000000000000000000000000000006001600160a01b03168c602001516001600160a01b03161415611b1d57611b178c606001516118df670de0b6b3a76400006117627f00000000000000000000000000000000000000000000000000000000000000007f0000000000000000000000000000000000000000000000000000000000000000612c41565b60608d01525b6009546040517f567711e10000000000000000000000000000000000000000000000000000000081526001600160a01b039091169063567711e190611b66908790600401614907565b60206040518083038186803b158015611b7e57600080fd5b505afa158015611b92573d6000803e3d6000fd5b505050506040513d601f19601f82011682018060405250810190611bb69190614185565b9050611bc68c606001518261297f565b9050808b7f000000000000000000000000000000000000000000000000000000000000000081518110611bf557fe5b60200260200101511015611c35576040517f08c379a000000000000000000000000000000000000000000000000000000000815260040161064a90614ca0565b6116a581878b81518110610c0657fe5b611c50610163612bc6565b611c60565b611c60610163612bc6565b7f00000000000000000000000000000000000000000000000000000000000000008c606001511015611cbe576040517f08c379a000000000000000000000000000000000000000000000000000000000815260040161064a90614a76565b7f00000000000000000000000000000000000000000000000000000000000000006001600160a01b03168c602001516001600160a01b03161480611d3757507f00000000000000000000000000000000000000000000000000000000000000006001600160a01b03168c602001516001600160a01b0316145b8015611d4f575060408c01516001600160a01b031630145b8015611d67575060008c516001811115611d6557fe5b145b15611fcf578b606001518b7f000000000000000000000000000000000000000000000000000000000000000081518110611d9d57fe5b60200260200101511115611fbf57611dec8b7f000000000000000000000000000000000000000000000000000000000000000081518110611dda57fe5b60200260200101518d6060015161297f565b8b7f000000000000000000000000000000000000000000000000000000000000000081518110611e1857fe5b602002602001018181525050611e7e8560200151611762876020015161175d7f00000000000000000000000000000000000000000000000000000000000000007f0000000000000000000000000000000000000000000000000000000000000000612c41565b90507f00000000000000000000000000000000000000000000000000000000000000006001600160a01b03168c602001516001600160a01b03161415611f1b5760608c0151611f15906117628161175d7f00000000000000000000000000000000000000000000000000000000000000007f0000000000000000000000000000000000000000000000000000000000000000612c41565b60608d01525b6009546040517f5487e8cf0000000000000000000000000000000000000000000000000000000081526001600160a01b0390911690635487e8cf90611f66908f908990600401614cd7565b602060405180830381600087803b158015611f8057600080fd5b505af1158015611f94573d6000803e3d6000fd5b505050506040513d601f19601f82011682018060405250810190611fb89190614185565b9150611fca565b611fca610201612bc6565b611fda565b611fda610163612bc6565b7f8c9f6168236ea8e4ba028817a40a995e0f33c80e6a1b694b522309f73bbad1768c60c001518d602001518e604001518f60600151896020015186428960405161202b989796959493929190614843565b60405180910390a17f00000000000000000000000000000000000000000000000000000000000000006001600160a01b03168c602001516001600160a01b031614156120d5576120cf8c606001516118df670de0b6b3a76400006117627f00000000000000000000000000000000000000000000000000000000000000007f0000000000000000000000000000000000000000000000000000000000000000612c41565b60608d01525b6120e98c60600151878b81518110610c0657fe5b97505050505050505b50949350505050565b60038054604080516020601f60026000196101006001881615020190951694909404938401819004810282018101909252828152606093909290918301828280156121875780601f1061215c57610100808354040283529160200191612187565b820191906000526020600020905b81548152906001019060200180831161216a57829003601f168201915b5050505050905090565b600061219e338484612c89565b5060015b92915050565b60025490565b60008060006121bb612cf1565b1592506121c6612d0e565b91506121d0612d32565b9050909192565b60606121e16129cc565b905090565b6000806121f385336128fc565b9050612217336001600160a01b038716148061220f5750838210155b61019e6129ab565b612222858585612d56565b336001600160a01b0386161480159061223d57506000198114155b1561224f5761224f8533858403612c89565b60019150505b9392505050565b7f000000000000000000000000000000000000000000000000000000000000000090565b7f000000000000000000000000000000000000000000000000000000000000000090565b60055460ff1690565b60006121e1612939565b6122bf612e36565b6122c76129b9565b6122d081612e7c565b50565b7f000000000000000000000000000000000000000000000000000000000000000090565b3360008181526001602090815260408083206001600160a01b0387168452909152812054909161219e91859061232d9086612c41565b612c89565b61233a612e36565b6123446000612ef5565b565b7f000000000000000000000000000000000000000000000000000000000000000090565b612372612e36565b61237a6129b9565b6123848282612f86565b5050565b612390612e36565b6123446001613094565b6008546000906121e19060c0603f6130eb565b7f000000000000000000000000000000000000000000000000000000000000000090565b600060606123e786516123e26130fa565b6130ff565b6123fc8989898989898961310c61315e6131c7565b97509795505050505050565b7f000000000000000000000000000000000000000000000000000000000000000090565b6001600160a01b031660009081526020819052604090205490565b606080886124566105b5612603565b6124616105db6122d3565b6060600061246e8661337c565b156124965761247b6133ab565b61248d896124876121a8565b886133be565b925090506124e8565b61249e6133ea565b60606124a86129cc565b90506124b48a82612b3f565b6124d88d8d8d8d8d6124c4612707565b6124ce578d6124d1565b60005b878e61310c565b935091506124e6838261315e565b505b6124f28b826133f2565b81895167ffffffffffffffff8111801561250b57600080fd5b50604051908082528060200260200182016040528015612535578160200160208202803683370190505b509450945050505b5097509795505050505050565b60006121a282612627565b61255d612e36565b6123446001612ef5565b60007f00000000000000000000000000000000000000000000000000000000000000008260405160200161259c929190614767565b604051602081830303815290604052805190602001209050919050565b600060606125ca86516123e26130fa565b6123fc898989898989896133fc6134186131c7565b7f000000000000000000000000000000000000000000000000000000000000000090565b7f000000000000000000000000000000000000000000000000000000000000000090565b6001600160a01b031660009081526006602052604090205490565b60048054604080516020601f60026000196101006001881615020190951694909404938401819004810282018101909252828152606093909290918301828280156121875780601f1061215c57610100808354040283529160200191612187565b6000806126b033856128fc565b90508083106126ca576126c533856000612c89565b6126d7565b6126d73385858403612c89565b5060019392505050565b600061219e338484612d56565b60006121e1613481565b6009546001600160a01b031690565b6008546000906121e19060ff6134fb565b612720612e36565b6123446000613094565b7f000000000000000000000000000000000000000000000000000000000000000090565b60007f6e71edae12b1b97f4d1f60370fef10105fa2faae0126114a169c64845d6126c988888861277d8c612627565b8960405160200161279396959493929190614976565b6040516020818303038152906040528051906020012090506127c488826127bb878787613505565b886101f8613544565b6127cf888888612c89565b5050505050505050565b606080886127e86105b5612603565b6127f36105db6122d3565b6127fb6133ea565b60606128056129cc565b905061280f6121a8565b6128bc57600060606128248d8d8d868b61359b565b9150915061283d6128336136c0565b83101560cc6129ab565b61284f600061284a6136c0565b6136c7565b6128628b61285b6136c0565b84036136c7565b61286c8184613418565b808a5167ffffffffffffffff8111801561288557600080fd5b506040519080825280602002602001820160405280156128af578160200160208202803683370190505b509550955050505061253d565b6128c68882612b3f565b600060606128ee8d8d8d8d8d6128da612707565b6128e4578d6128e7565b60005b898e6133fc565b915091506128628b836136c7565b6000612906612603565b6001600160a01b0316826001600160a01b0316141561292857506000196121a2565b61293283836136d1565b90506121a2565b60006121e16136fc565b6009546001600160a01b031681565b8061238481613799565b6000612969848484613817565b506001901b60001901811b1992909216911b1790565b600061298f8383111560016129ab565b50900390565b60008183106129a45781612255565b5090919050565b816123845761238481612bc6565b6123446129c4612cf1565b6101926129ab565b606060006129d86130fa565b905060608167ffffffffffffffff811180156129f357600080fd5b50604051908082528060200260200182016040528015612a1d578160200160208202803683370190505b50905060005b82811015612b38577f0000000000000000000000000000000000000000000000000000000000000000811415612a91577f0000000000000000000000000000000000000000000000000000000000000000828281518110612a8057fe5b602002602001018181525050612b30565b7f0000000000000000000000000000000000000000000000000000000000000000811415612ae6577f0000000000000000000000000000000000000000000000000000000000000000828281518110612a8057fe5b7f0000000000000000000000000000000000000000000000000000000000000000811415612b3057670de0b6b3a7640000828281518110612b2357fe5b6020026020010181815250505b600101612a23565b5091505090565b81518151612b4e9082906130ff565b60005b81811015612ba857612b89848281518110612b6857fe5b6020026020010151848381518110612b7c57fe5b6020026020010151612c53565b848281518110612b9557fe5b6020908102919091010152600101612b51565b50505050565b60006122558383612c53565b60006122558383612bf0565b6122d0817f42414c000000000000000000000000000000000000000000000000000000000061385e565b6000612bff82151560046129ab565b82612c0c575060006121a2565b670de0b6b3a764000083810290612c2f90858381612c2657fe5b041460056129ab565b828181612c3857fe5b049150506121a2565b600082820161225584821015836129ab565b6000828202612c77841580612c70575083858381612c6d57fe5b04145b60036129ab565b670de0b6b3a764000090049392505050565b6001600160a01b0380841660008181526001602090815260408083209487168084529490915290819020849055517f8c5be1e5ebec7d5bd14f71427d1e84f3dd0314c0f7b2291e5b200ac8c7c3b92590612ce4908590614907565b60405180910390a3505050565b6000612cfb612d32565b4211806121e157505060075460ff161590565b7f000000000000000000000000000000000000000000000000000000000000000090565b7f000000000000000000000000000000000000000000000000000000000000000090565b612d6d6001600160a01b03841615156101986129ab565b612d846001600160a01b03831615156101996129ab565b612d8f838383613812565b6001600160a01b038316600090815260208190526040902054612db590826101a06138d9565b6001600160a01b038085166000908152602081905260408082209390935590841681522054612de49082612c41565b6001600160a01b0380841660008181526020819052604090819020939093559151908516907fddf252ad1be2c89b69c2b068fc378daa952ba7f163c4a11628f55a4df523b3ef90612ce4908590614907565b6000612e656000357fffffffff0000000000000000000000000000000000000000000000000000000016612567565b90506122d0612e7482336138ef565b6101916129ab565b612e91612e876139d8565b82101560cb6129ab565b612ea6612e9c6139e1565b82111560ca6129ab565b600854612eb7908260c0603f61295c565b6008556040517fa9ba3ffe0b6c366b81232caab38605a0699ad5398d6cce76f91ee809e322dafc90612eea908390614907565b60405180910390a150565b8015612f1557612f10612f06612d0e565b42106101936129ab565b612f2a565b612f2a612f20612d32565b42106101a96129ab565b600780547fffffffffffffffffffffffffffffffffffffffffffffffffffffffffffffff00168215151790556040517f9e3a5e37224532dea67b89face185703738a228a6e8a23dee546960180d3be6490612eea9083906148e4565b6000612f906122d3565b90506000612f9c612603565b6001600160a01b031663b05f8e4883866040518363ffffffff1660e01b8152600401612fc99291906149f7565b60806040518083038186803b158015612fe157600080fd5b505afa158015612ff5573d6000803e3d6000fd5b505050506040513d601f19601f820116820180604052508101906130199190614617565b6040517f18e736d40000000000000000000000000000000000000000000000000000000081529094506001600160a01b03851693506318e736d492506130669150859087906004016149d6565b600060405180830381600087803b15801561308057600080fd5b505af11580156127cf573d6000803e3d6000fd5b6008546130a3908260ff6139ed565b6008556040517feff3d4d215b42bf0960be9c6d5e05c22cba4df6627a3a523e2acee733b5854c8906130d69083906148e4565b60405180910390a1806122d0576122d0612344565b6001901b6000190191901c1690565b600390565b61238481831460676129ab565b60006060600061311b84613a14565b9050600181600181111561312b57fe5b146131405761313b610163612bc6565b613150565b61314a8885613a2a565b90935091505b509850989650505050505050565b8151815161316d9082906130ff565b60005b81811015612ba8576131a884828151811061318757fe5b602002602001015184838151811061319b57fe5b6020026020010151612bf0565b8482815181106131b457fe5b6020908102919091010152600101613170565b3330146132b6576000306001600160a01b03166000366040516131eb929190614797565b6000604051808303816000865af19150503d8060008114613228576040519150601f19603f3d011682016040523d82523d6000602084013e61322d565b606091505b50509050806000811461323c57fe5b60046000803e6000517fffffffff00000000000000000000000000000000000000000000000000000000167f43adbafb000000000000000000000000000000000000000000000000000000008114613298573d6000803e3d6000fd5b506020600460003e604060205260243d03602460403e601c3d016000f35b6132be6133ea565b60606132c86129cc565b90506132d48782612b3f565b600060606132ec8c8c8c8c8c8c898d8d63ffffffff16565b915091506132fe81848663ffffffff16565b80517fffffffffffffffffffffffffffffffffffffffffffffffffffffffffffffffe082018390526343adbafb7fffffffffffffffffffffffffffffffffffffffffffffffffffffffffffffffc08301526020027fffffffffffffffffffffffffffffffffffffffffffffffffffffffffffffffdc82016044820181fd5b60008082511180156121a2575060ff8016828060200190518101906133a19190614657565b60ff161492915050565b6123446133b6612707565b6101b66129ab565b6000606060006133cd84613acd565b905060606133dc878784613ae3565b919791965090945050505050565b6123446129b9565b6123848282613b92565b6000606061340b610163612bc6565b9850989650505050505050565b815181516134279082906130ff565b60005b81811015612ba85761346284828151811061344157fe5b602002602001015184838151811061345557fe5b6020026020010151613c5e565b84828151811061346e57fe5b602090810291909101015260010161342a565b600061348b612603565b6001600160a01b031663aaabadc56040518163ffffffff1660e01b815260040160206040518083038186803b1580156134c357600080fd5b505afa1580156134d7573d6000803e3d6000fd5b505050506040513d601f19601f820116820180604052508101906121e191906142a3565b1c60019081161490565b60408051604180825260808201909252606091829190602082018180368337019050509050836020820152826040820152846060820153949350505050565b600061354f85613cac565b905061356561355f878387613cc8565b836129ab565b613574428410156101b86129ab565b5050506001600160a01b039092166000908152600660205260409020805460010190555050565b600060606135a76129b9565b7f00000000000000000000000000000000000000000000000000000000000000006135e26001600160a01b03888116908316146101566129ab565b613602816001600160a01b0316876001600160a01b0316146101566129ab565b606061360d85613d95565b905061366c817f00000000000000000000000000000000000000000000000000000000000000008151811061363e57fe5b60200260200101517f0000000000000000000000000000000000000000000000000000000000000000612bae565b817f00000000000000000000000000000000000000000000000000000000000000008151811061369857fe5b60209081029190910101526dffffffffffffffffffffffffffff999098509650505050505050565b620f424090565b6123848282613dab565b6001600160a01b03918216600090815260016020908152604080832093909416825291909152205490565b60007f00000000000000000000000000000000000000000000000000000000000000007f00000000000000000000000000000000000000000000000000000000000000007f0000000000000000000000000000000000000000000000000000000000000000613769613e3e565b3060405160200161377e9594939291906149aa565b60405160208183030381529060405280519060200120905090565b6002815110156137a8576122d0565b6000816000815181106137b757fe5b602002602001015190506000600190505b82518110156138125760008382815181106137df57fe5b60200260200101519050613808816001600160a01b0316846001600160a01b03161060656129ab565b91506001016137c8565b505050565b613826610100831060646129ab565b61384f60018210158015613848575061384460ff8461010003612995565b8211155b60646129ab565b61381283821c156101b46129ab565b7f08c379a000000000000000000000000000000000000000000000000000000000600090815260206004526007602452600a808404818106603090810160081b958390069590950190829004918206850160101b01602363ffffff0060e086901c160160181b0190930160c81b60445260e882901c90606490fd5b60006138e884841115836129ab565b5050900390565b600073ba1ba1ba1ba1ba1ba1ba1ba1ba1ba1ba1ba1ba1b61390e6125df565b6001600160a01b031614158015613929575061392983613e42565b15613951576139366125df565b6001600160a01b0316336001600160a01b03161490506121a2565b613959613481565b6001600160a01b0316639be2a8848484306040518463ffffffff1660e01b815260040161398893929190614910565b60206040518083038186803b1580156139a057600080fd5b505afa1580156139b4573d6000803e3d6000fd5b505050506040513d601f19601f820116820180604052508101906129329190614165565b64e8d4a5100090565b67016345785d8a000090565b60006001821b1984168284613a03576000613a06565b60015b60ff16901b17949350505050565b6000818060200190518101906121a2919061430d565b600060606000613a3984613eb0565b90506060855167ffffffffffffffff81118015613a5557600080fd5b50604051908082528060200260200182016040528015613a7f578160200160208202803683370190505b50905060005b8651811015613ac157868181518110613a9a57fe5b6020026020010151828281518110613aae57fe5b6020908102919091010152600101613a85565b50909590945092505050565b6000818060200190518101906122559190614673565b60606000613af18385612bf0565b9050845167ffffffffffffffff81118015613b0b57600080fd5b50604051908082528060200260200182016040528015613b35578160200160208202803683370190505b50915060005b8551811015613b8957613b6a82878381518110613b5457fe5b6020026020010151612c5390919063ffffffff16565b838281518110613b7657fe5b6020908102919091010152600101613b3b565b50509392505050565b613ba96001600160a01b038316151561019b6129ab565b613bb582600083613812565b6001600160a01b038216600090815260208190526040902054613bdb90826101b26138d9565b6001600160a01b038316600090815260208190526040902055613c0e613c0982613c036121a8565b90613ec6565b613ed4565b60006001600160a01b0316826001600160a01b03167fddf252ad1be2c89b69c2b068fc378daa952ba7f163c4a11628f55a4df523b3ef83604051613c529190614907565b60405180910390a35050565b6000613c6d82151560046129ab565b82613c7a575060006121a2565b670de0b6b3a764000083810290613c9490858381612c2657fe5b826001820381613ca057fe5b046001019150506121a2565b6000613cb66136fc565b8260405160200161259c9291906147d0565b6000613cda82516041146101b96129ab565b60208281015160408085015160608601518251600080825295019283905292939092811a91600190613d13908990859088908890614a0e565b6020604051602081039080840390855afa158015613d35573d6000803e3d6000fd5b50506040517fffffffffffffffffffffffffffffffffffffffffffffffffffffffffffffffe001519150506001600160a01b03811615801590613d895750876001600160a01b0316816001600160a01b0316145b98975050505050505050565b6060818060200190518101906122559190614356565b613db760008383613812565b613dcc613c0982613dc66121a8565b90612c41565b6001600160a01b038216600090815260208190526040902054613def9082612c41565b6001600160a01b0383166000818152602081905260408082209390935591519091907fddf252ad1be2c89b69c2b068fc378daa952ba7f163c4a11628f55a4df523b3ef90613c52908590614907565b4690565b6000613e6d7f38e9922e00000000000000000000000000000000000000000000000000000000612567565b821480613ea15750613e9e7f50dd6ed900000000000000000000000000000000000000000000000000000000612567565b82145b806121a257506121a282613ed9565b6000818060200190518101906122559190614329565b6000612255838360016138d9565b600255565b50600090565b604080518082019091526000808252602082015290565b6040805160c081018252600080825260208201819052918101829052606081018290526080810182905260a081019190915290565b80356121a281614df8565b600082601f830112613f46578081fd5b8135613f59613f5482614dd8565b614db1565b818152915060208083019084810181840286018201871015613f7a57600080fd5b60005b84811015613f9957813584529282019290820190600101613f7d565b505050505092915050565b600082601f830112613fb4578081fd5b813567ffffffffffffffff811115613fca578182fd5b613ffb60207fffffffffffffffffffffffffffffffffffffffffffffffffffffffffffffffe0601f84011601614db1565b915080825283602082850101111561401257600080fd5b8060208401602084013760009082016020015292915050565b80356121a281614e0d565b600060208284031215614047578081fd5b813561225581614df8565b60008060408385031215614064578081fd5b823561406f81614df8565b9150602083013561407f81614df8565b809150509250929050565b60008060006060848603121561409e578081fd5b83356140a981614df8565b925060208401356140b981614df8565b929592945050506040919091013590565b600080600080600080600060e0888a0312156140e4578485fd5b87356140ef81614df8565b965060208801356140ff81614df8565b95506040880135945060608801359350608088013561411d81614e1a565b9699959850939692959460a0840135945060c09093013592915050565b6000806040838503121561414c578182fd5b823561415781614df8565b946020939093013593505050565b600060208284031215614176578081fd5b81518015158114612255578182fd5b600060208284031215614196578081fd5b5051919050565b600080600080600080600060e0888a0312156141b7578081fd5b8735965060208801356141c981614df8565b955060408801356141d981614df8565b9450606088013567ffffffffffffffff808211156141f5578283fd5b6142018b838c01613f36565b955060808a0135945060a08a0135935060c08a0135915080821115614224578283fd5b506142318a828b01613fa4565b91505092959891949750929550565b60008060408385031215614252578182fd5b505080516020909101519092909150565b600060208284031215614274578081fd5b81357fffffffff0000000000000000000000000000000000000000000000000000000081168114612255578182fd5b6000602082840312156142b4578081fd5b815161225581614df8565b600080604083850312156142d1578182fd5b82356142dc81614df8565b9150602083013567ffffffffffffffff8111156142f7578182fd5b61430385828601613fa4565b9150509250929050565b60006020828403121561431e578081fd5b815161225581614e0d565b6000806040838503121561433b578182fd5b825161434681614e0d565b6020939093015192949293505050565b60008060408385031215614368578182fd5b825160048110614376578283fd5b8092505060208084015167ffffffffffffffff811115614394578283fd5b8401601f810186136143a4578283fd5b80516143b2613f5482614dd8565b81815283810190838501858402850186018a10156143ce578687fd5b8694505b838510156143f05780518352600194909401939185019185016143d2565b5080955050505050509250929050565b60008060008060808587031215614415578182fd5b843567ffffffffffffffff8082111561442c578384fd5b818701915061012080838a031215614442578485fd5b61444b81614db1565b9050614457898461402b565b81526144668960208501613f2b565b60208201526144788960408501613f2b565b6040820152606083013560608201526080830135608082015260a083013560a08201526144a88960c08501613f2b565b60c08201526144ba8960e08501613f2b565b60e082015261010080840135838111156144d2578687fd5b6144de8b828701613fa4565b8284015250508096505060208701359150808211156144fb578384fd5b5061450887828801613f36565b949794965050505060408301359260600135919050565b600060a08284031215614530578081fd5b61453a60a0614db1565b825161454581614df8565b8152602083015160038110614558578283fd5b602082015260408301516005811061456e578283fd5b6040820152606083015161458181614df8565b60608201526080928301519281019290925250919050565b600060c082840312156145aa578081fd5b6145b460c0614db1565b8251815260208301516145c681614df8565b8060208301525060408301516040820152606083015160608201526080830151608082015260a083015160a08201528091505092915050565b600060208284031215614610578081fd5b5035919050565b6000806000806080858703121561462c578182fd5b845193506020850151925060408501519150606085015161464c81614df8565b939692955090935050565b600060208284031215614668578081fd5b815161225581614e1a565b60008060408385031215614685578182fd5b825161434681614e1a565b6001600160a01b03169052565b6000815180845260208085019450808401835b838110156146cc578151875295820195908201906001016146b0565b509495945050505050565b60008151808452815b818110156146fc576020818501810151868301820152016146e0565b8181111561470d5782602083870101525b50601f017fffffffffffffffffffffffffffffffffffffffffffffffffffffffffffffffe0169290920160200192915050565b6002811061474a57fe5b9052565b80516003811061475a57fe5b8252602090810151910152565b9182527fffffffff0000000000000000000000000000000000000000000000000000000016602082015260240190565b6000828483379101908152919050565b7f4d61726b65740000000000000000000000000000000000000000000000000000815260060190565b7f190100000000000000000000000000000000000000000000000000000000000081526002810192909252602282015260420190565b7f4c696d6974000000000000000000000000000000000000000000000000000000815260050190565b6001600160a01b0391909116815260200190565b6001600160a01b03988916815296881660208801529490961660408601526060850192909252608084015260a083015260c082019290925260e08101919091526101000190565b6001600160a01b03929092168252602082015260400190565b600060208252612255602083018461469d565b6000604082526148c9604083018561469d565b82810360208401526148db818561469d565b95945050505050565b901515815260200190565b92151583526020830191909152604082015260600190565b90815260200190565b9283526001600160a01b03918216602084015216604082015260600190565b9788526001600160a01b03968716602089015294861660408801526060870193909352608086019190915290921660a084015260c083019190915260e08201526101000190565b9586526001600160a01b0394851660208701529290931660408501526060840152608083019190915260a082015260c00190565b9485526020850193909352604084019190915260608301526001600160a01b0316608082015260a00190565b6000838252604060208301526149ef60408301846146d7565b949350505050565b9182526001600160a01b0316602082015260400190565b93845260ff9290921660208401526040830152606082015260800190565b60006020825261225560208301846146d7565b60208082526016908201527f496e76616c6964207377617070656420746f6b656e7300000000000000000000604082015260600190565b60208082526018908201527f4f726465722062656c6f77206d696e696d756d2073697a650000000000000000604082015260600190565b6020808252601f908201527f496e73756666696369656e7420706f6f6c20746f6b656e2062616c616e636500604082015260600190565b6020808252601d908201527f496e73756666696369656e742063757272656e63792062616c616e6365000000604082015260600190565b60208082526023908201527f496e73756666696369656e7420706f6f6c20746f6b656e73207377617070656460408201527f20696e0000000000000000000000000000000000000000000000000000000000606082015260800190565b6020808252600c908201527f496e76616c696420737761700000000000000000000000000000000000000000604082015260600190565b6020808252601d908201527f496e73756666696369656e742073656375726974792062616c616e6365000000604082015260600190565b60208082526030908201527f496e73756666696369656e7420706f6f6c20746f6b656e73207377617070656460408201527f20696e20666f722063757272656e637900000000000000000000000000000000606082015260800190565b60208082526030908201527f496e73756666696369656e7420706f6f6c20746f6b656e73207377617070656460408201527f20696e20666f7220736563757269747900000000000000000000000000000000606082015260800190565b6020808252601d908201527f494e53554646494349454e545f494e5445524e414c5f42414c414e4345000000604082015260600190565b600060608252614ceb606083018551614740565b6020840151614cfd6080840182614690565b506040840151614d1060a0840182614690565b50606084015160c0830152608084015160e083015260a0840151610100818185015260c08601519150610120614d4881860184614690565b60e08701519250614d5d610140860184614690565b818701519250806101608601525050614d7a6101808401826146d7565b915050612255602083018461474e565b6000838252604060208301526149ef604083018461469d565b60ff91909116815260200190565b60405181810167ffffffffffffffff81118282101715614dd057600080fd5b604052919050565b600067ffffffffffffffff821115614dee578081fd5b5060209081020190565b6001600160a01b03811681146122d057600080fd5b600281106122d057600080fd5b60ff811681146122d057600080fdfea26469706673582212208c09bdd323a687c6260796ac6fdee3e5d561a1b0d2e87a07f67c772cba0e592364736f6c63430007010033608060405260006001553480156200001657600080fd5b506040516200182738038062001827833981016040819052620000399162000106565b620000443362000098565b600980546001600160a01b039586166001600160a01b03199182161790915560078054948616948216949094179093556008805492851692841692909217909155600a805491909316911617905562000166565b600080546001600160a01b038381166001600160a01b0319831681178455604051919092169283917f8be0079c531659141344cd1fd0a4f28419497f9722a3daafe3b4186f6b6457e09190a35050565b80516001600160a01b03811681146200010057600080fd5b92915050565b600080600080608085870312156200011c578384fd5b620001288686620000e8565b9350620001398660208701620000e8565b92506200014a8660408701620000e8565b91506200015b8660608701620000e8565b905092959194509250565b6116b180620001766000396000f3fe608060405234801561001057600080fd5b50600436106100f55760003560e01c8063715018a611610097578063ca142f7511610066578063ca142f75146101c8578063d729cf6c146101e8578063e43372e9146101fb578063f2fde38b14610203576100f5565b8063715018a6146101905780637489ec231461019a5780638da5cb5b146101ad578063c49f3fe3146101b5576100f5565b80635487e8cf116100d35780635487e8cf14610142578063567711e1146101555780635778472a146101685780636945c1fd14610188576100f5565b80632541897f146100fa57806338fff2d01461011857806346b8b7301461012d575b600080fd5b610102610216565b60405161010f9190611421565b60405180910390f35b610120610225565b60405161010f9190611479565b6101356102b4565b60405161010f9190611435565b6101206101503660046112ef565b6103ec565b61012061016336600461128e565b61066b565b61017b61017636600461128e565b61075b565b60405161010f9190611595565b6101026108b1565b6101986108c0565b005b6101206101a836600461128e565b6108d8565b610102610a5c565b6101986101c33660046112be565b610a6b565b6101db6101d6366004611263565b610de4565b60405161010f91906115f2565b6101986101f6366004611263565b610ebd565b610135610f61565b610198610211366004611240565b610fc2565b6007546001600160a01b031690565b600080600a60009054906101000a90046001600160a01b03166001600160a01b03166338fff2d06040518163ffffffff1660e01b815260040160206040518083038186803b15801561027657600080fd5b505afa15801561028a573d6000803e3d6000fd5b505050506040513d601f19601f820116820180604052508101906102ae91906112a6565b91505090565b600354606090819067ffffffffffffffff811180156102d257600080fd5b506040519080825280602002602001820160405280156102fc578160200160208202803683370190505b5090506000805b6003548110156103e457336001600160a01b0316600260006003848154811061032857fe5b600091825260208083209091015483528201929092526040019020600101546001600160a01b03161480156103a1575060028060006003848154811061036a57fe5b9060005260206000200154815260200190815260200160002060000160159054906101000a900460ff16600481111561039f57fe5b145b156103dc57600381815481106103b357fe5b90600052602060002001548383815181106103ca57fe5b60209081029190910101526001909101905b600101610303565b509091505090565b600061040c336103fa610a5c565b6001600160a01b0316146101aa610ff1565b60008251600281111561041b57fe5b1480610433575060018251600281111561043157fe5b145b61043c57600080fd5b600154421415610453576001805481019055610458565b426001555b60008360c001516001546040516020016104739291906113ec565b6040516020818303038152906040528051906020012090506104936110fa565b6040518060a0016040528086602001516001600160a01b03168152602001856000015160028111156104c157fe5b81526020016002815260c08701516001600160a01b03908116602080840191909152606089015160409384015260008681526002808352939020845181547fffffffffffffffffffffffff000000000000000000000000000000000000000016931692909217808355908401519394508493919283917fffffffffffffffffffffff00ffffffffffffffffffffffffffffffffffffffff16907401000000000000000000000000000000000000000090849081111561057c57fe5b02179055506040820151815482907fffffffffffffffffffff00ffffffffffffffffffffffffffffffffffffffffff1675010000000000000000000000000000000000000000008360048111156105cf57fe5b02179055506060820151600182810180547fffffffffffffffffffffffff0000000000000000000000000000000000000000166001600160a01b0390931692909217909155608090920151600290910155600380546000858152600460205260408120829055928101825591527fc2575a0e9e593c00f959f8c92f12db2869c3395a3b0502d05e2516446f71f85b018290555090505b92915050565b6000610679336103fa610a5c565b60026000838152600260205260409020547501000000000000000000000000000000000000000000900460ff1660048111156106b157fe5b146106f1576040517f08c379a00000000000000000000000000000000000000000000000000000000081526004016106e8906114f0565b60405180910390fd5b6000828152600260205260409020600101546001600160a01b03163314610744576040517f08c379a00000000000000000000000000000000000000000000000000000000081526004016106e8906114b9565b506000908152600260208190526040909120015490565b6107636110fa565b61076b610a5c565b6001600160a01b0316336001600160a01b0316148061079457506009546001600160a01b031633145b806107b857506000828152600260205260409020600101546001600160a01b031633145b6107ee576040517f08c379a00000000000000000000000000000000000000000000000000000000081526004016106e890611482565b600082815260026020818152604092839020835160a0810190945280546001600160a01b03811685529092918401917401000000000000000000000000000000000000000090910460ff169081111561084357fe5b600281111561084e57fe5b815281546020909101907501000000000000000000000000000000000000000000900460ff16600481111561087f57fe5b600481111561088a57fe5b815260018201546001600160a01b0316602082015260029091015460409091015292915050565b6008546001600160a01b031690565b6108cc336103fa610a5c565b6108d66000611003565b565b60006108e6336103fa610a5c565b60026000838152600260205260409020547501000000000000000000000000000000000000000000900460ff16600481111561091e57fe5b14610955576040517f08c379a00000000000000000000000000000000000000000000000000000000081526004016106e8906114f0565b6000828152600260205260409020600101546001600160a01b031633146109a8576040517f08c379a00000000000000000000000000000000000000000000000000000000081526004016106e8906114b9565b600082815260026020908152604080832080547fffffffffffffffffffff00ffffffffffffffffffffffffffffffffffffffffff16750300000000000000000000000000000000000000000017905560049091529020546003805490917fffffffffffffffffffffffffffffffffffffffffffffffffffffffffffffffff01908110610a3057fe5b906000526020600020016000905560026000838152602001908152602001600020600201549050919050565b6000546001600160a01b031690565b6009546001600160a01b03163314610aaf576040517f08c379a00000000000000000000000000000000000000000000000000000000081526004016106e890611527565b60008481526002602052604080822080547fffffffffffffffffffff00ffffffffffffffffffffffffffffffffffffffffff90811690915585835291208054909116905560018054810190819055610b0561112a565b6040518060c001604052808781526020016002600089815260200190815260200160002060010160009054906101000a90046001600160a01b03166001600160a01b031681526020018681526020018381526020018581526020018481525090508060056000600260008a815260200190815260200160002060010160009054906101000a90046001600160a01b03166001600160a01b03166001600160a01b0316815260200190815260200160002060008481526020019081526020016000206000820151816000015560208201518160010160006101000a8154816001600160a01b0302191690836001600160a01b0316021790555060408201518160020155606082015181600301556080820151816004015560a0820151816005015590505080600560006002600089815260200190815260200160002060010160009054906101000a90046001600160a01b03166001600160a01b03166001600160a01b0316815260200190815260200160002060008481526020019081526020016000206000820151816000015560208201518160010160006101000a8154816001600160a01b0302191690836001600160a01b0316021790555060408201518160020155606082015181600301556080820151816004015560a08201518160050155905050600660006002600089815260200190815260200160002060010160009054906101000a90046001600160a01b03166001600160a01b03166001600160a01b0316815260200190815260200160002081606001519080600181540180825580915050600190039060005260206000200160009091909190915055600660006002600088815260200190815260200160002060010160009054906101000a90046001600160a01b03166001600160a01b03166001600160a01b0316815260200190815260200160002081606001519080600181540180825580915050600190039060005260206000200160009091909190915055505050505050565b610dec61112a565b610df4610a5c565b6001600160a01b0316336001600160a01b03161480610e1b5750336001600160a01b038416145b610e51576040517f08c379a00000000000000000000000000000000000000000000000000000000081526004016106e89061155e565b506001600160a01b03918216600090815260056020818152604080842094845293815291839020835160c081018552815481526001820154909516928501929092526002820154928401929092526003810154606084015260048101546080840152015460a082015290565b610ec9336103fa610a5c565b60005b6001600160a01b038316600090815260066020526040902054811015610f5c576001600160a01b0383166000908152600660205260409020805483919083908110610f1357fe5b90600052602060002001541415610f54576001600160a01b0383166000908152600660205260409020805482908110610f4857fe5b60009182526020822001555b600101610ecc565b505050565b33600090815260066020908152604091829020805483518184028101840190945280845260609392830182828015610fb857602002820191906000526020600020905b815481526020019060010190808311610fa4575b5050505050905090565b610fce336103fa610a5c565b610fe56001600160a01b03821615156101ab610ff1565b610fee81611003565b50565b81610fff57610fff8161106b565b5050565b600080546001600160a01b038381167fffffffffffffffffffffffff0000000000000000000000000000000000000000831681178455604051919092169283917f8be0079c531659141344cd1fd0a4f28419497f9722a3daafe3b4186f6b6457e09190a35050565b7f08c379a000000000000000000000000000000000000000000000000000000000600090815260206004526007602452600a808304818106603090810160081b83860601918390049283060160101b016642414c230000300160c81b604452610fee917f42414c0000000000000000000000000000000000000000000000000000000000906242414c90606490fd5b6040805160a081019091526000808252602082019081526020016000815260006020820181905260409091015290565b6040805160c081018252600080825260208201819052918101829052606081018290526080810182905260a081019190915290565b803561066581611666565b600082601f83011261117a578081fd5b813567ffffffffffffffff811115611190578182fd5b6111c160207fffffffffffffffffffffffffffffffffffffffffffffffffffffffffffffffe0601f8401160161163f565b91508082528360208285010111156111d857600080fd5b8060208401602084013760009082016020015292915050565b80356002811061066557600080fd5b600060408284031215611211578081fd5b61121b604061163f565b905081356003811061122c57600080fd5b808252506020820135602082015292915050565b600060208284031215611251578081fd5b813561125c81611666565b9392505050565b60008060408385031215611275578081fd5b823561128081611666565b946020939093013593505050565b60006020828403121561129f578081fd5b5035919050565b6000602082840312156112b7578081fd5b5051919050565b600080600080608085870312156112d3578182fd5b5050823594602084013594506040840135936060013592509050565b60008060608385031215611301578182fd5b823567ffffffffffffffff80821115611318578384fd5b818501915061012080838803121561132e578485fd5b6113378161163f565b905061134387846111f1565b8152611352876020850161115f565b6020820152611364876040850161115f565b6040820152606083013560608201526080830135608082015260a083013560a08201526113948760c0850161115f565b60c08201526113a68760e0850161115f565b60e082015261010080840135838111156113be578687fd5b6113ca8982870161116a565b8284015250508094505050506113e38460208501611200565b90509250929050565b60609290921b7fffffffffffffffffffffffffffffffffffffffff000000000000000000000000168252601482015260340190565b6001600160a01b0391909116815260200190565b6020808252825182820181905260009190848201906040850190845b8181101561146d57835183529284019291840191600101611451565b50909695505050505050565b90815260200190565b6020808252601d908201527f556e617574686f72697a65642061636365737320746f206f7264657273000000604082015260600190565b6020808252601b908201527f53656e646572206973206e6f74206f726465722063726561746f720000000000604082015260600190565b60208082526017908201527f4f7264657220697320616c72656164792066696c6c6564000000000000000000604082015260600190565b6020808252601c908201527f556e617574686f72697a656420746f207265706f727420747261646500000000604082015260600190565b6020808252601d908201527f556e617574686f72697a65642061636365737320746f20747261646573000000604082015260600190565b600060a0820190506001600160a01b038084511683526020840151600381106115ba57fe5b60208401526040840151600581106115ce57fe5b80604085015250806060850151166060840152506080830151608083015292915050565b600060c082019050825182526001600160a01b03602084015116602083015260408301516040830152606083015160608301526080830151608083015260a083015160a083015292915050565b60405181810167ffffffffffffffff8111828210171561165e57600080fd5b604052919050565b6001600160a01b0381168114610fee57600080fdfea2646970667358221220c7a7bbcaaa6f855bd16bc14f80376b5a0c31ff72b2e0c6aa0bb0f10e86d2ce5064736f6c63430007010033",
  "linkReferences": {},
  "deployedLinkReferences": {}
}