{
  "_format": "hh-sol-artifact-1",
  "contractName": "OfficialPoolsRegister",
  "sourceName": "contracts/OfficialPoolsRegister.sol",
  "abi": [
    {
      "inputs": [
        {
          "internalType": "address",
          "name": "newOwner_",
          "type": "address"
        },
        {
          "internalType": "address",
          "name": "pendingOwner_",
          "type": "address"
        }
      ],
      "stateMutability": "nonpayable",
      "type": "constructor"
    },
    {
      "inputs": [],
      "name": "OfficialPoolsRegister_InvalidPool",
      "type": "error"
    },
    {
      "inputs": [],
      "name": "OfficialPoolsRegister_MaxPools10",
      "type": "error"
    },
    {
      "inputs": [],
      "name": "Ownable__CallerIsNotOwner",
      "type": "error"
    },
    {
      "inputs": [],
      "name": "Ownable__CannotSetOwnerToZeroAddress",
      "type": "error"
    },
    {
      "inputs": [],
      "name": "Ownable__CannotTransferToSelf",
      "type": "error"
    },
    {
      "inputs": [],
      "name": "Ownable__MustBeProposedOwner",
      "type": "error"
    },
    {
      "anonymous": false,
      "inputs": [
        {
          "indexed": true,
          "internalType": "address",
          "name": "sender",
          "type": "address"
        },
        {
          "indexed": true,
          "internalType": "bytes32",
          "name": "poolId",
          "type": "bytes32"
        }
      ],
      "name": "OfficialPoolDeregistered",
      "type": "event"
    },
    {
      "anonymous": false,
      "inputs": [
        {
          "indexed": true,
          "internalType": "address",
          "name": "sender",
          "type": "address"
        },
        {
          "indexed": true,
          "internalType": "bytes32",
          "name": "poolId",
          "type": "bytes32"
        }
      ],
      "name": "OfficialPoolRegistered",
      "type": "event"
    },
    {
      "anonymous": false,
      "inputs": [
        {
          "indexed": true,
          "internalType": "address",
          "name": "from",
          "type": "address"
        },
        {
          "indexed": true,
          "internalType": "address",
          "name": "to",
          "type": "address"
        }
      ],
      "name": "OwnershipTransferCanceled",
      "type": "event"
    },
    {
      "anonymous": false,
      "inputs": [
        {
          "indexed": true,
          "internalType": "address",
          "name": "from",
          "type": "address"
        },
        {
          "indexed": true,
          "internalType": "address",
          "name": "to",
          "type": "address"
        }
      ],
      "name": "OwnershipTransferRequested",
      "type": "event"
    },
    {
      "anonymous": false,
      "inputs": [
        {
          "indexed": true,
          "internalType": "address",
          "name": "from",
          "type": "address"
        },
        {
          "indexed": true,
          "internalType": "address",
          "name": "to",
          "type": "address"
        }
      ],
      "name": "OwnershipTransferred",
      "type": "event"
    },
    {
      "inputs": [],
      "name": "acceptOwnership",
      "outputs": [],
      "stateMutability": "nonpayable",
      "type": "function"
    },
    {
      "inputs": [],
      "name": "cancelOwnershipTransfer",
      "outputs": [],
      "stateMutability": "nonpayable",
      "type": "function"
    },
    {
      "inputs": [
        {
          "internalType": "uint256",
          "name": "poolIdIndex_",
          "type": "uint256"
        }
      ],
      "name": "deregisterOfficialPool",
      "outputs": [],
      "stateMutability": "nonpayable",
      "type": "function"
    },
    {
      "inputs": [],
      "name": "getAllOfficialPools",
      "outputs": [
        {
          "internalType": "bytes32[]",
          "name": "",
          "type": "bytes32[]"
        }
      ],
      "stateMutability": "view",
      "type": "function"
    },
    {
      "inputs": [],
      "name": "getPendingOwner",
      "outputs": [
        {
          "internalType": "address",
          "name": "",
          "type": "address"
        }
      ],
      "stateMutability": "view",
      "type": "function"
    },
    {
      "inputs": [],
      "name": "owner",
      "outputs": [
        {
          "internalType": "address",
          "name": "",
          "type": "address"
        }
      ],
      "stateMutability": "view",
      "type": "function"
    },
    {
      "inputs": [
        {
          "internalType": "bytes32[]",
          "name": "poolIds_",
          "type": "bytes32[]"
        }
      ],
      "name": "registerOfficialPool",
      "outputs": [],
      "stateMutability": "nonpayable",
      "type": "function"
    },
    {
      "inputs": [
        {
          "internalType": "address",
          "name": "newOwner",
          "type": "address"
        }
      ],
      "name": "transferOwnership",
      "outputs": [],
      "stateMutability": "nonpayable",
      "type": "function"
    }
  ],
  "bytecode": "0x60806040523480156200001157600080fd5b506040516200131a3803806200131a833981810160405281019062000037919062000306565b8181600073ffffffffffffffffffffffffffffffffffffffff168273ffffffffffffffffffffffffffffffffffffffff1603620000a0576040517fa3c419a100000000000000000000000000000000000000000000000000000000815260040160405180910390fd5b816000806101000a81548173ffffffffffffffffffffffffffffffffffffffff021916908373ffffffffffffffffffffffffffffffffffffffff160217905550600073ffffffffffffffffffffffffffffffffffffffff168173ffffffffffffffffffffffffffffffffffffffff1614620001275762000126816200013160201b60201c565b5b505050506200034d565b600073ffffffffffffffffffffffffffffffffffffffff168173ffffffffffffffffffffffffffffffffffffffff160362000198576040517fa3c419a100000000000000000000000000000000000000000000000000000000815260040160405180910390fd5b3373ffffffffffffffffffffffffffffffffffffffff168173ffffffffffffffffffffffffffffffffffffffff1603620001fe576040517f1ee7a57700000000000000000000000000000000000000000000000000000000815260040160405180910390fd5b80600160006101000a81548173ffffffffffffffffffffffffffffffffffffffff021916908373ffffffffffffffffffffffffffffffffffffffff1602179055508073ffffffffffffffffffffffffffffffffffffffff163373ffffffffffffffffffffffffffffffffffffffff167fed8889f560326eb138920d842192f0eb3dd22b4f139c87a2c57538e05bae127860405160405180910390a350565b600080fd5b600073ffffffffffffffffffffffffffffffffffffffff82169050919050565b6000620002ce82620002a1565b9050919050565b620002e081620002c1565b8114620002ec57600080fd5b50565b6000815190506200030081620002d5565b92915050565b6000806040838503121562000320576200031f6200029c565b5b60006200033085828601620002ef565b92505060206200034385828601620002ef565b9150509250929050565b610fbd806200035d6000396000f3fe608060405234801561001057600080fd5b50600436106100885760003560e01c806393596c7b1161005b57806393596c7b146100dd578063d18c53b2146100fb578063da62d14b14610117578063f2fde38b1461013357610088565b806323452b9c1461008d57806379ba50971461009757806383d44e57146100a15780638da5cb5b146100bf575b600080fd5b61009561014f565b005b61009f61029a565b005b6100a9610426565b6040516100b69190610b62565b60405180910390f35b6100c761047e565b6040516100d49190610bc5565b60405180910390f35b6100e56104a7565b6040516100f29190610bc5565b60405180910390f35b61011560048036038101906101109190610c2a565b6104d1565b005b610131600480360381019061012c9190610ddc565b6106a6565b005b61014d60048036038101906101489190610e51565b6108a0565b005b60008054906101000a900473ffffffffffffffffffffffffffffffffffffffff1673ffffffffffffffffffffffffffffffffffffffff163373ffffffffffffffffffffffffffffffffffffffff16146101d4576040517f021943c000000000000000000000000000000000000000000000000000000000815260040160405180910390fd5b6000600160009054906101000a900473ffffffffffffffffffffffffffffffffffffffff1690506000600160006101000a81548173ffffffffffffffffffffffffffffffffffffffff021916908373ffffffffffffffffffffffffffffffffffffffff1602179055508073ffffffffffffffffffffffffffffffffffffffff163373ffffffffffffffffffffffffffffffffffffffff167fe83a760af9d3c86797ea13c8979010086f067cfe3c985b2d03d951248600c50f60405160405180910390a350565b600160009054906101000a900473ffffffffffffffffffffffffffffffffffffffff1673ffffffffffffffffffffffffffffffffffffffff163373ffffffffffffffffffffffffffffffffffffffff1614610321576040517f4ecbaa2e00000000000000000000000000000000000000000000000000000000815260040160405180910390fd5b60008060009054906101000a900473ffffffffffffffffffffffffffffffffffffffff169050336000806101000a81548173ffffffffffffffffffffffffffffffffffffffff021916908373ffffffffffffffffffffffffffffffffffffffff1602179055506000600160006101000a81548173ffffffffffffffffffffffffffffffffffffffff021916908373ffffffffffffffffffffffffffffffffffffffff1602179055503373ffffffffffffffffffffffffffffffffffffffff168173ffffffffffffffffffffffffffffffffffffffff167f8be0079c531659141344cd1fd0a4f28419497f9722a3daafe3b4186f6b6457e060405160405180910390a350565b6060600280548060200260200160405190810160405280929190818152602001828054801561047457602002820191906000526020600020905b815481526020019060010190808311610460575b5050505050905090565b60008060009054906101000a900473ffffffffffffffffffffffffffffffffffffffff16905090565b6000600160009054906101000a900473ffffffffffffffffffffffffffffffffffffffff16905090565b60008054906101000a900473ffffffffffffffffffffffffffffffffffffffff1673ffffffffffffffffffffffffffffffffffffffff163373ffffffffffffffffffffffffffffffffffffffff1614610556576040517f021943c000000000000000000000000000000000000000000000000000000000815260040160405180910390fd5b60006002805490509050808210610599576040517fd34a67db00000000000000000000000000000000000000000000000000000000815260040160405180910390fd5b6000600283815481106105af576105ae610e7e565b5b9060005260206000200154905060006003600083815260200190815260200160002060006101000a81548160ff02191690831515021790555060026001836105f79190610edc565b8154811061060857610607610e7e565b5b90600052602060002001546002848154811061062757610626610e7e565b5b9060005260206000200181905550600280548061064757610646610f10565b5b60019003818190600052602060002001600090559055803373ffffffffffffffffffffffffffffffffffffffff167fb923d7f3a9fe3c5a3095b4c866cae1e364d70dae41d6782c903bf0cd0606d99d60405160405180910390a3505050565b60008054906101000a900473ffffffffffffffffffffffffffffffffffffffff1673ffffffffffffffffffffffffffffffffffffffff163373ffffffffffffffffffffffffffffffffffffffff161461072b576040517f021943c000000000000000000000000000000000000000000000000000000000815260040160405180910390fd5b600081519050600a81111561076c576040517fa19cd70400000000000000000000000000000000000000000000000000000000815260040160405180910390fd5b60005b8181101561089b57600083828151811061078c5761078b610e7e565b5b602002602001015190506003600082815260200190815260200160002060009054906101000a900460ff16156107ee576040517fd34a67db00000000000000000000000000000000000000000000000000000000815260040160405180910390fd5b600281908060018154018082558091505060019003906000526020600020016000909190919091505560016003600083815260200190815260200160002060006101000a81548160ff021916908315150217905550803373ffffffffffffffffffffffffffffffffffffffff167f5f0827c9a2c81072672d3de477eac53665cdd02d4859cd432f7d6b9dc29b5a2560405160405180910390a350808061089390610f3f565b91505061076f565b505050565b60008054906101000a900473ffffffffffffffffffffffffffffffffffffffff1673ffffffffffffffffffffffffffffffffffffffff163373ffffffffffffffffffffffffffffffffffffffff1614610925576040517f021943c000000000000000000000000000000000000000000000000000000000815260040160405180910390fd5b61092e81610931565b50565b600073ffffffffffffffffffffffffffffffffffffffff168173ffffffffffffffffffffffffffffffffffffffff1603610997576040517fa3c419a100000000000000000000000000000000000000000000000000000000815260040160405180910390fd5b3373ffffffffffffffffffffffffffffffffffffffff168173ffffffffffffffffffffffffffffffffffffffff16036109fc576040517f1ee7a57700000000000000000000000000000000000000000000000000000000815260040160405180910390fd5b80600160006101000a81548173ffffffffffffffffffffffffffffffffffffffff021916908373ffffffffffffffffffffffffffffffffffffffff1602179055508073ffffffffffffffffffffffffffffffffffffffff163373ffffffffffffffffffffffffffffffffffffffff167fed8889f560326eb138920d842192f0eb3dd22b4f139c87a2c57538e05bae127860405160405180910390a350565b600081519050919050565b600082825260208201905092915050565b6000819050602082019050919050565b6000819050919050565b610ad981610ac6565b82525050565b6000610aeb8383610ad0565b60208301905092915050565b6000602082019050919050565b6000610b0f82610a9a565b610b198185610aa5565b9350610b2483610ab6565b8060005b83811015610b55578151610b3c8882610adf565b9750610b4783610af7565b925050600181019050610b28565b5085935050505092915050565b60006020820190508181036000830152610b7c8184610b04565b905092915050565b600073ffffffffffffffffffffffffffffffffffffffff82169050919050565b6000610baf82610b84565b9050919050565b610bbf81610ba4565b82525050565b6000602082019050610bda6000830184610bb6565b92915050565b6000604051905090565b600080fd5b600080fd5b6000819050919050565b610c0781610bf4565b8114610c1257600080fd5b50565b600081359050610c2481610bfe565b92915050565b600060208284031215610c4057610c3f610bea565b5b6000610c4e84828501610c15565b91505092915050565b600080fd5b6000601f19601f8301169050919050565b7f4e487b7100000000000000000000000000000000000000000000000000000000600052604160045260246000fd5b610ca582610c5c565b810181811067ffffffffffffffff82111715610cc457610cc3610c6d565b5b80604052505050565b6000610cd7610be0565b9050610ce38282610c9c565b919050565b600067ffffffffffffffff821115610d0357610d02610c6d565b5b602082029050602081019050919050565b600080fd5b610d2281610ac6565b8114610d2d57600080fd5b50565b600081359050610d3f81610d19565b92915050565b6000610d58610d5384610ce8565b610ccd565b90508083825260208201905060208402830185811115610d7b57610d7a610d14565b5b835b81811015610da45780610d908882610d30565b845260208401935050602081019050610d7d565b5050509392505050565b600082601f830112610dc357610dc2610c57565b5b8135610dd3848260208601610d45565b91505092915050565b600060208284031215610df257610df1610bea565b5b600082013567ffffffffffffffff811115610e1057610e0f610bef565b5b610e1c84828501610dae565b91505092915050565b610e2e81610ba4565b8114610e3957600080fd5b50565b600081359050610e4b81610e25565b92915050565b600060208284031215610e6757610e66610bea565b5b6000610e7584828501610e3c565b91505092915050565b7f4e487b7100000000000000000000000000000000000000000000000000000000600052603260045260246000fd5b7f4e487b7100000000000000000000000000000000000000000000000000000000600052601160045260246000fd5b6000610ee782610bf4565b9150610ef283610bf4565b9250828203905081811115610f0a57610f09610ead565b5b92915050565b7f4e487b7100000000000000000000000000000000000000000000000000000000600052603160045260246000fd5b6000610f4a82610bf4565b91507fffffffffffffffffffffffffffffffffffffffffffffffffffffffffffffffff8203610f7c57610f7b610ead565b5b60018201905091905056fea26469706673582212205ceda268a99a3966156a2678d9dc37ccd0fa632b600289eb8f74b9beda1bb38c64736f6c63430008130033",
  "linkReferences": {},
  "deployedLinkReferences": {}
}