{
  "_format": "hh-sol-artifact-1",
  "contractName": "PrimaryIssuePool",
  "sourceName": "contracts/PrimaryIssuePool.sol",
  "abi": [
    {
      "inputs": [
        {
          "internalType": "contract IVault",
          "name": "vault",
          "type": "address"
        },
        {
          "internalType": "address",
          "name": "security",
          "type": "address"
        },
        {
          "internalType": "address",
          "name": "currency",
          "type": "address"
        },
        {
          "internalType": "uint256",
          "name": "minimumPrice",
          "type": "uint256"
        },
        {
          "internalType": "uint256",
          "name": "basePrice",
          "type": "uint256"
        },
        {
          "internalType": "uint256",
          "name": "maxSecurityOffered",
          "type": "uint256"
        },
        {
          "internalType": "uint256",
          "name": "issueFeePercentage",
          "type": "uint256"
        },
        {
          "internalType": "uint256",
          "name": "pauseWindowDuration",
          "type": "uint256"
        },
        {
          "internalType": "uint256",
          "name": "bufferPeriodDuration",
          "type": "uint256"
        },
        {
          "internalType": "uint256",
          "name": "issueCutoffTime",
          "type": "uint256"
        },
        {
          "internalType": "address",
          "name": "owner",
          "type": "address"
        }
      ],
      "stateMutability": "nonpayable",
      "type": "constructor"
    },
    {
      "anonymous": false,
      "inputs": [
        {
          "indexed": true,
          "internalType": "address",
          "name": "owner",
          "type": "address"
        },
        {
          "indexed": true,
          "internalType": "address",
          "name": "spender",
          "type": "address"
        },
        {
          "indexed": false,
          "internalType": "uint256",
          "name": "value",
          "type": "uint256"
        }
      ],
      "name": "Approval",
      "type": "event"
    },
    {
      "anonymous": false,
      "inputs": [
        {
          "indexed": true,
          "internalType": "address",
          "name": "security",
          "type": "address"
        },
        {
          "indexed": false,
          "internalType": "uint256",
          "name": "openingPrice",
          "type": "uint256"
        },
        {
          "indexed": false,
          "internalType": "uint256",
          "name": "securityOffered",
          "type": "uint256"
        },
        {
          "indexed": false,
          "internalType": "uint256",
          "name": "cutoffTime",
          "type": "uint256"
        }
      ],
      "name": "OpenIssue",
      "type": "event"
    },
    {
      "anonymous": false,
      "inputs": [
        {
          "indexed": false,
          "internalType": "bool",
          "name": "paused",
          "type": "bool"
        }
      ],
      "name": "PausedStateChanged",
      "type": "event"
    },
    {
      "anonymous": false,
      "inputs": [
        {
          "indexed": false,
          "internalType": "bool",
          "name": "enabled",
          "type": "bool"
        }
      ],
      "name": "RecoveryModeStateChanged",
      "type": "event"
    },
    {
      "anonymous": false,
      "inputs": [
        {
          "indexed": true,
          "internalType": "address",
          "name": "security",
          "type": "address"
        },
        {
          "indexed": false,
          "internalType": "address",
          "name": "assetIn",
          "type": "address"
        },
        {
          "indexed": false,
          "internalType": "string",
          "name": "assetName",
          "type": "string"
        },
        {
          "indexed": false,
          "internalType": "uint256",
          "name": "amount",
          "type": "uint256"
        },
        {
          "indexed": false,
          "internalType": "address",
          "name": "investor",
          "type": "address"
        },
        {
          "indexed": false,
          "internalType": "uint256",
          "name": "price",
          "type": "uint256"
        }
      ],
      "name": "Subscription",
      "type": "event"
    },
    {
      "anonymous": false,
      "inputs": [
        {
          "indexed": false,
          "internalType": "uint256",
          "name": "swapFeePercentage",
          "type": "uint256"
        }
      ],
      "name": "SwapFeePercentageChanged",
      "type": "event"
    },
    {
      "anonymous": false,
      "inputs": [
        {
          "indexed": true,
          "internalType": "address",
          "name": "from",
          "type": "address"
        },
        {
          "indexed": true,
          "internalType": "address",
          "name": "to",
          "type": "address"
        },
        {
          "indexed": false,
          "internalType": "uint256",
          "name": "value",
          "type": "uint256"
        }
      ],
      "name": "Transfer",
      "type": "event"
    },
    {
      "inputs": [],
      "name": "DOMAIN_SEPARATOR",
      "outputs": [
        {
          "internalType": "bytes32",
          "name": "",
          "type": "bytes32"
        }
      ],
      "stateMutability": "view",
      "type": "function"
    },
    {
      "inputs": [
        {
          "internalType": "address",
          "name": "owner",
          "type": "address"
        },
        {
          "internalType": "address",
          "name": "spender",
          "type": "address"
        }
      ],
      "name": "allowance",
      "outputs": [
        {
          "internalType": "uint256",
          "name": "",
          "type": "uint256"
        }
      ],
      "stateMutability": "view",
      "type": "function"
    },
    {
      "inputs": [
        {
          "internalType": "address",
          "name": "spender",
          "type": "address"
        },
        {
          "internalType": "uint256",
          "name": "amount",
          "type": "uint256"
        }
      ],
      "name": "approve",
      "outputs": [
        {
          "internalType": "bool",
          "name": "",
          "type": "bool"
        }
      ],
      "stateMutability": "nonpayable",
      "type": "function"
    },
    {
      "inputs": [
        {
          "internalType": "address",
          "name": "account",
          "type": "address"
        }
      ],
      "name": "balanceOf",
      "outputs": [
        {
          "internalType": "uint256",
          "name": "",
          "type": "uint256"
        }
      ],
      "stateMutability": "view",
      "type": "function"
    },
    {
      "inputs": [],
      "name": "decimals",
      "outputs": [
        {
          "internalType": "uint8",
          "name": "",
          "type": "uint8"
        }
      ],
      "stateMutability": "view",
      "type": "function"
    },
    {
      "inputs": [
        {
          "internalType": "address",
          "name": "spender",
          "type": "address"
        },
        {
          "internalType": "uint256",
          "name": "amount",
          "type": "uint256"
        }
      ],
      "name": "decreaseAllowance",
      "outputs": [
        {
          "internalType": "bool",
          "name": "",
          "type": "bool"
        }
      ],
      "stateMutability": "nonpayable",
      "type": "function"
    },
    {
      "inputs": [],
      "name": "disableRecoveryMode",
      "outputs": [],
      "stateMutability": "nonpayable",
      "type": "function"
    },
    {
      "inputs": [],
      "name": "enableRecoveryMode",
      "outputs": [],
      "stateMutability": "nonpayable",
      "type": "function"
    },
    {
      "inputs": [],
      "name": "exit",
      "outputs": [],
      "stateMutability": "nonpayable",
      "type": "function"
    },
    {
      "inputs": [
        {
          "internalType": "bytes4",
          "name": "selector",
          "type": "bytes4"
        }
      ],
      "name": "getActionId",
      "outputs": [
        {
          "internalType": "bytes32",
          "name": "",
          "type": "bytes32"
        }
      ],
      "stateMutability": "view",
      "type": "function"
    },
    {
      "inputs": [],
      "name": "getAuthorizer",
      "outputs": [
        {
          "internalType": "contract IAuthorizer",
          "name": "",
          "type": "address"
        }
      ],
      "stateMutability": "view",
      "type": "function"
    },
    {
      "inputs": [],
      "name": "getCurrency",
      "outputs": [
        {
          "internalType": "address",
          "name": "",
          "type": "address"
        }
      ],
      "stateMutability": "view",
      "type": "function"
    },
    {
      "inputs": [],
      "name": "getOwner",
      "outputs": [
        {
          "internalType": "address",
          "name": "",
          "type": "address"
        }
      ],
      "stateMutability": "view",
      "type": "function"
    },
    {
      "inputs": [],
      "name": "getPausedState",
      "outputs": [
        {
          "internalType": "bool",
          "name": "paused",
          "type": "bool"
        },
        {
          "internalType": "uint256",
          "name": "pauseWindowEndTime",
          "type": "uint256"
        },
        {
          "internalType": "uint256",
          "name": "bufferPeriodEndTime",
          "type": "uint256"
        }
      ],
      "stateMutability": "view",
      "type": "function"
    },
    {
      "inputs": [],
      "name": "getPoolId",
      "outputs": [
        {
          "internalType": "bytes32",
          "name": "",
          "type": "bytes32"
        }
      ],
      "stateMutability": "view",
      "type": "function"
    },
    {
      "inputs": [],
      "name": "getProtocolFeesCollector",
      "outputs": [
        {
          "internalType": "contract IProtocolFeesCollector",
          "name": "",
          "type": "address"
        }
      ],
      "stateMutability": "view",
      "type": "function"
    },
    {
      "inputs": [],
      "name": "getScalingFactors",
      "outputs": [
        {
          "internalType": "uint256[]",
          "name": "",
          "type": "uint256[]"
        }
      ],
      "stateMutability": "view",
      "type": "function"
    },
    {
      "inputs": [],
      "name": "getSecurity",
      "outputs": [
        {
          "internalType": "address",
          "name": "",
          "type": "address"
        }
      ],
      "stateMutability": "view",
      "type": "function"
    },
    {
      "inputs": [],
      "name": "getSwapFeePercentage",
      "outputs": [
        {
          "internalType": "uint256",
          "name": "",
          "type": "uint256"
        }
      ],
      "stateMutability": "view",
      "type": "function"
    },
    {
      "inputs": [],
      "name": "getVault",
      "outputs": [
        {
          "internalType": "contract IVault",
          "name": "",
          "type": "address"
        }
      ],
      "stateMutability": "view",
      "type": "function"
    },
    {
      "inputs": [],
      "name": "inRecoveryMode",
      "outputs": [
        {
          "internalType": "bool",
          "name": "",
          "type": "bool"
        }
      ],
      "stateMutability": "view",
      "type": "function"
    },
    {
      "inputs": [
        {
          "internalType": "address",
          "name": "spender",
          "type": "address"
        },
        {
          "internalType": "uint256",
          "name": "addedValue",
          "type": "uint256"
        }
      ],
      "name": "increaseAllowance",
      "outputs": [
        {
          "internalType": "bool",
          "name": "",
          "type": "bool"
        }
      ],
      "stateMutability": "nonpayable",
      "type": "function"
    },
    {
      "inputs": [],
      "name": "initialize",
      "outputs": [],
      "stateMutability": "nonpayable",
      "type": "function"
    },
    {
      "inputs": [],
      "name": "name",
      "outputs": [
        {
          "internalType": "string",
          "name": "",
          "type": "string"
        }
      ],
      "stateMutability": "view",
      "type": "function"
    },
    {
      "inputs": [
        {
          "internalType": "address",
          "name": "owner",
          "type": "address"
        }
      ],
      "name": "nonces",
      "outputs": [
        {
          "internalType": "uint256",
          "name": "",
          "type": "uint256"
        }
      ],
      "stateMutability": "view",
      "type": "function"
    },
    {
      "inputs": [
        {
          "internalType": "bytes32",
          "name": "poolId",
          "type": "bytes32"
        },
        {
          "internalType": "address",
          "name": "sender",
          "type": "address"
        },
        {
          "internalType": "address",
          "name": "recipient",
          "type": "address"
        },
        {
          "internalType": "uint256[]",
          "name": "balances",
          "type": "uint256[]"
        },
        {
          "internalType": "uint256",
          "name": "lastChangeBlock",
          "type": "uint256"
        },
        {
          "internalType": "uint256",
          "name": "protocolSwapFeePercentage",
          "type": "uint256"
        },
        {
          "internalType": "bytes",
          "name": "userData",
          "type": "bytes"
        }
      ],
      "name": "onExitPool",
      "outputs": [
        {
          "internalType": "uint256[]",
          "name": "",
          "type": "uint256[]"
        },
        {
          "internalType": "uint256[]",
          "name": "",
          "type": "uint256[]"
        }
      ],
      "stateMutability": "nonpayable",
      "type": "function"
    },
    {
      "inputs": [
        {
          "internalType": "bytes32",
          "name": "poolId",
          "type": "bytes32"
        },
        {
          "internalType": "address",
          "name": "sender",
          "type": "address"
        },
        {
          "internalType": "address",
          "name": "recipient",
          "type": "address"
        },
        {
          "internalType": "uint256[]",
          "name": "balances",
          "type": "uint256[]"
        },
        {
          "internalType": "uint256",
          "name": "lastChangeBlock",
          "type": "uint256"
        },
        {
          "internalType": "uint256",
          "name": "protocolSwapFeePercentage",
          "type": "uint256"
        },
        {
          "internalType": "bytes",
          "name": "userData",
          "type": "bytes"
        }
      ],
      "name": "onJoinPool",
      "outputs": [
        {
          "internalType": "uint256[]",
          "name": "",
          "type": "uint256[]"
        },
        {
          "internalType": "uint256[]",
          "name": "",
          "type": "uint256[]"
        }
      ],
      "stateMutability": "nonpayable",
      "type": "function"
    },
    {
      "inputs": [
        {
          "components": [
            {
              "internalType": "enum IVault.SwapKind",
              "name": "kind",
              "type": "uint8"
            },
            {
              "internalType": "contract IERC20",
              "name": "tokenIn",
              "type": "address"
            },
            {
              "internalType": "contract IERC20",
              "name": "tokenOut",
              "type": "address"
            },
            {
              "internalType": "uint256",
              "name": "amount",
              "type": "uint256"
            },
            {
              "internalType": "bytes32",
              "name": "poolId",
              "type": "bytes32"
            },
            {
              "internalType": "uint256",
              "name": "lastChangeBlock",
              "type": "uint256"
            },
            {
              "internalType": "address",
              "name": "from",
              "type": "address"
            },
            {
              "internalType": "address",
              "name": "to",
              "type": "address"
            },
            {
              "internalType": "bytes",
              "name": "userData",
              "type": "bytes"
            }
          ],
          "internalType": "struct IPoolSwapStructs.SwapRequest",
          "name": "request",
          "type": "tuple"
        },
        {
          "internalType": "uint256[]",
          "name": "balances",
          "type": "uint256[]"
        },
        {
          "internalType": "uint256",
          "name": "indexIn",
          "type": "uint256"
        },
        {
          "internalType": "uint256",
          "name": "indexOut",
          "type": "uint256"
        }
      ],
      "name": "onSwap",
      "outputs": [
        {
          "internalType": "uint256",
          "name": "",
          "type": "uint256"
        }
      ],
      "stateMutability": "nonpayable",
      "type": "function"
    },
    {
      "inputs": [],
      "name": "pause",
      "outputs": [],
      "stateMutability": "nonpayable",
      "type": "function"
    },
    {
      "inputs": [
        {
          "internalType": "address",
          "name": "owner",
          "type": "address"
        },
        {
          "internalType": "address",
          "name": "spender",
          "type": "address"
        },
        {
          "internalType": "uint256",
          "name": "value",
          "type": "uint256"
        },
        {
          "internalType": "uint256",
          "name": "deadline",
          "type": "uint256"
        },
        {
          "internalType": "uint8",
          "name": "v",
          "type": "uint8"
        },
        {
          "internalType": "bytes32",
          "name": "r",
          "type": "bytes32"
        },
        {
          "internalType": "bytes32",
          "name": "s",
          "type": "bytes32"
        }
      ],
      "name": "permit",
      "outputs": [],
      "stateMutability": "nonpayable",
      "type": "function"
    },
    {
      "inputs": [
        {
          "internalType": "bytes32",
          "name": "poolId",
          "type": "bytes32"
        },
        {
          "internalType": "address",
          "name": "sender",
          "type": "address"
        },
        {
          "internalType": "address",
          "name": "recipient",
          "type": "address"
        },
        {
          "internalType": "uint256[]",
          "name": "balances",
          "type": "uint256[]"
        },
        {
          "internalType": "uint256",
          "name": "lastChangeBlock",
          "type": "uint256"
        },
        {
          "internalType": "uint256",
          "name": "protocolSwapFeePercentage",
          "type": "uint256"
        },
        {
          "internalType": "bytes",
          "name": "userData",
          "type": "bytes"
        }
      ],
      "name": "queryExit",
      "outputs": [
        {
          "internalType": "uint256",
          "name": "bptIn",
          "type": "uint256"
        },
        {
          "internalType": "uint256[]",
          "name": "amountsOut",
          "type": "uint256[]"
        }
      ],
      "stateMutability": "view",
      "type": "function"
    },
    {
      "inputs": [
        {
          "internalType": "bytes32",
          "name": "poolId",
          "type": "bytes32"
        },
        {
          "internalType": "address",
          "name": "sender",
          "type": "address"
        },
        {
          "internalType": "address",
          "name": "recipient",
          "type": "address"
        },
        {
          "internalType": "uint256[]",
          "name": "balances",
          "type": "uint256[]"
        },
        {
          "internalType": "uint256",
          "name": "lastChangeBlock",
          "type": "uint256"
        },
        {
          "internalType": "uint256",
          "name": "protocolSwapFeePercentage",
          "type": "uint256"
        },
        {
          "internalType": "bytes",
          "name": "userData",
          "type": "bytes"
        }
      ],
      "name": "queryJoin",
      "outputs": [
        {
          "internalType": "uint256",
          "name": "bptOut",
          "type": "uint256"
        },
        {
          "internalType": "uint256[]",
          "name": "amountsIn",
          "type": "uint256[]"
        }
      ],
      "stateMutability": "view",
      "type": "function"
    },
    {
      "inputs": [
        {
          "internalType": "contract IERC20",
          "name": "token",
          "type": "address"
        },
        {
          "internalType": "bytes",
          "name": "poolConfig",
          "type": "bytes"
        }
      ],
      "name": "setAssetManagerPoolConfig",
      "outputs": [],
      "stateMutability": "nonpayable",
      "type": "function"
    },
    {
      "inputs": [
        {
          "internalType": "uint256",
          "name": "swapFeePercentage",
          "type": "uint256"
        }
      ],
      "name": "setSwapFeePercentage",
      "outputs": [],
      "stateMutability": "nonpayable",
      "type": "function"
    },
    {
      "inputs": [],
      "name": "symbol",
      "outputs": [
        {
          "internalType": "string",
          "name": "",
          "type": "string"
        }
      ],
      "stateMutability": "view",
      "type": "function"
    },
    {
      "inputs": [],
      "name": "totalSupply",
      "outputs": [
        {
          "internalType": "uint256",
          "name": "",
          "type": "uint256"
        }
      ],
      "stateMutability": "view",
      "type": "function"
    },
    {
      "inputs": [
        {
          "internalType": "address",
          "name": "recipient",
          "type": "address"
        },
        {
          "internalType": "uint256",
          "name": "amount",
          "type": "uint256"
        }
      ],
      "name": "transfer",
      "outputs": [
        {
          "internalType": "bool",
          "name": "",
          "type": "bool"
        }
      ],
      "stateMutability": "nonpayable",
      "type": "function"
    },
    {
      "inputs": [
        {
          "internalType": "address",
          "name": "sender",
          "type": "address"
        },
        {
          "internalType": "address",
          "name": "recipient",
          "type": "address"
        },
        {
          "internalType": "uint256",
          "name": "amount",
          "type": "uint256"
        }
      ],
      "name": "transferFrom",
      "outputs": [
        {
          "internalType": "bool",
          "name": "",
          "type": "bool"
        }
      ],
      "stateMutability": "nonpayable",
      "type": "function"
    },
    {
      "inputs": [],
      "name": "unpause",
      "outputs": [],
      "stateMutability": "nonpayable",
      "type": "function"
    }
  ],
  "bytecode": "0x6102c06040527f6e71edae12b1b97f4d1f60370fef10105fa2faae0126114a169c64845d6126c960e0523480156200003657600080fd5b50604051620046df380380620046df833981016040819052620000599162000ae1565b8a60008b6001600160a01b03166306fdde036040518163ffffffff1660e01b815260040160006040518083038186803b1580156200009657600080fd5b505afa158015620000ab573d6000803e3d6000fd5b505050506040513d6000823e601f3d908101601f19168201604052620000d5919081019062000b92565b8c6001600160a01b03166395d89b416040518163ffffffff1660e01b815260040160006040518083038186803b1580156200010f57600080fd5b505afa15801562000124573d6000803e3d6000fd5b505050506040513d6000823e601f3d908101601f191682016040526200014e919081019062000b92565b6200015a8e8e62000531565b6040805160028082526060820183529091602083019080368337019050508a8a8a89828289898d85336001600160a01b031660001b8480604051806040016040528060018152602001603160f81b81525087878160039080519060200190620001c592919062000a0d565b508051620001db90600490602084019062000a0d565b50506005805460ff19166012179055508151602092830120608052805191012060a052507f8b73c3c69bb8fe3d512ecc4cf759cc79239f7b179b0ffacaa9a75d522b39400f60c052610100526001600160601b0319606091821b81166101205291901b1661014052506200025a90506276a700831115610194620005e2565b6200026e62278d00821115610195620005e2565b429091016101608190520161018052855162000290906002111560c8620005e2565b620002aa6200029e620005f7565b8751111560c9620005e2565b620002c086620005fc60201b620013711760201c565b620002cb8462000608565b6040516309b2760f60e01b81526000906001600160a01b038c16906309b2760f90620002fc908d9060040162000d14565b602060405180830381600087803b1580156200031757600080fd5b505af11580156200032c573d6000803e3d6000fd5b505050506040513d601f19601f8201168201806040525081019062000352919062000aa9565b604051633354e3e960e11b81529091506001600160a01b038c16906366a9c7d290620003879084908b908b9060040162000c78565b600060405180830381600087803b158015620003a257600080fd5b505af1158015620003b7573d6000803e3d6000fd5b50505050806101a081815250508a6001600160a01b031663d2946c2b6040518163ffffffff1660e01b815260040160206040518083038186803b158015620003fe57600080fd5b505afa15801562000413573d6000803e3d6000fd5b505050506040513d601f19601f8201168201806040525081019062000439919062000ac2565b6001600160a01b03166101c0816001600160a01b031660601b815250505050505050505050505050896001600160a01b03166101e0816001600160a01b031660601b81525050886001600160a01b0316610200816001600160a01b031660601b815250506000806000620004b58d8d306200069c60201b60201c565b6102608390526102808290526102a081905291945092509050620004d98d62000792565b61022052620004e88c62000792565b61024052505050600997909755600a95909555505050600b55600c5542600d55600e80546001600160a01b0319166001600160a01b039092169190911790555062000d54915050565b6040805160028082526060808301845292602083019080368337019050509050816001600160a01b0316836001600160a01b03161162000572578262000574565b815b816000815181106200058257fe5b6001600160a01b0392831660209182029290920101528281169084161115620005ac5782620005ae565b815b81600181518110620005bc57fe5b60200260200101906001600160a01b031690816001600160a01b03168152505092915050565b81620005f357620005f38162000866565b5050565b600290565b80620005f381620008b9565b620006216200061662000946565b82101560cb620005e2565b6200063a6200062f6200094f565b82111560ca620005e2565b6200065c8160c060406008546200095b60201b6200137b17909392919060201c565b6008556040517fa9ba3ffe0b6c366b81232caab38605a0699ad5398d6cce76f91ee809e322dafc906200069190839062000d29565b60405180910390a150565b6000806000846001600160a01b0316866001600160a01b031610156200072557836001600160a01b0316856001600160a01b03161015620006e857506000915060019050600262000789565b836001600160a01b0316866001600160a01b031610156200071457506000915060029050600162000789565b506001915060029050600062000789565b846001600160a01b0316846001600160a01b031610156200075157506002915060019050600062000789565b856001600160a01b0316846001600160a01b031610156200077d57506002915060009050600162000789565b50600191506000905060025b93509350939050565b60006001600160a01b038216301415620007b65750670de0b6b3a764000062000861565b6000826001600160a01b031663313ce5676040518163ffffffff1660e01b815260040160206040518083038186803b158015620007f257600080fd5b505afa15801562000807573d6000803e3d6000fd5b505050506040513d601f19601f820116820180604052508101906200082d919062000c55565b60ff16905060006200084c6012836200098060201b6200139e1760201c565b905080600a0a670de0b6b3a764000002925050505b919050565b62461bcd60e51b6000908152602060045260076024526642414c23000030600a808404818106603090810160081b95839006959095019082900491820690940160101b939093010160c81b604452606490fd5b600281511015620008ca5762000943565b600081600081518110620008da57fe5b602002602001015190506000600190505b8251811015620009405760008382815181106200090457fe5b6020026020010151905062000935816001600160a01b0316846001600160a01b0316106065620005e260201b60201c565b9150600101620008eb565b50505b50565b64e8d4a5100090565b67016345785d8a000090565b60006200096a84848462000998565b506001901b60001901811b1992909216911b1790565b600062000992838311156001620005e2565b50900390565b620009a961010083106064620005e2565b620009e260018210158015620009da5750620009d660ff8461010003620009f360201b620013b41760201c565b8211155b6064620005e2565b6200094083821c156101b4620005e2565b600081831062000a04578162000a06565b825b9392505050565b828054600181600116156101000203166002900490600052602060002090601f016020900481019282601f1062000a5057805160ff191683800117855562000a80565b8280016001018555821562000a80579182015b8281111562000a8057825182559160200191906001019062000a63565b5062000a8e92915062000a92565b5090565b5b8082111562000a8e576000815560010162000a93565b60006020828403121562000abb578081fd5b5051919050565b60006020828403121562000ad4578081fd5b815162000a068162000d3e565b60008060008060008060008060008060006101608c8e03121562000b03578687fd5b8b5162000b108162000d3e565b60208d0151909b5062000b238162000d3e565b60408d0151909a5062000b368162000d3e565b8099505060608c0151975060808c0151965060a08c0151955060c08c0151945060e08c015193506101008c015192506101208c015191506101408c015162000b7e8162000d3e565b809150509295989b509295989b9093969950565b6000602080838503121562000ba5578182fd5b82516001600160401b038082111562000bbc578384fd5b818501915085601f83011262000bd0578384fd5b81518181111562000bdf578485fd5b604051601f8201601f191681018501838111828210171562000bff578687fd5b604052818152838201850188101562000c16578586fd5b8592505b8183101562000c39578383018501518184018601529184019162000c1a565b8183111562000c4a57858583830101525b979650505050505050565b60006020828403121562000c67578081fd5b815160ff8116811462000a06578182fd5b60006060820185835260206060818501528186518084526080860191508288019350845b8181101562000cc45762000cb1855162000d32565b8352938301939183019160010162000c9c565b505084810360408601528551808252908201925081860190845b8181101562000d065762000cf3835162000d32565b8552938301939183019160010162000cde565b509298975050505050505050565b602081016003831062000d2357fe5b91905290565b90815260200190565b6001600160a01b031690565b6001600160a01b03811681146200094357600080fd5b60805160a05160c05160e051610100516101205160601c6101405160601c61016051610180516101a0516101c05160601c6101e05160601c6102005160601c610220516102405161026051610280516102a05161381562000eca6000398061149a525080611459528061227552806122b752806124ea528061279752806127ca52806128ba525080611418528061222f528061251e5280612551528061275152806128ee5280612921525050508061093b5280610b0652806111ee528061153352806115de52806121aa52806121eb52806125fc528061261d52806126cc528061270d5250806107fb5280610ab85280610c8852806111a052806114e35280611595528061232552806123705280612391528061246552806124a652806125b152806128355280612876525080610eb352508061084e5250806116dc5250806116b8525080610db9525080610d95525080610d1f525080610f0a5250806117e252508061182452508061180352506138156000f3fe608060405234801561001057600080fd5b50600436106102ad5760003560e01c806370a082311161017b578063a457c2d7116100d8578063d2946c2b1161008c578063d5c096c411610071578063d5c096c4146104fb578063dd62ed3e1461050e578063e9fad8ee14610521576102ad565b8063d2946c2b146104e0578063d505accf146104e8576102ad565b8063aaabadc5116100bd578063aaabadc5146104c8578063b35056b8146104d0578063b7b814fc146104d8576102ad565b8063a457c2d7146104a2578063a9059cbb146104b5576102ad565b8063851c1bb31161012f578063893d20e811610114578063893d20e81461048a5780638d928af81461049257806395d89b411461049a576102ad565b8063851c1bb31461046457806387ec681714610477576102ad565b80637ecebe00116101605780637ecebe00146104415780638129fc1c146104545780638456cb591461045c576102ad565b806370a082311461040d57806374f3b00914610420576102ad565b80633644e5151161022957806350dd6ed9116101dd57806355c67628116101c257806355c67628146103dc5780636028bfd4146103e45780636945c1fd14610405576102ad565b806350dd6ed9146103c157806354a844ba146103d4576102ad565b806338fff2d01161020e57806338fff2d01461039e57806339509351146103a65780633f4ba83a146103b9576102ad565b80633644e5151461038157806338e9922e14610389576102ad565b80631c0de0511161028057806323b872dd1161026557806323b872dd146103445780632541897f14610357578063313ce5671461036c576102ad565b80631c0de051146103185780631dd746ea1461032f576102ad565b806301ec954a146102b257806306fdde03146102db578063095ea7b3146102f057806318160ddd14610310575b600080fd5b6102c56102c03660046131f8565b610529565b6040516102d291906135de565b60405180910390f35b6102e3610698565b6040516102d291906136f0565b6103036102fe366004612fed565b61072e565b6040516102d291906135bb565b6102c5610745565b61032061074b565b6040516102d2939291906135c6565b610337610774565b6040516102d29190613583565b610303610352366004612f3d565b610783565b61035f6107f9565b6040516102d29190613530565b61037461081d565b6040516102d29190613732565b6102c5610826565b61039c610397366004613317565b610830565b005b6102c561084c565b6103036103b4366004612fed565b610870565b61039c6108ab565b61039c6103cf366004613137565b6108bf565b61039c6108dd565b6102c56108ef565b6103f76103f2366004613038565b610902565b6040516102d2929190613703565b61035f610939565b6102c561041b366004612ee9565b61095d565b61043361042e366004613038565b610978565b6040516102d2929190613596565b6102c561044f366004612ee9565b610a7b565b61039c610a96565b61039c610d09565b6102c56104723660046130db565b610d1b565b6103f7610485366004613038565b610d6d565b61035f610d93565b61035f610db7565b6102e3610ddb565b6103036104b0366004612fed565b610e3c565b6103036104c3366004612fed565b610e7a565b61035f610e87565b610303610e91565b61039c610e9f565b61035f610eb1565b61039c6104f6366004612f7d565b610ed5565b610433610509366004613038565b61101e565b6102c561051c366004612f05565b611141565b61039c61117e565b6000846080015161055661053b610db7565b6001600160a01b0316336001600160a01b03161460cd6113ca565b61056b61056161084c565b82146101f46113ca565b4261057a600d54600c546113d8565b101561058557600080fd5b606061058f6113e8565b9050610599612db1565b60405180606001604052806105ac6108ef565b81526009546020820152600a5460409091015290506000885160018111156105d057fe5b1415610632576105f788606001518388815181106105ea57fe5b60200260200101516114d3565b606089015260006106098989846114df565b90506106288184888151811061061b57fe5b6020026020010151611585565b945050505061068f565b60018851600181111561064157fe5b141561068c5761065b88606001518387815181106105ea57fe5b6060890152600061066d898984611591565b90506106288184898151811061067f57fe5b6020026020010151611625565b50505b50949350505050565b60038054604080516020601f60026000196101006001881615020190951694909404938401819004810282018101909252828152606093909290918301828280156107245780601f106106f957610100808354040283529160200191610724565b820191906000526020600020905b81548152906001019060200180831161070757829003601f168201915b5050505050905090565b600061073b338484611631565b5060015b92915050565b60025490565b6000806000610758611699565b1592506107636116b6565b915061076d6116da565b9050909192565b606061077e6113e8565b905090565b6000806107908533611141565b90506107b4336001600160a01b03871614806107ac5750838210155b61019e6113ca565b6107bf8585856116fe565b336001600160a01b038616148015906107da57506000198114155b156107ec576107ec8533858403611631565b60019150505b9392505050565b7f000000000000000000000000000000000000000000000000000000000000000090565b60055460ff1690565b600061077e6117de565b61083861187b565b6108406118c1565b610849816118d4565b50565b7f000000000000000000000000000000000000000000000000000000000000000090565b3360008181526001602090815260408083206001600160a01b0387168452909152812054909161073b9185906108a6908661194d565b611631565b6108b361187b565b6108bd600061195f565b565b6108c761187b565b6108cf6118c1565b6108d982826119f0565b5050565b6108e561187b565b6108bd6001611b08565b60085460009061077e9060c06040611b68565b600060606109188651610913611b77565b611b7c565b61092d89898989898989611b89611ba5611c0b565b97509795505050505050565b7f000000000000000000000000000000000000000000000000000000000000000090565b6001600160a01b031660009081526020819052604090205490565b6060808861098761053b610db7565b61099261056161084c565b6060600061099f86611d9a565b156109c7576109ac611dc9565b6109be896109b8610745565b88611de0565b92509050610a19565b6109cf6118c1565b60606109d96113e8565b90506109e58a82611e0c565b610a098d8d8d8d8d6109f5610e91565b6109ff578d610a02565b60005b878e611b89565b93509150610a178382611ba5565b505b610a238b82611e6d565b81895167ffffffffffffffff81118015610a3c57600080fd5b50604051908082528060200260200182016040528015610a66578160200160208202803683370190505b509450945050505b5097509795505050505050565b6001600160a01b031660009081526006602052604090205490565b60408051600280825260608083018452926020830190803683370190505090507f000000000000000000000000000000000000000000000000000000000000000081600081518110610ae457fe5b60200260200101906001600160a01b031690816001600160a01b0316815250507f000000000000000000000000000000000000000000000000000000000000000081600181518110610b3257fe5b6001600160a01b0392909216602092830291909101909101526040805160028082526060828101909352816020016020820280368337019050509050600b5481600081518110610b7e57fe5b602002602001018181525050610b9a600b546009546000611e77565b81600181518110610ba757fe5b602002602001018181525050610bbb612dd2565b50604080516080810182528381526020808201849052825190810183526000808252928201526060810182905290610bf1610db7565b9050806001600160a01b031663b95cac28610c0a61084c565b600e546040517fffffffff0000000000000000000000000000000000000000000000000000000060e085901b168152610c5492916001600160a01b031690309088906004016135e7565b600060405180830381600087803b158015610c6e57600080fd5b505af1158015610c82573d6000803e3d6000fd5b505050507f00000000000000000000000000000000000000000000000000000000000000006001600160a01b03167fe061af2a4caf997f61f1dc16267966cd2ba0d1edce78eed8659b273c9bf0a45560095485600181518110610ce157fe5b6020026020010151600c54604051610cfb9392919061371c565b60405180910390a250505050565b610d1161187b565b6108bd600161195f565b60007f000000000000000000000000000000000000000000000000000000000000000082604051602001610d509291906134ba565b604051602081830303815290604052805190602001209050919050565b60006060610d7e8651610913611b77565b61092d89898989898989611b89611e9f611c0b565b7f000000000000000000000000000000000000000000000000000000000000000090565b7f000000000000000000000000000000000000000000000000000000000000000090565b60048054604080516020601f60026000196101006001881615020190951694909404938401819004810282018101909252828152606093909290918301828280156107245780601f106106f957610100808354040283529160200191610724565b600080610e493385611141565b9050808310610e6357610e5e33856000611631565b610e70565b610e703385858403611631565b5060019392505050565b600061073b3384846116fe565b600061077e611f00565b600754610100900460ff1690565b610ea761187b565b6108bd6000611b08565b7f000000000000000000000000000000000000000000000000000000000000000090565b610ee38442111560d16113ca565b6001600160a01b0387166000908152600660209081526040808320549051909291610f3a917f0000000000000000000000000000000000000000000000000000000000000000918c918c918c9188918d9101613642565b6040516020818303038152906040528051906020012090506000610f5d82611f7a565b9050600060018288888860405160008152602001604052604051610f8494939291906136d2565b6020604051602081039080840390855afa158015610fa6573d6000803e3d6000fd5b5050604051601f1901519150610fe890506001600160a01b03821615801590610fe057508b6001600160a01b0316826001600160a01b0316145b6101f86113ca565b6001600160a01b038b1660009081526006602052604090206001850190556110118b8b8b611631565b5050505050505050505050565b6060808861102d61053b610db7565b61103861056161084c565b60606110426113e8565b905061104c6118c1565b611054610745565b61110157600060606110698d8d8d868b611f96565b91509150611082611078612004565b83101560cc6113ca565b611094600061108f612004565b61200b565b6110a78b6110a0612004565b840361200b565b6110b18184611e9f565b808a5167ffffffffffffffff811180156110ca57600080fd5b506040519080825280602002602001820160405280156110f4578160200160208202803683370190505b5095509550505050610a6e565b61110b8882611e0c565b600060606111338d8d8d8d8d61111f610e91565b611129578d61112c565b60005b898e611b89565b915091506110a78b8361200b565b600061114b610db7565b6001600160a01b0316826001600160a01b0316141561116d575060001961073f565b6111778383612015565b905061073f565b60408051600280825260608083018452926020830190803683370190505090507f0000000000000000000000000000000000000000000000000000000000000000816000815181106111cc57fe5b60200260200101906001600160a01b031690816001600160a01b0316815250507f00000000000000000000000000000000000000000000000000000000000000008160018151811061121a57fe5b6001600160a01b039290921660209283029190910190910152604080516002808252606082810190935281602001602082028036833701905050905060008160008151811061126557fe5b602002602001018181525050611281600b54600a546000611e77565b8160018151811061128e57fe5b6020026020010181815250506112a2612dd2565b506040805160808101825283815260208082018490528251908101835260008082529282015260608101919091526112d8610db7565b6001600160a01b0316638bdb39136112ee61084c565b600e546040517fffffffff0000000000000000000000000000000000000000000000000000000060e085901b16815261133a929130916001600160a01b039091169087906004016135e7565b600060405180830381600087803b15801561135457600080fd5b505af1158015611368573d6000803e3d6000fd5b50505050505050565b806108d981612040565b60006113888484846120b9565b506001901b60001901811b1992909216911b1790565b60006113ae8383111560016113ca565b50900390565b60008183106113c357816107f2565b5090919050565b816108d9576108d981612100565b8181018281101561073f57600080fd5b604080516002808252606080830184529283929190602083019080368337019050509050670de0b6b3a7640000817f00000000000000000000000000000000000000000000000000000000000000008151811061144157fe5b602002602001018181525050670de0b6b3a7640000817f00000000000000000000000000000000000000000000000000000000000000008151811061148257fe5b602002602001018181525050670de0b6b3a7640000817f0000000000000000000000000000000000000000000000000000000000000000815181106114c357fe5b6020908102919091010152905090565b60006107f2838361216d565b60007f00000000000000000000000000000000000000000000000000000000000000006001600160a01b031684602001516001600160a01b031614156115315761152a8484846121a3565b90506107f2565b7f00000000000000000000000000000000000000000000000000000000000000006001600160a01b031684602001516001600160a01b0316141561157a5761152a84848461245e565b6107f2610135612100565b60006107f28383612674565b60007f00000000000000000000000000000000000000000000000000000000000000006001600160a01b031684604001516001600160a01b031614156115dc5761152a8484846126c5565b7f00000000000000000000000000000000000000000000000000000000000000006001600160a01b031684604001516001600160a01b0316141561157a5761152a84848461282e565b60006107f28383612977565b6001600160a01b0380841660008181526001602090815260408083209487168084529490915290819020849055517f8c5be1e5ebec7d5bd14f71427d1e84f3dd0314c0f7b2291e5b200ac8c7c3b9259061168c9085906135de565b60405180910390a3505050565b60006116a36116da565b42118061077e57505060075460ff161590565b7f000000000000000000000000000000000000000000000000000000000000000090565b7f000000000000000000000000000000000000000000000000000000000000000090565b6117156001600160a01b03841615156101986113ca565b61172c6001600160a01b03831615156101996113ca565b611737838383611c06565b6001600160a01b03831660009081526020819052604090205461175d90826101a06129c5565b6001600160a01b03808516600090815260208190526040808220939093559084168152205461178c908261194d565b6001600160a01b0380841660008181526020819052604090819020939093559151908516907fddf252ad1be2c89b69c2b068fc378daa952ba7f163c4a11628f55a4df523b3ef9061168c9085906135de565b60007f00000000000000000000000000000000000000000000000000000000000000007f00000000000000000000000000000000000000000000000000000000000000007f000000000000000000000000000000000000000000000000000000000000000061184b6129db565b30604051602001611860959493929190613676565b60405160208183030381529060405280519060200120905090565b60006118aa6000357fffffffff0000000000000000000000000000000000000000000000000000000016610d1b565b90506108496118b982336129df565b6101916113ca565b6108bd6118cc611699565b6101926113ca565b6118e96118df612ac8565b82101560cb6113ca565b6118fe6118f4612ad1565b82111560ca6113ca565b60085461190f908260c0604061137b565b6008556040517fa9ba3ffe0b6c366b81232caab38605a0699ad5398d6cce76f91ee809e322dafc906119429083906135de565b60405180910390a150565b60008282016107f284821015836113ca565b801561197f5761197a6119706116b6565b42106101936113ca565b611994565b61199461198a6116da565b42106101a96113ca565b600780547fffffffffffffffffffffffffffffffffffffffffffffffffffffffffffffff00168215151790556040517f9e3a5e37224532dea67b89face185703738a228a6e8a23dee546960180d3be64906119429083906135bb565b60006119fa61084c565b90506000611a06610db7565b6001600160a01b031663b05f8e4883866040518363ffffffff1660e01b8152600401611a339291906136bb565b60806040518083038186803b158015611a4b57600080fd5b505afa158015611a5f573d6000803e3d6000fd5b505050506040513d601f19601f82011682018060405250810190611a83919061332f565b6040517f18e736d40000000000000000000000000000000000000000000000000000000081529094506001600160a01b03851693506318e736d49250611ad09150859087906004016136a2565b600060405180830381600087803b158015611aea57600080fd5b505af1158015611afe573d6000803e3d6000fd5b5050505050505050565b600780547fffffffffffffffffffffffffffffffffffffffffffffffffffffffffffff00ff16610100831515021790556040517feff3d4d215b42bf0960be9c6d5e05c22cba4df6627a3a523e2acee733b5854c8906119429083906135bb565b6001901b6000190191901c1690565b600290565b6108d981831460676113ca565b60006060611b98610136612100565b9850989650505050505050565b60005b611bb0611b77565b811015611c0657611be7838281518110611bc657fe5b6020026020010151838381518110611bda57fe5b6020026020010151612674565b838281518110611bf357fe5b6020908102919091010152600101611ba8565b505050565b333014611cfa576000306001600160a01b0316600036604051611c2f9291906134ea565b6000604051808303816000865af19150503d8060008114611c6c576040519150601f19603f3d011682016040523d82523d6000602084013e611c71565b606091505b505090508060008114611c8057fe5b60046000803e6000517fffffffff00000000000000000000000000000000000000000000000000000000167f43adbafb000000000000000000000000000000000000000000000000000000008114611cdc573d6000803e3d6000fd5b506020600460003e604060205260243d03602460403e601c3d016000f35b6060611d046113e8565b9050611d108782611e0c565b60006060611d288c8c8c8c8c8c898d8d63ffffffff16565b91509150611d3a81848663ffffffff16565b8051601f1982018390526343adbafb7fffffffffffffffffffffffffffffffffffffffffffffffffffffffffffffffc08301526020027fffffffffffffffffffffffffffffffffffffffffffffffffffffffffffffffdc82016044820181fd5b600080825111801561073f575060ff801682806020019051810190611dbf919061336f565b60ff161492915050565b6007546108bd90610100900460ff166101b66113ca565b600060606000611def84612add565b90506060611dfe878784612af3565b919791965090945050505050565b60005b611e17611b77565b811015611c0657611e4e838281518110611e2d57fe5b6020026020010151838381518110611e4157fe5b602002602001015161216d565b838281518110611e5a57fe5b6020908102919091010152600101611e0f565b6108d98282612ba2565b600081611e8d57611e888484612c5e565b611e97565b611e978484612c7e565b949350505050565b60005b611eaa611b77565b811015611c0657611ee1838281518110611ec057fe5b6020026020010151838381518110611ed457fe5b6020026020010151612977565b838281518110611eed57fe5b6020908102919091010152600101611ea2565b6000611f0a610db7565b6001600160a01b031663aaabadc56040518163ffffffff1660e01b815260040160206040518083038186803b158015611f4257600080fd5b505afa158015611f56573d6000803e3d6000fd5b505050506040513d601f19601f8201168201806040525081019061077e919061311b565b6000611f846117de565b82604051602001610d509291906134fa565b60006060611fa26118c1565b600e54611fbf906001600160a01b038881169116146101aa6113ca565b611fd66001600160a01b03861630146101aa6113ca565b6040805160028082526060808301845292602083019080368337019050506000999098509650505050505050565b620f424090565b6108d98282612cb1565b6001600160a01b03918216600090815260016020908152604080832093909416825291909152205490565b60028151101561204f57610849565b60008160008151811061205e57fe5b602002602001015190506000600190505b8251811015611c0657600083828151811061208657fe5b602002602001015190506120af816001600160a01b0316846001600160a01b03161060656113ca565b915060010161206f565b6120c8610100831060646113ca565b6120f1600182101580156120ea57506120e660ff84610100036113b4565b8211155b60646113ca565b611c0683821c156101b46113ca565b7f08c379a0000000000000000000000000000000000000000000000000000000006000908152602060045260076024526642414c23000030600a808404818106603090810160081b95839006959095019082900491820690940160101b939093010160c81b604452606490fd5b600082820261219184158061218a57508385838161218757fe5b04145b60036113ca565b670de0b6b3a764000090049392505050565b60006121e97f00000000000000000000000000000000000000000000000000000000000000006001600160a01b031685604001516001600160a01b0316146101356113ca565b7f00000000000000000000000000000000000000000000000000000000000000006001600160a01b031684604001516001600160a01b031614156107f257600061226a847f00000000000000000000000000000000000000000000000000000000000000008151811061225857fe5b6020026020010151866060015161194d565b905060006122ad82867f00000000000000000000000000000000000000000000000000000000000000008151811061229e57fe5b60200260200101516000611e77565b905060006122ee867f0000000000000000000000000000000000000000000000000000000000000000815181106122e057fe5b60200260200101518361139e565b9050846020015161230184836000611e77565b1015801561231e5750846040015161231b84836000611e77565b11155b15612452577f00000000000000000000000000000000000000000000000000000000000000006001600160a01b03167fcf6f98f0568a50d4e3d60b183f01e307f5011e8140f842a5a855df40d80918bb7f00000000000000000000000000000000000000000000000000000000000000007f00000000000000000000000000000000000000000000000000000000000000006001600160a01b03166306fdde036040518163ffffffff1660e01b815260040160006040518083038186803b1580156123e857600080fd5b505afa1580156123fc573d6000803e3d6000fd5b505050506040513d6000823e601f3d908101601f191682016040526124249190810190613185565b8a606001518b60c0015187604051612440959493929190613544565b60405180910390a25091506107f29050565b600093505050506107f2565b60006124a47f00000000000000000000000000000000000000000000000000000000000000006001600160a01b031685604001516001600160a01b0316146101356113ca565b7f00000000000000000000000000000000000000000000000000000000000000006001600160a01b031684604001516001600160a01b031614156107f2576000612513847f00000000000000000000000000000000000000000000000000000000000000008151811061225857fe5b9050600061254782867f00000000000000000000000000000000000000000000000000000000000000008151811061229e57fe5b9050600061257a867f0000000000000000000000000000000000000000000000000000000000000000815181106122e057fe5b9050846020015161258d82856000611e77565b101580156125aa575084604001516125a782856000611e77565b11155b15612452577f00000000000000000000000000000000000000000000000000000000000000006001600160a01b03167fcf6f98f0568a50d4e3d60b183f01e307f5011e8140f842a5a855df40d80918bb7f00000000000000000000000000000000000000000000000000000000000000007f00000000000000000000000000000000000000000000000000000000000000006001600160a01b03166306fdde036040518163ffffffff1660e01b815260040160006040518083038186803b1580156123e857600080fd5b600061268382151560046113ca565b826126905750600061073f565b670de0b6b3a7640000838102906126b3908583816126aa57fe5b041460056113ca565b8281816126bc57fe5b0491505061073f565b600061270b7f00000000000000000000000000000000000000000000000000000000000000006001600160a01b031685602001516001600160a01b0316146101356113ca565b7f00000000000000000000000000000000000000000000000000000000000000006001600160a01b031684602001516001600160a01b031614156107f257600061278c847f00000000000000000000000000000000000000000000000000000000000000008151811061277a57fe5b6020026020010151866060015161139e565b905060006127c082867f00000000000000000000000000000000000000000000000000000000000000008151811061229e57fe5b90506000612801867f0000000000000000000000000000000000000000000000000000000000000000815181106127f357fe5b60200260200101518361194d565b9050846020015161281484836000611e77565b101580156125aa575084604001516125a784836000611e77565b60006128747f00000000000000000000000000000000000000000000000000000000000000006001600160a01b031685602001516001600160a01b0316146101356113ca565b7f00000000000000000000000000000000000000000000000000000000000000006001600160a01b031684602001516001600160a01b031614156107f25760006128e3847f00000000000000000000000000000000000000000000000000000000000000008151811061277a57fe5b9050600061291782867f00000000000000000000000000000000000000000000000000000000000000008151811061229e57fe5b9050600061294a867f0000000000000000000000000000000000000000000000000000000000000000815181106127f357fe5b9050846020015161295d82856000611e77565b1015801561231e5750846040015161231b82856000611e77565b600061298682151560046113ca565b826129935750600061073f565b670de0b6b3a7640000838102906129ad908583816126aa57fe5b8260018203816129b957fe5b0460010191505061073f565b60006129d484841115836113ca565b5050900390565b4690565b600073ba1ba1ba1ba1ba1ba1ba1ba1ba1ba1ba1ba1ba1b6129fe610d93565b6001600160a01b031614158015612a195750612a1983612d3f565b15612a4157612a26610d93565b6001600160a01b0316336001600160a01b031614905061073f565b612a49611f00565b6001600160a01b0316639be2a8848484306040518463ffffffff1660e01b8152600401612a7893929190613623565b60206040518083038186803b158015612a9057600080fd5b505afa158015612aa4573d6000803e3d6000fd5b505050506040513d601f19601f820116820180604052508101906111779190613018565b64e8d4a5100090565b67016345785d8a000090565b6000818060200190518101906107f2919061338b565b60606000612b018385612674565b9050845167ffffffffffffffff81118015612b1b57600080fd5b50604051908082528060200260200182016040528015612b45578160200160208202803683370190505b50915060005b8551811015612b9957612b7a82878381518110612b6457fe5b602002602001015161216d90919063ffffffff16565b838281518110612b8657fe5b6020908102919091010152600101612b4b565b50509392505050565b612bb96001600160a01b038316151561019b6113ca565b612bc582600083611c06565b6001600160a01b038216600090815260208190526040902054612beb90826101b26129c5565b6001600160a01b038316600090815260208190526040902055600254612c119082612da3565b6002556040516000906001600160a01b038416907fddf252ad1be2c89b69c2b068fc378daa952ba7f163c4a11628f55a4df523b3ef90612c529085906135de565b60405180910390a35050565b6000612c6d82151560046113ca565b818381612c7657fe5b049392505050565b6000612c8d82151560046113ca565b82612c9a5750600061073f565b816001840381612ca657fe5b04600101905061073f565b612cbd60008383611c06565b600254612cca908261194d565b6002556001600160a01b038216600090815260208190526040902054612cf0908261194d565b6001600160a01b0383166000818152602081905260408082209390935591519091907fddf252ad1be2c89b69c2b068fc378daa952ba7f163c4a11628f55a4df523b3ef90612c529085906135de565b6000612d6a7f38e9922e00000000000000000000000000000000000000000000000000000000610d1b565b82148061073f5750612d9b7f50dd6ed900000000000000000000000000000000000000000000000000000000610d1b565b909114919050565b60006107f2838360016129c5565b60405180606001604052806000815260200160008152602001600081525090565b60405180608001604052806060815260200160608152602001606081526020016000151581525090565b803561073f816137bb565b600082601f830112612e17578081fd5b813567ffffffffffffffff811115612e2d578182fd5b6020808202612e3d828201613740565b83815293508184018583018287018401881015612e5957600080fd5b600092505b84831015612e7c578035825260019290920191908301908301612e5e565b505050505092915050565b600082601f830112612e97578081fd5b8135612eaa612ea582613767565b613740565b9150808252836020828501011115612ec157600080fd5b8060208401602084013760009082016020015292915050565b80356002811061073f57600080fd5b600060208284031215612efa578081fd5b81356107f2816137bb565b60008060408385031215612f17578081fd5b8235612f22816137bb565b91506020830135612f32816137bb565b809150509250929050565b600080600060608486031215612f51578081fd5b8335612f5c816137bb565b92506020840135612f6c816137bb565b929592945050506040919091013590565b600080600080600080600060e0888a031215612f97578283fd5b8735612fa2816137bb565b96506020880135612fb2816137bb565b955060408801359450606088013593506080880135612fd0816137d0565b9699959850939692959460a0840135945060c09093013592915050565b60008060408385031215612fff578182fd5b823561300a816137bb565b946020939093013593505050565b600060208284031215613029578081fd5b815180151581146107f2578182fd5b600080600080600080600060e0888a031215613052578081fd5b873596506020880135613064816137bb565b95506040880135613074816137bb565b9450606088013567ffffffffffffffff80821115613090578283fd5b61309c8b838c01612e07565b955060808a0135945060a08a0135935060c08a01359150808211156130bf578283fd5b506130cc8a828b01612e87565b91505092959891949750929550565b6000602082840312156130ec578081fd5b81357fffffffff00000000000000000000000000000000000000000000000000000000811681146107f2578182fd5b60006020828403121561312c578081fd5b81516107f2816137bb565b60008060408385031215613149578182fd5b8235613154816137bb565b9150602083013567ffffffffffffffff81111561316f578182fd5b61317b85828601612e87565b9150509250929050565b600060208284031215613196578081fd5b815167ffffffffffffffff8111156131ac578182fd5b8201601f810184136131bc578182fd5b80516131ca612ea582613767565b8181528560208385010111156131de578384fd5b6131ef82602083016020860161378b565b95945050505050565b6000806000806080858703121561320d578182fd5b843567ffffffffffffffff80821115613224578384fd5b818701915061012080838a03121561323a578485fd5b61324381613740565b905061324f8984612eda565b815261325e8960208501612dfc565b60208201526132708960408501612dfc565b6040820152606083013560608201526080830135608082015260a083013560a08201526132a08960c08501612dfc565b60c08201526132b28960e08501612dfc565b60e082015261010080840135838111156132ca578687fd5b6132d68b828701612e87565b8284015250508096505060208701359150808211156132f3578384fd5b5061330087828801612e07565b949794965050505060408301359260600135919050565b600060208284031215613328578081fd5b5035919050565b60008060008060808587031215613344578182fd5b8451935060208501519250604085015191506060850151613364816137bb565b939692955090935050565b600060208284031215613380578081fd5b81516107f2816137d0565b6000806040838503121561339d578182fd5b82516133a8816137d0565b6020939093015192949293505050565b6000815180845260208085019450808401835b838110156133e7578151875295820195908201906001016133cb565b509495945050505050565b15159052565b6000815180845261341081602086016020860161378b565b601f01601f19169290920160200192915050565b8051608080845281519084018190526000916020919082019060a0860190845b818110156134695783516001600160a01b031683529284019291840191600101613444565b50508285015191508581038387015261348281836133b8565b925050506040830151848203604086015261349d82826133f8565b91505060608301516134b260608601826133f2565b509392505050565b9182527fffffffff0000000000000000000000000000000000000000000000000000000016602082015260240190565b6000828483379101908152919050565b7f190100000000000000000000000000000000000000000000000000000000000081526002810192909252602282015260420190565b6001600160a01b0391909116815260200190565b60006001600160a01b03808816835260a0602084015261356760a08401886133f8565b6040840196909652939093166060820152608001525092915050565b6000602082526107f260208301846133b8565b6000604082526135a960408301856133b8565b82810360208401526131ef81856133b8565b901515815260200190565b92151583526020830191909152604082015260600190565b90815260200190565b60008582526001600160a01b038086166020840152808516604084015250608060608301526136196080830184613424565b9695505050505050565b9283526001600160a01b03918216602084015216604082015260600190565b9586526001600160a01b0394851660208701529290931660408501526060840152608083019190915260a082015260c00190565b9485526020850193909352604084019190915260608301526001600160a01b0316608082015260a00190565b600083825260406020830152611e9760408301846133f8565b9182526001600160a01b0316602082015260400190565b93845260ff9290921660208401526040830152606082015260800190565b6000602082526107f260208301846133f8565b600083825260406020830152611e9760408301846133b8565b9283526020830191909152604082015260600190565b60ff91909116815260200190565b60405181810167ffffffffffffffff8111828210171561375f57600080fd5b604052919050565b600067ffffffffffffffff82111561377d578081fd5b50601f01601f191660200190565b60005b838110156137a657818101518382015260200161378e565b838111156137b5576000848401525b50505050565b6001600160a01b038116811461084957600080fd5b60ff8116811461084957600080fdfea264697066735822122071baeda190295cf7b67ba4f101d1abb889b630d3948a12b22c1a799f4fa4a37d64736f6c63430007010033",
  "linkReferences": {},
  "deployedLinkReferences": {}
}