{
  "_format": "hh-sol-artifact-1",
  "contractName": "PrimaryIssuePoolFactory",
  "sourceName": "contracts/PrimaryIssuePoolFactory.sol",
  "abi": [
    {
      "inputs": [
        {
          "internalType": "contract IVault",
          "name": "vault",
          "type": "address"
        },
        {
          "internalType": "contract IProtocolFeePercentagesProvider",
          "name": "protocolFeeProvider",
          "type": "address"
        }
      ],
      "stateMutability": "nonpayable",
      "type": "constructor"
    },
    {
      "anonymous": false,
      "inputs": [],
      "name": "FactoryDisabled",
      "type": "event"
    },
    {
      "anonymous": false,
      "inputs": [
        {
          "indexed": true,
          "internalType": "address",
          "name": "pool",
          "type": "address"
        }
      ],
      "name": "PoolCreated",
      "type": "event"
    },
    {
      "inputs": [
        {
          "components": [
            {
              "internalType": "string",
              "name": "name",
              "type": "string"
            },
            {
              "internalType": "string",
              "name": "symbol",
              "type": "string"
            },
            {
              "internalType": "address",
              "name": "security",
              "type": "address"
            },
            {
              "internalType": "address",
              "name": "currency",
              "type": "address"
            },
            {
              "internalType": "uint256",
              "name": "minimumPrice",
              "type": "uint256"
            },
            {
              "internalType": "uint256",
              "name": "minimumOrderSize",
              "type": "uint256"
            },
            {
              "internalType": "uint256",
              "name": "maxAmountsIn",
              "type": "uint256"
            },
            {
              "internalType": "uint256",
              "name": "swapFeePercentage",
              "type": "uint256"
            },
            {
              "internalType": "uint256",
              "name": "cutOffTime",
              "type": "uint256"
            },
            {
              "internalType": "string",
              "name": "offeringDocs",
              "type": "string"
            }
          ],
          "internalType": "struct IPrimaryIssuePoolFactory.FactoryPoolParams",
          "name": "factoryPoolParams",
          "type": "tuple"
        }
      ],
      "name": "create",
      "outputs": [
        {
          "internalType": "address",
          "name": "",
          "type": "address"
        }
      ],
      "stateMutability": "nonpayable",
      "type": "function"
    },
    {
      "inputs": [],
      "name": "disable",
      "outputs": [],
      "stateMutability": "nonpayable",
      "type": "function"
    },
    {
      "inputs": [
        {
          "internalType": "bytes4",
          "name": "selector",
          "type": "bytes4"
        }
      ],
      "name": "getActionId",
      "outputs": [
        {
          "internalType": "bytes32",
          "name": "",
          "type": "bytes32"
        }
      ],
      "stateMutability": "view",
      "type": "function"
    },
    {
      "inputs": [],
      "name": "getAuthorizer",
      "outputs": [
        {
          "internalType": "contract IAuthorizer",
          "name": "",
          "type": "address"
        }
      ],
      "stateMutability": "view",
      "type": "function"
    },
    {
      "inputs": [],
      "name": "getCreationCode",
      "outputs": [
        {
          "internalType": "bytes",
          "name": "",
          "type": "bytes"
        }
      ],
      "stateMutability": "view",
      "type": "function"
    },
    {
      "inputs": [],
      "name": "getCreationCodeContracts",
      "outputs": [
        {
          "internalType": "address",
          "name": "contractA",
          "type": "address"
        },
        {
          "internalType": "address",
          "name": "contractB",
          "type": "address"
        }
      ],
      "stateMutability": "view",
      "type": "function"
    },
    {
      "inputs": [],
      "name": "getPauseConfiguration",
      "outputs": [
        {
          "internalType": "uint256",
          "name": "pauseWindowDuration",
          "type": "uint256"
        },
        {
          "internalType": "uint256",
          "name": "bufferPeriodDuration",
          "type": "uint256"
        }
      ],
      "stateMutability": "view",
      "type": "function"
    },
    {
      "inputs": [],
      "name": "getProtocolFeePercentagesProvider",
      "outputs": [
        {
          "internalType": "contract IProtocolFeePercentagesProvider",
          "name": "",
          "type": "address"
        }
      ],
      "stateMutability": "view",
      "type": "function"
    },
    {
      "inputs": [],
      "name": "getVault",
      "outputs": [
        {
          "internalType": "contract IVault",
          "name": "",
          "type": "address"
        }
      ],
      "stateMutability": "view",
      "type": "function"
    },
    {
      "inputs": [],
      "name": "isDisabled",
      "outputs": [
        {
          "internalType": "bool",
          "name": "",
          "type": "bool"
        }
      ],
      "stateMutability": "view",
      "type": "function"
    },
    {
      "inputs": [
        {
          "internalType": "address",
          "name": "pool",
          "type": "address"
        }
      ],
      "name": "isPoolFromFactory",
      "outputs": [
        {
          "internalType": "bool",
          "name": "",
          "type": "bool"
        }
      ],
      "stateMutability": "view",
      "type": "function"
    }
  ],
  "bytecode": "0x6101806040523480156200001257600080fd5b5060405162005cc438038062005cc48339810160408190526200003591620001fc565b8181604051806020016200004990620001ee565b601f1982820381018352601f90910116604052805183903090839060006002820460a081905280830360e08190528185529091508362000095816200010f602090811b6200042217901c565b60601b6001600160601b0319166080528285018051838252620000c4826200010f602090811b6200042217901c565b6001600160601b0319606091821b811660c05296909352905261010095909552505092821b831661012052509290921b90911661014052505050426276a70001610160525062000250565b80517f602038038060206000396000f3fefefefefefefefefefefefefefefefefefefe808352600091602081018484f090845291506200015d6001600160a01b03831615156101ac62000163565b50919050565b816200017457620001748162000178565b5050565b6200018a816210905360ea1b6200018d565b50565b62461bcd60e51b600090815260206004526007602452600a808404818106603090810160081b958390069590950190829004918206850160101b01602363ffffff0060e086901c160160181b0190930160c81b60445260e882901c90606490fd5b614e2b8062000e9983390190565b600080604083850312156200020f578182fd5b82516200021c816200023a565b60208401519092506200022f816200023a565b809150509250929050565b6001600160a01b03811681146200018a57600080fd5b60805160601c60a05160c05160601c60e051610100516101205160601c6101405160601c61016051610bd0620002c96000398061023c528061026552508061031052508061038652508061033652508061047c5250806101c352806104f852508061049d5250806101a252806104d45250610bd06000f3fe608060405234801561001057600080fd5b50600436106100a85760003560e01c80636634b753116100715780636634b753146101215780636c57f5a914610141578063739238d614610149578063851c1bb3146101515780638d928af814610171578063aaabadc514610179576100a8565b8062c194db146100ad578063174481fa146100cb5780632236c4cc146100e15780632da47c40146101015780632f2770db14610117575b600080fd5b6100b5610181565b6040516100c29190610a4a565b60405180910390f35b6100d36101a0565b6040516100c29291906109fd565b6100f46100ef366004610868565b6101e6565b6040516100c291906109e9565b610109610236565b6040516100c2929190610b50565b61011f6102a0565b005b61013461012f3660046107e8565b6102e7565b6040516100c29190610a17565b610134610305565b6100f461030e565b61016461015f366004610824565b610332565b6040516100c29190610a22565b6100f4610384565b6100f46103a8565b606061019b60405180602001604052806000815250610474565b905090565b7f00000000000000000000000000000000000000000000000000000000000000007f00000000000000000000000000000000000000000000000000000000000000009091565b60008060006101f3610236565b9150915061022e610202610384565b8584843360405160200161021a959493929190610a5d565b60405160208183030381529060405261054d565b949350505050565b600080427f000000000000000000000000000000000000000000000000000000000000000081101561029257807f000000000000000000000000000000000000000000000000000000000000000003925062278d00915061029b565b60009250600091505b509091565b6102a86105b6565b6102b06105e7565b6001805460ff1916811790556040517f432acbfd662dbb5d8b378384a67159b47ca9d0f1b79f97cf64cf8585fa362d5090600090a1565b6001600160a01b031660009081526020819052604090205460ff1690565b60015460ff1690565b7f000000000000000000000000000000000000000000000000000000000000000090565b60007f0000000000000000000000000000000000000000000000000000000000000000826040516020016103679291906109d1565b604051602081830303815290604052805190602001209050919050565b7f000000000000000000000000000000000000000000000000000000000000000090565b60006103b2610384565b6001600160a01b031663aaabadc56040518163ffffffff1660e01b815260040160206040518083038186803b1580156103ea57600080fd5b505afa1580156103fe573d6000803e3d6000fd5b505050506040513d601f19601f8201168201806040525081019061019b919061084c565b80517f602038038060206000396000f3fefefefefefefefefefefefefefefefefefefe808352600091602081018484f0908452915061046e6001600160a01b03831615156101ac6105fc565b50919050565b8051604080517f00000000000000000000000000000000000000000000000000000000000000007f0000000000000000000000000000000000000000000000000000000000000000818101858101848101602090810190965280855293957f00000000000000000000000000000000000000000000000000000000000000009592947f000000000000000000000000000000000000000000000000000000000000000094938801866000828a3c846000888301883c506020898101908985010161053f81838661060e565b505050505050505050919050565b60006105576105e7565b60006105628361064c565b6001600160a01b038116600081815260208190526040808220805460ff191660011790555192935090917f83a48fbcfc991335314e74d0496aab6a1987e992ddc85dddbcc4d6dd6ef2e9fc9190a292915050565b60006105cd6000356001600160e01b031916610332565b90506105e46105dc8233610687565b6101916105fc565b50565b6105fa6105f2610305565b1560d36105fc565b565b8161060a5761060a81610719565b5050565b5b6020811061062e578151835260209283019290910190601f190161060f565b905182516020929092036101000a6000190180199091169116179052565b6000606061065983610474565b905060008151602083016000f090506001600160a01b038116610680573d6000803e3d6000fd5b9392505050565b60006106916103a8565b6001600160a01b0316639be2a8848484306040518463ffffffff1660e01b81526004016106c093929190610a2b565b60206040518083038186803b1580156106d857600080fd5b505afa1580156106ec573d6000803e3d6000fd5b505050506040513d601f19601f820116820180604052508101906107109190610804565b90505b92915050565b62461bcd60e51b600090815260206004526007602452600a808304818106603090810160081b83860601918390049283060160101b016642414c230000300160c81b6044526105e4916210905360ea1b906242414c90606490fd5b803561071381610b85565b600082601f83011261078f578081fd5b813567ffffffffffffffff8111156107a5578182fd5b6107b8601f8201601f1916602001610b5e565b91508082528360208285010111156107cf57600080fd5b8060208401602084013760009082016020015292915050565b6000602082840312156107f9578081fd5b813561068081610b85565b600060208284031215610815578081fd5b81518015158114610680578182fd5b600060208284031215610835578081fd5b81356001600160e01b031981168114610680578182fd5b60006020828403121561085d578081fd5b815161068081610b85565b600060208284031215610879578081fd5b813567ffffffffffffffff80821115610890578283fd5b81840191506101408083870312156108a6578384fd5b6108af81610b5e565b90508235828111156108bf578485fd5b6108cb8782860161077f565b8252506020830135828111156108df578485fd5b6108eb8782860161077f565b6020830152506108fe8660408501610774565b60408201526109108660608501610774565b60608201526080830135608082015260a083013560a082015260c083013560c082015260e083013560e0820152610100808401358183015250610120808401358381111561095c578586fd5b6109688882870161077f565b918301919091525095945050505050565b6001600160a01b03169052565b60008151808452815b818110156109ab5760208185018101518683018201520161098f565b818111156109bc5782602083870101525b50601f01601f19169290920160200192915050565b9182526001600160e01b031916602082015260240190565b6001600160a01b0391909116815260200190565b6001600160a01b0392831681529116602082015260400190565b901515815260200190565b90815260200190565b9283526001600160a01b03918216602084015216604082015260600190565b6000602082526107106020830184610986565b600060018060a01b038716825260a0602083015285516101408060a0850152610a8a6101e0850183610986565b91506020880151609f19808685030160c0870152610aa88483610986565b935060408a01519150610abe60e0870183610979565b60608a01519150610100610ad481880184610979565b60808b01516101208881019190915260a08c01519488019490945260c08b015161016088015260e08b01516101808801528a01516101a0870152918901518584039092016101c086015250610b298282610986565b92505050846040830152836060830152610b466080830184610979565b9695505050505050565b918252602082015260400190565b60405181810167ffffffffffffffff81118282101715610b7d57600080fd5b604052919050565b6001600160a01b03811681146105e457600080fdfea2646970667358221220239ade2c2cbd79285908e566404f19e498242d851c1fd62dcda65e59a92ee6d364736f6c634300070100336103806040523480156200001257600080fd5b5060405162004e2b38038062004e2b833981016040819052620000359162000b65565b846000856000015186602001516200005d8860400151896060015130620004f560201b60201c565b604080516003808252608082019092529060208201606080368337019050508960e00151898989828289898d85336001600160a01b031660001b8480604051806040016040528060018152602001603160f81b81525087878160039080519060200190620000cd92919062000a16565b508051620000e390600490602084019062000a16565b50506005805460ff19166012179055508151602092830120608052805191012060a052507f8b73c3c69bb8fe3d512ecc4cf759cc79239f7b179b0ffacaa9a75d522b39400f60c05260e0526001600160601b0319606091821b81166101005291901b1661012052506200016190506276a700831115610194620005c4565b6200017562278d00821115610195620005c4565b429091016101408190520161016052855162000197906002111560c8620005c4565b620001b1620001a5620005d9565b8751111560c9620005c4565b620001c786620005de60201b6200109b1760201c565b620001d284620005ea565b6040516309b2760f60e01b81526000906001600160a01b038c16906309b2760f9062000203908d9060040162000d83565b602060405180830381600087803b1580156200021e57600080fd5b505af115801562000233573d6000803e3d6000fd5b505050506040513d601f19601f8201168201806040525081019062000259919062000b2d565b604051633354e3e960e11b81529091506001600160a01b038c16906366a9c7d2906200028e9084908b908b9060040162000ce7565b600060405180830381600087803b158015620002a957600080fd5b505af1158015620002be573d6000803e3d6000fd5b505050508061018081815250508a6001600160a01b031663d2946c2b6040518163ffffffff1660e01b815260040160206040518083038186803b1580156200030557600080fd5b505afa1580156200031a573d6000803e3d6000fd5b505050506040513d601f19601f8201168201806040525081019062000340919062000b46565b6001600160a01b03166101a0816001600160a01b031660601b81525050505050505050505050505083604001516001600160a01b03166101c0816001600160a01b031660601b8152505083606001516001600160a01b03166101e0816001600160a01b031660601b815250506000806000620003cc87604001518860600151306200067e60201b60201c565b61030083905261032082905261034081905260408a01519295509093509150620003f69062000774565b6102005260608701516200040a9062000774565b6102205260808701516102405260a08701516102605260e08701516102805260c08701516102a0526101008701516102c052426102e05261012087015180516200045d9160099160209091019062000a16565b50836001600160a01b0316610360816001600160a01b031660601b8152505086604001516001600160a01b03167ffc30a997970e4cac78235884be800647994f95d2388ac863446e51a96255d66d8860a0015189608001518a606001518b60c001518c61010001518d6101200151604051620004df9695949392919062000da1565b60405180910390a2505050505050505062000e7d565b606060008080620005088787876200067e565b60408051600380825260808201909252939650919450925060208201606080368337019050509350868484815181106200053e57fe5b60200260200101906001600160a01b031690816001600160a01b031681525050858483815181106200056c57fe5b60200260200101906001600160a01b031690816001600160a01b031681525050848482815181106200059a57fe5b60200260200101906001600160a01b031690816001600160a01b0316815250505050509392505050565b81620005d557620005d58162000848565b5050565b600390565b80620005d5816200085d565b62000603620005f8620008e9565b82101560cb620005c4565b6200061c62000611620008f2565b82111560ca620005c4565b6200063e8160c0603f600854620008fe60201b620010a517909392919060201c565b6008556040517fa9ba3ffe0b6c366b81232caab38605a0699ad5398d6cce76f91ee809e322dafc906200067390839062000d98565b60405180910390a150565b6000806000846001600160a01b0316866001600160a01b031610156200070757836001600160a01b0316856001600160a01b03161015620006ca5750600091506001905060026200076b565b836001600160a01b0316866001600160a01b03161015620006f65750600091506002905060016200076b565b50600191506002905060006200076b565b846001600160a01b0316846001600160a01b03161015620007335750600291506001905060006200076b565b856001600160a01b0316846001600160a01b031610156200075f5750600291506000905060016200076b565b50600191506000905060025b93509350939050565b60006001600160a01b038216301415620007985750670de0b6b3a764000062000843565b6000826001600160a01b031663313ce5676040518163ffffffff1660e01b815260040160206040518083038186803b158015620007d457600080fd5b505afa158015620007e9573d6000803e3d6000fd5b505050506040513d601f19601f820116820180604052508101906200080f919062000cc4565b60ff16905060006200082e6012836200092360201b620010c81760201c565b905080600a0a670de0b6b3a764000002925050505b919050565b6200085a816210905360ea1b62000940565b50565b6002815110156200086e576200085a565b6000816000815181106200087e57fe5b602002602001015190506000600190505b8251811015620008e4576000838281518110620008a857fe5b60200260200101519050620008d9816001600160a01b0316846001600160a01b0316106065620005c460201b60201c565b91506001016200088f565b505050565b64e8d4a5100090565b67016345785d8a000090565b60006200090d848484620009a1565b506001901b60001901811b1992909216911b1790565b600062000935838311156001620005c4565b508082035b92915050565b62461bcd60e51b600090815260206004526007602452600a808404818106603090810160081b958390069590950190829004918206850160101b01602363ffffff0060e086901c160160181b0190930160c81b60445260e882901c90606490fd5b620009b261010083106064620005c4565b620009eb60018210158015620009e35750620009df60ff8461010003620009fc60201b620010de1760201c565b8211155b6064620005c4565b620008e483821c156101b4620005c4565b600081831062000a0d578162000a0f565b825b9392505050565b828054600181600116156101000203166002900490600052602060002090601f016020900481019282601f1062000a5957805160ff191683800117855562000a89565b8280016001018555821562000a89579182015b8281111562000a8957825182559160200191906001019062000a6c565b5062000a9792915062000a9b565b5090565b5b8082111562000a97576000815560010162000a9c565b80516200093a8162000e67565b600082601f83011262000ad0578081fd5b81516001600160401b0381111562000ae6578182fd5b62000afb601f8201601f191660200162000e01565b915080825283602082850101111562000b1357600080fd5b62000b2681602084016020860162000e34565b5092915050565b60006020828403121562000b3f578081fd5b5051919050565b60006020828403121562000b58578081fd5b815162000a0f8162000e67565b600080600080600060a0868803121562000b7d578081fd5b855162000b8a8162000e67565b60208701519095506001600160401b038082111562000ba7578283fd5b818801915061014080838b03121562000bbe578384fd5b62000bc98162000e01565b905082518281111562000bda578485fd5b62000be88b82860162000abf565b82525060208301518281111562000bfd578485fd5b62000c0b8b82860162000abf565b60208301525062000c208a6040850162000ab2565b604082015262000c348a6060850162000ab2565b60608201526080830151608082015260a083015160a082015260c083015160c082015260e083015160e0820152610100808401518183015250610120808401518381111562000c81578586fd5b62000c8f8c82870162000abf565b828401525050809650505050604086015192506060860151915062000cb8876080880162000ab2565b90509295509295909350565b60006020828403121562000cd6578081fd5b815160ff8116811462000a0f578182fd5b60006060820185835260206060818501528186518084526080860191508288019350845b8181101562000d335762000d20855162000e28565b8352938301939183019160010162000d0b565b505084810360408601528551808252908201925081860190845b8181101562000d755762000d62835162000e28565b8552938301939183019160010162000d4d565b509298975050505050505050565b602081016003831062000d9257fe5b91905290565b90815260200190565b600087825286602083015260018060a01b038616604083015284606083015283608083015260c060a083015282518060c084015262000de88160e085016020870162000e34565b601f01601f19169190910160e001979650505050505050565b6040518181016001600160401b038111828210171562000e2057600080fd5b604052919050565b6001600160a01b031690565b60005b8381101562000e5157818101518382015260200162000e37565b8381111562000e61576000848401525b50505050565b6001600160a01b03811681146200085a57600080fd5b60805160a05160c05160e0516101005160601c6101205160601c6101405161016051610180516101a05160601c6101c05160601c6101e05160601c61020051610220516102405161026051610280516102a0516102c0516102e0516103005161032051610340516103605160601c613d9f6200108c60003980611cbd52806121bc52806124b852806127fe5280612afe525080610ba952806112415280612e4f525080610dde52806111ec5280611d385280611d92528061216b528061237c52806123b252806129e95280612a445280612a7b525080610a7752806111865280612004528061208252806120e55280612467528061269a528061271d528061278152806129985250806105ac5250806105cd5280611079525080610cba525050806106735280610a1452508061064d5280610e195250806112145280611d6b5250806111ae525080610a38528061136752806114125280611fc0528061221452806122cf528061253452806125a65280612658528061285652806128d85280612b7a5280612c205250806108d4528061131752806113c952806121f352806122965280612335528061251252806125da5280612835528061291152806129545280612b585280612bec525080610e605250806109275250806115105250806114ec525080610c7b525080610c57525080610be1525080611e15525080611e57525080611e365250613d9f6000f3fe608060405234801561001057600080fd5b50600436106102955760003560e01c80637ecebe0011610167578063a7488bb7116100ce578063d2946c2b11610087578063d2946c2b1461050b578063d505accf14610513578063d5c096c414610526578063dd62ed3e14610539578063ed24911d1461054c578063f1493ee11461055457610295565b8063a7488bb7146104d0578063a9059cbb146104d8578063aaabadc5146104eb578063ac4316cb146104f3578063b35056b8146104fb578063b7b814fc1461050357610295565b80638d928af8116101205780638d928af81461048a57806390193b7c1461049257806395c95a4f146104a557806395d89b41146104ad5780639c0e5d13146104b5578063a457c2d7146104bd57610295565b80637ecebe001461043957806382687a561461044c5780638456cb5914610454578063851c1bb31461045c57806387ec68171461046f578063893d20e81461048257610295565b806338fff2d01161020b5780636028bfd4116101c45780636028bfd4146103cc5780636482c9d3146103ed5780636945c1fd146103f557806370a08231146103fd57806372f3824d1461041057806374f3b0091461041857610295565b806338fff2d014610386578063395093511461038e5780633f4ba83a146103a157806350dd6ed9146103a957806354a844ba146103bc57806355c67628146103c457610295565b80631dd746ea1161025d5780631dd746ea1461031757806323b872dd1461032c5780632541897f1461033f578063313ce567146103545780633644e5151461036957806338e9922e1461037157610295565b806301ec954a1461029a57806306fdde03146102c3578063095ea7b3146102d857806318160ddd146102f85780631c0de05114610300575b600080fd5b6102ad6102a836600461370f565b61055c565b6040516102ba9190613a33565b60405180910390f35b6102cb610771565b6040516102ba9190613b51565b6102eb6102e636600461349c565b610807565b6040516102ba9190613a10565b6102ad61081e565b610308610824565b6040516102ba93929190613a1b565b61031f61084d565b6040516102ba91906139cf565b6102eb61033a3660046133ec565b61085c565b6103476108d2565b6040516102ba9190613987565b61035c6108f6565b6040516102ba9190613cc3565b6102ad6108ff565b61038461037f36600461382e565b610909565b005b6102ad610925565b6102eb61039c36600461349c565b610949565b610384610984565b6103846103b73660046135ce565b610998565b6103846109b6565b6102ad6109c8565b6103df6103da3660046134e7565b6109db565b6040516102ba929190613caa565b6102ad610a12565b610347610a36565b6102ad61040b366004613398565b610a5a565b6102ad610a75565b61042b6104263660046134e7565b610a99565b6040516102ba9291906139e2565b6102ad610447366004613398565b610b9c565b6102ad610ba7565b610384610bcb565b6102ad61046a36600461358a565b610bdd565b6103df61047d3660046134e7565b610c2f565b610347610c55565b610347610c79565b6102ad6104a0366004613398565b610c9d565b6102ad610cb8565b6102cb610cdc565b6102cb610d3d565b6102eb6104cb36600461349c565b610d9e565b6102ad610ddc565b6102eb6104e636600461349c565b610e00565b610347610e0d565b6102ad610e17565b6102eb610e3b565b610384610e4c565b610347610e5e565b61038461052136600461342c565b610e82565b61042b6105343660046134e7565b610f0d565b6102ad6105473660046133b4565b611030565b6102ad61106d565b6102ad611077565b6000846080015161058961056e610c79565b6001600160a01b0316336001600160a01b03161460cd6110f4565b61059e610594610925565b82146101f46110f4565b6105a6611102565b426105f17f00000000000000000000000000000000000000000000000000000000000000007f0000000000000000000000000000000000000000000000000000000000000000611115565b10156106185760405162461bcd60e51b815260040161060f90613c82565b60405180910390fd5b6060610622611125565b905061062e8682611298565b61063661328a565b60405180606001604052806106496109c8565b81527f000000000000000000000000000000000000000000000000000000000000000060208201527f000000000000000000000000000000000000000000000000000000000000000060409091015290506000885160018111156106a957fe5b141561070b576106d088606001518388815181106106c357fe5b6020026020010151611307565b606089015260006106e2898984611313565b9050610701818488815181106106f457fe5b60200260200101516113b9565b9450505050610768565b60018851600181111561071a57fe5b14156107655761073488606001518387815181106106c357fe5b606089015260006107468989846113c5565b90506107018184898151811061075857fe5b6020026020010151611459565b50505b50949350505050565b60038054604080516020601f60026000196101006001881615020190951694909404938401819004810282018101909252828152606093909290918301828280156107fd5780601f106107d2576101008083540402835291602001916107fd565b820191906000526020600020905b8154815290600101906020018083116107e057829003601f168201915b5050505050905090565b6000610814338484611465565b5060015b92915050565b60025490565b60008060006108316114cd565b15925061083c6114ea565b915061084661150e565b9050909192565b6060610857611125565b905090565b6000806108698533611030565b905061088d336001600160a01b03871614806108855750838210155b61019e6110f4565b610898858585611532565b336001600160a01b038616148015906108b357506000198114155b156108c5576108c58533858403611465565b60019150505b9392505050565b7f000000000000000000000000000000000000000000000000000000000000000090565b60055460ff1690565b600061085761106d565b610911611612565b610919611102565b61092281611640565b50565b7f000000000000000000000000000000000000000000000000000000000000000090565b3360008181526001602090815260408083206001600160a01b0387168452909152812054909161081491859061097f90866116b9565b611465565b61098c611612565b61099660006116cb565b565b6109a0611612565b6109a8611102565b6109b2828261173e565b5050565b6109be611612565b6109966001611833565b6008546000906108579060c0603f61188a565b600060606109f186516109ec611899565b61189e565b610a06898989898989896118ab6118fd611966565b97509795505050505050565b7f000000000000000000000000000000000000000000000000000000000000000090565b7f000000000000000000000000000000000000000000000000000000000000000090565b6001600160a01b031660009081526020819052604090205490565b7f000000000000000000000000000000000000000000000000000000000000000090565b60608088610aa861056e610c79565b610ab3610594610925565b60606000610ac086611a90565b15610ae857610acd611abf565b610adf89610ad961081e565b88611ad2565b92509050610b3a565b610af0611afe565b6060610afa611125565b9050610b068a82611298565b610b2a8d8d8d8d8d610b16610e3b565b610b20578d610b23565b60005b878e6118ab565b93509150610b3883826118fd565b505b610b448b82611b06565b81895167ffffffffffffffff81118015610b5d57600080fd5b50604051908082528060200260200182016040528015610b87578160200160208202803683370190505b509450945050505b5097509795505050505050565b600061081882610c9d565b7f000000000000000000000000000000000000000000000000000000000000000090565b610bd3611612565b61099660016116cb565b60007f000000000000000000000000000000000000000000000000000000000000000082604051602001610c12929190613944565b604051602081830303815290604052805190602001209050919050565b60006060610c4086516109ec611899565b610a0689898989898989611b10611b2c611966565b7f000000000000000000000000000000000000000000000000000000000000000090565b7f000000000000000000000000000000000000000000000000000000000000000090565b6001600160a01b031660009081526006602052604090205490565b7f000000000000000000000000000000000000000000000000000000000000000090565b60048054604080516020601f60026000196101006001881615020190951694909404938401819004810282018101909252828152606093909290918301828280156107fd5780601f106107d2576101008083540402835291602001916107fd565b60098054604080516020601f60026000196101006001881615020190951694909404938401819004810282018101909252828152606093909290918301828280156107fd5780601f106107d2576101008083540402835291602001916107fd565b600080610dab3385611030565b9050808310610dc557610dc033856000611465565b610dd2565b610dd23385858403611465565b5060019392505050565b7f000000000000000000000000000000000000000000000000000000000000000090565b6000610814338484611532565b6000610857611b95565b7f000000000000000000000000000000000000000000000000000000000000000090565b6008546000906108579060ff611c0f565b610e54611612565b6109966000611833565b7f000000000000000000000000000000000000000000000000000000000000000090565b60007f6e71edae12b1b97f4d1f60370fef10105fa2faae0126114a169c64845d6126c9888888610eb18c610c9d565b89604051602001610ec796959493929190613a9b565b604051602081830303815290604052805190602001209050610ef88882610eef878787611c19565b886101f8611c58565b610f03888888611465565b5050505050505050565b60608088610f1c61056e610c79565b610f27610594610925565b610f2f611afe565b6060610f39611125565b9050610f4361081e565b610ff05760006060610f588d8d8d868b611caf565b91509150610f71610f67611dd5565b83101560cc6110f4565b610f836000610f7e611dd5565b611ddc565b610f968b610f8f611dd5565b8403611ddc565b610fa08184611b2c565b808a5167ffffffffffffffff81118015610fb957600080fd5b50604051908082528060200260200182016040528015610fe3578160200160208202803683370190505b5095509550505050610b8f565b610ffa8882611298565b600060606110228d8d8d8d8d61100e610e3b565b611018578d61101b565b60005b898e611b10565b91509150610f968b83611ddc565b600061103a610c79565b6001600160a01b0316826001600160a01b0316141561105c5750600019610818565b6110668383611de6565b9050610818565b6000610857611e11565b7f000000000000000000000000000000000000000000000000000000000000000090565b806109b281611eae565b60006110b2848484611f2c565b506001901b60001901811b1992909216911b1790565b60006110d88383111560016110f4565b50900390565b60008183106110ed57816108cb565b5090919050565b816109b2576109b281611f73565b61099661110d6114cd565b6101926110f4565b8181018281101561081857600080fd5b60606000611131611899565b905060608167ffffffffffffffff8111801561114c57600080fd5b50604051908082528060200260200182016040528015611176578160200160208202803683370190505b50905060005b82811015611291577f00000000000000000000000000000000000000000000000000000000000000008114156111ea577f00000000000000000000000000000000000000000000000000000000000000008282815181106111d957fe5b602002602001018181525050611289565b7f000000000000000000000000000000000000000000000000000000000000000081141561123f577f00000000000000000000000000000000000000000000000000000000000000008282815181106111d957fe5b7f000000000000000000000000000000000000000000000000000000000000000081141561128957670de0b6b3a764000082828151811061127c57fe5b6020026020010181815250505b60010161117c565b5091505090565b815181516112a790829061189e565b60005b81811015611301576112e28482815181106112c157fe5b60200260200101518483815181106112d557fe5b6020026020010151611f83565b8482815181106112ee57fe5b60209081029190910101526001016112aa565b50505050565b60006108cb8383611f83565b60007f00000000000000000000000000000000000000000000000000000000000000006001600160a01b031684602001516001600160a01b031614156113655761135e848484611fb9565b90506108cb565b7f00000000000000000000000000000000000000000000000000000000000000006001600160a01b031684602001516001600160a01b031614156113ae5761135e84848461232e565b6108cb610135611f73565b60006108cb8383612600565b60007f00000000000000000000000000000000000000000000000000000000000000006001600160a01b031684604001516001600160a01b031614156114105761135e848484612651565b7f00000000000000000000000000000000000000000000000000000000000000006001600160a01b031684604001516001600160a01b031614156113ae5761135e84848461294d565b60006108cb8383612c4a565b6001600160a01b0380841660008181526001602090815260408083209487168084529490915290819020849055517f8c5be1e5ebec7d5bd14f71427d1e84f3dd0314c0f7b2291e5b200ac8c7c3b925906114c0908590613a33565b60405180910390a3505050565b60006114d761150e565b42118061085757505060075460ff161590565b7f000000000000000000000000000000000000000000000000000000000000000090565b7f000000000000000000000000000000000000000000000000000000000000000090565b6115496001600160a01b03841615156101986110f4565b6115606001600160a01b03831615156101996110f4565b61156b838383611f27565b6001600160a01b03831660009081526020819052604090205461159190826101a0612c98565b6001600160a01b0380851660009081526020819052604080822093909355908416815220546115c090826116b9565b6001600160a01b0380841660008181526020819052604090819020939093559151908516907fddf252ad1be2c89b69c2b068fc378daa952ba7f163c4a11628f55a4df523b3ef906114c0908590613a33565b60006116296000356001600160e01b031916610bdd565b90506109226116388233612cae565b6101916110f4565b61165561164b612d97565b82101560cb6110f4565b61166a611660612da0565b82111560ca6110f4565b60085461167b908260c0603f6110a5565b6008556040517fa9ba3ffe0b6c366b81232caab38605a0699ad5398d6cce76f91ee809e322dafc906116ae908390613a33565b60405180910390a150565b60008282016108cb84821015836110f4565b80156116eb576116e66116dc6114ea565b42106101936110f4565b611700565b6117006116f661150e565b42106101a96110f4565b6007805460ff19168215151790556040517f9e3a5e37224532dea67b89face185703738a228a6e8a23dee546960180d3be64906116ae908390613a10565b6000611748610925565b90506000611754610c79565b6001600160a01b031663b05f8e4883866040518363ffffffff1660e01b8152600401611781929190613b1c565b60806040518083038186803b15801561179957600080fd5b505afa1580156117ad573d6000803e3d6000fd5b505050506040513d601f19601f820116820180604052508101906117d19190613846565b604051630639cdb560e21b81529094506001600160a01b03851693506318e736d49250611805915085908790600401613afb565b600060405180830381600087803b15801561181f57600080fd5b505af1158015610f03573d6000803e3d6000fd5b600854611842908260ff612dac565b6008556040517feff3d4d215b42bf0960be9c6d5e05c22cba4df6627a3a523e2acee733b5854c890611875908390613a10565b60405180910390a18061092257610922610996565b6001901b6000190191901c1690565b600390565b6109b281831460676110f4565b6000606060006118ba84612dd3565b905060018160018111156118ca57fe5b146118df576118da610162611f73565b6118ef565b6118e98885612de9565b90935091505b509850989650505050505050565b8151815161190c90829061189e565b60005b818110156113015761194784828151811061192657fe5b602002602001015184838151811061193a57fe5b6020026020010151612600565b84828151811061195357fe5b602090810291909101015260010161190f565b333014611a24576000306001600160a01b031660003660405161198a92919061395c565b6000604051808303816000865af19150503d80600081146119c7576040519150601f19603f3d011682016040523d82523d6000602084013e6119cc565b606091505b5050905080600081146119db57fe5b60046000803e6000516001600160e01b0319166343adbafb60e01b8114611a06573d6000803e3d6000fd5b506020600460003e604060205260243d03602460403e601c3d016000f35b611a2c611afe565b6060611a36611125565b9050611a428782611298565b60006060611a5a8c8c8c8c8c8c898d8d63ffffffff16565b91509150611a6c81848663ffffffff16565b8051601f1982018390526343adbafb603f1983015260200260231982016044820181fd5b6000808251118015610818575060ff801682806020019051810190611ab59190613886565b60ff161492915050565b610996611aca610e3b565b6101b66110f4565b600060606000611ae184612eb5565b90506060611af0878784612ecb565b919791965090945050505050565b610996611102565b6109b28282612f7a565b60006060611b1f610162611f73565b9850989650505050505050565b81518151611b3b90829061189e565b60005b8181101561130157611b76848281518110611b5557fe5b6020026020010151848381518110611b6957fe5b6020026020010151612c4a565b848281518110611b8257fe5b6020908102919091010152600101611b3e565b6000611b9f610c79565b6001600160a01b031663aaabadc56040518163ffffffff1660e01b815260040160206040518083038186803b158015611bd757600080fd5b505afa158015611beb573d6000803e3d6000fd5b505050506040513d601f19601f8201168201806040525081019061085791906135b2565b1c60019081161490565b60408051604180825260808201909252606091829190602082018180368337019050509050836020820152826040820152846060820153949350505050565b6000611c6385613046565b9050611c79611c73878387613062565b836110f4565b611c88428410156101b86110f4565b5050506001600160a01b039092166000908152600660205260409020805460010190555050565b60006060611cbb611102565b7f0000000000000000000000000000000000000000000000000000000000000000611cf66001600160a01b03888116908316146101566110f4565b611d16816001600160a01b0316876001600160a01b0316146101566110f4565b6dffffffffffffffffffffffffffff6060611d3086613111565b9050611d8f817f000000000000000000000000000000000000000000000000000000000000000081518110611d6157fe5b60200260200101517f0000000000000000000000000000000000000000000000000000000000000000611307565b817f000000000000000000000000000000000000000000000000000000000000000081518110611dbb57fe5b602090810291909101015290999098509650505050505050565b620f424090565b6109b28282613127565b6001600160a01b03918216600090815260016020908152604080832093909416825291909152205490565b60007f00000000000000000000000000000000000000000000000000000000000000007f00000000000000000000000000000000000000000000000000000000000000007f0000000000000000000000000000000000000000000000000000000000000000611e7e6131ba565b30604051602001611e93959493929190613acf565b60405160208183030381529060405280519060200120905090565b600281511015611ebd57610922565b600081600081518110611ecc57fe5b602002602001015190506000600190505b8251811015611f27576000838281518110611ef457fe5b60200260200101519050611f1d816001600160a01b0316846001600160a01b03161060656110f4565b9150600101611edd565b505050565b611f3b610100831060646110f4565b611f6460018210158015611f5d5750611f5960ff84610100036110de565b8211155b60646110f4565b611f2783821c156101b46110f4565b610922816210905360ea1b6131be565b6000828202611fa7841580611fa0575083858381611f9d57fe5b04145b60036110f4565b670de0b6b3a764000090049392505050565b6000611fff7f00000000000000000000000000000000000000000000000000000000000000006001600160a01b031685604001516001600160a01b0316146101356110f4565b6000837f00000000000000000000000000000000000000000000000000000000000000008151811061202d57fe5b6020026020010151116120525760405162461bcd60e51b815260040161060f90613c5a565b81604001518460600151101561207a5760405162461bcd60e51b815260040161060f90613bc9565b60006120bd847f0000000000000000000000000000000000000000000000000000000000000000815181106120ab57fe5b602002602001015186606001516116b9565b9050600061212b6120df85602001518860600151611f8390919063ffffffff16565b612125877f00000000000000000000000000000000000000000000000000000000000000008151811061210e57fe5b60200260200101518561260090919063ffffffff16565b90611f83565b9050836020015161214987606001518361260090919063ffffffff16565b10156121675760405162461bcd60e51b815260040161060f90613c2e565b80857f00000000000000000000000000000000000000000000000000000000000000008151811061219457fe5b602002602001015110156121ba5760405162461bcd60e51b815260040161060f90613b64565b7f00000000000000000000000000000000000000000000000000000000000000006001600160a01b0316638ac316f16121f1610925565b7f00000000000000000000000000000000000000000000000000000000000000007f0000000000000000000000000000000000000000000000000000000000000000858b60c001518c6060015160006040518863ffffffff1660e01b81526004016122629796959493929190613a5b565b600060405180830381600087803b15801561227c57600080fd5b505af1158015612290573d6000803e3d6000fd5b505050507f00000000000000000000000000000000000000000000000000000000000000006001600160a01b0316600080516020613d4a8339815191527f0000000000000000000000000000000000000000000000000000000000000000838960c0015161230b8b606001518761260090919063ffffffff16565b4260405161231d95949392919061399b565b60405180910390a295945050505050565b60006123747f00000000000000000000000000000000000000000000000000000000000000006001600160a01b031685604001516001600160a01b0316146101356110f4565b60006123a5847f0000000000000000000000000000000000000000000000000000000000000000815181106120ab57fe5b9050600061240b6123f2867f0000000000000000000000000000000000000000000000000000000000000000815181106123db57fe5b60200260200101518461260090919063ffffffff16565b6020860151606089015161240591612600565b90612600565b905083604001518110156124315760405162461bcd60e51b815260040161060f90613bc9565b602084015160608701516124459083612600565b10156124635760405162461bcd60e51b815260040161060f90613c2e565b80857f00000000000000000000000000000000000000000000000000000000000000008151811061249057fe5b602002602001015110156124b65760405162461bcd60e51b815260040161060f90613bf7565b7f00000000000000000000000000000000000000000000000000000000000000006001600160a01b0316638ac316f16124ed610925565b606089015160c08a01516040516001600160e01b031960e086901b16815261256193927f0000000000000000000000000000000000000000000000000000000000000000927f0000000000000000000000000000000000000000000000000000000000000000928990600190600401613a5b565b600060405180830381600087803b15801561257b57600080fd5b505af115801561258f573d6000803e3d6000fd5b505050606087015160c08801516001600160a01b037f0000000000000000000000000000000000000000000000000000000000000000169250600080516020613d4a833981519152917f00000000000000000000000000000000000000000000000000000000000000009161230b82875b600061260f82151560046110f4565b8261261c57506000610818565b670de0b6b3a76400008381029061263f9085838161263657fe5b041460056110f4565b82818161264857fe5b04915050610818565b60006126977f00000000000000000000000000000000000000000000000000000000000000006001600160a01b031685602001516001600160a01b0316146101356110f4565b827f0000000000000000000000000000000000000000000000000000000000000000815181106126c357fe5b60200260200101518460600151106126ed5760405162461bcd60e51b815260040161060f90613b9b565b8160400151846060015110156127155760405162461bcd60e51b815260040161060f90613bc9565b6000612758847f00000000000000000000000000000000000000000000000000000000000000008151811061274657fe5b602002602001015186606001516110c8565b905060006127c061277a85602001518860600151611f8390919063ffffffff16565b61212584887f0000000000000000000000000000000000000000000000000000000000000000815181106127aa57fe5b602002602001015161260090919063ffffffff16565b905083602001516127de87606001518361260090919063ffffffff16565b10156127fc5760405162461bcd60e51b815260040161060f90613c2e565b7f00000000000000000000000000000000000000000000000000000000000000006001600160a01b0316638ac316f1612833610925565b7f00000000000000000000000000000000000000000000000000000000000000007f0000000000000000000000000000000000000000000000000000000000000000858b60c001518c6060015160016040518863ffffffff1660e01b81526004016128a49796959493929190613a5b565b600060405180830381600087803b1580156128be57600080fd5b505af11580156128d2573d6000803e3d6000fd5b505050507f00000000000000000000000000000000000000000000000000000000000000006001600160a01b0316600080516020613d4a8339815191527f0000000000000000000000000000000000000000000000000000000000000000838960c0015161230b8b606001518761260090919063ffffffff16565b60006129937f00000000000000000000000000000000000000000000000000000000000000006001600160a01b031685602001516001600160a01b0316146101356110f4565b6000837f0000000000000000000000000000000000000000000000000000000000000000815181106129c157fe5b6020026020010151116129e65760405162461bcd60e51b815260040161060f90613c5a565b827f000000000000000000000000000000000000000000000000000000000000000081518110612a1257fe5b6020026020010151846060015110612a3c5760405162461bcd60e51b815260040161060f90613b9b565b6000612a6d847f00000000000000000000000000000000000000000000000000000000000000008151811061274657fe5b90506000612aa46123f283877f0000000000000000000000000000000000000000000000000000000000000000815181106127aa57fe5b90508360400151811015612aca5760405162461bcd60e51b815260040161060f90613bc9565b60208401516060870151612ade9083612600565b1015612afc5760405162461bcd60e51b815260040161060f90613c2e565b7f00000000000000000000000000000000000000000000000000000000000000006001600160a01b0316638ac316f1612b33610925565b606089015160c08a01516040516001600160e01b031960e086901b168152612ba793927f0000000000000000000000000000000000000000000000000000000000000000927f0000000000000000000000000000000000000000000000000000000000000000928990600090600401613a5b565b600060405180830381600087803b158015612bc157600080fd5b505af1158015612bd5573d6000803e3d6000fd5b505050606087015160c08801516001600160a01b037f0000000000000000000000000000000000000000000000000000000000000000169250600080516020613d4a833981519152917f00000000000000000000000000000000000000000000000000000000000000009161230b8287612600565b6000612c5982151560046110f4565b82612c6657506000610818565b670de0b6b3a764000083810290612c809085838161263657fe5b826001820381612c8c57fe5b04600101915050610818565b6000612ca784841115836110f4565b5050900390565b600073ba1ba1ba1ba1ba1ba1ba1ba1ba1ba1ba1ba1ba1b612ccd610c55565b6001600160a01b031614158015612ce85750612ce88361321f565b15612d1057612cf5610c55565b6001600160a01b0316336001600160a01b0316149050610818565b612d18611b95565b6001600160a01b0316639be2a8848484306040518463ffffffff1660e01b8152600401612d4793929190613a3c565b60206040518083038186803b158015612d5f57600080fd5b505afa158015612d73573d6000803e3d6000fd5b505050506040513d601f19601f8201168201806040525081019061106691906134c7565b64e8d4a5100090565b67016345785d8a000090565b60006001821b1984168284612dc2576000612dc5565b60015b60ff16901b17949350505050565b600081806020019051810190610818919061361c565b600060606000612df88461325b565b90506060855167ffffffffffffffff81118015612e1457600080fd5b50604051908082528060200260200182016040528015612e3e578160200160208202803683370190505b50905060005b8651811015612ea9577f00000000000000000000000000000000000000000000000000000000000000008114612ea157868181518110612e8057fe5b6020026020010151828281518110612e9457fe5b6020026020010181815250505b600101612e44565b50909590945092505050565b6000818060200190518101906108cb91906138a2565b60606000612ed98385612600565b9050845167ffffffffffffffff81118015612ef357600080fd5b50604051908082528060200260200182016040528015612f1d578160200160208202803683370190505b50915060005b8551811015612f7157612f5282878381518110612f3c57fe5b6020026020010151611f8390919063ffffffff16565b838281518110612f5e57fe5b6020908102919091010152600101612f23565b50509392505050565b612f916001600160a01b038316151561019b6110f4565b612f9d82600083611f27565b6001600160a01b038216600090815260208190526040902054612fc390826101b2612c98565b6001600160a01b038316600090815260208190526040902055612ff6612ff182612feb61081e565b90613271565b61327f565b60006001600160a01b0316826001600160a01b03167fddf252ad1be2c89b69c2b068fc378daa952ba7f163c4a11628f55a4df523b3ef8360405161303a9190613a33565b60405180910390a35050565b6000613050611e11565b82604051602001610c1292919061396c565b600061307482516041146101b96110f4565b60208281015160408085015160608601518251600080825295019283905292939092811a916001906130ad908990859088908890613b33565b6020604051602081039080840390855afa1580156130cf573d6000803e3d6000fd5b5050604051601f1901519150506001600160a01b038116158015906131055750876001600160a01b0316816001600160a01b0316145b98975050505050505050565b6060818060200190518101906108cb9190613665565b61313360008383611f27565b613148612ff18261314261081e565b906116b9565b6001600160a01b03821660009081526020819052604090205461316b90826116b9565b6001600160a01b0383166000818152602081905260408082209390935591519091907fddf252ad1be2c89b69c2b068fc378daa952ba7f163c4a11628f55a4df523b3ef9061303a908590613a33565b4690565b62461bcd60e51b600090815260206004526007602452600a808404818106603090810160081b958390069590950190829004918206850160101b01602363ffffff0060e086901c160160181b0190930160c81b60445260e882901c90606490fd5b6000613231631c74c91760e11b610bdd565b82148061324c57506132496350dd6ed960e01b610bdd565b82145b80610818575061081882613284565b6000818060200190518101906108cb9190613638565b60006108cb83836001612c98565b600255565b50600090565b60405180606001604052806000815260200160008152602001600081525090565b803561081881613d18565b600082601f8301126132c6578081fd5b81356132d96132d482613cf8565b613cd1565b8181529150602080830190848101818402860182018710156132fa57600080fd5b60005b84811015613319578135845292820192908201906001016132fd565b505050505092915050565b600082601f830112613334578081fd5b813567ffffffffffffffff81111561334a578182fd5b61335d601f8201601f1916602001613cd1565b915080825283602082850101111561337457600080fd5b8060208401602084013760009082016020015292915050565b803561081881613d2d565b6000602082840312156133a9578081fd5b81356108cb81613d18565b600080604083850312156133c6578081fd5b82356133d181613d18565b915060208301356133e181613d18565b809150509250929050565b600080600060608486031215613400578081fd5b833561340b81613d18565b9250602084013561341b81613d18565b929592945050506040919091013590565b600080600080600080600060e0888a031215613446578283fd5b873561345181613d18565b9650602088013561346181613d18565b95506040880135945060608801359350608088013561347f81613d3a565b9699959850939692959460a0840135945060c09093013592915050565b600080604083850312156134ae578182fd5b82356134b981613d18565b946020939093013593505050565b6000602082840312156134d8578081fd5b815180151581146108cb578182fd5b600080600080600080600060e0888a031215613501578081fd5b87359650602088013561351381613d18565b9550604088013561352381613d18565b9450606088013567ffffffffffffffff8082111561353f578283fd5b61354b8b838c016132b6565b955060808a0135945060a08a0135935060c08a013591508082111561356e578283fd5b5061357b8a828b01613324565b91505092959891949750929550565b60006020828403121561359b578081fd5b81356001600160e01b0319811681146108cb578182fd5b6000602082840312156135c3578081fd5b81516108cb81613d18565b600080604083850312156135e0578182fd5b82356135eb81613d18565b9150602083013567ffffffffffffffff811115613606578182fd5b61361285828601613324565b9150509250929050565b60006020828403121561362d578081fd5b81516108cb81613d2d565b6000806040838503121561364a578182fd5b825161365581613d2d565b6020939093015192949293505050565b60008060408385031215613677578182fd5b825160048110613685578283fd5b8092505060208084015167ffffffffffffffff8111156136a3578283fd5b8401601f810186136136b3578283fd5b80516136c16132d482613cf8565b81815283810190838501858402850186018a10156136dd578687fd5b8694505b838510156136ff5780518352600194909401939185019185016136e1565b5080955050505050509250929050565b60008060008060808587031215613724578182fd5b843567ffffffffffffffff8082111561373b578384fd5b818701915061012080838a031215613751578485fd5b61375a81613cd1565b9050613766898461338d565b815261377589602085016132ab565b602082015261378789604085016132ab565b6040820152606083013560608201526080830135608082015260a083013560a08201526137b78960c085016132ab565b60c08201526137c98960e085016132ab565b60e082015261010080840135838111156137e1578687fd5b6137ed8b828701613324565b82840152505080965050602087013591508082111561380a578384fd5b50613817878288016132b6565b949794965050505060408301359260600135919050565b60006020828403121561383f578081fd5b5035919050565b6000806000806080858703121561385b578182fd5b845193506020850151925060408501519150606085015161387b81613d18565b939692955090935050565b600060208284031215613897578081fd5b81516108cb81613d3a565b600080604083850312156138b4578182fd5b825161365581613d3a565b6000815180845260208085019450808401835b838110156138ee578151875295820195908201906001016138d2565b509495945050505050565b60008151808452815b8181101561391e57602081850181015186830182015201613902565b8181111561392f5782602083870101525b50601f01601f19169290920160200192915050565b9182526001600160e01b031916602082015260240190565b6000828483379101908152919050565b61190160f01b81526002810192909252602282015260420190565b6001600160a01b0391909116815260200190565b6001600160a01b03958616815260208101949094529190931660408301526060820192909252608081019190915260a00190565b6000602082526108cb60208301846138bf565b6000604082526139f560408301856138bf565b8281036020840152613a0781856138bf565b95945050505050565b901515815260200190565b92151583526020830191909152604082015260600190565b90815260200190565b9283526001600160a01b03918216602084015216604082015260600190565b9687526001600160a01b03958616602088015293851660408701526060860192909252909216608084015260a0830191909152151560c082015260e00190565b9586526001600160a01b0394851660208701529290931660408501526060840152608083019190915260a082015260c00190565b9485526020850193909352604084019190915260608301526001600160a01b0316608082015260a00190565b600083825260406020830152613b1460408301846138f9565b949350505050565b9182526001600160a01b0316602082015260400190565b93845260ff9290921660208401526040830152606082015260800190565b6000602082526108cb60208301846138f9565b6020808252601d908201527f496e73756666696369656e742063757272656e63792062616c616e6365000000604082015260600190565b602080825260149082015273496e73756666696369656e742062616c616e636560601b604082015260600190565b60208082526014908201527327b93232b91039b4bd32903b34b7b630ba34b7b760611b604082015260600190565b6020808252601d908201527f496e73756666696369656e742073656375726974792062616c616e6365000000604082015260600190565b602080825260129082015271141c9a58d9481bdd5d081bd988189bdd5b9960721b604082015260600190565b6020808252600e908201526d125cdcdd59481cdbdb19081bdd5d60921b604082015260600190565b6020808252600e908201526d2a34b6b2a634b6b4ba1027bb32b960911b604082015260600190565b600083825260406020830152613b1460408301846138bf565b60ff91909116815260200190565b60405181810167ffffffffffffffff81118282101715613cf057600080fd5b604052919050565b600067ffffffffffffffff821115613d0e578081fd5b5060209081020190565b6001600160a01b038116811461092257600080fd5b6002811061092257600080fd5b60ff8116811461092257600080fdfe560f9a9aa840257b3f71f9f0cc55270169408d782595c416c1042eccf7426c9ca264697066735822122078b2e3934a4bd847cf132686d1eb2bf055d3a499ca31feaeae09ef577ec26d0c64736f6c63430007010033",
  "linkReferences": {},
  "deployedLinkReferences": {}
}