{
  "_format": "hh-sol-artifact-1",
  "contractName": "PrimaryIssuePoolFactory",
  "sourceName": "contracts/PrimaryIssuePoolFactory.sol",
  "abi": [
    {
      "inputs": [
        {
          "internalType": "contract IVault",
          "name": "vault",
          "type": "address"
        },
        {
          "internalType": "contract IProtocolFeePercentagesProvider",
          "name": "protocolFeeProvider",
          "type": "address"
        }
      ],
      "stateMutability": "nonpayable",
      "type": "constructor"
    },
    {
      "anonymous": false,
      "inputs": [],
      "name": "FactoryDisabled",
      "type": "event"
    },
    {
      "anonymous": false,
      "inputs": [
        {
          "indexed": true,
          "internalType": "address",
          "name": "pool",
          "type": "address"
        }
      ],
      "name": "PoolCreated",
      "type": "event"
    },
    {
      "inputs": [
        {
          "components": [
            {
              "internalType": "string",
              "name": "name",
              "type": "string"
            },
            {
              "internalType": "string",
              "name": "symbol",
              "type": "string"
            },
            {
              "internalType": "address",
              "name": "security",
              "type": "address"
            },
            {
              "internalType": "address",
              "name": "currency",
              "type": "address"
            },
            {
              "internalType": "uint256",
              "name": "minimumPrice",
              "type": "uint256"
            },
            {
              "internalType": "uint256",
              "name": "minimumOrderSize",
              "type": "uint256"
            },
            {
              "internalType": "uint256",
              "name": "maxAmountsIn",
              "type": "uint256"
            },
            {
              "internalType": "uint256",
              "name": "swapFeePercentage",
              "type": "uint256"
            },
            {
              "internalType": "uint256",
              "name": "cutOffTime",
              "type": "uint256"
            },
            {
              "internalType": "string",
              "name": "offeringDocs",
              "type": "string"
            }
          ],
          "internalType": "struct IPrimaryIssuePoolFactory.FactoryPoolParams",
          "name": "factoryPoolParams",
          "type": "tuple"
        }
      ],
      "name": "create",
      "outputs": [
        {
          "internalType": "address",
          "name": "",
          "type": "address"
        }
      ],
      "stateMutability": "nonpayable",
      "type": "function"
    },
    {
      "inputs": [],
      "name": "disable",
      "outputs": [],
      "stateMutability": "nonpayable",
      "type": "function"
    },
    {
      "inputs": [
        {
          "internalType": "bytes4",
          "name": "selector",
          "type": "bytes4"
        }
      ],
      "name": "getActionId",
      "outputs": [
        {
          "internalType": "bytes32",
          "name": "",
          "type": "bytes32"
        }
      ],
      "stateMutability": "view",
      "type": "function"
    },
    {
      "inputs": [],
      "name": "getAuthorizer",
      "outputs": [
        {
          "internalType": "contract IAuthorizer",
          "name": "",
          "type": "address"
        }
      ],
      "stateMutability": "view",
      "type": "function"
    },
    {
      "inputs": [],
      "name": "getCreationCode",
      "outputs": [
        {
          "internalType": "bytes",
          "name": "",
          "type": "bytes"
        }
      ],
      "stateMutability": "view",
      "type": "function"
    },
    {
      "inputs": [],
      "name": "getCreationCodeContracts",
      "outputs": [
        {
          "internalType": "address",
          "name": "contractA",
          "type": "address"
        },
        {
          "internalType": "address",
          "name": "contractB",
          "type": "address"
        }
      ],
      "stateMutability": "view",
      "type": "function"
    },
    {
      "inputs": [],
      "name": "getPauseConfiguration",
      "outputs": [
        {
          "internalType": "uint256",
          "name": "pauseWindowDuration",
          "type": "uint256"
        },
        {
          "internalType": "uint256",
          "name": "bufferPeriodDuration",
          "type": "uint256"
        }
      ],
      "stateMutability": "view",
      "type": "function"
    },
    {
      "inputs": [],
      "name": "getProtocolFeePercentagesProvider",
      "outputs": [
        {
          "internalType": "contract IProtocolFeePercentagesProvider",
          "name": "",
          "type": "address"
        }
      ],
      "stateMutability": "view",
      "type": "function"
    },
    {
      "inputs": [],
      "name": "getVault",
      "outputs": [
        {
          "internalType": "contract IVault",
          "name": "",
          "type": "address"
        }
      ],
      "stateMutability": "view",
      "type": "function"
    },
    {
      "inputs": [],
      "name": "isDisabled",
      "outputs": [
        {
          "internalType": "bool",
          "name": "",
          "type": "bool"
        }
      ],
      "stateMutability": "view",
      "type": "function"
    },
    {
      "inputs": [
        {
          "internalType": "address",
          "name": "pool",
          "type": "address"
        }
      ],
      "name": "isPoolFromFactory",
      "outputs": [
        {
          "internalType": "bool",
          "name": "",
          "type": "bool"
        }
      ],
      "stateMutability": "view",
      "type": "function"
    }
  ],
  "bytecode": "0x6101806040523480156200001257600080fd5b5060405162005ce038038062005ce08339810160408190526200003591620001fc565b8181604051806020016200004990620001ee565b601f1982820381018352601f90910116604052805183903090839060006002820460a081905280830360e08190528185529091508362000095816200010f602090811b6200042217901c565b60601b6001600160601b0319166080528285018051838252620000c4826200010f602090811b6200042217901c565b6001600160601b0319606091821b811660c05296909352905261010095909552505092821b831661012052509290921b90911661014052505050426276a70001610160525062000250565b80517f602038038060206000396000f3fefefefefefefefefefefefefefefefefefefe808352600091602081018484f090845291506200015d6001600160a01b03831615156101ac62000163565b50919050565b816200017457620001748162000178565b5050565b6200018a816210905360ea1b6200018d565b50565b62461bcd60e51b600090815260206004526007602452600a808404818106603090810160081b958390069590950190829004918206850160101b01602363ffffff0060e086901c160160181b0190930160c81b60445260e882901c90606490fd5b614e478062000e9983390190565b600080604083850312156200020f578182fd5b82516200021c816200023a565b60208401519092506200022f816200023a565b809150509250929050565b6001600160a01b03811681146200018a57600080fd5b60805160601c60a05160c05160601c60e051610100516101205160601c6101405160601c61016051610bd0620002c96000398061023c528061026552508061031052508061038652508061033652508061047c5250806101c352806104f852508061049d5250806101a252806104d45250610bd06000f3fe608060405234801561001057600080fd5b50600436106100a85760003560e01c80636634b753116100715780636634b753146101215780636c57f5a914610141578063739238d614610149578063851c1bb3146101515780638d928af814610171578063aaabadc514610179576100a8565b8062c194db146100ad578063174481fa146100cb5780632236c4cc146100e15780632da47c40146101015780632f2770db14610117575b600080fd5b6100b5610181565b6040516100c29190610a4a565b60405180910390f35b6100d36101a0565b6040516100c29291906109fd565b6100f46100ef366004610868565b6101e6565b6040516100c291906109e9565b610109610236565b6040516100c2929190610b50565b61011f6102a0565b005b61013461012f3660046107e8565b6102e7565b6040516100c29190610a17565b610134610305565b6100f461030e565b61016461015f366004610824565b610332565b6040516100c29190610a22565b6100f4610384565b6100f46103a8565b606061019b60405180602001604052806000815250610474565b905090565b7f00000000000000000000000000000000000000000000000000000000000000007f00000000000000000000000000000000000000000000000000000000000000009091565b60008060006101f3610236565b9150915061022e610202610384565b8584843360405160200161021a959493929190610a5d565b60405160208183030381529060405261054d565b949350505050565b600080427f000000000000000000000000000000000000000000000000000000000000000081101561029257807f000000000000000000000000000000000000000000000000000000000000000003925062278d00915061029b565b60009250600091505b509091565b6102a86105b6565b6102b06105e7565b6001805460ff1916811790556040517f432acbfd662dbb5d8b378384a67159b47ca9d0f1b79f97cf64cf8585fa362d5090600090a1565b6001600160a01b031660009081526020819052604090205460ff1690565b60015460ff1690565b7f000000000000000000000000000000000000000000000000000000000000000090565b60007f0000000000000000000000000000000000000000000000000000000000000000826040516020016103679291906109d1565b604051602081830303815290604052805190602001209050919050565b7f000000000000000000000000000000000000000000000000000000000000000090565b60006103b2610384565b6001600160a01b031663aaabadc56040518163ffffffff1660e01b815260040160206040518083038186803b1580156103ea57600080fd5b505afa1580156103fe573d6000803e3d6000fd5b505050506040513d601f19601f8201168201806040525081019061019b919061084c565b80517f602038038060206000396000f3fefefefefefefefefefefefefefefefefefefe808352600091602081018484f0908452915061046e6001600160a01b03831615156101ac6105fc565b50919050565b8051604080517f00000000000000000000000000000000000000000000000000000000000000007f0000000000000000000000000000000000000000000000000000000000000000818101858101848101602090810190965280855293957f00000000000000000000000000000000000000000000000000000000000000009592947f000000000000000000000000000000000000000000000000000000000000000094938801866000828a3c846000888301883c506020898101908985010161053f81838661060e565b505050505050505050919050565b60006105576105e7565b60006105628361064c565b6001600160a01b038116600081815260208190526040808220805460ff191660011790555192935090917f83a48fbcfc991335314e74d0496aab6a1987e992ddc85dddbcc4d6dd6ef2e9fc9190a292915050565b60006105cd6000356001600160e01b031916610332565b90506105e46105dc8233610687565b6101916105fc565b50565b6105fa6105f2610305565b1560d36105fc565b565b8161060a5761060a81610719565b5050565b5b6020811061062e578151835260209283019290910190601f190161060f565b905182516020929092036101000a6000190180199091169116179052565b6000606061065983610474565b905060008151602083016000f090506001600160a01b038116610680573d6000803e3d6000fd5b9392505050565b60006106916103a8565b6001600160a01b0316639be2a8848484306040518463ffffffff1660e01b81526004016106c093929190610a2b565b60206040518083038186803b1580156106d857600080fd5b505afa1580156106ec573d6000803e3d6000fd5b505050506040513d601f19601f820116820180604052508101906107109190610804565b90505b92915050565b62461bcd60e51b600090815260206004526007602452600a808304818106603090810160081b83860601918390049283060160101b016642414c230000300160c81b6044526105e4916210905360ea1b906242414c90606490fd5b803561071381610b85565b600082601f83011261078f578081fd5b813567ffffffffffffffff8111156107a5578182fd5b6107b8601f8201601f1916602001610b5e565b91508082528360208285010111156107cf57600080fd5b8060208401602084013760009082016020015292915050565b6000602082840312156107f9578081fd5b813561068081610b85565b600060208284031215610815578081fd5b81518015158114610680578182fd5b600060208284031215610835578081fd5b81356001600160e01b031981168114610680578182fd5b60006020828403121561085d578081fd5b815161068081610b85565b600060208284031215610879578081fd5b813567ffffffffffffffff80821115610890578283fd5b81840191506101408083870312156108a6578384fd5b6108af81610b5e565b90508235828111156108bf578485fd5b6108cb8782860161077f565b8252506020830135828111156108df578485fd5b6108eb8782860161077f565b6020830152506108fe8660408501610774565b60408201526109108660608501610774565b60608201526080830135608082015260a083013560a082015260c083013560c082015260e083013560e0820152610100808401358183015250610120808401358381111561095c578586fd5b6109688882870161077f565b918301919091525095945050505050565b6001600160a01b03169052565b60008151808452815b818110156109ab5760208185018101518683018201520161098f565b818111156109bc5782602083870101525b50601f01601f19169290920160200192915050565b9182526001600160e01b031916602082015260240190565b6001600160a01b0391909116815260200190565b6001600160a01b0392831681529116602082015260400190565b901515815260200190565b90815260200190565b9283526001600160a01b03918216602084015216604082015260600190565b6000602082526107106020830184610986565b600060018060a01b038716825260a0602083015285516101408060a0850152610a8a6101e0850183610986565b91506020880151609f19808685030160c0870152610aa88483610986565b935060408a01519150610abe60e0870183610979565b60608a01519150610100610ad481880184610979565b60808b01516101208881019190915260a08c01519488019490945260c08b015161016088015260e08b01516101808801528a01516101a0870152918901518584039092016101c086015250610b298282610986565b92505050846040830152836060830152610b466080830184610979565b9695505050505050565b918252602082015260400190565b60405181810167ffffffffffffffff81118282101715610b7d57600080fd5b604052919050565b6001600160a01b03811681146105e457600080fdfea2646970667358221220a42a1cc817cd058b7d11ae5e4920c3c1ae651e1a1600d26376ab60493fcbe9a464736f6c634300070100336103806040523480156200001257600080fd5b5060405162004e4738038062004e47833981016040819052620000359162000b5f565b846000856000015186602001516200005d8860400151896060015130620004ef60201b60201c565b604080516003808252608082019092529060208201606080368337019050508960e00151898989828289898d85336001600160a01b031660001b8480604051806040016040528060018152602001603160f81b81525087878160039080519060200190620000cd92919062000a10565b508051620000e390600490602084019062000a10565b50506005805460ff19166012179055508151602092830120608052805191012060a052507f8b73c3c69bb8fe3d512ecc4cf759cc79239f7b179b0ffacaa9a75d522b39400f60c05260e0526001600160601b0319606091821b81166101005291901b1661012052506200016190506276a700831115610194620005be565b6200017562278d00821115610195620005be565b429091016101408190520161016052855162000197906002111560c8620005be565b620001b1620001a5620005d3565b8751111560c9620005be565b620001c786620005d860201b620010911760201c565b620001d284620005e4565b6040516309b2760f60e01b81526000906001600160a01b038c16906309b2760f9062000203908d9060040162000d7d565b602060405180830381600087803b1580156200021e57600080fd5b505af115801562000233573d6000803e3d6000fd5b505050506040513d601f19601f8201168201806040525081019062000259919062000b27565b604051633354e3e960e11b81529091506001600160a01b038c16906366a9c7d2906200028e9084908b908b9060040162000ce1565b600060405180830381600087803b158015620002a957600080fd5b505af1158015620002be573d6000803e3d6000fd5b505050508061018081815250508a6001600160a01b031663d2946c2b6040518163ffffffff1660e01b815260040160206040518083038186803b1580156200030557600080fd5b505afa1580156200031a573d6000803e3d6000fd5b505050506040513d601f19601f8201168201806040525081019062000340919062000b40565b6001600160a01b03166101a0816001600160a01b031660601b81525050505050505050505050505083604001516001600160a01b03166101c0816001600160a01b031660601b8152505083606001516001600160a01b03166101e0816001600160a01b031660601b815250506000806000620003cc87604001518860600151306200067860201b60201c565b61030083905261032082905261034081905260408a01519295509093509150620003f6906200076e565b6102005260608701516200040a906200076e565b6102205260808701516102405260a08701516102605260e08701516102805260c08701516102a0526101008701516102c052426102e05261012087015180516200045d9160099160209091019062000a10565b50836001600160a01b0316610360816001600160a01b031660601b8152505086604001516001600160a01b03167fcc19f8fbf7b272756fdb594e385d63f8d5cdd71b279584121ec82542123c93888860a0015189606001518a60c001518b61010001518c6101200151604051620004d995949392919062000d9b565b60405180910390a2505050505050505062000e70565b6060600080806200050287878762000678565b60408051600380825260808201909252939650919450925060208201606080368337019050509350868484815181106200053857fe5b60200260200101906001600160a01b031690816001600160a01b031681525050858483815181106200056657fe5b60200260200101906001600160a01b031690816001600160a01b031681525050848482815181106200059457fe5b60200260200101906001600160a01b031690816001600160a01b0316815250505050509392505050565b81620005cf57620005cf8162000842565b5050565b600390565b80620005cf8162000857565b620005fd620005f2620008e3565b82101560cb620005be565b620006166200060b620008ec565b82111560ca620005be565b620006388160c0603f600854620008f860201b6200109b17909392919060201c565b6008556040517fa9ba3ffe0b6c366b81232caab38605a0699ad5398d6cce76f91ee809e322dafc906200066d90839062000d92565b60405180910390a150565b6000806000846001600160a01b0316866001600160a01b031610156200070157836001600160a01b0316856001600160a01b03161015620006c457506000915060019050600262000765565b836001600160a01b0316866001600160a01b03161015620006f057506000915060029050600162000765565b506001915060029050600062000765565b846001600160a01b0316846001600160a01b031610156200072d57506002915060019050600062000765565b856001600160a01b0316846001600160a01b031610156200075957506002915060009050600162000765565b50600191506000905060025b93509350939050565b60006001600160a01b038216301415620007925750670de0b6b3a76400006200083d565b6000826001600160a01b031663313ce5676040518163ffffffff1660e01b815260040160206040518083038186803b158015620007ce57600080fd5b505afa158015620007e3573d6000803e3d6000fd5b505050506040513d601f19601f8201168201806040525081019062000809919062000cbe565b60ff1690506000620008286012836200091d60201b620010be1760201c565b905080600a0a670de0b6b3a764000002925050505b919050565b62000854816210905360ea1b6200093a565b50565b600281511015620008685762000854565b6000816000815181106200087857fe5b602002602001015190506000600190505b8251811015620008de576000838281518110620008a257fe5b60200260200101519050620008d3816001600160a01b0316846001600160a01b0316106065620005be60201b60201c565b915060010162000889565b505050565b64e8d4a5100090565b67016345785d8a000090565b6000620009078484846200099b565b506001901b60001901811b1992909216911b1790565b60006200092f838311156001620005be565b508082035b92915050565b62461bcd60e51b600090815260206004526007602452600a808404818106603090810160081b958390069590950190829004918206850160101b01602363ffffff0060e086901c160160181b0190930160c81b60445260e882901c90606490fd5b620009ac61010083106064620005be565b620009e560018210158015620009dd5750620009d960ff8461010003620009f660201b620010d41760201c565b8211155b6064620005be565b620008de83821c156101b4620005be565b600081831062000a07578162000a09565b825b9392505050565b828054600181600116156101000203166002900490600052602060002090601f016020900481019282601f1062000a5357805160ff191683800117855562000a83565b8280016001018555821562000a83579182015b8281111562000a8357825182559160200191906001019062000a66565b5062000a9192915062000a95565b5090565b5b8082111562000a91576000815560010162000a96565b8051620009348162000e5a565b600082601f83011262000aca578081fd5b81516001600160401b0381111562000ae0578182fd5b62000af5601f8201601f191660200162000df4565b915080825283602082850101111562000b0d57600080fd5b62000b2081602084016020860162000e27565b5092915050565b60006020828403121562000b39578081fd5b5051919050565b60006020828403121562000b52578081fd5b815162000a098162000e5a565b600080600080600060a0868803121562000b77578081fd5b855162000b848162000e5a565b60208701519095506001600160401b038082111562000ba1578283fd5b818801915061014080838b03121562000bb8578384fd5b62000bc38162000df4565b905082518281111562000bd4578485fd5b62000be28b82860162000ab9565b82525060208301518281111562000bf7578485fd5b62000c058b82860162000ab9565b60208301525062000c1a8a6040850162000aac565b604082015262000c2e8a6060850162000aac565b60608201526080830151608082015260a083015160a082015260c083015160c082015260e083015160e0820152610100808401518183015250610120808401518381111562000c7b578586fd5b62000c898c82870162000ab9565b828401525050809650505050604086015192506060860151915062000cb2876080880162000aac565b90509295509295909350565b60006020828403121562000cd0578081fd5b815160ff8116811462000a09578182fd5b60006060820185835260206060818501528186518084526080860191508288019350845b8181101562000d2d5762000d1a855162000e1b565b8352938301939183019160010162000d05565b505084810360408601528551808252908201925081860190845b8181101562000d6f5762000d5c835162000e1b565b8552938301939183019160010162000d47565b509298975050505050505050565b602081016003831062000d8c57fe5b91905290565b90815260200190565b600086825260018060a01b038616602083015284604083015283606083015260a0608083015282518060a084015262000ddc8160c085016020870162000e27565b601f01601f19169190910160c0019695505050505050565b6040518181016001600160401b038111828210171562000e1357600080fd5b604052919050565b6001600160a01b031690565b60005b8381101562000e4457818101518382015260200162000e2a565b8381111562000e54576000848401525b50505050565b6001600160a01b03811681146200085457600080fd5b60805160a05160c05160e0516101005160601c6101205160601c6101405161016051610180516101a05160601c6101c05160601c6101e05160601c61020051610220516102405161026051610280516102a0516102c0516102e0516103005161032051610340516103605160601c613db96200108e60003980611cb352806121f852806125a7525080610b9f52806112375280612e9f525080610dd452806111e2528061207352806120ae528061213e528061217b52806123a95280612453528061289852806128f0528061293352806129825280612ab25280612b575280612bcf525080610a6d528061117c5280611f66528061202e52806120f052806123ec5280612427528061249a5280612556528061277a528061284852806128c45280612a615280612ba35280612bfb5280612c2e5250806105ac5250806105cd528061106f525080610cb0525050806106695280610a0a5250806106435280610e0f52508061120a5250806111a4525080610a2e52806112ee52806113995280611f225280612005528061237f52806126235280612738528061281e5280612b2e5250806108ca528061129e52806113505280611fe052806122525280612317528061235a528061260152806127f95280612a1d5280612b09525080610e5652508061091d525080611497525080611473525080610c71525080610c4d525080610bd7525080611d77525080611db9525080611d985250613db96000f3fe608060405234801561001057600080fd5b50600436106102955760003560e01c80637ecebe0011610167578063a7488bb7116100ce578063d2946c2b11610087578063d2946c2b1461050b578063d505accf14610513578063d5c096c414610526578063dd62ed3e14610539578063ed24911d1461054c578063f1493ee11461055457610295565b8063a7488bb7146104d0578063a9059cbb146104d8578063aaabadc5146104eb578063ac4316cb146104f3578063b35056b8146104fb578063b7b814fc1461050357610295565b80638d928af8116101205780638d928af81461048a57806390193b7c1461049257806395c95a4f146104a557806395d89b41146104ad5780639c0e5d13146104b5578063a457c2d7146104bd57610295565b80637ecebe001461043957806382687a561461044c5780638456cb5914610454578063851c1bb31461045c57806387ec68171461046f578063893d20e81461048257610295565b806338fff2d01161020b5780636028bfd4116101c45780636028bfd4146103cc5780636482c9d3146103ed5780636945c1fd146103f557806370a08231146103fd57806372f3824d1461041057806374f3b0091461041857610295565b806338fff2d014610386578063395093511461038e5780633f4ba83a146103a157806350dd6ed9146103a957806354a844ba146103bc57806355c67628146103c457610295565b80631dd746ea1161025d5780631dd746ea1461031757806323b872dd1461032c5780632541897f1461033f578063313ce567146103545780633644e5151461036957806338e9922e1461037157610295565b806301ec954a1461029a57806306fdde03146102c3578063095ea7b3146102d857806318160ddd146102f85780631c0de05114610300575b600080fd5b6102ad6102a8366004613749565b61055c565b6040516102ba9190613a6d565b60405180910390f35b6102cb610767565b6040516102ba9190613b8b565b6102eb6102e63660046134d6565b6107fd565b6040516102ba9190613a4a565b6102ad610814565b61030861081a565b6040516102ba93929190613a55565b61031f610843565b6040516102ba9190613a09565b6102eb61033a366004613426565b610852565b6103476108c8565b6040516102ba91906139c1565b61035c6108ec565b6040516102ba9190613cfd565b6102ad6108f5565b61038461037f366004613868565b6108ff565b005b6102ad61091b565b6102eb61039c3660046134d6565b61093f565b61038461097a565b6103846103b7366004613608565b61098e565b6103846109ac565b6102ad6109be565b6103df6103da366004613521565b6109d1565b6040516102ba929190613ce4565b6102ad610a08565b610347610a2c565b6102ad61040b3660046133d2565b610a50565b6102ad610a6b565b61042b610426366004613521565b610a8f565b6040516102ba929190613a1c565b6102ad6104473660046133d2565b610b92565b6102ad610b9d565b610384610bc1565b6102ad61046a3660046135c4565b610bd3565b6103df61047d366004613521565b610c25565b610347610c4b565b610347610c6f565b6102ad6104a03660046133d2565b610c93565b6102ad610cae565b6102cb610cd2565b6102cb610d33565b6102eb6104cb3660046134d6565b610d94565b6102ad610dd2565b6102eb6104e63660046134d6565b610df6565b610347610e03565b6102ad610e0d565b6102eb610e31565b610384610e42565b610347610e54565b610384610521366004613466565b610e78565b61042b610534366004613521565b610f03565b6102ad6105473660046133ee565b611026565b6102ad611063565b6102ad61106d565b6000846080015161058961056e610c6f565b6001600160a01b0316336001600160a01b03161460cd6110ea565b61059e61059461091b565b82146101f46110ea565b6105a66110f8565b426105f17f00000000000000000000000000000000000000000000000000000000000000007f000000000000000000000000000000000000000000000000000000000000000061110b565b10156106185760405162461bcd60e51b815260040161060f90613cbc565b60405180910390fd5b606061062261111b565b905061062c6132c4565b604051806060016040528061063f6109be565b81527f000000000000000000000000000000000000000000000000000000000000000060208201527f0000000000000000000000000000000000000000000000000000000000000000604090910152905060008851600181111561069f57fe5b1415610701576106c688606001518388815181106106b957fe5b602002602001015161128e565b606089015260006106d889898461129a565b90506106f7818488815181106106ea57fe5b6020026020010151611340565b945050505061075e565b60018851600181111561071057fe5b141561075b5761072a88606001518387815181106106b957fe5b6060890152600061073c89898461134c565b90506106f78184898151811061074e57fe5b60200260200101516113e0565b50505b50949350505050565b60038054604080516020601f60026000196101006001881615020190951694909404938401819004810282018101909252828152606093909290918301828280156107f35780601f106107c8576101008083540402835291602001916107f3565b820191906000526020600020905b8154815290600101906020018083116107d657829003601f168201915b5050505050905090565b600061080a3384846113ec565b5060015b92915050565b60025490565b6000806000610827611454565b159250610832611471565b915061083c611495565b9050909192565b606061084d61111b565b905090565b60008061085f8533611026565b9050610883336001600160a01b038716148061087b5750838210155b61019e6110ea565b61088e8585856114b9565b336001600160a01b038616148015906108a957506000198114155b156108bb576108bb85338584036113ec565b60019150505b9392505050565b7f000000000000000000000000000000000000000000000000000000000000000090565b60055460ff1690565b600061084d611063565b610907611599565b61090f6110f8565b610918816115c7565b50565b7f000000000000000000000000000000000000000000000000000000000000000090565b3360008181526001602090815260408083206001600160a01b0387168452909152812054909161080a9185906109759086611640565b6113ec565b610982611599565b61098c6000611652565b565b610996611599565b61099e6110f8565b6109a882826116c5565b5050565b6109b4611599565b61098c60016117ba565b60085460009061084d9060c0603f611811565b600060606109e786516109e2611820565b611825565b6109fc898989898989896118326118846118f3565b97509795505050505050565b7f000000000000000000000000000000000000000000000000000000000000000090565b7f000000000000000000000000000000000000000000000000000000000000000090565b6001600160a01b031660009081526020819052604090205490565b7f000000000000000000000000000000000000000000000000000000000000000090565b60608088610a9e61056e610c6f565b610aa961059461091b565b60606000610ab686611a1d565b15610ade57610ac3611a4c565b610ad589610acf610814565b88611a5f565b92509050610b30565b610ae6611a8b565b6060610af061111b565b9050610afc8a82611a93565b610b208d8d8d8d8d610b0c610e31565b610b16578d610b19565b60005b878e611832565b93509150610b2e8382611884565b505b610b3a8b82611afc565b81895167ffffffffffffffff81118015610b5357600080fd5b50604051908082528060200260200182016040528015610b7d578160200160208202803683370190505b509450945050505b5097509795505050505050565b600061080e82610c93565b7f000000000000000000000000000000000000000000000000000000000000000090565b610bc9611599565b61098c6001611652565b60007f000000000000000000000000000000000000000000000000000000000000000082604051602001610c0892919061397e565b604051602081830303815290604052805190602001209050919050565b60006060610c3686516109e2611820565b6109fc89898989898989611b06611b226118f3565b7f000000000000000000000000000000000000000000000000000000000000000090565b7f000000000000000000000000000000000000000000000000000000000000000090565b6001600160a01b031660009081526006602052604090205490565b7f000000000000000000000000000000000000000000000000000000000000000090565b60048054604080516020601f60026000196101006001881615020190951694909404938401819004810282018101909252828152606093909290918301828280156107f35780601f106107c8576101008083540402835291602001916107f3565b60098054604080516020601f60026000196101006001881615020190951694909404938401819004810282018101909252828152606093909290918301828280156107f35780601f106107c8576101008083540402835291602001916107f3565b600080610da13385611026565b9050808310610dbb57610db6338560006113ec565b610dc8565b610dc833858584036113ec565b5060019392505050565b7f000000000000000000000000000000000000000000000000000000000000000090565b600061080a3384846114b9565b600061084d611b8b565b7f000000000000000000000000000000000000000000000000000000000000000090565b60085460009061084d9060ff611c05565b610e4a611599565b61098c60006117ba565b7f000000000000000000000000000000000000000000000000000000000000000090565b60007f6e71edae12b1b97f4d1f60370fef10105fa2faae0126114a169c64845d6126c9888888610ea78c610c93565b89604051602001610ebd96959493929190613ad5565b604051602081830303815290604052805190602001209050610eee8882610ee5878787611c0f565b886101f8611c4e565b610ef98888886113ec565b5050505050505050565b60608088610f1261056e610c6f565b610f1d61059461091b565b610f25611a8b565b6060610f2f61111b565b9050610f39610814565b610fe65760006060610f4e8d8d8d868b611ca5565b91509150610f67610f5d611d37565b83101560cc6110ea565b610f796000610f74611d37565b611d3e565b610f8c8b610f85611d37565b8403611d3e565b610f968184611b22565b808a5167ffffffffffffffff81118015610faf57600080fd5b50604051908082528060200260200182016040528015610fd9578160200160208202803683370190505b5095509550505050610b85565b610ff08882611a93565b600060606110188d8d8d8d8d611004610e31565b61100e578d611011565b60005b898e611b06565b91509150610f8c8b83611d3e565b6000611030610c6f565b6001600160a01b0316826001600160a01b03161415611052575060001961080e565b61105c8383611d48565b905061080e565b600061084d611d73565b7f000000000000000000000000000000000000000000000000000000000000000090565b806109a881611e10565b60006110a8848484611e8e565b506001901b60001901811b1992909216911b1790565b60006110ce8383111560016110ea565b50900390565b60008183106110e357816108c1565b5090919050565b816109a8576109a881611ed5565b61098c611103611454565b6101926110ea565b8181018281101561080e57600080fd5b60606000611127611820565b905060608167ffffffffffffffff8111801561114257600080fd5b5060405190808252806020026020018201604052801561116c578160200160208202803683370190505b50905060005b82811015611287577f00000000000000000000000000000000000000000000000000000000000000008114156111e0577f00000000000000000000000000000000000000000000000000000000000000008282815181106111cf57fe5b60200260200101818152505061127f565b7f0000000000000000000000000000000000000000000000000000000000000000811415611235577f00000000000000000000000000000000000000000000000000000000000000008282815181106111cf57fe5b7f000000000000000000000000000000000000000000000000000000000000000081141561127f57670de0b6b3a764000082828151811061127257fe5b6020026020010181815250505b600101611172565b5091505090565b60006108c18383611ee5565b60007f00000000000000000000000000000000000000000000000000000000000000006001600160a01b031684602001516001600160a01b031614156112ec576112e5848484611f1b565b90506108c1565b7f00000000000000000000000000000000000000000000000000000000000000006001600160a01b031684602001516001600160a01b03161415611335576112e5848484612310565b6108c1610135611ed5565b60006108c183836126e0565b60007f00000000000000000000000000000000000000000000000000000000000000006001600160a01b031684604001516001600160a01b03161415611397576112e5848484612731565b7f00000000000000000000000000000000000000000000000000000000000000006001600160a01b031684604001516001600160a01b03161415611335576112e5848484612a16565b60006108c18383612c9a565b6001600160a01b0380841660008181526001602090815260408083209487168084529490915290819020849055517f8c5be1e5ebec7d5bd14f71427d1e84f3dd0314c0f7b2291e5b200ac8c7c3b92590611447908590613a6d565b60405180910390a3505050565b600061145e611495565b42118061084d57505060075460ff161590565b7f000000000000000000000000000000000000000000000000000000000000000090565b7f000000000000000000000000000000000000000000000000000000000000000090565b6114d06001600160a01b03841615156101986110ea565b6114e76001600160a01b03831615156101996110ea565b6114f2838383611e89565b6001600160a01b03831660009081526020819052604090205461151890826101a0612ce8565b6001600160a01b0380851660009081526020819052604080822093909355908416815220546115479082611640565b6001600160a01b0380841660008181526020819052604090819020939093559151908516907fddf252ad1be2c89b69c2b068fc378daa952ba7f163c4a11628f55a4df523b3ef90611447908590613a6d565b60006115b06000356001600160e01b031916610bd3565b90506109186115bf8233612cfe565b6101916110ea565b6115dc6115d2612de7565b82101560cb6110ea565b6115f16115e7612df0565b82111560ca6110ea565b600854611602908260c0603f61109b565b6008556040517fa9ba3ffe0b6c366b81232caab38605a0699ad5398d6cce76f91ee809e322dafc90611635908390613a6d565b60405180910390a150565b60008282016108c184821015836110ea565b80156116725761166d611663611471565b42106101936110ea565b611687565b61168761167d611495565b42106101a96110ea565b6007805460ff19168215151790556040517f9e3a5e37224532dea67b89face185703738a228a6e8a23dee546960180d3be6490611635908390613a4a565b60006116cf61091b565b905060006116db610c6f565b6001600160a01b031663b05f8e4883866040518363ffffffff1660e01b8152600401611708929190613b56565b60806040518083038186803b15801561172057600080fd5b505afa158015611734573d6000803e3d6000fd5b505050506040513d601f19601f820116820180604052508101906117589190613880565b604051630639cdb560e21b81529094506001600160a01b03851693506318e736d4925061178c915085908790600401613b35565b600060405180830381600087803b1580156117a657600080fd5b505af1158015610ef9573d6000803e3d6000fd5b6008546117c9908260ff612dfc565b6008556040517feff3d4d215b42bf0960be9c6d5e05c22cba4df6627a3a523e2acee733b5854c8906117fc908390613a4a565b60405180910390a1806109185761091861098c565b6001901b6000190191901c1690565b600390565b6109a881831460676110ea565b60006060600061184184612e23565b9050600181600181111561185157fe5b1461186657611861610162611ed5565b611876565b6118708885612e39565b90935091505b509850989650505050505050565b81518151611893908290611825565b60005b818110156118ed576118ce8482815181106118ad57fe5b60200260200101518483815181106118c157fe5b60200260200101516126e0565b8482815181106118da57fe5b6020908102919091010152600101611896565b50505050565b3330146119b1576000306001600160a01b0316600036604051611917929190613996565b6000604051808303816000865af19150503d8060008114611954576040519150601f19603f3d011682016040523d82523d6000602084013e611959565b606091505b50509050806000811461196857fe5b60046000803e6000516001600160e01b0319166343adbafb60e01b8114611993573d6000803e3d6000fd5b506020600460003e604060205260243d03602460403e601c3d016000f35b6119b9611a8b565b60606119c361111b565b90506119cf8782611a93565b600060606119e78c8c8c8c8c8c898d8d63ffffffff16565b915091506119f981848663ffffffff16565b8051601f1982018390526343adbafb603f1983015260200260231982016044820181fd5b600080825111801561080e575060ff801682806020019051810190611a4291906138c0565b60ff161492915050565b61098c611a57610e31565b6101b66110ea565b600060606000611a6e84612f05565b90506060611a7d878784612f1b565b919791965090945050505050565b61098c6110f8565b81518151611aa2908290611825565b60005b818110156118ed57611add848281518110611abc57fe5b6020026020010151848381518110611ad057fe5b6020026020010151611ee5565b848281518110611ae957fe5b6020908102919091010152600101611aa5565b6109a88282612fb4565b60006060611b15610162611ed5565b9850989650505050505050565b81518151611b31908290611825565b60005b818110156118ed57611b6c848281518110611b4b57fe5b6020026020010151848381518110611b5f57fe5b6020026020010151612c9a565b848281518110611b7857fe5b6020908102919091010152600101611b34565b6000611b95610c6f565b6001600160a01b031663aaabadc56040518163ffffffff1660e01b815260040160206040518083038186803b158015611bcd57600080fd5b505afa158015611be1573d6000803e3d6000fd5b505050506040513d601f19601f8201168201806040525081019061084d91906135ec565b1c60019081161490565b60408051604180825260808201909252606091829190602082018180368337019050509050836020820152826040820152846060820153949350505050565b6000611c5985613080565b9050611c6f611c6987838761309c565b836110ea565b611c7e428410156101b86110ea565b5050506001600160a01b039092166000908152600660205260409020805460010190555050565b60006060611cb16110f8565b7f0000000000000000000000000000000000000000000000000000000000000000611cec6001600160a01b03888116908316146101566110ea565b611d0c816001600160a01b0316876001600160a01b0316146101566110ea565b6dffffffffffffffffffffffffffff6060611d268661314b565b919a91995090975050505050505050565b620f424090565b6109a88282613161565b6001600160a01b03918216600090815260016020908152604080832093909416825291909152205490565b60007f00000000000000000000000000000000000000000000000000000000000000007f00000000000000000000000000000000000000000000000000000000000000007f0000000000000000000000000000000000000000000000000000000000000000611de06131f4565b30604051602001611df5959493929190613b09565b60405160208183030381529060405280519060200120905090565b600281511015611e1f57610918565b600081600081518110611e2e57fe5b602002602001015190506000600190505b8251811015611e89576000838281518110611e5657fe5b60200260200101519050611e7f816001600160a01b0316846001600160a01b03161060656110ea565b9150600101611e3f565b505050565b611e9d610100831060646110ea565b611ec660018210158015611ebf5750611ebb60ff84610100036110d4565b8211155b60646110ea565b611e8983821c156101b46110ea565b610918816210905360ea1b6131f8565b6000828202611f09841580611f02575083858381611eff57fe5b04145b60036110ea565b670de0b6b3a764000090049392505050565b6000611f617f00000000000000000000000000000000000000000000000000000000000000006001600160a01b031685604001516001600160a01b0316146101356110ea565b6000837f000000000000000000000000000000000000000000000000000000000000000081518110611f8f57fe5b602002602001015111611fb45760405162461bcd60e51b815260040161060f90613c94565b816040015184606001511015611fdc5760405162461bcd60e51b815260040161060f90613c03565b60007f0000000000000000000000000000000000000000000000000000000000000000905060007f000000000000000000000000000000000000000000000000000000000000000090506000612069867f00000000000000000000000000000000000000000000000000000000000000008151811061205757fe5b60200260200101518860600151611640565b90506000612134877f00000000000000000000000000000000000000000000000000000000000000008151811061209c57fe5b602002602001015161212f6120ed858b7f0000000000000000000000000000000000000000000000000000000000000000815181106120d757fe5b60200260200101516126e090919063ffffffff16565b8a7f00000000000000000000000000000000000000000000000000000000000000008151811061211957fe5b6020026020010151611ee590919063ffffffff16565b6110be565b90506000612175887f00000000000000000000000000000000000000000000000000000000000000008151811061216757fe5b6020026020010151836110be565b905081887f0000000000000000000000000000000000000000000000000000000000000000815181106121a457fe5b6020026020010151116121c95760405162461bcd60e51b815260040161060f90613b9e565b60208701516121d882856126e0565b10156121f65760405162461bcd60e51b815260040161060f90613c68565b7f00000000000000000000000000000000000000000000000000000000000000006001600160a01b0316638ac316f161222d61091b565b60608c015160c08d01516040516001600160e01b031960e086901b16815261228193927f00000000000000000000000000000000000000000000000000000000000000009283928a90600090600401613a95565b600060405180830381600087803b15801561229b57600080fd5b505af11580156122af573d6000803e3d6000fd5b50505050846001600160a01b03167f560f9a9aa840257b3f71f9f0cc55270169408d782595c416c1042eccf7426c9c858b606001518c60c0015186426040516122fc9594939291906139d5565b60405180910390a250979650505050505050565b60006123567f00000000000000000000000000000000000000000000000000000000000000006001600160a01b031685604001516001600160a01b0316146101356110ea565b60007f0000000000000000000000000000000000000000000000000000000000000000905060007f000000000000000000000000000000000000000000000000000000000000000090506000806123e4877f0000000000000000000000000000000000000000000000000000000000000000815181106123d257fe5b60200260200101518960600151611640565b905061247c877f00000000000000000000000000000000000000000000000000000000000000008151811061241557fe5b602002602001015161212f612450848b7f0000000000000000000000000000000000000000000000000000000000000000815181106120d757fe5b8a7f00000000000000000000000000000000000000000000000000000000000000008151811061211957fe5b9150856040015182101561249257856040015191505b60006124d1887f0000000000000000000000000000000000000000000000000000000000000000815181106124c357fe5b6020026020010151846110be565b9050806125015786602001518210156124fc5760405162461bcd60e51b815260040161060f90613c68565b61252e565b602087015161251083836126e0565b101561252e5760405162461bcd60e51b815260040161060f90613c68565b86604001518310156125525760405162461bcd60e51b815260040161060f90613c03565b82887f00000000000000000000000000000000000000000000000000000000000000008151811061257f57fe5b602002602001015110156125a55760405162461bcd60e51b815260040161060f90613c31565b7f00000000000000000000000000000000000000000000000000000000000000006001600160a01b0316638ac316f16125dc61091b565b60608c015160c08d01516040516001600160e01b031960e086901b16815261265093927f0000000000000000000000000000000000000000000000000000000000000000927f0000000000000000000000000000000000000000000000000000000000000000928b90600190600401613a95565b600060405180830381600087803b15801561266a57600080fd5b505af115801561267e573d6000803e3d6000fd5b50505050836001600160a01b03167f560f9a9aa840257b3f71f9f0cc55270169408d782595c416c1042eccf7426c9c868b606001518c60c0015187426040516126cb9594939291906139d5565b60405180910390a25090979650505050505050565b60006126ef82151560046110ea565b826126fc5750600061080e565b670de0b6b3a76400008381029061271f9085838161271657fe5b041460056110ea565b82818161272857fe5b0491505061080e565b60006127777f00000000000000000000000000000000000000000000000000000000000000006001600160a01b031685602001516001600160a01b0316146101356110ea565b827f0000000000000000000000000000000000000000000000000000000000000000815181106127a357fe5b60200260200101518460600151106127cd5760405162461bcd60e51b815260040161060f90613bd5565b8160400151846060015110156127f55760405162461bcd60e51b815260040161060f90613c03565b60007f0000000000000000000000000000000000000000000000000000000000000000905060007f00000000000000000000000000000000000000000000000000000000000000009050600080612883877f00000000000000000000000000000000000000000000000000000000000000008151811061287157fe5b602002602001015189606001516110be565b9050801561292d576129266128ed6128c1838a7f0000000000000000000000000000000000000000000000000000000000000000815181106120d757fe5b897f00000000000000000000000000000000000000000000000000000000000000008151811061211957fe5b887f00000000000000000000000000000000000000000000000000000000000000008151811061291957fe5b60200260200101516110be565b915061297a565b612977877f00000000000000000000000000000000000000000000000000000000000000008151811061295c57fe5b60200260200101518960600151611ee590919063ffffffff16565b91505b60006129b9887f0000000000000000000000000000000000000000000000000000000000000000815181106129ab57fe5b602002602001015184611640565b9050816129e95786602001518110156129e45760405162461bcd60e51b815260040161060f90613c68565b6125a5565b60208701516129f882846126e0565b10156125a55760405162461bcd60e51b815260040161060f90613c68565b6000612a5c7f00000000000000000000000000000000000000000000000000000000000000006001600160a01b031685602001516001600160a01b0316146101356110ea565b6000837f000000000000000000000000000000000000000000000000000000000000000081518110612a8a57fe5b602002602001015111612aaf5760405162461bcd60e51b815260040161060f90613c94565b827f000000000000000000000000000000000000000000000000000000000000000081518110612adb57fe5b6020026020010151846060015110612b055760405162461bcd60e51b815260040161060f90613bd5565b60007f0000000000000000000000000000000000000000000000000000000000000000905060007f000000000000000000000000000000000000000000000000000000000000000090506000612b92867f000000000000000000000000000000000000000000000000000000000000000081518110612b8057fe5b602002602001015188606001516110be565b90506000612c24612bf8612bcc848a7f0000000000000000000000000000000000000000000000000000000000000000815181106120d757fe5b897f00000000000000000000000000000000000000000000000000000000000000008151811061211957fe5b887f00000000000000000000000000000000000000000000000000000000000000008151811061291957fe5b90506000612c65887f000000000000000000000000000000000000000000000000000000000000000081518110612c5757fe5b602002602001015183611640565b90508660400151821015612c8b5760405162461bcd60e51b815260040161060f90613c03565b60208701516121d884836126e0565b6000612ca982151560046110ea565b82612cb65750600061080e565b670de0b6b3a764000083810290612cd09085838161271657fe5b826001820381612cdc57fe5b0460010191505061080e565b6000612cf784841115836110ea565b5050900390565b600073ba1ba1ba1ba1ba1ba1ba1ba1ba1ba1ba1ba1ba1b612d1d610c4b565b6001600160a01b031614158015612d385750612d3883613259565b15612d6057612d45610c4b565b6001600160a01b0316336001600160a01b031614905061080e565b612d68611b8b565b6001600160a01b0316639be2a8848484306040518463ffffffff1660e01b8152600401612d9793929190613a76565b60206040518083038186803b158015612daf57600080fd5b505afa158015612dc3573d6000803e3d6000fd5b505050506040513d601f19601f8201168201806040525081019061105c9190613501565b64e8d4a5100090565b67016345785d8a000090565b60006001821b1984168284612e12576000612e15565b60015b60ff16901b17949350505050565b60008180602001905181019061080e9190613656565b600060606000612e4884613295565b90506060855167ffffffffffffffff81118015612e6457600080fd5b50604051908082528060200260200182016040528015612e8e578160200160208202803683370190505b50905060005b8651811015612ef9577f00000000000000000000000000000000000000000000000000000000000000008114612ef157868181518110612ed057fe5b6020026020010151828281518110612ee457fe5b6020026020010181815250505b600101612e94565b50909590945092505050565b6000818060200190518101906108c191906138dc565b60606000612f2983856126e0565b9050845167ffffffffffffffff81118015612f4357600080fd5b50604051908082528060200260200182016040528015612f6d578160200160208202803683370190505b50915060005b8551811015612fab57612f8c8287838151811061211957fe5b838281518110612f9857fe5b6020908102919091010152600101612f73565b50509392505050565b612fcb6001600160a01b038316151561019b6110ea565b612fd782600083611e89565b6001600160a01b038216600090815260208190526040902054612ffd90826101b2612ce8565b6001600160a01b03831660009081526020819052604090205561303061302b82613025610814565b906132ab565b6132b9565b60006001600160a01b0316826001600160a01b03167fddf252ad1be2c89b69c2b068fc378daa952ba7f163c4a11628f55a4df523b3ef836040516130749190613a6d565b60405180910390a35050565b600061308a611d73565b82604051602001610c089291906139a6565b60006130ae82516041146101b96110ea565b60208281015160408085015160608601518251600080825295019283905292939092811a916001906130e7908990859088908890613b6d565b6020604051602081039080840390855afa158015613109573d6000803e3d6000fd5b5050604051601f1901519150506001600160a01b0381161580159061313f5750876001600160a01b0316816001600160a01b0316145b98975050505050505050565b6060818060200190518101906108c1919061369f565b61316d60008383611e89565b61318261302b8261317c610814565b90611640565b6001600160a01b0382166000908152602081905260409020546131a59082611640565b6001600160a01b0383166000818152602081905260408082209390935591519091907fddf252ad1be2c89b69c2b068fc378daa952ba7f163c4a11628f55a4df523b3ef90613074908590613a6d565b4690565b62461bcd60e51b600090815260206004526007602452600a808404818106603090810160081b958390069590950190829004918206850160101b01602363ffffff0060e086901c160160181b0190930160c81b60445260e882901c90606490fd5b600061326b631c74c91760e11b610bd3565b82148061328657506132836350dd6ed960e01b610bd3565b82145b8061080e575061080e826132be565b6000818060200190518101906108c19190613672565b60006108c183836001612ce8565b600255565b50600090565b60405180606001604052806000815260200160008152602001600081525090565b803561080e81613d52565b600082601f830112613300578081fd5b813561331361330e82613d32565b613d0b565b81815291506020808301908481018184028601820187101561333457600080fd5b60005b8481101561335357813584529282019290820190600101613337565b505050505092915050565b600082601f83011261336e578081fd5b813567ffffffffffffffff811115613384578182fd5b613397601f8201601f1916602001613d0b565b91508082528360208285010111156133ae57600080fd5b8060208401602084013760009082016020015292915050565b803561080e81613d67565b6000602082840312156133e3578081fd5b81356108c181613d52565b60008060408385031215613400578081fd5b823561340b81613d52565b9150602083013561341b81613d52565b809150509250929050565b60008060006060848603121561343a578081fd5b833561344581613d52565b9250602084013561345581613d52565b929592945050506040919091013590565b600080600080600080600060e0888a031215613480578283fd5b873561348b81613d52565b9650602088013561349b81613d52565b9550604088013594506060880135935060808801356134b981613d74565b9699959850939692959460a0840135945060c09093013592915050565b600080604083850312156134e8578182fd5b82356134f381613d52565b946020939093013593505050565b600060208284031215613512578081fd5b815180151581146108c1578182fd5b600080600080600080600060e0888a03121561353b578081fd5b87359650602088013561354d81613d52565b9550604088013561355d81613d52565b9450606088013567ffffffffffffffff80821115613579578283fd5b6135858b838c016132f0565b955060808a0135945060a08a0135935060c08a01359150808211156135a8578283fd5b506135b58a828b0161335e565b91505092959891949750929550565b6000602082840312156135d5578081fd5b81356001600160e01b0319811681146108c1578182fd5b6000602082840312156135fd578081fd5b81516108c181613d52565b6000806040838503121561361a578182fd5b823561362581613d52565b9150602083013567ffffffffffffffff811115613640578182fd5b61364c8582860161335e565b9150509250929050565b600060208284031215613667578081fd5b81516108c181613d67565b60008060408385031215613684578182fd5b825161368f81613d67565b6020939093015192949293505050565b600080604083850312156136b1578182fd5b8251600481106136bf578283fd5b8092505060208084015167ffffffffffffffff8111156136dd578283fd5b8401601f810186136136ed578283fd5b80516136fb61330e82613d32565b81815283810190838501858402850186018a1015613717578687fd5b8694505b8385101561373957805183526001949094019391850191850161371b565b5080955050505050509250929050565b6000806000806080858703121561375e578182fd5b843567ffffffffffffffff80821115613775578384fd5b818701915061012080838a03121561378b578485fd5b61379481613d0b565b90506137a089846133c7565b81526137af89602085016132e5565b60208201526137c189604085016132e5565b6040820152606083013560608201526080830135608082015260a083013560a08201526137f18960c085016132e5565b60c08201526138038960e085016132e5565b60e0820152610100808401358381111561381b578687fd5b6138278b82870161335e565b828401525050809650506020870135915080821115613844578384fd5b50613851878288016132f0565b949794965050505060408301359260600135919050565b600060208284031215613879578081fd5b5035919050565b60008060008060808587031215613895578182fd5b84519350602085015192506040850151915060608501516138b581613d52565b939692955090935050565b6000602082840312156138d1578081fd5b81516108c181613d74565b600080604083850312156138ee578182fd5b825161368f81613d74565b6000815180845260208085019450808401835b838110156139285781518752958201959082019060010161390c565b509495945050505050565b60008151808452815b818110156139585760208185018101518683018201520161393c565b818111156139695782602083870101525b50601f01601f19169290920160200192915050565b9182526001600160e01b031916602082015260240190565b6000828483379101908152919050565b61190160f01b81526002810192909252602282015260420190565b6001600160a01b0391909116815260200190565b6001600160a01b03958616815260208101949094529190931660408301526060820192909252608081019190915260a00190565b6000602082526108c160208301846138f9565b600060408252613a2f60408301856138f9565b8281036020840152613a4181856138f9565b95945050505050565b901515815260200190565b92151583526020830191909152604082015260600190565b90815260200190565b9283526001600160a01b03918216602084015216604082015260600190565b9687526001600160a01b03958616602088015293851660408701526060860192909252909216608084015260a0830191909152151560c082015260e00190565b9586526001600160a01b0394851660208701529290931660408501526060840152608083019190915260a082015260c00190565b9485526020850193909352604084019190915260608301526001600160a01b0316608082015260a00190565b600083825260406020830152613b4e6040830184613933565b949350505050565b9182526001600160a01b0316602082015260400190565b93845260ff9290921660208401526040830152606082015260800190565b6000602082526108c16020830184613933565b6020808252601d908201527f496e73756666696369656e742063757272656e63792062616c616e6365000000604082015260600190565b602080825260149082015273496e73756666696369656e742062616c616e636560601b604082015260600190565b60208082526014908201527327b93232b91039b4bd32903b34b7b630ba34b7b760611b604082015260600190565b6020808252601d908201527f496e73756666696369656e742073656375726974792062616c616e6365000000604082015260600190565b602080825260129082015271141c9a58d9481bdd5d081bd988189bdd5b9960721b604082015260600190565b6020808252600e908201526d125cdcdd59481cdbdb19081bdd5d60921b604082015260600190565b6020808252600e908201526d2a34b6b2a634b6b4ba1027bb32b960911b604082015260600190565b600083825260406020830152613b4e60408301846138f9565b60ff91909116815260200190565b60405181810167ffffffffffffffff81118282101715613d2a57600080fd5b604052919050565b600067ffffffffffffffff821115613d48578081fd5b5060209081020190565b6001600160a01b038116811461091857600080fd5b6002811061091857600080fd5b60ff8116811461091857600080fdfea2646970667358221220959336a4b0119e42d0567ab1405dfaf2fc25e5b70ac60cbb99f6086c6abf64ea64736f6c63430007010033",
  "linkReferences": {},
  "deployedLinkReferences": {}
}