{
  "_format": "hh-sol-artifact-1",
  "contractName": "PrimaryIssuePoolFactory",
  "sourceName": "contracts/PrimaryIssuePoolFactory.sol",
  "abi": [
    {
      "inputs": [
        {
          "internalType": "contract IVault",
          "name": "vault",
          "type": "address"
        }
      ],
      "stateMutability": "nonpayable",
      "type": "constructor"
    },
    {
      "anonymous": false,
      "inputs": [],
      "name": "FactoryDisabled",
      "type": "event"
    },
    {
      "anonymous": false,
      "inputs": [
        {
          "indexed": true,
          "internalType": "address",
          "name": "pool",
          "type": "address"
        }
      ],
      "name": "PoolCreated",
      "type": "event"
    },
    {
      "inputs": [
        {
          "internalType": "address",
          "name": "_security",
          "type": "address"
        },
        {
          "internalType": "address",
          "name": "_currency",
          "type": "address"
        },
        {
          "internalType": "uint256",
          "name": "_minimumPrice",
          "type": "uint256"
        },
        {
          "internalType": "uint256",
          "name": "_basePrice",
          "type": "uint256"
        },
        {
          "internalType": "uint256",
          "name": "_maxAmountsIn",
          "type": "uint256"
        },
        {
          "internalType": "uint256",
          "name": "_issueFeePercentage",
          "type": "uint256"
        },
        {
          "internalType": "uint256",
          "name": "_cutOffTime",
          "type": "uint256"
        }
      ],
      "name": "create",
      "outputs": [
        {
          "internalType": "address",
          "name": "",
          "type": "address"
        }
      ],
      "stateMutability": "nonpayable",
      "type": "function"
    },
    {
      "inputs": [],
      "name": "disable",
      "outputs": [],
      "stateMutability": "nonpayable",
      "type": "function"
    },
    {
      "inputs": [
        {
          "internalType": "bytes4",
          "name": "selector",
          "type": "bytes4"
        }
      ],
      "name": "getActionId",
      "outputs": [
        {
          "internalType": "bytes32",
          "name": "",
          "type": "bytes32"
        }
      ],
      "stateMutability": "view",
      "type": "function"
    },
    {
      "inputs": [],
      "name": "getAuthorizer",
      "outputs": [
        {
          "internalType": "contract IAuthorizer",
          "name": "",
          "type": "address"
        }
      ],
      "stateMutability": "view",
      "type": "function"
    },
    {
      "inputs": [],
      "name": "getCreationCode",
      "outputs": [
        {
          "internalType": "bytes",
          "name": "",
          "type": "bytes"
        }
      ],
      "stateMutability": "view",
      "type": "function"
    },
    {
      "inputs": [],
      "name": "getCreationCodeContracts",
      "outputs": [
        {
          "internalType": "address",
          "name": "contractA",
          "type": "address"
        },
        {
          "internalType": "address",
          "name": "contractB",
          "type": "address"
        }
      ],
      "stateMutability": "view",
      "type": "function"
    },
    {
      "inputs": [],
      "name": "getPauseConfiguration",
      "outputs": [
        {
          "internalType": "uint256",
          "name": "pauseWindowDuration",
          "type": "uint256"
        },
        {
          "internalType": "uint256",
          "name": "bufferPeriodDuration",
          "type": "uint256"
        }
      ],
      "stateMutability": "view",
      "type": "function"
    },
    {
      "inputs": [],
      "name": "getVault",
      "outputs": [
        {
          "internalType": "contract IVault",
          "name": "",
          "type": "address"
        }
      ],
      "stateMutability": "view",
      "type": "function"
    },
    {
      "inputs": [],
      "name": "isDisabled",
      "outputs": [
        {
          "internalType": "bool",
          "name": "",
          "type": "bool"
        }
      ],
      "stateMutability": "view",
      "type": "function"
    },
    {
      "inputs": [
        {
          "internalType": "address",
          "name": "pool",
          "type": "address"
        }
      ],
      "name": "isPoolFromFactory",
      "outputs": [
        {
          "internalType": "bool",
          "name": "",
          "type": "bool"
        }
      ],
      "stateMutability": "view",
      "type": "function"
    }
  ],
  "bytecode": "0x6101606040523480156200001257600080fd5b50604051620053ec380380620053ec8339810160408190526200003591620001ce565b80604051806020016200004890620001c0565b601f1982820381018352601f90910116604052805182903090839060006002820460a081905280830360e081905281855290915083620000948162000104602090811b620003fd17901c565b60601b6001600160601b0319166080528285018051838252620000c38262000104602090811b620003fd17901c565b6001600160601b0319606091821b811660c0529690935290526101009590955250509290911b90911661012052505050426276a700016101405250620001fe565b80517f602038038060206000396000f3fefefefefefefefefefefefefefefefefefefe808352600091602081018484f09084529150620001526001600160a01b03831615156101ac62000158565b50919050565b81620001695762000169816200016d565b5050565b62461bcd60e51b6000908152602060045260076024526642414c23000030600a808404818106603090810160081b95839006959095019082900491820690940160101b939093010160c81b604452606490fd5b6147e38062000c0983390190565b600060208284031215620001e0578081fd5b81516001600160a01b0381168114620001f7578182fd5b9392505050565b60805160601c60a05160c05160601c60e051610100516101205160601c6101405161099f6200026a600039806101d952806102025250806103615250806103115250806104575250806101b052806104d352508061047852508061018f52806104af525061099f6000f3fe608060405234801561001057600080fd5b506004361061009d5760003560e01c80636c57f5a9116100665780636c57f5a914610116578063808152221461011e578063851c1bb31461013e5780638d928af81461015e578063aaabadc5146101665761009d565b8062c194db146100a2578063174481fa146100c05780632da47c40146100d65780632f2770db146100ec5780636634b753146100f6575b600080fd5b6100aa61016e565b6040516100b79190610898565b60405180910390f35b6100c861018d565b6040516100b792919061084b565b6100de6101d3565b6040516100b7929190610946565b6100f461023d565b005b61010961010436600461073e565b610284565b6040516100b79190610865565b6101096102a2565b61013161012c36600461075a565b6102ab565b6040516100b79190610837565b61015161014c3660046107db565b61030d565b6040516100b79190610870565b61013161035f565b610131610383565b60606101886040518060200160405280600081525061044f565b905090565b7f00000000000000000000000000000000000000000000000000000000000000007f00000000000000000000000000000000000000000000000000000000000000009091565b600080427f000000000000000000000000000000000000000000000000000000000000000081101561022f57807f000000000000000000000000000000000000000000000000000000000000000003925062278d009150610238565b60009250600091505b509091565b610245610528565b61024d610559565b6001805460ff1916811790556040517f432acbfd662dbb5d8b378384a67159b47ca9d0f1b79f97cf64cf8585fa362d5090600090a1565b6001600160a01b031660009081526020819052604090205460ff1690565b60015460ff1690565b60008060006102b86101d3565b915091506102ff6102c761035f565b8b8b8b8b8b8b89898d336040516020016102eb9b9a999897969594939291906108eb565b60405160208183030381529060405261056e565b9a9950505050505050505050565b60007f00000000000000000000000000000000000000000000000000000000000000008260405160200161034292919061081f565b604051602081830303815290604052805190602001209050919050565b7f000000000000000000000000000000000000000000000000000000000000000090565b600061038d61035f565b6001600160a01b031663aaabadc56040518163ffffffff1660e01b815260040160206040518083038186803b1580156103c557600080fd5b505afa1580156103d9573d6000803e3d6000fd5b505050506040513d601f19601f820116820180604052508101906101889190610803565b80517f602038038060206000396000f3fefefefefefefefefefefefefefefefefefefe808352600091602081018484f090845291506104496001600160a01b03831615156101ac6105d7565b50919050565b8051604080517f00000000000000000000000000000000000000000000000000000000000000007f0000000000000000000000000000000000000000000000000000000000000000818101858101848101602090810190965280855293957f00000000000000000000000000000000000000000000000000000000000000009592947f000000000000000000000000000000000000000000000000000000000000000094938801866000828a3c846000888301883c506020898101908985010161051a8183866105e9565b505050505050505050919050565b600061053f6000356001600160e01b03191661030d565b905061055661054e8233610627565b6101916105d7565b50565b61056c6105646102a2565b1560d36105d7565b565b6000610578610559565b6000610583836106b7565b6001600160a01b038116600081815260208190526040808220805460ff191660011790555192935090917f83a48fbcfc991335314e74d0496aab6a1987e992ddc85dddbcc4d6dd6ef2e9fc9190a292915050565b816105e5576105e5816106eb565b5050565b5b60208110610609578151835260209283019290910190601f19016105ea565b905182516020929092036101000a6000190180199091169116179052565b6000610631610383565b6001600160a01b0316639be2a8848484306040518463ffffffff1660e01b815260040161066093929190610879565b60206040518083038186803b15801561067857600080fd5b505afa15801561068c573d6000803e3d6000fd5b505050506040513d601f19601f820116820180604052508101906106b091906107bb565b9392505050565b600060606106c48361044f565b905060008151602083016000f090506001600160a01b0381166106b0573d6000803e3d6000fd5b62461bcd60e51b6000908152602060045260076024526642414c23000030600a808404818106603090810160081b95839006959095019082900491820690940160101b939093010160c81b604452606490fd5b60006020828403121561074f578081fd5b81356106b081610954565b600080600080600080600060e0888a031215610774578283fd5b873561077f81610954565b9650602088013561078f81610954565b96999698505050506040850135946060810135946080820135945060a0820135935060c0909101359150565b6000602082840312156107cc578081fd5b815180151581146106b0578182fd5b6000602082840312156107ec578081fd5b81356001600160e01b0319811681146106b0578182fd5b600060208284031215610814578081fd5b81516106b081610954565b9182526001600160e01b031916602082015260240190565b6001600160a01b0391909116815260200190565b6001600160a01b0392831681529116602082015260400190565b901515815260200190565b90815260200190565b9283526001600160a01b03918216602084015216604082015260600190565b6000602080835283518082850152825b818110156108c4578581018301518582016040015282016108a8565b818111156108d55783604083870101525b50601f01601f1916929092016040019392505050565b6001600160a01b039b8c168152998b1660208b0152978a1660408a01526060890196909652608088019490945260a087019290925260c086015260e08501526101008401526101208301529091166101408201526101600190565b918252602082015260400190565b6001600160a01b038116811461055657600080fdfea2646970667358221220d1ebab5896931d79fafb32fddb26c96ec4d5f5b90447e24d123952ac66721b3564736f6c634300070100336102c06040527f6e71edae12b1b97f4d1f60370fef10105fa2faae0126114a169c64845d6126c960e0523480156200003657600080fd5b50604051620047e3380380620047e3833981016040819052620000599162000ae1565b8a60008b6001600160a01b03166306fdde036040518163ffffffff1660e01b815260040160006040518083038186803b1580156200009657600080fd5b505afa158015620000ab573d6000803e3d6000fd5b505050506040513d6000823e601f3d908101601f19168201604052620000d5919081019062000b92565b8c6001600160a01b03166395d89b416040518163ffffffff1660e01b815260040160006040518083038186803b1580156200010f57600080fd5b505afa15801562000124573d6000803e3d6000fd5b505050506040513d6000823e601f3d908101601f191682016040526200014e919081019062000b92565b6200015a8e8e62000531565b6040805160028082526060820183529091602083019080368337019050508a8a8a89828289898d85336001600160a01b031660001b8480604051806040016040528060018152602001603160f81b81525087878160039080519060200190620001c592919062000a0d565b508051620001db90600490602084019062000a0d565b50506005805460ff19166012179055508151602092830120608052805191012060a052507f8b73c3c69bb8fe3d512ecc4cf759cc79239f7b179b0ffacaa9a75d522b39400f60c052610100526001600160601b0319606091821b81166101205291901b1661014052506200025a90506276a700831115610194620005e2565b6200026e62278d00821115610195620005e2565b429091016101608190520161018052855162000290906002111560c8620005e2565b620002aa6200029e620005f7565b8751111560c9620005e2565b620002c086620005fc60201b620012cd1760201c565b620002cb8462000608565b6040516309b2760f60e01b81526000906001600160a01b038c16906309b2760f90620002fc908d9060040162000d14565b602060405180830381600087803b1580156200031757600080fd5b505af11580156200032c573d6000803e3d6000fd5b505050506040513d601f19601f8201168201806040525081019062000352919062000aa9565b604051633354e3e960e11b81529091506001600160a01b038c16906366a9c7d290620003879084908b908b9060040162000c78565b600060405180830381600087803b158015620003a257600080fd5b505af1158015620003b7573d6000803e3d6000fd5b50505050806101a081815250508a6001600160a01b031663d2946c2b6040518163ffffffff1660e01b815260040160206040518083038186803b158015620003fe57600080fd5b505afa15801562000413573d6000803e3d6000fd5b505050506040513d601f19601f8201168201806040525081019062000439919062000ac2565b6001600160a01b03166101c0816001600160a01b031660601b815250505050505050505050505050896001600160a01b03166101e0816001600160a01b031660601b81525050886001600160a01b0316610200816001600160a01b031660601b815250506000806000620004b58d8d306200069c60201b60201c565b6102608390526102808290526102a081905291945092509050620004d98d62000792565b61022052620004e88c62000792565b61024052505050600997909755600a95909555505050600b55600c5542600d55600e80546001600160a01b0319166001600160a01b039092169190911790555062000d54915050565b6040805160028082526060808301845292602083019080368337019050509050816001600160a01b0316836001600160a01b03161162000572578262000574565b815b816000815181106200058257fe5b6001600160a01b0392831660209182029290920101528281169084161115620005ac5782620005ae565b815b81600181518110620005bc57fe5b60200260200101906001600160a01b031690816001600160a01b03168152505092915050565b81620005f357620005f38162000866565b5050565b600290565b80620005f381620008b9565b620006216200061662000946565b82101560cb620005e2565b6200063a6200062f6200094f565b82111560ca620005e2565b6200065c8160c060406008546200095b60201b620012d717909392919060201c565b6008556040517fa9ba3ffe0b6c366b81232caab38605a0699ad5398d6cce76f91ee809e322dafc906200069190839062000d29565b60405180910390a150565b6000806000846001600160a01b0316866001600160a01b031610156200072557836001600160a01b0316856001600160a01b03161015620006e857506000915060019050600262000789565b836001600160a01b0316866001600160a01b031610156200071457506000915060029050600162000789565b506001915060029050600062000789565b846001600160a01b0316846001600160a01b031610156200075157506002915060019050600062000789565b856001600160a01b0316846001600160a01b031610156200077d57506002915060009050600162000789565b50600191506000905060025b93509350939050565b60006001600160a01b038216301415620007b65750670de0b6b3a764000062000861565b6000826001600160a01b031663313ce5676040518163ffffffff1660e01b815260040160206040518083038186803b158015620007f257600080fd5b505afa15801562000807573d6000803e3d6000fd5b505050506040513d601f19601f820116820180604052508101906200082d919062000c55565b60ff16905060006200084c6012836200098060201b620012fa1760201c565b905080600a0a670de0b6b3a764000002925050505b919050565b62461bcd60e51b6000908152602060045260076024526642414c23000030600a808404818106603090810160081b95839006959095019082900491820690940160101b939093010160c81b604452606490fd5b600281511015620008ca5762000943565b600081600081518110620008da57fe5b602002602001015190506000600190505b8251811015620009405760008382815181106200090457fe5b6020026020010151905062000935816001600160a01b0316846001600160a01b0316106065620005e260201b60201c565b9150600101620008eb565b50505b50565b64e8d4a5100090565b67016345785d8a000090565b60006200096a84848462000998565b506001901b60001901811b1992909216911b1790565b600062000992838311156001620005e2565b50900390565b620009a961010083106064620005e2565b620009e260018210158015620009da5750620009d660ff8461010003620009f360201b620013101760201c565b8211155b6064620005e2565b6200094083821c156101b4620005e2565b600081831062000a04578162000a06565b825b9392505050565b828054600181600116156101000203166002900490600052602060002090601f016020900481019282601f1062000a5057805160ff191683800117855562000a80565b8280016001018555821562000a80579182015b8281111562000a8057825182559160200191906001019062000a63565b5062000a8e92915062000a92565b5090565b5b8082111562000a8e576000815560010162000a93565b60006020828403121562000abb578081fd5b5051919050565b60006020828403121562000ad4578081fd5b815162000a068162000d3e565b60008060008060008060008060008060006101608c8e03121562000b03578687fd5b8b5162000b108162000d3e565b60208d0151909b5062000b238162000d3e565b60408d0151909a5062000b368162000d3e565b8099505060608c0151975060808c0151965060a08c0151955060c08c0151945060e08c015193506101008c015192506101208c015191506101408c015162000b7e8162000d3e565b809150509295989b509295989b9093969950565b6000602080838503121562000ba5578182fd5b82516001600160401b038082111562000bbc578384fd5b818501915085601f83011262000bd0578384fd5b81518181111562000bdf578485fd5b604051601f8201601f191681018501838111828210171562000bff578687fd5b604052818152838201850188101562000c16578586fd5b8592505b8183101562000c39578383018501518184018601529184019162000c1a565b8183111562000c4a57858583830101525b979650505050505050565b60006020828403121562000c67578081fd5b815160ff8116811462000a06578182fd5b60006060820185835260206060818501528186518084526080860191508288019350845b8181101562000cc45762000cb1855162000d32565b8352938301939183019160010162000c9c565b505084810360408601528551808252908201925081860190845b8181101562000d065762000cf3835162000d32565b8552938301939183019160010162000cde565b509298975050505050505050565b602081016003831062000d2357fe5b91905290565b90815260200190565b6001600160a01b031690565b6001600160a01b03811681146200094357600080fd5b60805160a05160c05160e051610100516101205160601c6101405160601c61016051610180516101a0516101c05160601c6101e05160601c6102005160601c610220516102405161026051610280516102a0516138fb62000ee8600039806113f65250806113b552806120de528061212052806124a552806128a452806128d752806129c7525080611374528061209852806124d9528061250c528061285e52806129fb5280612a2e52505050806108cb5280610a965280611162528061148f528061153a5280612013528061205452806125a652806125c75280612709528061272a52806127d9528061281a52508061078b5280610a485280610c005280611114528061143f52806114f152806121a752806121c852806121e952806122e0528061232b528061234c52806124205280612461528061258552806126be52806129425280612983525080610e275250806107de525080611638525080611614525080610d2d525080610d09525080610c93525080610e7e52508061173e52508061178052508061175f52506138fb6000f3fe608060405234801561001057600080fd5b506004361061023d5760003560e01c806370a082311161013b578063a457c2d7116100b8578063d2946c2b1161007c578063d2946c2b14610470578063d505accf14610478578063d5c096c41461048b578063dd62ed3e1461049e578063e9fad8ee146104b15761023d565b8063a457c2d714610432578063a9059cbb14610445578063aaabadc514610458578063b35056b814610460578063b7b814fc146104685761023d565b8063851c1bb3116100ff578063851c1bb3146103f457806387ec681714610407578063893d20e81461041a5780638d928af81461042257806395d89b411461042a5761023d565b806370a082311461039d57806374f3b009146103b05780637ecebe00146103d15780638129fc1c146103e45780638456cb59146103ec5761023d565b80633644e515116101c957806350dd6ed91161018d57806350dd6ed91461035157806354a844ba1461036457806355c676281461036c5780636028bfd4146103745780636945c1fd146103955761023d565b80633644e5151461031157806338e9922e1461031957806338fff2d01461032e57806339509351146103365780633f4ba83a146103495761023d565b80631c0de051116102105780631c0de051146102a85780631dd746ea146102bf57806323b872dd146102d45780632541897f146102e7578063313ce567146102fc5761023d565b806301ec954a1461024257806306fdde031461026b578063095ea7b31461028057806318160ddd146102a0575b600080fd5b6102556102503660046132bb565b6104b9565b604051610262919061366d565b60405180910390f35b610273610628565b60405161026291906137de565b61029361028e3660046130c8565b6106be565b604051610262919061364a565b6102556106d5565b6102b06106db565b60405161026293929190613655565b6102c7610704565b6040516102629190613612565b6102936102e2366004613018565b610713565b6102ef610789565b60405161026291906135c0565b6103046107ad565b6040516102629190613818565b6102556107b6565b61032c6103273660046133da565b6107c0565b005b6102556107dc565b6102936103443660046130c8565b610800565b61032c61083b565b61032c61035f3660046131fa565b61084f565b61032c61086d565b61025561087f565b610387610382366004613113565b610892565b6040516102629291906137f1565b6102ef6108c9565b6102556103ab366004612fc4565b6108ed565b6103c36103be366004613113565b610908565b604051610262929190613625565b6102556103df366004612fc4565b610a0b565b61032c610a26565b61032c610c7d565b6102556104023660046131b6565b610c8f565b610387610415366004613113565b610ce1565b6102ef610d07565b6102ef610d2b565b610273610d4f565b6102936104403660046130c8565b610db0565b6102936104533660046130c8565b610dee565b6102ef610dfb565b610293610e05565b61032c610e13565b6102ef610e25565b61032c610486366004613058565b610e49565b6103c3610499366004613113565b610f92565b6102556104ac366004612fe0565b6110b5565b61032c6110f2565b600084608001516104e66104cb610d2b565b6001600160a01b0316336001600160a01b03161460cd611326565b6104fb6104f16107dc565b82146101f4611326565b4261050a600d54600c54611334565b101561051557600080fd5b606061051f611344565b9050610529612e8c565b604051806060016040528061053c61087f565b81526009546020820152600a54604090910152905060008851600181111561056057fe5b14156105c257610587886060015183888151811061057a57fe5b602002602001015161142f565b6060890152600061059989898461143b565b90506105b8818488815181106105ab57fe5b60200260200101516114e1565b945050505061061f565b6001885160018111156105d157fe5b141561061c576105eb886060015183878151811061057a57fe5b606089015260006105fd8989846114ed565b90506105b88184898151811061060f57fe5b6020026020010151611581565b50505b50949350505050565b60038054604080516020601f60026000196101006001881615020190951694909404938401819004810282018101909252828152606093909290918301828280156106b45780601f10610689576101008083540402835291602001916106b4565b820191906000526020600020905b81548152906001019060200180831161069757829003601f168201915b5050505050905090565b60006106cb33848461158d565b5060015b92915050565b60025490565b60008060006106e86115f5565b1592506106f3611612565b91506106fd611636565b9050909192565b606061070e611344565b905090565b60008061072085336110b5565b9050610744336001600160a01b038716148061073c5750838210155b61019e611326565b61074f85858561165a565b336001600160a01b0386161480159061076a57506000198114155b1561077c5761077c853385840361158d565b60019150505b9392505050565b7f000000000000000000000000000000000000000000000000000000000000000090565b60055460ff1690565b600061070e61173a565b6107c86117d7565b6107d0611805565b6107d981611818565b50565b7f000000000000000000000000000000000000000000000000000000000000000090565b3360008181526001602090815260408083206001600160a01b038716845290915281205490916106cb9185906108369086611891565b61158d565b6108436117d7565b61084d60006118a3565b565b6108576117d7565b61085f611805565b6108698282611916565b5050565b6108756117d7565b61084d6001611a15565b60085460009061070e9060c06040611a58565b600060606108a886516108a3611a67565b611a6c565b6108bd89898989898989611a79611a95611afb565b97509795505050505050565b7f000000000000000000000000000000000000000000000000000000000000000090565b6001600160a01b031660009081526020819052604090205490565b606080886109176104cb610d2b565b6109226104f16107dc565b6060600061092f86611c1d565b156109575761093c611c4c565b61094e896109486106d5565b88611c63565b925090506109a9565b61095f611805565b6060610969611344565b90506109758a82611c8f565b6109998d8d8d8d8d610985610e05565b61098f578d610992565b60005b878e611a79565b935091506109a78382611a95565b505b6109b38b82611cf0565b81895167ffffffffffffffff811180156109cc57600080fd5b506040519080825280602002602001820160405280156109f6578160200160208202803683370190505b509450945050505b5097509795505050505050565b6001600160a01b031660009081526006602052604090205490565b60408051600280825260608083018452926020830190803683370190505090507f000000000000000000000000000000000000000000000000000000000000000081600081518110610a7457fe5b60200260200101906001600160a01b031690816001600160a01b0316815250507f000000000000000000000000000000000000000000000000000000000000000081600181518110610ac257fe5b6001600160a01b0392909216602092830291909101909101526040805160028082526060828101909352816020016020820280368337019050509050600b5481600081518110610b0e57fe5b602002602001018181525050610b2a600b546009546000611cfa565b81600181518110610b3757fe5b602002602001018181525050610b4b612ead565b50604080516080810182528381526020808201849052825190810183526000808252928201526060810182905290610b81610d2b565b9050806001600160a01b031663b95cac28610b9a6107dc565b600e546040516001600160e01b031960e085901b168152610bcc92916001600160a01b03169030908890600401613676565b600060405180830381600087803b158015610be657600080fd5b505af1158015610bfa573d6000803e3d6000fd5b505050507f00000000000000000000000000000000000000000000000000000000000000006001600160a01b03167f2ff44dbb0303f55765e029034ee75f22982a1e2a04f0050bdc5f2bd0e2e3a67760095485600181518110610c5957fe5b6020026020010151604051610c6f92919061380a565b60405180910390a250505050565b610c856117d7565b61084d60016118a3565b60007f000000000000000000000000000000000000000000000000000000000000000082604051602001610cc492919061357d565b604051602081830303815290604052805190602001209050919050565b60006060610cf286516108a3611a67565b6108bd89898989898989611a79611d22611afb565b7f000000000000000000000000000000000000000000000000000000000000000090565b7f000000000000000000000000000000000000000000000000000000000000000090565b60048054604080516020601f60026000196101006001881615020190951694909404938401819004810282018101909252828152606093909290918301828280156106b45780601f10610689576101008083540402835291602001916106b4565b600080610dbd33856110b5565b9050808310610dd757610dd23385600061158d565b610de4565b610de4338585840361158d565b5060019392505050565b60006106cb33848461165a565b600061070e611d83565b600754610100900460ff1690565b610e1b6117d7565b61084d6000611a15565b7f000000000000000000000000000000000000000000000000000000000000000090565b610e578442111560d1611326565b6001600160a01b0387166000908152600660209081526040808320549051909291610eae917f0000000000000000000000000000000000000000000000000000000000000000918c918c918c9188918d9101613730565b6040516020818303038152906040528051906020012090506000610ed182611dfd565b9050600060018288888860405160008152602001604052604051610ef894939291906137c0565b6020604051602081039080840390855afa158015610f1a573d6000803e3d6000fd5b5050604051601f1901519150610f5c90506001600160a01b03821615801590610f5457508b6001600160a01b0316826001600160a01b0316145b6101f8611326565b6001600160a01b038b166000908152600660205260409020600185019055610f858b8b8b61158d565b5050505050505050505050565b60608088610fa16104cb610d2b565b610fac6104f16107dc565b6060610fb6611344565b9050610fc0611805565b610fc86106d5565b6110755760006060610fdd8d8d8d868b611e19565b91509150610ff6610fec611e87565b83101560cc611326565b6110086000611003611e87565b611e8e565b61101b8b611014611e87565b8403611e8e565b6110258184611d22565b808a5167ffffffffffffffff8111801561103e57600080fd5b50604051908082528060200260200182016040528015611068578160200160208202803683370190505b50955095505050506109fe565b61107f8882611c8f565b600060606110a78d8d8d8d8d611093610e05565b61109d578d6110a0565b60005b898e611a79565b9150915061101b8b83611e8e565b60006110bf610d2b565b6001600160a01b0316826001600160a01b031614156110e157506000196106cf565b6110eb8383611e98565b90506106cf565b60408051600280825260608083018452926020830190803683370190505090507f00000000000000000000000000000000000000000000000000000000000000008160008151811061114057fe5b60200260200101906001600160a01b031690816001600160a01b0316815250507f00000000000000000000000000000000000000000000000000000000000000008160018151811061118e57fe5b6001600160a01b03929092166020928302919091019091015260408051600280825260608281019093528160200160208202803683370190505090506000816000815181106111d957fe5b6020026020010181815250506111f5600b54600a546000611cfa565b8160018151811061120257fe5b602002602001018181525050611216612ead565b5060408051608081018252838152602080820184905282519081018352600080825292820152606081019190915261124c610d2b565b6001600160a01b0316638bdb39136112626107dc565b600e546040516001600160e01b031960e085901b168152611296929130916001600160a01b03909116908790600401613676565b600060405180830381600087803b1580156112b057600080fd5b505af11580156112c4573d6000803e3d6000fd5b50505050505050565b8061086981611ec3565b60006112e4848484611f3c565b506001901b60001901811b1992909216911b1790565b600061130a838311156001611326565b50900390565b600081831061131f5781610782565b5090919050565b816108695761086981611f83565b818101828110156106cf57600080fd5b604080516002808252606080830184529283929190602083019080368337019050509050670de0b6b3a7640000817f00000000000000000000000000000000000000000000000000000000000000008151811061139d57fe5b602002602001018181525050670de0b6b3a7640000817f0000000000000000000000000000000000000000000000000000000000000000815181106113de57fe5b602002602001018181525050670de0b6b3a7640000817f00000000000000000000000000000000000000000000000000000000000000008151811061141f57fe5b6020908102919091010152905090565b60006107828383611fd6565b60007f00000000000000000000000000000000000000000000000000000000000000006001600160a01b031684602001516001600160a01b0316141561148d5761148684848461200c565b9050610782565b7f00000000000000000000000000000000000000000000000000000000000000006001600160a01b031684602001516001600160a01b031614156114d657611486848484612419565b610782610135611f83565b60006107828383612781565b60007f00000000000000000000000000000000000000000000000000000000000000006001600160a01b031684604001516001600160a01b03161415611538576114868484846127d2565b7f00000000000000000000000000000000000000000000000000000000000000006001600160a01b031684604001516001600160a01b031614156114d65761148684848461293b565b60006107828383612a84565b6001600160a01b0380841660008181526001602090815260408083209487168084529490915290819020849055517f8c5be1e5ebec7d5bd14f71427d1e84f3dd0314c0f7b2291e5b200ac8c7c3b925906115e890859061366d565b60405180910390a3505050565b60006115ff611636565b42118061070e57505060075460ff161590565b7f000000000000000000000000000000000000000000000000000000000000000090565b7f000000000000000000000000000000000000000000000000000000000000000090565b6116716001600160a01b0384161515610198611326565b6116886001600160a01b0383161515610199611326565b611693838383611af6565b6001600160a01b0383166000908152602081905260409020546116b990826101a0612ad2565b6001600160a01b0380851660009081526020819052604080822093909355908416815220546116e89082611891565b6001600160a01b0380841660008181526020819052604090819020939093559151908516907fddf252ad1be2c89b69c2b068fc378daa952ba7f163c4a11628f55a4df523b3ef906115e890859061366d565b60007f00000000000000000000000000000000000000000000000000000000000000007f00000000000000000000000000000000000000000000000000000000000000007f00000000000000000000000000000000000000000000000000000000000000006117a7612ae8565b306040516020016117bc959493929190613764565b60405160208183030381529060405280519060200120905090565b60006117ee6000356001600160e01b031916610c8f565b90506107d96117fd8233612aec565b610191611326565b61084d6118106115f5565b610192611326565b61182d611823612bd5565b82101560cb611326565b611842611838612bde565b82111560ca611326565b600854611853908260c060406112d7565b6008556040517fa9ba3ffe0b6c366b81232caab38605a0699ad5398d6cce76f91ee809e322dafc9061188690839061366d565b60405180910390a150565b60008282016107828482101583611326565b80156118c3576118be6118b4611612565b4210610193611326565b6118d8565b6118d86118ce611636565b42106101a9611326565b6007805460ff19168215151790556040517f9e3a5e37224532dea67b89face185703738a228a6e8a23dee546960180d3be649061188690839061364a565b60006119206107dc565b9050600061192c610d2b565b6001600160a01b031663b05f8e4883866040518363ffffffff1660e01b81526004016119599291906137a9565b60806040518083038186803b15801561197157600080fd5b505afa158015611985573d6000803e3d6000fd5b505050506040513d601f19601f820116820180604052508101906119a991906133f2565b604051630639cdb560e21b81529094506001600160a01b03851693506318e736d492506119dd915085908790600401613790565b600060405180830381600087803b1580156119f757600080fd5b505af1158015611a0b573d6000803e3d6000fd5b5050505050505050565b6007805461ff001916610100831515021790556040517feff3d4d215b42bf0960be9c6d5e05c22cba4df6627a3a523e2acee733b5854c89061188690839061364a565b6001901b6000190191901c1690565b600290565b6108698183146067611326565b60006060611a88610136611f83565b9850989650505050505050565b60005b611aa0611a67565b811015611af657611ad7838281518110611ab657fe5b6020026020010151838381518110611aca57fe5b6020026020010151612781565b838281518110611ae357fe5b6020908102919091010152600101611a98565b505050565b333014611bb9576000306001600160a01b0316600036604051611b1f929190613595565b6000604051808303816000865af19150503d8060008114611b5c576040519150601f19603f3d011682016040523d82523d6000602084013e611b61565b606091505b505090508060008114611b7057fe5b60046000803e6000516001600160e01b0319166343adbafb60e01b8114611b9b573d6000803e3d6000fd5b506020600460003e604060205260243d03602460403e601c3d016000f35b6060611bc3611344565b9050611bcf8782611c8f565b60006060611be78c8c8c8c8c8c898d8d63ffffffff16565b91509150611bf981848663ffffffff16565b8051601f1982018390526343adbafb603f1983015260200260231982016044820181fd5b60008082511180156106cf575060ff801682806020019051810190611c429190613432565b60ff161492915050565b60075461084d90610100900460ff166101b6611326565b600060606000611c7284612bea565b90506060611c81878784612c00565b919791965090945050505050565b60005b611c9a611a67565b811015611af657611cd1838281518110611cb057fe5b6020026020010151838381518110611cc457fe5b6020026020010151611fd6565b838281518110611cdd57fe5b6020908102919091010152600101611c92565b6108698282612caf565b600081611d1057611d0b8484612d6b565b611d1a565b611d1a8484612d8b565b949350505050565b60005b611d2d611a67565b811015611af657611d64838281518110611d4357fe5b6020026020010151838381518110611d5757fe5b6020026020010151612a84565b838281518110611d7057fe5b6020908102919091010152600101611d25565b6000611d8d610d2b565b6001600160a01b031663aaabadc56040518163ffffffff1660e01b815260040160206040518083038186803b158015611dc557600080fd5b505afa158015611dd9573d6000803e3d6000fd5b505050506040513d601f19601f8201168201806040525081019061070e91906131de565b6000611e0761173a565b82604051602001610cc49291906135a5565b60006060611e25611805565b600e54611e42906001600160a01b038881169116146101aa611326565b611e596001600160a01b03861630146101aa611326565b6040805160028082526060808301845292602083019080368337019050506000999098509650505050505050565b620f424090565b6108698282612dbe565b6001600160a01b03918216600090815260016020908152604080832093909416825291909152205490565b600281511015611ed2576107d9565b600081600081518110611ee157fe5b602002602001015190506000600190505b8251811015611af6576000838281518110611f0957fe5b60200260200101519050611f32816001600160a01b0316846001600160a01b0316106065611326565b9150600101611ef2565b611f4b61010083106064611326565b611f7460018210158015611f6d5750611f6960ff8461010003611310565b8211155b6064611326565b611af683821c156101b4611326565b62461bcd60e51b6000908152602060045260076024526642414c23000030600a808404818106603090810160081b95839006959095019082900491820690940160101b939093010160c81b604452606490fd5b6000828202611ffa841580611ff3575083858381611ff057fe5b04145b6003611326565b670de0b6b3a764000090049392505050565b60006120527f00000000000000000000000000000000000000000000000000000000000000006001600160a01b031685604001516001600160a01b031614610135611326565b7f00000000000000000000000000000000000000000000000000000000000000006001600160a01b031684604001516001600160a01b031614156107825760006120d3847f0000000000000000000000000000000000000000000000000000000000000000815181106120c157fe5b60200260200101518660600151611891565b9050600061211682867f00000000000000000000000000000000000000000000000000000000000000008151811061210757fe5b60200260200101516000611cfa565b90506000612157867f00000000000000000000000000000000000000000000000000000000000000008151811061214957fe5b6020026020010151836112fa565b9050846020015161216a84836000611cfa565b101580156121875750846040015161218484836000611cfa565b11155b1561240d57600e546001600160a01b0316632b56390b6121a56107dc565b7f00000000000000000000000000000000000000000000000000000000000000007f00000000000000000000000000000000000000000000000000000000000000007f00000000000000000000000000000000000000000000000000000000000000006001600160a01b03166306fdde036040518163ffffffff1660e01b815260040160006040518083038186803b15801561224057600080fd5b505afa158015612254573d6000803e3d6000fd5b505050506040513d6000823e601f3d908101601f1916820160405261227c9190810190613248565b8c606001518d60c001518960006040518963ffffffff1660e01b81526004016122ac9897969594939291906136d1565b600060405180830381600087803b1580156122c657600080fd5b505af11580156122da573d6000803e3d6000fd5b505050507f00000000000000000000000000000000000000000000000000000000000000006001600160a01b03167fcf6f98f0568a50d4e3d60b183f01e307f5011e8140f842a5a855df40d80918bb7f00000000000000000000000000000000000000000000000000000000000000007f00000000000000000000000000000000000000000000000000000000000000006001600160a01b03166306fdde036040518163ffffffff1660e01b815260040160006040518083038186803b1580156123a357600080fd5b505afa1580156123b7573d6000803e3d6000fd5b505050506040513d6000823e601f3d908101601f191682016040526123df9190810190613248565b8a606001518b60c00151876040516123fb9594939291906135d4565b60405180910390a25091506107829050565b60009350505050610782565b600061245f7f00000000000000000000000000000000000000000000000000000000000000006001600160a01b031685604001516001600160a01b031614610135611326565b7f00000000000000000000000000000000000000000000000000000000000000006001600160a01b031684604001516001600160a01b031614156107825760006124ce847f0000000000000000000000000000000000000000000000000000000000000000815181106120c157fe5b9050600061250282867f00000000000000000000000000000000000000000000000000000000000000008151811061210757fe5b90506000612535867f00000000000000000000000000000000000000000000000000000000000000008151811061214957fe5b9050846020015161254882856000611cfa565b101580156125655750846040015161256282856000611cfa565b11155b1561240d57600e546001600160a01b0316632b56390b6125836107dc565b7f00000000000000000000000000000000000000000000000000000000000000007f00000000000000000000000000000000000000000000000000000000000000007f00000000000000000000000000000000000000000000000000000000000000006001600160a01b03166306fdde036040518163ffffffff1660e01b815260040160006040518083038186803b15801561261e57600080fd5b505afa158015612632573d6000803e3d6000fd5b505050506040513d6000823e601f3d908101601f1916820160405261265a9190810190613248565b8c606001518d60c001518960016040518963ffffffff1660e01b815260040161268a9897969594939291906136d1565b600060405180830381600087803b1580156126a457600080fd5b505af11580156126b8573d6000803e3d6000fd5b505050507f00000000000000000000000000000000000000000000000000000000000000006001600160a01b03167fcf6f98f0568a50d4e3d60b183f01e307f5011e8140f842a5a855df40d80918bb7f00000000000000000000000000000000000000000000000000000000000000007f00000000000000000000000000000000000000000000000000000000000000006001600160a01b03166306fdde036040518163ffffffff1660e01b815260040160006040518083038186803b1580156123a357600080fd5b60006127908215156004611326565b8261279d575060006106cf565b670de0b6b3a7640000838102906127c0908583816127b757fe5b04146005611326565b8281816127c957fe5b049150506106cf565b60006128187f00000000000000000000000000000000000000000000000000000000000000006001600160a01b031685602001516001600160a01b031614610135611326565b7f00000000000000000000000000000000000000000000000000000000000000006001600160a01b031684602001516001600160a01b03161415610782576000612899847f00000000000000000000000000000000000000000000000000000000000000008151811061288757fe5b602002602001015186606001516112fa565b905060006128cd82867f00000000000000000000000000000000000000000000000000000000000000008151811061210757fe5b9050600061290e867f00000000000000000000000000000000000000000000000000000000000000008151811061290057fe5b602002602001015183611891565b9050846020015161292184836000611cfa565b101580156125655750846040015161256284836000611cfa565b60006129817f00000000000000000000000000000000000000000000000000000000000000006001600160a01b031685602001516001600160a01b031614610135611326565b7f00000000000000000000000000000000000000000000000000000000000000006001600160a01b031684602001516001600160a01b031614156107825760006129f0847f00000000000000000000000000000000000000000000000000000000000000008151811061288757fe5b90506000612a2482867f00000000000000000000000000000000000000000000000000000000000000008151811061210757fe5b90506000612a57867f00000000000000000000000000000000000000000000000000000000000000008151811061290057fe5b90508460200151612a6a82856000611cfa565b101580156121875750846040015161218482856000611cfa565b6000612a938215156004611326565b82612aa0575060006106cf565b670de0b6b3a764000083810290612aba908583816127b757fe5b826001820381612ac657fe5b046001019150506106cf565b6000612ae18484111583611326565b5050900390565b4690565b600073ba1ba1ba1ba1ba1ba1ba1ba1ba1ba1ba1ba1ba1b612b0b610d07565b6001600160a01b031614158015612b265750612b2683612e4c565b15612b4e57612b33610d07565b6001600160a01b0316336001600160a01b03161490506106cf565b612b56611d83565b6001600160a01b0316639be2a8848484306040518463ffffffff1660e01b8152600401612b85939291906136b2565b60206040518083038186803b158015612b9d57600080fd5b505afa158015612bb1573d6000803e3d6000fd5b505050506040513d601f19601f820116820180604052508101906110eb91906130f3565b64e8d4a5100090565b67016345785d8a000090565b600081806020019051810190610782919061344e565b60606000612c0e8385612781565b9050845167ffffffffffffffff81118015612c2857600080fd5b50604051908082528060200260200182016040528015612c52578160200160208202803683370190505b50915060005b8551811015612ca657612c8782878381518110612c7157fe5b6020026020010151611fd690919063ffffffff16565b838281518110612c9357fe5b6020908102919091010152600101612c58565b50509392505050565b612cc66001600160a01b038316151561019b611326565b612cd282600083611af6565b6001600160a01b038216600090815260208190526040902054612cf890826101b2612ad2565b6001600160a01b038316600090815260208190526040902055600254612d1e9082612e7e565b6002556040516000906001600160a01b038416907fddf252ad1be2c89b69c2b068fc378daa952ba7f163c4a11628f55a4df523b3ef90612d5f90859061366d565b60405180910390a35050565b6000612d7a8215156004611326565b818381612d8357fe5b049392505050565b6000612d9a8215156004611326565b82612da7575060006106cf565b816001840381612db357fe5b0460010190506106cf565b612dca60008383611af6565b600254612dd79082611891565b6002556001600160a01b038216600090815260208190526040902054612dfd9082611891565b6001600160a01b0383166000818152602081905260408082209390935591519091907fddf252ad1be2c89b69c2b068fc378daa952ba7f163c4a11628f55a4df523b3ef90612d5f90859061366d565b6000612e5e631c74c91760e11b610c8f565b8214806106cf5750612e766350dd6ed960e01b610c8f565b909114919050565b600061078283836001612ad2565b60405180606001604052806000815260200160008152602001600081525090565b60405180608001604052806060815260200160608152602001606081526020016000151581525090565b80356106cf816138a1565b600082601f830112612ef2578081fd5b813567ffffffffffffffff811115612f08578182fd5b6020808202612f18828201613826565b83815293508184018583018287018401881015612f3457600080fd5b600092505b84831015612f57578035825260019290920191908301908301612f39565b505050505092915050565b600082601f830112612f72578081fd5b8135612f85612f808261384d565b613826565b9150808252836020828501011115612f9c57600080fd5b8060208401602084013760009082016020015292915050565b8035600281106106cf57600080fd5b600060208284031215612fd5578081fd5b8135610782816138a1565b60008060408385031215612ff2578081fd5b8235612ffd816138a1565b9150602083013561300d816138a1565b809150509250929050565b60008060006060848603121561302c578081fd5b8335613037816138a1565b92506020840135613047816138a1565b929592945050506040919091013590565b600080600080600080600060e0888a031215613072578283fd5b873561307d816138a1565b9650602088013561308d816138a1565b9550604088013594506060880135935060808801356130ab816138b6565b9699959850939692959460a0840135945060c09093013592915050565b600080604083850312156130da578182fd5b82356130e5816138a1565b946020939093013593505050565b600060208284031215613104578081fd5b81518015158114610782578182fd5b600080600080600080600060e0888a03121561312d578081fd5b87359650602088013561313f816138a1565b9550604088013561314f816138a1565b9450606088013567ffffffffffffffff8082111561316b578283fd5b6131778b838c01612ee2565b955060808a0135945060a08a0135935060c08a013591508082111561319a578283fd5b506131a78a828b01612f62565b91505092959891949750929550565b6000602082840312156131c7578081fd5b81356001600160e01b031981168114610782578182fd5b6000602082840312156131ef578081fd5b8151610782816138a1565b6000806040838503121561320c578182fd5b8235613217816138a1565b9150602083013567ffffffffffffffff811115613232578182fd5b61323e85828601612f62565b9150509250929050565b600060208284031215613259578081fd5b815167ffffffffffffffff81111561326f578182fd5b8201601f8101841361327f578182fd5b805161328d612f808261384d565b8181528560208385010111156132a1578384fd5b6132b2826020830160208601613871565b95945050505050565b600080600080608085870312156132d0578182fd5b843567ffffffffffffffff808211156132e7578384fd5b818701915061012080838a0312156132fd578485fd5b61330681613826565b90506133128984612fb5565b81526133218960208501612ed7565b60208201526133338960408501612ed7565b6040820152606083013560608201526080830135608082015260a083013560a08201526133638960c08501612ed7565b60c08201526133758960e08501612ed7565b60e0820152610100808401358381111561338d578687fd5b6133998b828701612f62565b8284015250508096505060208701359150808211156133b6578384fd5b506133c387828801612ee2565b949794965050505060408301359260600135919050565b6000602082840312156133eb578081fd5b5035919050565b60008060008060808587031215613407578182fd5b8451935060208501519250604085015191506060850151613427816138a1565b939692955090935050565b600060208284031215613443578081fd5b8151610782816138b6565b60008060408385031215613460578182fd5b825161346b816138b6565b6020939093015192949293505050565b6000815180845260208085019450808401835b838110156134aa5781518752958201959082019060010161348e565b509495945050505050565b15159052565b600081518084526134d3816020860160208601613871565b601f01601f19169290920160200192915050565b8051608080845281519084018190526000916020919082019060a0860190845b8181101561352c5783516001600160a01b031683529284019291840191600101613507565b505082850151915085810383870152613545818361347b565b925050506040830151848203604086015261356082826134bb565b915050606083015161357560608601826134b5565b509392505050565b9182526001600160e01b031916602082015260240190565b6000828483379101908152919050565b61190160f01b81526002810192909252602282015260420190565b6001600160a01b0391909116815260200190565b600060018060a01b03808816835260a060208401526135f660a08401886134bb565b6040840196909652939093166060820152608001525092915050565b600060208252610782602083018461347b565b600060408252613638604083018561347b565b82810360208401526132b2818561347b565b901515815260200190565b92151583526020830191909152604082015260600190565b90815260200190565b8481526001600160a01b038481166020830152831660408201526080606082018190526000906136a8908301846134e7565b9695505050505050565b9283526001600160a01b03918216602084015216604082015260600190565b8881526001600160a01b0388811660208301528781166040830152610100606083018190526000916137058483018a6134bb565b60808501989098529590951660a08301525060c0810192909252151560e09091015250949350505050565b9586526001600160a01b0394851660208701529290931660408501526060840152608083019190915260a082015260c00190565b9485526020850193909352604084019190915260608301526001600160a01b0316608082015260a00190565b600083825260406020830152611d1a60408301846134bb565b9182526001600160a01b0316602082015260400190565b93845260ff9290921660208401526040830152606082015260800190565b60006020825261078260208301846134bb565b600083825260406020830152611d1a604083018461347b565b918252602082015260400190565b60ff91909116815260200190565b60405181810167ffffffffffffffff8111828210171561384557600080fd5b604052919050565b600067ffffffffffffffff821115613863578081fd5b50601f01601f191660200190565b60005b8381101561388c578181015183820152602001613874565b8381111561389b576000848401525b50505050565b6001600160a01b03811681146107d957600080fd5b60ff811681146107d957600080fdfea2646970667358221220d0bdf01ad7ddd45b0cca88ba98c0873597f75ebeee92e46537e421a18b7cfa3e64736f6c63430007010033",
  "linkReferences": {},
  "deployedLinkReferences": {}
}