{
  "_format": "hh-sol-artifact-1",
  "contractName": "PrimaryIssuePoolFactory",
  "sourceName": "contracts/PrimaryIssuePoolFactory.sol",
  "abi": [
    {
      "inputs": [
        {
          "internalType": "contract IVault",
          "name": "vault",
          "type": "address"
        },
        {
          "internalType": "contract IProtocolFeePercentagesProvider",
          "name": "protocolFeeProvider",
          "type": "address"
        }
      ],
      "stateMutability": "nonpayable",
      "type": "constructor"
    },
    {
      "anonymous": false,
      "inputs": [],
      "name": "FactoryDisabled",
      "type": "event"
    },
    {
      "anonymous": false,
      "inputs": [
        {
          "indexed": true,
          "internalType": "address",
          "name": "pool",
          "type": "address"
        }
      ],
      "name": "PoolCreated",
      "type": "event"
    },
    {
      "inputs": [
        {
          "components": [
            {
              "internalType": "string",
              "name": "name",
              "type": "string"
            },
            {
              "internalType": "string",
              "name": "symbol",
              "type": "string"
            },
            {
              "internalType": "address",
              "name": "security",
              "type": "address"
            },
            {
              "internalType": "address",
              "name": "currency",
              "type": "address"
            },
            {
              "internalType": "uint256",
              "name": "minimumPrice",
              "type": "uint256"
            },
            {
              "internalType": "uint256",
              "name": "basePrice",
              "type": "uint256"
            },
            {
              "internalType": "uint256",
              "name": "maxAmountsIn",
              "type": "uint256"
            },
            {
              "internalType": "uint256",
              "name": "swapFeePercentage",
              "type": "uint256"
            },
            {
              "internalType": "uint256",
              "name": "cutOffTime",
              "type": "uint256"
            },
            {
              "internalType": "string",
              "name": "offeringDocs",
              "type": "string"
            }
          ],
          "internalType": "struct IPrimaryIssuePoolFactory.FactoryPoolParams",
          "name": "factoryPoolParams",
          "type": "tuple"
        }
      ],
      "name": "create",
      "outputs": [
        {
          "internalType": "address",
          "name": "",
          "type": "address"
        }
      ],
      "stateMutability": "nonpayable",
      "type": "function"
    },
    {
      "inputs": [],
      "name": "disable",
      "outputs": [],
      "stateMutability": "nonpayable",
      "type": "function"
    },
    {
      "inputs": [
        {
          "internalType": "bytes4",
          "name": "selector",
          "type": "bytes4"
        }
      ],
      "name": "getActionId",
      "outputs": [
        {
          "internalType": "bytes32",
          "name": "",
          "type": "bytes32"
        }
      ],
      "stateMutability": "view",
      "type": "function"
    },
    {
      "inputs": [],
      "name": "getAuthorizer",
      "outputs": [
        {
          "internalType": "contract IAuthorizer",
          "name": "",
          "type": "address"
        }
      ],
      "stateMutability": "view",
      "type": "function"
    },
    {
      "inputs": [],
      "name": "getCreationCode",
      "outputs": [
        {
          "internalType": "bytes",
          "name": "",
          "type": "bytes"
        }
      ],
      "stateMutability": "view",
      "type": "function"
    },
    {
      "inputs": [],
      "name": "getCreationCodeContracts",
      "outputs": [
        {
          "internalType": "address",
          "name": "contractA",
          "type": "address"
        },
        {
          "internalType": "address",
          "name": "contractB",
          "type": "address"
        }
      ],
      "stateMutability": "view",
      "type": "function"
    },
    {
      "inputs": [],
      "name": "getPauseConfiguration",
      "outputs": [
        {
          "internalType": "uint256",
          "name": "pauseWindowDuration",
          "type": "uint256"
        },
        {
          "internalType": "uint256",
          "name": "bufferPeriodDuration",
          "type": "uint256"
        }
      ],
      "stateMutability": "view",
      "type": "function"
    },
    {
      "inputs": [],
      "name": "getProtocolFeePercentagesProvider",
      "outputs": [
        {
          "internalType": "contract IProtocolFeePercentagesProvider",
          "name": "",
          "type": "address"
        }
      ],
      "stateMutability": "view",
      "type": "function"
    },
    {
      "inputs": [],
      "name": "getVault",
      "outputs": [
        {
          "internalType": "contract IVault",
          "name": "",
          "type": "address"
        }
      ],
      "stateMutability": "view",
      "type": "function"
    },
    {
      "inputs": [],
      "name": "isDisabled",
      "outputs": [
        {
          "internalType": "bool",
          "name": "",
          "type": "bool"
        }
      ],
      "stateMutability": "view",
      "type": "function"
    },
    {
      "inputs": [
        {
          "internalType": "address",
          "name": "pool",
          "type": "address"
        }
      ],
      "name": "isPoolFromFactory",
      "outputs": [
        {
          "internalType": "bool",
          "name": "",
          "type": "bool"
        }
      ],
      "stateMutability": "view",
      "type": "function"
    }
  ],
  "bytecode": "0x6101806040523480156200001257600080fd5b506040516200557c3803806200557c8339810160408190526200003591620001fc565b8181604051806020016200004990620001ee565b601f1982820381018352601f90910116604052805183903090839060006002820460a081905280830360e08190528185529091508362000095816200010f602090811b6200042217901c565b60601b6001600160601b0319166080528285018051838252620000c4826200010f602090811b6200042217901c565b6001600160601b0319606091821b811660c05296909352905261010095909552505092821b831661012052509290921b90911661014052505050426276a70001610160525062000250565b80517f602038038060206000396000f3fefefefefefefefefefefefefefefefefefefe808352600091602081018484f090845291506200015d6001600160a01b03831615156101ac62000163565b50919050565b816200017457620001748162000178565b5050565b6200018a816210905360ea1b6200018d565b50565b62461bcd60e51b600090815260206004526007602452600a808404818106603090810160081b958390069590950190829004918206850160101b01602363ffffff0060e086901c160160181b0190930160c81b60445260e882901c90606490fd5b6146e38062000e9983390190565b600080604083850312156200020f578182fd5b82516200021c816200023a565b60208401519092506200022f816200023a565b809150509250929050565b6001600160a01b03811681146200018a57600080fd5b60805160601c60a05160c05160601c60e051610100516101205160601c6101405160601c61016051610bd0620002c96000398061023c528061026552508061031052508061038652508061033652508061047c5250806101c352806104f852508061049d5250806101a252806104d45250610bd06000f3fe608060405234801561001057600080fd5b50600436106100a85760003560e01c80636634b753116100715780636634b753146101215780636c57f5a914610141578063739238d614610149578063851c1bb3146101515780638d928af814610171578063aaabadc514610179576100a8565b8062c194db146100ad578063174481fa146100cb5780632236c4cc146100e15780632da47c40146101015780632f2770db14610117575b600080fd5b6100b5610181565b6040516100c29190610a4a565b60405180910390f35b6100d36101a0565b6040516100c29291906109fd565b6100f46100ef366004610868565b6101e6565b6040516100c291906109e9565b610109610236565b6040516100c2929190610b50565b61011f6102a0565b005b61013461012f3660046107e8565b6102e7565b6040516100c29190610a17565b610134610305565b6100f461030e565b61016461015f366004610824565b610332565b6040516100c29190610a22565b6100f4610384565b6100f46103a8565b606061019b60405180602001604052806000815250610474565b905090565b7f00000000000000000000000000000000000000000000000000000000000000007f00000000000000000000000000000000000000000000000000000000000000009091565b60008060006101f3610236565b9150915061022e610202610384565b8584843360405160200161021a959493929190610a5d565b60405160208183030381529060405261054d565b949350505050565b600080427f000000000000000000000000000000000000000000000000000000000000000081101561029257807f000000000000000000000000000000000000000000000000000000000000000003925062278d00915061029b565b60009250600091505b509091565b6102a86105b6565b6102b06105e7565b6001805460ff1916811790556040517f432acbfd662dbb5d8b378384a67159b47ca9d0f1b79f97cf64cf8585fa362d5090600090a1565b6001600160a01b031660009081526020819052604090205460ff1690565b60015460ff1690565b7f000000000000000000000000000000000000000000000000000000000000000090565b60007f0000000000000000000000000000000000000000000000000000000000000000826040516020016103679291906109d1565b604051602081830303815290604052805190602001209050919050565b7f000000000000000000000000000000000000000000000000000000000000000090565b60006103b2610384565b6001600160a01b031663aaabadc56040518163ffffffff1660e01b815260040160206040518083038186803b1580156103ea57600080fd5b505afa1580156103fe573d6000803e3d6000fd5b505050506040513d601f19601f8201168201806040525081019061019b919061084c565b80517f602038038060206000396000f3fefefefefefefefefefefefefefefefefefefe808352600091602081018484f0908452915061046e6001600160a01b03831615156101ac6105fc565b50919050565b8051604080517f00000000000000000000000000000000000000000000000000000000000000007f0000000000000000000000000000000000000000000000000000000000000000818101858101848101602090810190965280855293957f00000000000000000000000000000000000000000000000000000000000000009592947f000000000000000000000000000000000000000000000000000000000000000094938801866000828a3c846000888301883c506020898101908985010161053f81838661060e565b505050505050505050919050565b60006105576105e7565b60006105628361064c565b6001600160a01b038116600081815260208190526040808220805460ff191660011790555192935090917f83a48fbcfc991335314e74d0496aab6a1987e992ddc85dddbcc4d6dd6ef2e9fc9190a292915050565b60006105cd6000356001600160e01b031916610332565b90506105e46105dc8233610687565b6101916105fc565b50565b6105fa6105f2610305565b1560d36105fc565b565b8161060a5761060a81610719565b5050565b5b6020811061062e578151835260209283019290910190601f190161060f565b905182516020929092036101000a6000190180199091169116179052565b6000606061065983610474565b905060008151602083016000f090506001600160a01b038116610680573d6000803e3d6000fd5b9392505050565b60006106916103a8565b6001600160a01b0316639be2a8848484306040518463ffffffff1660e01b81526004016106c093929190610a2b565b60206040518083038186803b1580156106d857600080fd5b505afa1580156106ec573d6000803e3d6000fd5b505050506040513d601f19601f820116820180604052508101906107109190610804565b90505b92915050565b62461bcd60e51b600090815260206004526007602452600a808304818106603090810160081b83860601918390049283060160101b016642414c230000300160c81b6044526105e4916210905360ea1b906242414c90606490fd5b803561071381610b85565b600082601f83011261078f578081fd5b813567ffffffffffffffff8111156107a5578182fd5b6107b8601f8201601f1916602001610b5e565b91508082528360208285010111156107cf57600080fd5b8060208401602084013760009082016020015292915050565b6000602082840312156107f9578081fd5b813561068081610b85565b600060208284031215610815578081fd5b81518015158114610680578182fd5b600060208284031215610835578081fd5b81356001600160e01b031981168114610680578182fd5b60006020828403121561085d578081fd5b815161068081610b85565b600060208284031215610879578081fd5b813567ffffffffffffffff80821115610890578283fd5b81840191506101408083870312156108a6578384fd5b6108af81610b5e565b90508235828111156108bf578485fd5b6108cb8782860161077f565b8252506020830135828111156108df578485fd5b6108eb8782860161077f565b6020830152506108fe8660408501610774565b60408201526109108660608501610774565b60608201526080830135608082015260a083013560a082015260c083013560c082015260e083013560e0820152610100808401358183015250610120808401358381111561095c578586fd5b6109688882870161077f565b918301919091525095945050505050565b6001600160a01b03169052565b60008151808452815b818110156109ab5760208185018101518683018201520161098f565b818111156109bc5782602083870101525b50601f01601f19169290920160200192915050565b9182526001600160e01b031916602082015260240190565b6001600160a01b0391909116815260200190565b6001600160a01b0392831681529116602082015260400190565b901515815260200190565b90815260200190565b9283526001600160a01b03918216602084015216604082015260600190565b6000602082526107106020830184610986565b600060018060a01b038716825260a0602083015285516101408060a0850152610a8a6101e0850183610986565b91506020880151609f19808685030160c0870152610aa88483610986565b935060408a01519150610abe60e0870183610979565b60608a01519150610100610ad481880184610979565b60808b01516101208881019190915260a08c01519488019490945260c08b015161016088015260e08b01516101808801528a01516101a0870152918901518584039092016101c086015250610b298282610986565b92505050846040830152836060830152610b466080830184610979565b9695505050505050565b918252602082015260400190565b60405181810167ffffffffffffffff81118282101715610b7d57600080fd5b604052919050565b6001600160a01b03811681146105e457600080fdfea2646970667358221220f173678de17ce7c65225f6470bbeaf4684cc6e615bd59142bef5802ff74b010a64736f6c634300070100336103806040523480156200001257600080fd5b50604051620046e3380380620046e3833981016040819052620000359162000b5f565b846000856000015186602001516200005d8860400151896060015130620004ef60201b60201c565b604080516003808252608082019092529060208201606080368337019050508960e00151898989828289898d85336001600160a01b031660001b8480604051806040016040528060018152602001603160f81b81525087878160039080519060200190620000cd92919062000a10565b508051620000e390600490602084019062000a10565b50506005805460ff19166012179055508151602092830120608052805191012060a052507f8b73c3c69bb8fe3d512ecc4cf759cc79239f7b179b0ffacaa9a75d522b39400f60c05260e0526001600160601b0319606091821b81166101005291901b1661012052506200016190506276a700831115610194620005be565b6200017562278d00821115610195620005be565b429091016101408190520161016052855162000197906002111560c8620005be565b620001b1620001a5620005d3565b8751111560c9620005be565b620001c786620005d860201b620010911760201c565b620001d284620005e4565b6040516309b2760f60e01b81526000906001600160a01b038c16906309b2760f9062000203908d9060040162000d7d565b602060405180830381600087803b1580156200021e57600080fd5b505af115801562000233573d6000803e3d6000fd5b505050506040513d601f19601f8201168201806040525081019062000259919062000b27565b604051633354e3e960e11b81529091506001600160a01b038c16906366a9c7d2906200028e9084908b908b9060040162000ce1565b600060405180830381600087803b158015620002a957600080fd5b505af1158015620002be573d6000803e3d6000fd5b505050508061018081815250508a6001600160a01b031663d2946c2b6040518163ffffffff1660e01b815260040160206040518083038186803b1580156200030557600080fd5b505afa1580156200031a573d6000803e3d6000fd5b505050506040513d601f19601f8201168201806040525081019062000340919062000b40565b6001600160a01b03166101a0816001600160a01b031660601b81525050505050505050505050505083604001516001600160a01b03166101c0816001600160a01b031660601b8152505083606001516001600160a01b03166101e0816001600160a01b031660601b815250506000806000620003cc87604001518860600151306200067860201b60201c565b61030083905261032082905261034081905260408a01519295509093509150620003f6906200076e565b6102005260608701516200040a906200076e565b6102205260808701516102405260a08701516102605260e08701516102805260c08701516102a0526101008701516102c052426102e05261012087015180516200045d9160099160209091019062000a10565b50836001600160a01b0316610360816001600160a01b031660601b8152505086604001516001600160a01b03167fcc19f8fbf7b272756fdb594e385d63f8d5cdd71b279584121ec82542123c93888860a0015189606001518a60c001518b61010001518c6101200151604051620004d995949392919062000d9b565b60405180910390a2505050505050505062000e70565b6060600080806200050287878762000678565b60408051600380825260808201909252939650919450925060208201606080368337019050509350868484815181106200053857fe5b60200260200101906001600160a01b031690816001600160a01b031681525050858483815181106200056657fe5b60200260200101906001600160a01b031690816001600160a01b031681525050848482815181106200059457fe5b60200260200101906001600160a01b031690816001600160a01b0316815250505050509392505050565b81620005cf57620005cf8162000842565b5050565b600390565b80620005cf8162000857565b620005fd620005f2620008e3565b82101560cb620005be565b620006166200060b620008ec565b82111560ca620005be565b620006388160c0603f600854620008f860201b6200109b17909392919060201c565b6008556040517fa9ba3ffe0b6c366b81232caab38605a0699ad5398d6cce76f91ee809e322dafc906200066d90839062000d92565b60405180910390a150565b6000806000846001600160a01b0316866001600160a01b031610156200070157836001600160a01b0316856001600160a01b03161015620006c457506000915060019050600262000765565b836001600160a01b0316866001600160a01b03161015620006f057506000915060029050600162000765565b506001915060029050600062000765565b846001600160a01b0316846001600160a01b031610156200072d57506002915060019050600062000765565b856001600160a01b0316846001600160a01b031610156200075957506002915060009050600162000765565b50600191506000905060025b93509350939050565b60006001600160a01b038216301415620007925750670de0b6b3a76400006200083d565b6000826001600160a01b031663313ce5676040518163ffffffff1660e01b815260040160206040518083038186803b158015620007ce57600080fd5b505afa158015620007e3573d6000803e3d6000fd5b505050506040513d601f19601f8201168201806040525081019062000809919062000cbe565b60ff1690506000620008286012836200091d60201b620010be1760201c565b905080600a0a670de0b6b3a764000002925050505b919050565b62000854816210905360ea1b6200093a565b50565b600281511015620008685762000854565b6000816000815181106200087857fe5b602002602001015190506000600190505b8251811015620008de576000838281518110620008a257fe5b60200260200101519050620008d3816001600160a01b0316846001600160a01b0316106065620005be60201b60201c565b915060010162000889565b505050565b64e8d4a5100090565b67016345785d8a000090565b6000620009078484846200099b565b506001901b60001901811b1992909216911b1790565b60006200092f838311156001620005be565b508082035b92915050565b62461bcd60e51b600090815260206004526007602452600a808404818106603090810160081b958390069590950190829004918206850160101b01602363ffffff0060e086901c160160181b0190930160c81b60445260e882901c90606490fd5b620009ac61010083106064620005be565b620009e560018210158015620009dd5750620009d960ff8461010003620009f660201b620010d41760201c565b8211155b6064620005be565b620008de83821c156101b4620005be565b600081831062000a07578162000a09565b825b9392505050565b828054600181600116156101000203166002900490600052602060002090601f016020900481019282601f1062000a5357805160ff191683800117855562000a83565b8280016001018555821562000a83579182015b8281111562000a8357825182559160200191906001019062000a66565b5062000a9192915062000a95565b5090565b5b8082111562000a91576000815560010162000a96565b8051620009348162000e5a565b600082601f83011262000aca578081fd5b81516001600160401b0381111562000ae0578182fd5b62000af5601f8201601f191660200162000df4565b915080825283602082850101111562000b0d57600080fd5b62000b2081602084016020860162000e27565b5092915050565b60006020828403121562000b39578081fd5b5051919050565b60006020828403121562000b52578081fd5b815162000a098162000e5a565b600080600080600060a0868803121562000b77578081fd5b855162000b848162000e5a565b60208701519095506001600160401b038082111562000ba1578283fd5b818801915061014080838b03121562000bb8578384fd5b62000bc38162000df4565b905082518281111562000bd4578485fd5b62000be28b82860162000ab9565b82525060208301518281111562000bf7578485fd5b62000c058b82860162000ab9565b60208301525062000c1a8a6040850162000aac565b604082015262000c2e8a6060850162000aac565b60608201526080830151608082015260a083015160a082015260c083015160c082015260e083015160e0820152610100808401518183015250610120808401518381111562000c7b578586fd5b62000c898c82870162000ab9565b828401525050809650505050604086015192506060860151915062000cb2876080880162000aac565b90509295509295909350565b60006020828403121562000cd0578081fd5b815160ff8116811462000a09578182fd5b60006060820185835260206060818501528186518084526080860191508288019350845b8181101562000d2d5762000d1a855162000e1b565b8352938301939183019160010162000d05565b505084810360408601528551808252908201925081860190845b8181101562000d6f5762000d5c835162000e1b565b8552938301939183019160010162000d47565b509298975050505050505050565b602081016003831062000d8c57fe5b91905290565b90815260200190565b600086825260018060a01b038616602083015284604083015283606083015260a0608083015282518060a084015262000ddc8160c085016020870162000e27565b601f01601f19169190910160c0019695505050505050565b6040518181016001600160401b038111828210171562000e1357600080fd5b604052919050565b6001600160a01b031690565b60005b8381101562000e4457818101518382015260200162000e2a565b8381111562000e54576000848401525b50505050565b6001600160a01b03811681146200085457600080fd5b60805160a05160c05160e0516101005160601c6101205160601c6101405161016051610180516101a05160601c6101c05160601c6101e05160601c61020051610220516102405161026051610280516102a0516102c0516102e0516103005161032051610340516103605160601c6136dc6200100760003980611bce525080610b7b5280612858525080610db05280611ee6528061214152806123dc52806124f452806125b1525080610a495280611ec4528061211f528061231f52806123ba528061258f5250806105ac5250806105cd528061106f525080610c8c5250508061066952806110415250806106435280610deb5250505080610a0a528061120952806112b45280611e3d5280611ea252806120fd52806122dd5280612398528061256d5250806108ca52806111b9528061126b5280611e80528061209852806120db528061237652806124b2528061254b525080610e3252508061091d5250806113b252508061138e525080610c4d525080610c29525080610bb3525080611c92525080611cd4525080611cb352506136dc6000f3fe608060405234801561001057600080fd5b50600436106102955760003560e01c806382687a5611610167578063a9059cbb116100ce578063d505accf11610087578063d505accf1461050b578063d5c096c41461051e578063dd62ed3e14610531578063deafd91e14610544578063ed24911d1461054c578063f1493ee11461055457610295565b8063a9059cbb146104d0578063aaabadc5146104e3578063ac4316cb146104eb578063b35056b8146104f3578063b7b814fc146104fb578063d2946c2b1461050357610295565b806390193b7c1161012057806390193b7c1461048a57806395c95a4f1461049d57806395d89b41146104a55780639c0e5d13146104ad578063a457c2d7146104b5578063a7488bb7146104c857610295565b806382687a56146104445780638456cb591461044c578063851c1bb31461045457806387ec681714610467578063893d20e81461047a5780638d928af81461048257610295565b806338fff2d01161020b5780636028bfd4116101c45780636028bfd4146103cc5780636945c1fd146103ed57806370a08231146103f557806372f3824d1461040857806374f3b009146104105780637ecebe001461043157610295565b806338fff2d014610386578063395093511461038e5780633f4ba83a146103a157806350dd6ed9146103a957806354a844ba146103bc57806355c67628146103c457610295565b80631dd746ea1161025d5780631dd746ea1461031757806323b872dd1461032c5780632541897f1461033f578063313ce567146103545780633644e5151461036957806338e9922e1461037157610295565b806301ec954a1461029a57806306fdde03146102c3578063095ea7b3146102d857806318160ddd146102f85780631c0de05114610300575b600080fd5b6102ad6102a8366004613102565b61055c565b6040516102ba9190613426565b60405180910390f35b6102cb610767565b6040516102ba9190613504565b6102eb6102e6366004612e8f565b6107fd565b6040516102ba9190613403565b6102ad610814565b61030861081a565b6040516102ba9392919061340e565b61031f610843565b6040516102ba91906133c2565b6102eb61033a366004612ddf565b610852565b6103476108c8565b6040516102ba919061337a565b61035c6108ec565b6040516102ba9190613620565b6102ad6108f5565b61038461037f366004613221565b6108ff565b005b6102ad61091b565b6102eb61039c366004612e8f565b61093f565b61038461097a565b6103846103b7366004612fc1565b61098e565b6103846109ac565b6102ad6109be565b6103df6103da366004612eda565b6109d1565b6040516102ba929190613607565b610347610a08565b6102ad610403366004612d8b565b610a2c565b6102ad610a47565b61042361041e366004612eda565b610a6b565b6040516102ba9291906133d5565b6102ad61043f366004612d8b565b610b6e565b6102ad610b79565b610384610b9d565b6102ad610462366004612f7d565b610baf565b6103df610475366004612eda565b610c01565b610347610c27565b610347610c4b565b6102ad610498366004612d8b565b610c6f565b6102ad610c8a565b6102cb610cae565b6102cb610d0f565b6102eb6104c3366004612e8f565b610d70565b6102ad610dae565b6102eb6104de366004612e8f565b610dd2565b610347610ddf565b6102ad610de9565b6102eb610e0d565b610384610e1e565b610347610e30565b610384610519366004612e1f565b610e54565b61042361052c366004612eda565b610edf565b6102ad61053f366004612da7565b611002565b6102ad61103f565b6102ad611063565b6102ad61106d565b6000846080015161058961056e610c4b565b6001600160a01b0316336001600160a01b03161460cd6110ea565b61059e61059461091b565b82146101f46110ea565b6105a66110f8565b426105f17f00000000000000000000000000000000000000000000000000000000000000007f000000000000000000000000000000000000000000000000000000000000000061110b565b10156106185760405162461bcd60e51b815260040161060f906135df565b60405180910390fd5b606061062261111b565b905061062c612c7d565b604051806060016040528061063f6109be565b81527f000000000000000000000000000000000000000000000000000000000000000060208201527f0000000000000000000000000000000000000000000000000000000000000000604090910152905060008851600181111561069f57fe5b1415610701576106c688606001518388815181106106b957fe5b60200260200101516111a9565b606089015260006106d88989846111b5565b90506106f7818488815181106106ea57fe5b602002602001015161125b565b945050505061075e565b60018851600181111561071057fe5b141561075b5761072a88606001518387815181106106b957fe5b6060890152600061073c898984611267565b90506106f78184898151811061074e57fe5b60200260200101516112fb565b50505b50949350505050565b60038054604080516020601f60026000196101006001881615020190951694909404938401819004810282018101909252828152606093909290918301828280156107f35780601f106107c8576101008083540402835291602001916107f3565b820191906000526020600020905b8154815290600101906020018083116107d657829003601f168201915b5050505050905090565b600061080a338484611307565b5060015b92915050565b60025490565b600080600061082761136f565b15925061083261138c565b915061083c6113b0565b9050909192565b606061084d61111b565b905090565b60008061085f8533611002565b9050610883336001600160a01b038716148061087b5750838210155b61019e6110ea565b61088e8585856113d4565b336001600160a01b038616148015906108a957506000198114155b156108bb576108bb8533858403611307565b60019150505b9392505050565b7f000000000000000000000000000000000000000000000000000000000000000090565b60055460ff1690565b600061084d611063565b6109076114b4565b61090f6110f8565b610918816114e2565b50565b7f000000000000000000000000000000000000000000000000000000000000000090565b3360008181526001602090815260408083206001600160a01b0387168452909152812054909161080a918590610975908661155b565b611307565b6109826114b4565b61098c600061156d565b565b6109966114b4565b61099e6110f8565b6109a882826115e0565b5050565b6109b46114b4565b61098c60016116d5565b60085460009061084d9060c0603f61172c565b600060606109e786516109e261173b565b611740565b6109fc8989898989898961174d61179f61180e565b97509795505050505050565b7f000000000000000000000000000000000000000000000000000000000000000090565b6001600160a01b031660009081526020819052604090205490565b7f000000000000000000000000000000000000000000000000000000000000000090565b60608088610a7a61056e610c4b565b610a8561059461091b565b60606000610a9286611938565b15610aba57610a9f611967565b610ab189610aab610814565b8861197a565b92509050610b0c565b610ac26119a6565b6060610acc61111b565b9050610ad88a826119ae565b610afc8d8d8d8d8d610ae8610e0d565b610af2578d610af5565b60005b878e61174d565b93509150610b0a838261179f565b505b610b168b82611a17565b81895167ffffffffffffffff81118015610b2f57600080fd5b50604051908082528060200260200182016040528015610b59578160200160208202803683370190505b509450945050505b5097509795505050505050565b600061080e82610c6f565b7f000000000000000000000000000000000000000000000000000000000000000090565b610ba56114b4565b61098c600161156d565b60007f000000000000000000000000000000000000000000000000000000000000000082604051602001610be4929190613337565b604051602081830303815290604052805190602001209050919050565b60006060610c1286516109e261173b565b6109fc89898989898989611a21611a3d61180e565b7f000000000000000000000000000000000000000000000000000000000000000090565b7f000000000000000000000000000000000000000000000000000000000000000090565b6001600160a01b031660009081526006602052604090205490565b7f000000000000000000000000000000000000000000000000000000000000000090565b60048054604080516020601f60026000196101006001881615020190951694909404938401819004810282018101909252828152606093909290918301828280156107f35780601f106107c8576101008083540402835291602001916107f3565b60098054604080516020601f60026000196101006001881615020190951694909404938401819004810282018101909252828152606093909290918301828280156107f35780601f106107c8576101008083540402835291602001916107f3565b600080610d7d3385611002565b9050808310610d9757610d9233856000611307565b610da4565b610da43385858403611307565b5060019392505050565b7f000000000000000000000000000000000000000000000000000000000000000090565b600061080a3384846113d4565b600061084d611aa6565b7f000000000000000000000000000000000000000000000000000000000000000090565b60085460009061084d9060ff611b20565b610e266114b4565b61098c60006116d5565b7f000000000000000000000000000000000000000000000000000000000000000090565b60007f6e71edae12b1b97f4d1f60370fef10105fa2faae0126114a169c64845d6126c9888888610e838c610c6f565b89604051602001610e999695949392919061344e565b604051602081830303815290604052805190602001209050610eca8882610ec1878787611b2a565b886101f8611b69565b610ed5888888611307565b5050505050505050565b60608088610eee61056e610c4b565b610ef961059461091b565b610f016119a6565b6060610f0b61111b565b9050610f15610814565b610fc25760006060610f2a8d8d8d868b611bc0565b91509150610f43610f39611c52565b83101560cc6110ea565b610f556000610f50611c52565b611c59565b610f688b610f61611c52565b8403611c59565b610f728184611a3d565b808a5167ffffffffffffffff81118015610f8b57600080fd5b50604051908082528060200260200182016040528015610fb5578160200160208202803683370190505b5095509550505050610b61565b610fcc88826119ae565b60006060610ff48d8d8d8d8d610fe0610e0d565b610fea578d610fed565b60005b898e611a21565b91509150610f688b83611c59565b600061100c610c4b565b6001600160a01b0316826001600160a01b0316141561102e575060001961080e565b6110388383611c63565b905061080e565b7f000000000000000000000000000000000000000000000000000000000000000090565b600061084d611c8e565b7f000000000000000000000000000000000000000000000000000000000000000090565b806109a881611d2b565b60006110a8848484611da9565b506001901b60001901811b1992909216911b1790565b60006110ce8383111560016110ea565b50900390565b60008183106110e357816108c1565b5090919050565b816109a8576109a881611df0565b61098c61110361136f565b6101926110ea565b8181018281101561080e57600080fd5b6060600061112761173b565b905060608167ffffffffffffffff8111801561114257600080fd5b5060405190808252806020026020018201604052801561116c578160200160208202803683370190505b50905060005b828110156111a257670de0b6b3a764000082828151811061118f57fe5b6020908102919091010152600101611172565b5091505090565b60006108c18383611e00565b60007f00000000000000000000000000000000000000000000000000000000000000006001600160a01b031684602001516001600160a01b0316141561120757611200848484611e36565b90506108c1565b7f00000000000000000000000000000000000000000000000000000000000000006001600160a01b031684602001516001600160a01b0316141561125057611200848484612091565b6108c1610135611df0565b60006108c18383612285565b60007f00000000000000000000000000000000000000000000000000000000000000006001600160a01b031684604001516001600160a01b031614156112b2576112008484846122d6565b7f00000000000000000000000000000000000000000000000000000000000000006001600160a01b031684604001516001600160a01b03161415611250576112008484846124ab565b60006108c18383612653565b6001600160a01b0380841660008181526001602090815260408083209487168084529490915290819020849055517f8c5be1e5ebec7d5bd14f71427d1e84f3dd0314c0f7b2291e5b200ac8c7c3b92590611362908590613426565b60405180910390a3505050565b60006113796113b0565b42118061084d57505060075460ff161590565b7f000000000000000000000000000000000000000000000000000000000000000090565b7f000000000000000000000000000000000000000000000000000000000000000090565b6113eb6001600160a01b03841615156101986110ea565b6114026001600160a01b03831615156101996110ea565b61140d838383611da4565b6001600160a01b03831660009081526020819052604090205461143390826101a06126a1565b6001600160a01b038085166000908152602081905260408082209390935590841681522054611462908261155b565b6001600160a01b0380841660008181526020819052604090819020939093559151908516907fddf252ad1be2c89b69c2b068fc378daa952ba7f163c4a11628f55a4df523b3ef90611362908590613426565b60006114cb6000356001600160e01b031916610baf565b90506109186114da82336126b7565b6101916110ea565b6114f76114ed6127a0565b82101560cb6110ea565b61150c6115026127a9565b82111560ca6110ea565b60085461151d908260c0603f61109b565b6008556040517fa9ba3ffe0b6c366b81232caab38605a0699ad5398d6cce76f91ee809e322dafc90611550908390613426565b60405180910390a150565b60008282016108c184821015836110ea565b801561158d5761158861157e61138c565b42106101936110ea565b6115a2565b6115a26115986113b0565b42106101a96110ea565b6007805460ff19168215151790556040517f9e3a5e37224532dea67b89face185703738a228a6e8a23dee546960180d3be6490611550908390613403565b60006115ea61091b565b905060006115f6610c4b565b6001600160a01b031663b05f8e4883866040518363ffffffff1660e01b81526004016116239291906134cf565b60806040518083038186803b15801561163b57600080fd5b505afa15801561164f573d6000803e3d6000fd5b505050506040513d601f19601f820116820180604052508101906116739190613239565b604051630639cdb560e21b81529094506001600160a01b03851693506318e736d492506116a79150859087906004016134ae565b600060405180830381600087803b1580156116c157600080fd5b505af1158015610ed5573d6000803e3d6000fd5b6008546116e4908260ff6127b5565b6008556040517feff3d4d215b42bf0960be9c6d5e05c22cba4df6627a3a523e2acee733b5854c890611717908390613403565b60405180910390a1806109185761091861098c565b6001901b6000190191901c1690565b600390565b6109a881831460676110ea565b60006060600061175c846127dc565b9050600181600181111561176c57fe5b146117815761177c610162611df0565b611791565b61178b88856127f2565b90935091505b509850989650505050505050565b815181516117ae908290611740565b60005b81811015611808576117e98482815181106117c857fe5b60200260200101518483815181106117dc57fe5b6020026020010151612285565b8482815181106117f557fe5b60209081029190910101526001016117b1565b50505050565b3330146118cc576000306001600160a01b031660003660405161183292919061334f565b6000604051808303816000865af19150503d806000811461186f576040519150601f19603f3d011682016040523d82523d6000602084013e611874565b606091505b50509050806000811461188357fe5b60046000803e6000516001600160e01b0319166343adbafb60e01b81146118ae573d6000803e3d6000fd5b506020600460003e604060205260243d03602460403e601c3d016000f35b6118d46119a6565b60606118de61111b565b90506118ea87826119ae565b600060606119028c8c8c8c8c8c898d8d63ffffffff16565b9150915061191481848663ffffffff16565b8051601f1982018390526343adbafb603f1983015260200260231982016044820181fd5b600080825111801561080e575060ff80168280602001905181019061195d9190613279565b60ff161492915050565b61098c611972610e0d565b6101b66110ea565b600060606000611989846128be565b905060606119988787846128d4565b919791965090945050505050565b61098c6110f8565b815181516119bd908290611740565b60005b81811015611808576119f88482815181106119d757fe5b60200260200101518483815181106119eb57fe5b6020026020010151611e00565b848281518110611a0457fe5b60209081029190910101526001016119c0565b6109a8828261296d565b60006060611a30610162611df0565b9850989650505050505050565b81518151611a4c908290611740565b60005b8181101561180857611a87848281518110611a6657fe5b6020026020010151848381518110611a7a57fe5b6020026020010151612653565b848281518110611a9357fe5b6020908102919091010152600101611a4f565b6000611ab0610c4b565b6001600160a01b031663aaabadc56040518163ffffffff1660e01b815260040160206040518083038186803b158015611ae857600080fd5b505afa158015611afc573d6000803e3d6000fd5b505050506040513d601f19601f8201168201806040525081019061084d9190612fa5565b1c60019081161490565b60408051604180825260808201909252606091829190602082018180368337019050509050836020820152826040820152846060820153949350505050565b6000611b7485612a39565b9050611b8a611b84878387612a55565b836110ea565b611b99428410156101b86110ea565b5050506001600160a01b039092166000908152600660205260409020805460010190555050565b60006060611bcc6110f8565b7f0000000000000000000000000000000000000000000000000000000000000000611c076001600160a01b03888116908316146101566110ea565b611c27816001600160a01b0316876001600160a01b0316146101566110ea565b6dffffffffffffffffffffffffffff6060611c4186612b04565b919a91995090975050505050505050565b620f424090565b6109a88282612b1a565b6001600160a01b03918216600090815260016020908152604080832093909416825291909152205490565b60007f00000000000000000000000000000000000000000000000000000000000000007f00000000000000000000000000000000000000000000000000000000000000007f0000000000000000000000000000000000000000000000000000000000000000611cfb612bad565b30604051602001611d10959493929190613482565b60405160208183030381529060405280519060200120905090565b600281511015611d3a57610918565b600081600081518110611d4957fe5b602002602001015190506000600190505b8251811015611da4576000838281518110611d7157fe5b60200260200101519050611d9a816001600160a01b0316846001600160a01b03161060656110ea565b9150600101611d5a565b505050565b611db8610100831060646110ea565b611de160018210158015611dda5750611dd660ff84610100036110d4565b8211155b60646110ea565b611da483821c156101b46110ea565b610918816210905360ea1b612bb1565b6000828202611e24841580611e1d575083858381611e1a57fe5b04145b60036110ea565b670de0b6b3a764000090049392505050565b6000611e7c7f00000000000000000000000000000000000000000000000000000000000000006001600160a01b031685604001516001600160a01b0316146101356110ea565b82517f0000000000000000000000000000000000000000000000000000000000000000907f0000000000000000000000000000000000000000000000000000000000000000907f0000000000000000000000000000000000000000000000000000000000000000907f000000000000000000000000000000000000000000000000000000000000000090600090611f2b90899085908110611f1957fe5b60200260200101518a6060015161155b565b90506000611f96898481518110611f3e57fe5b6020026020010151611f91611f6f858d8881518110611f5957fe5b602002602001015161228590919063ffffffff16565b8c8881518110611f7b57fe5b6020026020010151611e0090919063ffffffff16565b6110be565b90506000611fb78a8581518110611fa957fe5b6020026020010151836110be565b9050818a8581518110611fc657fe5b60200260200101511015611fec5760405162461bcd60e51b815260040161060f90613517565b6020890151611ffb8285612285565b10158015612016575060408901516120138285612285565b11155b6120325760405162461bcd60e51b815260040161060f906135b3565b866001600160a01b03167f560f9a9aa840257b3f71f9f0cc55270169408d782595c416c1042eccf7426c9c878d606001518e60c00151864260405161207b95949392919061338e565b60405180910390a2509998505050505050505050565b60006120d77f00000000000000000000000000000000000000000000000000000000000000006001600160a01b031685604001516001600160a01b0316146101356110ea565b82517f0000000000000000000000000000000000000000000000000000000000000000907f0000000000000000000000000000000000000000000000000000000000000000907f0000000000000000000000000000000000000000000000000000000000000000907f00000000000000000000000000000000000000000000000000000000000000009060009061217490899084908110611f1957fe5b905060006121ae89858151811061218757fe5b6020026020010151611f916121a2858d8981518110611f5957fe5b8c8781518110611f7b57fe5b905060006121c18a8681518110611fa957fe5b9050818a86815181106121d057fe5b602002602001015110156121f65760405162461bcd60e51b815260040161060f9061357c565b60208901516122058483612285565b101580156122205750604089015161221d8483612285565b11155b61223c5760405162461bcd60e51b815260040161060f906135b3565b856001600160a01b03167f560f9a9aa840257b3f71f9f0cc55270169408d782595c416c1042eccf7426c9c888d606001518e60c00151864260405161207b95949392919061338e565b600061229482151560046110ea565b826122a15750600061080e565b670de0b6b3a7640000838102906122c4908583816122bb57fe5b041460056110ea565b8281816122cd57fe5b0491505061080e565b600061231c7f00000000000000000000000000000000000000000000000000000000000000006001600160a01b031685602001516001600160a01b0316146101356110ea565b827f00000000000000000000000000000000000000000000000000000000000000008151811061234857fe5b60200260200101518460600151106123725760405162461bcd60e51b815260040161060f9061354e565b82517f0000000000000000000000000000000000000000000000000000000000000000907f0000000000000000000000000000000000000000000000000000000000000000907f0000000000000000000000000000000000000000000000000000000000000000907f0000000000000000000000000000000000000000000000000000000000000000906000906124219089908590811061240f57fe5b60200260200101518a606001516110be565b9050600061246061244761243b848c8781518110611f5957fe5b8b8781518110611f7b57fe5b8a858151811061245357fe5b60200260200101516110be565b905060006124818a858151811061247357fe5b60200260200101518361155b565b60208a01519091506124938285612285565b101580156122205750604089015161221d8285612285565b60006124f17f00000000000000000000000000000000000000000000000000000000000000006001600160a01b031685602001516001600160a01b0316146101356110ea565b827f00000000000000000000000000000000000000000000000000000000000000008151811061251d57fe5b60200260200101518460600151106125475760405162461bcd60e51b815260040161060f9061354e565b82517f0000000000000000000000000000000000000000000000000000000000000000907f0000000000000000000000000000000000000000000000000000000000000000907f0000000000000000000000000000000000000000000000000000000000000000907f0000000000000000000000000000000000000000000000000000000000000000906000906125e49089908490811061240f57fe5b9050600061261661260a6125fe848c8881518110611f5957fe5b8b8681518110611f7b57fe5b8a868151811061245357fe5b905060006126298a868151811061247357fe5b60208a015190915061263b8483612285565b10158015612016575060408901516120138483612285565b600061266282151560046110ea565b8261266f5750600061080e565b670de0b6b3a764000083810290612689908583816122bb57fe5b82600182038161269557fe5b0460010191505061080e565b60006126b084841115836110ea565b5050900390565b600073ba1ba1ba1ba1ba1ba1ba1ba1ba1ba1ba1ba1ba1b6126d6610c27565b6001600160a01b0316141580156126f157506126f183612c12565b15612719576126fe610c27565b6001600160a01b0316336001600160a01b031614905061080e565b612721611aa6565b6001600160a01b0316639be2a8848484306040518463ffffffff1660e01b81526004016127509392919061342f565b60206040518083038186803b15801561276857600080fd5b505afa15801561277c573d6000803e3d6000fd5b505050506040513d601f19601f820116820180604052508101906110389190612eba565b64e8d4a5100090565b67016345785d8a000090565b60006001821b19841682846127cb5760006127ce565b60015b60ff16901b17949350505050565b60008180602001905181019061080e919061300f565b60006060600061280184612c4e565b90506060855167ffffffffffffffff8111801561281d57600080fd5b50604051908082528060200260200182016040528015612847578160200160208202803683370190505b50905060005b86518110156128b2577f000000000000000000000000000000000000000000000000000000000000000081146128aa5786818151811061288957fe5b602002602001015182828151811061289d57fe5b6020026020010181815250505b60010161284d565b50909590945092505050565b6000818060200190518101906108c19190613295565b606060006128e28385612285565b9050845167ffffffffffffffff811180156128fc57600080fd5b50604051908082528060200260200182016040528015612926578160200160208202803683370190505b50915060005b85518110156129645761294582878381518110611f7b57fe5b83828151811061295157fe5b602090810291909101015260010161292c565b50509392505050565b6129846001600160a01b038316151561019b6110ea565b61299082600083611da4565b6001600160a01b0382166000908152602081905260409020546129b690826101b26126a1565b6001600160a01b0383166000908152602081905260409020556129e96129e4826129de610814565b90612c64565b612c72565b60006001600160a01b0316826001600160a01b03167fddf252ad1be2c89b69c2b068fc378daa952ba7f163c4a11628f55a4df523b3ef83604051612a2d9190613426565b60405180910390a35050565b6000612a43611c8e565b82604051602001610be492919061335f565b6000612a6782516041146101b96110ea565b60208281015160408085015160608601518251600080825295019283905292939092811a91600190612aa09089908590889088906134e6565b6020604051602081039080840390855afa158015612ac2573d6000803e3d6000fd5b5050604051601f1901519150506001600160a01b03811615801590612af85750876001600160a01b0316816001600160a01b0316145b98975050505050505050565b6060818060200190518101906108c19190613058565b612b2660008383611da4565b612b3b6129e482612b35610814565b9061155b565b6001600160a01b038216600090815260208190526040902054612b5e908261155b565b6001600160a01b0383166000818152602081905260408082209390935591519091907fddf252ad1be2c89b69c2b068fc378daa952ba7f163c4a11628f55a4df523b3ef90612a2d908590613426565b4690565b62461bcd60e51b600090815260206004526007602452600a808404818106603090810160081b958390069590950190829004918206850160101b01602363ffffff0060e086901c160160181b0190930160c81b60445260e882901c90606490fd5b6000612c24631c74c91760e11b610baf565b821480612c3f5750612c3c6350dd6ed960e01b610baf565b82145b8061080e575061080e82612c77565b6000818060200190518101906108c1919061302b565b60006108c1838360016126a1565b600255565b50600090565b60405180606001604052806000815260200160008152602001600081525090565b803561080e81613675565b600082601f830112612cb9578081fd5b8135612ccc612cc782613655565b61362e565b818152915060208083019084810181840286018201871015612ced57600080fd5b60005b84811015612d0c57813584529282019290820190600101612cf0565b505050505092915050565b600082601f830112612d27578081fd5b813567ffffffffffffffff811115612d3d578182fd5b612d50601f8201601f191660200161362e565b9150808252836020828501011115612d6757600080fd5b8060208401602084013760009082016020015292915050565b803561080e8161368a565b600060208284031215612d9c578081fd5b81356108c181613675565b60008060408385031215612db9578081fd5b8235612dc481613675565b91506020830135612dd481613675565b809150509250929050565b600080600060608486031215612df3578081fd5b8335612dfe81613675565b92506020840135612e0e81613675565b929592945050506040919091013590565b600080600080600080600060e0888a031215612e39578283fd5b8735612e4481613675565b96506020880135612e5481613675565b955060408801359450606088013593506080880135612e7281613697565b9699959850939692959460a0840135945060c09093013592915050565b60008060408385031215612ea1578182fd5b8235612eac81613675565b946020939093013593505050565b600060208284031215612ecb578081fd5b815180151581146108c1578182fd5b600080600080600080600060e0888a031215612ef4578081fd5b873596506020880135612f0681613675565b95506040880135612f1681613675565b9450606088013567ffffffffffffffff80821115612f32578283fd5b612f3e8b838c01612ca9565b955060808a0135945060a08a0135935060c08a0135915080821115612f61578283fd5b50612f6e8a828b01612d17565b91505092959891949750929550565b600060208284031215612f8e578081fd5b81356001600160e01b0319811681146108c1578182fd5b600060208284031215612fb6578081fd5b81516108c181613675565b60008060408385031215612fd3578182fd5b8235612fde81613675565b9150602083013567ffffffffffffffff811115612ff9578182fd5b61300585828601612d17565b9150509250929050565b600060208284031215613020578081fd5b81516108c18161368a565b6000806040838503121561303d578182fd5b82516130488161368a565b6020939093015192949293505050565b6000806040838503121561306a578182fd5b825160048110613078578283fd5b8092505060208084015167ffffffffffffffff811115613096578283fd5b8401601f810186136130a6578283fd5b80516130b4612cc782613655565b81815283810190838501858402850186018a10156130d0578687fd5b8694505b838510156130f25780518352600194909401939185019185016130d4565b5080955050505050509250929050565b60008060008060808587031215613117578182fd5b843567ffffffffffffffff8082111561312e578384fd5b818701915061012080838a031215613144578485fd5b61314d8161362e565b90506131598984612d80565b81526131688960208501612c9e565b602082015261317a8960408501612c9e565b6040820152606083013560608201526080830135608082015260a083013560a08201526131aa8960c08501612c9e565b60c08201526131bc8960e08501612c9e565b60e082015261010080840135838111156131d4578687fd5b6131e08b828701612d17565b8284015250508096505060208701359150808211156131fd578384fd5b5061320a87828801612ca9565b949794965050505060408301359260600135919050565b600060208284031215613232578081fd5b5035919050565b6000806000806080858703121561324e578182fd5b845193506020850151925060408501519150606085015161326e81613675565b939692955090935050565b60006020828403121561328a578081fd5b81516108c181613697565b600080604083850312156132a7578182fd5b825161304881613697565b6000815180845260208085019450808401835b838110156132e1578151875295820195908201906001016132c5565b509495945050505050565b60008151808452815b81811015613311576020818501810151868301820152016132f5565b818111156133225782602083870101525b50601f01601f19169290920160200192915050565b9182526001600160e01b031916602082015260240190565b6000828483379101908152919050565b61190160f01b81526002810192909252602282015260420190565b6001600160a01b0391909116815260200190565b6001600160a01b03958616815260208101949094529190931660408301526060820192909252608081019190915260a00190565b6000602082526108c160208301846132b2565b6000604082526133e860408301856132b2565b82810360208401526133fa81856132b2565b95945050505050565b901515815260200190565b92151583526020830191909152604082015260600190565b90815260200190565b9283526001600160a01b03918216602084015216604082015260600190565b9586526001600160a01b0394851660208701529290931660408501526060840152608083019190915260a082015260c00190565b9485526020850193909352604084019190915260608301526001600160a01b0316608082015260a00190565b6000838252604060208301526134c760408301846132ec565b949350505050565b9182526001600160a01b0316602082015260400190565b93845260ff9290921660208401526040830152606082015260800190565b6000602082526108c160208301846132ec565b6020808252601d908201527f496e73756666696369656e742063757272656e63792062616c616e6365000000604082015260600190565b602080825260149082015273496e73756666696369656e742062616c616e636560601b604082015260600190565b6020808252601d908201527f496e73756666696369656e742073656375726974792062616c616e6365000000604082015260600190565b602080825260129082015271141c9a58d9481bdd5d081bd988189bdd5b9960721b604082015260600190565b6020808252600e908201526d2a34b6b2a634b6b4ba1027bb32b960911b604082015260600190565b6000838252604060208301526134c760408301846132b2565b60ff91909116815260200190565b60405181810167ffffffffffffffff8111828210171561364d57600080fd5b604052919050565b600067ffffffffffffffff82111561366b578081fd5b5060209081020190565b6001600160a01b038116811461091857600080fd5b6002811061091857600080fd5b60ff8116811461091857600080fdfea2646970667358221220669879376e9b34bab2b8d64e9497d42d75f660d0338d425df138a5b27f022e4064736f6c63430007010033",
  "linkReferences": {},
  "deployedLinkReferences": {}
}