{
  "_format": "hh-sol-artifact-1",
  "contractName": "PrimaryIssuePool",
  "sourceName": "contracts/PrimaryIssuePool.sol",
  "abi": [
    {
      "inputs": [
        {
          "internalType": "contract IVault",
          "name": "vault",
          "type": "address"
        },
        {
          "components": [
            {
              "internalType": "string",
              "name": "name",
              "type": "string"
            },
            {
              "internalType": "string",
              "name": "symbol",
              "type": "string"
            },
            {
              "internalType": "address",
              "name": "security",
              "type": "address"
            },
            {
              "internalType": "address",
              "name": "currency",
              "type": "address"
            },
            {
              "internalType": "uint256",
              "name": "minimumPrice",
              "type": "uint256"
            },
            {
              "internalType": "uint256",
              "name": "basePrice",
              "type": "uint256"
            },
            {
              "internalType": "uint256",
              "name": "maxAmountsIn",
              "type": "uint256"
            },
            {
              "internalType": "uint256",
              "name": "swapFeePercentage",
              "type": "uint256"
            },
            {
              "internalType": "uint256",
              "name": "cutOffTime",
              "type": "uint256"
            },
            {
              "internalType": "string",
              "name": "offeringDocs",
              "type": "string"
            }
          ],
          "internalType": "struct IPrimaryIssuePoolFactory.FactoryPoolParams",
          "name": "factoryPoolParams",
          "type": "tuple"
        },
        {
          "internalType": "uint256",
          "name": "pauseWindowDuration",
          "type": "uint256"
        },
        {
          "internalType": "uint256",
          "name": "bufferPeriodDuration",
          "type": "uint256"
        },
        {
          "internalType": "address",
          "name": "owner",
          "type": "address"
        }
      ],
      "stateMutability": "nonpayable",
      "type": "constructor"
    },
    {
      "anonymous": false,
      "inputs": [
        {
          "indexed": true,
          "internalType": "address",
          "name": "owner",
          "type": "address"
        },
        {
          "indexed": true,
          "internalType": "address",
          "name": "spender",
          "type": "address"
        },
        {
          "indexed": false,
          "internalType": "uint256",
          "name": "value",
          "type": "uint256"
        }
      ],
      "name": "Approval",
      "type": "event"
    },
    {
      "anonymous": false,
      "inputs": [
        {
          "indexed": true,
          "internalType": "address",
          "name": "security",
          "type": "address"
        },
        {
          "indexed": false,
          "internalType": "uint256",
          "name": "openingPrice",
          "type": "uint256"
        },
        {
          "indexed": false,
          "internalType": "uint256",
          "name": "maxPrice",
          "type": "uint256"
        },
        {
          "indexed": false,
          "internalType": "uint256",
          "name": "securityOffered",
          "type": "uint256"
        },
        {
          "indexed": false,
          "internalType": "uint256",
          "name": "cutoffTime",
          "type": "uint256"
        },
        {
          "indexed": false,
          "internalType": "string",
          "name": "offeringDocs",
          "type": "string"
        }
      ],
      "name": "OpenIssue",
      "type": "event"
    },
    {
      "anonymous": false,
      "inputs": [
        {
          "indexed": false,
          "internalType": "bool",
          "name": "paused",
          "type": "bool"
        }
      ],
      "name": "PausedStateChanged",
      "type": "event"
    },
    {
      "anonymous": false,
      "inputs": [
        {
          "indexed": false,
          "internalType": "bool",
          "name": "enabled",
          "type": "bool"
        }
      ],
      "name": "RecoveryModeStateChanged",
      "type": "event"
    },
    {
      "anonymous": false,
      "inputs": [
        {
          "indexed": true,
          "internalType": "address",
          "name": "security",
          "type": "address"
        },
        {
          "indexed": false,
          "internalType": "address",
          "name": "assetIn",
          "type": "address"
        },
        {
          "indexed": false,
          "internalType": "string",
          "name": "assetName",
          "type": "string"
        },
        {
          "indexed": false,
          "internalType": "uint256",
          "name": "amount",
          "type": "uint256"
        },
        {
          "indexed": false,
          "internalType": "address",
          "name": "investor",
          "type": "address"
        },
        {
          "indexed": false,
          "internalType": "uint256",
          "name": "price",
          "type": "uint256"
        }
      ],
      "name": "Subscription",
      "type": "event"
    },
    {
      "anonymous": false,
      "inputs": [
        {
          "indexed": false,
          "internalType": "uint256",
          "name": "swapFeePercentage",
          "type": "uint256"
        }
      ],
      "name": "SwapFeePercentageChanged",
      "type": "event"
    },
    {
      "anonymous": false,
      "inputs": [
        {
          "indexed": true,
          "internalType": "address",
          "name": "from",
          "type": "address"
        },
        {
          "indexed": true,
          "internalType": "address",
          "name": "to",
          "type": "address"
        },
        {
          "indexed": false,
          "internalType": "uint256",
          "name": "value",
          "type": "uint256"
        }
      ],
      "name": "Transfer",
      "type": "event"
    },
    {
      "inputs": [],
      "name": "DOMAIN_SEPARATOR",
      "outputs": [
        {
          "internalType": "bytes32",
          "name": "",
          "type": "bytes32"
        }
      ],
      "stateMutability": "view",
      "type": "function"
    },
    {
      "inputs": [
        {
          "internalType": "address",
          "name": "owner",
          "type": "address"
        },
        {
          "internalType": "address",
          "name": "spender",
          "type": "address"
        }
      ],
      "name": "allowance",
      "outputs": [
        {
          "internalType": "uint256",
          "name": "",
          "type": "uint256"
        }
      ],
      "stateMutability": "view",
      "type": "function"
    },
    {
      "inputs": [
        {
          "internalType": "address",
          "name": "spender",
          "type": "address"
        },
        {
          "internalType": "uint256",
          "name": "amount",
          "type": "uint256"
        }
      ],
      "name": "approve",
      "outputs": [
        {
          "internalType": "bool",
          "name": "",
          "type": "bool"
        }
      ],
      "stateMutability": "nonpayable",
      "type": "function"
    },
    {
      "inputs": [
        {
          "internalType": "address",
          "name": "account",
          "type": "address"
        }
      ],
      "name": "balanceOf",
      "outputs": [
        {
          "internalType": "uint256",
          "name": "",
          "type": "uint256"
        }
      ],
      "stateMutability": "view",
      "type": "function"
    },
    {
      "inputs": [],
      "name": "decimals",
      "outputs": [
        {
          "internalType": "uint8",
          "name": "",
          "type": "uint8"
        }
      ],
      "stateMutability": "view",
      "type": "function"
    },
    {
      "inputs": [
        {
          "internalType": "address",
          "name": "spender",
          "type": "address"
        },
        {
          "internalType": "uint256",
          "name": "amount",
          "type": "uint256"
        }
      ],
      "name": "decreaseAllowance",
      "outputs": [
        {
          "internalType": "bool",
          "name": "",
          "type": "bool"
        }
      ],
      "stateMutability": "nonpayable",
      "type": "function"
    },
    {
      "inputs": [],
      "name": "disableRecoveryMode",
      "outputs": [],
      "stateMutability": "nonpayable",
      "type": "function"
    },
    {
      "inputs": [],
      "name": "enableRecoveryMode",
      "outputs": [],
      "stateMutability": "nonpayable",
      "type": "function"
    },
    {
      "inputs": [],
      "name": "exit",
      "outputs": [],
      "stateMutability": "nonpayable",
      "type": "function"
    },
    {
      "inputs": [
        {
          "internalType": "bytes4",
          "name": "selector",
          "type": "bytes4"
        }
      ],
      "name": "getActionId",
      "outputs": [
        {
          "internalType": "bytes32",
          "name": "",
          "type": "bytes32"
        }
      ],
      "stateMutability": "view",
      "type": "function"
    },
    {
      "inputs": [],
      "name": "getAuthorizer",
      "outputs": [
        {
          "internalType": "contract IAuthorizer",
          "name": "",
          "type": "address"
        }
      ],
      "stateMutability": "view",
      "type": "function"
    },
    {
      "inputs": [],
      "name": "getBptIndex",
      "outputs": [
        {
          "internalType": "uint256",
          "name": "",
          "type": "uint256"
        }
      ],
      "stateMutability": "view",
      "type": "function"
    },
    {
      "inputs": [],
      "name": "getCurrency",
      "outputs": [
        {
          "internalType": "contract IERC20",
          "name": "",
          "type": "address"
        }
      ],
      "stateMutability": "view",
      "type": "function"
    },
    {
      "inputs": [],
      "name": "getCurrencyIndex",
      "outputs": [
        {
          "internalType": "uint256",
          "name": "",
          "type": "uint256"
        }
      ],
      "stateMutability": "view",
      "type": "function"
    },
    {
      "inputs": [],
      "name": "getDomainSeparator",
      "outputs": [
        {
          "internalType": "bytes32",
          "name": "",
          "type": "bytes32"
        }
      ],
      "stateMutability": "view",
      "type": "function"
    },
    {
      "inputs": [],
      "name": "getIssueCutoffTime",
      "outputs": [
        {
          "internalType": "uint256",
          "name": "",
          "type": "uint256"
        }
      ],
      "stateMutability": "view",
      "type": "function"
    },
    {
      "inputs": [],
      "name": "getMaximumPrice",
      "outputs": [
        {
          "internalType": "uint256",
          "name": "",
          "type": "uint256"
        }
      ],
      "stateMutability": "view",
      "type": "function"
    },
    {
      "inputs": [],
      "name": "getMinimumPrice",
      "outputs": [
        {
          "internalType": "uint256",
          "name": "",
          "type": "uint256"
        }
      ],
      "stateMutability": "view",
      "type": "function"
    },
    {
      "inputs": [
        {
          "internalType": "address",
          "name": "account",
          "type": "address"
        }
      ],
      "name": "getNextNonce",
      "outputs": [
        {
          "internalType": "uint256",
          "name": "",
          "type": "uint256"
        }
      ],
      "stateMutability": "view",
      "type": "function"
    },
    {
      "inputs": [],
      "name": "getOwner",
      "outputs": [
        {
          "internalType": "address",
          "name": "",
          "type": "address"
        }
      ],
      "stateMutability": "view",
      "type": "function"
    },
    {
      "inputs": [],
      "name": "getPausedState",
      "outputs": [
        {
          "internalType": "bool",
          "name": "paused",
          "type": "bool"
        },
        {
          "internalType": "uint256",
          "name": "pauseWindowEndTime",
          "type": "uint256"
        },
        {
          "internalType": "uint256",
          "name": "bufferPeriodEndTime",
          "type": "uint256"
        }
      ],
      "stateMutability": "view",
      "type": "function"
    },
    {
      "inputs": [],
      "name": "getPoolId",
      "outputs": [
        {
          "internalType": "bytes32",
          "name": "",
          "type": "bytes32"
        }
      ],
      "stateMutability": "view",
      "type": "function"
    },
    {
      "inputs": [],
      "name": "getProtocolFeesCollector",
      "outputs": [
        {
          "internalType": "contract IProtocolFeesCollector",
          "name": "",
          "type": "address"
        }
      ],
      "stateMutability": "view",
      "type": "function"
    },
    {
      "inputs": [],
      "name": "getScalingFactors",
      "outputs": [
        {
          "internalType": "uint256[]",
          "name": "",
          "type": "uint256[]"
        }
      ],
      "stateMutability": "view",
      "type": "function"
    },
    {
      "inputs": [],
      "name": "getSecurity",
      "outputs": [
        {
          "internalType": "contract IERC20",
          "name": "",
          "type": "address"
        }
      ],
      "stateMutability": "view",
      "type": "function"
    },
    {
      "inputs": [],
      "name": "getSecurityIndex",
      "outputs": [
        {
          "internalType": "uint256",
          "name": "",
          "type": "uint256"
        }
      ],
      "stateMutability": "view",
      "type": "function"
    },
    {
      "inputs": [],
      "name": "getSecurityOffered",
      "outputs": [
        {
          "internalType": "uint256",
          "name": "",
          "type": "uint256"
        }
      ],
      "stateMutability": "view",
      "type": "function"
    },
    {
      "inputs": [],
      "name": "getSwapFeePercentage",
      "outputs": [
        {
          "internalType": "uint256",
          "name": "",
          "type": "uint256"
        }
      ],
      "stateMutability": "view",
      "type": "function"
    },
    {
      "inputs": [],
      "name": "getVault",
      "outputs": [
        {
          "internalType": "contract IVault",
          "name": "",
          "type": "address"
        }
      ],
      "stateMutability": "view",
      "type": "function"
    },
    {
      "inputs": [],
      "name": "inRecoveryMode",
      "outputs": [
        {
          "internalType": "bool",
          "name": "",
          "type": "bool"
        }
      ],
      "stateMutability": "view",
      "type": "function"
    },
    {
      "inputs": [
        {
          "internalType": "address",
          "name": "spender",
          "type": "address"
        },
        {
          "internalType": "uint256",
          "name": "addedValue",
          "type": "uint256"
        }
      ],
      "name": "increaseAllowance",
      "outputs": [
        {
          "internalType": "bool",
          "name": "",
          "type": "bool"
        }
      ],
      "stateMutability": "nonpayable",
      "type": "function"
    },
    {
      "inputs": [],
      "name": "initialize",
      "outputs": [],
      "stateMutability": "nonpayable",
      "type": "function"
    },
    {
      "inputs": [],
      "name": "name",
      "outputs": [
        {
          "internalType": "string",
          "name": "",
          "type": "string"
        }
      ],
      "stateMutability": "view",
      "type": "function"
    },
    {
      "inputs": [
        {
          "internalType": "address",
          "name": "owner",
          "type": "address"
        }
      ],
      "name": "nonces",
      "outputs": [
        {
          "internalType": "uint256",
          "name": "",
          "type": "uint256"
        }
      ],
      "stateMutability": "view",
      "type": "function"
    },
    {
      "inputs": [
        {
          "internalType": "bytes32",
          "name": "poolId",
          "type": "bytes32"
        },
        {
          "internalType": "address",
          "name": "sender",
          "type": "address"
        },
        {
          "internalType": "address",
          "name": "recipient",
          "type": "address"
        },
        {
          "internalType": "uint256[]",
          "name": "balances",
          "type": "uint256[]"
        },
        {
          "internalType": "uint256",
          "name": "lastChangeBlock",
          "type": "uint256"
        },
        {
          "internalType": "uint256",
          "name": "protocolSwapFeePercentage",
          "type": "uint256"
        },
        {
          "internalType": "bytes",
          "name": "userData",
          "type": "bytes"
        }
      ],
      "name": "onExitPool",
      "outputs": [
        {
          "internalType": "uint256[]",
          "name": "",
          "type": "uint256[]"
        },
        {
          "internalType": "uint256[]",
          "name": "",
          "type": "uint256[]"
        }
      ],
      "stateMutability": "nonpayable",
      "type": "function"
    },
    {
      "inputs": [
        {
          "internalType": "bytes32",
          "name": "poolId",
          "type": "bytes32"
        },
        {
          "internalType": "address",
          "name": "sender",
          "type": "address"
        },
        {
          "internalType": "address",
          "name": "recipient",
          "type": "address"
        },
        {
          "internalType": "uint256[]",
          "name": "balances",
          "type": "uint256[]"
        },
        {
          "internalType": "uint256",
          "name": "lastChangeBlock",
          "type": "uint256"
        },
        {
          "internalType": "uint256",
          "name": "protocolSwapFeePercentage",
          "type": "uint256"
        },
        {
          "internalType": "bytes",
          "name": "userData",
          "type": "bytes"
        }
      ],
      "name": "onJoinPool",
      "outputs": [
        {
          "internalType": "uint256[]",
          "name": "",
          "type": "uint256[]"
        },
        {
          "internalType": "uint256[]",
          "name": "",
          "type": "uint256[]"
        }
      ],
      "stateMutability": "nonpayable",
      "type": "function"
    },
    {
      "inputs": [
        {
          "components": [
            {
              "internalType": "enum IVault.SwapKind",
              "name": "kind",
              "type": "uint8"
            },
            {
              "internalType": "contract IERC20",
              "name": "tokenIn",
              "type": "address"
            },
            {
              "internalType": "contract IERC20",
              "name": "tokenOut",
              "type": "address"
            },
            {
              "internalType": "uint256",
              "name": "amount",
              "type": "uint256"
            },
            {
              "internalType": "bytes32",
              "name": "poolId",
              "type": "bytes32"
            },
            {
              "internalType": "uint256",
              "name": "lastChangeBlock",
              "type": "uint256"
            },
            {
              "internalType": "address",
              "name": "from",
              "type": "address"
            },
            {
              "internalType": "address",
              "name": "to",
              "type": "address"
            },
            {
              "internalType": "bytes",
              "name": "userData",
              "type": "bytes"
            }
          ],
          "internalType": "struct IPoolSwapStructs.SwapRequest",
          "name": "request",
          "type": "tuple"
        },
        {
          "internalType": "uint256[]",
          "name": "balances",
          "type": "uint256[]"
        },
        {
          "internalType": "uint256",
          "name": "indexIn",
          "type": "uint256"
        },
        {
          "internalType": "uint256",
          "name": "indexOut",
          "type": "uint256"
        }
      ],
      "name": "onSwap",
      "outputs": [
        {
          "internalType": "uint256",
          "name": "",
          "type": "uint256"
        }
      ],
      "stateMutability": "nonpayable",
      "type": "function"
    },
    {
      "inputs": [],
      "name": "pause",
      "outputs": [],
      "stateMutability": "nonpayable",
      "type": "function"
    },
    {
      "inputs": [
        {
          "internalType": "address",
          "name": "owner",
          "type": "address"
        },
        {
          "internalType": "address",
          "name": "spender",
          "type": "address"
        },
        {
          "internalType": "uint256",
          "name": "value",
          "type": "uint256"
        },
        {
          "internalType": "uint256",
          "name": "deadline",
          "type": "uint256"
        },
        {
          "internalType": "uint8",
          "name": "v",
          "type": "uint8"
        },
        {
          "internalType": "bytes32",
          "name": "r",
          "type": "bytes32"
        },
        {
          "internalType": "bytes32",
          "name": "s",
          "type": "bytes32"
        }
      ],
      "name": "permit",
      "outputs": [],
      "stateMutability": "nonpayable",
      "type": "function"
    },
    {
      "inputs": [
        {
          "internalType": "bytes32",
          "name": "poolId",
          "type": "bytes32"
        },
        {
          "internalType": "address",
          "name": "sender",
          "type": "address"
        },
        {
          "internalType": "address",
          "name": "recipient",
          "type": "address"
        },
        {
          "internalType": "uint256[]",
          "name": "balances",
          "type": "uint256[]"
        },
        {
          "internalType": "uint256",
          "name": "lastChangeBlock",
          "type": "uint256"
        },
        {
          "internalType": "uint256",
          "name": "protocolSwapFeePercentage",
          "type": "uint256"
        },
        {
          "internalType": "bytes",
          "name": "userData",
          "type": "bytes"
        }
      ],
      "name": "queryExit",
      "outputs": [
        {
          "internalType": "uint256",
          "name": "bptIn",
          "type": "uint256"
        },
        {
          "internalType": "uint256[]",
          "name": "amountsOut",
          "type": "uint256[]"
        }
      ],
      "stateMutability": "view",
      "type": "function"
    },
    {
      "inputs": [
        {
          "internalType": "bytes32",
          "name": "poolId",
          "type": "bytes32"
        },
        {
          "internalType": "address",
          "name": "sender",
          "type": "address"
        },
        {
          "internalType": "address",
          "name": "recipient",
          "type": "address"
        },
        {
          "internalType": "uint256[]",
          "name": "balances",
          "type": "uint256[]"
        },
        {
          "internalType": "uint256",
          "name": "lastChangeBlock",
          "type": "uint256"
        },
        {
          "internalType": "uint256",
          "name": "protocolSwapFeePercentage",
          "type": "uint256"
        },
        {
          "internalType": "bytes",
          "name": "userData",
          "type": "bytes"
        }
      ],
      "name": "queryJoin",
      "outputs": [
        {
          "internalType": "uint256",
          "name": "bptOut",
          "type": "uint256"
        },
        {
          "internalType": "uint256[]",
          "name": "amountsIn",
          "type": "uint256[]"
        }
      ],
      "stateMutability": "view",
      "type": "function"
    },
    {
      "inputs": [
        {
          "internalType": "contract IERC20",
          "name": "token",
          "type": "address"
        },
        {
          "internalType": "bytes",
          "name": "poolConfig",
          "type": "bytes"
        }
      ],
      "name": "setAssetManagerPoolConfig",
      "outputs": [],
      "stateMutability": "nonpayable",
      "type": "function"
    },
    {
      "inputs": [
        {
          "internalType": "uint256",
          "name": "swapFeePercentage",
          "type": "uint256"
        }
      ],
      "name": "setSwapFeePercentage",
      "outputs": [],
      "stateMutability": "nonpayable",
      "type": "function"
    },
    {
      "inputs": [],
      "name": "symbol",
      "outputs": [
        {
          "internalType": "string",
          "name": "",
          "type": "string"
        }
      ],
      "stateMutability": "view",
      "type": "function"
    },
    {
      "inputs": [],
      "name": "totalSupply",
      "outputs": [
        {
          "internalType": "uint256",
          "name": "",
          "type": "uint256"
        }
      ],
      "stateMutability": "view",
      "type": "function"
    },
    {
      "inputs": [
        {
          "internalType": "address",
          "name": "recipient",
          "type": "address"
        },
        {
          "internalType": "uint256",
          "name": "amount",
          "type": "uint256"
        }
      ],
      "name": "transfer",
      "outputs": [
        {
          "internalType": "bool",
          "name": "",
          "type": "bool"
        }
      ],
      "stateMutability": "nonpayable",
      "type": "function"
    },
    {
      "inputs": [
        {
          "internalType": "address",
          "name": "sender",
          "type": "address"
        },
        {
          "internalType": "address",
          "name": "recipient",
          "type": "address"
        },
        {
          "internalType": "uint256",
          "name": "amount",
          "type": "uint256"
        }
      ],
      "name": "transferFrom",
      "outputs": [
        {
          "internalType": "bool",
          "name": "",
          "type": "bool"
        }
      ],
      "stateMutability": "nonpayable",
      "type": "function"
    },
    {
      "inputs": [],
      "name": "unpause",
      "outputs": [],
      "stateMutability": "nonpayable",
      "type": "function"
    }
  ],
  "bytecode": "0x6102a06040523480156200001257600080fd5b506040516200505238038062005052833981016040819052620000359162000b10565b846000856000015186602001516200005d88604001518960600151306200047f60201b60201c565b604080516003808252608082019092529060208201606080368337019050508960e00151898989828289898d85336001600160a01b031660001b8480604051806040016040528060018152602001603160f81b81525087878160039080519060200190620000cd929190620009a0565b508051620000e3906004906020840190620009a0565b50506005805460ff19166012179055508151602092830120608052805191012060a052507f8b73c3c69bb8fe3d512ecc4cf759cc79239f7b179b0ffacaa9a75d522b39400f60c05260e0526001600160601b0319606091821b81166101005291901b1661012052506200016190506276a7008311156101946200054e565b6200017562278d008211156101956200054e565b429091016101408190520161016052855162000197906002111560c86200054e565b620001b1620001a562000563565b8751111560c96200054e565b620001c7866200056860201b620014c51760201c565b620001d28462000574565b6040516309b2760f60e01b81526000906001600160a01b038c16906309b2760f9062000203908d9060040162000d2e565b602060405180830381600087803b1580156200021e57600080fd5b505af115801562000233573d6000803e3d6000fd5b505050506040513d601f19601f8201168201806040525081019062000259919062000ad8565b604051633354e3e960e11b81529091506001600160a01b038c16906366a9c7d2906200028e9084908b908b9060040162000c92565b600060405180830381600087803b158015620002a957600080fd5b505af1158015620002be573d6000803e3d6000fd5b505050508061018081815250508a6001600160a01b031663d2946c2b6040518163ffffffff1660e01b815260040160206040518083038186803b1580156200030557600080fd5b505afa1580156200031a573d6000803e3d6000fd5b505050506040513d601f19601f8201168201806040525081019062000340919062000af1565b6001600160a01b03166101a0816001600160a01b031660601b81525050505050505050505050505083604001516001600160a01b03166101c0816001600160a01b031660601b8152505083606001516001600160a01b03166101e0816001600160a01b031660601b815250506000806000620003cc87604001518860600151306200060860201b60201c565b61024083905261026082905261028081905260408a01519295509093509150620003f690620006fe565b6102005260608701516200040a90620006fe565b61022052608087015160095560a0870151600a5560c0870151600b55610100870151600c5542600d5561012087015180516200044f91600e91602090910190620009a0565b5050600f80546001600160a01b0319166001600160a01b0394909416939093179092555062000d95945050505050565b6060600080806200049287878762000608565b6040805160038082526080820190925293965091945092506020820160608036833701905050935086848481518110620004c857fe5b60200260200101906001600160a01b031690816001600160a01b03168152505085848381518110620004f657fe5b60200260200101906001600160a01b031690816001600160a01b031681525050848482815181106200052457fe5b60200260200101906001600160a01b031690816001600160a01b0316815250505050509392505050565b816200055f576200055f81620007d2565b5050565b600390565b806200055f81620007e7565b6200058d6200058262000873565b82101560cb6200054e565b620005a66200059b6200087c565b82111560ca6200054e565b620005c88160c0603f6008546200088860201b620014cf17909392919060201c565b6008556040517fa9ba3ffe0b6c366b81232caab38605a0699ad5398d6cce76f91ee809e322dafc90620005fd90839062000d43565b60405180910390a150565b6000806000846001600160a01b0316866001600160a01b031610156200069157836001600160a01b0316856001600160a01b0316101562000654575060009150600190506002620006f5565b836001600160a01b0316866001600160a01b0316101562000680575060009150600290506001620006f5565b5060019150600290506000620006f5565b846001600160a01b0316846001600160a01b03161015620006bd575060029150600190506000620006f5565b856001600160a01b0316846001600160a01b03161015620006e9575060029150600090506001620006f5565b50600191506000905060025b93509350939050565b60006001600160a01b038216301415620007225750670de0b6b3a7640000620007cd565b6000826001600160a01b031663313ce5676040518163ffffffff1660e01b815260040160206040518083038186803b1580156200075e57600080fd5b505afa15801562000773573d6000803e3d6000fd5b505050506040513d601f19601f8201168201806040525081019062000799919062000c6f565b60ff1690506000620007b8601283620008ad60201b620014f21760201c565b905080600a0a670de0b6b3a764000002925050505b919050565b620007e4816210905360ea1b620008ca565b50565b600281511015620007f857620007e4565b6000816000815181106200080857fe5b602002602001015190506000600190505b82518110156200086e5760008382815181106200083257fe5b6020026020010151905062000863816001600160a01b0316846001600160a01b03161060656200054e60201b60201c565b915060010162000819565b505050565b64e8d4a5100090565b67016345785d8a000090565b6000620008978484846200092b565b506001901b60001901811b1992909216911b1790565b6000620008bf8383111560016200054e565b508082035b92915050565b62461bcd60e51b600090815260206004526007602452600a808404818106603090810160081b958390069590950190829004918206850160101b01602363ffffff0060e086901c160160181b0190930160c81b60445260e882901c90606490fd5b6200093c610100831060646200054e565b62000975600182101580156200096d57506200096960ff84610100036200098660201b620015081760201c565b8211155b60646200054e565b6200086e83821c156101b46200054e565b600081831062000997578162000999565b825b9392505050565b828054600181600116156101000203166002900490600052602060002090601f016020900481019282601f10620009e357805160ff191683800117855562000a13565b8280016001018555821562000a13579182015b8281111562000a13578251825591602001919060010190620009f6565b5062000a2192915062000a25565b5090565b5b8082111562000a21576000815560010162000a26565b8051620008c48162000d7f565b600082601f83011262000a5a578081fd5b81516001600160401b0381111562000a70578182fd5b602062000a86601f8301601f1916820162000d4c565b9250818352848183860101111562000a9d57600080fd5b60005b8281101562000abd57848101820151848201830152810162000aa0565b8281111562000acf5760008284860101525b50505092915050565b60006020828403121562000aea578081fd5b5051919050565b60006020828403121562000b03578081fd5b8151620009998162000d7f565b600080600080600060a0868803121562000b28578081fd5b855162000b358162000d7f565b60208701519095506001600160401b038082111562000b52578283fd5b818801915061014080838b03121562000b69578384fd5b62000b748162000d4c565b905082518281111562000b85578485fd5b62000b938b82860162000a49565b82525060208301518281111562000ba8578485fd5b62000bb68b82860162000a49565b60208301525062000bcb8a6040850162000a3c565b604082015262000bdf8a6060850162000a3c565b60608201526080830151608082015260a083015160a082015260c083015160c082015260e083015160e0820152610100808401518183015250610120808401518381111562000c2c578586fd5b62000c3a8c82870162000a49565b828401525050809650505050604086015192506060860151915062000c63876080880162000a3c565b90509295509295909350565b60006020828403121562000c81578081fd5b815160ff8116811462000999578182fd5b60006060820185835260206060818501528186518084526080860191508288019350845b8181101562000cde5762000ccb855162000d73565b8352938301939183019160010162000cb6565b505084810360408601528551808252908201925081860190845b8181101562000d205762000d0d835162000d73565b8552938301939183019160010162000cf8565b509298975050505050505050565b602081016003831062000d3d57fe5b91905290565b90815260200190565b6040518181016001600160401b038111828210171562000d6b57600080fd5b604052919050565b6001600160a01b031690565b6001600160a01b0381168114620007e457600080fd5b60805160a05160c05160e0516101005160601c6101205160601c6101405161016051610180516101a05160601c6101c05160601c6101e05160601c610200516102205161024051610260516102805161411f62000f3360003980610d055280610e8a528061160252806121c05280612eb35280612f3a525080610cbe5280611040528061138c52806115c1528061249152806124cc528061255c5280612773528061280d5280612a7c5280612ad45280612b145280612bc35280612c29525080610a7e5280610c765280611580528061244c528061250e52806127a652806127e152806128405280612a305280612aa85280612bfd5280612c555280612c885250505080610a3f528061169b528061174652806124055280612919528061293a52806129e95250806108ff5280610dff528061164b52806116fd52806125f852806126435280612664528061272c52806128ce5280612b7c5250806110a4525080610952525080611844525080611820525080610f5c525080610f38525080610ec2525080612240525080612282525080612261525061411f6000f3fe608060405234801561001057600080fd5b50600436106103205760003560e01c806382687a56116101a7578063aaabadc5116100ee578063d5c096c411610097578063e9fad8ee11610071578063e9fad8ee146105d7578063ed24911d146105df578063f1493ee1146105e757610320565b8063d5c096c4146105a9578063dd62ed3e146105bc578063deafd91e146105cf57610320565b8063b7b814fc116100c8578063b7b814fc14610586578063d2946c2b1461058e578063d505accf1461059657610320565b8063aaabadc51461056e578063ac4316cb14610576578063b35056b81461057e57610320565b806390193b7c11610150578063a457c2d71161012a578063a457c2d714610540578063a7488bb714610553578063a9059cbb1461055b57610320565b806390193b7c1461051d57806395c95a4f1461053057806395d89b411461053857610320565b806387ec68171161018157806387ec6817146104fa578063893d20e81461050d5780638d928af81461051557610320565b806382687a56146104d75780638456cb59146104df578063851c1bb3146104e757610320565b8063395093511161026b5780636945c1fd1161021457806374f3b009116101ee57806374f3b0091461049b5780637ecebe00146104bc5780638129fc1c146104cf57610320565b80636945c1fd1461047857806370a082311461048057806372f3824d1461049357610320565b806354a844ba1161024557806354a844ba1461044757806355c676281461044f5780636028bfd41461045757610320565b806339509351146104195780633f4ba83a1461042c57806350dd6ed91461043457610320565b806323b872dd116102cd5780633644e515116102a75780633644e515146103f457806338e9922e146103fc57806338fff2d01461041157610320565b806323b872dd146103b75780632541897f146103ca578063313ce567146103df57610320565b806318160ddd116102fe57806318160ddd146103835780631c0de0511461038b5780631dd746ea146103a257610320565b806301ec954a1461032557806306fdde031461034e578063095ea7b314610363575b600080fd5b610338610333366004613985565b6105ef565b6040516103459190613d5b565b60405180910390f35b61035661079c565b6040516103459190613ea8565b610376610371366004613665565b610832565b6040516103459190613d38565b610338610849565b61039361084f565b60405161034593929190613d43565b6103aa610878565b6040516103459190613d00565b6103766103c53660046135b5565b610887565b6103d26108fd565b6040516103459190613cad565b6103e7610921565b6040516103459190614007565b61033861092a565b61040f61040a366004613aa4565b610934565b005b610338610950565b610376610427366004613665565b610974565b61040f6109af565b61040f61044236600461387b565b6109c3565b61040f6109e1565b6103386109f3565b61046a61046536600461377c565b610a06565b604051610345929190613f29565b6103d2610a3d565b61033861048e366004613561565b610a61565b610338610a7c565b6104ae6104a936600461377c565b610aa0565b604051610345929190613d13565b6103386104ca366004613561565b610ba3565b61040f610bae565b610338610e88565b61040f610eac565b6103386104f536600461381f565b610ebe565b61046a61050836600461377c565b610f10565b6103d2610f36565b6103d2610f5a565b61033861052b366004613561565b610f7e565b610338610f99565b610356610f9f565b61037661054e366004613665565b611000565b61033861103e565b610376610569366004613665565b611062565b6103d261106f565b610338611079565b61037661107f565b61040f611090565b6103d26110a2565b61040f6105a43660046135f5565b6110c6565b6104ae6105b736600461377c565b611151565b6103386105ca36600461357d565b611274565b6103386112b1565b61040f6112b7565b6103386114b5565b6103386114bf565b6000846080015161061c610601610f5a565b6001600160a01b0316336001600160a01b03161460cd61151e565b610631610627610950565b82146101f461151e565b61063961152c565b42610648600d54600c5461153f565b1015610689576040517f08c379a000000000000000000000000000000000000000000000000000000000815260040161068090613ef2565b60405180910390fd5b606061069361154f565b905061069d6133e6565b60405180606001604052806106b06109f3565b81526009546020820152600a5460409091015290506000885160018111156106d457fe5b1415610736576106fb88606001518388815181106106ee57fe5b602002602001015161163b565b6060890152600061070d898984611647565b905061072c8184888151811061071f57fe5b60200260200101516116ed565b9450505050610793565b60018851600181111561074557fe5b14156107905761075f88606001518387815181106106ee57fe5b606089015260006107718989846116f9565b905061072c8184898151811061078357fe5b602002602001015161178d565b50505b50949350505050565b60038054604080516020601f60026000196101006001881615020190951694909404938401819004810282018101909252828152606093909290918301828280156108285780601f106107fd57610100808354040283529160200191610828565b820191906000526020600020905b81548152906001019060200180831161080b57829003601f168201915b5050505050905090565b600061083f338484611799565b5060015b92915050565b60025490565b600080600061085c611801565b15925061086761181e565b9150610871611842565b9050909192565b606061088261154f565b905090565b6000806108948533611274565b90506108b8336001600160a01b03871614806108b05750838210155b61019e61151e565b6108c3858585611866565b336001600160a01b038616148015906108de57506000198114155b156108f0576108f08533858403611799565b60019150505b9392505050565b7f000000000000000000000000000000000000000000000000000000000000000090565b60055460ff1690565b60006108826114b5565b61093c611946565b61094461152c565b61094d8161198c565b50565b7f000000000000000000000000000000000000000000000000000000000000000090565b3360008181526001602090815260408083206001600160a01b0387168452909152812054909161083f9185906109aa9086611a05565b611799565b6109b7611946565b6109c16000611a17565b565b6109cb611946565b6109d361152c565b6109dd8282611aa8565b5050565b6109e9611946565b6109c16001611bb6565b6008546000906108829060c0603f611c0d565b60006060610a1c8651610a17611c1c565b611c21565b610a3189898989898989611c2e611c88611cf7565b97509795505050505050565b7f000000000000000000000000000000000000000000000000000000000000000090565b6001600160a01b031660009081526020819052604090205490565b7f000000000000000000000000000000000000000000000000000000000000000090565b60608088610aaf610601610f5a565b610aba610627610950565b60606000610ac786611e8e565b15610aef57610ad4611ebd565b610ae689610ae0610849565b88611ed0565b92509050610b41565b610af7611efc565b6060610b0161154f565b9050610b0d8a82611f04565b610b318d8d8d8d8d610b1d61107f565b610b27578d610b2a565b60005b878e611c2e565b93509150610b3f8382611c88565b505b610b4b8b82611f6d565b81895167ffffffffffffffff81118015610b6457600080fd5b50604051908082528060200260200182016040528015610b8e578160200160208202803683370190505b509450945050505b5097509795505050505050565b600061084382610f7e565b6000610bb8610950565b90506000610bc4610f5a565b90506060816001600160a01b031663f94d4668846040518263ffffffff1660e01b8152600401610bf49190613d5b565b60006040518083038186803b158015610c0c57600080fd5b505afa158015610c20573d6000803e3d6000fd5b505050506040513d6000823e601f3d908101601f19168201604052610c489190810190613690565b50506040805160038082526080820190925291925060609190602082018380368337019050509050600b54817f000000000000000000000000000000000000000000000000000000000000000081518110610c9f57fe5b602002602001018181525050610cbb600b546009546000611f77565b817f000000000000000000000000000000000000000000000000000000000000000081518110610ce757fe5b6020026020010181815250506dffffffffffffffffffffffffffff817f000000000000000000000000000000000000000000000000000000000000000081518110610d2e57fe5b602002602001018181525050610d42613407565b6040518060800160405280610d5685611f9f565b8152602001838152602001600084604051602001610d75929190613e85565b6040516020818303038152906040528152602001600015158152509050836001600160a01b031663b95cac28610da9610950565b3030856040518563ffffffff1660e01b8152600401610dcb9493929190613d83565b600060405180830381600087803b158015610de557600080fd5b505af1158015610df9573d6000803e3d6000fd5b505050507f00000000000000000000000000000000000000000000000000000000000000006001600160a01b03167f9fbc4e74e2605311737d774e7265d8cd603e41f7dc5badb7676b2bcaa330a4c2600954600a5485600181518110610e5b57fe5b6020026020010151600c54600e604051610e79959493929190613f42565b60405180910390a25050505050565b7f000000000000000000000000000000000000000000000000000000000000000090565b610eb4611946565b6109c16001611a17565b60007f000000000000000000000000000000000000000000000000000000000000000082604051602001610ef3929190613c37565b604051602081830303815290604052805190602001209050919050565b60006060610f218651610a17611c1c565b610a3189898989898989611fa2611fbe611cf7565b7f000000000000000000000000000000000000000000000000000000000000000090565b7f000000000000000000000000000000000000000000000000000000000000000090565b6001600160a01b031660009081526006602052604090205490565b600b5490565b60048054604080516020601f60026000196101006001881615020190951694909404938401819004810282018101909252828152606093909290918301828280156108285780601f106107fd57610100808354040283529160200191610828565b60008061100d3385611274565b90508083106110275761102233856000611799565b611034565b6110343385858403611799565b5060019392505050565b7f000000000000000000000000000000000000000000000000000000000000000090565b600061083f338484611866565b6000610882612027565b60095490565b6008546000906108829060ff6120a1565b611098611946565b6109c16000611bb6565b7f000000000000000000000000000000000000000000000000000000000000000090565b60007f6e71edae12b1b97f4d1f60370fef10105fa2faae0126114a169c64845d6126c98888886110f58c610f7e565b8960405160200161110b96959493929190613dbf565b60405160208183030381529060405280519060200120905061113c88826111338787876120ab565b886101f86120ea565b611147888888611799565b5050505050505050565b60608088611160610601610f5a565b61116b610627610950565b611173611efc565b606061117d61154f565b9050611187610849565b611234576000606061119c8d8d8d868b612141565b915091506111b56111ab612202565b83101560cc61151e565b6111c760006111c2612202565b612207565b6111da8b6111d3612202565b8403612207565b6111e48184611fbe565b808a5167ffffffffffffffff811180156111fd57600080fd5b50604051908082528060200260200182016040528015611227578160200160208202803683370190505b5095509550505050610b96565b61123e8882611f04565b600060606112668d8d8d8d8d61125261107f565b61125c578d61125f565b60005b898e611fa2565b915091506111da8b83612207565b600061127e610f5a565b6001600160a01b0316826001600160a01b031614156112a05750600019610843565b6112aa8383612211565b9050610843565b600a5490565b60006112c1610950565b905060006112cd610f5a565b90506060816001600160a01b031663f94d4668846040518263ffffffff1660e01b81526004016112fd9190613d5b565b60006040518083038186803b15801561131557600080fd5b505afa158015611329573d6000803e3d6000fd5b505050506040513d6000823e601f3d908101601f191682016040526113519190810190613690565b50506040805160038082526080820190925291925060609190602082018380368337019050509050611389600b54600a546000611f77565b817f0000000000000000000000000000000000000000000000000000000000000000815181106113b557fe5b6020026020010181815250506113c9613407565b60405180608001604052806113dd85611f9f565b815260200183815260200160016dffffffffffffffffffffffffffff60405160200161140a929190613e6d565b60408051601f19818403018152918152908252600060209290920191909152600f5490517f8bdb39130000000000000000000000000000000000000000000000000000000081529192506001600160a01b0380871692638bdb39139261147c928a923092909116908790600401613d83565b600060405180830381600087803b15801561149657600080fd5b505af11580156114aa573d6000803e3d6000fd5b505050505050505050565b600061088261223c565b600c5490565b806109dd816122d9565b60006114dc848484612357565b506001901b60001901811b1992909216911b1790565b600061150283831115600161151e565b50900390565b600081831061151757816108f6565b5090919050565b816109dd576109dd8161239e565b6109c1611537611801565b61019261151e565b8181018281101561084357600080fd5b60408051600380825260808201909252606091829190602082018380368337019050509050670de0b6b3a7640000817f0000000000000000000000000000000000000000000000000000000000000000815181106115a957fe5b602002602001018181525050670de0b6b3a7640000817f0000000000000000000000000000000000000000000000000000000000000000815181106115ea57fe5b602002602001018181525050670de0b6b3a7640000817f00000000000000000000000000000000000000000000000000000000000000008151811061162b57fe5b6020908102919091010152905090565b60006108f683836123c8565b60007f00000000000000000000000000000000000000000000000000000000000000006001600160a01b031684602001516001600160a01b03161415611699576116928484846123fe565b90506108f6565b7f00000000000000000000000000000000000000000000000000000000000000006001600160a01b031684602001516001600160a01b031614156116e257611692848484612725565b6108f661013561239e565b60006108f68383612991565b60007f00000000000000000000000000000000000000000000000000000000000000006001600160a01b031684604001516001600160a01b03161415611744576116928484846129e2565b7f00000000000000000000000000000000000000000000000000000000000000006001600160a01b031684604001516001600160a01b031614156116e257611692848484612b75565b60006108f68383612cdb565b6001600160a01b0380841660008181526001602090815260408083209487168084529490915290819020849055517f8c5be1e5ebec7d5bd14f71427d1e84f3dd0314c0f7b2291e5b200ac8c7c3b925906117f4908590613d5b565b60405180910390a3505050565b600061180b611842565b42118061088257505060075460ff161590565b7f000000000000000000000000000000000000000000000000000000000000000090565b7f000000000000000000000000000000000000000000000000000000000000000090565b61187d6001600160a01b038416151561019861151e565b6118946001600160a01b038316151561019961151e565b61189f838383612352565b6001600160a01b0383166000908152602081905260409020546118c590826101a0612d29565b6001600160a01b0380851660009081526020819052604080822093909355908416815220546118f49082611a05565b6001600160a01b0380841660008181526020819052604090819020939093559151908516907fddf252ad1be2c89b69c2b068fc378daa952ba7f163c4a11628f55a4df523b3ef906117f4908590613d5b565b60006119756000357fffffffff0000000000000000000000000000000000000000000000000000000016610ebe565b905061094d6119848233612d3f565b61019161151e565b6119a1611997612e28565b82101560cb61151e565b6119b66119ac612e31565b82111560ca61151e565b6008546119c7908260c0603f6114cf565b6008556040517fa9ba3ffe0b6c366b81232caab38605a0699ad5398d6cce76f91ee809e322dafc906119fa908390613d5b565b60405180910390a150565b60008282016108f6848210158361151e565b8015611a3757611a32611a2861181e565b421061019361151e565b611a4c565b611a4c611a42611842565b42106101a961151e565b600780547fffffffffffffffffffffffffffffffffffffffffffffffffffffffffffffff00168215151790556040517f9e3a5e37224532dea67b89face185703738a228a6e8a23dee546960180d3be64906119fa908390613d38565b6000611ab2610950565b90506000611abe610f5a565b6001600160a01b031663b05f8e4883866040518363ffffffff1660e01b8152600401611aeb929190613e38565b60806040518083038186803b158015611b0357600080fd5b505afa158015611b17573d6000803e3d6000fd5b505050506040513d601f19601f82011682018060405250810190611b3b9190613abc565b6040517f18e736d40000000000000000000000000000000000000000000000000000000081529094506001600160a01b03851693506318e736d49250611b88915085908790600401613e1f565b600060405180830381600087803b158015611ba257600080fd5b505af1158015611147573d6000803e3d6000fd5b600854611bc5908260ff612e3d565b6008556040517feff3d4d215b42bf0960be9c6d5e05c22cba4df6627a3a523e2acee733b5854c890611bf8908390613d38565b60405180910390a18061094d5761094d6109c1565b6001901b6000190191901c1690565b600390565b6109dd818314606761151e565b600060606000611c3d84612e64565b90506001816001811115611c4d57fe5b14611c6257611c5d61016261239e565b611c7a565b611c6a612e7a565b611c748885612e8e565b90935091505b509850989650505050505050565b81518151611c97908290611c21565b60005b81811015611cf157611cd2848281518110611cb157fe5b6020026020010151848381518110611cc557fe5b6020026020010151612991565b848281518110611cde57fe5b6020908102919091010152600101611c9a565b50505050565b333014611de6576000306001600160a01b0316600036604051611d1b929190613c67565b6000604051808303816000865af19150503d8060008114611d58576040519150601f19603f3d011682016040523d82523d6000602084013e611d5d565b606091505b505090508060008114611d6c57fe5b60046000803e6000517fffffffff00000000000000000000000000000000000000000000000000000000167f43adbafb000000000000000000000000000000000000000000000000000000008114611dc8573d6000803e3d6000fd5b506020600460003e604060205260243d03602460403e601c3d016000f35b611dee611efc565b6060611df861154f565b9050611e048782611f04565b60006060611e1c8c8c8c8c8c8c898d8d63ffffffff16565b91509150611e2e81848663ffffffff16565b8051601f1982018390526343adbafb7fffffffffffffffffffffffffffffffffffffffffffffffffffffffffffffffc08301526020027fffffffffffffffffffffffffffffffffffffffffffffffffffffffffffffffdc82016044820181fd5b6000808251118015610843575060ff801682806020019051810190611eb39190613afc565b60ff161492915050565b6109c1611ec861107f565b6101b661151e565b600060606000611edf84612f9e565b90506060611eee878784612fb4565b919791965090945050505050565b6109c161152c565b81518151611f13908290611c21565b60005b81811015611cf157611f4e848281518110611f2d57fe5b6020026020010151848381518110611f4157fe5b60200260200101516123c8565b848281518110611f5a57fe5b6020908102919091010152600101611f16565b6109dd828261304d565b600081611f8d57611f888484613119565b611f97565b611f978484613139565b949350505050565b90565b60006060611fb161016261239e565b9850989650505050505050565b81518151611fcd908290611c21565b60005b81811015611cf157612008848281518110611fe757fe5b6020026020010151848381518110611ffb57fe5b6020026020010151612cdb565b84828151811061201457fe5b6020908102919091010152600101611fd0565b6000612031610f5a565b6001600160a01b031663aaabadc56040518163ffffffff1660e01b815260040160206040518083038186803b15801561206957600080fd5b505afa15801561207d573d6000803e3d6000fd5b505050506040513d601f19601f82011682018060405250810190610882919061385f565b1c60019081161490565b60408051604180825260808201909252606091829190602082018180368337019050509050836020820152826040820152846060820153949350505050565b60006120f58561316c565b905061210b612105878387613188565b8361151e565b61211a428410156101b861151e565b5050506001600160a01b039092166000908152600660205260409020805460010190555050565b6000606061214d61152c565b6121646001600160a01b038716301461015661151e565b61217b6001600160a01b038616301461015661151e565b604080516003808252608082019092526dffffffffffffffffffffffffffff91606091906020820183803683370190505090506dffffffffffffffffffffffffffff817f0000000000000000000000000000000000000000000000000000000000000000815181106121e957fe5b6020908102919091010152909890975095505050505050565b600090565b6109dd8282613237565b6001600160a01b03918216600090815260016020908152604080832093909416825291909152205490565b60007f00000000000000000000000000000000000000000000000000000000000000007f00000000000000000000000000000000000000000000000000000000000000007f00000000000000000000000000000000000000000000000000000000000000006122a96132ca565b306040516020016122be959493929190613df3565b60405160208183030381529060405280519060200120905090565b6002815110156122e85761094d565b6000816000815181106122f757fe5b602002602001015190506000600190505b825181101561235257600083828151811061231f57fe5b60200260200101519050612348816001600160a01b0316846001600160a01b031610606561151e565b9150600101612308565b505050565b6123666101008310606461151e565b61238f60018210158015612388575061238460ff8461010003611508565b8211155b606461151e565b61235283821c156101b461151e565b61094d817f42414c00000000000000000000000000000000000000000000000000000000006132ce565b60008282026123ec8415806123e55750838583816123e257fe5b04145b600361151e565b670de0b6b3a764000090049392505050565b60006124447f00000000000000000000000000000000000000000000000000000000000000006001600160a01b031685604001516001600160a01b03161461013561151e565b6000612487847f00000000000000000000000000000000000000000000000000000000000000008151811061247557fe5b60200260200101518660600151611a05565b90506000612552857f0000000000000000000000000000000000000000000000000000000000000000815181106124ba57fe5b602002602001015161254d61250b85897f0000000000000000000000000000000000000000000000000000000000000000815181106124f557fe5b602002602001015161299190919063ffffffff16565b887f00000000000000000000000000000000000000000000000000000000000000008151811061253757fe5b60200260200101516123c890919063ffffffff16565b6114f2565b90506000612593867f00000000000000000000000000000000000000000000000000000000000000008151811061258557fe5b6020026020010151836114f2565b60208601519091506125a58285612991565b101580156125c0575060408501516125bd8285612991565b11155b6125f6576040517f08c379a000000000000000000000000000000000000000000000000000000000815260040161068090613ebb565b7f00000000000000000000000000000000000000000000000000000000000000006001600160a01b03167fcf6f98f0568a50d4e3d60b183f01e307f5011e8140f842a5a855df40d80918bb7f00000000000000000000000000000000000000000000000000000000000000007f00000000000000000000000000000000000000000000000000000000000000006001600160a01b03166306fdde036040518163ffffffff1660e01b815260040160006040518083038186803b1580156126bb57600080fd5b505afa1580156126cf573d6000803e3d6000fd5b505050506040513d6000823e601f3d908101601f191682016040526126f79190810190613912565b8a606001518b60c0015187604051612713959493929190613cc1565b60405180910390a25095945050505050565b600061276b7f00000000000000000000000000000000000000000000000000000000000000006001600160a01b031685604001516001600160a01b03161461013561151e565b600061279c847f00000000000000000000000000000000000000000000000000000000000000008151811061247557fe5b90506000612836857f0000000000000000000000000000000000000000000000000000000000000000815181106127cf57fe5b602002602001015161254d61280a85897f0000000000000000000000000000000000000000000000000000000000000000815181106124f557fe5b887f00000000000000000000000000000000000000000000000000000000000000008151811061253757fe5b90506000612869867f00000000000000000000000000000000000000000000000000000000000000008151811061258557fe5b602086015190915061287b8483612991565b10158015612896575060408501516128938483612991565b11155b6128cc576040517f08c379a000000000000000000000000000000000000000000000000000000000815260040161068090613ebb565b7f00000000000000000000000000000000000000000000000000000000000000006001600160a01b03167fcf6f98f0568a50d4e3d60b183f01e307f5011e8140f842a5a855df40d80918bb7f00000000000000000000000000000000000000000000000000000000000000007f00000000000000000000000000000000000000000000000000000000000000006001600160a01b03166306fdde036040518163ffffffff1660e01b815260040160006040518083038186803b1580156126bb57600080fd5b60006129a0821515600461151e565b826129ad57506000610843565b670de0b6b3a7640000838102906129d0908583816129c757fe5b0414600561151e565b8281816129d957fe5b04915050610843565b6000612a287f00000000000000000000000000000000000000000000000000000000000000006001600160a01b031685602001516001600160a01b03161461013561151e565b6000612a6b847f000000000000000000000000000000000000000000000000000000000000000081518110612a5957fe5b602002602001015186606001516114f2565b90506000612b0a612ad1612aa584887f0000000000000000000000000000000000000000000000000000000000000000815181106124f557fe5b877f00000000000000000000000000000000000000000000000000000000000000008151811061253757fe5b867f000000000000000000000000000000000000000000000000000000000000000081518110612afd57fe5b60200260200101516114f2565b90506000612b4b867f000000000000000000000000000000000000000000000000000000000000000081518110612b3d57fe5b602002602001015183611a05565b6020860151909150612b5d8285612991565b10158015612896575060408501516128938285612991565b6000612bbb7f00000000000000000000000000000000000000000000000000000000000000006001600160a01b031685602001516001600160a01b03161461013561151e565b6000612bec847f000000000000000000000000000000000000000000000000000000000000000081518110612a5957fe5b90506000612c7e612c52612c2684887f0000000000000000000000000000000000000000000000000000000000000000815181106124f557fe5b877f00000000000000000000000000000000000000000000000000000000000000008151811061253757fe5b867f000000000000000000000000000000000000000000000000000000000000000081518110612afd57fe5b90506000612cb1867f000000000000000000000000000000000000000000000000000000000000000081518110612b3d57fe5b6020860151909150612cc38483612991565b101580156125c0575060408501516125bd8483612991565b6000612cea821515600461151e565b82612cf757506000610843565b670de0b6b3a764000083810290612d11908583816129c757fe5b826001820381612d1d57fe5b04600101915050610843565b6000612d38848411158361151e565b5050900390565b600073ba1ba1ba1ba1ba1ba1ba1ba1ba1ba1ba1ba1ba1b612d5e610f36565b6001600160a01b031614158015612d795750612d7983613349565b15612da157612d86610f36565b6001600160a01b0316336001600160a01b0316149050610843565b612da9612027565b6001600160a01b0316639be2a8848484306040518463ffffffff1660e01b8152600401612dd893929190613d64565b60206040518083038186803b158015612df057600080fd5b505afa158015612e04573d6000803e3d6000fd5b505050506040513d601f19601f820116820180604052508101906112aa919061375c565b64e8d4a5100090565b67016345785d8a000090565b60006001821b1984168284612e53576000612e56565b60015b60ff16901b17949350505050565b60008180602001905181019061084391906138c9565b6109c1612e85611801565b156101af61151e565b600060606000612e9d846133b7565b90506000612ee382612edc612eb0610849565b897f000000000000000000000000000000000000000000000000000000000000000081518110612afd57fe5b6000611f77565b90506060865167ffffffffffffffff81118015612eff57600080fd5b50604051908082528060200260200182016040528015612f29578160200160208202803683370190505b50905060005b8751811015612f90577f00000000000000000000000000000000000000000000000000000000000000008114612f8857612f6f8389838151811061253757fe5b828281518110612f7b57fe5b6020026020010181815250505b600101612f2f565b509196919550909350505050565b6000818060200190518101906108f69190613b18565b60606000612fc28385612991565b9050845167ffffffffffffffff81118015612fdc57600080fd5b50604051908082528060200260200182016040528015613006578160200160208202803683370190505b50915060005b8551811015613044576130258287838151811061253757fe5b83828151811061303157fe5b602090810291909101015260010161300c565b50509392505050565b6130646001600160a01b038316151561019b61151e565b61307082600083612352565b6001600160a01b03821660009081526020819052604090205461309690826101b2612d29565b6001600160a01b0383166000908152602081905260409020556130c96130c4826130be610849565b906133cd565b6133db565b60006001600160a01b0316826001600160a01b03167fddf252ad1be2c89b69c2b068fc378daa952ba7f163c4a11628f55a4df523b3ef8360405161310d9190613d5b565b60405180910390a35050565b6000613128821515600461151e565b81838161313157fe5b049392505050565b6000613148821515600461151e565b8261315557506000610843565b81600184038161316157fe5b046001019050610843565b600061317661223c565b82604051602001610ef3929190613c77565b600061319a82516041146101b961151e565b60208281015160408085015160608601518251600080825295019283905292939092811a916001906131d3908990859088908890613e4f565b6020604051602081039080840390855afa1580156131f5573d6000803e3d6000fd5b5050604051601f1901519150506001600160a01b0381161580159061322b5750876001600160a01b0316816001600160a01b0316145b98975050505050505050565b61324360008383612352565b6132586130c482613252610849565b90611a05565b6001600160a01b03821660009081526020819052604090205461327b9082611a05565b6001600160a01b0383166000818152602081905260408082209390935591519091907fddf252ad1be2c89b69c2b068fc378daa952ba7f163c4a11628f55a4df523b3ef9061310d908590613d5b565b4690565b7f08c379a000000000000000000000000000000000000000000000000000000000600090815260206004526007602452600a808404818106603090810160081b958390069590950190829004918206850160101b01602363ffffff0060e086901c160160181b0190930160c81b60445260e882901c90606490fd5b60006133747f38e9922e00000000000000000000000000000000000000000000000000000000610ebe565b8214806133a857506133a57f50dd6ed900000000000000000000000000000000000000000000000000000000610ebe565b82145b806108435750610843826133e0565b6000818060200190518101906108f691906138e5565b60006108f683836001612d29565b600255565b50600090565b60405180606001604052806000815260200160008152602001600081525090565b60405180608001604052806060815260200160608152602001606081526020016000151581525090565b8035610843816140b8565b600082601f83011261344c578081fd5b813561345f61345a8261403c565b614015565b81815291506020808301908481018184028601820187101561348057600080fd5b60005b8481101561349f57813584529282019290820190600101613483565b505050505092915050565b600082601f8301126134ba578081fd5b81516134c861345a8261403c565b8181529150602080830190848101818402860182018710156134e957600080fd5b60005b8481101561349f578151845292820192908201906001016134ec565b600082601f830112613518578081fd5b813561352661345a8261405c565b915080825283602082850101111561353d57600080fd5b8060208401602084013760009082016020015292915050565b8035610843816140cd565b600060208284031215613572578081fd5b81356108f6816140b8565b6000806040838503121561358f578081fd5b823561359a816140b8565b915060208301356135aa816140b8565b809150509250929050565b6000806000606084860312156135c9578081fd5b83356135d4816140b8565b925060208401356135e4816140b8565b929592945050506040919091013590565b600080600080600080600060e0888a03121561360f578283fd5b873561361a816140b8565b9650602088013561362a816140b8565b955060408801359450606088013593506080880135613648816140da565b9699959850939692959460a0840135945060c09093013592915050565b60008060408385031215613677578182fd5b8235613682816140b8565b946020939093013593505050565b6000806000606084860312156136a4578081fd5b835167ffffffffffffffff808211156136bb578283fd5b818601915086601f8301126136ce578283fd5b81516136dc61345a8261403c565b80828252602080830192508086018b8283870289010111156136fc578788fd5b8796505b84871015613727578051613713816140b8565b845260019690960195928101928101613700565b50890151909750935050508082111561373e578283fd5b5061374b868287016134aa565b925050604084015190509250925092565b60006020828403121561376d578081fd5b815180151581146108f6578182fd5b600080600080600080600060e0888a031215613796578081fd5b8735965060208801356137a8816140b8565b955060408801356137b8816140b8565b9450606088013567ffffffffffffffff808211156137d4578283fd5b6137e08b838c0161343c565b955060808a0135945060a08a0135935060c08a0135915080821115613803578283fd5b506138108a828b01613508565b91505092959891949750929550565b600060208284031215613830578081fd5b81357fffffffff00000000000000000000000000000000000000000000000000000000811681146108f6578182fd5b600060208284031215613870578081fd5b81516108f6816140b8565b6000806040838503121561388d578182fd5b8235613898816140b8565b9150602083013567ffffffffffffffff8111156138b3578182fd5b6138bf85828601613508565b9150509250929050565b6000602082840312156138da578081fd5b81516108f6816140cd565b600080604083850312156138f7578182fd5b8251613902816140cd565b6020939093015192949293505050565b600060208284031215613923578081fd5b815167ffffffffffffffff811115613939578182fd5b8201601f81018413613949578182fd5b805161395761345a8261405c565b81815285602083850101111561396b578384fd5b61397c82602083016020860161408c565b95945050505050565b6000806000806080858703121561399a578182fd5b843567ffffffffffffffff808211156139b1578384fd5b818701915061012080838a0312156139c7578485fd5b6139d081614015565b90506139dc8984613556565b81526139eb8960208501613431565b60208201526139fd8960408501613431565b6040820152606083013560608201526080830135608082015260a083013560a0820152613a2d8960c08501613431565b60c0820152613a3f8960e08501613431565b60e08201526101008084013583811115613a57578687fd5b613a638b828701613508565b828401525050809650506020870135915080821115613a80578384fd5b50613a8d8782880161343c565b949794965050505060408301359260600135919050565b600060208284031215613ab5578081fd5b5035919050565b60008060008060808587031215613ad1578182fd5b8451935060208501519250604085015191506060850151613af1816140b8565b939692955090935050565b600060208284031215613b0d578081fd5b81516108f6816140da565b60008060408385031215613b2a578182fd5b8251613902816140da565b6000815180845260208085019450808401835b83811015613b6457815187529582019590820190600101613b48565b509495945050505050565b15159052565b60008151808452613b8d81602086016020860161408c565b601f01601f19169290920160200192915050565b8051608080845281519084018190526000916020919082019060a0860190845b81811015613be65783516001600160a01b031683529284019291840191600101613bc1565b505082850151915085810383870152613bff8183613b35565b9250505060408301518482036040860152613c1a8282613b75565b9150506060830151613c2f6060860182613b6f565b509392505050565b9182527fffffffff0000000000000000000000000000000000000000000000000000000016602082015260240190565b6000828483379101908152919050565b7f190100000000000000000000000000000000000000000000000000000000000081526002810192909252602282015260420190565b6001600160a01b0391909116815260200190565b60006001600160a01b03808816835260a06020840152613ce460a0840188613b75565b6040840196909652939093166060820152608001525092915050565b6000602082526108f66020830184613b35565b600060408252613d266040830185613b35565b828103602084015261397c8185613b35565b901515815260200190565b92151583526020830191909152604082015260600190565b90815260200190565b9283526001600160a01b03918216602084015216604082015260600190565b60008582526001600160a01b03808616602084015280851660408401525060806060830152613db56080830184613ba1565b9695505050505050565b9586526001600160a01b0394851660208701529290931660408501526060840152608083019190915260a082015260c00190565b9485526020850193909352604084019190915260608301526001600160a01b0316608082015260a00190565b600083825260406020830152611f976040830184613b75565b9182526001600160a01b0316602082015260400190565b93845260ff9290921660208401526040830152606082015260800190565b6040810160028410613e7b57fe5b9281526020015290565b600060048410613e9157fe5b83825260406020830152611f976040830184613b35565b6000602082526108f66020830184613b75565b60208082526012908201527f5072696365206f7574206f6620626f756e640000000000000000000000000000604082015260600190565b6020808252600e908201527f54696d654c696d6974204f766572000000000000000000000000000000000000604082015260600190565b600083825260406020830152611f976040830184613b35565b600060a082018783526020878185015286604085015285606085015260a06080850152828554600180821660008114613f825760018114613fbe57613ff6565b607f600284041686527fffffffffffffffffffffffffffffffffffffffffffffffffffffffffffffff00831660c089015260e088019350613ff6565b60028304808752613fce8a614080565b885b82811015613fec5781548b820160c00152908401908701613fd0565b8a0160c001955050505b50919b9a5050505050505050505050565b60ff91909116815260200190565b60405181810167ffffffffffffffff8111828210171561403457600080fd5b604052919050565b600067ffffffffffffffff821115614052578081fd5b5060209081020190565b600067ffffffffffffffff821115614072578081fd5b50601f01601f191660200190565b60009081526020902090565b60005b838110156140a757818101518382015260200161408f565b83811115611cf15750506000910152565b6001600160a01b038116811461094d57600080fd5b6002811061094d57600080fd5b60ff8116811461094d57600080fdfea264697066735822122098021fab6fe9c3bf7bf1138aa4c53c951569d7d2ab2bd1ccb1544e4b63beb7ae64736f6c63430007010033",
  "linkReferences": {},
  "deployedLinkReferences": {}
}