{
  "contractName": "PrimaryIssuePool",
  "abi": [
    {
      "inputs": [
        {
          "components": [
            {
              "internalType": "contract IVault",
              "name": "vault",
              "type": "address"
            },
            {
              "internalType": "string",
              "name": "name",
              "type": "string"
            },
            {
              "internalType": "string",
              "name": "symbol",
              "type": "string"
            },
            {
              "internalType": "contract IERC20",
              "name": "security",
              "type": "address"
            },
            {
              "internalType": "contract IERC20",
              "name": "currency",
              "type": "address"
            },
            {
              "internalType": "address[]",
              "name": "assetManagers",
              "type": "address[]"
            },
            {
              "internalType": "uint256",
              "name": "minimumPrice",
              "type": "uint256"
            },
            {
              "internalType": "uint256",
              "name": "basePrice",
              "type": "uint256"
            },
            {
              "internalType": "uint256",
              "name": "maxSecurityOffered",
              "type": "uint256"
            },
            {
              "internalType": "uint256",
              "name": "issueFeePercentage",
              "type": "uint256"
            },
            {
              "internalType": "uint256",
              "name": "pauseWindowDuration",
              "type": "uint256"
            },
            {
              "internalType": "uint256",
              "name": "bufferPeriodDuration",
              "type": "uint256"
            },
            {
              "internalType": "uint256",
              "name": "issueCutoffTime",
              "type": "uint256"
            },
            {
              "internalType": "address",
              "name": "owner",
              "type": "address"
            }
          ],
          "internalType": "struct PrimaryIssuePool.NewPoolParams",
          "name": "params",
          "type": "tuple"
        }
      ],
      "stateMutability": "nonpayable",
      "type": "constructor"
    },
    {
      "anonymous": false,
      "inputs": [
        {
          "indexed": true,
          "internalType": "address",
          "name": "owner",
          "type": "address"
        },
        {
          "indexed": true,
          "internalType": "address",
          "name": "spender",
          "type": "address"
        },
        {
          "indexed": false,
          "internalType": "uint256",
          "name": "value",
          "type": "uint256"
        }
      ],
      "name": "Approval",
      "type": "event"
    },
    {
      "anonymous": false,
      "inputs": [
        {
          "indexed": false,
          "internalType": "bool",
          "name": "paused",
          "type": "bool"
        }
      ],
      "name": "PausedStateChanged",
      "type": "event"
    },
    {
      "anonymous": false,
      "inputs": [
        {
          "indexed": false,
          "internalType": "uint256",
          "name": "swapFeePercentage",
          "type": "uint256"
        }
      ],
      "name": "SwapFeePercentageChanged",
      "type": "event"
    },
    {
      "anonymous": false,
      "inputs": [
        {
          "indexed": true,
          "internalType": "address",
          "name": "from",
          "type": "address"
        },
        {
          "indexed": true,
          "internalType": "address",
          "name": "to",
          "type": "address"
        },
        {
          "indexed": false,
          "internalType": "uint256",
          "name": "value",
          "type": "uint256"
        }
      ],
      "name": "Transfer",
      "type": "event"
    },
    {
      "inputs": [],
      "name": "DOMAIN_SEPARATOR",
      "outputs": [
        {
          "internalType": "bytes32",
          "name": "",
          "type": "bytes32"
        }
      ],
      "stateMutability": "view",
      "type": "function"
    },
    {
      "inputs": [
        {
          "internalType": "address",
          "name": "owner",
          "type": "address"
        },
        {
          "internalType": "address",
          "name": "spender",
          "type": "address"
        }
      ],
      "name": "allowance",
      "outputs": [
        {
          "internalType": "uint256",
          "name": "",
          "type": "uint256"
        }
      ],
      "stateMutability": "view",
      "type": "function"
    },
    {
      "inputs": [
        {
          "internalType": "address",
          "name": "spender",
          "type": "address"
        },
        {
          "internalType": "uint256",
          "name": "amount",
          "type": "uint256"
        }
      ],
      "name": "approve",
      "outputs": [
        {
          "internalType": "bool",
          "name": "",
          "type": "bool"
        }
      ],
      "stateMutability": "nonpayable",
      "type": "function"
    },
    {
      "inputs": [
        {
          "internalType": "address",
          "name": "account",
          "type": "address"
        }
      ],
      "name": "balanceOf",
      "outputs": [
        {
          "internalType": "uint256",
          "name": "",
          "type": "uint256"
        }
      ],
      "stateMutability": "view",
      "type": "function"
    },
    {
      "inputs": [],
      "name": "decimals",
      "outputs": [
        {
          "internalType": "uint8",
          "name": "",
          "type": "uint8"
        }
      ],
      "stateMutability": "view",
      "type": "function"
    },
    {
      "inputs": [
        {
          "internalType": "address",
          "name": "spender",
          "type": "address"
        },
        {
          "internalType": "uint256",
          "name": "amount",
          "type": "uint256"
        }
      ],
      "name": "decreaseAllowance",
      "outputs": [
        {
          "internalType": "bool",
          "name": "",
          "type": "bool"
        }
      ],
      "stateMutability": "nonpayable",
      "type": "function"
    },
    {
      "inputs": [
        {
          "internalType": "bytes4",
          "name": "selector",
          "type": "bytes4"
        }
      ],
      "name": "getActionId",
      "outputs": [
        {
          "internalType": "bytes32",
          "name": "",
          "type": "bytes32"
        }
      ],
      "stateMutability": "view",
      "type": "function"
    },
    {
      "inputs": [],
      "name": "getAuthorizer",
      "outputs": [
        {
          "internalType": "contract IAuthorizer",
          "name": "",
          "type": "address"
        }
      ],
      "stateMutability": "view",
      "type": "function"
    },
    {
      "inputs": [],
      "name": "getOwner",
      "outputs": [
        {
          "internalType": "address",
          "name": "",
          "type": "address"
        }
      ],
      "stateMutability": "view",
      "type": "function"
    },
    {
      "inputs": [],
      "name": "getPausedState",
      "outputs": [
        {
          "internalType": "bool",
          "name": "paused",
          "type": "bool"
        },
        {
          "internalType": "uint256",
          "name": "pauseWindowEndTime",
          "type": "uint256"
        },
        {
          "internalType": "uint256",
          "name": "bufferPeriodEndTime",
          "type": "uint256"
        }
      ],
      "stateMutability": "view",
      "type": "function"
    },
    {
      "inputs": [],
      "name": "getPoolId",
      "outputs": [
        {
          "internalType": "bytes32",
          "name": "",
          "type": "bytes32"
        }
      ],
      "stateMutability": "view",
      "type": "function"
    },
    {
      "inputs": [],
      "name": "getScalingFactors",
      "outputs": [
        {
          "internalType": "uint256[]",
          "name": "",
          "type": "uint256[]"
        }
      ],
      "stateMutability": "view",
      "type": "function"
    },
    {
      "inputs": [],
      "name": "getSwapFeePercentage",
      "outputs": [
        {
          "internalType": "uint256",
          "name": "",
          "type": "uint256"
        }
      ],
      "stateMutability": "view",
      "type": "function"
    },
    {
      "inputs": [],
      "name": "getVault",
      "outputs": [
        {
          "internalType": "contract IVault",
          "name": "",
          "type": "address"
        }
      ],
      "stateMutability": "view",
      "type": "function"
    },
    {
      "inputs": [
        {
          "internalType": "address",
          "name": "spender",
          "type": "address"
        },
        {
          "internalType": "uint256",
          "name": "addedValue",
          "type": "uint256"
        }
      ],
      "name": "increaseAllowance",
      "outputs": [
        {
          "internalType": "bool",
          "name": "",
          "type": "bool"
        }
      ],
      "stateMutability": "nonpayable",
      "type": "function"
    },
    {
      "inputs": [],
      "name": "name",
      "outputs": [
        {
          "internalType": "string",
          "name": "",
          "type": "string"
        }
      ],
      "stateMutability": "view",
      "type": "function"
    },
    {
      "inputs": [
        {
          "internalType": "address",
          "name": "owner",
          "type": "address"
        }
      ],
      "name": "nonces",
      "outputs": [
        {
          "internalType": "uint256",
          "name": "",
          "type": "uint256"
        }
      ],
      "stateMutability": "view",
      "type": "function"
    },
    {
      "inputs": [
        {
          "internalType": "bytes32",
          "name": "poolId",
          "type": "bytes32"
        },
        {
          "internalType": "address",
          "name": "sender",
          "type": "address"
        },
        {
          "internalType": "address",
          "name": "recipient",
          "type": "address"
        },
        {
          "internalType": "uint256[]",
          "name": "balances",
          "type": "uint256[]"
        },
        {
          "internalType": "uint256",
          "name": "lastChangeBlock",
          "type": "uint256"
        },
        {
          "internalType": "uint256",
          "name": "protocolSwapFeePercentage",
          "type": "uint256"
        },
        {
          "internalType": "bytes",
          "name": "userData",
          "type": "bytes"
        }
      ],
      "name": "onExitPool",
      "outputs": [
        {
          "internalType": "uint256[]",
          "name": "",
          "type": "uint256[]"
        },
        {
          "internalType": "uint256[]",
          "name": "",
          "type": "uint256[]"
        }
      ],
      "stateMutability": "nonpayable",
      "type": "function"
    },
    {
      "inputs": [
        {
          "internalType": "bytes32",
          "name": "poolId",
          "type": "bytes32"
        },
        {
          "internalType": "address",
          "name": "sender",
          "type": "address"
        },
        {
          "internalType": "address",
          "name": "recipient",
          "type": "address"
        },
        {
          "internalType": "uint256[]",
          "name": "balances",
          "type": "uint256[]"
        },
        {
          "internalType": "uint256",
          "name": "lastChangeBlock",
          "type": "uint256"
        },
        {
          "internalType": "uint256",
          "name": "protocolSwapFeePercentage",
          "type": "uint256"
        },
        {
          "internalType": "bytes",
          "name": "userData",
          "type": "bytes"
        }
      ],
      "name": "onJoinPool",
      "outputs": [
        {
          "internalType": "uint256[]",
          "name": "",
          "type": "uint256[]"
        },
        {
          "internalType": "uint256[]",
          "name": "",
          "type": "uint256[]"
        }
      ],
      "stateMutability": "nonpayable",
      "type": "function"
    },
    {
      "inputs": [
        {
          "internalType": "address",
          "name": "owner",
          "type": "address"
        },
        {
          "internalType": "address",
          "name": "spender",
          "type": "address"
        },
        {
          "internalType": "uint256",
          "name": "value",
          "type": "uint256"
        },
        {
          "internalType": "uint256",
          "name": "deadline",
          "type": "uint256"
        },
        {
          "internalType": "uint8",
          "name": "v",
          "type": "uint8"
        },
        {
          "internalType": "bytes32",
          "name": "r",
          "type": "bytes32"
        },
        {
          "internalType": "bytes32",
          "name": "s",
          "type": "bytes32"
        }
      ],
      "name": "permit",
      "outputs": [],
      "stateMutability": "nonpayable",
      "type": "function"
    },
    {
      "inputs": [
        {
          "internalType": "bytes32",
          "name": "poolId",
          "type": "bytes32"
        },
        {
          "internalType": "address",
          "name": "sender",
          "type": "address"
        },
        {
          "internalType": "address",
          "name": "recipient",
          "type": "address"
        },
        {
          "internalType": "uint256[]",
          "name": "balances",
          "type": "uint256[]"
        },
        {
          "internalType": "uint256",
          "name": "lastChangeBlock",
          "type": "uint256"
        },
        {
          "internalType": "uint256",
          "name": "protocolSwapFeePercentage",
          "type": "uint256"
        },
        {
          "internalType": "bytes",
          "name": "userData",
          "type": "bytes"
        }
      ],
      "name": "queryExit",
      "outputs": [
        {
          "internalType": "uint256",
          "name": "bptIn",
          "type": "uint256"
        },
        {
          "internalType": "uint256[]",
          "name": "amountsOut",
          "type": "uint256[]"
        }
      ],
      "stateMutability": "nonpayable",
      "type": "function"
    },
    {
      "inputs": [
        {
          "internalType": "bytes32",
          "name": "poolId",
          "type": "bytes32"
        },
        {
          "internalType": "address",
          "name": "sender",
          "type": "address"
        },
        {
          "internalType": "address",
          "name": "recipient",
          "type": "address"
        },
        {
          "internalType": "uint256[]",
          "name": "balances",
          "type": "uint256[]"
        },
        {
          "internalType": "uint256",
          "name": "lastChangeBlock",
          "type": "uint256"
        },
        {
          "internalType": "uint256",
          "name": "protocolSwapFeePercentage",
          "type": "uint256"
        },
        {
          "internalType": "bytes",
          "name": "userData",
          "type": "bytes"
        }
      ],
      "name": "queryJoin",
      "outputs": [
        {
          "internalType": "uint256",
          "name": "bptOut",
          "type": "uint256"
        },
        {
          "internalType": "uint256[]",
          "name": "amountsIn",
          "type": "uint256[]"
        }
      ],
      "stateMutability": "nonpayable",
      "type": "function"
    },
    {
      "inputs": [
        {
          "internalType": "contract IERC20",
          "name": "token",
          "type": "address"
        },
        {
          "internalType": "bytes",
          "name": "poolConfig",
          "type": "bytes"
        }
      ],
      "name": "setAssetManagerPoolConfig",
      "outputs": [],
      "stateMutability": "nonpayable",
      "type": "function"
    },
    {
      "inputs": [
        {
          "internalType": "bool",
          "name": "paused",
          "type": "bool"
        }
      ],
      "name": "setPaused",
      "outputs": [],
      "stateMutability": "nonpayable",
      "type": "function"
    },
    {
      "inputs": [
        {
          "internalType": "uint256",
          "name": "swapFeePercentage",
          "type": "uint256"
        }
      ],
      "name": "setSwapFeePercentage",
      "outputs": [],
      "stateMutability": "nonpayable",
      "type": "function"
    },
    {
      "inputs": [],
      "name": "symbol",
      "outputs": [
        {
          "internalType": "string",
          "name": "",
          "type": "string"
        }
      ],
      "stateMutability": "view",
      "type": "function"
    },
    {
      "inputs": [],
      "name": "totalSupply",
      "outputs": [
        {
          "internalType": "uint256",
          "name": "",
          "type": "uint256"
        }
      ],
      "stateMutability": "view",
      "type": "function"
    },
    {
      "inputs": [
        {
          "internalType": "address",
          "name": "recipient",
          "type": "address"
        },
        {
          "internalType": "uint256",
          "name": "amount",
          "type": "uint256"
        }
      ],
      "name": "transfer",
      "outputs": [
        {
          "internalType": "bool",
          "name": "",
          "type": "bool"
        }
      ],
      "stateMutability": "nonpayable",
      "type": "function"
    },
    {
      "inputs": [
        {
          "internalType": "address",
          "name": "sender",
          "type": "address"
        },
        {
          "internalType": "address",
          "name": "recipient",
          "type": "address"
        },
        {
          "internalType": "uint256",
          "name": "amount",
          "type": "uint256"
        }
      ],
      "name": "transferFrom",
      "outputs": [
        {
          "internalType": "bool",
          "name": "",
          "type": "bool"
        }
      ],
      "stateMutability": "nonpayable",
      "type": "function"
    },
    {
      "inputs": [],
      "name": "getSecurity",
      "outputs": [
        {
          "internalType": "address",
          "name": "",
          "type": "address"
        }
      ],
      "stateMutability": "view",
      "type": "function"
    },
    {
      "inputs": [],
      "name": "getCurrency",
      "outputs": [
        {
          "internalType": "address",
          "name": "",
          "type": "address"
        }
      ],
      "stateMutability": "view",
      "type": "function"
    },
    {
      "inputs": [],
      "name": "initialize",
      "outputs": [],
      "stateMutability": "nonpayable",
      "type": "function"
    },
    {
      "inputs": [],
      "name": "exit",
      "outputs": [],
      "stateMutability": "nonpayable",
      "type": "function"
    },
    {
      "inputs": [
        {
          "components": [
            {
              "internalType": "enum IVault.SwapKind",
              "name": "kind",
              "type": "uint8"
            },
            {
              "internalType": "contract IERC20",
              "name": "tokenIn",
              "type": "address"
            },
            {
              "internalType": "contract IERC20",
              "name": "tokenOut",
              "type": "address"
            },
            {
              "internalType": "uint256",
              "name": "amount",
              "type": "uint256"
            },
            {
              "internalType": "bytes32",
              "name": "poolId",
              "type": "bytes32"
            },
            {
              "internalType": "uint256",
              "name": "lastChangeBlock",
              "type": "uint256"
            },
            {
              "internalType": "address",
              "name": "from",
              "type": "address"
            },
            {
              "internalType": "address",
              "name": "to",
              "type": "address"
            },
            {
              "internalType": "bytes",
              "name": "userData",
              "type": "bytes"
            }
          ],
          "internalType": "struct IPoolSwapStructs.SwapRequest",
          "name": "request",
          "type": "tuple"
        },
        {
          "internalType": "uint256[]",
          "name": "balances",
          "type": "uint256[]"
        },
        {
          "internalType": "uint256",
          "name": "indexIn",
          "type": "uint256"
        },
        {
          "internalType": "uint256",
          "name": "indexOut",
          "type": "uint256"
        }
      ],
      "name": "onSwap",
      "outputs": [
        {
          "internalType": "uint256",
          "name": "",
          "type": "uint256"
        }
      ],
      "stateMutability": "view",
      "type": "function"
    }
  ],
  "bytecode": "0x6102a06040527f6e71edae12b1b97f4d1f60370fef10105fa2faae0126114a169c64845d6126c9610120523480156200003757600080fd5b5060405162003c9938038062003c998339810160408190526200005a91620009ef565b8060000151600082602001518360400151620000868560600151866080015130620003d860201b60201c565b8560a00151866101200151876101400151886101600151896101a00151828289898180604051806040016040528060018152602001603160f81b815250848489336001600160a01b031660001b806080818152505050806001600160a01b031660a0816001600160a01b031660601b81525050508160039080519060200190620001129291906200080d565b508051620001289060049060208401906200080d565b50506005805460ff1916601217905550815160209283012060c052805191012060e05250507f8b73c3c69bb8fe3d512ecc4cf759cc79239f7b179b0ffacaa9a75d522b39400f6101005250620001876276a700831115610194620004a7565b6200019b62278d00821115610195620004a7565b4290910161014081905201610160528551620001bd906002111560c8620004a7565b620001d7620001cb620004bc565b8751111560c9620004a7565b620001ed86620004c160201b620010d01760201c565b620001f884620004cd565b6040516309b2760f60e01b81526000906001600160a01b038c16906309b2760f9062000229908d9060040162000c17565b602060405180830381600087803b1580156200024457600080fd5b505af115801562000259573d6000803e3d6000fd5b505050506040513d601f19601f820116820180604052508101906200027f9190620009d6565b604051633354e3e960e11b81529091506001600160a01b038c16906366a9c7d290620002b49084908b908b9060040162000b7b565b600060405180830381600087803b158015620002cf57600080fd5b505af1158015620002e4573d6000803e3d6000fd5b5050506001600160601b031960609c8d1b8116610180526101a092909252508b8b0180518c1b82166101c05260808d018051909c1b9091166101e05251995160009a8b9a508a9950620003439850965094503093505062000559915050565b610240819052610260839052610280829052606087015192955090935091506200036d906200064f565b61020052608084015162000381906200064f565b6102205250505060c081015160095560e0810151600a55610100810151600b55610180810151600c5542600d556101a00151600e80546001600160a01b0319166001600160a01b0390921691909117905562000c7e565b606060008080620003eb87878762000559565b60408051600380825260808201909252939650919450925060208201606080368337019050509350868484815181106200042157fe5b60200260200101906001600160a01b031690816001600160a01b031681525050858483815181106200044f57fe5b60200260200101906001600160a01b031690816001600160a01b031681525050848482815181106200047d57fe5b60200260200101906001600160a01b031690816001600160a01b0316815250505050509392505050565b81620004b857620004b881620006fb565b5050565b600390565b80620004b8816200074e565b620004e264e8d4a5100082101560cb620004a7565b620004fa67016345785d8a000082111560ca620004a7565b620005198160c0600854620007db60201b620010da179092919060201c565b6008556040517fa9ba3ffe0b6c366b81232caab38605a0699ad5398d6cce76f91ee809e322dafc906200054e90839062000c2c565b60405180910390a150565b6000806000846001600160a01b0316866001600160a01b03161015620005e257836001600160a01b0316856001600160a01b03161015620005a557506000915060019050600262000646565b836001600160a01b0316866001600160a01b03161015620005d157506000915060029050600162000646565b506001915060029050600062000646565b846001600160a01b0316846001600160a01b031610156200060e57506002915060019050600062000646565b856001600160a01b0316846001600160a01b031610156200063a57506002915060009050600162000646565b50600191506000905060025b93509350939050565b600080826001600160a01b031663313ce5676040518163ffffffff1660e01b815260040160206040518083038186803b1580156200068c57600080fd5b505afa158015620006a1573d6000803e3d6000fd5b505050506040513d601f19601f82011682018060405250810190620006c7919062000b51565b60ff1690506000620006e6601283620007f060201b620010f01760201c565b600a0a670de0b6b3a764000002949350505050565b62461bcd60e51b6000908152602060045260076024526642414c23000030600a808404818106603090810160081b95839006959095019082900491820690940160101b939093010160c81b604452606490fd5b6002815110156200075f57620007d8565b6000816000815181106200076f57fe5b602002602001015190506000600190505b8251811015620007d55760008382815181106200079957fe5b60200260200101519050620007ca816001600160a01b0316846001600160a01b0316106065620004a760201b60201c565b915060010162000780565b50505b50565b6001600160401b03811b1992909216911b1790565b600062000802838311156001620004a7565b508082035b92915050565b828054600181600116156101000203166002900490600052602060002090601f016020900481019282601f106200085057805160ff191683800117855562000880565b8280016001018555821562000880579182015b828111156200088057825182559160200191906001019062000863565b506200088e92915062000892565b5090565b5b808211156200088e576000815560010162000893565b8051620008078162000c68565b600082601f830112620008c7578081fd5b81516001600160401b03811115620008dd578182fd5b6020808202620008ef82820162000c35565b838152935081840185830182870184018810156200090c57600080fd5b600092505b848310156200093c578051620009278162000c68565b82526001929092019190830190830162000911565b505050505092915050565b600082601f83011262000958578081fd5b81516001600160401b038111156200096e578182fd5b602062000984601f8301601f1916820162000c35565b925081835284818386010111156200099b57600080fd5b60005b82811015620009bb5784810182015184820183015281016200099e565b82811115620009cd5760008284860101525b50505092915050565b600060208284031215620009e8578081fd5b5051919050565b60006020828403121562000a01578081fd5b81516001600160401b038082111562000a18578283fd5b81840191506101c080838703121562000a2f578384fd5b62000a3a8162000c35565b905062000a488684620008a9565b815260208301518281111562000a5c578485fd5b62000a6a8782860162000947565b60208301525060408301518281111562000a82578485fd5b62000a908782860162000947565b60408301525062000aa58660608501620008a9565b606082015262000ab98660808501620008a9565b608082015260a08301518281111562000ad0578485fd5b62000ade87828601620008b6565b60a08301525060c0838101519082015260e08084015190820152610100808401519082015261012080840151908201526101408084015190820152610160808401519082015261018080840151908201526101a0915062000b4286838501620008a9565b91810191909152949350505050565b60006020828403121562000b63578081fd5b815160ff8116811462000b74578182fd5b9392505050565b60006060820185835260206060818501528186518084526080860191508288019350845b8181101562000bc75762000bb4855162000c5c565b8352938301939183019160010162000b9f565b505084810360408601528551808252908201925081860190845b8181101562000c095762000bf6835162000c5c565b8552938301939183019160010162000be1565b509298975050505050505050565b602081016003831062000c2657fe5b91905290565b90815260200190565b6040518181016001600160401b038111828210171562000c5457600080fd5b604052919050565b6001600160a01b031690565b6001600160a01b0381168114620007d857600080fd5b60805160a05160601c60c05160e051610100516101205161014051610160516101805160601c6101a0516101c05160601c6101e05160601c6102005161022051610240516102605161028051612ed062000dc9600039806111965280611dd75280611e195280611f275280612107528061213a52806121fd5250806111555280611d915280611f5b5280611f8e52806120c1528061223152806122645250806111d75280611bae525050508061086052806109a65280610f9b5280611270528061131b5280611d0c5280611d4d528061203c52806121b952508061074b52806109585280610f4d528061122052806112d25280611ea25280611ee3528061207d528061217852508061079b525080610bae5250806114c55250806114a1525080610cbb5250806115cb52508061160d5250806115ec525080610b8a525080610b145250612ed06000f3fe608060405234801561001057600080fd5b50600436106102065760003560e01c80636945c1fd1161011a5780638d928af8116100ad578063aaabadc51161007c578063aaabadc51461041c578063d505accf14610424578063d5c096c414610437578063dd62ed3e1461044a578063e9fad8ee1461045d57610206565b80638d928af8146103e657806395d89b41146103ee578063a457c2d7146103f6578063a9059cbb1461040957610206565b80638129fc1c116100e95780638129fc1c146103b0578063851c1bb3146103b857806387ec6817146103cb578063893d20e8146103de57610206565b80636945c1fd1461036157806370a082311461036957806374f3b0091461037c5780637ecebe001461039d57610206565b80632541897f1161019d57806338fff2d01161016c57806338fff2d01461030a578063395093511461031257806350dd6ed91461032557806355c67628146103385780636028bfd41461034057610206565b80632541897f146102c5578063313ce567146102da5780633644e515146102ef57806338e9922e146102f757610206565b806318160ddd116101d957806318160ddd1461027e5780631c0de051146102865780631dd746ea1461029d57806323b872dd146102b257610206565b806301ec954a1461020b57806306fdde0314610234578063095ea7b31461024957806316c38b3c14610269575b600080fd5b61021e6102193660046129b1565b610465565b60405161022b9190612d04565b60405180910390f35b61023c6105d4565b60405161022b9190612e16565b61025c610257366004612819565b61066a565b60405161022b9190612ce1565b61027c610277366004612844565b610681565b005b61021e610695565b61028e61069b565b60405161022b93929190612cec565b6102a56106c4565b60405161022b9190612ca0565b61025c6102c0366004612764565b6106d3565b6102cd610749565b60405161022b9190612c8c565b6102e261076d565b60405161022b9190612e42565b61021e610776565b61027c610305366004612ad0565b610780565b61021e610799565b61025c610320366004612819565b6107bd565b61027c610333366004612963565b6107f8565b61021e610816565b61035361034e36600461287c565b610827565b60405161022b929190612e29565b6102cd61085e565b61021e610377366004612710565b610882565b61038f61038a36600461287c565b61089d565b60405161022b929190612cb3565b61021e6103ab366004612710565b61091b565b61027c610936565b61021e6103c636600461291f565b610b10565b6103536103d936600461287c565b610b62565b6102cd610b88565b6102cd610bac565b61023c610bd0565b61025c610404366004612819565b610c31565b61025c610417366004612819565b610c6f565b6102cd610c7c565b61027c6104323660046127a4565b610c86565b61038f61044536600461287c565b610dcf565b61021e61045836600461272c565b610f00565b61027c610f2b565b60008460800151610492610477610bac565b6001600160a01b0316336001600160a01b03161460cd611106565b6104a761049d610799565b82146101f4611106565b426104b6600d54600c54611114565b10156104c157600080fd5b60606104cb611124565b90506104d56125c2565b60405180606001604052806104e8610816565b81526009546020820152600a54604090910152905060008851600181111561050c57fe5b141561056e57610533886060015183888151811061052657fe5b6020026020010151611210565b6060890152600061054589898461121c565b90506105648184888151811061055757fe5b60200260200101516112c2565b94505050506105cb565b60018851600181111561057d57fe5b14156105c857610597886060015183878151811061052657fe5b606089015260006105a98989846112ce565b9050610564818489815181106105bb57fe5b6020026020010151611362565b50505b50949350505050565b60038054604080516020601f60026000196101006001881615020190951694909404938401819004810282018101909252828152606093909290918301828280156106605780601f1061063557610100808354040283529160200191610660565b820191906000526020600020905b81548152906001019060200180831161064357829003601f168201915b5050505050905090565b600061067733848461136e565b5060015b92915050565b6106896113d6565b61069281611404565b50565b60025490565b60008060006106a8611482565b1592506106b361149f565b91506106bd6114c3565b9050909192565b60606106ce611124565b905090565b6000806106e08533610f00565b9050610704336001600160a01b03871614806106fc5750838210155b61019e611106565b61070f8585856114e7565b336001600160a01b0386161480159061072a57506000198114155b1561073c5761073c853385840361136e565b60019150505b9392505050565b7f000000000000000000000000000000000000000000000000000000000000000090565b60055460ff1690565b60006106ce6115c7565b6107886113d6565b610790611664565b61069281611679565b7f000000000000000000000000000000000000000000000000000000000000000090565b3360008181526001602090815260408083206001600160a01b038716845290915281205490916106779185906107f390866116e4565b61136e565b6108006113d6565b610808611664565b61081282826116f6565b5050565b6008546000906106ce9060c06117f5565b6000606061083d8651610838611803565b611808565b61085289898989898989611815611833611899565b97509795505050505050565b7f000000000000000000000000000000000000000000000000000000000000000090565b6001600160a01b031660009081526020819052604090205490565b606080886108ac610477610bac565b6108b761049d610799565b60606108c1611124565b90506108cd88826119bc565b60006060806108e28e8e8e8e8e8e8a8f611815565b9250925092506108f28d84611a1d565b6108fc8285611833565b6109068185611833565b909550935050505b5097509795505050505050565b6001600160a01b031660009081526006602052604090205490565b60408051600280825260608083018452926020830190803683370190505090507f00000000000000000000000000000000000000000000000000000000000000008160008151811061098457fe5b60200260200101906001600160a01b031690816001600160a01b0316815250507f0000000000000000000000000000000000000000000000000000000000000000816001815181106109d257fe5b6001600160a01b0392909216602092830291909101909101526040805160028082526060828101909352816020016020820280368337019050509050600b5481600081518110610a1e57fe5b602002602001018181525050610a3a600b546009546000611a27565b81600181518110610a4757fe5b602002602001018181525050610a5b6125e3565b50604080516080810182528381526020808201849052825190810183526000808252928201526060810191909152610a91610bac565b6001600160a01b031663b95cac28610aa7610799565b600e546040516001600160e01b031960e085901b168152610ad992916001600160a01b03169030908790600401612d0d565b600060405180830381600087803b158015610af357600080fd5b505af1158015610b07573d6000803e3d6000fd5b50505050505050565b60007f000000000000000000000000000000000000000000000000000000000000000082604051602001610b45929190612c49565b604051602081830303815290604052805190602001209050919050565b60006060610b738651610838611803565b61085289898989898989611815611a4f611899565b7f000000000000000000000000000000000000000000000000000000000000000090565b7f000000000000000000000000000000000000000000000000000000000000000090565b60048054604080516020601f60026000196101006001881615020190951694909404938401819004810282018101909252828152606093909290918301828280156106605780601f1061063557610100808354040283529160200191610660565b600080610c3e3385610f00565b9050808310610c5857610c533385600061136e565b610c65565b610c65338585840361136e565b5060019392505050565b60006106773384846114e7565b60006106ce611ab0565b610c948442111560d1611106565b6001600160a01b0387166000908152600660209081526040808320549051909291610ceb917f0000000000000000000000000000000000000000000000000000000000000000918c918c918c9188918d9101612d68565b6040516020818303038152906040528051906020012090506000610d0e82611b2a565b9050600060018288888860405160008152602001604052604051610d359493929190612df8565b6020604051602081039080840390855afa158015610d57573d6000803e3d6000fd5b5050604051601f1901519150610d9990506001600160a01b03821615801590610d9157508b6001600160a01b0316826001600160a01b0316145b6101f8611106565b6001600160a01b038b166000908152600660205260409020600185019055610dc28b8b8b61136e565b5050505050505050505050565b60608088610dde610477610bac565b610de961049d610799565b6060610df3611124565b9050610dfd610695565b610eb05760006060610e128d8d8d868b611b46565b91509150610e2b610e21611bf2565b83101560cc611106565b610e3d6000610e38611bf2565b611bf9565b610e508b610e49611bf2565b8403611bf9565b610e5a8184611a4f565b80610e63611803565b67ffffffffffffffff81118015610e7957600080fd5b50604051908082528060200260200182016040528015610ea3578160200160208202803683370190505b509550955050505061090e565b610eba88826119bc565b6000606080610ecf8e8e8e8e8e8e8a8f611815565b925092509250610edf8c84611bf9565b610ee98285611a4f565b610ef38185611833565b909550935061090e915050565b6001600160a01b03918216600090815260016020908152604080832093909416825291909152205490565b60408051600280825260608083018452926020830190803683370190505090507f000000000000000000000000000000000000000000000000000000000000000081600081518110610f7957fe5b60200260200101906001600160a01b031690816001600160a01b0316815250507f000000000000000000000000000000000000000000000000000000000000000081600181518110610fc757fe5b6001600160a01b0392909216602092830291909101909101526040805160028082526060828101909352816020016020820280368337019050509050600b548160008151811061101357fe5b60200260200101818152505061102f600b54600a546000611a27565b8160018151811061103c57fe5b6020026020010181815250506110506125e3565b50604080516080810182528381526020808201849052825190810183526000808252928201526060810191909152611086610bac565b6001600160a01b0316638bdb391361109c610799565b600e546040516001600160e01b031960e085901b168152610ad9929130916001600160a01b03909116908790600401612d0d565b8061081281611c03565b67ffffffffffffffff811b1992909216911b1790565b6000611100838311156001611106565b50900390565b816108125761081281611c7c565b8181018281101561067b57600080fd5b60408051600380825260808201909252606091829190602082018380368337019050509050670de0b6b3a7640000817f00000000000000000000000000000000000000000000000000000000000000008151811061117e57fe5b602002602001018181525050670de0b6b3a7640000817f0000000000000000000000000000000000000000000000000000000000000000815181106111bf57fe5b602002602001018181525050670de0b6b3a7640000817f00000000000000000000000000000000000000000000000000000000000000008151811061120057fe5b6020908102919091010152905090565b60006107428383611ccf565b60007f00000000000000000000000000000000000000000000000000000000000000006001600160a01b031684602001516001600160a01b0316141561126e57611267848484611d05565b9050610742565b7f00000000000000000000000000000000000000000000000000000000000000006001600160a01b031684602001516001600160a01b031614156112b757611267848484611e9b565b610742610135611c7c565b60006107428383611fe4565b60007f00000000000000000000000000000000000000000000000000000000000000006001600160a01b031684604001516001600160a01b0316141561131957611267848484612035565b7f00000000000000000000000000000000000000000000000000000000000000006001600160a01b031684604001516001600160a01b031614156112b757611267848484612171565b6000610742838361228d565b6001600160a01b0380841660008181526001602090815260408083209487168084529490915290819020849055517f8c5be1e5ebec7d5bd14f71427d1e84f3dd0314c0f7b2291e5b200ac8c7c3b925906113c9908590612d04565b60405180910390a3505050565b60006113ed6000356001600160e01b031916610b10565b90506106926113fc82336122db565b610191611106565b80156114245761141f61141561149f565b4210610193611106565b611439565b61143961142f6114c3565b42106101a9611106565b6007805460ff19168215151790556040517f9e3a5e37224532dea67b89face185703738a228a6e8a23dee546960180d3be6490611477908390612ce1565b60405180910390a150565b600061148c6114c3565b4211806106ce57505060075460ff161590565b7f000000000000000000000000000000000000000000000000000000000000000090565b7f000000000000000000000000000000000000000000000000000000000000000090565b6114fe6001600160a01b0384161515610198611106565b6115156001600160a01b0383161515610199611106565b611520838383611894565b6001600160a01b03831660009081526020819052604090205461154690826101a06123cb565b6001600160a01b03808516600090815260208190526040808220939093559084168152205461157590826116e4565b6001600160a01b0380841660008181526020819052604090819020939093559151908516907fddf252ad1be2c89b69c2b068fc378daa952ba7f163c4a11628f55a4df523b3ef906113c9908590612d04565b60007f00000000000000000000000000000000000000000000000000000000000000007f00000000000000000000000000000000000000000000000000000000000000007f00000000000000000000000000000000000000000000000000000000000000006116346123e1565b30604051602001611649959493929190612d9c565b60405160208183030381529060405280519060200120905090565b61167761166f611482565b610192611106565b565b61168c64e8d4a5100082101560cb611106565b6116a267016345785d8a000082111560ca611106565b6008546116b1908260c06110da565b6008556040517fa9ba3ffe0b6c366b81232caab38605a0699ad5398d6cce76f91ee809e322dafc90611477908390612d04565b60008282016107428482101583611106565b6000611700610799565b9050600061170c610bac565b6001600160a01b031663b05f8e4883866040518363ffffffff1660e01b8152600401611739929190612de1565b60806040518083038186803b15801561175157600080fd5b505afa158015611765573d6000803e3d6000fd5b505050506040513d601f19601f820116820180604052508101906117899190612ae8565b604051630639cdb560e21b81529094506001600160a01b03851693506318e736d492506117bd915085908790600401612dc8565b600060405180830381600087803b1580156117d757600080fd5b505af11580156117eb573d6000803e3d6000fd5b5050505050505050565b1c67ffffffffffffffff1690565b600390565b6108128183146067611106565b6000606080611825610136611c7c565b985098509895505050505050565b60005b61183e611803565b8110156118945761187583828151811061185457fe5b602002602001015183838151811061186857fe5b6020026020010151611fe4565b83828151811061188157fe5b6020908102919091010152600101611836565b505050565b333014611957576000306001600160a01b03166000366040516118bd929190612c61565b6000604051808303816000865af19150503d80600081146118fa576040519150601f19603f3d011682016040523d82523d6000602084013e6118ff565b606091505b50509050806000811461190e57fe5b60046000803e6000516001600160e01b0319166343adbafb60e01b8114611939573d6000803e3d6000fd5b506020600460003e604060205260243d03602460403e601c3d016000f35b6060611961611124565b905061196d87826119bc565b600060606119858c8c8c8c8c8c898d8d63ffffffff16565b509150915061199881848663ffffffff16565b8051601f1982018390526343adbafb603f1983015260200260231982016044820181fd5b60005b6119c7611803565b811015611894576119fe8382815181106119dd57fe5b60200260200101518383815181106119f157fe5b6020026020010151611ccf565b838281518110611a0a57fe5b60209081029190910101526001016119bf565b61081282826123e5565b600081611a3d57611a3884846124a1565b611a47565b611a4784846124c1565b949350505050565b60005b611a5a611803565b81101561189457611a91838281518110611a7057fe5b6020026020010151838381518110611a8457fe5b602002602001015161228d565b838281518110611a9d57fe5b6020908102919091010152600101611a52565b6000611aba610bac565b6001600160a01b031663aaabadc56040518163ffffffff1660e01b815260040160206040518083038186803b158015611af257600080fd5b505afa158015611b06573d6000803e3d6000fd5b505050506040513d601f19601f820116820180604052508101906106ce9190612947565b6000611b346115c7565b82604051602001610b45929190612c71565b60006060611b52611664565b600e54611b6f906001600160a01b038881169116146101aa611106565b611b866001600160a01b03861630146101aa611106565b60408051600380825260808201909252606091602082018380368337019050509050600b54817f000000000000000000000000000000000000000000000000000000000000000081518110611bd757fe5b6020908102919091010152600b549890975095505050505050565b620f424090565b61081282826124f4565b600281511015611c1257610692565b600081600081518110611c2157fe5b602002602001015190506000600190505b8251811015611894576000838281518110611c4957fe5b60200260200101519050611c72816001600160a01b0316846001600160a01b0316106065611106565b9150600101611c32565b62461bcd60e51b6000908152602060045260076024526642414c23000030600a808404818106603090810160081b95839006959095019082900491820690940160101b939093010160c81b604452606490fd5b6000828202611cf3841580611cec575083858381611ce957fe5b04145b6003611106565b670de0b6b3a764000090049392505050565b6000611d4b7f00000000000000000000000000000000000000000000000000000000000000006001600160a01b031685604001516001600160a01b031614610135611106565b7f00000000000000000000000000000000000000000000000000000000000000006001600160a01b031684604001516001600160a01b03161415610742576000611dcc847f000000000000000000000000000000000000000000000000000000000000000081518110611dba57fe5b602002602001015186606001516116e4565b90506000611e0f82867f000000000000000000000000000000000000000000000000000000000000000081518110611e0057fe5b60200260200101516000611a27565b90506000611e50867f000000000000000000000000000000000000000000000000000000000000000081518110611e4257fe5b6020026020010151836110f0565b90508460200151611e6384836000611a27565b10158015611e8057508460400151611e7d84836000611a27565b11155b15611e8f575091506107429050565b60009350505050610742565b6000611ee17f00000000000000000000000000000000000000000000000000000000000000006001600160a01b031685604001516001600160a01b031614610135611106565b7f00000000000000000000000000000000000000000000000000000000000000006001600160a01b031684604001516001600160a01b03161415610742576000611f50847f000000000000000000000000000000000000000000000000000000000000000081518110611dba57fe5b90506000611f8482867f000000000000000000000000000000000000000000000000000000000000000081518110611e0057fe5b90506000611fb7867f000000000000000000000000000000000000000000000000000000000000000081518110611e4257fe5b90508460200151611fca82856000611a27565b10158015611e8057508460400151611e7d82856000611a27565b6000611ff38215156004611106565b826120005750600061067b565b670de0b6b3a7640000838102906120239085838161201a57fe5b04146005611106565b82818161202c57fe5b0491505061067b565b600061207b7f00000000000000000000000000000000000000000000000000000000000000006001600160a01b031685602001516001600160a01b031614610135611106565b7f00000000000000000000000000000000000000000000000000000000000000006001600160a01b031684604001516001600160a01b031614156107425760006120fc847f0000000000000000000000000000000000000000000000000000000000000000815181106120ea57fe5b602002602001015186606001516110f0565b9050600061213082867f000000000000000000000000000000000000000000000000000000000000000081518110611e0057fe5b90506000611e50867f00000000000000000000000000000000000000000000000000000000000000008151811061216357fe5b6020026020010151836116e4565b60006121b77f00000000000000000000000000000000000000000000000000000000000000006001600160a01b031685602001516001600160a01b031614610135611106565b7f00000000000000000000000000000000000000000000000000000000000000006001600160a01b031684604001516001600160a01b03161415610742576000612226847f0000000000000000000000000000000000000000000000000000000000000000815181106120ea57fe5b9050600061225a82867f000000000000000000000000000000000000000000000000000000000000000081518110611e0057fe5b90506000611fb7867f00000000000000000000000000000000000000000000000000000000000000008151811061216357fe5b600061229c8215156004611106565b826122a95750600061067b565b670de0b6b3a7640000838102906122c39085838161201a57fe5b8260018203816122cf57fe5b0460010191505061067b565b600073ba1ba1ba1ba1ba1ba1ba1ba1ba1ba1ba1ba1ba1b6122fa610b88565b6001600160a01b031614158015612315575061231583612582565b1561233d57612322610b88565b6001600160a01b0316336001600160a01b031614905061067b565b612345611ab0565b6001600160a01b0316639be2a8848484306040518463ffffffff1660e01b815260040161237493929190612d49565b60206040518083038186803b15801561238c57600080fd5b505afa1580156123a0573d6000803e3d6000fd5b505050506040513d601f19601f820116820180604052508101906123c49190612860565b905061067b565b60006123da8484111583611106565b5050900390565b4690565b6123fc6001600160a01b038316151561019b611106565b61240882600083611894565b6001600160a01b03821660009081526020819052604090205461242e90826101a16123cb565b6001600160a01b03831660009081526020819052604090205560025461245490826125b4565b6002556040516000906001600160a01b038416907fddf252ad1be2c89b69c2b068fc378daa952ba7f163c4a11628f55a4df523b3ef90612495908590612d04565b60405180910390a35050565b60006124b08215156004611106565b8183816124b957fe5b049392505050565b60006124d08215156004611106565b826124dd5750600061067b565b8160018403816124e957fe5b04600101905061067b565b61250060008383611894565b60025461250d90826116e4565b6002556001600160a01b03821660009081526020819052604090205461253390826116e4565b6001600160a01b0383166000818152602081905260408082209390935591519091907fddf252ad1be2c89b69c2b068fc378daa952ba7f163c4a11628f55a4df523b3ef90612495908590612d04565b6000612594631c74c91760e11b610b10565b82148061067b57506125ac6350dd6ed960e01b610b10565b821492915050565b6000610742838360016123cb565b60405180606001604052806000815260200160008152602001600081525090565b60405180608001604052806060815260200160608152602001606081526020016000151581525090565b803561067b81612e77565b600082601f830112612628578081fd5b813567ffffffffffffffff81111561263e578182fd5b602080820261264e828201612e50565b8381529350818401858301828701840188101561266a57600080fd5b600092505b8483101561268d57803582526001929092019190830190830161266f565b505050505092915050565b600082601f8301126126a8578081fd5b813567ffffffffffffffff8111156126be578182fd5b6126d1601f8201601f1916602001612e50565b91508082528360208285010111156126e857600080fd5b8060208401602084013760009082016020015292915050565b80356002811061067b57600080fd5b600060208284031215612721578081fd5b813561074281612e77565b6000806040838503121561273e578081fd5b823561274981612e77565b9150602083013561275981612e77565b809150509250929050565b600080600060608486031215612778578081fd5b833561278381612e77565b9250602084013561279381612e77565b929592945050506040919091013590565b600080600080600080600060e0888a0312156127be578283fd5b87356127c981612e77565b965060208801356127d981612e77565b95506040880135945060608801359350608088013560ff811681146127fc578384fd5b9699959850939692959460a0840135945060c09093013592915050565b6000806040838503121561282b578182fd5b823561283681612e77565b946020939093013593505050565b600060208284031215612855578081fd5b813561074281612e8c565b600060208284031215612871578081fd5b815161074281612e8c565b600080600080600080600060e0888a031215612896578081fd5b8735965060208801356128a881612e77565b955060408801356128b881612e77565b9450606088013567ffffffffffffffff808211156128d4578283fd5b6128e08b838c01612618565b955060808a0135945060a08a0135935060c08a0135915080821115612903578283fd5b506129108a828b01612698565b91505092959891949750929550565b600060208284031215612930578081fd5b81356001600160e01b031981168114610742578182fd5b600060208284031215612958578081fd5b815161074281612e77565b60008060408385031215612975578182fd5b823561298081612e77565b9150602083013567ffffffffffffffff81111561299b578182fd5b6129a785828601612698565b9150509250929050565b600080600080608085870312156129c6578182fd5b843567ffffffffffffffff808211156129dd578384fd5b818701915061012080838a0312156129f3578485fd5b6129fc81612e50565b9050612a088984612701565b8152612a17896020850161260d565b6020820152612a29896040850161260d565b6040820152606083013560608201526080830135608082015260a083013560a0820152612a598960c0850161260d565b60c0820152612a6b8960e0850161260d565b60e08201526101008084013583811115612a83578687fd5b612a8f8b828701612698565b828401525050809650506020870135915080821115612aac578384fd5b50612ab987828801612618565b949794965050505060408301359260600135919050565b600060208284031215612ae1578081fd5b5035919050565b60008060008060808587031215612afd578182fd5b8451935060208501519250604085015191506060850151612b1d81612e77565b939692955090935050565b6000815180845260208085019450808401835b83811015612b5757815187529582019590820190600101612b3b565b509495945050505050565b15159052565b60008151808452815b81811015612b8d57602081850181015186830182015201612b71565b81811115612b9e5782602083870101525b50601f01601f19169290920160200192915050565b8051608080845281519084018190526000916020919082019060a0860190845b81811015612bf85783516001600160a01b031683529284019291840191600101612bd3565b505082850151915085810383870152612c118183612b28565b9250505060408301518482036040860152612c2c8282612b68565b9150506060830151612c416060860182612b62565b509392505050565b9182526001600160e01b031916602082015260240190565b6000828483379101908152919050565b61190160f01b81526002810192909252602282015260420190565b6001600160a01b0391909116815260200190565b6000602082526107426020830184612b28565b600060408252612cc66040830185612b28565b8281036020840152612cd88185612b28565b95945050505050565b901515815260200190565b92151583526020830191909152604082015260600190565b90815260200190565b8481526001600160a01b03848116602083015283166040820152608060608201819052600090612d3f90830184612bb3565b9695505050505050565b9283526001600160a01b03918216602084015216604082015260600190565b9586526001600160a01b0394851660208701529290931660408501526060840152608083019190915260a082015260c00190565b9485526020850193909352604084019190915260608301526001600160a01b0316608082015260a00190565b600083825260406020830152611a476040830184612b68565b9182526001600160a01b0316602082015260400190565b93845260ff9290921660208401526040830152606082015260800190565b6000602082526107426020830184612b68565b600083825260406020830152611a476040830184612b28565b60ff91909116815260200190565b60405181810167ffffffffffffffff81118282101715612e6f57600080fd5b604052919050565b6001600160a01b038116811461069257600080fd5b801515811461069257600080fdfea2646970667358221220425c6a099f25de1d53c454c359986434b095d14953bedb05bb53969b494503ce64736f6c63430007010033",
  "immutableReferences": {
    "290": [
      {
        "length": 32,
        "start": 2990
      }
    ],
    "292": [
      {
        "length": 32,
        "start": 1947
      }
    ],
    "1431": [
      {
        "length": 32,
        "start": 2954
      }
    ],
    "1650": [
      {
        "length": 32,
        "start": 2836
      }
    ],
    "2473": [
      {
        "length": 32,
        "start": 5281
      }
    ],
    "2475": [
      {
        "length": 32,
        "start": 5317
      }
    ],
    "5428": [
      {
        "length": 32,
        "start": 5612
      }
    ],
    "5430": [
      {
        "length": 32,
        "start": 5645
      }
    ],
    "5432": [
      {
        "length": 32,
        "start": 5579
      }
    ],
    "6015": [
      {
        "length": 32,
        "start": 3259
      }
    ],
    "9490": [
      {
        "length": 32,
        "start": 1867
      },
      {
        "length": 32,
        "start": 2392
      },
      {
        "length": 32,
        "start": 3917
      },
      {
        "length": 32,
        "start": 4640
      },
      {
        "length": 32,
        "start": 4818
      },
      {
        "length": 32,
        "start": 7842
      },
      {
        "length": 32,
        "start": 7907
      },
      {
        "length": 32,
        "start": 8317
      },
      {
        "length": 32,
        "start": 8568
      }
    ],
    "9492": [
      {
        "length": 32,
        "start": 2144
      },
      {
        "length": 32,
        "start": 2470
      },
      {
        "length": 32,
        "start": 3995
      },
      {
        "length": 32,
        "start": 4720
      },
      {
        "length": 32,
        "start": 4891
      },
      {
        "length": 32,
        "start": 7436
      },
      {
        "length": 32,
        "start": 7501
      },
      {
        "length": 32,
        "start": 8252
      },
      {
        "length": 32,
        "start": 8633
      }
    ],
    "9511": [
      {
        "length": 32,
        "start": 4567
      },
      {
        "length": 32,
        "start": 7086
      }
    ],
    "9513": [
      {
        "length": 32,
        "start": 4437
      },
      {
        "length": 32,
        "start": 7569
      },
      {
        "length": 32,
        "start": 8027
      },
      {
        "length": 32,
        "start": 8078
      },
      {
        "length": 32,
        "start": 8385
      },
      {
        "length": 32,
        "start": 8753
      },
      {
        "length": 32,
        "start": 8804
      }
    ],
    "9515": [
      {
        "length": 32,
        "start": 4502
      },
      {
        "length": 32,
        "start": 7639
      },
      {
        "length": 32,
        "start": 7705
      },
      {
        "length": 32,
        "start": 7975
      },
      {
        "length": 32,
        "start": 8455
      },
      {
        "length": 32,
        "start": 8506
      },
      {
        "length": 32,
        "start": 8701
      }
    ]
  },
  "source": "// Implementation of pool for new issues of security tokens that allows price discovery\r\n// (c) Kallol Borah, Verified Network, 2021\r\n\r\n//\"SPDX-License-Identifier: MIT\"\r\n\r\npragma solidity ^0.7.0;\r\npragma experimental ABIEncoderV2;\r\n\r\nimport \"@balancer-labs/v2-pool-utils/contracts/BasePool.sol\";\r\nimport \"@balancer-labs/v2-vault/contracts/interfaces/IGeneralPool.sol\";\r\n\r\nimport \"@balancer-labs/v2-solidity-utils/contracts/helpers/BalancerErrors.sol\";\r\nimport \"@balancer-labs/v2-solidity-utils/contracts/helpers/ERC20Helpers.sol\";\r\nimport \"@balancer-labs/v2-solidity-utils/contracts/math/Math.sol\";\r\n\r\nimport \"./utils/BokkyPooBahsDateTimeLibrary.sol\";\r\n\r\ncontract PrimaryIssuePool is BasePool, IGeneralPool\r\n{   \r\n    using BokkyPooBahsDateTimeLibrary for uint;\r\n    using Math for uint256;\r\n\r\n    IERC20 private immutable _security;\r\n    IERC20 private immutable _currency;\r\n\r\n    uint256 private constant _TOTAL_TOKENS = 3; //Balancer pool token, Security token, Currency token (ie, paired token)\r\n\r\n    uint256 private immutable _scalingFactorSecurity;\r\n    uint256 private immutable _scalingFactorCurrency;\r\n\r\n    uint256 private _minPrice;\r\n    uint256 private _maxPrice;\r\n\r\n    uint256 private _MAX_TOKEN_BALANCE;\r\n\r\n    uint256 private _cutoffTime;\r\n    uint256 private _startTime;\r\n\r\n    uint256 private immutable _bptIndex;\r\n    uint256 private immutable _securityIndex;\r\n    uint256 private immutable _currencyIndex;\r\n\r\n    address payable private balancerManager;\r\n\r\n    struct Params {\r\n        uint256 fee;\r\n        uint256 minPrice;\r\n        uint256 maxPrice;\r\n    }\r\n\r\n    struct NewPoolParams {\r\n        IVault vault;\r\n        string name;\r\n        string symbol;\r\n        IERC20 security;\r\n        IERC20 currency;\r\n        address[] assetManagers;\r\n        uint256 minimumPrice;\r\n        uint256 basePrice;\r\n        uint256 maxSecurityOffered;\r\n        uint256 issueFeePercentage;\r\n        uint256 pauseWindowDuration;\r\n        uint256 bufferPeriodDuration;\r\n        uint256 issueCutoffTime;\r\n        address owner;\r\n    }\r\n\r\n    constructor(NewPoolParams memory params)\r\n        BasePool(\r\n            params.vault,\r\n            IVault.PoolSpecialization.GENERAL,\r\n            params.name,\r\n            params.symbol,\r\n            _sortTokens(params.security, params.currency, IERC20(this)),\r\n            params.assetManagers,\r\n            params.issueFeePercentage,\r\n            params.pauseWindowDuration,\r\n            params.bufferPeriodDuration,\r\n            params.owner\r\n        )\r\n    {\r\n        // set tokens\r\n        _security = params.security;\r\n        _currency = params.currency;\r\n\r\n        // Set token indexes\r\n        (uint256 securityIndex, uint256 currencyIndex, uint256 bptIndex) = _getSortedTokenIndexes(\r\n            params.security,\r\n            params.currency,\r\n            IERC20(this)\r\n        );\r\n        _bptIndex = bptIndex;\r\n        _securityIndex = securityIndex;\r\n        _currencyIndex = currencyIndex;\r\n\r\n        // set scaling factors\r\n        _scalingFactorSecurity = _computeScalingFactor(params.security);\r\n        _scalingFactorCurrency = _computeScalingFactor(params.currency);\r\n\r\n        // set price bounds\r\n        _minPrice = params.minimumPrice;\r\n        _maxPrice = params.basePrice;\r\n\r\n        // set max total balance of securities\r\n        _MAX_TOKEN_BALANCE = params.maxSecurityOffered;\r\n\r\n        // set issue time bounds\r\n        _cutoffTime = params.issueCutoffTime;\r\n        _startTime = block.timestamp;\r\n\r\n        //set owner \r\n        balancerManager = payable(params.owner);\r\n    }\r\n\r\n    function getSecurity() external view returns (address) {\r\n        return address(_security);\r\n    }\r\n\r\n    function getCurrency() external view returns (address) {\r\n        return address(_currency);\r\n    }\r\n\r\n    function initialize() external {\r\n        // join the pool\r\n        IAsset[] memory _assets = new IAsset[](2);\r\n        _assets[0] = IAsset(address(_security));\r\n        _assets[1] = IAsset(address(_currency));\r\n        uint256[] memory _maxAmountsIn = new uint256[](2);\r\n        _maxAmountsIn[0] = _MAX_TOKEN_BALANCE;\r\n        _maxAmountsIn[1] = Math.div(_MAX_TOKEN_BALANCE, _minPrice, false);\r\n        IVault.JoinPoolRequest memory request = IVault.JoinPoolRequest({\r\n            assets: _assets,\r\n            maxAmountsIn: _maxAmountsIn,\r\n            userData: \"\",\r\n            fromInternalBalance: false\r\n        });        \r\n        getVault().joinPool(getPoolId(), balancerManager, address(this), request);                                \r\n    }\r\n\r\n    function exit() external {\r\n        // exit the pool\r\n        IAsset[] memory _assets = new IAsset[](2);\r\n        _assets[0] = IAsset(address(_security));\r\n        _assets[1] = IAsset(address(_currency));\r\n        uint256[] memory _minAmountsIn = new uint256[](2);\r\n        _minAmountsIn[0] = _MAX_TOKEN_BALANCE;\r\n        _minAmountsIn[1] = Math.div(_MAX_TOKEN_BALANCE, _maxPrice, false);\r\n        IVault.ExitPoolRequest memory request = IVault.ExitPoolRequest({\r\n            assets: _assets,\r\n            minAmountsOut: _minAmountsIn,\r\n            userData: \"\",\r\n            toInternalBalance: false\r\n        });        \r\n        getVault().exitPool(getPoolId(), address(this), balancerManager, request);                                \r\n    }\r\n\r\n    function onSwap(\r\n        SwapRequest memory request,\r\n        uint256[] memory balances,\r\n        uint256 indexIn,\r\n        uint256 indexOut\r\n    ) public override onlyVault(request.poolId) view returns (uint256) {\r\n        \r\n        // ensure that swap request is not beyond issue's cut off time\r\n        require(BokkyPooBahsDateTimeLibrary.addSeconds(_startTime, _cutoffTime) >= block.timestamp);\r\n\r\n        // ensure that price is within price band\r\n        uint256[] memory scalingFactors = _scalingFactors();\r\n        Params memory params = Params({\r\n            fee: getSwapFeePercentage(),\r\n            minPrice: _minPrice,\r\n            maxPrice: _maxPrice\r\n        });\r\n\r\n        if (request.kind == IVault.SwapKind.GIVEN_IN) {\r\n            request.amount = _upscale(request.amount, scalingFactors[indexIn]);\r\n            uint256 amountOut = _onSwapIn(request, balances, params);\r\n            return _downscaleDown(amountOut, scalingFactors[indexOut]);\r\n        } else if (request.kind == IVault.SwapKind.GIVEN_OUT){\r\n            request.amount = _upscale(request.amount, scalingFactors[indexOut]);\r\n            uint256 amountIn = _onSwapOut(request, balances, params);\r\n            return _downscaleUp(amountIn, scalingFactors[indexIn]);\r\n        }\r\n\r\n    }\r\n\r\n    function _onSwapIn(\r\n        SwapRequest memory request,\r\n        uint256[] memory balances,\r\n        Params memory params\r\n    ) internal view returns (uint256) {\r\n        if (request.tokenIn == _security) {\r\n            return _swapSecurityIn(request, balances, params);\r\n        } else if (request.tokenIn == _currency) {\r\n            return _swapCurrencyIn(request, balances, params);\r\n        } else {\r\n            _revert(Errors.INVALID_TOKEN);\r\n        }\r\n    }\r\n\r\n    function _swapSecurityIn(\r\n        SwapRequest memory request,\r\n        uint256[] memory balances,\r\n        Params memory params\r\n    ) internal view returns (uint256) {\r\n        _require(request.tokenOut == _currency, Errors.INVALID_TOKEN);\r\n        \r\n        //returning currency for current price of security paid in, but only if new price of security do not go out of price band\r\n        if(request.tokenOut==_currency){\r\n            uint256 postPaidSecurityBalance = Math.add(balances[_securityIndex], request.amount);\r\n            uint256 tokenOutAmt = Math.div(postPaidSecurityBalance, balances[_currencyIndex], false);\r\n            uint256 postPaidCurrencyBalance = Math.sub(balances[_currencyIndex], tokenOutAmt);\r\n\r\n            if(Math.div(postPaidSecurityBalance, postPaidCurrencyBalance, false) >= params.minPrice &&\r\n                Math.div(postPaidSecurityBalance, postPaidCurrencyBalance, false) <= params.maxPrice)\r\n                return tokenOutAmt;\r\n            else\r\n                return 0;\r\n        }      \r\n    }\r\n\r\n    function _swapCurrencyIn(\r\n        SwapRequest memory request,\r\n        uint256[] memory balances,\r\n        Params memory params\r\n    ) internal view returns (uint256) {\r\n        _require(request.tokenOut == _security, Errors.INVALID_TOKEN);\r\n        \r\n        //returning security for currency paid in at current price of security, but only if new price of security do not go out of price band\r\n        if(request.tokenOut==_security){\r\n            uint256 postPaidCurrencyBalance = Math.add(balances[_currencyIndex], request.amount);\r\n            uint256 tokenOutAmt = Math.div(postPaidCurrencyBalance, balances[_securityIndex], false);\r\n            uint256 postPaidSecurityBalance = Math.sub(balances[_securityIndex], tokenOutAmt);\r\n\r\n            if(Math.div(postPaidSecurityBalance, postPaidCurrencyBalance, false) >= params.minPrice &&\r\n                Math.div(postPaidSecurityBalance, postPaidCurrencyBalance, false) <= params.maxPrice)\r\n                return tokenOutAmt;\r\n            else\r\n                return 0;\r\n        }\r\n    }\r\n\r\n    function _onSwapOut(\r\n        SwapRequest memory request,\r\n        uint256[] memory balances,\r\n        Params memory params\r\n    ) internal view returns (uint256) {\r\n        if (request.tokenOut == _security) {\r\n            return _swapSecurityOut(request, balances, params);\r\n        } else if (request.tokenOut == _currency) {\r\n            return _swapCurrencyOut(request, balances, params);\r\n        } else {\r\n            _revert(Errors.INVALID_TOKEN);\r\n        }\r\n    }\r\n\r\n    function _swapSecurityOut(\r\n        SwapRequest memory request,\r\n        uint256[] memory balances,\r\n        Params memory params\r\n    ) internal view returns (uint256) {\r\n        _require(request.tokenIn == _currency, Errors.INVALID_TOKEN);\r\n        \r\n        //returning currency to be paid in, but only if new price of security do not go out of price band\r\n        if(request.tokenOut==_security){\r\n            uint256 postPaidSecurityBalance = Math.sub(balances[_securityIndex], request.amount);\r\n            uint256 tokenOutAmt = Math.div(postPaidSecurityBalance, balances[_currencyIndex], false);\r\n            uint256 postPaidCurrencyBalance = Math.add(balances[_currencyIndex], tokenOutAmt);\r\n\r\n            if(Math.div(postPaidSecurityBalance, postPaidCurrencyBalance, false) >= params.minPrice &&\r\n                Math.div(postPaidSecurityBalance, postPaidCurrencyBalance, false) <= params.maxPrice)\r\n                return tokenOutAmt;\r\n            else\r\n                return 0; \r\n        }\r\n    }\r\n\r\n    function _swapCurrencyOut(\r\n        SwapRequest memory request,\r\n        uint256[] memory balances,\r\n        Params memory params\r\n    ) internal view returns (uint256) {\r\n        _require(request.tokenIn == _security, Errors.INVALID_TOKEN);\r\n        \r\n        //returning security to be paid in, but only if new price of security do not go out of price band\r\n        if(request.tokenOut==_currency){\r\n            uint256 postPaidCurrencyBalance = Math.sub(balances[_currencyIndex], request.amount);\r\n            uint256 tokenOutAmt = Math.div(postPaidCurrencyBalance, balances[_securityIndex], false);\r\n            uint256 postPaidSecurityBalance = Math.add(balances[_securityIndex], tokenOutAmt);\r\n\r\n            if(Math.div(postPaidSecurityBalance, postPaidCurrencyBalance, false) >= params.minPrice &&\r\n                Math.div(postPaidSecurityBalance, postPaidCurrencyBalance, false) <= params.maxPrice)\r\n                return tokenOutAmt;\r\n            else\r\n                return 0;\r\n        }\r\n    }\r\n\r\n    function _onInitializePool(\r\n        bytes32,\r\n        address sender,\r\n        address recipient,\r\n        uint256[] memory,\r\n        bytes memory\r\n    ) internal override whenNotPaused view returns (uint256, uint256[] memory) {\r\n\r\n        //the primary issue pool is initialized by the balancer manager contract\r\n        _require(sender == balancerManager, Errors.CALLER_IS_NOT_OWNER);\r\n        _require(recipient == address(this), Errors.CALLER_IS_NOT_OWNER);\r\n\r\n        uint256[] memory amountsIn = new uint256[](_TOTAL_TOKENS);\r\n        //setting balancer pool token balance to maximum amount of security tokens that can potentially be sold (at the minimum price)\r\n        amountsIn[_bptIndex] = _MAX_TOKEN_BALANCE;\r\n\r\n        return (_MAX_TOKEN_BALANCE, amountsIn);\r\n        \r\n    }\r\n\r\n    function _onJoinPool(\r\n        bytes32,\r\n        address,\r\n        address,\r\n        uint256[] memory,\r\n        uint256,\r\n        uint256,\r\n        uint256[] memory,\r\n        bytes memory\r\n    )\r\n        internal\r\n        pure\r\n        override\r\n        returns (\r\n            uint256,\r\n            uint256[] memory,\r\n            uint256[] memory\r\n        )\r\n    {\r\n        _revert(Errors.UNHANDLED_JOIN_KIND);\r\n    }\r\n\r\n    function _onExitPool(\r\n        bytes32,\r\n        address,\r\n        address,\r\n        uint256[] memory,\r\n        uint256,\r\n        uint256,\r\n        uint256[] memory,\r\n        bytes memory\r\n    )\r\n        internal\r\n        pure\r\n        override\r\n        returns (\r\n            uint256,\r\n            uint256[] memory,\r\n            uint256[] memory\r\n        )\r\n    {\r\n        _revert(Errors.UNHANDLED_JOIN_KIND);\r\n    }\r\n\r\n    function _getMaxTokens() internal pure override returns (uint256) {\r\n        return _TOTAL_TOKENS;\r\n    }\r\n\r\n    function _getTotalTokens() internal view virtual override returns (uint256) {\r\n        return _TOTAL_TOKENS;\r\n    }\r\n\r\n    function _scalingFactor(IERC20 token) internal view virtual override returns (uint256) {\r\n        if (token == _security || token == _currency || token == IERC20(this)) {\r\n            return FixedPoint.ONE;\r\n        } else {\r\n            _revert(Errors.INVALID_TOKEN);\r\n        }\r\n    }\r\n\r\n    function _scalingFactors() internal view virtual override returns (uint256[] memory) {\r\n        uint256[] memory scalingFactors = new uint256[](_TOTAL_TOKENS);\r\n        scalingFactors[_securityIndex] = FixedPoint.ONE;\r\n        scalingFactors[_currencyIndex] = FixedPoint.ONE;\r\n        scalingFactors[_bptIndex] = FixedPoint.ONE;\r\n        return scalingFactors;\r\n    }\r\n\r\n}",
  "sourcePath": "D:\\Code\\verified-quorum\\balancer\\contracts\\PrimaryIssuePool.sol",
  "compiler": {
    "name": "solc",
    "version": "0.7.1+commit.f4a555be.Emscripten.clang"
  },
  "schemaVersion": "3.4.3",
  "updatedAt": "2022-06-22T17:34:42.920Z",
  "devdoc": {
    "kind": "dev",
    "methods": {
      "DOMAIN_SEPARATOR()": {
        "details": "See {IERC20Permit-DOMAIN_SEPARATOR}."
      },
      "allowance(address,address)": {
        "details": "See {IERC20-allowance}."
      },
      "approve(address,uint256)": {
        "details": "See {IERC20-approve}. Requirements: - `spender` cannot be the zero address."
      },
      "balanceOf(address)": {
        "details": "See {IERC20-balanceOf}."
      },
      "decimals()": {
        "details": "Returns the number of decimals used to get its user representation. For example, if `decimals` equals `2`, a balance of `505` tokens should be displayed to a user as `5,05` (`505 / 10 ** 2`). Tokens usually opt for a value of 18, imitating the relationship between Ether and Wei. This is the value {ERC20} uses, unless {_setupDecimals} is called. NOTE: This information is only used for _display_ purposes: it in no way affects any of the arithmetic of the contract, including {IERC20-balanceOf} and {IERC20-transfer}."
      },
      "decreaseAllowance(address,uint256)": {
        "details": "Override to allow decreasing allowance by more than the current amount (setting it to zero)"
      },
      "getActionId(bytes4)": {
        "details": "Returns the action identifier associated with the external function described by `selector`."
      },
      "getPausedState()": {
        "details": "Returns the current contract pause status, as well as the end times of the Pause Window and Buffer Period."
      },
      "increaseAllowance(address,uint256)": {
        "details": "Atomically increases the allowance granted to `spender` by the caller. This is an alternative to {approve} that can be used as a mitigation for problems described in {IERC20-approve}. Emits an {Approval} event indicating the updated allowance. Requirements: - `spender` cannot be the zero address."
      },
      "name()": {
        "details": "Returns the name of the token."
      },
      "nonces(address)": {
        "details": "See {IERC20Permit-nonces}."
      },
      "onExitPool(bytes32,address,address,uint256[],uint256,uint256,bytes)": {
        "details": "Called by the Vault when a user calls `IVault.exitPool` to remove liquidity from this Pool. Returns how many tokens the Vault should deduct from the Pool's balances, as well as the amount of protocol fees the Pool owes to the Vault. The Vault will then take tokens from the Pool's balances and send them to `recipient`, as well as collect the reported amount in protocol fees, which the Pool should calculate based on `protocolSwapFeePercentage`. Protocol fees are charged on exit events to guarantee that users exiting the Pool have paid their share. `sender` is the account performing the exit (typically the pool shareholder), and `recipient` is the account to which the Vault will send the proceeds. `balances` contains the total token balances for each token the Pool registered in the Vault, in the same order that `IVault.getPoolTokens` would return. `lastChangeBlock` is the last block in which *any* of the Pool's registered tokens last changed its total balance. `userData` contains any pool-specific instructions needed to perform the calculations, such as the type of exit (e.g., proportional given an amount of pool shares, single-asset, multi-asset, etc.) Contracts implementing this function should check that the caller is indeed the Vault before performing any state-changing operations, such as burning pool shares."
      },
      "onJoinPool(bytes32,address,address,uint256[],uint256,uint256,bytes)": {
        "details": "Called by the Vault when a user calls `IVault.joinPool` to add liquidity to this Pool. Returns how many of each registered token the user should provide, as well as the amount of protocol fees the Pool owes to the Vault. The Vault will then take tokens from `sender` and add them to the Pool's balances, as well as collect the reported amount in protocol fees, which the pool should calculate based on `protocolSwapFeePercentage`. Protocol fees are reported and charged on join events so that the Pool is free of debt whenever new users join. `sender` is the account performing the join (from which tokens will be withdrawn), and `recipient` is the account designated to receive any benefits (typically pool shares). `balances` contains the total balances for each token the Pool registered in the Vault, in the same order that `IVault.getPoolTokens` would return. `lastChangeBlock` is the last block in which *any* of the Pool's registered tokens last changed its total balance. `userData` contains any pool-specific instructions needed to perform the calculations, such as the type of join (e.g., proportional given an amount of pool shares, single-asset, multi-asset, etc.) Contracts implementing this function should check that the caller is indeed the Vault before performing any state-changing operations, such as minting pool shares."
      },
      "permit(address,address,uint256,uint256,uint8,bytes32,bytes32)": {
        "details": "See {IERC20Permit-permit}."
      },
      "queryExit(bytes32,address,address,uint256[],uint256,uint256,bytes)": {
        "details": "Returns the amount of BPT that would be burned from `sender` if the `onExitPool` hook were called by the Vault with the same arguments, along with the number of tokens `recipient` would receive. This function is not meant to be called directly, but rather from a helper contract that fetches current Vault data, such as the protocol swap fee percentage and Pool balances. Like `IVault.queryBatchSwap`, this function is not view due to internal implementation details: the caller must explicitly use eth_call instead of eth_sendTransaction."
      },
      "queryJoin(bytes32,address,address,uint256[],uint256,uint256,bytes)": {
        "details": "Returns the amount of BPT that would be granted to `recipient` if the `onJoinPool` hook were called by the Vault with the same arguments, along with the number of tokens `sender` would have to supply. This function is not meant to be called directly, but rather from a helper contract that fetches current Vault data, such as the protocol swap fee percentage and Pool balances. Like `IVault.queryBatchSwap`, this function is not view due to internal implementation details: the caller must explicitly use eth_call instead of eth_sendTransaction."
      },
      "symbol()": {
        "details": "Returns the symbol of the token, usually a shorter version of the name."
      },
      "totalSupply()": {
        "details": "See {IERC20-totalSupply}."
      },
      "transfer(address,uint256)": {
        "details": "See {IERC20-transfer}. Requirements: - `recipient` cannot be the zero address. - the caller must have a balance of at least `amount`."
      },
      "transferFrom(address,address,uint256)": {
        "details": "Override to allow for 'infinite allowance' and let the token owner use `transferFrom` with no self-allowance"
      }
    },
    "version": 1
  },
  "userdoc": {
    "kind": "user",
    "methods": {},
    "version": 1
  }
}