{
  "_format": "hh-sol-artifact-1",
  "contractName": "PrimaryIssuePoolFactory",
  "sourceName": "contracts/PrimaryIssuePoolFactory.sol",
  "abi": [
    {
      "inputs": [
        {
          "internalType": "contract IVault",
          "name": "vault",
          "type": "address"
        },
        {
          "internalType": "contract IProtocolFeePercentagesProvider",
          "name": "protocolFeeProvider",
          "type": "address"
        }
      ],
      "stateMutability": "nonpayable",
      "type": "constructor"
    },
    {
      "anonymous": false,
      "inputs": [],
      "name": "FactoryDisabled",
      "type": "event"
    },
    {
      "anonymous": false,
      "inputs": [
        {
          "indexed": true,
          "internalType": "address",
          "name": "pool",
          "type": "address"
        }
      ],
      "name": "PoolCreated",
      "type": "event"
    },
    {
      "inputs": [
        {
          "components": [
            {
              "internalType": "string",
              "name": "name",
              "type": "string"
            },
            {
              "internalType": "string",
              "name": "symbol",
              "type": "string"
            },
            {
              "internalType": "address",
              "name": "security",
              "type": "address"
            },
            {
              "internalType": "address",
              "name": "currency",
              "type": "address"
            },
            {
              "internalType": "uint256",
              "name": "minimumPrice",
              "type": "uint256"
            },
            {
              "internalType": "uint256",
              "name": "minimumOrderSize",
              "type": "uint256"
            },
            {
              "internalType": "uint256",
              "name": "maxAmountsIn",
              "type": "uint256"
            },
            {
              "internalType": "uint256",
              "name": "swapFeePercentage",
              "type": "uint256"
            },
            {
              "internalType": "uint256",
              "name": "cutOffTime",
              "type": "uint256"
            },
            {
              "internalType": "string",
              "name": "offeringDocs",
              "type": "string"
            }
          ],
          "internalType": "struct IPrimaryIssuePoolFactory.FactoryPoolParams",
          "name": "factoryPoolParams",
          "type": "tuple"
        }
      ],
      "name": "create",
      "outputs": [
        {
          "internalType": "address",
          "name": "",
          "type": "address"
        }
      ],
      "stateMutability": "nonpayable",
      "type": "function"
    },
    {
      "inputs": [],
      "name": "disable",
      "outputs": [],
      "stateMutability": "nonpayable",
      "type": "function"
    },
    {
      "inputs": [
        {
          "internalType": "bytes4",
          "name": "selector",
          "type": "bytes4"
        }
      ],
      "name": "getActionId",
      "outputs": [
        {
          "internalType": "bytes32",
          "name": "",
          "type": "bytes32"
        }
      ],
      "stateMutability": "view",
      "type": "function"
    },
    {
      "inputs": [],
      "name": "getAuthorizer",
      "outputs": [
        {
          "internalType": "contract IAuthorizer",
          "name": "",
          "type": "address"
        }
      ],
      "stateMutability": "view",
      "type": "function"
    },
    {
      "inputs": [],
      "name": "getCreationCode",
      "outputs": [
        {
          "internalType": "bytes",
          "name": "",
          "type": "bytes"
        }
      ],
      "stateMutability": "view",
      "type": "function"
    },
    {
      "inputs": [],
      "name": "getCreationCodeContracts",
      "outputs": [
        {
          "internalType": "address",
          "name": "contractA",
          "type": "address"
        },
        {
          "internalType": "address",
          "name": "contractB",
          "type": "address"
        }
      ],
      "stateMutability": "view",
      "type": "function"
    },
    {
      "inputs": [],
      "name": "getPauseConfiguration",
      "outputs": [
        {
          "internalType": "uint256",
          "name": "pauseWindowDuration",
          "type": "uint256"
        },
        {
          "internalType": "uint256",
          "name": "bufferPeriodDuration",
          "type": "uint256"
        }
      ],
      "stateMutability": "view",
      "type": "function"
    },
    {
      "inputs": [],
      "name": "getProtocolFeePercentagesProvider",
      "outputs": [
        {
          "internalType": "contract IProtocolFeePercentagesProvider",
          "name": "",
          "type": "address"
        }
      ],
      "stateMutability": "view",
      "type": "function"
    },
    {
      "inputs": [],
      "name": "getVault",
      "outputs": [
        {
          "internalType": "contract IVault",
          "name": "",
          "type": "address"
        }
      ],
      "stateMutability": "view",
      "type": "function"
    },
    {
      "inputs": [],
      "name": "isDisabled",
      "outputs": [
        {
          "internalType": "bool",
          "name": "",
          "type": "bool"
        }
      ],
      "stateMutability": "view",
      "type": "function"
    },
    {
      "inputs": [
        {
          "internalType": "address",
          "name": "pool",
          "type": "address"
        }
      ],
      "name": "isPoolFromFactory",
      "outputs": [
        {
          "internalType": "bool",
          "name": "",
          "type": "bool"
        }
      ],
      "stateMutability": "view",
      "type": "function"
    }
  ],
  "bytecode": "0x6101806040523480156200001257600080fd5b5060405162006016380380620060168339810160408190526200003591620001fc565b8181604051806020016200004990620001ee565b601f1982820381018352601f90910116604052805183903090839060006002820460a081905280830360e08190528185529091508362000095816200010f602090811b6200042217901c565b60601b6001600160601b0319166080528285018051838252620000c4826200010f602090811b6200042217901c565b6001600160601b0319606091821b811660c05296909352905261010095909552505092821b831661012052509290921b90911661014052505050426276a70001610160525062000250565b80517f602038038060206000396000f3fefefefefefefefefefefefefefefefefefefe808352600091602081018484f090845291506200015d6001600160a01b03831615156101ac62000163565b50919050565b816200017457620001748162000178565b5050565b6200018a816210905360ea1b6200018d565b50565b62461bcd60e51b600090815260206004526007602452600a808404818106603090810160081b958390069590950190829004918206850160101b01602363ffffff0060e086901c160160181b0190930160c81b60445260e882901c90606490fd5b61517d8062000e9983390190565b600080604083850312156200020f578182fd5b82516200021c816200023a565b60208401519092506200022f816200023a565b809150509250929050565b6001600160a01b03811681146200018a57600080fd5b60805160601c60a05160c05160601c60e051610100516101205160601c6101405160601c61016051610bd0620002c96000398061023c528061026552508061031052508061038652508061033652508061047c5250806101c352806104f852508061049d5250806101a252806104d45250610bd06000f3fe608060405234801561001057600080fd5b50600436106100a85760003560e01c80636634b753116100715780636634b753146101215780636c57f5a914610141578063739238d614610149578063851c1bb3146101515780638d928af814610171578063aaabadc514610179576100a8565b8062c194db146100ad578063174481fa146100cb5780632236c4cc146100e15780632da47c40146101015780632f2770db14610117575b600080fd5b6100b5610181565b6040516100c29190610a4a565b60405180910390f35b6100d36101a0565b6040516100c29291906109fd565b6100f46100ef366004610868565b6101e6565b6040516100c291906109e9565b610109610236565b6040516100c2929190610b50565b61011f6102a0565b005b61013461012f3660046107e8565b6102e7565b6040516100c29190610a17565b610134610305565b6100f461030e565b61016461015f366004610824565b610332565b6040516100c29190610a22565b6100f4610384565b6100f46103a8565b606061019b60405180602001604052806000815250610474565b905090565b7f00000000000000000000000000000000000000000000000000000000000000007f00000000000000000000000000000000000000000000000000000000000000009091565b60008060006101f3610236565b9150915061022e610202610384565b8584843360405160200161021a959493929190610a5d565b60405160208183030381529060405261054d565b949350505050565b600080427f000000000000000000000000000000000000000000000000000000000000000081101561029257807f000000000000000000000000000000000000000000000000000000000000000003925062278d00915061029b565b60009250600091505b509091565b6102a86105b6565b6102b06105e7565b6001805460ff1916811790556040517f432acbfd662dbb5d8b378384a67159b47ca9d0f1b79f97cf64cf8585fa362d5090600090a1565b6001600160a01b031660009081526020819052604090205460ff1690565b60015460ff1690565b7f000000000000000000000000000000000000000000000000000000000000000090565b60007f0000000000000000000000000000000000000000000000000000000000000000826040516020016103679291906109d1565b604051602081830303815290604052805190602001209050919050565b7f000000000000000000000000000000000000000000000000000000000000000090565b60006103b2610384565b6001600160a01b031663aaabadc56040518163ffffffff1660e01b815260040160206040518083038186803b1580156103ea57600080fd5b505afa1580156103fe573d6000803e3d6000fd5b505050506040513d601f19601f8201168201806040525081019061019b919061084c565b80517f602038038060206000396000f3fefefefefefefefefefefefefefefefefefefe808352600091602081018484f0908452915061046e6001600160a01b03831615156101ac6105fc565b50919050565b8051604080517f00000000000000000000000000000000000000000000000000000000000000007f0000000000000000000000000000000000000000000000000000000000000000818101858101848101602090810190965280855293957f00000000000000000000000000000000000000000000000000000000000000009592947f000000000000000000000000000000000000000000000000000000000000000094938801866000828a3c846000888301883c506020898101908985010161053f81838661060e565b505050505050505050919050565b60006105576105e7565b60006105628361064c565b6001600160a01b038116600081815260208190526040808220805460ff191660011790555192935090917f83a48fbcfc991335314e74d0496aab6a1987e992ddc85dddbcc4d6dd6ef2e9fc9190a292915050565b60006105cd6000356001600160e01b031916610332565b90506105e46105dc8233610687565b6101916105fc565b50565b6105fa6105f2610305565b1560d36105fc565b565b8161060a5761060a81610719565b5050565b5b6020811061062e578151835260209283019290910190601f190161060f565b905182516020929092036101000a6000190180199091169116179052565b6000606061065983610474565b905060008151602083016000f090506001600160a01b038116610680573d6000803e3d6000fd5b9392505050565b60006106916103a8565b6001600160a01b0316639be2a8848484306040518463ffffffff1660e01b81526004016106c093929190610a2b565b60206040518083038186803b1580156106d857600080fd5b505afa1580156106ec573d6000803e3d6000fd5b505050506040513d601f19601f820116820180604052508101906107109190610804565b90505b92915050565b62461bcd60e51b600090815260206004526007602452600a808304818106603090810160081b83860601918390049283060160101b016642414c230000300160c81b6044526105e4916210905360ea1b906242414c90606490fd5b803561071381610b85565b600082601f83011261078f578081fd5b813567ffffffffffffffff8111156107a5578182fd5b6107b8601f8201601f1916602001610b5e565b91508082528360208285010111156107cf57600080fd5b8060208401602084013760009082016020015292915050565b6000602082840312156107f9578081fd5b813561068081610b85565b600060208284031215610815578081fd5b81518015158114610680578182fd5b600060208284031215610835578081fd5b81356001600160e01b031981168114610680578182fd5b60006020828403121561085d578081fd5b815161068081610b85565b600060208284031215610879578081fd5b813567ffffffffffffffff80821115610890578283fd5b81840191506101408083870312156108a6578384fd5b6108af81610b5e565b90508235828111156108bf578485fd5b6108cb8782860161077f565b8252506020830135828111156108df578485fd5b6108eb8782860161077f565b6020830152506108fe8660408501610774565b60408201526109108660608501610774565b60608201526080830135608082015260a083013560a082015260c083013560c082015260e083013560e0820152610100808401358183015250610120808401358381111561095c578586fd5b6109688882870161077f565b918301919091525095945050505050565b6001600160a01b03169052565b60008151808452815b818110156109ab5760208185018101518683018201520161098f565b818111156109bc5782602083870101525b50601f01601f19169290920160200192915050565b9182526001600160e01b031916602082015260240190565b6001600160a01b0391909116815260200190565b6001600160a01b0392831681529116602082015260400190565b901515815260200190565b90815260200190565b9283526001600160a01b03918216602084015216604082015260600190565b6000602082526107106020830184610986565b600060018060a01b038716825260a0602083015285516101408060a0850152610a8a6101e0850183610986565b91506020880151609f19808685030160c0870152610aa88483610986565b935060408a01519150610abe60e0870183610979565b60608a01519150610100610ad481880184610979565b60808b01516101208881019190915260a08c01519488019490945260c08b015161016088015260e08b01516101808801528a01516101a0870152918901518584039092016101c086015250610b298282610986565b92505050846040830152836060830152610b466080830184610979565b9695505050505050565b918252602082015260400190565b60405181810167ffffffffffffffff81118282101715610b7d57600080fd5b604052919050565b6001600160a01b03811681146105e457600080fdfea2646970667358221220e8aa43ed2f05bef1f63d984fc5f119d56563908c485e504bf5f57fc68c6e721a64736f6c634300070100336103806040523480156200001257600080fd5b506040516200517d3803806200517d833981016040819052620000359162000b5f565b846000856000015186602001516200005d8860400151896060015130620004ef60201b60201c565b604080516003808252608082019092529060208201606080368337019050508960e00151898989828289898d85336001600160a01b031660001b8480604051806040016040528060018152602001603160f81b81525087878160039080519060200190620000cd92919062000a10565b508051620000e390600490602084019062000a10565b50506005805460ff19166012179055508151602092830120608052805191012060a052507f8b73c3c69bb8fe3d512ecc4cf759cc79239f7b179b0ffacaa9a75d522b39400f60c05260e0526001600160601b0319606091821b81166101005291901b1661012052506200016190506276a700831115610194620005be565b6200017562278d00821115610195620005be565b429091016101408190520161016052855162000197906002111560c8620005be565b620001b1620001a5620005d3565b8751111560c9620005be565b620001c786620005d860201b620010a71760201c565b620001d284620005e4565b6040516309b2760f60e01b81526000906001600160a01b038c16906309b2760f9062000203908d9060040162000d7d565b602060405180830381600087803b1580156200021e57600080fd5b505af115801562000233573d6000803e3d6000fd5b505050506040513d601f19601f8201168201806040525081019062000259919062000b27565b604051633354e3e960e11b81529091506001600160a01b038c16906366a9c7d2906200028e9084908b908b9060040162000ce1565b600060405180830381600087803b158015620002a957600080fd5b505af1158015620002be573d6000803e3d6000fd5b505050508061018081815250508a6001600160a01b031663d2946c2b6040518163ffffffff1660e01b815260040160206040518083038186803b1580156200030557600080fd5b505afa1580156200031a573d6000803e3d6000fd5b505050506040513d601f19601f8201168201806040525081019062000340919062000b40565b6001600160a01b03166101a0816001600160a01b031660601b81525050505050505050505050505083604001516001600160a01b03166101c0816001600160a01b031660601b8152505083606001516001600160a01b03166101e0816001600160a01b031660601b815250506000806000620003cc87604001518860600151306200067860201b60201c565b61030083905261032082905261034081905260408a01519295509093509150620003f6906200076e565b6102005260608701516200040a906200076e565b6102205260808701516102405260a08701516102605260e08701516102805260c08701516102a0526101008701516102c052426102e05261012087015180516200045d9160099160209091019062000a10565b50836001600160a01b0316610360816001600160a01b031660601b8152505086604001516001600160a01b03167fcc19f8fbf7b272756fdb594e385d63f8d5cdd71b279584121ec82542123c93888860a0015189606001518a60c001518b61010001518c6101200151604051620004d995949392919062000d9b565b60405180910390a2505050505050505062000e70565b6060600080806200050287878762000678565b60408051600380825260808201909252939650919450925060208201606080368337019050509350868484815181106200053857fe5b60200260200101906001600160a01b031690816001600160a01b031681525050858483815181106200056657fe5b60200260200101906001600160a01b031690816001600160a01b031681525050848482815181106200059457fe5b60200260200101906001600160a01b031690816001600160a01b0316815250505050509392505050565b81620005cf57620005cf8162000842565b5050565b600390565b80620005cf8162000857565b620005fd620005f2620008e3565b82101560cb620005be565b620006166200060b620008ec565b82111560ca620005be565b620006388160c0603f600854620008f860201b620010b117909392919060201c565b6008556040517fa9ba3ffe0b6c366b81232caab38605a0699ad5398d6cce76f91ee809e322dafc906200066d90839062000d92565b60405180910390a150565b6000806000846001600160a01b0316866001600160a01b031610156200070157836001600160a01b0316856001600160a01b03161015620006c457506000915060019050600262000765565b836001600160a01b0316866001600160a01b03161015620006f057506000915060029050600162000765565b506001915060029050600062000765565b846001600160a01b0316846001600160a01b031610156200072d57506002915060019050600062000765565b856001600160a01b0316846001600160a01b031610156200075957506002915060009050600162000765565b50600191506000905060025b93509350939050565b60006001600160a01b038216301415620007925750670de0b6b3a76400006200083d565b6000826001600160a01b031663313ce5676040518163ffffffff1660e01b815260040160206040518083038186803b158015620007ce57600080fd5b505afa158015620007e3573d6000803e3d6000fd5b505050506040513d601f19601f8201168201806040525081019062000809919062000cbe565b60ff1690506000620008286012836200091d60201b620010d41760201c565b905080600a0a670de0b6b3a764000002925050505b919050565b62000854816210905360ea1b6200093a565b50565b600281511015620008685762000854565b6000816000815181106200087857fe5b602002602001015190506000600190505b8251811015620008de576000838281518110620008a257fe5b60200260200101519050620008d3816001600160a01b0316846001600160a01b0316106065620005be60201b60201c565b915060010162000889565b505050565b64e8d4a5100090565b67016345785d8a000090565b6000620009078484846200099b565b506001901b60001901811b1992909216911b1790565b60006200092f838311156001620005be565b508082035b92915050565b62461bcd60e51b600090815260206004526007602452600a808404818106603090810160081b958390069590950190829004918206850160101b01602363ffffff0060e086901c160160181b0190930160c81b60445260e882901c90606490fd5b620009ac61010083106064620005be565b620009e560018210158015620009dd5750620009d960ff8461010003620009f660201b620010ea1760201c565b8211155b6064620005be565b620008de83821c156101b4620005be565b600081831062000a07578162000a09565b825b9392505050565b828054600181600116156101000203166002900490600052602060002090601f016020900481019282601f1062000a5357805160ff191683800117855562000a83565b8280016001018555821562000a83579182015b8281111562000a8357825182559160200191906001019062000a66565b5062000a9192915062000a95565b5090565b5b8082111562000a91576000815560010162000a96565b8051620009348162000e5a565b600082601f83011262000aca578081fd5b81516001600160401b0381111562000ae0578182fd5b62000af5601f8201601f191660200162000df4565b915080825283602082850101111562000b0d57600080fd5b62000b2081602084016020860162000e27565b5092915050565b60006020828403121562000b39578081fd5b5051919050565b60006020828403121562000b52578081fd5b815162000a098162000e5a565b600080600080600060a0868803121562000b77578081fd5b855162000b848162000e5a565b60208701519095506001600160401b038082111562000ba1578283fd5b818801915061014080838b03121562000bb8578384fd5b62000bc38162000df4565b905082518281111562000bd4578485fd5b62000be28b82860162000ab9565b82525060208301518281111562000bf7578485fd5b62000c058b82860162000ab9565b60208301525062000c1a8a6040850162000aac565b604082015262000c2e8a6060850162000aac565b60608201526080830151608082015260a083015160a082015260c083015160c082015260e083015160e0820152610100808401518183015250610120808401518381111562000c7b578586fd5b62000c898c82870162000ab9565b828401525050809650505050604086015192506060860151915062000cb2876080880162000aac565b90509295509295909350565b60006020828403121562000cd0578081fd5b815160ff8116811462000a09578182fd5b60006060820185835260206060818501528186518084526080860191508288019350845b8181101562000d2d5762000d1a855162000e1b565b8352938301939183019160010162000d05565b505084810360408601528551808252908201925081860190845b8181101562000d6f5762000d5c835162000e1b565b8552938301939183019160010162000d47565b509298975050505050505050565b602081016003831062000d8c57fe5b91905290565b90815260200190565b600086825260018060a01b038616602083015284604083015283606083015260a0608083015282518060a084015262000ddc8160c085016020870162000e27565b601f01601f19169190910160c0019695505050505050565b6040518181016001600160401b038111828210171562000e1357600080fd5b604052919050565b6001600160a01b031690565b60005b8381101562000e4457818101518382015260200162000e2a565b8381111562000e54576000848401525b50505050565b6001600160a01b03811681146200085457600080fd5b60805160a05160c05160e0516101005160601c6101205160601c6101405161016051610180516101a05160601c6101c05160601c6101e05160601c61020051610220516102405161026051610280516102a0516102c0516102e0516103005161032051610340516103605160601c6140c7620010b660003980611cc9528061227c52806125fe5280612a755280612e36525080610bb5528061124d528061317f525080610dea52806111f85280611d445280611d9e52806120df528061211a52806121aa52806121e7528061241252806124aa52806128dd5280612935528061297852806129c75280612c785280612cd35280612d4b525080610a8352806111925280612010528061209a528061215c5280612443528061247e52806124f152806125ad52806127fd528061288d52806129095280612c275280612d1f5280612d775280612daa5250806105ac5250806105cd5280611085525080610cc6525050806106735280610a2052508061064d5280610e255250806112205280611d775250806111ba525080610a445280611373528061141e5280611fcc5280612372528061267a52806126db52806127bb5280612af15280612b525280612f2c5250806108e0528061132352806113d552806122d6528061233952806123ca528061265852806127145280612acf5280612b8b5280612be35280612e905280612ef3525080610e6c52508061093352508061151c5250806114f8525080610c87525080610c63525080610bed525080611e21525080611e63525080611e4252506140c76000f3fe608060405234801561001057600080fd5b50600436106102955760003560e01c80637ecebe0011610167578063a7488bb7116100ce578063d2946c2b11610087578063d2946c2b1461050b578063d505accf14610513578063d5c096c414610526578063dd62ed3e14610539578063ed24911d1461054c578063f1493ee11461055457610295565b8063a7488bb7146104d0578063a9059cbb146104d8578063aaabadc5146104eb578063ac4316cb146104f3578063b35056b8146104fb578063b7b814fc1461050357610295565b80638d928af8116101205780638d928af81461048a57806390193b7c1461049257806395c95a4f146104a557806395d89b41146104ad5780639c0e5d13146104b5578063a457c2d7146104bd57610295565b80637ecebe001461043957806382687a561461044c5780638456cb5914610454578063851c1bb31461045c57806387ec68171461046f578063893d20e81461048257610295565b806338fff2d01161020b5780636028bfd4116101c45780636028bfd4146103cc5780636482c9d3146103ed5780636945c1fd146103f557806370a08231146103fd57806372f3824d1461041057806374f3b0091461041857610295565b806338fff2d014610386578063395093511461038e5780633f4ba83a146103a157806350dd6ed9146103a957806354a844ba146103bc57806355c67628146103c457610295565b80631dd746ea1161025d5780631dd746ea1461031757806323b872dd1461032c5780632541897f1461033f578063313ce567146103545780633644e5151461036957806338e9922e1461037157610295565b806301ec954a1461029a57806306fdde03146102c3578063095ea7b3146102d857806318160ddd146102f85780631c0de05114610300575b600080fd5b6102ad6102a8366004613a37565b61055c565b6040516102ba9190613d5b565b60405180910390f35b6102cb61077d565b6040516102ba9190613e79565b6102eb6102e63660046137c4565b610813565b6040516102ba9190613d38565b6102ad61082a565b610308610830565b6040516102ba93929190613d43565b61031f610859565b6040516102ba9190613cf7565b6102eb61033a366004613714565b610868565b6103476108de565b6040516102ba9190613caf565b61035c610902565b6040516102ba9190613feb565b6102ad61090b565b61038461037f366004613b56565b610915565b005b6102ad610931565b6102eb61039c3660046137c4565b610955565b610384610990565b6103846103b73660046138f6565b6109a4565b6103846109c2565b6102ad6109d4565b6103df6103da36600461380f565b6109e7565b6040516102ba929190613fd2565b6102ad610a1e565b610347610a42565b6102ad61040b3660046136c0565b610a66565b6102ad610a81565b61042b61042636600461380f565b610aa5565b6040516102ba929190613d0a565b6102ad6104473660046136c0565b610ba8565b6102ad610bb3565b610384610bd7565b6102ad61046a3660046138b2565b610be9565b6103df61047d36600461380f565b610c3b565b610347610c61565b610347610c85565b6102ad6104a03660046136c0565b610ca9565b6102ad610cc4565b6102cb610ce8565b6102cb610d49565b6102eb6104cb3660046137c4565b610daa565b6102ad610de8565b6102eb6104e63660046137c4565b610e0c565b610347610e19565b6102ad610e23565b6102eb610e47565b610384610e58565b610347610e6a565b610384610521366004613754565b610e8e565b61042b61053436600461380f565b610f19565b6102ad6105473660046136dc565b61103c565b6102ad611079565b6102ad611083565b6000846080015161058961056e610c85565b6001600160a01b0316336001600160a01b03161460cd611100565b61059e610594610931565b82146101f4611100565b6105a661110e565b426105f17f00000000000000000000000000000000000000000000000000000000000000007f0000000000000000000000000000000000000000000000000000000000000000611121565b10156106185760405162461bcd60e51b815260040161060f90613faa565b60405180910390fd5b6060610622611131565b905061062e86826112a4565b6106366135a4565b6040518060a001604052806106496109d4565b81527f000000000000000000000000000000000000000000000000000000000000000060208201527f000000000000000000000000000000000000000000000000000000000000000060408201526060810188905260800186905290506000885160018111156106b557fe5b1415610717576106dc88606001518388815181106106cf57fe5b6020026020010151611313565b606089015260006106ee89898461131f565b905061070d8184888151811061070057fe5b60200260200101516113c5565b9450505050610774565b60018851600181111561072657fe5b14156107715761074088606001518387815181106106cf57fe5b606089015260006107528989846113d1565b905061070d8184898151811061076457fe5b6020026020010151611465565b50505b50949350505050565b60038054604080516020601f60026000196101006001881615020190951694909404938401819004810282018101909252828152606093909290918301828280156108095780601f106107de57610100808354040283529160200191610809565b820191906000526020600020905b8154815290600101906020018083116107ec57829003601f168201915b5050505050905090565b6000610820338484611471565b5060015b92915050565b60025490565b600080600061083d6114d9565b1592506108486114f6565b915061085261151a565b9050909192565b6060610863611131565b905090565b600080610875853361103c565b9050610899336001600160a01b03871614806108915750838210155b61019e611100565b6108a485858561153e565b336001600160a01b038616148015906108bf57506000198114155b156108d1576108d18533858403611471565b60019150505b9392505050565b7f000000000000000000000000000000000000000000000000000000000000000090565b60055460ff1690565b6000610863611079565b61091d61161e565b61092561110e565b61092e8161164c565b50565b7f000000000000000000000000000000000000000000000000000000000000000090565b3360008181526001602090815260408083206001600160a01b0387168452909152812054909161082091859061098b90866116c5565b611471565b61099861161e565b6109a260006116d7565b565b6109ac61161e565b6109b461110e565b6109be828261174a565b5050565b6109ca61161e565b6109a2600161183f565b6008546000906108639060c0603f611896565b600060606109fd86516109f86118a5565b6118aa565b610a12898989898989896118b7611909611972565b97509795505050505050565b7f000000000000000000000000000000000000000000000000000000000000000090565b7f000000000000000000000000000000000000000000000000000000000000000090565b6001600160a01b031660009081526020819052604090205490565b7f000000000000000000000000000000000000000000000000000000000000000090565b60608088610ab461056e610c85565b610abf610594610931565b60606000610acc86611a9c565b15610af457610ad9611acb565b610aeb89610ae561082a565b88611ade565b92509050610b46565b610afc611b0a565b6060610b06611131565b9050610b128a826112a4565b610b368d8d8d8d8d610b22610e47565b610b2c578d610b2f565b60005b878e6118b7565b93509150610b448382611909565b505b610b508b82611b12565b81895167ffffffffffffffff81118015610b6957600080fd5b50604051908082528060200260200182016040528015610b93578160200160208202803683370190505b509450945050505b5097509795505050505050565b600061082482610ca9565b7f000000000000000000000000000000000000000000000000000000000000000090565b610bdf61161e565b6109a260016116d7565b60007f000000000000000000000000000000000000000000000000000000000000000082604051602001610c1e929190613c6c565b604051602081830303815290604052805190602001209050919050565b60006060610c4c86516109f86118a5565b610a1289898989898989611b1c611b38611972565b7f000000000000000000000000000000000000000000000000000000000000000090565b7f000000000000000000000000000000000000000000000000000000000000000090565b6001600160a01b031660009081526006602052604090205490565b7f000000000000000000000000000000000000000000000000000000000000000090565b60048054604080516020601f60026000196101006001881615020190951694909404938401819004810282018101909252828152606093909290918301828280156108095780601f106107de57610100808354040283529160200191610809565b60098054604080516020601f60026000196101006001881615020190951694909404938401819004810282018101909252828152606093909290918301828280156108095780601f106107de57610100808354040283529160200191610809565b600080610db7338561103c565b9050808310610dd157610dcc33856000611471565b610dde565b610dde3385858403611471565b5060019392505050565b7f000000000000000000000000000000000000000000000000000000000000000090565b600061082033848461153e565b6000610863611ba1565b7f000000000000000000000000000000000000000000000000000000000000000090565b6008546000906108639060ff611c1b565b610e6061161e565b6109a2600061183f565b7f000000000000000000000000000000000000000000000000000000000000000090565b60007f6e71edae12b1b97f4d1f60370fef10105fa2faae0126114a169c64845d6126c9888888610ebd8c610ca9565b89604051602001610ed396959493929190613dc3565b604051602081830303815290604052805190602001209050610f048882610efb878787611c25565b886101f8611c64565b610f0f888888611471565b5050505050505050565b60608088610f2861056e610c85565b610f33610594610931565b610f3b611b0a565b6060610f45611131565b9050610f4f61082a565b610ffc5760006060610f648d8d8d868b611cbb565b91509150610f7d610f73611de1565b83101560cc611100565b610f8f6000610f8a611de1565b611de8565b610fa28b610f9b611de1565b8403611de8565b610fac8184611b38565b808a5167ffffffffffffffff81118015610fc557600080fd5b50604051908082528060200260200182016040528015610fef578160200160208202803683370190505b5095509550505050610b9b565b61100688826112a4565b6000606061102e8d8d8d8d8d61101a610e47565b611024578d611027565b60005b898e611b1c565b91509150610fa28b83611de8565b6000611046610c85565b6001600160a01b0316826001600160a01b031614156110685750600019610824565b6110728383611df2565b9050610824565b6000610863611e1d565b7f000000000000000000000000000000000000000000000000000000000000000090565b806109be81611eba565b60006110be848484611f38565b506001901b60001901811b1992909216911b1790565b60006110e4838311156001611100565b50900390565b60008183106110f957816108d7565b5090919050565b816109be576109be81611f7f565b6109a26111196114d9565b610192611100565b8181018281101561082457600080fd5b6060600061113d6118a5565b905060608167ffffffffffffffff8111801561115857600080fd5b50604051908082528060200260200182016040528015611182578160200160208202803683370190505b50905060005b8281101561129d577f00000000000000000000000000000000000000000000000000000000000000008114156111f6577f00000000000000000000000000000000000000000000000000000000000000008282815181106111e557fe5b602002602001018181525050611295565b7f000000000000000000000000000000000000000000000000000000000000000081141561124b577f00000000000000000000000000000000000000000000000000000000000000008282815181106111e557fe5b7f000000000000000000000000000000000000000000000000000000000000000081141561129557670de0b6b3a764000082828151811061128857fe5b6020026020010181815250505b600101611188565b5091505090565b815181516112b39082906118aa565b60005b8181101561130d576112ee8482815181106112cd57fe5b60200260200101518483815181106112e157fe5b6020026020010151611f8f565b8482815181106112fa57fe5b60209081029190910101526001016112b6565b50505050565b60006108d78383611f8f565b60007f00000000000000000000000000000000000000000000000000000000000000006001600160a01b031684602001516001600160a01b031614156113715761136a848484611fc5565b90506108d7565b7f00000000000000000000000000000000000000000000000000000000000000006001600160a01b031684602001516001600160a01b031614156113ba5761136a8484846123c3565b6108d7610135611f7f565b60006108d78383612763565b60007f00000000000000000000000000000000000000000000000000000000000000006001600160a01b031684604001516001600160a01b0316141561141c5761136a8484846127b4565b7f00000000000000000000000000000000000000000000000000000000000000006001600160a01b031684604001516001600160a01b031614156113ba5761136a848484612bdc565b60006108d78383612f7a565b6001600160a01b0380841660008181526001602090815260408083209487168084529490915290819020849055517f8c5be1e5ebec7d5bd14f71427d1e84f3dd0314c0f7b2291e5b200ac8c7c3b925906114cc908590613d5b565b60405180910390a3505050565b60006114e361151a565b42118061086357505060075460ff161590565b7f000000000000000000000000000000000000000000000000000000000000000090565b7f000000000000000000000000000000000000000000000000000000000000000090565b6115556001600160a01b0384161515610198611100565b61156c6001600160a01b0383161515610199611100565b611577838383611f33565b6001600160a01b03831660009081526020819052604090205461159d90826101a0612fc8565b6001600160a01b0380851660009081526020819052604080822093909355908416815220546115cc90826116c5565b6001600160a01b0380841660008181526020819052604090819020939093559151908516907fddf252ad1be2c89b69c2b068fc378daa952ba7f163c4a11628f55a4df523b3ef906114cc908590613d5b565b60006116356000356001600160e01b031916610be9565b905061092e6116448233612fde565b610191611100565b6116616116576130c7565b82101560cb611100565b61167661166c6130d0565b82111560ca611100565b600854611687908260c0603f6110b1565b6008556040517fa9ba3ffe0b6c366b81232caab38605a0699ad5398d6cce76f91ee809e322dafc906116ba908390613d5b565b60405180910390a150565b60008282016108d78482101583611100565b80156116f7576116f26116e86114f6565b4210610193611100565b61170c565b61170c61170261151a565b42106101a9611100565b6007805460ff19168215151790556040517f9e3a5e37224532dea67b89face185703738a228a6e8a23dee546960180d3be64906116ba908390613d38565b6000611754610931565b90506000611760610c85565b6001600160a01b031663b05f8e4883866040518363ffffffff1660e01b815260040161178d929190613e44565b60806040518083038186803b1580156117a557600080fd5b505afa1580156117b9573d6000803e3d6000fd5b505050506040513d601f19601f820116820180604052508101906117dd9190613b6e565b604051630639cdb560e21b81529094506001600160a01b03851693506318e736d49250611811915085908790600401613e23565b600060405180830381600087803b15801561182b57600080fd5b505af1158015610f0f573d6000803e3d6000fd5b60085461184e908260ff6130dc565b6008556040517feff3d4d215b42bf0960be9c6d5e05c22cba4df6627a3a523e2acee733b5854c890611881908390613d38565b60405180910390a18061092e5761092e6109a2565b6001901b6000190191901c1690565b600390565b6109be8183146067611100565b6000606060006118c684613103565b905060018160018111156118d657fe5b146118eb576118e6610162611f7f565b6118fb565b6118f58885613119565b90935091505b509850989650505050505050565b815181516119189082906118aa565b60005b8181101561130d5761195384828151811061193257fe5b602002602001015184838151811061194657fe5b6020026020010151612763565b84828151811061195f57fe5b602090810291909101015260010161191b565b333014611a30576000306001600160a01b0316600036604051611996929190613c84565b6000604051808303816000865af19150503d80600081146119d3576040519150601f19603f3d011682016040523d82523d6000602084013e6119d8565b606091505b5050905080600081146119e757fe5b60046000803e6000516001600160e01b0319166343adbafb60e01b8114611a12573d6000803e3d6000fd5b506020600460003e604060205260243d03602460403e601c3d016000f35b611a38611b0a565b6060611a42611131565b9050611a4e87826112a4565b60006060611a668c8c8c8c8c8c898d8d63ffffffff16565b91509150611a7881848663ffffffff16565b8051601f1982018390526343adbafb603f1983015260200260231982016044820181fd5b6000808251118015610824575060ff801682806020019051810190611ac19190613bae565b60ff161492915050565b6109a2611ad6610e47565b6101b6611100565b600060606000611aed846131e5565b90506060611afc8787846131fb565b919791965090945050505050565b6109a261110e565b6109be8282613294565b60006060611b2b610162611f7f565b9850989650505050505050565b81518151611b479082906118aa565b60005b8181101561130d57611b82848281518110611b6157fe5b6020026020010151848381518110611b7557fe5b6020026020010151612f7a565b848281518110611b8e57fe5b6020908102919091010152600101611b4a565b6000611bab610c85565b6001600160a01b031663aaabadc56040518163ffffffff1660e01b815260040160206040518083038186803b158015611be357600080fd5b505afa158015611bf7573d6000803e3d6000fd5b505050506040513d601f19601f8201168201806040525081019061086391906138da565b1c60019081161490565b60408051604180825260808201909252606091829190602082018180368337019050509050836020820152826040820152846060820153949350505050565b6000611c6f85613360565b9050611c85611c7f87838761337c565b83611100565b611c94428410156101b8611100565b5050506001600160a01b039092166000908152600660205260409020805460010190555050565b60006060611cc761110e565b7f0000000000000000000000000000000000000000000000000000000000000000611d026001600160a01b0388811690831614610156611100565b611d22816001600160a01b0316876001600160a01b031614610156611100565b6dffffffffffffffffffffffffffff6060611d3c8661342b565b9050611d9b817f000000000000000000000000000000000000000000000000000000000000000081518110611d6d57fe5b60200260200101517f0000000000000000000000000000000000000000000000000000000000000000611313565b817f000000000000000000000000000000000000000000000000000000000000000081518110611dc757fe5b602090810291909101015290999098509650505050505050565b620f424090565b6109be8282613441565b6001600160a01b03918216600090815260016020908152604080832093909416825291909152205490565b60007f00000000000000000000000000000000000000000000000000000000000000007f00000000000000000000000000000000000000000000000000000000000000007f0000000000000000000000000000000000000000000000000000000000000000611e8a6134d4565b30604051602001611e9f959493929190613df7565b60405160208183030381529060405280519060200120905090565b600281511015611ec95761092e565b600081600081518110611ed857fe5b602002602001015190506000600190505b8251811015611f33576000838281518110611f0057fe5b60200260200101519050611f29816001600160a01b0316846001600160a01b0316106065611100565b9150600101611ee9565b505050565b611f4761010083106064611100565b611f7060018210158015611f695750611f6560ff84610100036110ea565b8211155b6064611100565b611f3383821c156101b4611100565b61092e816210905360ea1b6134d8565b6000828202611fb3841580611fac575083858381611fa957fe5b04145b6003611100565b670de0b6b3a764000090049392505050565b600061200b7f00000000000000000000000000000000000000000000000000000000000000006001600160a01b031685604001516001600160a01b031614610135611100565b6000837f00000000000000000000000000000000000000000000000000000000000000008151811061203957fe5b60200260200101511161205e5760405162461bcd60e51b815260040161060f90613f82565b8160400151846060015110156120865760405162461bcd60e51b815260040161060f90613ef1565b6060612090611131565b905060006120d5857f0000000000000000000000000000000000000000000000000000000000000000815181106120c357fe5b602002602001015187606001516116c5565b905060006121a0867f00000000000000000000000000000000000000000000000000000000000000008151811061210857fe5b602002602001015161219b612159858a7f00000000000000000000000000000000000000000000000000000000000000008151811061214357fe5b602002602001015161276390919063ffffffff16565b897f00000000000000000000000000000000000000000000000000000000000000008151811061218557fe5b6020026020010151611f8f90919063ffffffff16565b6110d4565b905060006121e1877f0000000000000000000000000000000000000000000000000000000000000000815181106121d357fe5b6020026020010151836110d4565b905081877f00000000000000000000000000000000000000000000000000000000000000008151811061221057fe5b6020026020010151116122355760405162461bcd60e51b815260040161060f90613e8c565b60208601516122448285612763565b10156122625760405162461bcd60e51b815260040161060f90613f56565b6000612278838689608001518151811061070057fe5b90507f00000000000000000000000000000000000000000000000000000000000000006001600160a01b0316638ac316f16122b1610931565b60608c015160c08d01516040516001600160e01b031960e086901b16815261230593927f00000000000000000000000000000000000000000000000000000000000000009283928990600090600401613d83565b600060405180830381600087803b15801561231f57600080fd5b505af1158015612333573d6000803e3d6000fd5b505050507f00000000000000000000000000000000000000000000000000000000000000006001600160a01b03166000805160206140728339815191527f00000000000000000000000000000000000000000000000000000000000000008b606001518c60c0015185426040516123ae959493929190613cc3565b60405180910390a25090979650505050505050565b60006124097f00000000000000000000000000000000000000000000000000000000000000006001600160a01b031685604001516001600160a01b031614610135611100565b60008061243b857f0000000000000000000000000000000000000000000000000000000000000000815181106120c357fe5b90506124d3857f00000000000000000000000000000000000000000000000000000000000000008151811061246c57fe5b602002602001015161219b6124a784897f00000000000000000000000000000000000000000000000000000000000000008151811061214357fe5b887f00000000000000000000000000000000000000000000000000000000000000008151811061218557fe5b915083604001518210156124e957836040015191505b6000612528867f00000000000000000000000000000000000000000000000000000000000000008151811061251a57fe5b6020026020010151846110d4565b9050806125585784602001518210156125535760405162461bcd60e51b815260040161060f90613f56565b612585565b60208501516125678383612763565b10156125855760405162461bcd60e51b815260040161060f90613f56565b84604001518310156125a95760405162461bcd60e51b815260040161060f90613ef1565b82867f0000000000000000000000000000000000000000000000000000000000000000815181106125d657fe5b602002602001015110156125fc5760405162461bcd60e51b815260040161060f90613f1f565b7f00000000000000000000000000000000000000000000000000000000000000006001600160a01b0316638ac316f1612633610931565b60608a015160c08b01516040516001600160e01b031960e086901b1681526126a793927f0000000000000000000000000000000000000000000000000000000000000000927f0000000000000000000000000000000000000000000000000000000000000000928b90600190600401613d83565b600060405180830381600087803b1580156126c157600080fd5b505af11580156126d5573d6000803e3d6000fd5b505050507f00000000000000000000000000000000000000000000000000000000000000006001600160a01b03166000805160206140728339815191527f000000000000000000000000000000000000000000000000000000000000000089606001518a60c001518742604051612750959493929190613cc3565b60405180910390a2509095945050505050565b60006127728215156004611100565b8261277f57506000610824565b670de0b6b3a7640000838102906127a29085838161279957fe5b04146005611100565b8281816127ab57fe5b04915050610824565b60006127fa7f00000000000000000000000000000000000000000000000000000000000000006001600160a01b031685602001516001600160a01b031614610135611100565b827f00000000000000000000000000000000000000000000000000000000000000008151811061282657fe5b60200260200101518460600151106128505760405162461bcd60e51b815260040161060f90613ec3565b8160400151846060015110156128785760405162461bcd60e51b815260040161060f90613ef1565b6060612882611131565b90506000806128c8867f0000000000000000000000000000000000000000000000000000000000000000815181106128b657fe5b602002602001015188606001516110d4565b905080156129725761296b61293261290683897f00000000000000000000000000000000000000000000000000000000000000008151811061214357fe5b887f00000000000000000000000000000000000000000000000000000000000000008151811061218557fe5b877f00000000000000000000000000000000000000000000000000000000000000008151811061295e57fe5b60200260200101516110d4565b91506129bf565b6129bc867f0000000000000000000000000000000000000000000000000000000000000000815181106129a157fe5b60200260200101518860600151611f8f90919063ffffffff16565b91505b60006129fe877f0000000000000000000000000000000000000000000000000000000000000000815181106129f057fe5b6020026020010151846116c5565b905081612a2e578560200151811015612a295760405162461bcd60e51b815260040161060f90613f56565b612a5b565b6020860151612a3d8284612763565b1015612a5b5760405162461bcd60e51b815260040161060f90613f56565b6000612a71848689606001518151811061076457fe5b90507f00000000000000000000000000000000000000000000000000000000000000006001600160a01b0316638ac316f1612aaa610931565b60608c015160c08d01516040516001600160e01b031960e086901b168152612b1e93927f0000000000000000000000000000000000000000000000000000000000000000927f0000000000000000000000000000000000000000000000000000000000000000928990600190600401613d83565b600060405180830381600087803b158015612b3857600080fd5b505af1158015612b4c573d6000803e3d6000fd5b505050507f00000000000000000000000000000000000000000000000000000000000000006001600160a01b03166000805160206140728339815191527f00000000000000000000000000000000000000000000000000000000000000008b606001518c60c001518542604051612bc7959493929190613cc3565b60405180910390a25091979650505050505050565b6000612c227f00000000000000000000000000000000000000000000000000000000000000006001600160a01b031685602001516001600160a01b031614610135611100565b6000837f000000000000000000000000000000000000000000000000000000000000000081518110612c5057fe5b602002602001015111612c755760405162461bcd60e51b815260040161060f90613f82565b827f000000000000000000000000000000000000000000000000000000000000000081518110612ca157fe5b6020026020010151846060015110612ccb5760405162461bcd60e51b815260040161060f90613ec3565b6000612d0e847f000000000000000000000000000000000000000000000000000000000000000081518110612cfc57fe5b602002602001015186606001516110d4565b90506000612da0612d74612d4884887f00000000000000000000000000000000000000000000000000000000000000008151811061214357fe5b877f00000000000000000000000000000000000000000000000000000000000000008151811061218557fe5b867f00000000000000000000000000000000000000000000000000000000000000008151811061295e57fe5b90506000612de1867f000000000000000000000000000000000000000000000000000000000000000081518110612dd357fe5b6020026020010151836116c5565b90508460400151821015612e075760405162461bcd60e51b815260040161060f90613ef1565b6020850151612e168483612763565b1015612e345760405162461bcd60e51b815260040161060f90613f56565b7f00000000000000000000000000000000000000000000000000000000000000006001600160a01b0316638ac316f1612e6b610931565b60608a015160c08b01516040516001600160e01b031960e086901b168152612ebf93927f00000000000000000000000000000000000000000000000000000000000000009283928a90600090600401613d83565b600060405180830381600087803b158015612ed957600080fd5b505af1158015612eed573d6000803e3d6000fd5b505050507f00000000000000000000000000000000000000000000000000000000000000006001600160a01b03166000805160206140728339815191527f000000000000000000000000000000000000000000000000000000000000000089606001518a60c001518642604051612f68959493929190613cc3565b60405180910390a25095945050505050565b6000612f898215156004611100565b82612f9657506000610824565b670de0b6b3a764000083810290612fb09085838161279957fe5b826001820381612fbc57fe5b04600101915050610824565b6000612fd78484111583611100565b5050900390565b600073ba1ba1ba1ba1ba1ba1ba1ba1ba1ba1ba1ba1ba1b612ffd610c61565b6001600160a01b031614158015613018575061301883613539565b1561304057613025610c61565b6001600160a01b0316336001600160a01b0316149050610824565b613048611ba1565b6001600160a01b0316639be2a8848484306040518463ffffffff1660e01b815260040161307793929190613d64565b60206040518083038186803b15801561308f57600080fd5b505afa1580156130a3573d6000803e3d6000fd5b505050506040513d601f19601f8201168201806040525081019061107291906137ef565b64e8d4a5100090565b67016345785d8a000090565b60006001821b19841682846130f25760006130f5565b60015b60ff16901b17949350505050565b6000818060200190518101906108249190613944565b60006060600061312884613575565b90506060855167ffffffffffffffff8111801561314457600080fd5b5060405190808252806020026020018201604052801561316e578160200160208202803683370190505b50905060005b86518110156131d9577f000000000000000000000000000000000000000000000000000000000000000081146131d1578681815181106131b057fe5b60200260200101518282815181106131c457fe5b6020026020010181815250505b600101613174565b50909590945092505050565b6000818060200190518101906108d79190613bca565b606060006132098385612763565b9050845167ffffffffffffffff8111801561322357600080fd5b5060405190808252806020026020018201604052801561324d578160200160208202803683370190505b50915060005b855181101561328b5761326c8287838151811061218557fe5b83828151811061327857fe5b6020908102919091010152600101613253565b50509392505050565b6132ab6001600160a01b038316151561019b611100565b6132b782600083611f33565b6001600160a01b0382166000908152602081905260409020546132dd90826101b2612fc8565b6001600160a01b03831660009081526020819052604090205561331061330b8261330561082a565b9061358b565b613599565b60006001600160a01b0316826001600160a01b03167fddf252ad1be2c89b69c2b068fc378daa952ba7f163c4a11628f55a4df523b3ef836040516133549190613d5b565b60405180910390a35050565b600061336a611e1d565b82604051602001610c1e929190613c94565b600061338e82516041146101b9611100565b60208281015160408085015160608601518251600080825295019283905292939092811a916001906133c7908990859088908890613e5b565b6020604051602081039080840390855afa1580156133e9573d6000803e3d6000fd5b5050604051601f1901519150506001600160a01b0381161580159061341f5750876001600160a01b0316816001600160a01b0316145b98975050505050505050565b6060818060200190518101906108d7919061398d565b61344d60008383611f33565b61346261330b8261345c61082a565b906116c5565b6001600160a01b03821660009081526020819052604090205461348590826116c5565b6001600160a01b0383166000818152602081905260408082209390935591519091907fddf252ad1be2c89b69c2b068fc378daa952ba7f163c4a11628f55a4df523b3ef90613354908590613d5b565b4690565b62461bcd60e51b600090815260206004526007602452600a808404818106603090810160081b958390069590950190829004918206850160101b01602363ffffff0060e086901c160160181b0190930160c81b60445260e882901c90606490fd5b600061354b631c74c91760e11b610be9565b82148061356657506135636350dd6ed960e01b610be9565b82145b8061082457506108248261359e565b6000818060200190518101906108d79190613960565b60006108d783836001612fc8565b600255565b50600090565b6040518060a0016040528060008152602001600081526020016000815260200160008152602001600081525090565b803561082481614040565b600082601f8301126135ee578081fd5b81356136016135fc82614020565b613ff9565b81815291506020808301908481018184028601820187101561362257600080fd5b60005b8481101561364157813584529282019290820190600101613625565b505050505092915050565b600082601f83011261365c578081fd5b813567ffffffffffffffff811115613672578182fd5b613685601f8201601f1916602001613ff9565b915080825283602082850101111561369c57600080fd5b8060208401602084013760009082016020015292915050565b803561082481614055565b6000602082840312156136d1578081fd5b81356108d781614040565b600080604083850312156136ee578081fd5b82356136f981614040565b9150602083013561370981614040565b809150509250929050565b600080600060608486031215613728578081fd5b833561373381614040565b9250602084013561374381614040565b929592945050506040919091013590565b600080600080600080600060e0888a03121561376e578283fd5b873561377981614040565b9650602088013561378981614040565b9550604088013594506060880135935060808801356137a781614062565b9699959850939692959460a0840135945060c09093013592915050565b600080604083850312156137d6578182fd5b82356137e181614040565b946020939093013593505050565b600060208284031215613800578081fd5b815180151581146108d7578182fd5b600080600080600080600060e0888a031215613829578081fd5b87359650602088013561383b81614040565b9550604088013561384b81614040565b9450606088013567ffffffffffffffff80821115613867578283fd5b6138738b838c016135de565b955060808a0135945060a08a0135935060c08a0135915080821115613896578283fd5b506138a38a828b0161364c565b91505092959891949750929550565b6000602082840312156138c3578081fd5b81356001600160e01b0319811681146108d7578182fd5b6000602082840312156138eb578081fd5b81516108d781614040565b60008060408385031215613908578182fd5b823561391381614040565b9150602083013567ffffffffffffffff81111561392e578182fd5b61393a8582860161364c565b9150509250929050565b600060208284031215613955578081fd5b81516108d781614055565b60008060408385031215613972578182fd5b825161397d81614055565b6020939093015192949293505050565b6000806040838503121561399f578182fd5b8251600481106139ad578283fd5b8092505060208084015167ffffffffffffffff8111156139cb578283fd5b8401601f810186136139db578283fd5b80516139e96135fc82614020565b81815283810190838501858402850186018a1015613a05578687fd5b8694505b83851015613a27578051835260019490940193918501918501613a09565b5080955050505050509250929050565b60008060008060808587031215613a4c578182fd5b843567ffffffffffffffff80821115613a63578384fd5b818701915061012080838a031215613a79578485fd5b613a8281613ff9565b9050613a8e89846136b5565b8152613a9d89602085016135d3565b6020820152613aaf89604085016135d3565b6040820152606083013560608201526080830135608082015260a083013560a0820152613adf8960c085016135d3565b60c0820152613af18960e085016135d3565b60e08201526101008084013583811115613b09578687fd5b613b158b82870161364c565b828401525050809650506020870135915080821115613b32578384fd5b50613b3f878288016135de565b949794965050505060408301359260600135919050565b600060208284031215613b67578081fd5b5035919050565b60008060008060808587031215613b83578182fd5b8451935060208501519250604085015191506060850151613ba381614040565b939692955090935050565b600060208284031215613bbf578081fd5b81516108d781614062565b60008060408385031215613bdc578182fd5b825161397d81614062565b6000815180845260208085019450808401835b83811015613c1657815187529582019590820190600101613bfa565b509495945050505050565b60008151808452815b81811015613c4657602081850181015186830182015201613c2a565b81811115613c575782602083870101525b50601f01601f19169290920160200192915050565b9182526001600160e01b031916602082015260240190565b6000828483379101908152919050565b61190160f01b81526002810192909252602282015260420190565b6001600160a01b0391909116815260200190565b6001600160a01b03958616815260208101949094529190931660408301526060820192909252608081019190915260a00190565b6000602082526108d76020830184613be7565b600060408252613d1d6040830185613be7565b8281036020840152613d2f8185613be7565b95945050505050565b901515815260200190565b92151583526020830191909152604082015260600190565b90815260200190565b9283526001600160a01b03918216602084015216604082015260600190565b9687526001600160a01b03958616602088015293851660408701526060860192909252909216608084015260a0830191909152151560c082015260e00190565b9586526001600160a01b0394851660208701529290931660408501526060840152608083019190915260a082015260c00190565b9485526020850193909352604084019190915260608301526001600160a01b0316608082015260a00190565b600083825260406020830152613e3c6040830184613c21565b949350505050565b9182526001600160a01b0316602082015260400190565b93845260ff9290921660208401526040830152606082015260800190565b6000602082526108d76020830184613c21565b6020808252601d908201527f496e73756666696369656e742063757272656e63792062616c616e6365000000604082015260600190565b602080825260149082015273496e73756666696369656e742062616c616e636560601b604082015260600190565b60208082526014908201527327b93232b91039b4bd32903b34b7b630ba34b7b760611b604082015260600190565b6020808252601d908201527f496e73756666696369656e742073656375726974792062616c616e6365000000604082015260600190565b602080825260129082015271141c9a58d9481bdd5d081bd988189bdd5b9960721b604082015260600190565b6020808252600e908201526d125cdcdd59481cdbdb19081bdd5d60921b604082015260600190565b6020808252600e908201526d2a34b6b2a634b6b4ba1027bb32b960911b604082015260600190565b600083825260406020830152613e3c6040830184613be7565b60ff91909116815260200190565b60405181810167ffffffffffffffff8111828210171561401857600080fd5b604052919050565b600067ffffffffffffffff821115614036578081fd5b5060209081020190565b6001600160a01b038116811461092e57600080fd5b6002811061092e57600080fd5b60ff8116811461092e57600080fdfe560f9a9aa840257b3f71f9f0cc55270169408d782595c416c1042eccf7426c9ca264697066735822122013b8d128350db6b9da9fd0ada37168705f69f0ae798cd97e0dcd61dc3605e65e64736f6c63430007010033",
  "linkReferences": {},
  "deployedLinkReferences": {}
}