{
  "_format": "hh-sol-artifact-1",
  "contractName": "PrimaryIssuePool",
  "sourceName": "contracts/PrimaryIssuePool.sol",
  "abi": [
    {
      "inputs": [
        {
          "internalType": "contract IVault",
          "name": "vault",
          "type": "address"
        },
        {
          "components": [
            {
              "internalType": "string",
              "name": "name",
              "type": "string"
            },
            {
              "internalType": "string",
              "name": "symbol",
              "type": "string"
            },
            {
              "internalType": "address",
              "name": "security",
              "type": "address"
            },
            {
              "internalType": "address",
              "name": "currency",
              "type": "address"
            },
            {
              "internalType": "uint256",
              "name": "minimumPrice",
              "type": "uint256"
            },
            {
              "internalType": "uint256",
              "name": "basePrice",
              "type": "uint256"
            },
            {
              "internalType": "uint256",
              "name": "maxAmountsIn",
              "type": "uint256"
            },
            {
              "internalType": "uint256",
              "name": "swapFeePercentage",
              "type": "uint256"
            },
            {
              "internalType": "uint256",
              "name": "cutOffTime",
              "type": "uint256"
            },
            {
              "internalType": "string",
              "name": "offeringDocs",
              "type": "string"
            }
          ],
          "internalType": "struct IPrimaryIssuePoolFactory.FactoryPoolParams",
          "name": "factoryPoolParams",
          "type": "tuple"
        },
        {
          "internalType": "uint256",
          "name": "pauseWindowDuration",
          "type": "uint256"
        },
        {
          "internalType": "uint256",
          "name": "bufferPeriodDuration",
          "type": "uint256"
        },
        {
          "internalType": "address",
          "name": "owner",
          "type": "address"
        }
      ],
      "stateMutability": "nonpayable",
      "type": "constructor"
    },
    {
      "anonymous": false,
      "inputs": [
        {
          "indexed": true,
          "internalType": "address",
          "name": "owner",
          "type": "address"
        },
        {
          "indexed": true,
          "internalType": "address",
          "name": "spender",
          "type": "address"
        },
        {
          "indexed": false,
          "internalType": "uint256",
          "name": "value",
          "type": "uint256"
        }
      ],
      "name": "Approval",
      "type": "event"
    },
    {
      "anonymous": false,
      "inputs": [
        {
          "indexed": true,
          "internalType": "address",
          "name": "security",
          "type": "address"
        },
        {
          "indexed": false,
          "internalType": "uint256",
          "name": "openingPrice",
          "type": "uint256"
        },
        {
          "indexed": false,
          "internalType": "address",
          "name": "currency",
          "type": "address"
        },
        {
          "indexed": false,
          "internalType": "uint256",
          "name": "securityOffered",
          "type": "uint256"
        },
        {
          "indexed": false,
          "internalType": "uint256",
          "name": "cutoffTime",
          "type": "uint256"
        },
        {
          "indexed": false,
          "internalType": "string",
          "name": "offeringDocs",
          "type": "string"
        }
      ],
      "name": "OpenIssue",
      "type": "event"
    },
    {
      "anonymous": false,
      "inputs": [
        {
          "indexed": false,
          "internalType": "bool",
          "name": "paused",
          "type": "bool"
        }
      ],
      "name": "PausedStateChanged",
      "type": "event"
    },
    {
      "anonymous": false,
      "inputs": [
        {
          "indexed": false,
          "internalType": "bool",
          "name": "enabled",
          "type": "bool"
        }
      ],
      "name": "RecoveryModeStateChanged",
      "type": "event"
    },
    {
      "anonymous": false,
      "inputs": [
        {
          "indexed": true,
          "internalType": "address",
          "name": "assetIn",
          "type": "address"
        },
        {
          "indexed": false,
          "internalType": "address",
          "name": "assetOut",
          "type": "address"
        },
        {
          "indexed": false,
          "internalType": "uint256",
          "name": "amount",
          "type": "uint256"
        },
        {
          "indexed": false,
          "internalType": "address",
          "name": "investor",
          "type": "address"
        },
        {
          "indexed": false,
          "internalType": "uint256",
          "name": "price",
          "type": "uint256"
        },
        {
          "indexed": false,
          "internalType": "uint256",
          "name": "executionDate",
          "type": "uint256"
        }
      ],
      "name": "Subscription",
      "type": "event"
    },
    {
      "anonymous": false,
      "inputs": [
        {
          "indexed": false,
          "internalType": "uint256",
          "name": "swapFeePercentage",
          "type": "uint256"
        }
      ],
      "name": "SwapFeePercentageChanged",
      "type": "event"
    },
    {
      "anonymous": false,
      "inputs": [
        {
          "indexed": true,
          "internalType": "address",
          "name": "from",
          "type": "address"
        },
        {
          "indexed": true,
          "internalType": "address",
          "name": "to",
          "type": "address"
        },
        {
          "indexed": false,
          "internalType": "uint256",
          "name": "value",
          "type": "uint256"
        }
      ],
      "name": "Transfer",
      "type": "event"
    },
    {
      "inputs": [],
      "name": "DOMAIN_SEPARATOR",
      "outputs": [
        {
          "internalType": "bytes32",
          "name": "",
          "type": "bytes32"
        }
      ],
      "stateMutability": "view",
      "type": "function"
    },
    {
      "inputs": [
        {
          "internalType": "address",
          "name": "owner",
          "type": "address"
        },
        {
          "internalType": "address",
          "name": "spender",
          "type": "address"
        }
      ],
      "name": "allowance",
      "outputs": [
        {
          "internalType": "uint256",
          "name": "",
          "type": "uint256"
        }
      ],
      "stateMutability": "view",
      "type": "function"
    },
    {
      "inputs": [
        {
          "internalType": "address",
          "name": "spender",
          "type": "address"
        },
        {
          "internalType": "uint256",
          "name": "amount",
          "type": "uint256"
        }
      ],
      "name": "approve",
      "outputs": [
        {
          "internalType": "bool",
          "name": "",
          "type": "bool"
        }
      ],
      "stateMutability": "nonpayable",
      "type": "function"
    },
    {
      "inputs": [
        {
          "internalType": "address",
          "name": "account",
          "type": "address"
        }
      ],
      "name": "balanceOf",
      "outputs": [
        {
          "internalType": "uint256",
          "name": "",
          "type": "uint256"
        }
      ],
      "stateMutability": "view",
      "type": "function"
    },
    {
      "inputs": [],
      "name": "decimals",
      "outputs": [
        {
          "internalType": "uint8",
          "name": "",
          "type": "uint8"
        }
      ],
      "stateMutability": "view",
      "type": "function"
    },
    {
      "inputs": [
        {
          "internalType": "address",
          "name": "spender",
          "type": "address"
        },
        {
          "internalType": "uint256",
          "name": "amount",
          "type": "uint256"
        }
      ],
      "name": "decreaseAllowance",
      "outputs": [
        {
          "internalType": "bool",
          "name": "",
          "type": "bool"
        }
      ],
      "stateMutability": "nonpayable",
      "type": "function"
    },
    {
      "inputs": [],
      "name": "disableRecoveryMode",
      "outputs": [],
      "stateMutability": "nonpayable",
      "type": "function"
    },
    {
      "inputs": [],
      "name": "enableRecoveryMode",
      "outputs": [],
      "stateMutability": "nonpayable",
      "type": "function"
    },
    {
      "inputs": [
        {
          "internalType": "bytes4",
          "name": "selector",
          "type": "bytes4"
        }
      ],
      "name": "getActionId",
      "outputs": [
        {
          "internalType": "bytes32",
          "name": "",
          "type": "bytes32"
        }
      ],
      "stateMutability": "view",
      "type": "function"
    },
    {
      "inputs": [],
      "name": "getAuthorizer",
      "outputs": [
        {
          "internalType": "contract IAuthorizer",
          "name": "",
          "type": "address"
        }
      ],
      "stateMutability": "view",
      "type": "function"
    },
    {
      "inputs": [],
      "name": "getBptIndex",
      "outputs": [
        {
          "internalType": "uint256",
          "name": "",
          "type": "uint256"
        }
      ],
      "stateMutability": "view",
      "type": "function"
    },
    {
      "inputs": [],
      "name": "getCurrency",
      "outputs": [
        {
          "internalType": "contract IERC20",
          "name": "",
          "type": "address"
        }
      ],
      "stateMutability": "view",
      "type": "function"
    },
    {
      "inputs": [],
      "name": "getCurrencyIndex",
      "outputs": [
        {
          "internalType": "uint256",
          "name": "",
          "type": "uint256"
        }
      ],
      "stateMutability": "view",
      "type": "function"
    },
    {
      "inputs": [],
      "name": "getDomainSeparator",
      "outputs": [
        {
          "internalType": "bytes32",
          "name": "",
          "type": "bytes32"
        }
      ],
      "stateMutability": "view",
      "type": "function"
    },
    {
      "inputs": [],
      "name": "getIssueCutoffTime",
      "outputs": [
        {
          "internalType": "uint256",
          "name": "",
          "type": "uint256"
        }
      ],
      "stateMutability": "view",
      "type": "function"
    },
    {
      "inputs": [],
      "name": "getMaximumPrice",
      "outputs": [
        {
          "internalType": "uint256",
          "name": "",
          "type": "uint256"
        }
      ],
      "stateMutability": "view",
      "type": "function"
    },
    {
      "inputs": [],
      "name": "getMinimumPrice",
      "outputs": [
        {
          "internalType": "uint256",
          "name": "",
          "type": "uint256"
        }
      ],
      "stateMutability": "view",
      "type": "function"
    },
    {
      "inputs": [
        {
          "internalType": "address",
          "name": "account",
          "type": "address"
        }
      ],
      "name": "getNextNonce",
      "outputs": [
        {
          "internalType": "uint256",
          "name": "",
          "type": "uint256"
        }
      ],
      "stateMutability": "view",
      "type": "function"
    },
    {
      "inputs": [],
      "name": "getOfferingDocuments",
      "outputs": [
        {
          "internalType": "string",
          "name": "",
          "type": "string"
        }
      ],
      "stateMutability": "view",
      "type": "function"
    },
    {
      "inputs": [],
      "name": "getOwner",
      "outputs": [
        {
          "internalType": "address",
          "name": "",
          "type": "address"
        }
      ],
      "stateMutability": "view",
      "type": "function"
    },
    {
      "inputs": [],
      "name": "getPausedState",
      "outputs": [
        {
          "internalType": "bool",
          "name": "paused",
          "type": "bool"
        },
        {
          "internalType": "uint256",
          "name": "pauseWindowEndTime",
          "type": "uint256"
        },
        {
          "internalType": "uint256",
          "name": "bufferPeriodEndTime",
          "type": "uint256"
        }
      ],
      "stateMutability": "view",
      "type": "function"
    },
    {
      "inputs": [],
      "name": "getPoolId",
      "outputs": [
        {
          "internalType": "bytes32",
          "name": "",
          "type": "bytes32"
        }
      ],
      "stateMutability": "view",
      "type": "function"
    },
    {
      "inputs": [],
      "name": "getProtocolFeesCollector",
      "outputs": [
        {
          "internalType": "contract IProtocolFeesCollector",
          "name": "",
          "type": "address"
        }
      ],
      "stateMutability": "view",
      "type": "function"
    },
    {
      "inputs": [],
      "name": "getScalingFactors",
      "outputs": [
        {
          "internalType": "uint256[]",
          "name": "",
          "type": "uint256[]"
        }
      ],
      "stateMutability": "view",
      "type": "function"
    },
    {
      "inputs": [],
      "name": "getSecurity",
      "outputs": [
        {
          "internalType": "contract IERC20",
          "name": "",
          "type": "address"
        }
      ],
      "stateMutability": "view",
      "type": "function"
    },
    {
      "inputs": [],
      "name": "getSecurityIndex",
      "outputs": [
        {
          "internalType": "uint256",
          "name": "",
          "type": "uint256"
        }
      ],
      "stateMutability": "view",
      "type": "function"
    },
    {
      "inputs": [],
      "name": "getSecurityOffered",
      "outputs": [
        {
          "internalType": "uint256",
          "name": "",
          "type": "uint256"
        }
      ],
      "stateMutability": "view",
      "type": "function"
    },
    {
      "inputs": [],
      "name": "getSwapFeePercentage",
      "outputs": [
        {
          "internalType": "uint256",
          "name": "",
          "type": "uint256"
        }
      ],
      "stateMutability": "view",
      "type": "function"
    },
    {
      "inputs": [],
      "name": "getVault",
      "outputs": [
        {
          "internalType": "contract IVault",
          "name": "",
          "type": "address"
        }
      ],
      "stateMutability": "view",
      "type": "function"
    },
    {
      "inputs": [],
      "name": "inRecoveryMode",
      "outputs": [
        {
          "internalType": "bool",
          "name": "",
          "type": "bool"
        }
      ],
      "stateMutability": "view",
      "type": "function"
    },
    {
      "inputs": [
        {
          "internalType": "address",
          "name": "spender",
          "type": "address"
        },
        {
          "internalType": "uint256",
          "name": "addedValue",
          "type": "uint256"
        }
      ],
      "name": "increaseAllowance",
      "outputs": [
        {
          "internalType": "bool",
          "name": "",
          "type": "bool"
        }
      ],
      "stateMutability": "nonpayable",
      "type": "function"
    },
    {
      "inputs": [],
      "name": "name",
      "outputs": [
        {
          "internalType": "string",
          "name": "",
          "type": "string"
        }
      ],
      "stateMutability": "view",
      "type": "function"
    },
    {
      "inputs": [
        {
          "internalType": "address",
          "name": "owner",
          "type": "address"
        }
      ],
      "name": "nonces",
      "outputs": [
        {
          "internalType": "uint256",
          "name": "",
          "type": "uint256"
        }
      ],
      "stateMutability": "view",
      "type": "function"
    },
    {
      "inputs": [
        {
          "internalType": "bytes32",
          "name": "poolId",
          "type": "bytes32"
        },
        {
          "internalType": "address",
          "name": "sender",
          "type": "address"
        },
        {
          "internalType": "address",
          "name": "recipient",
          "type": "address"
        },
        {
          "internalType": "uint256[]",
          "name": "balances",
          "type": "uint256[]"
        },
        {
          "internalType": "uint256",
          "name": "lastChangeBlock",
          "type": "uint256"
        },
        {
          "internalType": "uint256",
          "name": "protocolSwapFeePercentage",
          "type": "uint256"
        },
        {
          "internalType": "bytes",
          "name": "userData",
          "type": "bytes"
        }
      ],
      "name": "onExitPool",
      "outputs": [
        {
          "internalType": "uint256[]",
          "name": "",
          "type": "uint256[]"
        },
        {
          "internalType": "uint256[]",
          "name": "",
          "type": "uint256[]"
        }
      ],
      "stateMutability": "nonpayable",
      "type": "function"
    },
    {
      "inputs": [
        {
          "internalType": "bytes32",
          "name": "poolId",
          "type": "bytes32"
        },
        {
          "internalType": "address",
          "name": "sender",
          "type": "address"
        },
        {
          "internalType": "address",
          "name": "recipient",
          "type": "address"
        },
        {
          "internalType": "uint256[]",
          "name": "balances",
          "type": "uint256[]"
        },
        {
          "internalType": "uint256",
          "name": "lastChangeBlock",
          "type": "uint256"
        },
        {
          "internalType": "uint256",
          "name": "protocolSwapFeePercentage",
          "type": "uint256"
        },
        {
          "internalType": "bytes",
          "name": "userData",
          "type": "bytes"
        }
      ],
      "name": "onJoinPool",
      "outputs": [
        {
          "internalType": "uint256[]",
          "name": "",
          "type": "uint256[]"
        },
        {
          "internalType": "uint256[]",
          "name": "",
          "type": "uint256[]"
        }
      ],
      "stateMutability": "nonpayable",
      "type": "function"
    },
    {
      "inputs": [
        {
          "components": [
            {
              "internalType": "enum IVault.SwapKind",
              "name": "kind",
              "type": "uint8"
            },
            {
              "internalType": "contract IERC20",
              "name": "tokenIn",
              "type": "address"
            },
            {
              "internalType": "contract IERC20",
              "name": "tokenOut",
              "type": "address"
            },
            {
              "internalType": "uint256",
              "name": "amount",
              "type": "uint256"
            },
            {
              "internalType": "bytes32",
              "name": "poolId",
              "type": "bytes32"
            },
            {
              "internalType": "uint256",
              "name": "lastChangeBlock",
              "type": "uint256"
            },
            {
              "internalType": "address",
              "name": "from",
              "type": "address"
            },
            {
              "internalType": "address",
              "name": "to",
              "type": "address"
            },
            {
              "internalType": "bytes",
              "name": "userData",
              "type": "bytes"
            }
          ],
          "internalType": "struct IPoolSwapStructs.SwapRequest",
          "name": "request",
          "type": "tuple"
        },
        {
          "internalType": "uint256[]",
          "name": "balances",
          "type": "uint256[]"
        },
        {
          "internalType": "uint256",
          "name": "indexIn",
          "type": "uint256"
        },
        {
          "internalType": "uint256",
          "name": "indexOut",
          "type": "uint256"
        }
      ],
      "name": "onSwap",
      "outputs": [
        {
          "internalType": "uint256",
          "name": "",
          "type": "uint256"
        }
      ],
      "stateMutability": "nonpayable",
      "type": "function"
    },
    {
      "inputs": [],
      "name": "pause",
      "outputs": [],
      "stateMutability": "nonpayable",
      "type": "function"
    },
    {
      "inputs": [
        {
          "internalType": "address",
          "name": "owner",
          "type": "address"
        },
        {
          "internalType": "address",
          "name": "spender",
          "type": "address"
        },
        {
          "internalType": "uint256",
          "name": "value",
          "type": "uint256"
        },
        {
          "internalType": "uint256",
          "name": "deadline",
          "type": "uint256"
        },
        {
          "internalType": "uint8",
          "name": "v",
          "type": "uint8"
        },
        {
          "internalType": "bytes32",
          "name": "r",
          "type": "bytes32"
        },
        {
          "internalType": "bytes32",
          "name": "s",
          "type": "bytes32"
        }
      ],
      "name": "permit",
      "outputs": [],
      "stateMutability": "nonpayable",
      "type": "function"
    },
    {
      "inputs": [
        {
          "internalType": "bytes32",
          "name": "poolId",
          "type": "bytes32"
        },
        {
          "internalType": "address",
          "name": "sender",
          "type": "address"
        },
        {
          "internalType": "address",
          "name": "recipient",
          "type": "address"
        },
        {
          "internalType": "uint256[]",
          "name": "balances",
          "type": "uint256[]"
        },
        {
          "internalType": "uint256",
          "name": "lastChangeBlock",
          "type": "uint256"
        },
        {
          "internalType": "uint256",
          "name": "protocolSwapFeePercentage",
          "type": "uint256"
        },
        {
          "internalType": "bytes",
          "name": "userData",
          "type": "bytes"
        }
      ],
      "name": "queryExit",
      "outputs": [
        {
          "internalType": "uint256",
          "name": "bptIn",
          "type": "uint256"
        },
        {
          "internalType": "uint256[]",
          "name": "amountsOut",
          "type": "uint256[]"
        }
      ],
      "stateMutability": "view",
      "type": "function"
    },
    {
      "inputs": [
        {
          "internalType": "bytes32",
          "name": "poolId",
          "type": "bytes32"
        },
        {
          "internalType": "address",
          "name": "sender",
          "type": "address"
        },
        {
          "internalType": "address",
          "name": "recipient",
          "type": "address"
        },
        {
          "internalType": "uint256[]",
          "name": "balances",
          "type": "uint256[]"
        },
        {
          "internalType": "uint256",
          "name": "lastChangeBlock",
          "type": "uint256"
        },
        {
          "internalType": "uint256",
          "name": "protocolSwapFeePercentage",
          "type": "uint256"
        },
        {
          "internalType": "bytes",
          "name": "userData",
          "type": "bytes"
        }
      ],
      "name": "queryJoin",
      "outputs": [
        {
          "internalType": "uint256",
          "name": "bptOut",
          "type": "uint256"
        },
        {
          "internalType": "uint256[]",
          "name": "amountsIn",
          "type": "uint256[]"
        }
      ],
      "stateMutability": "view",
      "type": "function"
    },
    {
      "inputs": [
        {
          "internalType": "contract IERC20",
          "name": "token",
          "type": "address"
        },
        {
          "internalType": "bytes",
          "name": "poolConfig",
          "type": "bytes"
        }
      ],
      "name": "setAssetManagerPoolConfig",
      "outputs": [],
      "stateMutability": "nonpayable",
      "type": "function"
    },
    {
      "inputs": [
        {
          "internalType": "uint256",
          "name": "swapFeePercentage",
          "type": "uint256"
        }
      ],
      "name": "setSwapFeePercentage",
      "outputs": [],
      "stateMutability": "nonpayable",
      "type": "function"
    },
    {
      "inputs": [],
      "name": "symbol",
      "outputs": [
        {
          "internalType": "string",
          "name": "",
          "type": "string"
        }
      ],
      "stateMutability": "view",
      "type": "function"
    },
    {
      "inputs": [],
      "name": "totalSupply",
      "outputs": [
        {
          "internalType": "uint256",
          "name": "",
          "type": "uint256"
        }
      ],
      "stateMutability": "view",
      "type": "function"
    },
    {
      "inputs": [
        {
          "internalType": "address",
          "name": "recipient",
          "type": "address"
        },
        {
          "internalType": "uint256",
          "name": "amount",
          "type": "uint256"
        }
      ],
      "name": "transfer",
      "outputs": [
        {
          "internalType": "bool",
          "name": "",
          "type": "bool"
        }
      ],
      "stateMutability": "nonpayable",
      "type": "function"
    },
    {
      "inputs": [
        {
          "internalType": "address",
          "name": "sender",
          "type": "address"
        },
        {
          "internalType": "address",
          "name": "recipient",
          "type": "address"
        },
        {
          "internalType": "uint256",
          "name": "amount",
          "type": "uint256"
        }
      ],
      "name": "transferFrom",
      "outputs": [
        {
          "internalType": "bool",
          "name": "",
          "type": "bool"
        }
      ],
      "stateMutability": "nonpayable",
      "type": "function"
    },
    {
      "inputs": [],
      "name": "unpause",
      "outputs": [],
      "stateMutability": "nonpayable",
      "type": "function"
    }
  ],
  "bytecode": "0x6103806040523480156200001257600080fd5b5060405162004a2138038062004a21833981016040819052620000359162000b5f565b846000856000015186602001516200005d8860400151896060015130620004ef60201b60201c565b604080516003808252608082019092529060208201606080368337019050508960e00151898989828289898d85336001600160a01b031660001b8480604051806040016040528060018152602001603160f81b81525087878160039080519060200190620000cd92919062000a10565b508051620000e390600490602084019062000a10565b50506005805460ff19166012179055508151602092830120608052805191012060a052507f8b73c3c69bb8fe3d512ecc4cf759cc79239f7b179b0ffacaa9a75d522b39400f60c05260e0526001600160601b0319606091821b81166101005291901b1661012052506200016190506276a700831115610194620005be565b6200017562278d00821115610195620005be565b429091016101408190520161016052855162000197906002111560c8620005be565b620001b1620001a5620005d3565b8751111560c9620005be565b620001c786620005d860201b6200112b1760201c565b620001d284620005e4565b6040516309b2760f60e01b81526000906001600160a01b038c16906309b2760f9062000203908d9060040162000d7d565b602060405180830381600087803b1580156200021e57600080fd5b505af115801562000233573d6000803e3d6000fd5b505050506040513d601f19601f8201168201806040525081019062000259919062000b27565b604051633354e3e960e11b81529091506001600160a01b038c16906366a9c7d2906200028e9084908b908b9060040162000ce1565b600060405180830381600087803b158015620002a957600080fd5b505af1158015620002be573d6000803e3d6000fd5b505050508061018081815250508a6001600160a01b031663d2946c2b6040518163ffffffff1660e01b815260040160206040518083038186803b1580156200030557600080fd5b505afa1580156200031a573d6000803e3d6000fd5b505050506040513d601f19601f8201168201806040525081019062000340919062000b40565b6001600160a01b03166101a0816001600160a01b031660601b81525050505050505050505050505083604001516001600160a01b03166101c0816001600160a01b031660601b8152505083606001516001600160a01b03166101e0816001600160a01b031660601b815250506000806000620003cc87604001518860600151306200067860201b60201c565b61030083905261032082905261034081905260408a01519295509093509150620003f6906200076e565b6102005260608701516200040a906200076e565b6102205260808701516102405260a08701516102605260e08701516102805260c08701516102a0526101008701516102c052426102e05261012087015180516200045d9160099160209091019062000a10565b50836001600160a01b0316610360816001600160a01b031660601b8152505086604001516001600160a01b03167fcc19f8fbf7b272756fdb594e385d63f8d5cdd71b279584121ec82542123c93888860a0015189606001518a60c001518b61010001518c6101200151604051620004d995949392919062000d9b565b60405180910390a2505050505050505062000e70565b6060600080806200050287878762000678565b60408051600380825260808201909252939650919450925060208201606080368337019050509350868484815181106200053857fe5b60200260200101906001600160a01b031690816001600160a01b031681525050858483815181106200056657fe5b60200260200101906001600160a01b031690816001600160a01b031681525050848482815181106200059457fe5b60200260200101906001600160a01b031690816001600160a01b0316815250505050509392505050565b81620005cf57620005cf8162000842565b5050565b600390565b80620005cf8162000857565b620005fd620005f2620008e3565b82101560cb620005be565b620006166200060b620008ec565b82111560ca620005be565b620006388160c0603f600854620008f860201b6200113517909392919060201c565b6008556040517fa9ba3ffe0b6c366b81232caab38605a0699ad5398d6cce76f91ee809e322dafc906200066d90839062000d92565b60405180910390a150565b6000806000846001600160a01b0316866001600160a01b031610156200070157836001600160a01b0316856001600160a01b03161015620006c457506000915060019050600262000765565b836001600160a01b0316866001600160a01b03161015620006f057506000915060029050600162000765565b506001915060029050600062000765565b846001600160a01b0316846001600160a01b031610156200072d57506002915060019050600062000765565b856001600160a01b0316846001600160a01b031610156200075957506002915060009050600162000765565b50600191506000905060025b93509350939050565b60006001600160a01b038216301415620007925750670de0b6b3a76400006200083d565b6000826001600160a01b031663313ce5676040518163ffffffff1660e01b815260040160206040518083038186803b158015620007ce57600080fd5b505afa158015620007e3573d6000803e3d6000fd5b505050506040513d601f19601f8201168201806040525081019062000809919062000cbe565b60ff1690506000620008286012836200091d60201b620011581760201c565b905080600a0a670de0b6b3a764000002925050505b919050565b62000854816210905360ea1b6200093a565b50565b600281511015620008685762000854565b6000816000815181106200087857fe5b602002602001015190506000600190505b8251811015620008de576000838281518110620008a257fe5b60200260200101519050620008d3816001600160a01b0316846001600160a01b0316106065620005be60201b60201c565b915060010162000889565b505050565b64e8d4a5100090565b67016345785d8a000090565b6000620009078484846200099b565b506001901b60001901811b1992909216911b1790565b60006200092f838311156001620005be565b508082035b92915050565b62461bcd60e51b600090815260206004526007602452600a808404818106603090810160081b958390069590950190829004918206850160101b01602363ffffff0060e086901c160160181b0190930160c81b60445260e882901c90606490fd5b620009ac61010083106064620005be565b620009e560018210158015620009dd5750620009d960ff8461010003620009f660201b6200116e1760201c565b8211155b6064620005be565b620008de83821c156101b4620005be565b600081831062000a07578162000a09565b825b9392505050565b828054600181600116156101000203166002900490600052602060002090601f016020900481019282601f1062000a5357805160ff191683800117855562000a83565b8280016001018555821562000a83579182015b8281111562000a8357825182559160200191906001019062000a66565b5062000a9192915062000a95565b5090565b5b8082111562000a91576000815560010162000a96565b8051620009348162000e5a565b600082601f83011262000aca578081fd5b81516001600160401b0381111562000ae0578182fd5b62000af5601f8201601f191660200162000df4565b915080825283602082850101111562000b0d57600080fd5b62000b2081602084016020860162000e27565b5092915050565b60006020828403121562000b39578081fd5b5051919050565b60006020828403121562000b52578081fd5b815162000a098162000e5a565b600080600080600060a0868803121562000b77578081fd5b855162000b848162000e5a565b60208701519095506001600160401b038082111562000ba1578283fd5b818801915061014080838b03121562000bb8578384fd5b62000bc38162000df4565b905082518281111562000bd4578485fd5b62000be28b82860162000ab9565b82525060208301518281111562000bf7578485fd5b62000c058b82860162000ab9565b60208301525062000c1a8a6040850162000aac565b604082015262000c2e8a6060850162000aac565b60608201526080830151608082015260a083015160a082015260c083015160c082015260e083015160e0820152610100808401518183015250610120808401518381111562000c7b578586fd5b62000c898c82870162000ab9565b828401525050809650505050604086015192506060860151915062000cb2876080880162000aac565b90509295509295909350565b60006020828403121562000cd0578081fd5b815160ff8116811462000a09578182fd5b60006060820185835260206060818501528186518084526080860191508288019350845b8181101562000d2d5762000d1a855162000e1b565b8352938301939183019160010162000d05565b505084810360408601528551808252908201925081860190845b8181101562000d6f5762000d5c835162000e1b565b8552938301939183019160010162000d47565b509298975050505050505050565b602081016003831062000d8c57fe5b91905290565b90815260200190565b600086825260018060a01b038616602083015284604083015283606083015260a0608083015282518060a084015262000ddc8160c085016020870162000e27565b601f01601f19169190910160c0019695505050505050565b6040518181016001600160401b038111828210171562000e1357600080fd5b604052919050565b6001600160a01b031690565b60005b8381101562000e4457818101518382015260200162000e2a565b8381111562000e54576000848401525b50505050565b6001600160a01b03811681146200085457600080fd5b60805160a05160c05160e0516101005160601c6101205160601c6101405161016051610180516101a05160601c6101c05160601c6101e05160601c61020051610220516102405161026051610280516102a0516102c0516102e0516103005161032051610340516103605160601c613a1a6200100760003980611d42525080610c155280612a82525080610e4a5280612074528061230352806125ec528061270452806127db525080610ae3528061205252806122e1528061251552806125ca52806127b952508061062c52508061064d5280611109525080610d265250508061070352806110db5250806106dd5280610e855250505080610aa452806112a3528061134e5280611fcb528061203052806122bf52806124d352806125a8528061279752508061096452806112535280611305528061200e528061225a528061229d528061258652806126c25280612775525080610ecc5250806109b752508061144c525080611428525080610ce7525080610cc3525080610c4d525080611e06525080611e48525080611e275250613a1a6000f3fe608060405234801561001057600080fd5b50600436106103155760003560e01c806382687a56116101a7578063a9059cbb116100ee578063d505accf11610097578063deafd91e11610071578063deafd91e146105c4578063ed24911d146105cc578063f1493ee1146105d457610315565b8063d505accf1461058b578063d5c096c41461059e578063dd62ed3e146105b157610315565b8063b35056b8116100c8578063b35056b814610573578063b7b814fc1461057b578063d2946c2b1461058357610315565b8063a9059cbb14610550578063aaabadc514610563578063ac4316cb1461056b57610315565b806390193b7c116101505780639c0e5d131161012a5780639c0e5d131461052d578063a457c2d714610535578063a7488bb71461054857610315565b806390193b7c1461050a57806395c95a4f1461051d57806395d89b411461052557610315565b806387ec68171161018157806387ec6817146104e7578063893d20e8146104fa5780638d928af81461050257610315565b806382687a56146104c45780638456cb59146104cc578063851c1bb3146104d457610315565b806338fff2d01161026b5780636028bfd41161021457806372f3824d116101ee57806372f3824d1461048857806374f3b009146104905780637ecebe00146104b157610315565b80636028bfd41461044c5780636945c1fd1461046d57806370a082311461047557610315565b806350dd6ed91161024557806350dd6ed91461042957806354a844ba1461043c57806355c676281461044457610315565b806338fff2d014610406578063395093511461040e5780633f4ba83a1461042157610315565b80631dd746ea116102cd578063313ce567116102a7578063313ce567146103d45780633644e515146103e957806338e9922e146103f157610315565b80631dd746ea1461039757806323b872dd146103ac5780632541897f146103bf57610315565b8063095ea7b3116102fe578063095ea7b31461035857806318160ddd146103785780631c0de0511461038057610315565b806301ec954a1461031a57806306fdde0314610343575b600080fd5b61032d6103283660046133cc565b6105dc565b60405161033a9190613741565b60405180910390f35b61034b610801565b60405161033a919061381f565b61036b610366366004613141565b610897565b60405161033a919061371e565b61032d6108ae565b6103886108b4565b60405161033a93929190613729565b61039f6108dd565b60405161033a91906136dd565b61036b6103ba366004613091565b6108ec565b6103c7610962565b60405161033a9190613695565b6103dc610986565b60405161033a919061395e565b61032d61098f565b6104046103ff3660046134eb565b610999565b005b61032d6109b5565b61036b61041c366004613141565b6109d9565b610404610a14565b61040461043736600461328b565b610a28565b610404610a46565b61032d610a58565b61045f61045a36600461318c565b610a6b565b60405161033a929190613945565b6103c7610aa2565b61032d61048336600461303d565b610ac6565b61032d610ae1565b6104a361049e36600461318c565b610b05565b60405161033a9291906136f0565b61032d6104bf36600461303d565b610c08565b61032d610c13565b610404610c37565b61032d6104e236600461322f565b610c49565b61045f6104f536600461318c565b610c9b565b6103c7610cc1565b6103c7610ce5565b61032d61051836600461303d565b610d09565b61032d610d24565b61034b610d48565b61034b610da9565b61036b610543366004613141565b610e0a565b61032d610e48565b61036b61055e366004613141565b610e6c565b6103c7610e79565b61032d610e83565b61036b610ea7565b610404610eb8565b6103c7610eca565b6104046105993660046130d1565b610eee565b6104a36105ac36600461318c565b610f79565b61032d6105bf366004613059565b61109c565b61032d6110d9565b61032d6110fd565b61032d611107565b600084608001516106096105ee610ce5565b6001600160a01b0316336001600160a01b03161460cd611184565b61061e6106146109b5565b82146101f4611184565b610626611192565b426106717f00000000000000000000000000000000000000000000000000000000000000007f00000000000000000000000000000000000000000000000000000000000000006111a5565b10156106b2576040517f08c379a00000000000000000000000000000000000000000000000000000000081526004016106a99061390e565b60405180910390fd5b60606106bc6111b5565b90506106c6612f11565b60405180606001604052806106d9610a58565b81527f000000000000000000000000000000000000000000000000000000000000000060208201527f0000000000000000000000000000000000000000000000000000000000000000604090910152905060008851600181111561073957fe5b141561079b57610760886060015183888151811061075357fe5b6020026020010151611243565b6060890152600061077289898461124f565b90506107918184888151811061078457fe5b60200260200101516112f5565b94505050506107f8565b6001885160018111156107aa57fe5b14156107f5576107c4886060015183878151811061075357fe5b606089015260006107d6898984611301565b9050610791818489815181106107e857fe5b6020026020010151611395565b50505b50949350505050565b60038054604080516020601f600260001961010060018816150201909516949094049384018190048102820181019092528281526060939092909183018282801561088d5780601f106108625761010080835404028352916020019161088d565b820191906000526020600020905b81548152906001019060200180831161087057829003601f168201915b5050505050905090565b60006108a43384846113a1565b5060015b92915050565b60025490565b60008060006108c1611409565b1592506108cc611426565b91506108d661144a565b9050909192565b60606108e76111b5565b905090565b6000806108f9853361109c565b905061091d336001600160a01b03871614806109155750838210155b61019e611184565b61092885858561146e565b336001600160a01b0386161480159061094357506000198114155b156109555761095585338584036113a1565b60019150505b9392505050565b7f000000000000000000000000000000000000000000000000000000000000000090565b60055460ff1690565b60006108e76110fd565b6109a161154e565b6109a9611192565b6109b281611594565b50565b7f000000000000000000000000000000000000000000000000000000000000000090565b3360008181526001602090815260408083206001600160a01b038716845290915281205490916108a4918590610a0f908661160d565b6113a1565b610a1c61154e565b610a26600061161f565b565b610a3061154e565b610a38611192565b610a4282826116b0565b5050565b610a4e61154e565b610a2660016117be565b6008546000906108e79060c0603f611815565b60006060610a818651610a7c611824565b611829565b610a96898989898989896118366118886118f7565b97509795505050505050565b7f000000000000000000000000000000000000000000000000000000000000000090565b6001600160a01b031660009081526020819052604090205490565b7f000000000000000000000000000000000000000000000000000000000000000090565b60608088610b146105ee610ce5565b610b1f6106146109b5565b60606000610b2c86611aac565b15610b5457610b39611adb565b610b4b89610b456108ae565b88611aee565b92509050610ba6565b610b5c611b1a565b6060610b666111b5565b9050610b728a82611b22565b610b968d8d8d8d8d610b82610ea7565b610b8c578d610b8f565b60005b878e611836565b93509150610ba48382611888565b505b610bb08b82611b8b565b81895167ffffffffffffffff81118015610bc957600080fd5b50604051908082528060200260200182016040528015610bf3578160200160208202803683370190505b509450945050505b5097509795505050505050565b60006108a882610d09565b7f000000000000000000000000000000000000000000000000000000000000000090565b610c3f61154e565b610a26600161161f565b60007f000000000000000000000000000000000000000000000000000000000000000082604051602001610c7e92919061361f565b604051602081830303815290604052805190602001209050919050565b60006060610cac8651610a7c611824565b610a9689898989898989611b95611bb16118f7565b7f000000000000000000000000000000000000000000000000000000000000000090565b7f000000000000000000000000000000000000000000000000000000000000000090565b6001600160a01b031660009081526006602052604090205490565b7f000000000000000000000000000000000000000000000000000000000000000090565b60048054604080516020601f600260001961010060018816150201909516949094049384018190048102820181019092528281526060939092909183018282801561088d5780601f106108625761010080835404028352916020019161088d565b60098054604080516020601f600260001961010060018816150201909516949094049384018190048102820181019092528281526060939092909183018282801561088d5780601f106108625761010080835404028352916020019161088d565b600080610e17338561109c565b9050808310610e3157610e2c338560006113a1565b610e3e565b610e3e33858584036113a1565b5060019392505050565b7f000000000000000000000000000000000000000000000000000000000000000090565b60006108a433848461146e565b60006108e7611c1a565b7f000000000000000000000000000000000000000000000000000000000000000090565b6008546000906108e79060ff611c94565b610ec061154e565b610a2660006117be565b7f000000000000000000000000000000000000000000000000000000000000000090565b60007f6e71edae12b1b97f4d1f60370fef10105fa2faae0126114a169c64845d6126c9888888610f1d8c610d09565b89604051602001610f3396959493929190613769565b604051602081830303815290604052805190602001209050610f648882610f5b878787611c9e565b886101f8611cdd565b610f6f8888886113a1565b5050505050505050565b60608088610f886105ee610ce5565b610f936106146109b5565b610f9b611b1a565b6060610fa56111b5565b9050610faf6108ae565b61105c5760006060610fc48d8d8d868b611d34565b91509150610fdd610fd3611dc6565b83101560cc611184565b610fef6000610fea611dc6565b611dcd565b6110028b610ffb611dc6565b8403611dcd565b61100c8184611bb1565b808a5167ffffffffffffffff8111801561102557600080fd5b5060405190808252806020026020018201604052801561104f578160200160208202803683370190505b5095509550505050610bfb565b6110668882611b22565b6000606061108e8d8d8d8d8d61107a610ea7565b611084578d611087565b60005b898e611b95565b915091506110028b83611dcd565b60006110a6610ce5565b6001600160a01b0316826001600160a01b031614156110c857506000196108a8565b6110d28383611dd7565b90506108a8565b7f000000000000000000000000000000000000000000000000000000000000000090565b60006108e7611e02565b7f000000000000000000000000000000000000000000000000000000000000000090565b80610a4281611e9f565b6000611142848484611f1d565b506001901b60001901811b1992909216911b1790565b6000611168838311156001611184565b50900390565b600081831061117d578161095b565b5090919050565b81610a4257610a4281611f64565b610a2661119d611409565b610192611184565b818101828110156108a857600080fd5b606060006111c1611824565b905060608167ffffffffffffffff811180156111dc57600080fd5b50604051908082528060200260200182016040528015611206578160200160208202803683370190505b50905060005b8281101561123c57670de0b6b3a764000082828151811061122957fe5b602090810291909101015260010161120c565b5091505090565b600061095b8383611f8e565b60007f00000000000000000000000000000000000000000000000000000000000000006001600160a01b031684602001516001600160a01b031614156112a15761129a848484611fc4565b905061095b565b7f00000000000000000000000000000000000000000000000000000000000000006001600160a01b031684602001516001600160a01b031614156112ea5761129a848484612253565b61095b610135611f64565b600061095b838361247b565b60007f00000000000000000000000000000000000000000000000000000000000000006001600160a01b031684604001516001600160a01b0316141561134c5761129a8484846124cc565b7f00000000000000000000000000000000000000000000000000000000000000006001600160a01b031684604001516001600160a01b031614156112ea5761129a8484846126bb565b600061095b838361287d565b6001600160a01b0380841660008181526001602090815260408083209487168084529490915290819020849055517f8c5be1e5ebec7d5bd14f71427d1e84f3dd0314c0f7b2291e5b200ac8c7c3b925906113fc908590613741565b60405180910390a3505050565b600061141361144a565b4211806108e757505060075460ff161590565b7f000000000000000000000000000000000000000000000000000000000000000090565b7f000000000000000000000000000000000000000000000000000000000000000090565b6114856001600160a01b0384161515610198611184565b61149c6001600160a01b0383161515610199611184565b6114a7838383611f18565b6001600160a01b0383166000908152602081905260409020546114cd90826101a06128cb565b6001600160a01b0380851660009081526020819052604080822093909355908416815220546114fc908261160d565b6001600160a01b0380841660008181526020819052604090819020939093559151908516907fddf252ad1be2c89b69c2b068fc378daa952ba7f163c4a11628f55a4df523b3ef906113fc908590613741565b600061157d6000357fffffffff0000000000000000000000000000000000000000000000000000000016610c49565b90506109b261158c82336128e1565b610191611184565b6115a961159f6129ca565b82101560cb611184565b6115be6115b46129d3565b82111560ca611184565b6008546115cf908260c0603f611135565b6008556040517fa9ba3ffe0b6c366b81232caab38605a0699ad5398d6cce76f91ee809e322dafc90611602908390613741565b60405180910390a150565b600082820161095b8482101583611184565b801561163f5761163a611630611426565b4210610193611184565b611654565b61165461164a61144a565b42106101a9611184565b600780547fffffffffffffffffffffffffffffffffffffffffffffffffffffffffffffff00168215151790556040517f9e3a5e37224532dea67b89face185703738a228a6e8a23dee546960180d3be649061160290839061371e565b60006116ba6109b5565b905060006116c6610ce5565b6001600160a01b031663b05f8e4883866040518363ffffffff1660e01b81526004016116f39291906137ea565b60806040518083038186803b15801561170b57600080fd5b505afa15801561171f573d6000803e3d6000fd5b505050506040513d601f19601f820116820180604052508101906117439190613503565b6040517f18e736d40000000000000000000000000000000000000000000000000000000081529094506001600160a01b03851693506318e736d492506117909150859087906004016137c9565b600060405180830381600087803b1580156117aa57600080fd5b505af1158015610f6f573d6000803e3d6000fd5b6008546117cd908260ff6129df565b6008556040517feff3d4d215b42bf0960be9c6d5e05c22cba4df6627a3a523e2acee733b5854c89061180090839061371e565b60405180910390a1806109b2576109b2610a26565b6001901b6000190191901c1690565b600390565b610a428183146067611184565b60006060600061184584612a06565b9050600181600181111561185557fe5b1461186a57611865610162611f64565b61187a565b6118748885612a1c565b90935091505b509850989650505050505050565b81518151611897908290611829565b60005b818110156118f1576118d28482815181106118b157fe5b60200260200101518483815181106118c557fe5b602002602001015161247b565b8482815181106118de57fe5b602090810291909101015260010161189a565b50505050565b3330146119e6576000306001600160a01b031660003660405161191b92919061364f565b6000604051808303816000865af19150503d8060008114611958576040519150601f19603f3d011682016040523d82523d6000602084013e61195d565b606091505b50509050806000811461196c57fe5b60046000803e6000517fffffffff00000000000000000000000000000000000000000000000000000000167f43adbafb0000000000000000000000000000000000000000000000000000000081146119c8573d6000803e3d6000fd5b506020600460003e604060205260243d03602460403e601c3d016000f35b6119ee611b1a565b60606119f86111b5565b9050611a048782611b22565b60006060611a1c8c8c8c8c8c8c898d8d63ffffffff16565b91509150611a2e81848663ffffffff16565b80517fffffffffffffffffffffffffffffffffffffffffffffffffffffffffffffffe082018390526343adbafb7fffffffffffffffffffffffffffffffffffffffffffffffffffffffffffffffc08301526020027fffffffffffffffffffffffffffffffffffffffffffffffffffffffffffffffdc82016044820181fd5b60008082511180156108a8575060ff801682806020019051810190611ad19190613543565b60ff161492915050565b610a26611ae6610ea7565b6101b6611184565b600060606000611afd84612ae8565b90506060611b0c878784612afe565b919791965090945050505050565b610a26611192565b81518151611b31908290611829565b60005b818110156118f157611b6c848281518110611b4b57fe5b6020026020010151848381518110611b5f57fe5b6020026020010151611f8e565b848281518110611b7857fe5b6020908102919091010152600101611b34565b610a428282612b97565b60006060611ba4610162611f64565b9850989650505050505050565b81518151611bc0908290611829565b60005b818110156118f157611bfb848281518110611bda57fe5b6020026020010151848381518110611bee57fe5b602002602001015161287d565b848281518110611c0757fe5b6020908102919091010152600101611bc3565b6000611c24610ce5565b6001600160a01b031663aaabadc56040518163ffffffff1660e01b815260040160206040518083038186803b158015611c5c57600080fd5b505afa158015611c70573d6000803e3d6000fd5b505050506040513d601f19601f820116820180604052508101906108e7919061326f565b1c60019081161490565b60408051604180825260808201909252606091829190602082018180368337019050509050836020820152826040820152846060820153949350505050565b6000611ce885612c63565b9050611cfe611cf8878387612c7f565b83611184565b611d0d428410156101b8611184565b5050506001600160a01b039092166000908152600660205260409020805460010190555050565b60006060611d40611192565b7f0000000000000000000000000000000000000000000000000000000000000000611d7b6001600160a01b0388811690831614610156611184565b611d9b816001600160a01b0316876001600160a01b031614610156611184565b6dffffffffffffffffffffffffffff6060611db586612d4c565b919a91995090975050505050505050565b620f424090565b610a428282612d62565b6001600160a01b03918216600090815260016020908152604080832093909416825291909152205490565b60007f00000000000000000000000000000000000000000000000000000000000000007f00000000000000000000000000000000000000000000000000000000000000007f0000000000000000000000000000000000000000000000000000000000000000611e6f612df5565b30604051602001611e8495949392919061379d565b60405160208183030381529060405280519060200120905090565b600281511015611eae576109b2565b600081600081518110611ebd57fe5b602002602001015190506000600190505b8251811015611f18576000838281518110611ee557fe5b60200260200101519050611f0e816001600160a01b0316846001600160a01b0316106065611184565b9150600101611ece565b505050565b611f2c61010083106064611184565b611f5560018210158015611f4e5750611f4a60ff846101000361116e565b8211155b6064611184565b611f1883821c156101b4611184565b6109b2817f42414c0000000000000000000000000000000000000000000000000000000000612df9565b6000828202611fb2841580611fab575083858381611fa857fe5b04145b6003611184565b670de0b6b3a764000090049392505050565b600061200a7f00000000000000000000000000000000000000000000000000000000000000006001600160a01b031685604001516001600160a01b031614610135611184565b82517f0000000000000000000000000000000000000000000000000000000000000000907f0000000000000000000000000000000000000000000000000000000000000000907f0000000000000000000000000000000000000000000000000000000000000000907f0000000000000000000000000000000000000000000000000000000000000000906000906120b9908990859081106120a757fe5b60200260200101518a6060015161160d565b905060006121248984815181106120cc57fe5b602002602001015161211f6120fd858d88815181106120e757fe5b602002602001015161247b90919063ffffffff16565b8c888151811061210957fe5b6020026020010151611f8e90919063ffffffff16565b611158565b905060006121458a858151811061213757fe5b602002602001015183611158565b9050818a858151811061215457fe5b60200260200101511015612194576040517f08c379a00000000000000000000000000000000000000000000000000000000081526004016106a990613832565b60208901516121a3828561247b565b101580156121be575060408901516121bb828561247b565b11155b6121f4576040517f08c379a00000000000000000000000000000000000000000000000000000000081526004016106a9906138d7565b866001600160a01b03167f560f9a9aa840257b3f71f9f0cc55270169408d782595c416c1042eccf7426c9c878d606001518e60c00151864260405161223d9594939291906136a9565b60405180910390a2509998505050505050505050565b60006122997f00000000000000000000000000000000000000000000000000000000000000006001600160a01b031685604001516001600160a01b031614610135611184565b82517f0000000000000000000000000000000000000000000000000000000000000000907f0000000000000000000000000000000000000000000000000000000000000000907f0000000000000000000000000000000000000000000000000000000000000000907f000000000000000000000000000000000000000000000000000000000000000090600090612336908990849081106120a757fe5b9050600061237089858151811061234957fe5b602002602001015161211f612364858d89815181106120e757fe5b8c878151811061210957fe5b905060006123838a868151811061213757fe5b9050818a868151811061239257fe5b602002602001015110156123d2576040517f08c379a00000000000000000000000000000000000000000000000000000000081526004016106a9906138a0565b60208901516123e1848361247b565b101580156123fc575060408901516123f9848361247b565b11155b612432576040517f08c379a00000000000000000000000000000000000000000000000000000000081526004016106a9906138d7565b856001600160a01b03167f560f9a9aa840257b3f71f9f0cc55270169408d782595c416c1042eccf7426c9c888d606001518e60c00151864260405161223d9594939291906136a9565b600061248a8215156004611184565b82612497575060006108a8565b670de0b6b3a7640000838102906124ba908583816124b157fe5b04146005611184565b8281816124c357fe5b049150506108a8565b60006125127f00000000000000000000000000000000000000000000000000000000000000006001600160a01b031685602001516001600160a01b031614610135611184565b827f00000000000000000000000000000000000000000000000000000000000000008151811061253e57fe5b6020026020010151846060015110612582576040517f08c379a00000000000000000000000000000000000000000000000000000000081526004016106a990613869565b82517f0000000000000000000000000000000000000000000000000000000000000000907f0000000000000000000000000000000000000000000000000000000000000000907f0000000000000000000000000000000000000000000000000000000000000000907f0000000000000000000000000000000000000000000000000000000000000000906000906126319089908590811061261f57fe5b60200260200101518a60600151611158565b9050600061267061265761264b848c87815181106120e757fe5b8b878151811061210957fe5b8a858151811061266357fe5b6020026020010151611158565b905060006126918a858151811061268357fe5b60200260200101518361160d565b60208a01519091506126a3828561247b565b101580156123fc575060408901516123f9828561247b565b60006127017f00000000000000000000000000000000000000000000000000000000000000006001600160a01b031685602001516001600160a01b031614610135611184565b827f00000000000000000000000000000000000000000000000000000000000000008151811061272d57fe5b6020026020010151846060015110612771576040517f08c379a00000000000000000000000000000000000000000000000000000000081526004016106a990613869565b82517f0000000000000000000000000000000000000000000000000000000000000000907f0000000000000000000000000000000000000000000000000000000000000000907f0000000000000000000000000000000000000000000000000000000000000000907f00000000000000000000000000000000000000000000000000000000000000009060009061280e9089908490811061261f57fe5b90506000612840612834612828848c88815181106120e757fe5b8b868151811061210957fe5b8a868151811061266357fe5b905060006128538a868151811061268357fe5b60208a0151909150612865848361247b565b101580156121be575060408901516121bb848361247b565b600061288c8215156004611184565b82612899575060006108a8565b670de0b6b3a7640000838102906128b3908583816124b157fe5b8260018203816128bf57fe5b046001019150506108a8565b60006128da8484111583611184565b5050900390565b600073ba1ba1ba1ba1ba1ba1ba1ba1ba1ba1ba1ba1ba1b612900610cc1565b6001600160a01b03161415801561291b575061291b83612e74565b1561294357612928610cc1565b6001600160a01b0316336001600160a01b03161490506108a8565b61294b611c1a565b6001600160a01b0316639be2a8848484306040518463ffffffff1660e01b815260040161297a9392919061374a565b60206040518083038186803b15801561299257600080fd5b505afa1580156129a6573d6000803e3d6000fd5b505050506040513d601f19601f820116820180604052508101906110d2919061316c565b64e8d4a5100090565b67016345785d8a000090565b60006001821b19841682846129f55760006129f8565b60015b60ff16901b17949350505050565b6000818060200190518101906108a891906132d9565b600060606000612a2b84612ee2565b90506060855167ffffffffffffffff81118015612a4757600080fd5b50604051908082528060200260200182016040528015612a71578160200160208202803683370190505b50905060005b8651811015612adc577f00000000000000000000000000000000000000000000000000000000000000008114612ad457868181518110612ab357fe5b6020026020010151828281518110612ac757fe5b6020026020010181815250505b600101612a77565b50909590945092505050565b60008180602001905181019061095b919061355f565b60606000612b0c838561247b565b9050845167ffffffffffffffff81118015612b2657600080fd5b50604051908082528060200260200182016040528015612b50578160200160208202803683370190505b50915060005b8551811015612b8e57612b6f8287838151811061210957fe5b838281518110612b7b57fe5b6020908102919091010152600101612b56565b50509392505050565b612bae6001600160a01b038316151561019b611184565b612bba82600083611f18565b6001600160a01b038216600090815260208190526040902054612be090826101b26128cb565b6001600160a01b038316600090815260208190526040902055612c13612c0e82612c086108ae565b90612ef8565b612f06565b60006001600160a01b0316826001600160a01b03167fddf252ad1be2c89b69c2b068fc378daa952ba7f163c4a11628f55a4df523b3ef83604051612c579190613741565b60405180910390a35050565b6000612c6d611e02565b82604051602001610c7e92919061365f565b6000612c9182516041146101b9611184565b60208281015160408085015160608601518251600080825295019283905292939092811a91600190612cca908990859088908890613801565b6020604051602081039080840390855afa158015612cec573d6000803e3d6000fd5b50506040517fffffffffffffffffffffffffffffffffffffffffffffffffffffffffffffffe001519150506001600160a01b03811615801590612d405750876001600160a01b0316816001600160a01b0316145b98975050505050505050565b60608180602001905181019061095b9190613322565b612d6e60008383611f18565b612d83612c0e82612d7d6108ae565b9061160d565b6001600160a01b038216600090815260208190526040902054612da6908261160d565b6001600160a01b0383166000818152602081905260408082209390935591519091907fddf252ad1be2c89b69c2b068fc378daa952ba7f163c4a11628f55a4df523b3ef90612c57908590613741565b4690565b7f08c379a000000000000000000000000000000000000000000000000000000000600090815260206004526007602452600a808404818106603090810160081b958390069590950190829004918206850160101b01602363ffffff0060e086901c160160181b0190930160c81b60445260e882901c90606490fd5b6000612e9f7f38e9922e00000000000000000000000000000000000000000000000000000000610c49565b821480612ed35750612ed07f50dd6ed900000000000000000000000000000000000000000000000000000000610c49565b82145b806108a857506108a882612f0b565b60008180602001905181019061095b91906132f5565b600061095b838360016128cb565b600255565b50600090565b60405180606001604052806000815260200160008152602001600081525090565b80356108a8816139b3565b600082601f830112612f4d578081fd5b8135612f60612f5b82613993565b61396c565b818152915060208083019084810181840286018201871015612f8157600080fd5b60005b84811015612fa057813584529282019290820190600101612f84565b505050505092915050565b600082601f830112612fbb578081fd5b813567ffffffffffffffff811115612fd1578182fd5b61300260207fffffffffffffffffffffffffffffffffffffffffffffffffffffffffffffffe0601f8401160161396c565b915080825283602082850101111561301957600080fd5b8060208401602084013760009082016020015292915050565b80356108a8816139c8565b60006020828403121561304e578081fd5b813561095b816139b3565b6000806040838503121561306b578081fd5b8235613076816139b3565b91506020830135613086816139b3565b809150509250929050565b6000806000606084860312156130a5578081fd5b83356130b0816139b3565b925060208401356130c0816139b3565b929592945050506040919091013590565b600080600080600080600060e0888a0312156130eb578283fd5b87356130f6816139b3565b96506020880135613106816139b3565b955060408801359450606088013593506080880135613124816139d5565b9699959850939692959460a0840135945060c09093013592915050565b60008060408385031215613153578182fd5b823561315e816139b3565b946020939093013593505050565b60006020828403121561317d578081fd5b8151801515811461095b578182fd5b600080600080600080600060e0888a0312156131a6578081fd5b8735965060208801356131b8816139b3565b955060408801356131c8816139b3565b9450606088013567ffffffffffffffff808211156131e4578283fd5b6131f08b838c01612f3d565b955060808a0135945060a08a0135935060c08a0135915080821115613213578283fd5b506132208a828b01612fab565b91505092959891949750929550565b600060208284031215613240578081fd5b81357fffffffff000000000000000000000000000000000000000000000000000000008116811461095b578182fd5b600060208284031215613280578081fd5b815161095b816139b3565b6000806040838503121561329d578182fd5b82356132a8816139b3565b9150602083013567ffffffffffffffff8111156132c3578182fd5b6132cf85828601612fab565b9150509250929050565b6000602082840312156132ea578081fd5b815161095b816139c8565b60008060408385031215613307578182fd5b8251613312816139c8565b6020939093015192949293505050565b60008060408385031215613334578182fd5b825160048110613342578283fd5b8092505060208084015167ffffffffffffffff811115613360578283fd5b8401601f81018613613370578283fd5b805161337e612f5b82613993565b81815283810190838501858402850186018a101561339a578687fd5b8694505b838510156133bc57805183526001949094019391850191850161339e565b5080955050505050509250929050565b600080600080608085870312156133e1578182fd5b843567ffffffffffffffff808211156133f8578384fd5b818701915061012080838a03121561340e578485fd5b6134178161396c565b90506134238984613032565b81526134328960208501612f32565b60208201526134448960408501612f32565b6040820152606083013560608201526080830135608082015260a083013560a08201526134748960c08501612f32565b60c08201526134868960e08501612f32565b60e0820152610100808401358381111561349e578687fd5b6134aa8b828701612fab565b8284015250508096505060208701359150808211156134c7578384fd5b506134d487828801612f3d565b949794965050505060408301359260600135919050565b6000602082840312156134fc578081fd5b5035919050565b60008060008060808587031215613518578182fd5b8451935060208501519250604085015191506060850151613538816139b3565b939692955090935050565b600060208284031215613554578081fd5b815161095b816139d5565b60008060408385031215613571578182fd5b8251613312816139d5565b6000815180845260208085019450808401835b838110156135ab5781518752958201959082019060010161358f565b509495945050505050565b60008151808452815b818110156135db576020818501810151868301820152016135bf565b818111156135ec5782602083870101525b50601f017fffffffffffffffffffffffffffffffffffffffffffffffffffffffffffffffe0169290920160200192915050565b9182527fffffffff0000000000000000000000000000000000000000000000000000000016602082015260240190565b6000828483379101908152919050565b7f190100000000000000000000000000000000000000000000000000000000000081526002810192909252602282015260420190565b6001600160a01b0391909116815260200190565b6001600160a01b03958616815260208101949094529190931660408301526060820192909252608081019190915260a00190565b60006020825261095b602083018461357c565b600060408252613703604083018561357c565b8281036020840152613715818561357c565b95945050505050565b901515815260200190565b92151583526020830191909152604082015260600190565b90815260200190565b9283526001600160a01b03918216602084015216604082015260600190565b9586526001600160a01b0394851660208701529290931660408501526060840152608083019190915260a082015260c00190565b9485526020850193909352604084019190915260608301526001600160a01b0316608082015260a00190565b6000838252604060208301526137e260408301846135b6565b949350505050565b9182526001600160a01b0316602082015260400190565b93845260ff9290921660208401526040830152606082015260800190565b60006020825261095b60208301846135b6565b6020808252601d908201527f496e73756666696369656e742063757272656e63792062616c616e6365000000604082015260600190565b60208082526014908201527f496e73756666696369656e742062616c616e6365000000000000000000000000604082015260600190565b6020808252601d908201527f496e73756666696369656e742073656375726974792062616c616e6365000000604082015260600190565b60208082526012908201527f5072696365206f7574206f6620626f756e640000000000000000000000000000604082015260600190565b6020808252600e908201527f54696d654c696d6974204f766572000000000000000000000000000000000000604082015260600190565b6000838252604060208301526137e2604083018461357c565b60ff91909116815260200190565b60405181810167ffffffffffffffff8111828210171561398b57600080fd5b604052919050565b600067ffffffffffffffff8211156139a9578081fd5b5060209081020190565b6001600160a01b03811681146109b257600080fd5b600281106109b257600080fd5b60ff811681146109b257600080fdfea2646970667358221220da59a8614578155b5561126fb5dcf3cb3d0763f26ffdca0e15bfa16754b9338a64736f6c63430007010033",
  "linkReferences": {},
  "deployedLinkReferences": {}
}