{
  "_format": "hh-sol-artifact-1",
  "contractName": "PrimaryIssuePoolFactory",
  "sourceName": "contracts/PrimaryIssuePoolFactory.sol",
  "abi": [
    {
      "inputs": [
        {
          "internalType": "contract IVault",
          "name": "vault",
          "type": "address"
        }
      ],
      "stateMutability": "nonpayable",
      "type": "constructor"
    },
    {
      "anonymous": false,
      "inputs": [],
      "name": "FactoryDisabled",
      "type": "event"
    },
    {
      "anonymous": false,
      "inputs": [
        {
          "indexed": true,
          "internalType": "address",
          "name": "pool",
          "type": "address"
        }
      ],
      "name": "PoolCreated",
      "type": "event"
    },
    {
      "inputs": [
        {
          "components": [
            {
              "internalType": "address",
              "name": "security",
              "type": "address"
            },
            {
              "internalType": "address",
              "name": "currency",
              "type": "address"
            },
            {
              "internalType": "uint256",
              "name": "minimumPrice",
              "type": "uint256"
            },
            {
              "internalType": "uint256",
              "name": "basePrice",
              "type": "uint256"
            },
            {
              "internalType": "uint256",
              "name": "maxAmountsIn",
              "type": "uint256"
            },
            {
              "internalType": "uint256",
              "name": "issueFeePercentage",
              "type": "uint256"
            },
            {
              "internalType": "uint256",
              "name": "cutOffTime",
              "type": "uint256"
            }
          ],
          "internalType": "struct IPrimaryIssuePoolFactory.FactoryPoolParams",
          "name": "params",
          "type": "tuple"
        }
      ],
      "name": "create",
      "outputs": [
        {
          "internalType": "address",
          "name": "",
          "type": "address"
        }
      ],
      "stateMutability": "nonpayable",
      "type": "function"
    },
    {
      "inputs": [],
      "name": "disable",
      "outputs": [],
      "stateMutability": "nonpayable",
      "type": "function"
    },
    {
      "inputs": [
        {
          "internalType": "bytes4",
          "name": "selector",
          "type": "bytes4"
        }
      ],
      "name": "getActionId",
      "outputs": [
        {
          "internalType": "bytes32",
          "name": "",
          "type": "bytes32"
        }
      ],
      "stateMutability": "view",
      "type": "function"
    },
    {
      "inputs": [],
      "name": "getAuthorizer",
      "outputs": [
        {
          "internalType": "contract IAuthorizer",
          "name": "",
          "type": "address"
        }
      ],
      "stateMutability": "view",
      "type": "function"
    },
    {
      "inputs": [],
      "name": "getCreationCode",
      "outputs": [
        {
          "internalType": "bytes",
          "name": "",
          "type": "bytes"
        }
      ],
      "stateMutability": "view",
      "type": "function"
    },
    {
      "inputs": [],
      "name": "getCreationCodeContracts",
      "outputs": [
        {
          "internalType": "address",
          "name": "contractA",
          "type": "address"
        },
        {
          "internalType": "address",
          "name": "contractB",
          "type": "address"
        }
      ],
      "stateMutability": "view",
      "type": "function"
    },
    {
      "inputs": [],
      "name": "getPauseConfiguration",
      "outputs": [
        {
          "internalType": "uint256",
          "name": "pauseWindowDuration",
          "type": "uint256"
        },
        {
          "internalType": "uint256",
          "name": "bufferPeriodDuration",
          "type": "uint256"
        }
      ],
      "stateMutability": "view",
      "type": "function"
    },
    {
      "inputs": [],
      "name": "getVault",
      "outputs": [
        {
          "internalType": "contract IVault",
          "name": "",
          "type": "address"
        }
      ],
      "stateMutability": "view",
      "type": "function"
    },
    {
      "inputs": [],
      "name": "isDisabled",
      "outputs": [
        {
          "internalType": "bool",
          "name": "",
          "type": "bool"
        }
      ],
      "stateMutability": "view",
      "type": "function"
    },
    {
      "inputs": [
        {
          "internalType": "address",
          "name": "pool",
          "type": "address"
        }
      ],
      "name": "isPoolFromFactory",
      "outputs": [
        {
          "internalType": "bool",
          "name": "",
          "type": "bool"
        }
      ],
      "stateMutability": "view",
      "type": "function"
    }
  ],
  "bytecode": "0x6101606040523480156200001257600080fd5b506040516200512d3803806200512d8339810160408190526200003591620001ce565b80604051806020016200004890620001c0565b601f1982820381018352601f90910116604052805182903090839060006002820460a081905280830360e081905281855290915083620000948162000104602090811b6200041317901c565b60601b6001600160601b0319166080528285018051838252620000c38262000104602090811b6200041317901c565b6001600160601b0319606091821b811660c0529690935290526101009590955250509290911b90911661012052505050426276a700016101405250620001fe565b80517f602038038060206000396000f3fefefefefefefefefefefefefefefefefefefe808352600091602081018484f09084529150620001526001600160a01b03831615156101ac62000158565b50919050565b81620001695762000169816200016d565b5050565b62461bcd60e51b6000908152602060045260076024526642414c23000030600a808404818106603090810160081b95839006959095019082900491820690940160101b939093010160c81b604452606490fd5b6144ce8062000c5f83390190565b600060208284031215620001e0578081fd5b81516001600160a01b0381168114620001f7578182fd5b9392505050565b60805160601c60a05160c05160601c60e051610100516101205160601c610140516109f56200026a600039806101d952806102025250806102ff5250806102af52508061046d5250806101b052806104e952508061048e52508061018f52806104c552506109f56000f3fe608060405234801561001057600080fd5b506004361061009d5760003560e01c80636c57f5a9116100665780636c57f5a914610116578063851c1bb31461011e5780638d928af81461013e578063aaabadc514610153578063f71aba161461015b5761009d565b8062c194db146100a2578063174481fa146100c05780632da47c40146100d65780632f2770db146100ec5780636634b753146100f6575b600080fd5b6100aa61016e565b6040516100b791906108ee565b60405180910390f35b6100c861018d565b6040516100b79291906108a1565b6100de6101d3565b6040516100b792919061099c565b6100f461023d565b005b610109610104366004610768565b610284565b6040516100b791906108bb565b6101096102a2565b61013161012c3660046107a4565b6102ab565b6040516100b791906108c6565b6101466102fd565b6040516100b7919061088d565b610146610321565b6101466101693660046107e8565b61039b565b606061018860405180602001604052806000815250610465565b905090565b7f00000000000000000000000000000000000000000000000000000000000000007f00000000000000000000000000000000000000000000000000000000000000009091565b600080427f000000000000000000000000000000000000000000000000000000000000000081101561022f57807f000000000000000000000000000000000000000000000000000000000000000003925062278d009150610238565b60009250600091505b509091565b61024561053e565b61024d61056f565b6001805460ff1916811790556040517f432acbfd662dbb5d8b378384a67159b47ca9d0f1b79f97cf64cf8585fa362d5090600090a1565b6001600160a01b031660009081526020819052604090205460ff1690565b60015460ff1690565b60007f0000000000000000000000000000000000000000000000000000000000000000826040516020016102e0929190610875565b604051602081830303815290604052805190602001209050919050565b7f000000000000000000000000000000000000000000000000000000000000000090565b600061032b6102fd565b6001600160a01b031663aaabadc56040518163ffffffff1660e01b815260040160206040518083038186803b15801561036357600080fd5b505afa158015610377573d6000803e3d6000fd5b505050506040513d601f19601f8201168201806040525081019061018891906107cc565b60008060006103a86101d3565b9150915061040b6103b76102fd565b856000015186602001518760400151886060015189608001518a60a0015189898d60c00151336040516020016103f79b9a99989796959493929190610941565b604051602081830303815290604052610584565b949350505050565b80517f602038038060206000396000f3fefefefefefefefefefefefefefefefefefefe808352600091602081018484f0908452915061045f6001600160a01b03831615156101ac6105ed565b50919050565b8051604080517f00000000000000000000000000000000000000000000000000000000000000007f0000000000000000000000000000000000000000000000000000000000000000818101858101848101602090810190965280855293957f00000000000000000000000000000000000000000000000000000000000000009592947f000000000000000000000000000000000000000000000000000000000000000094938801866000828a3c846000888301883c50602089810190898501016105308183866105ff565b505050505050505050919050565b60006105556000356001600160e01b0319166102ab565b905061056c610564823361063d565b6101916105ed565b50565b61058261057a6102a2565b1560d36105ed565b565b600061058e61056f565b6000610599836106cf565b6001600160a01b038116600081815260208190526040808220805460ff191660011790555192935090917f83a48fbcfc991335314e74d0496aab6a1987e992ddc85dddbcc4d6dd6ef2e9fc9190a292915050565b816105fb576105fb8161070a565b5050565b5b6020811061061f578151835260209283019290910190601f1901610600565b905182516020929092036101000a6000190180199091169116179052565b6000610647610321565b6001600160a01b0316639be2a8848484306040518463ffffffff1660e01b8152600401610676939291906108cf565b60206040518083038186803b15801561068e57600080fd5b505afa1580156106a2573d6000803e3d6000fd5b505050506040513d601f19601f820116820180604052508101906106c69190610784565b90505b92915050565b600060606106dc83610465565b905060008151602083016000f090506001600160a01b038116610703573d6000803e3d6000fd5b9392505050565b62461bcd60e51b6000908152602060045260076024526642414c23000030600a808404818106603090810160081b95839006959095019082900491820690940160101b939093010160c81b604452606490fd5b80356106c9816109aa565b600060208284031215610779578081fd5b8135610703816109aa565b600060208284031215610795578081fd5b81518015158114610703578182fd5b6000602082840312156107b5578081fd5b81356001600160e01b031981168114610703578182fd5b6000602082840312156107dd578081fd5b8151610703816109aa565b600060e082840312156107f9578081fd5b60405160e0810181811067ffffffffffffffff82111715610818578283fd5b604052610825848461075d565b8152610834846020850161075d565b602082015260408301356040820152606083013560608201526080830135608082015260a083013560a082015260c083013560c08201528091505092915050565b9182526001600160e01b031916602082015260240190565b6001600160a01b0391909116815260200190565b6001600160a01b0392831681529116602082015260400190565b901515815260200190565b90815260200190565b9283526001600160a01b03918216602084015216604082015260600190565b6000602080835283518082850152825b8181101561091a578581018301518582016040015282016108fe565b8181111561092b5783604083870101525b50601f01601f1916929092016040019392505050565b6001600160a01b039b8c168152998b1660208b0152978a1660408a01526060890196909652608088019490945260a087019290925260c086015260e08501526101008401526101208301529091166101408201526101600190565b918252602082015260400190565b6001600160a01b038116811461056c57600080fdfea26469706673582212207e3b93a042580954959656dc164468c303216c4ec9717d0460134a0e5bc1a00d64736f6c634300070100336102c06040527f6e71edae12b1b97f4d1f60370fef10105fa2faae0126114a169c64845d6126c960e0523480156200003657600080fd5b50604051620044ce380380620044ce833981016040819052620000599162000ae1565b8a60008b6001600160a01b03166306fdde036040518163ffffffff1660e01b815260040160006040518083038186803b1580156200009657600080fd5b505afa158015620000ab573d6000803e3d6000fd5b505050506040513d6000823e601f3d908101601f19168201604052620000d5919081019062000b92565b8c6001600160a01b03166395d89b416040518163ffffffff1660e01b815260040160006040518083038186803b1580156200010f57600080fd5b505afa15801562000124573d6000803e3d6000fd5b505050506040513d6000823e601f3d908101601f191682016040526200014e919081019062000b92565b6200015a8e8e62000531565b6040805160028082526060820183529091602083019080368337019050508a8a8a89828289898d85336001600160a01b031660001b8480604051806040016040528060018152602001603160f81b81525087878160039080519060200190620001c592919062000a0d565b508051620001db90600490602084019062000a0d565b50506005805460ff19166012179055508151602092830120608052805191012060a052507f8b73c3c69bb8fe3d512ecc4cf759cc79239f7b179b0ffacaa9a75d522b39400f60c052610100526001600160601b0319606091821b81166101205291901b1661014052506200025a90506276a700831115610194620005e2565b6200026e62278d00821115610195620005e2565b429091016101608190520161018052855162000290906002111560c8620005e2565b620002aa6200029e620005f7565b8751111560c9620005e2565b620002c086620005fc60201b620012d11760201c565b620002cb8462000608565b6040516309b2760f60e01b81526000906001600160a01b038c16906309b2760f90620002fc908d9060040162000d14565b602060405180830381600087803b1580156200031757600080fd5b505af11580156200032c573d6000803e3d6000fd5b505050506040513d601f19601f8201168201806040525081019062000352919062000aa9565b604051633354e3e960e11b81529091506001600160a01b038c16906366a9c7d290620003879084908b908b9060040162000c78565b600060405180830381600087803b158015620003a257600080fd5b505af1158015620003b7573d6000803e3d6000fd5b50505050806101a081815250508a6001600160a01b031663d2946c2b6040518163ffffffff1660e01b815260040160206040518083038186803b158015620003fe57600080fd5b505afa15801562000413573d6000803e3d6000fd5b505050506040513d601f19601f8201168201806040525081019062000439919062000ac2565b6001600160a01b03166101c0816001600160a01b031660601b815250505050505050505050505050896001600160a01b03166101e0816001600160a01b031660601b81525050886001600160a01b0316610200816001600160a01b031660601b815250506000806000620004b58d8d306200069c60201b60201c565b6102608390526102808290526102a081905291945092509050620004d98d62000792565b61022052620004e88c62000792565b61024052505050600997909755600a95909555505050600b55600c5542600d55600e80546001600160a01b0319166001600160a01b039092169190911790555062000d54915050565b6040805160028082526060808301845292602083019080368337019050509050816001600160a01b0316836001600160a01b03161162000572578262000574565b815b816000815181106200058257fe5b6001600160a01b0392831660209182029290920101528281169084161115620005ac5782620005ae565b815b81600181518110620005bc57fe5b60200260200101906001600160a01b031690816001600160a01b03168152505092915050565b81620005f357620005f38162000866565b5050565b600290565b80620005f381620008b9565b620006216200061662000946565b82101560cb620005e2565b6200063a6200062f6200094f565b82111560ca620005e2565b6200065c8160c060406008546200095b60201b620012db17909392919060201c565b6008556040517fa9ba3ffe0b6c366b81232caab38605a0699ad5398d6cce76f91ee809e322dafc906200069190839062000d29565b60405180910390a150565b6000806000846001600160a01b0316866001600160a01b031610156200072557836001600160a01b0316856001600160a01b03161015620006e857506000915060019050600262000789565b836001600160a01b0316866001600160a01b031610156200071457506000915060029050600162000789565b506001915060029050600062000789565b846001600160a01b0316846001600160a01b031610156200075157506002915060019050600062000789565b856001600160a01b0316846001600160a01b031610156200077d57506002915060009050600162000789565b50600191506000905060025b93509350939050565b60006001600160a01b038216301415620007b65750670de0b6b3a764000062000861565b6000826001600160a01b031663313ce5676040518163ffffffff1660e01b815260040160206040518083038186803b158015620007f257600080fd5b505afa15801562000807573d6000803e3d6000fd5b505050506040513d601f19601f820116820180604052508101906200082d919062000c55565b60ff16905060006200084c6012836200098060201b620012fe1760201c565b905080600a0a670de0b6b3a764000002925050505b919050565b62461bcd60e51b6000908152602060045260076024526642414c23000030600a808404818106603090810160081b95839006959095019082900491820690940160101b939093010160c81b604452606490fd5b600281511015620008ca5762000943565b600081600081518110620008da57fe5b602002602001015190506000600190505b8251811015620009405760008382815181106200090457fe5b6020026020010151905062000935816001600160a01b0316846001600160a01b0316106065620005e260201b60201c565b9150600101620008eb565b50505b50565b64e8d4a5100090565b67016345785d8a000090565b60006200096a84848462000998565b506001901b60001901811b1992909216911b1790565b600062000992838311156001620005e2565b50900390565b620009a961010083106064620005e2565b620009e260018210158015620009da5750620009d660ff8461010003620009f360201b620013141760201c565b8211155b6064620005e2565b6200094083821c156101b4620005e2565b600081831062000a04578162000a06565b825b9392505050565b828054600181600116156101000203166002900490600052602060002090601f016020900481019282601f1062000a5057805160ff191683800117855562000a80565b8280016001018555821562000a80579182015b8281111562000a8057825182559160200191906001019062000a63565b5062000a8e92915062000a92565b5090565b5b8082111562000a8e576000815560010162000a93565b60006020828403121562000abb578081fd5b5051919050565b60006020828403121562000ad4578081fd5b815162000a068162000d3e565b60008060008060008060008060008060006101608c8e03121562000b03578687fd5b8b5162000b108162000d3e565b60208d0151909b5062000b238162000d3e565b60408d0151909a5062000b368162000d3e565b8099505060608c0151975060808c0151965060a08c0151955060c08c0151945060e08c015193506101008c015192506101208c015191506101408c015162000b7e8162000d3e565b809150509295989b509295989b9093969950565b6000602080838503121562000ba5578182fd5b82516001600160401b038082111562000bbc578384fd5b818501915085601f83011262000bd0578384fd5b81518181111562000bdf578485fd5b604051601f8201601f191681018501838111828210171562000bff578687fd5b604052818152838201850188101562000c16578586fd5b8592505b8183101562000c39578383018501518184018601529184019162000c1a565b8183111562000c4a57858583830101525b979650505050505050565b60006020828403121562000c67578081fd5b815160ff8116811462000a06578182fd5b60006060820185835260206060818501528186518084526080860191508288019350845b8181101562000cc45762000cb1855162000d32565b8352938301939183019160010162000c9c565b505084810360408601528551808252908201925081860190845b8181101562000d065762000cf3835162000d32565b8552938301939183019160010162000cde565b509298975050505050505050565b602081016003831062000d2357fe5b91905290565b90815260200190565b6001600160a01b031690565b6001600160a01b03811681146200094357600080fd5b60805160a05160c05160e051610100516101205160601c6101405160601c61016051610180516101a0516101c05160601c6101e05160601c6102005160601c610220516102405161026051610280516102a05161360462000eca600039806113fa5250806113b952806120e252806121245280612357528061260452806126375280612727525080611378528061209c528061238b52806123be52806125be528061275b528061278e52505050806108cb5280610a9652806111665280611493528061153e528061201752806120585280612469528061248a5280612539528061257a52508061078b5280610a485280610c005280611118528061144352806114f5528061219252806121dd52806121fe52806122d25280612313528061241e52806126a252806126e3525080610e2b5250806107de52508061163c525080611618525080610d31525080610d0d525080610c97525080610e8252508061174252508061178452508061176352506136046000f3fe608060405234801561001057600080fd5b506004361061023d5760003560e01c806370a082311161013b578063a457c2d7116100b8578063d2946c2b1161007c578063d2946c2b14610470578063d505accf14610478578063d5c096c41461048b578063dd62ed3e1461049e578063e9fad8ee146104b15761023d565b8063a457c2d714610432578063a9059cbb14610445578063aaabadc514610458578063b35056b814610460578063b7b814fc146104685761023d565b8063851c1bb3116100ff578063851c1bb3146103f457806387ec681714610407578063893d20e81461041a5780638d928af81461042257806395d89b411461042a5761023d565b806370a082311461039d57806374f3b009146103b05780637ecebe00146103d15780638129fc1c146103e45780638456cb59146103ec5761023d565b80633644e515116101c957806350dd6ed91161018d57806350dd6ed91461035157806354a844ba1461036457806355c676281461036c5780636028bfd4146103745780636945c1fd146103955761023d565b80633644e5151461031157806338e9922e1461031957806338fff2d01461032e57806339509351146103365780633f4ba83a146103495761023d565b80631c0de051116102105780631c0de051146102a85780631dd746ea146102bf57806323b872dd146102d45780632541897f146102e7578063313ce567146102fc5761023d565b806301ec954a1461024257806306fdde031461026b578063095ea7b31461028057806318160ddd146102a0575b600080fd5b61025561025036600461301b565b6104b9565b60405161026291906133cd565b60405180910390f35b610273610628565b60405161026291906134df565b61029361028e366004612e28565b6106be565b60405161026291906133aa565b6102556106d5565b6102b06106db565b604051610262939291906133b5565b6102c7610704565b6040516102629190613372565b6102936102e2366004612d78565b610713565b6102ef610789565b6040516102629190613320565b6103046107ad565b6040516102629190613521565b6102556107b6565b61032c61032736600461313a565b6107c0565b005b6102556107dc565b610293610344366004612e28565b610800565b61032c61083b565b61032c61035f366004612f5a565b61084f565b61032c61086d565b61025561087f565b610387610382366004612e73565b610892565b6040516102629291906134f2565b6102ef6108c9565b6102556103ab366004612d24565b6108ed565b6103c36103be366004612e73565b610908565b604051610262929190613385565b6102556103df366004612d24565b610a0b565b61032c610a26565b61032c610c81565b610255610402366004612f16565b610c93565b610387610415366004612e73565b610ce5565b6102ef610d0b565b6102ef610d2f565b610273610d53565b610293610440366004612e28565b610db4565b610293610453366004612e28565b610df2565b6102ef610dff565b610293610e09565b61032c610e17565b6102ef610e29565b61032c610486366004612db8565b610e4d565b6103c3610499366004612e73565b610f96565b6102556104ac366004612d40565b6110b9565b61032c6110f6565b600084608001516104e66104cb610d2f565b6001600160a01b0316336001600160a01b03161460cd61132a565b6104fb6104f16107dc565b82146101f461132a565b4261050a600d54600c54611338565b101561051557600080fd5b606061051f611348565b9050610529612bec565b604051806060016040528061053c61087f565b81526009546020820152600a54604090910152905060008851600181111561056057fe5b14156105c257610587886060015183888151811061057a57fe5b6020026020010151611433565b6060890152600061059989898461143f565b90506105b8818488815181106105ab57fe5b60200260200101516114e5565b945050505061061f565b6001885160018111156105d157fe5b141561061c576105eb886060015183878151811061057a57fe5b606089015260006105fd8989846114f1565b90506105b88184898151811061060f57fe5b6020026020010151611585565b50505b50949350505050565b60038054604080516020601f60026000196101006001881615020190951694909404938401819004810282018101909252828152606093909290918301828280156106b45780601f10610689576101008083540402835291602001916106b4565b820191906000526020600020905b81548152906001019060200180831161069757829003601f168201915b5050505050905090565b60006106cb338484611591565b5060015b92915050565b60025490565b60008060006106e86115f9565b1592506106f3611616565b91506106fd61163a565b9050909192565b606061070e611348565b905090565b60008061072085336110b9565b9050610744336001600160a01b038716148061073c5750838210155b61019e61132a565b61074f85858561165e565b336001600160a01b0386161480159061076a57506000198114155b1561077c5761077c8533858403611591565b60019150505b9392505050565b7f000000000000000000000000000000000000000000000000000000000000000090565b60055460ff1690565b600061070e61173e565b6107c86117db565b6107d0611809565b6107d98161181c565b50565b7f000000000000000000000000000000000000000000000000000000000000000090565b3360008181526001602090815260408083206001600160a01b038716845290915281205490916106cb9185906108369086611895565b611591565b6108436117db565b61084d60006118a7565b565b6108576117db565b61085f611809565b610869828261191a565b5050565b6108756117db565b61084d6001611a19565b60085460009061070e9060c06040611a5c565b600060606108a886516108a3611a6b565b611a70565b6108bd89898989898989611a7d611a99611aff565b97509795505050505050565b7f000000000000000000000000000000000000000000000000000000000000000090565b6001600160a01b031660009081526020819052604090205490565b606080886109176104cb610d2f565b6109226104f16107dc565b6060600061092f86611c21565b156109575761093c611c50565b61094e896109486106d5565b88611c67565b925090506109a9565b61095f611809565b6060610969611348565b90506109758a82611c93565b6109998d8d8d8d8d610985610e09565b61098f578d610992565b60005b878e611a7d565b935091506109a78382611a99565b505b6109b38b82611cf4565b81895167ffffffffffffffff811180156109cc57600080fd5b506040519080825280602002602001820160405280156109f6578160200160208202803683370190505b509450945050505b5097509795505050505050565b6001600160a01b031660009081526006602052604090205490565b60408051600280825260608083018452926020830190803683370190505090507f000000000000000000000000000000000000000000000000000000000000000081600081518110610a7457fe5b60200260200101906001600160a01b031690816001600160a01b0316815250507f000000000000000000000000000000000000000000000000000000000000000081600181518110610ac257fe5b6001600160a01b0392909216602092830291909101909101526040805160028082526060828101909352816020016020820280368337019050509050600b5481600081518110610b0e57fe5b602002602001018181525050610b2a600b546009546000611cfe565b81600181518110610b3757fe5b602002602001018181525050610b4b612c0d565b50604080516080810182528381526020808201849052825190810183526000808252928201526060810182905290610b81610d2f565b9050806001600160a01b031663b95cac28610b9a6107dc565b600e546040516001600160e01b031960e085901b168152610bcc92916001600160a01b031690309088906004016133d6565b600060405180830381600087803b158015610be657600080fd5b505af1158015610bfa573d6000803e3d6000fd5b505050507f00000000000000000000000000000000000000000000000000000000000000006001600160a01b03167fe061af2a4caf997f61f1dc16267966cd2ba0d1edce78eed8659b273c9bf0a45560095485600181518110610c5957fe5b6020026020010151600c54604051610c739392919061350b565b60405180910390a250505050565b610c896117db565b61084d60016118a7565b60007f000000000000000000000000000000000000000000000000000000000000000082604051602001610cc89291906132dd565b604051602081830303815290604052805190602001209050919050565b60006060610cf686516108a3611a6b565b6108bd89898989898989611a7d611d26611aff565b7f000000000000000000000000000000000000000000000000000000000000000090565b7f000000000000000000000000000000000000000000000000000000000000000090565b60048054604080516020601f60026000196101006001881615020190951694909404938401819004810282018101909252828152606093909290918301828280156106b45780601f10610689576101008083540402835291602001916106b4565b600080610dc133856110b9565b9050808310610ddb57610dd633856000611591565b610de8565b610de83385858403611591565b5060019392505050565b60006106cb33848461165e565b600061070e611d87565b600754610100900460ff1690565b610e1f6117db565b61084d6000611a19565b7f000000000000000000000000000000000000000000000000000000000000000090565b610e5b8442111560d161132a565b6001600160a01b0387166000908152600660209081526040808320549051909291610eb2917f0000000000000000000000000000000000000000000000000000000000000000918c918c918c9188918d9101613431565b6040516020818303038152906040528051906020012090506000610ed582611e01565b9050600060018288888860405160008152602001604052604051610efc94939291906134c1565b6020604051602081039080840390855afa158015610f1e573d6000803e3d6000fd5b5050604051601f1901519150610f6090506001600160a01b03821615801590610f5857508b6001600160a01b0316826001600160a01b0316145b6101f861132a565b6001600160a01b038b166000908152600660205260409020600185019055610f898b8b8b611591565b5050505050505050505050565b60608088610fa56104cb610d2f565b610fb06104f16107dc565b6060610fba611348565b9050610fc4611809565b610fcc6106d5565b6110795760006060610fe18d8d8d868b611e1d565b91509150610ffa610ff0611e8b565b83101560cc61132a565b61100c6000611007611e8b565b611e92565b61101f8b611018611e8b565b8403611e92565b6110298184611d26565b808a5167ffffffffffffffff8111801561104257600080fd5b5060405190808252806020026020018201604052801561106c578160200160208202803683370190505b50955095505050506109fe565b6110838882611c93565b600060606110ab8d8d8d8d8d611097610e09565b6110a1578d6110a4565b60005b898e611a7d565b9150915061101f8b83611e92565b60006110c3610d2f565b6001600160a01b0316826001600160a01b031614156110e557506000196106cf565b6110ef8383611e9c565b90506106cf565b60408051600280825260608083018452926020830190803683370190505090507f00000000000000000000000000000000000000000000000000000000000000008160008151811061114457fe5b60200260200101906001600160a01b031690816001600160a01b0316815250507f00000000000000000000000000000000000000000000000000000000000000008160018151811061119257fe5b6001600160a01b03929092166020928302919091019091015260408051600280825260608281019093528160200160208202803683370190505090506000816000815181106111dd57fe5b6020026020010181815250506111f9600b54600a546000611cfe565b8160018151811061120657fe5b60200260200101818152505061121a612c0d565b50604080516080810182528381526020808201849052825190810183526000808252928201526060810191909152611250610d2f565b6001600160a01b0316638bdb39136112666107dc565b600e546040516001600160e01b031960e085901b16815261129a929130916001600160a01b039091169087906004016133d6565b600060405180830381600087803b1580156112b457600080fd5b505af11580156112c8573d6000803e3d6000fd5b50505050505050565b8061086981611ec7565b60006112e8848484611f40565b506001901b60001901811b1992909216911b1790565b600061130e83831115600161132a565b50900390565b60008183106113235781610782565b5090919050565b816108695761086981611f87565b818101828110156106cf57600080fd5b604080516002808252606080830184529283929190602083019080368337019050509050670de0b6b3a7640000817f0000000000000000000000000000000000000000000000000000000000000000815181106113a157fe5b602002602001018181525050670de0b6b3a7640000817f0000000000000000000000000000000000000000000000000000000000000000815181106113e257fe5b602002602001018181525050670de0b6b3a7640000817f00000000000000000000000000000000000000000000000000000000000000008151811061142357fe5b6020908102919091010152905090565b60006107828383611fda565b60007f00000000000000000000000000000000000000000000000000000000000000006001600160a01b031684602001516001600160a01b031614156114915761148a848484612010565b9050610782565b7f00000000000000000000000000000000000000000000000000000000000000006001600160a01b031684602001516001600160a01b031614156114da5761148a8484846122cb565b610782610135611f87565b600061078283836124e1565b60007f00000000000000000000000000000000000000000000000000000000000000006001600160a01b031684604001516001600160a01b0316141561153c5761148a848484612532565b7f00000000000000000000000000000000000000000000000000000000000000006001600160a01b031684604001516001600160a01b031614156114da5761148a84848461269b565b600061078283836127e4565b6001600160a01b0380841660008181526001602090815260408083209487168084529490915290819020849055517f8c5be1e5ebec7d5bd14f71427d1e84f3dd0314c0f7b2291e5b200ac8c7c3b925906115ec9085906133cd565b60405180910390a3505050565b600061160361163a565b42118061070e57505060075460ff161590565b7f000000000000000000000000000000000000000000000000000000000000000090565b7f000000000000000000000000000000000000000000000000000000000000000090565b6116756001600160a01b038416151561019861132a565b61168c6001600160a01b038316151561019961132a565b611697838383611afa565b6001600160a01b0383166000908152602081905260409020546116bd90826101a0612832565b6001600160a01b0380851660009081526020819052604080822093909355908416815220546116ec9082611895565b6001600160a01b0380841660008181526020819052604090819020939093559151908516907fddf252ad1be2c89b69c2b068fc378daa952ba7f163c4a11628f55a4df523b3ef906115ec9085906133cd565b60007f00000000000000000000000000000000000000000000000000000000000000007f00000000000000000000000000000000000000000000000000000000000000007f00000000000000000000000000000000000000000000000000000000000000006117ab612848565b306040516020016117c0959493929190613465565b60405160208183030381529060405280519060200120905090565b60006117f26000356001600160e01b031916610c93565b90506107d9611801823361284c565b61019161132a565b61084d6118146115f9565b61019261132a565b611831611827612935565b82101560cb61132a565b61184661183c61293e565b82111560ca61132a565b600854611857908260c060406112db565b6008556040517fa9ba3ffe0b6c366b81232caab38605a0699ad5398d6cce76f91ee809e322dafc9061188a9083906133cd565b60405180910390a150565b6000828201610782848210158361132a565b80156118c7576118c26118b8611616565b421061019361132a565b6118dc565b6118dc6118d261163a565b42106101a961132a565b6007805460ff19168215151790556040517f9e3a5e37224532dea67b89face185703738a228a6e8a23dee546960180d3be649061188a9083906133aa565b60006119246107dc565b90506000611930610d2f565b6001600160a01b031663b05f8e4883866040518363ffffffff1660e01b815260040161195d9291906134aa565b60806040518083038186803b15801561197557600080fd5b505afa158015611989573d6000803e3d6000fd5b505050506040513d601f19601f820116820180604052508101906119ad9190613152565b604051630639cdb560e21b81529094506001600160a01b03851693506318e736d492506119e1915085908790600401613491565b600060405180830381600087803b1580156119fb57600080fd5b505af1158015611a0f573d6000803e3d6000fd5b5050505050505050565b6007805461ff001916610100831515021790556040517feff3d4d215b42bf0960be9c6d5e05c22cba4df6627a3a523e2acee733b5854c89061188a9083906133aa565b6001901b6000190191901c1690565b600290565b610869818314606761132a565b60006060611a8c610136611f87565b9850989650505050505050565b60005b611aa4611a6b565b811015611afa57611adb838281518110611aba57fe5b6020026020010151838381518110611ace57fe5b60200260200101516124e1565b838281518110611ae757fe5b6020908102919091010152600101611a9c565b505050565b333014611bbd576000306001600160a01b0316600036604051611b239291906132f5565b6000604051808303816000865af19150503d8060008114611b60576040519150601f19603f3d011682016040523d82523d6000602084013e611b65565b606091505b505090508060008114611b7457fe5b60046000803e6000516001600160e01b0319166343adbafb60e01b8114611b9f573d6000803e3d6000fd5b506020600460003e604060205260243d03602460403e601c3d016000f35b6060611bc7611348565b9050611bd38782611c93565b60006060611beb8c8c8c8c8c8c898d8d63ffffffff16565b91509150611bfd81848663ffffffff16565b8051601f1982018390526343adbafb603f1983015260200260231982016044820181fd5b60008082511180156106cf575060ff801682806020019051810190611c469190613192565b60ff161492915050565b60075461084d90610100900460ff166101b661132a565b600060606000611c768461294a565b90506060611c85878784612960565b919791965090945050505050565b60005b611c9e611a6b565b811015611afa57611cd5838281518110611cb457fe5b6020026020010151838381518110611cc857fe5b6020026020010151611fda565b838281518110611ce157fe5b6020908102919091010152600101611c96565b6108698282612a0f565b600081611d1457611d0f8484612acb565b611d1e565b611d1e8484612aeb565b949350505050565b60005b611d31611a6b565b811015611afa57611d68838281518110611d4757fe5b6020026020010151838381518110611d5b57fe5b60200260200101516127e4565b838281518110611d7457fe5b6020908102919091010152600101611d29565b6000611d91610d2f565b6001600160a01b031663aaabadc56040518163ffffffff1660e01b815260040160206040518083038186803b158015611dc957600080fd5b505afa158015611ddd573d6000803e3d6000fd5b505050506040513d601f19601f8201168201806040525081019061070e9190612f3e565b6000611e0b61173e565b82604051602001610cc8929190613305565b60006060611e29611809565b600e54611e46906001600160a01b038881169116146101aa61132a565b611e5d6001600160a01b03861630146101aa61132a565b6040805160028082526060808301845292602083019080368337019050506000999098509650505050505050565b620f424090565b6108698282612b1e565b6001600160a01b03918216600090815260016020908152604080832093909416825291909152205490565b600281511015611ed6576107d9565b600081600081518110611ee557fe5b602002602001015190506000600190505b8251811015611afa576000838281518110611f0d57fe5b60200260200101519050611f36816001600160a01b0316846001600160a01b031610606561132a565b9150600101611ef6565b611f4f6101008310606461132a565b611f7860018210158015611f715750611f6d60ff8461010003611314565b8211155b606461132a565b611afa83821c156101b461132a565b62461bcd60e51b6000908152602060045260076024526642414c23000030600a808404818106603090810160081b95839006959095019082900491820690940160101b939093010160c81b604452606490fd5b6000828202611ffe841580611ff7575083858381611ff457fe5b04145b600361132a565b670de0b6b3a764000090049392505050565b60006120567f00000000000000000000000000000000000000000000000000000000000000006001600160a01b031685604001516001600160a01b03161461013561132a565b7f00000000000000000000000000000000000000000000000000000000000000006001600160a01b031684604001516001600160a01b031614156107825760006120d7847f0000000000000000000000000000000000000000000000000000000000000000815181106120c557fe5b60200260200101518660600151611895565b9050600061211a82867f00000000000000000000000000000000000000000000000000000000000000008151811061210b57fe5b60200260200101516000611cfe565b9050600061215b867f00000000000000000000000000000000000000000000000000000000000000008151811061214d57fe5b6020026020010151836112fe565b9050846020015161216e84836000611cfe565b1015801561218b5750846040015161218884836000611cfe565b11155b156122bf577f00000000000000000000000000000000000000000000000000000000000000006001600160a01b03167fcf6f98f0568a50d4e3d60b183f01e307f5011e8140f842a5a855df40d80918bb7f00000000000000000000000000000000000000000000000000000000000000007f00000000000000000000000000000000000000000000000000000000000000006001600160a01b03166306fdde036040518163ffffffff1660e01b815260040160006040518083038186803b15801561225557600080fd5b505afa158015612269573d6000803e3d6000fd5b505050506040513d6000823e601f3d908101601f191682016040526122919190810190612fa8565b8a606001518b60c00151876040516122ad959493929190613334565b60405180910390a25091506107829050565b60009350505050610782565b60006123117f00000000000000000000000000000000000000000000000000000000000000006001600160a01b031685604001516001600160a01b03161461013561132a565b7f00000000000000000000000000000000000000000000000000000000000000006001600160a01b031684604001516001600160a01b03161415610782576000612380847f0000000000000000000000000000000000000000000000000000000000000000815181106120c557fe5b905060006123b482867f00000000000000000000000000000000000000000000000000000000000000008151811061210b57fe5b905060006123e7867f00000000000000000000000000000000000000000000000000000000000000008151811061214d57fe5b905084602001516123fa82856000611cfe565b101580156124175750846040015161241482856000611cfe565b11155b156122bf577f00000000000000000000000000000000000000000000000000000000000000006001600160a01b03167fcf6f98f0568a50d4e3d60b183f01e307f5011e8140f842a5a855df40d80918bb7f00000000000000000000000000000000000000000000000000000000000000007f00000000000000000000000000000000000000000000000000000000000000006001600160a01b03166306fdde036040518163ffffffff1660e01b815260040160006040518083038186803b15801561225557600080fd5b60006124f0821515600461132a565b826124fd575060006106cf565b670de0b6b3a7640000838102906125209085838161251757fe5b0414600561132a565b82818161252957fe5b049150506106cf565b60006125787f00000000000000000000000000000000000000000000000000000000000000006001600160a01b031685602001516001600160a01b03161461013561132a565b7f00000000000000000000000000000000000000000000000000000000000000006001600160a01b031684602001516001600160a01b031614156107825760006125f9847f0000000000000000000000000000000000000000000000000000000000000000815181106125e757fe5b602002602001015186606001516112fe565b9050600061262d82867f00000000000000000000000000000000000000000000000000000000000000008151811061210b57fe5b9050600061266e867f00000000000000000000000000000000000000000000000000000000000000008151811061266057fe5b602002602001015183611895565b9050846020015161268184836000611cfe565b101580156124175750846040015161241484836000611cfe565b60006126e17f00000000000000000000000000000000000000000000000000000000000000006001600160a01b031685602001516001600160a01b03161461013561132a565b7f00000000000000000000000000000000000000000000000000000000000000006001600160a01b031684602001516001600160a01b03161415610782576000612750847f0000000000000000000000000000000000000000000000000000000000000000815181106125e757fe5b9050600061278482867f00000000000000000000000000000000000000000000000000000000000000008151811061210b57fe5b905060006127b7867f00000000000000000000000000000000000000000000000000000000000000008151811061266057fe5b905084602001516127ca82856000611cfe565b1015801561218b5750846040015161218882856000611cfe565b60006127f3821515600461132a565b82612800575060006106cf565b670de0b6b3a76400008381029061281a9085838161251757fe5b82600182038161282657fe5b046001019150506106cf565b6000612841848411158361132a565b5050900390565b4690565b600073ba1ba1ba1ba1ba1ba1ba1ba1ba1ba1ba1ba1ba1b61286b610d0b565b6001600160a01b031614158015612886575061288683612bac565b156128ae57612893610d0b565b6001600160a01b0316336001600160a01b03161490506106cf565b6128b6611d87565b6001600160a01b0316639be2a8848484306040518463ffffffff1660e01b81526004016128e593929190613412565b60206040518083038186803b1580156128fd57600080fd5b505afa158015612911573d6000803e3d6000fd5b505050506040513d601f19601f820116820180604052508101906110ef9190612e53565b64e8d4a5100090565b67016345785d8a000090565b60008180602001905181019061078291906131ae565b6060600061296e83856124e1565b9050845167ffffffffffffffff8111801561298857600080fd5b506040519080825280602002602001820160405280156129b2578160200160208202803683370190505b50915060005b8551811015612a06576129e7828783815181106129d157fe5b6020026020010151611fda90919063ffffffff16565b8382815181106129f357fe5b60209081029190910101526001016129b8565b50509392505050565b612a266001600160a01b038316151561019b61132a565b612a3282600083611afa565b6001600160a01b038216600090815260208190526040902054612a5890826101b2612832565b6001600160a01b038316600090815260208190526040902055600254612a7e9082612bde565b6002556040516000906001600160a01b038416907fddf252ad1be2c89b69c2b068fc378daa952ba7f163c4a11628f55a4df523b3ef90612abf9085906133cd565b60405180910390a35050565b6000612ada821515600461132a565b818381612ae357fe5b049392505050565b6000612afa821515600461132a565b82612b07575060006106cf565b816001840381612b1357fe5b0460010190506106cf565b612b2a60008383611afa565b600254612b379082611895565b6002556001600160a01b038216600090815260208190526040902054612b5d9082611895565b6001600160a01b0383166000818152602081905260408082209390935591519091907fddf252ad1be2c89b69c2b068fc378daa952ba7f163c4a11628f55a4df523b3ef90612abf9085906133cd565b6000612bbe631c74c91760e11b610c93565b8214806106cf5750612bd66350dd6ed960e01b610c93565b909114919050565b600061078283836001612832565b60405180606001604052806000815260200160008152602001600081525090565b60405180608001604052806060815260200160608152602001606081526020016000151581525090565b80356106cf816135aa565b600082601f830112612c52578081fd5b813567ffffffffffffffff811115612c68578182fd5b6020808202612c7882820161352f565b83815293508184018583018287018401881015612c9457600080fd5b600092505b84831015612cb7578035825260019290920191908301908301612c99565b505050505092915050565b600082601f830112612cd2578081fd5b8135612ce5612ce082613556565b61352f565b9150808252836020828501011115612cfc57600080fd5b8060208401602084013760009082016020015292915050565b8035600281106106cf57600080fd5b600060208284031215612d35578081fd5b8135610782816135aa565b60008060408385031215612d52578081fd5b8235612d5d816135aa565b91506020830135612d6d816135aa565b809150509250929050565b600080600060608486031215612d8c578081fd5b8335612d97816135aa565b92506020840135612da7816135aa565b929592945050506040919091013590565b600080600080600080600060e0888a031215612dd2578283fd5b8735612ddd816135aa565b96506020880135612ded816135aa565b955060408801359450606088013593506080880135612e0b816135bf565b9699959850939692959460a0840135945060c09093013592915050565b60008060408385031215612e3a578182fd5b8235612e45816135aa565b946020939093013593505050565b600060208284031215612e64578081fd5b81518015158114610782578182fd5b600080600080600080600060e0888a031215612e8d578081fd5b873596506020880135612e9f816135aa565b95506040880135612eaf816135aa565b9450606088013567ffffffffffffffff80821115612ecb578283fd5b612ed78b838c01612c42565b955060808a0135945060a08a0135935060c08a0135915080821115612efa578283fd5b50612f078a828b01612cc2565b91505092959891949750929550565b600060208284031215612f27578081fd5b81356001600160e01b031981168114610782578182fd5b600060208284031215612f4f578081fd5b8151610782816135aa565b60008060408385031215612f6c578182fd5b8235612f77816135aa565b9150602083013567ffffffffffffffff811115612f92578182fd5b612f9e85828601612cc2565b9150509250929050565b600060208284031215612fb9578081fd5b815167ffffffffffffffff811115612fcf578182fd5b8201601f81018413612fdf578182fd5b8051612fed612ce082613556565b818152856020838501011115613001578384fd5b61301282602083016020860161357a565b95945050505050565b60008060008060808587031215613030578182fd5b843567ffffffffffffffff80821115613047578384fd5b818701915061012080838a03121561305d578485fd5b6130668161352f565b90506130728984612d15565b81526130818960208501612c37565b60208201526130938960408501612c37565b6040820152606083013560608201526080830135608082015260a083013560a08201526130c38960c08501612c37565b60c08201526130d58960e08501612c37565b60e082015261010080840135838111156130ed578687fd5b6130f98b828701612cc2565b828401525050809650506020870135915080821115613116578384fd5b5061312387828801612c42565b949794965050505060408301359260600135919050565b60006020828403121561314b578081fd5b5035919050565b60008060008060808587031215613167578182fd5b8451935060208501519250604085015191506060850151613187816135aa565b939692955090935050565b6000602082840312156131a3578081fd5b8151610782816135bf565b600080604083850312156131c0578182fd5b82516131cb816135bf565b6020939093015192949293505050565b6000815180845260208085019450808401835b8381101561320a578151875295820195908201906001016131ee565b509495945050505050565b15159052565b6000815180845261323381602086016020860161357a565b601f01601f19169290920160200192915050565b8051608080845281519084018190526000916020919082019060a0860190845b8181101561328c5783516001600160a01b031683529284019291840191600101613267565b5050828501519150858103838701526132a581836131db565b92505050604083015184820360408601526132c0828261321b565b91505060608301516132d56060860182613215565b509392505050565b9182526001600160e01b031916602082015260240190565b6000828483379101908152919050565b61190160f01b81526002810192909252602282015260420190565b6001600160a01b0391909116815260200190565b600060018060a01b03808816835260a0602084015261335660a084018861321b565b6040840196909652939093166060820152608001525092915050565b60006020825261078260208301846131db565b60006040825261339860408301856131db565b828103602084015261301281856131db565b901515815260200190565b92151583526020830191909152604082015260600190565b90815260200190565b8481526001600160a01b0384811660208301528316604082015260806060820181905260009061340890830184613247565b9695505050505050565b9283526001600160a01b03918216602084015216604082015260600190565b9586526001600160a01b0394851660208701529290931660408501526060840152608083019190915260a082015260c00190565b9485526020850193909352604084019190915260608301526001600160a01b0316608082015260a00190565b600083825260406020830152611d1e604083018461321b565b9182526001600160a01b0316602082015260400190565b93845260ff9290921660208401526040830152606082015260800190565b600060208252610782602083018461321b565b600083825260406020830152611d1e60408301846131db565b9283526020830191909152604082015260600190565b60ff91909116815260200190565b60405181810167ffffffffffffffff8111828210171561354e57600080fd5b604052919050565b600067ffffffffffffffff82111561356c578081fd5b50601f01601f191660200190565b60005b8381101561359557818101518382015260200161357d565b838111156135a4576000848401525b50505050565b6001600160a01b03811681146107d957600080fd5b60ff811681146107d957600080fdfea26469706673582212202cf9c6813e4540a20c801a25e6fe426900c1719a70031f47e0d4e06a0adc4aac64736f6c63430007010033",
  "linkReferences": {},
  "deployedLinkReferences": {}
}