{
  "_format": "hh-sol-artifact-1",
  "contractName": "PrimaryIssuePool",
  "sourceName": "contracts/PrimaryIssuePool.sol",
  "abi": [
    {
      "inputs": [
        {
          "internalType": "contract IVault",
          "name": "vault",
          "type": "address"
        },
        {
          "components": [
            {
              "internalType": "string",
              "name": "name",
              "type": "string"
            },
            {
              "internalType": "string",
              "name": "symbol",
              "type": "string"
            },
            {
              "internalType": "address",
              "name": "security",
              "type": "address"
            },
            {
              "internalType": "address",
              "name": "currency",
              "type": "address"
            },
            {
              "internalType": "uint256",
              "name": "minimumPrice",
              "type": "uint256"
            },
            {
              "internalType": "uint256",
              "name": "basePrice",
              "type": "uint256"
            },
            {
              "internalType": "uint256",
              "name": "maxAmountsIn",
              "type": "uint256"
            },
            {
              "internalType": "uint256",
              "name": "swapFeePercentage",
              "type": "uint256"
            },
            {
              "internalType": "uint256",
              "name": "cutOffTime",
              "type": "uint256"
            }
          ],
          "internalType": "struct IPrimaryIssuePoolFactory.FactoryPoolParams",
          "name": "_factoryPoolParams",
          "type": "tuple"
        },
        {
          "internalType": "uint256",
          "name": "pauseWindowDuration",
          "type": "uint256"
        },
        {
          "internalType": "uint256",
          "name": "bufferPeriodDuration",
          "type": "uint256"
        },
        {
          "internalType": "address",
          "name": "owner",
          "type": "address"
        }
      ],
      "stateMutability": "nonpayable",
      "type": "constructor"
    },
    {
      "anonymous": false,
      "inputs": [
        {
          "indexed": true,
          "internalType": "address",
          "name": "owner",
          "type": "address"
        },
        {
          "indexed": true,
          "internalType": "address",
          "name": "spender",
          "type": "address"
        },
        {
          "indexed": false,
          "internalType": "uint256",
          "name": "value",
          "type": "uint256"
        }
      ],
      "name": "Approval",
      "type": "event"
    },
    {
      "anonymous": false,
      "inputs": [
        {
          "indexed": true,
          "internalType": "address",
          "name": "security",
          "type": "address"
        },
        {
          "indexed": false,
          "internalType": "uint256",
          "name": "openingPrice",
          "type": "uint256"
        },
        {
          "indexed": false,
          "internalType": "uint256",
          "name": "maxPrice",
          "type": "uint256"
        },
        {
          "indexed": false,
          "internalType": "uint256",
          "name": "securityOffered",
          "type": "uint256"
        },
        {
          "indexed": false,
          "internalType": "uint256",
          "name": "cutoffTime",
          "type": "uint256"
        }
      ],
      "name": "OpenIssue",
      "type": "event"
    },
    {
      "anonymous": false,
      "inputs": [
        {
          "indexed": false,
          "internalType": "bool",
          "name": "paused",
          "type": "bool"
        }
      ],
      "name": "PausedStateChanged",
      "type": "event"
    },
    {
      "anonymous": false,
      "inputs": [
        {
          "indexed": false,
          "internalType": "bool",
          "name": "enabled",
          "type": "bool"
        }
      ],
      "name": "RecoveryModeStateChanged",
      "type": "event"
    },
    {
      "anonymous": false,
      "inputs": [
        {
          "indexed": true,
          "internalType": "address",
          "name": "security",
          "type": "address"
        },
        {
          "indexed": false,
          "internalType": "address",
          "name": "assetIn",
          "type": "address"
        },
        {
          "indexed": false,
          "internalType": "string",
          "name": "assetName",
          "type": "string"
        },
        {
          "indexed": false,
          "internalType": "uint256",
          "name": "amount",
          "type": "uint256"
        },
        {
          "indexed": false,
          "internalType": "address",
          "name": "investor",
          "type": "address"
        },
        {
          "indexed": false,
          "internalType": "uint256",
          "name": "price",
          "type": "uint256"
        }
      ],
      "name": "Subscription",
      "type": "event"
    },
    {
      "anonymous": false,
      "inputs": [
        {
          "indexed": false,
          "internalType": "uint256",
          "name": "swapFeePercentage",
          "type": "uint256"
        }
      ],
      "name": "SwapFeePercentageChanged",
      "type": "event"
    },
    {
      "anonymous": false,
      "inputs": [
        {
          "indexed": true,
          "internalType": "address",
          "name": "from",
          "type": "address"
        },
        {
          "indexed": true,
          "internalType": "address",
          "name": "to",
          "type": "address"
        },
        {
          "indexed": false,
          "internalType": "uint256",
          "name": "value",
          "type": "uint256"
        }
      ],
      "name": "Transfer",
      "type": "event"
    },
    {
      "inputs": [],
      "name": "DOMAIN_SEPARATOR",
      "outputs": [
        {
          "internalType": "bytes32",
          "name": "",
          "type": "bytes32"
        }
      ],
      "stateMutability": "view",
      "type": "function"
    },
    {
      "inputs": [
        {
          "internalType": "address",
          "name": "owner",
          "type": "address"
        },
        {
          "internalType": "address",
          "name": "spender",
          "type": "address"
        }
      ],
      "name": "allowance",
      "outputs": [
        {
          "internalType": "uint256",
          "name": "",
          "type": "uint256"
        }
      ],
      "stateMutability": "view",
      "type": "function"
    },
    {
      "inputs": [
        {
          "internalType": "address",
          "name": "spender",
          "type": "address"
        },
        {
          "internalType": "uint256",
          "name": "amount",
          "type": "uint256"
        }
      ],
      "name": "approve",
      "outputs": [
        {
          "internalType": "bool",
          "name": "",
          "type": "bool"
        }
      ],
      "stateMutability": "nonpayable",
      "type": "function"
    },
    {
      "inputs": [
        {
          "internalType": "address",
          "name": "account",
          "type": "address"
        }
      ],
      "name": "balanceOf",
      "outputs": [
        {
          "internalType": "uint256",
          "name": "",
          "type": "uint256"
        }
      ],
      "stateMutability": "view",
      "type": "function"
    },
    {
      "inputs": [],
      "name": "decimals",
      "outputs": [
        {
          "internalType": "uint8",
          "name": "",
          "type": "uint8"
        }
      ],
      "stateMutability": "view",
      "type": "function"
    },
    {
      "inputs": [
        {
          "internalType": "address",
          "name": "spender",
          "type": "address"
        },
        {
          "internalType": "uint256",
          "name": "amount",
          "type": "uint256"
        }
      ],
      "name": "decreaseAllowance",
      "outputs": [
        {
          "internalType": "bool",
          "name": "",
          "type": "bool"
        }
      ],
      "stateMutability": "nonpayable",
      "type": "function"
    },
    {
      "inputs": [],
      "name": "disableRecoveryMode",
      "outputs": [],
      "stateMutability": "nonpayable",
      "type": "function"
    },
    {
      "inputs": [],
      "name": "enableRecoveryMode",
      "outputs": [],
      "stateMutability": "nonpayable",
      "type": "function"
    },
    {
      "inputs": [],
      "name": "exit",
      "outputs": [],
      "stateMutability": "nonpayable",
      "type": "function"
    },
    {
      "inputs": [
        {
          "internalType": "bytes4",
          "name": "selector",
          "type": "bytes4"
        }
      ],
      "name": "getActionId",
      "outputs": [
        {
          "internalType": "bytes32",
          "name": "",
          "type": "bytes32"
        }
      ],
      "stateMutability": "view",
      "type": "function"
    },
    {
      "inputs": [],
      "name": "getAuthorizer",
      "outputs": [
        {
          "internalType": "contract IAuthorizer",
          "name": "",
          "type": "address"
        }
      ],
      "stateMutability": "view",
      "type": "function"
    },
    {
      "inputs": [],
      "name": "getBptIndex",
      "outputs": [
        {
          "internalType": "uint256",
          "name": "",
          "type": "uint256"
        }
      ],
      "stateMutability": "view",
      "type": "function"
    },
    {
      "inputs": [],
      "name": "getCurrency",
      "outputs": [
        {
          "internalType": "contract IERC20",
          "name": "",
          "type": "address"
        }
      ],
      "stateMutability": "view",
      "type": "function"
    },
    {
      "inputs": [],
      "name": "getCurrencyIndex",
      "outputs": [
        {
          "internalType": "uint256",
          "name": "",
          "type": "uint256"
        }
      ],
      "stateMutability": "view",
      "type": "function"
    },
    {
      "inputs": [],
      "name": "getDomainSeparator",
      "outputs": [
        {
          "internalType": "bytes32",
          "name": "",
          "type": "bytes32"
        }
      ],
      "stateMutability": "view",
      "type": "function"
    },
    {
      "inputs": [],
      "name": "getIssueCutoffTime",
      "outputs": [
        {
          "internalType": "uint256",
          "name": "",
          "type": "uint256"
        }
      ],
      "stateMutability": "view",
      "type": "function"
    },
    {
      "inputs": [],
      "name": "getMaximumPrice",
      "outputs": [
        {
          "internalType": "uint256",
          "name": "",
          "type": "uint256"
        }
      ],
      "stateMutability": "view",
      "type": "function"
    },
    {
      "inputs": [],
      "name": "getMinimumPrice",
      "outputs": [
        {
          "internalType": "uint256",
          "name": "",
          "type": "uint256"
        }
      ],
      "stateMutability": "view",
      "type": "function"
    },
    {
      "inputs": [
        {
          "internalType": "address",
          "name": "account",
          "type": "address"
        }
      ],
      "name": "getNextNonce",
      "outputs": [
        {
          "internalType": "uint256",
          "name": "",
          "type": "uint256"
        }
      ],
      "stateMutability": "view",
      "type": "function"
    },
    {
      "inputs": [],
      "name": "getOwner",
      "outputs": [
        {
          "internalType": "address",
          "name": "",
          "type": "address"
        }
      ],
      "stateMutability": "view",
      "type": "function"
    },
    {
      "inputs": [],
      "name": "getPausedState",
      "outputs": [
        {
          "internalType": "bool",
          "name": "paused",
          "type": "bool"
        },
        {
          "internalType": "uint256",
          "name": "pauseWindowEndTime",
          "type": "uint256"
        },
        {
          "internalType": "uint256",
          "name": "bufferPeriodEndTime",
          "type": "uint256"
        }
      ],
      "stateMutability": "view",
      "type": "function"
    },
    {
      "inputs": [],
      "name": "getPoolId",
      "outputs": [
        {
          "internalType": "bytes32",
          "name": "",
          "type": "bytes32"
        }
      ],
      "stateMutability": "view",
      "type": "function"
    },
    {
      "inputs": [],
      "name": "getProtocolFeesCollector",
      "outputs": [
        {
          "internalType": "contract IProtocolFeesCollector",
          "name": "",
          "type": "address"
        }
      ],
      "stateMutability": "view",
      "type": "function"
    },
    {
      "inputs": [],
      "name": "getScalingFactors",
      "outputs": [
        {
          "internalType": "uint256[]",
          "name": "",
          "type": "uint256[]"
        }
      ],
      "stateMutability": "view",
      "type": "function"
    },
    {
      "inputs": [],
      "name": "getSecurity",
      "outputs": [
        {
          "internalType": "contract IERC20",
          "name": "",
          "type": "address"
        }
      ],
      "stateMutability": "view",
      "type": "function"
    },
    {
      "inputs": [],
      "name": "getSecurityIndex",
      "outputs": [
        {
          "internalType": "uint256",
          "name": "",
          "type": "uint256"
        }
      ],
      "stateMutability": "view",
      "type": "function"
    },
    {
      "inputs": [],
      "name": "getSecurityOffered",
      "outputs": [
        {
          "internalType": "uint256",
          "name": "",
          "type": "uint256"
        }
      ],
      "stateMutability": "view",
      "type": "function"
    },
    {
      "inputs": [],
      "name": "getSwapFeePercentage",
      "outputs": [
        {
          "internalType": "uint256",
          "name": "",
          "type": "uint256"
        }
      ],
      "stateMutability": "view",
      "type": "function"
    },
    {
      "inputs": [],
      "name": "getVault",
      "outputs": [
        {
          "internalType": "contract IVault",
          "name": "",
          "type": "address"
        }
      ],
      "stateMutability": "view",
      "type": "function"
    },
    {
      "inputs": [],
      "name": "inRecoveryMode",
      "outputs": [
        {
          "internalType": "bool",
          "name": "",
          "type": "bool"
        }
      ],
      "stateMutability": "view",
      "type": "function"
    },
    {
      "inputs": [
        {
          "internalType": "address",
          "name": "spender",
          "type": "address"
        },
        {
          "internalType": "uint256",
          "name": "addedValue",
          "type": "uint256"
        }
      ],
      "name": "increaseAllowance",
      "outputs": [
        {
          "internalType": "bool",
          "name": "",
          "type": "bool"
        }
      ],
      "stateMutability": "nonpayable",
      "type": "function"
    },
    {
      "inputs": [],
      "name": "initialize",
      "outputs": [],
      "stateMutability": "nonpayable",
      "type": "function"
    },
    {
      "inputs": [],
      "name": "name",
      "outputs": [
        {
          "internalType": "string",
          "name": "",
          "type": "string"
        }
      ],
      "stateMutability": "view",
      "type": "function"
    },
    {
      "inputs": [
        {
          "internalType": "address",
          "name": "owner",
          "type": "address"
        }
      ],
      "name": "nonces",
      "outputs": [
        {
          "internalType": "uint256",
          "name": "",
          "type": "uint256"
        }
      ],
      "stateMutability": "view",
      "type": "function"
    },
    {
      "inputs": [
        {
          "internalType": "bytes32",
          "name": "poolId",
          "type": "bytes32"
        },
        {
          "internalType": "address",
          "name": "sender",
          "type": "address"
        },
        {
          "internalType": "address",
          "name": "recipient",
          "type": "address"
        },
        {
          "internalType": "uint256[]",
          "name": "balances",
          "type": "uint256[]"
        },
        {
          "internalType": "uint256",
          "name": "lastChangeBlock",
          "type": "uint256"
        },
        {
          "internalType": "uint256",
          "name": "protocolSwapFeePercentage",
          "type": "uint256"
        },
        {
          "internalType": "bytes",
          "name": "userData",
          "type": "bytes"
        }
      ],
      "name": "onExitPool",
      "outputs": [
        {
          "internalType": "uint256[]",
          "name": "",
          "type": "uint256[]"
        },
        {
          "internalType": "uint256[]",
          "name": "",
          "type": "uint256[]"
        }
      ],
      "stateMutability": "nonpayable",
      "type": "function"
    },
    {
      "inputs": [
        {
          "internalType": "bytes32",
          "name": "poolId",
          "type": "bytes32"
        },
        {
          "internalType": "address",
          "name": "sender",
          "type": "address"
        },
        {
          "internalType": "address",
          "name": "recipient",
          "type": "address"
        },
        {
          "internalType": "uint256[]",
          "name": "balances",
          "type": "uint256[]"
        },
        {
          "internalType": "uint256",
          "name": "lastChangeBlock",
          "type": "uint256"
        },
        {
          "internalType": "uint256",
          "name": "protocolSwapFeePercentage",
          "type": "uint256"
        },
        {
          "internalType": "bytes",
          "name": "userData",
          "type": "bytes"
        }
      ],
      "name": "onJoinPool",
      "outputs": [
        {
          "internalType": "uint256[]",
          "name": "",
          "type": "uint256[]"
        },
        {
          "internalType": "uint256[]",
          "name": "",
          "type": "uint256[]"
        }
      ],
      "stateMutability": "nonpayable",
      "type": "function"
    },
    {
      "inputs": [
        {
          "components": [
            {
              "internalType": "enum IVault.SwapKind",
              "name": "kind",
              "type": "uint8"
            },
            {
              "internalType": "contract IERC20",
              "name": "tokenIn",
              "type": "address"
            },
            {
              "internalType": "contract IERC20",
              "name": "tokenOut",
              "type": "address"
            },
            {
              "internalType": "uint256",
              "name": "amount",
              "type": "uint256"
            },
            {
              "internalType": "bytes32",
              "name": "poolId",
              "type": "bytes32"
            },
            {
              "internalType": "uint256",
              "name": "lastChangeBlock",
              "type": "uint256"
            },
            {
              "internalType": "address",
              "name": "from",
              "type": "address"
            },
            {
              "internalType": "address",
              "name": "to",
              "type": "address"
            },
            {
              "internalType": "bytes",
              "name": "userData",
              "type": "bytes"
            }
          ],
          "internalType": "struct IPoolSwapStructs.SwapRequest",
          "name": "request",
          "type": "tuple"
        },
        {
          "internalType": "uint256[]",
          "name": "balances",
          "type": "uint256[]"
        },
        {
          "internalType": "uint256",
          "name": "indexIn",
          "type": "uint256"
        },
        {
          "internalType": "uint256",
          "name": "indexOut",
          "type": "uint256"
        }
      ],
      "name": "onSwap",
      "outputs": [
        {
          "internalType": "uint256",
          "name": "",
          "type": "uint256"
        }
      ],
      "stateMutability": "nonpayable",
      "type": "function"
    },
    {
      "inputs": [],
      "name": "pause",
      "outputs": [],
      "stateMutability": "nonpayable",
      "type": "function"
    },
    {
      "inputs": [
        {
          "internalType": "address",
          "name": "owner",
          "type": "address"
        },
        {
          "internalType": "address",
          "name": "spender",
          "type": "address"
        },
        {
          "internalType": "uint256",
          "name": "value",
          "type": "uint256"
        },
        {
          "internalType": "uint256",
          "name": "deadline",
          "type": "uint256"
        },
        {
          "internalType": "uint8",
          "name": "v",
          "type": "uint8"
        },
        {
          "internalType": "bytes32",
          "name": "r",
          "type": "bytes32"
        },
        {
          "internalType": "bytes32",
          "name": "s",
          "type": "bytes32"
        }
      ],
      "name": "permit",
      "outputs": [],
      "stateMutability": "nonpayable",
      "type": "function"
    },
    {
      "inputs": [
        {
          "internalType": "bytes32",
          "name": "poolId",
          "type": "bytes32"
        },
        {
          "internalType": "address",
          "name": "sender",
          "type": "address"
        },
        {
          "internalType": "address",
          "name": "recipient",
          "type": "address"
        },
        {
          "internalType": "uint256[]",
          "name": "balances",
          "type": "uint256[]"
        },
        {
          "internalType": "uint256",
          "name": "lastChangeBlock",
          "type": "uint256"
        },
        {
          "internalType": "uint256",
          "name": "protocolSwapFeePercentage",
          "type": "uint256"
        },
        {
          "internalType": "bytes",
          "name": "userData",
          "type": "bytes"
        }
      ],
      "name": "queryExit",
      "outputs": [
        {
          "internalType": "uint256",
          "name": "bptIn",
          "type": "uint256"
        },
        {
          "internalType": "uint256[]",
          "name": "amountsOut",
          "type": "uint256[]"
        }
      ],
      "stateMutability": "view",
      "type": "function"
    },
    {
      "inputs": [
        {
          "internalType": "bytes32",
          "name": "poolId",
          "type": "bytes32"
        },
        {
          "internalType": "address",
          "name": "sender",
          "type": "address"
        },
        {
          "internalType": "address",
          "name": "recipient",
          "type": "address"
        },
        {
          "internalType": "uint256[]",
          "name": "balances",
          "type": "uint256[]"
        },
        {
          "internalType": "uint256",
          "name": "lastChangeBlock",
          "type": "uint256"
        },
        {
          "internalType": "uint256",
          "name": "protocolSwapFeePercentage",
          "type": "uint256"
        },
        {
          "internalType": "bytes",
          "name": "userData",
          "type": "bytes"
        }
      ],
      "name": "queryJoin",
      "outputs": [
        {
          "internalType": "uint256",
          "name": "bptOut",
          "type": "uint256"
        },
        {
          "internalType": "uint256[]",
          "name": "amountsIn",
          "type": "uint256[]"
        }
      ],
      "stateMutability": "view",
      "type": "function"
    },
    {
      "inputs": [
        {
          "internalType": "contract IERC20",
          "name": "token",
          "type": "address"
        },
        {
          "internalType": "bytes",
          "name": "poolConfig",
          "type": "bytes"
        }
      ],
      "name": "setAssetManagerPoolConfig",
      "outputs": [],
      "stateMutability": "nonpayable",
      "type": "function"
    },
    {
      "inputs": [
        {
          "internalType": "uint256",
          "name": "swapFeePercentage",
          "type": "uint256"
        }
      ],
      "name": "setSwapFeePercentage",
      "outputs": [],
      "stateMutability": "nonpayable",
      "type": "function"
    },
    {
      "inputs": [],
      "name": "symbol",
      "outputs": [
        {
          "internalType": "string",
          "name": "",
          "type": "string"
        }
      ],
      "stateMutability": "view",
      "type": "function"
    },
    {
      "inputs": [],
      "name": "totalSupply",
      "outputs": [
        {
          "internalType": "uint256",
          "name": "",
          "type": "uint256"
        }
      ],
      "stateMutability": "view",
      "type": "function"
    },
    {
      "inputs": [
        {
          "internalType": "address",
          "name": "recipient",
          "type": "address"
        },
        {
          "internalType": "uint256",
          "name": "amount",
          "type": "uint256"
        }
      ],
      "name": "transfer",
      "outputs": [
        {
          "internalType": "bool",
          "name": "",
          "type": "bool"
        }
      ],
      "stateMutability": "nonpayable",
      "type": "function"
    },
    {
      "inputs": [
        {
          "internalType": "address",
          "name": "sender",
          "type": "address"
        },
        {
          "internalType": "address",
          "name": "recipient",
          "type": "address"
        },
        {
          "internalType": "uint256",
          "name": "amount",
          "type": "uint256"
        }
      ],
      "name": "transferFrom",
      "outputs": [
        {
          "internalType": "bool",
          "name": "",
          "type": "bool"
        }
      ],
      "stateMutability": "nonpayable",
      "type": "function"
    },
    {
      "inputs": [],
      "name": "unpause",
      "outputs": [],
      "stateMutability": "nonpayable",
      "type": "function"
    }
  ],
  "bytecode": "0x6102a06040523480156200001257600080fd5b506040516200505238038062005052833981016040819052620000359162000b6f565b846000856000015186602001516200005d8860400151896060015130620004de60201b60201c565b604080516003808252608082019092529060208201606080368337019050508960e00151898989828289898d85336001600160a01b031660001b8480604051806040016040528060018152602001603160f81b81525087878160039080519060200190620000cd929190620009ff565b508051620000e3906004906020840190620009ff565b50506005805460ff19166012179055508151602092830120608052805191012060a052507f8b73c3c69bb8fe3d512ecc4cf759cc79239f7b179b0ffacaa9a75d522b39400f60c05260e0526001600160601b0319606091821b81166101005291901b1661012052506200016190506276a700831115610194620005ad565b6200017562278d00821115610195620005ad565b429091016101408190520161016052855162000197906002111560c8620005ad565b620001b1620001a5620005c2565b8751111560c9620005ad565b620001c786620005c760201b620015061760201c565b620001d284620005d3565b6040516309b2760f60e01b81526000906001600160a01b038c16906309b2760f9062000203908d9060040162000d66565b602060405180830381600087803b1580156200021e57600080fd5b505af115801562000233573d6000803e3d6000fd5b505050506040513d601f19601f8201168201806040525081019062000259919062000b37565b604051633354e3e960e11b81529091506001600160a01b038c16906366a9c7d2906200028e9084908b908b9060040162000cca565b600060405180830381600087803b158015620002a957600080fd5b505af1158015620002be573d6000803e3d6000fd5b505050508061018081815250508a6001600160a01b031663d2946c2b6040518163ffffffff1660e01b815260040160206040518083038186803b1580156200030557600080fd5b505afa1580156200031a573d6000803e3d6000fd5b505050506040513d601f19601f8201168201806040525081019062000340919062000b50565b60601b6001600160601b0319166101a05250508c5180518e9a50600999506200037a9850899750602090910195509350620009ff92505050565b506020828101518051620003959260018501920190620009ff565b5060408201516002820180546001600160a01b039283166001600160a01b03199182161790915560608085015160038501805491851691909316179091556080840151600484015560a0840151600584015560c0840151600684015560e0840151600784015561010090930151600890920191909155600b546001600160601b031981841b81166101c052600c549384901b166101e05260009283928392620004449290821691163062000667565b610240839052610260829052610280819052600b54929550909350915062000475906001600160a01b03166200075d565b61020052600c5462000490906001600160a01b03166200075d565b610220525050600d5460125550600e54601355600f5460145560115460155542601655601780546001600160a01b0319166001600160a01b03929092169190911790555062000dcd92505050565b606060008080620004f187878762000667565b60408051600380825260808201909252939650919450925060208201606080368337019050509350868484815181106200052757fe5b60200260200101906001600160a01b031690816001600160a01b031681525050858483815181106200055557fe5b60200260200101906001600160a01b031690816001600160a01b031681525050848482815181106200058357fe5b60200260200101906001600160a01b031690816001600160a01b0316815250505050509392505050565b81620005be57620005be8162000831565b5050565b600390565b80620005be8162000846565b620005ec620005e1620008d2565b82101560cb620005ad565b62000605620005fa620008db565b82111560ca620005ad565b620006278160c0603f600854620008e760201b6200151017909392919060201c565b6008556040517fa9ba3ffe0b6c366b81232caab38605a0699ad5398d6cce76f91ee809e322dafc906200065c90839062000d7b565b60405180910390a150565b6000806000846001600160a01b0316866001600160a01b03161015620006f057836001600160a01b0316856001600160a01b03161015620006b357506000915060019050600262000754565b836001600160a01b0316866001600160a01b03161015620006df57506000915060029050600162000754565b506001915060029050600062000754565b846001600160a01b0316846001600160a01b031610156200071c57506002915060019050600062000754565b856001600160a01b0316846001600160a01b031610156200074857506002915060009050600162000754565b50600191506000905060025b93509350939050565b60006001600160a01b038216301415620007815750670de0b6b3a76400006200082c565b6000826001600160a01b031663313ce5676040518163ffffffff1660e01b815260040160206040518083038186803b158015620007bd57600080fd5b505afa158015620007d2573d6000803e3d6000fd5b505050506040513d601f19601f82011682018060405250810190620007f8919062000ca7565b60ff1690506000620008176012836200090c60201b620015331760201c565b905080600a0a670de0b6b3a764000002925050505b919050565b62000843816210905360ea1b62000929565b50565b600281511015620008575762000843565b6000816000815181106200086757fe5b602002602001015190506000600190505b8251811015620008cd5760008382815181106200089157fe5b60200260200101519050620008c2816001600160a01b0316846001600160a01b0316106065620005ad60201b60201c565b915060010162000878565b505050565b64e8d4a5100090565b67016345785d8a000090565b6000620008f68484846200098a565b506001901b60001901811b1992909216911b1790565b60006200091e838311156001620005ad565b508082035b92915050565b62461bcd60e51b600090815260206004526007602452600a808404818106603090810160081b958390069590950190829004918206850160101b01602363ffffff0060e086901c160160181b0190930160c81b60445260e882901c90606490fd5b6200099b61010083106064620005ad565b620009d460018210158015620009cc5750620009c860ff8461010003620009e560201b620015491760201c565b8211155b6064620005ad565b620008cd83821c156101b4620005ad565b6000818310620009f65781620009f8565b825b9392505050565b828054600181600116156101000203166002900490600052602060002090601f016020900481019282601f1062000a4257805160ff191683800117855562000a72565b8280016001018555821562000a72579182015b8281111562000a7257825182559160200191906001019062000a55565b5062000a8092915062000a84565b5090565b5b8082111562000a80576000815560010162000a85565b8051620009238162000db7565b600082601f83011262000ab9578081fd5b81516001600160401b0381111562000acf578182fd5b602062000ae5601f8301601f1916820162000d84565b9250818352848183860101111562000afc57600080fd5b60005b8281101562000b1c57848101820151848201830152810162000aff565b8281111562000b2e5760008284860101525b50505092915050565b60006020828403121562000b49578081fd5b5051919050565b60006020828403121562000b62578081fd5b8151620009f88162000db7565b600080600080600060a0868803121562000b87578081fd5b855162000b948162000db7565b60208701519095506001600160401b038082111562000bb1578283fd5b818801915061012080838b03121562000bc8578384fd5b62000bd38162000d84565b905082518281111562000be4578485fd5b62000bf28b82860162000aa8565b82525060208301518281111562000c07578485fd5b62000c158b82860162000aa8565b60208301525062000c2a8a6040850162000a9b565b604082015262000c3e8a6060850162000a9b565b60608201526080830151608082015260a083015160a082015260c083015160c082015260e083015160e082015261010091508183015182820152809650505050604086015192506060860151915062000c9b876080880162000a9b565b90509295509295909350565b60006020828403121562000cb9578081fd5b815160ff81168114620009f8578182fd5b60006060820185835260206060818501528186518084526080860191508288019350845b8181101562000d165762000d03855162000dab565b8352938301939183019160010162000cee565b505084810360408601528551808252908201925081860190845b8181101562000d585762000d45835162000dab565b8552938301939183019160010162000d30565b509298975050505050505050565b602081016003831062000d7557fe5b91905290565b90815260200190565b6040518181016001600160401b038111828210171562000da357600080fd5b604052919050565b6001600160a01b031690565b6001600160a01b03811681146200084357600080fd5b60805160a05160c05160e0516101005160601c6101205160601c6101405161016051610180516101a05160601c6101c05160601c6101e05160601c61020051610220516102405161026051610280516140c962000f8960003980610cca5280610e5252806113c3528061164352806121d05280612f655280612fec525080610c8352806110085280611389528061160252806124df528061251a52806125aa52806127da52806128745280612af05280612b485280612b885280612c755280612cdb525080610a485280610c3b528061134152806115c1528061249a528061255c528061280d528061284852806128a75280612aa45280612b1c5280612caf5280612d075280612d3a5250505080610a0952806116dc528061178752806124155280612456528061294f52806129705280612a1f5280612a605250806108c95280610dcb528061168c528061173e5280612615528061266052806126815280612755528061279652806129045280612bf05280612c3152508061106c52508061091c525080611885525080611861525080610f24525080610f00525080610e8a52508061225052508061229252508061227152506140c96000f3fe608060405234801561001057600080fd5b50600436106103205760003560e01c806382687a56116101a7578063aaabadc5116100ee578063d5c096c411610097578063e9fad8ee11610071578063e9fad8ee146105d7578063ed24911d146105df578063f1493ee1146105e757610320565b8063d5c096c4146105a9578063dd62ed3e146105bc578063deafd91e146105cf57610320565b8063b7b814fc116100c8578063b7b814fc14610586578063d2946c2b1461058e578063d505accf1461059657610320565b8063aaabadc51461056e578063ac4316cb14610576578063b35056b81461057e57610320565b806390193b7c11610150578063a457c2d71161012a578063a457c2d714610540578063a7488bb714610553578063a9059cbb1461055b57610320565b806390193b7c1461051d57806395c95a4f1461053057806395d89b411461053857610320565b806387ec68171161018157806387ec6817146104fa578063893d20e81461050d5780638d928af81461051557610320565b806382687a56146104d75780638456cb59146104df578063851c1bb3146104e757610320565b8063395093511161026b5780636945c1fd1161021457806374f3b009116101ee57806374f3b0091461049b5780637ecebe00146104bc5780638129fc1c146104cf57610320565b80636945c1fd1461047857806370a082311461048057806372f3824d1461049357610320565b806354a844ba1161024557806354a844ba1461044757806355c676281461044f5780636028bfd41461045757610320565b806339509351146104195780633f4ba83a1461042c57806350dd6ed91461043457610320565b806323b872dd116102cd5780633644e515116102a75780633644e515146103f457806338e9922e146103fc57806338fff2d01461041157610320565b806323b872dd146103b75780632541897f146103ca578063313ce567146103df57610320565b806318160ddd116102fe57806318160ddd146103835780631c0de0511461038b5780631dd746ea146103a257610320565b806301ec954a1461032557806306fdde031461034e578063095ea7b314610363575b600080fd5b610338610333366004613a48565b6105ef565b6040516103459190613e2e565b60405180910390f35b610356610766565b6040516103459190613f79565b61037661037136600461372a565b6107fc565b6040516103459190613e0b565b610338610813565b610393610819565b60405161034593929190613e16565b6103aa610842565b6040516103459190613dd3565b6103766103c536600461367a565b610851565b6103d26108c7565b6040516103459190613d80565b6103e76108eb565b6040516103459190613fc0565b6103386108f4565b61040f61040a366004613b67565b6108fe565b005b61033861091a565b61037661042736600461372a565b61093e565b61040f610979565b61040f610442366004613940565b61098d565b61040f6109ab565b6103386109bd565b61046a610465366004613841565b6109d0565b604051610345929190613f8c565b6103d2610a07565b61033861048e366004613626565b610a2b565b610338610a46565b6104ae6104a9366004613841565b610a6a565b604051610345929190613de6565b6103386104ca366004613626565b610b6d565b61040f610b78565b610338610e50565b61040f610e74565b6103386104f53660046138e4565b610e86565b61046a610508366004613841565b610ed8565b6103d2610efe565b6103d2610f22565b61033861052b366004613626565b610f46565b610338610f61565b610356610f67565b61037661054e36600461372a565b610fc8565b610338611006565b61037661056936600461372a565b61102a565b6103d2611037565b610338611041565b610376611047565b61040f611058565b6103d261106a565b61040f6105a43660046136ba565b61108e565b6104ae6105b7366004613841565b611119565b6103386105ca366004613642565b61123c565b610338611279565b61040f61127f565b6103386114f6565b610338611500565b6000846080015161061c610601610f22565b6001600160a01b0316336001600160a01b03161460cd61155f565b61063161062761091a565b82146101f461155f565b61063961156d565b42610648601654601554611580565b101561065357600080fd5b606061065d611590565b9050610667613498565b604051806060016040528061067a6109bd565b81526012546020820152601354604090910152905060008851600181111561069e57fe5b1415610700576106c588606001518388815181106106b857fe5b602002602001015161167c565b606089015260006106d7898984611688565b90506106f6818488815181106106e957fe5b602002602001015161172e565b945050505061075d565b60018851600181111561070f57fe5b141561075a5761072988606001518387815181106106b857fe5b6060890152600061073b89898461173a565b90506106f68184898151811061074d57fe5b60200260200101516117ce565b50505b50949350505050565b60038054604080516020601f60026000196101006001881615020190951694909404938401819004810282018101909252828152606093909290918301828280156107f25780601f106107c7576101008083540402835291602001916107f2565b820191906000526020600020905b8154815290600101906020018083116107d557829003601f168201915b5050505050905090565b60006108093384846117da565b5060015b92915050565b60025490565b6000806000610826611842565b15925061083161185f565b915061083b611883565b9050909192565b606061084c611590565b905090565b60008061085e853361123c565b9050610882336001600160a01b038716148061087a5750838210155b61019e61155f565b61088d8585856118a7565b336001600160a01b038616148015906108a857506000198114155b156108ba576108ba85338584036117da565b60019150505b9392505050565b7f000000000000000000000000000000000000000000000000000000000000000090565b60055460ff1690565b600061084c6114f6565b610906611987565b61090e61156d565b610917816119cd565b50565b7f000000000000000000000000000000000000000000000000000000000000000090565b3360008181526001602090815260408083206001600160a01b038716845290915281205490916108099185906109749086611a46565b6117da565b610981611987565b61098b6000611a58565b565b610995611987565b61099d61156d565b6109a78282611ae9565b5050565b6109b3611987565b61098b6001611bc9565b60085460009061084c9060c0603f611c20565b600060606109e686516109e1611c2f565b611c34565b6109fb89898989898989611c41611c98611d07565b97509795505050505050565b7f000000000000000000000000000000000000000000000000000000000000000090565b6001600160a01b031660009081526020819052604090205490565b7f000000000000000000000000000000000000000000000000000000000000000090565b60608088610a79610601610f22565b610a8461062761091a565b60606000610a9186611e9e565b15610ab957610a9e611ecd565b610ab089610aaa610813565b88611ee0565b92509050610b0b565b610ac1611f0c565b6060610acb611590565b9050610ad78a82611f14565b610afb8d8d8d8d8d610ae7611047565b610af1578d610af4565b60005b878e611c41565b93509150610b098382611c98565b505b610b158b82611f7d565b81895167ffffffffffffffff81118015610b2e57600080fd5b50604051908082528060200260200182016040528015610b58578160200160208202803683370190505b509450945050505b5097509795505050505050565b600061080d82610f46565b6000610b8261091a565b90506060610b8e610f22565b6001600160a01b031663f94d4668836040518263ffffffff1660e01b8152600401610bb99190613e2e565b60006040518083038186803b158015610bd157600080fd5b505afa158015610be5573d6000803e3d6000fd5b505050506040513d6000823e601f3d908101601f19168201604052610c0d9190810190613755565b50506040805160038082526080820190925291925060609190602082018380368337019050509050601454817f000000000000000000000000000000000000000000000000000000000000000081518110610c6457fe5b602002602001018181525050610c806014546012546000611f87565b817f000000000000000000000000000000000000000000000000000000000000000081518110610cac57fe5b6020026020010181815250506dffffffffffffffffffffffffffff817f000000000000000000000000000000000000000000000000000000000000000081518110610cf357fe5b602002602001018181525050610d076134b9565b6040518060800160405280610d1b85611faf565b8152602001838152602001600084604051602001610d3a929190613f40565b6040516020818303038152906040528152602001600015158152509050610d5f610f22565b6001600160a01b031663b95cac28610d7561091a565b3030856040518563ffffffff1660e01b8152600401610d979493929190613e56565b600060405180830381600087803b158015610db157600080fd5b505af1158015610dc5573d6000803e3d6000fd5b505050507f00000000000000000000000000000000000000000000000000000000000000006001600160a01b03167f274a3a580ce3d2843f389c3d9738dfb74d7a5aa35f400370a79abb5cd2f5e3cf60125460135485600181518110610e2757fe5b6020026020010151601554604051610e429493929190613fa5565b60405180910390a250505050565b7f000000000000000000000000000000000000000000000000000000000000000090565b610e7c611987565b61098b6001611a58565b60007f000000000000000000000000000000000000000000000000000000000000000082604051602001610ebb929190613d0a565b604051602081830303815290604052805190602001209050919050565b60006060610ee986516109e1611c2f565b6109fb89898989898989611fb2611fce611d07565b7f000000000000000000000000000000000000000000000000000000000000000090565b7f000000000000000000000000000000000000000000000000000000000000000090565b6001600160a01b031660009081526006602052604090205490565b60145490565b60048054604080516020601f60026000196101006001881615020190951694909404938401819004810282018101909252828152606093909290918301828280156107f25780601f106107c7576101008083540402835291602001916107f2565b600080610fd5338561123c565b9050808310610fef57610fea338560006117da565b610ffc565b610ffc33858584036117da565b5060019392505050565b7f000000000000000000000000000000000000000000000000000000000000000090565b60006108093384846118a7565b600061084c612037565b60125490565b60085460009061084c9060ff6120b1565b611060611987565b61098b6000611bc9565b7f000000000000000000000000000000000000000000000000000000000000000090565b60007f6e71edae12b1b97f4d1f60370fef10105fa2faae0126114a169c64845d6126c98888886110bd8c610f46565b896040516020016110d396959493929190613e92565b60405160208183030381529060405280519060200120905061110488826110fb8787876120bb565b886101f86120fa565b61110f8888886117da565b5050505050505050565b60608088611128610601610f22565b61113361062761091a565b61113b611f0c565b6060611145611590565b905061114f610813565b6111fc57600060606111648d8d8d868b612151565b9150915061117d611173612212565b83101560cc61155f565b61118f600061118a612212565b612217565b6111a28b61119b612212565b8403612217565b6111ac8184611fce565b808a5167ffffffffffffffff811180156111c557600080fd5b506040519080825280602002602001820160405280156111ef578160200160208202803683370190505b5095509550505050610b60565b6112068882611f14565b6000606061122e8d8d8d8d8d61121a611047565b611224578d611227565b60005b898e611fb2565b915091506111a28b83612217565b6000611246610f22565b6001600160a01b0316826001600160a01b03161415611268575060001961080d565b6112728383612221565b905061080d565b60135490565b600061128961091a565b90506060611295610f22565b6001600160a01b031663f94d4668836040518263ffffffff1660e01b81526004016112c09190613e2e565b60006040518083038186803b1580156112d857600080fd5b505afa1580156112ec573d6000803e3d6000fd5b505050506040513d6000823e601f3d908101601f191682016040526113149190810190613755565b505060408051600380825260808201909252919250606091906020820183803683370190505090506000817f00000000000000000000000000000000000000000000000000000000000000008151811061136a57fe5b6020026020010181815250506113866014546013546000611f87565b817f0000000000000000000000000000000000000000000000000000000000000000815181106113b257fe5b6020026020010181815250506000817f0000000000000000000000000000000000000000000000000000000000000000815181106113ec57fe5b6020026020010181815250506114006134b9565b604051806080016040528061141485611faf565b815260200183815260200160016dffffffffffffffffffffffffffff604051602001611441929190613f62565b6040516020818303038152906040528152602001600015158152509050611466610f22565b6001600160a01b0316638bdb391361147c61091a565b6017546040517fffffffff0000000000000000000000000000000000000000000000000000000060e085901b1681526114c8929130916001600160a01b03909116908790600401613e56565b600060405180830381600087803b1580156114e257600080fd5b505af115801561110f573d6000803e3d6000fd5b600061084c61224c565b60155490565b806109a7816122e9565b600061151d848484612367565b506001901b60001901811b1992909216911b1790565b600061154383831115600161155f565b50900390565b600081831061155857816108c0565b5090919050565b816109a7576109a7816123ae565b61098b611578611842565b61019261155f565b8181018281101561080d57600080fd5b60408051600380825260808201909252606091829190602082018380368337019050509050670de0b6b3a7640000817f0000000000000000000000000000000000000000000000000000000000000000815181106115ea57fe5b602002602001018181525050670de0b6b3a7640000817f00000000000000000000000000000000000000000000000000000000000000008151811061162b57fe5b602002602001018181525050670de0b6b3a7640000817f00000000000000000000000000000000000000000000000000000000000000008151811061166c57fe5b6020908102919091010152905090565b60006108c083836123d8565b60007f00000000000000000000000000000000000000000000000000000000000000006001600160a01b031684602001516001600160a01b031614156116da576116d384848461240e565b90506108c0565b7f00000000000000000000000000000000000000000000000000000000000000006001600160a01b031684602001516001600160a01b03161415611723576116d384848461274e565b6108c06101356123ae565b60006108c083836129c7565b60007f00000000000000000000000000000000000000000000000000000000000000006001600160a01b031684604001516001600160a01b03161415611785576116d3848484612a18565b7f00000000000000000000000000000000000000000000000000000000000000006001600160a01b031684604001516001600160a01b03161415611723576116d3848484612be9565b60006108c08383612d8d565b6001600160a01b0380841660008181526001602090815260408083209487168084529490915290819020849055517f8c5be1e5ebec7d5bd14f71427d1e84f3dd0314c0f7b2291e5b200ac8c7c3b92590611835908590613e2e565b60405180910390a3505050565b600061184c611883565b42118061084c57505060075460ff161590565b7f000000000000000000000000000000000000000000000000000000000000000090565b7f000000000000000000000000000000000000000000000000000000000000000090565b6118be6001600160a01b038416151561019861155f565b6118d56001600160a01b038316151561019961155f565b6118e0838383612362565b6001600160a01b03831660009081526020819052604090205461190690826101a0612ddb565b6001600160a01b0380851660009081526020819052604080822093909355908416815220546119359082611a46565b6001600160a01b0380841660008181526020819052604090819020939093559151908516907fddf252ad1be2c89b69c2b068fc378daa952ba7f163c4a11628f55a4df523b3ef90611835908590613e2e565b60006119b66000357fffffffff0000000000000000000000000000000000000000000000000000000016610e86565b90506109176119c58233612df1565b61019161155f565b6119e26119d8612eda565b82101560cb61155f565b6119f76119ed612ee3565b82111560ca61155f565b600854611a08908260c0603f611510565b6008556040517fa9ba3ffe0b6c366b81232caab38605a0699ad5398d6cce76f91ee809e322dafc90611a3b908390613e2e565b60405180910390a150565b60008282016108c0848210158361155f565b8015611a7857611a73611a6961185f565b421061019361155f565b611a8d565b611a8d611a83611883565b42106101a961155f565b600780547fffffffffffffffffffffffffffffffffffffffffffffffffffffffffffffff00168215151790556040517f9e3a5e37224532dea67b89face185703738a228a6e8a23dee546960180d3be6490611a3b908390613e0b565b6000611af361091a565b90506000611aff610f22565b6001600160a01b031663b05f8e4883866040518363ffffffff1660e01b8152600401611b2c929190613f0b565b60806040518083038186803b158015611b4457600080fd5b505afa158015611b58573d6000803e3d6000fd5b505050506040513d601f19601f82011682018060405250810190611b7c9190613b7f565b6040517f18e736d40000000000000000000000000000000000000000000000000000000081529094506001600160a01b03851693506318e736d492506114c8915085908790600401613ef2565b600854611bd8908260ff612eef565b6008556040517feff3d4d215b42bf0960be9c6d5e05c22cba4df6627a3a523e2acee733b5854c890611c0b908390613e0b565b60405180910390a1806109175761091761098b565b6001901b6000190191901c1690565b600390565b6109a7818314606761155f565b600060606000611c5084612f16565b90506000818015611c5d57fe5b14611c7257611c6d6101626123ae565b611c8a565b611c7a612f2c565b611c848885612f40565b90935091505b509850989650505050505050565b81518151611ca7908290611c34565b60005b81811015611d0157611ce2848281518110611cc157fe5b6020026020010151848381518110611cd557fe5b60200260200101516129c7565b848281518110611cee57fe5b6020908102919091010152600101611caa565b50505050565b333014611df6576000306001600160a01b0316600036604051611d2b929190613d3a565b6000604051808303816000865af19150503d8060008114611d68576040519150601f19603f3d011682016040523d82523d6000602084013e611d6d565b606091505b505090508060008114611d7c57fe5b60046000803e6000517fffffffff00000000000000000000000000000000000000000000000000000000167f43adbafb000000000000000000000000000000000000000000000000000000008114611dd8573d6000803e3d6000fd5b506020600460003e604060205260243d03602460403e601c3d016000f35b611dfe611f0c565b6060611e08611590565b9050611e148782611f14565b60006060611e2c8c8c8c8c8c8c898d8d63ffffffff16565b91509150611e3e81848663ffffffff16565b8051601f1982018390526343adbafb7fffffffffffffffffffffffffffffffffffffffffffffffffffffffffffffffc08301526020027fffffffffffffffffffffffffffffffffffffffffffffffffffffffffffffffdc82016044820181fd5b600080825111801561080d575060ff801682806020019051810190611ec39190613bbf565b60ff161492915050565b61098b611ed8611047565b6101b661155f565b600060606000611eef84613050565b90506060611efe878784613066565b919791965090945050505050565b61098b61156d565b81518151611f23908290611c34565b60005b81811015611d0157611f5e848281518110611f3d57fe5b6020026020010151848381518110611f5157fe5b60200260200101516123d8565b848281518110611f6a57fe5b6020908102919091010152600101611f26565b6109a782826130ff565b600081611f9d57611f9884846131cb565b611fa7565b611fa784846131eb565b949350505050565b90565b60006060611fc16101626123ae565b9850989650505050505050565b81518151611fdd908290611c34565b60005b81811015611d0157612018848281518110611ff757fe5b602002602001015184838151811061200b57fe5b6020026020010151612d8d565b84828151811061202457fe5b6020908102919091010152600101611fe0565b6000612041610f22565b6001600160a01b031663aaabadc56040518163ffffffff1660e01b815260040160206040518083038186803b15801561207957600080fd5b505afa15801561208d573d6000803e3d6000fd5b505050506040513d601f19601f8201168201806040525081019061084c9190613924565b1c60019081161490565b60408051604180825260808201909252606091829190602082018180368337019050509050836020820152826040820152846060820153949350505050565b60006121058561321e565b905061211b61211587838761323a565b8361155f565b61212a428410156101b861155f565b5050506001600160a01b039092166000908152600660205260409020805460010190555050565b6000606061215d61156d565b6121746001600160a01b038716301461015661155f565b61218b6001600160a01b038616301461015661155f565b604080516003808252608082019092526dffffffffffffffffffffffffffff91606091906020820183803683370190505090506dffffffffffffffffffffffffffff817f0000000000000000000000000000000000000000000000000000000000000000815181106121f957fe5b6020908102919091010152909890975095505050505050565b600090565b6109a782826132e9565b6001600160a01b03918216600090815260016020908152604080832093909416825291909152205490565b60007f00000000000000000000000000000000000000000000000000000000000000007f00000000000000000000000000000000000000000000000000000000000000007f00000000000000000000000000000000000000000000000000000000000000006122b961337c565b306040516020016122ce959493929190613ec6565b60405160208183030381529060405280519060200120905090565b6002815110156122f857610917565b60008160008151811061230757fe5b602002602001015190506000600190505b825181101561236257600083828151811061232f57fe5b60200260200101519050612358816001600160a01b0316846001600160a01b031610606561155f565b9150600101612318565b505050565b6123766101008310606461155f565b61239f60018210158015612398575061239460ff8461010003611549565b8211155b606461155f565b61236283821c156101b461155f565b610917817f42414c0000000000000000000000000000000000000000000000000000000000613380565b60008282026123fc8415806123f55750838583816123f257fe5b04145b600361155f565b670de0b6b3a764000090049392505050565b60006124547f00000000000000000000000000000000000000000000000000000000000000006001600160a01b031685604001516001600160a01b03161461013561155f565b7f00000000000000000000000000000000000000000000000000000000000000006001600160a01b031684604001516001600160a01b031614156108c05760006124d5847f0000000000000000000000000000000000000000000000000000000000000000815181106124c357fe5b60200260200101518660600151611a46565b905060006125a0857f00000000000000000000000000000000000000000000000000000000000000008151811061250857fe5b602002602001015161259b61255985897f00000000000000000000000000000000000000000000000000000000000000008151811061254357fe5b60200260200101516129c790919063ffffffff16565b887f00000000000000000000000000000000000000000000000000000000000000008151811061258557fe5b60200260200101516123d890919063ffffffff16565b611533565b905060006125e1867f0000000000000000000000000000000000000000000000000000000000000000815181106125d357fe5b602002602001015183611533565b60208601519091506125f382856129c7565b1015801561260e5750604085015161260b82856129c7565b11155b15612742577f00000000000000000000000000000000000000000000000000000000000000006001600160a01b03167fcf6f98f0568a50d4e3d60b183f01e307f5011e8140f842a5a855df40d80918bb7f00000000000000000000000000000000000000000000000000000000000000007f00000000000000000000000000000000000000000000000000000000000000006001600160a01b03166306fdde036040518163ffffffff1660e01b815260040160006040518083038186803b1580156126d857600080fd5b505afa1580156126ec573d6000803e3d6000fd5b505050506040513d6000823e601f3d908101601f1916820160405261271491908101906139d5565b8a606001518b60c0015187604051612730959493929190613d94565b60405180910390a25091506108c09050565b600093505050506108c0565b60006127947f00000000000000000000000000000000000000000000000000000000000000006001600160a01b031685604001516001600160a01b03161461013561155f565b7f00000000000000000000000000000000000000000000000000000000000000006001600160a01b031684604001516001600160a01b031614156108c0576000612803847f0000000000000000000000000000000000000000000000000000000000000000815181106124c357fe5b9050600061289d857f00000000000000000000000000000000000000000000000000000000000000008151811061283657fe5b602002602001015161259b61287185897f00000000000000000000000000000000000000000000000000000000000000008151811061254357fe5b887f00000000000000000000000000000000000000000000000000000000000000008151811061258557fe5b905060006128d0867f0000000000000000000000000000000000000000000000000000000000000000815181106125d357fe5b60208601519091506128e284836129c7565b101580156128fd575060408501516128fa84836129c7565b11155b15612742577f00000000000000000000000000000000000000000000000000000000000000006001600160a01b03167fcf6f98f0568a50d4e3d60b183f01e307f5011e8140f842a5a855df40d80918bb7f00000000000000000000000000000000000000000000000000000000000000007f00000000000000000000000000000000000000000000000000000000000000006001600160a01b03166306fdde036040518163ffffffff1660e01b815260040160006040518083038186803b1580156126d857600080fd5b60006129d6821515600461155f565b826129e35750600061080d565b670de0b6b3a764000083810290612a06908583816129fd57fe5b0414600561155f565b828181612a0f57fe5b0491505061080d565b6000612a5e7f00000000000000000000000000000000000000000000000000000000000000006001600160a01b031685602001516001600160a01b03161461013561155f565b7f00000000000000000000000000000000000000000000000000000000000000006001600160a01b031684602001516001600160a01b031614156108c0576000612adf847f000000000000000000000000000000000000000000000000000000000000000081518110612acd57fe5b60200260200101518660600151611533565b90506000612b7e612b45612b1984887f00000000000000000000000000000000000000000000000000000000000000008151811061254357fe5b877f00000000000000000000000000000000000000000000000000000000000000008151811061258557fe5b867f000000000000000000000000000000000000000000000000000000000000000081518110612b7157fe5b6020026020010151611533565b90506000612bbf867f000000000000000000000000000000000000000000000000000000000000000081518110612bb157fe5b602002602001015183611a46565b6020860151909150612bd182856129c7565b101580156128fd575060408501516128fa82856129c7565b6000612c2f7f00000000000000000000000000000000000000000000000000000000000000006001600160a01b031685602001516001600160a01b03161461013561155f565b7f00000000000000000000000000000000000000000000000000000000000000006001600160a01b031684602001516001600160a01b031614156108c0576000612c9e847f000000000000000000000000000000000000000000000000000000000000000081518110612acd57fe5b90506000612d30612d04612cd884887f00000000000000000000000000000000000000000000000000000000000000008151811061254357fe5b877f00000000000000000000000000000000000000000000000000000000000000008151811061258557fe5b867f000000000000000000000000000000000000000000000000000000000000000081518110612b7157fe5b90506000612d63867f000000000000000000000000000000000000000000000000000000000000000081518110612bb157fe5b6020860151909150612d7584836129c7565b1015801561260e5750604085015161260b84836129c7565b6000612d9c821515600461155f565b82612da95750600061080d565b670de0b6b3a764000083810290612dc3908583816129fd57fe5b826001820381612dcf57fe5b0460010191505061080d565b6000612dea848411158361155f565b5050900390565b600073ba1ba1ba1ba1ba1ba1ba1ba1ba1ba1ba1ba1ba1b612e10610efe565b6001600160a01b031614158015612e2b5750612e2b836133fb565b15612e5357612e38610efe565b6001600160a01b0316336001600160a01b031614905061080d565b612e5b612037565b6001600160a01b0316639be2a8848484306040518463ffffffff1660e01b8152600401612e8a93929190613e37565b60206040518083038186803b158015612ea257600080fd5b505afa158015612eb6573d6000803e3d6000fd5b505050506040513d601f19601f820116820180604052508101906112729190613821565b64e8d4a5100090565b67016345785d8a000090565b60006001821b1984168284612f05576000612f08565b60015b60ff16901b17949350505050565b60008180602001905181019061080d919061398e565b61098b612f37611842565b156101af61155f565b600060606000612f4f84613469565b90506000612f9582612f8e612f62610813565b897f000000000000000000000000000000000000000000000000000000000000000081518110612b7157fe5b6000611f87565b90506060865167ffffffffffffffff81118015612fb157600080fd5b50604051908082528060200260200182016040528015612fdb578160200160208202803683370190505b50905060005b8751811015613042577f0000000000000000000000000000000000000000000000000000000000000000811461303a576130218389838151811061258557fe5b82828151811061302d57fe5b6020026020010181815250505b600101612fe1565b509196919550909350505050565b6000818060200190518101906108c09190613bdb565b6060600061307483856129c7565b9050845167ffffffffffffffff8111801561308e57600080fd5b506040519080825280602002602001820160405280156130b8578160200160208202803683370190505b50915060005b85518110156130f6576130d78287838151811061258557fe5b8382815181106130e357fe5b60209081029190910101526001016130be565b50509392505050565b6131166001600160a01b038316151561019b61155f565b61312282600083612362565b6001600160a01b03821660009081526020819052604090205461314890826101b2612ddb565b6001600160a01b03831660009081526020819052604090205561317b61317682613170610813565b9061347f565b61348d565b60006001600160a01b0316826001600160a01b03167fddf252ad1be2c89b69c2b068fc378daa952ba7f163c4a11628f55a4df523b3ef836040516131bf9190613e2e565b60405180910390a35050565b60006131da821515600461155f565b8183816131e357fe5b049392505050565b60006131fa821515600461155f565b826132075750600061080d565b81600184038161321357fe5b04600101905061080d565b600061322861224c565b82604051602001610ebb929190613d4a565b600061324c82516041146101b961155f565b60208281015160408085015160608601518251600080825295019283905292939092811a91600190613285908990859088908890613f22565b6020604051602081039080840390855afa1580156132a7573d6000803e3d6000fd5b5050604051601f1901519150506001600160a01b038116158015906132dd5750876001600160a01b0316816001600160a01b0316145b98975050505050505050565b6132f560008383612362565b61330a61317682613304610813565b90611a46565b6001600160a01b03821660009081526020819052604090205461332d9082611a46565b6001600160a01b0383166000818152602081905260408082209390935591519091907fddf252ad1be2c89b69c2b068fc378daa952ba7f163c4a11628f55a4df523b3ef906131bf908590613e2e565b4690565b7f08c379a000000000000000000000000000000000000000000000000000000000600090815260206004526007602452600a808404818106603090810160081b958390069590950190829004918206850160101b01602363ffffff0060e086901c160160181b0190930160c81b60445260e882901c90606490fd5b60006134267f38e9922e00000000000000000000000000000000000000000000000000000000610e86565b82148061345a57506134577f50dd6ed900000000000000000000000000000000000000000000000000000000610e86565b82145b8061080d575061080d82613492565b6000818060200190518101906108c091906139a9565b60006108c083836001612ddb565b600255565b50600090565b60405180606001604052806000815260200160008152602001600081525090565b60405180608001604052806060815260200160608152602001606081526020016000151581525090565b803561080d8161406f565b600082601f8301126134fe578081fd5b813561351161350c82613ff5565b613fce565b81815291506020808301908481018184028601820187101561353257600080fd5b60005b8481101561355157813584529282019290820190600101613535565b505050505092915050565b600082601f83011261356c578081fd5b815161357a61350c82613ff5565b81815291506020808301908481018184028601820187101561359b57600080fd5b60005b848110156135515781518452928201929082019060010161359e565b600082601f8301126135ca578081fd5b81356135d861350c82614015565b91508082528360208285010111156135ef57600080fd5b8060208401602084013760009082016020015292915050565b80516001811061080d57600080fd5b80356002811061080d57600080fd5b600060208284031215613637578081fd5b81356108c08161406f565b60008060408385031215613654578081fd5b823561365f8161406f565b9150602083013561366f8161406f565b809150509250929050565b60008060006060848603121561368e578081fd5b83356136998161406f565b925060208401356136a98161406f565b929592945050506040919091013590565b600080600080600080600060e0888a0312156136d4578283fd5b87356136df8161406f565b965060208801356136ef8161406f565b95506040880135945060608801359350608088013561370d81614084565b9699959850939692959460a0840135945060c09093013592915050565b6000806040838503121561373c578182fd5b82356137478161406f565b946020939093013593505050565b600080600060608486031215613769578081fd5b835167ffffffffffffffff80821115613780578283fd5b818601915086601f830112613793578283fd5b81516137a161350c82613ff5565b80828252602080830192508086018b8283870289010111156137c1578788fd5b8796505b848710156137ec5780516137d88161406f565b8452600196909601959281019281016137c5565b508901519097509350505080821115613803578283fd5b506138108682870161355c565b925050604084015190509250925092565b600060208284031215613832578081fd5b815180151581146108c0578182fd5b600080600080600080600060e0888a03121561385b578081fd5b87359650602088013561386d8161406f565b9550604088013561387d8161406f565b9450606088013567ffffffffffffffff80821115613899578283fd5b6138a58b838c016134ee565b955060808a0135945060a08a0135935060c08a01359150808211156138c8578283fd5b506138d58a828b016135ba565b91505092959891949750929550565b6000602082840312156138f5578081fd5b81357fffffffff00000000000000000000000000000000000000000000000000000000811681146108c0578182fd5b600060208284031215613935578081fd5b81516108c08161406f565b60008060408385031215613952578182fd5b823561395d8161406f565b9150602083013567ffffffffffffffff811115613978578182fd5b613984858286016135ba565b9150509250929050565b60006020828403121561399f578081fd5b6108c08383613608565b600080604083850312156139bb578182fd5b6139c58484613608565b9150602083015190509250929050565b6000602082840312156139e6578081fd5b815167ffffffffffffffff8111156139fc578182fd5b8201601f81018413613a0c578182fd5b8051613a1a61350c82614015565b818152856020838501011115613a2e578384fd5b613a3f826020830160208601614039565b95945050505050565b60008060008060808587031215613a5d578182fd5b843567ffffffffffffffff80821115613a74578384fd5b818701915061012080838a031215613a8a578485fd5b613a9381613fce565b9050613a9f8984613617565b8152613aae89602085016134e3565b6020820152613ac089604085016134e3565b6040820152606083013560608201526080830135608082015260a083013560a0820152613af08960c085016134e3565b60c0820152613b028960e085016134e3565b60e08201526101008084013583811115613b1a578687fd5b613b268b8287016135ba565b828401525050809650506020870135915080821115613b43578384fd5b50613b50878288016134ee565b949794965050505060408301359260600135919050565b600060208284031215613b78578081fd5b5035919050565b60008060008060808587031215613b94578182fd5b8451935060208501519250604085015191506060850151613bb48161406f565b939692955090935050565b600060208284031215613bd0578081fd5b81516108c081614084565b60008060408385031215613bed578182fd5b8251613bf881614084565b6020939093015192949293505050565b6000815180845260208085019450808401835b83811015613c3757815187529582019590820190600101613c1b565b509495945050505050565b15159052565b60008151808452613c60816020860160208601614039565b601f01601f19169290920160200192915050565b8051608080845281519084018190526000916020919082019060a0860190845b81811015613cb95783516001600160a01b031683529284019291840191600101613c94565b505082850151915085810383870152613cd28183613c08565b9250505060408301518482036040860152613ced8282613c48565b9150506060830151613d026060860182613c42565b509392505050565b9182527fffffffff0000000000000000000000000000000000000000000000000000000016602082015260240190565b6000828483379101908152919050565b7f190100000000000000000000000000000000000000000000000000000000000081526002810192909252602282015260420190565b6001600160a01b0391909116815260200190565b60006001600160a01b03808816835260a06020840152613db760a0840188613c48565b6040840196909652939093166060820152608001525092915050565b6000602082526108c06020830184613c08565b600060408252613df96040830185613c08565b8281036020840152613a3f8185613c08565b901515815260200190565b92151583526020830191909152604082015260600190565b90815260200190565b9283526001600160a01b03918216602084015216604082015260600190565b60008582526001600160a01b03808616602084015280851660408401525060806060830152613e886080830184613c74565b9695505050505050565b9586526001600160a01b0394851660208701529290931660408501526060840152608083019190915260a082015260c00190565b9485526020850193909352604084019190915260608301526001600160a01b0316608082015260a00190565b600083825260406020830152611fa76040830184613c48565b9182526001600160a01b0316602082015260400190565b93845260ff9290921660208401526040830152606082015260800190565b6000613f4b84614065565b83825260406020830152611fa76040830184613c08565b60408101613f6f84614065565b9281526020015290565b6000602082526108c06020830184613c48565b600083825260406020830152611fa76040830184613c08565b93845260208401929092526040830152606082015260800190565b60ff91909116815260200190565b60405181810167ffffffffffffffff81118282101715613fed57600080fd5b604052919050565b600067ffffffffffffffff82111561400b578081fd5b5060209081020190565b600067ffffffffffffffff82111561402b578081fd5b50601f01601f191660200190565b60005b8381101561405457818101518382015260200161403c565b83811115611d015750506000910152565b6004811061091757fe5b6001600160a01b038116811461091757600080fd5b60ff8116811461091757600080fdfea2646970667358221220108e0598998645cb6a8cf9fa5f27f5c5b5f02ba9926b4e232aac5d2689fa403664736f6c63430007010033",
  "linkReferences": {},
  "deployedLinkReferences": {}
}