{
  "_format": "hh-sol-artifact-1",
  "contractName": "PrimaryIssuePool",
  "sourceName": "contracts/PrimaryIssuePool.sol",
  "abi": [
    {
      "inputs": [
        {
          "internalType": "contract IVault",
          "name": "vault",
          "type": "address"
        },
        {
          "components": [
            {
              "internalType": "string",
              "name": "name",
              "type": "string"
            },
            {
              "internalType": "string",
              "name": "symbol",
              "type": "string"
            },
            {
              "internalType": "address",
              "name": "security",
              "type": "address"
            },
            {
              "internalType": "address",
              "name": "currency",
              "type": "address"
            },
            {
              "internalType": "uint256",
              "name": "minimumPrice",
              "type": "uint256"
            },
            {
              "internalType": "uint256",
              "name": "minimumOrderSize",
              "type": "uint256"
            },
            {
              "internalType": "uint256",
              "name": "maxAmountsIn",
              "type": "uint256"
            },
            {
              "internalType": "uint256",
              "name": "swapFeePercentage",
              "type": "uint256"
            },
            {
              "internalType": "uint256",
              "name": "cutOffTime",
              "type": "uint256"
            },
            {
              "internalType": "string",
              "name": "offeringDocs",
              "type": "string"
            }
          ],
          "internalType": "struct IPrimaryIssuePoolFactory.FactoryPoolParams",
          "name": "factoryPoolParams",
          "type": "tuple"
        },
        {
          "internalType": "uint256",
          "name": "pauseWindowDuration",
          "type": "uint256"
        },
        {
          "internalType": "uint256",
          "name": "bufferPeriodDuration",
          "type": "uint256"
        },
        {
          "internalType": "address",
          "name": "owner",
          "type": "address"
        }
      ],
      "stateMutability": "nonpayable",
      "type": "constructor"
    },
    {
      "anonymous": false,
      "inputs": [
        {
          "indexed": true,
          "internalType": "address",
          "name": "owner",
          "type": "address"
        },
        {
          "indexed": true,
          "internalType": "address",
          "name": "spender",
          "type": "address"
        },
        {
          "indexed": false,
          "internalType": "uint256",
          "name": "value",
          "type": "uint256"
        }
      ],
      "name": "Approval",
      "type": "event"
    },
    {
      "anonymous": false,
      "inputs": [
        {
          "indexed": true,
          "internalType": "address",
          "name": "security",
          "type": "address"
        },
        {
          "indexed": false,
          "internalType": "uint256",
          "name": "openingPrice",
          "type": "uint256"
        },
        {
          "indexed": false,
          "internalType": "address",
          "name": "currency",
          "type": "address"
        },
        {
          "indexed": false,
          "internalType": "uint256",
          "name": "securityOffered",
          "type": "uint256"
        },
        {
          "indexed": false,
          "internalType": "uint256",
          "name": "cutoffTime",
          "type": "uint256"
        },
        {
          "indexed": false,
          "internalType": "string",
          "name": "offeringDocs",
          "type": "string"
        }
      ],
      "name": "OpenIssue",
      "type": "event"
    },
    {
      "anonymous": false,
      "inputs": [
        {
          "indexed": false,
          "internalType": "bool",
          "name": "paused",
          "type": "bool"
        }
      ],
      "name": "PausedStateChanged",
      "type": "event"
    },
    {
      "anonymous": false,
      "inputs": [
        {
          "indexed": false,
          "internalType": "bool",
          "name": "enabled",
          "type": "bool"
        }
      ],
      "name": "RecoveryModeStateChanged",
      "type": "event"
    },
    {
      "anonymous": false,
      "inputs": [
        {
          "indexed": true,
          "internalType": "address",
          "name": "assetIn",
          "type": "address"
        },
        {
          "indexed": false,
          "internalType": "address",
          "name": "assetOut",
          "type": "address"
        },
        {
          "indexed": false,
          "internalType": "uint256",
          "name": "amount",
          "type": "uint256"
        },
        {
          "indexed": false,
          "internalType": "address",
          "name": "investor",
          "type": "address"
        },
        {
          "indexed": false,
          "internalType": "uint256",
          "name": "price",
          "type": "uint256"
        },
        {
          "indexed": false,
          "internalType": "uint256",
          "name": "executionDate",
          "type": "uint256"
        }
      ],
      "name": "Subscription",
      "type": "event"
    },
    {
      "anonymous": false,
      "inputs": [
        {
          "indexed": false,
          "internalType": "uint256",
          "name": "swapFeePercentage",
          "type": "uint256"
        }
      ],
      "name": "SwapFeePercentageChanged",
      "type": "event"
    },
    {
      "anonymous": false,
      "inputs": [
        {
          "indexed": true,
          "internalType": "address",
          "name": "from",
          "type": "address"
        },
        {
          "indexed": true,
          "internalType": "address",
          "name": "to",
          "type": "address"
        },
        {
          "indexed": false,
          "internalType": "uint256",
          "name": "value",
          "type": "uint256"
        }
      ],
      "name": "Transfer",
      "type": "event"
    },
    {
      "inputs": [],
      "name": "DOMAIN_SEPARATOR",
      "outputs": [
        {
          "internalType": "bytes32",
          "name": "",
          "type": "bytes32"
        }
      ],
      "stateMutability": "view",
      "type": "function"
    },
    {
      "inputs": [
        {
          "internalType": "address",
          "name": "owner",
          "type": "address"
        },
        {
          "internalType": "address",
          "name": "spender",
          "type": "address"
        }
      ],
      "name": "allowance",
      "outputs": [
        {
          "internalType": "uint256",
          "name": "",
          "type": "uint256"
        }
      ],
      "stateMutability": "view",
      "type": "function"
    },
    {
      "inputs": [
        {
          "internalType": "address",
          "name": "spender",
          "type": "address"
        },
        {
          "internalType": "uint256",
          "name": "amount",
          "type": "uint256"
        }
      ],
      "name": "approve",
      "outputs": [
        {
          "internalType": "bool",
          "name": "",
          "type": "bool"
        }
      ],
      "stateMutability": "nonpayable",
      "type": "function"
    },
    {
      "inputs": [
        {
          "internalType": "address",
          "name": "account",
          "type": "address"
        }
      ],
      "name": "balanceOf",
      "outputs": [
        {
          "internalType": "uint256",
          "name": "",
          "type": "uint256"
        }
      ],
      "stateMutability": "view",
      "type": "function"
    },
    {
      "inputs": [],
      "name": "decimals",
      "outputs": [
        {
          "internalType": "uint8",
          "name": "",
          "type": "uint8"
        }
      ],
      "stateMutability": "view",
      "type": "function"
    },
    {
      "inputs": [
        {
          "internalType": "address",
          "name": "spender",
          "type": "address"
        },
        {
          "internalType": "uint256",
          "name": "amount",
          "type": "uint256"
        }
      ],
      "name": "decreaseAllowance",
      "outputs": [
        {
          "internalType": "bool",
          "name": "",
          "type": "bool"
        }
      ],
      "stateMutability": "nonpayable",
      "type": "function"
    },
    {
      "inputs": [],
      "name": "disableRecoveryMode",
      "outputs": [],
      "stateMutability": "nonpayable",
      "type": "function"
    },
    {
      "inputs": [],
      "name": "enableRecoveryMode",
      "outputs": [],
      "stateMutability": "nonpayable",
      "type": "function"
    },
    {
      "inputs": [
        {
          "internalType": "bytes4",
          "name": "selector",
          "type": "bytes4"
        }
      ],
      "name": "getActionId",
      "outputs": [
        {
          "internalType": "bytes32",
          "name": "",
          "type": "bytes32"
        }
      ],
      "stateMutability": "view",
      "type": "function"
    },
    {
      "inputs": [],
      "name": "getAuthorizer",
      "outputs": [
        {
          "internalType": "contract IAuthorizer",
          "name": "",
          "type": "address"
        }
      ],
      "stateMutability": "view",
      "type": "function"
    },
    {
      "inputs": [],
      "name": "getBptIndex",
      "outputs": [
        {
          "internalType": "uint256",
          "name": "",
          "type": "uint256"
        }
      ],
      "stateMutability": "view",
      "type": "function"
    },
    {
      "inputs": [],
      "name": "getCurrency",
      "outputs": [
        {
          "internalType": "contract IERC20",
          "name": "",
          "type": "address"
        }
      ],
      "stateMutability": "view",
      "type": "function"
    },
    {
      "inputs": [],
      "name": "getCurrencyIndex",
      "outputs": [
        {
          "internalType": "uint256",
          "name": "",
          "type": "uint256"
        }
      ],
      "stateMutability": "view",
      "type": "function"
    },
    {
      "inputs": [],
      "name": "getDomainSeparator",
      "outputs": [
        {
          "internalType": "bytes32",
          "name": "",
          "type": "bytes32"
        }
      ],
      "stateMutability": "view",
      "type": "function"
    },
    {
      "inputs": [],
      "name": "getIssueCutoffTime",
      "outputs": [
        {
          "internalType": "uint256",
          "name": "",
          "type": "uint256"
        }
      ],
      "stateMutability": "view",
      "type": "function"
    },
    {
      "inputs": [],
      "name": "getMinimumOrderSize",
      "outputs": [
        {
          "internalType": "uint256",
          "name": "",
          "type": "uint256"
        }
      ],
      "stateMutability": "view",
      "type": "function"
    },
    {
      "inputs": [],
      "name": "getMinimumPrice",
      "outputs": [
        {
          "internalType": "uint256",
          "name": "",
          "type": "uint256"
        }
      ],
      "stateMutability": "view",
      "type": "function"
    },
    {
      "inputs": [
        {
          "internalType": "address",
          "name": "account",
          "type": "address"
        }
      ],
      "name": "getNextNonce",
      "outputs": [
        {
          "internalType": "uint256",
          "name": "",
          "type": "uint256"
        }
      ],
      "stateMutability": "view",
      "type": "function"
    },
    {
      "inputs": [],
      "name": "getOfferingDocuments",
      "outputs": [
        {
          "internalType": "string",
          "name": "",
          "type": "string"
        }
      ],
      "stateMutability": "view",
      "type": "function"
    },
    {
      "inputs": [],
      "name": "getOwner",
      "outputs": [
        {
          "internalType": "address",
          "name": "",
          "type": "address"
        }
      ],
      "stateMutability": "view",
      "type": "function"
    },
    {
      "inputs": [],
      "name": "getPausedState",
      "outputs": [
        {
          "internalType": "bool",
          "name": "paused",
          "type": "bool"
        },
        {
          "internalType": "uint256",
          "name": "pauseWindowEndTime",
          "type": "uint256"
        },
        {
          "internalType": "uint256",
          "name": "bufferPeriodEndTime",
          "type": "uint256"
        }
      ],
      "stateMutability": "view",
      "type": "function"
    },
    {
      "inputs": [],
      "name": "getPoolId",
      "outputs": [
        {
          "internalType": "bytes32",
          "name": "",
          "type": "bytes32"
        }
      ],
      "stateMutability": "view",
      "type": "function"
    },
    {
      "inputs": [],
      "name": "getProtocolFeesCollector",
      "outputs": [
        {
          "internalType": "contract IProtocolFeesCollector",
          "name": "",
          "type": "address"
        }
      ],
      "stateMutability": "view",
      "type": "function"
    },
    {
      "inputs": [],
      "name": "getScalingFactors",
      "outputs": [
        {
          "internalType": "uint256[]",
          "name": "",
          "type": "uint256[]"
        }
      ],
      "stateMutability": "view",
      "type": "function"
    },
    {
      "inputs": [],
      "name": "getSecurity",
      "outputs": [
        {
          "internalType": "contract IERC20",
          "name": "",
          "type": "address"
        }
      ],
      "stateMutability": "view",
      "type": "function"
    },
    {
      "inputs": [],
      "name": "getSecurityIndex",
      "outputs": [
        {
          "internalType": "uint256",
          "name": "",
          "type": "uint256"
        }
      ],
      "stateMutability": "view",
      "type": "function"
    },
    {
      "inputs": [],
      "name": "getSecurityOffered",
      "outputs": [
        {
          "internalType": "uint256",
          "name": "",
          "type": "uint256"
        }
      ],
      "stateMutability": "view",
      "type": "function"
    },
    {
      "inputs": [],
      "name": "getSwapFeePercentage",
      "outputs": [
        {
          "internalType": "uint256",
          "name": "",
          "type": "uint256"
        }
      ],
      "stateMutability": "view",
      "type": "function"
    },
    {
      "inputs": [],
      "name": "getVault",
      "outputs": [
        {
          "internalType": "contract IVault",
          "name": "",
          "type": "address"
        }
      ],
      "stateMutability": "view",
      "type": "function"
    },
    {
      "inputs": [],
      "name": "inRecoveryMode",
      "outputs": [
        {
          "internalType": "bool",
          "name": "",
          "type": "bool"
        }
      ],
      "stateMutability": "view",
      "type": "function"
    },
    {
      "inputs": [
        {
          "internalType": "address",
          "name": "spender",
          "type": "address"
        },
        {
          "internalType": "uint256",
          "name": "addedValue",
          "type": "uint256"
        }
      ],
      "name": "increaseAllowance",
      "outputs": [
        {
          "internalType": "bool",
          "name": "",
          "type": "bool"
        }
      ],
      "stateMutability": "nonpayable",
      "type": "function"
    },
    {
      "inputs": [],
      "name": "name",
      "outputs": [
        {
          "internalType": "string",
          "name": "",
          "type": "string"
        }
      ],
      "stateMutability": "view",
      "type": "function"
    },
    {
      "inputs": [
        {
          "internalType": "address",
          "name": "owner",
          "type": "address"
        }
      ],
      "name": "nonces",
      "outputs": [
        {
          "internalType": "uint256",
          "name": "",
          "type": "uint256"
        }
      ],
      "stateMutability": "view",
      "type": "function"
    },
    {
      "inputs": [
        {
          "internalType": "bytes32",
          "name": "poolId",
          "type": "bytes32"
        },
        {
          "internalType": "address",
          "name": "sender",
          "type": "address"
        },
        {
          "internalType": "address",
          "name": "recipient",
          "type": "address"
        },
        {
          "internalType": "uint256[]",
          "name": "balances",
          "type": "uint256[]"
        },
        {
          "internalType": "uint256",
          "name": "lastChangeBlock",
          "type": "uint256"
        },
        {
          "internalType": "uint256",
          "name": "protocolSwapFeePercentage",
          "type": "uint256"
        },
        {
          "internalType": "bytes",
          "name": "userData",
          "type": "bytes"
        }
      ],
      "name": "onExitPool",
      "outputs": [
        {
          "internalType": "uint256[]",
          "name": "",
          "type": "uint256[]"
        },
        {
          "internalType": "uint256[]",
          "name": "",
          "type": "uint256[]"
        }
      ],
      "stateMutability": "nonpayable",
      "type": "function"
    },
    {
      "inputs": [
        {
          "internalType": "bytes32",
          "name": "poolId",
          "type": "bytes32"
        },
        {
          "internalType": "address",
          "name": "sender",
          "type": "address"
        },
        {
          "internalType": "address",
          "name": "recipient",
          "type": "address"
        },
        {
          "internalType": "uint256[]",
          "name": "balances",
          "type": "uint256[]"
        },
        {
          "internalType": "uint256",
          "name": "lastChangeBlock",
          "type": "uint256"
        },
        {
          "internalType": "uint256",
          "name": "protocolSwapFeePercentage",
          "type": "uint256"
        },
        {
          "internalType": "bytes",
          "name": "userData",
          "type": "bytes"
        }
      ],
      "name": "onJoinPool",
      "outputs": [
        {
          "internalType": "uint256[]",
          "name": "",
          "type": "uint256[]"
        },
        {
          "internalType": "uint256[]",
          "name": "",
          "type": "uint256[]"
        }
      ],
      "stateMutability": "nonpayable",
      "type": "function"
    },
    {
      "inputs": [
        {
          "components": [
            {
              "internalType": "enum IVault.SwapKind",
              "name": "kind",
              "type": "uint8"
            },
            {
              "internalType": "contract IERC20",
              "name": "tokenIn",
              "type": "address"
            },
            {
              "internalType": "contract IERC20",
              "name": "tokenOut",
              "type": "address"
            },
            {
              "internalType": "uint256",
              "name": "amount",
              "type": "uint256"
            },
            {
              "internalType": "bytes32",
              "name": "poolId",
              "type": "bytes32"
            },
            {
              "internalType": "uint256",
              "name": "lastChangeBlock",
              "type": "uint256"
            },
            {
              "internalType": "address",
              "name": "from",
              "type": "address"
            },
            {
              "internalType": "address",
              "name": "to",
              "type": "address"
            },
            {
              "internalType": "bytes",
              "name": "userData",
              "type": "bytes"
            }
          ],
          "internalType": "struct IPoolSwapStructs.SwapRequest",
          "name": "request",
          "type": "tuple"
        },
        {
          "internalType": "uint256[]",
          "name": "balances",
          "type": "uint256[]"
        },
        {
          "internalType": "uint256",
          "name": "indexIn",
          "type": "uint256"
        },
        {
          "internalType": "uint256",
          "name": "indexOut",
          "type": "uint256"
        }
      ],
      "name": "onSwap",
      "outputs": [
        {
          "internalType": "uint256",
          "name": "",
          "type": "uint256"
        }
      ],
      "stateMutability": "nonpayable",
      "type": "function"
    },
    {
      "inputs": [],
      "name": "pause",
      "outputs": [],
      "stateMutability": "nonpayable",
      "type": "function"
    },
    {
      "inputs": [
        {
          "internalType": "address",
          "name": "owner",
          "type": "address"
        },
        {
          "internalType": "address",
          "name": "spender",
          "type": "address"
        },
        {
          "internalType": "uint256",
          "name": "value",
          "type": "uint256"
        },
        {
          "internalType": "uint256",
          "name": "deadline",
          "type": "uint256"
        },
        {
          "internalType": "uint8",
          "name": "v",
          "type": "uint8"
        },
        {
          "internalType": "bytes32",
          "name": "r",
          "type": "bytes32"
        },
        {
          "internalType": "bytes32",
          "name": "s",
          "type": "bytes32"
        }
      ],
      "name": "permit",
      "outputs": [],
      "stateMutability": "nonpayable",
      "type": "function"
    },
    {
      "inputs": [
        {
          "internalType": "bytes32",
          "name": "poolId",
          "type": "bytes32"
        },
        {
          "internalType": "address",
          "name": "sender",
          "type": "address"
        },
        {
          "internalType": "address",
          "name": "recipient",
          "type": "address"
        },
        {
          "internalType": "uint256[]",
          "name": "balances",
          "type": "uint256[]"
        },
        {
          "internalType": "uint256",
          "name": "lastChangeBlock",
          "type": "uint256"
        },
        {
          "internalType": "uint256",
          "name": "protocolSwapFeePercentage",
          "type": "uint256"
        },
        {
          "internalType": "bytes",
          "name": "userData",
          "type": "bytes"
        }
      ],
      "name": "queryExit",
      "outputs": [
        {
          "internalType": "uint256",
          "name": "bptIn",
          "type": "uint256"
        },
        {
          "internalType": "uint256[]",
          "name": "amountsOut",
          "type": "uint256[]"
        }
      ],
      "stateMutability": "view",
      "type": "function"
    },
    {
      "inputs": [
        {
          "internalType": "bytes32",
          "name": "poolId",
          "type": "bytes32"
        },
        {
          "internalType": "address",
          "name": "sender",
          "type": "address"
        },
        {
          "internalType": "address",
          "name": "recipient",
          "type": "address"
        },
        {
          "internalType": "uint256[]",
          "name": "balances",
          "type": "uint256[]"
        },
        {
          "internalType": "uint256",
          "name": "lastChangeBlock",
          "type": "uint256"
        },
        {
          "internalType": "uint256",
          "name": "protocolSwapFeePercentage",
          "type": "uint256"
        },
        {
          "internalType": "bytes",
          "name": "userData",
          "type": "bytes"
        }
      ],
      "name": "queryJoin",
      "outputs": [
        {
          "internalType": "uint256",
          "name": "bptOut",
          "type": "uint256"
        },
        {
          "internalType": "uint256[]",
          "name": "amountsIn",
          "type": "uint256[]"
        }
      ],
      "stateMutability": "view",
      "type": "function"
    },
    {
      "inputs": [
        {
          "internalType": "contract IERC20",
          "name": "token",
          "type": "address"
        },
        {
          "internalType": "bytes",
          "name": "poolConfig",
          "type": "bytes"
        }
      ],
      "name": "setAssetManagerPoolConfig",
      "outputs": [],
      "stateMutability": "nonpayable",
      "type": "function"
    },
    {
      "inputs": [
        {
          "internalType": "uint256",
          "name": "swapFeePercentage",
          "type": "uint256"
        }
      ],
      "name": "setSwapFeePercentage",
      "outputs": [],
      "stateMutability": "nonpayable",
      "type": "function"
    },
    {
      "inputs": [],
      "name": "symbol",
      "outputs": [
        {
          "internalType": "string",
          "name": "",
          "type": "string"
        }
      ],
      "stateMutability": "view",
      "type": "function"
    },
    {
      "inputs": [],
      "name": "totalSupply",
      "outputs": [
        {
          "internalType": "uint256",
          "name": "",
          "type": "uint256"
        }
      ],
      "stateMutability": "view",
      "type": "function"
    },
    {
      "inputs": [
        {
          "internalType": "address",
          "name": "recipient",
          "type": "address"
        },
        {
          "internalType": "uint256",
          "name": "amount",
          "type": "uint256"
        }
      ],
      "name": "transfer",
      "outputs": [
        {
          "internalType": "bool",
          "name": "",
          "type": "bool"
        }
      ],
      "stateMutability": "nonpayable",
      "type": "function"
    },
    {
      "inputs": [
        {
          "internalType": "address",
          "name": "sender",
          "type": "address"
        },
        {
          "internalType": "address",
          "name": "recipient",
          "type": "address"
        },
        {
          "internalType": "uint256",
          "name": "amount",
          "type": "uint256"
        }
      ],
      "name": "transferFrom",
      "outputs": [
        {
          "internalType": "bool",
          "name": "",
          "type": "bool"
        }
      ],
      "stateMutability": "nonpayable",
      "type": "function"
    },
    {
      "inputs": [],
      "name": "unpause",
      "outputs": [],
      "stateMutability": "nonpayable",
      "type": "function"
    }
  ],
  "bytecode": "0x6103806040523480156200001257600080fd5b50604051620050fd380380620050fd833981016040819052620000359162000b5f565b846000856000015186602001516200005d8860400151896060015130620004ef60201b60201c565b604080516003808252608082019092529060208201606080368337019050508960e00151898989828289898d85336001600160a01b031660001b8480604051806040016040528060018152602001603160f81b81525087878160039080519060200190620000cd92919062000a10565b508051620000e390600490602084019062000a10565b50506005805460ff19166012179055508151602092830120608052805191012060a052507f8b73c3c69bb8fe3d512ecc4cf759cc79239f7b179b0ffacaa9a75d522b39400f60c05260e0526001600160601b0319606091821b81166101005291901b1661012052506200016190506276a700831115610194620005be565b6200017562278d00821115610195620005be565b429091016101408190520161016052855162000197906002111560c8620005be565b620001b1620001a5620005d3565b8751111560c9620005be565b620001c786620005d860201b620011111760201c565b620001d284620005e4565b6040516309b2760f60e01b81526000906001600160a01b038c16906309b2760f9062000203908d9060040162000d7d565b602060405180830381600087803b1580156200021e57600080fd5b505af115801562000233573d6000803e3d6000fd5b505050506040513d601f19601f8201168201806040525081019062000259919062000b27565b604051633354e3e960e11b81529091506001600160a01b038c16906366a9c7d2906200028e9084908b908b9060040162000ce1565b600060405180830381600087803b158015620002a957600080fd5b505af1158015620002be573d6000803e3d6000fd5b505050508061018081815250508a6001600160a01b031663d2946c2b6040518163ffffffff1660e01b815260040160206040518083038186803b1580156200030557600080fd5b505afa1580156200031a573d6000803e3d6000fd5b505050506040513d601f19601f8201168201806040525081019062000340919062000b40565b6001600160a01b03166101a0816001600160a01b031660601b81525050505050505050505050505083604001516001600160a01b03166101c0816001600160a01b031660601b8152505083606001516001600160a01b03166101e0816001600160a01b031660601b815250506000806000620003cc87604001518860600151306200067860201b60201c565b61030083905261032082905261034081905260408a01519295509093509150620003f6906200076e565b6102005260608701516200040a906200076e565b6102205260808701516102405260a08701516102605260e08701516102805260c08701516102a0526101008701516102c052426102e05261012087015180516200045d9160099160209091019062000a10565b50836001600160a01b0316610360816001600160a01b031660601b8152505086604001516001600160a01b03167fcc19f8fbf7b272756fdb594e385d63f8d5cdd71b279584121ec82542123c93888860a0015189606001518a60c001518b61010001518c6101200151604051620004d995949392919062000d9b565b60405180910390a2505050505050505062000e70565b6060600080806200050287878762000678565b60408051600380825260808201909252939650919450925060208201606080368337019050509350868484815181106200053857fe5b60200260200101906001600160a01b031690816001600160a01b031681525050858483815181106200056657fe5b60200260200101906001600160a01b031690816001600160a01b031681525050848482815181106200059457fe5b60200260200101906001600160a01b031690816001600160a01b0316815250505050509392505050565b81620005cf57620005cf8162000842565b5050565b600390565b80620005cf8162000857565b620005fd620005f2620008e3565b82101560cb620005be565b620006166200060b620008ec565b82111560ca620005be565b620006388160c0603f600854620008f860201b6200111b17909392919060201c565b6008556040517fa9ba3ffe0b6c366b81232caab38605a0699ad5398d6cce76f91ee809e322dafc906200066d90839062000d92565b60405180910390a150565b6000806000846001600160a01b0316866001600160a01b031610156200070157836001600160a01b0316856001600160a01b03161015620006c457506000915060019050600262000765565b836001600160a01b0316866001600160a01b03161015620006f057506000915060029050600162000765565b506001915060029050600062000765565b846001600160a01b0316846001600160a01b031610156200072d57506002915060019050600062000765565b856001600160a01b0316846001600160a01b031610156200075957506002915060009050600162000765565b50600191506000905060025b93509350939050565b60006001600160a01b038216301415620007925750670de0b6b3a76400006200083d565b6000826001600160a01b031663313ce5676040518163ffffffff1660e01b815260040160206040518083038186803b158015620007ce57600080fd5b505afa158015620007e3573d6000803e3d6000fd5b505050506040513d601f19601f8201168201806040525081019062000809919062000cbe565b60ff1690506000620008286012836200091d60201b6200113e1760201c565b905080600a0a670de0b6b3a764000002925050505b919050565b62000854816210905360ea1b6200093a565b50565b600281511015620008685762000854565b6000816000815181106200087857fe5b602002602001015190506000600190505b8251811015620008de576000838281518110620008a257fe5b60200260200101519050620008d3816001600160a01b0316846001600160a01b0316106065620005be60201b60201c565b915060010162000889565b505050565b64e8d4a5100090565b67016345785d8a000090565b6000620009078484846200099b565b506001901b60001901811b1992909216911b1790565b60006200092f838311156001620005be565b508082035b92915050565b62461bcd60e51b600090815260206004526007602452600a808404818106603090810160081b958390069590950190829004918206850160101b01602363ffffff0060e086901c160160181b0190930160c81b60445260e882901c90606490fd5b620009ac61010083106064620005be565b620009e560018210158015620009dd5750620009d960ff8461010003620009f660201b620011541760201c565b8211155b6064620005be565b620008de83821c156101b4620005be565b600081831062000a07578162000a09565b825b9392505050565b828054600181600116156101000203166002900490600052602060002090601f016020900481019282601f1062000a5357805160ff191683800117855562000a83565b8280016001018555821562000a83579182015b8281111562000a8357825182559160200191906001019062000a66565b5062000a9192915062000a95565b5090565b5b8082111562000a91576000815560010162000a96565b8051620009348162000e5a565b600082601f83011262000aca578081fd5b81516001600160401b0381111562000ae0578182fd5b62000af5601f8201601f191660200162000df4565b915080825283602082850101111562000b0d57600080fd5b62000b2081602084016020860162000e27565b5092915050565b60006020828403121562000b39578081fd5b5051919050565b60006020828403121562000b52578081fd5b815162000a098162000e5a565b600080600080600060a0868803121562000b77578081fd5b855162000b848162000e5a565b60208701519095506001600160401b038082111562000ba1578283fd5b818801915061014080838b03121562000bb8578384fd5b62000bc38162000df4565b905082518281111562000bd4578485fd5b62000be28b82860162000ab9565b82525060208301518281111562000bf7578485fd5b62000c058b82860162000ab9565b60208301525062000c1a8a6040850162000aac565b604082015262000c2e8a6060850162000aac565b60608201526080830151608082015260a083015160a082015260c083015160c082015260e083015160e0820152610100808401518183015250610120808401518381111562000c7b578586fd5b62000c898c82870162000ab9565b828401525050809650505050604086015192506060860151915062000cb2876080880162000aac565b90509295509295909350565b60006020828403121562000cd0578081fd5b815160ff8116811462000a09578182fd5b60006060820185835260206060818501528186518084526080860191508288019350845b8181101562000d2d5762000d1a855162000e1b565b8352938301939183019160010162000d05565b505084810360408601528551808252908201925081860190845b8181101562000d6f5762000d5c835162000e1b565b8552938301939183019160010162000d47565b509298975050505050505050565b602081016003831062000d8c57fe5b91905290565b90815260200190565b600086825260018060a01b038616602083015284604083015283606083015260a0608083015282518060a084015262000ddc8160c085016020870162000e27565b601f01601f19169190910160c0019695505050505050565b6040518181016001600160401b038111828210171562000e1357600080fd5b604052919050565b6001600160a01b031690565b60005b8381101562000e4457818101518382015260200162000e2a565b8381111562000e54576000848401525b50505050565b6001600160a01b03811681146200085457600080fd5b60805160a05160c05160e0516101005160601c6101205160601c6101405161016051610180516101a05160601c6101c05160601c6101e05160601c61020051610220516102405161026051610280516102a0516102c0516102e0516103005161032051610340516103605160601c61406f6200108e60003980611e0d528061236c5280612733525080610c1f52806112b75280613043525080610e54528061126252806121e7528061222252806122b252806122ef528061253552806125df5280612a3c5280612a945280612ad75280612b265280612c565280612cfb5280612d73525080610aed52806111fc52806120da52806121a25280612264528061257852806125b3528061262652806126e2528061291e52806129ec5280612a685280612c055280612d475280612d9f5280612dd252508061062c52508061064d52806110ef525080610d30525050806106e95280610a8a5250806106c35280610e8f52508061128a525080611224525080610aae528061136e528061141952806120965280612179528061250b52806127c752806128dc52806129c25280612cd252508061094a528061131e52806113d0528061215452806123de52806124a352806124e652806127a5528061299d5280612bc15280612cad525080610ed652508061099d5250806115175250806114f3525080610cf1525080610ccd525080610c57525080611ed1525080611f13525080611ef2525061406f6000f3fe608060405234801561001057600080fd5b50600436106103155760003560e01c80637ecebe00116101a7578063a7488bb7116100ee578063d2946c2b11610097578063dd62ed3e11610071578063dd62ed3e146105b9578063ed24911d146105cc578063f1493ee1146105d457610315565b8063d2946c2b1461058b578063d505accf14610593578063d5c096c4146105a657610315565b8063ac4316cb116100c8578063ac4316cb14610573578063b35056b81461057b578063b7b814fc1461058357610315565b8063a7488bb714610550578063a9059cbb14610558578063aaabadc51461056b57610315565b80638d928af81161015057806395d89b411161012a57806395d89b411461052d5780639c0e5d1314610535578063a457c2d71461053d57610315565b80638d928af81461050a57806390193b7c1461051257806395c95a4f1461052557610315565b8063851c1bb311610181578063851c1bb3146104dc57806387ec6817146104ef578063893d20e81461050257610315565b80637ecebe00146104b957806382687a56146104cc5780638456cb59146104d457610315565b806338fff2d01161026b5780636028bfd41161021457806370a08231116101ee57806370a082311461047d57806372f3824d1461049057806374f3b0091461049857610315565b80636028bfd41461044c5780636482c9d31461046d5780636945c1fd1461047557610315565b806350dd6ed91161024557806350dd6ed91461042957806354a844ba1461043c57806355c676281461044457610315565b806338fff2d014610406578063395093511461040e5780633f4ba83a1461042157610315565b80631dd746ea116102cd578063313ce567116102a7578063313ce567146103d45780633644e515146103e957806338e9922e146103f157610315565b80631dd746ea1461039757806323b872dd146103ac5780632541897f146103bf57610315565b8063095ea7b3116102fe578063095ea7b31461035857806318160ddd146103785780631c0de0511461038057610315565b806301ec954a1461031a57806306fdde0314610343575b600080fd5b61032d610328366004613973565b6105dc565b60405161033a9190613ce8565b60405180910390f35b61034b6107e7565b60405161033a9190613e06565b61036b6103663660046136e8565b61087d565b60405161033a9190613cc5565b61032d610894565b61038861089a565b60405161033a93929190613cd0565b61039f6108c3565b60405161033a9190613c84565b61036b6103ba366004613638565b6108d2565b6103c7610948565b60405161033a9190613c3c565b6103dc61096c565b60405161033a9190613fb3565b61032d610975565b6104046103ff366004613a92565b61097f565b005b61032d61099b565b61036b61041c3660046136e8565b6109bf565b6104046109fa565b610404610437366004613832565b610a0e565b610404610a2c565b61032d610a3e565b61045f61045a366004613733565b610a51565b60405161033a929190613f9a565b61032d610a88565b6103c7610aac565b61032d61048b3660046135e4565b610ad0565b61032d610aeb565b6104ab6104a6366004613733565b610b0f565b60405161033a929190613c97565b61032d6104c73660046135e4565b610c12565b61032d610c1d565b610404610c41565b61032d6104ea3660046137d6565b610c53565b61045f6104fd366004613733565b610ca5565b6103c7610ccb565b6103c7610cef565b61032d6105203660046135e4565b610d13565b61032d610d2e565b61034b610d52565b61034b610db3565b61036b61054b3660046136e8565b610e14565b61032d610e52565b61036b6105663660046136e8565b610e76565b6103c7610e83565b61032d610e8d565b61036b610eb1565b610404610ec2565b6103c7610ed4565b6104046105a1366004613678565b610ef8565b6104ab6105b4366004613733565b610f83565b61032d6105c7366004613600565b6110a6565b61032d6110e3565b61032d6110ed565b600084608001516106096105ee610cef565b6001600160a01b0316336001600160a01b03161460cd61116a565b61061e61061461099b565b82146101f461116a565b610626611178565b426106717f00000000000000000000000000000000000000000000000000000000000000007f000000000000000000000000000000000000000000000000000000000000000061118b565b10156106985760405162461bcd60e51b815260040161068f90613f63565b60405180910390fd5b60606106a261119b565b90506106ac6134b8565b60405180606001604052806106bf610a3e565b81527f000000000000000000000000000000000000000000000000000000000000000060208201527f0000000000000000000000000000000000000000000000000000000000000000604090910152905060008851600181111561071f57fe5b141561078157610746886060015183888151811061073957fe5b602002602001015161130e565b6060890152600061075889898461131a565b90506107778184888151811061076a57fe5b60200260200101516113c0565b94505050506107de565b60018851600181111561079057fe5b14156107db576107aa886060015183878151811061073957fe5b606089015260006107bc8989846113cc565b9050610777818489815181106107ce57fe5b6020026020010151611460565b50505b50949350505050565b60038054604080516020601f60026000196101006001881615020190951694909404938401819004810282018101909252828152606093909290918301828280156108735780601f1061084857610100808354040283529160200191610873565b820191906000526020600020905b81548152906001019060200180831161085657829003601f168201915b5050505050905090565b600061088a33848461146c565b5060015b92915050565b60025490565b60008060006108a76114d4565b1592506108b26114f1565b91506108bc611515565b9050909192565b60606108cd61119b565b905090565b6000806108df85336110a6565b9050610903336001600160a01b03871614806108fb5750838210155b61019e61116a565b61090e858585611539565b336001600160a01b0386161480159061092957506000198114155b1561093b5761093b853385840361146c565b60019150505b9392505050565b7f000000000000000000000000000000000000000000000000000000000000000090565b60055460ff1690565b60006108cd6110e3565b610987611619565b61098f611178565b6109988161165f565b50565b7f000000000000000000000000000000000000000000000000000000000000000090565b3360008181526001602090815260408083206001600160a01b0387168452909152812054909161088a9185906109f590866116d8565b61146c565b610a02611619565b610a0c60006116ea565b565b610a16611619565b610a1e611178565b610a28828261177b565b5050565b610a34611619565b610a0c6001611889565b6008546000906108cd9060c0603f6118e0565b60006060610a678651610a626118ef565b6118f4565b610a7c898989898989896119016119536119c2565b97509795505050505050565b7f000000000000000000000000000000000000000000000000000000000000000090565b7f000000000000000000000000000000000000000000000000000000000000000090565b6001600160a01b031660009081526020819052604090205490565b7f000000000000000000000000000000000000000000000000000000000000000090565b60608088610b1e6105ee610cef565b610b2961061461099b565b60606000610b3686611b77565b15610b5e57610b43611ba6565b610b5589610b4f610894565b88611bb9565b92509050610bb0565b610b66611be5565b6060610b7061119b565b9050610b7c8a82611bed565b610ba08d8d8d8d8d610b8c610eb1565b610b96578d610b99565b60005b878e611901565b93509150610bae8382611953565b505b610bba8b82611c56565b81895167ffffffffffffffff81118015610bd357600080fd5b50604051908082528060200260200182016040528015610bfd578160200160208202803683370190505b509450945050505b5097509795505050505050565b600061088e82610d13565b7f000000000000000000000000000000000000000000000000000000000000000090565b610c49611619565b610a0c60016116ea565b60007f000000000000000000000000000000000000000000000000000000000000000082604051602001610c88929190613bc6565b604051602081830303815290604052805190602001209050919050565b60006060610cb68651610a626118ef565b610a7c89898989898989611c60611c7c6119c2565b7f000000000000000000000000000000000000000000000000000000000000000090565b7f000000000000000000000000000000000000000000000000000000000000000090565b6001600160a01b031660009081526006602052604090205490565b7f000000000000000000000000000000000000000000000000000000000000000090565b60048054604080516020601f60026000196101006001881615020190951694909404938401819004810282018101909252828152606093909290918301828280156108735780601f1061084857610100808354040283529160200191610873565b60098054604080516020601f60026000196101006001881615020190951694909404938401819004810282018101909252828152606093909290918301828280156108735780601f1061084857610100808354040283529160200191610873565b600080610e2133856110a6565b9050808310610e3b57610e363385600061146c565b610e48565b610e48338585840361146c565b5060019392505050565b7f000000000000000000000000000000000000000000000000000000000000000090565b600061088a338484611539565b60006108cd611ce5565b7f000000000000000000000000000000000000000000000000000000000000000090565b6008546000906108cd9060ff611d5f565b610eca611619565b610a0c6000611889565b7f000000000000000000000000000000000000000000000000000000000000000090565b60007f6e71edae12b1b97f4d1f60370fef10105fa2faae0126114a169c64845d6126c9888888610f278c610d13565b89604051602001610f3d96959493929190613d50565b604051602081830303815290604052805190602001209050610f6e8882610f65878787611d69565b886101f8611da8565b610f7988888861146c565b5050505050505050565b60608088610f926105ee610cef565b610f9d61061461099b565b610fa5611be5565b6060610faf61119b565b9050610fb9610894565b6110665760006060610fce8d8d8d868b611dff565b91509150610fe7610fdd611e91565b83101560cc61116a565b610ff96000610ff4611e91565b611e98565b61100c8b611005611e91565b8403611e98565b6110168184611c7c565b808a5167ffffffffffffffff8111801561102f57600080fd5b50604051908082528060200260200182016040528015611059578160200160208202803683370190505b5095509550505050610c05565b6110708882611bed565b600060606110988d8d8d8d8d611084610eb1565b61108e578d611091565b60005b898e611c60565b9150915061100c8b83611e98565b60006110b0610cef565b6001600160a01b0316826001600160a01b031614156110d2575060001961088e565b6110dc8383611ea2565b905061088e565b60006108cd611ecd565b7f000000000000000000000000000000000000000000000000000000000000000090565b80610a2881611f6a565b6000611128848484611fe8565b506001901b60001901811b1992909216911b1790565b600061114e83831115600161116a565b50900390565b60008183106111635781610941565b5090919050565b81610a2857610a288161202f565b610a0c6111836114d4565b61019261116a565b8181018281101561088e57600080fd5b606060006111a76118ef565b905060608167ffffffffffffffff811180156111c257600080fd5b506040519080825280602002602001820160405280156111ec578160200160208202803683370190505b50905060005b82811015611307577f0000000000000000000000000000000000000000000000000000000000000000811415611260577f000000000000000000000000000000000000000000000000000000000000000082828151811061124f57fe5b6020026020010181815250506112ff565b7f00000000000000000000000000000000000000000000000000000000000000008114156112b5577f000000000000000000000000000000000000000000000000000000000000000082828151811061124f57fe5b7f00000000000000000000000000000000000000000000000000000000000000008114156112ff57670de0b6b3a76400008282815181106112f257fe5b6020026020010181815250505b6001016111f2565b5091505090565b60006109418383612059565b60007f00000000000000000000000000000000000000000000000000000000000000006001600160a01b031684602001516001600160a01b0316141561136c5761136584848461208f565b9050610941565b7f00000000000000000000000000000000000000000000000000000000000000006001600160a01b031684602001516001600160a01b031614156113b55761136584848461249c565b61094161013561202f565b60006109418383612884565b60007f00000000000000000000000000000000000000000000000000000000000000006001600160a01b031684604001516001600160a01b03161415611417576113658484846128d5565b7f00000000000000000000000000000000000000000000000000000000000000006001600160a01b031684604001516001600160a01b031614156113b557611365848484612bba565b60006109418383612e3e565b6001600160a01b0380841660008181526001602090815260408083209487168084529490915290819020849055517f8c5be1e5ebec7d5bd14f71427d1e84f3dd0314c0f7b2291e5b200ac8c7c3b925906114c7908590613ce8565b60405180910390a3505050565b60006114de611515565b4211806108cd57505060075460ff161590565b7f000000000000000000000000000000000000000000000000000000000000000090565b7f000000000000000000000000000000000000000000000000000000000000000090565b6115506001600160a01b038416151561019861116a565b6115676001600160a01b038316151561019961116a565b611572838383611fe3565b6001600160a01b03831660009081526020819052604090205461159890826101a0612e8c565b6001600160a01b0380851660009081526020819052604080822093909355908416815220546115c790826116d8565b6001600160a01b0380841660008181526020819052604090819020939093559151908516907fddf252ad1be2c89b69c2b068fc378daa952ba7f163c4a11628f55a4df523b3ef906114c7908590613ce8565b60006116486000357fffffffff0000000000000000000000000000000000000000000000000000000016610c53565b90506109986116578233612ea2565b61019161116a565b61167461166a612f8b565b82101560cb61116a565b61168961167f612f94565b82111560ca61116a565b60085461169a908260c0603f61111b565b6008556040517fa9ba3ffe0b6c366b81232caab38605a0699ad5398d6cce76f91ee809e322dafc906116cd908390613ce8565b60405180910390a150565b6000828201610941848210158361116a565b801561170a576117056116fb6114f1565b421061019361116a565b61171f565b61171f611715611515565b42106101a961116a565b600780547fffffffffffffffffffffffffffffffffffffffffffffffffffffffffffffff00168215151790556040517f9e3a5e37224532dea67b89face185703738a228a6e8a23dee546960180d3be64906116cd908390613cc5565b600061178561099b565b90506000611791610cef565b6001600160a01b031663b05f8e4883866040518363ffffffff1660e01b81526004016117be929190613dd1565b60806040518083038186803b1580156117d657600080fd5b505afa1580156117ea573d6000803e3d6000fd5b505050506040513d601f19601f8201168201806040525081019061180e9190613aaa565b6040517f18e736d40000000000000000000000000000000000000000000000000000000081529094506001600160a01b03851693506318e736d4925061185b915085908790600401613db0565b600060405180830381600087803b15801561187557600080fd5b505af1158015610f79573d6000803e3d6000fd5b600854611898908260ff612fa0565b6008556040517feff3d4d215b42bf0960be9c6d5e05c22cba4df6627a3a523e2acee733b5854c8906118cb908390613cc5565b60405180910390a18061099857610998610a0c565b6001901b6000190191901c1690565b600390565b610a28818314606761116a565b60006060600061191084612fc7565b9050600181600181111561192057fe5b146119355761193061016261202f565b611945565b61193f8885612fdd565b90935091505b509850989650505050505050565b815181516119629082906118f4565b60005b818110156119bc5761199d84828151811061197c57fe5b602002602001015184838151811061199057fe5b6020026020010151612884565b8482815181106119a957fe5b6020908102919091010152600101611965565b50505050565b333014611ab1576000306001600160a01b03166000366040516119e6929190613bf6565b6000604051808303816000865af19150503d8060008114611a23576040519150601f19603f3d011682016040523d82523d6000602084013e611a28565b606091505b505090508060008114611a3757fe5b60046000803e6000517fffffffff00000000000000000000000000000000000000000000000000000000167f43adbafb000000000000000000000000000000000000000000000000000000008114611a93573d6000803e3d6000fd5b506020600460003e604060205260243d03602460403e601c3d016000f35b611ab9611be5565b6060611ac361119b565b9050611acf8782611bed565b60006060611ae78c8c8c8c8c8c898d8d63ffffffff16565b91509150611af981848663ffffffff16565b80517fffffffffffffffffffffffffffffffffffffffffffffffffffffffffffffffe082018390526343adbafb7fffffffffffffffffffffffffffffffffffffffffffffffffffffffffffffffc08301526020027fffffffffffffffffffffffffffffffffffffffffffffffffffffffffffffffdc82016044820181fd5b600080825111801561088e575060ff801682806020019051810190611b9c9190613aea565b60ff161492915050565b610a0c611bb1610eb1565b6101b661116a565b600060606000611bc8846130a9565b90506060611bd78787846130bf565b919791965090945050505050565b610a0c611178565b81518151611bfc9082906118f4565b60005b818110156119bc57611c37848281518110611c1657fe5b6020026020010151848381518110611c2a57fe5b6020026020010151612059565b848281518110611c4357fe5b6020908102919091010152600101611bff565b610a288282613158565b60006060611c6f61016261202f565b9850989650505050505050565b81518151611c8b9082906118f4565b60005b818110156119bc57611cc6848281518110611ca557fe5b6020026020010151848381518110611cb957fe5b6020026020010151612e3e565b848281518110611cd257fe5b6020908102919091010152600101611c8e565b6000611cef610cef565b6001600160a01b031663aaabadc56040518163ffffffff1660e01b815260040160206040518083038186803b158015611d2757600080fd5b505afa158015611d3b573d6000803e3d6000fd5b505050506040513d601f19601f820116820180604052508101906108cd9190613816565b1c60019081161490565b60408051604180825260808201909252606091829190602082018180368337019050509050836020820152826040820152846060820153949350505050565b6000611db385613224565b9050611dc9611dc3878387613240565b8361116a565b611dd8428410156101b861116a565b5050506001600160a01b039092166000908152600660205260409020805460010190555050565b60006060611e0b611178565b7f0000000000000000000000000000000000000000000000000000000000000000611e466001600160a01b038881169083161461015661116a565b611e66816001600160a01b0316876001600160a01b03161461015661116a565b6dffffffffffffffffffffffffffff6060611e808661330d565b919a91995090975050505050505050565b620f424090565b610a288282613323565b6001600160a01b03918216600090815260016020908152604080832093909416825291909152205490565b60007f00000000000000000000000000000000000000000000000000000000000000007f00000000000000000000000000000000000000000000000000000000000000007f0000000000000000000000000000000000000000000000000000000000000000611f3a6133b6565b30604051602001611f4f959493929190613d84565b60405160208183030381529060405280519060200120905090565b600281511015611f7957610998565b600081600081518110611f8857fe5b602002602001015190506000600190505b8251811015611fe3576000838281518110611fb057fe5b60200260200101519050611fd9816001600160a01b0316846001600160a01b031610606561116a565b9150600101611f99565b505050565b611ff76101008310606461116a565b61202060018210158015612019575061201560ff8461010003611154565b8211155b606461116a565b611fe383821c156101b461116a565b610998817f42414c00000000000000000000000000000000000000000000000000000000006133ba565b600082820261207d84158061207657508385838161207357fe5b04145b600361116a565b670de0b6b3a764000090049392505050565b60006120d57f00000000000000000000000000000000000000000000000000000000000000006001600160a01b031685604001516001600160a01b03161461013561116a565b6000837f00000000000000000000000000000000000000000000000000000000000000008151811061210357fe5b6020026020010151116121285760405162461bcd60e51b815260040161068f90613f2c565b8160400151846060015110156121505760405162461bcd60e51b815260040161068f90613e87565b60007f0000000000000000000000000000000000000000000000000000000000000000905060007f0000000000000000000000000000000000000000000000000000000000000000905060006121dd867f0000000000000000000000000000000000000000000000000000000000000000815181106121cb57fe5b602002602001015188606001516116d8565b905060006122a8877f00000000000000000000000000000000000000000000000000000000000000008151811061221057fe5b60200260200101516122a3612261858b7f00000000000000000000000000000000000000000000000000000000000000008151811061224b57fe5b602002602001015161288490919063ffffffff16565b8a7f00000000000000000000000000000000000000000000000000000000000000008151811061228d57fe5b602002602001015161205990919063ffffffff16565b61113e565b905060006122e9887f0000000000000000000000000000000000000000000000000000000000000000815181106122db57fe5b60200260200101518361113e565b905081887f00000000000000000000000000000000000000000000000000000000000000008151811061231857fe5b60200260200101511161233d5760405162461bcd60e51b815260040161068f90613e19565b602087015161234c8285612884565b101561236a5760405162461bcd60e51b815260040161068f90613ef5565b7f00000000000000000000000000000000000000000000000000000000000000006001600160a01b0316638ac316f16123a161099b565b60608c015160c08d01516040517fffffffff0000000000000000000000000000000000000000000000000000000060e086901b16815261240d93927f00000000000000000000000000000000000000000000000000000000000000009283928a90600090600401613d10565b600060405180830381600087803b15801561242757600080fd5b505af115801561243b573d6000803e3d6000fd5b50505050846001600160a01b03167f560f9a9aa840257b3f71f9f0cc55270169408d782595c416c1042eccf7426c9c858b606001518c60c001518642604051612488959493929190613c50565b60405180910390a250979650505050505050565b60006124e27f00000000000000000000000000000000000000000000000000000000000000006001600160a01b031685604001516001600160a01b03161461013561116a565b60007f0000000000000000000000000000000000000000000000000000000000000000905060007f00000000000000000000000000000000000000000000000000000000000000009050600080612570877f00000000000000000000000000000000000000000000000000000000000000008151811061255e57fe5b602002602001015189606001516116d8565b9050612608877f0000000000000000000000000000000000000000000000000000000000000000815181106125a157fe5b60200260200101516122a36125dc848b7f00000000000000000000000000000000000000000000000000000000000000008151811061224b57fe5b8a7f00000000000000000000000000000000000000000000000000000000000000008151811061228d57fe5b9150856040015182101561261e57856040015191505b600061265d887f00000000000000000000000000000000000000000000000000000000000000008151811061264f57fe5b60200260200101518461113e565b90508061268d5786602001518210156126885760405162461bcd60e51b815260040161068f90613ef5565b6126ba565b602087015161269c8383612884565b10156126ba5760405162461bcd60e51b815260040161068f90613ef5565b86604001518310156126de5760405162461bcd60e51b815260040161068f90613e87565b82887f00000000000000000000000000000000000000000000000000000000000000008151811061270b57fe5b602002602001015110156127315760405162461bcd60e51b815260040161068f90613ebe565b7f00000000000000000000000000000000000000000000000000000000000000006001600160a01b0316638ac316f161276861099b565b60608c015160c08d01516040517fffffffff0000000000000000000000000000000000000000000000000000000060e086901b1681526127f493927f0000000000000000000000000000000000000000000000000000000000000000927f0000000000000000000000000000000000000000000000000000000000000000928b90600190600401613d10565b600060405180830381600087803b15801561280e57600080fd5b505af1158015612822573d6000803e3d6000fd5b50505050836001600160a01b03167f560f9a9aa840257b3f71f9f0cc55270169408d782595c416c1042eccf7426c9c868b606001518c60c00151874260405161286f959493929190613c50565b60405180910390a25090979650505050505050565b6000612893821515600461116a565b826128a05750600061088e565b670de0b6b3a7640000838102906128c3908583816128ba57fe5b0414600561116a565b8281816128cc57fe5b0491505061088e565b600061291b7f00000000000000000000000000000000000000000000000000000000000000006001600160a01b031685602001516001600160a01b03161461013561116a565b827f00000000000000000000000000000000000000000000000000000000000000008151811061294757fe5b60200260200101518460600151106129715760405162461bcd60e51b815260040161068f90613e50565b8160400151846060015110156129995760405162461bcd60e51b815260040161068f90613e87565b60007f0000000000000000000000000000000000000000000000000000000000000000905060007f00000000000000000000000000000000000000000000000000000000000000009050600080612a27877f000000000000000000000000000000000000000000000000000000000000000081518110612a1557fe5b6020026020010151896060015161113e565b90508015612ad157612aca612a91612a65838a7f00000000000000000000000000000000000000000000000000000000000000008151811061224b57fe5b897f00000000000000000000000000000000000000000000000000000000000000008151811061228d57fe5b887f000000000000000000000000000000000000000000000000000000000000000081518110612abd57fe5b602002602001015161113e565b9150612b1e565b612b1b877f000000000000000000000000000000000000000000000000000000000000000081518110612b0057fe5b6020026020010151896060015161205990919063ffffffff16565b91505b6000612b5d887f000000000000000000000000000000000000000000000000000000000000000081518110612b4f57fe5b6020026020010151846116d8565b905081612b8d578660200151811015612b885760405162461bcd60e51b815260040161068f90613ef5565b612731565b6020870151612b9c8284612884565b10156127315760405162461bcd60e51b815260040161068f90613ef5565b6000612c007f00000000000000000000000000000000000000000000000000000000000000006001600160a01b031685602001516001600160a01b03161461013561116a565b6000837f000000000000000000000000000000000000000000000000000000000000000081518110612c2e57fe5b602002602001015111612c535760405162461bcd60e51b815260040161068f90613f2c565b827f000000000000000000000000000000000000000000000000000000000000000081518110612c7f57fe5b6020026020010151846060015110612ca95760405162461bcd60e51b815260040161068f90613e50565b60007f0000000000000000000000000000000000000000000000000000000000000000905060007f000000000000000000000000000000000000000000000000000000000000000090506000612d36867f000000000000000000000000000000000000000000000000000000000000000081518110612d2457fe5b6020026020010151886060015161113e565b90506000612dc8612d9c612d70848a7f00000000000000000000000000000000000000000000000000000000000000008151811061224b57fe5b897f00000000000000000000000000000000000000000000000000000000000000008151811061228d57fe5b887f000000000000000000000000000000000000000000000000000000000000000081518110612abd57fe5b90506000612e09887f000000000000000000000000000000000000000000000000000000000000000081518110612dfb57fe5b6020026020010151836116d8565b90508660400151821015612e2f5760405162461bcd60e51b815260040161068f90613e87565b602087015161234c8483612884565b6000612e4d821515600461116a565b82612e5a5750600061088e565b670de0b6b3a764000083810290612e74908583816128ba57fe5b826001820381612e8057fe5b0460010191505061088e565b6000612e9b848411158361116a565b5050900390565b600073ba1ba1ba1ba1ba1ba1ba1ba1ba1ba1ba1ba1ba1b612ec1610ccb565b6001600160a01b031614158015612edc5750612edc8361341b565b15612f0457612ee9610ccb565b6001600160a01b0316336001600160a01b031614905061088e565b612f0c611ce5565b6001600160a01b0316639be2a8848484306040518463ffffffff1660e01b8152600401612f3b93929190613cf1565b60206040518083038186803b158015612f5357600080fd5b505afa158015612f67573d6000803e3d6000fd5b505050506040513d601f19601f820116820180604052508101906110dc9190613713565b64e8d4a5100090565b67016345785d8a000090565b60006001821b1984168284612fb6576000612fb9565b60015b60ff16901b17949350505050565b60008180602001905181019061088e9190613880565b600060606000612fec84613489565b90506060855167ffffffffffffffff8111801561300857600080fd5b50604051908082528060200260200182016040528015613032578160200160208202803683370190505b50905060005b865181101561309d577f000000000000000000000000000000000000000000000000000000000000000081146130955786818151811061307457fe5b602002602001015182828151811061308857fe5b6020026020010181815250505b600101613038565b50909590945092505050565b6000818060200190518101906109419190613b06565b606060006130cd8385612884565b9050845167ffffffffffffffff811180156130e757600080fd5b50604051908082528060200260200182016040528015613111578160200160208202803683370190505b50915060005b855181101561314f576131308287838151811061228d57fe5b83828151811061313c57fe5b6020908102919091010152600101613117565b50509392505050565b61316f6001600160a01b038316151561019b61116a565b61317b82600083611fe3565b6001600160a01b0382166000908152602081905260409020546131a190826101b2612e8c565b6001600160a01b0383166000908152602081905260409020556131d46131cf826131c9610894565b9061349f565b6134ad565b60006001600160a01b0316826001600160a01b03167fddf252ad1be2c89b69c2b068fc378daa952ba7f163c4a11628f55a4df523b3ef836040516132189190613ce8565b60405180910390a35050565b600061322e611ecd565b82604051602001610c88929190613c06565b600061325282516041146101b961116a565b60208281015160408085015160608601518251600080825295019283905292939092811a9160019061328b908990859088908890613de8565b6020604051602081039080840390855afa1580156132ad573d6000803e3d6000fd5b50506040517fffffffffffffffffffffffffffffffffffffffffffffffffffffffffffffffe001519150506001600160a01b038116158015906133015750876001600160a01b0316816001600160a01b0316145b98975050505050505050565b60608180602001905181019061094191906138c9565b61332f60008383611fe3565b6133446131cf8261333e610894565b906116d8565b6001600160a01b03821660009081526020819052604090205461336790826116d8565b6001600160a01b0383166000818152602081905260408082209390935591519091907fddf252ad1be2c89b69c2b068fc378daa952ba7f163c4a11628f55a4df523b3ef90613218908590613ce8565b4690565b62461bcd60e51b600090815260206004526007602452600a808404818106603090810160081b958390069590950190829004918206850160101b01602363ffffff0060e086901c160160181b0190930160c81b60445260e882901c90606490fd5b60006134467f38e9922e00000000000000000000000000000000000000000000000000000000610c53565b82148061347a57506134777f50dd6ed900000000000000000000000000000000000000000000000000000000610c53565b82145b8061088e575061088e826134b2565b600081806020019051810190610941919061389c565b600061094183836001612e8c565b600255565b50600090565b60405180606001604052806000815260200160008152602001600081525090565b803561088e81614008565b600082601f8301126134f4578081fd5b813561350761350282613fe8565b613fc1565b81815291506020808301908481018184028601820187101561352857600080fd5b60005b848110156135475781358452928201929082019060010161352b565b505050505092915050565b600082601f830112613562578081fd5b813567ffffffffffffffff811115613578578182fd5b6135a960207fffffffffffffffffffffffffffffffffffffffffffffffffffffffffffffffe0601f84011601613fc1565b91508082528360208285010111156135c057600080fd5b8060208401602084013760009082016020015292915050565b803561088e8161401d565b6000602082840312156135f5578081fd5b813561094181614008565b60008060408385031215613612578081fd5b823561361d81614008565b9150602083013561362d81614008565b809150509250929050565b60008060006060848603121561364c578081fd5b833561365781614008565b9250602084013561366781614008565b929592945050506040919091013590565b600080600080600080600060e0888a031215613692578283fd5b873561369d81614008565b965060208801356136ad81614008565b9550604088013594506060880135935060808801356136cb8161402a565b9699959850939692959460a0840135945060c09093013592915050565b600080604083850312156136fa578182fd5b823561370581614008565b946020939093013593505050565b600060208284031215613724578081fd5b81518015158114610941578182fd5b600080600080600080600060e0888a03121561374d578081fd5b87359650602088013561375f81614008565b9550604088013561376f81614008565b9450606088013567ffffffffffffffff8082111561378b578283fd5b6137978b838c016134e4565b955060808a0135945060a08a0135935060c08a01359150808211156137ba578283fd5b506137c78a828b01613552565b91505092959891949750929550565b6000602082840312156137e7578081fd5b81357fffffffff0000000000000000000000000000000000000000000000000000000081168114610941578182fd5b600060208284031215613827578081fd5b815161094181614008565b60008060408385031215613844578182fd5b823561384f81614008565b9150602083013567ffffffffffffffff81111561386a578182fd5b61387685828601613552565b9150509250929050565b600060208284031215613891578081fd5b81516109418161401d565b600080604083850312156138ae578182fd5b82516138b98161401d565b6020939093015192949293505050565b600080604083850312156138db578182fd5b8251600481106138e9578283fd5b8092505060208084015167ffffffffffffffff811115613907578283fd5b8401601f81018613613917578283fd5b805161392561350282613fe8565b81815283810190838501858402850186018a1015613941578687fd5b8694505b83851015613963578051835260019490940193918501918501613945565b5080955050505050509250929050565b60008060008060808587031215613988578182fd5b843567ffffffffffffffff8082111561399f578384fd5b818701915061012080838a0312156139b5578485fd5b6139be81613fc1565b90506139ca89846135d9565b81526139d989602085016134d9565b60208201526139eb89604085016134d9565b6040820152606083013560608201526080830135608082015260a083013560a0820152613a1b8960c085016134d9565b60c0820152613a2d8960e085016134d9565b60e08201526101008084013583811115613a45578687fd5b613a518b828701613552565b828401525050809650506020870135915080821115613a6e578384fd5b50613a7b878288016134e4565b949794965050505060408301359260600135919050565b600060208284031215613aa3578081fd5b5035919050565b60008060008060808587031215613abf578182fd5b8451935060208501519250604085015191506060850151613adf81614008565b939692955090935050565b600060208284031215613afb578081fd5b81516109418161402a565b60008060408385031215613b18578182fd5b82516138b98161402a565b6000815180845260208085019450808401835b83811015613b5257815187529582019590820190600101613b36565b509495945050505050565b60008151808452815b81811015613b8257602081850181015186830182015201613b66565b81811115613b935782602083870101525b50601f017fffffffffffffffffffffffffffffffffffffffffffffffffffffffffffffffe0169290920160200192915050565b9182527fffffffff0000000000000000000000000000000000000000000000000000000016602082015260240190565b6000828483379101908152919050565b7f190100000000000000000000000000000000000000000000000000000000000081526002810192909252602282015260420190565b6001600160a01b0391909116815260200190565b6001600160a01b03958616815260208101949094529190931660408301526060820192909252608081019190915260a00190565b6000602082526109416020830184613b23565b600060408252613caa6040830185613b23565b8281036020840152613cbc8185613b23565b95945050505050565b901515815260200190565b92151583526020830191909152604082015260600190565b90815260200190565b9283526001600160a01b03918216602084015216604082015260600190565b9687526001600160a01b03958616602088015293851660408701526060860192909252909216608084015260a0830191909152151560c082015260e00190565b9586526001600160a01b0394851660208701529290931660408501526060840152608083019190915260a082015260c00190565b9485526020850193909352604084019190915260608301526001600160a01b0316608082015260a00190565b600083825260406020830152613dc96040830184613b5d565b949350505050565b9182526001600160a01b0316602082015260400190565b93845260ff9290921660208401526040830152606082015260800190565b6000602082526109416020830184613b5d565b6020808252601d908201527f496e73756666696369656e742063757272656e63792062616c616e6365000000604082015260600190565b60208082526014908201527f496e73756666696369656e742062616c616e6365000000000000000000000000604082015260600190565b60208082526014908201527f4f726465722073697a652076696f6c6174696f6e000000000000000000000000604082015260600190565b6020808252601d908201527f496e73756666696369656e742073656375726974792062616c616e6365000000604082015260600190565b60208082526012908201527f5072696365206f7574206f6620626f756e640000000000000000000000000000604082015260600190565b6020808252600e908201527f497373756520736f6c64206f7574000000000000000000000000000000000000604082015260600190565b6020808252600e908201527f54696d654c696d6974204f766572000000000000000000000000000000000000604082015260600190565b600083825260406020830152613dc96040830184613b23565b60ff91909116815260200190565b60405181810167ffffffffffffffff81118282101715613fe057600080fd5b604052919050565b600067ffffffffffffffff821115613ffe578081fd5b5060209081020190565b6001600160a01b038116811461099857600080fd5b6002811061099857600080fd5b60ff8116811461099857600080fdfea2646970667358221220af243a45b16ab7c6047ddd0125a5c578ae7b9be147e139dad2b5a3a6f7fb33d364736f6c63430007010033",
  "linkReferences": {},
  "deployedLinkReferences": {}
}