{
  "_format": "hh-sol-artifact-1",
  "contractName": "PrimaryIssuePoolFactory",
  "sourceName": "contracts/PrimaryIssuePoolFactory.sol",
  "abi": [
    {
      "inputs": [
        {
          "internalType": "contract IVault",
          "name": "vault",
          "type": "address"
        },
        {
          "internalType": "contract IProtocolFeePercentagesProvider",
          "name": "protocolFeeProvider",
          "type": "address"
        }
      ],
      "stateMutability": "nonpayable",
      "type": "constructor"
    },
    {
      "anonymous": false,
      "inputs": [],
      "name": "FactoryDisabled",
      "type": "event"
    },
    {
      "anonymous": false,
      "inputs": [
        {
          "indexed": true,
          "internalType": "address",
          "name": "pool",
          "type": "address"
        }
      ],
      "name": "PoolCreated",
      "type": "event"
    },
    {
      "inputs": [
        {
          "components": [
            {
              "internalType": "string",
              "name": "name",
              "type": "string"
            },
            {
              "internalType": "string",
              "name": "symbol",
              "type": "string"
            },
            {
              "internalType": "address",
              "name": "security",
              "type": "address"
            },
            {
              "internalType": "address",
              "name": "currency",
              "type": "address"
            },
            {
              "internalType": "uint256",
              "name": "minimumPrice",
              "type": "uint256"
            },
            {
              "internalType": "uint256",
              "name": "basePrice",
              "type": "uint256"
            },
            {
              "internalType": "uint256",
              "name": "maxAmountsIn",
              "type": "uint256"
            },
            {
              "internalType": "uint256",
              "name": "swapFeePercentage",
              "type": "uint256"
            },
            {
              "internalType": "uint256",
              "name": "cutOffTime",
              "type": "uint256"
            },
            {
              "internalType": "string",
              "name": "offeringDocs",
              "type": "string"
            }
          ],
          "internalType": "struct IPrimaryIssuePoolFactory.FactoryPoolParams",
          "name": "_factoryPoolParams",
          "type": "tuple"
        }
      ],
      "name": "create",
      "outputs": [
        {
          "internalType": "address",
          "name": "",
          "type": "address"
        }
      ],
      "stateMutability": "nonpayable",
      "type": "function"
    },
    {
      "inputs": [],
      "name": "disable",
      "outputs": [],
      "stateMutability": "nonpayable",
      "type": "function"
    },
    {
      "inputs": [
        {
          "internalType": "bytes4",
          "name": "selector",
          "type": "bytes4"
        }
      ],
      "name": "getActionId",
      "outputs": [
        {
          "internalType": "bytes32",
          "name": "",
          "type": "bytes32"
        }
      ],
      "stateMutability": "view",
      "type": "function"
    },
    {
      "inputs": [],
      "name": "getAuthorizer",
      "outputs": [
        {
          "internalType": "contract IAuthorizer",
          "name": "",
          "type": "address"
        }
      ],
      "stateMutability": "view",
      "type": "function"
    },
    {
      "inputs": [],
      "name": "getCreationCode",
      "outputs": [
        {
          "internalType": "bytes",
          "name": "",
          "type": "bytes"
        }
      ],
      "stateMutability": "view",
      "type": "function"
    },
    {
      "inputs": [],
      "name": "getCreationCodeContracts",
      "outputs": [
        {
          "internalType": "address",
          "name": "contractA",
          "type": "address"
        },
        {
          "internalType": "address",
          "name": "contractB",
          "type": "address"
        }
      ],
      "stateMutability": "view",
      "type": "function"
    },
    {
      "inputs": [],
      "name": "getPauseConfiguration",
      "outputs": [
        {
          "internalType": "uint256",
          "name": "pauseWindowDuration",
          "type": "uint256"
        },
        {
          "internalType": "uint256",
          "name": "bufferPeriodDuration",
          "type": "uint256"
        }
      ],
      "stateMutability": "view",
      "type": "function"
    },
    {
      "inputs": [],
      "name": "getProtocolFeePercentagesProvider",
      "outputs": [
        {
          "internalType": "contract IProtocolFeePercentagesProvider",
          "name": "",
          "type": "address"
        }
      ],
      "stateMutability": "view",
      "type": "function"
    },
    {
      "inputs": [],
      "name": "getVault",
      "outputs": [
        {
          "internalType": "contract IVault",
          "name": "",
          "type": "address"
        }
      ],
      "stateMutability": "view",
      "type": "function"
    },
    {
      "inputs": [],
      "name": "isDisabled",
      "outputs": [
        {
          "internalType": "bool",
          "name": "",
          "type": "bool"
        }
      ],
      "stateMutability": "view",
      "type": "function"
    },
    {
      "inputs": [
        {
          "internalType": "address",
          "name": "pool",
          "type": "address"
        }
      ],
      "name": "isPoolFromFactory",
      "outputs": [
        {
          "internalType": "bool",
          "name": "",
          "type": "bool"
        }
      ],
      "stateMutability": "view",
      "type": "function"
    }
  ],
  "bytecode": "0x6101806040523480156200001257600080fd5b5060405162005c4238038062005c428339810160408190526200003591620001fc565b8181604051806020016200004990620001ee565b601f1982820381018352601f90910116604052805183903090839060006002820460a081905280830360e08190528185529091508362000095816200010f602090811b6200042217901c565b60601b6001600160601b0319166080528285018051838252620000c4826200010f602090811b6200042217901c565b6001600160601b0319606091821b811660c05296909352905261010095909552505092821b831661012052509290921b90911661014052505050426276a70001610160525062000250565b80517f602038038060206000396000f3fefefefefefefefefefefefefefefefefefefe808352600091602081018484f090845291506200015d6001600160a01b03831615156101ac62000163565b50919050565b816200017457620001748162000178565b5050565b6200018a816210905360ea1b6200018d565b50565b62461bcd60e51b600090815260206004526007602452600a808404818106603090810160081b958390069590950190829004918206850160101b01602363ffffff0060e086901c160160181b0190930160c81b60445260e882901c90606490fd5b614da98062000e9983390190565b600080604083850312156200020f578182fd5b82516200021c816200023a565b60208401519092506200022f816200023a565b809150509250929050565b6001600160a01b03811681146200018a57600080fd5b60805160601c60a05160c05160601c60e051610100516101205160601c6101405160601c61016051610bd0620002c96000398061023c528061026552508061031052508061038652508061033652508061047c5250806101c352806104f852508061049d5250806101a252806104d45250610bd06000f3fe608060405234801561001057600080fd5b50600436106100a85760003560e01c80636634b753116100715780636634b753146101215780636c57f5a914610141578063739238d614610149578063851c1bb3146101515780638d928af814610171578063aaabadc514610179576100a8565b8062c194db146100ad578063174481fa146100cb5780632236c4cc146100e15780632da47c40146101015780632f2770db14610117575b600080fd5b6100b5610181565b6040516100c29190610a4a565b60405180910390f35b6100d36101a0565b6040516100c29291906109fd565b6100f46100ef366004610868565b6101e6565b6040516100c291906109e9565b610109610236565b6040516100c2929190610b50565b61011f6102a0565b005b61013461012f3660046107e8565b6102e7565b6040516100c29190610a17565b610134610305565b6100f461030e565b61016461015f366004610824565b610332565b6040516100c29190610a22565b6100f4610384565b6100f46103a8565b606061019b60405180602001604052806000815250610474565b905090565b7f00000000000000000000000000000000000000000000000000000000000000007f00000000000000000000000000000000000000000000000000000000000000009091565b60008060006101f3610236565b9150915061022e610202610384565b8584843360405160200161021a959493929190610a5d565b60405160208183030381529060405261054d565b949350505050565b600080427f000000000000000000000000000000000000000000000000000000000000000081101561029257807f000000000000000000000000000000000000000000000000000000000000000003925062278d00915061029b565b60009250600091505b509091565b6102a86105b6565b6102b06105e7565b6001805460ff1916811790556040517f432acbfd662dbb5d8b378384a67159b47ca9d0f1b79f97cf64cf8585fa362d5090600090a1565b6001600160a01b031660009081526020819052604090205460ff1690565b60015460ff1690565b7f000000000000000000000000000000000000000000000000000000000000000090565b60007f0000000000000000000000000000000000000000000000000000000000000000826040516020016103679291906109d1565b604051602081830303815290604052805190602001209050919050565b7f000000000000000000000000000000000000000000000000000000000000000090565b60006103b2610384565b6001600160a01b031663aaabadc56040518163ffffffff1660e01b815260040160206040518083038186803b1580156103ea57600080fd5b505afa1580156103fe573d6000803e3d6000fd5b505050506040513d601f19601f8201168201806040525081019061019b919061084c565b80517f602038038060206000396000f3fefefefefefefefefefefefefefefefefefefe808352600091602081018484f0908452915061046e6001600160a01b03831615156101ac6105fc565b50919050565b8051604080517f00000000000000000000000000000000000000000000000000000000000000007f0000000000000000000000000000000000000000000000000000000000000000818101858101848101602090810190965280855293957f00000000000000000000000000000000000000000000000000000000000000009592947f000000000000000000000000000000000000000000000000000000000000000094938801866000828a3c846000888301883c506020898101908985010161053f81838661060e565b505050505050505050919050565b60006105576105e7565b60006105628361064c565b6001600160a01b038116600081815260208190526040808220805460ff191660011790555192935090917f83a48fbcfc991335314e74d0496aab6a1987e992ddc85dddbcc4d6dd6ef2e9fc9190a292915050565b60006105cd6000356001600160e01b031916610332565b90506105e46105dc8233610687565b6101916105fc565b50565b6105fa6105f2610305565b1560d36105fc565b565b8161060a5761060a81610719565b5050565b5b6020811061062e578151835260209283019290910190601f190161060f565b905182516020929092036101000a6000190180199091169116179052565b6000606061065983610474565b905060008151602083016000f090506001600160a01b038116610680573d6000803e3d6000fd5b9392505050565b60006106916103a8565b6001600160a01b0316639be2a8848484306040518463ffffffff1660e01b81526004016106c093929190610a2b565b60206040518083038186803b1580156106d857600080fd5b505afa1580156106ec573d6000803e3d6000fd5b505050506040513d601f19601f820116820180604052508101906107109190610804565b90505b92915050565b62461bcd60e51b600090815260206004526007602452600a808304818106603090810160081b83860601918390049283060160101b016642414c230000300160c81b6044526105e4916210905360ea1b906242414c90606490fd5b803561071381610b85565b600082601f83011261078f578081fd5b813567ffffffffffffffff8111156107a5578182fd5b6107b8601f8201601f1916602001610b5e565b91508082528360208285010111156107cf57600080fd5b8060208401602084013760009082016020015292915050565b6000602082840312156107f9578081fd5b813561068081610b85565b600060208284031215610815578081fd5b81518015158114610680578182fd5b600060208284031215610835578081fd5b81356001600160e01b031981168114610680578182fd5b60006020828403121561085d578081fd5b815161068081610b85565b600060208284031215610879578081fd5b813567ffffffffffffffff80821115610890578283fd5b81840191506101408083870312156108a6578384fd5b6108af81610b5e565b90508235828111156108bf578485fd5b6108cb8782860161077f565b8252506020830135828111156108df578485fd5b6108eb8782860161077f565b6020830152506108fe8660408501610774565b60408201526109108660608501610774565b60608201526080830135608082015260a083013560a082015260c083013560c082015260e083013560e0820152610100808401358183015250610120808401358381111561095c578586fd5b6109688882870161077f565b918301919091525095945050505050565b6001600160a01b03169052565b60008151808452815b818110156109ab5760208185018101518683018201520161098f565b818111156109bc5782602083870101525b50601f01601f19169290920160200192915050565b9182526001600160e01b031916602082015260240190565b6001600160a01b0391909116815260200190565b6001600160a01b0392831681529116602082015260400190565b901515815260200190565b90815260200190565b9283526001600160a01b03918216602084015216604082015260600190565b6000602082526107106020830184610986565b600060018060a01b038716825260a0602083015285516101408060a0850152610a8a6101e0850183610986565b91506020880151609f19808685030160c0870152610aa88483610986565b935060408a01519150610abe60e0870183610979565b60608a01519150610100610ad481880184610979565b60808b01516101208881019190915260a08c01519488019490945260c08b015161016088015260e08b01516101808801528a01516101a0870152918901518584039092016101c086015250610b298282610986565b92505050846040830152836060830152610b466080830184610979565b9695505050505050565b918252602082015260400190565b60405181810167ffffffffffffffff81118282101715610b7d57600080fd5b604052919050565b6001600160a01b03811681146105e457600080fdfea26469706673582212203f79cedc93bc4b38a2b3144670d2ec97e37c2a192412bb35392c670168d6851164736f6c634300070100336102a06040523480156200001257600080fd5b5060405162004da938038062004da9833981016040819052620000359162000b10565b846000856000015186602001516200005d88604001518960600151306200047f60201b60201c565b604080516003808252608082019092529060208201606080368337019050508960e00151898989828289898d85336001600160a01b031660001b8480604051806040016040528060018152602001603160f81b81525087878160039080519060200190620000cd929190620009a0565b508051620000e3906004906020840190620009a0565b50506005805460ff19166012179055508151602092830120608052805191012060a052507f8b73c3c69bb8fe3d512ecc4cf759cc79239f7b179b0ffacaa9a75d522b39400f60c05260e0526001600160601b0319606091821b81166101005291901b1661012052506200016190506276a7008311156101946200054e565b6200017562278d008211156101956200054e565b429091016101408190520161016052855162000197906002111560c86200054e565b620001b1620001a562000563565b8751111560c96200054e565b620001c7866200056860201b620014041760201c565b620001d28462000574565b6040516309b2760f60e01b81526000906001600160a01b038c16906309b2760f9062000203908d9060040162000d2e565b602060405180830381600087803b1580156200021e57600080fd5b505af115801562000233573d6000803e3d6000fd5b505050506040513d601f19601f8201168201806040525081019062000259919062000ad8565b604051633354e3e960e11b81529091506001600160a01b038c16906366a9c7d2906200028e9084908b908b9060040162000c92565b600060405180830381600087803b158015620002a957600080fd5b505af1158015620002be573d6000803e3d6000fd5b505050508061018081815250508a6001600160a01b031663d2946c2b6040518163ffffffff1660e01b815260040160206040518083038186803b1580156200030557600080fd5b505afa1580156200031a573d6000803e3d6000fd5b505050506040513d601f19601f8201168201806040525081019062000340919062000af1565b6001600160a01b03166101a0816001600160a01b031660601b81525050505050505050505050505083604001516001600160a01b03166101c0816001600160a01b031660601b8152505083606001516001600160a01b03166101e0816001600160a01b031660601b815250506000806000620003cc87604001518860600151306200060860201b60201c565b61024083905261026082905261028081905260408a01519295509093509150620003f690620006fe565b6102005260608701516200040a90620006fe565b61022052608087015160095560a0870151600a5560c0870151600b55610100870151600c5542600d5561012087015180516200044f91600e91602090910190620009a0565b5050600f80546001600160a01b0319166001600160a01b0394909416939093179092555062000d95945050505050565b6060600080806200049287878762000608565b6040805160038082526080820190925293965091945092506020820160608036833701905050935086848481518110620004c857fe5b60200260200101906001600160a01b031690816001600160a01b03168152505085848381518110620004f657fe5b60200260200101906001600160a01b031690816001600160a01b031681525050848482815181106200052457fe5b60200260200101906001600160a01b031690816001600160a01b0316815250505050509392505050565b816200055f576200055f81620007d2565b5050565b600390565b806200055f81620007e7565b6200058d6200058262000873565b82101560cb6200054e565b620005a66200059b6200087c565b82111560ca6200054e565b620005c88160c0603f6008546200088860201b6200140e17909392919060201c565b6008556040517fa9ba3ffe0b6c366b81232caab38605a0699ad5398d6cce76f91ee809e322dafc90620005fd90839062000d43565b60405180910390a150565b6000806000846001600160a01b0316866001600160a01b031610156200069157836001600160a01b0316856001600160a01b0316101562000654575060009150600190506002620006f5565b836001600160a01b0316866001600160a01b0316101562000680575060009150600290506001620006f5565b5060019150600290506000620006f5565b846001600160a01b0316846001600160a01b03161015620006bd575060029150600190506000620006f5565b856001600160a01b0316846001600160a01b03161015620006e9575060029150600090506001620006f5565b50600191506000905060025b93509350939050565b60006001600160a01b038216301415620007225750670de0b6b3a7640000620007cd565b6000826001600160a01b031663313ce5676040518163ffffffff1660e01b815260040160206040518083038186803b1580156200075e57600080fd5b505afa15801562000773573d6000803e3d6000fd5b505050506040513d601f19601f8201168201806040525081019062000799919062000c6f565b60ff1690506000620007b8601283620008ad60201b620014311760201c565b905080600a0a670de0b6b3a764000002925050505b919050565b620007e4816210905360ea1b620008ca565b50565b600281511015620007f857620007e4565b6000816000815181106200080857fe5b602002602001015190506000600190505b82518110156200086e5760008382815181106200083257fe5b6020026020010151905062000863816001600160a01b0316846001600160a01b03161060656200054e60201b60201c565b915060010162000819565b505050565b64e8d4a5100090565b67016345785d8a000090565b6000620008978484846200092b565b506001901b60001901811b1992909216911b1790565b6000620008bf8383111560016200054e565b508082035b92915050565b62461bcd60e51b600090815260206004526007602452600a808404818106603090810160081b958390069590950190829004918206850160101b01602363ffffff0060e086901c160160181b0190930160c81b60445260e882901c90606490fd5b6200093c610100831060646200054e565b62000975600182101580156200096d57506200096960ff84610100036200098660201b620014471760201c565b8211155b60646200054e565b6200086e83821c156101b46200054e565b600081831062000997578162000999565b825b9392505050565b828054600181600116156101000203166002900490600052602060002090601f016020900481019282601f10620009e357805160ff191683800117855562000a13565b8280016001018555821562000a13579182015b8281111562000a13578251825591602001919060010190620009f6565b5062000a2192915062000a25565b5090565b5b8082111562000a21576000815560010162000a26565b8051620008c48162000d7f565b600082601f83011262000a5a578081fd5b81516001600160401b0381111562000a70578182fd5b602062000a86601f8301601f1916820162000d4c565b9250818352848183860101111562000a9d57600080fd5b60005b8281101562000abd57848101820151848201830152810162000aa0565b8281111562000acf5760008284860101525b50505092915050565b60006020828403121562000aea578081fd5b5051919050565b60006020828403121562000b03578081fd5b8151620009998162000d7f565b600080600080600060a0868803121562000b28578081fd5b855162000b358162000d7f565b60208701519095506001600160401b038082111562000b52578283fd5b818801915061014080838b03121562000b69578384fd5b62000b748162000d4c565b905082518281111562000b85578485fd5b62000b938b82860162000a49565b82525060208301518281111562000ba8578485fd5b62000bb68b82860162000a49565b60208301525062000bcb8a6040850162000a3c565b604082015262000bdf8a6060850162000a3c565b60608201526080830151608082015260a083015160a082015260c083015160c082015260e083015160e0820152610100808401518183015250610120808401518381111562000c2c578586fd5b62000c3a8c82870162000a49565b828401525050809650505050604086015192506060860151915062000c63876080880162000a3c565b90509295509295909350565b60006020828403121562000c81578081fd5b815160ff8116811462000999578182fd5b60006060820185835260206060818501528186518084526080860191508288019350845b8181101562000cde5762000ccb855162000d73565b8352938301939183019160010162000cb6565b505084810360408601528551808252908201925081860190845b8181101562000d205762000d0d835162000d73565b8552938301939183019160010162000cf8565b509298975050505050505050565b602081016003831062000d3d57fe5b91905290565b90815260200190565b6040518181016001600160401b038111828210171562000d6b57600080fd5b604052919050565b6001600160a01b031690565b6001600160a01b0381168114620007e457600080fd5b60805160a05160c05160e0516101005160601c6101205160601c6101405161016051610180516101a05160601c6101c05160601c6101e05160601c6102005161022051610240516102605161028051613e7662000f3360003980610c645280610de9528061154152806120355280612cda5280612d61525080610c245280610f9f52806112eb528061150052806122ec528061232752806123b752806125b4528061264e52806128a352806128fb528061293b52806129ea5280612a505250806109e45280610bdc52806114bf52806122a7528061236952806125e752806126225280612681528061285752806128cf5280612a245280612a7c5280612aaf52505050806109a552806115da528061168552806122605280612740528061276152806128105250806108655280610d5e528061158a528061163c5280612439528061248452806124a5528061256d52806126f552806129a35250806110035250806108b852508061178352508061175f525080610ebb525080610e97525080610e215250806120b55250806120f75250806120d65250613e766000f3fe608060405234801561001057600080fd5b50600436106102a05760003560e01c806382687a5611610167578063aaabadc5116100ce578063d5c096c411610087578063d5c096c414610529578063dd62ed3e1461053c578063deafd91e1461054f578063e9fad8ee14610557578063ed24911d1461055f578063f1493ee114610567576102a0565b8063aaabadc5146104ee578063ac4316cb146104f6578063b35056b8146104fe578063b7b814fc14610506578063d2946c2b1461050e578063d505accf14610516576102a0565b806390193b7c1161012057806390193b7c1461049d57806395c95a4f146104b057806395d89b41146104b8578063a457c2d7146104c0578063a7488bb7146104d3578063a9059cbb146104db576102a0565b806382687a56146104575780638456cb591461045f578063851c1bb31461046757806387ec68171461047a578063893d20e81461048d5780638d928af814610495576102a0565b8063395093511161020b5780636945c1fd116101c45780636945c1fd146103f857806370a082311461040057806372f3824d1461041357806374f3b0091461041b5780637ecebe001461043c5780638129fc1c1461044f576102a0565b806339509351146103995780633f4ba83a146103ac57806350dd6ed9146103b457806354a844ba146103c757806355c67628146103cf5780636028bfd4146103d7576102a0565b806323b872dd1161025d57806323b872dd146103375780632541897f1461034a578063313ce5671461035f5780633644e5151461037457806338e9922e1461037c57806338fff2d014610391576102a0565b806301ec954a146102a557806306fdde03146102ce578063095ea7b3146102e357806318160ddd146103035780631c0de0511461030b5780631dd746ea14610322575b600080fd5b6102b86102b3366004613748565b61056f565b6040516102c59190613aea565b60405180910390f35b6102d6610702565b6040516102c59190613c37565b6102f66102f1366004613440565b610798565b6040516102c59190613ac7565b6102b86107af565b6103136107b5565b6040516102c593929190613ad2565b61032a6107de565b6040516102c59190613a8f565b6102f6610345366004613390565b6107ed565b610352610863565b6040516102c59190613a3d565b610367610887565b6040516102c59190613d5e565b6102b8610890565b61038f61038a366004613867565b61089a565b005b6102b86108b6565b6102f66103a7366004613440565b6108da565b61038f610915565b61038f6103c236600461363e565b610929565b61038f610947565b6102b8610959565b6103ea6103e5366004613557565b61096c565b6040516102c5929190613c9e565b6103526109a3565b6102b861040e36600461333c565b6109c7565b6102b86109e2565b61042e610429366004613557565b610a06565b6040516102c5929190613aa2565b6102b861044a36600461333c565b610b09565b61038f610b14565b6102b8610de7565b61038f610e0b565b6102b86104753660046135fa565b610e1d565b6103ea610488366004613557565b610e6f565b610352610e95565b610352610eb9565b6102b86104ab36600461333c565b610edd565b6102b8610ef8565b6102d6610efe565b6102f66104ce366004613440565b610f5f565b6102b8610f9d565b6102f66104e9366004613440565b610fc1565b610352610fce565b6102b8610fd8565b6102f6610fde565b61038f610fef565b610352611001565b61038f6105243660046133d0565b611025565b61042e610537366004613557565b6110b0565b6102b861054a366004613358565b6111d3565b6102b8611210565b61038f611216565b6102b86113f4565b6102b86113fe565b6000846080015161059c610581610eb9565b6001600160a01b0316336001600160a01b03161460cd61145d565b6105b16105a76108b6565b82146101f461145d565b6105b961146b565b426105c8600d54600c5461147e565b10156105ef5760405162461bcd60e51b81526004016105e690613c76565b60405180910390fd5b60606105f961148e565b90506106036131c1565b6040518060600160405280610616610959565b81526009546020820152600a54604090910152905060008851600181111561063a57fe5b141561069c57610661886060015183888151811061065457fe5b602002602001015161157a565b60608901526000610673898984611586565b90506106928184888151811061068557fe5b602002602001015161162c565b94505050506106f9565b6001885160018111156106ab57fe5b14156106f6576106c5886060015183878151811061065457fe5b606089015260006106d7898984611638565b9050610692818489815181106106e957fe5b60200260200101516116cc565b50505b50949350505050565b60038054604080516020601f600260001961010060018816150201909516949094049384018190048102820181019092528281526060939092909183018282801561078e5780601f106107635761010080835404028352916020019161078e565b820191906000526020600020905b81548152906001019060200180831161077157829003601f168201915b5050505050905090565b60006107a53384846116d8565b5060015b92915050565b60025490565b60008060006107c2611740565b1592506107cd61175d565b91506107d7611781565b9050909192565b60606107e861148e565b905090565b6000806107fa85336111d3565b905061081e336001600160a01b03871614806108165750838210155b61019e61145d565b6108298585856117a5565b336001600160a01b0386161480159061084457506000198114155b156108565761085685338584036116d8565b60019150505b9392505050565b7f000000000000000000000000000000000000000000000000000000000000000090565b60055460ff1690565b60006107e86113f4565b6108a2611885565b6108aa61146b565b6108b3816118b3565b50565b7f000000000000000000000000000000000000000000000000000000000000000090565b3360008181526001602090815260408083206001600160a01b038716845290915281205490916107a5918590610910908661192c565b6116d8565b61091d611885565b610927600061193e565b565b610931611885565b61093961146b565b61094382826119b1565b5050565b61094f611885565b6109276001611aa6565b6008546000906107e89060c0603f611afd565b60006060610982865161097d611b0c565b611b11565b61099789898989898989611b1e611b78611be7565b97509795505050505050565b7f000000000000000000000000000000000000000000000000000000000000000090565b6001600160a01b031660009081526020819052604090205490565b7f000000000000000000000000000000000000000000000000000000000000000090565b60608088610a15610581610eb9565b610a206105a76108b6565b60606000610a2d86611d11565b15610a5557610a3a611d40565b610a4c89610a466107af565b88611d53565b92509050610aa7565b610a5d611d7f565b6060610a6761148e565b9050610a738a82611d87565b610a978d8d8d8d8d610a83610fde565b610a8d578d610a90565b60005b878e611b1e565b93509150610aa58382611b78565b505b610ab18b82611df0565b81895167ffffffffffffffff81118015610aca57600080fd5b50604051908082528060200260200182016040528015610af4578160200160208202803683370190505b509450945050505b5097509795505050505050565b60006107a982610edd565b6000610b1e6108b6565b90506000610b2a610eb9565b90506060816001600160a01b031663f94d4668846040518263ffffffff1660e01b8152600401610b5a9190613aea565b60006040518083038186803b158015610b7257600080fd5b505afa158015610b86573d6000803e3d6000fd5b505050506040513d6000823e601f3d908101601f19168201604052610bae919081019061346b565b50506040805160038082526080820190925291925060609190602082018380368337019050509050600b54817f000000000000000000000000000000000000000000000000000000000000000081518110610c0557fe5b602002602001018181525050610c21600b546009546000611dfa565b817f000000000000000000000000000000000000000000000000000000000000000081518110610c4d57fe5b6020026020010181815250506001600160701b03817f000000000000000000000000000000000000000000000000000000000000000081518110610c8d57fe5b602002602001018181525050610ca16131e2565b6040518060800160405280610cb585611e22565b8152602001838152602001600084604051602001610cd4929190613c14565b6040516020818303038152906040528152602001600015158152509050836001600160a01b031663b95cac28610d086108b6565b3030856040518563ffffffff1660e01b8152600401610d2a9493929190613b12565b600060405180830381600087803b158015610d4457600080fd5b505af1158015610d58573d6000803e3d6000fd5b505050507f00000000000000000000000000000000000000000000000000000000000000006001600160a01b03167f9fbc4e74e2605311737d774e7265d8cd603e41f7dc5badb7676b2bcaa330a4c2600954600a5485600181518110610dba57fe5b6020026020010151600c54600e604051610dd8959493929190613cb7565b60405180910390a25050505050565b7f000000000000000000000000000000000000000000000000000000000000000090565b610e13611885565b610927600161193e565b60007f000000000000000000000000000000000000000000000000000000000000000082604051602001610e529291906139fa565b604051602081830303815290604052805190602001209050919050565b60006060610e80865161097d611b0c565b61099789898989898989611e25611e41611be7565b7f000000000000000000000000000000000000000000000000000000000000000090565b7f000000000000000000000000000000000000000000000000000000000000000090565b6001600160a01b031660009081526006602052604090205490565b600b5490565b60048054604080516020601f600260001961010060018816150201909516949094049384018190048102820181019092528281526060939092909183018282801561078e5780601f106107635761010080835404028352916020019161078e565b600080610f6c33856111d3565b9050808310610f8657610f81338560006116d8565b610f93565b610f9333858584036116d8565b5060019392505050565b7f000000000000000000000000000000000000000000000000000000000000000090565b60006107a53384846117a5565b60006107e8611eaa565b60095490565b6008546000906107e89060ff611f24565b610ff7611885565b6109276000611aa6565b7f000000000000000000000000000000000000000000000000000000000000000090565b60007f6e71edae12b1b97f4d1f60370fef10105fa2faae0126114a169c64845d6126c98888886110548c610edd565b8960405160200161106a96959493929190613b4e565b60405160208183030381529060405280519060200120905061109b8882611092878787611f2e565b886101f8611f6d565b6110a68888886116d8565b5050505050505050565b606080886110bf610581610eb9565b6110ca6105a76108b6565b6110d2611d7f565b60606110dc61148e565b90506110e66107af565b61119357600060606110fb8d8d8d868b611fc4565b9150915061111461110a612077565b83101560cc61145d565b6111266000611121612077565b61207c565b6111398b611132612077565b840361207c565b6111438184611e41565b808a5167ffffffffffffffff8111801561115c57600080fd5b50604051908082528060200260200182016040528015611186578160200160208202803683370190505b5095509550505050610afc565b61119d8882611d87565b600060606111c58d8d8d8d8d6111b1610fde565b6111bb578d6111be565b60005b898e611e25565b915091506111398b8361207c565b60006111dd610eb9565b6001600160a01b0316826001600160a01b031614156111ff57506000196107a9565b6112098383612086565b90506107a9565b600a5490565b60006112206108b6565b9050600061122c610eb9565b90506060816001600160a01b031663f94d4668846040518263ffffffff1660e01b815260040161125c9190613aea565b60006040518083038186803b15801561127457600080fd5b505afa158015611288573d6000803e3d6000fd5b505050506040513d6000823e601f3d908101601f191682016040526112b0919081019061346b565b505060408051600380825260808201909252919250606091906020820183803683370190505090506112e8600b54600a546000611dfa565b817f00000000000000000000000000000000000000000000000000000000000000008151811061131457fe5b6020026020010181815250506113286131e2565b604051806080016040528061133c85611e22565b815260200183815260200160016001600160701b03604051602001611362929190613bfc565b60408051601f19818403018152918152908252600060209290920191909152600f549051638bdb391360e01b81529192506001600160a01b0380871692638bdb3913926113bb928a923092909116908790600401613b12565b600060405180830381600087803b1580156113d557600080fd5b505af11580156113e9573d6000803e3d6000fd5b505050505050505050565b60006107e86120b1565b600c5490565b806109438161214e565b600061141b8484846121cc565b506001901b60001901811b1992909216911b1790565b600061144183831115600161145d565b50900390565b6000818310611456578161085c565b5090919050565b816109435761094381612213565b610927611476611740565b61019261145d565b818101828110156107a957600080fd5b60408051600380825260808201909252606091829190602082018380368337019050509050670de0b6b3a7640000817f0000000000000000000000000000000000000000000000000000000000000000815181106114e857fe5b602002602001018181525050670de0b6b3a7640000817f00000000000000000000000000000000000000000000000000000000000000008151811061152957fe5b602002602001018181525050670de0b6b3a7640000817f00000000000000000000000000000000000000000000000000000000000000008151811061156a57fe5b6020908102919091010152905090565b600061085c8383612223565b60007f00000000000000000000000000000000000000000000000000000000000000006001600160a01b031684602001516001600160a01b031614156115d8576115d1848484612259565b905061085c565b7f00000000000000000000000000000000000000000000000000000000000000006001600160a01b031684602001516001600160a01b03161415611621576115d1848484612566565b61085c610135612213565b600061085c83836127b8565b60007f00000000000000000000000000000000000000000000000000000000000000006001600160a01b031684604001516001600160a01b03161415611683576115d1848484612809565b7f00000000000000000000000000000000000000000000000000000000000000006001600160a01b031684604001516001600160a01b03161415611621576115d184848461299c565b600061085c8383612b02565b6001600160a01b0380841660008181526001602090815260408083209487168084529490915290819020849055517f8c5be1e5ebec7d5bd14f71427d1e84f3dd0314c0f7b2291e5b200ac8c7c3b92590611733908590613aea565b60405180910390a3505050565b600061174a611781565b4211806107e857505060075460ff161590565b7f000000000000000000000000000000000000000000000000000000000000000090565b7f000000000000000000000000000000000000000000000000000000000000000090565b6117bc6001600160a01b038416151561019861145d565b6117d36001600160a01b038316151561019961145d565b6117de8383836121c7565b6001600160a01b03831660009081526020819052604090205461180490826101a0612b50565b6001600160a01b038085166000908152602081905260408082209390935590841681522054611833908261192c565b6001600160a01b0380841660008181526020819052604090819020939093559151908516907fddf252ad1be2c89b69c2b068fc378daa952ba7f163c4a11628f55a4df523b3ef90611733908590613aea565b600061189c6000356001600160e01b031916610e1d565b90506108b36118ab8233612b66565b61019161145d565b6118c86118be612c4f565b82101560cb61145d565b6118dd6118d3612c58565b82111560ca61145d565b6008546118ee908260c0603f61140e565b6008556040517fa9ba3ffe0b6c366b81232caab38605a0699ad5398d6cce76f91ee809e322dafc90611921908390613aea565b60405180910390a150565b600082820161085c848210158361145d565b801561195e5761195961194f61175d565b421061019361145d565b611973565b611973611969611781565b42106101a961145d565b6007805460ff19168215151790556040517f9e3a5e37224532dea67b89face185703738a228a6e8a23dee546960180d3be6490611921908390613ac7565b60006119bb6108b6565b905060006119c7610eb9565b6001600160a01b031663b05f8e4883866040518363ffffffff1660e01b81526004016119f4929190613bc7565b60806040518083038186803b158015611a0c57600080fd5b505afa158015611a20573d6000803e3d6000fd5b505050506040513d601f19601f82011682018060405250810190611a44919061387f565b604051630639cdb560e21b81529094506001600160a01b03851693506318e736d49250611a78915085908790600401613bae565b600060405180830381600087803b158015611a9257600080fd5b505af11580156110a6573d6000803e3d6000fd5b600854611ab5908260ff612c64565b6008556040517feff3d4d215b42bf0960be9c6d5e05c22cba4df6627a3a523e2acee733b5854c890611ae8908390613ac7565b60405180910390a1806108b3576108b3610927565b6001901b6000190191901c1690565b600390565b610943818314606761145d565b600060606000611b2d84612c8b565b90506001816001811115611b3d57fe5b14611b5257611b4d610162612213565b611b6a565b611b5a612ca1565b611b648885612cb5565b90935091505b509850989650505050505050565b81518151611b87908290611b11565b60005b81811015611be157611bc2848281518110611ba157fe5b6020026020010151848381518110611bb557fe5b60200260200101516127b8565b848281518110611bce57fe5b6020908102919091010152600101611b8a565b50505050565b333014611ca5576000306001600160a01b0316600036604051611c0b929190613a12565b6000604051808303816000865af19150503d8060008114611c48576040519150601f19603f3d011682016040523d82523d6000602084013e611c4d565b606091505b505090508060008114611c5c57fe5b60046000803e6000516001600160e01b0319166343adbafb60e01b8114611c87573d6000803e3d6000fd5b506020600460003e604060205260243d03602460403e601c3d016000f35b611cad611d7f565b6060611cb761148e565b9050611cc38782611d87565b60006060611cdb8c8c8c8c8c8c898d8d63ffffffff16565b91509150611ced81848663ffffffff16565b8051601f1982018390526343adbafb603f1983015260200260231982016044820181fd5b60008082511180156107a9575060ff801682806020019051810190611d3691906138bf565b60ff161492915050565b610927611d4b610fde565b6101b661145d565b600060606000611d6284612dc5565b90506060611d71878784612ddb565b919791965090945050505050565b61092761146b565b81518151611d96908290611b11565b60005b81811015611be157611dd1848281518110611db057fe5b6020026020010151848381518110611dc457fe5b6020026020010151612223565b848281518110611ddd57fe5b6020908102919091010152600101611d99565b6109438282612e74565b600081611e1057611e0b8484612f40565b611e1a565b611e1a8484612f60565b949350505050565b90565b60006060611e34610162612213565b9850989650505050505050565b81518151611e50908290611b11565b60005b81811015611be157611e8b848281518110611e6a57fe5b6020026020010151848381518110611e7e57fe5b6020026020010151612b02565b848281518110611e9757fe5b6020908102919091010152600101611e53565b6000611eb4610eb9565b6001600160a01b031663aaabadc56040518163ffffffff1660e01b815260040160206040518083038186803b158015611eec57600080fd5b505afa158015611f00573d6000803e3d6000fd5b505050506040513d601f19601f820116820180604052508101906107e89190613622565b1c60019081161490565b60408051604180825260808201909252606091829190602082018180368337019050509050836020820152826040820152846060820153949350505050565b6000611f7885612f93565b9050611f8e611f88878387612faf565b8361145d565b611f9d428410156101b861145d565b5050506001600160a01b039092166000908152600660205260409020805460010190555050565b60006060611fd061146b565b611fe76001600160a01b038716301461015661145d565b611ffe6001600160a01b038616301461015661145d565b604080516003808252608082019092526001600160701b0391606091906020820183803683370190505090506001600160701b03817f00000000000000000000000000000000000000000000000000000000000000008151811061205e57fe5b6020908102919091010152909890975095505050505050565b600090565b610943828261305e565b6001600160a01b03918216600090815260016020908152604080832093909416825291909152205490565b60007f00000000000000000000000000000000000000000000000000000000000000007f00000000000000000000000000000000000000000000000000000000000000007f000000000000000000000000000000000000000000000000000000000000000061211e6130f1565b30604051602001612133959493929190613b82565b60405160208183030381529060405280519060200120905090565b60028151101561215d576108b3565b60008160008151811061216c57fe5b602002602001015190506000600190505b82518110156121c757600083828151811061219457fe5b602002602001015190506121bd816001600160a01b0316846001600160a01b031610606561145d565b915060010161217d565b505050565b6121db6101008310606461145d565b612204600182101580156121fd57506121f960ff8461010003611447565b8211155b606461145d565b6121c783821c156101b461145d565b6108b3816210905360ea1b6130f5565b600082820261224784158061224057508385838161223d57fe5b04145b600361145d565b670de0b6b3a764000090049392505050565b600061229f7f00000000000000000000000000000000000000000000000000000000000000006001600160a01b031685604001516001600160a01b03161461013561145d565b60006122e2847f0000000000000000000000000000000000000000000000000000000000000000815181106122d057fe5b6020026020010151866060015161192c565b905060006123ad857f00000000000000000000000000000000000000000000000000000000000000008151811061231557fe5b60200260200101516123a861236685897f00000000000000000000000000000000000000000000000000000000000000008151811061235057fe5b60200260200101516127b890919063ffffffff16565b887f00000000000000000000000000000000000000000000000000000000000000008151811061239257fe5b602002602001015161222390919063ffffffff16565b611431565b905060006123ee867f0000000000000000000000000000000000000000000000000000000000000000815181106123e057fe5b602002602001015183611431565b602086015190915061240082856127b8565b1015801561241b5750604085015161241882856127b8565b11155b6124375760405162461bcd60e51b81526004016105e690613c4a565b7f00000000000000000000000000000000000000000000000000000000000000006001600160a01b03167fcf6f98f0568a50d4e3d60b183f01e307f5011e8140f842a5a855df40d80918bb7f00000000000000000000000000000000000000000000000000000000000000007f00000000000000000000000000000000000000000000000000000000000000006001600160a01b03166306fdde036040518163ffffffff1660e01b815260040160006040518083038186803b1580156124fc57600080fd5b505afa158015612510573d6000803e3d6000fd5b505050506040513d6000823e601f3d908101601f1916820160405261253891908101906136d5565b8a606001518b60c0015187604051612554959493929190613a51565b60405180910390a25095945050505050565b60006125ac7f00000000000000000000000000000000000000000000000000000000000000006001600160a01b031685604001516001600160a01b03161461013561145d565b60006125dd847f0000000000000000000000000000000000000000000000000000000000000000815181106122d057fe5b90506000612677857f00000000000000000000000000000000000000000000000000000000000000008151811061261057fe5b60200260200101516123a861264b85897f00000000000000000000000000000000000000000000000000000000000000008151811061235057fe5b887f00000000000000000000000000000000000000000000000000000000000000008151811061239257fe5b905060006126aa867f0000000000000000000000000000000000000000000000000000000000000000815181106123e057fe5b60208601519091506126bc84836127b8565b101580156126d7575060408501516126d484836127b8565b11155b6126f35760405162461bcd60e51b81526004016105e690613c4a565b7f00000000000000000000000000000000000000000000000000000000000000006001600160a01b03167fcf6f98f0568a50d4e3d60b183f01e307f5011e8140f842a5a855df40d80918bb7f00000000000000000000000000000000000000000000000000000000000000007f00000000000000000000000000000000000000000000000000000000000000006001600160a01b03166306fdde036040518163ffffffff1660e01b815260040160006040518083038186803b1580156124fc57600080fd5b60006127c7821515600461145d565b826127d4575060006107a9565b670de0b6b3a7640000838102906127f7908583816127ee57fe5b0414600561145d565b82818161280057fe5b049150506107a9565b600061284f7f00000000000000000000000000000000000000000000000000000000000000006001600160a01b031685602001516001600160a01b03161461013561145d565b6000612892847f00000000000000000000000000000000000000000000000000000000000000008151811061288057fe5b60200260200101518660600151611431565b905060006129316128f86128cc84887f00000000000000000000000000000000000000000000000000000000000000008151811061235057fe5b877f00000000000000000000000000000000000000000000000000000000000000008151811061239257fe5b867f00000000000000000000000000000000000000000000000000000000000000008151811061292457fe5b6020026020010151611431565b90506000612972867f00000000000000000000000000000000000000000000000000000000000000008151811061296457fe5b60200260200101518361192c565b602086015190915061298482856127b8565b101580156126d7575060408501516126d482856127b8565b60006129e27f00000000000000000000000000000000000000000000000000000000000000006001600160a01b031685602001516001600160a01b03161461013561145d565b6000612a13847f00000000000000000000000000000000000000000000000000000000000000008151811061288057fe5b90506000612aa5612a79612a4d84887f00000000000000000000000000000000000000000000000000000000000000008151811061235057fe5b877f00000000000000000000000000000000000000000000000000000000000000008151811061239257fe5b867f00000000000000000000000000000000000000000000000000000000000000008151811061292457fe5b90506000612ad8867f00000000000000000000000000000000000000000000000000000000000000008151811061296457fe5b6020860151909150612aea84836127b8565b1015801561241b5750604085015161241884836127b8565b6000612b11821515600461145d565b82612b1e575060006107a9565b670de0b6b3a764000083810290612b38908583816127ee57fe5b826001820381612b4457fe5b046001019150506107a9565b6000612b5f848411158361145d565b5050900390565b600073ba1ba1ba1ba1ba1ba1ba1ba1ba1ba1ba1ba1ba1b612b85610e95565b6001600160a01b031614158015612ba05750612ba083613156565b15612bc857612bad610e95565b6001600160a01b0316336001600160a01b03161490506107a9565b612bd0611eaa565b6001600160a01b0316639be2a8848484306040518463ffffffff1660e01b8152600401612bff93929190613af3565b60206040518083038186803b158015612c1757600080fd5b505afa158015612c2b573d6000803e3d6000fd5b505050506040513d601f19601f820116820180604052508101906112099190613537565b64e8d4a5100090565b67016345785d8a000090565b60006001821b1984168284612c7a576000612c7d565b60015b60ff16901b17949350505050565b6000818060200190518101906107a9919061368c565b610927612cac611740565b156101af61145d565b600060606000612cc484613192565b90506000612d0a82612d03612cd76107af565b897f00000000000000000000000000000000000000000000000000000000000000008151811061292457fe5b6000611dfa565b90506060865167ffffffffffffffff81118015612d2657600080fd5b50604051908082528060200260200182016040528015612d50578160200160208202803683370190505b50905060005b8751811015612db7577f00000000000000000000000000000000000000000000000000000000000000008114612daf57612d968389838151811061239257fe5b828281518110612da257fe5b6020026020010181815250505b600101612d56565b509196919550909350505050565b60008180602001905181019061085c91906138db565b60606000612de983856127b8565b9050845167ffffffffffffffff81118015612e0357600080fd5b50604051908082528060200260200182016040528015612e2d578160200160208202803683370190505b50915060005b8551811015612e6b57612e4c8287838151811061239257fe5b838281518110612e5857fe5b6020908102919091010152600101612e33565b50509392505050565b612e8b6001600160a01b038316151561019b61145d565b612e97826000836121c7565b6001600160a01b038216600090815260208190526040902054612ebd90826101b2612b50565b6001600160a01b038316600090815260208190526040902055612ef0612eeb82612ee56107af565b906131a8565b6131b6565b60006001600160a01b0316826001600160a01b03167fddf252ad1be2c89b69c2b068fc378daa952ba7f163c4a11628f55a4df523b3ef83604051612f349190613aea565b60405180910390a35050565b6000612f4f821515600461145d565b818381612f5857fe5b049392505050565b6000612f6f821515600461145d565b82612f7c575060006107a9565b816001840381612f8857fe5b0460010190506107a9565b6000612f9d6120b1565b82604051602001610e52929190613a22565b6000612fc182516041146101b961145d565b60208281015160408085015160608601518251600080825295019283905292939092811a91600190612ffa908990859088908890613bde565b6020604051602081039080840390855afa15801561301c573d6000803e3d6000fd5b5050604051601f1901519150506001600160a01b038116158015906130525750876001600160a01b0316816001600160a01b0316145b98975050505050505050565b61306a600083836121c7565b61307f612eeb826130796107af565b9061192c565b6001600160a01b0382166000908152602081905260409020546130a2908261192c565b6001600160a01b0383166000818152602081905260408082209390935591519091907fddf252ad1be2c89b69c2b068fc378daa952ba7f163c4a11628f55a4df523b3ef90612f34908590613aea565b4690565b62461bcd60e51b600090815260206004526007602452600a808404818106603090810160081b958390069590950190829004918206850160101b01602363ffffff0060e086901c160160181b0190930160c81b60445260e882901c90606490fd5b6000613168631c74c91760e11b610e1d565b82148061318357506131806350dd6ed960e01b610e1d565b82145b806107a957506107a9826131bb565b60008180602001905181019061085c91906136a8565b600061085c83836001612b50565b600255565b50600090565b60405180606001604052806000815260200160008152602001600081525090565b60405180608001604052806060815260200160608152602001606081526020016000151581525090565b80356107a981613e0f565b600082601f830112613227578081fd5b813561323a61323582613d93565b613d6c565b81815291506020808301908481018184028601820187101561325b57600080fd5b60005b8481101561327a5781358452928201929082019060010161325e565b505050505092915050565b600082601f830112613295578081fd5b81516132a361323582613d93565b8181529150602080830190848101818402860182018710156132c457600080fd5b60005b8481101561327a578151845292820192908201906001016132c7565b600082601f8301126132f3578081fd5b813561330161323582613db3565b915080825283602082850101111561331857600080fd5b8060208401602084013760009082016020015292915050565b80356107a981613e24565b60006020828403121561334d578081fd5b813561085c81613e0f565b6000806040838503121561336a578081fd5b823561337581613e0f565b9150602083013561338581613e0f565b809150509250929050565b6000806000606084860312156133a4578081fd5b83356133af81613e0f565b925060208401356133bf81613e0f565b929592945050506040919091013590565b600080600080600080600060e0888a0312156133ea578283fd5b87356133f581613e0f565b9650602088013561340581613e0f565b95506040880135945060608801359350608088013561342381613e31565b9699959850939692959460a0840135945060c09093013592915050565b60008060408385031215613452578182fd5b823561345d81613e0f565b946020939093013593505050565b60008060006060848603121561347f578081fd5b835167ffffffffffffffff80821115613496578283fd5b818601915086601f8301126134a9578283fd5b81516134b761323582613d93565b80828252602080830192508086018b8283870289010111156134d7578788fd5b8796505b848710156135025780516134ee81613e0f565b8452600196909601959281019281016134db565b508901519097509350505080821115613519578283fd5b5061352686828701613285565b925050604084015190509250925092565b600060208284031215613548578081fd5b8151801515811461085c578182fd5b600080600080600080600060e0888a031215613571578081fd5b87359650602088013561358381613e0f565b9550604088013561359381613e0f565b9450606088013567ffffffffffffffff808211156135af578283fd5b6135bb8b838c01613217565b955060808a0135945060a08a0135935060c08a01359150808211156135de578283fd5b506135eb8a828b016132e3565b91505092959891949750929550565b60006020828403121561360b578081fd5b81356001600160e01b03198116811461085c578182fd5b600060208284031215613633578081fd5b815161085c81613e0f565b60008060408385031215613650578182fd5b823561365b81613e0f565b9150602083013567ffffffffffffffff811115613676578182fd5b613682858286016132e3565b9150509250929050565b60006020828403121561369d578081fd5b815161085c81613e24565b600080604083850312156136ba578182fd5b82516136c581613e24565b6020939093015192949293505050565b6000602082840312156136e6578081fd5b815167ffffffffffffffff8111156136fc578182fd5b8201601f8101841361370c578182fd5b805161371a61323582613db3565b81815285602083850101111561372e578384fd5b61373f826020830160208601613de3565b95945050505050565b6000806000806080858703121561375d578182fd5b843567ffffffffffffffff80821115613774578384fd5b818701915061012080838a03121561378a578485fd5b61379381613d6c565b905061379f8984613331565b81526137ae896020850161320c565b60208201526137c0896040850161320c565b6040820152606083013560608201526080830135608082015260a083013560a08201526137f08960c0850161320c565b60c08201526138028960e0850161320c565b60e0820152610100808401358381111561381a578687fd5b6138268b8287016132e3565b828401525050809650506020870135915080821115613843578384fd5b5061385087828801613217565b949794965050505060408301359260600135919050565b600060208284031215613878578081fd5b5035919050565b60008060008060808587031215613894578182fd5b84519350602085015192506040850151915060608501516138b481613e0f565b939692955090935050565b6000602082840312156138d0578081fd5b815161085c81613e31565b600080604083850312156138ed578182fd5b82516136c581613e31565b6000815180845260208085019450808401835b838110156139275781518752958201959082019060010161390b565b509495945050505050565b15159052565b60008151808452613950816020860160208601613de3565b601f01601f19169290920160200192915050565b8051608080845281519084018190526000916020919082019060a0860190845b818110156139a95783516001600160a01b031683529284019291840191600101613984565b5050828501519150858103838701526139c281836138f8565b92505050604083015184820360408601526139dd8282613938565b91505060608301516139f26060860182613932565b509392505050565b9182526001600160e01b031916602082015260240190565b6000828483379101908152919050565b61190160f01b81526002810192909252602282015260420190565b6001600160a01b0391909116815260200190565b600060018060a01b03808816835260a06020840152613a7360a0840188613938565b6040840196909652939093166060820152608001525092915050565b60006020825261085c60208301846138f8565b600060408252613ab560408301856138f8565b828103602084015261373f81856138f8565b901515815260200190565b92151583526020830191909152604082015260600190565b90815260200190565b9283526001600160a01b03918216602084015216604082015260600190565b8481526001600160a01b03848116602083015283166040820152608060608201819052600090613b4490830184613964565b9695505050505050565b9586526001600160a01b0394851660208701529290931660408501526060840152608083019190915260a082015260c00190565b9485526020850193909352604084019190915260608301526001600160a01b0316608082015260a00190565b600083825260406020830152611e1a6040830184613938565b9182526001600160a01b0316602082015260400190565b93845260ff9290921660208401526040830152606082015260800190565b6040810160028410613c0a57fe5b9281526020015290565b600060048410613c2057fe5b83825260406020830152611e1a60408301846138f8565b60006020825261085c6020830184613938565b602080825260129082015271141c9a58d9481bdd5d081bd988189bdd5b9960721b604082015260600190565b6020808252600e908201526d2a34b6b2a634b6b4ba1027bb32b960911b604082015260600190565b600083825260406020830152611e1a60408301846138f8565b600060a082018783526020878185015286604085015285606085015260a06080850152828554600180821660008114613cf75760018114613d1557613d4d565b60028304607f16865260ff19831660c089015260e088019350613d4d565b60028304808752613d258a613dd7565b885b82811015613d435781548b820160c00152908401908701613d27565b8a0160c001955050505b50919b9a5050505050505050505050565b60ff91909116815260200190565b60405181810167ffffffffffffffff81118282101715613d8b57600080fd5b604052919050565b600067ffffffffffffffff821115613da9578081fd5b5060209081020190565b600067ffffffffffffffff821115613dc9578081fd5b50601f01601f191660200190565b60009081526020902090565b60005b83811015613dfe578181015183820152602001613de6565b83811115611be15750506000910152565b6001600160a01b03811681146108b357600080fd5b600281106108b357600080fd5b60ff811681146108b357600080fdfea2646970667358221220becabd7c34dcff534f493071363cbbf0d139b73d1c0a547432c2c26f85463e0664736f6c63430007010033",
  "linkReferences": {},
  "deployedLinkReferences": {}
}