{
  "_format": "hh-sol-artifact-1",
  "contractName": "SecondaryIssuePoolFactory",
  "sourceName": "contracts/SecondaryIssuePoolFactory.sol",
  "abi": [
    {
      "inputs": [
        {
          "internalType": "contract IVault",
          "name": "vault",
          "type": "address"
        }
      ],
      "stateMutability": "nonpayable",
      "type": "constructor"
    },
    {
      "anonymous": false,
      "inputs": [],
      "name": "FactoryDisabled",
      "type": "event"
    },
    {
      "anonymous": false,
      "inputs": [
        {
          "indexed": true,
          "internalType": "address",
          "name": "pool",
          "type": "address"
        }
      ],
      "name": "PoolCreated",
      "type": "event"
    },
    {
      "inputs": [
        {
          "internalType": "string",
          "name": "_name",
          "type": "string"
        },
        {
          "internalType": "string",
          "name": "_symbol",
          "type": "string"
        },
        {
          "internalType": "address",
          "name": "_security",
          "type": "address"
        },
        {
          "internalType": "address",
          "name": "_currency",
          "type": "address"
        },
        {
          "internalType": "uint256",
          "name": "_maxAmountsIn",
          "type": "uint256"
        },
        {
          "internalType": "uint256",
          "name": "_tradeFeePercentage",
          "type": "uint256"
        }
      ],
      "name": "create",
      "outputs": [
        {
          "internalType": "address",
          "name": "",
          "type": "address"
        }
      ],
      "stateMutability": "nonpayable",
      "type": "function"
    },
    {
      "inputs": [],
      "name": "disable",
      "outputs": [],
      "stateMutability": "nonpayable",
      "type": "function"
    },
    {
      "inputs": [
        {
          "internalType": "bytes4",
          "name": "selector",
          "type": "bytes4"
        }
      ],
      "name": "getActionId",
      "outputs": [
        {
          "internalType": "bytes32",
          "name": "",
          "type": "bytes32"
        }
      ],
      "stateMutability": "view",
      "type": "function"
    },
    {
      "inputs": [],
      "name": "getAuthorizer",
      "outputs": [
        {
          "internalType": "contract IAuthorizer",
          "name": "",
          "type": "address"
        }
      ],
      "stateMutability": "view",
      "type": "function"
    },
    {
      "inputs": [],
      "name": "getCreationCode",
      "outputs": [
        {
          "internalType": "bytes",
          "name": "",
          "type": "bytes"
        }
      ],
      "stateMutability": "view",
      "type": "function"
    },
    {
      "inputs": [],
      "name": "getCreationCodeContracts",
      "outputs": [
        {
          "internalType": "address",
          "name": "contractA",
          "type": "address"
        },
        {
          "internalType": "address",
          "name": "contractB",
          "type": "address"
        }
      ],
      "stateMutability": "view",
      "type": "function"
    },
    {
      "inputs": [],
      "name": "getPauseConfiguration",
      "outputs": [
        {
          "internalType": "uint256",
          "name": "pauseWindowDuration",
          "type": "uint256"
        },
        {
          "internalType": "uint256",
          "name": "bufferPeriodDuration",
          "type": "uint256"
        }
      ],
      "stateMutability": "view",
      "type": "function"
    },
    {
      "inputs": [],
      "name": "getVault",
      "outputs": [
        {
          "internalType": "contract IVault",
          "name": "",
          "type": "address"
        }
      ],
      "stateMutability": "view",
      "type": "function"
    },
    {
      "inputs": [],
      "name": "isDisabled",
      "outputs": [
        {
          "internalType": "bool",
          "name": "",
          "type": "bool"
        }
      ],
      "stateMutability": "view",
      "type": "function"
    },
    {
      "inputs": [
        {
          "internalType": "address",
          "name": "pool",
          "type": "address"
        }
      ],
      "name": "isPoolFromFactory",
      "outputs": [
        {
          "internalType": "bool",
          "name": "",
          "type": "bool"
        }
      ],
      "stateMutability": "view",
      "type": "function"
    }
  ],
  "bytecode": "0x6101606040523480156200001257600080fd5b50604051620068e4380380620068e48339810160408190526200003591620001ce565b80604051806020016200004890620001c0565b601f1982820381018352601f90910116604052805182903090839060006002820460a081905280830360e081905281855290915083620000948162000104602090811b6200040017901c565b60601b6001600160601b0319166080528285018051838252620000c38262000104602090811b6200040017901c565b6001600160601b0319606091821b811660c0529690935290526101009590955250509290911b90911661012052505050426276a700016101405250620001fe565b80517f602038038060206000396000f3fefefefefefefefefefefefefefefefefefefe808352600091602081018484f09084529150620001526001600160a01b03831615156101ac62000158565b50919050565b81620001695762000169816200016d565b5050565b62461bcd60e51b6000908152602060045260076024526642414c23000030600a808404818106603090810160081b95839006959095019082900491820690940160101b939093010160c81b604452606490fd5b615bf88062000cec83390190565b600060208284031215620001e0578081fd5b81516001600160a01b0381168114620001f7578182fd5b9392505050565b60805160601c60a05160c05160601c60e051610100516101205160601c61014051610a826200026a600039806101d9528061020252508061036452508061031452508061045a5250806101b052806104d652508061047b52508061018f52806104b25250610a826000f3fe608060405234801561001057600080fd5b506004361061009d5760003560e01c80636c57f5a9116100665780636c57f5a91461011657806374dcc7a41461011e578063851c1bb31461013e5780638d928af81461015e578063aaabadc5146101665761009d565b8062c194db146100a2578063174481fa146100c05780632da47c40146100d65780632f2770db146100ec5780636634b753146100f6575b600080fd5b6100aa61016e565b6040516100b7919061094f565b60405180910390f35b6100c861018d565b6040516100b7929190610902565b6100de6101d3565b6040516100b7929190610a29565b6100f461023d565b005b610109610104366004610788565b610284565b6040516100b7919061091c565b6101096102a2565b61013161012c366004610808565b6102ab565b6040516100b791906108ee565b61015161014c3660046107c4565b610310565b6040516100b79190610927565b610131610362565b610131610386565b606061018860405180602001604052806000815250610452565b905090565b7f00000000000000000000000000000000000000000000000000000000000000007f00000000000000000000000000000000000000000000000000000000000000009091565b600080427f000000000000000000000000000000000000000000000000000000000000000081101561022f57807f000000000000000000000000000000000000000000000000000000000000000003925062278d009150610238565b60009250600091505b509091565b61024561052b565b61024d61055c565b6001805460ff1916811790556040517f432acbfd662dbb5d8b378384a67159b47ca9d0f1b79f97cf64cf8585fa362d5090600090a1565b6001600160a01b031660009081526020819052604090205460ff1690565b60015460ff1690565b60008060006102b86101d3565b915091506103016102c7610362565b8c8c8c8c8c8c8b8d8b8b336040516020016102ed9c9b9a999897969594939291906109a2565b604051602081830303815290604052610571565b9b9a5050505050505050505050565b60007f0000000000000000000000000000000000000000000000000000000000000000826040516020016103459291906108d6565b604051602081830303815290604052805190602001209050919050565b7f000000000000000000000000000000000000000000000000000000000000000090565b6000610390610362565b6001600160a01b031663aaabadc56040518163ffffffff1660e01b815260040160206040518083038186803b1580156103c857600080fd5b505afa1580156103dc573d6000803e3d6000fd5b505050506040513d601f19601f8201168201806040525081019061018891906107ec565b80517f602038038060206000396000f3fefefefefefefefefefefefefefefefefefefe808352600091602081018484f0908452915061044c6001600160a01b03831615156101ac6105da565b50919050565b8051604080517f00000000000000000000000000000000000000000000000000000000000000007f0000000000000000000000000000000000000000000000000000000000000000818101858101848101602090810190965280855293957f00000000000000000000000000000000000000000000000000000000000000009592947f000000000000000000000000000000000000000000000000000000000000000094938801866000828a3c846000888301883c506020898101908985010161051d8183866105ec565b505050505050505050919050565b60006105426000356001600160e01b031916610310565b9050610559610551823361062a565b6101916105da565b50565b61056f6105676102a2565b1560d36105da565b565b600061057b61055c565b6000610586836106ba565b6001600160a01b038116600081815260208190526040808220805460ff191660011790555192935090917f83a48fbcfc991335314e74d0496aab6a1987e992ddc85dddbcc4d6dd6ef2e9fc9190a292915050565b816105e8576105e8816106ee565b5050565b5b6020811061060c578151835260209283019290910190601f19016105ed565b905182516020929092036101000a6000190180199091169116179052565b6000610634610386565b6001600160a01b0316639be2a8848484306040518463ffffffff1660e01b815260040161066393929190610930565b60206040518083038186803b15801561067b57600080fd5b505afa15801561068f573d6000803e3d6000fd5b505050506040513d601f19601f820116820180604052508101906106b391906107a4565b9392505050565b600060606106c783610452565b905060008151602083016000f090506001600160a01b0381166106b3573d6000803e3d6000fd5b62461bcd60e51b6000908152602060045260076024526642414c23000030600a808404818106603090810160081b95839006959095019082900491820690940160101b939093010160c81b604452606490fd5b60008083601f840112610752578182fd5b50813567ffffffffffffffff811115610769578182fd5b60208301915083602082850101111561078157600080fd5b9250929050565b600060208284031215610799578081fd5b81356106b381610a37565b6000602082840312156107b5578081fd5b815180151581146106b3578182fd5b6000602082840312156107d5578081fd5b81356001600160e01b0319811681146106b3578182fd5b6000602082840312156107fd578081fd5b81516106b381610a37565b60008060008060008060008060c0898b031215610823578384fd5b883567ffffffffffffffff8082111561083a578586fd5b6108468c838d01610741565b909a50985060208b013591508082111561085e578586fd5b5061086b8b828c01610741565b909750955050604089013561087f81610a37565b9350606089013561088f81610a37565b979a969950949793969295929450505060808201359160a0013590565b60008284528282602086013780602084860101526020601f19601f85011685010190509392505050565b9182526001600160e01b031916602082015260240190565b6001600160a01b0391909116815260200190565b6001600160a01b0392831681529116602082015260400190565b901515815260200190565b90815260200190565b9283526001600160a01b03918216602084015216604082015260600190565b6000602080835283518082850152825b8181101561097b5785810183015185820160400152820161095f565b8181111561098c5783604083870101525b50601f01601f1916929092016040019392505050565b6001600160a01b038d168152610140602082018190526000906109c89083018d8f6108ac565b82810360408401526109db818c8e6108ac565b6001600160a01b039a8b166060850152988a166080840152505060a081019590955260c085019390935260e08401919091526101008301529092166101209092019190915295945050505050565b918252602082015260400190565b6001600160a01b038116811461055957600080fdfea2646970667358221220d03ca1216edffa94d76a29c8e06d93f082f71700ef892634480dfaa6bd9bd10a64736f6c634300070100336102c06040527f6e71edae12b1b97f4d1f60370fef10105fa2faae0126114a169c64845d6126c960e052600a805460ff60a01b1916600160a01b17905560006019819055601b819055601c553480156200005857600080fd5b5060405162005bf838038062005bf88339810160408190526200007b9162000adf565b8960008a8a6200008d8b8b3062000458565b6040805160038082526080820190925290602082016060803683370190505089898989828289898d85336001600160a01b031660001b8480604051806040016040528060018152602001603160f81b81525087878160039080519060200190620000f992919062000957565b5080516200010f90600490602084019062000957565b50506005805460ff19166012179055508151602092830120608052805191012060a052507f8b73c3c69bb8fe3d512ecc4cf759cc79239f7b179b0ffacaa9a75d522b39400f60c052610100526001600160601b0319606091821b81166101205291901b1661014052506200018e90506276a70083111561019462000527565b620001a262278d0082111561019562000527565b4290910161016081905201610180528551620001c4906002111560c862000527565b620001de620001d26200053c565b8751111560c962000527565b620001f4866200054160201b62001c971760201c565b620001ff846200054d565b6040516309b2760f60e01b81526000906001600160a01b038c16906309b2760f9062000230908d9060040162000c7d565b602060405180830381600087803b1580156200024b57600080fd5b505af115801562000260573d6000803e3d6000fd5b505050506040513d601f19601f8201168201806040525081019062000286919062000aa7565b604051633354e3e960e11b81529091506001600160a01b038c16906366a9c7d290620002bb9084908b908b9060040162000be1565b600060405180830381600087803b158015620002d657600080fd5b505af1158015620002eb573d6000803e3d6000fd5b50505050806101a081815250508a6001600160a01b031663d2946c2b6040518163ffffffff1660e01b815260040160206040518083038186803b1580156200033257600080fd5b505afa15801562000347573d6000803e3d6000fd5b505050506040513d601f19601f820116820180604052508101906200036d919062000ac0565b6001600160a01b03166101c0816001600160a01b031660601b815250505050505050505050505050866001600160a01b03166101e0816001600160a01b031660601b81525050856001600160a01b0316610200816001600160a01b031660601b815250506000806000620003e98a8a30620005e160201b60201c565b6102608190526102808390526102a0829052919450925090506200040d8a620006d7565b610220526200041c89620006d7565b610240525050506009949094555050600a80546001600160a01b0319166001600160a01b03909316929092179091555062000cbd945050505050565b6060600080806200046b878787620005e1565b6040805160038082526080820190925293965091945092506020820160608036833701905050935086848481518110620004a157fe5b60200260200101906001600160a01b031690816001600160a01b03168152505085848381518110620004cf57fe5b60200260200101906001600160a01b031690816001600160a01b03168152505084848281518110620004fd57fe5b60200260200101906001600160a01b031690816001600160a01b0316815250505050509392505050565b8162000538576200053881620007ab565b5050565b600390565b806200053881620007fe565b620005666200055b6200088b565b82101560cb62000527565b6200057f6200057462000894565b82111560ca62000527565b620005a18160c06040600854620008a060201b62001ca117909392919060201c565b6008556040517fa9ba3ffe0b6c366b81232caab38605a0699ad5398d6cce76f91ee809e322dafc90620005d690839062000c92565b60405180910390a150565b6000806000846001600160a01b0316866001600160a01b031610156200066a57836001600160a01b0316856001600160a01b031610156200062d575060009150600190506002620006ce565b836001600160a01b0316866001600160a01b0316101562000659575060009150600290506001620006ce565b5060019150600290506000620006ce565b846001600160a01b0316846001600160a01b0316101562000696575060029150600190506000620006ce565b856001600160a01b0316846001600160a01b03161015620006c2575060029150600090506001620006ce565b50600191506000905060025b93509350939050565b60006001600160a01b038216301415620006fb5750670de0b6b3a7640000620007a6565b6000826001600160a01b031663313ce5676040518163ffffffff1660e01b815260040160206040518083038186803b1580156200073757600080fd5b505afa1580156200074c573d6000803e3d6000fd5b505050506040513d601f19601f8201168201806040525081019062000772919062000bbe565b60ff169050600062000791601283620008c560201b62001cc41760201c565b905080600a0a670de0b6b3a764000002925050505b919050565b62461bcd60e51b6000908152602060045260076024526642414c23000030600a808404818106603090810160081b95839006959095019082900491820690940160101b939093010160c81b604452606490fd5b6002815110156200080f5762000888565b6000816000815181106200081f57fe5b602002602001015190506000600190505b8251811015620008855760008382815181106200084957fe5b602002602001015190506200087a816001600160a01b0316846001600160a01b03161060656200052760201b60201c565b915060010162000830565b50505b50565b64e8d4a5100090565b67016345785d8a000090565b6000620008af848484620008e2565b506001901b60001901811b1992909216911b1790565b6000620008d783831115600162000527565b508082035b92915050565b620008f36101008310606462000527565b6200092c600182101580156200092457506200092060ff84610100036200093d60201b62001cda1760201c565b8211155b606462000527565b6200088583821c156101b462000527565b60008183106200094e578162000950565b825b9392505050565b828054600181600116156101000203166002900490600052602060002090601f016020900481019282601f106200099a57805160ff1916838001178555620009ca565b82800160010185558215620009ca579182015b82811115620009ca578251825591602001919060010190620009ad565b50620009d8929150620009dc565b5090565b5b80821115620009d85760008155600101620009dd565b8051620008dc8162000ca7565b600082601f83011262000a11578081fd5b81516001600160401b038082111562000a28578283fd5b6040516020601f8401601f191682018101838111838210171562000a4a578586fd5b8060405250819450838252868185880101111562000a6757600080fd5b600092505b8383101562000a8b578583018101518284018201529182019162000a6c565b8383111562000a9d5760008185840101525b5050505092915050565b60006020828403121562000ab9578081fd5b5051919050565b60006020828403121562000ad2578081fd5b8151620009508162000ca7565b6000806000806000806000806000806101408b8d03121562000aff578586fd5b62000b0b8c8c620009f3565b60208c0151909a506001600160401b038082111562000b28578788fd5b62000b368e838f0162000a00565b9a5060408d015191508082111562000b4c578788fd5b5062000b5b8d828e0162000a00565b98505062000b6d8c60608d01620009f3565b965062000b7e8c60808d01620009f3565b955060a08b0151945060c08b0151935060e08b015192506101008b0151915062000bad8c6101208d01620009f3565b90509295989b9194979a5092959850565b60006020828403121562000bd0578081fd5b815160ff8116811462000950578182fd5b60006060820185835260206060818501528186518084526080860191508288019350845b8181101562000c2d5762000c1a855162000c9b565b8352938301939183019160010162000c05565b505084810360408601528551808252908201925081860190845b8181101562000c6f5762000c5c835162000c9b565b8552938301939183019160010162000c47565b509298975050505050505050565b602081016003831062000c8c57fe5b91905290565b90815260200190565b6001600160a01b031690565b6001600160a01b03811681146200088857600080fd5b60805160a05160c05160e051610100516101205160601c6101405160601c61016051610180516101a0516101c05160601c6101e05160601c6102005160601c610220516102405161026051610280516102a051614e0662000df2600039806107f952806109415280611d725280611fb152508061083d5280611d315280611ffe525080611db35280612e00525050508061071d52806108fd528061104252806113525280611b8a5280613db05280613f48528061410b5250806107b5528061096c5280610ea25280611304528061169752806117425280611b3c5280613d755280613f2552806140c052508061184f525080610ef55250806125f65250806125d25250806115ed5250806115c95250806115535250806118a65250806126fc52508061273e52508061271d5250614e066000f3fe608060405234801561001057600080fd5b506004361061028a5760003560e01c806370a082311161015c57806395d89b41116100ce578063b7b814fc11610087578063b7b814fc1461054a578063d2946c2b14610552578063d505accf1461055a578063d5c096c41461056d578063dd62ed3e14610580578063e9fad8ee146105935761028a565b806395d89b41146104eb578063a3b13799146104f3578063a457c2d714610514578063a9059cbb14610527578063aaabadc51461053a578063b35056b8146105425761028a565b806382fce88f1161012057806382fce88f1461049a5780638456cb59146104ad578063851c1bb3146104b557806387ec6817146104c8578063893d20e8146104db5780638d928af8146104e35761028a565b806370a08231146104385780637489ec231461044b57806374f3b0091461045e5780637ecebe001461047f5780638129fc1c146104925761028a565b8063313ce5671161020057806346b8b730116101b957806346b8b730146103d757806350dd6ed9146103ec57806354a844ba146103ff57806355c67628146104075780636028bfd41461040f5780636945c1fd146104305761028a565b8063313ce567146103845780633644e5151461039957806338e9922e146103a157806338fff2d0146103b457806339509351146103bc5780633f4ba83a146103cf5761028a565b806318160ddd1161025257806318160ddd146103155780631c0de0511461031d5780631dd746ea146103345780631f0404801461034957806323b872dd1461035c5780632541897f1461036f5761028a565b806301ec954a1461028f57806306fdde03146102b8578063095ea7b3146102cd5780630c8605be146102ed57806313ce454614610302575b600080fd5b6102a261029d36600461470b565b61059b565b6040516102af9190614b6d565b60405180910390f35b6102c06109f3565b6040516102af9190614c7f565b6102e06102db36600461450f565b610a89565b6040516102af9190614b4a565b6103006102fb36600461464e565b610aa0565b005b61030061031036600461462d565b610b93565b6102a2610d6e565b610325610d74565b6040516102af93929190614b55565b61033c610d9d565b6040516102af9190614b09565b61030061035736600461464e565b610dac565b6102e061036a36600461445f565b610e2c565b610377610ea0565b6040516102af9190614a54565b61038c610ec4565b6040516102af9190614d77565b6102a2610ecd565b6103006103af36600461455a565b610ed7565b6102a2610ef3565b6102e06103ca36600461450f565b610f17565b610300610f52565b6103df610f66565b6040516102af9190614ac5565b6103006103fa3660046146bd565b610fc6565b610300610fe4565b6102a2610ff6565b61042261041d36600461458a565b611009565b6040516102af929190614d5e565b610377611040565b6102a261044636600461440b565b611064565b61030061045936600461455a565b611083565b61047161046c36600461458a565b6111c4565b6040516102af929190614b1c565b6102a261048d36600461440b565b6112c7565b6103006112e2565b6103006104a836600461464e565b611494565b61030061153d565b6102a26104c3366004614679565b61154f565b6104226104d636600461458a565b6115a1565b6103776115c7565b6103776115eb565b6102c061160f565b61050661050136600461455a565b611670565b6040516102af929190614a03565b6102e061052236600461450f565b6117d8565b6102e061053536600461450f565b611816565b610377611823565b6102e061182d565b61030061183b565b61037761184d565b61030061056836600461449f565b611871565b61047161057b36600461458a565b6119ba565b6102a261058e366004614427565b611add565b610300611b1a565b600084608001516105c86105ad6115eb565b6001600160a01b0316336001600160a01b03161460cd611cf2565b6105dd6105d3610ef3565b82146101f4611cf2565b60606105e7611d00565b905060608060005b896101000151518110156106ab576005811161064957896101000151818151811061061657fe5b602001015160f81c60f81b83828151811061062d57fe5b60200101906001600160f81b031916908160001a9053506106a3565b6006811015801561065b575060268111155b156106a357896101000151818151811061067157fe5b602001015160f81c60f81b82600683038151811061068b57fe5b60200101906001600160f81b031916908160001a9053505b6001016105ef565b506106b4614253565b60405180604001604052806106c885611dec565b81526020016106d684611e0a565b90529050600080808c5160018111156106eb57fe5b14156108c9576107128c60600151878c8151811061070557fe5b6020026020010151611eac565b8c60600181815250507f00000000000000000000000000000000000000000000000000000000000000006001600160a01b03168c604001516001600160a01b031614156107b35761076c8c846314d95b1b60e21b8e611eb8565b84519093509091506513585c9ad95d60d21b14156107ae576107a181878b8151811061079457fe5b60200260200101516121ef565b97505050505050506109ea565b6108c4565b7f00000000000000000000000000000000000000000000000000000000000000006001600160a01b03168c604001516001600160a01b031614156108c45760006108348c7f00000000000000000000000000000000000000000000000000000000000000008151811061082257fe5b60200260200101518e606001516121fb565b9050610875818d7f00000000000000000000000000000000000000000000000000000000000000008151811061086657fe5b6020026020010151600061220d565b60608e015261088c8d856242757960e81b8f611eb8565b85519094509092506513585c9ad95d60d21b14156108c2576108b483888c8151811061079457fe5b9850505050505050506109ea565b505b6109e3565b60018c5160018111156108d857fe5b14156109e3576108f28c60600151878b8151811061070557fe5b8c60600181815250507f00000000000000000000000000000000000000000000000000000000000000006001600160a01b03168c602001516001600160a01b0316141561096a5760006108348c7f00000000000000000000000000000000000000000000000000000000000000008151811061082257fe5b7f00000000000000000000000000000000000000000000000000000000000000006001600160a01b03168c602001516001600160a01b031614156109e3576109bb8c846314d95b1b60e21b8e611eb8565b84519093509091506513585c9ad95d60d21b14156109e3576107a181878b8151811061079457fe5b5050505050505b50949350505050565b60038054604080516020601f6002600019610100600188161502019095169490940493840181900481028201810190925282815260609390929091830182828015610a7f5780601f10610a5457610100808354040283529160200191610a7f565b820191906000526020600020905b815481529060010190602001808311610a6257829003601f168201915b5050505050905090565b6000610a96338484612235565b5060015b92915050565b6000838152600c60205260409020600301546327b832b760e11b14610ac457600080fd5b6000838152600c60205260409020600601546001600160a01b0316331415610b8e576000838152600c6020526040902060078101839055600481018290554260058201556001015464131a5b5a5d60da1b1415610b47576000838152600c6020908152604080832054835260129091529020839055610b428261229d565b610b8e565b6000838152600c602052604090206001015463053746f760e41b1415610b8e576000838152600c6020908152604080832054835260159091529020839055610b8e8261242a565b505050565b600a546001600160a01b03163314610baa57600080fd5b6000828152600c60209081526040808320600601546001600160a01b03168352600e8252808320858452600f9092529091205481548110610be757fe5b60009182526020808320909101829055838252600f81526040808320839055600c825280832083815560018101849055600281018490556003810184905560048101849055600581018490556006810180546001600160a01b03191690556007810184905560088101849055600901839055600d909152902054600b80549091908110610c7057fe5b60009182526020808320909101829055838252600d81526040808320839055838352600c8252808320600601546001600160a01b03168352600e8252808320848452600f9092529091205481548110610cc557fe5b60009182526020808320909101829055828252600f81526040808320839055600c825280832083815560018101849055600281018490556003810184905560048101849055600581018490556006810180546001600160a01b03191690556007810184905560088101849055600901839055600d909152902054600b80549091908110610d4e57fe5b60009182526020808320909101829055918152600d909152604081205550565b60025490565b6000806000610d816125b3565b159250610d8c6125d0565b9150610d966125f4565b9050909192565b6060610da7611d00565b905090565b806242757960e81b1480610dc65750806314d95b1b60e21b145b610dcf57600080fd5b600a546001600160a01b03163314610de657600080fd5b506000828152600c602090815260408083206004810180549095019094556327b832b760e11b6003850155600b5493849055928252601090522055601180546001019055565b600080610e398533611add565b9050610e5d336001600160a01b0387161480610e555750838210155b61019e611cf2565b610e68858585612618565b336001600160a01b03861614801590610e8357506000198114155b15610e9557610e958533858403612235565b506001949350505050565b7f000000000000000000000000000000000000000000000000000000000000000090565b60055460ff1690565b6000610da76126f8565b610edf612795565b610ee76127c3565b610ef0816127d6565b50565b7f000000000000000000000000000000000000000000000000000000000000000090565b3360008181526001602090815260408083206001600160a01b03871684529091528120549091610a96918590610f4d90866121fb565b612235565b610f5a612795565b610f64600061284f565b565b336000908152600e6020908152604091829020805483518184028101840190945280845260609392830182828015610a7f57602002820191906000526020600020905b815481526020019060010190808311610fa9575050505050905090565b610fce612795565b610fd66127c3565b610fe082826128c2565b5050565b610fec612795565b610f6460016129c1565b600854600090610da79060c06040612a04565b6000606061101f865161101a612a13565b612a18565b61103489898989898989612a25612a41612aa2565b97509795505050505050565b7f000000000000000000000000000000000000000000000000000000000000000090565b6001600160a01b0381166000908152602081905260409020545b919050565b6000818152600c60205260409020600601546001600160a01b031633146110a957600080fd5b6000818152600c602090815260408083208054845260108352818420849055805484526013835281842084905580548452601283528184208490558054845260168352818420849055805484526015835281842084905584845283815560018101849055600281018490556003810184905560048101849055600581018490556006810180546001600160a01b03191690556007810184905560088101849055600901839055600d909152902054600b8054909190811061116657fe5b60009182526020808320909101829055828252600d81526040808320839055338352600e8252808320848452600f90925290912054815481106111a557fe5b60009182526020808320909101829055918152600f9091526040812055565b606080886111d36105ad6115eb565b6111de6105d3610ef3565b606060006111eb86612bc4565b15611213576111f8612bf3565b61120a89611204610d6e565b88612c0a565b92509050611265565b61121b6127c3565b6060611225611d00565b90506112318a82612c36565b6112558d8d8d8d8d61124161182d565b61124b578d61124e565b60005b878e612a25565b935091506112638382612a41565b505b61126f8b82612c97565b81895167ffffffffffffffff8111801561128857600080fd5b506040519080825280602002602001820160405280156112b2578160200160208202803683370190505b509450945050505b5097509795505050505050565b6001600160a01b031660009081526006602052604090205490565b60408051600280825260608083018452926020830190803683370190505090507f00000000000000000000000000000000000000000000000000000000000000008160008151811061133057fe5b60200260200101906001600160a01b031690816001600160a01b0316815250507f00000000000000000000000000000000000000000000000000000000000000008160018151811061137e57fe5b6001600160a01b039290921660209283029190910190910152604080516001808252818301909252606091816020016020820280368337019050509050600954816000815181106113cb57fe5b6020026020010181815250506113df61426a565b506040805160808101825283815260208082018490528251908101835260008082529282015260608101919091526114156115eb565b6001600160a01b031663b95cac2861142b610ef3565b600a546040516001600160e01b031960e085901b16815261145d92916001600160a01b03169030908790600401614b76565b600060405180830381600087803b15801561147757600080fd5b505af115801561148b573d6000803e3d6000fd5b50505050505050565b600a546001600160a01b031633146114ab57600080fd5b6000928352601d6020908152604080852080546001600160a01b0319908116825560018201805482169055600282018054821690556003808301889055600483018890556005830180549092169091556006820187905560078201879055600882018790556009909101869055938552600c90915280842065119a5b1b195960d21b9084018190559184529092200155565b611545612795565b610f64600161284f565b60007f000000000000000000000000000000000000000000000000000000000000000082604051602001611584929190614a11565b604051602081830303815290604052805190602001209050919050565b600060606115b2865161101a612a13565b61103489898989898989612a25612ca1612aa2565b7f000000000000000000000000000000000000000000000000000000000000000090565b7f000000000000000000000000000000000000000000000000000000000000000090565b60048054604080516020601f6002600019610100600188161502019095169490940493840181900481028201810190925282815260609390929091830182828015610a7f5780601f10610a5457610100808354040283529160200191610a7f565b6000818152601e60209081526040808320548352601d9091528120600201548190819081907f00000000000000000000000000000000000000000000000000000000000000006001600160a01b0390811691161480156116f357506000858152601e60209081526040808320548352601d9091529020600601546242757960e81b145b156117215750506000838152601e60209081526040808320548352601d909152902060038101546004909101545b6000858152601e60209081526040808320548352601d9091529020600201547f00000000000000000000000000000000000000000000000000000000000000006001600160a01b03908116911614801561179f57506000858152601e60209081526040808320548352601d9091529020600601546314d95b1b60e21b145b156117ce5750506000838152601e60209081526040808320548352601d90915290206003810154600490910154905b9092509050915091565b6000806117e53385611add565b90508083106117ff576117fa33856000612235565b61180c565b61180c3385858403612235565b5060019392505050565b6000610a96338484612618565b6000610da7612d02565b600754610100900460ff1690565b611843612795565b610f6460006129c1565b7f000000000000000000000000000000000000000000000000000000000000000090565b61187f8442111560d1611cf2565b6001600160a01b03871660009081526006602090815260408083205490519092916118d6917f0000000000000000000000000000000000000000000000000000000000000000918c918c918c9188918d9101614bd1565b60405160208183030381529060405280519060200120905060006118f982612d7c565b90506000600182888888604051600081526020016040526040516119209493929190614c61565b6020604051602081039080840390855afa158015611942573d6000803e3d6000fd5b5050604051601f190151915061198490506001600160a01b0382161580159061197c57508b6001600160a01b0316826001600160a01b0316145b6101f8611cf2565b6001600160a01b038b1660009081526006602052604090206001850190556119ad8b8b8b612235565b5050505050505050505050565b606080886119c96105ad6115eb565b6119d46105d3610ef3565b60606119de611d00565b90506119e86127c3565b6119f0610d6e565b611a9d5760006060611a058d8d8d868b612d98565b91509150611a1e611a14612e44565b83101560cc611cf2565b611a306000611a2b612e44565b612e4b565b611a438b611a3c612e44565b8403612e4b565b611a4d8184612ca1565b808a5167ffffffffffffffff81118015611a6657600080fd5b50604051908082528060200260200182016040528015611a90578160200160208202803683370190505b50955095505050506112ba565b611aa78882612c36565b60006060611acf8d8d8d8d8d611abb61182d565b611ac5578d611ac8565b60005b898e612a25565b91509150611a438b83612e4b565b6000611ae76115eb565b6001600160a01b0316826001600160a01b03161415611b095750600019610a9a565b611b138383612e55565b9050610a9a565b60408051600280825260608083018452926020830190803683370190505090507f000000000000000000000000000000000000000000000000000000000000000081600081518110611b6857fe5b60200260200101906001600160a01b031690816001600160a01b0316815250507f000000000000000000000000000000000000000000000000000000000000000081600181518110611bb657fe5b6001600160a01b03929092166020928302919091019091015260408051600180825281830190925260609181602001602082028036833701905050905060095481600081518110611c0357fe5b602002602001018181525050611c1761426a565b50604080516080810182528381526020808201849052825190810183526000808252928201526060810191909152611c4d6115eb565b6001600160a01b0316638bdb3913611c63610ef3565b600a546040516001600160e01b031960e085901b16815261145d929130916001600160a01b03909116908790600401614b76565b80610fe081612e80565b6000611cae848484612ef9565b506001901b60001901811b1992909216911b1790565b6000611cd4838311156001611cf2565b50900390565b6000818310611ce95781611ceb565b825b9392505050565b81610fe057610fe081612f40565b60408051600380825260808201909252606091829190602082018380368337019050509050670de0b6b3a7640000817f000000000000000000000000000000000000000000000000000000000000000081518110611d5a57fe5b602002602001018181525050670de0b6b3a7640000817f000000000000000000000000000000000000000000000000000000000000000081518110611d9b57fe5b602002602001018181525050670de0b6b3a7640000817f000000000000000000000000000000000000000000000000000000000000000081518110611ddc57fe5b6020908102919091010152905090565b80516000908290611e0157506000905061107e565b50506020015190565b600080828180805b8351811015611ea1576030848281518110611e2957fe5b016020015160f81c10801590611e5357506039848281518110611e4857fe5b016020015160f81c11155b15611e94578291506030848281518110611e6957fe5b602001015160f81c60f81b60f81c60ff160383600a0201925082821115611e8f57600194505b611e99565b600194505b600101611e12565b509095945050505050565b6000611ceb8383612f93565b60008084600001516513585c9ad95d60d21b1480611ede5750845164131a5b5a5d60da1b145b80611ef05750845163053746f760e41b145b611ef957600080fd5b836242757960e81b1480611f135750836314d95b1b60e21b145b611f1c57600080fd5b60008660c0015142604051602001611f359291906149e1565b60408051808303601f19018152918152815160209283012060c08a01516000828152600c8552929092206006810180546001600160a01b0319166001600160a01b0390941693909317909255918801516007820155600b54815560608901516004820155600281018790558751600190910155845190915084907f0000000000000000000000000000000000000000000000000000000000000000908110611fd957fe5b6020026020010151600c600083815260200190815260200160002060080181905550837f00000000000000000000000000000000000000000000000000000000000000008151811061202757fe5b6020908102919091018101516000838152600c83526040808220600981019390935542600590930192909255600b8054600d8552838320819055600180820183559183527f0175b7a638427703f0dbe7bb9bbf987a2551717b34e79f33b5b1008d1fa01db90185905560c08b0180516001600160a01b039081168452600e80875285852054888652600f88528686205591511683528452918120805492830181558152919091200181905585516513585c9ad95d60d21b1415612137576000818152600c6020908152604080832065119a5b1b195960d21b60038201555483526010909152902081905560118054600101905561212d81651b585c9ad95d60d21b612fc9565b92509250506121e6565b855164131a5b5a5d60da1b141561218d576000818152600c602090815260408083206327b832b760e11b6003820155548352601282529091208290556014805460010190558601516121889061229d565b6121dd565b855163053746f760e41b14156121dd576000818152600c602090815260408083206327b832b760e11b6003820155548352601582529091208290556017805460010190558601516121dd9061242a565b60008092509250505b94509492505050565b6000611ceb8383613739565b6000828201611ceb8482101583611cf2565b6000816122235761221e848461378a565b61222d565b61222d84846137aa565b949350505050565b6001600160a01b0380841660008181526001602090815260408083209487168084529490915290819020849055517f8c5be1e5ebec7d5bd14f71427d1e84f3dd0314c0f7b2291e5b200ac8c7c3b92590612290908590614b6d565b60405180910390a3505050565b6000805b601454811015610b8e576000818152601260209081526040808320548352600c9091529020600201546242757960e81b1480156122fc57506000818152601260209081526040808320548352600c9091529020600701548311155b156123685760008181526012602081815260408084208054808652600c84528286205486526010845291852091909155601180546001019055928490525254915061234f81641b1a5b5a5d60da1b6137dd565b61236182641b1a5b5a5d60da1b612fc9565b5050612422565b6000818152601260209081526040808320548352600c9091529020600201546314d95b1b60e21b1480156123ba57506000818152601260209081526040808320548352600c9091529020600701548310155b156124225760008181526012602081815260408084208054808652600c84528286205486526010845291852091909155601180546001019055928490525254915061240d81641b1a5b5a5d60da1b6137dd565b61241f82641b1a5b5a5d60da1b612fc9565b50505b6001016122a1565b6000805b601754811015610b8e576000818152601560209081526040808320548352600c9091529020600201546242757960e81b14801561248957506000818152601560209081526040808320548352600c9091529020600701548310155b156124f35760008181526015602081815260408084208054808652600c8452828620548652601084529185209190915560118054600101905592849052525491506124db8163073746f760e41b6137dd565b6124ec8263073746f760e41b612fc9565b50506125ab565b6000818152601560209081526040808320548352600c9091529020600201546314d95b1b60e21b14801561254557506000818152601560209081526040808320548352600c9091529020600701548311155b156125ab5760008181526015602081815260408084208054808652600c8452828620548652601084529185209190915560118054600101905592849052525491506125978163073746f760e41b6137dd565b6125a88263073746f760e41b612fc9565b50505b60010161242e565b60006125bd6125f4565b421180610da757505060075460ff161590565b7f000000000000000000000000000000000000000000000000000000000000000090565b7f000000000000000000000000000000000000000000000000000000000000000090565b61262f6001600160a01b0384161515610198611cf2565b6126466001600160a01b0383161515610199611cf2565b612651838383610b8e565b6001600160a01b03831660009081526020819052604090205461267790826101a061392c565b6001600160a01b0380851660009081526020819052604080822093909355908416815220546126a690826121fb565b6001600160a01b0380841660008181526020819052604090819020939093559151908516907fddf252ad1be2c89b69c2b068fc378daa952ba7f163c4a11628f55a4df523b3ef90612290908590614b6d565b60007f00000000000000000000000000000000000000000000000000000000000000007f00000000000000000000000000000000000000000000000000000000000000007f0000000000000000000000000000000000000000000000000000000000000000612765613942565b3060405160200161277a959493929190614c05565b60405160208183030381529060405280519060200120905090565b60006127ac6000356001600160e01b03191661154f565b9050610ef06127bb8233613946565b610191611cf2565b610f646127ce6125b3565b610192611cf2565b6127eb6127e1613a2f565b82101560cb611cf2565b6128006127f6613a38565b82111560ca611cf2565b600854612811908260c06040611ca1565b6008556040517fa9ba3ffe0b6c366b81232caab38605a0699ad5398d6cce76f91ee809e322dafc90612844908390614b6d565b60405180910390a150565b801561286f5761286a6128606125d0565b4210610193611cf2565b612884565b61288461287a6125f4565b42106101a9611cf2565b6007805460ff19168215151790556040517f9e3a5e37224532dea67b89face185703738a228a6e8a23dee546960180d3be6490612844908390614b4a565b60006128cc610ef3565b905060006128d86115eb565b6001600160a01b031663b05f8e4883866040518363ffffffff1660e01b8152600401612905929190614c4a565b60806040518083038186803b15801561291d57600080fd5b505afa158015612931573d6000803e3d6000fd5b505050506040513d601f19601f82011682018060405250810190612955919061482a565b604051630639cdb560e21b81529094506001600160a01b03851693506318e736d49250612989915085908790600401614c31565b600060405180830381600087803b1580156129a357600080fd5b505af11580156129b7573d6000803e3d6000fd5b5050505050505050565b6007805461ff001916610100831515021790556040517feff3d4d215b42bf0960be9c6d5e05c22cba4df6627a3a523e2acee733b5854c890612844908390614b4a565b6001901b6000190191901c1690565b600390565b610fe08183146067611cf2565b60006060612a34610136612f40565b9850989650505050505050565b60005b612a4c612a13565b811015610b8e57612a83838281518110612a6257fe5b6020026020010151838381518110612a7657fe5b6020026020010151613739565b838281518110612a8f57fe5b6020908102919091010152600101612a44565b333014612b60576000306001600160a01b0316600036604051612ac6929190614a29565b6000604051808303816000865af19150503d8060008114612b03576040519150601f19603f3d011682016040523d82523d6000602084013e612b08565b606091505b505090508060008114612b1757fe5b60046000803e6000516001600160e01b0319166343adbafb60e01b8114612b42573d6000803e3d6000fd5b506020600460003e604060205260243d03602460403e601c3d016000f35b6060612b6a611d00565b9050612b768782612c36565b60006060612b8e8c8c8c8c8c8c898d8d63ffffffff16565b91509150612ba081848663ffffffff16565b8051601f1982018390526343adbafb603f1983015260200260231982016044820181fd5b6000808251118015610a9a575060ff801682806020019051810190612be9919061486a565b60ff161492915050565b600754610f6490610100900460ff166101b6611cf2565b600060606000612c1984613a44565b90506060612c28878784613a5a565b919791965090945050505050565b60005b612c41612a13565b811015610b8e57612c78838281518110612c5757fe5b6020026020010151838381518110612c6b57fe5b6020026020010151612f93565b838281518110612c8457fe5b6020908102919091010152600101612c39565b610fe08282613b09565b60005b612cac612a13565b811015610b8e57612ce3838281518110612cc257fe5b6020026020010151838381518110612cd657fe5b6020026020010151613bc5565b838281518110612cef57fe5b6020908102919091010152600101612ca4565b6000612d0c6115eb565b6001600160a01b031663aaabadc56040518163ffffffff1660e01b815260040160206040518083038186803b158015612d4457600080fd5b505afa158015612d58573d6000803e3d6000fd5b505050506040513d601f19601f82011682018060405250810190610da791906146a1565b6000612d866126f8565b82604051602001611584929190614a39565b60006060612da46127c3565b600a54612dc1906001600160a01b038881169116146101aa611cf2565b612dd86001600160a01b03861630146101aa611cf2565b60408051600380825260808201909252606091602082018380368337019050509050600954817f000000000000000000000000000000000000000000000000000000000000000081518110612e2957fe5b60209081029190910101526009549890975095505050505050565b620f424090565b610fe08282613c13565b6001600160a01b03918216600090815260016020908152604080832093909416825291909152205490565b600281511015612e8f57610ef0565b600081600081518110612e9e57fe5b602002602001015190506000600190505b8251811015610b8e576000838281518110612ec657fe5b60200260200101519050612eef816001600160a01b0316846001600160a01b0316106065611cf2565b9150600101612eaf565b612f0861010083106064611cf2565b612f3160018210158015612f2a5750612f2660ff8461010003611cda565b8211155b6064611cf2565b610b8e83821c156101b4611cf2565b62461bcd60e51b6000908152602060045260076024526642414c23000030600a808404818106603090810160081b95839006959095019082900491820690940160101b939093010160c81b604452606490fd5b6000828202612fb7841580612fb0575083858381612fad57fe5b04145b6003611cf2565b670de0b6b3a764000090049392505050565b60008060005b60115481101561325657600081815260106020526040902054851480159061303157506000858152600c602081815260408084206006908101548686526010845282862054865293909252909220909101546001600160a01b03908116911614155b801561306457506000818152601060209081526040808320548352600c90915290206003015465119a5b1b195960d21b14155b1561324e576000818152601060209081526040808320548352600c9091529020600201546242757960e81b1480156130b357506000858152600c60205260409020600201546314d95b1b60e21b145b1561315e576000858152600c6020818152604080842060079081015486865260108452828620548652939092529092209091015410613159576019546000828152601060209081526040808320548352600c9091529020600701541115613159576000818152601060209081526040808320548352600c909152902060070154601955600b80548290811061314457fe5b600091825260209091200154601855601c8190555b61324e565b6000818152601060209081526040808320548352600c9091529020600201546314d95b1b60e21b1480156131a857506000858152600c60205260409020600201546242757960e81b145b1561324e576000858152600c602081815260408084206007908101548686526010845282862054865293909252909220909101541161324e57601b546000828152601060209081526040808320548352600c909152902060070154111561324e576000818152601060209081526040808320548352600c909152902060070154601b55600b80548290811061323957fe5b600091825260209091200154601a55601c8190555b600101612fcf565b506000848152600c60205260409020600201546314d95b1b60e21b14156134eb57601854156134e0576000848152600c60205260408082206004908101546018548452919092209091015410613381576000848152600c60205260408082206004808201805460188054875285872090930180549190910390558054908590558154855283852065119a5b1b195960d21b600391820181905590840155600680840154925480875294862001549489905260078301546002840154600190940154919561333a958b956001600160a01b039586169591949190921692918891613ca1565b61334f601c54651b585c9ad95d60d21b6137dd565b83651b585c9ad95d60d21b141561337b576000858152600c602052604090206007015492509050613732565b50613454565b601880546000908152600c602052604080822060049081015488845282842080830180549290920390915584548452828420909101805490849055845484528284206b14185c9d1b1e519a5b1b195960a21b6003918201819055908301556006808301549554808652938520015493899052600782015460028301546001909301549195613426958b956001600160a01b039283169590949190921692918891613ca1565b83651b585c9ad95d60d21b1415613452576000858152600c602052604090206007015492509050613732565b505b6000848152600c6020526040902060098101546004909101546134779190611cc4565b6000858152600c60205260409020600981019190915560088101546007909101546134a291906121fb565b6000858152600c602052604090206008810191909155600701546134c59061229d565b6000848152600c60205260409020600701546134e09061242a565b506000905080613732565b6000848152600c60205260409020600201546242757960e81b141561373257601a54156134e0576000848152600c6020526040808220600490810154601a548452919092209091015410613614576000848152600c602052604080822060048082018054601a8054875285872090930180549190910390558054908590558154855283852065119a5b1b195960d21b6003918201819055908401559054808552928420600690810154948990528201546007830154600284015460019094015492956135cd95946001600160a01b03918216948c949092169291889190613ca1565b6135e2601c54651b585c9ad95d60d21b6137dd565b83651b585c9ad95d60d21b141561360e576000858152600c602052604090206007015492509050613732565b506136e4565b601a80546000908152600c602052604080822060049081015488845282842080830180549290920390915584548452828420909101805490849055845484528284206b14185c9d1b1e519a5b1b195960a21b600391820181905590830155935480845291832060069081015493899052810154600782015460028301546001909301546136b6956001600160a01b03908116948c949091169291889190613ca1565b83651b585c9ad95d60d21b14156136e2576000858152600c602052604090206007015492509050613732565b505b6000848152600c60205260409020600981015460049091015461370791906121fb565b6000858152600c60205260409020600981019190915560088101546007909101546134a29190611cc4565b9250929050565b60006137488215156004611cf2565b8261375557506000610a9a565b670de0b6b3a7640000838102906137789085838161376f57fe5b04146005611cf2565b82818161378157fe5b04915050610a9a565b60006137998215156004611cf2565b8183816137a257fe5b049392505050565b60006137b98215156004611cf2565b826137c657506000610a9a565b8160018403816137d257fe5b046001019050610a9a565b80651b585c9ad95d60d21b141561384e57815b60115481101561383e5760016011540381141561381b57600083815260106020526040812055613836565b60018301600090815260106020526040808220548583529120555b6001016137f0565b5060118054600019019055610fe0565b80641b1a5b5a5d60da1b14156138be57815b6014548110156138ae5760016014540381141561388b576000838152601260205260408120556138a6565b60018301600090815260126020526040808220548583529120555b600101613860565b5060148054600019019055610fe0565b8063073746f760e41b1415610fe057815b60175481101561391d576001601754038114156138fa57600083815260156020526040812055613915565b60018301600090815260156020526040808220548583529120555b6001016138cf565b50601780546000190190555050565b600061393b8484111583611cf2565b5050900390565b4690565b600073ba1ba1ba1ba1ba1ba1ba1ba1ba1ba1ba1ba1ba1b6139656115c7565b6001600160a01b0316141580156139805750613980836141f9565b156139a85761398d6115c7565b6001600160a01b0316336001600160a01b0316149050610a9a565b6139b0612d02565b6001600160a01b0316639be2a8848484306040518463ffffffff1660e01b81526004016139df93929190614bb2565b60206040518083038186803b1580156139f757600080fd5b505afa158015613a0b573d6000803e3d6000fd5b505050506040513d601f19601f82011682018060405250810190611b13919061453a565b64e8d4a5100090565b67016345785d8a000090565b600081806020019051810190611ceb9190614886565b60606000613a688385613739565b9050845167ffffffffffffffff81118015613a8257600080fd5b50604051908082528060200260200182016040528015613aac578160200160208202803683370190505b50915060005b8551811015613b0057613ae182878381518110613acb57fe5b6020026020010151612f9390919063ffffffff16565b838281518110613aed57fe5b6020908102919091010152600101613ab2565b50509392505050565b613b206001600160a01b038316151561019b611cf2565b613b2c82600083610b8e565b6001600160a01b038216600090815260208190526040902054613b5290826101b261392c565b6001600160a01b038316600090815260208190526040902055600254613b78908261422b565b6002556040516000906001600160a01b038416907fddf252ad1be2c89b69c2b068fc378daa952ba7f163c4a11628f55a4df523b3ef90613bb9908590614b6d565b60405180910390a35050565b6000613bd48215156004611cf2565b82613be157506000610a9a565b670de0b6b3a764000083810290613bfb9085838161376f57fe5b826001820381613c0757fe5b04600101915050610a9a565b613c1f60008383610b8e565b600254613c2c90826121fb565b6002556001600160a01b038216600090815260208190526040902054613c5290826121fb565b6001600160a01b0383166000818152602081905260408082209390935591519091907fddf252ad1be2c89b69c2b068fc378daa952ba7f163c4a11628f55a4df523b3ef90613bb9908590614b6d565b6000826242757960e81b1415613cc957506000888152600c6020526040902060070154613cec565b826314d95b1b60e21b1415613cec57506000868152600c60205260409020600701545b60008988604051602001613d01929190614a03565b60405160208183030381529060405280519060200120905080601e60008c81526020019081526020016000208190555080601e60008a8152602001908152602001600020819055506040518061014001604052808a6001600160a01b03168152602001886001600160a01b031681526020017f00000000000000000000000000000000000000000000000000000000000000006001600160a01b031681526020018781526020018381526020017f00000000000000000000000000000000000000000000000000000000000000006001600160a01b0316815260200185815260200184815260200186815260200142815250601d600083815260200190815260200160002060008201518160000160006101000a8154816001600160a01b0302191690836001600160a01b0316021790555060208201518160010160006101000a8154816001600160a01b0302191690836001600160a01b0316021790555060408201518160020160006101000a8154816001600160a01b0302191690836001600160a01b03160217905550606082015181600301556080820151816004015560a08201518160050160006101000a8154816001600160a01b0302191690836001600160a01b0316021790555060c0820151816006015560e082015181600701556101008201518160080155610120820151816009015590505060004290507f156bf7973c4610a54da63e11aee83150e3c726c558bb3a700c5a07f8c89f82268a897f00000000000000000000000000000000000000000000000000000000000000008a877f00000000000000000000000000000000000000000000000000000000000000008c88604051613f7d989796959493929190614a68565b60405180910390a1600a5460405162157d5560e61b81526000916001600160a01b03169063055f554090613fb5908c90600401614a54565b60206040518083038186803b158015613fcd57600080fd5b505afa158015613fe1573d6000803e3d6000fd5b505050506040513d601f19601f820116820180604052508101906140059190614572565b600a5460405162157d5560e61b81529192506000916001600160a01b039091169063055f55409061403a908f90600401614a54565b60206040518083038186803b15801561405257600080fd5b505afa158015614066573d6000803e3d6000fd5b505050506040513d601f19601f8201168201806040525081019061408a9190614572565b9050614094614294565b604051806101c001604052808e6001600160a01b031681526020018c6001600160a01b031681526020017f00000000000000000000000000000000000000000000000000000000000000006001600160a01b031681526020016650656e64696e6760c81b81526020018381526020018481526020017f00000000000000000000000000000000000000000000000000000000000000006001600160a01b031681526020018b81526020018a815260200161414e8c8c614239565b8152602001858152602001306001600160a01b031681526020018f81526020018d8152509050600a60009054906101000a90046001600160a01b03166001600160a01b0316631459945d82876040518363ffffffff1660e01b81526004016141b7929190614c92565b600060405180830381600087803b1580156141d157600080fd5b505af11580156141e5573d6000803e3d6000fd5b505050505050505050505050505050505050565b600061420b631c74c91760e11b61154f565b821480610a9a57506142236350dd6ed960e01b61154f565b909114919050565b6000611ceb8383600161392c565b6000828202611ceb841580612fb0575083858381612fad57fe5b604080518082019091526000808252602082015290565b60405180608001604052806060815260200160608152602001606081526020016000151581525090565b604080516101c081018252600080825260208201819052918101829052606081018290526080810182905260a0810182905260c0810182905260e08101829052610100810182905261012081018290526101408101829052610160810182905261018081018290526101a081019190915290565b8035610a9a81614dac565b600082601f830112614323578081fd5b813567ffffffffffffffff811115614339578182fd5b6020808202614349828201614d85565b8381529350818401858301828701840188101561436557600080fd5b600092505b8483101561438857803582526001929092019190830190830161436a565b505050505092915050565b600082601f8301126143a3578081fd5b813567ffffffffffffffff8111156143b9578182fd5b6143cc601f8201601f1916602001614d85565b91508082528360208285010111156143e357600080fd5b8060208401602084013760009082016020015292915050565b803560028110610a9a57600080fd5b60006020828403121561441c578081fd5b8135611ceb81614dac565b60008060408385031215614439578081fd5b823561444481614dac565b9150602083013561445481614dac565b809150509250929050565b600080600060608486031215614473578081fd5b833561447e81614dac565b9250602084013561448e81614dac565b929592945050506040919091013590565b600080600080600080600060e0888a0312156144b9578283fd5b87356144c481614dac565b965060208801356144d481614dac565b9550604088013594506060880135935060808801356144f281614dc1565b9699959850939692959460a0840135945060c09093013592915050565b60008060408385031215614521578182fd5b823561452c81614dac565b946020939093013593505050565b60006020828403121561454b578081fd5b81518015158114611ceb578182fd5b60006020828403121561456b578081fd5b5035919050565b600060208284031215614583578081fd5b5051919050565b600080600080600080600060e0888a0312156145a4578081fd5b8735965060208801356145b681614dac565b955060408801356145c681614dac565b9450606088013567ffffffffffffffff808211156145e2578283fd5b6145ee8b838c01614313565b955060808a0135945060a08a0135935060c08a0135915080821115614611578283fd5b5061461e8a828b01614393565b91505092959891949750929550565b6000806040838503121561463f578182fd5b50508035926020909101359150565b600080600060608486031215614662578081fd5b505081359360208301359350604090920135919050565b60006020828403121561468a578081fd5b81356001600160e01b031981168114611ceb578182fd5b6000602082840312156146b2578081fd5b8151611ceb81614dac565b600080604083850312156146cf578182fd5b82356146da81614dac565b9150602083013567ffffffffffffffff8111156146f5578182fd5b61470185828601614393565b9150509250929050565b60008060008060808587031215614720578182fd5b843567ffffffffffffffff80821115614737578384fd5b818701915061012080838a03121561474d578485fd5b61475681614d85565b905061476289846143fc565b81526147718960208501614308565b60208201526147838960408501614308565b6040820152606083013560608201526080830135608082015260a083013560a08201526147b38960c08501614308565b60c08201526147c58960e08501614308565b60e082015261010080840135838111156147dd578687fd5b6147e98b828701614393565b828401525050809650506020870135915080821115614806578384fd5b5061481387828801614313565b949794965050505060408301359260600135919050565b6000806000806080858703121561483f578182fd5b845193506020850151925060408501519150606085015161485f81614dac565b939692955090935050565b60006020828403121561487b578081fd5b8151611ceb81614dc1565b60008060408385031215614898578182fd5b82516148a381614dc1565b6020939093015192949293505050565b6001600160a01b03169052565b6000815180845260208085019450808401835b838110156148ef578151875295820195908201906001016148d3565b509495945050505050565b15159052565b60008151808452815b8181101561492557602081850181015186830182015201614909565b818111156149365782602083870101525b50601f01601f19169290920160200192915050565b8051608080845281519084018190526000916020919082019060a0860190845b818110156149905783516001600160a01b03168352928401929184019160010161496b565b5050828501519150858103838701526149a981836148c0565b92505050604083015184820360408601526149c48282614900565b91505060608301516149d960608601826148fa565b509392505050565b60609290921b6bffffffffffffffffffffffff19168252601482015260340190565b918252602082015260400190565b9182526001600160e01b031916602082015260240190565b6000828483379101908152919050565b61190160f01b81526002810192909252602282015260420190565b6001600160a01b0391909116815260200190565b6001600160a01b039889168152968816602088015294871660408701526060860193909352608085019190915290931660a083015260c08201929092526650656e64696e6760c81b60e08201526101008101919091526101200190565b6020808252825182820181905260009190848201906040850190845b81811015614afd57835183529284019291840191600101614ae1565b50909695505050505050565b600060208252611ceb60208301846148c0565b600060408252614b2f60408301856148c0565b8281036020840152614b4181856148c0565b95945050505050565b901515815260200190565b92151583526020830191909152604082015260600190565b90815260200190565b8481526001600160a01b03848116602083015283166040820152608060608201819052600090614ba89083018461494b565b9695505050505050565b9283526001600160a01b03918216602084015216604082015260600190565b9586526001600160a01b0394851660208701529290931660408501526060840152608083019190915260a082015260c00190565b9485526020850193909352604084019190915260608301526001600160a01b0316608082015260a00190565b60008382526040602083015261222d6040830184614900565b9182526001600160a01b0316602082015260400190565b93845260ff9290921660208401526040830152606082015260800190565b600060208252611ceb6020830184614900565b60006101e082019050614ca68285516148b3565b6020840151614cb860208401826148b3565b506040840151614ccb60408401826148b3565b50606084015160608301526080840151608083015260a084015160a083015260c0840151614cfc60c08401826148b3565b5060e0848101519083015261010080850151908301526101208085015190830152610140808501519083015261016080850151614d3b828501826148b3565b505061018084810151908301526101a093840151938201939093526101c0015290565b60008382526040602083015261222d60408301846148c0565b60ff91909116815260200190565b60405181810167ffffffffffffffff81118282101715614da457600080fd5b604052919050565b6001600160a01b0381168114610ef057600080fd5b60ff81168114610ef057600080fdfea26469706673582212209c036c500d930dcb7de998d1845fdf6f45f41b177fc30d31e0cfc46c112eda6264736f6c63430007010033",
  "linkReferences": {},
  "deployedLinkReferences": {}
}