{
  "_format": "hh-sol-artifact-1",
  "contractName": "SecondaryIssuePoolFactory",
  "sourceName": "contracts/SecondaryIssuePoolFactory.sol",
  "abi": [
    {
      "inputs": [
        {
          "internalType": "contract IVault",
          "name": "vault",
          "type": "address"
        },
        {
          "internalType": "contract IProtocolFeePercentagesProvider",
          "name": "protocolFeeProvider",
          "type": "address"
        }
      ],
      "stateMutability": "nonpayable",
      "type": "constructor"
    },
    {
      "anonymous": false,
      "inputs": [],
      "name": "FactoryDisabled",
      "type": "event"
    },
    {
      "anonymous": false,
      "inputs": [
        {
          "indexed": true,
          "internalType": "address",
          "name": "pool",
          "type": "address"
        }
      ],
      "name": "PoolCreated",
      "type": "event"
    },
    {
      "inputs": [
        {
          "internalType": "string",
          "name": "name",
          "type": "string"
        },
        {
          "internalType": "string",
          "name": "symbol",
          "type": "string"
        },
        {
          "internalType": "address",
          "name": "security",
          "type": "address"
        },
        {
          "internalType": "address",
          "name": "currency",
          "type": "address"
        },
        {
          "internalType": "uint256",
          "name": "minOrderSize",
          "type": "uint256"
        },
        {
          "internalType": "uint256",
          "name": "tradeFeePercentage",
          "type": "uint256"
        }
      ],
      "name": "create",
      "outputs": [
        {
          "internalType": "address",
          "name": "",
          "type": "address"
        }
      ],
      "stateMutability": "nonpayable",
      "type": "function"
    },
    {
      "inputs": [],
      "name": "disable",
      "outputs": [],
      "stateMutability": "nonpayable",
      "type": "function"
    },
    {
      "inputs": [
        {
          "internalType": "bytes4",
          "name": "selector",
          "type": "bytes4"
        }
      ],
      "name": "getActionId",
      "outputs": [
        {
          "internalType": "bytes32",
          "name": "",
          "type": "bytes32"
        }
      ],
      "stateMutability": "view",
      "type": "function"
    },
    {
      "inputs": [],
      "name": "getAuthorizer",
      "outputs": [
        {
          "internalType": "contract IAuthorizer",
          "name": "",
          "type": "address"
        }
      ],
      "stateMutability": "view",
      "type": "function"
    },
    {
      "inputs": [],
      "name": "getCreationCode",
      "outputs": [
        {
          "internalType": "bytes",
          "name": "",
          "type": "bytes"
        }
      ],
      "stateMutability": "view",
      "type": "function"
    },
    {
      "inputs": [],
      "name": "getCreationCodeContracts",
      "outputs": [
        {
          "internalType": "address",
          "name": "contractA",
          "type": "address"
        },
        {
          "internalType": "address",
          "name": "contractB",
          "type": "address"
        }
      ],
      "stateMutability": "view",
      "type": "function"
    },
    {
      "inputs": [],
      "name": "getPauseConfiguration",
      "outputs": [
        {
          "internalType": "uint256",
          "name": "pauseWindowDuration",
          "type": "uint256"
        },
        {
          "internalType": "uint256",
          "name": "bufferPeriodDuration",
          "type": "uint256"
        }
      ],
      "stateMutability": "view",
      "type": "function"
    },
    {
      "inputs": [],
      "name": "getProtocolFeePercentagesProvider",
      "outputs": [
        {
          "internalType": "contract IProtocolFeePercentagesProvider",
          "name": "",
          "type": "address"
        }
      ],
      "stateMutability": "view",
      "type": "function"
    },
    {
      "inputs": [],
      "name": "getVault",
      "outputs": [
        {
          "internalType": "contract IVault",
          "name": "",
          "type": "address"
        }
      ],
      "stateMutability": "view",
      "type": "function"
    },
    {
      "inputs": [],
      "name": "isDisabled",
      "outputs": [
        {
          "internalType": "bool",
          "name": "",
          "type": "bool"
        }
      ],
      "stateMutability": "view",
      "type": "function"
    },
    {
      "inputs": [
        {
          "internalType": "address",
          "name": "pool",
          "type": "address"
        }
      ],
      "name": "isPoolFromFactory",
      "outputs": [
        {
          "internalType": "bool",
          "name": "",
          "type": "bool"
        }
      ],
      "stateMutability": "view",
      "type": "function"
    }
  ],
  "bytecode": "0x6101806040523480156200001257600080fd5b50604051620099be380380620099be8339810160408190526200003591620001fc565b8181604051806020016200004990620001ee565b601f1982820381018352601f90910116604052805183903090839060006002820460a081905280830360e08190528185529091508362000095816200010f602090811b6200043717901c565b60601b6001600160601b0319166080528285018051838252620000c4826200010f602090811b6200043717901c565b6001600160601b0319606091821b811660c05296909352905261010095909552505092821b831661012052509290921b90911661014052505050426276a70001610160525062000250565b80517f602038038060206000396000f3fefefefefefefefefefefefefefefefefefefe808352600091602081018484f090845291506200015d6001600160a01b03831615156101ac62000163565b50919050565b816200017457620001748162000178565b5050565b6200018a816210905360ea1b6200018d565b50565b62461bcd60e51b600090815260206004526007602452600a808404818106603090810160081b958390069590950190829004918206850160101b01602363ffffff0060e086901c160160181b0190930160c81b60445260e882901c90606490fd5b618c348062000d8a83390190565b600080604083850312156200020f578182fd5b82516200021c816200023a565b60208401519092506200022f816200023a565b809150509250929050565b6001600160a01b03811681146200018a57600080fd5b60805160601c60a05160c05160601c60e051610100516101205160601c6101405160601c61016051610ac1620002c9600039806101ec52806102155250806102c052508061039b52508061034b5250806104915250806101c3528061050d5250806104b25250806101a252806104e95250610ac16000f3fe608060405234801561001057600080fd5b50600436106100a85760003560e01c80636c57f5a9116100715780636c57f5a914610121578063739238d61461012957806374dcc7a41461013e578063851c1bb3146101515780638d928af814610171578063aaabadc514610179576100a8565b8062c194db146100ad578063174481fa146100cb5780632da47c40146100e15780632f2770db146100f75780636634b75314610101575b600080fd5b6100b5610181565b6040516100c2919061098e565b60405180910390f35b6100d36101a0565b6040516100c2929190610941565b6100e96101e6565b6040516100c2929190610a68565b6100ff610250565b005b61011461010f3660046107c7565b610297565b6040516100c2919061095b565b6101146102b5565b6101316102be565b6040516100c2919061092d565b61013161014c366004610847565b6102e2565b61016461015f366004610803565b610347565b6040516100c29190610966565b610131610399565b6101316103bd565b606061019b60405180602001604052806000815250610489565b905090565b7f00000000000000000000000000000000000000000000000000000000000000007f00000000000000000000000000000000000000000000000000000000000000009091565b600080427f000000000000000000000000000000000000000000000000000000000000000081101561024257807f000000000000000000000000000000000000000000000000000000000000000003925062278d00915061024b565b60009250600091505b509091565b610258610562565b610260610593565b6001805460ff1916811790556040517f432acbfd662dbb5d8b378384a67159b47ca9d0f1b79f97cf64cf8585fa362d5090600090a1565b6001600160a01b031660009081526020819052604090205460ff1690565b60015460ff1690565b7f000000000000000000000000000000000000000000000000000000000000000090565b60008060006102ef6101e6565b915091506103386102fe610399565b8c8c8c8c8c8c8c8c8b8b336040516020016103249c9b9a999897969594939291906109e1565b6040516020818303038152906040526105a8565b9b9a5050505050505050505050565b60007f00000000000000000000000000000000000000000000000000000000000000008260405160200161037c929190610915565b604051602081830303815290604052805190602001209050919050565b7f000000000000000000000000000000000000000000000000000000000000000090565b60006103c7610399565b6001600160a01b031663aaabadc56040518163ffffffff1660e01b815260040160206040518083038186803b1580156103ff57600080fd5b505afa158015610413573d6000803e3d6000fd5b505050506040513d601f19601f8201168201806040525081019061019b919061082b565b80517f602038038060206000396000f3fefefefefefefefefefefefefefefefefefefe808352600091602081018484f090845291506104836001600160a01b03831615156101ac610611565b50919050565b8051604080517f00000000000000000000000000000000000000000000000000000000000000007f0000000000000000000000000000000000000000000000000000000000000000818101858101848101602090810190965280855293957f00000000000000000000000000000000000000000000000000000000000000009592947f000000000000000000000000000000000000000000000000000000000000000094938801866000828a3c846000888301883c5060208981019089850101610554818386610623565b505050505050505050919050565b60006105796000356001600160e01b031916610347565b90506105906105888233610661565b610191610611565b50565b6105a661059e6102b5565b1560d3610611565b565b60006105b2610593565b60006105bd836106f1565b6001600160a01b038116600081815260208190526040808220805460ff191660011790555192935090917f83a48fbcfc991335314e74d0496aab6a1987e992ddc85dddbcc4d6dd6ef2e9fc9190a292915050565b8161061f5761061f81610725565b5050565b5b60208110610643578151835260209283019290910190601f1901610624565b905182516020929092036101000a6000190180199091169116179052565b600061066b6103bd565b6001600160a01b0316639be2a8848484306040518463ffffffff1660e01b815260040161069a9392919061096f565b60206040518083038186803b1580156106b257600080fd5b505afa1580156106c6573d6000803e3d6000fd5b505050506040513d601f19601f820116820180604052508101906106ea91906107e3565b9392505050565b600060606106fe83610489565b905060008151602083016000f090506001600160a01b0381166106ea573d6000803e3d6000fd5b62461bcd60e51b600090815260206004526007602452600a808304818106603090810160081b83860601918390049283060160101b016642414c230000300160c81b604452610590916210905360ea1b906242414c90606490fd5b60008083601f840112610791578182fd5b50813567ffffffffffffffff8111156107a8578182fd5b6020830191508360208285010111156107c057600080fd5b9250929050565b6000602082840312156107d8578081fd5b81356106ea81610a76565b6000602082840312156107f4578081fd5b815180151581146106ea578182fd5b600060208284031215610814578081fd5b81356001600160e01b0319811681146106ea578182fd5b60006020828403121561083c578081fd5b81516106ea81610a76565b60008060008060008060008060c0898b031215610862578384fd5b883567ffffffffffffffff80821115610879578586fd5b6108858c838d01610780565b909a50985060208b013591508082111561089d578586fd5b506108aa8b828c01610780565b90975095505060408901356108be81610a76565b935060608901356108ce81610a76565b979a969950949793969295929450505060808201359160a0013590565b60008284528282602086013780602084860101526020601f19601f85011685010190509392505050565b9182526001600160e01b031916602082015260240190565b6001600160a01b0391909116815260200190565b6001600160a01b0392831681529116602082015260400190565b901515815260200190565b90815260200190565b9283526001600160a01b03918216602084015216604082015260600190565b6000602080835283518082850152825b818110156109ba5785810183015185820160400152820161099e565b818111156109cb5783604083870101525b50601f01601f1916929092016040019392505050565b6001600160a01b038d16815261014060208201819052600090610a079083018d8f6108eb565b8281036040840152610a1a818c8e6108eb565b6001600160a01b039a8b166060850152988a166080840152505060a081019590955260c085019390935260e08401919091526101008301529092166101209092019190915295945050505050565b918252602082015260400190565b6001600160a01b038116811461059057600080fdfea264697066735822122063537816e58a795736ea16feed93a78ae296f3265323ae74abf364f2e8d6145764736f6c634300070100336102c06040523480156200001257600080fd5b5060405162008c3438038062008c34833981016040819052620000359162000b87565b8960008a8a620000478b8b30620004d0565b6040805160038082526080820190925290602082016060803683370190505089898989828289898d85336001600160a01b031660001b8480604051806040016040528060018152602001603160f81b81525087878160039080519060200190620000b3929190620009f1565b508051620000c9906004906020840190620009f1565b50506005805460ff19166012179055508151602092830120608052805191012060a052507f8b73c3c69bb8fe3d512ecc4cf759cc79239f7b179b0ffacaa9a75d522b39400f60c05260e0526001600160601b0319606091821b81166101005291901b1661012052506200014790506276a7008311156101946200059f565b6200015b62278d008211156101956200059f565b42909101610140819052016101605285516200017d906002111560c86200059f565b620001976200018b620005b4565b8751111560c96200059f565b620001ad86620005b960201b620023311760201c565b620001b884620005c5565b6040516309b2760f60e01b81526000906001600160a01b038c16906309b2760f90620001e9908d9060040162000d50565b602060405180830381600087803b1580156200020457600080fd5b505af115801562000219573d6000803e3d6000fd5b505050506040513d601f19601f820116820180604052508101906200023f919062000b4f565b604051633354e3e960e11b81529091506001600160a01b038c16906366a9c7d290620002749084908b908b9060040162000cb4565b600060405180830381600087803b1580156200028f57600080fd5b505af1158015620002a4573d6000803e3d6000fd5b505050508061018081815250508a6001600160a01b031663d2946c2b6040518163ffffffff1660e01b815260040160206040518083038186803b158015620002eb57600080fd5b505afa15801562000300573d6000803e3d6000fd5b505050506040513d601f19601f8201168201806040525081019062000326919062000b68565b6001600160a01b03166101a0816001600160a01b031660601b815250505050505050505050505050866001600160a01b03166101c0816001600160a01b031660601b81525050856001600160a01b03166101e0816001600160a01b031660601b8152505089600b60006101000a8154816001600160a01b0302191690836001600160a01b031602179055506000806000620003c98a8a306200065960201b60201c565b61024081905261026083905261028082905291945092509050620003ed8a6200074f565b61020052620003fc896200074f565b61022052600a8890556001600160601b0319606085901b166102a05260405184908b908b9030906200042e9062000a76565b6200043d949392919062000c89565b604051809103906000f0801580156200045a573d6000803e3d6000fd5b50600980546001600160a01b0319166001600160a01b0392831617908190556040518c8316927f32e7b5e5c88bb4ec1dca71e1e00fc2444e236858d09faa9ddbb9d8c710549ecb92620004b5928d928f9216908a9062000d6e565b60405180910390a25050505050505050505050505062000db7565b606060008080620004e387878762000659565b60408051600380825260808201909252939650919450925060208201606080368337019050509350868484815181106200051957fe5b60200260200101906001600160a01b031690816001600160a01b031681525050858483815181106200054757fe5b60200260200101906001600160a01b031690816001600160a01b031681525050848482815181106200057557fe5b60200260200101906001600160a01b031690816001600160a01b0316815250505050509392505050565b81620005b057620005b08162000823565b5050565b600390565b80620005b08162000838565b620005de620005d3620008c4565b82101560cb6200059f565b620005f7620005ec620008cd565b82111560ca6200059f565b620006198160c0603f600854620008d960201b6200233b17909392919060201c565b6008556040517fa9ba3ffe0b6c366b81232caab38605a0699ad5398d6cce76f91ee809e322dafc906200064e90839062000d65565b60405180910390a150565b6000806000846001600160a01b0316866001600160a01b03161015620006e257836001600160a01b0316856001600160a01b03161015620006a557506000915060019050600262000746565b836001600160a01b0316866001600160a01b03161015620006d157506000915060029050600162000746565b506001915060029050600062000746565b846001600160a01b0316846001600160a01b031610156200070e57506002915060019050600062000746565b856001600160a01b0316846001600160a01b031610156200073a57506002915060009050600162000746565b50600191506000905060025b93509350939050565b60006001600160a01b038216301415620007735750670de0b6b3a76400006200081e565b6000826001600160a01b031663313ce5676040518163ffffffff1660e01b815260040160206040518083038186803b158015620007af57600080fd5b505afa158015620007c4573d6000803e3d6000fd5b505050506040513d601f19601f82011682018060405250810190620007ea919062000c66565b60ff169050600062000809601283620008fe60201b6200235e1760201c565b905080600a0a670de0b6b3a764000002925050505b919050565b62000835816210905360ea1b6200091b565b50565b600281511015620008495762000835565b6000816000815181106200085957fe5b602002602001015190506000600190505b8251811015620008bf5760008382815181106200088357fe5b60200260200101519050620008b4816001600160a01b0316846001600160a01b03161060656200059f60201b60201c565b91506001016200086a565b505050565b64e8d4a5100090565b67016345785d8a000090565b6000620008e88484846200097c565b506001901b60001901811b1992909216911b1790565b6000620009108383111560016200059f565b508082035b92915050565b62461bcd60e51b600090815260206004526007602452600a808404818106603090810160081b958390069590950190829004918206850160101b01602363ffffff0060e086901c160160181b0190930160c81b60445260e882901c90606490fd5b6200098d610100831060646200059f565b620009c660018210158015620009be5750620009ba60ff8461010003620009d760201b620023741760201c565b8211155b60646200059f565b620008bf83821c156101b46200059f565b6000818310620009e85781620009ea565b825b9392505050565b828054600181600116156101000203166002900490600052602060002090601f016020900481019282601f1062000a3457805160ff191683800117855562000a64565b8280016001018555821562000a64579182015b8281111562000a6457825182559160200191906001019062000a47565b5062000a7292915062000a84565b5090565b61364780620055ed83390190565b5b8082111562000a72576000815560010162000a85565b8051620009158162000da1565b600082601f83011262000ab9578081fd5b81516001600160401b038082111562000ad0578283fd5b6040516020601f8401601f191682018101838111838210171562000af2578586fd5b8060405250819450838252868185880101111562000b0f57600080fd5b600092505b8383101562000b33578583018101518284018201529182019162000b14565b8383111562000b455760008185840101525b5050505092915050565b60006020828403121562000b61578081fd5b5051919050565b60006020828403121562000b7a578081fd5b8151620009ea8162000da1565b6000806000806000806000806000806101408b8d03121562000ba7578586fd5b62000bb38c8c62000a9b565b60208c0151909a506001600160401b038082111562000bd0578788fd5b62000bde8e838f0162000aa8565b9a5060408d015191508082111562000bf4578788fd5b5062000c038d828e0162000aa8565b98505062000c158c60608d0162000a9b565b965062000c268c60808d0162000a9b565b955060a08b0151945060c08b0151935060e08b015192506101008b0151915062000c558c6101208d0162000a9b565b90509295989b9194979a5092959850565b60006020828403121562000c78578081fd5b815160ff81168114620009ea578182fd5b6001600160a01b03948516815292841660208401529083166040830152909116606082015260800190565b60006060820185835260206060818501528186518084526080860191508288019350845b8181101562000d005762000ced855162000d95565b8352938301939183019160010162000cd8565b505084810360408601528551808252908201925081860190845b8181101562000d425762000d2f835162000d95565b8552938301939183019160010162000d1a565b509298975050505050505050565b602081016003831062000d5f57fe5b91905290565b90815260200190565b9384526001600160a01b039283166020850152908216604084015216606082015260800190565b6001600160a01b031690565b6001600160a01b03811681146200083557600080fd5b60805160a05160c05160e0516101005160601c6101205160601c6101405161016051610180516101a05160601c6101c05160601c6101e05160601c61020051610220516102405161026051610280516102a05160601c6146ae62000f3f600039806110515280612e605250806107b252806124745280612ecc5280612f26525080610864528061240e5250806108e85280611523528061198f52806119cc5280611a0a52806124c952508061100e528061249c5280612eff525080610fda5280612436525080610582528061061852806107565280610b845280610c155280610f8f52806111d5528061164e52806117df5280611887528061191a5280611df85250806105c1528061065852806108085280610a155280610afb5280610c795280610ce75280611196528061160f52806117a0528061184852806118db5280611cb252508061210b525080611d055250806126b352508061268f525080611ff3525080611fcf525080611f59525080612fb7525080612ff9525080612fd852506146ae6000f3fe608060405234801561001057600080fd5b50600436106102535760003560e01c806370a0823111610146578063a457c2d7116100c3578063d2946c2b11610087578063d2946c2b14610499578063d505accf146104a1578063d5c096c4146104b4578063dd62ed3e146104c7578063ed24911d146104da578063fd19cac8146104e257610253565b8063a457c2d71461045b578063a9059cbb1461046e578063aaabadc514610481578063b35056b814610489578063b7b814fc1461049157610253565b806387ec68171161010a57806387ec68171461041d578063893d20e8146104305780638d928af81461043857806390193b7c1461044057806395d89b411461045357610253565b806370a08231146103bb57806374f3b009146103ce5780637ecebe00146103ef5780638456cb5914610402578063851c1bb31461040a57610253565b806338e9922e116101d457806350dd6ed91161019857806350dd6ed91461036f57806354a844ba1461038257806355c676281461038a5780636028bfd4146103925780636945c1fd146103b357610253565b806338e9922e1461032f57806338fff2d014610344578063395093511461034c5780633f4ba83a1461035f5780634d6d0fd01461036757610253565b80631dd746ea1161021b5780631dd746ea146102d557806323b872dd146102ea5780632541897f146102fd578063313ce567146103125780633644e5151461032757610253565b806301ec954a1461025857806306fdde0314610281578063095ea7b31461029657806318160ddd146102b65780631c0de051146102be575b600080fd5b61026b610266366004613c62565b6104ea565b604051610278919061415c565b60405180910390f35b610289611b51565b60405161027891906142a0565b6102a96102a436600461399f565b611be7565b6040516102789190614139565b61026b611bfe565b6102c6611c04565b60405161027893929190614144565b6102dd611c2d565b60405161027891906140f8565b6102a96102f83660046138ef565b611c3c565b610305611cb0565b604051610278919061408a565b61031a611cd4565b60405161027891906145d2565b61026b611cdd565b61034261033d366004613e6b565b611ce7565b005b61026b611d03565b6102a961035a36600461399f565b611d27565b610342611d62565b61026b611d76565b61034261037d366004613b21565b611d7c565b610342611d9a565b61026b611dac565b6103a56103a03660046139ea565b611dbf565b6040516102789291906145b9565b610305611df6565b61026b6103c936600461389b565b611e1a565b6103e16103dc3660046139ea565b611e35565b60405161027892919061410b565b61026b6103fd36600461389b565b611f38565b610342611f43565b61026b610418366004613add565b611f55565b6103a561042b3660046139ea565b611fa7565b610305611fcd565b610305611ff1565b61026b61044e36600461389b565b612015565b610289612030565b6102a961046936600461399f565b612091565b6102a961047c36600461399f565b6120cf565b6103056120dc565b6102a96120e6565b6103426120f7565b610305612109565b6103426104af36600461392f565b61212d565b6103e16104c23660046139ea565b6121b8565b61026b6104d53660046138b7565b6122db565b61026b612318565b610305612322565b600084608001516105176104fc611ff1565b6001600160a01b0316336001600160a01b03161460cd61238c565b61052c610522611d03565b82146101f461238c565b61053461239a565b60008651600181111561054357fe5b148061055b575060018651600181111561055957fe5b145b6105805760405162461bcd60e51b8152600401610577906143fb565b60405180910390fd5b7f00000000000000000000000000000000000000000000000000000000000000006001600160a01b031686604001516001600160a01b031614806105f957507f00000000000000000000000000000000000000000000000000000000000000006001600160a01b031686604001516001600160a01b0316145b80610610575060408601516001600160a01b031630145b8061065057507f00000000000000000000000000000000000000000000000000000000000000006001600160a01b031686602001516001600160a01b0316145b8061069057507f00000000000000000000000000000000000000000000000000000000000000006001600160a01b031686602001516001600160a01b0316145b806106a7575060208601516001600160a01b031630145b6106c35760405162461bcd60e51b8152600401610577906142b3565b60606106cd6123ad565b90506106d98682612520565b6106e1613762565b6000808080808c5160018111156106f457fe5b14156107255761071b8c60600151878c8151811061070e57fe5b602002602001015161258f565b60608d0152610754565b60018c51600181111561073457fe5b14156107545761074e8c60600151878b8151811061070e57fe5b60608d01525b7f00000000000000000000000000000000000000000000000000000000000000006001600160a01b03168c602001516001600160a01b03161480156107a5575060008c5160018111156107a357fe5b145b15610806578b606001518b7f0000000000000000000000000000000000000000000000000000000000000000815181106107db57fe5b602002602001015110156108015760405162461bcd60e51b815260040161057790614351565b610937565b7f00000000000000000000000000000000000000000000000000000000000000006001600160a01b03168c602001516001600160a01b0316148015610857575060008c51600181111561085557fe5b145b156108b3578b606001518b7f00000000000000000000000000000000000000000000000000000000000000008151811061088d57fe5b602002602001015110156108015760405162461bcd60e51b815260040161057790614421565b60208c01516001600160a01b0316301480156108db575060008c5160018111156108d957fe5b145b15610937578b606001518b7f00000000000000000000000000000000000000000000000000000000000000008151811061091157fe5b602002602001015110156109375760405162461bcd60e51b81526004016105779061431a565b6101008c015151156115bb578b610100015180602001905181019061095c9190613a8d565b909450925064131a5b5a5d60da1b91508361116057610979613779565b60095460c08e015160405163ca142f7560e01b81526001600160a01b039092169163ca142f75916109ae9188906004016140df565b60c06040518083038186803b1580156109c657600080fd5b505afa1580156109da573d6000803e3d6000fd5b505050506040513d601f19601f820116820180604052508101906109fe9190613e05565b60095460c08f015182519293506001600160a01b037f000000000000000000000000000000000000000000000000000000000000000081169392811692635778472a92908216911614610a55578360400151610a5b565b83602001515b6040518263ffffffff1660e01b8152600401610a77919061415c565b60c06040518083038186803b158015610a8f57600080fd5b505afa158015610aa3573d6000803e3d6000fd5b505050506040513d601f19601f82011682018060405250810190610ac79190613d81565b602001516001600160a01b031614610aea576763757272656e637960c01b610af7565b67736563757269747960c01b5b92507f00000000000000000000000000000000000000000000000000000000000000006001600160a01b03168d604001516001600160a01b0316148015610b4a575060008d516001811115610b4857fe5b145b15610b8257806080015191508c606001518160a0015114610b7d5760405162461bcd60e51b8152600401610577906144a8565b610c11565b7f00000000000000000000000000000000000000000000000000000000000000006001600160a01b03168d604001516001600160a01b0316148015610bd3575060008d516001811115610bd157fe5b145b15610c06578060a0015191508c60600151816080015114610b7d5760405162461bcd60e51b815260040161057790614458565b610c1161016361259b565b60007f00000000000000000000000000000000000000000000000000000000000000006001600160a01b03168e604001516001600160a01b0316148015610c64575060208e01516001600160a01b031630145b15610c7757506314d95b1b60e21b610ce5565b7f00000000000000000000000000000000000000000000000000000000000000006001600160a01b03168e604001516001600160a01b0316148015610cc8575060208e01516001600160a01b031630145b15610cda57506242757960e81b610ce5565b610ce561016361259b565b7f00000000000000000000000000000000000000000000000000000000000000006001600160a01b03167fd6a806535ec4f172139ede2e9d6bbbe20957ca8a454fd40c9747fe139efe42478567736563757269747960c01b8714610dcc576009546040808701519051632bbc239560e11b81526001600160a01b0390921691635778472a91610d769160040161415c565b60c06040518083038186803b158015610d8e57600080fd5b505afa158015610da2573d6000803e3d6000fd5b505050506040513d601f19601f82011682018060405250810190610dc69190613d81565b51610e51565b6009546020860151604051632bbc239560e11b81526001600160a01b0390921691635778472a91610dff9160040161415c565b60c06040518083038186803b158015610e1757600080fd5b505afa158015610e2b573d6000803e3d6000fd5b505050506040513d601f19601f82011682018060405250810190610e4f9190613d81565b515b6763757272656e637960c01b8814610eec576009546040808801519051632bbc239560e11b81526001600160a01b0390921691635778472a91610e969160040161415c565b60c06040518083038186803b158015610eae57600080fd5b505afa158015610ec2573d6000803e3d6000fd5b505050506040513d601f19601f82011682018060405250810190610ee69190613d81565b51610f71565b6009546020870151604051632bbc239560e11b81526001600160a01b0390921691635778472a91610f1f9160040161415c565b60c06040518083038186803b158015610f3757600080fd5b505afa158015610f4b573d6000803e3d6000fd5b505050506040513d601f19601f82011682018060405250810190610f6f9190613d81565b515b85610f8d88608001518960a001516125ab90919063ffffffff16565b7f00000000000000000000000000000000000000000000000000000000000000008a8a60600151604051610fc898979695949392919061419b565b60405180910390a2610ffe82608001517f00000000000000000000000000000000000000000000000000000000000000006125fc565b608083015260a0820151611032907f00000000000000000000000000000000000000000000000000000000000000006125fc565b60a08301526009546040516371eedc7f60e01b81526001600160a01b037f00000000000000000000000000000000000000000000000000000000000000008116926371eedc7f926110899287921690600401614568565b600060405180830381600087803b1580156110a357600080fd5b505af11580156110b7573d6000803e3d6000fd5b50505050600960009054906101000a90046001600160a01b03166001600160a01b031663d729cf6c8f60c00151876040518363ffffffff1660e01b81526004016111029291906140df565b600060405180830381600087803b15801561111c57600080fd5b505af1158015611130573d6000803e3d6000fd5b5050505061115183898d8151811061114457fe5b60200260200101516125fc565b99505050505050505050611b48565b818414801561116e57508215155b1561118f5760408051808201909152806001815260200184905294506115b6565b8261131c577f00000000000000000000000000000000000000000000000000000000000000006001600160a01b03168c604001516001600160a01b0316148061120d57507f00000000000000000000000000000000000000000000000000000000000000006001600160a01b03168c604001516001600160a01b0316145b8015611225575060208c01516001600160a01b031630145b801561123d575060008c51600181111561123b57fe5b145b1561130c5760095460c08d0151604051636b0d76bd60e11b81526001600160a01b039092169163d61aed7a9161127891889190600401614165565b602060405180830381600087803b15801561129257600080fd5b505af11580156112a6573d6000803e3d6000fd5b505050506040513d601f19601f820116820180604052508101906112ca9190613e83565b90508b6060015181146112ef5760405162461bcd60e51b8152600401610577906143b8565b6112ff81878b8151811061114457fe5b9750505050505050611b48565b61131761016361259b565b6115b6565b82156115ab5760208c01516001600160a01b03163014801561134a575060008c51600181111561134857fe5b145b1561144957600960009054906101000a90046001600160a01b03166001600160a01b03166346764e5e85858f6040518463ffffffff1660e01b815260040161139493929190614263565b602060405180830381600087803b1580156113ae57600080fd5b505af11580156113c2573d6000803e3d6000fd5b505050506040513d601f19601f820116820180604052508101906113e69190613e83565b90506113f6818d6060015161235e565b90506000805160206146598339815191528c60c001518d602001518e604001518f6060015187428a604051611431979695949392919061409e565b60405180910390a16112ff81878b8151811061114457fe5b60408c01516001600160a01b031630148015611471575060008c51600181111561146f57fe5b145b1561130c57600960009054906101000a90046001600160a01b03166001600160a01b03166346764e5e85858f6040518463ffffffff1660e01b81526004016114bb93929190614263565b602060405180830381600087803b1580156114d557600080fd5b505af11580156114e9573d6000803e3d6000fd5b505050506040513d601f19601f8201168201806040525081019061150d9190613e83565b905061151d8c606001518261235e565b9050808b7f00000000000000000000000000000000000000000000000000000000000000008151811061154c57fe5b602002602001015110156115725760405162461bcd60e51b8152600401610577906144f8565b6000805160206146598339815191528c60c001518d602001518e604001518f6060015187428a604051611431979695949392919061409e565b6115b661016361259b565b6115d2565b604080518082019091526000808252602082015294505b600a548c6060015110156115f85760405162461bcd60e51b8152600401610577906142e3565b60008551600281111561160757fe5b14156118d9577f00000000000000000000000000000000000000000000000000000000000000006001600160a01b03168c602001516001600160a01b0316148061168657507f00000000000000000000000000000000000000000000000000000000000000006001600160a01b03168c602001516001600160a01b0316145b1561171c57600954604051635487e8cf60e01b81526001600160a01b0390911690635487e8cf906116bd908f90899060040161452f565b606060405180830381600087803b1580156116d757600080fd5b505af11580156116eb573d6000803e3d6000fd5b505050506040513d601f19601f8201168201806040525081019061170f9190613ab0565b9094509092509050611727565b61172761016361259b565b806117445760405162461bcd60e51b815260040161057790614388565b6000805160206146598339815191528c60c001518d602001518e604001518f6060015189602001518888604051611781979695949392919061409e565b60405180910390a160008c51600181111561179857fe5b1415611831577f00000000000000000000000000000000000000000000000000000000000000006001600160a01b03168c602001516001600160a01b0316148061181757507f00000000000000000000000000000000000000000000000000000000000000006001600160a01b03168c602001516001600160a01b0316145b1561182c576112ff81878b8151811061114457fe5b6118d4565b60018c51600181111561184057fe5b14156118d4577f00000000000000000000000000000000000000000000000000000000000000006001600160a01b03168c604001516001600160a01b031614806118bf57507f00000000000000000000000000000000000000000000000000000000000000006001600160a01b03168c604001516001600160a01b0316145b156118d4576112ff81878c8151811061114457fe5b611b41565b7f00000000000000000000000000000000000000000000000000000000000000006001600160a01b03168c602001516001600160a01b0316148061195257507f00000000000000000000000000000000000000000000000000000000000000006001600160a01b03168c602001516001600160a01b0316145b801561196a575060408c01516001600160a01b031630145b8015611982575060008c51600181111561198057fe5b145b15611add578b606001518b7f0000000000000000000000000000000000000000000000000000000000000000815181106119b857fe5b60200260200101511115611acd57611a078b7f0000000000000000000000000000000000000000000000000000000000000000815181106119f557fe5b60200260200101518d6060015161235e565b8b7f000000000000000000000000000000000000000000000000000000000000000081518110611a3357fe5b6020908102919091010152600954604051635487e8cf60e01b81526001600160a01b0390911690635487e8cf90611a70908f90899060040161452f565b606060405180830381600087803b158015611a8a57600080fd5b505af1158015611a9e573d6000803e3d6000fd5b505050506040513d601f19601f82011682018060405250810190611ac29190613ab0565b50909250611ad89050565b611ad861020161259b565b611ae8565b611ae861016361259b565b6000805160206146598339815191528c60c001518d602001518e604001518f6060015189602001514288604051611b25979695949392919061409e565b60405180910390a16112ff8c60600151878b8151811061114457fe5b5050505050505b50949350505050565b60038054604080516020601f6002600019610100600188161502019095169490940493840181900481028201810190925282815260609390929091830182828015611bdd5780601f10611bb257610100808354040283529160200191611bdd565b820191906000526020600020905b815481529060010190602001808311611bc057829003601f168201915b5050505050905090565b6000611bf4338484612608565b5060015b92915050565b60025490565b6000806000611c11612670565b159250611c1c61268d565b9150611c266126b1565b9050909192565b6060611c376123ad565b905090565b600080611c4985336122db565b9050611c6d336001600160a01b0387161480611c655750838210155b61019e61238c565b611c788585856126d5565b336001600160a01b03861614801590611c9357506000198114155b15611ca557611ca58533858403612608565b506001949350505050565b7f000000000000000000000000000000000000000000000000000000000000000090565b60055460ff1690565b6000611c37612318565b611cef6127b5565b611cf761239a565b611d00816127e3565b50565b7f000000000000000000000000000000000000000000000000000000000000000090565b3360008181526001602090815260408083206001600160a01b03871684529091528120549091611bf4918590611d5d908661285c565b612608565b611d6a6127b5565b611d74600061286e565b565b600a5490565b611d846127b5565b611d8c61239a565b611d9682826128e1565b5050565b611da26127b5565b611d7460016129d6565b600854600090611c379060c0603f612a2d565b60006060611dd58651611dd0612a3c565b612a41565b611dea89898989898989612a4e612aa0612b09565b97509795505050505050565b7f000000000000000000000000000000000000000000000000000000000000000090565b6001600160a01b031660009081526020819052604090205490565b60608088611e446104fc611ff1565b611e4f610522611d03565b60606000611e5c86612c33565b15611e8457611e69612c62565b611e7b89611e75611bfe565b88612c75565b92509050611ed6565b611e8c612ca1565b6060611e966123ad565b9050611ea28a82612520565b611ec68d8d8d8d8d611eb26120e6565b611ebc578d611ebf565b60005b878e612a4e565b93509150611ed48382612aa0565b505b611ee08b82612ca9565b81895167ffffffffffffffff81118015611ef957600080fd5b50604051908082528060200260200182016040528015611f23578160200160208202803683370190505b509450945050505b5097509795505050505050565b6000611bf882612015565b611f4b6127b5565b611d74600161286e565b60007f000000000000000000000000000000000000000000000000000000000000000082604051602001611f8a929190614047565b604051602081830303815290604052805190602001209050919050565b60006060611fb88651611dd0612a3c565b611dea89898989898989612cb3612ccf612b09565b7f000000000000000000000000000000000000000000000000000000000000000090565b7f000000000000000000000000000000000000000000000000000000000000000090565b6001600160a01b031660009081526006602052604090205490565b60048054604080516020601f6002600019610100600188161502019095169490940493840181900481028201810190925282815260609390929091830182828015611bdd5780601f10611bb257610100808354040283529160200191611bdd565b60008061209e33856122db565b90508083106120b8576120b333856000612608565b6120c5565b6120c53385858403612608565b5060019392505050565b6000611bf43384846126d5565b6000611c37612d38565b600854600090611c379060ff612db2565b6120ff6127b5565b611d7460006129d6565b7f000000000000000000000000000000000000000000000000000000000000000090565b60007f6e71edae12b1b97f4d1f60370fef10105fa2faae0126114a169c64845d6126c988888861215c8c612015565b89604051602001612172969594939291906141e2565b6040516020818303038152906040528051906020012090506121a3888261219a878787612dbc565b886101f8612dfb565b6121ae888888612608565b5050505050505050565b606080886121c76104fc611ff1565b6121d2610522611d03565b6121da612ca1565b60606121e46123ad565b90506121ee611bfe565b61229b57600060606122038d8d8d868b612e52565b9150915061221c612212612f77565b83101560cc61238c565b61222e6000612229612f77565b612f7e565b6122418b61223a612f77565b8403612f7e565b61224b8184612ccf565b808a5167ffffffffffffffff8111801561226457600080fd5b5060405190808252806020026020018201604052801561228e578160200160208202803683370190505b5095509550505050611f2b565b6122a58882612520565b600060606122cd8d8d8d8d8d6122b96120e6565b6122c3578d6122c6565b60005b898e612cb3565b915091506122418b83612f7e565b60006122e5611ff1565b6001600160a01b0316826001600160a01b031614156123075750600019611bf8565b6123118383612f88565b9050611bf8565b6000611c37612fb3565b6009546001600160a01b031681565b80611d9681613050565b60006123488484846130ce565b506001901b60001901811b1992909216911b1790565b600061236e83831115600161238c565b50900390565b60008183106123835781612385565b825b9392505050565b81611d9657611d968161259b565b611d746123a5612670565b61019261238c565b606060006123b9612a3c565b905060608167ffffffffffffffff811180156123d457600080fd5b506040519080825280602002602001820160405280156123fe578160200160208202803683370190505b50905060005b82811015612519577f0000000000000000000000000000000000000000000000000000000000000000811415612472577f000000000000000000000000000000000000000000000000000000000000000082828151811061246157fe5b602002602001018181525050612511565b7f00000000000000000000000000000000000000000000000000000000000000008114156124c7577f000000000000000000000000000000000000000000000000000000000000000082828151811061246157fe5b7f000000000000000000000000000000000000000000000000000000000000000081141561251157670de0b6b3a764000082828151811061250457fe5b6020026020010181815250505b600101612404565b5091505090565b8151815161252f908290612a41565b60005b818110156125895761256a84828151811061254957fe5b602002602001015184838151811061255d57fe5b6020026020010151613115565b84828151811061257657fe5b6020908102919091010152600101612532565b50505050565b60006123858383613115565b611d00816210905360ea1b61314b565b60006125ba821515600461238c565b826125c757506000611bf8565b670de0b6b3a7640000838102906125ea908583816125e157fe5b0414600561238c565b8281816125f357fe5b04915050611bf8565b600061238583836125ab565b6001600160a01b0380841660008181526001602090815260408083209487168084529490915290819020849055517f8c5be1e5ebec7d5bd14f71427d1e84f3dd0314c0f7b2291e5b200ac8c7c3b9259061266390859061415c565b60405180910390a3505050565b600061267a6126b1565b421180611c3757505060075460ff161590565b7f000000000000000000000000000000000000000000000000000000000000000090565b7f000000000000000000000000000000000000000000000000000000000000000090565b6126ec6001600160a01b038416151561019861238c565b6127036001600160a01b038316151561019961238c565b61270e8383836130c9565b6001600160a01b03831660009081526020819052604090205461273490826101a06131ac565b6001600160a01b038085166000908152602081905260408082209390935590841681522054612763908261285c565b6001600160a01b0380841660008181526020819052604090819020939093559151908516907fddf252ad1be2c89b69c2b068fc378daa952ba7f163c4a11628f55a4df523b3ef9061266390859061415c565b60006127cc6000356001600160e01b031916611f55565b9050611d006127db82336131c2565b61019161238c565b6127f86127ee6132ab565b82101560cb61238c565b61280d6128036132b4565b82111560ca61238c565b60085461281e908260c0603f61233b565b6008556040517fa9ba3ffe0b6c366b81232caab38605a0699ad5398d6cce76f91ee809e322dafc9061285190839061415c565b60405180910390a150565b6000828201612385848210158361238c565b801561288e5761288961287f61268d565b421061019361238c565b6128a3565b6128a36128996126b1565b42106101a961238c565b6007805460ff19168215151790556040517f9e3a5e37224532dea67b89face185703738a228a6e8a23dee546960180d3be6490612851908390614139565b60006128eb611d03565b905060006128f7611ff1565b6001600160a01b031663b05f8e4883866040518363ffffffff1660e01b8152600401612924929190614165565b60806040518083038186803b15801561293c57600080fd5b505afa158015612950573d6000803e3d6000fd5b505050506040513d601f19601f820116820180604052508101906129749190613e9b565b604051630639cdb560e21b81529094506001600160a01b03851693506318e736d492506129a8915085908790600401614242565b600060405180830381600087803b1580156129c257600080fd5b505af11580156121ae573d6000803e3d6000fd5b6008546129e5908260ff6132c0565b6008556040517feff3d4d215b42bf0960be9c6d5e05c22cba4df6627a3a523e2acee733b5854c890612a18908390614139565b60405180910390a180611d0057611d00611d74565b6001901b6000190191901c1690565b600390565b611d96818314606761238c565b600060606000612a5d846132e7565b90506001816001811115612a6d57fe5b14612a8257612a7d61016361259b565b612a92565b612a8c88856132fd565b90935091505b509850989650505050505050565b81518151612aaf908290612a41565b60005b8181101561258957612aea848281518110612ac957fe5b6020026020010151848381518110612add57fe5b60200260200101516125ab565b848281518110612af657fe5b6020908102919091010152600101612ab2565b333014612bc7576000306001600160a01b0316600036604051612b2d92919061405f565b6000604051808303816000865af19150503d8060008114612b6a576040519150601f19603f3d011682016040523d82523d6000602084013e612b6f565b606091505b505090508060008114612b7e57fe5b60046000803e6000516001600160e01b0319166343adbafb60e01b8114612ba9573d6000803e3d6000fd5b506020600460003e604060205260243d03602460403e601c3d016000f35b612bcf612ca1565b6060612bd96123ad565b9050612be58782612520565b60006060612bfd8c8c8c8c8c8c898d8d63ffffffff16565b91509150612c0f81848663ffffffff16565b8051601f1982018390526343adbafb603f1983015260200260231982016044820181fd5b6000808251118015611bf8575060ff801682806020019051810190612c589190613edb565b60ff161492915050565b611d74612c6d6120e6565b6101b661238c565b600060606000612c84846133a0565b90506060612c938787846133b6565b919791965090945050505050565b611d7461239a565b611d968282613465565b60006060612cc261016361259b565b9850989650505050505050565b81518151612cde908290612a41565b60005b8181101561258957612d19848281518110612cf857fe5b6020026020010151848381518110612d0c57fe5b6020026020010151613531565b848281518110612d2557fe5b6020908102919091010152600101612ce1565b6000612d42611ff1565b6001600160a01b031663aaabadc56040518163ffffffff1660e01b815260040160206040518083038186803b158015612d7a57600080fd5b505afa158015612d8e573d6000803e3d6000fd5b505050506040513d601f19601f82011682018060405250810190611c379190613b05565b1c60019081161490565b60408051604180825260808201909252606091829190602082018180368337019050509050836020820152826040820152846060820153949350505050565b6000612e068561357f565b9050612e1c612e1687838761359b565b8361238c565b612e2b428410156101b861238c565b5050506001600160a01b039092166000908152600660205260409020805460010190555050565b60006060612e5e61239a565b7f0000000000000000000000000000000000000000000000000000000000000000612e996001600160a01b038881169083161461015661238c565b612eb9816001600160a01b0316876001600160a01b03161461015661238c565b6060612ec48561364a565b9050612f23817f000000000000000000000000000000000000000000000000000000000000000081518110612ef557fe5b60200260200101517f000000000000000000000000000000000000000000000000000000000000000061258f565b817f000000000000000000000000000000000000000000000000000000000000000081518110612f4f57fe5b60209081029190910101526dffffffffffffffffffffffffffff999098509650505050505050565b620f424090565b611d968282613660565b6001600160a01b03918216600090815260016020908152604080832093909416825291909152205490565b60007f00000000000000000000000000000000000000000000000000000000000000007f00000000000000000000000000000000000000000000000000000000000000007f00000000000000000000000000000000000000000000000000000000000000006130206136f3565b30604051602001613035959493929190614216565b60405160208183030381529060405280519060200120905090565b60028151101561305f57611d00565b60008160008151811061306e57fe5b602002602001015190506000600190505b82518110156130c957600083828151811061309657fe5b602002602001015190506130bf816001600160a01b0316846001600160a01b031610606561238c565b915060010161307f565b505050565b6130dd6101008310606461238c565b613106600182101580156130ff57506130fb60ff8461010003612374565b8211155b606461238c565b6130c983821c156101b461238c565b600082820261313984158061313257508385838161312f57fe5b04145b600361238c565b670de0b6b3a764000090049392505050565b62461bcd60e51b600090815260206004526007602452600a808404818106603090810160081b958390069590950190829004918206850160101b01602363ffffff0060e086901c160160181b0190930160c81b60445260e882901c90606490fd5b60006131bb848411158361238c565b5050900390565b600073ba1ba1ba1ba1ba1ba1ba1ba1ba1ba1ba1ba1ba1b6131e1611fcd565b6001600160a01b0316141580156131fc57506131fc836136f7565b1561322457613209611fcd565b6001600160a01b0316336001600160a01b0316149050611bf8565b61322c612d38565b6001600160a01b0316639be2a8848484306040518463ffffffff1660e01b815260040161325b9392919061417c565b60206040518083038186803b15801561327357600080fd5b505afa158015613287573d6000803e3d6000fd5b505050506040513d601f19601f8201168201806040525081019061231191906139ca565b64e8d4a5100090565b67016345785d8a000090565b60006001821b19841682846132d65760006132d9565b60015b60ff16901b17949350505050565b600081806020019051810190611bf89190613b6f565b60006060600061330c84613733565b90506060855167ffffffffffffffff8111801561332857600080fd5b50604051908082528060200260200182016040528015613352578160200160208202803683370190505b50905060005b86518110156133945786818151811061336d57fe5b602002602001015182828151811061338157fe5b6020908102919091010152600101613358565b50909590945092505050565b6000818060200190518101906123859190613ef7565b606060006133c483856125ab565b9050845167ffffffffffffffff811180156133de57600080fd5b50604051908082528060200260200182016040528015613408578160200160208202803683370190505b50915060005b855181101561345c5761343d8287838151811061342757fe5b602002602001015161311590919063ffffffff16565b83828151811061344957fe5b602090810291909101015260010161340e565b50509392505050565b61347c6001600160a01b038316151561019b61238c565b613488826000836130c9565b6001600160a01b0382166000908152602081905260409020546134ae90826101b26131ac565b6001600160a01b0383166000908152602081905260409020556134e16134dc826134d6611bfe565b90613749565b613757565b60006001600160a01b0316826001600160a01b03167fddf252ad1be2c89b69c2b068fc378daa952ba7f163c4a11628f55a4df523b3ef83604051613525919061415c565b60405180910390a35050565b6000613540821515600461238c565b8261354d57506000611bf8565b670de0b6b3a764000083810290613567908583816125e157fe5b82600182038161357357fe5b04600101915050611bf8565b6000613589612fb3565b82604051602001611f8a92919061406f565b60006135ad82516041146101b961238c565b60208281015160408085015160608601518251600080825295019283905292939092811a916001906135e6908990859088908890614282565b6020604051602081039080840390855afa158015613608573d6000803e3d6000fd5b5050604051601f1901519150506001600160a01b0381161580159061363e5750876001600160a01b0316816001600160a01b0316145b98975050505050505050565b6060818060200190518101906123859190613bb8565b61366c600083836130c9565b6136816134dc8261367b611bfe565b9061285c565b6001600160a01b0382166000908152602081905260409020546136a4908261285c565b6001600160a01b0383166000818152602081905260408082209390935591519091907fddf252ad1be2c89b69c2b068fc378daa952ba7f163c4a11628f55a4df523b3ef9061352590859061415c565b4690565b6000613709631c74c91760e11b611f55565b82148061372457506137216350dd6ed960e01b611f55565b82145b80611bf85750611bf88261375c565b6000818060200190518101906123859190613b8b565b6000612385838360016131ac565b600255565b50600090565b604080518082019091526000808252602082015290565b6040805160c081018252600080825260208201819052918101829052606081018290526080810182905260a081019190915290565b8035611bf881614627565b600082601f8301126137c9578081fd5b81356137dc6137d782614607565b6145e0565b8181529150602080830190848101818402860182018710156137fd57600080fd5b60005b8481101561381c57813584529282019290820190600101613800565b505050505092915050565b600082601f830112613837578081fd5b813567ffffffffffffffff81111561384d578182fd5b613860601f8201601f19166020016145e0565b915080825283602082850101111561387757600080fd5b8060208401602084013760009082016020015292915050565b8035611bf88161463c565b6000602082840312156138ac578081fd5b813561238581614627565b600080604083850312156138c9578081fd5b82356138d481614627565b915060208301356138e481614627565b809150509250929050565b600080600060608486031215613903578081fd5b833561390e81614627565b9250602084013561391e81614627565b929592945050506040919091013590565b600080600080600080600060e0888a031215613949578485fd5b873561395481614627565b9650602088013561396481614627565b95506040880135945060608801359350608088013561398281614649565b9699959850939692959460a0840135945060c09093013592915050565b600080604083850312156139b1578182fd5b82356139bc81614627565b946020939093013593505050565b6000602082840312156139db578081fd5b81518015158114612385578182fd5b600080600080600080600060e0888a031215613a04578081fd5b873596506020880135613a1681614627565b95506040880135613a2681614627565b9450606088013567ffffffffffffffff80821115613a42578283fd5b613a4e8b838c016137b9565b955060808a0135945060a08a0135935060c08a0135915080821115613a71578283fd5b50613a7e8a828b01613827565b91505092959891949750929550565b60008060408385031215613a9f578182fd5b505080516020909101519092909150565b600080600060608486031215613ac4578081fd5b8351925060208401519150604084015190509250925092565b600060208284031215613aee578081fd5b81356001600160e01b031981168114612385578182fd5b600060208284031215613b16578081fd5b815161238581614627565b60008060408385031215613b33578182fd5b8235613b3e81614627565b9150602083013567ffffffffffffffff811115613b59578182fd5b613b6585828601613827565b9150509250929050565b600060208284031215613b80578081fd5b81516123858161463c565b60008060408385031215613b9d578182fd5b8251613ba88161463c565b6020939093015192949293505050565b60008060408385031215613bca578182fd5b825160048110613bd8578283fd5b8092505060208084015167ffffffffffffffff811115613bf6578283fd5b8401601f81018613613c06578283fd5b8051613c146137d782614607565b81815283810190838501858402850186018a1015613c30578687fd5b8694505b83851015613c52578051835260019490940193918501918501613c34565b5080955050505050509250929050565b60008060008060808587031215613c77578182fd5b843567ffffffffffffffff80821115613c8e578384fd5b818701915061012080838a031215613ca4578485fd5b613cad816145e0565b9050613cb98984613890565b8152613cc889602085016137ae565b6020820152613cda89604085016137ae565b6040820152606083013560608201526080830135608082015260a083013560a0820152613d0a8960c085016137ae565b60c0820152613d1c8960e085016137ae565b60e08201526101008084013583811115613d34578687fd5b613d408b828701613827565b828401525050809650506020870135915080821115613d5d578384fd5b50613d6a878288016137b9565b949794965050505060408301359260600135919050565b600060c08284031215613d92578081fd5b613d9c60c06145e0565b8251613da781614627565b81526020830151613db781614627565b6020820152604083015160038110613dcd578283fd5b6040820152606083015160058110613de3578283fd5b60608201526080838101519082015260a0928301519281019290925250919050565b600060c08284031215613e16578081fd5b613e2060c06145e0565b8251613e2b81614627565b808252506020830151602082015260408301516040820152606083015160608201526080830151608082015260a083015160a08201528091505092915050565b600060208284031215613e7c578081fd5b5035919050565b600060208284031215613e94578081fd5b5051919050565b60008060008060808587031215613eb0578182fd5b8451935060208501519250604085015191506060850151613ed081614627565b939692955090935050565b600060208284031215613eec578081fd5b815161238581614649565b60008060408385031215613f09578182fd5b8251613ba881614649565b6001600160a01b03169052565b6000815180845260208085019450808401835b83811015613f5057815187529582019590820190600101613f34565b509495945050505050565b60008151808452815b81811015613f8057602081850181015186830182015201613f64565b81811115613f915782602083870101525b50601f01601f19169290920160200192915050565b6000610120825160028110613fb757fe5b808552506020830151613fcd6020860182613f14565b506040830151613fe06040860182613f14565b50606083015160608501526080830151608085015260a083015160a085015260c083015161401160c0860182613f14565b5060e083015161402460e0860182613f14565b5061010080840151828287015261403d83870182613f5b565b9695505050505050565b9182526001600160e01b031916602082015260240190565b6000828483379101908152919050565b61190160f01b81526002810192909252602282015260420190565b6001600160a01b0391909116815260200190565b6001600160a01b03978816815295871660208701529390951660408501526060840191909152608083015260a082019290925260c081019190915260e00190565b6001600160a01b03929092168252602082015260400190565b6000602082526123856020830184613f21565b60006040825261411e6040830185613f21565b82810360208401526141308185613f21565b95945050505050565b901515815260200190565b92151583526020830191909152604082015260600190565b90815260200190565b9182526001600160a01b0316602082015260400190565b9283526001600160a01b03918216602084015216604082015260600190565b9788526001600160a01b03968716602089015294861660408801526060870193909352608086019190915290921660a084015260c083019190915260e08201526101000190565b9586526001600160a01b0394851660208701529290931660408501526060840152608083019190915260a082015260c00190565b9485526020850193909352604084019190915260608301526001600160a01b0316608082015260a00190565b60008382526040602083015261425b6040830184613f5b565b949350505050565b6000848252836020830152606060408301526141306060830184613fa6565b93845260ff9290921660208401526040830152606082015260800190565b6000602082526123856020830184613f5b565b602080825260169082015275496e76616c6964207377617070656420746f6b656e7360501b604082015260600190565b60208082526018908201527f4f726465722062656c6f77206d696e696d756d2073697a650000000000000000604082015260600190565b6020808252601f908201527f496e73756666696369656e7420706f6f6c20746f6b656e2062616c616e636500604082015260600190565b6020808252601d908201527f496e73756666696369656e742063757272656e63792062616c616e6365000000604082015260600190565b602080825260169082015275496e73756666696369656e74206c697175696469747960501b604082015260600190565b60208082526023908201527f496e73756666696369656e7420706f6f6c20746f6b656e7320737761707065646040820152621034b760e91b606082015260800190565b6020808252600c908201526b0496e76616c696420737761760a41b604082015260600190565b6020808252601d908201527f496e73756666696369656e742073656375726974792062616c616e6365000000604082015260600190565b60208082526030908201527f496e73756666696369656e7420706f6f6c20746f6b656e73207377617070656460408201526f20696e20666f722063757272656e637960801b606082015260800190565b60208082526030908201527f496e73756666696369656e7420706f6f6c20746f6b656e73207377617070656460408201526f20696e20666f7220736563757269747960801b606082015260800190565b6020808252601d908201527f494e53554646494349454e545f494e5445524e414c5f42414c414e4345000000604082015260600190565b6000606082526145426060830185613fa6565b905082516003811061455057fe5b80602084015250602083015160408301529392505050565b82516001600160a01b0390811682526020808501519083015260408085015190830152606080850151908301526080808501519083015260a09384015193820193909352911660c082015260e00190565b60008382526040602083015261425b6040830184613f21565b60ff91909116815260200190565b60405181810167ffffffffffffffff811182821017156145ff57600080fd5b604052919050565b600067ffffffffffffffff82111561461d578081fd5b5060209081020190565b6001600160a01b0381168114611d0057600080fd5b60028110611d0057600080fd5b60ff81168114611d0057600080fdfe9b85ff671b830162b81f1cb1253d54a6fee66e6f9760fc15cfc3fecccca8f118a264697066735822122006f297ac256608d8e5c70d9f285d01ad07da54fe9be5ad8d7e1912a2d0c8bc2364736f6c63430007010033608060405260006005553480156200001657600080fd5b506040516200364738038062003647833981016040819052620000399162000106565b620000443362000098565b600b80546001600160a01b039586166001600160a01b0319918216179091556009805494861694821694909417909355600a805492851692841692909217909155600c805491909316911617905562000166565b600080546001600160a01b038381166001600160a01b0319831681178455604051919092169283917f8be0079c531659141344cd1fd0a4f28419497f9722a3daafe3b4186f6b6457e09190a35050565b80516001600160a01b03811681146200010057600080fd5b92915050565b600080600080608085870312156200011c578384fd5b620001288686620000e8565b9350620001398660208701620000e8565b92506200014a8660408701620000e8565b91506200015b8660608701620000e8565b905092959194509250565b6134d180620001766000396000f3fe608060405234801561001057600080fd5b50600436106101005760003560e01c806381b5da1d11610097578063d729cf6c11610066578063d729cf6c14610202578063e43372e914610215578063e5e658fe1461021d578063f2fde38b1461023057610100565b806381b5da1d146101b45780638da5cb5b146101c7578063ca142f75146101cf578063d61aed7a146101ef57610100565b80635487e8cf116100d35780635487e8cf146101605780635778472a146101825780636945c1fd146101a2578063715018a6146101aa57610100565b80632541897f1461010557806338fff2d01461012357806346764e5e1461013857806346b8b7301461014b575b600080fd5b61010d610243565b60405161011a919061319a565b60405180910390f35b61012b610252565b60405161011a91906131e6565b61012b6101463660046130b0565b6102e1565b61015361043d565b60405161011a91906131ae565b61017361016e3660046130fe565b610532565b60405161011a939291906131ef565b610195610190366004613005565b610782565b60405161011a91906133b2565b61010d6108a2565b6101b26108b1565b005b6101b26101c2366004613064565b6108c9565b61010d6109fe565b6101e26101dd366004612fda565b610a0d565b60405161011a9190613417565b61012b6101fd366004613035565b610ad1565b6101b2610210366004612fda565b610c2a565b610153610cce565b6101b261022b36600461308f565b610d2f565b6101b261023e366004612fbe565b610e58565b6009546001600160a01b031690565b600080600c60009054906101000a90046001600160a01b03166001600160a01b03166338fff2d06040518163ffffffff1660e01b815260040160206040518083038186803b1580156102a357600080fd5b505afa1580156102b7573d6000803e3d6000fd5b505050506040513d601f19601f820116820180604052508101906102db919061301d565b91505090565b6000610301336102ef6109fe565b6001600160a01b0316146101aa610e87565b60008085815260066020526040902060010154600160a01b900460ff16600281111561032957fe5b14156103505760405162461bcd60e51b815260040161034790613268565b60405180910390fd5b6002600085815260066020526040902060010154600160a81b900460ff16600481111561037957fe5b146103965760405162461bcd60e51b815260040161034790613303565b60c08201516000858152600660205260409020546001600160a01b039081169116146103d45760405162461bcd60e51b8152600401610347906132cc565b6000848152600660205260408120600381018590556009546001909101546001600160a01b0390811691161461040b57600161040e565b60005b905061041b848683610e95565b5050600092835260066020526040909220600201805460609093015190555090565b600354606090819067ffffffffffffffff8111801561045b57600080fd5b50604051908082528060200260200182016040528015610485578160200160208202803683370190505b5090506000805b60035481101561052a57336001600160a01b031660066000600384815481106104b157fe5b600091825260208083206001600290930201919091015483528201929092526040019020546001600160a01b0316141561052257600381815481106104f257fe5b90600052602060002090600202016001015483838151811061051057fe5b60209081029190910101526001909101905b60010161048c565b509091505090565b60008080610542336102ef6109fe565b60008451600281111561055157fe5b1480610569575060018451600281111561056757fe5b145b61057257600080fd5b60055442141561058a5760058054600101905561058f565b426005555b60008560c001516005546040516020016105aa929190613178565b6040516020818303038152906040528051906020012090506105ca612df4565b6040518060c001604052808860c001516001600160a01b0316815260200188602001516001600160a01b031681526020018760000151600281111561060b57fe5b815260200160028152606089015160208083019190915288810151604092830152600085815260068252829020835181546001600160a01b03199081166001600160a01b0392831617835592850151600183018054909416911617808355928401519394508493909290919060ff60a01b1916600160a01b83600281111561068f57fe5b0217905550606082015160018201805460ff60a81b1916600160a81b8360048111156106b757fe5b02179055506080820151600282015560a0909101516003909101556000865160028111156106e157fe5b1415610700576106f382826000610f3a565b945094509450505061077b565b60018651600281111561070f57fe5b14156107785760095460208201516001600160a01b03908116911614156107435761073e86602001518361170b565b61076c565b600a5460208201516001600160a01b039081169116141561076c5761076c866020015183611924565b6106f382826001610f3a565b50505b9250925092565b61078a612df4565b6107926109fe565b6001600160a01b0316336001600160a01b031614806107bb5750600b546001600160a01b031633145b806107dc57506000828152600660205260409020546001600160a01b031633145b6107f85760405162461bcd60e51b815260040161034790613231565b600082815260066020908152604091829020825160c08101845281546001600160a01b03908116825260018301549081169382019390935292909190830190600160a01b900460ff16600281111561084c57fe5b600281111561085757fe5b81526020016001820160159054906101000a900460ff16600481111561087957fe5b600481111561088457fe5b81526002820154602082015260039091015460409091015292915050565b600a546001600160a01b031690565b6108bd336102ef6109fe565b6108c76000611b39565b565b600b546001600160a01b03163314806108fa57506108e56109fe565b6001600160a01b0316336001600160a01b0316145b6109165760405162461bcd60e51b81526004016103479061329f565b600092835260066020908152604080852080546001600160a01b03199081168255600180830180546001600160b01b031990811690915560028085018a905560038086018b9055988a52858a2080548516815580840180549093169092558181018a90558189018a905593546001600160a01b039081168a526007808852868b20898c528852868b208054861681558085018c90558087018c9055808b018c905560048082018d905560059182018d905593549092168b528752858a20978a529690955292872080549091168155918201869055810185905592830184905582018390550155565b6000546001600160a01b031690565b610a15612e2a565b610a1d6109fe565b6001600160a01b0316336001600160a01b03161480610a445750336001600160a01b038416145b610a605760405162461bcd60e51b81526004016103479061333a565b506001600160a01b038083166000908152600760209081526040808320858452825291829020825160c0810184528154909416845260018101549184019190915260028101549183019190915260038101546060830152600481015460808301526005015460a08201525b92915050565b6000610adf336102ef6109fe565b60008084815260066020526040902060010154600160a01b900460ff166002811115610b0757fe5b1415610b255760405162461bcd60e51b815260040161034790613371565b6002600084815260066020526040902060010154600160a81b900460ff166004811115610b4e57fe5b14610b6b5760405162461bcd60e51b815260040161034790613303565b6000838152600660205260409020546001600160a01b03838116911614610ba45760405162461bcd60e51b8152600401610347906132cc565b60095460008481526006602052604081206001015490916001600160a01b03918216911614610bd4576001610bd7565b60005b9050610be38482611b89565b505050600090815260066020526040812060028101805482546001600160a01b03191683556001830180546001600160b01b03191690559083905560039091019190915590565b610c36336102ef6109fe565b60005b6001600160a01b038316600090815260086020526040902054811015610cc9576001600160a01b0383166000908152600860205260409020805483919083908110610c8057fe5b90600052602060002001541415610cc1576001600160a01b0383166000908152600860205260409020805482908110610cb557fe5b60009182526020822001555b600101610c39565b505050565b33600090815260086020908152604091829020805483518184028101840190945280845260609392830182828015610d2557602002820191906000526020600020905b815481526020019060010190808311610d11575b5050505050905090565b600b546001600160a01b0316331480610d605750610d4b6109fe565b6001600160a01b0316336001600160a01b0316145b610d7c5760405162461bcd60e51b81526004016103479061329f565b600082815260066020526040902060028082018054840190556001918201805460ff60a81b1916600160a91b1790819055600160a01b900460ff1690811115610dc157fe5b1415610e54576009546000838152600660205260409020600101546001600160a01b0390811691161415610e1057600082815260066020526040902060030154610e0b908361170b565b610e54565b600a546000838152600660205260409020600101546001600160a01b0390811691161415610e5457600082815260066020526040902060030154610e549083611924565b5050565b610e64336102ef6109fe565b610e7b6001600160a01b03821615156101ab610e87565b610e8481611b39565b50565b81610e5457610e5481611cf4565b8015610eeb57600082815260026020526040902054600180548592908110610eb957fe5b60009182526020808320600292830201939093558482529091526040902054610ee657610ee66000611d04565b610cc9565b600082815260046020526040902054600380548592908110610f0957fe5b6000918252602080832060029092029091019290925583815260049091526040902054610cc957610cc96000611ef2565b600080600080600080806000905060008060006060600960009054906101000a90046001600160a01b03166001600160a01b03168d602001516001600160a01b03161415610fcd5760015467ffffffffffffffff81118015610f9b57600080fd5b50604051908082528060200260200182016040528015610fc5578160200160208202803683370190505b509050611014565b60035467ffffffffffffffff81118015610fe657600080fd5b50604051908082528060200260200182016040528015611010578160200160208202803683370190505b5090505b61101d8e6120de565b909250905060008c600281111561103057fe5b1415611067578c608001518210156110625761104b8161240c565b8d4260009a509a509a505050505050505050611702565b611097565b60018c600281111561107557fe5b14156110975781611097578d4260009a509a509a505050505050505050611702565b600091505b80518210156116f95760808d01516110b3576116f9565b8d8183815181106110c057fe5b60200260200101511415801561111657508c600001516001600160a01b0316600660008385815181106110ef57fe5b6020908102919091018101518252810191909152604001600020546001600160a01b031614155b8015611164575060006006600083858151811061112f57fe5b6020026020010151815260200190815260200160002060010160159054906101000a900460ff16600481111561116157fe5b14155b156113a1576006600082848151811061117957fe5b602002602001015181526020019081526020016000206003015460001480156111a4575060a08d0151155b156111ae576116ee565b600a5481516001600160a01b03909116906006906000908490869081106111d157fe5b6020908102919091018101518252810191909152604001600020600101546001600160a01b0316148015611217575060095460208e01516001600160a01b039081169116145b156112aa578c60a001516006600083858151811061123157fe5b602002602001015181526020019081526020016000206003015410158061125a575060a08d0151155b156112a5576006600082848151811061126f57fe5b6020026020010151815260200190815260200160002060030154965080828151811061129757fe5b602002602001015197508194505b6113a1565b60095481516001600160a01b03909116906006906000908490869081106112cd57fe5b6020908102919091018101518252810191909152604001600020600101546001600160a01b03161480156113135750600a5460208e01516001600160a01b039081169116145b156113a1578c60a001516006600083858151811061132d57fe5b6020026020010151815260200190815260200160002060030154111580611356575060a08d0151155b156113a1576006600082848151811061136b57fe5b6020026020010151815260200190815260200160002060030154965080828151811061139357fe5b602002602001015195508194505b871561155a5760095460208e01516001600160a01b0390811691161415611555576000888152600660205260409020600201546113de9088612551565b93508c6080015184106114f75760808d015193506113fc84886125a2565b60008981526006602052604090206002015460808f015191945061141f916125d8565b600660008a81526020019081526020016000206002018190555060008d6080018181525050600660008981526020019081526020016000206002015460001461146957600161146c565b60005b6000898152600660205260409020600101805460ff60a81b1916600160a81b83600481111561149757fe5b0217905550600060608e01526114af8e8986866125ee565b945060008d6040015160028111156114c357fe5b14156114f25760006114db8f8f6000015160016128e8565b8f9c50959a50949850611702975050505050505050565b611555565b83156115555761150784886125a2565b92506115178d60800151856125d8565b60808e0152600088815260066020526040812060028101919091556001908101805460ff60a81b1916905560608e01526115538e8986866125ee565b505b6116ee565b85156116ee57600a5460208e01516001600160a01b03908116911614156116ee5760008681526006602052604090206002015461159790886125a2565b92508c6080015183106116905760808d015192506115b58388612551565b6000878152600660205260409020600201549094506115d490856125d8565b600660008881526020019081526020016000206002018190555060008d6080018181525050600660008781526020019081526020016000206002015460001461161e576001611621565b60005b6000878152600660205260409020600101805460ff60a81b1916600160a81b83600481111561164c57fe5b0217905550600060608e01526116648e8786866125ee565b945060008d60400151600281111561167857fe5b14156115555760006114db8f8f6000015160006128e8565b82156116ee576116a08388612551565b93506116b08d60800151846125d8565b60808e0152600086815260066020526040812060028101919091556001908101805460ff60a81b1916905560608e01526116ec8e8786866125ee565b505b60019091019061109c565b50505050505050505b93509350939050565b60408051808201909152828152602081018281526003805460018082018355600083815294517fc2575a0e9e593c00f959f8c92f12db2869c3395a3b0502d05e2516446f71f85b60029093029283015592517fc2575a0e9e593c00f959f8c92f12db2869c3395a3b0502d05e2516446f71f85c909101555461178c916125d8565b9050600061179d8260026000612a78565b90505b6000821180156117eb5750600382815481106117b857fe5b906000526020600020906002020160000154600382815481106117d757fe5b906000526020600020906002020160000154115b1561191e576117f8612e5f565b6003828154811061180557fe5b90600052602060002090600202016040518060400160405290816000820154815260200160018201548152505090506003838154811061184157fe5b90600052602060002090600202016003838154811061185c57fe5b9060005260206000209060020201600082015481600001556001820154816001015590505081600460006003868154811061189357fe5b90600052602060002090600202016001015481526020019081526020016000208190555080600384815481106118c557fe5b90600052602060002090600202016000820151816000015560208201518160010155905050826004600083602001518152602001908152602001600020819055508192506119168360026000612a78565b9150506117a0565b50505050565b6040805180820190915282815260208101828152600180548082018255600082815293517fb10e2d527612073b26eecdfd717e6a320cf44b4afac2b0732d9fcbe2b7fa0cf660029092029182015591517fb10e2d527612073b26eecdfd717e6a320cf44b4afac2b0732d9fcbe2b7fa0cf79092019190915580546119a7916125d8565b905060006119b88260026000612a78565b90505b600082118015611a065750600182815481106119d357fe5b906000526020600020906002020160000154600182815481106119f257fe5b906000526020600020906002020160000154105b1561191e57611a13612e5f565b60018281548110611a2057fe5b906000526020600020906002020160405180604001604052908160008201548152602001600182015481525050905060018381548110611a5c57fe5b906000526020600020906002020160018381548110611a7757fe5b90600052602060002090600202016000820154816000015560018201548160010155905050816002600060018681548110611aae57fe5b9060005260206000209060020201600101548152602001908152602001600020819055508060018481548110611ae057fe5b9060005260206000209060020201600082015181600001556020820151816001015590505082600260008360200151815260200190815260200160002081905550819250611b318360026000612a78565b9150506119bb565b600080546001600160a01b038381166001600160a01b0319831681178455604051919092169283917f8be0079c531659141344cd1fd0a4f28419497f9722a3daafe3b4186f6b6457e09190a35050565b8015611c4157600082815260026020526040902054611bb057611baa612aa0565b50610e0b565b60018054611bbe90826125d8565b81548110611bc857fe5b90600052602060002090600202016001600260008581526020019081526020016000205481548110611bf657fe5b60009182526020909120825460029092020190815560019182015490820155805480611c1e57fe5b600082815260208120600260001990930192830201818155600101559055610e54565b600082815260046020526040902054611c6257611c5c612bbf565b50610e54565b60038054611c719060016125d8565b81548110611c7b57fe5b90600052602060002090600202016003600460008581526020019081526020016000205481548110611ca957fe5b6000918252602090912082546002909202019081556001918201549101556003805480611cd257fe5b6000828152602081206002600019909301928302018181556001015590555050565b610e84816210905360ea1b612cd6565b60018054611d11916125d8565b611d1c826002612d37565b1015610e84576000611d2f826002612d37565b9050600060018281548110611d4057fe5b6000918252602082206002909102015491506001611d5e8482612d58565b81548110611d6857fe5b906000526020600020906002020160000154905080821015611d9257611d8f836001612d58565b92505b60018381548110611d9f57fe5b90600052602060002090600202016000015460018581548110611dbe57fe5b9060005260206000209060020201600001541115611dde57505050610e84565b611de6612e5f565b60018581548110611df357fe5b906000526020600020906002020160405180604001604052908160008201548152602001600182015481525050905060018481548110611e2f57fe5b906000526020600020906002020160018681548110611e4a57fe5b90600052602060002090600202016000820154816000015560018201548160010155905050846002600060018781548110611e8157fe5b9060005260206000209060020201600101548152602001908152602001600020819055508060018581548110611eb357fe5b6000918252602080832084516002938402909101908155938101516001909401939093559282015181529190526040902083905550909150611d049050565b600354611f009060016125d8565b611f0b826002612d37565b1015610e84576000611f1e826002612d37565b9050600060038281548110611f2f57fe5b6000918252602082206002909102015491506003611f4e846001612d58565b81548110611f5857fe5b906000526020600020906002020160000154905080821115611f8257611f7f836001612d58565b92505b60038381548110611f8f57fe5b90600052602060002090600202016000015460038581548110611fae57fe5b9060005260206000209060020201600001541015611fce57505050610e84565b611fd6612e5f565b60038581548110611fe357fe5b90600052602060002090600202016040518060400160405290816000820154815260200160018201548152505090506003848154811061201f57fe5b90600052602060002090600202016003868154811061203a57fe5b9060005260206000209060020201600082015481600001556001820154816001015590505084600460006003878154811061207157fe5b90600052602060002090600202016001015481526020019081526020016000208190555080600385815481106120a357fe5b60009182526020808320845160029093020191825592830151600190910155918101518252600490526040902083905550909150611ef29050565b6009546000828152600660205260408120600101549091606091839183916001600160a01b039081169116141561215a5760015467ffffffffffffffff8111801561212857600080fd5b50604051908082528060200260200182016040528015612152578160200160208202803683370190505b5090506121a1565b60035467ffffffffffffffff8111801561217357600080fd5b5060405190808252806020026020018201604052801561219d578160200160208202803683370190505b5090505b60095460008681526006602052604081206001015490916001600160a01b03918216911614156122e0575b600154156122d5576000868152600660205260409020600301546121ee612d6a565b10158061220a5750600086815260066020526040902060030154155b156122cb57612217612aa0565b82828151811061222357fe5b60200260200101818152505061229d836122986006600086868151811061224657fe5b60200260200101518152602001908152602001600020600301546006600087878151811061227057fe5b602002602001015181526020019081526020016000206002015461255190919063ffffffff16565b612d58565b60008781526006602052604090206002015490935083106122c357509092509050612407565b6001016122d0565b6122d5565b6121cc565b509092509050612407565b600a546000878152600660205260409020600101546001600160a01b0390811691161415612403575b600354156122d55760008681526006602052604090206003015461232b612d91565b1115806123475750600086815260066020526040902060030154155b156122cb57612354612bbf565b82828151811061236057fe5b6020026020010181815250506123d5836122986006600086868151811061238357fe5b6020026020010151815260200190815260200160002060020154600660008787815181106123ad57fe5b60200260200101518152602001908152602001600020600301546125a290919063ffffffff16565b60008781526006602052604090206002015490935083106123fb57509092509050612407565b600101612309565b5050505b915091565b60005b8151811015610e545760095482516001600160a01b039091169060069060009085908590811061243b57fe5b6020908102919091018101518252810191909152604001600020600101546001600160a01b031614156124b3576124ae6006600084848151811061247b57fe5b60200260200101518152602001908152602001600020600301548383815181106124a157fe5b602002602001015161170b565b612549565b600a5482516001600160a01b03909116906006906000908590859081106124d657fe5b6020908102919091018101518252810191909152604001600020600101546001600160a01b03161415612549576125496006600084848151811061251657fe5b602002602001015181526020019081526020016000206003015483838151811061253c57fe5b6020026020010151611924565b60010161240f565b60006125608215156004610e87565b8261256d57506000610acb565b670de0b6b3a7640000838102906125909085838161258757fe5b04146005610e87565b82818161259957fe5b04915050610acb565b60008282026125c68415806125bf5750838583816125bc57fe5b04145b6003610e87565b670de0b6b3a764000090049392505050565b60006125e8838311156001610e87565b50900390565b6005805460010190819055600090612604612e2a565b6040518060c00160405280600660008a815260200190815260200160002060000160009054906101000a90046001600160a01b03166001600160a01b031681526020018881526020018781526020018381526020018681526020018581525090508060076000600660008b815260200190815260200160002060000160009054906101000a90046001600160a01b03166001600160a01b03166001600160a01b03168152602001908152602001600020600084815260200190815260200160002060008201518160000160006101000a8154816001600160a01b0302191690836001600160a01b031602179055506020820151816001015560408201518160020155606082015181600301556080820151816004015560a082015181600501559050508060076000600660008a815260200190815260200160002060000160009054906101000a90046001600160a01b03166001600160a01b03166001600160a01b03168152602001908152602001600020600084815260200190815260200160002060008201518160000160006101000a8154816001600160a01b0302191690836001600160a01b031602179055506020820151816001015560408201518160020155606082015181600301556080820151816004015560a0820151816005015590505060086000600660008a815260200190815260200160002060000160009054906101000a90046001600160a01b03166001600160a01b03166001600160a01b0316815260200190815260200160002081606001519080600181540180825580915050600190039060005260206000200160009091909190915055600860006006600089815260200190815260200160002060000160009054906101000a90046001600160a01b03166001600160a01b03166001600160a01b03168152602001908152602001600020816060015190806001815401808255809150506001900390600052602060002001600090919091909150558192505050949350505050565b60008060006128f5612e2a565b60005b6001600160a01b038716600090815260086020526040902054811015612a6c576001600160a01b038716600090815260086020526040902080548290811061293c57fe5b60009182526020808320909101546001600160a01b03808b168452600783526040808520838652845293849020845160c081018652815490921682526001810154938201849052600281015494820194909452600384015460608201526004840154608082015260059093015460a084015295509092508814156129e1576000866129cb5782608001516129d1565b8260a001515b90506129dd8482612d58565b9350505b6001600160a01b0387166000908152600860205260409020805482908110612a0557fe5b600091825260208083209091018290556001600160a01b0389168252600781526040808320878452909152812080546001600160a01b03191681556001808201839055600282018390556003820183905560048201839055600590910191909155016128f8565b50909695505050505050565b600081612a8e57612a898484612da1565b612a98565b612a988484612dc1565b949350505050565b600154600090612ac25760405162461bcd60e51b815260040161034790613205565b60006001600081548110612ad257fe5b90600052602060002090600202016001015490506001612af860018054905060016125d8565b81548110612b0257fe5b90600052602060002090600202016001600081548110612b1e57fe5b906000526020600020906002020160008201548160000155600182015481600101559050506000600260006001600081548110612b5757fe5b9060005260206000209060020201600101548152602001908152602001600020819055506001805480612b8657fe5b6000828152602081206002600019909301928302018181556001908101829055919092555415612bb957612bb981611d04565b50905090565b600354600090612be15760405162461bcd60e51b815260040161034790613205565b60006003600081548110612bf157fe5b90600052602060002090600202016001015490506003612c1760038054905060016125d8565b81548110612c2157fe5b90600052602060002090600202016003600081548110612c3d57fe5b906000526020600020906002020160008201548160000155600182015481600101559050506000600460006003600081548110612c7657fe5b9060005260206000209060020201600101548152602001908152602001600020819055506003805480612ca557fe5b600082815260208120600260001990930192830201818155600101819055915560035415612bb957612bb981611ef2565b62461bcd60e51b600090815260206004526007602452600a808404818106603090810160081b958390069590950190829004918206850160101b01602363ffffff0060e086901c160160181b0190930160c81b60445260e882901c90606490fd5b6000828202612d518415806125bf5750838583816125bc57fe5b9392505050565b6000828201612d518482101583610e87565b60006001600081548110612d7a57fe5b906000526020600020906002020160000154905090565b60006003600081548110612d7a57fe5b6000612db08215156004610e87565b818381612db957fe5b049392505050565b6000612dd08215156004610e87565b82612ddd57506000610acb565b816001840381612de957fe5b046001019050610acb565b6040805160c081018252600080825260208201819052909182019081526020016000815260200160008152602001600081525090565b6040805160c081018252600080825260208201819052918101829052606081018290526080810182905260a081019190915290565b604080518082019091526000808252602082015290565b8035610acb81613486565b600082601f830112612e91578081fd5b813567ffffffffffffffff811115612ea7578182fd5b612eba601f8201601f191660200161345f565b9150808252836020828501011115612ed157600080fd5b8060208401602084013760009082016020015292915050565b803560028110610acb57600080fd5b6000610120808385031215612f0c578182fd5b612f158161345f565b915050612f228383612eea565b8152612f318360208401612e76565b6020820152612f438360408401612e76565b6040820152606082013560608201526080820135608082015260a082013560a0820152612f738360c08401612e76565b60c0820152612f858360e08401612e76565b60e08201526101008083013567ffffffffffffffff811115612fa657600080fd5b612fb285828601612e81565b82840152505092915050565b600060208284031215612fcf578081fd5b8135612d5181613486565b60008060408385031215612fec578081fd5b8235612ff781613486565b946020939093013593505050565b600060208284031215613016578081fd5b5035919050565b60006020828403121561302e578081fd5b5051919050565b60008060408385031215613047578182fd5b82359150602083013561305981613486565b809150509250929050565b600080600060608486031215613078578081fd5b505081359360208301359350604090920135919050565b600080604083850312156130a1578182fd5b50508035926020909101359150565b6000806000606084860312156130c4578283fd5b8335925060208401359150604084013567ffffffffffffffff8111156130e8578182fd5b6130f486828701612ef9565b9150509250925092565b6000808284036060811215613111578283fd5b833567ffffffffffffffff811115613127578384fd5b61313386828701612ef9565b9350506040601f1982011215613147578182fd5b50613152604061345f565b602084013560038110613163578283fd5b81526040939093013560208401525092909150565b60609290921b6bffffffffffffffffffffffff19168252601482015260340190565b6001600160a01b0391909116815260200190565b6020808252825182820181905260009190848201906040850190845b81811015612a6c578351835292840192918401916001016131ca565b90815260200190565b9283526020830191909152604082015260600190565b6020808252601290820152714f72646572626f6f6b20697320656d70747960701b604082015260600190565b6020808252601d908201527f556e617574686f72697a65642061636365737320746f206f7264657273000000604082015260600190565b6020808252601f908201527f4d61726b6574206f726465722063616e206e6f74206265206368616e67656400604082015260600190565b602080825260139082015272556e617574686f72697a65642061636365737360681b604082015260600190565b6020808252601b908201527f53656e646572206973206e6f74206f726465722063726561746f720000000000604082015260600190565b60208082526017908201527f4f7264657220697320616c72656164792066696c6c6564000000000000000000604082015260600190565b6020808252601d908201527f556e617574686f72697a65642061636365737320746f20747261646573000000604082015260600190565b60208082526021908201527f4d61726b6574206f726465722063616e206e6f742062652063616e63656c6c656040820152601960fa1b606082015260800190565b81516001600160a01b03908116825260208084015190911690820152604082015160c0820190600381106133e257fe5b60408301526060830151600581106133f657fe5b806060840152506080830151608083015260a083015160a083015292915050565b81516001600160a01b031681526020808301519082015260408083015190820152606080830151908201526080808301519082015260a0918201519181019190915260c00190565b60405181810167ffffffffffffffff8111828210171561347e57600080fd5b604052919050565b6001600160a01b0381168114610e8457600080fdfea264697066735822122017a99d866d4c611a4af4c8f9f637b46ee9edce84751b8836707eb4f427c26f5564736f6c63430007010033",
  "linkReferences": {},
  "deployedLinkReferences": {}
}