{
  "_format": "hh-sol-artifact-1",
  "contractName": "SecondaryIssuePoolFactory",
  "sourceName": "contracts/SecondaryIssuePoolFactory.sol",
  "abi": [
    {
      "inputs": [
        {
          "internalType": "contract IVault",
          "name": "vault",
          "type": "address"
        },
        {
          "internalType": "contract IProtocolFeePercentagesProvider",
          "name": "protocolFeeProvider",
          "type": "address"
        }
      ],
      "stateMutability": "nonpayable",
      "type": "constructor"
    },
    {
      "anonymous": false,
      "inputs": [],
      "name": "FactoryDisabled",
      "type": "event"
    },
    {
      "anonymous": false,
      "inputs": [
        {
          "indexed": true,
          "internalType": "address",
          "name": "pool",
          "type": "address"
        }
      ],
      "name": "PoolCreated",
      "type": "event"
    },
    {
      "inputs": [
        {
          "internalType": "string",
          "name": "name",
          "type": "string"
        },
        {
          "internalType": "string",
          "name": "symbol",
          "type": "string"
        },
        {
          "internalType": "address",
          "name": "security",
          "type": "address"
        },
        {
          "internalType": "address",
          "name": "currency",
          "type": "address"
        },
        {
          "internalType": "uint256",
          "name": "maxAmountsIn",
          "type": "uint256"
        },
        {
          "internalType": "uint256",
          "name": "tradeFeePercentage",
          "type": "uint256"
        }
      ],
      "name": "create",
      "outputs": [
        {
          "internalType": "address",
          "name": "",
          "type": "address"
        }
      ],
      "stateMutability": "nonpayable",
      "type": "function"
    },
    {
      "inputs": [],
      "name": "disable",
      "outputs": [],
      "stateMutability": "nonpayable",
      "type": "function"
    },
    {
      "inputs": [
        {
          "internalType": "bytes4",
          "name": "selector",
          "type": "bytes4"
        }
      ],
      "name": "getActionId",
      "outputs": [
        {
          "internalType": "bytes32",
          "name": "",
          "type": "bytes32"
        }
      ],
      "stateMutability": "view",
      "type": "function"
    },
    {
      "inputs": [],
      "name": "getAuthorizer",
      "outputs": [
        {
          "internalType": "contract IAuthorizer",
          "name": "",
          "type": "address"
        }
      ],
      "stateMutability": "view",
      "type": "function"
    },
    {
      "inputs": [],
      "name": "getCreationCode",
      "outputs": [
        {
          "internalType": "bytes",
          "name": "",
          "type": "bytes"
        }
      ],
      "stateMutability": "view",
      "type": "function"
    },
    {
      "inputs": [],
      "name": "getCreationCodeContracts",
      "outputs": [
        {
          "internalType": "address",
          "name": "contractA",
          "type": "address"
        },
        {
          "internalType": "address",
          "name": "contractB",
          "type": "address"
        }
      ],
      "stateMutability": "view",
      "type": "function"
    },
    {
      "inputs": [],
      "name": "getPauseConfiguration",
      "outputs": [
        {
          "internalType": "uint256",
          "name": "pauseWindowDuration",
          "type": "uint256"
        },
        {
          "internalType": "uint256",
          "name": "bufferPeriodDuration",
          "type": "uint256"
        }
      ],
      "stateMutability": "view",
      "type": "function"
    },
    {
      "inputs": [],
      "name": "getProtocolFeePercentagesProvider",
      "outputs": [
        {
          "internalType": "contract IProtocolFeePercentagesProvider",
          "name": "",
          "type": "address"
        }
      ],
      "stateMutability": "view",
      "type": "function"
    },
    {
      "inputs": [],
      "name": "getVault",
      "outputs": [
        {
          "internalType": "contract IVault",
          "name": "",
          "type": "address"
        }
      ],
      "stateMutability": "view",
      "type": "function"
    },
    {
      "inputs": [],
      "name": "isDisabled",
      "outputs": [
        {
          "internalType": "bool",
          "name": "",
          "type": "bool"
        }
      ],
      "stateMutability": "view",
      "type": "function"
    },
    {
      "inputs": [
        {
          "internalType": "address",
          "name": "pool",
          "type": "address"
        }
      ],
      "name": "isPoolFromFactory",
      "outputs": [
        {
          "internalType": "bool",
          "name": "",
          "type": "bool"
        }
      ],
      "stateMutability": "view",
      "type": "function"
    }
  ],
  "bytecode": "0x6101806040523480156200001257600080fd5b5060405162008eee38038062008eee8339810160408190526200003591620001fc565b8181604051806020016200004990620001ee565b601f1982820381018352601f90910116604052805183903090839060006002820460a081905280830360e08190528185529091508362000095816200010f602090811b6200043717901c565b60601b6001600160601b0319166080528285018051838252620000c4826200010f602090811b6200043717901c565b6001600160601b0319606091821b811660c05296909352905261010095909552505092821b831661012052509290921b90911661014052505050426276a70001610160525062000250565b80517f602038038060206000396000f3fefefefefefefefefefefefefefefefefefefe808352600091602081018484f090845291506200015d6001600160a01b03831615156101ac62000163565b50919050565b816200017457620001748162000178565b5050565b6200018a816210905360ea1b6200018d565b50565b62461bcd60e51b600090815260206004526007602452600a808404818106603090810160081b958390069590950190829004918206850160101b01602363ffffff0060e086901c160160181b0190930160c81b60445260e882901c90606490fd5b6181648062000d8a83390190565b600080604083850312156200020f578182fd5b82516200021c816200023a565b60208401519092506200022f816200023a565b809150509250929050565b6001600160a01b03811681146200018a57600080fd5b60805160601c60a05160c05160601c60e051610100516101205160601c6101405160601c61016051610ac1620002c9600039806101ec52806102155250806102c052508061039b52508061034b5250806104915250806101c3528061050d5250806104b25250806101a252806104e95250610ac16000f3fe608060405234801561001057600080fd5b50600436106100a85760003560e01c80636c57f5a9116100715780636c57f5a914610121578063739238d61461012957806374dcc7a41461013e578063851c1bb3146101515780638d928af814610171578063aaabadc514610179576100a8565b8062c194db146100ad578063174481fa146100cb5780632da47c40146100e15780632f2770db146100f75780636634b75314610101575b600080fd5b6100b5610181565b6040516100c2919061098e565b60405180910390f35b6100d36101a0565b6040516100c2929190610941565b6100e96101e6565b6040516100c2929190610a68565b6100ff610250565b005b61011461010f3660046107c7565b610297565b6040516100c2919061095b565b6101146102b5565b6101316102be565b6040516100c2919061092d565b61013161014c366004610847565b6102e2565b61016461015f366004610803565b610347565b6040516100c29190610966565b610131610399565b6101316103bd565b606061019b60405180602001604052806000815250610489565b905090565b7f00000000000000000000000000000000000000000000000000000000000000007f00000000000000000000000000000000000000000000000000000000000000009091565b600080427f000000000000000000000000000000000000000000000000000000000000000081101561024257807f000000000000000000000000000000000000000000000000000000000000000003925062278d00915061024b565b60009250600091505b509091565b610258610562565b610260610593565b6001805460ff1916811790556040517f432acbfd662dbb5d8b378384a67159b47ca9d0f1b79f97cf64cf8585fa362d5090600090a1565b6001600160a01b031660009081526020819052604090205460ff1690565b60015460ff1690565b7f000000000000000000000000000000000000000000000000000000000000000090565b60008060006102ef6101e6565b915091506103386102fe610399565b8c8c8c8c8c8c8c8c8b8b336040516020016103249c9b9a999897969594939291906109e1565b6040516020818303038152906040526105a8565b9b9a5050505050505050505050565b60007f00000000000000000000000000000000000000000000000000000000000000008260405160200161037c929190610915565b604051602081830303815290604052805190602001209050919050565b7f000000000000000000000000000000000000000000000000000000000000000090565b60006103c7610399565b6001600160a01b031663aaabadc56040518163ffffffff1660e01b815260040160206040518083038186803b1580156103ff57600080fd5b505afa158015610413573d6000803e3d6000fd5b505050506040513d601f19601f8201168201806040525081019061019b919061082b565b80517f602038038060206000396000f3fefefefefefefefefefefefefefefefefefefe808352600091602081018484f090845291506104836001600160a01b03831615156101ac610611565b50919050565b8051604080517f00000000000000000000000000000000000000000000000000000000000000007f0000000000000000000000000000000000000000000000000000000000000000818101858101848101602090810190965280855293957f00000000000000000000000000000000000000000000000000000000000000009592947f000000000000000000000000000000000000000000000000000000000000000094938801866000828a3c846000888301883c5060208981019089850101610554818386610623565b505050505050505050919050565b60006105796000356001600160e01b031916610347565b90506105906105888233610661565b610191610611565b50565b6105a661059e6102b5565b1560d3610611565b565b60006105b2610593565b60006105bd836106f1565b6001600160a01b038116600081815260208190526040808220805460ff191660011790555192935090917f83a48fbcfc991335314e74d0496aab6a1987e992ddc85dddbcc4d6dd6ef2e9fc9190a292915050565b8161061f5761061f81610725565b5050565b5b60208110610643578151835260209283019290910190601f1901610624565b905182516020929092036101000a6000190180199091169116179052565b600061066b6103bd565b6001600160a01b0316639be2a8848484306040518463ffffffff1660e01b815260040161069a9392919061096f565b60206040518083038186803b1580156106b257600080fd5b505afa1580156106c6573d6000803e3d6000fd5b505050506040513d601f19601f820116820180604052508101906106ea91906107e3565b9392505050565b600060606106fe83610489565b905060008151602083016000f090506001600160a01b0381166106ea573d6000803e3d6000fd5b62461bcd60e51b600090815260206004526007602452600a808304818106603090810160081b83860601918390049283060160101b016642414c230000300160c81b604452610590916210905360ea1b906242414c90606490fd5b60008083601f840112610791578182fd5b50813567ffffffffffffffff8111156107a8578182fd5b6020830191508360208285010111156107c057600080fd5b9250929050565b6000602082840312156107d8578081fd5b81356106ea81610a76565b6000602082840312156107f4578081fd5b815180151581146106ea578182fd5b600060208284031215610814578081fd5b81356001600160e01b0319811681146106ea578182fd5b60006020828403121561083c578081fd5b81516106ea81610a76565b60008060008060008060008060c0898b031215610862578384fd5b883567ffffffffffffffff80821115610879578586fd5b6108858c838d01610780565b909a50985060208b013591508082111561089d578586fd5b506108aa8b828c01610780565b90975095505060408901356108be81610a76565b935060608901356108ce81610a76565b979a969950949793969295929450505060808201359160a0013590565b60008284528282602086013780602084860101526020601f19601f85011685010190509392505050565b9182526001600160e01b031916602082015260240190565b6001600160a01b0391909116815260200190565b6001600160a01b0392831681529116602082015260400190565b901515815260200190565b90815260200190565b9283526001600160a01b03918216602084015216604082015260600190565b6000602080835283518082850152825b818110156109ba5785810183015185820160400152820161099e565b818111156109cb5783604083870101525b50601f01601f1916929092016040019392505050565b6001600160a01b038d16815261014060208201819052600090610a079083018d8f6108eb565b8281036040840152610a1a818c8e6108eb565b6001600160a01b039a8b166060850152988a166080840152505060a081019590955260c085019390935260e08401919091526101008301529092166101209092019190915295945050505050565b918252602082015260400190565b6001600160a01b038116811461059057600080fdfea2646970667358221220b8d6091f96dec2d2e4bd79fad8ffc03a0578b472be23bf326aee77bb14ec0e7864736f6c634300070100336102e06040523480156200001257600080fd5b506040516200816438038062008164833981016040819052620000359162000b64565b8960008a8a620000478b8b30620004ad565b6040805160038082526080820190925290602082016060803683370190505089898989828289898d85336001600160a01b031660001b8480604051806040016040528060018152602001603160f81b81525087878160039080519060200190620000b3929190620009ce565b508051620000c9906004906020840190620009ce565b50506005805460ff19166012179055508151602092830120608052805191012060a052507f8b73c3c69bb8fe3d512ecc4cf759cc79239f7b179b0ffacaa9a75d522b39400f60c05260e0526001600160601b0319606091821b81166101005291901b1661012052506200014790506276a7008311156101946200057c565b6200015b62278d008211156101956200057c565b42909101610140819052016101605285516200017d906002111560c86200057c565b620001976200018b62000591565b8751111560c96200057c565b620001ad866200059660201b62001bb71760201c565b620001b884620005a2565b6040516309b2760f60e01b81526000906001600160a01b038c16906309b2760f90620001e9908d9060040162000d2d565b602060405180830381600087803b1580156200020457600080fd5b505af115801562000219573d6000803e3d6000fd5b505050506040513d601f19601f820116820180604052508101906200023f919062000b2c565b604051633354e3e960e11b81529091506001600160a01b038c16906366a9c7d290620002749084908b908b9060040162000c91565b600060405180830381600087803b1580156200028f57600080fd5b505af1158015620002a4573d6000803e3d6000fd5b505050508061018081815250508a6001600160a01b031663d2946c2b6040518163ffffffff1660e01b815260040160206040518083038186803b158015620002eb57600080fd5b505afa15801562000300573d6000803e3d6000fd5b505050506040513d601f19601f8201168201806040525081019062000326919062000b45565b6001600160a01b03166101a0816001600160a01b031660601b815250505050505050505050505050866001600160a01b03166101c0816001600160a01b031660601b81525050856001600160a01b03166101e0816001600160a01b031660601b815250506000806000620003a28a8a306200063660201b60201c565b6102608190526102808390526102a082905291945092509050620003c68a6200072c565b61020052620003d5896200072c565b61022052600a8890556102408790526001600160601b0319606085901b166102c05260405184908b908b9030906200040d9062000a53565b6200041c949392919062000c66565b604051809103906000f08015801562000439573d6000803e3d6000fd5b50600980546001600160a01b0319166001600160a01b0392831617908190556040518c8316927f3ca60c442fe0a0eec00a4242bd76d6b93ec28f607f78e5b820a53f8538854bbb9262000492928d928f92169062000d4b565b60405180910390a25050505050505050505050505062000d8c565b606060008080620004c087878762000636565b6040805160038082526080820190925293965091945092506020820160608036833701905050935086848481518110620004f657fe5b60200260200101906001600160a01b031690816001600160a01b031681525050858483815181106200052457fe5b60200260200101906001600160a01b031690816001600160a01b031681525050848482815181106200055257fe5b60200260200101906001600160a01b031690816001600160a01b0316815250505050509392505050565b816200058d576200058d8162000800565b5050565b600390565b806200058d8162000815565b620005bb620005b0620008a1565b82101560cb6200057c565b620005d4620005c9620008aa565b82111560ca6200057c565b620005f68160c0603f600854620008b660201b62001bc117909392919060201c565b6008556040517fa9ba3ffe0b6c366b81232caab38605a0699ad5398d6cce76f91ee809e322dafc906200062b90839062000d42565b60405180910390a150565b6000806000846001600160a01b0316866001600160a01b03161015620006bf57836001600160a01b0316856001600160a01b031610156200068257506000915060019050600262000723565b836001600160a01b0316866001600160a01b03161015620006ae57506000915060029050600162000723565b506001915060029050600062000723565b846001600160a01b0316846001600160a01b03161015620006eb57506002915060019050600062000723565b856001600160a01b0316846001600160a01b031610156200071757506002915060009050600162000723565b50600191506000905060025b93509350939050565b60006001600160a01b038216301415620007505750670de0b6b3a7640000620007fb565b6000826001600160a01b031663313ce5676040518163ffffffff1660e01b815260040160206040518083038186803b1580156200078c57600080fd5b505afa158015620007a1573d6000803e3d6000fd5b505050506040513d601f19601f82011682018060405250810190620007c7919062000c43565b60ff1690506000620007e6601283620008db60201b62001be91760201c565b905080600a0a670de0b6b3a764000002925050505b919050565b62000812816210905360ea1b620008f8565b50565b600281511015620008265762000812565b6000816000815181106200083657fe5b602002602001015190506000600190505b82518110156200089c5760008382815181106200086057fe5b6020026020010151905062000891816001600160a01b0316846001600160a01b03161060656200057c60201b60201c565b915060010162000847565b505050565b64e8d4a5100090565b67016345785d8a000090565b6000620008c584848462000959565b506001901b60001901811b1992909216911b1790565b6000620008ed8383111560016200057c565b508082035b92915050565b62461bcd60e51b600090815260206004526007602452600a808404818106603090810160081b958390069590950190829004918206850160101b01602363ffffff0060e086901c160160181b0190930160c81b60445260e882901c90606490fd5b6200096a610100831060646200057c565b620009a3600182101580156200099b57506200099760ff8461010003620009b460201b62001bff1760201c565b8211155b60646200057c565b6200089c83821c156101b46200057c565b6000818310620009c55781620009c7565b825b9392505050565b828054600181600116156101000203166002900490600052602060002090601f016020900481019282601f1062000a1157805160ff191683800117855562000a41565b8280016001018555821562000a41579182015b8281111562000a4157825182559160200191906001019062000a24565b5062000a4f92915062000a61565b5090565b6134998062004ccb83390190565b5b8082111562000a4f576000815560010162000a62565b8051620008f28162000d76565b600082601f83011262000a96578081fd5b81516001600160401b038082111562000aad578283fd5b6040516020601f8401601f191682018101838111838210171562000acf578586fd5b8060405250819450838252868185880101111562000aec57600080fd5b600092505b8383101562000b10578583018101518284018201529182019162000af1565b8383111562000b225760008185840101525b5050505092915050565b60006020828403121562000b3e578081fd5b5051919050565b60006020828403121562000b57578081fd5b8151620009c78162000d76565b6000806000806000806000806000806101408b8d03121562000b84578586fd5b62000b908c8c62000a78565b60208c0151909a506001600160401b038082111562000bad578788fd5b62000bbb8e838f0162000a85565b9a5060408d015191508082111562000bd1578788fd5b5062000be08d828e0162000a85565b98505062000bf28c60608d0162000a78565b965062000c038c60808d0162000a78565b955060a08b0151945060c08b0151935060e08b015192506101008b0151915062000c328c6101208d0162000a78565b90509295989b9194979a5092959850565b60006020828403121562000c55578081fd5b815160ff81168114620009c7578182fd5b6001600160a01b03948516815292841660208401529083166040830152909116606082015260800190565b60006060820185835260206060818501528186518084526080860191508288019350845b8181101562000cdd5762000cca855162000d6a565b8352938301939183019160010162000cb5565b505084810360408601528551808252908201925081860190845b8181101562000d1f5762000d0c835162000d6a565b8552938301939183019160010162000cf7565b509298975050505050505050565b602081016003831062000d3c57fe5b91905290565b90815260200190565b9283526001600160a01b03918216602084015216604082015260600190565b6001600160a01b031690565b6001600160a01b03811681146200081257600080fd5b60805160a05160c05160e0516101005160601c6101205160601c6101405161016051610180516101a05160601c6101c05160601c6101e05160601c61020051610220516102405161026051610280516102a0516102c05160601c613de962000ee26000398061095952806126895250806107795280611cfe52508061082b5280611c98525080611d535280612af852505080611d26525080611cc05250806105825280610601528061071d5280610d915280610e995280610f5c528061106052806111ab52806112e5528061137e52806116805250806105c1528061064152806107cf52806109dd5280610af75280610e5a5280610f1d528061109f528061116c52806112a6528061133f528061153a52508061199252508061158d525080611e6d525080611e4952508061187a5250806118565250806117e052508061274d52508061278f52508061276e5250613de96000f3fe608060405234801561001057600080fd5b50600436106102535760003560e01c806370a0823111610146578063a457c2d7116100c3578063d2946c2b11610087578063d2946c2b14610499578063d505accf146104a1578063d5c096c4146104b4578063dd62ed3e146104c7578063ed24911d146104da578063fd19cac8146104e257610253565b8063a457c2d71461045b578063a9059cbb1461046e578063aaabadc514610481578063b35056b814610489578063b7b814fc1461049157610253565b806387ec68171161010a57806387ec68171461041d578063893d20e8146104305780638d928af81461043857806390193b7c1461044057806395d89b411461045357610253565b806370a08231146103bb57806374f3b009146103ce5780637ecebe00146103ef5780638456cb5914610402578063851c1bb31461040a57610253565b806338e9922e116101d457806350dd6ed91161019857806350dd6ed91461036f57806354a844ba1461038257806355c676281461038a5780636028bfd4146103925780636945c1fd146103b357610253565b806338e9922e1461032f57806338fff2d014610344578063395093511461034c5780633f4ba83a1461035f5780634d6d0fd01461036757610253565b80631dd746ea1161021b5780631dd746ea146102d557806323b872dd146102ea5780632541897f146102fd578063313ce567146103125780633644e5151461032757610253565b806301ec954a1461025857806306fdde0314610281578063095ea7b31461029657806318160ddd146102b65780631c0de051146102be575b600080fd5b61026b6102663660046134c9565b6104ea565b6040516102789190613990565b60405180910390f35b6102896113d9565b6040516102789190613a66565b6102a96102a43660046131dd565b61146f565b604051610278919061396d565b61026b611486565b6102c661148c565b60405161027893929190613978565b6102dd6114b5565b604051610278919061392c565b6102a96102f836600461312d565b6114c4565b610305611538565b604051610278919061389c565b61031a61155c565b6040516102789190613ce0565b61026b611565565b61034261033d366004613716565b61156f565b005b61026b61158b565b6102a961035a3660046131dd565b6115af565b6103426115ea565b61026b6115fe565b61034261037d36600461330e565b611604565b610342611622565b61026b611634565b6103a56103a0366004613228565b611647565b604051610278929190613cc7565b61030561167e565b61026b6103c93660046130d9565b6116a2565b6103e16103dc366004613228565b6116bd565b60405161027892919061393f565b61026b6103fd3660046130d9565b6117bf565b6103426117ca565b61026b6104183660046132ca565b6117dc565b6103a561042b366004613228565b61182e565b610305611854565b610305611878565b61026b61044e3660046130d9565b61189c565b6102896118b7565b6102a96104693660046131dd565b611918565b6102a961047c3660046131dd565b611956565b610305611963565b6102a961196d565b61034261197e565b610305611990565b6103426104af36600461316d565b6119b4565b6103e16104c2366004613228565b611a3f565b61026b6104d53660046130f5565b611b61565b61026b611b9e565b610305611ba8565b600084608001516105176104fc611878565b6001600160a01b0316336001600160a01b03161460cd611c17565b61052c61052261158b565b82146101f4611c17565b610534611c25565b60008651600181111561054357fe5b148061055b575060018651600181111561055957fe5b145b6105805760405162461bcd60e51b815260040161057790613b47565b60405180910390fd5b7f00000000000000000000000000000000000000000000000000000000000000006001600160a01b031686604001516001600160a01b031614806105f957507f00000000000000000000000000000000000000000000000000000000000000006001600160a01b031686604001516001600160a01b0316145b8061063957507f00000000000000000000000000000000000000000000000000000000000000006001600160a01b031686602001516001600160a01b0316145b8061067957507f00000000000000000000000000000000000000000000000000000000000000006001600160a01b031686602001516001600160a01b0316145b6106955760405162461bcd60e51b815260040161057790613a79565b606061069f611c38565b90506106a9612f80565b60606000808a5160018111156106bb57fe5b14156106ec576106e28a60600151858a815181106106d557fe5b6020026020010151611daa565b60608b015261071b565b60018a5160018111156106fb57fe5b141561071b576107158a606001518589815181106106d557fe5b60608b01525b7f00000000000000000000000000000000000000000000000000000000000000006001600160a01b03168a602001516001600160a01b031614801561076c575060008a51600181111561076a57fe5b145b156107cd578960600151897f0000000000000000000000000000000000000000000000000000000000000000815181106107a257fe5b602002602001015110156107c85760405162461bcd60e51b815260040161057790613ae0565b61087a565b7f00000000000000000000000000000000000000000000000000000000000000006001600160a01b03168a602001516001600160a01b031614801561081e575060008a51600181111561081c57fe5b145b1561087a578960600151897f00000000000000000000000000000000000000000000000000000000000000008151811061085457fe5b6020026020010151101561087a5760405162461bcd60e51b815260040161057790613b6d565b6101008a01515115610fd45789610100015180602001905181019061089f919061344d565b81519193509150610fb1576108b2612f97565b60095460c08c015160608d015160405163ca142f7560e01b81526001600160a01b039093169263ca142f75926108ec929091600401613913565b60e06040518083038186803b15801561090457600080fd5b505afa158015610918573d6000803e3d6000fd5b505050506040513d601f19601f8201168201806040525081019061093c91906136a6565b600954604051630118bb3b60e01b81529192506001600160a01b037f0000000000000000000000000000000000000000000000000000000000000000811692630118bb3b92610992928692911690600401613c68565b600060405180830381600087803b1580156109ac57600080fd5b505af11580156109c0573d6000803e3d6000fd5b505060095460c08e01516040850151600094506001600160a01b037f00000000000000000000000000000000000000000000000000000000000000008116945092831692635778472a92918116911614610a1e578460600151610a21565b84515b6040518263ffffffff1660e01b8152600401610a3d9190613990565b6101406040518083038186803b158015610a5657600080fd5b505afa158015610a6a573d6000803e3d6000fd5b505050506040513d601f19601f82011682018060405250810190610a8e91906135e7565b602001516001600160a01b031614610ab1576763757272656e637960c01b610abe565b67736563757269747960c01b5b905060008c60c001516001600160a01b031683604001516001600160a01b031614610aed578260800151610af3565b82602001515b90507f00000000000000000000000000000000000000000000000000000000000000006001600160a01b03167f4812904a7bb219d6baefda038dd1154281c6abc8c3e57bfe81386bd3aba626a867736563757269747960c01b8414610bdf576009546060860151604051632bbc239560e11b81526001600160a01b0390921691635778472a91610b8591600401613990565b6101406040518083038186803b158015610b9e57600080fd5b505afa158015610bb2573d6000803e3d6000fd5b505050506040513d601f19601f82011682018060405250810190610bd691906135e7565b60e00151610c65565b6009548551604051632bbc239560e11b81526001600160a01b0390921691635778472a91610c0f91600401613990565b6101406040518083038186803b158015610c2857600080fd5b505afa158015610c3c573d6000803e3d6000fd5b505050506040513d601f19601f82011682018060405250810190610c6091906135e7565b60e001515b6763757272656e637960c01b8514610d04576009546060870151604051632bbc239560e11b81526001600160a01b0390921691635778472a91610caa91600401613990565b6101406040518083038186803b158015610cc357600080fd5b505afa158015610cd7573d6000803e3d6000fd5b505050506040513d601f19601f82011682018060405250810190610cfb91906135e7565b60e00151610d8a565b6009548651604051632bbc239560e11b81526001600160a01b0390921691635778472a91610d3491600401613990565b6101406040518083038186803b158015610d4d57600080fd5b505afa158015610d61573d6000803e3d6000fd5b505050506040513d601f19601f82011682018060405250810190610d8591906135e7565b60e001515b8660a001517f0000000000000000000000000000000000000000000000000000000000000000868960c00151604051610dc8969594939291906138b0565b60405180910390a260095460c08e015160608f01516040516335ca73db60e21b81526001600160a01b039093169263d729cf6c92610e0a929091600401613913565b600060405180830381600087803b158015610e2457600080fd5b505af1158015610e38573d6000803e3d6000fd5b5060009250610e45915050565b8d516001811115610e5257fe5b1415610f06577f00000000000000000000000000000000000000000000000000000000000000006001600160a01b03168d602001516001600160a01b03161480610ed157507f00000000000000000000000000000000000000000000000000000000000000006001600160a01b03168d602001516001600160a01b0316145b15610f0157610ef381888c81518110610ee657fe5b6020026020010151611db6565b9850505050505050506113d0565b610fa9565b60018d516001811115610f1557fe5b1415610fa9577f00000000000000000000000000000000000000000000000000000000000000006001600160a01b03168d604001516001600160a01b03161480610f9457507f00000000000000000000000000000000000000000000000000000000000000006001600160a01b03168d604001516001600160a01b0316145b15610fa957610ef381888d81518110610ee657fe5b505050610fcf565b8015610fcf5760408051808201909152806001815260200182905292505b610feb565b604080518082019091526000808252602082015292505b600a548a6060015110156110115760405162461bcd60e51b815260040161057790613aa9565b7f1a34f836394c67ea654a70e0ba2d7137cb31617ff49dce901c0a641b016b41808a602001518b604001518c60600151866020015160405161105694939291906138ea565b60405180910390a17f00000000000000000000000000000000000000000000000000000000000000006001600160a01b03168a604001516001600160a01b031614806110d757507f00000000000000000000000000000000000000000000000000000000000000006001600160a01b03168a602001516001600160a01b0316145b1561116a576009546040516332ff3abf60e11b81526001600160a01b03909116906365fe757e90611111908d908790600190600401613ba4565b602060405180830381600087803b15801561112b57600080fd5b505af115801561113f573d6000803e3d6000fd5b505050506040513d601f19601f82011682018060405250810190611163919061372e565b9050611272565b7f00000000000000000000000000000000000000000000000000000000000000006001600160a01b03168a604001516001600160a01b031614806111e357507f00000000000000000000000000000000000000000000000000000000000000006001600160a01b03168a602001516001600160a01b0316145b15611272576009546040516332ff3abf60e11b81526001600160a01b03909116906365fe757e9061121d908d908790600090600401613ba4565b602060405180830381600087803b15801561123757600080fd5b505af115801561124b573d6000803e3d6000fd5b505050506040513d601f19601f8201168201806040525081019061126f919061372e565b90505b60008351600281111561128157fe5b14156113cb57806112a45760405162461bcd60e51b815260040161057790613b17565b7f00000000000000000000000000000000000000000000000000000000000000006001600160a01b03168a602001516001600160a01b0316148061131d57507f00000000000000000000000000000000000000000000000000000000000000006001600160a01b03168a602001516001600160a01b0316145b1561133d5761133281858981518110610ee657fe5b9550505050506113d0565b7f00000000000000000000000000000000000000000000000000000000000000006001600160a01b03168a604001516001600160a01b031614806113b657507f00000000000000000000000000000000000000000000000000000000000000006001600160a01b03168a604001516001600160a01b0316145b156113cb5761133281858a81518110610ee657fe5b505050505b50949350505050565b60038054604080516020601f60026000196101006001881615020190951694909404938401819004810282018101909252828152606093909290918301828280156114655780601f1061143a57610100808354040283529160200191611465565b820191906000526020600020905b81548152906001019060200180831161144857829003601f168201915b5050505050905090565b600061147c338484611dc2565b5060015b92915050565b60025490565b6000806000611499611e2a565b1592506114a4611e47565b91506114ae611e6b565b9050909192565b60606114bf611c38565b905090565b6000806114d18533611b61565b90506114f5336001600160a01b03871614806114ed5750838210155b61019e611c17565b611500858585611e8f565b336001600160a01b0386161480159061151b57506000198114155b1561152d5761152d8533858403611dc2565b506001949350505050565b7f000000000000000000000000000000000000000000000000000000000000000090565b60055460ff1690565b60006114bf611b9e565b611577611f6f565b61157f611c25565b61158881611f9d565b50565b7f000000000000000000000000000000000000000000000000000000000000000090565b3360008181526001602090815260408083206001600160a01b0387168452909152812054909161147c9185906115e59086612016565b611dc2565b6115f2611f6f565b6115fc6000612028565b565b600a5490565b61160c611f6f565b611614611c25565b61161e828261209b565b5050565b61162a611f6f565b6115fc6001612190565b6008546000906114bf9060c0603f6121e7565b6000606061165d86516116586121f6565b6121fb565b6116728989898989898961220861225a6122c9565b97509795505050505050565b7f000000000000000000000000000000000000000000000000000000000000000090565b6001600160a01b031660009081526020819052604090205490565b606080886116cc6104fc611878565b6116d761052261158b565b606060006116e4866123f3565b1561170c576116f1612422565b611703896116fd611486565b88612435565b9250905061175e565b611714612461565b606061171e611c38565b905061172a8a82612469565b61174e8d8d8d8d8d61173a61196d565b611744578d611747565b60005b878e612208565b9350915061175c838261225a565b505b6117688b826124d2565b8189516001600160401b038111801561178057600080fd5b506040519080825280602002602001820160405280156117aa578160200160208202803683370190505b509450945050505b5097509795505050505050565b60006114808261189c565b6117d2611f6f565b6115fc6001612028565b60007f000000000000000000000000000000000000000000000000000000000000000082604051602001611811929190613859565b604051602081830303815290604052805190602001209050919050565b6000606061183f86516116586121f6565b611672898989898989896124dc6124f86122c9565b7f000000000000000000000000000000000000000000000000000000000000000090565b7f000000000000000000000000000000000000000000000000000000000000000090565b6001600160a01b031660009081526006602052604090205490565b60048054604080516020601f60026000196101006001881615020190951694909404938401819004810282018101909252828152606093909290918301828280156114655780601f1061143a57610100808354040283529160200191611465565b6000806119253385611b61565b905080831061193f5761193a33856000611dc2565b61194c565b61194c3385858403611dc2565b5060019392505050565b600061147c338484611e8f565b60006114bf612561565b6008546000906114bf9060ff6125db565b611986611f6f565b6115fc6000612190565b7f000000000000000000000000000000000000000000000000000000000000000090565b60007f6e71edae12b1b97f4d1f60370fef10105fa2faae0126114a169c64845d6126c98888886119e38c61189c565b896040516020016119f9969594939291906139b8565b604051602081830303815290604052805190602001209050611a2a8882611a218787876125e5565b886101f8612624565b611a35888888611dc2565b5050505050505050565b60608088611a4e6104fc611878565b611a5961052261158b565b611a61612461565b6060611a6b611c38565b9050611a75611486565b611b215760006060611a8a8d8d8d868b61267b565b91509150611aa3611a9961270d565b83101560cc611c17565b611ab56000611ab061270d565b612714565b611ac88b611ac161270d565b8403612714565b611ad281846124f8565b808a516001600160401b0381118015611aea57600080fd5b50604051908082528060200260200182016040528015611b14578160200160208202803683370190505b50955095505050506117b2565b611b2b8882612469565b60006060611b538d8d8d8d8d611b3f61196d565b611b49578d611b4c565b60005b898e6124dc565b91509150611ac88b83612714565b6000611b6b611878565b6001600160a01b0316826001600160a01b03161415611b8d5750600019611480565b611b97838361271e565b9050611480565b60006114bf612749565b6009546001600160a01b031681565b8061161e816127e6565b6000611bce848484612864565b5082821b6000196001831b01831b198516175b949350505050565b6000611bf9838311156001611c17565b50900390565b6000818310611c0e5781611c10565b825b9392505050565b8161161e5761161e816128ab565b6115fc611c30611e2a565b610192611c17565b60606000611c446121f6565b90506060816001600160401b0381118015611c5e57600080fd5b50604051908082528060200260200182016040528015611c88578160200160208202803683370190505b50905060005b82811015611da3577f0000000000000000000000000000000000000000000000000000000000000000811415611cfc577f0000000000000000000000000000000000000000000000000000000000000000828281518110611ceb57fe5b602002602001018181525050611d9b565b7f0000000000000000000000000000000000000000000000000000000000000000811415611d51577f0000000000000000000000000000000000000000000000000000000000000000828281518110611ceb57fe5b7f0000000000000000000000000000000000000000000000000000000000000000811415611d9b57670de0b6b3a7640000828281518110611d8e57fe5b6020026020010181815250505b600101611c8e565b5091505090565b6000611c1083836128bb565b6000611c1083836128f1565b6001600160a01b0380841660008181526001602090815260408083209487168084529490915290819020849055517f8c5be1e5ebec7d5bd14f71427d1e84f3dd0314c0f7b2291e5b200ac8c7c3b92590611e1d908590613990565b60405180910390a3505050565b6000611e34611e6b565b4211806114bf57505060075460ff161590565b7f000000000000000000000000000000000000000000000000000000000000000090565b7f000000000000000000000000000000000000000000000000000000000000000090565b611ea66001600160a01b0384161515610198611c17565b611ebd6001600160a01b0383161515610199611c17565b611ec883838361285f565b6001600160a01b038316600090815260208190526040902054611eee90826101a0612942565b6001600160a01b038085166000908152602081905260408082209390935590841681522054611f1d9082612016565b6001600160a01b0380841660008181526020819052604090819020939093559151908516907fddf252ad1be2c89b69c2b068fc378daa952ba7f163c4a11628f55a4df523b3ef90611e1d908590613990565b6000611f866000356001600160e01b0319166117dc565b9050611588611f958233612958565b610191611c17565b611fb2611fa8612a41565b82101560cb611c17565b611fc7611fbd612a4a565b82111560ca611c17565b600854611fd8908260c0603f611bc1565b6008556040517fa9ba3ffe0b6c366b81232caab38605a0699ad5398d6cce76f91ee809e322dafc9061200b908390613990565b60405180910390a150565b6000828201611c108482101583611c17565b801561204857612043612039611e47565b4210610193611c17565b61205d565b61205d612053611e6b565b42106101a9611c17565b6007805460ff19168215151790556040517f9e3a5e37224532dea67b89face185703738a228a6e8a23dee546960180d3be649061200b90839061396d565b60006120a561158b565b905060006120b1611878565b6001600160a01b031663b05f8e4883866040518363ffffffff1660e01b81526004016120de929190613a31565b60806040518083038186803b1580156120f657600080fd5b505afa15801561210a573d6000803e3d6000fd5b505050506040513d601f19601f8201168201806040525081019061212e9190613746565b604051630639cdb560e21b81529094506001600160a01b03851693506318e736d49250612162915085908790600401613a18565b600060405180830381600087803b15801561217c57600080fd5b505af1158015611a35573d6000803e3d6000fd5b60085461219f908260ff612a56565b6008556040517feff3d4d215b42bf0960be9c6d5e05c22cba4df6627a3a523e2acee733b5854c8906121d290839061396d565b60405180910390a180611588576115886115fc565b6001901b6000190191901c1690565b600390565b61161e8183146067611c17565b60006060600061221784612a7d565b9050600181600181111561222757fe5b1461223c576122376101636128ab565b61224c565b6122468885612a93565b90935091505b509850989650505050505050565b815181516122699082906121fb565b60005b818110156122c3576122a484828151811061228357fe5b602002602001015184838151811061229757fe5b60200260200101516128f1565b8482815181106122b057fe5b602090810291909101015260010161226c565b50505050565b333014612387576000306001600160a01b03166000366040516122ed929190613871565b6000604051808303816000865af19150503d806000811461232a576040519150601f19603f3d011682016040523d82523d6000602084013e61232f565b606091505b50509050806000811461233e57fe5b60046000803e6000516001600160e01b0319166343adbafb60e01b8114612369573d6000803e3d6000fd5b506020600460003e604060205260243d03602460403e601c3d016000f35b61238f612461565b6060612399611c38565b90506123a58782612469565b600060606123bd8c8c8c8c8c8c898d8d63ffffffff16565b915091506123cf81848663ffffffff16565b8051601f1982018390526343adbafb603f1983015260200260231982016044820181fd5b6000808251118015611480575060ff8016828060200190518101906124189190613786565b60ff161492915050565b6115fc61242d61196d565b6101b6611c17565b60006060600061244484612b5e565b90506060612453878784612b74565b919791965090945050505050565b6115fc611c25565b815181516124789082906121fb565b60005b818110156122c3576124b384828151811061249257fe5b60200260200101518483815181106124a657fe5b60200260200101516128bb565b8482815181106124bf57fe5b602090810291909101015260010161247b565b61161e8282612c22565b600060606124eb6101636128ab565b9850989650505050505050565b815181516125079082906121fb565b60005b818110156122c35761254284828151811061252157fe5b602002602001015184838151811061253557fe5b6020026020010151612cee565b84828151811061254e57fe5b602090810291909101015260010161250a565b600061256b611878565b6001600160a01b031663aaabadc56040518163ffffffff1660e01b815260040160206040518083038186803b1580156125a357600080fd5b505afa1580156125b7573d6000803e3d6000fd5b505050506040513d601f19601f820116820180604052508101906114bf91906132f2565b1c60019081161490565b60408051604180825260808201909252606091829190602082018180368337019050509050836020820152826040820152846060820153949350505050565b600061262f85612d3c565b905061264561263f878387612d58565b83611c17565b612654428410156101b8611c17565b5050506001600160a01b039092166000908152600660205260409020805460010190555050565b60006060612687611c25565b7f00000000000000000000000000000000000000000000000000000000000000006126c26001600160a01b0388811690831614610156611c17565b6126e2816001600160a01b0316876001600160a01b031614610156611c17565b6dffffffffffffffffffffffffffff60606126fc86612e07565b919a91995090975050505050505050565b620f424090565b61161e8282612e1d565b6001600160a01b03918216600090815260016020908152604080832093909416825291909152205490565b60007f00000000000000000000000000000000000000000000000000000000000000007f00000000000000000000000000000000000000000000000000000000000000007f00000000000000000000000000000000000000000000000000000000000000006127b6612eb0565b306040516020016127cb9594939291906139ec565b60405160208183030381529060405280519060200120905090565b6002815110156127f557611588565b60008160008151811061280457fe5b602002602001015190506000600190505b825181101561285f57600083828151811061282c57fe5b60200260200101519050612855816001600160a01b0316846001600160a01b0316106065611c17565b9150600101612815565b505050565b61287361010083106064611c17565b61289c60018210158015612895575061289160ff8461010003611bff565b8211155b6064611c17565b61285f83821c156101b4611c17565b611588816210905360ea1b612eb4565b60008282026128df8415806128d85750838583816128d557fe5b04145b6003611c17565b670de0b6b3a764000090049392505050565b60006129008215156004611c17565b8261290d57506000611480565b670de0b6b3a7640000838102906129309085838161292757fe5b04146005611c17565b82818161293957fe5b04915050611480565b60006129518484111583611c17565b5050900390565b600073ba1ba1ba1ba1ba1ba1ba1ba1ba1ba1ba1ba1ba1b612977611854565b6001600160a01b031614158015612992575061299283612f15565b156129ba5761299f611854565b6001600160a01b0316336001600160a01b0316149050611480565b6129c2612561565b6001600160a01b0316639be2a8848484306040518463ffffffff1660e01b81526004016129f193929190613999565b60206040518083038186803b158015612a0957600080fd5b505afa158015612a1d573d6000803e3d6000fd5b505050506040513d601f19601f82011682018060405250810190611b979190613208565b64e8d4a5100090565b67016345785d8a000090565b60006001821b1984168284612a6c576000612a6f565b60015b60ff16901b17949350505050565b600081806020019051810190611480919061335b565b600060606000612aa284612f51565b9050606085516001600160401b0381118015612abd57600080fd5b50604051908082528060200260200182016040528015612ae7578160200160208202803683370190505b50905060005b8651811015612b52577f00000000000000000000000000000000000000000000000000000000000000008114612b4a57868181518110612b2957fe5b6020026020010151828281518110612b3d57fe5b6020026020010181815250505b600101612aed565b50909590945092505050565b600081806020019051810190611c1091906137a2565b60606000612b8283856128f1565b905084516001600160401b0381118015612b9b57600080fd5b50604051908082528060200260200182016040528015612bc5578160200160208202803683370190505b50915060005b8551811015612c1957612bfa82878381518110612be457fe5b60200260200101516128bb90919063ffffffff16565b838281518110612c0657fe5b6020908102919091010152600101612bcb565b50509392505050565b612c396001600160a01b038316151561019b611c17565b612c458260008361285f565b6001600160a01b038216600090815260208190526040902054612c6b90826101b2612942565b6001600160a01b038316600090815260208190526040902055612c9e612c9982612c93611486565b90612f67565b612f75565b60006001600160a01b0316826001600160a01b03167fddf252ad1be2c89b69c2b068fc378daa952ba7f163c4a11628f55a4df523b3ef83604051612ce29190613990565b60405180910390a35050565b6000612cfd8215156004611c17565b82612d0a57506000611480565b670de0b6b3a764000083810290612d249085838161292757fe5b826001820381612d3057fe5b04600101915050611480565b6000612d46612749565b82604051602001611811929190613881565b6000612d6a82516041146101b9611c17565b60208281015160408085015160608601518251600080825295019283905292939092811a91600190612da3908990859088908890613a48565b6020604051602081039080840390855afa158015612dc5573d6000803e3d6000fd5b5050604051601f1901519150506001600160a01b03811615801590612dfb5750876001600160a01b0316816001600160a01b0316145b98975050505050505050565b606081806020019051810190611c1091906133a4565b612e296000838361285f565b612e3e612c9982612e38611486565b90612016565b6001600160a01b038216600090815260208190526040902054612e619082612016565b6001600160a01b0383166000818152602081905260408082209390935591519091907fddf252ad1be2c89b69c2b068fc378daa952ba7f163c4a11628f55a4df523b3ef90612ce2908590613990565b4690565b62461bcd60e51b600090815260206004526007602452600a808404818106603090810160081b958390069590950190829004918206850160101b01602363ffffff0060e086901c160160181b0190930160c81b60445260e882901c90606490fd5b6000612f27631c74c91760e11b6117dc565b821480612f425750612f3f6350dd6ed960e01b6117dc565b82145b80611480575061148082612f7a565b600081806020019051810190611c109190613377565b6000611c1083836001612942565b600255565b50600090565b604080518082019091526000808252602082015290565b6040805160e081018252600080825260208201819052918101829052606081018290526080810182905260a0810182905260c081019190915290565b803561148081613d82565b805161148081613d82565b600082601f830112612ff9578081fd5b813561300c61300782613d14565b613cee565b81815291506020808301908481018184028601820187101561302d57600080fd5b60005b8481101561304c57813584529282019290820190600101613030565b505050505092915050565b600082601f830112613067578081fd5b813561307561300782613d33565b915080825283602082850101111561308c57600080fd5b8060208401602084013760009082016020015292915050565b805161148081613d97565b80516005811061148057600080fd5b80516003811061148057600080fd5b803561148081613d97565b6000602082840312156130ea578081fd5b8135611c1081613d82565b60008060408385031215613107578081fd5b823561311281613d82565b9150602083013561312281613d82565b809150509250929050565b600080600060608486031215613141578081fd5b833561314c81613d82565b9250602084013561315c81613d82565b929592945050506040919091013590565b600080600080600080600060e0888a031215613187578485fd5b873561319281613d82565b965060208801356131a281613d82565b9550604088013594506060880135935060808801356131c081613da4565b9699959850939692959460a0840135945060c09093013592915050565b600080604083850312156131ef578182fd5b82356131fa81613d82565b946020939093013593505050565b600060208284031215613219578081fd5b81518015158114611c10578182fd5b600080600080600080600060e0888a031215613242578081fd5b87359650602088013561325481613d82565b9550604088013561326481613d82565b945060608801356001600160401b038082111561327f578283fd5b61328b8b838c01612fe9565b955060808a0135945060a08a0135935060c08a01359150808211156132ae578283fd5b506132bb8a828b01613057565b91505092959891949750929550565b6000602082840312156132db578081fd5b81356001600160e01b031981168114611c10578182fd5b600060208284031215613303578081fd5b8151611c1081613d82565b60008060408385031215613320578182fd5b823561332b81613d82565b915060208301356001600160401b03811115613345578182fd5b61335185828601613057565b9150509250929050565b60006020828403121561336c578081fd5b8151611c1081613d97565b60008060408385031215613389578182fd5b825161339481613d97565b6020939093015192949293505050565b600080604083850312156133b6578182fd5b8251600481106133c4578283fd5b809250506020808401516001600160401b038111156133e1578283fd5b8401601f810186136133f1578283fd5b80516133ff61300782613d14565b81815283810190838501858402850186018a101561341b578687fd5b8694505b8385101561343d57805183526001949094019391850191850161341f565b5080955050505050509250929050565b6000806040838503121561345f578182fd5b82516001600160401b03811115613474578283fd5b8301601f81018513613484578283fd5b805161349261300782613d33565b8181528660208385010111156134a6578485fd5b6134b7826020830160208601613d56565b60209590950151949694955050505050565b600080600080608085870312156134de578182fd5b84356001600160401b03808211156134f4578384fd5b818701915061012080838a03121561350a578485fd5b61351381613cee565b905061351f89846130ce565b815261352e8960208501612fd3565b60208201526135408960408501612fd3565b6040820152606083013560608201526080830135608082015260a083013560a08201526135708960c08501612fd3565b60c08201526135828960e08501612fd3565b60e0820152610100808401358381111561359a578687fd5b6135a68b828701613057565b8284015250508096505060208701359150808211156135c3578384fd5b506135d087828801612fe9565b949794965050505060408301359260600135919050565b60006101408083850312156135fa578182fd5b61360381613cee565b905061360f84846130a5565b815261361e8460208501612fde565b60208201526136308460408501612fde565b604082015261364284606085016130bf565b606082015261365484608085016130a5565b60808201526136668460a085016130b0565b60a082015260c083015160c08201526136828460e08501612fde565b60e08201526101008381015190820152610120928301519281019290925250919050565b600060e082840312156136b7578081fd5b6136c160e0613cee565b825181526020830151602082015260408301516136dd81613d82565b80604083015250606083015160608201526080830151608082015260a083015160a082015260c083015160c08201528091505092915050565b600060208284031215613727578081fd5b5035919050565b60006020828403121561373f578081fd5b5051919050565b6000806000806080858703121561375b578182fd5b845193506020850151925060408501519150606085015161377b81613d82565b939692955090935050565b600060208284031215613797578081fd5b8151611c1081613da4565b600080604083850312156137b4578182fd5b825161339481613da4565b6001600160a01b03169052565b6000815180845260208085019450808401835b838110156137fb578151875295820195908201906001016137df565b509495945050505050565b6000815180845261381e816020860160208601613d56565b601f01601f19169290920160200192915050565b6002811061383c57fe5b9052565b80516003811061384c57fe5b8252602090810151910152565b9182526001600160e01b031916602082015260240190565b6000828483379101908152919050565b61190160f01b81526002810192909252602282015260420190565b6001600160a01b0391909116815260200190565b6001600160a01b0396871681529486166020860152604085019390935293166060830152608082019290925260a081019190915260c00190565b6001600160a01b0394851681529290931660208301526040820152606081019190915260800190565b6001600160a01b03929092168252602082015260400190565b600060208252611c1060208301846137cc565b60006040825261395260408301856137cc565b828103602084015261396481856137cc565b95945050505050565b901515815260200190565b92151583526020830191909152604082015260600190565b90815260200190565b9283526001600160a01b03918216602084015216604082015260600190565b9586526001600160a01b0394851660208701529290931660408501526060840152608083019190915260a082015260c00190565b9485526020850193909352604084019190915260608301526001600160a01b0316608082015260a00190565b600083825260406020830152611be16040830184613806565b9182526001600160a01b0316602082015260400190565b93845260ff9290921660208401526040830152606082015260800190565b600060208252611c106020830184613806565b602080825260169082015275496e76616c6964207377617070656420746f6b656e7360501b604082015260600190565b60208082526018908201527f4f726465722062656c6f77206d696e696d756d2073697a650000000000000000604082015260600190565b6020808252601d908201527f496e73756666696369656e742063757272656e63792062616c616e6365000000604082015260600190565b602080825260169082015275496e73756666696369656e74206c697175696469747960501b604082015260600190565b6020808252600c908201526b0496e76616c696420737761760a41b604082015260600190565b6020808252601d908201527f496e73756666696369656e742073656375726974792062616c616e6365000000604082015260600190565b600060808252613bb8608083018651613832565b6020850151613bca60a08401826137bf565b506040850151613bdd60c08401826137bf565b50606085015160e08301526080850151610100818185015260a08701519150610120828186015260c08801519250613c196101408601846137bf565b60e08801519250613c2e6101608601846137bf565b818801519250806101808601525050613c4b6101a0840182613806565b915050613c5b6020830185613840565b611be16060830184613832565b82518152602080840151908201526040808401516001600160a01b0390811691830191909152606080850151908301526080808501519083015260a0808501519083015260c09384015193820193909352911660e08201526101000190565b600083825260406020830152611be160408301846137cc565b60ff91909116815260200190565b6040518181016001600160401b0381118282101715613d0c57600080fd5b604052919050565b60006001600160401b03821115613d29578081fd5b5060209081020190565b60006001600160401b03821115613d48578081fd5b50601f01601f191660200190565b60005b83811015613d71578181015183820152602001613d59565b838111156122c35750506000910152565b6001600160a01b038116811461158857600080fd5b6002811061158857600080fd5b60ff8116811461158857600080fdfea264697066735822122072af938e5afbda56c8ed23bf0013bb7078fdcaddb2a6488e613d638d1fdc9ca764736f6c63430007010033608060405260006001553480156200001657600080fd5b506040516200349938038062003499833981016040819052620000399162000106565b620000443362000098565b600980546001600160a01b039586166001600160a01b03199182161790915560078054948616948216949094179093556008805492851692841692909217909155600a805491909316911617905562000166565b600080546001600160a01b038381166001600160a01b0319831681178455604051919092169283917f8be0079c531659141344cd1fd0a4f28419497f9722a3daafe3b4186f6b6457e09190a35050565b80516001600160a01b03811681146200010057600080fd5b92915050565b600080600080608085870312156200011c578384fd5b620001288686620000e8565b9350620001398660208701620000e8565b92506200014a8660408701620000e8565b91506200015b8660608701620000e8565b905092959194509250565b61332380620001766000396000f3fe608060405234801561001057600080fd5b50600436106101005760003560e01c80637489ec2311610097578063ca142f7511610066578063ca142f75146101e6578063d729cf6c14610206578063e43372e914610219578063f2fde38b1461022157610100565b80637489ec23146101a557806381b5da1d146101b85780638da5cb5b146101cb578063af18cfd8146101d357610100565b80635778472a116100d35780635778472a1461016257806365fe757e146101825780636945c1fd14610195578063715018a61461019d57610100565b80630c8605be146101055780632541897f1461011a57806338fff2d01461013857806346b8b7301461014d575b600080fd5b610118610113366004612e89565b610234565b005b610122610356565b60405161012f9190612ffc565b60405180910390f35b610140610365565b60405161012f9190613048565b6101556103f4565b60405161012f9190613010565b610175610170366004612df0565b6104dc565b60405161012f91906131a5565b610140610190366004612e9d565b610658565b610122610995565b6101186109a4565b6101186101b3366004612df0565b6109bc565b6101186101c6366004612e20565b610b13565b610122610c3b565b6101186101e1366004612e4b565b610c4a565b6101f96101f4366004612dc5565b610fc2565b60405161012f9190613252565b610118610214366004612dc5565b611090565b61015561112f565b61011861022f366004612da9565b611190565b6000838152600260208190526040822060010154600160a01b900460ff169081111561025c57fe5b14156102835760405162461bcd60e51b815260040161027a90613088565b60405180910390fd5b6002600084815260026020526040902060010154600160b01b900460ff1660048111156102ac57fe5b146102c95760405162461bcd60e51b815260040161027a906130f6565b6000838152600260205260409020600301546001600160a01b031633146103025760405162461bcd60e51b815260040161027a906130bf565b6000838152600260208190526040909120600481018490558082018390556001908101549091600160a01b90910460ff169081111561033d57fe5b14156103515761034e8360016111bf565b50505b505050565b6007546001600160a01b031690565b600080600a60009054906101000a90046001600160a01b03166001600160a01b03166338fff2d06040518163ffffffff1660e01b815260040160206040518083038186803b1580156103b657600080fd5b505afa1580156103ca573d6000803e3d6000fd5b505050506040513d601f19601f820116820180604052508101906103ee9190612e08565b91505090565b600354606090819067ffffffffffffffff8111801561041257600080fd5b5060405190808252806020026020018201604052801561043c578160200160208202803683370190505b5090506000805b6003548110156104d457336001600160a01b0316600260006003848154811061046857fe5b600091825260208083209091015483528201929092526040019020600301546001600160a01b031614156104cc57600381815481106104a357fe5b90600052602060002001548383815181106104ba57fe5b60209081029190910101526001909101905b600101610443565b509091505090565b6104e4612c57565b6104ec610c3b565b6001600160a01b0316336001600160a01b0316148061052457506000828152600260205260409020600301546001600160a01b031633145b6105405760405162461bcd60e51b815260040161027a90613051565b60008281526002602052604090819020815161014081019092528054829060ff16600181111561056c57fe5b600181111561057757fe5b8152815461010090046001600160a01b03908116602083015260018301549081166040830152606090910190600160a01b900460ff1660028111156105b857fe5b60028111156105c357fe5b81526020016001820160159054906101000a900460ff1660018111156105e557fe5b60018111156105f057fe5b81526020016001820160169054906101000a900460ff16600481111561061257fe5b600481111561061d57fe5b81526002820154602082015260038201546001600160a01b031660408201526004820154606082015260059091015460809091015292915050565b600061067833610666610c3b565b6001600160a01b0316146101aa61160f565b60008351600281111561068757fe5b148061069f575060018351600281111561069d57fe5b145b6106a857600080fd5b60008260018111156106b657fe5b14806106cd575060018260018111156106cb57fe5b145b6106d657600080fd5b6001544214156106ed5760018054810190556106f2565b426001555b60008460c0015160015460405160200161070d929190612fda565b60405160208183030381529060405280519060200120905061072d612c57565b6040518061014001604052808760000151600181111561074957fe5b815260200187602001516001600160a01b0316815260200187604001516001600160a01b031681526020018660000151600281111561078457fe5b815260200185600181111561079557fe5b8152600260208083018290526060808b015160408086019190915260c08c01516001600160a01b03169185019190915289820151608085015260a0909301869052600086815291905220815181549293508392829060ff1916600183818111156107fb57fe5b021790555060208201518154610100600160a81b0319166101006001600160a01b039283160217825560408301516001830180546001600160a01b03191691909216178082556060840151919060ff60a01b1916600160a01b83600281111561086057fe5b021790555060808201518160010160156101000a81548160ff0219169083600181111561088957fe5b021790555060a082015160018201805460ff60b01b1916600160b01b8360048111156108b157fe5b021790555060c0820151600282015560e08201516003820180546001600160a01b0319166001600160a01b0390921691909117905561010082015160048201556101209091015160059091015560008551600281111561090d57fe5b14156109275761091e816000611621565b9250505061098e565b60018551600281111561093657fe5b141561098b57600380546000848152600460205260408120829055600180830184559290527fc2575a0e9e593c00f959f8c92f12db2869c3395a3b0502d05e2516446f71f85b0183905561091e908290611621565b50505b9392505050565b6008546001600160a01b031690565b6109b033610666610c3b565b6109ba6000612576565b565b6000818152600260208190526040822060010154600160a01b900460ff16908111156109e457fe5b1415610a025760405162461bcd60e51b815260040161027a90613164565b6002600082815260026020526040902060010154600160b01b900460ff166004811115610a2b57fe5b14610a485760405162461bcd60e51b815260040161027a906130f6565b6000818152600260205260409020600301546001600160a01b03163314610a815760405162461bcd60e51b815260040161027a906130bf565b60035415610ab357600081815260046020526040902054600380549091908110610aa757fe5b60009182526020822001555b6000908152600460208181526040808420849055600291829052832080546001600160a81b03191681556001810180546001600160b81b03191690559081018390556003810180546001600160a01b031916905590810182905560050155565b610b1f33610666610c3b565b600092835260026020818152604080862080546001600160a81b03199081168255600180830180546001600160b81b03199081169091558387018a9055600380850180546001600160a01b0319908116825560048088018e905560059788018e90559b8d52878d208054909616865585850180549094169093558489018c9055848201805484168155858c018d90559486018c9055546001600160a01b039081168c52858852868c208a8d528852868c208c81558085018d9055808a018054851690558083018d9055808c018d90558087018d905560069081018d90559454168b52848752858b20988b529790955292882088815592830188905593820180549093169092559283018590559282018490559181018390550155565b6000546001600160a01b031690565b610c5633610666610c3b565b6000826001811115610c6457fe5b1480610c7b57506001826001811115610c7957fe5b145b610c8457600080fd5b60008481526002602081905260409091208082018054860190556001908101805460ff60b01b1916600160b11b17908190559091600160a01b90910460ff1690811115610ccd57fe5b1415610d2557600380546000868152600460205260408120829055600180830184559290527fc2575a0e9e593c00f959f8c92f12db2869c3395a3b0502d05e2516446f71f85b01859055610d229085906111bf565b50505b60018101610d31612cae565b5060008581526002602081815260408084206003908101546001600160a01b03908116865260058085528387208988528552838720845160e08101865281548082526001830154978201979097529681015490921693860193909352908101546060850152600481015460808501529081015460a08401526006015460c08301529091908714610dc15786610dc7565b81606001515b9050600087836060015114610de0578260600151610de2565b875b9050610dec612cae565b6040518060e001604052808481526020018a866000015114610e12578560200151610e18565b85608001515b8152600085815260026020908152604091829020600301546001600160a01b03169083015281018490526060868101519101908b14610e5b578560800151610e61565b85602001515b81526020018560a0015181526020018681525090508060056000600260008d815260200190815260200160002060030160009054906101000a90046001600160a01b03166001600160a01b03166001600160a01b031681526020019081526020016000206000878152602001908152602001600020600082015181600001556020820151816001015560408201518160020160006101000a8154816001600160a01b0302191690836001600160a01b03160217905550606082015181600301556080820151816004015560a0820151816005015560c0820151816006015590505060066000600260008c815260200190815260200160002060030160009054906101000a90046001600160a01b03166001600160a01b03166001600160a01b03168152602001908152602001600020859080600181540180825580915050600190039060005260206000200160009091909190915055505050505050505050565b610fca612cae565b610fd2610c3b565b6001600160a01b0316336001600160a01b03161480610ff95750336001600160a01b038416145b6110155760405162461bcd60e51b815260040161027a9061312d565b506001600160a01b038083166000908152600560208181526040808420868552825292839020835160e08101855281548152600182015492810192909252600281015490941692810192909252600383015460608301526004830154608083015282015460a082015260069091015460c08201525b92915050565b61109c33610666610c3b565b60005b6001600160a01b038316600090815260066020526040902054811015610351576001600160a01b03831660009081526006602052604090208054839190839081106110e657fe5b90600052602060002001541415611127576001600160a01b038316600090815260066020526040902080548290811061111b57fe5b60009182526020822001555b60010161109f565b3360009081526006602090815260409182902080548351818402810184019094528084526060939283018282801561118657602002820191906000526020600020905b815481526020019060010190808311611172575b5050505050905090565b61119c33610666610c3b565b6111b36001600160a01b03821615156101ab61160f565b6111bc81612576565b50565b600060606000606060038054905067ffffffffffffffff811180156111e357600080fd5b5060405190808252806020026020018201604052801561120d578160200160208202803683370190505b5090506000805b600354811015611602576003818154811061122b57fe5b600091825260209091200154611240576115fa565b6000600260006003848154811061125357fe5b9060005260206000200154815260200190815260200160002060010160159054906101000a900460ff16600181111561128857fe5b1480156112bc575060016000898152600260205260409020600190810154600160a81b900460ff16908111156112ba57fe5b145b80156113245750600260008981526020019081526020016000206004015460026000600384815481106112eb57fe5b90600052602060002001548152602001908152602001600020600401541015806113245750600088815260026020526040902060040154155b8061140d57506001600260006003848154811061133d57fe5b9060005260206000200154815260200190815260200160002060010160159054906101000a900460ff16600181111561137257fe5b1480156113a55750600080898152600260205260409020600190810154600160a81b900460ff16908111156113a357fe5b145b801561140d5750600260008981526020019081526020016000206004015460026000600384815481106113d457fe5b906000526020600020015481526020019081526020016000206004015411158061140d5750600088815260026020526040902060040154155b156115fa576003818154811061141f57fe5b906000526020600020015483838151811061143657fe5b60209081029190910181019190915260075460008a8152600290925260409091205461010090046001600160a01b039081169116148015611491575060008881526002602052604081205460ff16600181111561148f57fe5b145b806114e257506008546000898152600260205260409020600101546001600160a01b0390811691161480156114e25750600160008981526002602052604090205460ff1660018111156114e057fe5b145b156115255761151e8460026000600385815481106114fc57fe5b90600052602060002001548152602001908152602001600020600201546125c6565b935061159e565b61159b84611596600260006003868154811061153d57fe5b9060005260206000200154815260200190815260200160002060020154600260006003878154811061156b57fe5b90600052602060002001548152602001908152602001600020600401546125d890919063ffffffff16565b6125c6565b93505b60008760028111156115ac57fe5b141580156115d1575087600382815481106115c357fe5b906000526020600020015414155b156115f357878383600101815181106115e657fe5b6020026020010181815250505b6001909101905b600101611214565b5091969095509350505050565b8161161d5761161d8161260e565b5050565b60008060008080600090506000806000606060038054905067ffffffffffffffff8111801561164f57600080fd5b50604051908082528060200260200182016040528015611679578160200160208202803683370190505b50905061168b8b61012001518b6111bf565b909250905060008a600281111561169e57fe5b14156116c6578a60c001518210156116c15760009850505050505050505061108a565b6116f0565b60018a60028111156116d457fe5b14156116f057816116f05760009850505050505050505061108a565b600091505b8051821015612568578a610120015181838151811061171057fe5b60200260200101511415801561176957508a60e001516001600160a01b03166002600083858151811061173f57fe5b6020908102919091018101518252810191909152604001600020600301546001600160a01b031614155b80156117b7575060006002600083858151811061178257fe5b6020026020010151815260200190815260200160002060010160169054906101000a900460ff1660048111156117b457fe5b14155b156119e757600260008284815181106117cc57fe5b602002602001015181526020019081526020016000206004015460001480156117f857506101008b0151155b156118025761255d565b60006002600083858151811061181457fe5b6020026020010151815260200190815260200160002060010160159054906101000a900460ff16600181111561184657fe5b148015611862575060018b60800151600181111561186057fe5b145b156118f7578a61010001516002600083858151811061187d57fe5b60200260200101518152602001908152602001600020600401541015806118a757506101008b0151155b156118f257600260008284815181106118bc57fe5b602002602001015181526020019081526020016000206004015496508082815181106118e457fe5b602002602001015197508194505b6119e7565b60016002600083858151811061190957fe5b6020026020010151815260200190815260200160002060010160159054906101000a900460ff16600181111561193b57fe5b148015611957575060008b60800151600181111561195557fe5b145b156119e7578a61010001516002600083858151811061197257fe5b602002602001015181526020019081526020016000206004015411158061199c57506101008b0151155b156119e757600260008284815181106119b157fe5b602002602001015181526020019081526020016000206004015496508082815181106119d957fe5b602002602001015195508194505b60018b6080015160018111156119f957fe5b1415611fd1578715611fcc5760075460208c01516001600160a01b039081169116148015611a33575060008b516001811115611a3157fe5b145b15611d0d5760085460008981526002602052604090205461010090046001600160a01b039081169116148015611a83575060008881526002602052604081205460ff166001811115611a8157fe5b145b15611aac5760008881526002602081905260409091200154611aa5908861261e565b9350611b12565b6007546000898152600260205260409020600101546001600160a01b039081169116148015611af75750600160008981526002602052604090205460ff166001811115611af557fe5b145b15611b12576000888152600260208190526040909120015493505b8a60c001518410611c645760c08b01519350611b2e84886125d8565b60085460008a8152600260205260409020549194506001600160a01b0390811661010090920416148015611b7e5750600160008981526002602052604090205460ff166001811115611b7c57fe5b145b611ba45760008881526002602081905260409091200154611b9f908461266f565b611bc8565b611bc8600260008a8152602001908152602001600020600201548c60c0015161266f565b600089815260026020818152604083208083019490945560c08f018390528b8352526001909101805460ff60b01b1916600160b01b17905560a08c01526101208b0151611c189089898787612685565b611c2360008b6129cd565b60008b606001516002811115611c3557fe5b1415611c5f57611c508b61012001518c60e001516001612a55565b9850505050505050505061108a565b611d08565b8315611d0857611c7484886125d8565b9250611c848b60c001518561266f565b60c08c015260008881526002602081905260408220908101919091556001908101805460ff60b01b1916905560a08c01526101208b0151611cc89089898787612685565b611d088560026000848981518110611cdc57fe5b6020026020010151815260200190815260200160002060010160149054906101000a900460ff166129cd565b611fcc565b60085460408c01516001600160a01b039081169116148015611d3b575060018b516001811115611d3957fe5b145b15611fcc576007546000898152600260205260409020600101546001600160a01b039081169116148015611d8b5750600160008981526002602052604090205460ff166001811115611d8957fe5b145b15611db45760008881526002602081905260409091200154611dad90886125d8565b9250611e1a565b60085460008981526002602052604090205461010090046001600160a01b039081169116148015611dff575060008881526002602052604081205460ff166001811115611dfd57fe5b145b15611e1a576000888152600260208190526040909120015492505b8a60c001518310611f545760c08b01519250611e36838861261e565b60075460008a8152600260205260409020600101549195506001600160a01b039182169116148015611e82575060008881526002602052604081205460ff166001811115611e8057fe5b145b611ea85760008881526002602081905260409091200154611ea3908561266f565b611ecc565b611ecc600260008a8152602001908152602001600020600201548c60c0015161266f565b600089815260026020818152604083208083019490945560c08f018390528b8352526001909101805460ff60b01b1916600160b01b17905560a08c01526101208b0151611f1c9089898787612685565b611f2760008b6129cd565b60008b606001516002811115611f3957fe5b1415611d0857611c508b61012001518c60e001516000612a55565b8215611fcc57611f64838861261e565b9350611f748b60c001518461266f565b60c08c015260008881526002602081905260408220908101919091556001908101805460ff60b01b1916905560a08c01526101208b0151611fb89089898787612685565b611fcc8560026000848981518110611cdc57fe5b61255d565b60008b608001516001811115611fe357fe5b141561255d57851561255d5760085460208c01516001600160a01b03908116911614801561201d575060008b51600181111561201b57fe5b145b1561229c5760075460008781526002602052604090205461010090046001600160a01b03908116911614801561206d575060008681526002602052604081205460ff16600181111561206b57fe5b145b15612096576000868152600260208190526040909120015461208f90886125d8565b92506120fc565b6008546000878152600260205260409020600101546001600160a01b0390811691161480156120e15750600160008781526002602052604090205460ff1660018111156120df57fe5b145b156120fc576000868152600260208190526040909120015492505b8a60c0015183106122385760c08b01519250612118838861261e565b6008546000888152600260205260409020600101549195506001600160a01b0391821691161480156121665750600160008781526002602052604090205460ff16600181111561216457fe5b145b61218c5760008681526002602081905260409091200154612187908561266f565b6121b0565b6121b060026000888152602001908152602001600020600201548c60c0015161266f565b600087815260026020818152604083208083019490945560c08f01839052898352526001909101805460ff60b01b1916600160b01b17905560a08c01526101208b01516122009087898787612685565b61220b60008b6129cd565b60008b60600151600281111561221d57fe5b1415611d0857611c508b61012001518c60e001516001612a55565b8215611fcc57612248838861261e565b93506122588b60c001518461266f565b60c08c015260008681526002602081905260408220908101919091556001908101805460ff60b01b1916905560a08c01526101208b0151611fb89087898787612685565b60075460408c01516001600160a01b0390811691161480156122ca575060018b5160018111156122c857fe5b145b1561255d576008546000878152600260205260409020600101546001600160a01b03908116911614801561231a5750600160008781526002602052604090205460ff16600181111561231857fe5b145b15612343576000868152600260208190526040909120015461233c908861261e565b93506123a9565b60075460008781526002602052604090205461010090046001600160a01b03908116911614801561238e575060008681526002602052604081205460ff16600181111561238c57fe5b145b156123a9576000868152600260208190526040909120015493505b8a60c0015184106124e55760c08b015193506123c584886125d8565b6007546000888152600260205260409020549194506001600160a01b0390811661010090920416148015612413575060008681526002602052604081205460ff16600181111561241157fe5b145b6124395760008681526002602081905260409091200154612434908461266f565b61245d565b61245d60026000888152602001908152602001600020600201548c60c0015161266f565b600087815260026020818152604083208083019490945560c08f01839052898352526001909101805460ff60b01b1916600160b01b17905560a08c01526101208b01516124ad9087898787612685565b6124b860008b6129cd565b60008b6060015160028111156124ca57fe5b1415611fcc57611c508b61012001518c60e001516000612a55565b831561255d576124f584886125d8565b92506125058b60c001518561266f565b60c08c015260008681526002602081905260408220908101919091556001908101805460ff60b01b1916905560a08c01526101208b01516125499087898787612685565b61255d8560026000848981518110611cdc57fe5b6001909101906116f5565b505050505050505092915050565b600080546001600160a01b038381166001600160a01b0319831681178455604051919092169283917f8be0079c531659141344cd1fd0a4f28419497f9722a3daafe3b4186f6b6457e09190a35050565b600082820161098e848210158361160f565b60008282026125fc8415806125f55750838583816125f257fe5b04145b600361160f565b670de0b6b3a764000090049392505050565b6111bc816210905360ea1b612bf6565b600061262d821515600461160f565b8261263a5750600061108a565b670de0b6b3a76400008381029061265d9085838161265457fe5b0414600561160f565b82818161266657fe5b0491505061108a565b600061267f83831115600161160f565b50900390565b60018054810190819055612697612cae565b6040805160e08101825288815260075460008a81526002602090815293902054919283019161010090046001600160a01b039081169116146126d957846126db565b855b81526000898152600260208181526040808420600301546001600160a01b03908116838701528186018d90526007548d865293909252909220546060909301926101009004821691161461272f5784612731565b855b81526020018681526020018381525090508060056000600260008b815260200190815260200160002060030160009054906101000a90046001600160a01b03166001600160a01b03166001600160a01b031681526020019081526020016000206000848152602001908152602001600020600082015181600001556020820151816001015560408201518160020160006101000a8154816001600160a01b0302191690836001600160a01b03160217905550606082015181600301556080820151816004015560a0820151816005015560c082015181600601559050508060056000600260008a815260200190815260200160002060030160009054906101000a90046001600160a01b03166001600160a01b03166001600160a01b031681526020019081526020016000206000848152602001908152602001600020600082015181600001556020820151816001015560408201518160020160006101000a8154816001600160a01b0302191690836001600160a01b03160217905550606082015181600301556080820151816004015560a0820151816005015560c0820151816006015590505060066000600260008a815260200190815260200160002060030160009054906101000a90046001600160a01b03166001600160a01b03166001600160a01b03168152602001908152602001600020829080600181540180825580915050600190039060005260206000200160009091909190915055600660006002600089815260200190815260200160002060030160009054906101000a90046001600160a01b03166001600160a01b03166001600160a01b0316815260200190815260200160002082908060018154018082558091505060019003906000526020600020016000909190919091505550505050505050565b60018160028111156129db57fe5b141561161d57815b6003548110156103515760035460001901811415612a185760038381548110612a0857fe5b6000918252602082200155612a4d565b60038360010181548110612a2857fe5b906000526020600020015460038481548110612a4057fe5b6000918252602090912001555b6001016129e3565b6000806000612a62612cae565b60005b6001600160a01b038716600090815260066020526040902054811015612bea576001600160a01b0387166000908152600660205260409020805482908110612aa957fe5b60009182526020808320909101546001600160a01b03808b16845260058084526040808620848752855294859020855160e0810187528154808252600183015496820196909652600282015490931695830195909552600385015460608301526004850154608083015284015460a082015260069093015460c08401529550909250881415612b5957600086612b43578260200151612b49565b82608001515b9050612b5584826125c6565b9350505b6001600160a01b0387166000908152600660205260409020805482908110612b7d57fe5b600091825260208083209091018290556001600160a01b03891682526005808252604080842088855290925290822082815560018082018490556002820180546001600160a01b031916905560038201849055600482018490559181018390556006019190915501612a65565b50909695505050505050565b62461bcd60e51b600090815260206004526007602452600a808404818106603090810160081b958390069590950190829004918206850160101b01602363ffffff0060e086901c160160181b0190930160c81b60445260e882901c90606490fd5b60408051610140810190915280600081526000602082018190526040820181905260609091019081526020016000815260200160008152600060208201819052604082018190526060820181905260809091015290565b6040805160e081018252600080825260208201819052918101829052606081018290526080810182905260a0810182905260c081019190915290565b803561108a816132cb565b600082601f830112612d05578081fd5b813567ffffffffffffffff811115612d1b578182fd5b612d2e601f8201601f19166020016132a4565b9150808252836020828501011115612d4557600080fd5b8060208401602084013760009082016020015292915050565b803561108a816132e0565b600060408284031215612d7a578081fd5b612d8460406132a4565b9050813560038110612d9557600080fd5b808252506020820135602082015292915050565b600060208284031215612dba578081fd5b813561098e816132cb565b60008060408385031215612dd7578081fd5b8235612de2816132cb565b946020939093013593505050565b600060208284031215612e01578081fd5b5035919050565b600060208284031215612e19578081fd5b5051919050565b600080600060608486031215612e34578081fd5b505081359360208301359350604090920135919050565b60008060008060808587031215612e60578081fd5b84359350602085013592506040850135612e79816132e0565b9396929550929360600135925050565b600080600060608486031215612e34578283fd5b600080600060808486031215612eb1578283fd5b833567ffffffffffffffff80821115612ec8578485fd5b8186019150610120808389031215612ede578586fd5b612ee7816132a4565b9050612ef38884612d5e565b8152612f028860208501612cea565b6020820152612f148860408501612cea565b6040820152606083013560608201526080830135608082015260a083013560a0820152612f448860c08501612cea565b60c0820152612f568860e08501612cea565b60e08201526101008084013583811115612f6e578788fd5b612f7a8a828701612cf5565b828401525050809550505050612f938560208601612d69565b9150612fa28560608601612d5e565b90509250925092565b6001600160a01b03169052565b60058110612fc257fe5b9052565b60038110612fc257fe5b60028110612fc257fe5b60609290921b6bffffffffffffffffffffffff19168252601482015260340190565b6001600160a01b0391909116815260200190565b6020808252825182820181905260009190848201906040850190845b81811015612bea5783518352928401929184019160010161302c565b90815260200190565b6020808252601d908201527f556e617574686f72697a65642061636365737320746f206f7264657273000000604082015260600190565b6020808252601f908201527f4d61726b6574206f726465722063616e206e6f74206265206368616e67656400604082015260600190565b6020808252601b908201527f53656e646572206973206e6f74206f726465722063726561746f720000000000604082015260600190565b60208082526017908201527f4f7264657220697320616c72656164792066696c6c6564000000000000000000604082015260600190565b6020808252601d908201527f556e617574686f72697a65642061636365737320746f20747261646573000000604082015260600190565b60208082526021908201527f4d61726b6574206f726465722063616e206e6f742062652063616e63656c6c656040820152601960fa1b606082015260800190565b6000610140820190506131b9828451612fd0565b60208301516131cb6020840182612fab565b5060408301516131de6040840182612fab565b5060608301516131f16060840182612fc6565b5060808301516132046080840182612fd0565b5060a083015161321760a0840182612fb8565b5060c083015160c083015260e083015161323460e0840182612fab565b50610100838101519083015261012092830151929091019190915290565b81518152602080830151908201526040808301516001600160a01b031690820152606080830151908201526080808301519082015260a0808301519082015260c0918201519181019190915260e00190565b60405181810167ffffffffffffffff811182821017156132c357600080fd5b604052919050565b6001600160a01b03811681146111bc57600080fd5b600281106111bc57600080fdfea26469706673582212209e054c3a17a3ed07dca161e89f92d32fcdab29a5407fcdb320c51e349e7f8cb164736f6c63430007010033",
  "linkReferences": {},
  "deployedLinkReferences": {}
}