{
  "_format": "hh-sol-artifact-1",
  "contractName": "SecondaryIssuePool",
  "sourceName": "contracts/SecondaryIssuePool.sol",
  "abi": [
    {
      "inputs": [
        {
          "internalType": "contract IVault",
          "name": "vault",
          "type": "address"
        },
        {
          "internalType": "string",
          "name": "name",
          "type": "string"
        },
        {
          "internalType": "string",
          "name": "symbol",
          "type": "string"
        },
        {
          "internalType": "address",
          "name": "security",
          "type": "address"
        },
        {
          "internalType": "address",
          "name": "currency",
          "type": "address"
        },
        {
          "internalType": "uint256",
          "name": "minOrderSize",
          "type": "uint256"
        },
        {
          "internalType": "uint256",
          "name": "tradeFeePercentage",
          "type": "uint256"
        },
        {
          "internalType": "uint256",
          "name": "pauseWindowDuration",
          "type": "uint256"
        },
        {
          "internalType": "uint256",
          "name": "bufferPeriodDuration",
          "type": "uint256"
        },
        {
          "internalType": "address",
          "name": "owner",
          "type": "address"
        }
      ],
      "stateMutability": "nonpayable",
      "type": "constructor"
    },
    {
      "anonymous": false,
      "inputs": [
        {
          "indexed": true,
          "internalType": "address",
          "name": "owner",
          "type": "address"
        },
        {
          "indexed": true,
          "internalType": "address",
          "name": "spender",
          "type": "address"
        },
        {
          "indexed": false,
          "internalType": "uint256",
          "name": "value",
          "type": "uint256"
        }
      ],
      "name": "Approval",
      "type": "event"
    },
    {
      "anonymous": false,
      "inputs": [
        {
          "indexed": true,
          "internalType": "address",
          "name": "security",
          "type": "address"
        },
        {
          "indexed": false,
          "internalType": "uint256",
          "name": "minOrderSize",
          "type": "uint256"
        },
        {
          "indexed": false,
          "internalType": "address",
          "name": "currency",
          "type": "address"
        },
        {
          "indexed": false,
          "internalType": "address",
          "name": "orderBook",
          "type": "address"
        },
        {
          "indexed": false,
          "internalType": "address",
          "name": "issueManager",
          "type": "address"
        }
      ],
      "name": "Offer",
      "type": "event"
    },
    {
      "anonymous": false,
      "inputs": [
        {
          "indexed": false,
          "internalType": "address",
          "name": "creator",
          "type": "address"
        },
        {
          "indexed": false,
          "internalType": "address",
          "name": "tokenIn",
          "type": "address"
        },
        {
          "indexed": false,
          "internalType": "address",
          "name": "tokenOut",
          "type": "address"
        },
        {
          "indexed": false,
          "internalType": "uint256",
          "name": "amountOffered",
          "type": "uint256"
        },
        {
          "indexed": false,
          "internalType": "uint256",
          "name": "priceOffered",
          "type": "uint256"
        },
        {
          "indexed": false,
          "internalType": "uint256",
          "name": "timestamp",
          "type": "uint256"
        },
        {
          "indexed": false,
          "internalType": "bytes32",
          "name": "orderRef",
          "type": "bytes32"
        }
      ],
      "name": "OrderBook",
      "type": "event"
    },
    {
      "anonymous": false,
      "inputs": [
        {
          "indexed": false,
          "internalType": "bool",
          "name": "paused",
          "type": "bool"
        }
      ],
      "name": "PausedStateChanged",
      "type": "event"
    },
    {
      "anonymous": false,
      "inputs": [
        {
          "indexed": false,
          "internalType": "bool",
          "name": "enabled",
          "type": "bool"
        }
      ],
      "name": "RecoveryModeStateChanged",
      "type": "event"
    },
    {
      "anonymous": false,
      "inputs": [
        {
          "indexed": false,
          "internalType": "uint256",
          "name": "swapFeePercentage",
          "type": "uint256"
        }
      ],
      "name": "SwapFeePercentageChanged",
      "type": "event"
    },
    {
      "anonymous": false,
      "inputs": [
        {
          "indexed": true,
          "internalType": "address",
          "name": "security",
          "type": "address"
        },
        {
          "indexed": false,
          "internalType": "bytes32",
          "name": "orderRef",
          "type": "bytes32"
        },
        {
          "indexed": false,
          "internalType": "address",
          "name": "party",
          "type": "address"
        },
        {
          "indexed": false,
          "internalType": "address",
          "name": "counterparty",
          "type": "address"
        },
        {
          "indexed": false,
          "internalType": "bytes32",
          "name": "orderType",
          "type": "bytes32"
        },
        {
          "indexed": false,
          "internalType": "uint256",
          "name": "price",
          "type": "uint256"
        },
        {
          "indexed": false,
          "internalType": "address",
          "name": "currency",
          "type": "address"
        },
        {
          "indexed": false,
          "internalType": "uint256",
          "name": "amount",
          "type": "uint256"
        },
        {
          "indexed": false,
          "internalType": "uint256",
          "name": "executionDate",
          "type": "uint256"
        }
      ],
      "name": "TradeReport",
      "type": "event"
    },
    {
      "anonymous": false,
      "inputs": [
        {
          "indexed": true,
          "internalType": "address",
          "name": "from",
          "type": "address"
        },
        {
          "indexed": true,
          "internalType": "address",
          "name": "to",
          "type": "address"
        },
        {
          "indexed": false,
          "internalType": "uint256",
          "name": "value",
          "type": "uint256"
        }
      ],
      "name": "Transfer",
      "type": "event"
    },
    {
      "inputs": [],
      "name": "DOMAIN_SEPARATOR",
      "outputs": [
        {
          "internalType": "bytes32",
          "name": "",
          "type": "bytes32"
        }
      ],
      "stateMutability": "view",
      "type": "function"
    },
    {
      "inputs": [],
      "name": "_orderbook",
      "outputs": [
        {
          "internalType": "contract Orderbook",
          "name": "",
          "type": "address"
        }
      ],
      "stateMutability": "view",
      "type": "function"
    },
    {
      "inputs": [
        {
          "internalType": "address",
          "name": "owner",
          "type": "address"
        },
        {
          "internalType": "address",
          "name": "spender",
          "type": "address"
        }
      ],
      "name": "allowance",
      "outputs": [
        {
          "internalType": "uint256",
          "name": "",
          "type": "uint256"
        }
      ],
      "stateMutability": "view",
      "type": "function"
    },
    {
      "inputs": [
        {
          "internalType": "address",
          "name": "spender",
          "type": "address"
        },
        {
          "internalType": "uint256",
          "name": "amount",
          "type": "uint256"
        }
      ],
      "name": "approve",
      "outputs": [
        {
          "internalType": "bool",
          "name": "",
          "type": "bool"
        }
      ],
      "stateMutability": "nonpayable",
      "type": "function"
    },
    {
      "inputs": [
        {
          "internalType": "address",
          "name": "account",
          "type": "address"
        }
      ],
      "name": "balanceOf",
      "outputs": [
        {
          "internalType": "uint256",
          "name": "",
          "type": "uint256"
        }
      ],
      "stateMutability": "view",
      "type": "function"
    },
    {
      "inputs": [],
      "name": "decimals",
      "outputs": [
        {
          "internalType": "uint8",
          "name": "",
          "type": "uint8"
        }
      ],
      "stateMutability": "view",
      "type": "function"
    },
    {
      "inputs": [
        {
          "internalType": "address",
          "name": "spender",
          "type": "address"
        },
        {
          "internalType": "uint256",
          "name": "amount",
          "type": "uint256"
        }
      ],
      "name": "decreaseAllowance",
      "outputs": [
        {
          "internalType": "bool",
          "name": "",
          "type": "bool"
        }
      ],
      "stateMutability": "nonpayable",
      "type": "function"
    },
    {
      "inputs": [],
      "name": "disableRecoveryMode",
      "outputs": [],
      "stateMutability": "nonpayable",
      "type": "function"
    },
    {
      "inputs": [],
      "name": "enableRecoveryMode",
      "outputs": [],
      "stateMutability": "nonpayable",
      "type": "function"
    },
    {
      "inputs": [
        {
          "internalType": "bytes4",
          "name": "selector",
          "type": "bytes4"
        }
      ],
      "name": "getActionId",
      "outputs": [
        {
          "internalType": "bytes32",
          "name": "",
          "type": "bytes32"
        }
      ],
      "stateMutability": "view",
      "type": "function"
    },
    {
      "inputs": [],
      "name": "getAuthorizer",
      "outputs": [
        {
          "internalType": "contract IAuthorizer",
          "name": "",
          "type": "address"
        }
      ],
      "stateMutability": "view",
      "type": "function"
    },
    {
      "inputs": [],
      "name": "getCurrency",
      "outputs": [
        {
          "internalType": "address",
          "name": "",
          "type": "address"
        }
      ],
      "stateMutability": "view",
      "type": "function"
    },
    {
      "inputs": [],
      "name": "getDomainSeparator",
      "outputs": [
        {
          "internalType": "bytes32",
          "name": "",
          "type": "bytes32"
        }
      ],
      "stateMutability": "view",
      "type": "function"
    },
    {
      "inputs": [],
      "name": "getMinOrderSize",
      "outputs": [
        {
          "internalType": "uint256",
          "name": "",
          "type": "uint256"
        }
      ],
      "stateMutability": "view",
      "type": "function"
    },
    {
      "inputs": [
        {
          "internalType": "address",
          "name": "account",
          "type": "address"
        }
      ],
      "name": "getNextNonce",
      "outputs": [
        {
          "internalType": "uint256",
          "name": "",
          "type": "uint256"
        }
      ],
      "stateMutability": "view",
      "type": "function"
    },
    {
      "inputs": [],
      "name": "getOwner",
      "outputs": [
        {
          "internalType": "address",
          "name": "",
          "type": "address"
        }
      ],
      "stateMutability": "view",
      "type": "function"
    },
    {
      "inputs": [],
      "name": "getPausedState",
      "outputs": [
        {
          "internalType": "bool",
          "name": "paused",
          "type": "bool"
        },
        {
          "internalType": "uint256",
          "name": "pauseWindowEndTime",
          "type": "uint256"
        },
        {
          "internalType": "uint256",
          "name": "bufferPeriodEndTime",
          "type": "uint256"
        }
      ],
      "stateMutability": "view",
      "type": "function"
    },
    {
      "inputs": [],
      "name": "getPoolId",
      "outputs": [
        {
          "internalType": "bytes32",
          "name": "",
          "type": "bytes32"
        }
      ],
      "stateMutability": "view",
      "type": "function"
    },
    {
      "inputs": [],
      "name": "getProtocolFeesCollector",
      "outputs": [
        {
          "internalType": "contract IProtocolFeesCollector",
          "name": "",
          "type": "address"
        }
      ],
      "stateMutability": "view",
      "type": "function"
    },
    {
      "inputs": [],
      "name": "getScalingFactors",
      "outputs": [
        {
          "internalType": "uint256[]",
          "name": "",
          "type": "uint256[]"
        }
      ],
      "stateMutability": "view",
      "type": "function"
    },
    {
      "inputs": [],
      "name": "getSecurity",
      "outputs": [
        {
          "internalType": "address",
          "name": "",
          "type": "address"
        }
      ],
      "stateMutability": "view",
      "type": "function"
    },
    {
      "inputs": [],
      "name": "getSwapFeePercentage",
      "outputs": [
        {
          "internalType": "uint256",
          "name": "",
          "type": "uint256"
        }
      ],
      "stateMutability": "view",
      "type": "function"
    },
    {
      "inputs": [],
      "name": "getVault",
      "outputs": [
        {
          "internalType": "contract IVault",
          "name": "",
          "type": "address"
        }
      ],
      "stateMutability": "view",
      "type": "function"
    },
    {
      "inputs": [],
      "name": "inRecoveryMode",
      "outputs": [
        {
          "internalType": "bool",
          "name": "",
          "type": "bool"
        }
      ],
      "stateMutability": "view",
      "type": "function"
    },
    {
      "inputs": [
        {
          "internalType": "address",
          "name": "spender",
          "type": "address"
        },
        {
          "internalType": "uint256",
          "name": "addedValue",
          "type": "uint256"
        }
      ],
      "name": "increaseAllowance",
      "outputs": [
        {
          "internalType": "bool",
          "name": "",
          "type": "bool"
        }
      ],
      "stateMutability": "nonpayable",
      "type": "function"
    },
    {
      "inputs": [],
      "name": "name",
      "outputs": [
        {
          "internalType": "string",
          "name": "",
          "type": "string"
        }
      ],
      "stateMutability": "view",
      "type": "function"
    },
    {
      "inputs": [
        {
          "internalType": "address",
          "name": "owner",
          "type": "address"
        }
      ],
      "name": "nonces",
      "outputs": [
        {
          "internalType": "uint256",
          "name": "",
          "type": "uint256"
        }
      ],
      "stateMutability": "view",
      "type": "function"
    },
    {
      "inputs": [
        {
          "internalType": "bytes32",
          "name": "poolId",
          "type": "bytes32"
        },
        {
          "internalType": "address",
          "name": "sender",
          "type": "address"
        },
        {
          "internalType": "address",
          "name": "recipient",
          "type": "address"
        },
        {
          "internalType": "uint256[]",
          "name": "balances",
          "type": "uint256[]"
        },
        {
          "internalType": "uint256",
          "name": "lastChangeBlock",
          "type": "uint256"
        },
        {
          "internalType": "uint256",
          "name": "protocolSwapFeePercentage",
          "type": "uint256"
        },
        {
          "internalType": "bytes",
          "name": "userData",
          "type": "bytes"
        }
      ],
      "name": "onExitPool",
      "outputs": [
        {
          "internalType": "uint256[]",
          "name": "",
          "type": "uint256[]"
        },
        {
          "internalType": "uint256[]",
          "name": "",
          "type": "uint256[]"
        }
      ],
      "stateMutability": "nonpayable",
      "type": "function"
    },
    {
      "inputs": [
        {
          "internalType": "bytes32",
          "name": "poolId",
          "type": "bytes32"
        },
        {
          "internalType": "address",
          "name": "sender",
          "type": "address"
        },
        {
          "internalType": "address",
          "name": "recipient",
          "type": "address"
        },
        {
          "internalType": "uint256[]",
          "name": "balances",
          "type": "uint256[]"
        },
        {
          "internalType": "uint256",
          "name": "lastChangeBlock",
          "type": "uint256"
        },
        {
          "internalType": "uint256",
          "name": "protocolSwapFeePercentage",
          "type": "uint256"
        },
        {
          "internalType": "bytes",
          "name": "userData",
          "type": "bytes"
        }
      ],
      "name": "onJoinPool",
      "outputs": [
        {
          "internalType": "uint256[]",
          "name": "",
          "type": "uint256[]"
        },
        {
          "internalType": "uint256[]",
          "name": "",
          "type": "uint256[]"
        }
      ],
      "stateMutability": "nonpayable",
      "type": "function"
    },
    {
      "inputs": [
        {
          "components": [
            {
              "internalType": "enum IVault.SwapKind",
              "name": "kind",
              "type": "uint8"
            },
            {
              "internalType": "contract IERC20",
              "name": "tokenIn",
              "type": "address"
            },
            {
              "internalType": "contract IERC20",
              "name": "tokenOut",
              "type": "address"
            },
            {
              "internalType": "uint256",
              "name": "amount",
              "type": "uint256"
            },
            {
              "internalType": "bytes32",
              "name": "poolId",
              "type": "bytes32"
            },
            {
              "internalType": "uint256",
              "name": "lastChangeBlock",
              "type": "uint256"
            },
            {
              "internalType": "address",
              "name": "from",
              "type": "address"
            },
            {
              "internalType": "address",
              "name": "to",
              "type": "address"
            },
            {
              "internalType": "bytes",
              "name": "userData",
              "type": "bytes"
            }
          ],
          "internalType": "struct IPoolSwapStructs.SwapRequest",
          "name": "request",
          "type": "tuple"
        },
        {
          "internalType": "uint256[]",
          "name": "balances",
          "type": "uint256[]"
        },
        {
          "internalType": "uint256",
          "name": "indexIn",
          "type": "uint256"
        },
        {
          "internalType": "uint256",
          "name": "indexOut",
          "type": "uint256"
        }
      ],
      "name": "onSwap",
      "outputs": [
        {
          "internalType": "uint256",
          "name": "",
          "type": "uint256"
        }
      ],
      "stateMutability": "nonpayable",
      "type": "function"
    },
    {
      "inputs": [],
      "name": "pause",
      "outputs": [],
      "stateMutability": "nonpayable",
      "type": "function"
    },
    {
      "inputs": [
        {
          "internalType": "address",
          "name": "owner",
          "type": "address"
        },
        {
          "internalType": "address",
          "name": "spender",
          "type": "address"
        },
        {
          "internalType": "uint256",
          "name": "value",
          "type": "uint256"
        },
        {
          "internalType": "uint256",
          "name": "deadline",
          "type": "uint256"
        },
        {
          "internalType": "uint8",
          "name": "v",
          "type": "uint8"
        },
        {
          "internalType": "bytes32",
          "name": "r",
          "type": "bytes32"
        },
        {
          "internalType": "bytes32",
          "name": "s",
          "type": "bytes32"
        }
      ],
      "name": "permit",
      "outputs": [],
      "stateMutability": "nonpayable",
      "type": "function"
    },
    {
      "inputs": [
        {
          "internalType": "bytes32",
          "name": "poolId",
          "type": "bytes32"
        },
        {
          "internalType": "address",
          "name": "sender",
          "type": "address"
        },
        {
          "internalType": "address",
          "name": "recipient",
          "type": "address"
        },
        {
          "internalType": "uint256[]",
          "name": "balances",
          "type": "uint256[]"
        },
        {
          "internalType": "uint256",
          "name": "lastChangeBlock",
          "type": "uint256"
        },
        {
          "internalType": "uint256",
          "name": "protocolSwapFeePercentage",
          "type": "uint256"
        },
        {
          "internalType": "bytes",
          "name": "userData",
          "type": "bytes"
        }
      ],
      "name": "queryExit",
      "outputs": [
        {
          "internalType": "uint256",
          "name": "bptIn",
          "type": "uint256"
        },
        {
          "internalType": "uint256[]",
          "name": "amountsOut",
          "type": "uint256[]"
        }
      ],
      "stateMutability": "view",
      "type": "function"
    },
    {
      "inputs": [
        {
          "internalType": "bytes32",
          "name": "poolId",
          "type": "bytes32"
        },
        {
          "internalType": "address",
          "name": "sender",
          "type": "address"
        },
        {
          "internalType": "address",
          "name": "recipient",
          "type": "address"
        },
        {
          "internalType": "uint256[]",
          "name": "balances",
          "type": "uint256[]"
        },
        {
          "internalType": "uint256",
          "name": "lastChangeBlock",
          "type": "uint256"
        },
        {
          "internalType": "uint256",
          "name": "protocolSwapFeePercentage",
          "type": "uint256"
        },
        {
          "internalType": "bytes",
          "name": "userData",
          "type": "bytes"
        }
      ],
      "name": "queryJoin",
      "outputs": [
        {
          "internalType": "uint256",
          "name": "bptOut",
          "type": "uint256"
        },
        {
          "internalType": "uint256[]",
          "name": "amountsIn",
          "type": "uint256[]"
        }
      ],
      "stateMutability": "view",
      "type": "function"
    },
    {
      "inputs": [
        {
          "internalType": "contract IERC20",
          "name": "token",
          "type": "address"
        },
        {
          "internalType": "bytes",
          "name": "poolConfig",
          "type": "bytes"
        }
      ],
      "name": "setAssetManagerPoolConfig",
      "outputs": [],
      "stateMutability": "nonpayable",
      "type": "function"
    },
    {
      "inputs": [
        {
          "internalType": "uint256",
          "name": "swapFeePercentage",
          "type": "uint256"
        }
      ],
      "name": "setSwapFeePercentage",
      "outputs": [],
      "stateMutability": "nonpayable",
      "type": "function"
    },
    {
      "inputs": [],
      "name": "symbol",
      "outputs": [
        {
          "internalType": "string",
          "name": "",
          "type": "string"
        }
      ],
      "stateMutability": "view",
      "type": "function"
    },
    {
      "inputs": [],
      "name": "totalSupply",
      "outputs": [
        {
          "internalType": "uint256",
          "name": "",
          "type": "uint256"
        }
      ],
      "stateMutability": "view",
      "type": "function"
    },
    {
      "inputs": [
        {
          "internalType": "address",
          "name": "recipient",
          "type": "address"
        },
        {
          "internalType": "uint256",
          "name": "amount",
          "type": "uint256"
        }
      ],
      "name": "transfer",
      "outputs": [
        {
          "internalType": "bool",
          "name": "",
          "type": "bool"
        }
      ],
      "stateMutability": "nonpayable",
      "type": "function"
    },
    {
      "inputs": [
        {
          "internalType": "address",
          "name": "sender",
          "type": "address"
        },
        {
          "internalType": "address",
          "name": "recipient",
          "type": "address"
        },
        {
          "internalType": "uint256",
          "name": "amount",
          "type": "uint256"
        }
      ],
      "name": "transferFrom",
      "outputs": [
        {
          "internalType": "bool",
          "name": "",
          "type": "bool"
        }
      ],
      "stateMutability": "nonpayable",
      "type": "function"
    },
    {
      "inputs": [],
      "name": "unpause",
      "outputs": [],
      "stateMutability": "nonpayable",
      "type": "function"
    }
  ],
  "bytecode": "0x6102e06040523480156200001257600080fd5b5060405162008f7f38038062008f7f833981016040819052620000359162000b88565b8960008a8a620000478b8b30620004d1565b6040805160038082526080820190925290602082016060803683370190505089898989828289898d85336001600160a01b031660001b8480604051806040016040528060018152602001603160f81b81525087878160039080519060200190620000b3929190620009f2565b508051620000c9906004906020840190620009f2565b50506005805460ff19166012179055508151602092830120608052805191012060a052507f8b73c3c69bb8fe3d512ecc4cf759cc79239f7b179b0ffacaa9a75d522b39400f60c05260e0526001600160601b0319606091821b81166101005291901b1661012052506200014790506276a700831115610194620005a0565b6200015b62278d00821115610195620005a0565b42909101610140819052016101605285516200017d906002111560c8620005a0565b620001976200018b620005b5565b8751111560c9620005a0565b620001ad86620005ba60201b6200242e1760201c565b620001b884620005c6565b6040516309b2760f60e01b81526000906001600160a01b038c16906309b2760f90620001e9908d9060040162000d51565b602060405180830381600087803b1580156200020457600080fd5b505af115801562000219573d6000803e3d6000fd5b505050506040513d601f19601f820116820180604052508101906200023f919062000b50565b604051633354e3e960e11b81529091506001600160a01b038c16906366a9c7d290620002749084908b908b9060040162000cb5565b600060405180830381600087803b1580156200028f57600080fd5b505af1158015620002a4573d6000803e3d6000fd5b505050508061018081815250508a6001600160a01b031663d2946c2b6040518163ffffffff1660e01b815260040160206040518083038186803b158015620002eb57600080fd5b505afa15801562000300573d6000803e3d6000fd5b505050506040513d601f19601f8201168201806040525081019062000326919062000b69565b6001600160a01b03166101a0816001600160a01b031660601b815250505050505050505050505050866001600160a01b03166101c0816001600160a01b031660601b81525050856001600160a01b03166101e0816001600160a01b031660601b8152505089600a60006101000a8154816001600160a01b0302191690836001600160a01b031602179055506000806000620003c98a8a306200065a60201b60201c565b6102608190526102808390526102a082905291945092509050620003ed8a62000750565b61020052620003fc8962000750565b610220526102408890526001600160601b0319606085901b166102c05260405184908b908b9030906200042f9062000a77565b6200043e949392919062000c8a565b604051809103906000f0801580156200045b573d6000803e3d6000fd5b50600980546001600160a01b0319166001600160a01b0392831617908190556040518c8316927f32e7b5e5c88bb4ec1dca71e1e00fc2444e236858d09faa9ddbb9d8c710549ecb92620004b6928d928f9216908a9062000d6f565b60405180910390a25050505050505050505050505062000db8565b606060008080620004e48787876200065a565b60408051600380825260808201909252939650919450925060208201606080368337019050509350868484815181106200051a57fe5b60200260200101906001600160a01b031690816001600160a01b031681525050858483815181106200054857fe5b60200260200101906001600160a01b031690816001600160a01b031681525050848482815181106200057657fe5b60200260200101906001600160a01b031690816001600160a01b0316815250505050509392505050565b81620005b157620005b18162000824565b5050565b600390565b80620005b18162000839565b620005df620005d4620008c5565b82101560cb620005a0565b620005f8620005ed620008ce565b82111560ca620005a0565b6200061a8160c0603f600854620008da60201b6200243817909392919060201c565b6008556040517fa9ba3ffe0b6c366b81232caab38605a0699ad5398d6cce76f91ee809e322dafc906200064f90839062000d66565b60405180910390a150565b6000806000846001600160a01b0316866001600160a01b03161015620006e357836001600160a01b0316856001600160a01b03161015620006a657506000915060019050600262000747565b836001600160a01b0316866001600160a01b03161015620006d257506000915060029050600162000747565b506001915060029050600062000747565b846001600160a01b0316846001600160a01b031610156200070f57506002915060019050600062000747565b856001600160a01b0316846001600160a01b031610156200073b57506002915060009050600162000747565b50600191506000905060025b93509350939050565b60006001600160a01b038216301415620007745750670de0b6b3a76400006200081f565b6000826001600160a01b031663313ce5676040518163ffffffff1660e01b815260040160206040518083038186803b158015620007b057600080fd5b505afa158015620007c5573d6000803e3d6000fd5b505050506040513d601f19601f82011682018060405250810190620007eb919062000c67565b60ff16905060006200080a601283620008ff60201b6200245b1760201c565b905080600a0a670de0b6b3a764000002925050505b919050565b62000836816210905360ea1b6200091c565b50565b6002815110156200084a5762000836565b6000816000815181106200085a57fe5b602002602001015190506000600190505b8251811015620008c05760008382815181106200088457fe5b60200260200101519050620008b5816001600160a01b0316846001600160a01b0316106065620005a060201b60201c565b91506001016200086b565b505050565b64e8d4a5100090565b67016345785d8a000090565b6000620008e98484846200097d565b506001901b60001901811b1992909216911b1790565b600062000911838311156001620005a0565b508082035b92915050565b62461bcd60e51b600090815260206004526007602452600a808404818106603090810160081b958390069590950190829004918206850160101b01602363ffffff0060e086901c160160181b0190930160c81b60445260e882901c90606490fd5b6200098e61010083106064620005a0565b620009c760018210158015620009bf5750620009bb60ff8461010003620009d860201b620024711760201c565b8211155b6064620005a0565b620008c083821c156101b4620005a0565b6000818310620009e95781620009eb565b825b9392505050565b828054600181600116156101000203166002900490600052602060002090601f016020900481019282601f1062000a3557805160ff191683800117855562000a65565b8280016001018555821562000a65579182015b8281111562000a6557825182559160200191906001019062000a48565b5062000a7392915062000a85565b5090565b6136f9806200588683390190565b5b8082111562000a73576000815560010162000a86565b8051620009168162000da2565b600082601f83011262000aba578081fd5b81516001600160401b038082111562000ad1578283fd5b6040516020601f8401601f191682018101838111838210171562000af3578586fd5b8060405250819450838252868185880101111562000b1057600080fd5b600092505b8383101562000b34578583018101518284018201529182019162000b15565b8383111562000b465760008185840101525b5050505092915050565b60006020828403121562000b62578081fd5b5051919050565b60006020828403121562000b7b578081fd5b8151620009eb8162000da2565b6000806000806000806000806000806101408b8d03121562000ba8578586fd5b62000bb48c8c62000a9c565b60208c0151909a506001600160401b038082111562000bd1578788fd5b62000bdf8e838f0162000aa9565b9a5060408d015191508082111562000bf5578788fd5b5062000c048d828e0162000aa9565b98505062000c168c60608d0162000a9c565b965062000c278c60808d0162000a9c565b955060a08b0151945060c08b0151935060e08b015192506101008b0151915062000c568c6101208d0162000a9c565b90509295989b9194979a5092959850565b60006020828403121562000c79578081fd5b815160ff81168114620009eb578182fd5b6001600160a01b03948516815292841660208401529083166040830152909116606082015260800190565b60006060820185835260206060818501528186518084526080860191508288019350845b8181101562000d015762000cee855162000d96565b8352938301939183019160010162000cd9565b505084810360408601528551808252908201925081860190845b8181101562000d435762000d30835162000d96565b8552938301939183019160010162000d1b565b509298975050505050505050565b602081016003831062000d6057fe5b91905290565b90815260200190565b9384526001600160a01b039283166020850152908216604084015216606082015260800190565b6001600160a01b031690565b6001600160a01b03811681146200083657600080fd5b60805160a05160c05160e0516101005160601c6101205160601c6101405161016051610180516101a05160601c6101c05160601c6101e05160601c61020051610220516102405161026051610280516102a0516102c05160601c61495562000f31600039806112ec5280613051525080610866528061257152806130bd5280613117525080610932528061250b5250806109d0528061183e5280611a455280611a825280611ac052806125c65250806119335280611e57525080611290528061259952806130f052508061125c528061253352508061061c52806106b2528061080a5280610cfb5280610da65280611211528061147052806119d05280611ef552508061065b52806106f252806108d65280610b485280610c585280610e235280610eab528061143152806119915280611d91525080612208525080611de45250806127dc5250806127b85250806120f05250806120cc5250806120565250806131a85250806131ea5250806131c952506149556000f3fe608060405234801561001057600080fd5b50600436106102d35760003560e01c806370a0823111610186578063a457c2d7116100e3578063d2946c2b11610097578063dd62ed3e11610071578063dd62ed3e14610547578063ed24911d1461055a578063fd19cac814610562576102d3565b8063d2946c2b14610519578063d505accf14610521578063d5c096c414610534576102d3565b8063aaabadc5116100c8578063aaabadc514610501578063b35056b814610509578063b7b814fc14610511576102d3565b8063a457c2d7146104db578063a9059cbb146104ee576102d3565b806387ec68171161013a5780638d928af81161011f5780638d928af8146104b857806390193b7c146104c057806395d89b41146104d3576102d3565b806387ec68171461049d578063893d20e8146104b0576102d3565b80637ecebe001161016b5780637ecebe001461046f5780638456cb5914610482578063851c1bb31461048a576102d3565b806370a082311461043b57806374f3b0091461044e576102d3565b806338e9922e1161023457806350dd6ed9116101e857806355c67628116101cd57806355c676281461040a5780636028bfd4146104125780636945c1fd14610433576102d3565b806350dd6ed9146103ef57806354a844ba14610402576102d3565b8063395093511161021957806339509351146103cc5780633f4ba83a146103df5780634d6d0fd0146103e7576102d3565b806338e9922e146103af57806338fff2d0146103c4576102d3565b80631dd746ea1161028b5780632541897f116102705780632541897f1461037d578063313ce567146103925780633644e515146103a7576102d3565b80631dd746ea1461035557806323b872dd1461036a576102d3565b8063095ea7b3116102bc578063095ea7b31461031657806318160ddd146103365780631c0de0511461033e576102d3565b806301ec954a146102d857806306fdde0314610301575b600080fd5b6102eb6102e6366004613ede565b61056a565b6040516102f89190614407565b60405180910390f35b610309611c30565b6040516102f8919061454b565b610329610324366004613c18565b611cc6565b6040516102f891906143e4565b6102eb611cdd565b610346611ce3565b6040516102f8939291906143ef565b61035d611d0c565b6040516102f891906143a3565b610329610378366004613b68565b611d1b565b610385611d8f565b6040516102f89190614335565b61039a611db3565b6040516102f89190614899565b6102eb611dbc565b6103c26103bd3660046140dd565b611dc6565b005b6102eb611de2565b6103296103da366004613c18565b611e06565b6103c2611e41565b6102eb611e55565b6103c26103fd366004613d9d565b611e79565b6103c2611e97565b6102eb611ea9565b610425610420366004613c7b565b611ebc565b6040516102f8929190614880565b610385611ef3565b6102eb610449366004613b14565b611f17565b61046161045c366004613c7b565b611f32565b6040516102f89291906143b6565b6102eb61047d366004613b14565b612035565b6103c2612040565b6102eb610498366004613d41565b612052565b6104256104ab366004613c7b565b6120a4565b6103856120ca565b6103856120ee565b6102eb6104ce366004613b14565b612112565b61030961212d565b6103296104e9366004613c18565b61218e565b6103296104fc366004613c18565b6121cc565b6103856121d9565b6103296121e3565b6103c26121f4565b610385612206565b6103c261052f366004613ba8565b61222a565b610461610542366004613c7b565b6122b5565b6102eb610555366004613b30565b6123d8565b6102eb612415565b61038561241f565b6000846080015161059761057c6120ee565b6001600160a01b0316336001600160a01b03161460cd612489565b6105ac6105a2611de2565b82146101f4612489565b6105b4612497565b6000865160018111156105c357fe5b14806105db57506001865160018111156105d957fe5b145b61061a576040517f08c379a000000000000000000000000000000000000000000000000000000000815260040161061190614697565b60405180910390fd5b7f00000000000000000000000000000000000000000000000000000000000000006001600160a01b031686604001516001600160a01b0316148061069357507f00000000000000000000000000000000000000000000000000000000000000006001600160a01b031686604001516001600160a01b0316145b806106aa575060408601516001600160a01b031630145b806106ea57507f00000000000000000000000000000000000000000000000000000000000000006001600160a01b031686602001516001600160a01b0316145b8061072a57507f00000000000000000000000000000000000000000000000000000000000000006001600160a01b031686602001516001600160a01b0316145b80610741575060208601516001600160a01b031630145b610777576040517f08c379a00000000000000000000000000000000000000000000000000000000081526004016106119061455e565b60606107816124aa565b905061078d868261261d565b6107956139bd565b6000808080808c5160018111156107a857fe5b14156107d9576107cf8c60600151878c815181106107c257fe5b602002602001015161268c565b60608d0152610808565b60018c5160018111156107e857fe5b1415610808576108028c60600151878b815181106107c257fe5b60608d01525b7f00000000000000000000000000000000000000000000000000000000000000006001600160a01b03168c602001516001600160a01b0316148015610859575060008c51600181111561085757fe5b145b156108d4578b606001518b7f00000000000000000000000000000000000000000000000000000000000000008151811061088f57fe5b602002602001015110156108cf576040517f08c379a000000000000000000000000000000000000000000000000000000000815260040161061190614603565b610a39565b7f00000000000000000000000000000000000000000000000000000000000000006001600160a01b03168c602001516001600160a01b0316148015610925575060008c51600181111561092357fe5b145b1561099b578b606001518b7f00000000000000000000000000000000000000000000000000000000000000008151811061095b57fe5b602002602001015110156108cf576040517f08c379a0000000000000000000000000000000000000000000000000000000008152600401610611906146ce565b60208c01516001600160a01b0316301480156109c3575060008c5160018111156109c157fe5b145b15610a39578b606001518b7f0000000000000000000000000000000000000000000000000000000000000000815181106109f957fe5b60200260200101511015610a39576040517f08c379a0000000000000000000000000000000000000000000000000000000008152600401610611906145cc565b6101008c0151511561191a578b6101000151806020019051810190610a5e9190613d1e565b90945092507f4c696d69740000000000000000000000000000000000000000000000000000009150836113fb57610a936139d4565b60095460c08e01516040517fca142f750000000000000000000000000000000000000000000000000000000081526001600160a01b039092169163ca142f7591610ae191889060040161438a565b60c06040518083038186803b158015610af957600080fd5b505afa158015610b0d573d6000803e3d6000fd5b505050506040513d601f19601f82011682018060405250810190610b319190614077565b60095460c08f015182519293506001600160a01b037f000000000000000000000000000000000000000000000000000000000000000081169392811692635778472a92908216911614610b88578360400151610b8e565b83602001515b6040518263ffffffff1660e01b8152600401610baa9190614407565b60a06040518083038186803b158015610bc257600080fd5b505afa158015610bd6573d6000803e3d6000fd5b505050506040513d601f19601f82011682018060405250810190610bfa9190613ffd565b602001516001600160a01b031614610c32577f63757272656e6379000000000000000000000000000000000000000000000000610c54565b7f73656375726974790000000000000000000000000000000000000000000000005b92507f00000000000000000000000000000000000000000000000000000000000000006001600160a01b03168d604001516001600160a01b0316148015610ca7575060008d516001811115610ca557fe5b145b15610cf957806080015191508c606001518160a0015114610cf4576040517f08c379a000000000000000000000000000000000000000000000000000000000815260040161061190614762565b610da2565b7f00000000000000000000000000000000000000000000000000000000000000006001600160a01b03168d604001516001600160a01b0316148015610d4a575060008d516001811115610d4857fe5b145b15610d97578060a0015191508c60600151816080015114610cf4576040517f08c379a000000000000000000000000000000000000000000000000000000000815260040161061190614705565b610da2610163612698565b60007f00000000000000000000000000000000000000000000000000000000000000006001600160a01b03168e604001516001600160a01b0316148015610df5575060208e01516001600160a01b031630145b15610e2157507f53656c6c00000000000000000000000000000000000000000000000000000000610ea9565b7f00000000000000000000000000000000000000000000000000000000000000006001600160a01b03168e604001516001600160a01b0316148015610e72575060208e01516001600160a01b031630145b15610e9e57507f4275790000000000000000000000000000000000000000000000000000000000610ea9565b610ea9610163612698565b7f00000000000000000000000000000000000000000000000000000000000000006001600160a01b03167fd6a806535ec4f172139ede2e9d6bbbe20957ca8a454fd40c9747fe139efe42478f60c001516001600160a01b031684600001516001600160a01b031614610f1f578360400151610f25565b83602001515b7f73656375726974790000000000000000000000000000000000000000000000008714610fee5760095460408087015190517f5778472a0000000000000000000000000000000000000000000000000000000081526001600160a01b0390921691635778472a91610f9891600401614407565b60a06040518083038186803b158015610fb057600080fd5b505afa158015610fc4573d6000803e3d6000fd5b505050506040513d601f19601f82011682018060405250810190610fe89190613ffd565b5161108c565b60095460208601516040517f5778472a0000000000000000000000000000000000000000000000000000000081526001600160a01b0390921691635778472a9161103a91600401614407565b60a06040518083038186803b15801561105257600080fd5b505afa158015611066573d6000803e3d6000fd5b505050506040513d601f19601f8201168201806040525081019061108a9190613ffd565b515b7f63757272656e637900000000000000000000000000000000000000000000000088146111555760095460408088015190517f5778472a0000000000000000000000000000000000000000000000000000000081526001600160a01b0390921691635778472a916110ff91600401614407565b60a06040518083038186803b15801561111757600080fd5b505afa15801561112b573d6000803e3d6000fd5b505050506040513d601f19601f8201168201806040525081019061114f9190613ffd565b516111f3565b60095460208701516040517f5778472a0000000000000000000000000000000000000000000000000000000081526001600160a01b0390921691635778472a916111a191600401614407565b60a06040518083038186803b1580156111b957600080fd5b505afa1580156111cd573d6000803e3d6000fd5b505050506040513d601f19601f820116820180604052508101906111f19190613ffd565b515b8561120f88608001518960a001516126c290919063ffffffff16565b7f00000000000000000000000000000000000000000000000000000000000000008a8a6060015160405161124a989796959493929190614446565b60405180910390a261128082608001517f0000000000000000000000000000000000000000000000000000000000000000612713565b608083015260a08201516112b4907f0000000000000000000000000000000000000000000000000000000000000000612713565b60a08301526009546040517f71eedc7f0000000000000000000000000000000000000000000000000000000081526001600160a01b037f00000000000000000000000000000000000000000000000000000000000000008116926371eedc7f92611324928792169060040161482f565b600060405180830381600087803b15801561133e57600080fd5b505af1158015611352573d6000803e3d6000fd5b50505050600960009054906101000a90046001600160a01b03166001600160a01b031663d729cf6c8f60c00151876040518363ffffffff1660e01b815260040161139d92919061438a565b600060405180830381600087803b1580156113b757600080fd5b505af11580156113cb573d6000803e3d6000fd5b505050506113ec83898d815181106113df57fe5b6020026020010151612713565b99505050505050505050611c27565b818414801561140957508215155b1561142a576040805180820190915280600181526020018490529450611915565b8261163d577f00000000000000000000000000000000000000000000000000000000000000006001600160a01b03168c604001516001600160a01b031614806114a857507f00000000000000000000000000000000000000000000000000000000000000006001600160a01b03168c604001516001600160a01b0316145b80156114c0575060208c01516001600160a01b031630145b80156114d8575060008c5160018111156114d657fe5b145b1561162d5760095460c08d01516040517fd61aed7a0000000000000000000000000000000000000000000000000000000081526001600160a01b039092169163d61aed7a9161152c91889190600401614410565b602060405180830381600087803b15801561154657600080fd5b505af115801561155a573d6000803e3d6000fd5b505050506040513d601f19601f8201168201806040525081019061157e9190613c63565b90508b6060015181146115bd576040517f08c379a00000000000000000000000000000000000000000000000000000000081526004016106119061463a565b7f9b85ff671b830162b81f1cb1253d54a6fee66e6f9760fc15cfc3fecccca8f1188c60c001518d602001518e604001518f6060015187428a6040516116089796959493929190614349565b60405180910390a161162081878b815181106113df57fe5b9750505050505050611c27565b611638610163612698565b611915565b821561190a5760208c01516001600160a01b03163014801561166b575060008c51600181111561166957fe5b145b1561176057600960009054906101000a90046001600160a01b03166001600160a01b03166346764e5e85858f6040518463ffffffff1660e01b81526004016116b59392919061450e565b602060405180830381600087803b1580156116cf57600080fd5b505af11580156116e3573d6000803e3d6000fd5b505050506040513d601f19601f820116820180604052508101906117079190613c63565b9050611717818d6060015161245b565b90507f9b85ff671b830162b81f1cb1253d54a6fee66e6f9760fc15cfc3fecccca8f1188c60c001518d604001518e602001518487428a6040516116089796959493929190614349565b60408c01516001600160a01b031630148015611788575060008c51600181111561178657fe5b145b1561162d57600960009054906101000a90046001600160a01b03166001600160a01b03166346764e5e85858f6040518463ffffffff1660e01b81526004016117d29392919061450e565b602060405180830381600087803b1580156117ec57600080fd5b505af1158015611800573d6000803e3d6000fd5b505050506040513d601f19601f820116820180604052508101906118249190613c63565b90506118348c606001518261271f565b90508b606001518b7f00000000000000000000000000000000000000000000000000000000000000008151811061186757fe5b602002602001015110156118a7576040517f08c379a0000000000000000000000000000000000000000000000000000000008152600401610611906147bf565b7f9b85ff671b830162b81f1cb1253d54a6fee66e6f9760fc15cfc3fecccca8f1188c60c001518d602001518e604001518487428a6040516118ee9796959493929190614349565b60405180910390a16116208c60600151878b815181106113df57fe5b611915610163612698565b611931565b604080518082019091526000808252602082015294505b7f00000000000000000000000000000000000000000000000000000000000000008c60600151101561198f576040517f08c379a000000000000000000000000000000000000000000000000000000000815260040161061190614595565b7f00000000000000000000000000000000000000000000000000000000000000006001600160a01b03168c602001516001600160a01b03161480611a0857507f00000000000000000000000000000000000000000000000000000000000000006001600160a01b03168c602001516001600160a01b0316145b8015611a20575060408c01516001600160a01b031630145b8015611a38575060008c516001811115611a3657fe5b145b15611ba8578b606001518b7f000000000000000000000000000000000000000000000000000000000000000081518110611a6e57fe5b60200260200101511115611b9857611abd8b7f000000000000000000000000000000000000000000000000000000000000000081518110611aab57fe5b60200260200101518d6060015161245b565b8b7f000000000000000000000000000000000000000000000000000000000000000081518110611ae957fe5b60209081029190910101526009546040517f5487e8cf0000000000000000000000000000000000000000000000000000000081526001600160a01b0390911690635487e8cf90611b3f908f9089906004016147f6565b602060405180830381600087803b158015611b5957600080fd5b505af1158015611b6d573d6000803e3d6000fd5b505050506040513d601f19601f82011682018060405250810190611b919190613c63565b9150611ba3565b611ba3610201612698565b611bb3565b611bb3610163612698565b7f9b85ff671b830162b81f1cb1253d54a6fee66e6f9760fc15cfc3fecccca8f1188c60c001518d602001518e604001518f6060015189602001514288604051611c029796959493929190614349565b60405180910390a1611c1e8c60600151878b815181106113df57fe5b97505050505050505b50949350505050565b60038054604080516020601f6002600019610100600188161502019095169490940493840181900481028201810190925282815260609390929091830182828015611cbc5780601f10611c9157610100808354040283529160200191611cbc565b820191906000526020600020905b815481529060010190602001808311611c9f57829003601f168201915b5050505050905090565b6000611cd3338484612731565b5060015b92915050565b60025490565b6000806000611cf0612799565b159250611cfb6127b6565b9150611d056127da565b9050909192565b6060611d166124aa565b905090565b600080611d2885336123d8565b9050611d4c336001600160a01b0387161480611d445750838210155b61019e612489565b611d578585856127fe565b336001600160a01b03861614801590611d7257506000198114155b15611d8457611d848533858403612731565b506001949350505050565b7f000000000000000000000000000000000000000000000000000000000000000090565b60055460ff1690565b6000611d16612415565b611dce6128de565b611dd6612497565b611ddf81612924565b50565b7f000000000000000000000000000000000000000000000000000000000000000090565b3360008181526001602090815260408083206001600160a01b03871684529091528120549091611cd3918590611e3c908661271f565b612731565b611e496128de565b611e53600061299d565b565b7f000000000000000000000000000000000000000000000000000000000000000090565b611e816128de565b611e89612497565b611e938282612a2e565b5050565b611e9f6128de565b611e536001612b3c565b600854600090611d169060c0603f612b93565b60006060611ed28651611ecd612ba2565b612ba7565b611ee789898989898989612bb4612c06612c6f565b97509795505050505050565b7f000000000000000000000000000000000000000000000000000000000000000090565b6001600160a01b031660009081526020819052604090205490565b60608088611f4161057c6120ee565b611f4c6105a2611de2565b60606000611f5986612e24565b15611f8157611f66612e53565b611f7889611f72611cdd565b88612e66565b92509050611fd3565b611f89612e92565b6060611f936124aa565b9050611f9f8a8261261d565b611fc38d8d8d8d8d611faf6121e3565b611fb9578d611fbc565b60005b878e612bb4565b93509150611fd18382612c06565b505b611fdd8b82612e9a565b81895167ffffffffffffffff81118015611ff657600080fd5b50604051908082528060200260200182016040528015612020578160200160208202803683370190505b509450945050505b5097509795505050505050565b6000611cd782612112565b6120486128de565b611e53600161299d565b60007f0000000000000000000000000000000000000000000000000000000000000000826040516020016120879291906142bf565b604051602081830303815290604052805190602001209050919050565b600060606120b58651611ecd612ba2565b611ee789898989898989612ea4612ec0612c6f565b7f000000000000000000000000000000000000000000000000000000000000000090565b7f000000000000000000000000000000000000000000000000000000000000000090565b6001600160a01b031660009081526006602052604090205490565b60048054604080516020601f6002600019610100600188161502019095169490940493840181900481028201810190925282815260609390929091830182828015611cbc5780601f10611c9157610100808354040283529160200191611cbc565b60008061219b33856123d8565b90508083106121b5576121b033856000612731565b6121c2565b6121c23385858403612731565b5060019392505050565b6000611cd33384846127fe565b6000611d16612f29565b600854600090611d169060ff612fa3565b6121fc6128de565b611e536000612b3c565b7f000000000000000000000000000000000000000000000000000000000000000090565b60007f6e71edae12b1b97f4d1f60370fef10105fa2faae0126114a169c64845d6126c98888886122598c612112565b8960405160200161226f9695949392919061448d565b6040516020818303038152906040528051906020012090506122a08882612297878787612fad565b886101f8612fec565b6122ab888888612731565b5050505050505050565b606080886122c461057c6120ee565b6122cf6105a2611de2565b6122d7612e92565b60606122e16124aa565b90506122eb611cdd565b61239857600060606123008d8d8d868b613043565b9150915061231961230f613168565b83101560cc612489565b61232b6000612326613168565b61316f565b61233e8b612337613168565b840361316f565b6123488184612ec0565b808a5167ffffffffffffffff8111801561236157600080fd5b5060405190808252806020026020018201604052801561238b578160200160208202803683370190505b5095509550505050612028565b6123a2888261261d565b600060606123ca8d8d8d8d8d6123b66121e3565b6123c0578d6123c3565b60005b898e612ea4565b9150915061233e8b8361316f565b60006123e26120ee565b6001600160a01b0316826001600160a01b031614156124045750600019611cd7565b61240e8383613179565b9050611cd7565b6000611d166131a4565b6009546001600160a01b031681565b80611e9381613241565b60006124458484846132bf565b506001901b60001901811b1992909216911b1790565b600061246b838311156001612489565b50900390565b60008183106124805781612482565b825b9392505050565b81611e9357611e9381612698565b611e536124a2612799565b610192612489565b606060006124b6612ba2565b905060608167ffffffffffffffff811180156124d157600080fd5b506040519080825280602002602001820160405280156124fb578160200160208202803683370190505b50905060005b82811015612616577f000000000000000000000000000000000000000000000000000000000000000081141561256f577f000000000000000000000000000000000000000000000000000000000000000082828151811061255e57fe5b60200260200101818152505061260e565b7f00000000000000000000000000000000000000000000000000000000000000008114156125c4577f000000000000000000000000000000000000000000000000000000000000000082828151811061255e57fe5b7f000000000000000000000000000000000000000000000000000000000000000081141561260e57670de0b6b3a764000082828151811061260157fe5b6020026020010181815250505b600101612501565b5091505090565b8151815161262c908290612ba7565b60005b818110156126865761266784828151811061264657fe5b602002602001015184838151811061265a57fe5b6020026020010151613306565b84828151811061267357fe5b602090810291909101015260010161262f565b50505050565b60006124828383613306565b611ddf817f42414c000000000000000000000000000000000000000000000000000000000061333c565b60006126d18215156004612489565b826126de57506000611cd7565b670de0b6b3a764000083810290612701908583816126f857fe5b04146005612489565b82818161270a57fe5b04915050611cd7565b600061248283836126c2565b60008282016124828482101583612489565b6001600160a01b0380841660008181526001602090815260408083209487168084529490915290819020849055517f8c5be1e5ebec7d5bd14f71427d1e84f3dd0314c0f7b2291e5b200ac8c7c3b9259061278c908590614407565b60405180910390a3505050565b60006127a36127da565b421180611d1657505060075460ff161590565b7f000000000000000000000000000000000000000000000000000000000000000090565b7f000000000000000000000000000000000000000000000000000000000000000090565b6128156001600160a01b0384161515610198612489565b61282c6001600160a01b0383161515610199612489565b6128378383836132ba565b6001600160a01b03831660009081526020819052604090205461285d90826101a06133b7565b6001600160a01b03808516600090815260208190526040808220939093559084168152205461288c908261271f565b6001600160a01b0380841660008181526020819052604090819020939093559151908516907fddf252ad1be2c89b69c2b068fc378daa952ba7f163c4a11628f55a4df523b3ef9061278c908590614407565b600061290d6000357fffffffff0000000000000000000000000000000000000000000000000000000016612052565b9050611ddf61291c82336133cd565b610191612489565b61293961292f6134b6565b82101560cb612489565b61294e6129446134bf565b82111560ca612489565b60085461295f908260c0603f612438565b6008556040517fa9ba3ffe0b6c366b81232caab38605a0699ad5398d6cce76f91ee809e322dafc90612992908390614407565b60405180910390a150565b80156129bd576129b86129ae6127b6565b4210610193612489565b6129d2565b6129d26129c86127da565b42106101a9612489565b600780547fffffffffffffffffffffffffffffffffffffffffffffffffffffffffffffff00168215151790556040517f9e3a5e37224532dea67b89face185703738a228a6e8a23dee546960180d3be64906129929083906143e4565b6000612a38611de2565b90506000612a446120ee565b6001600160a01b031663b05f8e4883866040518363ffffffff1660e01b8152600401612a71929190614410565b60806040518083038186803b158015612a8957600080fd5b505afa158015612a9d573d6000803e3d6000fd5b505050506040513d601f19601f82011682018060405250810190612ac191906140f5565b6040517f18e736d40000000000000000000000000000000000000000000000000000000081529094506001600160a01b03851693506318e736d49250612b0e9150859087906004016144ed565b600060405180830381600087803b158015612b2857600080fd5b505af11580156122ab573d6000803e3d6000fd5b600854612b4b908260ff6134cb565b6008556040517feff3d4d215b42bf0960be9c6d5e05c22cba4df6627a3a523e2acee733b5854c890612b7e9083906143e4565b60405180910390a180611ddf57611ddf611e53565b6001901b6000190191901c1690565b600390565b611e938183146067612489565b600060606000612bc3846134f2565b90506001816001811115612bd357fe5b14612be857612be3610163612698565b612bf8565b612bf28885613508565b90935091505b509850989650505050505050565b81518151612c15908290612ba7565b60005b8181101561268657612c50848281518110612c2f57fe5b6020026020010151848381518110612c4357fe5b60200260200101516126c2565b848281518110612c5c57fe5b6020908102919091010152600101612c18565b333014612d5e576000306001600160a01b0316600036604051612c939291906142ef565b6000604051808303816000865af19150503d8060008114612cd0576040519150601f19603f3d011682016040523d82523d6000602084013e612cd5565b606091505b505090508060008114612ce457fe5b60046000803e6000517fffffffff00000000000000000000000000000000000000000000000000000000167f43adbafb000000000000000000000000000000000000000000000000000000008114612d40573d6000803e3d6000fd5b506020600460003e604060205260243d03602460403e601c3d016000f35b612d66612e92565b6060612d706124aa565b9050612d7c878261261d565b60006060612d948c8c8c8c8c8c898d8d63ffffffff16565b91509150612da681848663ffffffff16565b80517fffffffffffffffffffffffffffffffffffffffffffffffffffffffffffffffe082018390526343adbafb7fffffffffffffffffffffffffffffffffffffffffffffffffffffffffffffffc08301526020027fffffffffffffffffffffffffffffffffffffffffffffffffffffffffffffffdc82016044820181fd5b6000808251118015611cd7575060ff801682806020019051810190612e499190614135565b60ff161492915050565b611e53612e5e6121e3565b6101b6612489565b600060606000612e75846135ab565b90506060612e848787846135c1565b919791965090945050505050565b611e53612497565b611e938282613670565b60006060612eb3610163612698565b9850989650505050505050565b81518151612ecf908290612ba7565b60005b8181101561268657612f0a848281518110612ee957fe5b6020026020010151848381518110612efd57fe5b602002602001015161373c565b848281518110612f1657fe5b6020908102919091010152600101612ed2565b6000612f336120ee565b6001600160a01b031663aaabadc56040518163ffffffff1660e01b815260040160206040518083038186803b158015612f6b57600080fd5b505afa158015612f7f573d6000803e3d6000fd5b505050506040513d601f19601f82011682018060405250810190611d169190613d81565b1c60019081161490565b60408051604180825260808201909252606091829190602082018180368337019050509050836020820152826040820152846060820153949350505050565b6000612ff78561378a565b905061300d6130078783876137a6565b83612489565b61301c428410156101b8612489565b5050506001600160a01b039092166000908152600660205260409020805460010190555050565b6000606061304f612497565b7f000000000000000000000000000000000000000000000000000000000000000061308a6001600160a01b0388811690831614610156612489565b6130aa816001600160a01b0316876001600160a01b031614610156612489565b60606130b585613873565b9050613114817f0000000000000000000000000000000000000000000000000000000000000000815181106130e657fe5b60200260200101517f000000000000000000000000000000000000000000000000000000000000000061268c565b817f00000000000000000000000000000000000000000000000000000000000000008151811061314057fe5b60209081029190910101526dffffffffffffffffffffffffffff999098509650505050505050565b620f424090565b611e938282613889565b6001600160a01b03918216600090815260016020908152604080832093909416825291909152205490565b60007f00000000000000000000000000000000000000000000000000000000000000007f00000000000000000000000000000000000000000000000000000000000000007f000000000000000000000000000000000000000000000000000000000000000061321161391c565b306040516020016132269594939291906144c1565b60405160208183030381529060405280519060200120905090565b60028151101561325057611ddf565b60008160008151811061325f57fe5b602002602001015190506000600190505b82518110156132ba57600083828151811061328757fe5b602002602001015190506132b0816001600160a01b0316846001600160a01b0316106065612489565b9150600101613270565b505050565b6132ce61010083106064612489565b6132f7600182101580156132f057506132ec60ff8461010003612471565b8211155b6064612489565b6132ba83821c156101b4612489565b600082820261332a84158061332357508385838161332057fe5b04145b6003612489565b670de0b6b3a764000090049392505050565b7f08c379a000000000000000000000000000000000000000000000000000000000600090815260206004526007602452600a808404818106603090810160081b958390069590950190829004918206850160101b01602363ffffff0060e086901c160160181b0190930160c81b60445260e882901c90606490fd5b60006133c68484111583612489565b5050900390565b600073ba1ba1ba1ba1ba1ba1ba1ba1ba1ba1ba1ba1ba1b6133ec6120ca565b6001600160a01b031614158015613407575061340783613920565b1561342f576134146120ca565b6001600160a01b0316336001600160a01b0316149050611cd7565b613437612f29565b6001600160a01b0316639be2a8848484306040518463ffffffff1660e01b815260040161346693929190614427565b60206040518083038186803b15801561347e57600080fd5b505afa158015613492573d6000803e3d6000fd5b505050506040513d601f19601f8201168201806040525081019061240e9190613c43565b64e8d4a5100090565b67016345785d8a000090565b60006001821b19841682846134e15760006134e4565b60015b60ff16901b17949350505050565b600081806020019051810190611cd79190613deb565b6000606060006135178461398e565b90506060855167ffffffffffffffff8111801561353357600080fd5b5060405190808252806020026020018201604052801561355d578160200160208202803683370190505b50905060005b865181101561359f5786818151811061357857fe5b602002602001015182828151811061358c57fe5b6020908102919091010152600101613563565b50909590945092505050565b6000818060200190518101906124829190614151565b606060006135cf83856126c2565b9050845167ffffffffffffffff811180156135e957600080fd5b50604051908082528060200260200182016040528015613613578160200160208202803683370190505b50915060005b8551811015613667576136488287838151811061363257fe5b602002602001015161330690919063ffffffff16565b83828151811061365457fe5b6020908102919091010152600101613619565b50509392505050565b6136876001600160a01b038316151561019b612489565b613693826000836132ba565b6001600160a01b0382166000908152602081905260409020546136b990826101b26133b7565b6001600160a01b0383166000908152602081905260409020556136ec6136e7826136e1611cdd565b906139a4565b6139b2565b60006001600160a01b0316826001600160a01b03167fddf252ad1be2c89b69c2b068fc378daa952ba7f163c4a11628f55a4df523b3ef836040516137309190614407565b60405180910390a35050565b600061374b8215156004612489565b8261375857506000611cd7565b670de0b6b3a764000083810290613772908583816126f857fe5b82600182038161377e57fe5b04600101915050611cd7565b60006137946131a4565b826040516020016120879291906142ff565b60006137b882516041146101b9612489565b60208281015160408085015160608601518251600080825295019283905292939092811a916001906137f190899085908890889061452d565b6020604051602081039080840390855afa158015613813573d6000803e3d6000fd5b50506040517fffffffffffffffffffffffffffffffffffffffffffffffffffffffffffffffe001519150506001600160a01b038116158015906138675750876001600160a01b0316816001600160a01b0316145b98975050505050505050565b6060818060200190518101906124829190613e34565b613895600083836132ba565b6138aa6136e7826138a4611cdd565b9061271f565b6001600160a01b0382166000908152602081905260409020546138cd908261271f565b6001600160a01b0383166000818152602081905260408082209390935591519091907fddf252ad1be2c89b69c2b068fc378daa952ba7f163c4a11628f55a4df523b3ef90613730908590614407565b4690565b600061394b7f38e9922e00000000000000000000000000000000000000000000000000000000612052565b82148061397f575061397c7f50dd6ed900000000000000000000000000000000000000000000000000000000612052565b82145b80611cd75750611cd7826139b7565b6000818060200190518101906124829190613e07565b6000612482838360016133b7565b600255565b50600090565b604080518082019091526000808252602082015290565b6040805160c081018252600080825260208201819052918101829052606081018290526080810182905260a081019190915290565b8035611cd7816148ee565b600082601f830112613a24578081fd5b8135613a37613a32826148ce565b6148a7565b818152915060208083019084810181840286018201871015613a5857600080fd5b60005b84811015613a7757813584529282019290820190600101613a5b565b505050505092915050565b600082601f830112613a92578081fd5b813567ffffffffffffffff811115613aa8578182fd5b613ad960207fffffffffffffffffffffffffffffffffffffffffffffffffffffffffffffffe0601f840116016148a7565b9150808252836020828501011115613af057600080fd5b8060208401602084013760009082016020015292915050565b8035611cd781614903565b600060208284031215613b25578081fd5b8135612482816148ee565b60008060408385031215613b42578081fd5b8235613b4d816148ee565b91506020830135613b5d816148ee565b809150509250929050565b600080600060608486031215613b7c578081fd5b8335613b87816148ee565b92506020840135613b97816148ee565b929592945050506040919091013590565b600080600080600080600060e0888a031215613bc2578485fd5b8735613bcd816148ee565b96506020880135613bdd816148ee565b955060408801359450606088013593506080880135613bfb81614910565b9699959850939692959460a0840135945060c09093013592915050565b60008060408385031215613c2a578182fd5b8235613c35816148ee565b946020939093013593505050565b600060208284031215613c54578081fd5b81518015158114612482578182fd5b600060208284031215613c74578081fd5b5051919050565b600080600080600080600060e0888a031215613c95578081fd5b873596506020880135613ca7816148ee565b95506040880135613cb7816148ee565b9450606088013567ffffffffffffffff80821115613cd3578283fd5b613cdf8b838c01613a14565b955060808a0135945060a08a0135935060c08a0135915080821115613d02578283fd5b50613d0f8a828b01613a82565b91505092959891949750929550565b60008060408385031215613d30578182fd5b505080516020909101519092909150565b600060208284031215613d52578081fd5b81357fffffffff0000000000000000000000000000000000000000000000000000000081168114612482578182fd5b600060208284031215613d92578081fd5b8151612482816148ee565b60008060408385031215613daf578182fd5b8235613dba816148ee565b9150602083013567ffffffffffffffff811115613dd5578182fd5b613de185828601613a82565b9150509250929050565b600060208284031215613dfc578081fd5b815161248281614903565b60008060408385031215613e19578182fd5b8251613e2481614903565b6020939093015192949293505050565b60008060408385031215613e46578182fd5b825160048110613e54578283fd5b8092505060208084015167ffffffffffffffff811115613e72578283fd5b8401601f81018613613e82578283fd5b8051613e90613a32826148ce565b81815283810190838501858402850186018a1015613eac578687fd5b8694505b83851015613ece578051835260019490940193918501918501613eb0565b5080955050505050509250929050565b60008060008060808587031215613ef3578182fd5b843567ffffffffffffffff80821115613f0a578384fd5b818701915061012080838a031215613f20578485fd5b613f29816148a7565b9050613f358984613b09565b8152613f448960208501613a09565b6020820152613f568960408501613a09565b6040820152606083013560608201526080830135608082015260a083013560a0820152613f868960c08501613a09565b60c0820152613f988960e08501613a09565b60e08201526101008084013583811115613fb0578687fd5b613fbc8b828701613a82565b828401525050809650506020870135915080821115613fd9578384fd5b50613fe687828801613a14565b949794965050505060408301359260600135919050565b600060a0828403121561400e578081fd5b61401860a06148a7565b8251614023816148ee565b81526020830151614033816148ee565b6020820152604083015160038110614049578283fd5b604082015260608301516005811061405f578283fd5b60608201526080928301519281019290925250919050565b600060c08284031215614088578081fd5b61409260c06148a7565b825161409d816148ee565b808252506020830151602082015260408301516040820152606083015160608201526080830151608082015260a083015160a08201528091505092915050565b6000602082840312156140ee578081fd5b5035919050565b6000806000806080858703121561410a578182fd5b845193506020850151925060408501519150606085015161412a816148ee565b939692955090935050565b600060208284031215614146578081fd5b815161248281614910565b60008060408385031215614163578182fd5b8251613e2481614910565b6001600160a01b03169052565b6000815180845260208085019450808401835b838110156141aa5781518752958201959082019060010161418e565b509495945050505050565b60008151808452815b818110156141da576020818501810151868301820152016141be565b818111156141eb5782602083870101525b50601f017fffffffffffffffffffffffffffffffffffffffffffffffffffffffffffffffe0169290920160200192915050565b600061012082516002811061422f57fe5b808552506020830151614245602086018261416e565b506040830151614258604086018261416e565b50606083015160608501526080830151608085015260a083015160a085015260c083015161428960c086018261416e565b5060e083015161429c60e086018261416e565b506101008084015182828701526142b5838701826141b5565b9695505050505050565b9182527fffffffff0000000000000000000000000000000000000000000000000000000016602082015260240190565b6000828483379101908152919050565b7f190100000000000000000000000000000000000000000000000000000000000081526002810192909252602282015260420190565b6001600160a01b0391909116815260200190565b6001600160a01b03978816815295871660208701529390951660408501526060840191909152608083015260a082019290925260c081019190915260e00190565b6001600160a01b03929092168252602082015260400190565b600060208252612482602083018461417b565b6000604082526143c9604083018561417b565b82810360208401526143db818561417b565b95945050505050565b901515815260200190565b92151583526020830191909152604082015260600190565b90815260200190565b9182526001600160a01b0316602082015260400190565b9283526001600160a01b03918216602084015216604082015260600190565b9788526001600160a01b03968716602089015294861660408801526060870193909352608086019190915290921660a084015260c083019190915260e08201526101000190565b9586526001600160a01b0394851660208701529290931660408501526060840152608083019190915260a082015260c00190565b9485526020850193909352604084019190915260608301526001600160a01b0316608082015260a00190565b60008382526040602083015261450660408301846141b5565b949350505050565b6000848252836020830152606060408301526143db606083018461421e565b93845260ff9290921660208401526040830152606082015260800190565b60006020825261248260208301846141b5565b60208082526016908201527f496e76616c6964207377617070656420746f6b656e7300000000000000000000604082015260600190565b60208082526018908201527f4f726465722062656c6f77206d696e696d756d2073697a650000000000000000604082015260600190565b6020808252601f908201527f496e73756666696369656e7420706f6f6c20746f6b656e2062616c616e636500604082015260600190565b6020808252601d908201527f496e73756666696369656e742063757272656e63792062616c616e6365000000604082015260600190565b60208082526023908201527f496e73756666696369656e7420706f6f6c20746f6b656e73207377617070656460408201527f20696e0000000000000000000000000000000000000000000000000000000000606082015260800190565b6020808252600c908201527f496e76616c696420737761700000000000000000000000000000000000000000604082015260600190565b6020808252601d908201527f496e73756666696369656e742073656375726974792062616c616e6365000000604082015260600190565b60208082526030908201527f496e73756666696369656e7420706f6f6c20746f6b656e73207377617070656460408201527f20696e20666f722063757272656e637900000000000000000000000000000000606082015260800190565b60208082526030908201527f496e73756666696369656e7420706f6f6c20746f6b656e73207377617070656460408201527f20696e20666f7220736563757269747900000000000000000000000000000000606082015260800190565b6020808252601d908201527f494e53554646494349454e545f494e5445524e414c5f42414c414e4345000000604082015260600190565b600060608252614809606083018561421e565b905082516003811061481757fe5b80602084015250602083015160408301529392505050565b82516001600160a01b0390811682526020808501519083015260408085015190830152606080850151908301526080808501519083015260a09384015193820193909352911660c082015260e00190565b600083825260406020830152614506604083018461417b565b60ff91909116815260200190565b60405181810167ffffffffffffffff811182821017156148c657600080fd5b604052919050565b600067ffffffffffffffff8211156148e4578081fd5b5060209081020190565b6001600160a01b0381168114611ddf57600080fd5b60028110611ddf57600080fd5b60ff81168114611ddf57600080fdfea26469706673582212203cffcbb121550d5d8cea439b3c99de92c70b3818d724c74d474d8e465ec8f52c64736f6c6343000701003360806040523480156200001157600080fd5b50604051620036f9380380620036f9833981016040819052620000349162000101565b6200003f3362000093565b600c80546001600160a01b039586166001600160a01b031991821617909155600a805494861694821694909417909355600b805492851692841692909217909155600d805491909316911617905562000161565b600080546001600160a01b038381166001600160a01b0319831681178455604051919092169283917f8be0079c531659141344cd1fd0a4f28419497f9722a3daafe3b4186f6b6457e09190a35050565b80516001600160a01b0381168114620000fb57600080fd5b92915050565b6000806000806080858703121562000117578384fd5b620001238686620000e3565b9350620001348660208701620000e3565b9250620001458660408701620000e3565b9150620001568660608701620000e3565b905092959194509250565b61358880620001716000396000f3fe608060405234801561001057600080fd5b50600436106101005760003560e01c80637ef9389011610097578063d61aed7a11610066578063d61aed7a146101f3578063d729cf6c14610206578063e43372e914610219578063f2fde38b1461022157610100565b80637ef93890146101a557806381b5da1d146101b85780638da5cb5b146101cb578063ca142f75146101d357610100565b80635487e8cf116100d35780635487e8cf146101605780635778472a146101735780636945c1fd14610193578063715018a61461019b57610100565b80632541897f1461010557806338fff2d01461012357806346764e5e1461013857806346b8b7301461014b575b600080fd5b61010d610234565b60405161011a91906132c1565b60405180910390f35b61012b610243565b60405161011a9190613319565b61012b610146366004613192565b6102d2565b6101536104b5565b60405161011a91906132d5565b61012b61016e3660046131f4565b6105ae565b610186610181366004613108565b610814565b60405161011a919061346c565b61010d610956565b6101a3610965565b005b6101a36101b33660046131e0565b61097d565b6101a36101c6366004613167565b610a9b565b61010d610c11565b6101e66101e13660046130dd565b610c20565b60405161011a91906134c9565b61012b610201366004613138565b610cfb565b6101a36102143660046130dd565b610e7c565b610153610f21565b6101a361022f3660046130c1565b610f82565b600a546001600160a01b031690565b600080600d60009054906101000a90046001600160a01b03166001600160a01b03166338fff2d06040518163ffffffff1660e01b815260040160206040518083038186803b15801561029457600080fd5b505afa1580156102a8573d6000803e3d6000fd5b505050506040513d601f19601f820116820180604052508101906102cc9190613120565b91505090565b60006102f2336102e0610c11565b6001600160a01b0316146101aa610fb1565b60026000858152600760205260409020600101547501000000000000000000000000000000000000000000900460ff16600481111561032d57fe5b1461036d576040517f08c379a0000000000000000000000000000000000000000000000000000000008152600401610364906133fe565b60405180910390fd5b60c08201516000858152600760205260409020546001600160a01b039081169116146103c5576040517f08c379a0000000000000000000000000000000000000000000000000000000008152600401610364906133c7565b600a5460008581526007602052604081206001015490916001600160a01b039182169116146103f55760016103f8565b60005b9050610405848683610fc3565b600085815260076020908152604090912060020154600a549185015190916001600160a01b039182169116148061044e5750600b5460208501516001600160a01b039081169116145b1561047857610461846060015182611063565b6000878152600760205260409020600201556104ac565b6000868152600760205260409020600201546060850151610499919061107c565b6000878152600760205260409020600201555b95945050505050565b600354606090819067ffffffffffffffff811180156104d357600080fd5b506040519080825280602002602001820160405280156104fd578160200160208202803683370190505b50600354909150600090815b818110156105a557336001600160a01b0316600760006003848154811061052c57fe5b600091825260208083206001600290930201919091015483528201929092526040019020546001600160a01b0316141561059d576003818154811061056d57fe5b90600052602060002090600202016001015484848151811061058b57fe5b60209081029190910101526001909201915b600101610509565b50919250505090565b60006105bc336102e0610c11565b6000825160028111156105cb57fe5b14806105e357506001825160028111156105e157fe5b145b6105ec57600080fd5b60055442146105fb5742610602565b6005546001015b600581905560c084015160405160009261061f929160200161328c565b60405160208183030381529060405280519060200120905061063f612ee0565b6040518060a001604052808660c001516001600160a01b0316815260200186602001516001600160a01b031681526020018560000151600281111561068057fe5b8152602001600281526060870151602091820152600084815260078252604090819020835181547fffffffffffffffffffffffff00000000000000000000000000000000000000009081166001600160a01b0392831617835593850151600183018054909516911617808455918401519394508493909290917fffffffffffffffffffffff00ffffffffffffffffffffffffffffffffffffffff167401000000000000000000000000000000000000000083600281111561073d57fe5b021790555060608201516001820180547fffffffffffffffffffff00ffffffffffffffffffffffffffffffffffffffffff16750100000000000000000000000000000000000000000083600481111561079257fe5b021790555060809190910151600290910155600a5460208201516001600160a01b03908116911614156107d2576107cd846020015183611092565b6107fb565b600b5460208201516001600160a01b03908116911614156107fb576107fb8460200151836112a5565b6108098285602001516114ba565b925050505b92915050565b61081c612ee0565b610824610c11565b6001600160a01b0316336001600160a01b0316148061084d5750600c546001600160a01b031633145b8061086e57506000828152600760205260409020546001600160a01b031633145b6108a4576040517f08c379a000000000000000000000000000000000000000000000000000000000815260040161036490613359565b600082815260076020908152604091829020825160a08101845281546001600160a01b0390811682526001830154908116938201939093529290919083019074010000000000000000000000000000000000000000900460ff16600281111561090957fe5b600281111561091457fe5b81526020016001820160159054906101000a900460ff16600481111561093657fe5b600481111561094157fe5b81526020016002820154815250509050919050565b600b546001600160a01b031690565b610971336102e0610c11565b61097b6000611d64565b565b600c546001600160a01b03163314806109ae5750610999610c11565b6001600160a01b0316336001600160a01b0316145b6109e4576040517f08c379a000000000000000000000000000000000000000000000000000000000815260040161036490613390565b60008381526007602052604090206002810180548401905560010180547fffffffffffffffffffff00ffffffffffffffffffffffffffffffffffffffffff1675020000000000000000000000000000000000000000001790819055600a546001600160a01b0391821691161415610a6457610a5f8184611092565b610a96565b600b546000848152600760205260409020600101546001600160a01b0390811691161415610a9657610a9681846112a5565b505050565b600c546001600160a01b0316331480610acc5750610ab7610c11565b6001600160a01b0316336001600160a01b0316145b610b02576040517f08c379a000000000000000000000000000000000000000000000000000000000815260040161036490613390565b600092835260076020908152604080852080547fffffffffffffffffffffffff00000000000000000000000000000000000000009081168255600180830180547fffffffffffffffffffff0000000000000000000000000000000000000000000090811690915560028085018a9055978952848920805484168155808301805490921690915580880189905592546001600160a01b0390811689526008808752858a20888b528752858a208054851681558084018b9055808a018b905560038082018c905560048083018d905560059283018d905596549093168b52908752858a20978a5296909552928720805490911681559182018690559381018590559081018490559182018390550155565b6000546001600160a01b031690565b610c28612f0f565b610c30610c11565b6001600160a01b0316336001600160a01b03161480610c575750336001600160a01b038416145b610c8d576040517f08c379a000000000000000000000000000000000000000000000000000000000815260040161036490613435565b506001600160a01b03918216600090815260086020908152604080832093835292815290829020825160c0810184528154909416845260018101549184019190915260028101549183019190915260038101546060830152600481015460808301526005015460a082015290565b6000610d09336102e0610c11565b60026000848152600760205260409020600101547501000000000000000000000000000000000000000000900460ff166004811115610d4457fe5b14610d7b576040517f08c379a0000000000000000000000000000000000000000000000000000000008152600401610364906133fe565b6000838152600760205260409020546001600160a01b03838116911614610dce576040517f08c379a0000000000000000000000000000000000000000000000000000000008152600401610364906133c7565b600a5460008481526007602052604081206001015490916001600160a01b03918216911614610dfe576001610e01565b60005b9050610e0d8482611dcc565b505050600090815260076020526040812060028101805482547fffffffffffffffffffffffff0000000000000000000000000000000000000000168355600190920180547fffffffffffffffffffff000000000000000000000000000000000000000000001690559190915590565b610e88336102e0610c11565b6001600160a01b038216600090815260096020526040812054905b81811015610f1b576001600160a01b0384166000908152600960205260409020805484919083908110610ed257fe5b90600052602060002001541415610f13576001600160a01b0384166000908152600960205260409020805482908110610f0757fe5b60009182526020822001555b600101610ea3565b50505050565b33600090815260096020908152604091829020805483518184028101840190945280845260609392830182828015610f7857602002820191906000526020600020905b815481526020019060010190808311610f64575b5050505050905090565b610f8e336102e0610c11565b610fa56001600160a01b03821615156101ab610fb1565b610fae81611d64565b50565b81610fbf57610fbf81611f74565b5050565b801561101457600082815260026020526040902054600180548592908110610fe757fe5b60009182526020808320600292830201939093558482529091526040902054610a5f57610a5f6000611f9e565b60008281526004602052604090205460038054859290811061103257fe5b6000918252602080832060029092029091019290925583815260049091526040902054610a9657610a96600061218c565b60008282016110758482101583610fb1565b9392505050565b600061108c838311156001610fb1565b50900390565b60408051808201909152828152602081018281526003805460018082018355600083815294517fc2575a0e9e593c00f959f8c92f12db2869c3395a3b0502d05e2516446f71f85b60029093029283015592517fc2575a0e9e593c00f959f8c92f12db2869c3395a3b0502d05e2516446f71f85c90910155546111139161107c565b905060006111248260026000612378565b90505b60008211801561117257506003828154811061113f57fe5b9060005260206000209060020201600001546003828154811061115e57fe5b906000526020600020906002020160000154115b15610f1b5761117f612f44565b6003828154811061118c57fe5b9060005260206000209060020201604051806040016040529081600082015481526020016001820154815250509050600383815481106111c857fe5b9060005260206000209060020201600383815481106111e357fe5b9060005260206000209060020201600082015481600001556001820154816001015590505081600460006003868154811061121a57fe5b906000526020600020906002020160010154815260200190815260200160002081905550806003848154811061124c57fe5b906000526020600020906002020160008201518160000155602082015181600101559050508260046000836020015181526020019081526020016000208190555081925061129d8360026000612378565b915050611127565b6040805180820190915282815260208101828152600180548082018255600082815293517fb10e2d527612073b26eecdfd717e6a320cf44b4afac2b0732d9fcbe2b7fa0cf660029092029182015591517fb10e2d527612073b26eecdfd717e6a320cf44b4afac2b0732d9fcbe2b7fa0cf79092019190915580546113289161107c565b905060006113398260026000612378565b90505b60008211801561138757506001828154811061135457fe5b9060005260206000209060020201600001546001828154811061137357fe5b906000526020600020906002020160000154105b15610f1b57611394612f44565b600182815481106113a157fe5b9060005260206000209060020201604051806040016040529081600082015481526020016001820154815250509050600183815481106113dd57fe5b9060005260206000209060020201600183815481106113f857fe5b9060005260206000209060020201600082015481600001556001820154816001015590505081600260006001868154811061142f57fe5b906000526020600020906002020160010154815260200190815260200160002081905550806001848154811061146157fe5b90600052602060002090600202016000820151816000015560208201518160010155905050826002600083602001518152602001908152602001600020819055508192506114b28360026000612378565b91505061133c565b60008060008080600080600060606114d28b8b6123a0565b9b509092509050816114ee578a9850505050505050505061080e565b600092505b8051831015611cd45760008b81526007602052604090206002015461151757611cd4565b8a81848151811061152457fe5b6020026020010151602001511415801561158f575060008b815260076020819052604082205483516001600160a01b03909116929084908790811061156557fe5b6020908102919091018101518101518252810191909152604001600020546001600160a01b031614155b80156115e157506000600760008386815181106115a857fe5b602002602001015160200151815260200190815260200160002060010160159054906101000a900460ff1660048111156115de57fe5b14155b1561181157600b5481516001600160a01b039091169060079060009084908790811061160957fe5b6020908102919091018101518101518252810191909152604001600020600101546001600160a01b031614801561165f5750600a5460008c8152600760205260409020600101546001600160a01b039081169116145b1561170f578981848151811061167157fe5b602002602001015160000151101580611688575089155b806116aa575080838151811061169a57fe5b6020026020010151600001516000145b1561170a578083815181106116bb57fe5b6020026020010151600001516000146116eb578083815181106116da57fe5b6020026020010151600001516116ed565b895b96508083815181106116fb57fe5b60200260200101516020015197505b611811565b600a5481516001600160a01b039091169060079060009084908790811061173257fe5b6020908102919091018101518101518252810191909152604001600020600101546001600160a01b03161480156117885750600b5460008c8152600760205260409020600101546001600160a01b039081169116145b15611811578981848151811061179a57fe5b6020026020010151600001511115806117b1575089155b15611811578083815181106117c257fe5b6020026020010151600001516000146117f2578083815181106117e157fe5b6020026020010151600001516117f4565b895b965080838151811061180257fe5b60200260200101516020015195505b8715611a7257600a5460008c8152600760205260409020600101546001600160a01b0390811691161415611a6d5760008881526007602052604090206002015461185b9088612740565b60008c81526007602052604090206002015490955085106119b95760008b81526007602052604090206002015494506118948588612791565b6000898152600760205260409020600201549094506118b3908561107c565b60008981526007602052604080822060029081019384558e8352908220018190558990525461191857600088815260076020526040902060010180547fffffffffffffffffffff00ffffffffffffffffffffffffffffffffffffffffff169055611971565b600088815260076020526040902060010180547fffffffffffffffffffff00ffffffffffffffffffffffffffffffffffffffffff16750100000000000000000000000000000000000000000017905561197187896112a5565b60008b815260076020526040902060010180547fffffffffffffffffffff00ffffffffffffffffffffffffffffffffffffffffff1690556119b48b8987876127c7565b611a6d565b8415611a6d576119c98588612791565b60008c8152600760205260409020600201549094506119e8908661107c565b60008c8152600760205260408082206002808201949094558b8352908220928301829055600192830180547fffffffffffffffffffff00ffffffffffffffffffffffffffffffffffffffffff908116909155918e90529190910180549091167501000000000000000000000000000000000000000000179055611a6d8b8987876127c7565b611cc9565b8515611cc957600b5460008c8152600760205260409020600101546001600160a01b0390811691161415611cc957600086815260076020526040902060020154611abc9088612791565b60008c8152600760205260409020600201549094508410611c155760008b8152600760205260409020600201549350611af58488612740565b600087815260076020526040902060020154909550611b14908661107c565b60008781526007602052604080822060029081019384558e83529082200181905587905254611b7957600086815260076020526040902060010180547fffffffffffffffffffff00ffffffffffffffffffffffffffffffffffffffffff169055611bd2565b600086815260076020526040902060010180547fffffffffffffffffffff00ffffffffffffffffffffffffffffffffffffffffff167501000000000000000000000000000000000000000000179055611bd28787611092565b60008b815260076020526040902060010180547fffffffffffffffffffff00ffffffffffffffffffffffffffffffffffffffffff169055611a6d8b8787876127c7565b8315611cc957611c258488612740565b60008c815260076020526040902060020154909550611c44908561107c565b60008c815260076020526040808220600280820194909455898352908220928301829055600192830180547fffffffffffffffffffff00ffffffffffffffffffffffffffffffffffffffffff908116909155918e90529190910180549091167501000000000000000000000000000000000000000000179055611cc98b8787876127c7565b6001909201916114f3565b6000808c8152600760205260409020600101547501000000000000000000000000000000000000000000900460ff166004811115611d0e57fe5b1415611d5557600a5460008c81526007602052604081206001015490916001600160a01b03918216911614611d44576001611d47565b60005b9050611d538c82611dcc565b505b50989998505050505050505050565b600080546001600160a01b038381167fffffffffffffffffffffffff0000000000000000000000000000000000000000831681178455604051919092169283917f8be0079c531659141344cd1fd0a4f28419497f9722a3daafe3b4186f6b6457e09190a35050565b8015611ea357600082815260026020526040902054611df357611ded612acf565b50611e9e565b60018054611e01908261107c565b81548110611e0b57fe5b90600052602060002090600202016001600260008581526020019081526020016000205481548110611e3957fe5b60009182526020909120825460029092020190815560019182015490820155805480611e6157fe5b60008281526020812060027fffffffffffffffffffffffffffffffffffffffffffffffffffffffffffffffff909301928302018181556001015590555b610fbf565b600082815260046020526040902054611ec457611ebe612c4c565b50610fbf565b60038054611ed390600161107c565b81548110611edd57fe5b90600052602060002090600202016003600460008581526020019081526020016000205481548110611f0b57fe5b6000918252602090912082546002909202019081556001918201549101556003805480611f3457fe5b60008281526020812060027fffffffffffffffffffffffffffffffffffffffffffffffffffffffffffffffff909301928302018181556001015590555050565b610fae817f42414c0000000000000000000000000000000000000000000000000000000000612dc1565b60018054611fab9161107c565b611fb6826002612e3c565b1015610fae576000611fc9826002612e3c565b9050600060018281548110611fda57fe5b6000918252602082206002909102015491506001611ff88482611063565b8154811061200257fe5b90600052602060002090600202016000015490508082101561202c57612029836001611063565b92505b6001838154811061203957fe5b9060005260206000209060020201600001546001858154811061205857fe5b906000526020600020906002020160000154111561207857505050610fae565b612080612f44565b6001858154811061208d57fe5b9060005260206000209060020201604051806040016040529081600082015481526020016001820154815250509050600184815481106120c957fe5b9060005260206000209060020201600186815481106120e457fe5b9060005260206000209060020201600082015481600001556001820154816001015590505084600260006001878154811061211b57fe5b906000526020600020906002020160010154815260200190815260200160002081905550806001858154811061214d57fe5b6000918252602080832084516002938402909101908155938101516001909401939093559282015181529190526040902083905550909150611f9e9050565b60035461219a90600161107c565b6121a5826002612e3c565b1015610fae5760006121b8826002612e3c565b90506000600382815481106121c957fe5b60009182526020822060029091020154915060036121e8846001611063565b815481106121f257fe5b90600052602060002090600202016000015490508082111561221c57612219836001611063565b92505b6003838154811061222957fe5b9060005260206000209060020201600001546003858154811061224857fe5b906000526020600020906002020160000154101561226857505050610fae565b612270612f44565b6003858154811061227d57fe5b9060005260206000209060020201604051806040016040529081600082015481526020016001820154815250509050600384815481106122b957fe5b9060005260206000209060020201600386815481106122d457fe5b9060005260206000209060020201600082015481600001556001820154816001015590505084600460006003878154811061230b57fe5b906000526020600020906002020160010154815260200190815260200160002081905550806003858154811061233d57fe5b6000918252602080832084516002909302019182559283015160019091015591810151825260049052604090208390555090915061218c9050565b60008161238e576123898484612e56565b612398565b6123988484612e76565b949350505050565b600a5460008381526007602052604081206001015490916060918391829184916001600160a01b0391821691161461242b5760035467ffffffffffffffff811180156123eb57600080fd5b5060405190808252806020026020018201604052801561242557816020015b612412612f44565b81526020019060019003908161240a5790505b50612480565b60015467ffffffffffffffff8111801561244457600080fd5b5060405190808252806020026020018201604052801561247e57816020015b61246b612f44565b8152602001906001900390816124635790505b505b600a54600089815260076020526040812060010154929350916001600160a01b03908116911614156125f9575b600154156125f45760006124bf612ea9565b9050801580156124cd575087155b156124f157600654156124e657506006549650866124ec565b506125f4565b612506565b801580156124fe57508715155b156125065750865b8781101561251457506125f4565b61251c612acf565b83838151811061252857fe5b602002602001018190525060008084848151811061254257fe5b602002602001015160000151116125595781612572565b83838151811061256557fe5b6020026020010151600001515b90506125bd856125b8836007600089898151811061258c57fe5b60200260200101516020015181526020019081526020016000206002015461274090919063ffffffff16565b611063565b60008b81526007602052604090206002015490955085106125ea5750929550909350859250612739915050565b50506001016124ad565b61272f565b600b546000898152600760205260409020600101546001600160a01b039081169116141561272f575b60035415801590612642575086612637612ed0565b111580612642575086155b1561272f576000612651612ed0565b90508015801561265f575087155b156126835760065415612678575060065496508661267e565b5061272f565b612698565b8015801561269057508715155b156126985750865b6126a0612c4c565b8383815181106126ac57fe5b60200260200101819052506126fb846125b8600760008787815181106126ce57fe5b6020026020010151602001518152602001908152602001600020600201548461279190919063ffffffff16565b60008a8152600760205260409020600201549094508410612726575091945092508491506127399050565b50600101612622565b5090935091508390505b9250925092565b600061274f8215156004610fb1565b8261275c5750600061080e565b670de0b6b3a76400008381029061277f9085838161277657fe5b04146005610fb1565b82818161278857fe5b0491505061080e565b60008282026127b58415806127ae5750838583816127ab57fe5b04145b6003610fb1565b670de0b6b3a764000090049392505050565b60058054600101908190556127da612f0f565b6040518060c001604052806007600089815260200190815260200160002060000160009054906101000a90046001600160a01b03166001600160a01b031681526020018781526020018681526020018381526020018581526020018481525090508060086000600760008a815260200190815260200160002060000160009054906101000a90046001600160a01b03166001600160a01b03166001600160a01b03168152602001908152602001600020600084815260200190815260200160002060008201518160000160006101000a8154816001600160a01b0302191690836001600160a01b031602179055506020820151816001015560408201518160020155606082015181600301556080820151816004015560a0820151816005015590505080600860006007600089815260200190815260200160002060000160009054906101000a90046001600160a01b03166001600160a01b03166001600160a01b03168152602001908152602001600020600084815260200190815260200160002060008201518160000160006101000a8154816001600160a01b0302191690836001600160a01b031602179055506020820151816001015560408201518160020155606082015181600301556080820151816004015560a08201518160050155905050600960006007600089815260200190815260200160002060000160009054906101000a90046001600160a01b03166001600160a01b03166001600160a01b0316815260200190815260200160002081606001519080600181540180825580915050600190039060005260206000200160009091909190915055600960006007600088815260200190815260200160002060000160009054906101000a90046001600160a01b03166001600160a01b03166001600160a01b0316815260200190815260200160002081606001519080600181540180825580915050600190039060005260206000200160009091909190915055612ac4848461274090919063ffffffff16565b600655505050505050565b612ad7612f44565b600154612b10576040517f08c379a000000000000000000000000000000000000000000000000000000000815260040161036490613322565b612b18612f44565b6001600081548110612b2657fe5b90600052602060002090600202016040518060400160405290816000820154815260200160018201548152505090506001612b67600180549050600161107c565b81548110612b7157fe5b90600052602060002090600202016001600081548110612b8d57fe5b906000526020600020906002020160008201548160000155600182015481600101559050506000600260006001600081548110612bc657fe5b9060005260206000209060020201600101548152602001908152602001600020819055506001805480612bf557fe5b60008281526020812060027fffffffffffffffffffffffffffffffffffffffffffffffffffffffffffffffff909301928302018181556001908101829055919092555415612c4657612c4681611f9e565b50905090565b612c54612f44565b600354612c8d576040517f08c379a000000000000000000000000000000000000000000000000000000000815260040161036490613322565b612c95612f44565b6003600081548110612ca357fe5b90600052602060002090600202016040518060400160405290816000820154815260200160018201548152505090506003612ce4600380549050600161107c565b81548110612cee57fe5b90600052602060002090600202016003600081548110612d0a57fe5b906000526020600020906002020160008201548160000155600182015481600101559050506000600460006003600081548110612d4357fe5b9060005260206000209060020201600101548152602001908152602001600020819055506003805480612d7257fe5b60008281526020812060027fffffffffffffffffffffffffffffffffffffffffffffffffffffffffffffffff90930192830201818155600101819055915560035415612c4657612c468161218c565b7f08c379a000000000000000000000000000000000000000000000000000000000600090815260206004526007602452600a808404818106603090810160081b958390069590950190829004918206850160101b01602363ffffff0060e086901c160160181b0190930160c81b60445260e882901c90606490fd5b60008282026110758415806127ae5750838583816127ab57fe5b6000612e658215156004610fb1565b818381612e6e57fe5b049392505050565b6000612e858215156004610fb1565b82612e925750600061080e565b816001840381612e9e57fe5b04600101905061080e565b60006001600081548110612eb957fe5b906000526020600020906002020160000154905090565b60006003600081548110612eb957fe5b6040805160a0810182526000808252602082018190529091820190815260200160008152602001600081525090565b6040805160c081018252600080825260208201819052918101829052606081018290526080810182905260a081019190915290565b604080518082019091526000808252602082015290565b803561080e8161353d565b600082601f830112612f76578081fd5b813567ffffffffffffffff811115612f8c578182fd5b612fbd60207fffffffffffffffffffffffffffffffffffffffffffffffffffffffffffffffe0601f84011601613516565b9150808252836020828501011115612fd457600080fd5b8060208401602084013760009082016020015292915050565b80356002811061080e57600080fd5b600061012080838503121561300f578182fd5b61301881613516565b9150506130258383612fed565b81526130348360208401612f5b565b60208201526130468360408401612f5b565b6040820152606082013560608201526080820135608082015260a082013560a08201526130768360c08401612f5b565b60c08201526130888360e08401612f5b565b60e08201526101008083013567ffffffffffffffff8111156130a957600080fd5b6130b585828601612f66565b82840152505092915050565b6000602082840312156130d2578081fd5b81356110758161353d565b600080604083850312156130ef578081fd5b82356130fa8161353d565b946020939093013593505050565b600060208284031215613119578081fd5b5035919050565b600060208284031215613131578081fd5b5051919050565b6000806040838503121561314a578182fd5b82359150602083013561315c8161353d565b809150509250929050565b60008060006060848603121561317b578081fd5b505081359360208301359350604090920135919050565b6000806000606084860312156131a6578283fd5b8335925060208401359150604084013567ffffffffffffffff8111156131ca578182fd5b6131d686828701612ffc565b9150509250925092565b60008060006060848603121561317b578283fd5b6000808284036060811215613207578283fd5b833567ffffffffffffffff81111561321d578384fd5b61322986828701612ffc565b93505060407fffffffffffffffffffffffffffffffffffffffffffffffffffffffffffffffe08201121561325b578182fd5b506132666040613516565b602084013560038110613277578283fd5b81526040939093013560208401525092909150565b60609290921b7fffffffffffffffffffffffffffffffffffffffff000000000000000000000000168252601482015260340190565b6001600160a01b0391909116815260200190565b6020808252825182820181905260009190848201906040850190845b8181101561330d578351835292840192918401916001016132f1565b50909695505050505050565b90815260200190565b60208082526012908201527f4f72646572626f6f6b20697320656d7074790000000000000000000000000000604082015260600190565b6020808252601d908201527f556e617574686f72697a65642061636365737320746f206f7264657273000000604082015260600190565b60208082526013908201527f556e617574686f72697a65642061636365737300000000000000000000000000604082015260600190565b6020808252601b908201527f53656e646572206973206e6f74206f726465722063726561746f720000000000604082015260600190565b60208082526017908201527f4f7264657220697320616c72656164792066696c6c6564000000000000000000604082015260600190565b6020808252601d908201527f556e617574686f72697a65642061636365737320746f20747261646573000000604082015260600190565b600060a0820190506001600160a01b038084511683528060208501511660208401525060408301516003811061349e57fe5b60408301526060830151600581106134b257fe5b806060840152506080830151608083015292915050565b600060c0820190506001600160a01b0383511682526020830151602083015260408301516040830152606083015160608301526080830151608083015260a083015160a083015292915050565b60405181810167ffffffffffffffff8111828210171561353557600080fd5b604052919050565b6001600160a01b0381168114610fae57600080fdfea264697066735822122050c8b983d7fa1bfb13c75124956e0fd48bc8b99ba164047bae9f331f2a24f64964736f6c63430007010033",
  "linkReferences": {},
  "deployedLinkReferences": {}
}