{
  "_format": "hh-sol-artifact-1",
  "contractName": "SecondaryIssuePoolFactory",
  "sourceName": "contracts/SecondaryIssuePoolFactory.sol",
  "abi": [
    {
      "inputs": [
        {
          "internalType": "contract IVault",
          "name": "vault",
          "type": "address"
        },
        {
          "internalType": "contract IProtocolFeePercentagesProvider",
          "name": "protocolFeeProvider",
          "type": "address"
        }
      ],
      "stateMutability": "nonpayable",
      "type": "constructor"
    },
    {
      "anonymous": false,
      "inputs": [],
      "name": "FactoryDisabled",
      "type": "event"
    },
    {
      "anonymous": false,
      "inputs": [
        {
          "indexed": true,
          "internalType": "address",
          "name": "pool",
          "type": "address"
        }
      ],
      "name": "PoolCreated",
      "type": "event"
    },
    {
      "inputs": [
        {
          "internalType": "string",
          "name": "name",
          "type": "string"
        },
        {
          "internalType": "string",
          "name": "symbol",
          "type": "string"
        },
        {
          "internalType": "address",
          "name": "security",
          "type": "address"
        },
        {
          "internalType": "address",
          "name": "currency",
          "type": "address"
        },
        {
          "internalType": "uint256",
          "name": "minOrderSize",
          "type": "uint256"
        },
        {
          "internalType": "uint256",
          "name": "tradeFeePercentage",
          "type": "uint256"
        }
      ],
      "name": "create",
      "outputs": [
        {
          "internalType": "address",
          "name": "",
          "type": "address"
        }
      ],
      "stateMutability": "nonpayable",
      "type": "function"
    },
    {
      "inputs": [],
      "name": "disable",
      "outputs": [],
      "stateMutability": "nonpayable",
      "type": "function"
    },
    {
      "inputs": [
        {
          "internalType": "bytes4",
          "name": "selector",
          "type": "bytes4"
        }
      ],
      "name": "getActionId",
      "outputs": [
        {
          "internalType": "bytes32",
          "name": "",
          "type": "bytes32"
        }
      ],
      "stateMutability": "view",
      "type": "function"
    },
    {
      "inputs": [],
      "name": "getAuthorizer",
      "outputs": [
        {
          "internalType": "contract IAuthorizer",
          "name": "",
          "type": "address"
        }
      ],
      "stateMutability": "view",
      "type": "function"
    },
    {
      "inputs": [],
      "name": "getCreationCode",
      "outputs": [
        {
          "internalType": "bytes",
          "name": "",
          "type": "bytes"
        }
      ],
      "stateMutability": "view",
      "type": "function"
    },
    {
      "inputs": [],
      "name": "getCreationCodeContracts",
      "outputs": [
        {
          "internalType": "address",
          "name": "contractA",
          "type": "address"
        },
        {
          "internalType": "address",
          "name": "contractB",
          "type": "address"
        }
      ],
      "stateMutability": "view",
      "type": "function"
    },
    {
      "inputs": [],
      "name": "getPauseConfiguration",
      "outputs": [
        {
          "internalType": "uint256",
          "name": "pauseWindowDuration",
          "type": "uint256"
        },
        {
          "internalType": "uint256",
          "name": "bufferPeriodDuration",
          "type": "uint256"
        }
      ],
      "stateMutability": "view",
      "type": "function"
    },
    {
      "inputs": [],
      "name": "getProtocolFeePercentagesProvider",
      "outputs": [
        {
          "internalType": "contract IProtocolFeePercentagesProvider",
          "name": "",
          "type": "address"
        }
      ],
      "stateMutability": "view",
      "type": "function"
    },
    {
      "inputs": [],
      "name": "getVault",
      "outputs": [
        {
          "internalType": "contract IVault",
          "name": "",
          "type": "address"
        }
      ],
      "stateMutability": "view",
      "type": "function"
    },
    {
      "inputs": [],
      "name": "isDisabled",
      "outputs": [
        {
          "internalType": "bool",
          "name": "",
          "type": "bool"
        }
      ],
      "stateMutability": "view",
      "type": "function"
    },
    {
      "inputs": [
        {
          "internalType": "address",
          "name": "pool",
          "type": "address"
        }
      ],
      "name": "isPoolFromFactory",
      "outputs": [
        {
          "internalType": "bool",
          "name": "",
          "type": "bool"
        }
      ],
      "stateMutability": "view",
      "type": "function"
    }
  ],
  "bytecode": "0x6101806040523480156200001257600080fd5b50604051620092f1380380620092f18339810160408190526200003591620001fc565b8181604051806020016200004990620001ee565b601f1982820381018352601f90910116604052805183903090839060006002820460a081905280830360e08190528185529091508362000095816200010f602090811b6200043717901c565b60601b6001600160601b0319166080528285018051838252620000c4826200010f602090811b6200043717901c565b6001600160601b0319606091821b811660c05296909352905261010095909552505092821b831661012052509290921b90911661014052505050426276a70001610160525062000250565b80517f602038038060206000396000f3fefefefefefefefefefefefefefefefefefefe808352600091602081018484f090845291506200015d6001600160a01b03831615156101ac62000163565b50919050565b816200017457620001748162000178565b5050565b6200018a816210905360ea1b6200018d565b50565b62461bcd60e51b600090815260206004526007602452600a808404818106603090810160081b958390069590950190829004918206850160101b01602363ffffff0060e086901c160160181b0190930160c81b60445260e882901c90606490fd5b6185678062000d8a83390190565b600080604083850312156200020f578182fd5b82516200021c816200023a565b60208401519092506200022f816200023a565b809150509250929050565b6001600160a01b03811681146200018a57600080fd5b60805160601c60a05160c05160601c60e051610100516101205160601c6101405160601c61016051610ac1620002c9600039806101ec52806102155250806102c052508061039b52508061034b5250806104915250806101c3528061050d5250806104b25250806101a252806104e95250610ac16000f3fe608060405234801561001057600080fd5b50600436106100a85760003560e01c80636c57f5a9116100715780636c57f5a914610121578063739238d61461012957806374dcc7a41461013e578063851c1bb3146101515780638d928af814610171578063aaabadc514610179576100a8565b8062c194db146100ad578063174481fa146100cb5780632da47c40146100e15780632f2770db146100f75780636634b75314610101575b600080fd5b6100b5610181565b6040516100c2919061098e565b60405180910390f35b6100d36101a0565b6040516100c2929190610941565b6100e96101e6565b6040516100c2929190610a68565b6100ff610250565b005b61011461010f3660046107c7565b610297565b6040516100c2919061095b565b6101146102b5565b6101316102be565b6040516100c2919061092d565b61013161014c366004610847565b6102e2565b61016461015f366004610803565b610347565b6040516100c29190610966565b610131610399565b6101316103bd565b606061019b60405180602001604052806000815250610489565b905090565b7f00000000000000000000000000000000000000000000000000000000000000007f00000000000000000000000000000000000000000000000000000000000000009091565b600080427f000000000000000000000000000000000000000000000000000000000000000081101561024257807f000000000000000000000000000000000000000000000000000000000000000003925062278d00915061024b565b60009250600091505b509091565b610258610562565b610260610593565b6001805460ff1916811790556040517f432acbfd662dbb5d8b378384a67159b47ca9d0f1b79f97cf64cf8585fa362d5090600090a1565b6001600160a01b031660009081526020819052604090205460ff1690565b60015460ff1690565b7f000000000000000000000000000000000000000000000000000000000000000090565b60008060006102ef6101e6565b915091506103386102fe610399565b8c8c8c8c8c8c8c8c8b8b336040516020016103249c9b9a999897969594939291906109e1565b6040516020818303038152906040526105a8565b9b9a5050505050505050505050565b60007f00000000000000000000000000000000000000000000000000000000000000008260405160200161037c929190610915565b604051602081830303815290604052805190602001209050919050565b7f000000000000000000000000000000000000000000000000000000000000000090565b60006103c7610399565b6001600160a01b031663aaabadc56040518163ffffffff1660e01b815260040160206040518083038186803b1580156103ff57600080fd5b505afa158015610413573d6000803e3d6000fd5b505050506040513d601f19601f8201168201806040525081019061019b919061082b565b80517f602038038060206000396000f3fefefefefefefefefefefefefefefefefefefe808352600091602081018484f090845291506104836001600160a01b03831615156101ac610611565b50919050565b8051604080517f00000000000000000000000000000000000000000000000000000000000000007f0000000000000000000000000000000000000000000000000000000000000000818101858101848101602090810190965280855293957f00000000000000000000000000000000000000000000000000000000000000009592947f000000000000000000000000000000000000000000000000000000000000000094938801866000828a3c846000888301883c5060208981019089850101610554818386610623565b505050505050505050919050565b60006105796000356001600160e01b031916610347565b90506105906105888233610661565b610191610611565b50565b6105a661059e6102b5565b1560d3610611565b565b60006105b2610593565b60006105bd836106f1565b6001600160a01b038116600081815260208190526040808220805460ff191660011790555192935090917f83a48fbcfc991335314e74d0496aab6a1987e992ddc85dddbcc4d6dd6ef2e9fc9190a292915050565b8161061f5761061f81610725565b5050565b5b60208110610643578151835260209283019290910190601f1901610624565b905182516020929092036101000a6000190180199091169116179052565b600061066b6103bd565b6001600160a01b0316639be2a8848484306040518463ffffffff1660e01b815260040161069a9392919061096f565b60206040518083038186803b1580156106b257600080fd5b505afa1580156106c6573d6000803e3d6000fd5b505050506040513d601f19601f820116820180604052508101906106ea91906107e3565b9392505050565b600060606106fe83610489565b905060008151602083016000f090506001600160a01b0381166106ea573d6000803e3d6000fd5b62461bcd60e51b600090815260206004526007602452600a808304818106603090810160081b83860601918390049283060160101b016642414c230000300160c81b604452610590916210905360ea1b906242414c90606490fd5b60008083601f840112610791578182fd5b50813567ffffffffffffffff8111156107a8578182fd5b6020830191508360208285010111156107c057600080fd5b9250929050565b6000602082840312156107d8578081fd5b81356106ea81610a76565b6000602082840312156107f4578081fd5b815180151581146106ea578182fd5b600060208284031215610814578081fd5b81356001600160e01b0319811681146106ea578182fd5b60006020828403121561083c578081fd5b81516106ea81610a76565b60008060008060008060008060c0898b031215610862578384fd5b883567ffffffffffffffff80821115610879578586fd5b6108858c838d01610780565b909a50985060208b013591508082111561089d578586fd5b506108aa8b828c01610780565b90975095505060408901356108be81610a76565b935060608901356108ce81610a76565b979a969950949793969295929450505060808201359160a0013590565b60008284528282602086013780602084860101526020601f19601f85011685010190509392505050565b9182526001600160e01b031916602082015260240190565b6001600160a01b0391909116815260200190565b6001600160a01b0392831681529116602082015260400190565b901515815260200190565b90815260200190565b9283526001600160a01b03918216602084015216604082015260600190565b6000602080835283518082850152825b818110156109ba5785810183015185820160400152820161099e565b818111156109cb5783604083870101525b50601f01601f1916929092016040019392505050565b6001600160a01b038d16815261014060208201819052600090610a079083018d8f6108eb565b8281036040840152610a1a818c8e6108eb565b6001600160a01b039a8b166060850152988a166080840152505060a081019590955260c085019390935260e08401919091526101008301529092166101209092019190915295945050505050565b918252602082015260400190565b6001600160a01b038116811461059057600080fdfea2646970667358221220675e7e0a2a88b9d498882cbe10d02f149a223309b1e166505f4a454230fdb2da64736f6c634300070100336102e06040523480156200001257600080fd5b506040516200856738038062008567833981016040819052620000359162000b88565b8960008a8a620000478b8b30620004d1565b6040805160038082526080820190925290602082016060803683370190505089898989828289898d85336001600160a01b031660001b8480604051806040016040528060018152602001603160f81b81525087878160039080519060200190620000b3929190620009f2565b508051620000c9906004906020840190620009f2565b50506005805460ff19166012179055508151602092830120608052805191012060a052507f8b73c3c69bb8fe3d512ecc4cf759cc79239f7b179b0ffacaa9a75d522b39400f60c05260e0526001600160601b0319606091821b81166101005291901b1661012052506200014790506276a700831115610194620005a0565b6200015b62278d00821115610195620005a0565b42909101610140819052016101605285516200017d906002111560c8620005a0565b620001976200018b620005b5565b8751111560c9620005a0565b620001ad86620005ba60201b620020fb1760201c565b620001b884620005c6565b6040516309b2760f60e01b81526000906001600160a01b038c16906309b2760f90620001e9908d9060040162000d51565b602060405180830381600087803b1580156200020457600080fd5b505af115801562000219573d6000803e3d6000fd5b505050506040513d601f19601f820116820180604052508101906200023f919062000b50565b604051633354e3e960e11b81529091506001600160a01b038c16906366a9c7d290620002749084908b908b9060040162000cb5565b600060405180830381600087803b1580156200028f57600080fd5b505af1158015620002a4573d6000803e3d6000fd5b505050508061018081815250508a6001600160a01b031663d2946c2b6040518163ffffffff1660e01b815260040160206040518083038186803b158015620002eb57600080fd5b505afa15801562000300573d6000803e3d6000fd5b505050506040513d601f19601f8201168201806040525081019062000326919062000b69565b6001600160a01b03166101a0816001600160a01b031660601b815250505050505050505050505050866001600160a01b03166101c0816001600160a01b031660601b81525050856001600160a01b03166101e0816001600160a01b031660601b8152505089600a60006101000a8154816001600160a01b0302191690836001600160a01b031602179055506000806000620003c98a8a306200065a60201b60201c565b6102608190526102808390526102a082905291945092509050620003ed8a62000750565b61020052620003fc8962000750565b610220526102408890526001600160601b0319606085901b166102c05260405184908b908b9030906200042f9062000a77565b6200043e949392919062000c8a565b604051809103906000f0801580156200045b573d6000803e3d6000fd5b50600980546001600160a01b0319166001600160a01b0392831617908190556040518c8316927f32e7b5e5c88bb4ec1dca71e1e00fc2444e236858d09faa9ddbb9d8c710549ecb92620004b6928d928f9216908a9062000d6f565b60405180910390a25050505050505050505050505062000db8565b606060008080620004e48787876200065a565b60408051600380825260808201909252939650919450925060208201606080368337019050509350868484815181106200051a57fe5b60200260200101906001600160a01b031690816001600160a01b031681525050858483815181106200054857fe5b60200260200101906001600160a01b031690816001600160a01b031681525050848482815181106200057657fe5b60200260200101906001600160a01b031690816001600160a01b0316815250505050509392505050565b81620005b157620005b18162000824565b5050565b600390565b80620005b18162000839565b620005df620005d4620008c5565b82101560cb620005a0565b620005f8620005ed620008ce565b82111560ca620005a0565b6200061a8160c0603f600854620008da60201b6200210517909392919060201c565b6008556040517fa9ba3ffe0b6c366b81232caab38605a0699ad5398d6cce76f91ee809e322dafc906200064f90839062000d66565b60405180910390a150565b6000806000846001600160a01b0316866001600160a01b03161015620006e357836001600160a01b0316856001600160a01b03161015620006a657506000915060019050600262000747565b836001600160a01b0316866001600160a01b03161015620006d257506000915060029050600162000747565b506001915060029050600062000747565b846001600160a01b0316846001600160a01b031610156200070f57506002915060019050600062000747565b856001600160a01b0316846001600160a01b031610156200073b57506002915060009050600162000747565b50600191506000905060025b93509350939050565b60006001600160a01b038216301415620007745750670de0b6b3a76400006200081f565b6000826001600160a01b031663313ce5676040518163ffffffff1660e01b815260040160206040518083038186803b158015620007b057600080fd5b505afa158015620007c5573d6000803e3d6000fd5b505050506040513d601f19601f82011682018060405250810190620007eb919062000c67565b60ff16905060006200080a601283620008ff60201b620021281760201c565b905080600a0a670de0b6b3a764000002925050505b919050565b62000836816210905360ea1b6200091c565b50565b6002815110156200084a5762000836565b6000816000815181106200085a57fe5b602002602001015190506000600190505b8251811015620008c05760008382815181106200088457fe5b60200260200101519050620008b5816001600160a01b0316846001600160a01b0316106065620005a060201b60201c565b91506001016200086b565b505050565b64e8d4a5100090565b67016345785d8a000090565b6000620008e98484846200097d565b506001901b60001901811b1992909216911b1790565b600062000911838311156001620005a0565b508082035b92915050565b62461bcd60e51b600090815260206004526007602452600a808404818106603090810160081b958390069590950190829004918206850160101b01602363ffffff0060e086901c160160181b0190930160c81b60445260e882901c90606490fd5b6200098e61010083106064620005a0565b620009c760018210158015620009bf5750620009bb60ff8461010003620009d860201b6200213e1760201c565b8211155b6064620005a0565b620008c083821c156101b4620005a0565b6000818310620009e95781620009eb565b825b9392505050565b828054600181600116156101000203166002900490600052602060002090601f016020900481019282601f1062000a3557805160ff191683800117855562000a65565b8280016001018555821562000a65579182015b8281111562000a6557825182559160200191906001019062000a48565b5062000a7392915062000a85565b5090565b613225806200534283390190565b5b8082111562000a73576000815560010162000a86565b8051620009168162000da2565b600082601f83011262000aba578081fd5b81516001600160401b038082111562000ad1578283fd5b6040516020601f8401601f191682018101838111838210171562000af3578586fd5b8060405250819450838252868185880101111562000b1057600080fd5b600092505b8383101562000b34578583018101518284018201529182019162000b15565b8383111562000b465760008185840101525b5050505092915050565b60006020828403121562000b62578081fd5b5051919050565b60006020828403121562000b7b578081fd5b8151620009eb8162000da2565b6000806000806000806000806000806101408b8d03121562000ba8578586fd5b62000bb48c8c62000a9c565b60208c0151909a506001600160401b038082111562000bd1578788fd5b62000bdf8e838f0162000aa9565b9a5060408d015191508082111562000bf5578788fd5b5062000c048d828e0162000aa9565b98505062000c168c60608d0162000a9c565b965062000c278c60808d0162000a9c565b955060a08b0151945060c08b0151935060e08b015192506101008b0151915062000c568c6101208d0162000a9c565b90509295989b9194979a5092959850565b60006020828403121562000c79578081fd5b815160ff81168114620009eb578182fd5b6001600160a01b03948516815292841660208401529083166040830152909116606082015260800190565b60006060820185835260206060818501528186518084526080860191508288019350845b8181101562000d015762000cee855162000d96565b8352938301939183019160010162000cd9565b505084810360408601528551808252908201925081860190845b8181101562000d435762000d30835162000d96565b8552938301939183019160010162000d1b565b509298975050505050505050565b602081016003831062000d6057fe5b91905290565b90815260200190565b9384526001600160a01b039283166020850152908216604084015216606082015260800190565b6001600160a01b031690565b6001600160a01b03811681146200083657600080fd5b60805160a05160c05160e0516101005160601c6101205160601c6101405161016051610180516101a05160601c6101c05160601c6101e05160601c61020051610220516102405161026051610280516102a0516102c05160601c61441162000f31600039806110815280612c2a5250806107b2528061223e5280612c965280612cf052508061086452806121d85250806108e8528061157c528061173d528061177a52806117b852806122935250806116455280611b2452508061103e52806122665280612cc952508061100a5280612200525080610582528061061852806107565280610b845280610c155280610fbf528061120552806116c85280611bc25250806105c1528061065852806108085280610a155280610afb5280610c795280610ce752806111c652806116895280611a5e525080611ed5525080611ab152508061248f52508061246b525080611dbd525080611d99525080611d23525080612d81525080612dc3525080612da252506144116000f3fe608060405234801561001057600080fd5b50600436106102535760003560e01c806370a0823111610146578063a457c2d7116100c3578063d2946c2b11610087578063d2946c2b14610499578063d505accf146104a1578063d5c096c4146104b4578063dd62ed3e146104c7578063ed24911d146104da578063fd19cac8146104e257610253565b8063a457c2d71461045b578063a9059cbb1461046e578063aaabadc514610481578063b35056b814610489578063b7b814fc1461049157610253565b806387ec68171161010a57806387ec68171461041d578063893d20e8146104305780638d928af81461043857806390193b7c1461044057806395d89b411461045357610253565b806370a08231146103bb57806374f3b009146103ce5780637ecebe00146103ef5780638456cb5914610402578063851c1bb31461040a57610253565b806338e9922e116101d457806350dd6ed91161019857806350dd6ed91461036f57806354a844ba1461038257806355c676281461038a5780636028bfd4146103925780636945c1fd146103b357610253565b806338e9922e1461032f57806338fff2d014610344578063395093511461034c5780633f4ba83a1461035f5780634d6d0fd01461036757610253565b80631dd746ea1161021b5780631dd746ea146102d557806323b872dd146102ea5780632541897f146102fd578063313ce567146103125780633644e5151461032757610253565b806301ec954a1461025857806306fdde0314610281578063095ea7b31461029657806318160ddd146102b65780631c0de051146102be575b600080fd5b61026b610266366004613a17565b6104ea565b6040516102789190613eef565b60405180910390f35b6102896118fd565b6040516102789190614033565b6102a96102a4366004613769565b611993565b6040516102789190613ecc565b61026b6119aa565b6102c66119b0565b60405161027893929190613ed7565b6102dd6119d9565b6040516102789190613e8b565b6102a96102f83660046136b9565b6119e8565b610305611a5c565b6040516102789190613e1d565b61031a611a80565b6040516102789190614335565b61026b611a89565b61034261033d366004613c16565b611a93565b005b61026b611aaf565b6102a961035a366004613769565b611ad3565b610342611b0e565b61026b611b22565b61034261037d3660046138d6565b611b46565b610342611b64565b61026b611b76565b6103a56103a03660046137cc565b611b89565b60405161027892919061431c565b610305611bc0565b61026b6103c9366004613665565b611be4565b6103e16103dc3660046137cc565b611bff565b604051610278929190613e9e565b61026b6103fd366004613665565b611d02565b610342611d0d565b61026b610418366004613892565b611d1f565b6103a561042b3660046137cc565b611d71565b610305611d97565b610305611dbb565b61026b61044e366004613665565b611ddf565b610289611dfa565b6102a9610469366004613769565b611e5b565b6102a961047c366004613769565b611e99565b610305611ea6565b6102a9611eb0565b610342611ec1565b610305611ed3565b6103426104af3660046136f9565b611ef7565b6103e16104c23660046137cc565b611f82565b61026b6104d5366004613681565b6120a5565b61026b6120e2565b6103056120ec565b600084608001516105176104fc611dbb565b6001600160a01b0316336001600160a01b03161460cd612156565b61052c610522611aaf565b82146101f4612156565b610534612164565b60008651600181111561054357fe5b148061055b575060018651600181111561055957fe5b145b6105805760405162461bcd60e51b81526004016105779061415e565b60405180910390fd5b7f00000000000000000000000000000000000000000000000000000000000000006001600160a01b031686604001516001600160a01b031614806105f957507f00000000000000000000000000000000000000000000000000000000000000006001600160a01b031686604001516001600160a01b0316145b80610610575060408601516001600160a01b031630145b8061065057507f00000000000000000000000000000000000000000000000000000000000000006001600160a01b031686602001516001600160a01b0316145b8061069057507f00000000000000000000000000000000000000000000000000000000000000006001600160a01b031686602001516001600160a01b0316145b806106a7575060208601516001600160a01b031630145b6106c35760405162461bcd60e51b815260040161057790614046565b60606106cd612177565b90506106d986826122ea565b6106e161352c565b6000808080808c5160018111156106f457fe5b14156107255761071b8c60600151878c8151811061070e57fe5b6020026020010151612359565b60608d0152610754565b60018c51600181111561073457fe5b14156107545761074e8c60600151878b8151811061070e57fe5b60608d01525b7f00000000000000000000000000000000000000000000000000000000000000006001600160a01b03168c602001516001600160a01b03161480156107a5575060008c5160018111156107a357fe5b145b15610806578b606001518b7f0000000000000000000000000000000000000000000000000000000000000000815181106107db57fe5b602002602001015110156108015760405162461bcd60e51b8152600401610577906140e4565b610937565b7f00000000000000000000000000000000000000000000000000000000000000006001600160a01b03168c602001516001600160a01b0316148015610857575060008c51600181111561085557fe5b145b156108b3578b606001518b7f00000000000000000000000000000000000000000000000000000000000000008151811061088d57fe5b602002602001015110156108015760405162461bcd60e51b815260040161057790614184565b60208c01516001600160a01b0316301480156108db575060008c5160018111156108d957fe5b145b15610937578b606001518b7f00000000000000000000000000000000000000000000000000000000000000008151811061091157fe5b602002602001015110156109375760405162461bcd60e51b8152600401610577906140ad565b6101008c0151511561162c578b610100015180602001905181019061095c919061386f565b909450925064131a5b5a5d60da1b91508361119057610979613543565b60095460c08e015160405163ca142f7560e01b81526001600160a01b039092169163ca142f75916109ae918890600401613e72565b60c06040518083038186803b1580156109c657600080fd5b505afa1580156109da573d6000803e3d6000fd5b505050506040513d601f19601f820116820180604052508101906109fe9190613bb0565b60095460c08f015182519293506001600160a01b037f000000000000000000000000000000000000000000000000000000000000000081169392811692635778472a92908216911614610a55578360400151610a5b565b83602001515b6040518263ffffffff1660e01b8152600401610a779190613eef565b60a06040518083038186803b158015610a8f57600080fd5b505afa158015610aa3573d6000803e3d6000fd5b505050506040513d601f19601f82011682018060405250810190610ac79190613b36565b602001516001600160a01b031614610aea576763757272656e637960c01b610af7565b67736563757269747960c01b5b92507f00000000000000000000000000000000000000000000000000000000000000006001600160a01b03168d604001516001600160a01b0316148015610b4a575060008d516001811115610b4857fe5b145b15610b8257806080015191508c606001518160a0015114610b7d5760405162461bcd60e51b81526004016105779061420b565b610c11565b7f00000000000000000000000000000000000000000000000000000000000000006001600160a01b03168d604001516001600160a01b0316148015610bd3575060008d516001811115610bd157fe5b145b15610c06578060a0015191508c60600151816080015114610b7d5760405162461bcd60e51b8152600401610577906141bb565b610c11610163612365565b60007f00000000000000000000000000000000000000000000000000000000000000006001600160a01b03168e604001516001600160a01b0316148015610c64575060208e01516001600160a01b031630145b15610c7757506314d95b1b60e21b610ce5565b7f00000000000000000000000000000000000000000000000000000000000000006001600160a01b03168e604001516001600160a01b0316148015610cc8575060208e01516001600160a01b031630145b15610cda57506242757960e81b610ce5565b610ce5610163612365565b7f00000000000000000000000000000000000000000000000000000000000000006001600160a01b03167fd6a806535ec4f172139ede2e9d6bbbe20957ca8a454fd40c9747fe139efe42478f60c001516001600160a01b031684600001516001600160a01b031614610d5b578360400151610d61565b83602001515b67736563757269747960c01b8714610dfc576009546040808701519051632bbc239560e11b81526001600160a01b0390921691635778472a91610da691600401613eef565b60a06040518083038186803b158015610dbe57600080fd5b505afa158015610dd2573d6000803e3d6000fd5b505050506040513d601f19601f82011682018060405250810190610df69190613b36565b51610e81565b6009546020860151604051632bbc239560e11b81526001600160a01b0390921691635778472a91610e2f91600401613eef565b60a06040518083038186803b158015610e4757600080fd5b505afa158015610e5b573d6000803e3d6000fd5b505050506040513d601f19601f82011682018060405250810190610e7f9190613b36565b515b6763757272656e637960c01b8814610f1c576009546040808801519051632bbc239560e11b81526001600160a01b0390921691635778472a91610ec691600401613eef565b60a06040518083038186803b158015610ede57600080fd5b505afa158015610ef2573d6000803e3d6000fd5b505050506040513d601f19601f82011682018060405250810190610f169190613b36565b51610fa1565b6009546020870151604051632bbc239560e11b81526001600160a01b0390921691635778472a91610f4f91600401613eef565b60a06040518083038186803b158015610f6757600080fd5b505afa158015610f7b573d6000803e3d6000fd5b505050506040513d601f19601f82011682018060405250810190610f9f9190613b36565b515b85610fbd88608001518960a0015161237590919063ffffffff16565b7f00000000000000000000000000000000000000000000000000000000000000008a8a60600151604051610ff8989796959493929190613f2e565b60405180910390a261102e82608001517f00000000000000000000000000000000000000000000000000000000000000006123c6565b608083015260a0820151611062907f00000000000000000000000000000000000000000000000000000000000000006123c6565b60a08301526009546040516371eedc7f60e01b81526001600160a01b037f00000000000000000000000000000000000000000000000000000000000000008116926371eedc7f926110b992879216906004016142cb565b600060405180830381600087803b1580156110d357600080fd5b505af11580156110e7573d6000803e3d6000fd5b50505050600960009054906101000a90046001600160a01b03166001600160a01b031663d729cf6c8f60c00151876040518363ffffffff1660e01b8152600401611132929190613e72565b600060405180830381600087803b15801561114c57600080fd5b505af1158015611160573d6000803e3d6000fd5b5050505061118183898d8151811061117457fe5b60200260200101516123c6565b995050505050505050506118f4565b818414801561119e57508215155b156111bf576040805180820190915280600181526020018490529450611627565b8261138d577f00000000000000000000000000000000000000000000000000000000000000006001600160a01b03168c604001516001600160a01b0316148061123d57507f00000000000000000000000000000000000000000000000000000000000000006001600160a01b03168c604001516001600160a01b0316145b8015611255575060208c01516001600160a01b031630145b801561126d575060008c51600181111561126b57fe5b145b1561137d5760095460c08d0151604051636b0d76bd60e11b81526001600160a01b039092169163d61aed7a916112a891889190600401613ef8565b602060405180830381600087803b1580156112c257600080fd5b505af11580156112d6573d6000803e3d6000fd5b505050506040513d601f19601f820116820180604052508101906112fa91906137b4565b90508b60600151811461131f5760405162461bcd60e51b81526004016105779061411b565b6000805160206143bc8339815191528c60c001518d602001518e604001518f6060015187428a6040516113589796959493929190613e31565b60405180910390a161137081878b8151811061117457fe5b97505050505050506118f4565b611388610163612365565b611627565b821561161c5760208c01516001600160a01b0316301480156113bb575060008c5160018111156113b957fe5b145b1561149e57600960009054906101000a90046001600160a01b03166001600160a01b03166346764e5e85858f6040518463ffffffff1660e01b815260040161140593929190613ff6565b602060405180830381600087803b15801561141f57600080fd5b505af1158015611433573d6000803e3d6000fd5b505050506040513d601f19601f8201168201806040525081019061145791906137b4565b9050611467818d60600151612128565b90506000805160206143bc8339815191528c60c001518d602001518e604001518487428a6040516113589796959493929190613e31565b60408c01516001600160a01b0316301480156114c6575060008c5160018111156114c457fe5b145b1561137d57600960009054906101000a90046001600160a01b03166001600160a01b03166346764e5e85858f6040518463ffffffff1660e01b815260040161151093929190613ff6565b602060405180830381600087803b15801561152a57600080fd5b505af115801561153e573d6000803e3d6000fd5b505050506040513d601f19601f8201168201806040525081019061156291906137b4565b90506115728c60600151826123d2565b90508b606001518b7f0000000000000000000000000000000000000000000000000000000000000000815181106115a557fe5b602002602001015110156115cb5760405162461bcd60e51b81526004016105779061425b565b6000805160206143bc8339815191528c60c001518d602001518e604001518487428a6040516116009796959493929190613e31565b60405180910390a16113708c60600151878b8151811061117457fe5b611627610163612365565b611643565b604080518082019091526000808252602082015294505b7f00000000000000000000000000000000000000000000000000000000000000008c6060015110156116875760405162461bcd60e51b815260040161057790614076565b7f00000000000000000000000000000000000000000000000000000000000000006001600160a01b03168c602001516001600160a01b0316148061170057507f00000000000000000000000000000000000000000000000000000000000000006001600160a01b03168c602001516001600160a01b0316145b8015611718575060408c01516001600160a01b031630145b8015611730575060008c51600181111561172e57fe5b145b15611887578b606001518b7f00000000000000000000000000000000000000000000000000000000000000008151811061176657fe5b60200260200101511115611877576117b58b7f0000000000000000000000000000000000000000000000000000000000000000815181106117a357fe5b60200260200101518d60600151612128565b8b7f0000000000000000000000000000000000000000000000000000000000000000815181106117e157fe5b6020908102919091010152600954604051635487e8cf60e01b81526001600160a01b0390911690635487e8cf9061181e908f908990600401614292565b602060405180830381600087803b15801561183857600080fd5b505af115801561184c573d6000803e3d6000fd5b505050506040513d601f19601f8201168201806040525081019061187091906137b4565b9150611882565b611882610201612365565b611892565b611892610163612365565b6000805160206143bc8339815191528c60c001518d602001518e604001518f60600151896020015142886040516118cf9796959493929190613e31565b60405180910390a16118eb8c60600151878b8151811061117457fe5b97505050505050505b50949350505050565b60038054604080516020601f60026000196101006001881615020190951694909404938401819004810282018101909252828152606093909290918301828280156119895780601f1061195e57610100808354040283529160200191611989565b820191906000526020600020905b81548152906001019060200180831161196c57829003601f168201915b5050505050905090565b60006119a03384846123e4565b5060015b92915050565b60025490565b60008060006119bd61244c565b1592506119c8612469565b91506119d261248d565b9050909192565b60606119e3612177565b905090565b6000806119f585336120a5565b9050611a19336001600160a01b0387161480611a115750838210155b61019e612156565b611a248585856124b1565b336001600160a01b03861614801590611a3f57506000198114155b15611a5157611a5185338584036123e4565b506001949350505050565b7f000000000000000000000000000000000000000000000000000000000000000090565b60055460ff1690565b60006119e36120e2565b611a9b612591565b611aa3612164565b611aac816125bf565b50565b7f000000000000000000000000000000000000000000000000000000000000000090565b3360008181526001602090815260408083206001600160a01b038716845290915281205490916119a0918590611b0990866123d2565b6123e4565b611b16612591565b611b206000612638565b565b7f000000000000000000000000000000000000000000000000000000000000000090565b611b4e612591565b611b56612164565b611b6082826126ab565b5050565b611b6c612591565b611b2060016127a0565b6008546000906119e39060c0603f6127f7565b60006060611b9f8651611b9a612806565b61280b565b611bb48989898989898961281861286a6128d3565b97509795505050505050565b7f000000000000000000000000000000000000000000000000000000000000000090565b6001600160a01b031660009081526020819052604090205490565b60608088611c0e6104fc611dbb565b611c19610522611aaf565b60606000611c26866129fd565b15611c4e57611c33612a2c565b611c4589611c3f6119aa565b88612a3f565b92509050611ca0565b611c56612a6b565b6060611c60612177565b9050611c6c8a826122ea565b611c908d8d8d8d8d611c7c611eb0565b611c86578d611c89565b60005b878e612818565b93509150611c9e838261286a565b505b611caa8b82612a73565b81895167ffffffffffffffff81118015611cc357600080fd5b50604051908082528060200260200182016040528015611ced578160200160208202803683370190505b509450945050505b5097509795505050505050565b60006119a482611ddf565b611d15612591565b611b206001612638565b60007f000000000000000000000000000000000000000000000000000000000000000082604051602001611d54929190613dda565b604051602081830303815290604052805190602001209050919050565b60006060611d828651611b9a612806565b611bb489898989898989612a7d612a996128d3565b7f000000000000000000000000000000000000000000000000000000000000000090565b7f000000000000000000000000000000000000000000000000000000000000000090565b6001600160a01b031660009081526006602052604090205490565b60048054604080516020601f60026000196101006001881615020190951694909404938401819004810282018101909252828152606093909290918301828280156119895780601f1061195e57610100808354040283529160200191611989565b600080611e6833856120a5565b9050808310611e8257611e7d338560006123e4565b611e8f565b611e8f33858584036123e4565b5060019392505050565b60006119a03384846124b1565b60006119e3612b02565b6008546000906119e39060ff612b7c565b611ec9612591565b611b2060006127a0565b7f000000000000000000000000000000000000000000000000000000000000000090565b60007f6e71edae12b1b97f4d1f60370fef10105fa2faae0126114a169c64845d6126c9888888611f268c611ddf565b89604051602001611f3c96959493929190613f75565b604051602081830303815290604052805190602001209050611f6d8882611f64878787612b86565b886101f8612bc5565b611f788888886123e4565b5050505050505050565b60608088611f916104fc611dbb565b611f9c610522611aaf565b611fa4612a6b565b6060611fae612177565b9050611fb86119aa565b6120655760006060611fcd8d8d8d868b612c1c565b91509150611fe6611fdc612d41565b83101560cc612156565b611ff86000611ff3612d41565b612d48565b61200b8b612004612d41565b8403612d48565b6120158184612a99565b808a5167ffffffffffffffff8111801561202e57600080fd5b50604051908082528060200260200182016040528015612058578160200160208202803683370190505b5095509550505050611cf5565b61206f88826122ea565b600060606120978d8d8d8d8d612083611eb0565b61208d578d612090565b60005b898e612a7d565b9150915061200b8b83612d48565b60006120af611dbb565b6001600160a01b0316826001600160a01b031614156120d157506000196119a4565b6120db8383612d52565b90506119a4565b60006119e3612d7d565b6009546001600160a01b031681565b80611b6081612e1a565b6000612112848484612e98565b506001901b60001901811b1992909216911b1790565b6000612138838311156001612156565b50900390565b600081831061214d578161214f565b825b9392505050565b81611b6057611b6081612365565b611b2061216f61244c565b610192612156565b60606000612183612806565b905060608167ffffffffffffffff8111801561219e57600080fd5b506040519080825280602002602001820160405280156121c8578160200160208202803683370190505b50905060005b828110156122e3577f000000000000000000000000000000000000000000000000000000000000000081141561223c577f000000000000000000000000000000000000000000000000000000000000000082828151811061222b57fe5b6020026020010181815250506122db565b7f0000000000000000000000000000000000000000000000000000000000000000811415612291577f000000000000000000000000000000000000000000000000000000000000000082828151811061222b57fe5b7f00000000000000000000000000000000000000000000000000000000000000008114156122db57670de0b6b3a76400008282815181106122ce57fe5b6020026020010181815250505b6001016121ce565b5091505090565b815181516122f990829061280b565b60005b818110156123535761233484828151811061231357fe5b602002602001015184838151811061232757fe5b6020026020010151612edf565b84828151811061234057fe5b60209081029190910101526001016122fc565b50505050565b600061214f8383612edf565b611aac816210905360ea1b612f15565b60006123848215156004612156565b82612391575060006119a4565b670de0b6b3a7640000838102906123b4908583816123ab57fe5b04146005612156565b8281816123bd57fe5b049150506119a4565b600061214f8383612375565b600082820161214f8482101583612156565b6001600160a01b0380841660008181526001602090815260408083209487168084529490915290819020849055517f8c5be1e5ebec7d5bd14f71427d1e84f3dd0314c0f7b2291e5b200ac8c7c3b9259061243f908590613eef565b60405180910390a3505050565b600061245661248d565b4211806119e357505060075460ff161590565b7f000000000000000000000000000000000000000000000000000000000000000090565b7f000000000000000000000000000000000000000000000000000000000000000090565b6124c86001600160a01b0384161515610198612156565b6124df6001600160a01b0383161515610199612156565b6124ea838383612e93565b6001600160a01b03831660009081526020819052604090205461251090826101a0612f76565b6001600160a01b03808516600090815260208190526040808220939093559084168152205461253f90826123d2565b6001600160a01b0380841660008181526020819052604090819020939093559151908516907fddf252ad1be2c89b69c2b068fc378daa952ba7f163c4a11628f55a4df523b3ef9061243f908590613eef565b60006125a86000356001600160e01b031916611d1f565b9050611aac6125b78233612f8c565b610191612156565b6125d46125ca613075565b82101560cb612156565b6125e96125df61307e565b82111560ca612156565b6008546125fa908260c0603f612105565b6008556040517fa9ba3ffe0b6c366b81232caab38605a0699ad5398d6cce76f91ee809e322dafc9061262d908390613eef565b60405180910390a150565b801561265857612653612649612469565b4210610193612156565b61266d565b61266d61266361248d565b42106101a9612156565b6007805460ff19168215151790556040517f9e3a5e37224532dea67b89face185703738a228a6e8a23dee546960180d3be649061262d908390613ecc565b60006126b5611aaf565b905060006126c1611dbb565b6001600160a01b031663b05f8e4883866040518363ffffffff1660e01b81526004016126ee929190613ef8565b60806040518083038186803b15801561270657600080fd5b505afa15801561271a573d6000803e3d6000fd5b505050506040513d601f19601f8201168201806040525081019061273e9190613c2e565b604051630639cdb560e21b81529094506001600160a01b03851693506318e736d49250612772915085908790600401613fd5565b600060405180830381600087803b15801561278c57600080fd5b505af1158015611f78573d6000803e3d6000fd5b6008546127af908260ff61308a565b6008556040517feff3d4d215b42bf0960be9c6d5e05c22cba4df6627a3a523e2acee733b5854c8906127e2908390613ecc565b60405180910390a180611aac57611aac611b20565b6001901b6000190191901c1690565b600390565b611b608183146067612156565b600060606000612827846130b1565b9050600181600181111561283757fe5b1461284c57612847610163612365565b61285c565b61285688856130c7565b90935091505b509850989650505050505050565b8151815161287990829061280b565b60005b81811015612353576128b484828151811061289357fe5b60200260200101518483815181106128a757fe5b6020026020010151612375565b8482815181106128c057fe5b602090810291909101015260010161287c565b333014612991576000306001600160a01b03166000366040516128f7929190613df2565b6000604051808303816000865af19150503d8060008114612934576040519150601f19603f3d011682016040523d82523d6000602084013e612939565b606091505b50509050806000811461294857fe5b60046000803e6000516001600160e01b0319166343adbafb60e01b8114612973573d6000803e3d6000fd5b506020600460003e604060205260243d03602460403e601c3d016000f35b612999612a6b565b60606129a3612177565b90506129af87826122ea565b600060606129c78c8c8c8c8c8c898d8d63ffffffff16565b915091506129d981848663ffffffff16565b8051601f1982018390526343adbafb603f1983015260200260231982016044820181fd5b60008082511180156119a4575060ff801682806020019051810190612a229190613c6e565b60ff161492915050565b611b20612a37611eb0565b6101b6612156565b600060606000612a4e8461316a565b90506060612a5d878784613180565b919791965090945050505050565b611b20612164565b611b60828261322f565b60006060612a8c610163612365565b9850989650505050505050565b81518151612aa890829061280b565b60005b8181101561235357612ae3848281518110612ac257fe5b6020026020010151848381518110612ad657fe5b60200260200101516132fb565b848281518110612aef57fe5b6020908102919091010152600101612aab565b6000612b0c611dbb565b6001600160a01b031663aaabadc56040518163ffffffff1660e01b815260040160206040518083038186803b158015612b4457600080fd5b505afa158015612b58573d6000803e3d6000fd5b505050506040513d601f19601f820116820180604052508101906119e391906138ba565b1c60019081161490565b60408051604180825260808201909252606091829190602082018180368337019050509050836020820152826040820152846060820153949350505050565b6000612bd085613349565b9050612be6612be0878387613365565b83612156565b612bf5428410156101b8612156565b5050506001600160a01b039092166000908152600660205260409020805460010190555050565b60006060612c28612164565b7f0000000000000000000000000000000000000000000000000000000000000000612c636001600160a01b0388811690831614610156612156565b612c83816001600160a01b0316876001600160a01b031614610156612156565b6060612c8e85613414565b9050612ced817f000000000000000000000000000000000000000000000000000000000000000081518110612cbf57fe5b60200260200101517f0000000000000000000000000000000000000000000000000000000000000000612359565b817f000000000000000000000000000000000000000000000000000000000000000081518110612d1957fe5b60209081029190910101526dffffffffffffffffffffffffffff999098509650505050505050565b620f424090565b611b60828261342a565b6001600160a01b03918216600090815260016020908152604080832093909416825291909152205490565b60007f00000000000000000000000000000000000000000000000000000000000000007f00000000000000000000000000000000000000000000000000000000000000007f0000000000000000000000000000000000000000000000000000000000000000612dea6134bd565b30604051602001612dff959493929190613fa9565b60405160208183030381529060405280519060200120905090565b600281511015612e2957611aac565b600081600081518110612e3857fe5b602002602001015190506000600190505b8251811015612e93576000838281518110612e6057fe5b60200260200101519050612e89816001600160a01b0316846001600160a01b0316106065612156565b9150600101612e49565b505050565b612ea761010083106064612156565b612ed060018210158015612ec95750612ec560ff846101000361213e565b8211155b6064612156565b612e9383821c156101b4612156565b6000828202612f03841580612efc575083858381612ef957fe5b04145b6003612156565b670de0b6b3a764000090049392505050565b62461bcd60e51b600090815260206004526007602452600a808404818106603090810160081b958390069590950190829004918206850160101b01602363ffffff0060e086901c160160181b0190930160c81b60445260e882901c90606490fd5b6000612f858484111583612156565b5050900390565b600073ba1ba1ba1ba1ba1ba1ba1ba1ba1ba1ba1ba1ba1b612fab611d97565b6001600160a01b031614158015612fc65750612fc6836134c1565b15612fee57612fd3611d97565b6001600160a01b0316336001600160a01b03161490506119a4565b612ff6612b02565b6001600160a01b0316639be2a8848484306040518463ffffffff1660e01b815260040161302593929190613f0f565b60206040518083038186803b15801561303d57600080fd5b505afa158015613051573d6000803e3d6000fd5b505050506040513d601f19601f820116820180604052508101906120db9190613794565b64e8d4a5100090565b67016345785d8a000090565b60006001821b19841682846130a05760006130a3565b60015b60ff16901b17949350505050565b6000818060200190518101906119a49190613924565b6000606060006130d6846134fd565b90506060855167ffffffffffffffff811180156130f257600080fd5b5060405190808252806020026020018201604052801561311c578160200160208202803683370190505b50905060005b865181101561315e5786818151811061313757fe5b602002602001015182828151811061314b57fe5b6020908102919091010152600101613122565b50909590945092505050565b60008180602001905181019061214f9190613c8a565b6060600061318e8385612375565b9050845167ffffffffffffffff811180156131a857600080fd5b506040519080825280602002602001820160405280156131d2578160200160208202803683370190505b50915060005b855181101561322657613207828783815181106131f157fe5b6020026020010151612edf90919063ffffffff16565b83828151811061321357fe5b60209081029190910101526001016131d8565b50509392505050565b6132466001600160a01b038316151561019b612156565b61325282600083612e93565b6001600160a01b03821660009081526020819052604090205461327890826101b2612f76565b6001600160a01b0383166000908152602081905260409020556132ab6132a6826132a06119aa565b90613513565b613521565b60006001600160a01b0316826001600160a01b03167fddf252ad1be2c89b69c2b068fc378daa952ba7f163c4a11628f55a4df523b3ef836040516132ef9190613eef565b60405180910390a35050565b600061330a8215156004612156565b82613317575060006119a4565b670de0b6b3a764000083810290613331908583816123ab57fe5b82600182038161333d57fe5b046001019150506119a4565b6000613353612d7d565b82604051602001611d54929190613e02565b600061337782516041146101b9612156565b60208281015160408085015160608601518251600080825295019283905292939092811a916001906133b0908990859088908890614015565b6020604051602081039080840390855afa1580156133d2573d6000803e3d6000fd5b5050604051601f1901519150506001600160a01b038116158015906134085750876001600160a01b0316816001600160a01b0316145b98975050505050505050565b60608180602001905181019061214f919061396d565b61343660008383612e93565b61344b6132a6826134456119aa565b906123d2565b6001600160a01b03821660009081526020819052604090205461346e90826123d2565b6001600160a01b0383166000818152602081905260408082209390935591519091907fddf252ad1be2c89b69c2b068fc378daa952ba7f163c4a11628f55a4df523b3ef906132ef908590613eef565b4690565b60006134d3631c74c91760e11b611d1f565b8214806134ee57506134eb6350dd6ed960e01b611d1f565b82145b806119a457506119a482613526565b60008180602001905181019061214f9190613940565b600061214f83836001612f76565b600255565b50600090565b604080518082019091526000808252602082015290565b6040805160c081018252600080825260208201819052918101829052606081018290526080810182905260a081019190915290565b80356119a48161438a565b600082601f830112613593578081fd5b81356135a66135a18261436a565b614343565b8181529150602080830190848101818402860182018710156135c757600080fd5b60005b848110156135e6578135845292820192908201906001016135ca565b505050505092915050565b600082601f830112613601578081fd5b813567ffffffffffffffff811115613617578182fd5b61362a601f8201601f1916602001614343565b915080825283602082850101111561364157600080fd5b8060208401602084013760009082016020015292915050565b80356119a48161439f565b600060208284031215613676578081fd5b813561214f8161438a565b60008060408385031215613693578081fd5b823561369e8161438a565b915060208301356136ae8161438a565b809150509250929050565b6000806000606084860312156136cd578081fd5b83356136d88161438a565b925060208401356136e88161438a565b929592945050506040919091013590565b600080600080600080600060e0888a031215613713578485fd5b873561371e8161438a565b9650602088013561372e8161438a565b95506040880135945060608801359350608088013561374c816143ac565b9699959850939692959460a0840135945060c09093013592915050565b6000806040838503121561377b578182fd5b82356137868161438a565b946020939093013593505050565b6000602082840312156137a5578081fd5b8151801515811461214f578182fd5b6000602082840312156137c5578081fd5b5051919050565b600080600080600080600060e0888a0312156137e6578081fd5b8735965060208801356137f88161438a565b955060408801356138088161438a565b9450606088013567ffffffffffffffff80821115613824578283fd5b6138308b838c01613583565b955060808a0135945060a08a0135935060c08a0135915080821115613853578283fd5b506138608a828b016135f1565b91505092959891949750929550565b60008060408385031215613881578182fd5b505080516020909101519092909150565b6000602082840312156138a3578081fd5b81356001600160e01b03198116811461214f578182fd5b6000602082840312156138cb578081fd5b815161214f8161438a565b600080604083850312156138e8578182fd5b82356138f38161438a565b9150602083013567ffffffffffffffff81111561390e578182fd5b61391a858286016135f1565b9150509250929050565b600060208284031215613935578081fd5b815161214f8161439f565b60008060408385031215613952578182fd5b825161395d8161439f565b6020939093015192949293505050565b6000806040838503121561397f578182fd5b82516004811061398d578283fd5b8092505060208084015167ffffffffffffffff8111156139ab578283fd5b8401601f810186136139bb578283fd5b80516139c96135a18261436a565b81815283810190838501858402850186018a10156139e5578687fd5b8694505b83851015613a075780518352600194909401939185019185016139e9565b5080955050505050509250929050565b60008060008060808587031215613a2c578182fd5b843567ffffffffffffffff80821115613a43578384fd5b818701915061012080838a031215613a59578485fd5b613a6281614343565b9050613a6e898461365a565b8152613a7d8960208501613578565b6020820152613a8f8960408501613578565b6040820152606083013560608201526080830135608082015260a083013560a0820152613abf8960c08501613578565b60c0820152613ad18960e08501613578565b60e08201526101008084013583811115613ae9578687fd5b613af58b8287016135f1565b828401525050809650506020870135915080821115613b12578384fd5b50613b1f87828801613583565b949794965050505060408301359260600135919050565b600060a08284031215613b47578081fd5b613b5160a0614343565b8251613b5c8161438a565b81526020830151613b6c8161438a565b6020820152604083015160038110613b82578283fd5b6040820152606083015160058110613b98578283fd5b60608201526080928301519281019290925250919050565b600060c08284031215613bc1578081fd5b613bcb60c0614343565b8251613bd68161438a565b808252506020830151602082015260408301516040820152606083015160608201526080830151608082015260a083015160a08201528091505092915050565b600060208284031215613c27578081fd5b5035919050565b60008060008060808587031215613c43578182fd5b8451935060208501519250604085015191506060850151613c638161438a565b939692955090935050565b600060208284031215613c7f578081fd5b815161214f816143ac565b60008060408385031215613c9c578182fd5b825161395d816143ac565b6001600160a01b03169052565b6000815180845260208085019450808401835b83811015613ce357815187529582019590820190600101613cc7565b509495945050505050565b60008151808452815b81811015613d1357602081850181015186830182015201613cf7565b81811115613d245782602083870101525b50601f01601f19169290920160200192915050565b6000610120825160028110613d4a57fe5b808552506020830151613d606020860182613ca7565b506040830151613d736040860182613ca7565b50606083015160608501526080830151608085015260a083015160a085015260c0830151613da460c0860182613ca7565b5060e0830151613db760e0860182613ca7565b50610100808401518282870152613dd083870182613cee565b9695505050505050565b9182526001600160e01b031916602082015260240190565b6000828483379101908152919050565b61190160f01b81526002810192909252602282015260420190565b6001600160a01b0391909116815260200190565b6001600160a01b03978816815295871660208701529390951660408501526060840191909152608083015260a082019290925260c081019190915260e00190565b6001600160a01b03929092168252602082015260400190565b60006020825261214f6020830184613cb4565b600060408252613eb16040830185613cb4565b8281036020840152613ec38185613cb4565b95945050505050565b901515815260200190565b92151583526020830191909152604082015260600190565b90815260200190565b9182526001600160a01b0316602082015260400190565b9283526001600160a01b03918216602084015216604082015260600190565b9788526001600160a01b03968716602089015294861660408801526060870193909352608086019190915290921660a084015260c083019190915260e08201526101000190565b9586526001600160a01b0394851660208701529290931660408501526060840152608083019190915260a082015260c00190565b9485526020850193909352604084019190915260608301526001600160a01b0316608082015260a00190565b600083825260406020830152613fee6040830184613cee565b949350505050565b600084825283602083015260606040830152613ec36060830184613d39565b93845260ff9290921660208401526040830152606082015260800190565b60006020825261214f6020830184613cee565b602080825260169082015275496e76616c6964207377617070656420746f6b656e7360501b604082015260600190565b60208082526018908201527f4f726465722062656c6f77206d696e696d756d2073697a650000000000000000604082015260600190565b6020808252601f908201527f496e73756666696369656e7420706f6f6c20746f6b656e2062616c616e636500604082015260600190565b6020808252601d908201527f496e73756666696369656e742063757272656e63792062616c616e6365000000604082015260600190565b60208082526023908201527f496e73756666696369656e7420706f6f6c20746f6b656e7320737761707065646040820152621034b760e91b606082015260800190565b6020808252600c908201526b0496e76616c696420737761760a41b604082015260600190565b6020808252601d908201527f496e73756666696369656e742073656375726974792062616c616e6365000000604082015260600190565b60208082526030908201527f496e73756666696369656e7420706f6f6c20746f6b656e73207377617070656460408201526f20696e20666f722063757272656e637960801b606082015260800190565b60208082526030908201527f496e73756666696369656e7420706f6f6c20746f6b656e73207377617070656460408201526f20696e20666f7220736563757269747960801b606082015260800190565b6020808252601d908201527f494e53554646494349454e545f494e5445524e414c5f42414c414e4345000000604082015260600190565b6000606082526142a56060830185613d39565b90508251600381106142b357fe5b80602084015250602083015160408301529392505050565b82516001600160a01b0390811682526020808501519083015260408085015190830152606080850151908301526080808501519083015260a09384015193820193909352911660c082015260e00190565b600083825260406020830152613fee6040830184613cb4565b60ff91909116815260200190565b60405181810167ffffffffffffffff8111828210171561436257600080fd5b604052919050565b600067ffffffffffffffff821115614380578081fd5b5060209081020190565b6001600160a01b0381168114611aac57600080fd5b60028110611aac57600080fd5b60ff81168114611aac57600080fdfe9b85ff671b830162b81f1cb1253d54a6fee66e6f9760fc15cfc3fecccca8f118a264697066735822122093a78c75e7870d5435c0650267927450050fdabf54a1219469dd089e3ede032b64736f6c63430007010033608060405260006005553480156200001657600080fd5b506040516200322538038062003225833981016040819052620000399162000106565b620000443362000098565b600b80546001600160a01b039586166001600160a01b0319918216179091556009805494861694821694909417909355600a805492851692841692909217909155600c805491909316911617905562000166565b600080546001600160a01b038381166001600160a01b0319831681178455604051919092169283917f8be0079c531659141344cd1fd0a4f28419497f9722a3daafe3b4186f6b6457e09190a35050565b80516001600160a01b03811681146200010057600080fd5b92915050565b600080600080608085870312156200011c578384fd5b620001288686620000e8565b9350620001398660208701620000e8565b92506200014a8660408701620000e8565b91506200015b8660608701620000e8565b905092959194509250565b6130af80620001766000396000f3fe608060405234801561001057600080fd5b50600436106101005760003560e01c80637ef9389011610097578063d61aed7a11610066578063d61aed7a146101f3578063d729cf6c14610206578063e43372e914610219578063f2fde38b1461022157610100565b80637ef93890146101a557806381b5da1d146101b85780638da5cb5b146101cb578063ca142f75146101d357610100565b80635487e8cf116100d35780635487e8cf146101605780635778472a146101735780636945c1fd14610193578063715018a61461019b57610100565b80632541897f1461010557806338fff2d01461012357806346764e5e1461013857806346b8b7301461014b575b600080fd5b61010d610234565b60405161011a9190612e04565b60405180910390f35b61012b610243565b60405161011a9190612e5c565b61012b610146366004612d06565b6102d2565b61015361046f565b60405161011a9190612e18565b61012b61016e366004612d68565b610564565b610186610181366004612c7c565b610759565b60405161011a9190612f9a565b61010d610870565b6101a361087f565b005b6101a36101b3366004612d54565b610897565b6101a36101c6366004612cdb565b61096e565b61010d610a9a565b6101e66101e1366004612c51565b610aa9565b60405161011a9190612ff5565b61012b610201366004612cac565b610b6a565b6101a3610214366004612c51565b610c75565b610153610d14565b6101a361022f366004612c35565b610d75565b6009546001600160a01b031690565b600080600c60009054906101000a90046001600160a01b03166001600160a01b03166338fff2d06040518163ffffffff1660e01b815260040160206040518083038186803b15801561029457600080fd5b505afa1580156102a8573d6000803e3d6000fd5b505050506040513d601f19601f820116820180604052508101906102cc9190612c94565b91505090565b60006102f2336102e0610a9a565b6001600160a01b0316146101aa610da4565b6002600085815260066020526040902060010154600160a81b900460ff16600481111561031b57fe5b146103415760405162461bcd60e51b815260040161033890612f2c565b60405180910390fd5b60c08201516000858152600660205260409020546001600160a01b0390811691161461037f5760405162461bcd60e51b815260040161033890612ef5565b60095460008581526006602052604081206001015490916001600160a01b039182169116146103af5760016103b2565b60005b90506103bf848683610db6565b6000858152600660209081526040909120600201546009549185015190916001600160a01b03918216911614806104085750600a5460208501516001600160a01b039081169116145b156104325761041b846060015182610e56565b600087815260066020526040902060020155610466565b60008681526006602052604090206002015460608501516104539190610e6f565b6000878152600660205260409020600201555b95945050505050565b600354606090819067ffffffffffffffff8111801561048d57600080fd5b506040519080825280602002602001820160405280156104b7578160200160208202803683370190505b5090506000805b60035481101561055c57336001600160a01b031660066000600384815481106104e357fe5b600091825260208083206001600290930201919091015483528201929092526040019020546001600160a01b03161415610554576003818154811061052457fe5b90600052602060002090600202016001015483838151811061054257fe5b60209081029190910101526001909101905b6001016104be565b509091505090565b6000610572336102e0610a9a565b60008251600281111561058157fe5b1480610599575060018251600281111561059757fe5b145b6105a257600080fd5b60055442146105b157426105b8565b6005546001015b600581905560c08401516040516000926105d59291602001612de2565b6040516020818303038152906040528051906020012090506105f5612a72565b6040518060a001604052808660c001516001600160a01b0316815260200186602001516001600160a01b031681526020018560000151600281111561063657fe5b8152602001600281526060870151602091820152600084815260068252604090819020835181546001600160a01b03199081166001600160a01b03928316178355938501516001830180549095169116178084559184015193945084939092909160ff60a01b1916600160a01b8360028111156106af57fe5b0217905550606082015160018201805460ff60a81b1916600160a81b8360048111156106d757fe5b02179055506080919091015160029091015560095460208201516001600160a01b039081169116141561071757610712846020015183610e85565b610740565b600a5460208201516001600160a01b03908116911614156107405761074084602001518361109e565b61074e8285602001516112b3565b925050505b92915050565b610761612a72565b610769610a9a565b6001600160a01b0316336001600160a01b031614806107925750600b546001600160a01b031633145b806107b357506000828152600660205260409020546001600160a01b031633145b6107cf5760405162461bcd60e51b815260040161033890612e91565b600082815260066020908152604091829020825160a08101845281546001600160a01b03908116825260018301549081169382019390935292909190830190600160a01b900460ff16600281111561082357fe5b600281111561082e57fe5b81526020016001820160159054906101000a900460ff16600481111561085057fe5b600481111561085b57fe5b81526020016002820154815250509050919050565b600a546001600160a01b031690565b61088b336102e0610a9a565b6108956000611a5d565b565b600b546001600160a01b03163314806108c857506108b3610a9a565b6001600160a01b0316336001600160a01b0316145b6108e45760405162461bcd60e51b815260040161033890612ec8565b600083815260066020526040902060028101805484019055600101805460ff60a81b1916600160a91b17908190556009546001600160a01b0391821691161415610937576109328184610e85565b610969565b600a546000848152600660205260409020600101546001600160a01b039081169116141561096957610969818461109e565b505050565b600b546001600160a01b031633148061099f575061098a610a9a565b6001600160a01b0316336001600160a01b0316145b6109bb5760405162461bcd60e51b815260040161033890612ec8565b600092835260066020908152604080852080546001600160a01b03199081168255600180830180546001600160b01b031990811690915560028085018a9055978952848920805484168155808301805490921690915580880189905592546001600160a01b0390811689526007808752858a20888b528752858a208054851681558084018b9055808a018b905560038082018c905560048083018d905560059283018d905596549093168b52908752858a20978a5296909552928720805490911681559182018690559381018590559081018490559182018390550155565b6000546001600160a01b031690565b610ab1612aa1565b610ab9610a9a565b6001600160a01b0316336001600160a01b03161480610ae05750336001600160a01b038416145b610afc5760405162461bcd60e51b815260040161033890612f63565b506001600160a01b03918216600090815260076020908152604080832093835292815290829020825160c0810184528154909416845260018101549184019190915260028101549183019190915260038101546060830152600481015460808301526005015460a082015290565b6000610b78336102e0610a9a565b6002600084815260066020526040902060010154600160a81b900460ff166004811115610ba157fe5b14610bbe5760405162461bcd60e51b815260040161033890612f2c565b6000838152600660205260409020546001600160a01b03838116911614610bf75760405162461bcd60e51b815260040161033890612ef5565b60095460008481526006602052604081206001015490916001600160a01b03918216911614610c27576001610c2a565b60005b9050610c368482611aad565b505050600090815260066020526040812060028101805482546001600160a01b0319168355600190920180546001600160b01b03191690559190915590565b610c81336102e0610a9a565b60005b6001600160a01b038316600090815260086020526040902054811015610969576001600160a01b0383166000908152600860205260409020805483919083908110610ccb57fe5b90600052602060002001541415610d0c576001600160a01b0383166000908152600860205260409020805482908110610d0057fe5b60009182526020822001555b600101610c84565b33600090815260086020908152604091829020805483518184028101840190945280845260609392830182828015610d6b57602002820191906000526020600020905b815481526020019060010190808311610d57575b5050505050905090565b610d81336102e0610a9a565b610d986001600160a01b03821615156101ab610da4565b610da181611a5d565b50565b81610db257610db281611c19565b5050565b8015610e0757600082815260026020526040902054600180548592908110610dda57fe5b60009182526020808320600292830201939093558482529091526040902054610932576109326000611c29565b600082815260046020526040902054600380548592908110610e2557fe5b6000918252602080832060029092029091019290925583815260049091526040902054610969576109696000611e17565b6000828201610e688482101583610da4565b9392505050565b6000610e7f838311156001610da4565b50900390565b60408051808201909152828152602081018281526003805460018082018355600083815294517fc2575a0e9e593c00f959f8c92f12db2869c3395a3b0502d05e2516446f71f85b60029093029283015592517fc2575a0e9e593c00f959f8c92f12db2869c3395a3b0502d05e2516446f71f85c9091015554610f0691610e6f565b90506000610f178260026000612003565b90505b600082118015610f65575060038281548110610f3257fe5b90600052602060002090600202016000015460038281548110610f5157fe5b906000526020600020906002020160000154115b1561109857610f72612ad6565b60038281548110610f7f57fe5b906000526020600020906002020160405180604001604052908160008201548152602001600182015481525050905060038381548110610fbb57fe5b906000526020600020906002020160038381548110610fd657fe5b9060005260206000209060020201600082015481600001556001820154816001015590505081600460006003868154811061100d57fe5b906000526020600020906002020160010154815260200190815260200160002081905550806003848154811061103f57fe5b90600052602060002090600202016000820151816000015560208201518160010155905050826004600083602001518152602001908152602001600020819055508192506110908360026000612003565b915050610f1a565b50505050565b6040805180820190915282815260208101828152600180548082018255600082815293517fb10e2d527612073b26eecdfd717e6a320cf44b4afac2b0732d9fcbe2b7fa0cf660029092029182015591517fb10e2d527612073b26eecdfd717e6a320cf44b4afac2b0732d9fcbe2b7fa0cf790920191909155805461112191610e6f565b905060006111328260026000612003565b90505b60008211801561118057506001828154811061114d57fe5b9060005260206000209060020201600001546001828154811061116c57fe5b906000526020600020906002020160000154105b156110985761118d612ad6565b6001828154811061119a57fe5b9060005260206000209060020201604051806040016040529081600082015481526020016001820154815250509050600183815481106111d657fe5b9060005260206000209060020201600183815481106111f157fe5b9060005260206000209060020201600082015481600001556001820154816001015590505081600260006001868154811061122857fe5b906000526020600020906002020160010154815260200190815260200160002081905550806001848154811061125a57fe5b90600052602060002090600202016000820151816000015560208201518160010155905050826002600083602001518152602001908152602001600020819055508192506112ab8360026000612003565b915050611135565b60008060008080600080600060606112cb8b8b61202b565b9092509050816112e5578a98505050505050505050610753565b600092505b80518310156119df5760008b81526006602052604090206002015461130e576119df565b8a81848151811061131b57fe5b60200260200101516020015114158015611386575060008b815260066020819052604082205483516001600160a01b03909116929084908790811061135c57fe5b6020908102919091018101518101518252810191909152604001600020546001600160a01b031614155b80156113d8575060006006600083868151811061139f57fe5b602002602001015160200151815260200190815260200160002060010160159054906101000a900460ff1660048111156113d557fe5b14155b15611637578083815181106113e957fe5b6020026020010151600001516000148015611402575089155b1561140c576119d4565b600a5481516001600160a01b039091169060069060009084908790811061142f57fe5b6020908102919091018101518101518252810191909152604001600020600101546001600160a01b0316148015611485575060095460008c8152600660205260409020600101546001600160a01b039081169116145b15611535578981848151811061149757fe5b6020026020010151600001511015806114ae575089155b806114d057508083815181106114c057fe5b6020026020010151600001516000145b15611530578083815181106114e157fe5b6020026020010151600001516000146115115780838151811061150057fe5b602002602001015160000151611513565b895b965080838151811061152157fe5b60200260200101516020015197505b611637565b60095481516001600160a01b039091169060069060009084908790811061155857fe5b6020908102919091018101518101518252810191909152604001600020600101546001600160a01b03161480156115ae5750600a5460008c8152600660205260409020600101546001600160a01b039081169116145b1561163757898184815181106115c057fe5b6020026020010151600001511115806115d7575089155b15611637578083815181106115e857fe5b6020026020010151600001516000146116185780838151811061160757fe5b60200260200101516000015161161a565b895b965080838151811061162857fe5b60200260200101516020015195505b87156118085760095460008c8152600660205260409020600101546001600160a01b0390811691161415611803576000888152600660205260409020600201546116819088612372565b60008c815260066020526040902060020154909550851061177c5760008b81526006602052604090206002015494506116ba85886123c3565b6000898152600660205260409020600201549094506116d99085610e6f565b60008981526006602052604080822060029081019384558e83529082200181905589905254611723576000888152600660205260409020600101805460ff60a81b1916905561174f565b6000888152600660205260409020600101805460ff60a81b1916600160a81b17905561174f878961109e565b60008b8152600660205260409020600101805460ff60a81b191690556117778b8987876123f9565b611803565b84156118035761178c85886123c3565b60008c8152600660205260409020600201549094506117ab9086610e6f565b60008c8152600660205260408082206002808201949094558b83529082209283018290556001928301805460ff60a81b19908116909155918e9052919091018054909116600160a81b1790556118038b8987876123f9565b6119d4565b85156119d457600a5460008c8152600660205260409020600101546001600160a01b03908116911614156119d45760008681526006602052604090206002015461185290886123c3565b60008c815260066020526040902060020154909450841061194d5760008b815260066020526040902060020154935061188b8488612372565b6000878152600660205260409020600201549095506118aa9086610e6f565b6000878152600660205260408082206002908101939093558d825280822083018290558a8252902001546118f9576000888152600660205260409020600101805460ff60a81b19169055611925565b6000888152600660205260409020600101805460ff60a81b1916600160a81b1790556119258789610e85565b60008b8152600660205260409020600101805460ff60a81b191690556118038b8787876123f9565b83156119d45761195d8488612372565b60008c81526006602052604090206002015490955061197c9085610e6f565b60008c8152600660205260408082206002808201949094558983529082209283018290556001928301805460ff60a81b19908116909155918e9052919091018054909116600160a81b1790556119d48b8787876123f9565b6001909201916112ea565b6000808c815260066020526040902060010154600160a81b900460ff166004811115611a0757fe5b1415611a4e5760095460008c81526006602052604081206001015490916001600160a01b03918216911614611a3d576001611a40565b60005b9050611a4c8c82611aad565b505b50989998505050505050505050565b600080546001600160a01b038381166001600160a01b0319831681178455604051919092169283917f8be0079c531659141344cd1fd0a4f28419497f9722a3daafe3b4186f6b6457e09190a35050565b8015611b6657600082815260026020526040902054611ad457611ace6126eb565b50611b61565b60018054611ae29082610e6f565b81548110611aec57fe5b90600052602060002090600202016001600260008581526020019081526020016000205481548110611b1a57fe5b60009182526020909120825460029092020190815560019182015490820155805480611b4257fe5b6000828152602081206002600019909301928302018181556001015590555b610db2565b600082815260046020526040902054611b8757611b81612830565b50610db2565b60038054611b96906001610e6f565b81548110611ba057fe5b90600052602060002090600202016003600460008581526020019081526020016000205481548110611bce57fe5b6000918252602090912082546002909202019081556001918201549101556003805480611bf757fe5b6000828152602081206002600019909301928302018181556001015590555050565b610da1816210905360ea1b61296d565b60018054611c3691610e6f565b611c418260026129ce565b1015610da1576000611c548260026129ce565b9050600060018281548110611c6557fe5b6000918252602082206002909102015491506001611c838482610e56565b81548110611c8d57fe5b906000526020600020906002020160000154905080821015611cb757611cb4836001610e56565b92505b60018381548110611cc457fe5b90600052602060002090600202016000015460018581548110611ce357fe5b9060005260206000209060020201600001541115611d0357505050610da1565b611d0b612ad6565b60018581548110611d1857fe5b906000526020600020906002020160405180604001604052908160008201548152602001600182015481525050905060018481548110611d5457fe5b906000526020600020906002020160018681548110611d6f57fe5b90600052602060002090600202016000820154816000015560018201548160010155905050846002600060018781548110611da657fe5b9060005260206000209060020201600101548152602001908152602001600020819055508060018581548110611dd857fe5b6000918252602080832084516002938402909101908155938101516001909401939093559282015181529190526040902083905550909150611c299050565b600354611e25906001610e6f565b611e308260026129ce565b1015610da1576000611e438260026129ce565b9050600060038281548110611e5457fe5b6000918252602082206002909102015491506003611e73846001610e56565b81548110611e7d57fe5b906000526020600020906002020160000154905080821115611ea757611ea4836001610e56565b92505b60038381548110611eb457fe5b90600052602060002090600202016000015460038581548110611ed357fe5b9060005260206000209060020201600001541015611ef357505050610da1565b611efb612ad6565b60038581548110611f0857fe5b906000526020600020906002020160405180604001604052908160008201548152602001600182015481525050905060038481548110611f4457fe5b906000526020600020906002020160038681548110611f5f57fe5b90600052602060002090600202016000820154816000015560018201548160010155905050846004600060038781548110611f9657fe5b9060005260206000209060020201600101548152602001908152602001600020819055508060038581548110611fc857fe5b60009182526020808320845160029093020191825592830151600190910155918101518252600490526040902083905550909150611e179050565b6000816120195761201484846129e8565b612023565b6120238484612a08565b949350505050565b6009546000838152600660205260408120600101549091606091839183916001600160a01b039081169116146120b45760035467ffffffffffffffff8111801561207457600080fd5b506040519080825280602002602001820160405280156120ae57816020015b61209b612ad6565b8152602001906001900390816120935790505b50612109565b60015467ffffffffffffffff811180156120cd57600080fd5b5060405190808252806020026020018201604052801561210757816020015b6120f4612ad6565b8152602001906001900390816120ec5790505b505b600954600088815260066020526040812060010154929350916001600160a01b039081169116141561224d575b60015415612248576000612148612a3b565b9050806121525750855b868110801561216057508615155b1561216b5750612248565b6121736126eb565b83838151811061217f57fe5b602002602001018190525060008084848151811061219957fe5b602002602001015160000151116121b057876121c9565b8383815181106121bc57fe5b6020026020010151600001515b90506122148561220f83600660008989815181106121e357fe5b60200260200101516020015181526020019081526020016000206002015461237290919063ffffffff16565b610e56565b60008a815260066020526040902060020154909550851061223e575092945090925061236b915050565b5050600101612136565b612364565b600a546000888152600660205260409020600101546001600160a01b0390811691161415612364575b6003541580159061229657508561228b612a62565b111580612296575085155b156123645760006122a5612a62565b90506122af612830565b8383815181106122bb57fe5b6020026020010181905250806000146122eb578282815181106122da57fe5b6020026020010151600001516122ed565b865b90506123338461220f6006600087878151811061230657fe5b602002602001015160200151815260200190815260200160002060020154846123c390919063ffffffff16565b600089815260066020526040902060020154909450841061235b5750919350915061236b9050565b50600101612276565b5090925090505b9250929050565b60006123818215156004610da4565b8261238e57506000610753565b670de0b6b3a7640000838102906123b1908583816123a857fe5b04146005610da4565b8281816123ba57fe5b04915050610753565b60008282026123e78415806123e05750838583816123dd57fe5b04145b6003610da4565b670de0b6b3a764000090049392505050565b600580546001019081905561240c612aa1565b6040518060c001604052806006600089815260200190815260200160002060000160009054906101000a90046001600160a01b03166001600160a01b031681526020018781526020018681526020018381526020018581526020018481525090508060076000600660008a815260200190815260200160002060000160009054906101000a90046001600160a01b03166001600160a01b03166001600160a01b03168152602001908152602001600020600084815260200190815260200160002060008201518160000160006101000a8154816001600160a01b0302191690836001600160a01b031602179055506020820151816001015560408201518160020155606082015181600301556080820151816004015560a0820151816005015590505080600760006006600089815260200190815260200160002060000160009054906101000a90046001600160a01b03166001600160a01b03166001600160a01b03168152602001908152602001600020600084815260200190815260200160002060008201518160000160006101000a8154816001600160a01b0302191690836001600160a01b031602179055506020820151816001015560408201518160020155606082015181600301556080820151816004015560a08201518160050155905050600860006006600089815260200190815260200160002060000160009054906101000a90046001600160a01b03166001600160a01b03166001600160a01b0316815260200190815260200160002081606001519080600181540180825580915050600190039060005260206000200160009091909190915055600860006006600088815260200190815260200160002060000160009054906101000a90046001600160a01b03166001600160a01b03166001600160a01b0316815260200190815260200160002081606001519080600181540180825580915050600190039060005260206000200160009091909190915055505050505050565b6126f3612ad6565b6001546127125760405162461bcd60e51b815260040161033890612e65565b61271a612ad6565b600160008154811061272857fe5b906000526020600020906002020160405180604001604052908160008201548152602001600182015481525050905060016127696001805490506001610e6f565b8154811061277357fe5b9060005260206000209060020201600160008154811061278f57fe5b9060005260206000209060020201600082015481600001556001820154816001015590505060006002600060016000815481106127c857fe5b90600052602060002090600202016001015481526020019081526020016000208190555060018054806127f757fe5b600082815260208120600260001990930192830201818155600190810182905591909255541561282a5761282a81611c29565b50905090565b612838612ad6565b6003546128575760405162461bcd60e51b815260040161033890612e65565b61285f612ad6565b600360008154811061286d57fe5b906000526020600020906002020160405180604001604052908160008201548152602001600182015481525050905060036128ae6003805490506001610e6f565b815481106128b857fe5b906000526020600020906002020160036000815481106128d457fe5b90600052602060002090600202016000820154816000015560018201548160010155905050600060046000600360008154811061290d57fe5b906000526020600020906002020160010154815260200190815260200160002081905550600380548061293c57fe5b60008281526020812060026000199093019283020181815560010181905591556003541561282a5761282a81611e17565b62461bcd60e51b600090815260206004526007602452600a808404818106603090810160081b958390069590950190829004918206850160101b01602363ffffff0060e086901c160160181b0190930160c81b60445260e882901c90606490fd5b6000828202610e688415806123e05750838583816123dd57fe5b60006129f78215156004610da4565b818381612a0057fe5b049392505050565b6000612a178215156004610da4565b82612a2457506000610753565b816001840381612a3057fe5b046001019050610753565b60006001600081548110612a4b57fe5b906000526020600020906002020160000154905090565b60006003600081548110612a4b57fe5b6040805160a0810182526000808252602082018190529091820190815260200160008152602001600081525090565b6040805160c081018252600080825260208201819052918101829052606081018290526080810182905260a081019190915290565b604080518082019091526000808252602082015290565b803561075381613064565b600082601f830112612b08578081fd5b813567ffffffffffffffff811115612b1e578182fd5b612b31601f8201601f191660200161303d565b9150808252836020828501011115612b4857600080fd5b8060208401602084013760009082016020015292915050565b80356002811061075357600080fd5b6000610120808385031215612b83578182fd5b612b8c8161303d565b915050612b998383612b61565b8152612ba88360208401612aed565b6020820152612bba8360408401612aed565b6040820152606082013560608201526080820135608082015260a082013560a0820152612bea8360c08401612aed565b60c0820152612bfc8360e08401612aed565b60e08201526101008083013567ffffffffffffffff811115612c1d57600080fd5b612c2985828601612af8565b82840152505092915050565b600060208284031215612c46578081fd5b8135610e6881613064565b60008060408385031215612c63578081fd5b8235612c6e81613064565b946020939093013593505050565b600060208284031215612c8d578081fd5b5035919050565b600060208284031215612ca5578081fd5b5051919050565b60008060408385031215612cbe578182fd5b823591506020830135612cd081613064565b809150509250929050565b600080600060608486031215612cef578081fd5b505081359360208301359350604090920135919050565b600080600060608486031215612d1a578283fd5b8335925060208401359150604084013567ffffffffffffffff811115612d3e578182fd5b612d4a86828701612b70565b9150509250925092565b600080600060608486031215612cef578283fd5b6000808284036060811215612d7b578283fd5b833567ffffffffffffffff811115612d91578384fd5b612d9d86828701612b70565b9350506040601f1982011215612db1578182fd5b50612dbc604061303d565b602084013560038110612dcd578283fd5b81526040939093013560208401525092909150565b60609290921b6bffffffffffffffffffffffff19168252601482015260340190565b6001600160a01b0391909116815260200190565b6020808252825182820181905260009190848201906040850190845b81811015612e5057835183529284019291840191600101612e34565b50909695505050505050565b90815260200190565b6020808252601290820152714f72646572626f6f6b20697320656d70747960701b604082015260600190565b6020808252601d908201527f556e617574686f72697a65642061636365737320746f206f7264657273000000604082015260600190565b602080825260139082015272556e617574686f72697a65642061636365737360681b604082015260600190565b6020808252601b908201527f53656e646572206973206e6f74206f726465722063726561746f720000000000604082015260600190565b60208082526017908201527f4f7264657220697320616c72656164792066696c6c6564000000000000000000604082015260600190565b6020808252601d908201527f556e617574686f72697a65642061636365737320746f20747261646573000000604082015260600190565b81516001600160a01b03908116825260208084015190911690820152604082015160a082019060038110612fca57fe5b6040830152606083015160058110612fde57fe5b806060840152506080830151608083015292915050565b81516001600160a01b031681526020808301519082015260408083015190820152606080830151908201526080808301519082015260a0918201519181019190915260c00190565b60405181810167ffffffffffffffff8111828210171561305c57600080fd5b604052919050565b6001600160a01b0381168114610da157600080fdfea2646970667358221220af6a7da3fa64a4e91ec669dd553c6cb52a6f0a88df67818568c6c3e5c7e6bb2c64736f6c63430007010033",
  "linkReferences": {},
  "deployedLinkReferences": {}
}