{
  "_format": "hh-sol-artifact-1",
  "contractName": "SecondaryIssuePoolFactory",
  "sourceName": "contracts/SecondaryIssuePoolFactory.sol",
  "abi": [
    {
      "inputs": [
        {
          "internalType": "contract IVault",
          "name": "vault",
          "type": "address"
        },
        {
          "internalType": "contract IProtocolFeePercentagesProvider",
          "name": "protocolFeeProvider",
          "type": "address"
        }
      ],
      "stateMutability": "nonpayable",
      "type": "constructor"
    },
    {
      "anonymous": false,
      "inputs": [],
      "name": "FactoryDisabled",
      "type": "event"
    },
    {
      "anonymous": false,
      "inputs": [
        {
          "indexed": true,
          "internalType": "address",
          "name": "pool",
          "type": "address"
        }
      ],
      "name": "PoolCreated",
      "type": "event"
    },
    {
      "inputs": [
        {
          "internalType": "string",
          "name": "_name",
          "type": "string"
        },
        {
          "internalType": "string",
          "name": "_symbol",
          "type": "string"
        },
        {
          "internalType": "address",
          "name": "_security",
          "type": "address"
        },
        {
          "internalType": "address",
          "name": "_currency",
          "type": "address"
        },
        {
          "internalType": "uint256",
          "name": "_maxAmountsIn",
          "type": "uint256"
        },
        {
          "internalType": "uint256",
          "name": "_tradeFeePercentage",
          "type": "uint256"
        }
      ],
      "name": "create",
      "outputs": [
        {
          "internalType": "address",
          "name": "",
          "type": "address"
        }
      ],
      "stateMutability": "nonpayable",
      "type": "function"
    },
    {
      "inputs": [],
      "name": "disable",
      "outputs": [],
      "stateMutability": "nonpayable",
      "type": "function"
    },
    {
      "inputs": [
        {
          "internalType": "bytes4",
          "name": "selector",
          "type": "bytes4"
        }
      ],
      "name": "getActionId",
      "outputs": [
        {
          "internalType": "bytes32",
          "name": "",
          "type": "bytes32"
        }
      ],
      "stateMutability": "view",
      "type": "function"
    },
    {
      "inputs": [],
      "name": "getAuthorizer",
      "outputs": [
        {
          "internalType": "contract IAuthorizer",
          "name": "",
          "type": "address"
        }
      ],
      "stateMutability": "view",
      "type": "function"
    },
    {
      "inputs": [],
      "name": "getCreationCode",
      "outputs": [
        {
          "internalType": "bytes",
          "name": "",
          "type": "bytes"
        }
      ],
      "stateMutability": "view",
      "type": "function"
    },
    {
      "inputs": [],
      "name": "getCreationCodeContracts",
      "outputs": [
        {
          "internalType": "address",
          "name": "contractA",
          "type": "address"
        },
        {
          "internalType": "address",
          "name": "contractB",
          "type": "address"
        }
      ],
      "stateMutability": "view",
      "type": "function"
    },
    {
      "inputs": [],
      "name": "getPauseConfiguration",
      "outputs": [
        {
          "internalType": "uint256",
          "name": "pauseWindowDuration",
          "type": "uint256"
        },
        {
          "internalType": "uint256",
          "name": "bufferPeriodDuration",
          "type": "uint256"
        }
      ],
      "stateMutability": "view",
      "type": "function"
    },
    {
      "inputs": [],
      "name": "getProtocolFeePercentagesProvider",
      "outputs": [
        {
          "internalType": "contract IProtocolFeePercentagesProvider",
          "name": "",
          "type": "address"
        }
      ],
      "stateMutability": "view",
      "type": "function"
    },
    {
      "inputs": [],
      "name": "getVault",
      "outputs": [
        {
          "internalType": "contract IVault",
          "name": "",
          "type": "address"
        }
      ],
      "stateMutability": "view",
      "type": "function"
    },
    {
      "inputs": [],
      "name": "isDisabled",
      "outputs": [
        {
          "internalType": "bool",
          "name": "",
          "type": "bool"
        }
      ],
      "stateMutability": "view",
      "type": "function"
    },
    {
      "inputs": [
        {
          "internalType": "address",
          "name": "pool",
          "type": "address"
        }
      ],
      "name": "isPoolFromFactory",
      "outputs": [
        {
          "internalType": "bool",
          "name": "",
          "type": "bool"
        }
      ],
      "stateMutability": "view",
      "type": "function"
    }
  ],
  "bytecode": "0x6101806040523480156200001257600080fd5b506040516200661d3803806200661d8339810160408190526200003591620001fc565b8181604051806020016200004990620001ee565b601f1982820381018352601f90910116604052805183903090839060006002820460a081905280830360e08190528185529091508362000095816200010f602090811b6200043717901c565b60601b6001600160601b0319166080528285018051838252620000c4826200010f602090811b6200043717901c565b6001600160601b0319606091821b811660c05296909352905261010095909552505092821b831661012052509290921b90911661014052505050426276a70001610160525062000250565b80517f602038038060206000396000f3fefefefefefefefefefefefefefefefefefefe808352600091602081018484f090845291506200015d6001600160a01b03831615156101ac62000163565b50919050565b816200017457620001748162000178565b5050565b6200018a816210905360ea1b6200018d565b50565b62461bcd60e51b600090815260206004526007602452600a808404818106603090810160081b958390069590950190829004918206850160101b01602363ffffff0060e086901c160160181b0190930160c81b60445260e882901c90606490fd5b6158938062000d8a83390190565b600080604083850312156200020f578182fd5b82516200021c816200023a565b60208401519092506200022f816200023a565b809150509250929050565b6001600160a01b03811681146200018a57600080fd5b60805160601c60a05160c05160601c60e051610100516101205160601c6101405160601c61016051610ac1620002c9600039806101ec52806102155250806102c052508061039b52508061034b5250806104915250806101c3528061050d5250806104b25250806101a252806104e95250610ac16000f3fe608060405234801561001057600080fd5b50600436106100a85760003560e01c80636c57f5a9116100715780636c57f5a914610121578063739238d61461012957806374dcc7a41461013e578063851c1bb3146101515780638d928af814610171578063aaabadc514610179576100a8565b8062c194db146100ad578063174481fa146100cb5780632da47c40146100e15780632f2770db146100f75780636634b75314610101575b600080fd5b6100b5610181565b6040516100c2919061098e565b60405180910390f35b6100d36101a0565b6040516100c2929190610941565b6100e96101e6565b6040516100c2929190610a68565b6100ff610250565b005b61011461010f3660046107c7565b610297565b6040516100c2919061095b565b6101146102b5565b6101316102be565b6040516100c2919061092d565b61013161014c366004610847565b6102e2565b61016461015f366004610803565b610347565b6040516100c29190610966565b610131610399565b6101316103bd565b606061019b60405180602001604052806000815250610489565b905090565b7f00000000000000000000000000000000000000000000000000000000000000007f00000000000000000000000000000000000000000000000000000000000000009091565b600080427f000000000000000000000000000000000000000000000000000000000000000081101561024257807f000000000000000000000000000000000000000000000000000000000000000003925062278d00915061024b565b60009250600091505b509091565b610258610562565b610260610593565b6001805460ff1916811790556040517f432acbfd662dbb5d8b378384a67159b47ca9d0f1b79f97cf64cf8585fa362d5090600090a1565b6001600160a01b031660009081526020819052604090205460ff1690565b60015460ff1690565b7f000000000000000000000000000000000000000000000000000000000000000090565b60008060006102ef6101e6565b915091506103386102fe610399565b8c8c8c8c8c8c8b8d8b8b336040516020016103249c9b9a999897969594939291906109e1565b6040516020818303038152906040526105a8565b9b9a5050505050505050505050565b60007f00000000000000000000000000000000000000000000000000000000000000008260405160200161037c929190610915565b604051602081830303815290604052805190602001209050919050565b7f000000000000000000000000000000000000000000000000000000000000000090565b60006103c7610399565b6001600160a01b031663aaabadc56040518163ffffffff1660e01b815260040160206040518083038186803b1580156103ff57600080fd5b505afa158015610413573d6000803e3d6000fd5b505050506040513d601f19601f8201168201806040525081019061019b919061082b565b80517f602038038060206000396000f3fefefefefefefefefefefefefefefefefefefe808352600091602081018484f090845291506104836001600160a01b03831615156101ac610611565b50919050565b8051604080517f00000000000000000000000000000000000000000000000000000000000000007f0000000000000000000000000000000000000000000000000000000000000000818101858101848101602090810190965280855293957f00000000000000000000000000000000000000000000000000000000000000009592947f000000000000000000000000000000000000000000000000000000000000000094938801866000828a3c846000888301883c5060208981019089850101610554818386610623565b505050505050505050919050565b60006105796000356001600160e01b031916610347565b90506105906105888233610661565b610191610611565b50565b6105a661059e6102b5565b1560d3610611565b565b60006105b2610593565b60006105bd836106f1565b6001600160a01b038116600081815260208190526040808220805460ff191660011790555192935090917f83a48fbcfc991335314e74d0496aab6a1987e992ddc85dddbcc4d6dd6ef2e9fc9190a292915050565b8161061f5761061f81610725565b5050565b5b60208110610643578151835260209283019290910190601f1901610624565b905182516020929092036101000a6000190180199091169116179052565b600061066b6103bd565b6001600160a01b0316639be2a8848484306040518463ffffffff1660e01b815260040161069a9392919061096f565b60206040518083038186803b1580156106b257600080fd5b505afa1580156106c6573d6000803e3d6000fd5b505050506040513d601f19601f820116820180604052508101906106ea91906107e3565b9392505050565b600060606106fe83610489565b905060008151602083016000f090506001600160a01b0381166106ea573d6000803e3d6000fd5b62461bcd60e51b600090815260206004526007602452600a808304818106603090810160081b83860601918390049283060160101b016642414c230000300160c81b604452610590916210905360ea1b906242414c90606490fd5b60008083601f840112610791578182fd5b50813567ffffffffffffffff8111156107a8578182fd5b6020830191508360208285010111156107c057600080fd5b9250929050565b6000602082840312156107d8578081fd5b81356106ea81610a76565b6000602082840312156107f4578081fd5b815180151581146106ea578182fd5b600060208284031215610814578081fd5b81356001600160e01b0319811681146106ea578182fd5b60006020828403121561083c578081fd5b81516106ea81610a76565b60008060008060008060008060c0898b031215610862578384fd5b883567ffffffffffffffff80821115610879578586fd5b6108858c838d01610780565b909a50985060208b013591508082111561089d578586fd5b506108aa8b828c01610780565b90975095505060408901356108be81610a76565b935060608901356108ce81610a76565b979a969950949793969295929450505060808201359160a0013590565b60008284528282602086013780602084860101526020601f19601f85011685010190509392505050565b9182526001600160e01b031916602082015260240190565b6001600160a01b0391909116815260200190565b6001600160a01b0392831681529116602082015260400190565b901515815260200190565b90815260200190565b9283526001600160a01b03918216602084015216604082015260600190565b6000602080835283518082850152825b818110156109ba5785810183015185820160400152820161099e565b818111156109cb5783604083870101525b50601f01601f1916929092016040019392505050565b6001600160a01b038d16815261014060208201819052600090610a079083018d8f6108eb565b8281036040840152610a1a818c8e6108eb565b6001600160a01b039a8b166060850152988a166080840152505060a081019590955260c085019390935260e08401919091526101008301529092166101209092019190915295945050505050565b918252602082015260400190565b6001600160a01b038116811461059057600080fdfea26469706673582212208868ef4e582d6fd50432f870a6193b8fd372aac6b832f0d700c4cac31417de3b64736f6c63430007010033610260604052600a805460ff60a01b1916600160a01b17905560006019819055601b819055601c553480156200003457600080fd5b5060405162005893380380620058938339810160408190526200005791620009cc565b8960008a8a620000698b8b306200040b565b6040805160038082526080820190925290602082016060803683370190505089898989828289898d85336001600160a01b031660001b8480604051806040016040528060018152602001603160f81b81525087878160039080519060200190620000d59291906200083d565b508051620000eb9060049060208401906200083d565b50506005805460ff19166012179055508151602092830120608052805191012060a052507f8b73c3c69bb8fe3d512ecc4cf759cc79239f7b179b0ffacaa9a75d522b39400f60c05260e0526001600160601b0319606091821b81166101005291901b1661012052506200016990506276a700831115610194620004da565b6200017d62278d00821115610195620004da565b42909101610140819052016101605285516200019f906002111560c8620004da565b620001b9620001ad620004ef565b8751111560c9620004da565b620001cf86620004f460201b62001a931760201c565b620001da8462000500565b6040516309b2760f60e01b81526000906001600160a01b038c16906309b2760f906200020b908d9060040162000b47565b602060405180830381600087803b1580156200022657600080fd5b505af11580156200023b573d6000803e3d6000fd5b505050506040513d601f19601f820116820180604052508101906200026191906200098d565b604051633354e3e960e11b81529091506001600160a01b038c16906366a9c7d290620002969084908b908b9060040162000aab565b600060405180830381600087803b158015620002b157600080fd5b505af1158015620002c6573d6000803e3d6000fd5b505050508061018081815250508a6001600160a01b031663d2946c2b6040518163ffffffff1660e01b815260040160206040518083038186803b1580156200030d57600080fd5b505afa15801562000322573d6000803e3d6000fd5b505050506040513d601f19601f82011682018060405250810190620003489190620009a6565b6001600160a01b03166101a0816001600160a01b031660601b815250505050505050505050505050866001600160a01b03166101c0816001600160a01b031660601b81525050856001600160a01b03166101e0816001600160a01b031660601b815250506000806000620003c48a8a306200059460201b60201c565b6102005261022091909152610240525050506009949094555050600a80546001600160a01b0319166001600160a01b03909316929092179091555062000b87945050505050565b6060600080806200041e87878762000594565b60408051600380825260808201909252939650919450925060208201606080368337019050509350868484815181106200045457fe5b60200260200101906001600160a01b031690816001600160a01b031681525050858483815181106200048257fe5b60200260200101906001600160a01b031690816001600160a01b03168152505084848281518110620004b057fe5b60200260200101906001600160a01b031690816001600160a01b0316815250505050509392505050565b81620004eb57620004eb816200068a565b5050565b600390565b80620004eb816200069f565b620005196200050e6200072b565b82101560cb620004da565b620005326200052762000734565b82111560ca620004da565b620005548160c0603f6008546200074060201b62001a9d17909392919060201c565b6008556040517fa9ba3ffe0b6c366b81232caab38605a0699ad5398d6cce76f91ee809e322dafc906200058990839062000b5c565b60405180910390a150565b6000806000846001600160a01b0316866001600160a01b031610156200061d57836001600160a01b0316856001600160a01b03161015620005e057506000915060019050600262000681565b836001600160a01b0316866001600160a01b031610156200060c57506000915060029050600162000681565b506001915060029050600062000681565b846001600160a01b0316846001600160a01b031610156200064957506002915060019050600062000681565b856001600160a01b0316846001600160a01b031610156200067557506002915060009050600162000681565b50600191506000905060025b93509350939050565b6200069c816210905360ea1b62000765565b50565b600281511015620006b0576200069c565b600081600081518110620006c057fe5b602002602001015190506000600190505b825181101562000726576000838281518110620006ea57fe5b602002602001015190506200071b816001600160a01b0316846001600160a01b0316106065620004da60201b60201c565b9150600101620006d1565b505050565b64e8d4a5100090565b67016345785d8a000090565b60006200074f848484620007c6565b506001901b60001901811b1992909216911b1790565b62461bcd60e51b600090815260206004526007602452600a808404818106603090810160081b958390069590950190829004918206850160101b01602363ffffff0060e086901c160160181b0190930160c81b60445260e882901c90606490fd5b620007d761010083106064620004da565b62000810600182101580156200080857506200080460ff84610100036200082160201b62001ac01760201c565b8211155b6064620004da565b6200072683821c156101b4620004da565b600081831062000832578162000834565b825b90505b92915050565b828054600181600116156101000203166002900490600052602060002090601f016020900481019282601f106200088057805160ff1916838001178555620008b0565b82800160010185558215620008b0579182015b82811115620008b057825182559160200191906001019062000893565b50620008be929150620008c2565b5090565b5b80821115620008be5760008155600101620008c3565b8051620008378162000b71565b600082601f830112620008f7578081fd5b81516001600160401b03808211156200090e578283fd5b6040516020601f8401601f191682018101838111838210171562000930578586fd5b806040525081945083825286818588010111156200094d57600080fd5b600092505b8383101562000971578583018101518284018201529182019162000952565b83831115620009835760008185840101525b5050505092915050565b6000602082840312156200099f578081fd5b5051919050565b600060208284031215620009b8578081fd5b8151620009c58162000b71565b9392505050565b6000806000806000806000806000806101408b8d031215620009ec578586fd5b620009f88c8c620008d9565b60208c0151909a506001600160401b038082111562000a15578788fd5b62000a238e838f01620008e6565b9a5060408d015191508082111562000a39578788fd5b5062000a488d828e01620008e6565b98505062000a5a8c60608d01620008d9565b965062000a6b8c60808d01620008d9565b955060a08b0151945060c08b0151935060e08b015192506101008b0151915062000a9a8c6101208d01620008d9565b90509295989b9194979a5092959850565b60006060820185835260206060818501528186518084526080860191508288019350845b8181101562000af75762000ae4855162000b65565b8352938301939183019160010162000acf565b505084810360408601528551808252908201925081860190845b8181101562000b395762000b26835162000b65565b8552938301939183019160010162000b11565b509298975050505050505050565b602081016003831062000b5657fe5b91905290565b90815260200190565b6001600160a01b031690565b6001600160a01b03811681146200069c57600080fd5b60805160a05160c05160e0516101005160601c6101205160601c6101405161016051610180516101a05160601c6101c05160601c6101e05160601c610200516102205161024051614bff62000c94600039806107b352806108fb5280611b585280611e285250806107f75280611b175280611e755250806113545280611b995280612c9e5250806106d752806108b75280610ffc5280613e225280613fc352508061076f52806109265280610e5c528061144252806116cb52806117705280613de75280613f7452508061187c525080610eaf52508061246d5250806124495250806116025250806115de525080611568525080612d1e525080612d60525080612d3f5250614bff6000f3fe608060405234801561001057600080fd5b50600436106102a05760003560e01c80637489ec231161016757806395d89b41116100ce578063b7b814fc11610087578063b7b814fc1461057b578063d2946c2b14610583578063d505accf1461058b578063d5c096c41461059e578063dd62ed3e146105b1578063ed24911d146105c4576102a0565b806395d89b411461051c578063a3b1379914610524578063a457c2d714610545578063a9059cbb14610558578063aaabadc51461056b578063b35056b814610573576102a0565b8063851c1bb311610120578063851c1bb3146104cb57806387ec6817146104de578063893d20e8146104f15780638d928af8146104f957806390193b7c1461050157806395c95a4f14610514576102a0565b80637489ec231461046157806374f3b009146104745780637ecebe00146104955780638129fc1c146104a857806382fce88f146104b05780638456cb59146104c3576102a0565b80633644e5151161020b57806350dd6ed9116101c457806350dd6ed91461040257806354a844ba1461041557806355c676281461041d5780636028bfd4146104255780636945c1fd1461044657806370a082311461044e576102a0565b80633644e515146103af57806338e9922e146103b757806338fff2d0146103ca57806339509351146103d25780633f4ba83a146103e557806346b8b730146103ed576102a0565b80631c0de0511161025d5780631c0de051146103335780631dd746ea1461034a5780631f0404801461035f57806323b872dd146103725780632541897f14610385578063313ce5671461039a576102a0565b806301ec954a146102a557806306fdde03146102ce578063095ea7b3146102e35780630c8605be1461030357806313ce45461461031857806318160ddd1461032b575b600080fd5b6102b86102b33660046145bb565b6105cc565b6040516102c59190614971565b60405180910390f35b6102d66109ad565b6040516102c59190614b18565b6102f66102f136600461430b565b610a43565b6040516102c5919061494e565b6103166103113660046144fe565b610a5a565b005b6103166103263660046144dd565b610b4d565b6102b8610d28565b61033b610d2e565b6040516102c593929190614959565b610352610d57565b6040516102c5919061490d565b61031661036d3660046144fe565b610d66565b6102f661038036600461425b565b610de6565b61038d610e5a565b6040516102c59190614861565b6103a2610e7e565b6040516102c59190614b44565b6102b8610e87565b6103166103c5366004614422565b610e91565b6102b8610ead565b6102f66103e036600461430b565b610ed1565b610316610f0c565b6103f5610f20565b6040516102c591906148c9565b61031661041036600461456d565b610f80565b610316610f9e565b6102b8610fb0565b61043861043336600461443a565b610fc3565b6040516102c5929190614b2b565b61038d610ffa565b6102b861045c366004614207565b61101e565b61031661046f366004614422565b61103d565b61048761048236600461443a565b61117e565b6040516102c5929190614920565b6102b86104a3366004614207565b611281565b61031661128c565b6103166104be3660046144fe565b6114a9565b610316611552565b6102b86104d9366004614529565b611564565b6104386104ec36600461443a565b6115b6565b61038d6115dc565b61038d611600565b6102b861050f366004614207565b611624565b6102b861163f565b6102d6611645565b610537610532366004614422565b6116a6565b6040516102c5929190614810565b6102f661055336600461430b565b611802565b6102f661056636600461430b565b611840565b61038d61184d565b6102f6611857565b610316611868565b61038d61187a565b61031661059936600461429b565b61189e565b6104876105ac36600461443a565b611929565b6102b86105bf366004614223565b611a4c565b6102b8611a89565b600084608001516105f96105de611600565b6001600160a01b0316336001600160a01b03161460cd611ad8565b61060e610604610ead565b82146101f4611ad8565b6060610618611ae6565b9050600061062a886101000151611bd2565b9050600061064261063d83836001611bf0565b611c81565b905061064c614077565b604080518082019091528061066d610668866001878101611bf0565b611bd2565b815260200161069061063d858e61010001515188611bf09092919063ffffffff16565b90529050600080808c5160018111156106a557fe5b1415610883576106cc8c60600151878c815181106106bf57fe5b6020026020010151611d23565b8c60600181815250507f00000000000000000000000000000000000000000000000000000000000000006001600160a01b03168c604001516001600160a01b0316141561076d576107268c846314d95b1b60e21b8e611d2f565b84519093509091506513585c9ad95d60d21b14156107685761075b81878b8151811061074e57fe5b6020026020010151612066565b97505050505050506109a4565b61087e565b7f00000000000000000000000000000000000000000000000000000000000000006001600160a01b03168c604001516001600160a01b0316141561087e5760006107ee8c7f0000000000000000000000000000000000000000000000000000000000000000815181106107dc57fe5b60200260200101518e60600151612072565b905061082f818d7f00000000000000000000000000000000000000000000000000000000000000008151811061082057fe5b60200260200101516000612084565b60608e01526108468d856242757960e81b8f611d2f565b85519094509092506513585c9ad95d60d21b141561087c5761086e83888c8151811061074e57fe5b9850505050505050506109a4565b505b61099d565b60018c51600181111561089257fe5b141561099d576108ac8c60600151878b815181106106bf57fe5b8c60600181815250507f00000000000000000000000000000000000000000000000000000000000000006001600160a01b03168c602001516001600160a01b031614156109245760006107ee8c7f0000000000000000000000000000000000000000000000000000000000000000815181106107dc57fe5b7f00000000000000000000000000000000000000000000000000000000000000006001600160a01b03168c602001516001600160a01b0316141561099d576109758c846314d95b1b60e21b8e611d2f565b84519093509091506513585c9ad95d60d21b141561099d5761075b81878b8151811061074e57fe5b5050505050505b50949350505050565b60038054604080516020601f6002600019610100600188161502019095169490940493840181900481028201810190925282815260609390929091830182828015610a395780601f10610a0e57610100808354040283529160200191610a39565b820191906000526020600020905b815481529060010190602001808311610a1c57829003601f168201915b5050505050905090565b6000610a503384846120ac565b5060015b92915050565b6000838152600c60205260409020600301546327b832b760e11b14610a7e57600080fd5b6000838152600c60205260409020600601546001600160a01b0316331415610b48576000838152600c6020526040902060078101839055600481018290554260058201556001015464131a5b5a5d60da1b1415610b01576000838152600c6020908152604080832054835260129091529020839055610afc82612114565b610b48565b6000838152600c602052604090206001015463053746f760e41b1415610b48576000838152600c6020908152604080832054835260159091529020839055610b48826122a1565b505050565b600a546001600160a01b03163314610b6457600080fd5b6000828152600c60209081526040808320600601546001600160a01b03168352600e8252808320858452600f9092529091205481548110610ba157fe5b60009182526020808320909101829055838252600f81526040808320839055600c825280832083815560018101849055600281018490556003810184905560048101849055600581018490556006810180546001600160a01b03191690556007810184905560088101849055600901839055600d909152902054600b80549091908110610c2a57fe5b60009182526020808320909101829055838252600d81526040808320839055838352600c8252808320600601546001600160a01b03168352600e8252808320848452600f9092529091205481548110610c7f57fe5b60009182526020808320909101829055828252600f81526040808320839055600c825280832083815560018101849055600281018490556003810184905560048101849055600581018490556006810180546001600160a01b03191690556007810184905560088101849055600901839055600d909152902054600b80549091908110610d0857fe5b60009182526020808320909101829055918152600d909152604081205550565b60025490565b6000806000610d3b61242a565b159250610d46612447565b9150610d5061246b565b9050909192565b6060610d61611ae6565b905090565b806242757960e81b1480610d805750806314d95b1b60e21b145b610d8957600080fd5b600a546001600160a01b03163314610da057600080fd5b506000828152600c602090815260408083206004810180549095019094556327b832b760e11b6003850155600b5493849055928252601090522055601180546001019055565b600080610df38533611a4c565b9050610e17336001600160a01b0387161480610e0f5750838210155b61019e611ad8565b610e2285858561248f565b336001600160a01b03861614801590610e3d57506000198114155b15610e4f57610e4f85338584036120ac565b506001949350505050565b7f000000000000000000000000000000000000000000000000000000000000000090565b60055460ff1690565b6000610d61611a89565b610e9961256f565b610ea161259d565b610eaa816125b0565b50565b7f000000000000000000000000000000000000000000000000000000000000000090565b3360008181526001602090815260408083206001600160a01b03871684529091528120549091610a50918590610f079086612072565b6120ac565b610f1461256f565b610f1e6000612629565b565b336000908152600e6020908152604091829020805483518184028101840190945280845260609392830182828015610a3957602002820191906000526020600020905b815481526020019060010190808311610f63575050505050905090565b610f8861256f565b610f9061259d565b610f9a828261269c565b5050565b610fa661256f565b610f1e6001612791565b600854600090610d619060c0603f6127e8565b60006060610fd98651610fd46127f7565b6127fc565b610fee89898989898989612809612825612894565b97509795505050505050565b7f000000000000000000000000000000000000000000000000000000000000000090565b6001600160a01b0381166000908152602081905260409020545b919050565b6000818152600c60205260409020600601546001600160a01b0316331461106357600080fd5b6000818152600c602090815260408083208054845260108352818420849055805484526013835281842084905580548452601283528184208490558054845260168352818420849055805484526015835281842084905584845283815560018101849055600281018490556003810184905560048101849055600581018490556006810180546001600160a01b03191690556007810184905560088101849055600901839055600d909152902054600b8054909190811061112057fe5b60009182526020808320909101829055828252600d81526040808320839055338352600e8252808320848452600f909252909120548154811061115f57fe5b60009182526020808320909101829055918152600f9091526040812055565b6060808861118d6105de611600565b611198610604610ead565b606060006111a5866129be565b156111cd576111b26129ed565b6111c4896111be610d28565b88612a00565b9250905061121f565b6111d5612a2c565b60606111df611ae6565b90506111eb8a82612a34565b61120f8d8d8d8d8d6111fb611857565b611205578d611208565b60005b878e612809565b9350915061121d8382612825565b505b6112298b82612a9d565b81895167ffffffffffffffff8111801561124257600080fd5b5060405190808252806020026020018201604052801561126c578160200160208202803683370190505b509450945050505b5097509795505050505050565b6000610a5482611624565b6000611296610ead565b905060606112a2611600565b6001600160a01b031663f94d4668836040518263ffffffff1660e01b81526004016112cd9190614971565b60006040518083038186803b1580156112e557600080fd5b505afa1580156112f9573d6000803e3d6000fd5b505050506040513d6000823e601f3d908101601f191682016040526113219190810190614336565b505060408051600380825260808201909252919250606091906020820183803683370190505090506001600160701b03817f00000000000000000000000000000000000000000000000000000000000000008151811061137d57fe5b60200260200101818152505061139161408e565b60405180608001604052806113a585612aa7565b81526020018381526020016040518060200160405280600081525081526020016000151581525090506113d6611600565b6001600160a01b031663b95cac286113ec610ead565b3030856040518563ffffffff1660e01b815260040161140e9493929190614999565b600060405180830381600087803b15801561142857600080fd5b505af115801561143c573d6000803e3d6000fd5b505050507f00000000000000000000000000000000000000000000000000000000000000006001600160a01b03167ff1f17f1a9edc53df960a0bec0dc86cb2bf5606c7826b3b8e701e70c91c28aa2a60095460405161149b9190614971565b60405180910390a250505050565b600a546001600160a01b031633146114c057600080fd5b6000928352601f6020908152604080852080546001600160a01b0319908116825560018201805482169055600282018054821690556003808301889055600483018890556005830180549092169091556006820187905560078201879055600882018790556009909101869055938552600c90915280842065119a5b1b195960d21b9084018190559184529092200155565b61155a61256f565b610f1e6001612629565b60007f00000000000000000000000000000000000000000000000000000000000000008260405160200161159992919061481e565b604051602081830303815290604052805190602001209050919050565b600060606115c78651610fd46127f7565b610fee89898989898989612809612aaa612894565b7f000000000000000000000000000000000000000000000000000000000000000090565b7f000000000000000000000000000000000000000000000000000000000000000090565b6001600160a01b031660009081526006602052604090205490565b60095490565b60048054604080516020601f6002600019610100600188161502019095169490940493840181900481028201810190925282815260609390929091830182828015610a395780601f10610a0e57610100808354040283529160200191610a39565b600081815260208080526040808320548352601f9091528120600201548190819081907f00000000000000000000000000000000000000000000000000000000000000006001600160a01b0390811691161480156117255750600085815260208080526040808320548352601f9091529020600601546242757960e81b145b15611751575050600083815260208080526040808320548352601f909152902060038101546004909101545b600085815260208080526040808320548352601f9091529020600201547f00000000000000000000000000000000000000000000000000000000000000006001600160a01b0390811691161480156117cb5750600085815260208080526040808320548352601f9091529020600601546314d95b1b60e21b145b156117f8575050600083815260208080526040808320548352601f90915290206003810154600490910154905b9092509050915091565b60008061180f3385611a4c565b905080831061182957611824338560006120ac565b611836565b61183633858584036120ac565b5060019392505050565b6000610a5033848461248f565b6000610d61612b13565b600854600090610d619060ff612b8d565b61187061256f565b610f1e6000612791565b7f000000000000000000000000000000000000000000000000000000000000000090565b60007f6e71edae12b1b97f4d1f60370fef10105fa2faae0126114a169c64845d6126c98888886118cd8c611624565b896040516020016118e396959493929190614a6a565b604051602081830303815290604052805190602001209050611914888261190b878787612b97565b886101f8612bd6565b61191f8888886120ac565b5050505050505050565b606080886119386105de611600565b611943610604610ead565b61194b612a2c565b6060611955611ae6565b905061195f610d28565b611a0c57600060606119748d8d8d868b612c2d565b9150915061198d611983612ce0565b83101560cc611ad8565b61199f600061199a612ce0565b612ce5565b6119b28b6119ab612ce0565b8403612ce5565b6119bc8184612aaa565b808a5167ffffffffffffffff811180156119d557600080fd5b506040519080825280602002602001820160405280156119ff578160200160208202803683370190505b5095509550505050611274565b611a168882612a34565b60006060611a3e8d8d8d8d8d611a2a611857565b611a34578d611a37565b60005b898e612809565b915091506119b28b83612ce5565b6000611a56611600565b6001600160a01b0316826001600160a01b03161415611a785750600019610a54565b611a828383612cef565b9050610a54565b6000610d61612d1a565b80610f9a81612db7565b6000611aaa848484612e30565b506001901b60001901811b1992909216911b1790565b6000818310611acf5781611ad1565b825b9392505050565b81610f9a57610f9a81612e77565b60408051600380825260808201909252606091829190602082018380368337019050509050670de0b6b3a7640000817f000000000000000000000000000000000000000000000000000000000000000081518110611b4057fe5b602002602001018181525050670de0b6b3a7640000817f000000000000000000000000000000000000000000000000000000000000000081518110611b8157fe5b602002602001018181525050670de0b6b3a7640000817f000000000000000000000000000000000000000000000000000000000000000081518110611bc257fe5b6020908102919091010152905090565b80516000908290611be7575060009050611038565b50506020015190565b60608083830367ffffffffffffffff81118015611c0c57600080fd5b506040519080825280601f01601f191660200182016040528015611c37576020820181803683370190505b509050835b838110156109a457858160208110611c5057fe5b1a60f81b8286830381518110611c6257fe5b60200101906001600160f81b031916908160001a905350600101611c3c565b600080828180805b8351811015611d18576030848281518110611ca057fe5b016020015160f81c10801590611cca57506039848281518110611cbf57fe5b016020015160f81c11155b15611d0b578291506030848281518110611ce057fe5b602001015160f81c60f81b60f81c60ff160383600a0201925082821115611d0657600194505b611d10565b600194505b600101611c89565b509095945050505050565b6000611ad18383612e87565b60008084600001516513585c9ad95d60d21b1480611d555750845164131a5b5a5d60da1b145b80611d675750845163053746f760e41b145b611d7057600080fd5b836242757960e81b1480611d8a5750836314d95b1b60e21b145b611d9357600080fd5b60008660c0015142604051602001611dac9291906147ee565b60408051808303601f19018152918152815160209283012060c08a01516000828152600c8552929092206006810180546001600160a01b0319166001600160a01b0390941693909317909255918801516007820155600b54815560608901516004820155600281018790558751600190910155845190915084907f0000000000000000000000000000000000000000000000000000000000000000908110611e5057fe5b6020026020010151600c600083815260200190815260200160002060080181905550837f000000000000000000000000000000000000000000000000000000000000000081518110611e9e57fe5b6020908102919091018101516000838152600c83526040808220600981019390935542600590930192909255600b8054600d8552838320819055600180820183559183527f0175b7a638427703f0dbe7bb9bbf987a2551717b34e79f33b5b1008d1fa01db90185905560c08b0180516001600160a01b039081168452600e80875285852054888652600f88528686205591511683528452918120805492830181558152919091200181905585516513585c9ad95d60d21b1415611fae576000818152600c6020908152604080832065119a5b1b195960d21b600382015554835260109091529020819055601180546001019055611fa481651b585c9ad95d60d21b612ebd565b925092505061205d565b855164131a5b5a5d60da1b1415612004576000818152600c602090815260408083206327b832b760e11b600382015554835260128252909120829055601480546001019055860151611fff90612114565b612054565b855163053746f760e41b1415612054576000818152600c602090815260408083206327b832b760e11b600382015554835260158252909120829055601780546001019055860151612054906122a1565b60008092509250505b94509492505050565b6000611ad18383613643565b6000828201611ad18482101583611ad8565b60008161209a576120958484613694565b6120a4565b6120a484846136b4565b949350505050565b6001600160a01b0380841660008181526001602090815260408083209487168084529490915290819020849055517f8c5be1e5ebec7d5bd14f71427d1e84f3dd0314c0f7b2291e5b200ac8c7c3b92590612107908590614971565b60405180910390a3505050565b6000805b601454811015610b48576000818152601260209081526040808320548352600c9091529020600201546242757960e81b14801561217357506000818152601260209081526040808320548352600c9091529020600701548311155b156121df5760008181526012602081815260408084208054808652600c8452828620548652601084529185209190915560118054600101905592849052525491506121c681641b1a5b5a5d60da1b6136e7565b6121d882641b1a5b5a5d60da1b612ebd565b5050612299565b6000818152601260209081526040808320548352600c9091529020600201546314d95b1b60e21b14801561223157506000818152601260209081526040808320548352600c9091529020600701548310155b156122995760008181526012602081815260408084208054808652600c84528286205486526010845291852091909155601180546001019055928490525254915061228481641b1a5b5a5d60da1b6136e7565b61229682641b1a5b5a5d60da1b612ebd565b50505b600101612118565b6000805b601754811015610b48576000818152601560209081526040808320548352600c9091529020600201546242757960e81b14801561230057506000818152601560209081526040808320548352600c9091529020600701548310155b1561236a5760008181526015602081815260408084208054808652600c8452828620548652601084529185209190915560118054600101905592849052525491506123528163073746f760e41b6136e7565b6123638263073746f760e41b612ebd565b5050612422565b6000818152601560209081526040808320548352600c9091529020600201546314d95b1b60e21b1480156123bc57506000818152601560209081526040808320548352600c9091529020600701548311155b156124225760008181526015602081815260408084208054808652600c84528286205486526010845291852091909155601180546001019055928490525254915061240e8163073746f760e41b6136e7565b61241f8263073746f760e41b612ebd565b50505b6001016122a5565b600061243461246b565b421180610d6157505060075460ff161590565b7f000000000000000000000000000000000000000000000000000000000000000090565b7f000000000000000000000000000000000000000000000000000000000000000090565b6124a66001600160a01b0384161515610198611ad8565b6124bd6001600160a01b0383161515610199611ad8565b6124c8838383610b48565b6001600160a01b0383166000908152602081905260409020546124ee90826101a0613836565b6001600160a01b03808516600090815260208190526040808220939093559084168152205461251d9082612072565b6001600160a01b0380841660008181526020819052604090819020939093559151908516907fddf252ad1be2c89b69c2b068fc378daa952ba7f163c4a11628f55a4df523b3ef90612107908590614971565b60006125866000356001600160e01b031916611564565b9050610eaa612595823361384c565b610191611ad8565b610f1e6125a861242a565b610192611ad8565b6125c56125bb613935565b82101560cb611ad8565b6125da6125d061393e565b82111560ca611ad8565b6008546125eb908260c0603f611a9d565b6008556040517fa9ba3ffe0b6c366b81232caab38605a0699ad5398d6cce76f91ee809e322dafc9061261e908390614971565b60405180910390a150565b80156126495761264461263a612447565b4210610193611ad8565b61265e565b61265e61265461246b565b42106101a9611ad8565b6007805460ff19168215151790556040517f9e3a5e37224532dea67b89face185703738a228a6e8a23dee546960180d3be649061261e90839061494e565b60006126a6610ead565b905060006126b2611600565b6001600160a01b031663b05f8e4883866040518363ffffffff1660e01b81526004016126df929190614ae3565b60806040518083038186803b1580156126f757600080fd5b505afa15801561270b573d6000803e3d6000fd5b505050506040513d601f19601f8201168201806040525081019061272f91906146da565b604051630639cdb560e21b81529094506001600160a01b03851693506318e736d49250612763915085908790600401614aca565b600060405180830381600087803b15801561277d57600080fd5b505af115801561191f573d6000803e3d6000fd5b6008546127a0908260ff61394a565b6008556040517feff3d4d215b42bf0960be9c6d5e05c22cba4df6627a3a523e2acee733b5854c8906127d390839061494e565b60405180910390a180610eaa57610eaa610f1e565b6001901b6000190191901c1690565b600390565b610f9a8183146067611ad8565b60006060612818610163612e77565b9850989650505050505050565b815181516128349082906127fc565b60005b8181101561288e5761286f84828151811061284e57fe5b602002602001015184838151811061286257fe5b6020026020010151613643565b84828151811061287b57fe5b6020908102919091010152600101612837565b50505050565b333014612952576000306001600160a01b03166000366040516128b8929190614836565b6000604051808303816000865af19150503d80600081146128f5576040519150601f19603f3d011682016040523d82523d6000602084013e6128fa565b606091505b50509050806000811461290957fe5b60046000803e6000516001600160e01b0319166343adbafb60e01b8114612934573d6000803e3d6000fd5b506020600460003e604060205260243d03602460403e601c3d016000f35b61295a612a2c565b6060612964611ae6565b90506129708782612a34565b600060606129888c8c8c8c8c8c898d8d63ffffffff16565b9150915061299a81848663ffffffff16565b8051601f1982018390526343adbafb603f1983015260200260231982016044820181fd5b6000808251118015610a54575060ff8016828060200190518101906129e3919061471a565b60ff161492915050565b610f1e6129f8611857565b6101b6611ad8565b600060606000612a0f84613971565b90506060612a1e878784613987565b919791965090945050505050565b610f1e61259d565b81518151612a439082906127fc565b60005b8181101561288e57612a7e848281518110612a5d57fe5b6020026020010151848381518110612a7157fe5b6020026020010151612e87565b848281518110612a8a57fe5b6020908102919091010152600101612a46565b610f9a8282613a36565b90565b81518151612ab99082906127fc565b60005b8181101561288e57612af4848281518110612ad357fe5b6020026020010151848381518110612ae757fe5b6020026020010151613b02565b848281518110612b0057fe5b6020908102919091010152600101612abc565b6000612b1d611600565b6001600160a01b031663aaabadc56040518163ffffffff1660e01b815260040160206040518083038186803b158015612b5557600080fd5b505afa158015612b69573d6000803e3d6000fd5b505050506040513d601f19601f82011682018060405250810190610d619190614551565b1c60019081161490565b60408051604180825260808201909252606091829190602082018180368337019050509050836020820152826040820152846060820153949350505050565b6000612be185613b50565b9050612bf7612bf1878387613b6c565b83611ad8565b612c06428410156101b8611ad8565b5050506001600160a01b039092166000908152600660205260409020805460010190555050565b60006060612c3961259d565b612c506001600160a01b0387163014610156611ad8565b612c676001600160a01b0386163014610156611ad8565b604080516003808252608082019092526001600160701b0391606091906020820183803683370190505090506001600160701b03817f000000000000000000000000000000000000000000000000000000000000000081518110612cc757fe5b6020908102919091010152909890975095505050505050565b600090565b610f9a8282613c1b565b6001600160a01b03918216600090815260016020908152604080832093909416825291909152205490565b60007f00000000000000000000000000000000000000000000000000000000000000007f00000000000000000000000000000000000000000000000000000000000000007f0000000000000000000000000000000000000000000000000000000000000000612d87613cae565b30604051602001612d9c959493929190614a9e565b60405160208183030381529060405280519060200120905090565b600281511015612dc657610eaa565b600081600081518110612dd557fe5b602002602001015190506000600190505b8251811015610b48576000838281518110612dfd57fe5b60200260200101519050612e26816001600160a01b0316846001600160a01b0316106065611ad8565b9150600101612de6565b612e3f61010083106064611ad8565b612e6860018210158015612e615750612e5d60ff8461010003611ac0565b8211155b6064611ad8565b610b4883821c156101b4611ad8565b610eaa816210905360ea1b613cb2565b6000828202612eab841580612ea4575083858381612ea157fe5b04145b6003611ad8565b670de0b6b3a764000090049392505050565b60008060005b6011548110156130e65760008181526010602052604090205485146130de576000818152601060209081526040808320548352600c9091529020600201546242757960e81b148015612f2c57506000858152600c60205260409020600201546314d95b1b60e21b145b15612fdd576000858152600c6020818152604080842060079081015486865260108452828620548652939092529092209091015410612fd8576019546000828152601060209081526040808320548352600c9091529020600701541115612fd85760198054601d556000828152601060209081526040808320548352600c9091529020600701549055600b805482908110612fc357fe5b600091825260209091200154601855601c8190555b6130de565b6000818152601060209081526040808320548352600c9091529020600201546314d95b1b60e21b14801561302757506000858152600c60205260409020600201546242757960e81b145b156130de576000858152600c60208181526040808420600790810154868652601084528286205486529390925290922090910154116130de57601b546000828152601060209081526040808320548352600c909152902060070154108061308e5750601b54155b156130de57601b8054601e556000828152601060209081526040808320548352600c9091529020600701549055600b8054829081106130c957fe5b600091825260209091200154601a55601c8190555b600101612ec3565b506000848152600c60205260409020600201546314d95b1b60e21b14156133b857601854156133ad576000848152600c60205260408082206004908101546018548452919092209091015410613211576000848152600c60205260408082206004808201805460188054875285872090930180549190910390558054908590558154855283852065119a5b1b195960d21b60039182018190559084015560068084015492548087529486200154948990526007830154600284015460019094015491956131ca958b956001600160a01b039586169591949190921692918891613d13565b6131df601c54651b585c9ad95d60d21b6136e7565b83651b585c9ad95d60d21b141561320b576000858152600c60205260409020600701549250905061363c565b506132e4565b601880546000908152600c602052604080822060049081015488845282842080830180549290920390915584548452828420909101805490849055845484528284206b14185c9d1b1e519a5b1b195960a21b60039182018190559083015560068083015495548086529385200154938990526007820154600283015460019093015491956132b6958b956001600160a01b039283169590949190921692918891613d13565b83651b585c9ad95d60d21b14156132e2576000858152600c60205260409020600701549250905061363c565b505b7fd40a9d664355db2112eab65236b416d419de21b5ccce2d29dc5b2601e62545fa601d54601e54604051613319929190614810565b60405180910390a16000848152600c602052604090206009810154600490910154613344919061400c565b6000858152600c602052604090206009810191909155600881015460079091015461336f9190612072565b6000858152600c6020526040902060088101919091556007015461339290612114565b6000848152600c60205260409020600701546133ad906122a1565b50600090508061363c565b6000848152600c60205260409020600201546242757960e81b141561363c57601a54156133ad576000848152600c6020526040808220600490810154601a5484529190922090910154106134e1576000848152600c602052604080822060048082018054601a8054875285872090930180549190910390558054908590558154855283852065119a5b1b195960d21b60039182018190559084015590548085529284206006908101549489905282015460078301546002840154600190940154929561349a95946001600160a01b03918216948c949092169291889190613d13565b6134af601c54651b585c9ad95d60d21b6136e7565b83651b585c9ad95d60d21b14156134db576000858152600c60205260409020600701549250905061363c565b506135b1565b601a80546000908152600c602052604080822060049081015488845282842080830180549290920390915584548452828420909101805490849055845484528284206b14185c9d1b1e519a5b1b195960a21b60039182018190559083015593548084529183206006908101549389905281015460078201546002830154600190930154613583956001600160a01b03908116948c949091169291889190613d13565b83651b585c9ad95d60d21b14156135af576000858152600c60205260409020600701549250905061363c565b505b7fd40a9d664355db2112eab65236b416d419de21b5ccce2d29dc5b2601e62545fa601d54601e546040516135e6929190614810565b60405180910390a16000848152600c6020526040902060098101546004909101546136119190612072565b6000858152600c602052604090206009810191909155600881015460079091015461336f919061400c565b9250929050565b60006136528215156004611ad8565b8261365f57506000610a54565b670de0b6b3a7640000838102906136829085838161367957fe5b04146005611ad8565b82818161368b57fe5b04915050610a54565b60006136a38215156004611ad8565b8183816136ac57fe5b049392505050565b60006136c38215156004611ad8565b826136d057506000610a54565b8160018403816136dc57fe5b046001019050610a54565b80651b585c9ad95d60d21b141561375857815b6011548110156137485760016011540381141561372557600083815260106020526040812055613740565b60018301600090815260106020526040808220548583529120555b6001016136fa565b5060118054600019019055610f9a565b80641b1a5b5a5d60da1b14156137c857815b6014548110156137b857600160145403811415613795576000838152601260205260408120556137b0565b60018301600090815260126020526040808220548583529120555b60010161376a565b5060148054600019019055610f9a565b8063073746f760e41b1415610f9a57815b601754811015613827576001601754038114156138045760008381526015602052604081205561381f565b60018301600090815260156020526040808220548583529120555b6001016137d9565b50601780546000190190555050565b60006138458484111583611ad8565b5050900390565b600073ba1ba1ba1ba1ba1ba1ba1ba1ba1ba1ba1ba1ba1b61386b6115dc565b6001600160a01b031614158015613886575061388683614022565b156138ae576138936115dc565b6001600160a01b0316336001600160a01b0316149050610a54565b6138b6612b13565b6001600160a01b0316639be2a8848484306040518463ffffffff1660e01b81526004016138e59392919061497a565b60206040518083038186803b1580156138fd57600080fd5b505afa158015613911573d6000803e3d6000fd5b505050506040513d601f19601f82011682018060405250810190611a829190614402565b64e8d4a5100090565b67016345785d8a000090565b60006001821b1984168284613960576000613963565b60015b60ff16901b17949350505050565b600081806020019051810190611ad19190614736565b606060006139958385613643565b9050845167ffffffffffffffff811180156139af57600080fd5b506040519080825280602002602001820160405280156139d9578160200160208202803683370190505b50915060005b8551811015613a2d57613a0e828783815181106139f857fe5b6020026020010151612e8790919063ffffffff16565b838281518110613a1a57fe5b60209081029190910101526001016139df565b50509392505050565b613a4d6001600160a01b038316151561019b611ad8565b613a5982600083610b48565b6001600160a01b038216600090815260208190526040902054613a7f90826101b2613836565b6001600160a01b038316600090815260208190526040902055613ab2613aad82613aa7610d28565b9061405e565b61406c565b60006001600160a01b0316826001600160a01b03167fddf252ad1be2c89b69c2b068fc378daa952ba7f163c4a11628f55a4df523b3ef83604051613af69190614971565b60405180910390a35050565b6000613b118215156004611ad8565b82613b1e57506000610a54565b670de0b6b3a764000083810290613b389085838161367957fe5b826001820381613b4457fe5b04600101915050610a54565b6000613b5a612d1a565b82604051602001611599929190614846565b6000613b7e82516041146101b9611ad8565b60208281015160408085015160608601518251600080825295019283905292939092811a91600190613bb7908990859088908890614afa565b6020604051602081039080840390855afa158015613bd9573d6000803e3d6000fd5b5050604051601f1901519150506001600160a01b03811615801590613c0f5750876001600160a01b0316816001600160a01b0316145b98975050505050505050565b613c2760008383610b48565b613c3c613aad82613c36610d28565b90612072565b6001600160a01b038216600090815260208190526040902054613c5f9082612072565b6001600160a01b0383166000818152602081905260408082209390935591519091907fddf252ad1be2c89b69c2b068fc378daa952ba7f163c4a11628f55a4df523b3ef90613af6908590614971565b4690565b62461bcd60e51b600090815260206004526007602452600a808404818106603090810160081b958390069590950190829004918206850160101b01602363ffffff0060e086901c160160181b0190930160c81b60445260e882901c90606490fd5b6000826242757960e81b1415613d3b57506000888152600c6020526040902060070154613d5e565b826314d95b1b60e21b1415613d5e57506000868152600c60205260409020600701545b60008988604051602001613d73929190614810565b60405160208183030381529060405280519060200120905080602060008c81526020019081526020016000208190555080602060008a8152602001908152602001600020819055506040518061014001604052808a6001600160a01b03168152602001886001600160a01b031681526020017f00000000000000000000000000000000000000000000000000000000000000006001600160a01b031681526020018781526020018381526020017f00000000000000000000000000000000000000000000000000000000000000006001600160a01b0316815260200185815260200184815260200186815260200142815250601f600083815260200190815260200160002060008201518160000160006101000a8154816001600160a01b0302191690836001600160a01b0316021790555060208201518160010160006101000a8154816001600160a01b0302191690836001600160a01b0316021790555060408201518160020160006101000a8154816001600160a01b0302191690836001600160a01b03160217905550606082015181600301556080820151816004015560a08201518160050160006101000a8154816001600160a01b0302191690836001600160a01b0316021790555060c0820151816006015560e082015181600701556101008201518160080155610120820151816009015590505060004290507f00000000000000000000000000000000000000000000000000000000000000006001600160a01b03167f156bf7973c4610a54da63e11aee83150e3c726c558bb3a700c5a07f8c89f82268b8a8a877f00000000000000000000000000000000000000000000000000000000000000008c88604051613ff79796959493929190614875565b60405180910390a25050505050505050505050565b600061401c838311156001611ad8565b50900390565b6000614034631c74c91760e11b611564565b82148061404f575061404c6350dd6ed960e01b611564565b82145b80610a545750610a5482614071565b6000611ad183836001613836565b600255565b50600090565b604080518082019091526000808252602082015290565b60405180608001604052806060815260200160608152602001606081526020016000151581525090565b8035610a5481614ba5565b600082601f8301126140d3578081fd5b81356140e66140e182614b79565b614b52565b81815291506020808301908481018184028601820187101561410757600080fd5b60005b848110156141265781358452928201929082019060010161410a565b505050505092915050565b600082601f830112614141578081fd5b815161414f6140e182614b79565b81815291506020808301908481018184028601820187101561417057600080fd5b60005b8481101561412657815184529282019290820190600101614173565b600082601f83011261419f578081fd5b813567ffffffffffffffff8111156141b5578182fd5b6141c8601f8201601f1916602001614b52565b91508082528360208285010111156141df57600080fd5b8060208401602084013760009082016020015292915050565b803560028110610a5457600080fd5b600060208284031215614218578081fd5b8135611ad181614ba5565b60008060408385031215614235578081fd5b823561424081614ba5565b9150602083013561425081614ba5565b809150509250929050565b60008060006060848603121561426f578081fd5b833561427a81614ba5565b9250602084013561428a81614ba5565b929592945050506040919091013590565b600080600080600080600060e0888a0312156142b5578283fd5b87356142c081614ba5565b965060208801356142d081614ba5565b9550604088013594506060880135935060808801356142ee81614bba565b9699959850939692959460a0840135945060c09093013592915050565b6000806040838503121561431d578182fd5b823561432881614ba5565b946020939093013593505050565b60008060006060848603121561434a578081fd5b835167ffffffffffffffff80821115614361578283fd5b818601915086601f830112614374578283fd5b81516143826140e182614b79565b80828252602080830192508086018b8283870289010111156143a2578788fd5b8796505b848710156143cd5780516143b981614ba5565b8452600196909601959281019281016143a6565b5089015190975093505050808211156143e4578283fd5b506143f186828701614131565b925050604084015190509250925092565b600060208284031215614413578081fd5b81518015158114611ad1578182fd5b600060208284031215614433578081fd5b5035919050565b600080600080600080600060e0888a031215614454578081fd5b87359650602088013561446681614ba5565b9550604088013561447681614ba5565b9450606088013567ffffffffffffffff80821115614492578283fd5b61449e8b838c016140c3565b955060808a0135945060a08a0135935060c08a01359150808211156144c1578283fd5b506144ce8a828b0161418f565b91505092959891949750929550565b600080604083850312156144ef578182fd5b50508035926020909101359150565b600080600060608486031215614512578081fd5b505081359360208301359350604090920135919050565b60006020828403121561453a578081fd5b81356001600160e01b031981168114611ad1578182fd5b600060208284031215614562578081fd5b8151611ad181614ba5565b6000806040838503121561457f578182fd5b823561458a81614ba5565b9150602083013567ffffffffffffffff8111156145a5578182fd5b6145b18582860161418f565b9150509250929050565b600080600080608085870312156145d0578182fd5b843567ffffffffffffffff808211156145e7578384fd5b818701915061012080838a0312156145fd578485fd5b61460681614b52565b905061461289846141f8565b815261462189602085016140b8565b602082015261463389604085016140b8565b6040820152606083013560608201526080830135608082015260a083013560a08201526146638960c085016140b8565b60c08201526146758960e085016140b8565b60e0820152610100808401358381111561468d578687fd5b6146998b82870161418f565b8284015250508096505060208701359150808211156146b6578384fd5b506146c3878288016140c3565b949794965050505060408301359260600135919050565b600080600080608085870312156146ef578182fd5b845193506020850151925060408501519150606085015161470f81614ba5565b939692955090935050565b60006020828403121561472b578081fd5b8151611ad181614bba565b60008060408385031215614748578182fd5b825161475381614bba565b6020939093015192949293505050565b6000815180845260208085019450808401835b8381101561479257815187529582019590820190600101614776565b509495945050505050565b15159052565b60008151808452815b818110156147c8576020818501810151868301820152016147ac565b818111156147d95782602083870101525b50601f01601f19169290920160200192915050565b60609290921b6bffffffffffffffffffffffff19168252601482015260340190565b918252602082015260400190565b9182526001600160e01b031916602082015260240190565b6000828483379101908152919050565b61190160f01b81526002810192909252602282015260420190565b6001600160a01b0391909116815260200190565b6001600160a01b039788168152958716602087015260408601949094526060850192909252909316608083015260a08201929092526650656e64696e6760c81b60c082015260e08101919091526101000190565b6020808252825182820181905260009190848201906040850190845b81811015614901578351835292840192918401916001016148e5565b50909695505050505050565b600060208252611ad16020830184614763565b6000604082526149336040830185614763565b82810360208401526149458185614763565b95945050505050565b901515815260200190565b92151583526020830191909152604082015260600190565b90815260200190565b9283526001600160a01b03918216602084015216604082015260600190565b8481526001600160a01b038481166020808401919091529084166040830152608060608301819052835181840191909152805161010084018190526000929182019083906101208601905b80831015614a0c576149f68451614b99565b82529284019260019290920191908401906149e4565b50838701519350607f199250828682030160a0870152614a2c8185614763565b935050506040850151818584030160c0860152614a4983826147a3565b925050506060840151614a5f60e085018261479d565b509695505050505050565b9586526001600160a01b0394851660208701529290931660408501526060840152608083019190915260a082015260c00190565b9485526020850193909352604084019190915260608301526001600160a01b0316608082015260a00190565b6000838252604060208301526120a460408301846147a3565b9182526001600160a01b0316602082015260400190565b93845260ff9290921660208401526040830152606082015260800190565b600060208252611ad160208301846147a3565b6000838252604060208301526120a46040830184614763565b60ff91909116815260200190565b60405181810167ffffffffffffffff81118282101715614b7157600080fd5b604052919050565b600067ffffffffffffffff821115614b8f578081fd5b5060209081020190565b6001600160a01b031690565b6001600160a01b0381168114610eaa57600080fd5b60ff81168114610eaa57600080fdfea26469706673582212208852eb1b28bddf227c793ee3c7a0d242c81cebf7e815fa5db2536d015b6f949164736f6c63430007010033",
  "linkReferences": {},
  "deployedLinkReferences": {}
}