{
  "_format": "hh-sol-artifact-1",
  "contractName": "SecondaryIssuePoolFactory",
  "sourceName": "contracts/SecondaryIssuePoolFactory.sol",
  "abi": [
    {
      "inputs": [
        {
          "internalType": "contract IVault",
          "name": "vault",
          "type": "address"
        },
        {
          "internalType": "contract IProtocolFeePercentagesProvider",
          "name": "protocolFeeProvider",
          "type": "address"
        }
      ],
      "stateMutability": "nonpayable",
      "type": "constructor"
    },
    {
      "anonymous": false,
      "inputs": [],
      "name": "FactoryDisabled",
      "type": "event"
    },
    {
      "anonymous": false,
      "inputs": [
        {
          "indexed": true,
          "internalType": "address",
          "name": "pool",
          "type": "address"
        }
      ],
      "name": "PoolCreated",
      "type": "event"
    },
    {
      "inputs": [
        {
          "internalType": "string",
          "name": "name",
          "type": "string"
        },
        {
          "internalType": "string",
          "name": "symbol",
          "type": "string"
        },
        {
          "internalType": "address",
          "name": "security",
          "type": "address"
        },
        {
          "internalType": "address",
          "name": "currency",
          "type": "address"
        },
        {
          "internalType": "uint256",
          "name": "minOrderSize",
          "type": "uint256"
        },
        {
          "internalType": "uint256",
          "name": "tradeFeePercentage",
          "type": "uint256"
        }
      ],
      "name": "create",
      "outputs": [
        {
          "internalType": "address",
          "name": "",
          "type": "address"
        }
      ],
      "stateMutability": "nonpayable",
      "type": "function"
    },
    {
      "inputs": [],
      "name": "disable",
      "outputs": [],
      "stateMutability": "nonpayable",
      "type": "function"
    },
    {
      "inputs": [
        {
          "internalType": "bytes4",
          "name": "selector",
          "type": "bytes4"
        }
      ],
      "name": "getActionId",
      "outputs": [
        {
          "internalType": "bytes32",
          "name": "",
          "type": "bytes32"
        }
      ],
      "stateMutability": "view",
      "type": "function"
    },
    {
      "inputs": [],
      "name": "getAuthorizer",
      "outputs": [
        {
          "internalType": "contract IAuthorizer",
          "name": "",
          "type": "address"
        }
      ],
      "stateMutability": "view",
      "type": "function"
    },
    {
      "inputs": [],
      "name": "getCreationCode",
      "outputs": [
        {
          "internalType": "bytes",
          "name": "",
          "type": "bytes"
        }
      ],
      "stateMutability": "view",
      "type": "function"
    },
    {
      "inputs": [],
      "name": "getCreationCodeContracts",
      "outputs": [
        {
          "internalType": "address",
          "name": "contractA",
          "type": "address"
        },
        {
          "internalType": "address",
          "name": "contractB",
          "type": "address"
        }
      ],
      "stateMutability": "view",
      "type": "function"
    },
    {
      "inputs": [],
      "name": "getPauseConfiguration",
      "outputs": [
        {
          "internalType": "uint256",
          "name": "pauseWindowDuration",
          "type": "uint256"
        },
        {
          "internalType": "uint256",
          "name": "bufferPeriodDuration",
          "type": "uint256"
        }
      ],
      "stateMutability": "view",
      "type": "function"
    },
    {
      "inputs": [],
      "name": "getProtocolFeePercentagesProvider",
      "outputs": [
        {
          "internalType": "contract IProtocolFeePercentagesProvider",
          "name": "",
          "type": "address"
        }
      ],
      "stateMutability": "view",
      "type": "function"
    },
    {
      "inputs": [],
      "name": "getVault",
      "outputs": [
        {
          "internalType": "contract IVault",
          "name": "",
          "type": "address"
        }
      ],
      "stateMutability": "view",
      "type": "function"
    },
    {
      "inputs": [],
      "name": "isDisabled",
      "outputs": [
        {
          "internalType": "bool",
          "name": "",
          "type": "bool"
        }
      ],
      "stateMutability": "view",
      "type": "function"
    },
    {
      "inputs": [
        {
          "internalType": "address",
          "name": "pool",
          "type": "address"
        }
      ],
      "name": "isPoolFromFactory",
      "outputs": [
        {
          "internalType": "bool",
          "name": "",
          "type": "bool"
        }
      ],
      "stateMutability": "view",
      "type": "function"
    }
  ],
  "bytecode": "0x6101806040523480156200001257600080fd5b506040516200a13f3803806200a13f8339810160408190526200003591620001fc565b8181604051806020016200004990620001ee565b601f1982820381018352601f90910116604052805183903090839060006002820460a081905280830360e08190528185529091508362000095816200010f602090811b6200043717901c565b60601b6001600160601b0319166080528285018051838252620000c4826200010f602090811b6200043717901c565b6001600160601b0319606091821b811660c05296909352905261010095909552505092821b831661012052509290921b90911661014052505050426276a70001610160525062000250565b80517f602038038060206000396000f3fefefefefefefefefefefefefefefefefefefe808352600091602081018484f090845291506200015d6001600160a01b03831615156101ac62000163565b50919050565b816200017457620001748162000178565b5050565b6200018a816210905360ea1b6200018d565b50565b62461bcd60e51b600090815260206004526007602452600a808404818106603090810160081b958390069590950190829004918206850160101b01602363ffffff0060e086901c160160181b0190930160c81b60445260e882901c90606490fd5b6193b58062000d8a83390190565b600080604083850312156200020f578182fd5b82516200021c816200023a565b60208401519092506200022f816200023a565b809150509250929050565b6001600160a01b03811681146200018a57600080fd5b60805160601c60a05160c05160601c60e051610100516101205160601c6101405160601c61016051610ac1620002c9600039806101ec52806102155250806102c052508061039b52508061034b5250806104915250806101c3528061050d5250806104b25250806101a252806104e95250610ac16000f3fe608060405234801561001057600080fd5b50600436106100a85760003560e01c80636c57f5a9116100715780636c57f5a914610121578063739238d61461012957806374dcc7a41461013e578063851c1bb3146101515780638d928af814610171578063aaabadc514610179576100a8565b8062c194db146100ad578063174481fa146100cb5780632da47c40146100e15780632f2770db146100f75780636634b75314610101575b600080fd5b6100b5610181565b6040516100c2919061098e565b60405180910390f35b6100d36101a0565b6040516100c2929190610941565b6100e96101e6565b6040516100c2929190610a68565b6100ff610250565b005b61011461010f3660046107c7565b610297565b6040516100c2919061095b565b6101146102b5565b6101316102be565b6040516100c2919061092d565b61013161014c366004610847565b6102e2565b61016461015f366004610803565b610347565b6040516100c29190610966565b610131610399565b6101316103bd565b606061019b60405180602001604052806000815250610489565b905090565b7f00000000000000000000000000000000000000000000000000000000000000007f00000000000000000000000000000000000000000000000000000000000000009091565b600080427f000000000000000000000000000000000000000000000000000000000000000081101561024257807f000000000000000000000000000000000000000000000000000000000000000003925062278d00915061024b565b60009250600091505b509091565b610258610562565b610260610593565b6001805460ff1916811790556040517f432acbfd662dbb5d8b378384a67159b47ca9d0f1b79f97cf64cf8585fa362d5090600090a1565b6001600160a01b031660009081526020819052604090205460ff1690565b60015460ff1690565b7f000000000000000000000000000000000000000000000000000000000000000090565b60008060006102ef6101e6565b915091506103386102fe610399565b8c8c8c8c8c8c8c8c8b8b336040516020016103249c9b9a999897969594939291906109e1565b6040516020818303038152906040526105a8565b9b9a5050505050505050505050565b60007f00000000000000000000000000000000000000000000000000000000000000008260405160200161037c929190610915565b604051602081830303815290604052805190602001209050919050565b7f000000000000000000000000000000000000000000000000000000000000000090565b60006103c7610399565b6001600160a01b031663aaabadc56040518163ffffffff1660e01b815260040160206040518083038186803b1580156103ff57600080fd5b505afa158015610413573d6000803e3d6000fd5b505050506040513d601f19601f8201168201806040525081019061019b919061082b565b80517f602038038060206000396000f3fefefefefefefefefefefefefefefefefefefe808352600091602081018484f090845291506104836001600160a01b03831615156101ac610611565b50919050565b8051604080517f00000000000000000000000000000000000000000000000000000000000000007f0000000000000000000000000000000000000000000000000000000000000000818101858101848101602090810190965280855293957f00000000000000000000000000000000000000000000000000000000000000009592947f000000000000000000000000000000000000000000000000000000000000000094938801866000828a3c846000888301883c5060208981019089850101610554818386610623565b505050505050505050919050565b60006105796000356001600160e01b031916610347565b90506105906105888233610661565b610191610611565b50565b6105a661059e6102b5565b1560d3610611565b565b60006105b2610593565b60006105bd836106f1565b6001600160a01b038116600081815260208190526040808220805460ff191660011790555192935090917f83a48fbcfc991335314e74d0496aab6a1987e992ddc85dddbcc4d6dd6ef2e9fc9190a292915050565b8161061f5761061f81610725565b5050565b5b60208110610643578151835260209283019290910190601f1901610624565b905182516020929092036101000a6000190180199091169116179052565b600061066b6103bd565b6001600160a01b0316639be2a8848484306040518463ffffffff1660e01b815260040161069a9392919061096f565b60206040518083038186803b1580156106b257600080fd5b505afa1580156106c6573d6000803e3d6000fd5b505050506040513d601f19601f820116820180604052508101906106ea91906107e3565b9392505050565b600060606106fe83610489565b905060008151602083016000f090506001600160a01b0381166106ea573d6000803e3d6000fd5b62461bcd60e51b600090815260206004526007602452600a808304818106603090810160081b83860601918390049283060160101b016642414c230000300160c81b604452610590916210905360ea1b906242414c90606490fd5b60008083601f840112610791578182fd5b50813567ffffffffffffffff8111156107a8578182fd5b6020830191508360208285010111156107c057600080fd5b9250929050565b6000602082840312156107d8578081fd5b81356106ea81610a76565b6000602082840312156107f4578081fd5b815180151581146106ea578182fd5b600060208284031215610814578081fd5b81356001600160e01b0319811681146106ea578182fd5b60006020828403121561083c578081fd5b81516106ea81610a76565b60008060008060008060008060c0898b031215610862578384fd5b883567ffffffffffffffff80821115610879578586fd5b6108858c838d01610780565b909a50985060208b013591508082111561089d578586fd5b506108aa8b828c01610780565b90975095505060408901356108be81610a76565b935060608901356108ce81610a76565b979a969950949793969295929450505060808201359160a0013590565b60008284528282602086013780602084860101526020601f19601f85011685010190509392505050565b9182526001600160e01b031916602082015260240190565b6001600160a01b0391909116815260200190565b6001600160a01b0392831681529116602082015260400190565b901515815260200190565b90815260200190565b9283526001600160a01b03918216602084015216604082015260600190565b6000602080835283518082850152825b818110156109ba5785810183015185820160400152820161099e565b818111156109cb5783604083870101525b50601f01601f1916929092016040019392505050565b6001600160a01b038d16815261014060208201819052600090610a079083018d8f6108eb565b8281036040840152610a1a818c8e6108eb565b6001600160a01b039a8b166060850152988a166080840152505060a081019590955260c085019390935260e08401919091526101008301529092166101209092019190915295945050505050565b918252602082015260400190565b6001600160a01b038116811461059057600080fdfea2646970667358221220aa5ad2294866c3ce838dc21521d4e9129d13b18f02517649d4f5ab9b7985d38e64736f6c634300070100336102e06040523480156200001257600080fd5b50604051620093b5380380620093b5833981016040819052620000359162000b8b565b8960008a8a620000478b8b30620004d4565b6040805160038082526080820190925290602082016060803683370190505089898989828289898d85336001600160a01b031660001b8480604051806040016040528060018152602001603160f81b81525087878160039080519060200190620000b3929190620009f5565b508051620000c9906004906020840190620009f5565b50506005805460ff19166012179055508151602092830120608052805191012060a052507f8b73c3c69bb8fe3d512ecc4cf759cc79239f7b179b0ffacaa9a75d522b39400f60c05260e0526001600160601b0319606091821b81166101005291901b1661012052506200014790506276a700831115610194620005a3565b6200015b62278d00821115610195620005a3565b42909101610140819052016101605285516200017d906002111560c8620005a3565b620001976200018b620005b8565b8751111560c9620005a3565b620001ad86620005bd60201b620027d31760201c565b620001b884620005c9565b6040516309b2760f60e01b81526000906001600160a01b038c16906309b2760f90620001e9908d9060040162000d54565b602060405180830381600087803b1580156200020457600080fd5b505af115801562000219573d6000803e3d6000fd5b505050506040513d601f19601f820116820180604052508101906200023f919062000b53565b604051633354e3e960e11b81529091506001600160a01b038c16906366a9c7d290620002749084908b908b9060040162000cb8565b600060405180830381600087803b1580156200028f57600080fd5b505af1158015620002a4573d6000803e3d6000fd5b505050508061018081815250508a6001600160a01b031663d2946c2b6040518163ffffffff1660e01b815260040160206040518083038186803b158015620002eb57600080fd5b505afa15801562000300573d6000803e3d6000fd5b505050506040513d601f19601f8201168201806040525081019062000326919062000b6c565b6001600160a01b03166101a0816001600160a01b031660601b815250505050505050505050505050866001600160a01b03166101c0816001600160a01b031660601b81525050856001600160a01b03166101e0816001600160a01b031660601b8152505089600b60006101000a8154816001600160a01b0302191690836001600160a01b031602179055506000806000620003c98a8a306200065d60201b60201c565b6102608190526102808390526102a082905291945092509050620003ed8a62000753565b61020052620003fc8962000753565b61022052600a8890556102408790526001600160601b0319606085901b166102c05260405184908b908b903090620004349062000a7a565b62000443949392919062000c8d565b604051809103906000f08015801562000460573d6000803e3d6000fd5b50600980546001600160a01b0319166001600160a01b0392831617908190556040518c8316927f3ca60c442fe0a0eec00a4242bd76d6b93ec28f607f78e5b820a53f8538854bbb92620004b9928d928f92169062000d72565b60405180910390a25050505050505050505050505062000db3565b606060008080620004e78787876200065d565b60408051600380825260808201909252939650919450925060208201606080368337019050509350868484815181106200051d57fe5b60200260200101906001600160a01b031690816001600160a01b031681525050858483815181106200054b57fe5b60200260200101906001600160a01b031690816001600160a01b031681525050848482815181106200057957fe5b60200260200101906001600160a01b031690816001600160a01b0316815250505050509392505050565b81620005b457620005b48162000827565b5050565b600390565b80620005b4816200083c565b620005e2620005d7620008c8565b82101560cb620005a3565b620005fb620005f0620008d1565b82111560ca620005a3565b6200061d8160c0603f600854620008dd60201b620027dd17909392919060201c565b6008556040517fa9ba3ffe0b6c366b81232caab38605a0699ad5398d6cce76f91ee809e322dafc906200065290839062000d69565b60405180910390a150565b6000806000846001600160a01b0316866001600160a01b03161015620006e657836001600160a01b0316856001600160a01b03161015620006a95750600091506001905060026200074a565b836001600160a01b0316866001600160a01b03161015620006d55750600091506002905060016200074a565b50600191506002905060006200074a565b846001600160a01b0316846001600160a01b03161015620007125750600291506001905060006200074a565b856001600160a01b0316846001600160a01b031610156200073e5750600291506000905060016200074a565b50600191506000905060025b93509350939050565b60006001600160a01b038216301415620007775750670de0b6b3a764000062000822565b6000826001600160a01b031663313ce5676040518163ffffffff1660e01b815260040160206040518083038186803b158015620007b357600080fd5b505afa158015620007c8573d6000803e3d6000fd5b505050506040513d601f19601f82011682018060405250810190620007ee919062000c6a565b60ff16905060006200080d6012836200090260201b620028051760201c565b905080600a0a670de0b6b3a764000002925050505b919050565b62000839816210905360ea1b6200091f565b50565b6002815110156200084d5762000839565b6000816000815181106200085d57fe5b602002602001015190506000600190505b8251811015620008c35760008382815181106200088757fe5b60200260200101519050620008b8816001600160a01b0316846001600160a01b0316106065620005a360201b60201c565b91506001016200086e565b505050565b64e8d4a5100090565b67016345785d8a000090565b6000620008ec84848462000980565b506001901b60001901811b1992909216911b1790565b600062000914838311156001620005a3565b508082035b92915050565b62461bcd60e51b600090815260206004526007602452600a808404818106603090810160081b958390069590950190829004918206850160101b01602363ffffff0060e086901c160160181b0190930160c81b60445260e882901c90606490fd5b6200099161010083106064620005a3565b620009ca60018210158015620009c25750620009be60ff8461010003620009db60201b6200281b1760201c565b8211155b6064620005a3565b620008c383821c156101b4620005a3565b6000818310620009ec5781620009ee565b825b9392505050565b828054600181600116156101000203166002900490600052602060002090601f016020900481019282601f1062000a3857805160ff191683800117855562000a68565b8280016001018555821562000a68579182015b8281111562000a6857825182559160200191906001019062000a4b565b5062000a7692915062000a88565b5090565b6137ad8062005c0883390190565b5b8082111562000a76576000815560010162000a89565b8051620009198162000d9d565b600082601f83011262000abd578081fd5b81516001600160401b038082111562000ad4578283fd5b6040516020601f8401601f191682018101838111838210171562000af6578586fd5b8060405250819450838252868185880101111562000b1357600080fd5b600092505b8383101562000b37578583018101518284018201529182019162000b18565b8383111562000b495760008185840101525b5050505092915050565b60006020828403121562000b65578081fd5b5051919050565b60006020828403121562000b7e578081fd5b8151620009ee8162000d9d565b6000806000806000806000806000806101408b8d03121562000bab578586fd5b62000bb78c8c62000a9f565b60208c0151909a506001600160401b038082111562000bd4578788fd5b62000be28e838f0162000aac565b9a5060408d015191508082111562000bf8578788fd5b5062000c078d828e0162000aac565b98505062000c198c60608d0162000a9f565b965062000c2a8c60808d0162000a9f565b955060a08b0151945060c08b0151935060e08b015192506101008b0151915062000c598c6101208d0162000a9f565b90509295989b9194979a5092959850565b60006020828403121562000c7c578081fd5b815160ff81168114620009ee578182fd5b6001600160a01b03948516815292841660208401529083166040830152909116606082015260800190565b60006060820185835260206060818501528186518084526080860191508288019350845b8181101562000d045762000cf1855162000d91565b8352938301939183019160010162000cdc565b505084810360408601528551808252908201925081860190845b8181101562000d465762000d33835162000d91565b8552938301939183019160010162000d1e565b509298975050505050505050565b602081016003831062000d6357fe5b91905290565b90815260200190565b9283526001600160a01b03918216602084015216604082015260600190565b6001600160a01b031690565b6001600160a01b03811681146200083957600080fd5b60805160a05160c05160e0516101005160601c6101205160601c6101405161016051610180516101a05160601c6101c05160601c6101e05160601c61020051610220516102405161026051610280516102a0516102c05160601c614c5062000fb860003980610d6152806132a55250806107a35280611ea7528061291a5280613320528061337a5250806108555280611b3a5280611bad5280611f5952806128b452508061296f52806137a852505080610d1e52806129425280613353525080610cea52806128dc5250806105a0528061061f52806107475280610b185280610b6f5280610bcf5280610c9a528061107b5280611170528061123452806112dd528061142e528061156b528061165552806116e9528061179f5280611b615280611bd45280611cb25280611d315280611e4b528061201f528061216e528061229c5250806105df528061065f52806107f9528061097b5280610a5f5280610ab65280610c0e5280610c5b5280610dcd528061113152806111f5528061131c52806113ef52806115aa528061160052806116aa5280611760528061195f5280611b875280611bfa5280611cf15280611d715280611efd528061205e528061212f5250806125ae5250806119b2525080612af8525080612ad45250806124965250806124725250806123fc5250806133fd52508061343f52508061341e5250614c506000f3fe608060405234801561001057600080fd5b506004361061025e5760003560e01c806370a0823111610146578063a457c2d7116100c3578063d2946c2b11610087578063d2946c2b146104b7578063d505accf146104bf578063d5c096c4146104d2578063dd62ed3e146104e5578063ed24911d146104f8578063fd19cac8146105005761025e565b8063a457c2d714610479578063a9059cbb1461048c578063aaabadc51461049f578063b35056b8146104a7578063b7b814fc146104af5761025e565b806387ec68171161010a57806387ec68171461043b578063893d20e81461044e5780638d928af81461045657806390193b7c1461045e57806395d89b41146104715761025e565b806370a08231146103d957806374f3b009146103ec5780637ecebe001461040d5780638456cb5914610420578063851c1bb3146104285761025e565b806338e9922e116101df57806350dd6ed9116101a357806350dd6ed91461037a57806354a844ba1461038d57806355c67628146103955780636028bfd41461039d578063688d6b79146103be5780636945c1fd146103d15761025e565b806338e9922e1461033a57806338fff2d01461034f57806339509351146103575780633f4ba83a1461036a5780634d6d0fd0146103725761025e565b80631dd746ea116102265780631dd746ea146102e057806323b872dd146102f55780632541897f14610308578063313ce5671461031d5780633644e515146103325761025e565b806301ec954a1461026357806306fdde031461028c578063095ea7b3146102a157806318160ddd146102c15780631c0de051146102c9575b600080fd5b61027661027136600461432f565b610508565b60405161028391906147f7565b60405180910390f35b6102946117fe565b60405161028391906148cd565b6102b46102af366004613f3b565b611894565b60405161028391906147d4565b6102766118ab565b6102d16118b1565b604051610283939291906147df565b6102e86118da565b6040516102839190614793565b6102b4610303366004613e8b565b6118e9565b61031061195d565b60405161028391906146ea565b610325611981565b6040516102839190614b47565b61027661198a565b61034d61034836600461457c565b611994565b005b6102766119b0565b6102b4610365366004613f3b565b6119d4565b61034d611a0f565b610276611a23565b61034d610388366004614164565b611a29565b61034d611a47565b610276611a59565b6103b06103ab366004614051565b611a6c565b604051610283929190614b2e565b6102766103cc366004614241565b611aa3565b61031061229a565b6102766103e7366004613e37565b6122be565b6103ff6103fa366004614051565b6122d9565b6040516102839291906147a6565b61027661041b366004613e37565b6123db565b61034d6123e6565b610276610436366004614120565b6123f8565b6103b0610449366004614051565b61244a565b610310612470565b610310612494565b61027661046c366004613e37565b6124b8565b6102946124d3565b6102b4610487366004613f3b565b612534565b6102b461049a366004613f3b565b612572565b61031061257f565b6102b4612589565b61034d61259a565b6103106125ac565b61034d6104cd366004613ecb565b6125d0565b6103ff6104e0366004614051565b61265b565b6102766104f3366004613e53565b61277d565b6102766127ba565b6103106127c4565b6000846080015161053561051a612494565b6001600160a01b0316336001600160a01b03161460cd612833565b61054a6105406119b0565b82146101f4612833565b610552612841565b60008651600181111561056157fe5b1480610579575060018651600181111561057757fe5b145b61059e5760405162461bcd60e51b8152600401610595906149ae565b60405180910390fd5b7f00000000000000000000000000000000000000000000000000000000000000006001600160a01b031686604001516001600160a01b0316148061061757507f00000000000000000000000000000000000000000000000000000000000000006001600160a01b031686604001516001600160a01b0316145b8061065757507f00000000000000000000000000000000000000000000000000000000000000006001600160a01b031686602001516001600160a01b0316145b8061069757507f00000000000000000000000000000000000000000000000000000000000000006001600160a01b031686602001516001600160a01b0316145b6106b35760405162461bcd60e51b8152600401610595906148e0565b60606106bd612854565b90506106c986826129c6565b6106d1613c30565b606060008080808c5160018111156106e557fe5b14156107165761070c8c60600151878c815181106106ff57fe5b6020026020010151612a35565b60608d0152610745565b60018c51600181111561072557fe5b14156107455761073f8c60600151878b815181106106ff57fe5b60608d01525b7f00000000000000000000000000000000000000000000000000000000000000006001600160a01b03168c602001516001600160a01b0316148015610796575060008c51600181111561079457fe5b145b156107f7578b606001518b7f0000000000000000000000000000000000000000000000000000000000000000815181106107cc57fe5b602002602001015110156107f25760405162461bcd60e51b815260040161059590614947565b6108a4565b7f00000000000000000000000000000000000000000000000000000000000000006001600160a01b03168c602001516001600160a01b0316148015610848575060008c51600181111561084657fe5b145b156108a4578b606001518b7f00000000000000000000000000000000000000000000000000000000000000008151811061087e57fe5b602002602001015110156108a45760405162461bcd60e51b8152600401610595906149d4565b6101008c01515115611289578b61010001518060200190518101906108c991906142b3565b81519195509350611284576108dc613c47565b60095460c08e015160405163ca142f7560e01b81526001600160a01b039092169163ca142f759161091191889060040161477a565b60e06040518083038186803b15801561092957600080fd5b505afa15801561093d573d6000803e3d6000fd5b505050506040513d601f19601f82011682018060405250810190610961919061450c565b60095460c08f015160208301519293506001600160a01b037f000000000000000000000000000000000000000000000000000000000000000081169392811692635778472a929082169116146109bb5783604001516109be565b83515b6040518263ffffffff1660e01b81526004016109da91906147f7565b6101406040518083038186803b1580156109f357600080fd5b505afa158015610a07573d6000803e3d6000fd5b505050506040513d601f19601f82011682018060405250810190610a2b919061444d565b602001516001600160a01b031614610a4e576763757272656e637960c01b610a5b565b67736563757269747960c01b5b92507f00000000000000000000000000000000000000000000000000000000000000006001600160a01b03168d602001516001600160a01b0316148015610aae575060008d516001811115610aac57fe5b145b80610b0557507f00000000000000000000000000000000000000000000000000000000000000006001600160a01b03168d604001516001600160a01b0316148015610b05575060018d516001811115610b0357fe5b145b15610b16578060c001519150610bcb565b7f00000000000000000000000000000000000000000000000000000000000000006001600160a01b03168d602001516001600160a01b0316148015610b67575060008d516001811115610b6557fe5b145b80610bbe57507f00000000000000000000000000000000000000000000000000000000000000006001600160a01b03168d604001516001600160a01b0316148015610bbe575060018d516001811115610bbc57fe5b145b15610bcb578060a0015191505b60007f00000000000000000000000000000000000000000000000000000000000000006001600160a01b03168e604001516001600160a01b03161480610c4657507f00000000000000000000000000000000000000000000000000000000000000006001600160a01b03168e602001516001600160a01b0316145b15610c5957506314d95b1b60e21b610ce0565b7f00000000000000000000000000000000000000000000000000000000000000006001600160a01b03168e604001516001600160a01b03161480610cd257507f00000000000000000000000000000000000000000000000000000000000000006001600160a01b03168e602001516001600160a01b0316145b15610ce057506242757960e81b5b610d0e8260a001517f0000000000000000000000000000000000000000000000000000000000000000612a41565b60a083015260c0820151610d42907f0000000000000000000000000000000000000000000000000000000000000000612a41565b60c08301526009546040516304aec4f960e01b81526001600160a01b037f00000000000000000000000000000000000000000000000000000000000000008116926304aec4f992610d999287921690600401614acf565b600060405180830381600087803b158015610db357600080fd5b505af1158015610dc7573d6000803e3d6000fd5b505050507f00000000000000000000000000000000000000000000000000000000000000006001600160a01b03167f6e2fd996203a47f0cf22a52340bdbf5d828e3c9867f762f95c38d7a38ed4bdad67736563757269747960c01b8614610eb5576009546040808601519051632bbc239560e11b81526001600160a01b0390921691635778472a91610e5b916004016147f7565b6101406040518083038186803b158015610e7457600080fd5b505afa158015610e88573d6000803e3d6000fd5b505050506040513d601f19601f82011682018060405250810190610eac919061444d565b60e00151610f3b565b6009548451604051632bbc239560e11b81526001600160a01b0390921691635778472a91610ee5916004016147f7565b6101406040518083038186803b158015610efe57600080fd5b505afa158015610f12573d6000803e3d6000fd5b505050506040513d601f19601f82011682018060405250810190610f36919061444d565b60e001515b6763757272656e637960c01b8714610fda576009546040808701519051632bbc239560e11b81526001600160a01b0390921691635778472a91610f80916004016147f7565b6101406040518083038186803b158015610f9957600080fd5b505afa158015610fad573d6000803e3d6000fd5b505050506040513d601f19601f82011682018060405250810190610fd1919061444d565b60e00151611060565b6009548551604051632bbc239560e11b81526001600160a01b0390921691635778472a9161100a916004016147f7565b6101406040518083038186803b15801561102357600080fd5b505afa158015611037573d6000803e3d6000fd5b505050506040513d601f19601f8201168201806040525081019061105b919061444d565b60e001515b6060860151608087015187516040516110a4959493899390927f0000000000000000000000000000000000000000000000000000000000000000928d9291906146fe565b60405180910390a260095460c08f01516040516335ca73db60e21b81526001600160a01b039092169163d729cf6c916110e191899060040161477a565b600060405180830381600087803b1580156110fb57600080fd5b505af115801561110f573d6000803e3d6000fd5b506000925061111c915050565b8e51600181111561112957fe5b14156111de577f00000000000000000000000000000000000000000000000000000000000000006001600160a01b03168e602001516001600160a01b031614806111a857507f00000000000000000000000000000000000000000000000000000000000000006001600160a01b03168e602001516001600160a01b0316145b156111d9576111ca83898d815181106111bd57fe5b6020026020010151612a41565b995050505050505050506117f5565b611281565b60018e5160018111156111ed57fe5b1415611281577f00000000000000000000000000000000000000000000000000000000000000006001600160a01b03168e604001516001600160a01b0316148061126c57507f00000000000000000000000000000000000000000000000000000000000000006001600160a01b03168e604001516001600160a01b0316145b15611281576111ca83898e815181106111bd57fe5b50505b6112a0565b604080518082019091526000808252602082015294505b6000855160028111156112af57fe5b14156117ee57600a548c6060015110156112db5760405162461bcd60e51b815260040161059590614910565b7f00000000000000000000000000000000000000000000000000000000000000006001600160a01b03168c604001516001600160a01b0316148061135457507f00000000000000000000000000000000000000000000000000000000000000006001600160a01b03168c602001516001600160a01b0316145b156113ed576009546040516332ff3abf60e11b81526001600160a01b03909116906365fe757e9061138e908f908990600190600401614a0b565b606060405180830381600087803b1580156113a857600080fd5b505af11580156113bc573d6000803e3d6000fd5b505050506040513d601f19601f820116820180604052508101906113e091906140f3565b90945090925090506114fb565b7f00000000000000000000000000000000000000000000000000000000000000006001600160a01b03168c604001516001600160a01b0316148061146657507f00000000000000000000000000000000000000000000000000000000000000006001600160a01b03168c602001516001600160a01b0316145b156114fb576009546040516332ff3abf60e11b81526001600160a01b03909116906365fe757e906114a0908f908990600090600401614a0b565b606060405180830381600087803b1580156114ba57600080fd5b505af11580156114ce573d6000803e3d6000fd5b505050506040513d601f19601f820116820180604052508101906114f291906140f3565b90945090925090505b7f539d902969e42a2f56e454deb040193cddc4dd02a7ef0de4ae9f27bf96e96c7f8c602001518d604001518e60600151886020015186604051611542959493929190614749565b60405180910390a1806115675760405162461bcd60e51b81526004016105959061497e565b60007f00000000000000000000000000000000000000000000000000000000000000006001600160a01b03168d604001516001600160a01b031614806115e257507f00000000000000000000000000000000000000000000000000000000000000006001600160a01b03168d602001516001600160a01b0316145b156115f557506314d95b1b60e21b6115fe565b506242757960e81b5b7f00000000000000000000000000000000000000000000000000000000000000006001600160a01b03167f6e2fd996203a47f0cf22a52340bdbf5d828e3c9867f762f95c38d7a38ed4bdad8e60c0015160008460007f0000000000000000000000000000000000000000000000000000000000000000888b8b60405161168b9897969594939291906146fe565b60405180910390a260008d5160018111156116a257fe5b1415611749577f00000000000000000000000000000000000000000000000000000000000000006001600160a01b03168d602001516001600160a01b0316148061172157507f00000000000000000000000000000000000000000000000000000000000000006001600160a01b03168d602001516001600160a01b0316145b156117445761173682888c815181106111bd57fe5b9850505050505050506117f5565b6117ec565b60018d51600181111561175857fe5b14156117ec577f00000000000000000000000000000000000000000000000000000000000000006001600160a01b03168d604001516001600160a01b031614806117d757507f00000000000000000000000000000000000000000000000000000000000000006001600160a01b03168d604001516001600160a01b0316145b156117ec5761173682888d815181106111bd57fe5b505b5050505050505b50949350505050565b60038054604080516020601f600260001961010060018816150201909516949094049384018190048102820181019092528281526060939092909183018282801561188a5780601f1061185f5761010080835404028352916020019161188a565b820191906000526020600020905b81548152906001019060200180831161186d57829003601f168201915b5050505050905090565b60006118a1338484612a4d565b5060015b92915050565b60025490565b60008060006118be612ab5565b1592506118c9612ad2565b91506118d3612af6565b9050909192565b60606118e4612854565b905090565b6000806118f6853361277d565b905061191a336001600160a01b03871614806119125750838210155b61019e612833565b611925858585612b1a565b336001600160a01b0386161480159061194057506000198114155b15611952576119528533858403612a4d565b506001949350505050565b7f000000000000000000000000000000000000000000000000000000000000000090565b60055460ff1690565b60006118e46127ba565b61199c612bfa565b6119a4612841565b6119ad81612c28565b50565b7f000000000000000000000000000000000000000000000000000000000000000090565b3360008181526001602090815260408083206001600160a01b038716845290915281205490916118a1918590611a0a9086612ca1565b612a4d565b611a17612bfa565b611a216000612cb3565b565b600a5490565b611a31612bfa565b611a39612841565b611a438282612d26565b5050565b611a4f612bfa565b611a216001612e1b565b6008546000906118e49060c0603f612e72565b60006060611a828651611a7d612e81565b612e86565b611a9789898989898989612e93612ee5612f4e565b97509795505050505050565b6000611aad612841565b600b54604051631f29a8cd60e31b81526060916001600160a01b03169063f94d466890611ade908a906004016147f7565b60006040518083038186803b158015611af657600080fd5b505afa158015611b0a573d6000803e3d6000fd5b505050506040513d6000823e601f3d908101601f19168201604052611b329190810190613f66565b5091505060007f00000000000000000000000000000000000000000000000000000000000000008514611b85577f0000000000000000000000000000000000000000000000000000000000000000611ba7565b7f00000000000000000000000000000000000000000000000000000000000000005b905060007f00000000000000000000000000000000000000000000000000000000000000008514611bf8577f0000000000000000000000000000000000000000000000000000000000000000611c1a565b7f00000000000000000000000000000000000000000000000000000000000000005b9050611c24613c83565b808b6001811115611c3157fe5b90816001811115611c3e57fe5b9052506001600160a01b038084166020830152821660408201526060810189905261010081018890523360c0820152600081516001811115611c7c57fe5b1480611c945750600181516001811115611c9257fe5b145b611cb05760405162461bcd60e51b8152600401610595906149ae565b7f00000000000000000000000000000000000000000000000000000000000000006001600160a01b031681604001516001600160a01b03161480611d2957507f00000000000000000000000000000000000000000000000000000000000000006001600160a01b031681604001516001600160a01b0316145b80611d6957507f00000000000000000000000000000000000000000000000000000000000000006001600160a01b031681602001516001600160a01b0316145b80611da957507f00000000000000000000000000000000000000000000000000000000000000006001600160a01b031681602001516001600160a01b0316145b611dc55760405162461bcd60e51b8152600401610595906148e0565b6060611dcf612854565b9050611ddb85826129c6565b611de3613c30565b60606000808086516001811115611df657fe5b1415611e1a57611e108660600151868e815181106106ff57fe5b6060870152611e49565b600186516001811115611e2957fe5b1415611e4957611e438660600151868d815181106106ff57fe5b60608701525b7f00000000000000000000000000000000000000000000000000000000000000006001600160a01b031686602001516001600160a01b0316148015611e9a5750600086516001811115611e9857fe5b145b15611efb578560600151897f000000000000000000000000000000000000000000000000000000000000000081518110611ed057fe5b60200260200101511015611ef65760405162461bcd60e51b815260040161059590614947565b611fa8565b7f00000000000000000000000000000000000000000000000000000000000000006001600160a01b031686602001516001600160a01b0316148015611f4c5750600086516001811115611f4a57fe5b145b15611fa8578560600151897f000000000000000000000000000000000000000000000000000000000000000081518110611f8257fe5b60200260200101511015611fa85760405162461bcd60e51b8152600401610595906149d4565b6101008601515115611ff757856101000151806020019051810190611fcd91906142b3565b8151919450925015611ff7578115611ff75760408051808201909152806001815260200183905293505b600a548660600151101561201d5760405162461bcd60e51b815260040161059590614910565b7f00000000000000000000000000000000000000000000000000000000000000006001600160a01b031686604001516001600160a01b0316148061209657507f00000000000000000000000000000000000000000000000000000000000000006001600160a01b031686602001516001600160a01b0316145b1561212d576009546040516332ff3abf60e11b81526001600160a01b03909116906365fe757e906120d09089908890600190600401614a0b565b606060405180830381600087803b1580156120ea57600080fd5b505af11580156120fe573d6000803e3d6000fd5b505050506040513d601f19601f8201168201806040525081019061212291906140f3565b509091506122389050565b7f00000000000000000000000000000000000000000000000000000000000000006001600160a01b031686604001516001600160a01b031614806121a657507f00000000000000000000000000000000000000000000000000000000000000006001600160a01b031686602001516001600160a01b0316145b15612238576009546040516332ff3abf60e11b81526001600160a01b03909116906365fe757e906121e09089908890600090600401614a0b565b606060405180830381600087803b1580156121fa57600080fd5b505af115801561220e573d6000803e3d6000fd5b505050506040513d601f19601f8201168201806040525081019061223291906140f3565b50909150505b7f539d902969e42a2f56e454deb040193cddc4dd02a7ef0de4ae9f27bf96e96c7f86602001518760400151886060015187602001518560405161227f959493929190614749565b60405180910390a15050505050505050509695505050505050565b7f000000000000000000000000000000000000000000000000000000000000000090565b6001600160a01b031660009081526020819052604090205490565b606080886122e861051a612494565b6122f36105406119b0565b6060600061230086613078565b156123285761230d6130a7565b61231f896123196118ab565b886130ba565b9250905061237a565b6123306130e6565b606061233a612854565b90506123468a826129c6565b61236a8d8d8d8d8d612356612589565b612360578d612363565b60005b878e612e93565b935091506123788382612ee5565b505b6123848b826130ee565b8189516001600160401b038111801561239c57600080fd5b506040519080825280602002602001820160405280156123c6578160200160208202803683370190505b509450945050505b5097509795505050505050565b60006118a5826124b8565b6123ee612bfa565b611a216001612cb3565b60007f00000000000000000000000000000000000000000000000000000000000000008260405160200161242d9291906146a7565b604051602081830303815290604052805190602001209050919050565b6000606061245b8651611a7d612e81565b611a97898989898989896130f8613114612f4e565b7f000000000000000000000000000000000000000000000000000000000000000090565b7f000000000000000000000000000000000000000000000000000000000000000090565b6001600160a01b031660009081526006602052604090205490565b60048054604080516020601f600260001961010060018816150201909516949094049384018190048102820181019092528281526060939092909183018282801561188a5780601f1061185f5761010080835404028352916020019161188a565b600080612541338561277d565b905080831061255b5761255633856000612a4d565b612568565b6125683385858403612a4d565b5060019392505050565b60006118a1338484612b1a565b60006118e461317d565b6008546000906118e49060ff6131f7565b6125a2612bfa565b611a216000612e1b565b7f000000000000000000000000000000000000000000000000000000000000000090565b60007f6e71edae12b1b97f4d1f60370fef10105fa2faae0126114a169c64845d6126c98888886125ff8c6124b8565b896040516020016126159695949392919061481f565b604051602081830303815290604052805190602001209050612646888261263d878787613201565b886101f8613240565b612651888888612a4d565b5050505050505050565b6060808861266a61051a612494565b6126756105406119b0565b61267d6130e6565b6060612687612854565b90506126916118ab565b61273d57600060606126a68d8d8d868b613297565b915091506126bf6126b56133bd565b83101560cc612833565b6126d160006126cc6133bd565b6133c4565b6126e48b6126dd6133bd565b84036133c4565b6126ee8184613114565b808a516001600160401b038111801561270657600080fd5b50604051908082528060200260200182016040528015612730578160200160208202803683370190505b50955095505050506123ce565b61274788826129c6565b6000606061276f8d8d8d8d8d61275b612589565b612765578d612768565b60005b898e6130f8565b915091506126e48b836133c4565b6000612787612494565b6001600160a01b0316826001600160a01b031614156127a957506000196118a5565b6127b383836133ce565b90506118a5565b60006118e46133f9565b6009546001600160a01b031681565b80611a4381613496565b60006127ea848484613514565b5082821b6000196001831b01831b198516175b949350505050565b6000612815838311156001612833565b50900390565b600081831061282a578161282c565b825b9392505050565b81611a4357611a438161355b565b611a2161284c612ab5565b610192612833565b60606000612860612e81565b90506060816001600160401b038111801561287a57600080fd5b506040519080825280602002602001820160405280156128a4578160200160208202803683370190505b50905060005b828110156129bf577f0000000000000000000000000000000000000000000000000000000000000000811415612918577f000000000000000000000000000000000000000000000000000000000000000082828151811061290757fe5b6020026020010181815250506129b7565b7f000000000000000000000000000000000000000000000000000000000000000081141561296d577f000000000000000000000000000000000000000000000000000000000000000082828151811061290757fe5b7f00000000000000000000000000000000000000000000000000000000000000008114156129b757670de0b6b3a76400008282815181106129aa57fe5b6020026020010181815250505b6001016128aa565b5091505090565b815181516129d5908290612e86565b60005b81811015612a2f57612a108482815181106129ef57fe5b6020026020010151848381518110612a0357fe5b602002602001015161356b565b848281518110612a1c57fe5b60209081029190910101526001016129d8565b50505050565b600061282c838361356b565b600061282c83836135a1565b6001600160a01b0380841660008181526001602090815260408083209487168084529490915290819020849055517f8c5be1e5ebec7d5bd14f71427d1e84f3dd0314c0f7b2291e5b200ac8c7c3b92590612aa89085906147f7565b60405180910390a3505050565b6000612abf612af6565b4211806118e457505060075460ff161590565b7f000000000000000000000000000000000000000000000000000000000000000090565b7f000000000000000000000000000000000000000000000000000000000000000090565b612b316001600160a01b0384161515610198612833565b612b486001600160a01b0383161515610199612833565b612b5383838361350f565b6001600160a01b038316600090815260208190526040902054612b7990826101a06135f2565b6001600160a01b038085166000908152602081905260408082209390935590841681522054612ba89082612ca1565b6001600160a01b0380841660008181526020819052604090819020939093559151908516907fddf252ad1be2c89b69c2b068fc378daa952ba7f163c4a11628f55a4df523b3ef90612aa89085906147f7565b6000612c116000356001600160e01b0319166123f8565b90506119ad612c208233613608565b610191612833565b612c3d612c336136f1565b82101560cb612833565b612c52612c486136fa565b82111560ca612833565b600854612c63908260c0603f6127dd565b6008556040517fa9ba3ffe0b6c366b81232caab38605a0699ad5398d6cce76f91ee809e322dafc90612c969083906147f7565b60405180910390a150565b600082820161282c8482101583612833565b8015612cd357612cce612cc4612ad2565b4210610193612833565b612ce8565b612ce8612cde612af6565b42106101a9612833565b6007805460ff19168215151790556040517f9e3a5e37224532dea67b89face185703738a228a6e8a23dee546960180d3be6490612c969083906147d4565b6000612d306119b0565b90506000612d3c612494565b6001600160a01b031663b05f8e4883866040518363ffffffff1660e01b8152600401612d69929190614898565b60806040518083038186803b158015612d8157600080fd5b505afa158015612d95573d6000803e3d6000fd5b505050506040513d601f19601f82011682018060405250810190612db99190614594565b604051630639cdb560e21b81529094506001600160a01b03851693506318e736d49250612ded91508590879060040161487f565b600060405180830381600087803b158015612e0757600080fd5b505af1158015612651573d6000803e3d6000fd5b600854612e2a908260ff613706565b6008556040517feff3d4d215b42bf0960be9c6d5e05c22cba4df6627a3a523e2acee733b5854c890612e5d9083906147d4565b60405180910390a1806119ad576119ad611a21565b6001901b6000190191901c1690565b600390565b611a438183146067612833565b600060606000612ea28461372d565b90506001816001811115612eb257fe5b14612ec757612ec261016361355b565b612ed7565b612ed18885613743565b90935091505b509850989650505050505050565b81518151612ef4908290612e86565b60005b81811015612a2f57612f2f848281518110612f0e57fe5b6020026020010151848381518110612f2257fe5b60200260200101516135a1565b848281518110612f3b57fe5b6020908102919091010152600101612ef7565b33301461300c576000306001600160a01b0316600036604051612f729291906146bf565b6000604051808303816000865af19150503d8060008114612faf576040519150601f19603f3d011682016040523d82523d6000602084013e612fb4565b606091505b505090508060008114612fc357fe5b60046000803e6000516001600160e01b0319166343adbafb60e01b8114612fee573d6000803e3d6000fd5b506020600460003e604060205260243d03602460403e601c3d016000f35b6130146130e6565b606061301e612854565b905061302a87826129c6565b600060606130428c8c8c8c8c8c898d8d63ffffffff16565b9150915061305481848663ffffffff16565b8051601f1982018390526343adbafb603f1983015260200260231982016044820181fd5b60008082511180156118a5575060ff80168280602001905181019061309d91906145d4565b60ff161492915050565b611a216130b2612589565b6101b6612833565b6000606060006130c98461380e565b905060606130d8878784613824565b919791965090945050505050565b611a21612841565b611a4382826138d2565b6000606061310761016361355b565b9850989650505050505050565b81518151613123908290612e86565b60005b81811015612a2f5761315e84828151811061313d57fe5b602002602001015184838151811061315157fe5b602002602001015161399e565b84828151811061316a57fe5b6020908102919091010152600101613126565b6000613187612494565b6001600160a01b031663aaabadc56040518163ffffffff1660e01b815260040160206040518083038186803b1580156131bf57600080fd5b505afa1580156131d3573d6000803e3d6000fd5b505050506040513d601f19601f820116820180604052508101906118e49190614148565b1c60019081161490565b60408051604180825260808201909252606091829190602082018180368337019050509050836020820152826040820152846060820153949350505050565b600061324b856139ec565b905061326161325b878387613a08565b83612833565b613270428410156101b8612833565b5050506001600160a01b039092166000908152600660205260409020805460010190555050565b600060606132a3612841565b7f00000000000000000000000000000000000000000000000000000000000000006132de6001600160a01b0388811690831614610156612833565b6132fe816001600160a01b0316876001600160a01b031614610156612833565b6dffffffffffffffffffffffffffff606061331886613ab7565b9050613377817f00000000000000000000000000000000000000000000000000000000000000008151811061334957fe5b60200260200101517f0000000000000000000000000000000000000000000000000000000000000000612a35565b817f0000000000000000000000000000000000000000000000000000000000000000815181106133a357fe5b602090810291909101015290999098509650505050505050565b620f424090565b611a438282613acd565b6001600160a01b03918216600090815260016020908152604080832093909416825291909152205490565b60007f00000000000000000000000000000000000000000000000000000000000000007f00000000000000000000000000000000000000000000000000000000000000007f0000000000000000000000000000000000000000000000000000000000000000613466613b60565b3060405160200161347b959493929190614853565b60405160208183030381529060405280519060200120905090565b6002815110156134a5576119ad565b6000816000815181106134b457fe5b602002602001015190506000600190505b825181101561350f5760008382815181106134dc57fe5b60200260200101519050613505816001600160a01b0316846001600160a01b0316106065612833565b91506001016134c5565b505050565b61352361010083106064612833565b61354c60018210158015613545575061354160ff846101000361281b565b8211155b6064612833565b61350f83821c156101b4612833565b6119ad816210905360ea1b613b64565b600082820261358f84158061358857508385838161358557fe5b04145b6003612833565b670de0b6b3a764000090049392505050565b60006135b08215156004612833565b826135bd575060006118a5565b670de0b6b3a7640000838102906135e0908583816135d757fe5b04146005612833565b8281816135e957fe5b049150506118a5565b60006136018484111583612833565b5050900390565b600073ba1ba1ba1ba1ba1ba1ba1ba1ba1ba1ba1ba1ba1b613627612470565b6001600160a01b031614158015613642575061364283613bc5565b1561366a5761364f612470565b6001600160a01b0316336001600160a01b03161490506118a5565b61367261317d565b6001600160a01b0316639be2a8848484306040518463ffffffff1660e01b81526004016136a193929190614800565b60206040518083038186803b1580156136b957600080fd5b505afa1580156136cd573d6000803e3d6000fd5b505050506040513d601f19601f820116820180604052508101906127b39190614031565b64e8d4a5100090565b67016345785d8a000090565b60006001821b198416828461371c57600061371f565b60015b60ff16901b17949350505050565b6000818060200190518101906118a591906141b1565b60006060600061375284613c01565b9050606085516001600160401b038111801561376d57600080fd5b50604051908082528060200260200182016040528015613797578160200160208202803683370190505b50905060005b8651811015613802577f000000000000000000000000000000000000000000000000000000000000000081146137fa578681815181106137d957fe5b60200260200101518282815181106137ed57fe5b6020026020010181815250505b60010161379d565b50909590945092505050565b60008180602001905181019061282c91906145f0565b6060600061383283856135a1565b905084516001600160401b038111801561384b57600080fd5b50604051908082528060200260200182016040528015613875578160200160208202803683370190505b50915060005b85518110156138c9576138aa8287838151811061389457fe5b602002602001015161356b90919063ffffffff16565b8382815181106138b657fe5b602090810291909101015260010161387b565b50509392505050565b6138e96001600160a01b038316151561019b612833565b6138f58260008361350f565b6001600160a01b03821660009081526020819052604090205461391b90826101b26135f2565b6001600160a01b03831660009081526020819052604090205561394e613949826139436118ab565b90613c17565b613c25565b60006001600160a01b0316826001600160a01b03167fddf252ad1be2c89b69c2b068fc378daa952ba7f163c4a11628f55a4df523b3ef8360405161399291906147f7565b60405180910390a35050565b60006139ad8215156004612833565b826139ba575060006118a5565b670de0b6b3a7640000838102906139d4908583816135d757fe5b8260018203816139e057fe5b046001019150506118a5565b60006139f66133f9565b8260405160200161242d9291906146cf565b6000613a1a82516041146101b9612833565b60208281015160408085015160608601518251600080825295019283905292939092811a91600190613a539089908590889088906148af565b6020604051602081039080840390855afa158015613a75573d6000803e3d6000fd5b5050604051601f1901519150506001600160a01b03811615801590613aab5750876001600160a01b0316816001600160a01b0316145b98975050505050505050565b60608180602001905181019061282c91906141fa565b613ad96000838361350f565b613aee61394982613ae86118ab565b90612ca1565b6001600160a01b038216600090815260208190526040902054613b119082612ca1565b6001600160a01b0383166000818152602081905260408082209390935591519091907fddf252ad1be2c89b69c2b068fc378daa952ba7f163c4a11628f55a4df523b3ef906139929085906147f7565b4690565b62461bcd60e51b600090815260206004526007602452600a808404818106603090810160081b958390069590950190829004918206850160101b01602363ffffff0060e086901c160160181b0190930160c81b60445260e882901c90606490fd5b6000613bd7631c74c91760e11b6123f8565b821480613bf25750613bef6350dd6ed960e01b6123f8565b82145b806118a557506118a582613c2a565b60008180602001905181019061282c91906141cd565b600061282c838360016135f2565b600255565b50600090565b604080518082019091526000808252602082015290565b6040805160e081018252600080825260208201819052918101829052606081018290526080810182905260a0810182905260c081019190915290565b60408051610120810190915280600081526000602082018190526040820181905260608083018290526080830182905260a0830182905260c0830182905260e08301919091526101009091015290565b80356118a581614be9565b80516118a581614be9565b600082601f830112613cf9578081fd5b8135613d0c613d0782614b7b565b614b55565b818152915060208083019084810181840286018201871015613d2d57600080fd5b60005b84811015613d4c57813584529282019290820190600101613d30565b505050505092915050565b600082601f830112613d67578081fd5b8151613d75613d0782614b7b565b818152915060208083019084810181840286018201871015613d9657600080fd5b60005b84811015613d4c57815184529282019290820190600101613d99565b600082601f830112613dc5578081fd5b8135613dd3613d0782614b9a565b9150808252836020828501011115613dea57600080fd5b8060208401602084013760009082016020015292915050565b80516118a581614bfe565b8051600581106118a557600080fd5b8051600381106118a557600080fd5b80356118a581614bfe565b600060208284031215613e48578081fd5b813561282c81614be9565b60008060408385031215613e65578081fd5b8235613e7081614be9565b91506020830135613e8081614be9565b809150509250929050565b600080600060608486031215613e9f578081fd5b8335613eaa81614be9565b92506020840135613eba81614be9565b929592945050506040919091013590565b600080600080600080600060e0888a031215613ee5578485fd5b8735613ef081614be9565b96506020880135613f0081614be9565b955060408801359450606088013593506080880135613f1e81614c0b565b9699959850939692959460a0840135945060c09093013592915050565b60008060408385031215613f4d578182fd5b8235613f5881614be9565b946020939093013593505050565b600080600060608486031215613f7a578081fd5b83516001600160401b0380821115613f90578283fd5b818601915086601f830112613fa3578283fd5b8151613fb1613d0782614b7b565b80828252602080830192508086018b828387028901011115613fd1578788fd5b8796505b84871015613ffc578051613fe881614be9565b845260019690960195928101928101613fd5565b508901519097509350505080821115614013578283fd5b5061402086828701613d57565b925050604084015190509250925092565b600060208284031215614042578081fd5b8151801515811461282c578182fd5b600080600080600080600060e0888a03121561406b578081fd5b87359650602088013561407d81614be9565b9550604088013561408d81614be9565b945060608801356001600160401b03808211156140a8578283fd5b6140b48b838c01613ce9565b955060808a0135945060a08a0135935060c08a01359150808211156140d7578283fd5b506140e48a828b01613db5565b91505092959891949750929550565b600080600060608486031215614107578081fd5b8351925060208401519150604084015190509250925092565b600060208284031215614131578081fd5b81356001600160e01b03198116811461282c578182fd5b600060208284031215614159578081fd5b815161282c81614be9565b60008060408385031215614176578182fd5b823561418181614be9565b915060208301356001600160401b0381111561419b578182fd5b6141a785828601613db5565b9150509250929050565b6000602082840312156141c2578081fd5b815161282c81614bfe565b600080604083850312156141df578182fd5b82516141ea81614bfe565b6020939093015192949293505050565b6000806040838503121561420c578182fd5b82516004811061421a578283fd5b60208401519092506001600160401b03811115614235578182fd5b6141a785828601613d57565b60008060008060008060c08789031215614259578384fd5b863561426481614bfe565b9550602087013594506040870135935060608701356001600160401b0381111561428c578283fd5b61429889828a01613db5565b9350506080870135915060a087013590509295509295509295565b600080604083850312156142c5578182fd5b82516001600160401b038111156142da578283fd5b8301601f810185136142ea578283fd5b80516142f8613d0782614b9a565b81815286602083850101111561430c578485fd5b61431d826020830160208601614bbd565b60209590950151949694955050505050565b60008060008060808587031215614344578182fd5b84356001600160401b038082111561435a578384fd5b818701915061012080838a031215614370578485fd5b61437981614b55565b90506143858984613e2c565b81526143948960208501613cd3565b60208201526143a68960408501613cd3565b6040820152606083013560608201526080830135608082015260a083013560a08201526143d68960c08501613cd3565b60c08201526143e88960e08501613cd3565b60e08201526101008084013583811115614400578687fd5b61440c8b828701613db5565b828401525050809650506020870135915080821115614429578384fd5b5061443687828801613ce9565b949794965050505060408301359260600135919050565b6000610140808385031215614460578182fd5b61446981614b55565b90506144758484613e03565b81526144848460208501613cde565b60208201526144968460408501613cde565b60408201526144a88460608501613e1d565b60608201526144ba8460808501613e03565b60808201526144cc8460a08501613e0e565b60a082015260c083015160c08201526144e88460e08501613cde565b60e08201526101008381015190820152610120928301519281019290925250919050565b600060e0828403121561451d578081fd5b61452760e0614b55565b82518152602083015161453981614be9565b8060208301525060408301516040820152606083015160608201526080830151608082015260a083015160a082015260c083015160c08201528091505092915050565b60006020828403121561458d578081fd5b5035919050565b600080600080608085870312156145a9578182fd5b84519350602085015192506040850151915060608501516145c981614be9565b939692955090935050565b6000602082840312156145e5578081fd5b815161282c81614c0b565b60008060408385031215614602578182fd5b82516141ea81614c0b565b6001600160a01b03169052565b6000815180845260208085019450808401835b838110156146495781518752958201959082019060010161462d565b509495945050505050565b6000815180845261466c816020860160208601614bbd565b601f01601f19169290920160200192915050565b6002811061468a57fe5b9052565b80516003811061469a57fe5b8252602090810151910152565b9182526001600160e01b031916602082015260240190565b6000828483379101908152919050565b61190160f01b81526002810192909252602282015260420190565b6001600160a01b0391909116815260200190565b6001600160a01b0398891681529688166020880152604087019590955260608601939093529416608084015260a083019390935260c082019290925260e08101919091526101000190565b6001600160a01b03958616815293909416602084015260408301919091526060820152608081019190915260a00190565b6001600160a01b03929092168252602082015260400190565b60006020825261282c602083018461461a565b6000604082526147b9604083018561461a565b82810360208401526147cb818561461a565b95945050505050565b901515815260200190565b92151583526020830191909152604082015260600190565b90815260200190565b9283526001600160a01b03918216602084015216604082015260600190565b9586526001600160a01b0394851660208701529290931660408501526060840152608083019190915260a082015260c00190565b9485526020850193909352604084019190915260608301526001600160a01b0316608082015260a00190565b6000838252604060208301526127fd6040830184614654565b9182526001600160a01b0316602082015260400190565b93845260ff9290921660208401526040830152606082015260800190565b60006020825261282c6020830184614654565b602080825260169082015275496e76616c6964207377617070656420746f6b656e7360501b604082015260600190565b60208082526018908201527f4f726465722062656c6f77206d696e696d756d2073697a650000000000000000604082015260600190565b6020808252601d908201527f496e73756666696369656e742063757272656e63792062616c616e6365000000604082015260600190565b602080825260169082015275496e73756666696369656e74206c697175696469747960501b604082015260600190565b6020808252600c908201526b0496e76616c696420737761760a41b604082015260600190565b6020808252601d908201527f496e73756666696369656e742073656375726974792062616c616e6365000000604082015260600190565b600060808252614a1f608083018651614680565b6020850151614a3160a084018261460d565b506040850151614a4460c084018261460d565b50606085015160e08301526080850151610100818185015260a08701519150610120828186015260c08801519250614a8061014086018461460d565b60e08801519250614a9561016086018461460d565b818801519250806101808601525050614ab26101a0840182614654565b915050614ac2602083018561468e565b6127fd6060830184614680565b825181526020808401516001600160a01b039081169183019190915260408085015190830152606080850151908301526080808501519083015260a0808501519083015260c09384015193820193909352911660e08201526101000190565b6000838252604060208301526127fd604083018461461a565b60ff91909116815260200190565b6040518181016001600160401b0381118282101715614b7357600080fd5b604052919050565b60006001600160401b03821115614b90578081fd5b5060209081020190565b60006001600160401b03821115614baf578081fd5b50601f01601f191660200190565b60005b83811015614bd8578181015183820152602001614bc0565b83811115612a2f5750506000910152565b6001600160a01b03811681146119ad57600080fd5b600281106119ad57600080fd5b60ff811681146119ad57600080fdfea26469706673582212206041d8b119c0edc7ac8c461cc333b58e978baf6b51b049bf3fc0ad8ca59c8cc764736f6c63430007010033608060405260006001553480156200001657600080fd5b50604051620037ad380380620037ad833981016040819052620000399162000106565b620000443362000098565b600980546001600160a01b039586166001600160a01b03199182161790915560078054948616948216949094179093556008805492851692841692909217909155600a805491909316911617905562000166565b600080546001600160a01b038381166001600160a01b0319831681178455604051919092169283917f8be0079c531659141344cd1fd0a4f28419497f9722a3daafe3b4186f6b6457e09190a35050565b80516001600160a01b03811681146200010057600080fd5b92915050565b600080600080608085870312156200011c578384fd5b620001288686620000e8565b9350620001398660208701620000e8565b92506200014a8660408701620000e8565b91506200015b8660608701620000e8565b905092959194509250565b61363780620001766000396000f3fe608060405234801561001057600080fd5b50600436106101005760003560e01c80637489ec2311610097578063ca142f7511610066578063ca142f75146101f5578063d729cf6c14610215578063e43372e914610228578063f2fde38b1461023057610100565b80637489ec23146101b457806381b5da1d146101c75780638da5cb5b146101da578063af18cfd8146101e257610100565b80635778472a116100d35780635778472a1461016257806365fe757e146101825780636945c1fd146101a4578063715018a6146101ac57610100565b80630c8605be146101055780632541897f1461011a57806338fff2d01461013857806346b8b7301461014d575b600080fd5b61011861011336600461314e565b610243565b005b610122610365565b60405161012f91906132c1565b60405180910390f35b610140610374565b60405161012f9190613319565b610155610403565b60405161012f91906132d5565b6101756101703660046130b5565b6104eb565b60405161012f91906134b9565b610195610190366004613162565b61067c565b60405161012f93929190613322565b6101226109c1565b6101186109d0565b6101186101c23660046130b5565b6109e8565b6101186101d53660046130e5565b610b3f565b610122610ca7565b6101186101f0366004613110565b610cb6565b61020861020336600461308a565b611056565b60405161012f9190613566565b61011861022336600461308a565b611122565b6101556111c1565b61011861023e36600461306e565b611222565b6000838152600260208190526040822060010154600160a01b900460ff169081111561026b57fe5b14156102925760405162461bcd60e51b81526004016102899061336f565b60405180910390fd5b6002600084815260026020526040902060010154600160b01b900460ff1660048111156102bb57fe5b146102d85760405162461bcd60e51b81526004016102899061340a565b6000838152600260205260409020600301546001600160a01b031633146103115760405162461bcd60e51b8152600401610289906133d3565b6000838152600260208190526040909120600481018490558082018390556001908101549091600160a01b90910460ff169081111561034c57fe5b14156103605761035d836001611251565b50505b505050565b6007546001600160a01b031690565b600080600a60009054906101000a90046001600160a01b03166001600160a01b03166338fff2d06040518163ffffffff1660e01b815260040160206040518083038186803b1580156103c557600080fd5b505afa1580156103d9573d6000803e3d6000fd5b505050506040513d601f19601f820116820180604052508101906103fd91906130cd565b91505090565b600354606090819067ffffffffffffffff8111801561042157600080fd5b5060405190808252806020026020018201604052801561044b578160200160208202803683370190505b5090506000805b6003548110156104e357336001600160a01b0316600260006003848154811061047757fe5b600091825260208083209091015483528201929092526040019020600301546001600160a01b031614156104db57600381815481106104b257fe5b90600052602060002001548383815181106104c957fe5b60209081029190910101526001909101905b600101610452565b509091505090565b6104f3612ebc565b6104fb610ca7565b6001600160a01b0316336001600160a01b0316148061052457506009546001600160a01b031633145b8061054857506000828152600260205260409020600301546001600160a01b031633145b6105645760405162461bcd60e51b815260040161028990613338565b60008281526002602052604090819020815161014081019092528054829060ff16600181111561059057fe5b600181111561059b57fe5b8152815461010090046001600160a01b03908116602083015260018301549081166040830152606090910190600160a01b900460ff1660028111156105dc57fe5b60028111156105e757fe5b81526020016001820160159054906101000a900460ff16600181111561060957fe5b600181111561061457fe5b81526020016001820160169054906101000a900460ff16600481111561063657fe5b600481111561064157fe5b81526002820154602082015260038201546001600160a01b031660408201526004820154606082015260059091015460809091015292915050565b6000808061069e3361068c610ca7565b6001600160a01b0316146101aa6116a1565b6000855160028111156106ad57fe5b14806106c557506001855160028111156106c357fe5b145b6106ce57600080fd5b60008460018111156106dc57fe5b14806106f3575060018460018111156106f157fe5b145b6106fc57600080fd5b600154421415610713576001805481019055610718565b426001555b60008660c0015160015460405160200161073392919061329f565b604051602081830303815290604052805190602001209050610753612ebc565b6040518061014001604052808960000151600181111561076f57fe5b815260200189602001516001600160a01b0316815260200189604001516001600160a01b03168152602001886000015160028111156107aa57fe5b81526020018760018111156107bb57fe5b8152600260208083018290526060808d015160408086019190915260c08e01516001600160a01b0316918501919091528b820151608085015260a0909301869052600086815291905220815181549293508392829060ff19166001838181111561082157fe5b021790555060208201518154610100600160a81b0319166101006001600160a01b039283160217825560408301516001830180546001600160a01b03191691909216178082556060840151919060ff60a01b1916600160a01b83600281111561088657fe5b021790555060808201518160010160156101000a81548160ff021916908360018111156108af57fe5b021790555060a082015160018201805460ff60b01b1916600160b01b8360048111156108d757fe5b021790555060c0820151600282015560e08201516003820180546001600160a01b0319166001600160a01b0390921691909117905561010082015160048201556101209091015160059091015560008751600281111561093357fe5b1415610951576109448160006116b3565b94509450945050506109b8565b60018751600281111561096057fe5b14156109b557600380546000848152600460205260408120829055600180830184559290527fc2575a0e9e593c00f959f8c92f12db2869c3395a3b0502d05e2516446f71f85b018390556109449082906116b3565b50505b93509350939050565b6008546001600160a01b031690565b6109dc3361068c610ca7565b6109e6600061271e565b565b6000818152600260208190526040822060010154600160a01b900460ff1690811115610a1057fe5b1415610a2e5760405162461bcd60e51b815260040161028990613478565b6002600082815260026020526040902060010154600160b01b900460ff166004811115610a5757fe5b14610a745760405162461bcd60e51b81526004016102899061340a565b6000818152600260205260409020600301546001600160a01b03163314610aad5760405162461bcd60e51b8152600401610289906133d3565b60035415610adf57600081815260046020526040902054600380549091908110610ad357fe5b60009182526020822001555b6000908152600460208181526040808420849055600291829052832080546001600160a81b03191681556001810180546001600160b81b03191690559081018390556003810180546001600160a01b031916905590810182905560050155565b6009546001600160a01b0316331480610b705750610b5b610ca7565b6001600160a01b0316336001600160a01b0316145b610b8c5760405162461bcd60e51b8152600401610289906133a6565b600092835260026020818152604080862080546001600160a81b03199081168255600180830180546001600160b81b03199081169091558387018a9055600380850180546001600160a01b0319908116825560048088018e905560059788018e90559b8d52878d208054909616865585850180549094169093558489018c9055848201805484168155858c018d90559486018c9055546001600160a01b039081168c52858852868c208a8d528852868c208c8155808501805485169055808a018d90558083018d9055808c018d90558087018d905560069081018d90559454168b52848752858b20988b5297909552928820888155928301805490941690935592810186905592830185905592820184905581018390550155565b6000546001600160a01b031690565b6009546001600160a01b0316331480610ce75750610cd2610ca7565b6001600160a01b0316336001600160a01b0316145b610d035760405162461bcd60e51b8152600401610289906133a6565b6000826001811115610d1157fe5b1480610d2857506001826001811115610d2657fe5b145b610d3157600080fd5b60008481526002602081905260409091208082018054860190556001908101805460ff60b01b1916600160b11b17908190559091600160a01b90910460ff1690811115610d7a57fe5b1415610dd257600380546000868152600460205260408120829055600180830184559290527fc2575a0e9e593c00f959f8c92f12db2869c3395a3b0502d05e2516446f71f85b01859055610dcf908590611251565b50505b60018101610dde612f13565b5060008581526002602081815260408084206003908101546001600160a01b03908116865260058085528387208988528552838720845160e08101865281548082526001830154909416968101969096529586015493850193909352908401546060840152600484015460808401529083015460a083015260069092015460c082015291908714610e70578151610e72565b865b9050600087836040015114610e8b578260400151610e8d565b875b9050610e97612f13565b6040518060e001604052808481526020016002600086815260200190815260200160002060030160009054906101000a90046001600160a01b03166001600160a01b03168152602001838152602001856060015181526020018681526020018560a0015181526020018560c0015181525090508060056000600260008d815260200190815260200160002060030160009054906101000a90046001600160a01b03166001600160a01b03166001600160a01b0316815260200190815260200160002060008781526020019081526020016000206000820151816000015560208201518160010160006101000a8154816001600160a01b0302191690836001600160a01b0316021790555060408201518160020155606082015181600301556080820151816004015560a0820151816005015560c0820151816006015590505060066000600260008c815260200190815260200160002060030160009054906101000a90046001600160a01b03166001600160a01b03166001600160a01b03168152602001908152602001600020859080600181540180825580915050600190039060005260206000200160009091909190915055505050505050505050565b61105e612f13565b611066610ca7565b6001600160a01b0316336001600160a01b0316148061108d5750336001600160a01b038416145b6110a95760405162461bcd60e51b815260040161028990613441565b506001600160a01b038083166000908152600560208181526040808420868552825292839020835160e08101855281548152600182015490951691850191909152600281015492840192909252600382015460608401526004820154608084015281015460a08301526006015460c08201525b92915050565b61112e3361068c610ca7565b60005b6001600160a01b038316600090815260066020526040902054811015610360576001600160a01b038316600090815260066020526040902080548391908390811061117857fe5b906000526020600020015414156111b9576001600160a01b03831660009081526006602052604090208054829081106111ad57fe5b60009182526020822001555b600101611131565b3360009081526006602090815260409182902080548351818402810184019094528084526060939283018282801561121857602002820191906000526020600020905b815481526020019060010190808311611204575b5050505050905090565b61122e3361068c610ca7565b6112456001600160a01b03821615156101ab6116a1565b61124e8161271e565b50565b600060606000606060038054905067ffffffffffffffff8111801561127557600080fd5b5060405190808252806020026020018201604052801561129f578160200160208202803683370190505b5090506000805b60035481101561169457600381815481106112bd57fe5b6000918252602090912001546112d25761168c565b600060026000600384815481106112e557fe5b9060005260206000200154815260200190815260200160002060010160159054906101000a900460ff16600181111561131a57fe5b14801561134e575060016000898152600260205260409020600190810154600160a81b900460ff169081111561134c57fe5b145b80156113b657506002600089815260200190815260200160002060040154600260006003848154811061137d57fe5b90600052602060002001548152602001908152602001600020600401541015806113b65750600088815260026020526040902060040154155b8061149f5750600160026000600384815481106113cf57fe5b9060005260206000200154815260200190815260200160002060010160159054906101000a900460ff16600181111561140457fe5b1480156114375750600080898152600260205260409020600190810154600160a81b900460ff169081111561143557fe5b145b801561149f57506002600089815260200190815260200160002060040154600260006003848154811061146657fe5b906000526020600020015481526020019081526020016000206004015411158061149f5750600088815260026020526040902060040154155b1561168c57600381815481106114b157fe5b90600052602060002001548383815181106114c857fe5b60209081029190910181019190915260075460008a8152600290925260409091205461010090046001600160a01b039081169116148015611523575060008881526002602052604081205460ff16600181111561152157fe5b145b8061157457506008546000898152600260205260409020600101546001600160a01b0390811691161480156115745750600160008981526002602052604090205460ff16600181111561157257fe5b145b156115b7576115b084600260006003858154811061158e57fe5b906000526020600020015481526020019081526020016000206002015461276e565b9350611630565b61162d8461162860026000600386815481106115cf57fe5b906000526020600020015481526020019081526020016000206002015460026000600387815481106115fd57fe5b906000526020600020015481526020019081526020016000206004015461278790919063ffffffff16565b61276e565b93505b600087600281111561163e57fe5b141580156116635750876003828154811061165557fe5b906000526020600020015414155b15611685578783836001018151811061167857fe5b6020026020010181815250505b6001909101905b6001016112a6565b5091969095509350505050565b816116af576116af816127bd565b5050565b60008060008060008080600090506000806000606060038054905067ffffffffffffffff811180156116e457600080fd5b5060405190808252806020026020018201604052801561170e578160200160208202803683370190505b5090506117208d61012001518d611251565b909250905060008c600281111561173357fe5b1415611766578c60c00151821015611761578c61012001516000809a509a509a505050505050505050612717565b61179b565b60018c600281111561177457fe5b141561179b578161179b578c61012001516000809a509a509a505050505050505050612717565b600091505b80518210156127035760c08d01516117b757612703565b8c61012001518183815181106117c957fe5b60200260200101511415801561182257508c60e001516001600160a01b0316600260008385815181106117f857fe5b6020908102919091018101518252810191909152604001600020600301546001600160a01b031614155b8015611870575060006002600083858151811061183b57fe5b6020026020010151815260200190815260200160002060010160169054906101000a900460ff16600481111561186d57fe5b14155b15611aa0576002600082848151811061188557fe5b602002602001015181526020019081526020016000206004015460001480156118b157506101008d0151155b156118bb576126f8565b6000600260008385815181106118cd57fe5b6020026020010151815260200190815260200160002060010160159054906101000a900460ff1660018111156118ff57fe5b14801561191b575060018d60800151600181111561191957fe5b145b156119b0578c61010001516002600083858151811061193657fe5b602002602001015181526020019081526020016000206004015410158061196057506101008d0151155b156119ab576002600082848151811061197557fe5b6020026020010151815260200190815260200160002060040154965080828151811061199d57fe5b602002602001015197508194505b611aa0565b6001600260008385815181106119c257fe5b6020026020010151815260200190815260200160002060010160159054906101000a900460ff1660018111156119f457fe5b148015611a10575060008d608001516001811115611a0e57fe5b145b15611aa0578c610100015160026000838581518110611a2b57fe5b6020026020010151815260200190815260200160002060040154111580611a5557506101008d0151155b15611aa05760026000828481518110611a6a57fe5b60200260200101518152602001908152602001600020600401549650808281518110611a9257fe5b602002602001015195508194505b60018d608001516001811115611ab257fe5b14156120ff5787156120fa5760075460208e01516001600160a01b039081169116148015611aec575060008d516001811115611aea57fe5b145b15611df15760085460008981526002602052604090205461010090046001600160a01b039081169116148015611b3c575060008881526002602052604081205460ff166001811115611b3a57fe5b145b15611b655760008881526002602081905260409091200154611b5e90886127cd565b9350611bcb565b6007546000898152600260205260409020600101546001600160a01b039081169116148015611bb05750600160008981526002602052604090205460ff166001811115611bae57fe5b145b15611bcb576000888152600260208190526040909120015493505b8c60c001518410611d7e5760c08d01519350611be78488612787565b60085460008a8152600260205260409020549194506001600160a01b0390811661010090920416148015611c375750600160008981526002602052604090205460ff166001811115611c3557fe5b145b611c5d5760008881526002602081905260409091200154611c58908461281e565b611c81565b611c81600260008a8152602001908152602001600020600201548e60c0015161281e565b600260008a81526020019081526020016000206002018190555060008d60c0018181525050600260008981526020019081526020016000206002015460001415611cef576000888152600260205260409020600101805460ff60b01b19169055611cea85612834565b611d12565b6000888152600260205260409020600101805460ff60b01b1916600160b01b1790555b600060a08e01526101208d0151611d2c908989878761284f565b945060008d606001516002811115611d4057fe5b1415611d79576000611d5d8e61012001518f60e001516001612b5b565b6101208f01519c50959a50949850612717975050505050505050565b611dec565b8315611dec57611d8e8488612787565b9250611d9e8d60c001518561281e565b60c08e015260008881526002602081905260408220908101919091556001908101805460ff60b01b1916905560a08e01526101208d0151611de2908989878761284f565b50611dec85612834565b6120fa565b60085460408e01516001600160a01b039081169116148015611e1f575060018d516001811115611e1d57fe5b145b156120fa576007546000898152600260205260409020600101546001600160a01b039081169116148015611e6f5750600160008981526002602052604090205460ff166001811115611e6d57fe5b145b15611e985760008881526002602081905260409091200154611e919088612787565b9250611efe565b60085460008981526002602052604090205461010090046001600160a01b039081169116148015611ee3575060008881526002602052604081205460ff166001811115611ee157fe5b145b15611efe576000888152600260208190526040909120015492505b8c60c00151831061208c5760c08d01519250611f1a83886127cd565b60075460008a8152600260205260409020600101549195506001600160a01b039182169116148015611f66575060008881526002602052604081205460ff166001811115611f6457fe5b145b611f8c5760008881526002602081905260409091200154611f87908561281e565b611fb0565b611fb0600260008a8152602001908152602001600020600201548e60c0015161281e565b600260008a81526020019081526020016000206002018190555060008d60c001818152505060026000898152602001908152602001600020600201546000141561201e576000888152600260205260409020600101805460ff60b01b1916905561201985612834565b612041565b6000888152600260205260409020600101805460ff60b01b1916600160b01b1790555b600060a08e01526101208d015161205b908989878761284f565b945060008d60600151600281111561206f57fe5b1415611dec576000611d5d8e61012001518f60e001516000612b5b565b82156120fa5761209c83886127cd565b93506120ac8d60c001518461281e565b60c08e015260008881526002602081905260408220908101919091556001908101805460ff60b01b1916905560a08e01526101208d01516120f0908989878761284f565b506120fa85612834565b6126f8565b60008d60800151600181111561211157fe5b14156126f85785156126f85760085460208e01516001600160a01b03908116911614801561214b575060008d51600181111561214957fe5b145b156123ed5760075460008781526002602052604090205461010090046001600160a01b03908116911614801561219b575060008681526002602052604081205460ff16600181111561219957fe5b145b156121c457600086815260026020819052604090912001546121bd9088612787565b925061222a565b6008546000878152600260205260409020600101546001600160a01b03908116911614801561220f5750600160008781526002602052604090205460ff16600181111561220d57fe5b145b1561222a576000868152600260208190526040909120015492505b8c60c0015183106123895760c08d0151925061224683886127cd565b6008546000888152600260205260409020600101549195506001600160a01b0391821691161480156122945750600160008781526002602052604090205460ff16600181111561229257fe5b145b6122ba57600086815260026020819052604090912001546122b5908561281e565b6122de565b6122de60026000888152602001908152602001600020600201548e60c0015161281e565b600260008881526020019081526020016000206002018190555060008d60c001818152505060026000878152602001908152602001600020600201546000141561234c576000868152600260205260409020600101805460ff60b01b1916905561234785612834565b61236f565b6000868152600260205260409020600101805460ff60b01b1916600160b01b1790555b600060a08e01526101208d015161205b908789878761284f565b82156120fa5761239983886127cd565b93506123a98d60c001518461281e565b60c08e015260008681526002602081905260408220908101919091556001908101805460ff60b01b1916905560a08e01526101208d01516120f0908789878761284f565b60075460408e01516001600160a01b03908116911614801561241b575060018d51600181111561241957fe5b145b156126f8576008546000878152600260205260409020600101546001600160a01b03908116911614801561246b5750600160008781526002602052604090205460ff16600181111561246957fe5b145b15612494576000868152600260208190526040909120015461248d90886127cd565b93506124fa565b60075460008781526002602052604090205461010090046001600160a01b0390811691161480156124df575060008681526002602052604081205460ff1660018111156124dd57fe5b145b156124fa576000868152600260208190526040909120015493505b8c60c00151841061268a5760c08d015193506125168488612787565b6007546000888152600260205260409020549194506001600160a01b0390811661010090920416148015612564575060008681526002602052604081205460ff16600181111561256257fe5b145b61258a5760008681526002602081905260409091200154612585908461281e565b6125ae565b6125ae60026000888152602001908152602001600020600201548e60c0015161281e565b600260008881526020019081526020016000206002018190555060008d60c001818152505060026000878152602001908152602001600020600201546000141561261c576000868152600260205260409020600101805460ff60b01b1916905561261785612834565b61263f565b6000868152600260205260409020600101805460ff60b01b1916600160b01b1790555b600060a08e01526101208d0151612659908789878761284f565b945060008d60600151600281111561266d57fe5b14156120fa576000611d5d8e61012001518f60e001516001612b5b565b83156126f85761269a8488612787565b92506126aa8d60c001518561281e565b60c08e015260008681526002602081905260408220908101919091556001908101805460ff60b01b1916905560a08e01526101208d01516126ee908789878761284f565b506126f885612834565b6001909101906117a0565b50606061270e612d02565b50505050505050505b9250925092565b600080546001600160a01b038381166001600160a01b0319831681178455604051919092169283917f8be0079c531659141344cd1fd0a4f28419497f9722a3daafe3b4186f6b6457e09190a35050565b600082820161278084821015836116a1565b9392505050565b60008282026127ab8415806127a45750838583816127a157fe5b04145b60036116a1565b670de0b6b3a764000090049392505050565b61124e816210905360ea1b612e5b565b60006127dc82151560046116a1565b826127e95750600061111c565b670de0b6b3a76400008381029061280c9085838161280357fe5b041460056116a1565b82818161281557fe5b0491505061111c565b600061282e8383111560016116a1565b50900390565b6003818154811061284157fe5b600091825260208220015550565b60018054810190819055600090612864612f13565b6040518060e00160405280898152602001600260008b815260200190815260200160002060030160009054906101000a90046001600160a01b03166001600160a01b031681526020018881526020018781526020018381526020018681526020018581525090508060056000600260008c815260200190815260200160002060030160009054906101000a90046001600160a01b03166001600160a01b03166001600160a01b0316815260200190815260200160002060008481526020019081526020016000206000820151816000015560208201518160010160006101000a8154816001600160a01b0302191690836001600160a01b0316021790555060408201518160020155606082015181600301556080820151816004015560a0820151816005015560c082015181600601559050508060056000600260008b815260200190815260200160002060030160009054906101000a90046001600160a01b03166001600160a01b03166001600160a01b0316815260200190815260200160002060008481526020019081526020016000206000820151816000015560208201518160010160006101000a8154816001600160a01b0302191690836001600160a01b0316021790555060408201518160020155606082015181600301556080820151816004015560a0820151816005015560c0820151816006015590505060066000600260008b815260200190815260200160002060030160009054906101000a90046001600160a01b03166001600160a01b03166001600160a01b0316815260200190815260200160002082908060018154018082558091505060019003906000526020600020016000909190919091505560066000600260008a815260200190815260200160002060030160009054906101000a90046001600160a01b03166001600160a01b03166001600160a01b03168152602001908152602001600020829080600181540180825580915050600190039060005260206000200160009091909190915055819250505095945050505050565b6000806000612b68612f13565b60005b6001600160a01b038716600090815260066020526040902054811015612cef576001600160a01b0387166000908152600660205260409020805482908110612baf57fe5b60009182526020808320909101546001600160a01b03808b16845260058084526040808620848752855294859020855160e0810187528154808252600183015490941695810195909552600281015495850195909552600385015460608501526004850154608085015284015460a084015260069093015460c083015295509250881415612c5e57600086612c48578260a00151612c4e565b8260c001515b9050612c5a848261276e565b9350505b6001600160a01b0387166000908152600660205260409020805482908110612c8257fe5b600091825260208083209091018290556001600160a01b038916825260058082526040808420888552909252908220828155600180820180546001600160a01b03191690556002820184905560038201849055600482018490559181018390556006019190915501612b6b565b50612cf8612d02565b5095945050505050565b6000805b600354811015612d3d5760038181548110612d1d57fe5b60009182526020909120015415612d35576001909101905b600101612d06565b5080612d62576040805160008152602081019182905251612d6091600391612f4f565b505b60608167ffffffffffffffff81118015612d7b57600080fd5b50604051908082528060200260200182016040528015612da5578160200160208202803683370190505b5090506000805b600354811015612e415760038181548110612dc357fe5b60009182526020909120015415612e3957816004600060038481548110612de657fe5b906000526020600020015481526020019081526020016000208190555060038181548110612e1057fe5b9060005260206000200154838381518110612e2757fe5b60209081029190910101526001909101905b600101612dac565b508151612e55906003906020850190612f4f565b50505050565b62461bcd60e51b600090815260206004526007602452600a808404818106603090810160081b958390069590950190829004918206850160101b01602363ffffff0060e086901c160160181b0190930160c81b60445260e882901c90606490fd5b60408051610140810190915280600081526000602082018190526040820181905260609091019081526020016000815260200160008152600060208201819052604082018190526060820181905260809091015290565b6040805160e081018252600080825260208201819052918101829052606081018290526080810182905260a0810182905260c081019190915290565b828054828255906000526020600020908101928215612f8a579160200282015b82811115612f8a578251825591602001919060010190612f6f565b50612f96929150612f9a565b5090565b5b80821115612f965760008155600101612f9b565b803561111c816135df565b600082601f830112612fca578081fd5b813567ffffffffffffffff811115612fe0578182fd5b612ff3601f8201601f19166020016135b8565b915080825283602082850101111561300a57600080fd5b8060208401602084013760009082016020015292915050565b803561111c816135f4565b60006040828403121561303f578081fd5b61304960406135b8565b905081356003811061305a57600080fd5b808252506020820135602082015292915050565b60006020828403121561307f578081fd5b8135612780816135df565b6000806040838503121561309c578081fd5b82356130a7816135df565b946020939093013593505050565b6000602082840312156130c6578081fd5b5035919050565b6000602082840312156130de578081fd5b5051919050565b6000806000606084860312156130f9578081fd5b505081359360208301359350604090920135919050565b60008060008060808587031215613125578081fd5b8435935060208501359250604085013561313e816135f4565b9396929550929360600135925050565b6000806000606084860312156130f9578283fd5b600080600060808486031215613176578283fd5b833567ffffffffffffffff8082111561318d578485fd5b81860191506101208083890312156131a3578586fd5b6131ac816135b8565b90506131b88884613023565b81526131c78860208501612faf565b60208201526131d98860408501612faf565b6040820152606083013560608201526080830135608082015260a083013560a08201526132098860c08501612faf565b60c082015261321b8860e08501612faf565b60e08201526101008084013583811115613233578788fd5b61323f8a828701612fba565b828401525050809550505050613258856020860161302e565b91506132678560608601613023565b90509250925092565b6001600160a01b03169052565b6005811061328757fe5b9052565b6003811061328757fe5b6002811061328757fe5b60609290921b6bffffffffffffffffffffffff19168252601482015260340190565b6001600160a01b0391909116815260200190565b6020808252825182820181905260009190848201906040850190845b8181101561330d578351835292840192918401916001016132f1565b50909695505050505050565b90815260200190565b9283526020830191909152604082015260600190565b6020808252601d908201527f556e617574686f72697a65642061636365737320746f206f7264657273000000604082015260600190565b6020808252601f908201527f4d61726b6574206f726465722063616e206e6f74206265206368616e67656400604082015260600190565b602080825260139082015272556e617574686f72697a65642061636365737360681b604082015260600190565b6020808252601b908201527f53656e646572206973206e6f74206f726465722063726561746f720000000000604082015260600190565b60208082526017908201527f4f7264657220697320616c72656164792066696c6c6564000000000000000000604082015260600190565b6020808252601d908201527f556e617574686f72697a65642061636365737320746f20747261646573000000604082015260600190565b60208082526021908201527f4d61726b6574206f726465722063616e206e6f742062652063616e63656c6c656040820152601960fa1b606082015260800190565b6000610140820190506134cd828451613295565b60208301516134df6020840182613270565b5060408301516134f26040840182613270565b506060830151613505606084018261328b565b5060808301516135186080840182613295565b5060a083015161352b60a084018261327d565b5060c083015160c083015260e083015161354860e0840182613270565b50610100838101519083015261012092830151929091019190915290565b815181526020808301516001600160a01b03169082015260408083015190820152606080830151908201526080808301519082015260a0808301519082015260c0918201519181019190915260e00190565b60405181810167ffffffffffffffff811182821017156135d757600080fd5b604052919050565b6001600160a01b038116811461124e57600080fd5b6002811061124e57600080fdfea26469706673582212209b6e98677f471e97fc7fdf8cf77ae6fe390b2c18df0b10ed3f778a9f3084cddc64736f6c63430007010033",
  "linkReferences": {},
  "deployedLinkReferences": {}
}