{
  "_format": "hh-sol-artifact-1",
  "contractName": "SecondaryIssuePoolFactory",
  "sourceName": "contracts/SecondaryIssuePoolFactory.sol",
  "abi": [
    {
      "inputs": [
        {
          "internalType": "contract IVault",
          "name": "vault",
          "type": "address"
        },
        {
          "internalType": "contract IProtocolFeePercentagesProvider",
          "name": "protocolFeeProvider",
          "type": "address"
        }
      ],
      "stateMutability": "nonpayable",
      "type": "constructor"
    },
    {
      "anonymous": false,
      "inputs": [],
      "name": "FactoryDisabled",
      "type": "event"
    },
    {
      "anonymous": false,
      "inputs": [
        {
          "indexed": true,
          "internalType": "address",
          "name": "pool",
          "type": "address"
        }
      ],
      "name": "PoolCreated",
      "type": "event"
    },
    {
      "inputs": [
        {
          "internalType": "string",
          "name": "name",
          "type": "string"
        },
        {
          "internalType": "string",
          "name": "symbol",
          "type": "string"
        },
        {
          "internalType": "address",
          "name": "security",
          "type": "address"
        },
        {
          "internalType": "address",
          "name": "currency",
          "type": "address"
        },
        {
          "internalType": "uint256",
          "name": "maxAmountsIn",
          "type": "uint256"
        },
        {
          "internalType": "uint256",
          "name": "tradeFeePercentage",
          "type": "uint256"
        }
      ],
      "name": "create",
      "outputs": [
        {
          "internalType": "address",
          "name": "",
          "type": "address"
        }
      ],
      "stateMutability": "nonpayable",
      "type": "function"
    },
    {
      "inputs": [],
      "name": "disable",
      "outputs": [],
      "stateMutability": "nonpayable",
      "type": "function"
    },
    {
      "inputs": [
        {
          "internalType": "bytes4",
          "name": "selector",
          "type": "bytes4"
        }
      ],
      "name": "getActionId",
      "outputs": [
        {
          "internalType": "bytes32",
          "name": "",
          "type": "bytes32"
        }
      ],
      "stateMutability": "view",
      "type": "function"
    },
    {
      "inputs": [],
      "name": "getAuthorizer",
      "outputs": [
        {
          "internalType": "contract IAuthorizer",
          "name": "",
          "type": "address"
        }
      ],
      "stateMutability": "view",
      "type": "function"
    },
    {
      "inputs": [],
      "name": "getCreationCode",
      "outputs": [
        {
          "internalType": "bytes",
          "name": "",
          "type": "bytes"
        }
      ],
      "stateMutability": "view",
      "type": "function"
    },
    {
      "inputs": [],
      "name": "getCreationCodeContracts",
      "outputs": [
        {
          "internalType": "address",
          "name": "contractA",
          "type": "address"
        },
        {
          "internalType": "address",
          "name": "contractB",
          "type": "address"
        }
      ],
      "stateMutability": "view",
      "type": "function"
    },
    {
      "inputs": [],
      "name": "getPauseConfiguration",
      "outputs": [
        {
          "internalType": "uint256",
          "name": "pauseWindowDuration",
          "type": "uint256"
        },
        {
          "internalType": "uint256",
          "name": "bufferPeriodDuration",
          "type": "uint256"
        }
      ],
      "stateMutability": "view",
      "type": "function"
    },
    {
      "inputs": [],
      "name": "getProtocolFeePercentagesProvider",
      "outputs": [
        {
          "internalType": "contract IProtocolFeePercentagesProvider",
          "name": "",
          "type": "address"
        }
      ],
      "stateMutability": "view",
      "type": "function"
    },
    {
      "inputs": [],
      "name": "getVault",
      "outputs": [
        {
          "internalType": "contract IVault",
          "name": "",
          "type": "address"
        }
      ],
      "stateMutability": "view",
      "type": "function"
    },
    {
      "inputs": [],
      "name": "isDisabled",
      "outputs": [
        {
          "internalType": "bool",
          "name": "",
          "type": "bool"
        }
      ],
      "stateMutability": "view",
      "type": "function"
    },
    {
      "inputs": [
        {
          "internalType": "address",
          "name": "pool",
          "type": "address"
        }
      ],
      "name": "isPoolFromFactory",
      "outputs": [
        {
          "internalType": "bool",
          "name": "",
          "type": "bool"
        }
      ],
      "stateMutability": "view",
      "type": "function"
    }
  ],
  "bytecode": "0x6101806040523480156200001257600080fd5b5060405162009092380380620090928339810160408190526200003591620001fc565b8181604051806020016200004990620001ee565b601f1982820381018352601f90910116604052805183903090839060006002820460a081905280830360e08190528185529091508362000095816200010f602090811b6200043717901c565b60601b6001600160601b0319166080528285018051838252620000c4826200010f602090811b6200043717901c565b6001600160601b0319606091821b811660c05296909352905261010095909552505092821b831661012052509290921b90911661014052505050426276a70001610160525062000250565b80517f602038038060206000396000f3fefefefefefefefefefefefefefefefefefefe808352600091602081018484f090845291506200015d6001600160a01b03831615156101ac62000163565b50919050565b816200017457620001748162000178565b5050565b6200018a816210905360ea1b6200018d565b50565b62461bcd60e51b600090815260206004526007602452600a808404818106603090810160081b958390069590950190829004918206850160101b01602363ffffff0060e086901c160160181b0190930160c81b60445260e882901c90606490fd5b6183088062000d8a83390190565b600080604083850312156200020f578182fd5b82516200021c816200023a565b60208401519092506200022f816200023a565b809150509250929050565b6001600160a01b03811681146200018a57600080fd5b60805160601c60a05160c05160601c60e051610100516101205160601c6101405160601c61016051610ac1620002c9600039806101ec52806102155250806102c052508061039b52508061034b5250806104915250806101c3528061050d5250806104b25250806101a252806104e95250610ac16000f3fe608060405234801561001057600080fd5b50600436106100a85760003560e01c80636c57f5a9116100715780636c57f5a914610121578063739238d61461012957806374dcc7a41461013e578063851c1bb3146101515780638d928af814610171578063aaabadc514610179576100a8565b8062c194db146100ad578063174481fa146100cb5780632da47c40146100e15780632f2770db146100f75780636634b75314610101575b600080fd5b6100b5610181565b6040516100c2919061098e565b60405180910390f35b6100d36101a0565b6040516100c2929190610941565b6100e96101e6565b6040516100c2929190610a68565b6100ff610250565b005b61011461010f3660046107c7565b610297565b6040516100c2919061095b565b6101146102b5565b6101316102be565b6040516100c2919061092d565b61013161014c366004610847565b6102e2565b61016461015f366004610803565b610347565b6040516100c29190610966565b610131610399565b6101316103bd565b606061019b60405180602001604052806000815250610489565b905090565b7f00000000000000000000000000000000000000000000000000000000000000007f00000000000000000000000000000000000000000000000000000000000000009091565b600080427f000000000000000000000000000000000000000000000000000000000000000081101561024257807f000000000000000000000000000000000000000000000000000000000000000003925062278d00915061024b565b60009250600091505b509091565b610258610562565b610260610593565b6001805460ff1916811790556040517f432acbfd662dbb5d8b378384a67159b47ca9d0f1b79f97cf64cf8585fa362d5090600090a1565b6001600160a01b031660009081526020819052604090205460ff1690565b60015460ff1690565b7f000000000000000000000000000000000000000000000000000000000000000090565b60008060006102ef6101e6565b915091506103386102fe610399565b8c8c8c8c8c8c8c8c8b8b336040516020016103249c9b9a999897969594939291906109e1565b6040516020818303038152906040526105a8565b9b9a5050505050505050505050565b60007f00000000000000000000000000000000000000000000000000000000000000008260405160200161037c929190610915565b604051602081830303815290604052805190602001209050919050565b7f000000000000000000000000000000000000000000000000000000000000000090565b60006103c7610399565b6001600160a01b031663aaabadc56040518163ffffffff1660e01b815260040160206040518083038186803b1580156103ff57600080fd5b505afa158015610413573d6000803e3d6000fd5b505050506040513d601f19601f8201168201806040525081019061019b919061082b565b80517f602038038060206000396000f3fefefefefefefefefefefefefefefefefefefe808352600091602081018484f090845291506104836001600160a01b03831615156101ac610611565b50919050565b8051604080517f00000000000000000000000000000000000000000000000000000000000000007f0000000000000000000000000000000000000000000000000000000000000000818101858101848101602090810190965280855293957f00000000000000000000000000000000000000000000000000000000000000009592947f000000000000000000000000000000000000000000000000000000000000000094938801866000828a3c846000888301883c5060208981019089850101610554818386610623565b505050505050505050919050565b60006105796000356001600160e01b031916610347565b90506105906105888233610661565b610191610611565b50565b6105a661059e6102b5565b1560d3610611565b565b60006105b2610593565b60006105bd836106f1565b6001600160a01b038116600081815260208190526040808220805460ff191660011790555192935090917f83a48fbcfc991335314e74d0496aab6a1987e992ddc85dddbcc4d6dd6ef2e9fc9190a292915050565b8161061f5761061f81610725565b5050565b5b60208110610643578151835260209283019290910190601f1901610624565b905182516020929092036101000a6000190180199091169116179052565b600061066b6103bd565b6001600160a01b0316639be2a8848484306040518463ffffffff1660e01b815260040161069a9392919061096f565b60206040518083038186803b1580156106b257600080fd5b505afa1580156106c6573d6000803e3d6000fd5b505050506040513d601f19601f820116820180604052508101906106ea91906107e3565b9392505050565b600060606106fe83610489565b905060008151602083016000f090506001600160a01b0381166106ea573d6000803e3d6000fd5b62461bcd60e51b600090815260206004526007602452600a808304818106603090810160081b83860601918390049283060160101b016642414c230000300160c81b604452610590916210905360ea1b906242414c90606490fd5b60008083601f840112610791578182fd5b50813567ffffffffffffffff8111156107a8578182fd5b6020830191508360208285010111156107c057600080fd5b9250929050565b6000602082840312156107d8578081fd5b81356106ea81610a76565b6000602082840312156107f4578081fd5b815180151581146106ea578182fd5b600060208284031215610814578081fd5b81356001600160e01b0319811681146106ea578182fd5b60006020828403121561083c578081fd5b81516106ea81610a76565b60008060008060008060008060c0898b031215610862578384fd5b883567ffffffffffffffff80821115610879578586fd5b6108858c838d01610780565b909a50985060208b013591508082111561089d578586fd5b506108aa8b828c01610780565b90975095505060408901356108be81610a76565b935060608901356108ce81610a76565b979a969950949793969295929450505060808201359160a0013590565b60008284528282602086013780602084860101526020601f19601f85011685010190509392505050565b9182526001600160e01b031916602082015260240190565b6001600160a01b0391909116815260200190565b6001600160a01b0392831681529116602082015260400190565b901515815260200190565b90815260200190565b9283526001600160a01b03918216602084015216604082015260600190565b6000602080835283518082850152825b818110156109ba5785810183015185820160400152820161099e565b818111156109cb5783604083870101525b50601f01601f1916929092016040019392505050565b6001600160a01b038d16815261014060208201819052600090610a079083018d8f6108eb565b8281036040840152610a1a818c8e6108eb565b6001600160a01b039a8b166060850152988a166080840152505060a081019590955260c085019390935260e08401919091526101008301529092166101209092019190915295945050505050565b918252602082015260400190565b6001600160a01b038116811461059057600080fdfea264697066735822122081d18cbc6a8981d5037003485de34313c632080bebb624721ba6ddfeed83379064736f6c634300070100336102e06040523480156200001257600080fd5b506040516200830838038062008308833981016040819052620000359162000b64565b8960008a8a620000478b8b30620004ad565b6040805160038082526080820190925290602082016060803683370190505089898989828289898d85336001600160a01b031660001b8480604051806040016040528060018152602001603160f81b81525087878160039080519060200190620000b3929190620009ce565b508051620000c9906004906020840190620009ce565b50506005805460ff19166012179055508151602092830120608052805191012060a052507f8b73c3c69bb8fe3d512ecc4cf759cc79239f7b179b0ffacaa9a75d522b39400f60c05260e0526001600160601b0319606091821b81166101005291901b1661012052506200014790506276a7008311156101946200057c565b6200015b62278d008211156101956200057c565b42909101610140819052016101605285516200017d906002111560c86200057c565b620001976200018b62000591565b8751111560c96200057c565b620001ad866200059660201b62001be61760201c565b620001b884620005a2565b6040516309b2760f60e01b81526000906001600160a01b038c16906309b2760f90620001e9908d9060040162000d2d565b602060405180830381600087803b1580156200020457600080fd5b505af115801562000219573d6000803e3d6000fd5b505050506040513d601f19601f820116820180604052508101906200023f919062000b2c565b604051633354e3e960e11b81529091506001600160a01b038c16906366a9c7d290620002749084908b908b9060040162000c91565b600060405180830381600087803b1580156200028f57600080fd5b505af1158015620002a4573d6000803e3d6000fd5b505050508061018081815250508a6001600160a01b031663d2946c2b6040518163ffffffff1660e01b815260040160206040518083038186803b158015620002eb57600080fd5b505afa15801562000300573d6000803e3d6000fd5b505050506040513d601f19601f8201168201806040525081019062000326919062000b45565b6001600160a01b03166101a0816001600160a01b031660601b815250505050505050505050505050866001600160a01b03166101c0816001600160a01b031660601b81525050856001600160a01b03166101e0816001600160a01b031660601b815250506000806000620003a28a8a306200063660201b60201c565b6102608190526102808390526102a082905291945092509050620003c68a6200072c565b61020052620003d5896200072c565b61022052600a8890556102408790526001600160601b0319606085901b166102c05260405184908b908b9030906200040d9062000a53565b6200041c949392919062000c66565b604051809103906000f08015801562000439573d6000803e3d6000fd5b50600980546001600160a01b0319166001600160a01b0392831617908190556040518c8316927f3ca60c442fe0a0eec00a4242bd76d6b93ec28f607f78e5b820a53f8538854bbb9262000492928d928f92169062000d4b565b60405180910390a25050505050505050505050505062000d8c565b606060008080620004c087878762000636565b6040805160038082526080820190925293965091945092506020820160608036833701905050935086848481518110620004f657fe5b60200260200101906001600160a01b031690816001600160a01b031681525050858483815181106200052457fe5b60200260200101906001600160a01b031690816001600160a01b031681525050848482815181106200055257fe5b60200260200101906001600160a01b031690816001600160a01b0316815250505050509392505050565b816200058d576200058d8162000800565b5050565b600390565b806200058d8162000815565b620005bb620005b0620008a1565b82101560cb6200057c565b620005d4620005c9620008aa565b82111560ca6200057c565b620005f68160c0603f600854620008b660201b62001bf017909392919060201c565b6008556040517fa9ba3ffe0b6c366b81232caab38605a0699ad5398d6cce76f91ee809e322dafc906200062b90839062000d42565b60405180910390a150565b6000806000846001600160a01b0316866001600160a01b03161015620006bf57836001600160a01b0316856001600160a01b031610156200068257506000915060019050600262000723565b836001600160a01b0316866001600160a01b03161015620006ae57506000915060029050600162000723565b506001915060029050600062000723565b846001600160a01b0316846001600160a01b03161015620006eb57506002915060019050600062000723565b856001600160a01b0316846001600160a01b031610156200071757506002915060009050600162000723565b50600191506000905060025b93509350939050565b60006001600160a01b038216301415620007505750670de0b6b3a7640000620007fb565b6000826001600160a01b031663313ce5676040518163ffffffff1660e01b815260040160206040518083038186803b1580156200078c57600080fd5b505afa158015620007a1573d6000803e3d6000fd5b505050506040513d601f19601f82011682018060405250810190620007c7919062000c43565b60ff1690506000620007e6601283620008db60201b62001c181760201c565b905080600a0a670de0b6b3a764000002925050505b919050565b62000812816210905360ea1b620008f8565b50565b600281511015620008265762000812565b6000816000815181106200083657fe5b602002602001015190506000600190505b82518110156200089c5760008382815181106200086057fe5b6020026020010151905062000891816001600160a01b0316846001600160a01b03161060656200057c60201b60201c565b915060010162000847565b505050565b64e8d4a5100090565b67016345785d8a000090565b6000620008c584848462000959565b506001901b60001901811b1992909216911b1790565b6000620008ed8383111560016200057c565b508082035b92915050565b62461bcd60e51b600090815260206004526007602452600a808404818106603090810160081b958390069590950190829004918206850160101b01602363ffffff0060e086901c160160181b0190930160c81b60445260e882901c90606490fd5b6200096a610100831060646200057c565b620009a3600182101580156200099b57506200099760ff8461010003620009b460201b62001c2e1760201c565b8211155b60646200057c565b6200089c83821c156101b46200057c565b6000818310620009c55781620009c7565b825b9392505050565b828054600181600116156101000203166002900490600052602060002090601f016020900481019282601f1062000a1157805160ff191683800117855562000a41565b8280016001018555821562000a41579182015b8281111562000a4157825182559160200191906001019062000a24565b5062000a4f92915062000a61565b5090565b61356b8062004d9d83390190565b5b8082111562000a4f576000815560010162000a62565b8051620008f28162000d76565b600082601f83011262000a96578081fd5b81516001600160401b038082111562000aad578283fd5b6040516020601f8401601f191682018101838111838210171562000acf578586fd5b8060405250819450838252868185880101111562000aec57600080fd5b600092505b8383101562000b10578583018101518284018201529182019162000af1565b8383111562000b225760008185840101525b5050505092915050565b60006020828403121562000b3e578081fd5b5051919050565b60006020828403121562000b57578081fd5b8151620009c78162000d76565b6000806000806000806000806000806101408b8d03121562000b84578586fd5b62000b908c8c62000a78565b60208c0151909a506001600160401b038082111562000bad578788fd5b62000bbb8e838f0162000a85565b9a5060408d015191508082111562000bd1578788fd5b5062000be08d828e0162000a85565b98505062000bf28c60608d0162000a78565b965062000c038c60808d0162000a78565b955060a08b0151945060c08b0151935060e08b015192506101008b0151915062000c328c6101208d0162000a78565b90509295989b9194979a5092959850565b60006020828403121562000c55578081fd5b815160ff81168114620009c7578182fd5b6001600160a01b03948516815292841660208401529083166040830152909116606082015260800190565b60006060820185835260206060818501528186518084526080860191508288019350845b8181101562000cdd5762000cca855162000d6a565b8352938301939183019160010162000cb5565b505084810360408601528551808252908201925081860190845b8181101562000d1f5762000d0c835162000d6a565b8552938301939183019160010162000cf7565b509298975050505050505050565b602081016003831062000d3c57fe5b91905290565b90815260200190565b9283526001600160a01b03918216602084015216604082015260600190565b6001600160a01b031690565b6001600160a01b03811681146200081257600080fd5b60805160a05160c05160e0516101005160601c6101205160601c6101405161016051610180516101a05160601c6101c05160601c6101e05160601c61020051610220516102405161026051610280516102a0516102c05160601c613eac62000ef16000398061095e52806126b85250806107835280611d2d5280612733528061278d5250806108355280611cc7525080611d825280612bbb52505080611d555280612766525080611cef525080610582528061060152806107275280610d965280610e995280610f5c528061106052806111ab52806112fa52806113ad52806116af5250806105c1528061064152806107d952806109e25280610afc5280610e5a5280610f1d528061109f528061116c52806112bb528061136e52806115695250806119c15250806115bc525080611f0b525080611ee75250806118a952508061188552508061180f5250806128105250806128525250806128315250613eac6000f3fe608060405234801561001057600080fd5b50600436106102535760003560e01c806370a0823111610146578063a457c2d7116100c3578063d2946c2b11610087578063d2946c2b14610499578063d505accf146104a1578063d5c096c4146104b4578063dd62ed3e146104c7578063ed24911d146104da578063fd19cac8146104e257610253565b8063a457c2d71461045b578063a9059cbb1461046e578063aaabadc514610481578063b35056b814610489578063b7b814fc1461049157610253565b806387ec68171161010a57806387ec68171461041d578063893d20e8146104305780638d928af81461043857806390193b7c1461044057806395d89b411461045357610253565b806370a08231146103bb57806374f3b009146103ce5780637ecebe00146103ef5780638456cb5914610402578063851c1bb31461040a57610253565b806338e9922e116101d457806350dd6ed91161019857806350dd6ed91461036f57806354a844ba1461038257806355c676281461038a5780636028bfd4146103925780636945c1fd146103b357610253565b806338e9922e1461032f57806338fff2d014610344578063395093511461034c5780633f4ba83a1461035f5780634d6d0fd01461036757610253565b80631dd746ea1161021b5780631dd746ea146102d557806323b872dd146102ea5780632541897f146102fd578063313ce567146103125780633644e5151461032757610253565b806301ec954a1461025857806306fdde0314610281578063095ea7b31461029657806318160ddd146102b65780631c0de051146102be575b600080fd5b61026b61026636600461358c565b6104ea565b6040516102789190613a53565b60405180910390f35b610289611408565b6040516102789190613b29565b6102a96102a43660046132a0565b61149e565b6040516102789190613a30565b61026b6114b5565b6102c66114bb565b60405161027893929190613a3b565b6102dd6114e4565b60405161027891906139ef565b6102a96102f83660046131f0565b6114f3565b610305611567565b604051610278919061395f565b61031a61158b565b6040516102789190613da3565b61026b611594565b61034261033d3660046137d9565b61159e565b005b61026b6115ba565b6102a961035a3660046132a0565b6115de565b610342611619565b61026b61162d565b61034261037d3660046133d1565b611633565b610342611651565b61026b611663565b6103a56103a03660046132eb565b611676565b604051610278929190613d8a565b6103056116ad565b61026b6103c936600461319c565b6116d1565b6103e16103dc3660046132eb565b6116ec565b604051610278929190613a02565b61026b6103fd36600461319c565b6117ee565b6103426117f9565b61026b61041836600461338d565b61180b565b6103a561042b3660046132eb565b61185d565b610305611883565b6103056118a7565b61026b61044e36600461319c565b6118cb565b6102896118e6565b6102a96104693660046132a0565b611947565b6102a961047c3660046132a0565b611985565b610305611992565b6102a961199c565b6103426119ad565b6103056119bf565b6103426104af366004613230565b6119e3565b6103e16104c23660046132eb565b611a6e565b61026b6104d53660046131b8565b611b90565b61026b611bcd565b610305611bd7565b600084608001516105176104fc6118a7565b6001600160a01b0316336001600160a01b03161460cd611c46565b61052c6105226115ba565b82146101f4611c46565b610534611c54565b60008651600181111561054357fe5b148061055b575060018651600181111561055957fe5b145b6105805760405162461bcd60e51b815260040161057790613c0a565b60405180910390fd5b7f00000000000000000000000000000000000000000000000000000000000000006001600160a01b031686604001516001600160a01b031614806105f957507f00000000000000000000000000000000000000000000000000000000000000006001600160a01b031686604001516001600160a01b0316145b8061063957507f00000000000000000000000000000000000000000000000000000000000000006001600160a01b031686602001516001600160a01b0316145b8061067957507f00000000000000000000000000000000000000000000000000000000000000006001600160a01b031686602001516001600160a01b0316145b6106955760405162461bcd60e51b815260040161057790613b3c565b606061069f611c67565b90506106ab8682611dd9565b6106b3613043565b60606000808a5160018111156106c557fe5b14156106f6576106ec8a60600151858a815181106106df57fe5b6020026020010151611e48565b60608b0152610725565b60018a51600181111561070557fe5b14156107255761071f8a606001518589815181106106df57fe5b60608b01525b7f00000000000000000000000000000000000000000000000000000000000000006001600160a01b03168a602001516001600160a01b0316148015610776575060008a51600181111561077457fe5b145b156107d7578960600151897f0000000000000000000000000000000000000000000000000000000000000000815181106107ac57fe5b602002602001015110156107d25760405162461bcd60e51b815260040161057790613ba3565b610884565b7f00000000000000000000000000000000000000000000000000000000000000006001600160a01b03168a602001516001600160a01b0316148015610828575060008a51600181111561082657fe5b145b15610884578960600151897f00000000000000000000000000000000000000000000000000000000000000008151811061085e57fe5b602002602001015110156108845760405162461bcd60e51b815260040161057790613c30565b6101008a01515115610fd4578961010001518060200190518101906108a99190613510565b81519193509150610fb1576108bc61305a565b60095460c08c015160405163ca142f7560e01b81526001600160a01b039092169163ca142f75916108f19186906004016139d6565b60e06040518083038186803b15801561090957600080fd5b505afa15801561091d573d6000803e3d6000fd5b505050506040513d601f19601f820116820180604052508101906109419190613769565b600954604051630118bb3b60e01b81529192506001600160a01b037f0000000000000000000000000000000000000000000000000000000000000000811692630118bb3b92610997928692911690600401613d2b565b600060405180830381600087803b1580156109b157600080fd5b505af11580156109c5573d6000803e3d6000fd5b505060095460c08e01516040850151600094506001600160a01b037f00000000000000000000000000000000000000000000000000000000000000008116945092831692635778472a92918116911614610a23578460600151610a26565b84515b6040518263ffffffff1660e01b8152600401610a429190613a53565b6101406040518083038186803b158015610a5b57600080fd5b505afa158015610a6f573d6000803e3d6000fd5b505050506040513d601f19601f82011682018060405250810190610a9391906136aa565b602001516001600160a01b031614610ab6576763757272656e637960c01b610ac3565b67736563757269747960c01b5b905060008c60c001516001600160a01b031683604001516001600160a01b031614610af2578260800151610af8565b82602001515b90507f00000000000000000000000000000000000000000000000000000000000000006001600160a01b03167f4812904a7bb219d6baefda038dd1154281c6abc8c3e57bfe81386bd3aba626a867736563757269747960c01b8414610be4576009546060860151604051632bbc239560e11b81526001600160a01b0390921691635778472a91610b8a91600401613a53565b6101406040518083038186803b158015610ba357600080fd5b505afa158015610bb7573d6000803e3d6000fd5b505050506040513d601f19601f82011682018060405250810190610bdb91906136aa565b60e00151610c6a565b6009548551604051632bbc239560e11b81526001600160a01b0390921691635778472a91610c1491600401613a53565b6101406040518083038186803b158015610c2d57600080fd5b505afa158015610c41573d6000803e3d6000fd5b505050506040513d601f19601f82011682018060405250810190610c6591906136aa565b60e001515b6763757272656e637960c01b8514610d09576009546060870151604051632bbc239560e11b81526001600160a01b0390921691635778472a91610caf91600401613a53565b6101406040518083038186803b158015610cc857600080fd5b505afa158015610cdc573d6000803e3d6000fd5b505050506040513d601f19601f82011682018060405250810190610d0091906136aa565b60e00151610d8f565b6009548651604051632bbc239560e11b81526001600160a01b0390921691635778472a91610d3991600401613a53565b6101406040518083038186803b158015610d5257600080fd5b505afa158015610d66573d6000803e3d6000fd5b505050506040513d601f19601f82011682018060405250810190610d8a91906136aa565b60e001515b8660a001517f0000000000000000000000000000000000000000000000000000000000000000868960c00151604051610dcd96959493929190613973565b60405180910390a260095460c08e01516040516335ca73db60e21b81526001600160a01b039092169163d729cf6c91610e0a9188906004016139d6565b600060405180830381600087803b158015610e2457600080fd5b505af1158015610e38573d6000803e3d6000fd5b5060009250610e45915050565b8d516001811115610e5257fe5b1415610f06577f00000000000000000000000000000000000000000000000000000000000000006001600160a01b03168d602001516001600160a01b03161480610ed157507f00000000000000000000000000000000000000000000000000000000000000006001600160a01b03168d602001516001600160a01b0316145b15610f0157610ef381888c81518110610ee657fe5b6020026020010151611e54565b9850505050505050506113ff565b610fa9565b60018d516001811115610f1557fe5b1415610fa9577f00000000000000000000000000000000000000000000000000000000000000006001600160a01b03168d604001516001600160a01b03161480610f9457507f00000000000000000000000000000000000000000000000000000000000000006001600160a01b03168d604001516001600160a01b0316145b15610fa957610ef381888d81518110610ee657fe5b505050610fcf565b8015610fcf5760408051808201909152806001815260200182905292505b610feb565b604080518082019091526000808252602082015292505b600a548a6060015110156110115760405162461bcd60e51b815260040161057790613b6c565b7f1a34f836394c67ea654a70e0ba2d7137cb31617ff49dce901c0a641b016b41808a602001518b604001518c60600151866020015160405161105694939291906139ad565b60405180910390a17f00000000000000000000000000000000000000000000000000000000000000006001600160a01b03168a604001516001600160a01b031614806110d757507f00000000000000000000000000000000000000000000000000000000000000006001600160a01b03168a602001516001600160a01b0316145b1561116a576009546040516332ff3abf60e11b81526001600160a01b03909116906365fe757e90611111908d908790600190600401613c67565b602060405180830381600087803b15801561112b57600080fd5b505af115801561113f573d6000803e3d6000fd5b505050506040513d601f19601f8201168201806040525081019061116391906137f1565b9050611272565b7f00000000000000000000000000000000000000000000000000000000000000006001600160a01b03168a604001516001600160a01b031614806111e357507f00000000000000000000000000000000000000000000000000000000000000006001600160a01b03168a602001516001600160a01b0316145b15611272576009546040516332ff3abf60e11b81526001600160a01b03909116906365fe757e9061121d908d908790600090600401613c67565b602060405180830381600087803b15801561123757600080fd5b505af115801561124b573d6000803e3d6000fd5b505050506040513d601f19601f8201168201806040525081019061126f91906137f1565b90505b60008351600281111561128157fe5b14156113fa57806112a45760405162461bcd60e51b815260040161057790613bda565b60008a5160018111156112b357fe5b1415611357577f00000000000000000000000000000000000000000000000000000000000000006001600160a01b03168a602001516001600160a01b0316148061133257507f00000000000000000000000000000000000000000000000000000000000000006001600160a01b03168a602001516001600160a01b0316145b156113525761134781858981518110610ee657fe5b9550505050506113ff565b6113fa565b60018a51600181111561136657fe5b14156113fa577f00000000000000000000000000000000000000000000000000000000000000006001600160a01b03168a604001516001600160a01b031614806113e557507f00000000000000000000000000000000000000000000000000000000000000006001600160a01b03168a604001516001600160a01b0316145b156113fa5761134781858a81518110610ee657fe5b505050505b50949350505050565b60038054604080516020601f60026000196101006001881615020190951694909404938401819004810282018101909252828152606093909290918301828280156114945780601f1061146957610100808354040283529160200191611494565b820191906000526020600020905b81548152906001019060200180831161147757829003601f168201915b5050505050905090565b60006114ab338484611e60565b5060015b92915050565b60025490565b60008060006114c8611ec8565b1592506114d3611ee5565b91506114dd611f09565b9050909192565b60606114ee611c67565b905090565b6000806115008533611b90565b9050611524336001600160a01b038716148061151c5750838210155b61019e611c46565b61152f858585611f2d565b336001600160a01b0386161480159061154a57506000198114155b1561155c5761155c8533858403611e60565b506001949350505050565b7f000000000000000000000000000000000000000000000000000000000000000090565b60055460ff1690565b60006114ee611bcd565b6115a661200d565b6115ae611c54565b6115b78161203b565b50565b7f000000000000000000000000000000000000000000000000000000000000000090565b3360008181526001602090815260408083206001600160a01b038716845290915281205490916114ab91859061161490866120b4565b611e60565b61162161200d565b61162b60006120c6565b565b600a5490565b61163b61200d565b611643611c54565b61164d8282612139565b5050565b61165961200d565b61162b600161222e565b6008546000906114ee9060c0603f612285565b6000606061168c8651611687612294565b612299565b6116a1898989898989896122a66122f8612361565b97509795505050505050565b7f000000000000000000000000000000000000000000000000000000000000000090565b6001600160a01b031660009081526020819052604090205490565b606080886116fb6104fc6118a7565b6117066105226115ba565b606060006117138661248b565b1561173b576117206124ba565b6117328961172c6114b5565b886124cd565b9250905061178d565b6117436124f9565b606061174d611c67565b90506117598a82611dd9565b61177d8d8d8d8d8d61176961199c565b611773578d611776565b60005b878e6122a6565b9350915061178b83826122f8565b505b6117978b82612501565b8189516001600160401b03811180156117af57600080fd5b506040519080825280602002602001820160405280156117d9578160200160208202803683370190505b509450945050505b5097509795505050505050565b60006114af826118cb565b61180161200d565b61162b60016120c6565b60007f00000000000000000000000000000000000000000000000000000000000000008260405160200161184092919061391c565b604051602081830303815290604052805190602001209050919050565b6000606061186e8651611687612294565b6116a18989898989898961250b612527612361565b7f000000000000000000000000000000000000000000000000000000000000000090565b7f000000000000000000000000000000000000000000000000000000000000000090565b6001600160a01b031660009081526006602052604090205490565b60048054604080516020601f60026000196101006001881615020190951694909404938401819004810282018101909252828152606093909290918301828280156114945780601f1061146957610100808354040283529160200191611494565b6000806119543385611b90565b905080831061196e5761196933856000611e60565b61197b565b61197b3385858403611e60565b5060019392505050565b60006114ab338484611f2d565b60006114ee612590565b6008546000906114ee9060ff61260a565b6119b561200d565b61162b600061222e565b7f000000000000000000000000000000000000000000000000000000000000000090565b60007f6e71edae12b1b97f4d1f60370fef10105fa2faae0126114a169c64845d6126c9888888611a128c6118cb565b89604051602001611a2896959493929190613a7b565b604051602081830303815290604052805190602001209050611a598882611a50878787612614565b886101f8612653565b611a64888888611e60565b5050505050505050565b60608088611a7d6104fc6118a7565b611a886105226115ba565b611a906124f9565b6060611a9a611c67565b9050611aa46114b5565b611b505760006060611ab98d8d8d868b6126aa565b91509150611ad2611ac86127d0565b83101560cc611c46565b611ae46000611adf6127d0565b6127d7565b611af78b611af06127d0565b84036127d7565b611b018184612527565b808a516001600160401b0381118015611b1957600080fd5b50604051908082528060200260200182016040528015611b43578160200160208202803683370190505b50955095505050506117e1565b611b5a8882611dd9565b60006060611b828d8d8d8d8d611b6e61199c565b611b78578d611b7b565b60005b898e61250b565b91509150611af78b836127d7565b6000611b9a6118a7565b6001600160a01b0316826001600160a01b03161415611bbc57506000196114af565b611bc683836127e1565b90506114af565b60006114ee61280c565b6009546001600160a01b031681565b8061164d816128a9565b6000611bfd848484612927565b5082821b6000196001831b01831b198516175b949350505050565b6000611c28838311156001611c46565b50900390565b6000818310611c3d5781611c3f565b825b9392505050565b8161164d5761164d8161296e565b61162b611c5f611ec8565b610192611c46565b60606000611c73612294565b90506060816001600160401b0381118015611c8d57600080fd5b50604051908082528060200260200182016040528015611cb7578160200160208202803683370190505b50905060005b82811015611dd2577f0000000000000000000000000000000000000000000000000000000000000000811415611d2b577f0000000000000000000000000000000000000000000000000000000000000000828281518110611d1a57fe5b602002602001018181525050611dca565b7f0000000000000000000000000000000000000000000000000000000000000000811415611d80577f0000000000000000000000000000000000000000000000000000000000000000828281518110611d1a57fe5b7f0000000000000000000000000000000000000000000000000000000000000000811415611dca57670de0b6b3a7640000828281518110611dbd57fe5b6020026020010181815250505b600101611cbd565b5091505090565b81518151611de8908290612299565b60005b81811015611e4257611e23848281518110611e0257fe5b6020026020010151848381518110611e1657fe5b602002602001015161297e565b848281518110611e2f57fe5b6020908102919091010152600101611deb565b50505050565b6000611c3f838361297e565b6000611c3f83836129b4565b6001600160a01b0380841660008181526001602090815260408083209487168084529490915290819020849055517f8c5be1e5ebec7d5bd14f71427d1e84f3dd0314c0f7b2291e5b200ac8c7c3b92590611ebb908590613a53565b60405180910390a3505050565b6000611ed2611f09565b4211806114ee57505060075460ff161590565b7f000000000000000000000000000000000000000000000000000000000000000090565b7f000000000000000000000000000000000000000000000000000000000000000090565b611f446001600160a01b0384161515610198611c46565b611f5b6001600160a01b0383161515610199611c46565b611f66838383612922565b6001600160a01b038316600090815260208190526040902054611f8c90826101a0612a05565b6001600160a01b038085166000908152602081905260408082209390935590841681522054611fbb90826120b4565b6001600160a01b0380841660008181526020819052604090819020939093559151908516907fddf252ad1be2c89b69c2b068fc378daa952ba7f163c4a11628f55a4df523b3ef90611ebb908590613a53565b60006120246000356001600160e01b03191661180b565b90506115b76120338233612a1b565b610191611c46565b612050612046612b04565b82101560cb611c46565b61206561205b612b0d565b82111560ca611c46565b600854612076908260c0603f611bf0565b6008556040517fa9ba3ffe0b6c366b81232caab38605a0699ad5398d6cce76f91ee809e322dafc906120a9908390613a53565b60405180910390a150565b6000828201611c3f8482101583611c46565b80156120e6576120e16120d7611ee5565b4210610193611c46565b6120fb565b6120fb6120f1611f09565b42106101a9611c46565b6007805460ff19168215151790556040517f9e3a5e37224532dea67b89face185703738a228a6e8a23dee546960180d3be64906120a9908390613a30565b60006121436115ba565b9050600061214f6118a7565b6001600160a01b031663b05f8e4883866040518363ffffffff1660e01b815260040161217c929190613af4565b60806040518083038186803b15801561219457600080fd5b505afa1580156121a8573d6000803e3d6000fd5b505050506040513d601f19601f820116820180604052508101906121cc9190613809565b604051630639cdb560e21b81529094506001600160a01b03851693506318e736d49250612200915085908790600401613adb565b600060405180830381600087803b15801561221a57600080fd5b505af1158015611a64573d6000803e3d6000fd5b60085461223d908260ff612b19565b6008556040517feff3d4d215b42bf0960be9c6d5e05c22cba4df6627a3a523e2acee733b5854c890612270908390613a30565b60405180910390a1806115b7576115b761162b565b6001901b6000190191901c1690565b600390565b61164d8183146067611c46565b6000606060006122b584612b40565b905060018160018111156122c557fe5b146122da576122d561016361296e565b6122ea565b6122e48885612b56565b90935091505b509850989650505050505050565b81518151612307908290612299565b60005b81811015611e425761234284828151811061232157fe5b602002602001015184838151811061233557fe5b60200260200101516129b4565b84828151811061234e57fe5b602090810291909101015260010161230a565b33301461241f576000306001600160a01b0316600036604051612385929190613934565b6000604051808303816000865af19150503d80600081146123c2576040519150601f19603f3d011682016040523d82523d6000602084013e6123c7565b606091505b5050905080600081146123d657fe5b60046000803e6000516001600160e01b0319166343adbafb60e01b8114612401573d6000803e3d6000fd5b506020600460003e604060205260243d03602460403e601c3d016000f35b6124276124f9565b6060612431611c67565b905061243d8782611dd9565b600060606124558c8c8c8c8c8c898d8d63ffffffff16565b9150915061246781848663ffffffff16565b8051601f1982018390526343adbafb603f1983015260200260231982016044820181fd5b60008082511180156114af575060ff8016828060200190518101906124b09190613849565b60ff161492915050565b61162b6124c561199c565b6101b6611c46565b6000606060006124dc84612c21565b905060606124eb878784612c37565b919791965090945050505050565b61162b611c54565b61164d8282612ce5565b6000606061251a61016361296e565b9850989650505050505050565b81518151612536908290612299565b60005b81811015611e425761257184828151811061255057fe5b602002602001015184838151811061256457fe5b6020026020010151612db1565b84828151811061257d57fe5b6020908102919091010152600101612539565b600061259a6118a7565b6001600160a01b031663aaabadc56040518163ffffffff1660e01b815260040160206040518083038186803b1580156125d257600080fd5b505afa1580156125e6573d6000803e3d6000fd5b505050506040513d601f19601f820116820180604052508101906114ee91906133b5565b1c60019081161490565b60408051604180825260808201909252606091829190602082018180368337019050509050836020820152826040820152846060820153949350505050565b600061265e85612dff565b905061267461266e878387612e1b565b83611c46565b612683428410156101b8611c46565b5050506001600160a01b039092166000908152600660205260409020805460010190555050565b600060606126b6611c54565b7f00000000000000000000000000000000000000000000000000000000000000006126f16001600160a01b0388811690831614610156611c46565b612711816001600160a01b0316876001600160a01b031614610156611c46565b6dffffffffffffffffffffffffffff606061272b86612eca565b905061278a817f00000000000000000000000000000000000000000000000000000000000000008151811061275c57fe5b60200260200101517f0000000000000000000000000000000000000000000000000000000000000000611e48565b817f0000000000000000000000000000000000000000000000000000000000000000815181106127b657fe5b602090810291909101015290999098509650505050505050565b620f424090565b61164d8282612ee0565b6001600160a01b03918216600090815260016020908152604080832093909416825291909152205490565b60007f00000000000000000000000000000000000000000000000000000000000000007f00000000000000000000000000000000000000000000000000000000000000007f0000000000000000000000000000000000000000000000000000000000000000612879612f73565b3060405160200161288e959493929190613aaf565b60405160208183030381529060405280519060200120905090565b6002815110156128b8576115b7565b6000816000815181106128c757fe5b602002602001015190506000600190505b82518110156129225760008382815181106128ef57fe5b60200260200101519050612918816001600160a01b0316846001600160a01b0316106065611c46565b91506001016128d8565b505050565b61293661010083106064611c46565b61295f60018210158015612958575061295460ff8461010003611c2e565b8211155b6064611c46565b61292283821c156101b4611c46565b6115b7816210905360ea1b612f77565b60008282026129a284158061299b57508385838161299857fe5b04145b6003611c46565b670de0b6b3a764000090049392505050565b60006129c38215156004611c46565b826129d0575060006114af565b670de0b6b3a7640000838102906129f3908583816129ea57fe5b04146005611c46565b8281816129fc57fe5b049150506114af565b6000612a148484111583611c46565b5050900390565b600073ba1ba1ba1ba1ba1ba1ba1ba1ba1ba1ba1ba1ba1b612a3a611883565b6001600160a01b031614158015612a555750612a5583612fd8565b15612a7d57612a62611883565b6001600160a01b0316336001600160a01b03161490506114af565b612a85612590565b6001600160a01b0316639be2a8848484306040518463ffffffff1660e01b8152600401612ab493929190613a5c565b60206040518083038186803b158015612acc57600080fd5b505afa158015612ae0573d6000803e3d6000fd5b505050506040513d601f19601f82011682018060405250810190611bc691906132cb565b64e8d4a5100090565b67016345785d8a000090565b60006001821b1984168284612b2f576000612b32565b60015b60ff16901b17949350505050565b6000818060200190518101906114af919061341e565b600060606000612b6584613014565b9050606085516001600160401b0381118015612b8057600080fd5b50604051908082528060200260200182016040528015612baa578160200160208202803683370190505b50905060005b8651811015612c15577f00000000000000000000000000000000000000000000000000000000000000008114612c0d57868181518110612bec57fe5b6020026020010151828281518110612c0057fe5b6020026020010181815250505b600101612bb0565b50909590945092505050565b600081806020019051810190611c3f9190613865565b60606000612c4583856129b4565b905084516001600160401b0381118015612c5e57600080fd5b50604051908082528060200260200182016040528015612c88578160200160208202803683370190505b50915060005b8551811015612cdc57612cbd82878381518110612ca757fe5b602002602001015161297e90919063ffffffff16565b838281518110612cc957fe5b6020908102919091010152600101612c8e565b50509392505050565b612cfc6001600160a01b038316151561019b611c46565b612d0882600083612922565b6001600160a01b038216600090815260208190526040902054612d2e90826101b2612a05565b6001600160a01b038316600090815260208190526040902055612d61612d5c82612d566114b5565b9061302a565b613038565b60006001600160a01b0316826001600160a01b03167fddf252ad1be2c89b69c2b068fc378daa952ba7f163c4a11628f55a4df523b3ef83604051612da59190613a53565b60405180910390a35050565b6000612dc08215156004611c46565b82612dcd575060006114af565b670de0b6b3a764000083810290612de7908583816129ea57fe5b826001820381612df357fe5b046001019150506114af565b6000612e0961280c565b82604051602001611840929190613944565b6000612e2d82516041146101b9611c46565b60208281015160408085015160608601518251600080825295019283905292939092811a91600190612e66908990859088908890613b0b565b6020604051602081039080840390855afa158015612e88573d6000803e3d6000fd5b5050604051601f1901519150506001600160a01b03811615801590612ebe5750876001600160a01b0316816001600160a01b0316145b98975050505050505050565b606081806020019051810190611c3f9190613467565b612eec60008383612922565b612f01612d5c82612efb6114b5565b906120b4565b6001600160a01b038216600090815260208190526040902054612f2490826120b4565b6001600160a01b0383166000818152602081905260408082209390935591519091907fddf252ad1be2c89b69c2b068fc378daa952ba7f163c4a11628f55a4df523b3ef90612da5908590613a53565b4690565b62461bcd60e51b600090815260206004526007602452600a808404818106603090810160081b958390069590950190829004918206850160101b01602363ffffff0060e086901c160160181b0190930160c81b60445260e882901c90606490fd5b6000612fea631c74c91760e11b61180b565b82148061300557506130026350dd6ed960e01b61180b565b82145b806114af57506114af8261303d565b600081806020019051810190611c3f919061343a565b6000611c3f83836001612a05565b600255565b50600090565b604080518082019091526000808252602082015290565b6040805160e081018252600080825260208201819052918101829052606081018290526080810182905260a0810182905260c081019190915290565b80356114af81613e45565b80516114af81613e45565b600082601f8301126130bc578081fd5b81356130cf6130ca82613dd7565b613db1565b8181529150602080830190848101818402860182018710156130f057600080fd5b60005b8481101561310f578135845292820192908201906001016130f3565b505050505092915050565b600082601f83011261312a578081fd5b81356131386130ca82613df6565b915080825283602082850101111561314f57600080fd5b8060208401602084013760009082016020015292915050565b80516114af81613e5a565b8051600581106114af57600080fd5b8051600381106114af57600080fd5b80356114af81613e5a565b6000602082840312156131ad578081fd5b8135611c3f81613e45565b600080604083850312156131ca578081fd5b82356131d581613e45565b915060208301356131e581613e45565b809150509250929050565b600080600060608486031215613204578081fd5b833561320f81613e45565b9250602084013561321f81613e45565b929592945050506040919091013590565b600080600080600080600060e0888a03121561324a578485fd5b873561325581613e45565b9650602088013561326581613e45565b95506040880135945060608801359350608088013561328381613e67565b9699959850939692959460a0840135945060c09093013592915050565b600080604083850312156132b2578182fd5b82356132bd81613e45565b946020939093013593505050565b6000602082840312156132dc578081fd5b81518015158114611c3f578182fd5b600080600080600080600060e0888a031215613305578081fd5b87359650602088013561331781613e45565b9550604088013561332781613e45565b945060608801356001600160401b0380821115613342578283fd5b61334e8b838c016130ac565b955060808a0135945060a08a0135935060c08a0135915080821115613371578283fd5b5061337e8a828b0161311a565b91505092959891949750929550565b60006020828403121561339e578081fd5b81356001600160e01b031981168114611c3f578182fd5b6000602082840312156133c6578081fd5b8151611c3f81613e45565b600080604083850312156133e3578182fd5b82356133ee81613e45565b915060208301356001600160401b03811115613408578182fd5b6134148582860161311a565b9150509250929050565b60006020828403121561342f578081fd5b8151611c3f81613e5a565b6000806040838503121561344c578182fd5b825161345781613e5a565b6020939093015192949293505050565b60008060408385031215613479578182fd5b825160048110613487578283fd5b809250506020808401516001600160401b038111156134a4578283fd5b8401601f810186136134b4578283fd5b80516134c26130ca82613dd7565b81815283810190838501858402850186018a10156134de578687fd5b8694505b838510156135005780518352600194909401939185019185016134e2565b5080955050505050509250929050565b60008060408385031215613522578182fd5b82516001600160401b03811115613537578283fd5b8301601f81018513613547578283fd5b80516135556130ca82613df6565b818152866020838501011115613569578485fd5b61357a826020830160208601613e19565b60209590950151949694955050505050565b600080600080608085870312156135a1578182fd5b84356001600160401b03808211156135b7578384fd5b818701915061012080838a0312156135cd578485fd5b6135d681613db1565b90506135e28984613191565b81526135f18960208501613096565b60208201526136038960408501613096565b6040820152606083013560608201526080830135608082015260a083013560a08201526136338960c08501613096565b60c08201526136458960e08501613096565b60e0820152610100808401358381111561365d578687fd5b6136698b82870161311a565b828401525050809650506020870135915080821115613686578384fd5b50613693878288016130ac565b949794965050505060408301359260600135919050565b60006101408083850312156136bd578182fd5b6136c681613db1565b90506136d28484613168565b81526136e184602085016130a1565b60208201526136f384604085016130a1565b60408201526137058460608501613182565b60608201526137178460808501613168565b60808201526137298460a08501613173565b60a082015260c083015160c08201526137458460e085016130a1565b60e08201526101008381015190820152610120928301519281019290925250919050565b600060e0828403121561377a578081fd5b61378460e0613db1565b825181526020830151602082015260408301516137a081613e45565b80604083015250606083015160608201526080830151608082015260a083015160a082015260c083015160c08201528091505092915050565b6000602082840312156137ea578081fd5b5035919050565b600060208284031215613802578081fd5b5051919050565b6000806000806080858703121561381e578182fd5b845193506020850151925060408501519150606085015161383e81613e45565b939692955090935050565b60006020828403121561385a578081fd5b8151611c3f81613e67565b60008060408385031215613877578182fd5b825161345781613e67565b6001600160a01b03169052565b6000815180845260208085019450808401835b838110156138be578151875295820195908201906001016138a2565b509495945050505050565b600081518084526138e1816020860160208601613e19565b601f01601f19169290920160200192915050565b600281106138ff57fe5b9052565b80516003811061390f57fe5b8252602090810151910152565b9182526001600160e01b031916602082015260240190565b6000828483379101908152919050565b61190160f01b81526002810192909252602282015260420190565b6001600160a01b0391909116815260200190565b6001600160a01b0396871681529486166020860152604085019390935293166060830152608082019290925260a081019190915260c00190565b6001600160a01b0394851681529290931660208301526040820152606081019190915260800190565b6001600160a01b03929092168252602082015260400190565b600060208252611c3f602083018461388f565b600060408252613a15604083018561388f565b8281036020840152613a27818561388f565b95945050505050565b901515815260200190565b92151583526020830191909152604082015260600190565b90815260200190565b9283526001600160a01b03918216602084015216604082015260600190565b9586526001600160a01b0394851660208701529290931660408501526060840152608083019190915260a082015260c00190565b9485526020850193909352604084019190915260608301526001600160a01b0316608082015260a00190565b600083825260406020830152611c1060408301846138c9565b9182526001600160a01b0316602082015260400190565b93845260ff9290921660208401526040830152606082015260800190565b600060208252611c3f60208301846138c9565b602080825260169082015275496e76616c6964207377617070656420746f6b656e7360501b604082015260600190565b60208082526018908201527f4f726465722062656c6f77206d696e696d756d2073697a650000000000000000604082015260600190565b6020808252601d908201527f496e73756666696369656e742063757272656e63792062616c616e6365000000604082015260600190565b602080825260169082015275496e73756666696369656e74206c697175696469747960501b604082015260600190565b6020808252600c908201526b0496e76616c696420737761760a41b604082015260600190565b6020808252601d908201527f496e73756666696369656e742073656375726974792062616c616e6365000000604082015260600190565b600060808252613c7b6080830186516138f5565b6020850151613c8d60a0840182613882565b506040850151613ca060c0840182613882565b50606085015160e08301526080850151610100818185015260a08701519150610120828186015260c08801519250613cdc610140860184613882565b60e08801519250613cf1610160860184613882565b818801519250806101808601525050613d0e6101a08401826138c9565b915050613d1e6020830185613903565b611c1060608301846138f5565b82518152602080840151908201526040808401516001600160a01b0390811691830191909152606080850151908301526080808501519083015260a0808501519083015260c09384015193820193909352911660e08201526101000190565b600083825260406020830152611c10604083018461388f565b60ff91909116815260200190565b6040518181016001600160401b0381118282101715613dcf57600080fd5b604052919050565b60006001600160401b03821115613dec578081fd5b5060209081020190565b60006001600160401b03821115613e0b578081fd5b50601f01601f191660200190565b60005b83811015613e34578181015183820152602001613e1c565b83811115611e425750506000910152565b6001600160a01b03811681146115b757600080fd5b600281106115b757600080fd5b60ff811681146115b757600080fdfea264697066735822122088c24745f5897537b2e11c36c799b313d0f825557548d9def6d6efd74da9208464736f6c63430007010033608060405260006001553480156200001657600080fd5b506040516200356b3803806200356b833981016040819052620000399162000106565b620000443362000098565b600980546001600160a01b039586166001600160a01b03199182161790915560078054948616948216949094179093556008805492851692841692909217909155600a805491909316911617905562000166565b600080546001600160a01b038381166001600160a01b0319831681178455604051919092169283917f8be0079c531659141344cd1fd0a4f28419497f9722a3daafe3b4186f6b6457e09190a35050565b80516001600160a01b03811681146200010057600080fd5b92915050565b600080600080608085870312156200011c578384fd5b620001288686620000e8565b9350620001398660208701620000e8565b92506200014a8660408701620000e8565b91506200015b8660608701620000e8565b905092959194509250565b6133f580620001766000396000f3fe608060405234801561001057600080fd5b50600436106101005760003560e01c80637489ec2311610097578063ca142f7511610066578063ca142f75146101e6578063d729cf6c14610206578063e43372e914610219578063f2fde38b1461022157610100565b80637489ec23146101a557806381b5da1d146101b85780638da5cb5b146101cb578063af18cfd8146101d357610100565b80635778472a116100d35780635778472a1461016257806365fe757e146101825780636945c1fd14610195578063715018a61461019d57610100565b80630c8605be146101055780632541897f1461011a57806338fff2d01461013857806346b8b7301461014d575b600080fd5b610118610113366004612f2e565b610234565b005b610122610356565b60405161012f91906130a1565b60405180910390f35b610140610365565b60405161012f91906130ed565b6101556103f4565b60405161012f91906130b5565b610175610170366004612e95565b6104dc565b60405161012f9190613277565b610140610190366004612f42565b61066d565b6101226109aa565b6101186109b9565b6101186101b3366004612e95565b6109d1565b6101186101c6366004612ec5565b610b28565b610122610c91565b6101186101e1366004612ef0565b610ca0565b6101f96101f4366004612e6a565b611059565b60405161012f9190613324565b610118610214366004612e6a565b611127565b6101556111c6565b61011861022f366004612e4e565b611227565b6000838152600260208190526040822060010154600160a01b900460ff169081111561025c57fe5b14156102835760405162461bcd60e51b815260040161027a9061312d565b60405180910390fd5b6002600084815260026020526040902060010154600160b01b900460ff1660048111156102ac57fe5b146102c95760405162461bcd60e51b815260040161027a906131c8565b6000838152600260205260409020600301546001600160a01b031633146103025760405162461bcd60e51b815260040161027a90613191565b6000838152600260208190526040909120600481018490558082018390556001908101549091600160a01b90910460ff169081111561033d57fe5b14156103515761034e836001611256565b50505b505050565b6007546001600160a01b031690565b600080600a60009054906101000a90046001600160a01b03166001600160a01b03166338fff2d06040518163ffffffff1660e01b815260040160206040518083038186803b1580156103b657600080fd5b505afa1580156103ca573d6000803e3d6000fd5b505050506040513d601f19601f820116820180604052508101906103ee9190612ead565b91505090565b600354606090819067ffffffffffffffff8111801561041257600080fd5b5060405190808252806020026020018201604052801561043c578160200160208202803683370190505b5090506000805b6003548110156104d457336001600160a01b0316600260006003848154811061046857fe5b600091825260208083209091015483528201929092526040019020600301546001600160a01b031614156104cc57600381815481106104a357fe5b90600052602060002001548383815181106104ba57fe5b60209081029190910101526001909101905b600101610443565b509091505090565b6104e4612cfc565b6104ec610c91565b6001600160a01b0316336001600160a01b0316148061051557506009546001600160a01b031633145b8061053957506000828152600260205260409020600301546001600160a01b031633145b6105555760405162461bcd60e51b815260040161027a906130f6565b60008281526002602052604090819020815161014081019092528054829060ff16600181111561058157fe5b600181111561058c57fe5b8152815461010090046001600160a01b03908116602083015260018301549081166040830152606090910190600160a01b900460ff1660028111156105cd57fe5b60028111156105d857fe5b81526020016001820160159054906101000a900460ff1660018111156105fa57fe5b600181111561060557fe5b81526020016001820160169054906101000a900460ff16600481111561062757fe5b600481111561063257fe5b81526002820154602082015260038201546001600160a01b031660408201526004820154606082015260059091015460809091015292915050565b600061068d3361067b610c91565b6001600160a01b0316146101aa6116a6565b60008351600281111561069c57fe5b14806106b457506001835160028111156106b257fe5b145b6106bd57600080fd5b60008260018111156106cb57fe5b14806106e2575060018260018111156106e057fe5b145b6106eb57600080fd5b600154421415610702576001805481019055610707565b426001555b60008460c0015160015460405160200161072292919061307f565b604051602081830303815290604052805190602001209050610742612cfc565b6040518061014001604052808760000151600181111561075e57fe5b815260200187602001516001600160a01b0316815260200187604001516001600160a01b031681526020018660000151600281111561079957fe5b81526020018560018111156107aa57fe5b8152600260208083018290526060808b015160408086019190915260c08c01516001600160a01b03169185019190915289820151608085015260a0909301869052600086815291905220815181549293508392829060ff19166001838181111561081057fe5b021790555060208201518154610100600160a81b0319166101006001600160a01b039283160217825560408301516001830180546001600160a01b03191691909216178082556060840151919060ff60a01b1916600160a01b83600281111561087557fe5b021790555060808201518160010160156101000a81548160ff0219169083600181111561089e57fe5b021790555060a082015160018201805460ff60b01b1916600160b01b8360048111156108c657fe5b021790555060c0820151600282015560e08201516003820180546001600160a01b0319166001600160a01b0390921691909117905561010082015160048201556101209091015160059091015560008551600281111561092257fe5b141561093c576109338160006116b8565b925050506109a3565b60018551600281111561094b57fe5b14156109a057600380546000848152600460205260408120829055600180830184559290527fc2575a0e9e593c00f959f8c92f12db2869c3395a3b0502d05e2516446f71f85b018390556109339082906116b8565b50505b9392505050565b6008546001600160a01b031690565b6109c53361067b610c91565b6109cf600061261b565b565b6000818152600260208190526040822060010154600160a01b900460ff16908111156109f957fe5b1415610a175760405162461bcd60e51b815260040161027a90613236565b6002600082815260026020526040902060010154600160b01b900460ff166004811115610a4057fe5b14610a5d5760405162461bcd60e51b815260040161027a906131c8565b6000818152600260205260409020600301546001600160a01b03163314610a965760405162461bcd60e51b815260040161027a90613191565b60035415610ac857600081815260046020526040902054600380549091908110610abc57fe5b60009182526020822001555b6000908152600460208181526040808420849055600291829052832080546001600160a81b03191681556001810180546001600160b81b03191690559081018390556003810180546001600160a01b031916905590810182905560050155565b6009546001600160a01b0316331480610b595750610b44610c91565b6001600160a01b0316336001600160a01b0316145b610b755760405162461bcd60e51b815260040161027a90613164565b600092835260026020818152604080862080546001600160a81b03199081168255600180830180546001600160b81b03199081169091558387018a9055600380850180546001600160a01b0319908116825560048088018e905560059788018e90559b8d52878d208054909616865585850180549094169093558489018c9055848201805484168155858c018d90559486018c9055546001600160a01b039081168c52858852868c208a8d528852868c208c81558085018d9055808a018054851690558083018d9055808c018d90558087018d905560069081018d90559454168b52848752858b20988b529790955292882088815592830188905593820180549093169092559283018590559282018490559181018390550155565b6000546001600160a01b031690565b6009546001600160a01b0316331480610cd15750610cbc610c91565b6001600160a01b0316336001600160a01b0316145b610ced5760405162461bcd60e51b815260040161027a90613164565b6000826001811115610cfb57fe5b1480610d1257506001826001811115610d1057fe5b145b610d1b57600080fd5b60008481526002602081905260409091208082018054860190556001908101805460ff60b01b1916600160b11b17908190559091600160a01b90910460ff1690811115610d6457fe5b1415610dbc57600380546000868152600460205260408120829055600180830184559290527fc2575a0e9e593c00f959f8c92f12db2869c3395a3b0502d05e2516446f71f85b01859055610db9908590611256565b50505b60018101610dc8612d53565b5060008581526002602081815260408084206003908101546001600160a01b03908116865260058085528387208988528552838720845160e08101865281548082526001830154978201979097529681015490921693860193909352908101546060850152600481015460808501529081015460a08401526006015460c08301529091908714610e585786610e5e565b81606001515b9050600087836060015114610e77578260600151610e79565b875b9050610e83612d53565b6040518060e001604052808481526020018a866000015114610ea9578560200151610eaf565b85608001515b8152600085815260026020908152604091829020600301546001600160a01b03169083015281018490526060868101519101908b14610ef2578560800151610ef8565b85602001515b81526020018560a0015181526020018681525090508060056000600260008d815260200190815260200160002060030160009054906101000a90046001600160a01b03166001600160a01b03166001600160a01b031681526020019081526020016000206000878152602001908152602001600020600082015181600001556020820151816001015560408201518160020160006101000a8154816001600160a01b0302191690836001600160a01b03160217905550606082015181600301556080820151816004015560a0820151816005015560c0820151816006015590505060066000600260008c815260200190815260200160002060030160009054906101000a90046001600160a01b03166001600160a01b03166001600160a01b03168152602001908152602001600020859080600181540180825580915050600190039060005260206000200160009091909190915055505050505050505050565b611061612d53565b611069610c91565b6001600160a01b0316336001600160a01b031614806110905750336001600160a01b038416145b6110ac5760405162461bcd60e51b815260040161027a906131ff565b506001600160a01b038083166000908152600560208181526040808420868552825292839020835160e08101855281548152600182015492810192909252600281015490941692810192909252600383015460608301526004830154608083015282015460a082015260069091015460c08201525b92915050565b6111333361067b610c91565b60005b6001600160a01b038316600090815260066020526040902054811015610351576001600160a01b038316600090815260066020526040902080548391908390811061117d57fe5b906000526020600020015414156111be576001600160a01b03831660009081526006602052604090208054829081106111b257fe5b60009182526020822001555b600101611136565b3360009081526006602090815260409182902080548351818402810184019094528084526060939283018282801561121d57602002820191906000526020600020905b815481526020019060010190808311611209575b5050505050905090565b6112333361067b610c91565b61124a6001600160a01b03821615156101ab6116a6565b6112538161261b565b50565b600060606000606060038054905067ffffffffffffffff8111801561127a57600080fd5b506040519080825280602002602001820160405280156112a4578160200160208202803683370190505b5090506000805b60035481101561169957600381815481106112c257fe5b6000918252602090912001546112d757611691565b600060026000600384815481106112ea57fe5b9060005260206000200154815260200190815260200160002060010160159054906101000a900460ff16600181111561131f57fe5b148015611353575060016000898152600260205260409020600190810154600160a81b900460ff169081111561135157fe5b145b80156113bb57506002600089815260200190815260200160002060040154600260006003848154811061138257fe5b90600052602060002001548152602001908152602001600020600401541015806113bb5750600088815260026020526040902060040154155b806114a45750600160026000600384815481106113d457fe5b9060005260206000200154815260200190815260200160002060010160159054906101000a900460ff16600181111561140957fe5b14801561143c5750600080898152600260205260409020600190810154600160a81b900460ff169081111561143a57fe5b145b80156114a457506002600089815260200190815260200160002060040154600260006003848154811061146b57fe5b90600052602060002001548152602001908152602001600020600401541115806114a45750600088815260026020526040902060040154155b1561169157600381815481106114b657fe5b90600052602060002001548383815181106114cd57fe5b60209081029190910181019190915260075460008a8152600290925260409091205461010090046001600160a01b039081169116148015611528575060008881526002602052604081205460ff16600181111561152657fe5b145b8061157957506008546000898152600260205260409020600101546001600160a01b0390811691161480156115795750600160008981526002602052604090205460ff16600181111561157757fe5b145b156115bc576115b584600260006003858154811061159357fe5b906000526020600020015481526020019081526020016000206002015461266b565b9350611635565b6116328461162d60026000600386815481106115d457fe5b9060005260206000200154815260200190815260200160002060020154600260006003878154811061160257fe5b906000526020600020015481526020019081526020016000206004015461267d90919063ffffffff16565b61266b565b93505b600087600281111561164357fe5b141580156116685750876003828154811061165a57fe5b906000526020600020015414155b1561168a578783836001018151811061167d57fe5b6020026020010181815250505b6001909101905b6001016112ab565b5091969095509350505050565b816116b4576116b4816126b3565b5050565b60008060008080600090506000806000606060038054905067ffffffffffffffff811180156116e657600080fd5b50604051908082528060200260200182016040528015611710578160200160208202803683370190505b5090506117228b61012001518b611256565b909250905060008a600281111561173557fe5b141561175d578a60c0015182101561175857600098505050505050505050611121565b611787565b60018a600281111561176b57fe5b1415611787578161178757600098505050505050505050611121565b600091505b805182101561260d5760c08b01516117a35761260d565b8a61012001518183815181106117b557fe5b60200260200101511415801561180e57508a60e001516001600160a01b0316600260008385815181106117e457fe5b6020908102919091018101518252810191909152604001600020600301546001600160a01b031614155b801561185c575060006002600083858151811061182757fe5b6020026020010151815260200190815260200160002060010160169054906101000a900460ff16600481111561185957fe5b14155b15611a8c576002600082848151811061187157fe5b6020026020010151815260200190815260200160002060040154600014801561189d57506101008b0151155b156118a757612602565b6000600260008385815181106118b957fe5b6020026020010151815260200190815260200160002060010160159054906101000a900460ff1660018111156118eb57fe5b148015611907575060018b60800151600181111561190557fe5b145b1561199c578a61010001516002600083858151811061192257fe5b602002602001015181526020019081526020016000206004015410158061194c57506101008b0151155b15611997576002600082848151811061196157fe5b6020026020010151815260200190815260200160002060040154965080828151811061198957fe5b602002602001015197508194505b611a8c565b6001600260008385815181106119ae57fe5b6020026020010151815260200190815260200160002060010160159054906101000a900460ff1660018111156119e057fe5b1480156119fc575060008b6080015160018111156119fa57fe5b145b15611a8c578a610100015160026000838581518110611a1757fe5b6020026020010151815260200190815260200160002060040154111580611a4157506101008b0151155b15611a8c5760026000828481518110611a5657fe5b60200260200101518152602001908152602001600020600401549650808281518110611a7e57fe5b602002602001015195508194505b60018b608001516001811115611a9e57fe5b14156120765787156120715760075460208c01516001600160a01b039081169116148015611ad8575060008b516001811115611ad657fe5b145b15611db25760085460008981526002602052604090205461010090046001600160a01b039081169116148015611b28575060008881526002602052604081205460ff166001811115611b2657fe5b145b15611b515760008881526002602081905260409091200154611b4a90886126c3565b9350611bb7565b6007546000898152600260205260409020600101546001600160a01b039081169116148015611b9c5750600160008981526002602052604090205460ff166001811115611b9a57fe5b145b15611bb7576000888152600260208190526040909120015493505b8a60c001518410611d095760c08b01519350611bd3848861267d565b60085460008a8152600260205260409020549194506001600160a01b0390811661010090920416148015611c235750600160008981526002602052604090205460ff166001811115611c2157fe5b145b611c495760008881526002602081905260409091200154611c449084612714565b611c6d565b611c6d600260008a8152602001908152602001600020600201548c60c00151612714565b600089815260026020818152604083208083019490945560c08f018390528b8352526001909101805460ff60b01b1916600160b01b17905560a08c01526101208b0151611cbd908989878761272a565b611cc860008b612a72565b60008b606001516002811115611cda57fe5b1415611d0457611cf58b61012001518c60e001516001612afa565b98505050505050505050611121565b611dad565b8315611dad57611d19848861267d565b9250611d298b60c0015185612714565b60c08c015260008881526002602081905260408220908101919091556001908101805460ff60b01b1916905560a08c01526101208b0151611d6d908989878761272a565b611dad8560026000848981518110611d8157fe5b6020026020010151815260200190815260200160002060010160149054906101000a900460ff16612a72565b612071565b60085460408c01516001600160a01b039081169116148015611de0575060018b516001811115611dde57fe5b145b15612071576007546000898152600260205260409020600101546001600160a01b039081169116148015611e305750600160008981526002602052604090205460ff166001811115611e2e57fe5b145b15611e595760008881526002602081905260409091200154611e52908861267d565b9250611ebf565b60085460008981526002602052604090205461010090046001600160a01b039081169116148015611ea4575060008881526002602052604081205460ff166001811115611ea257fe5b145b15611ebf576000888152600260208190526040909120015492505b8a60c001518310611ff95760c08b01519250611edb83886126c3565b60075460008a8152600260205260409020600101549195506001600160a01b039182169116148015611f27575060008881526002602052604081205460ff166001811115611f2557fe5b145b611f4d5760008881526002602081905260409091200154611f489085612714565b611f71565b611f71600260008a8152602001908152602001600020600201548c60c00151612714565b600089815260026020818152604083208083019490945560c08f018390528b8352526001909101805460ff60b01b1916600160b01b17905560a08c01526101208b0151611fc1908989878761272a565b611fcc60008b612a72565b60008b606001516002811115611fde57fe5b1415611dad57611cf58b61012001518c60e001516000612afa565b82156120715761200983886126c3565b93506120198b60c0015184612714565b60c08c015260008881526002602081905260408220908101919091556001908101805460ff60b01b1916905560a08c01526101208b015161205d908989878761272a565b6120718560026000848981518110611d8157fe5b612602565b60008b60800151600181111561208857fe5b14156126025785156126025760085460208c01516001600160a01b0390811691161480156120c2575060008b5160018111156120c057fe5b145b156123415760075460008781526002602052604090205461010090046001600160a01b039081169116148015612112575060008681526002602052604081205460ff16600181111561211057fe5b145b1561213b5760008681526002602081905260409091200154612134908861267d565b92506121a1565b6008546000878152600260205260409020600101546001600160a01b0390811691161480156121865750600160008781526002602052604090205460ff16600181111561218457fe5b145b156121a1576000868152600260208190526040909120015492505b8a60c0015183106122dd5760c08b015192506121bd83886126c3565b6008546000888152600260205260409020600101549195506001600160a01b03918216911614801561220b5750600160008781526002602052604090205460ff16600181111561220957fe5b145b612231576000868152600260208190526040909120015461222c9085612714565b612255565b61225560026000888152602001908152602001600020600201548c60c00151612714565b600087815260026020818152604083208083019490945560c08f01839052898352526001909101805460ff60b01b1916600160b01b17905560a08c01526101208b01516122a5908789878761272a565b6122b060008b612a72565b60008b6060015160028111156122c257fe5b1415611dad57611cf58b61012001518c60e001516001612afa565b8215612071576122ed83886126c3565b93506122fd8b60c0015184612714565b60c08c015260008681526002602081905260408220908101919091556001908101805460ff60b01b1916905560a08c01526101208b015161205d908789878761272a565b60075460408c01516001600160a01b03908116911614801561236f575060018b51600181111561236d57fe5b145b15612602576008546000878152600260205260409020600101546001600160a01b0390811691161480156123bf5750600160008781526002602052604090205460ff1660018111156123bd57fe5b145b156123e857600086815260026020819052604090912001546123e190886126c3565b935061244e565b60075460008781526002602052604090205461010090046001600160a01b039081169116148015612433575060008681526002602052604081205460ff16600181111561243157fe5b145b1561244e576000868152600260208190526040909120015493505b8a60c00151841061258a5760c08b0151935061246a848861267d565b6007546000888152600260205260409020549194506001600160a01b03908116610100909204161480156124b8575060008681526002602052604081205460ff1660018111156124b657fe5b145b6124de57600086815260026020819052604090912001546124d99084612714565b612502565b61250260026000888152602001908152602001600020600201548c60c00151612714565b600087815260026020818152604083208083019490945560c08f01839052898352526001909101805460ff60b01b1916600160b01b17905560a08c01526101208b0151612552908789878761272a565b61255d60008b612a72565b60008b60600151600281111561256f57fe5b141561207157611cf58b61012001518c60e001516000612afa565b83156126025761259a848861267d565b92506125aa8b60c0015185612714565b60c08c015260008681526002602081905260408220908101919091556001908101805460ff60b01b1916905560a08c01526101208b01516125ee908789878761272a565b6126028560026000848981518110611d8157fe5b60019091019061178c565b505050505050505092915050565b600080546001600160a01b038381166001600160a01b0319831681178455604051919092169283917f8be0079c531659141344cd1fd0a4f28419497f9722a3daafe3b4186f6b6457e09190a35050565b60008282016109a384821015836116a6565b60008282026126a184158061269a57508385838161269757fe5b04145b60036116a6565b670de0b6b3a764000090049392505050565b611253816210905360ea1b612c9b565b60006126d282151560046116a6565b826126df57506000611121565b670de0b6b3a764000083810290612702908583816126f957fe5b041460056116a6565b82818161270b57fe5b04915050611121565b60006127248383111560016116a6565b50900390565b6001805481019081905561273c612d53565b6040805160e08101825288815260075460008a81526002602090815293902054919283019161010090046001600160a01b0390811691161461277e5784612780565b855b81526000898152600260208181526040808420600301546001600160a01b03908116838701528186018d90526007548d86529390925290922054606090930192610100900482169116146127d457846127d6565b855b81526020018681526020018381525090508060056000600260008b815260200190815260200160002060030160009054906101000a90046001600160a01b03166001600160a01b03166001600160a01b031681526020019081526020016000206000848152602001908152602001600020600082015181600001556020820151816001015560408201518160020160006101000a8154816001600160a01b0302191690836001600160a01b03160217905550606082015181600301556080820151816004015560a0820151816005015560c082015181600601559050508060056000600260008a815260200190815260200160002060030160009054906101000a90046001600160a01b03166001600160a01b03166001600160a01b031681526020019081526020016000206000848152602001908152602001600020600082015181600001556020820151816001015560408201518160020160006101000a8154816001600160a01b0302191690836001600160a01b03160217905550606082015181600301556080820151816004015560a0820151816005015560c0820151816006015590505060066000600260008a815260200190815260200160002060030160009054906101000a90046001600160a01b03166001600160a01b03166001600160a01b03168152602001908152602001600020829080600181540180825580915050600190039060005260206000200160009091909190915055600660006002600089815260200190815260200160002060030160009054906101000a90046001600160a01b03166001600160a01b03166001600160a01b0316815260200190815260200160002082908060018154018082558091505060019003906000526020600020016000909190919091505550505050505050565b6001816002811115612a8057fe5b14156116b457815b6003548110156103515760035460001901811415612abd5760038381548110612aad57fe5b6000918252602082200155612af2565b60038360010181548110612acd57fe5b906000526020600020015460038481548110612ae557fe5b6000918252602090912001555b600101612a88565b6000806000612b07612d53565b60005b6001600160a01b038716600090815260066020526040902054811015612c8f576001600160a01b0387166000908152600660205260409020805482908110612b4e57fe5b60009182526020808320909101546001600160a01b03808b16845260058084526040808620848752855294859020855160e0810187528154808252600183015496820196909652600282015490931695830195909552600385015460608301526004850154608083015284015460a082015260069093015460c08401529550909250881415612bfe57600086612be8578260200151612bee565b82608001515b9050612bfa848261266b565b9350505b6001600160a01b0387166000908152600660205260409020805482908110612c2257fe5b600091825260208083209091018290556001600160a01b03891682526005808252604080842088855290925290822082815560018082018490556002820180546001600160a01b031916905560038201849055600482018490559181018390556006019190915501612b0a565b50909695505050505050565b62461bcd60e51b600090815260206004526007602452600a808404818106603090810160081b958390069590950190829004918206850160101b01602363ffffff0060e086901c160160181b0190930160c81b60445260e882901c90606490fd5b60408051610140810190915280600081526000602082018190526040820181905260609091019081526020016000815260200160008152600060208201819052604082018190526060820181905260809091015290565b6040805160e081018252600080825260208201819052918101829052606081018290526080810182905260a0810182905260c081019190915290565b80356111218161339d565b600082601f830112612daa578081fd5b813567ffffffffffffffff811115612dc0578182fd5b612dd3601f8201601f1916602001613376565b9150808252836020828501011115612dea57600080fd5b8060208401602084013760009082016020015292915050565b8035611121816133b2565b600060408284031215612e1f578081fd5b612e296040613376565b9050813560038110612e3a57600080fd5b808252506020820135602082015292915050565b600060208284031215612e5f578081fd5b81356109a38161339d565b60008060408385031215612e7c578081fd5b8235612e878161339d565b946020939093013593505050565b600060208284031215612ea6578081fd5b5035919050565b600060208284031215612ebe578081fd5b5051919050565b600080600060608486031215612ed9578081fd5b505081359360208301359350604090920135919050565b60008060008060808587031215612f05578081fd5b84359350602085013592506040850135612f1e816133b2565b9396929550929360600135925050565b600080600060608486031215612ed9578283fd5b600080600060808486031215612f56578283fd5b833567ffffffffffffffff80821115612f6d578485fd5b8186019150610120808389031215612f83578586fd5b612f8c81613376565b9050612f988884612e03565b8152612fa78860208501612d8f565b6020820152612fb98860408501612d8f565b6040820152606083013560608201526080830135608082015260a083013560a0820152612fe98860c08501612d8f565b60c0820152612ffb8860e08501612d8f565b60e08201526101008084013583811115613013578788fd5b61301f8a828701612d9a565b8284015250508095505050506130388560208601612e0e565b91506130478560608601612e03565b90509250925092565b6001600160a01b03169052565b6005811061306757fe5b9052565b6003811061306757fe5b6002811061306757fe5b60609290921b6bffffffffffffffffffffffff19168252601482015260340190565b6001600160a01b0391909116815260200190565b6020808252825182820181905260009190848201906040850190845b81811015612c8f578351835292840192918401916001016130d1565b90815260200190565b6020808252601d908201527f556e617574686f72697a65642061636365737320746f206f7264657273000000604082015260600190565b6020808252601f908201527f4d61726b6574206f726465722063616e206e6f74206265206368616e67656400604082015260600190565b602080825260139082015272556e617574686f72697a65642061636365737360681b604082015260600190565b6020808252601b908201527f53656e646572206973206e6f74206f726465722063726561746f720000000000604082015260600190565b60208082526017908201527f4f7264657220697320616c72656164792066696c6c6564000000000000000000604082015260600190565b6020808252601d908201527f556e617574686f72697a65642061636365737320746f20747261646573000000604082015260600190565b60208082526021908201527f4d61726b6574206f726465722063616e206e6f742062652063616e63656c6c656040820152601960fa1b606082015260800190565b60006101408201905061328b828451613075565b602083015161329d6020840182613050565b5060408301516132b06040840182613050565b5060608301516132c3606084018261306b565b5060808301516132d66080840182613075565b5060a08301516132e960a084018261305d565b5060c083015160c083015260e083015161330660e0840182613050565b50610100838101519083015261012092830151929091019190915290565b81518152602080830151908201526040808301516001600160a01b031690820152606080830151908201526080808301519082015260a0808301519082015260c0918201519181019190915260e00190565b60405181810167ffffffffffffffff8111828210171561339557600080fd5b604052919050565b6001600160a01b038116811461125357600080fd5b6002811061125357600080fdfea26469706673582212209be7ba9a2e5007c0c1abfa1f72d2a3cdca9705dfe36e8f98452e251b658cdc6164736f6c63430007010033",
  "linkReferences": {},
  "deployedLinkReferences": {}
}