{
  "_format": "hh-sol-artifact-1",
  "contractName": "SecondaryIssuePoolFactory",
  "sourceName": "contracts/SecondaryIssuePoolFactory.sol",
  "abi": [
    {
      "inputs": [
        {
          "internalType": "contract IVault",
          "name": "vault",
          "type": "address"
        }
      ],
      "stateMutability": "nonpayable",
      "type": "constructor"
    },
    {
      "anonymous": false,
      "inputs": [],
      "name": "FactoryDisabled",
      "type": "event"
    },
    {
      "anonymous": false,
      "inputs": [
        {
          "indexed": true,
          "internalType": "address",
          "name": "pool",
          "type": "address"
        }
      ],
      "name": "PoolCreated",
      "type": "event"
    },
    {
      "inputs": [
        {
          "internalType": "string",
          "name": "_name",
          "type": "string"
        },
        {
          "internalType": "string",
          "name": "_symbol",
          "type": "string"
        },
        {
          "internalType": "address",
          "name": "_security",
          "type": "address"
        },
        {
          "internalType": "address",
          "name": "_currency",
          "type": "address"
        },
        {
          "internalType": "uint256",
          "name": "_maxAmountsIn",
          "type": "uint256"
        },
        {
          "internalType": "uint256",
          "name": "_tradeFeePercentage",
          "type": "uint256"
        }
      ],
      "name": "create",
      "outputs": [
        {
          "internalType": "address",
          "name": "",
          "type": "address"
        }
      ],
      "stateMutability": "nonpayable",
      "type": "function"
    },
    {
      "inputs": [],
      "name": "disable",
      "outputs": [],
      "stateMutability": "nonpayable",
      "type": "function"
    },
    {
      "inputs": [
        {
          "internalType": "bytes4",
          "name": "selector",
          "type": "bytes4"
        }
      ],
      "name": "getActionId",
      "outputs": [
        {
          "internalType": "bytes32",
          "name": "",
          "type": "bytes32"
        }
      ],
      "stateMutability": "view",
      "type": "function"
    },
    {
      "inputs": [],
      "name": "getAuthorizer",
      "outputs": [
        {
          "internalType": "contract IAuthorizer",
          "name": "",
          "type": "address"
        }
      ],
      "stateMutability": "view",
      "type": "function"
    },
    {
      "inputs": [],
      "name": "getCreationCode",
      "outputs": [
        {
          "internalType": "bytes",
          "name": "",
          "type": "bytes"
        }
      ],
      "stateMutability": "view",
      "type": "function"
    },
    {
      "inputs": [],
      "name": "getCreationCodeContracts",
      "outputs": [
        {
          "internalType": "address",
          "name": "contractA",
          "type": "address"
        },
        {
          "internalType": "address",
          "name": "contractB",
          "type": "address"
        }
      ],
      "stateMutability": "view",
      "type": "function"
    },
    {
      "inputs": [],
      "name": "getPauseConfiguration",
      "outputs": [
        {
          "internalType": "uint256",
          "name": "pauseWindowDuration",
          "type": "uint256"
        },
        {
          "internalType": "uint256",
          "name": "bufferPeriodDuration",
          "type": "uint256"
        }
      ],
      "stateMutability": "view",
      "type": "function"
    },
    {
      "inputs": [],
      "name": "getVault",
      "outputs": [
        {
          "internalType": "contract IVault",
          "name": "",
          "type": "address"
        }
      ],
      "stateMutability": "view",
      "type": "function"
    },
    {
      "inputs": [],
      "name": "isDisabled",
      "outputs": [
        {
          "internalType": "bool",
          "name": "",
          "type": "bool"
        }
      ],
      "stateMutability": "view",
      "type": "function"
    },
    {
      "inputs": [
        {
          "internalType": "address",
          "name": "pool",
          "type": "address"
        }
      ],
      "name": "isPoolFromFactory",
      "outputs": [
        {
          "internalType": "bool",
          "name": "",
          "type": "bool"
        }
      ],
      "stateMutability": "view",
      "type": "function"
    }
  ],
  "bytecode": "0x6101606040523480156200001257600080fd5b5060405162006971380380620069718339810160408190526200003591620001ce565b80604051806020016200004890620001c0565b601f1982820381018352601f90910116604052805182903090839060006002820460a081905280830360e081905281855290915083620000948162000104602090811b6200040017901c565b60601b6001600160601b0319166080528285018051838252620000c38262000104602090811b6200040017901c565b6001600160601b0319606091821b811660c0529690935290526101009590955250509290911b90911661012052505050426276a700016101405250620001fe565b80517f602038038060206000396000f3fefefefefefefefefefefefefefefefefefefe808352600091602081018484f09084529150620001526001600160a01b03831615156101ac62000158565b50919050565b81620001695762000169816200016d565b5050565b62461bcd60e51b6000908152602060045260076024526642414c23000030600a808404818106603090810160081b95839006959095019082900491820690940160101b939093010160c81b604452606490fd5b615c858062000cec83390190565b600060208284031215620001e0578081fd5b81516001600160a01b0381168114620001f7578182fd5b9392505050565b60805160601c60a05160c05160601c60e051610100516101205160601c61014051610a826200026a600039806101d9528061020252508061036452508061031452508061045a5250806101b052806104d652508061047b52508061018f52806104b25250610a826000f3fe608060405234801561001057600080fd5b506004361061009d5760003560e01c80636c57f5a9116100665780636c57f5a91461011657806374dcc7a41461011e578063851c1bb31461013e5780638d928af81461015e578063aaabadc5146101665761009d565b8062c194db146100a2578063174481fa146100c05780632da47c40146100d65780632f2770db146100ec5780636634b753146100f6575b600080fd5b6100aa61016e565b6040516100b7919061094f565b60405180910390f35b6100c861018d565b6040516100b7929190610902565b6100de6101d3565b6040516100b7929190610a29565b6100f461023d565b005b610109610104366004610788565b610284565b6040516100b7919061091c565b6101096102a2565b61013161012c366004610808565b6102ab565b6040516100b791906108ee565b61015161014c3660046107c4565b610310565b6040516100b79190610927565b610131610362565b610131610386565b606061018860405180602001604052806000815250610452565b905090565b7f00000000000000000000000000000000000000000000000000000000000000007f00000000000000000000000000000000000000000000000000000000000000009091565b600080427f000000000000000000000000000000000000000000000000000000000000000081101561022f57807f000000000000000000000000000000000000000000000000000000000000000003925062278d009150610238565b60009250600091505b509091565b61024561052b565b61024d61055c565b6001805460ff1916811790556040517f432acbfd662dbb5d8b378384a67159b47ca9d0f1b79f97cf64cf8585fa362d5090600090a1565b6001600160a01b031660009081526020819052604090205460ff1690565b60015460ff1690565b60008060006102b86101d3565b915091506103016102c7610362565b8c8c8c8c8c8c8b8d8b8b336040516020016102ed9c9b9a999897969594939291906109a2565b604051602081830303815290604052610571565b9b9a5050505050505050505050565b60007f0000000000000000000000000000000000000000000000000000000000000000826040516020016103459291906108d6565b604051602081830303815290604052805190602001209050919050565b7f000000000000000000000000000000000000000000000000000000000000000090565b6000610390610362565b6001600160a01b031663aaabadc56040518163ffffffff1660e01b815260040160206040518083038186803b1580156103c857600080fd5b505afa1580156103dc573d6000803e3d6000fd5b505050506040513d601f19601f8201168201806040525081019061018891906107ec565b80517f602038038060206000396000f3fefefefefefefefefefefefefefefefefefefe808352600091602081018484f0908452915061044c6001600160a01b03831615156101ac6105da565b50919050565b8051604080517f00000000000000000000000000000000000000000000000000000000000000007f0000000000000000000000000000000000000000000000000000000000000000818101858101848101602090810190965280855293957f00000000000000000000000000000000000000000000000000000000000000009592947f000000000000000000000000000000000000000000000000000000000000000094938801866000828a3c846000888301883c506020898101908985010161051d8183866105ec565b505050505050505050919050565b60006105426000356001600160e01b031916610310565b9050610559610551823361062a565b6101916105da565b50565b61056f6105676102a2565b1560d36105da565b565b600061057b61055c565b6000610586836106ba565b6001600160a01b038116600081815260208190526040808220805460ff191660011790555192935090917f83a48fbcfc991335314e74d0496aab6a1987e992ddc85dddbcc4d6dd6ef2e9fc9190a292915050565b816105e8576105e8816106ee565b5050565b5b6020811061060c578151835260209283019290910190601f19016105ed565b905182516020929092036101000a6000190180199091169116179052565b6000610634610386565b6001600160a01b0316639be2a8848484306040518463ffffffff1660e01b815260040161066393929190610930565b60206040518083038186803b15801561067b57600080fd5b505afa15801561068f573d6000803e3d6000fd5b505050506040513d601f19601f820116820180604052508101906106b391906107a4565b9392505050565b600060606106c783610452565b905060008151602083016000f090506001600160a01b0381166106b3573d6000803e3d6000fd5b62461bcd60e51b6000908152602060045260076024526642414c23000030600a808404818106603090810160081b95839006959095019082900491820690940160101b939093010160c81b604452606490fd5b60008083601f840112610752578182fd5b50813567ffffffffffffffff811115610769578182fd5b60208301915083602082850101111561078157600080fd5b9250929050565b600060208284031215610799578081fd5b81356106b381610a37565b6000602082840312156107b5578081fd5b815180151581146106b3578182fd5b6000602082840312156107d5578081fd5b81356001600160e01b0319811681146106b3578182fd5b6000602082840312156107fd578081fd5b81516106b381610a37565b60008060008060008060008060c0898b031215610823578384fd5b883567ffffffffffffffff8082111561083a578586fd5b6108468c838d01610741565b909a50985060208b013591508082111561085e578586fd5b5061086b8b828c01610741565b909750955050604089013561087f81610a37565b9350606089013561088f81610a37565b979a969950949793969295929450505060808201359160a0013590565b60008284528282602086013780602084860101526020601f19601f85011685010190509392505050565b9182526001600160e01b031916602082015260240190565b6001600160a01b0391909116815260200190565b6001600160a01b0392831681529116602082015260400190565b901515815260200190565b90815260200190565b9283526001600160a01b03918216602084015216604082015260600190565b6000602080835283518082850152825b8181101561097b5785810183015185820160400152820161095f565b8181111561098c5783604083870101525b50601f01601f1916929092016040019392505050565b6001600160a01b038d168152610140602082018190526000906109c89083018d8f6108ac565b82810360408401526109db818c8e6108ac565b6001600160a01b039a8b166060850152988a166080840152505060a081019590955260c085019390935260e08401919091526101008301529092166101209092019190915295945050505050565b918252602082015260400190565b6001600160a01b038116811461055957600080fdfea2646970667358221220b523f922e3c405f413a7e7f42bedeb7d5f41789cfdbe15e379498a4641a1009564736f6c634300070100336102c06040527f6e71edae12b1b97f4d1f60370fef10105fa2faae0126114a169c64845d6126c960e052600a805460ff60a01b1916600160a01b17905560006019819055601b819055601c553480156200005857600080fd5b5060405162005c8538038062005c858339810160408190526200007b9162000abf565b8960008a8a6200008c8b8b62000456565b60408051600280825260608201835290916020830190803683370190505089898989828289898d85336001600160a01b031660001b8480604051806040016040528060018152602001603160f81b81525087878160039080519060200190620000f792919062000937565b5080516200010d90600490602084019062000937565b50506005805460ff19166012179055508151602092830120608052805191012060a052507f8b73c3c69bb8fe3d512ecc4cf759cc79239f7b179b0ffacaa9a75d522b39400f60c052610100526001600160601b0319606091821b81166101205291901b1661014052506200018c90506276a70083111561019462000507565b620001a062278d0082111561019562000507565b4290910161016081905201610180528551620001c2906002111560c862000507565b620001dc620001d06200051c565b8751111560c962000507565b620001f2866200052160201b62001d431760201c565b620001fd846200052d565b6040516309b2760f60e01b81526000906001600160a01b038c16906309b2760f906200022e908d9060040162000c5d565b602060405180830381600087803b1580156200024957600080fd5b505af11580156200025e573d6000803e3d6000fd5b505050506040513d601f19601f8201168201806040525081019062000284919062000a87565b604051633354e3e960e11b81529091506001600160a01b038c16906366a9c7d290620002b99084908b908b9060040162000bc1565b600060405180830381600087803b158015620002d457600080fd5b505af1158015620002e9573d6000803e3d6000fd5b50505050806101a081815250508a6001600160a01b031663d2946c2b6040518163ffffffff1660e01b815260040160206040518083038186803b1580156200033057600080fd5b505afa15801562000345573d6000803e3d6000fd5b505050506040513d601f19601f820116820180604052508101906200036b919062000aa0565b6001600160a01b03166101c0816001600160a01b031660601b815250505050505050505050505050866001600160a01b03166101e0816001600160a01b031660601b81525050856001600160a01b0316610200816001600160a01b031660601b815250506000806000620003e78a8a30620005c160201b60201c565b6102608190526102808390526102a0829052919450925090506200040b8a620006b7565b610220526200041a89620006b7565b610240525050506009949094555050600a80546001600160a01b0319166001600160a01b03909316929092179091555062000c9d945050505050565b6040805160028082526060808301845292602083019080368337019050509050816001600160a01b0316836001600160a01b03161162000497578262000499565b815b81600081518110620004a757fe5b6001600160a01b0392831660209182029290920101528281169084161115620004d15782620004d3565b815b81600181518110620004e157fe5b60200260200101906001600160a01b031690816001600160a01b03168152505092915050565b81620005185762000518816200078b565b5050565b600290565b806200051881620007de565b620005466200053b6200086b565b82101560cb62000507565b6200055f6200055462000874565b82111560ca62000507565b620005818160c060406008546200088060201b62001d4d17909392919060201c565b6008556040517fa9ba3ffe0b6c366b81232caab38605a0699ad5398d6cce76f91ee809e322dafc90620005b690839062000c72565b60405180910390a150565b6000806000846001600160a01b0316866001600160a01b031610156200064a57836001600160a01b0316856001600160a01b031610156200060d575060009150600190506002620006ae565b836001600160a01b0316866001600160a01b0316101562000639575060009150600290506001620006ae565b5060019150600290506000620006ae565b846001600160a01b0316846001600160a01b0316101562000676575060029150600190506000620006ae565b856001600160a01b0316846001600160a01b03161015620006a2575060029150600090506001620006ae565b50600191506000905060025b93509350939050565b60006001600160a01b038216301415620006db5750670de0b6b3a764000062000786565b6000826001600160a01b031663313ce5676040518163ffffffff1660e01b815260040160206040518083038186803b1580156200071757600080fd5b505afa1580156200072c573d6000803e3d6000fd5b505050506040513d601f19601f8201168201806040525081019062000752919062000b9e565b60ff169050600062000771601283620008a560201b62001d701760201c565b905080600a0a670de0b6b3a764000002925050505b919050565b62461bcd60e51b6000908152602060045260076024526642414c23000030600a808404818106603090810160081b95839006959095019082900491820690940160101b939093010160c81b604452606490fd5b600281511015620007ef5762000868565b600081600081518110620007ff57fe5b602002602001015190506000600190505b8251811015620008655760008382815181106200082957fe5b602002602001015190506200085a816001600160a01b0316846001600160a01b03161060656200050760201b60201c565b915060010162000810565b50505b50565b64e8d4a5100090565b67016345785d8a000090565b60006200088f848484620008c2565b506001901b60001901811b1992909216911b1790565b6000620008b783831115600162000507565b508082035b92915050565b620008d36101008310606462000507565b6200090c600182101580156200090457506200090060ff84610100036200091d60201b62001d861760201c565b8211155b606462000507565b6200086583821c156101b462000507565b60008183106200092e578162000930565b825b9392505050565b828054600181600116156101000203166002900490600052602060002090601f016020900481019282601f106200097a57805160ff1916838001178555620009aa565b82800160010185558215620009aa579182015b82811115620009aa5782518255916020019190600101906200098d565b50620009b8929150620009bc565b5090565b5b80821115620009b85760008155600101620009bd565b8051620008bc8162000c87565b600082601f830112620009f1578081fd5b81516001600160401b038082111562000a08578283fd5b6040516020601f8401601f191682018101838111838210171562000a2a578586fd5b8060405250819450838252868185880101111562000a4757600080fd5b600092505b8383101562000a6b578583018101518284018201529182019162000a4c565b8383111562000a7d5760008185840101525b5050505092915050565b60006020828403121562000a99578081fd5b5051919050565b60006020828403121562000ab2578081fd5b8151620009308162000c87565b6000806000806000806000806000806101408b8d03121562000adf578586fd5b62000aeb8c8c620009d3565b60208c0151909a506001600160401b038082111562000b08578788fd5b62000b168e838f01620009e0565b9a5060408d015191508082111562000b2c578788fd5b5062000b3b8d828e01620009e0565b98505062000b4d8c60608d01620009d3565b965062000b5e8c60808d01620009d3565b955060a08b0151945060c08b0151935060e08b015192506101008b0151915062000b8d8c6101208d01620009d3565b90509295989b9194979a5092959850565b60006020828403121562000bb0578081fd5b815160ff8116811462000930578182fd5b60006060820185835260206060818501528186518084526080860191508288019350845b8181101562000c0d5762000bfa855162000c7b565b8352938301939183019160010162000be5565b505084810360408601528551808252908201925081860190845b8181101562000c4f5762000c3c835162000c7b565b8552938301939183019160010162000c27565b509298975050505050505050565b602081016003831062000c6c57fe5b91905290565b90815260200190565b6001600160a01b031690565b6001600160a01b03811681146200086857600080fd5b60805160a05160c05160e051610100516101205160601c6101405160601c61016051610180516101a0516101c05160601c6101e05160601c6102005160601c610220516102405161026051610280516102a051614eae62000dd7600039806107f952806109415280611e1d528061205c52508061083d5280611ddc52806120a9525080611e5e5280612ea9525050508061071d52806108fd528061104252806113525280611bff5280613e595280613ffa52806141bc5250806107b5528061096c5280610ea252806113045280611491528061170c52806117b75280611bb15280613e1e5280613fab52806141715250806118c4525080610ef55250806126a152508061267d52508061166252508061163e5250806115c852508061191b5250806127a75250806127e95250806127c85250614eae6000f3fe608060405234801561001057600080fd5b506004361061028a5760003560e01c806370a082311161015c57806395d89b41116100ce578063b7b814fc11610087578063b7b814fc1461054a578063d2946c2b14610552578063d505accf1461055a578063d5c096c41461056d578063dd62ed3e14610580578063e9fad8ee146105935761028a565b806395d89b41146104eb578063a3b13799146104f3578063a457c2d714610514578063a9059cbb14610527578063aaabadc51461053a578063b35056b8146105425761028a565b806382fce88f1161012057806382fce88f1461049a5780638456cb59146104ad578063851c1bb3146104b557806387ec6817146104c8578063893d20e8146104db5780638d928af8146104e35761028a565b806370a08231146104385780637489ec231461044b57806374f3b0091461045e5780637ecebe001461047f5780638129fc1c146104925761028a565b8063313ce5671161020057806346b8b730116101b957806346b8b730146103d757806350dd6ed9146103ec57806354a844ba146103ff57806355c67628146104075780636028bfd41461040f5780636945c1fd146104305761028a565b8063313ce567146103845780633644e5151461039957806338e9922e146103a157806338fff2d0146103b457806339509351146103bc5780633f4ba83a146103cf5761028a565b806318160ddd1161025257806318160ddd146103155780631c0de0511461031d5780631dd746ea146103345780631f0404801461034957806323b872dd1461035c5780632541897f1461036f5761028a565b806301ec954a1461028f57806306fdde03146102b8578063095ea7b3146102cd5780630c8605be146102ed57806313ce454614610302575b600080fd5b6102a261029d3660046147bc565b61059b565b6040516102af9190614c15565b60405180910390f35b6102c06109f3565b6040516102af9190614d27565b6102e06102db3660046145c0565b610a89565b6040516102af9190614bf2565b6103006102fb3660046146ff565b610aa0565b005b6103006103103660046146de565b610b93565b6102a2610d6e565b610325610d74565b6040516102af93929190614bfd565b61033c610d9d565b6040516102af9190614bb1565b6103006103573660046146ff565b610dac565b6102e061036a366004614510565b610e2c565b610377610ea0565b6040516102af9190614b05565b61038c610ec4565b6040516102af9190614e1f565b6102a2610ecd565b6103006103af36600461460b565b610ed7565b6102a2610ef3565b6102e06103ca3660046145c0565b610f17565b610300610f52565b6103df610f66565b6040516102af9190614b6d565b6103006103fa36600461476e565b610fc6565b610300610fe4565b6102a2610ff6565b61042261041d36600461463b565b611009565b6040516102af929190614e06565b610377611040565b6102a26104463660046144bc565b611064565b61030061045936600461460b565b611083565b61047161046c36600461463b565b6111c4565b6040516102af929190614bc4565b6102a261048d3660046144bc565b6112c7565b6103006112e2565b6103006104a83660046146ff565b611509565b6103006115b2565b6102a26104c336600461472a565b6115c4565b6104226104d636600461463b565b611616565b61037761163c565b610377611660565b6102c0611684565b61050661050136600461460b565b6116e5565b6040516102af929190614ab4565b6102e06105223660046145c0565b61184d565b6102e06105353660046145c0565b61188b565b610377611898565b6102e06118a2565b6103006118b0565b6103776118c2565b610300610568366004614550565b6118e6565b61047161057b36600461463b565b611a2f565b6102a261058e3660046144d8565b611b52565b610300611b8f565b600084608001516105c86105ad611660565b6001600160a01b0316336001600160a01b03161460cd611d9e565b6105dd6105d3610ef3565b82146101f4611d9e565b60606105e7611dac565b905060608060005b896101000151518110156106ab576005811161064957896101000151818151811061061657fe5b602001015160f81c60f81b83828151811061062d57fe5b60200101906001600160f81b031916908160001a9053506106a3565b6006811015801561065b575060268111155b156106a357896101000151818151811061067157fe5b602001015160f81c60f81b82600683038151811061068b57fe5b60200101906001600160f81b031916908160001a9053505b6001016105ef565b506106b4614304565b60405180604001604052806106c885611e97565b81526020016106d684611eb5565b90529050600080808c5160018111156106eb57fe5b14156108c9576107128c60600151878c8151811061070557fe5b6020026020010151611f57565b8c60600181815250507f00000000000000000000000000000000000000000000000000000000000000006001600160a01b03168c604001516001600160a01b031614156107b35761076c8c846314d95b1b60e21b8e611f63565b84519093509091506513585c9ad95d60d21b14156107ae576107a181878b8151811061079457fe5b602002602001015161229a565b97505050505050506109ea565b6108c4565b7f00000000000000000000000000000000000000000000000000000000000000006001600160a01b03168c604001516001600160a01b031614156108c45760006108348c7f00000000000000000000000000000000000000000000000000000000000000008151811061082257fe5b60200260200101518e606001516122a6565b9050610875818d7f00000000000000000000000000000000000000000000000000000000000000008151811061086657fe5b602002602001015160006122b8565b60608e015261088c8d856242757960e81b8f611f63565b85519094509092506513585c9ad95d60d21b14156108c2576108b483888c8151811061079457fe5b9850505050505050506109ea565b505b6109e3565b60018c5160018111156108d857fe5b14156109e3576108f28c60600151878b8151811061070557fe5b8c60600181815250507f00000000000000000000000000000000000000000000000000000000000000006001600160a01b03168c602001516001600160a01b0316141561096a5760006108348c7f00000000000000000000000000000000000000000000000000000000000000008151811061082257fe5b7f00000000000000000000000000000000000000000000000000000000000000006001600160a01b03168c602001516001600160a01b031614156109e3576109bb8c846314d95b1b60e21b8e611f63565b84519093509091506513585c9ad95d60d21b14156109e3576107a181878b8151811061079457fe5b5050505050505b50949350505050565b60038054604080516020601f6002600019610100600188161502019095169490940493840181900481028201810190925282815260609390929091830182828015610a7f5780601f10610a5457610100808354040283529160200191610a7f565b820191906000526020600020905b815481529060010190602001808311610a6257829003601f168201915b5050505050905090565b6000610a963384846122e0565b5060015b92915050565b6000838152600c60205260409020600301546327b832b760e11b14610ac457600080fd5b6000838152600c60205260409020600601546001600160a01b0316331415610b8e576000838152600c6020526040902060078101839055600481018290554260058201556001015464131a5b5a5d60da1b1415610b47576000838152600c6020908152604080832054835260129091529020839055610b4282612348565b610b8e565b6000838152600c602052604090206001015463053746f760e41b1415610b8e576000838152600c6020908152604080832054835260159091529020839055610b8e826124d5565b505050565b600a546001600160a01b03163314610baa57600080fd5b6000828152600c60209081526040808320600601546001600160a01b03168352600e8252808320858452600f9092529091205481548110610be757fe5b60009182526020808320909101829055838252600f81526040808320839055600c825280832083815560018101849055600281018490556003810184905560048101849055600581018490556006810180546001600160a01b03191690556007810184905560088101849055600901839055600d909152902054600b80549091908110610c7057fe5b60009182526020808320909101829055838252600d81526040808320839055838352600c8252808320600601546001600160a01b03168352600e8252808320848452600f9092529091205481548110610cc557fe5b60009182526020808320909101829055828252600f81526040808320839055600c825280832083815560018101849055600281018490556003810184905560048101849055600581018490556006810180546001600160a01b03191690556007810184905560088101849055600901839055600d909152902054600b80549091908110610d4e57fe5b60009182526020808320909101829055918152600d909152604081205550565b60025490565b6000806000610d8161265e565b159250610d8c61267b565b9150610d9661269f565b9050909192565b6060610da7611dac565b905090565b806242757960e81b1480610dc65750806314d95b1b60e21b145b610dcf57600080fd5b600a546001600160a01b03163314610de657600080fd5b506000828152600c602090815260408083206004810180549095019094556327b832b760e11b6003850155600b5493849055928252601090522055601180546001019055565b600080610e398533611b52565b9050610e5d336001600160a01b0387161480610e555750838210155b61019e611d9e565b610e688585856126c3565b336001600160a01b03861614801590610e8357506000198114155b15610e9557610e9585338584036122e0565b506001949350505050565b7f000000000000000000000000000000000000000000000000000000000000000090565b60055460ff1690565b6000610da76127a3565b610edf612840565b610ee761286e565b610ef081612881565b50565b7f000000000000000000000000000000000000000000000000000000000000000090565b3360008181526001602090815260408083206001600160a01b03871684529091528120549091610a96918590610f4d90866122a6565b6122e0565b610f5a612840565b610f6460006128fa565b565b336000908152600e6020908152604091829020805483518184028101840190945280845260609392830182828015610a7f57602002820191906000526020600020905b815481526020019060010190808311610fa9575050505050905090565b610fce612840565b610fd661286e565b610fe0828261296d565b5050565b610fec612840565b610f646001612a6c565b600854600090610da79060c06040612aaf565b6000606061101f865161101a612abe565b612ac3565b61103489898989898989612ad0612aec612b4d565b97509795505050505050565b7f000000000000000000000000000000000000000000000000000000000000000090565b6001600160a01b0381166000908152602081905260409020545b919050565b6000818152600c60205260409020600601546001600160a01b031633146110a957600080fd5b6000818152600c602090815260408083208054845260108352818420849055805484526013835281842084905580548452601283528184208490558054845260168352818420849055805484526015835281842084905584845283815560018101849055600281018490556003810184905560048101849055600581018490556006810180546001600160a01b03191690556007810184905560088101849055600901839055600d909152902054600b8054909190811061116657fe5b60009182526020808320909101829055828252600d81526040808320839055338352600e8252808320848452600f90925290912054815481106111a557fe5b60009182526020808320909101829055918152600f9091526040812055565b606080886111d36105ad611660565b6111de6105d3610ef3565b606060006111eb86612c6f565b15611213576111f8612c9e565b61120a89611204610d6e565b88612cb5565b92509050611265565b61121b61286e565b6060611225611dac565b90506112318a82612ce1565b6112558d8d8d8d8d6112416118a2565b61124b578d61124e565b60005b878e612ad0565b935091506112638382612aec565b505b61126f8b82612d42565b81895167ffffffffffffffff8111801561128857600080fd5b506040519080825280602002602001820160405280156112b2578160200160208202803683370190505b509450945050505b5097509795505050505050565b6001600160a01b031660009081526006602052604090205490565b60408051600280825260608083018452926020830190803683370190505090507f00000000000000000000000000000000000000000000000000000000000000008160008151811061133057fe5b60200260200101906001600160a01b031690816001600160a01b0316815250507f00000000000000000000000000000000000000000000000000000000000000008160018151811061137e57fe5b6001600160a01b039290921660209283029190910190910152604080516001808252818301909252606091816020016020820280368337019050509050600954816000815181106113cb57fe5b6020026020010181815250506113df61431b565b50604080516080810182528381526020808201849052825190810183526000808252928201526060810191909152611415611660565b6001600160a01b031663b95cac2861142b610ef3565b600a546040516001600160e01b031960e085901b16815261145d92916001600160a01b03169030908790600401614c1e565b600060405180830381600087803b15801561147757600080fd5b505af115801561148b573d6000803e3d6000fd5b505050507f00000000000000000000000000000000000000000000000000000000000000006001600160a01b03167ff1f17f1a9edc53df960a0bec0dc86cb2bf5606c7826b3b8e701e70c91c28aa2a836000815181106114e757fe5b60200260200101516040516114fc9190614c15565b60405180910390a2505050565b600a546001600160a01b0316331461152057600080fd5b6000928352601d6020908152604080852080546001600160a01b0319908116825560018201805482169055600282018054821690556003808301889055600483018890556005830180549092169091556006820187905560078201879055600882018790556009909101869055938552600c90915280842065119a5b1b195960d21b9084018190559184529092200155565b6115ba612840565b610f6460016128fa565b60007f0000000000000000000000000000000000000000000000000000000000000000826040516020016115f9929190614ac2565b604051602081830303815290604052805190602001209050919050565b60006060611627865161101a612abe565b61103489898989898989612ad0612d4c612b4d565b7f000000000000000000000000000000000000000000000000000000000000000090565b7f000000000000000000000000000000000000000000000000000000000000000090565b60048054604080516020601f6002600019610100600188161502019095169490940493840181900481028201810190925282815260609390929091830182828015610a7f5780601f10610a5457610100808354040283529160200191610a7f565b6000818152601e60209081526040808320548352601d9091528120600201548190819081907f00000000000000000000000000000000000000000000000000000000000000006001600160a01b03908116911614801561176857506000858152601e60209081526040808320548352601d9091529020600601546242757960e81b145b156117965750506000838152601e60209081526040808320548352601d909152902060038101546004909101545b6000858152601e60209081526040808320548352601d9091529020600201547f00000000000000000000000000000000000000000000000000000000000000006001600160a01b03908116911614801561181457506000858152601e60209081526040808320548352601d9091529020600601546314d95b1b60e21b145b156118435750506000838152601e60209081526040808320548352601d90915290206003810154600490910154905b9092509050915091565b60008061185a3385611b52565b90508083106118745761186f338560006122e0565b611881565b61188133858584036122e0565b5060019392505050565b6000610a963384846126c3565b6000610da7612dad565b600754610100900460ff1690565b6118b8612840565b610f646000612a6c565b7f000000000000000000000000000000000000000000000000000000000000000090565b6118f48442111560d1611d9e565b6001600160a01b038716600090815260066020908152604080832054905190929161194b917f0000000000000000000000000000000000000000000000000000000000000000918c918c918c9188918d9101614c79565b604051602081830303815290604052805190602001209050600061196e82612e27565b90506000600182888888604051600081526020016040526040516119959493929190614d09565b6020604051602081039080840390855afa1580156119b7573d6000803e3d6000fd5b5050604051601f19015191506119f990506001600160a01b038216158015906119f157508b6001600160a01b0316826001600160a01b0316145b6101f8611d9e565b6001600160a01b038b166000908152600660205260409020600185019055611a228b8b8b6122e0565b5050505050505050505050565b60608088611a3e6105ad611660565b611a496105d3610ef3565b6060611a53611dac565b9050611a5d61286e565b611a65610d6e565b611b125760006060611a7a8d8d8d868b612e43565b91509150611a93611a89612eed565b83101560cc611d9e565b611aa56000611aa0612eed565b612ef4565b611ab88b611ab1612eed565b8403612ef4565b611ac28184612d4c565b808a5167ffffffffffffffff81118015611adb57600080fd5b50604051908082528060200260200182016040528015611b05578160200160208202803683370190505b50955095505050506112ba565b611b1c8882612ce1565b60006060611b448d8d8d8d8d611b306118a2565b611b3a578d611b3d565b60005b898e612ad0565b91509150611ab88b83612ef4565b6000611b5c611660565b6001600160a01b0316826001600160a01b03161415611b7e5750600019610a9a565b611b888383612efe565b9050610a9a565b60408051600280825260608083018452926020830190803683370190505090507f000000000000000000000000000000000000000000000000000000000000000081600081518110611bdd57fe5b60200260200101906001600160a01b031690816001600160a01b0316815250507f000000000000000000000000000000000000000000000000000000000000000081600181518110611c2b57fe5b6001600160a01b03929092166020928302919091019091015260408051600180825281830190925260609181602001602082028036833701905050905060095481600081518110611c7857fe5b602002602001018181525050611c8c61431b565b50604080516080810182528381526020808201849052825190810183526000808252928201526060810191909152611cc2611660565b6001600160a01b0316638bdb3913611cd8610ef3565b600a546040516001600160e01b031960e085901b168152611d0c929130916001600160a01b03909116908790600401614c1e565b600060405180830381600087803b158015611d2657600080fd5b505af1158015611d3a573d6000803e3d6000fd5b50505050505050565b80610fe081612f29565b6000611d5a848484612fa2565b506001901b60001901811b1992909216911b1790565b6000611d80838311156001611d9e565b50900390565b6000818310611d955781611d97565b825b9392505050565b81610fe057610fe081612fe9565b604080516002808252606080830184529283929190602083019080368337019050509050670de0b6b3a7640000817f000000000000000000000000000000000000000000000000000000000000000081518110611e0557fe5b602002602001018181525050670de0b6b3a7640000817f000000000000000000000000000000000000000000000000000000000000000081518110611e4657fe5b602002602001018181525050670de0b6b3a7640000817f000000000000000000000000000000000000000000000000000000000000000081518110611e8757fe5b6020908102919091010152905090565b80516000908290611eac57506000905061107e565b50506020015190565b600080828180805b8351811015611f4c576030848281518110611ed457fe5b016020015160f81c10801590611efe57506039848281518110611ef357fe5b016020015160f81c11155b15611f3f578291506030848281518110611f1457fe5b602001015160f81c60f81b60f81c60ff160383600a0201925082821115611f3a57600194505b611f44565b600194505b600101611ebd565b509095945050505050565b6000611d97838361303c565b60008084600001516513585c9ad95d60d21b1480611f895750845164131a5b5a5d60da1b145b80611f9b5750845163053746f760e41b145b611fa457600080fd5b836242757960e81b1480611fbe5750836314d95b1b60e21b145b611fc757600080fd5b60008660c0015142604051602001611fe0929190614a92565b60408051808303601f19018152918152815160209283012060c08a01516000828152600c8552929092206006810180546001600160a01b0319166001600160a01b0390941693909317909255918801516007820155600b54815560608901516004820155600281018790558751600190910155845190915084907f000000000000000000000000000000000000000000000000000000000000000090811061208457fe5b6020026020010151600c600083815260200190815260200160002060080181905550837f0000000000000000000000000000000000000000000000000000000000000000815181106120d257fe5b6020908102919091018101516000838152600c83526040808220600981019390935542600590930192909255600b8054600d8552838320819055600180820183559183527f0175b7a638427703f0dbe7bb9bbf987a2551717b34e79f33b5b1008d1fa01db90185905560c08b0180516001600160a01b039081168452600e80875285852054888652600f88528686205591511683528452918120805492830181558152919091200181905585516513585c9ad95d60d21b14156121e2576000818152600c6020908152604080832065119a5b1b195960d21b6003820155548352601090915290208190556011805460010190556121d881651b585c9ad95d60d21b613072565b9250925050612291565b855164131a5b5a5d60da1b1415612238576000818152600c602090815260408083206327b832b760e11b60038201555483526012825290912082905560148054600101905586015161223390612348565b612288565b855163053746f760e41b1415612288576000818152600c602090815260408083206327b832b760e11b600382015554835260158252909120829055601780546001019055860151612288906124d5565b60008092509250505b94509492505050565b6000611d9783836137e2565b6000828201611d978482101583611d9e565b6000816122ce576122c98484613833565b6122d8565b6122d88484613853565b949350505050565b6001600160a01b0380841660008181526001602090815260408083209487168084529490915290819020849055517f8c5be1e5ebec7d5bd14f71427d1e84f3dd0314c0f7b2291e5b200ac8c7c3b9259061233b908590614c15565b60405180910390a3505050565b6000805b601454811015610b8e576000818152601260209081526040808320548352600c9091529020600201546242757960e81b1480156123a757506000818152601260209081526040808320548352600c9091529020600701548311155b156124135760008181526012602081815260408084208054808652600c8452828620548652601084529185209190915560118054600101905592849052525491506123fa81641b1a5b5a5d60da1b613886565b61240c82641b1a5b5a5d60da1b613072565b50506124cd565b6000818152601260209081526040808320548352600c9091529020600201546314d95b1b60e21b14801561246557506000818152601260209081526040808320548352600c9091529020600701548310155b156124cd5760008181526012602081815260408084208054808652600c8452828620548652601084529185209190915560118054600101905592849052525491506124b881641b1a5b5a5d60da1b613886565b6124ca82641b1a5b5a5d60da1b613072565b50505b60010161234c565b6000805b601754811015610b8e576000818152601560209081526040808320548352600c9091529020600201546242757960e81b14801561253457506000818152601560209081526040808320548352600c9091529020600701548310155b1561259e5760008181526015602081815260408084208054808652600c8452828620548652601084529185209190915560118054600101905592849052525491506125868163073746f760e41b613886565b6125978263073746f760e41b613072565b5050612656565b6000818152601560209081526040808320548352600c9091529020600201546314d95b1b60e21b1480156125f057506000818152601560209081526040808320548352600c9091529020600701548311155b156126565760008181526015602081815260408084208054808652600c8452828620548652601084529185209190915560118054600101905592849052525491506126428163073746f760e41b613886565b6126538263073746f760e41b613072565b50505b6001016124d9565b600061266861269f565b421180610da757505060075460ff161590565b7f000000000000000000000000000000000000000000000000000000000000000090565b7f000000000000000000000000000000000000000000000000000000000000000090565b6126da6001600160a01b0384161515610198611d9e565b6126f16001600160a01b0383161515610199611d9e565b6126fc838383610b8e565b6001600160a01b03831660009081526020819052604090205461272290826101a06139d5565b6001600160a01b03808516600090815260208190526040808220939093559084168152205461275190826122a6565b6001600160a01b0380841660008181526020819052604090819020939093559151908516907fddf252ad1be2c89b69c2b068fc378daa952ba7f163c4a11628f55a4df523b3ef9061233b908590614c15565b60007f00000000000000000000000000000000000000000000000000000000000000007f00000000000000000000000000000000000000000000000000000000000000007f00000000000000000000000000000000000000000000000000000000000000006128106139eb565b30604051602001612825959493929190614cad565b60405160208183030381529060405280519060200120905090565b60006128576000356001600160e01b0319166115c4565b9050610ef061286682336139ef565b610191611d9e565b610f6461287961265e565b610192611d9e565b61289661288c613ad8565b82101560cb611d9e565b6128ab6128a1613ae1565b82111560ca611d9e565b6008546128bc908260c06040611d4d565b6008556040517fa9ba3ffe0b6c366b81232caab38605a0699ad5398d6cce76f91ee809e322dafc906128ef908390614c15565b60405180910390a150565b801561291a5761291561290b61267b565b4210610193611d9e565b61292f565b61292f61292561269f565b42106101a9611d9e565b6007805460ff19168215151790556040517f9e3a5e37224532dea67b89face185703738a228a6e8a23dee546960180d3be64906128ef908390614bf2565b6000612977610ef3565b90506000612983611660565b6001600160a01b031663b05f8e4883866040518363ffffffff1660e01b81526004016129b0929190614cf2565b60806040518083038186803b1580156129c857600080fd5b505afa1580156129dc573d6000803e3d6000fd5b505050506040513d601f19601f82011682018060405250810190612a0091906148db565b604051630639cdb560e21b81529094506001600160a01b03851693506318e736d49250612a34915085908790600401614cd9565b600060405180830381600087803b158015612a4e57600080fd5b505af1158015612a62573d6000803e3d6000fd5b5050505050505050565b6007805461ff001916610100831515021790556040517feff3d4d215b42bf0960be9c6d5e05c22cba4df6627a3a523e2acee733b5854c8906128ef908390614bf2565b6001901b6000190191901c1690565b600290565b610fe08183146067611d9e565b60006060612adf610136612fe9565b9850989650505050505050565b60005b612af7612abe565b811015610b8e57612b2e838281518110612b0d57fe5b6020026020010151838381518110612b2157fe5b60200260200101516137e2565b838281518110612b3a57fe5b6020908102919091010152600101612aef565b333014612c0b576000306001600160a01b0316600036604051612b71929190614ada565b6000604051808303816000865af19150503d8060008114612bae576040519150601f19603f3d011682016040523d82523d6000602084013e612bb3565b606091505b505090508060008114612bc257fe5b60046000803e6000516001600160e01b0319166343adbafb60e01b8114612bed573d6000803e3d6000fd5b506020600460003e604060205260243d03602460403e601c3d016000f35b6060612c15611dac565b9050612c218782612ce1565b60006060612c398c8c8c8c8c8c898d8d63ffffffff16565b91509150612c4b81848663ffffffff16565b8051601f1982018390526343adbafb603f1983015260200260231982016044820181fd5b6000808251118015610a9a575060ff801682806020019051810190612c94919061491b565b60ff161492915050565b600754610f6490610100900460ff166101b6611d9e565b600060606000612cc484613aed565b90506060612cd3878784613b03565b919791965090945050505050565b60005b612cec612abe565b811015610b8e57612d23838281518110612d0257fe5b6020026020010151838381518110612d1657fe5b602002602001015161303c565b838281518110612d2f57fe5b6020908102919091010152600101612ce4565b610fe08282613bb2565b60005b612d57612abe565b811015610b8e57612d8e838281518110612d6d57fe5b6020026020010151838381518110612d8157fe5b6020026020010151613c6e565b838281518110612d9a57fe5b6020908102919091010152600101612d4f565b6000612db7611660565b6001600160a01b031663aaabadc56040518163ffffffff1660e01b815260040160206040518083038186803b158015612def57600080fd5b505afa158015612e03573d6000803e3d6000fd5b505050506040513d601f19601f82011682018060405250810190610da79190614752565b6000612e316127a3565b826040516020016115f9929190614aea565b60006060612e4f61286e565b600a54612e6c906001600160a01b038881169116146101aa611d9e565b612e836001600160a01b03861630146101aa611d9e565b6040805160028082526060808301845292602083019080368337019050509050600954817f000000000000000000000000000000000000000000000000000000000000000081518110612ed257fe5b60209081029190910101526009549890975095505050505050565b620f424090565b610fe08282613cbc565b6001600160a01b03918216600090815260016020908152604080832093909416825291909152205490565b600281511015612f3857610ef0565b600081600081518110612f4757fe5b602002602001015190506000600190505b8251811015610b8e576000838281518110612f6f57fe5b60200260200101519050612f98816001600160a01b0316846001600160a01b0316106065611d9e565b9150600101612f58565b612fb161010083106064611d9e565b612fda60018210158015612fd35750612fcf60ff8461010003611d86565b8211155b6064611d9e565b610b8e83821c156101b4611d9e565b62461bcd60e51b6000908152602060045260076024526642414c23000030600a808404818106603090810160081b95839006959095019082900491820690940160101b939093010160c81b604452606490fd5b600082820261306084158061305957508385838161305657fe5b04145b6003611d9e565b670de0b6b3a764000090049392505050565b60008060005b6011548110156132ff5760008181526010602052604090205485148015906130da57506000858152600c602081815260408084206006908101548686526010845282862054865293909252909220909101546001600160a01b03908116911614155b801561310d57506000818152601060209081526040808320548352600c90915290206003015465119a5b1b195960d21b14155b156132f7576000818152601060209081526040808320548352600c9091529020600201546242757960e81b14801561315c57506000858152600c60205260409020600201546314d95b1b60e21b145b15613207576000858152600c6020818152604080842060079081015486865260108452828620548652939092529092209091015410613202576019546000828152601060209081526040808320548352600c9091529020600701541115613202576000818152601060209081526040808320548352600c909152902060070154601955600b8054829081106131ed57fe5b600091825260209091200154601855601c8190555b6132f7565b6000818152601060209081526040808320548352600c9091529020600201546314d95b1b60e21b14801561325157506000858152600c60205260409020600201546242757960e81b145b156132f7576000858152600c60208181526040808420600790810154868652601084528286205486529390925290922090910154116132f757601b546000828152601060209081526040808320548352600c90915290206007015411156132f7576000818152601060209081526040808320548352600c909152902060070154601b55600b8054829081106132e257fe5b600091825260209091200154601a55601c8190555b600101613078565b506000848152600c60205260409020600201546314d95b1b60e21b14156135945760185415613589576000848152600c6020526040808220600490810154601854845291909220909101541061342a576000848152600c60205260408082206004808201805460188054875285872090930180549190910390558054908590558154855283852065119a5b1b195960d21b60039182018190559084015560068084015492548087529486200154948990526007830154600284015460019094015491956133e3958b956001600160a01b039586169591949190921692918891613d4a565b6133f8601c54651b585c9ad95d60d21b613886565b83651b585c9ad95d60d21b1415613424576000858152600c6020526040902060070154925090506137db565b506134fd565b601880546000908152600c602052604080822060049081015488845282842080830180549290920390915584548452828420909101805490849055845484528284206b14185c9d1b1e519a5b1b195960a21b60039182018190559083015560068083015495548086529385200154938990526007820154600283015460019093015491956134cf958b956001600160a01b039283169590949190921692918891613d4a565b83651b585c9ad95d60d21b14156134fb576000858152600c6020526040902060070154925090506137db565b505b6000848152600c6020526040902060098101546004909101546135209190611d70565b6000858152600c602052604090206009810191909155600881015460079091015461354b91906122a6565b6000858152600c6020526040902060088101919091556007015461356e90612348565b6000848152600c6020526040902060070154613589906124d5565b5060009050806137db565b6000848152600c60205260409020600201546242757960e81b14156137db57601a5415613589576000848152600c6020526040808220600490810154601a5484529190922090910154106136bd576000848152600c602052604080822060048082018054601a8054875285872090930180549190910390558054908590558154855283852065119a5b1b195960d21b60039182018190559084015590548085529284206006908101549489905282015460078301546002840154600190940154929561367695946001600160a01b03918216948c949092169291889190613d4a565b61368b601c54651b585c9ad95d60d21b613886565b83651b585c9ad95d60d21b14156136b7576000858152600c6020526040902060070154925090506137db565b5061378d565b601a80546000908152600c602052604080822060049081015488845282842080830180549290920390915584548452828420909101805490849055845484528284206b14185c9d1b1e519a5b1b195960a21b6003918201819055908301559354808452918320600690810154938990528101546007820154600283015460019093015461375f956001600160a01b03908116948c949091169291889190613d4a565b83651b585c9ad95d60d21b141561378b576000858152600c6020526040902060070154925090506137db565b505b6000848152600c6020526040902060098101546004909101546137b091906122a6565b6000858152600c602052604090206009810191909155600881015460079091015461354b9190611d70565b9250929050565b60006137f18215156004611d9e565b826137fe57506000610a9a565b670de0b6b3a7640000838102906138219085838161381857fe5b04146005611d9e565b82818161382a57fe5b04915050610a9a565b60006138428215156004611d9e565b81838161384b57fe5b049392505050565b60006138628215156004611d9e565b8261386f57506000610a9a565b81600184038161387b57fe5b046001019050610a9a565b80651b585c9ad95d60d21b14156138f757815b6011548110156138e7576001601154038114156138c4576000838152601060205260408120556138df565b60018301600090815260106020526040808220548583529120555b600101613899565b5060118054600019019055610fe0565b80641b1a5b5a5d60da1b141561396757815b601454811015613957576001601454038114156139345760008381526012602052604081205561394f565b60018301600090815260126020526040808220548583529120555b600101613909565b5060148054600019019055610fe0565b8063073746f760e41b1415610fe057815b6017548110156139c6576001601754038114156139a3576000838152601560205260408120556139be565b60018301600090815260156020526040808220548583529120555b600101613978565b50601780546000190190555050565b60006139e48484111583611d9e565b5050900390565b4690565b600073ba1ba1ba1ba1ba1ba1ba1ba1ba1ba1ba1ba1ba1b613a0e61163c565b6001600160a01b031614158015613a295750613a29836142aa565b15613a5157613a3661163c565b6001600160a01b0316336001600160a01b0316149050610a9a565b613a59612dad565b6001600160a01b0316639be2a8848484306040518463ffffffff1660e01b8152600401613a8893929190614c5a565b60206040518083038186803b158015613aa057600080fd5b505afa158015613ab4573d6000803e3d6000fd5b505050506040513d601f19601f82011682018060405250810190611b8891906145eb565b64e8d4a5100090565b67016345785d8a000090565b600081806020019051810190611d979190614937565b60606000613b1183856137e2565b9050845167ffffffffffffffff81118015613b2b57600080fd5b50604051908082528060200260200182016040528015613b55578160200160208202803683370190505b50915060005b8551811015613ba957613b8a82878381518110613b7457fe5b602002602001015161303c90919063ffffffff16565b838281518110613b9657fe5b6020908102919091010152600101613b5b565b50509392505050565b613bc96001600160a01b038316151561019b611d9e565b613bd582600083610b8e565b6001600160a01b038216600090815260208190526040902054613bfb90826101b26139d5565b6001600160a01b038316600090815260208190526040902055600254613c2190826142dc565b6002556040516000906001600160a01b038416907fddf252ad1be2c89b69c2b068fc378daa952ba7f163c4a11628f55a4df523b3ef90613c62908590614c15565b60405180910390a35050565b6000613c7d8215156004611d9e565b82613c8a57506000610a9a565b670de0b6b3a764000083810290613ca49085838161381857fe5b826001820381613cb057fe5b04600101915050610a9a565b613cc860008383610b8e565b600254613cd590826122a6565b6002556001600160a01b038216600090815260208190526040902054613cfb90826122a6565b6001600160a01b0383166000818152602081905260408082209390935591519091907fddf252ad1be2c89b69c2b068fc378daa952ba7f163c4a11628f55a4df523b3ef90613c62908590614c15565b6000826242757960e81b1415613d7257506000888152600c6020526040902060070154613d95565b826314d95b1b60e21b1415613d9557506000868152600c60205260409020600701545b60008988604051602001613daa929190614ab4565b60405160208183030381529060405280519060200120905080601e60008c81526020019081526020016000208190555080601e60008a8152602001908152602001600020819055506040518061014001604052808a6001600160a01b03168152602001886001600160a01b031681526020017f00000000000000000000000000000000000000000000000000000000000000006001600160a01b031681526020018781526020018381526020017f00000000000000000000000000000000000000000000000000000000000000006001600160a01b0316815260200185815260200184815260200186815260200142815250601d600083815260200190815260200160002060008201518160000160006101000a8154816001600160a01b0302191690836001600160a01b0316021790555060208201518160010160006101000a8154816001600160a01b0302191690836001600160a01b0316021790555060408201518160020160006101000a8154816001600160a01b0302191690836001600160a01b03160217905550606082015181600301556080820151816004015560a08201518160050160006101000a8154816001600160a01b0302191690836001600160a01b0316021790555060c0820151816006015560e082015181600701556101008201518160080155610120820151816009015590505060004290507f00000000000000000000000000000000000000000000000000000000000000006001600160a01b03167f156bf7973c4610a54da63e11aee83150e3c726c558bb3a700c5a07f8c89f82268b8a8a877f00000000000000000000000000000000000000000000000000000000000000008c8860405161402e9796959493929190614b19565b60405180910390a2600a5460405162157d5560e61b81526000916001600160a01b03169063055f554090614066908c90600401614b05565b60206040518083038186803b15801561407e57600080fd5b505afa158015614092573d6000803e3d6000fd5b505050506040513d601f19601f820116820180604052508101906140b69190614623565b600a5460405162157d5560e61b81529192506000916001600160a01b039091169063055f5540906140eb908f90600401614b05565b60206040518083038186803b15801561410357600080fd5b505afa158015614117573d6000803e3d6000fd5b505050506040513d601f19601f8201168201806040525081019061413b9190614623565b9050614145614345565b604051806101c001604052808e6001600160a01b031681526020018c6001600160a01b031681526020017f00000000000000000000000000000000000000000000000000000000000000006001600160a01b031681526020016650656e64696e6760c81b81526020018381526020018481526020017f00000000000000000000000000000000000000000000000000000000000000006001600160a01b031681526020018b81526020018a81526020016141ff8c8c6142ea565b8152602001858152602001306001600160a01b031681526020018f81526020018d8152509050600a60009054906101000a90046001600160a01b03166001600160a01b0316631459945d82876040518363ffffffff1660e01b8152600401614268929190614d3a565b600060405180830381600087803b15801561428257600080fd5b505af1158015614296573d6000803e3d6000fd5b505050505050505050505050505050505050565b60006142bc631c74c91760e11b6115c4565b821480610a9a57506142d46350dd6ed960e01b6115c4565b909114919050565b6000611d97838360016139d5565b6000828202611d9784158061305957508385838161305657fe5b604080518082019091526000808252602082015290565b60405180608001604052806060815260200160608152602001606081526020016000151581525090565b604080516101c081018252600080825260208201819052918101829052606081018290526080810182905260a0810182905260c0810182905260e08101829052610100810182905261012081018290526101408101829052610160810182905261018081018290526101a081019190915290565b8035610a9a81614e54565b600082601f8301126143d4578081fd5b813567ffffffffffffffff8111156143ea578182fd5b60208082026143fa828201614e2d565b8381529350818401858301828701840188101561441657600080fd5b600092505b8483101561443957803582526001929092019190830190830161441b565b505050505092915050565b600082601f830112614454578081fd5b813567ffffffffffffffff81111561446a578182fd5b61447d601f8201601f1916602001614e2d565b915080825283602082850101111561449457600080fd5b8060208401602084013760009082016020015292915050565b803560028110610a9a57600080fd5b6000602082840312156144cd578081fd5b8135611d9781614e54565b600080604083850312156144ea578081fd5b82356144f581614e54565b9150602083013561450581614e54565b809150509250929050565b600080600060608486031215614524578081fd5b833561452f81614e54565b9250602084013561453f81614e54565b929592945050506040919091013590565b600080600080600080600060e0888a03121561456a578283fd5b873561457581614e54565b9650602088013561458581614e54565b9550604088013594506060880135935060808801356145a381614e69565b9699959850939692959460a0840135945060c09093013592915050565b600080604083850312156145d2578182fd5b82356145dd81614e54565b946020939093013593505050565b6000602082840312156145fc578081fd5b81518015158114611d97578182fd5b60006020828403121561461c578081fd5b5035919050565b600060208284031215614634578081fd5b5051919050565b600080600080600080600060e0888a031215614655578081fd5b87359650602088013561466781614e54565b9550604088013561467781614e54565b9450606088013567ffffffffffffffff80821115614693578283fd5b61469f8b838c016143c4565b955060808a0135945060a08a0135935060c08a01359150808211156146c2578283fd5b506146cf8a828b01614444565b91505092959891949750929550565b600080604083850312156146f0578182fd5b50508035926020909101359150565b600080600060608486031215614713578081fd5b505081359360208301359350604090920135919050565b60006020828403121561473b578081fd5b81356001600160e01b031981168114611d97578182fd5b600060208284031215614763578081fd5b8151611d9781614e54565b60008060408385031215614780578182fd5b823561478b81614e54565b9150602083013567ffffffffffffffff8111156147a6578182fd5b6147b285828601614444565b9150509250929050565b600080600080608085870312156147d1578182fd5b843567ffffffffffffffff808211156147e8578384fd5b818701915061012080838a0312156147fe578485fd5b61480781614e2d565b905061481389846144ad565b815261482289602085016143b9565b602082015261483489604085016143b9565b6040820152606083013560608201526080830135608082015260a083013560a08201526148648960c085016143b9565b60c08201526148768960e085016143b9565b60e0820152610100808401358381111561488e578687fd5b61489a8b828701614444565b8284015250508096505060208701359150808211156148b7578384fd5b506148c4878288016143c4565b949794965050505060408301359260600135919050565b600080600080608085870312156148f0578182fd5b845193506020850151925060408501519150606085015161491081614e54565b939692955090935050565b60006020828403121561492c578081fd5b8151611d9781614e69565b60008060408385031215614949578182fd5b825161495481614e69565b6020939093015192949293505050565b6001600160a01b03169052565b6000815180845260208085019450808401835b838110156149a057815187529582019590820190600101614984565b509495945050505050565b15159052565b60008151808452815b818110156149d6576020818501810151868301820152016149ba565b818111156149e75782602083870101525b50601f01601f19169290920160200192915050565b8051608080845281519084018190526000916020919082019060a0860190845b81811015614a415783516001600160a01b031683529284019291840191600101614a1c565b505082850151915085810383870152614a5a8183614971565b9250505060408301518482036040860152614a7582826149b1565b9150506060830151614a8a60608601826149ab565b509392505050565b60609290921b6bffffffffffffffffffffffff19168252601482015260340190565b918252602082015260400190565b9182526001600160e01b031916602082015260240190565b6000828483379101908152919050565b61190160f01b81526002810192909252602282015260420190565b6001600160a01b0391909116815260200190565b6001600160a01b039788168152958716602087015260408601949094526060850192909252909316608083015260a08201929092526650656e64696e6760c81b60c082015260e08101919091526101000190565b6020808252825182820181905260009190848201906040850190845b81811015614ba557835183529284019291840191600101614b89565b50909695505050505050565b600060208252611d976020830184614971565b600060408252614bd76040830185614971565b8281036020840152614be98185614971565b95945050505050565b901515815260200190565b92151583526020830191909152604082015260600190565b90815260200190565b8481526001600160a01b03848116602083015283166040820152608060608201819052600090614c50908301846149fc565b9695505050505050565b9283526001600160a01b03918216602084015216604082015260600190565b9586526001600160a01b0394851660208701529290931660408501526060840152608083019190915260a082015260c00190565b9485526020850193909352604084019190915260608301526001600160a01b0316608082015260a00190565b6000838252604060208301526122d860408301846149b1565b9182526001600160a01b0316602082015260400190565b93845260ff9290921660208401526040830152606082015260800190565b600060208252611d9760208301846149b1565b60006101e082019050614d4e828551614964565b6020840151614d606020840182614964565b506040840151614d736040840182614964565b50606084015160608301526080840151608083015260a084015160a083015260c0840151614da460c0840182614964565b5060e0848101519083015261010080850151908301526101208085015190830152610140808501519083015261016080850151614de382850182614964565b505061018084810151908301526101a093840151938201939093526101c0015290565b6000838252604060208301526122d86040830184614971565b60ff91909116815260200190565b60405181810167ffffffffffffffff81118282101715614e4c57600080fd5b604052919050565b6001600160a01b0381168114610ef057600080fd5b60ff81168114610ef057600080fdfea2646970667358221220b7e67d2a6b35f794b46d114fb557d1cca26558b35293396325fe5ac4b8bab28264736f6c63430007010033",
  "linkReferences": {},
  "deployedLinkReferences": {}
}