{
  "_format": "hh-sol-artifact-1",
  "contractName": "SecondaryIssuePool",
  "sourceName": "contracts/SecondaryIssuePool.sol",
  "abi": [
    {
      "inputs": [
        {
          "internalType": "contract IVault",
          "name": "vault",
          "type": "address"
        },
        {
          "internalType": "string",
          "name": "name",
          "type": "string"
        },
        {
          "internalType": "string",
          "name": "symbol",
          "type": "string"
        },
        {
          "internalType": "address",
          "name": "security",
          "type": "address"
        },
        {
          "internalType": "address",
          "name": "currency",
          "type": "address"
        },
        {
          "internalType": "uint256",
          "name": "maxSecurityOffered",
          "type": "uint256"
        },
        {
          "internalType": "uint256",
          "name": "tradeFeePercentage",
          "type": "uint256"
        },
        {
          "internalType": "uint256",
          "name": "pauseWindowDuration",
          "type": "uint256"
        },
        {
          "internalType": "uint256",
          "name": "bufferPeriodDuration",
          "type": "uint256"
        },
        {
          "internalType": "address",
          "name": "owner",
          "type": "address"
        }
      ],
      "stateMutability": "nonpayable",
      "type": "constructor"
    },
    {
      "anonymous": false,
      "inputs": [
        {
          "indexed": true,
          "internalType": "address",
          "name": "owner",
          "type": "address"
        },
        {
          "indexed": true,
          "internalType": "address",
          "name": "spender",
          "type": "address"
        },
        {
          "indexed": false,
          "internalType": "uint256",
          "name": "value",
          "type": "uint256"
        }
      ],
      "name": "Approval",
      "type": "event"
    },
    {
      "anonymous": false,
      "inputs": [
        {
          "indexed": false,
          "internalType": "bool",
          "name": "paused",
          "type": "bool"
        }
      ],
      "name": "PausedStateChanged",
      "type": "event"
    },
    {
      "anonymous": false,
      "inputs": [
        {
          "indexed": false,
          "internalType": "bool",
          "name": "enabled",
          "type": "bool"
        }
      ],
      "name": "RecoveryModeStateChanged",
      "type": "event"
    },
    {
      "anonymous": false,
      "inputs": [
        {
          "indexed": false,
          "internalType": "uint256",
          "name": "swapFeePercentage",
          "type": "uint256"
        }
      ],
      "name": "SwapFeePercentageChanged",
      "type": "event"
    },
    {
      "anonymous": false,
      "inputs": [
        {
          "indexed": true,
          "internalType": "address",
          "name": "from",
          "type": "address"
        },
        {
          "indexed": true,
          "internalType": "address",
          "name": "to",
          "type": "address"
        },
        {
          "indexed": false,
          "internalType": "uint256",
          "name": "value",
          "type": "uint256"
        }
      ],
      "name": "Transfer",
      "type": "event"
    },
    {
      "anonymous": false,
      "inputs": [
        {
          "indexed": false,
          "internalType": "address",
          "name": "party",
          "type": "address"
        },
        {
          "indexed": false,
          "internalType": "address",
          "name": "counterparty",
          "type": "address"
        },
        {
          "indexed": false,
          "internalType": "address",
          "name": "security",
          "type": "address"
        },
        {
          "indexed": false,
          "internalType": "uint256",
          "name": "price",
          "type": "uint256"
        },
        {
          "indexed": false,
          "internalType": "uint256",
          "name": "askprice",
          "type": "uint256"
        },
        {
          "indexed": false,
          "internalType": "address",
          "name": "currency",
          "type": "address"
        },
        {
          "indexed": false,
          "internalType": "uint256",
          "name": "amount",
          "type": "uint256"
        },
        {
          "indexed": false,
          "internalType": "bytes32",
          "name": "status",
          "type": "bytes32"
        },
        {
          "indexed": false,
          "internalType": "uint256",
          "name": "executionDate",
          "type": "uint256"
        }
      ],
      "name": "tradeReport",
      "type": "event"
    },
    {
      "inputs": [],
      "name": "DOMAIN_SEPARATOR",
      "outputs": [
        {
          "internalType": "bytes32",
          "name": "",
          "type": "bytes32"
        }
      ],
      "stateMutability": "view",
      "type": "function"
    },
    {
      "inputs": [
        {
          "internalType": "address",
          "name": "owner",
          "type": "address"
        },
        {
          "internalType": "address",
          "name": "spender",
          "type": "address"
        }
      ],
      "name": "allowance",
      "outputs": [
        {
          "internalType": "uint256",
          "name": "",
          "type": "uint256"
        }
      ],
      "stateMutability": "view",
      "type": "function"
    },
    {
      "inputs": [
        {
          "internalType": "address",
          "name": "spender",
          "type": "address"
        },
        {
          "internalType": "uint256",
          "name": "amount",
          "type": "uint256"
        }
      ],
      "name": "approve",
      "outputs": [
        {
          "internalType": "bool",
          "name": "",
          "type": "bool"
        }
      ],
      "stateMutability": "nonpayable",
      "type": "function"
    },
    {
      "inputs": [
        {
          "internalType": "address",
          "name": "account",
          "type": "address"
        }
      ],
      "name": "balanceOf",
      "outputs": [
        {
          "internalType": "uint256",
          "name": "",
          "type": "uint256"
        }
      ],
      "stateMutability": "view",
      "type": "function"
    },
    {
      "inputs": [
        {
          "internalType": "bytes32",
          "name": "ref",
          "type": "bytes32"
        }
      ],
      "name": "cancelOrder",
      "outputs": [],
      "stateMutability": "nonpayable",
      "type": "function"
    },
    {
      "inputs": [],
      "name": "decimals",
      "outputs": [
        {
          "internalType": "uint8",
          "name": "",
          "type": "uint8"
        }
      ],
      "stateMutability": "view",
      "type": "function"
    },
    {
      "inputs": [
        {
          "internalType": "address",
          "name": "spender",
          "type": "address"
        },
        {
          "internalType": "uint256",
          "name": "amount",
          "type": "uint256"
        }
      ],
      "name": "decreaseAllowance",
      "outputs": [
        {
          "internalType": "bool",
          "name": "",
          "type": "bool"
        }
      ],
      "stateMutability": "nonpayable",
      "type": "function"
    },
    {
      "inputs": [],
      "name": "disableRecoveryMode",
      "outputs": [],
      "stateMutability": "nonpayable",
      "type": "function"
    },
    {
      "inputs": [
        {
          "internalType": "bytes32",
          "name": "ref",
          "type": "bytes32"
        },
        {
          "internalType": "uint256",
          "name": "_price",
          "type": "uint256"
        },
        {
          "internalType": "uint256",
          "name": "_qty",
          "type": "uint256"
        }
      ],
      "name": "editOrder",
      "outputs": [],
      "stateMutability": "nonpayable",
      "type": "function"
    },
    {
      "inputs": [],
      "name": "enableRecoveryMode",
      "outputs": [],
      "stateMutability": "nonpayable",
      "type": "function"
    },
    {
      "inputs": [],
      "name": "exit",
      "outputs": [],
      "stateMutability": "nonpayable",
      "type": "function"
    },
    {
      "inputs": [
        {
          "internalType": "bytes4",
          "name": "selector",
          "type": "bytes4"
        }
      ],
      "name": "getActionId",
      "outputs": [
        {
          "internalType": "bytes32",
          "name": "",
          "type": "bytes32"
        }
      ],
      "stateMutability": "view",
      "type": "function"
    },
    {
      "inputs": [],
      "name": "getAuthorizer",
      "outputs": [
        {
          "internalType": "contract IAuthorizer",
          "name": "",
          "type": "address"
        }
      ],
      "stateMutability": "view",
      "type": "function"
    },
    {
      "inputs": [],
      "name": "getCurrency",
      "outputs": [
        {
          "internalType": "address",
          "name": "",
          "type": "address"
        }
      ],
      "stateMutability": "view",
      "type": "function"
    },
    {
      "inputs": [],
      "name": "getOrderRef",
      "outputs": [
        {
          "internalType": "bytes32[]",
          "name": "",
          "type": "bytes32[]"
        }
      ],
      "stateMutability": "view",
      "type": "function"
    },
    {
      "inputs": [],
      "name": "getOwner",
      "outputs": [
        {
          "internalType": "address",
          "name": "",
          "type": "address"
        }
      ],
      "stateMutability": "view",
      "type": "function"
    },
    {
      "inputs": [],
      "name": "getPausedState",
      "outputs": [
        {
          "internalType": "bool",
          "name": "paused",
          "type": "bool"
        },
        {
          "internalType": "uint256",
          "name": "pauseWindowEndTime",
          "type": "uint256"
        },
        {
          "internalType": "uint256",
          "name": "bufferPeriodEndTime",
          "type": "uint256"
        }
      ],
      "stateMutability": "view",
      "type": "function"
    },
    {
      "inputs": [],
      "name": "getPoolId",
      "outputs": [
        {
          "internalType": "bytes32",
          "name": "",
          "type": "bytes32"
        }
      ],
      "stateMutability": "view",
      "type": "function"
    },
    {
      "inputs": [],
      "name": "getProtocolFeesCollector",
      "outputs": [
        {
          "internalType": "contract IProtocolFeesCollector",
          "name": "",
          "type": "address"
        }
      ],
      "stateMutability": "view",
      "type": "function"
    },
    {
      "inputs": [],
      "name": "getScalingFactors",
      "outputs": [
        {
          "internalType": "uint256[]",
          "name": "",
          "type": "uint256[]"
        }
      ],
      "stateMutability": "view",
      "type": "function"
    },
    {
      "inputs": [],
      "name": "getSecurity",
      "outputs": [
        {
          "internalType": "address",
          "name": "",
          "type": "address"
        }
      ],
      "stateMutability": "view",
      "type": "function"
    },
    {
      "inputs": [],
      "name": "getSwapFeePercentage",
      "outputs": [
        {
          "internalType": "uint256",
          "name": "",
          "type": "uint256"
        }
      ],
      "stateMutability": "view",
      "type": "function"
    },
    {
      "inputs": [
        {
          "internalType": "bytes32",
          "name": "ref",
          "type": "bytes32"
        }
      ],
      "name": "getTrade",
      "outputs": [
        {
          "internalType": "uint256",
          "name": "b",
          "type": "uint256"
        },
        {
          "internalType": "uint256",
          "name": "a",
          "type": "uint256"
        }
      ],
      "stateMutability": "view",
      "type": "function"
    },
    {
      "inputs": [],
      "name": "getVault",
      "outputs": [
        {
          "internalType": "contract IVault",
          "name": "",
          "type": "address"
        }
      ],
      "stateMutability": "view",
      "type": "function"
    },
    {
      "inputs": [],
      "name": "inRecoveryMode",
      "outputs": [
        {
          "internalType": "bool",
          "name": "",
          "type": "bool"
        }
      ],
      "stateMutability": "view",
      "type": "function"
    },
    {
      "inputs": [
        {
          "internalType": "address",
          "name": "spender",
          "type": "address"
        },
        {
          "internalType": "uint256",
          "name": "addedValue",
          "type": "uint256"
        }
      ],
      "name": "increaseAllowance",
      "outputs": [
        {
          "internalType": "bool",
          "name": "",
          "type": "bool"
        }
      ],
      "stateMutability": "nonpayable",
      "type": "function"
    },
    {
      "inputs": [],
      "name": "initialize",
      "outputs": [],
      "stateMutability": "nonpayable",
      "type": "function"
    },
    {
      "inputs": [],
      "name": "name",
      "outputs": [
        {
          "internalType": "string",
          "name": "",
          "type": "string"
        }
      ],
      "stateMutability": "view",
      "type": "function"
    },
    {
      "inputs": [
        {
          "internalType": "address",
          "name": "owner",
          "type": "address"
        }
      ],
      "name": "nonces",
      "outputs": [
        {
          "internalType": "uint256",
          "name": "",
          "type": "uint256"
        }
      ],
      "stateMutability": "view",
      "type": "function"
    },
    {
      "inputs": [
        {
          "internalType": "bytes32",
          "name": "poolId",
          "type": "bytes32"
        },
        {
          "internalType": "address",
          "name": "sender",
          "type": "address"
        },
        {
          "internalType": "address",
          "name": "recipient",
          "type": "address"
        },
        {
          "internalType": "uint256[]",
          "name": "balances",
          "type": "uint256[]"
        },
        {
          "internalType": "uint256",
          "name": "lastChangeBlock",
          "type": "uint256"
        },
        {
          "internalType": "uint256",
          "name": "protocolSwapFeePercentage",
          "type": "uint256"
        },
        {
          "internalType": "bytes",
          "name": "userData",
          "type": "bytes"
        }
      ],
      "name": "onExitPool",
      "outputs": [
        {
          "internalType": "uint256[]",
          "name": "",
          "type": "uint256[]"
        },
        {
          "internalType": "uint256[]",
          "name": "",
          "type": "uint256[]"
        }
      ],
      "stateMutability": "nonpayable",
      "type": "function"
    },
    {
      "inputs": [
        {
          "internalType": "bytes32",
          "name": "poolId",
          "type": "bytes32"
        },
        {
          "internalType": "address",
          "name": "sender",
          "type": "address"
        },
        {
          "internalType": "address",
          "name": "recipient",
          "type": "address"
        },
        {
          "internalType": "uint256[]",
          "name": "balances",
          "type": "uint256[]"
        },
        {
          "internalType": "uint256",
          "name": "lastChangeBlock",
          "type": "uint256"
        },
        {
          "internalType": "uint256",
          "name": "protocolSwapFeePercentage",
          "type": "uint256"
        },
        {
          "internalType": "bytes",
          "name": "userData",
          "type": "bytes"
        }
      ],
      "name": "onJoinPool",
      "outputs": [
        {
          "internalType": "uint256[]",
          "name": "",
          "type": "uint256[]"
        },
        {
          "internalType": "uint256[]",
          "name": "",
          "type": "uint256[]"
        }
      ],
      "stateMutability": "nonpayable",
      "type": "function"
    },
    {
      "inputs": [
        {
          "components": [
            {
              "internalType": "enum IVault.SwapKind",
              "name": "kind",
              "type": "uint8"
            },
            {
              "internalType": "contract IERC20",
              "name": "tokenIn",
              "type": "address"
            },
            {
              "internalType": "contract IERC20",
              "name": "tokenOut",
              "type": "address"
            },
            {
              "internalType": "uint256",
              "name": "amount",
              "type": "uint256"
            },
            {
              "internalType": "bytes32",
              "name": "poolId",
              "type": "bytes32"
            },
            {
              "internalType": "uint256",
              "name": "lastChangeBlock",
              "type": "uint256"
            },
            {
              "internalType": "address",
              "name": "from",
              "type": "address"
            },
            {
              "internalType": "address",
              "name": "to",
              "type": "address"
            },
            {
              "internalType": "bytes",
              "name": "userData",
              "type": "bytes"
            }
          ],
          "internalType": "struct IPoolSwapStructs.SwapRequest",
          "name": "request",
          "type": "tuple"
        },
        {
          "internalType": "uint256[]",
          "name": "balances",
          "type": "uint256[]"
        },
        {
          "internalType": "uint256",
          "name": "indexIn",
          "type": "uint256"
        },
        {
          "internalType": "uint256",
          "name": "indexOut",
          "type": "uint256"
        }
      ],
      "name": "onSwap",
      "outputs": [
        {
          "internalType": "uint256",
          "name": "",
          "type": "uint256"
        }
      ],
      "stateMutability": "nonpayable",
      "type": "function"
    },
    {
      "inputs": [
        {
          "internalType": "bytes32",
          "name": "partyRef",
          "type": "bytes32"
        },
        {
          "internalType": "bytes32",
          "name": "counterpartyRef",
          "type": "bytes32"
        }
      ],
      "name": "orderFilled",
      "outputs": [],
      "stateMutability": "nonpayable",
      "type": "function"
    },
    {
      "inputs": [],
      "name": "pause",
      "outputs": [],
      "stateMutability": "nonpayable",
      "type": "function"
    },
    {
      "inputs": [
        {
          "internalType": "address",
          "name": "owner",
          "type": "address"
        },
        {
          "internalType": "address",
          "name": "spender",
          "type": "address"
        },
        {
          "internalType": "uint256",
          "name": "value",
          "type": "uint256"
        },
        {
          "internalType": "uint256",
          "name": "deadline",
          "type": "uint256"
        },
        {
          "internalType": "uint8",
          "name": "v",
          "type": "uint8"
        },
        {
          "internalType": "bytes32",
          "name": "r",
          "type": "bytes32"
        },
        {
          "internalType": "bytes32",
          "name": "s",
          "type": "bytes32"
        }
      ],
      "name": "permit",
      "outputs": [],
      "stateMutability": "nonpayable",
      "type": "function"
    },
    {
      "inputs": [
        {
          "internalType": "bytes32",
          "name": "poolId",
          "type": "bytes32"
        },
        {
          "internalType": "address",
          "name": "sender",
          "type": "address"
        },
        {
          "internalType": "address",
          "name": "recipient",
          "type": "address"
        },
        {
          "internalType": "uint256[]",
          "name": "balances",
          "type": "uint256[]"
        },
        {
          "internalType": "uint256",
          "name": "lastChangeBlock",
          "type": "uint256"
        },
        {
          "internalType": "uint256",
          "name": "protocolSwapFeePercentage",
          "type": "uint256"
        },
        {
          "internalType": "bytes",
          "name": "userData",
          "type": "bytes"
        }
      ],
      "name": "queryExit",
      "outputs": [
        {
          "internalType": "uint256",
          "name": "bptIn",
          "type": "uint256"
        },
        {
          "internalType": "uint256[]",
          "name": "amountsOut",
          "type": "uint256[]"
        }
      ],
      "stateMutability": "view",
      "type": "function"
    },
    {
      "inputs": [
        {
          "internalType": "bytes32",
          "name": "poolId",
          "type": "bytes32"
        },
        {
          "internalType": "address",
          "name": "sender",
          "type": "address"
        },
        {
          "internalType": "address",
          "name": "recipient",
          "type": "address"
        },
        {
          "internalType": "uint256[]",
          "name": "balances",
          "type": "uint256[]"
        },
        {
          "internalType": "uint256",
          "name": "lastChangeBlock",
          "type": "uint256"
        },
        {
          "internalType": "uint256",
          "name": "protocolSwapFeePercentage",
          "type": "uint256"
        },
        {
          "internalType": "bytes",
          "name": "userData",
          "type": "bytes"
        }
      ],
      "name": "queryJoin",
      "outputs": [
        {
          "internalType": "uint256",
          "name": "bptOut",
          "type": "uint256"
        },
        {
          "internalType": "uint256[]",
          "name": "amountsIn",
          "type": "uint256[]"
        }
      ],
      "stateMutability": "view",
      "type": "function"
    },
    {
      "inputs": [
        {
          "internalType": "bytes32",
          "name": "_orderRef",
          "type": "bytes32"
        },
        {
          "internalType": "uint256",
          "name": "_qty",
          "type": "uint256"
        },
        {
          "internalType": "bytes32",
          "name": "_order",
          "type": "bytes32"
        }
      ],
      "name": "revertTrade",
      "outputs": [],
      "stateMutability": "nonpayable",
      "type": "function"
    },
    {
      "inputs": [
        {
          "internalType": "contract IERC20",
          "name": "token",
          "type": "address"
        },
        {
          "internalType": "bytes",
          "name": "poolConfig",
          "type": "bytes"
        }
      ],
      "name": "setAssetManagerPoolConfig",
      "outputs": [],
      "stateMutability": "nonpayable",
      "type": "function"
    },
    {
      "inputs": [
        {
          "internalType": "uint256",
          "name": "swapFeePercentage",
          "type": "uint256"
        }
      ],
      "name": "setSwapFeePercentage",
      "outputs": [],
      "stateMutability": "nonpayable",
      "type": "function"
    },
    {
      "inputs": [],
      "name": "symbol",
      "outputs": [
        {
          "internalType": "string",
          "name": "",
          "type": "string"
        }
      ],
      "stateMutability": "view",
      "type": "function"
    },
    {
      "inputs": [],
      "name": "totalSupply",
      "outputs": [
        {
          "internalType": "uint256",
          "name": "",
          "type": "uint256"
        }
      ],
      "stateMutability": "view",
      "type": "function"
    },
    {
      "inputs": [
        {
          "internalType": "bytes32",
          "name": "tradeRef",
          "type": "bytes32"
        },
        {
          "internalType": "bytes32",
          "name": "partyRef",
          "type": "bytes32"
        },
        {
          "internalType": "bytes32",
          "name": "counterpartyRef",
          "type": "bytes32"
        }
      ],
      "name": "tradeSettled",
      "outputs": [],
      "stateMutability": "nonpayable",
      "type": "function"
    },
    {
      "inputs": [
        {
          "internalType": "address",
          "name": "recipient",
          "type": "address"
        },
        {
          "internalType": "uint256",
          "name": "amount",
          "type": "uint256"
        }
      ],
      "name": "transfer",
      "outputs": [
        {
          "internalType": "bool",
          "name": "",
          "type": "bool"
        }
      ],
      "stateMutability": "nonpayable",
      "type": "function"
    },
    {
      "inputs": [
        {
          "internalType": "address",
          "name": "sender",
          "type": "address"
        },
        {
          "internalType": "address",
          "name": "recipient",
          "type": "address"
        },
        {
          "internalType": "uint256",
          "name": "amount",
          "type": "uint256"
        }
      ],
      "name": "transferFrom",
      "outputs": [
        {
          "internalType": "bool",
          "name": "",
          "type": "bool"
        }
      ],
      "stateMutability": "nonpayable",
      "type": "function"
    },
    {
      "inputs": [],
      "name": "unpause",
      "outputs": [],
      "stateMutability": "nonpayable",
      "type": "function"
    }
  ],
  "bytecode": "0x6102c06040527f6e71edae12b1b97f4d1f60370fef10105fa2faae0126114a169c64845d6126c960e052600a805460ff60a01b1916600160a01b17905560006019819055601b819055601c553480156200005857600080fd5b50604051620064f6380380620064f68339810160408190526200007b9162000adf565b8960008a8a6200008d8b8b3062000458565b6040805160038082526080820190925290602082016060803683370190505089898989828289898d85336001600160a01b031660001b8480604051806040016040528060018152602001603160f81b81525087878160039080519060200190620000f992919062000957565b5080516200010f90600490602084019062000957565b50506005805460ff19166012179055508151602092830120608052805191012060a052507f8b73c3c69bb8fe3d512ecc4cf759cc79239f7b179b0ffacaa9a75d522b39400f60c052610100526001600160601b0319606091821b81166101205291901b1661014052506200018e90506276a70083111561019462000527565b620001a262278d0082111561019562000527565b4290910161016081905201610180528551620001c4906002111560c862000527565b620001de620001d26200053c565b8751111560c962000527565b620001f4866200054160201b62001f481760201c565b620001ff846200054d565b6040516309b2760f60e01b81526000906001600160a01b038c16906309b2760f9062000230908d9060040162000c7d565b602060405180830381600087803b1580156200024b57600080fd5b505af115801562000260573d6000803e3d6000fd5b505050506040513d601f19601f8201168201806040525081019062000286919062000aa7565b604051633354e3e960e11b81529091506001600160a01b038c16906366a9c7d290620002bb9084908b908b9060040162000be1565b600060405180830381600087803b158015620002d657600080fd5b505af1158015620002eb573d6000803e3d6000fd5b50505050806101a081815250508a6001600160a01b031663d2946c2b6040518163ffffffff1660e01b815260040160206040518083038186803b1580156200033257600080fd5b505afa15801562000347573d6000803e3d6000fd5b505050506040513d601f19601f820116820180604052508101906200036d919062000ac0565b6001600160a01b03166101c0816001600160a01b031660601b815250505050505050505050505050866001600160a01b03166101e0816001600160a01b031660601b81525050856001600160a01b0316610200816001600160a01b031660601b815250506000806000620003e98a8a30620005e160201b60201c565b6102608190526102808390526102a0829052919450925090506200040d8a620006d7565b610220526200041c89620006d7565b610240525050506009949094555050600a80546001600160a01b0319166001600160a01b03909316929092179091555062000cbd945050505050565b6060600080806200046b878787620005e1565b6040805160038082526080820190925293965091945092506020820160608036833701905050935086848481518110620004a157fe5b60200260200101906001600160a01b031690816001600160a01b03168152505085848381518110620004cf57fe5b60200260200101906001600160a01b031690816001600160a01b03168152505084848281518110620004fd57fe5b60200260200101906001600160a01b031690816001600160a01b0316815250505050509392505050565b8162000538576200053881620007ab565b5050565b600390565b806200053881620007fe565b620005666200055b6200088b565b82101560cb62000527565b6200057f6200057462000894565b82111560ca62000527565b620005a18160c06040600854620008a060201b62001f5217909392919060201c565b6008556040517fa9ba3ffe0b6c366b81232caab38605a0699ad5398d6cce76f91ee809e322dafc90620005d690839062000c92565b60405180910390a150565b6000806000846001600160a01b0316866001600160a01b031610156200066a57836001600160a01b0316856001600160a01b031610156200062d575060009150600190506002620006ce565b836001600160a01b0316866001600160a01b0316101562000659575060009150600290506001620006ce565b5060019150600290506000620006ce565b846001600160a01b0316846001600160a01b0316101562000696575060029150600190506000620006ce565b856001600160a01b0316846001600160a01b03161015620006c2575060029150600090506001620006ce565b50600191506000905060025b93509350939050565b60006001600160a01b038216301415620006fb5750670de0b6b3a7640000620007a6565b6000826001600160a01b031663313ce5676040518163ffffffff1660e01b815260040160206040518083038186803b1580156200073757600080fd5b505afa1580156200074c573d6000803e3d6000fd5b505050506040513d601f19601f8201168201806040525081019062000772919062000bbe565b60ff169050600062000791601283620008c560201b62001f751760201c565b905080600a0a670de0b6b3a764000002925050505b919050565b62461bcd60e51b6000908152602060045260076024526642414c23000030600a808404818106603090810160081b95839006959095019082900491820690940160101b939093010160c81b604452606490fd5b6002815110156200080f5762000888565b6000816000815181106200081f57fe5b602002602001015190506000600190505b8251811015620008855760008382815181106200084957fe5b602002602001015190506200087a816001600160a01b0316846001600160a01b03161060656200052760201b60201c565b915060010162000830565b50505b50565b64e8d4a5100090565b67016345785d8a000090565b6000620008af848484620008e2565b506001901b60001901811b1992909216911b1790565b6000620008d783831115600162000527565b508082035b92915050565b620008f36101008310606462000527565b6200092c600182101580156200092457506200092060ff84610100036200093d60201b62001f8b1760201c565b8211155b606462000527565b6200088583821c156101b462000527565b60008183106200094e578162000950565b825b9392505050565b828054600181600116156101000203166002900490600052602060002090601f016020900481019282601f106200099a57805160ff1916838001178555620009ca565b82800160010185558215620009ca579182015b82811115620009ca578251825591602001919060010190620009ad565b50620009d8929150620009dc565b5090565b5b80821115620009d85760008155600101620009dd565b8051620008dc8162000ca7565b600082601f83011262000a11578081fd5b81516001600160401b038082111562000a28578283fd5b6040516020601f8401601f191682018101838111838210171562000a4a578586fd5b8060405250819450838252868185880101111562000a6757600080fd5b600092505b8383101562000a8b578583018101518284018201529182019162000a6c565b8383111562000a9d5760008185840101525b5050505092915050565b60006020828403121562000ab9578081fd5b5051919050565b60006020828403121562000ad2578081fd5b8151620009508162000ca7565b6000806000806000806000806000806101408b8d03121562000aff578586fd5b62000b0b8c8c620009f3565b60208c0151909a506001600160401b038082111562000b28578788fd5b62000b368e838f0162000a00565b9a5060408d015191508082111562000b4c578788fd5b5062000b5b8d828e0162000a00565b98505062000b6d8c60608d01620009f3565b965062000b7e8c60808d01620009f3565b955060a08b0151945060c08b0151935060e08b015192506101008b0151915062000bad8c6101208d01620009f3565b90509295989b9194979a5092959850565b60006020828403121562000bd0578081fd5b815160ff8116811462000950578182fd5b60006060820185835260206060818501528186518084526080860191508288019350845b8181101562000c2d5762000c1a855162000c9b565b8352938301939183019160010162000c05565b505084810360408601528551808252908201925081860190845b8181101562000c6f5762000c5c835162000c9b565b8552938301939183019160010162000c47565b509298975050505050505050565b602081016003831062000c8c57fe5b91905290565b90815260200190565b6001600160a01b031690565b6001600160a01b03811681146200088857600080fd5b60805160a05160c05160e051610100516101205160601c6101405160601c61016051610180516101a0516101c05160601c6101e05160601c6102005160601c610220516102405161026051610280516102a05161570462000df2600039806108d95280610a52528061202352806122f552508061091d5280611fe2528061234252508061206452806133ef52505050806107cd5280610a0e528061124952806115715280611e2352806145be528061475652806149635250806108955280610a7d52806110a9528061152352806118fd52806119c25280611dd5528061458352806147335280614902525080611ae85250806110fc525080612b0c525080612ae852508061185352508061182f5250806117b9525080611b3f525080612c12525080612c54525080612c3352506157046000f3fe608060405234801561001057600080fd5b506004361061030a5760003560e01c806370a082311161019c57806395d89b41116100ee578063b7b814fc11610097578063d5c096c411610071578063d5c096c4146105ed578063dd62ed3e14610600578063e9fad8ee146106135761030a565b8063b7b814fc146105ca578063d2946c2b146105d2578063d505accf146105da5761030a565b8063a9059cbb116100c8578063a9059cbb146105a7578063aaabadc5146105ba578063b35056b8146105c25761030a565b806395d89b411461056b578063a3b1379914610573578063a457c2d7146105945761030a565b806382fce88f1161015057806387ec68171161012a57806387ec681714610548578063893d20e81461055b5780638d928af8146105635761030a565b806382fce88f1461051a5780638456cb591461052d578063851c1bb3146105355761030a565b806374f3b0091161018157806374f3b009146104de5780637ecebe00146104ff5780638129fc1c146105125761030a565b806370a08231146104b85780637489ec23146104cb5761030a565b8063313ce5671161026057806346b8b7301161020957806355c67628116101e357806355c67628146104875780636028bfd41461048f5780636945c1fd146104b05761030a565b806346b8b7301461045757806350dd6ed91461046c57806354a844ba1461047f5761030a565b806338fff2d01161023a57806338fff2d014610434578063395093511461043c5780633f4ba83a1461044f5761030a565b8063313ce567146104045780633644e5151461041957806338e9922e146104215761030a565b806318160ddd116102c25780631f0404801161029c5780631f040480146103c957806323b872dd146103dc5780632541897f146103ef5761030a565b806318160ddd146103955780631c0de0511461039d5780631dd746ea146103b45761030a565b8063095ea7b3116102f3578063095ea7b31461034d5780630c8605be1461036d57806313ce4546146103825761030a565b806301ec954a1461030f57806306fdde0314610338575b600080fd5b61032261031d366004614fad565b61061b565b60405161032f919061546b565b60405180910390f35b610340610b34565b60405161032f919061557d565b61036061035b366004614d99565b610bca565b60405161032f9190615448565b61038061037b366004614ed8565b610be1565b005b610380610390366004614eb7565b610d1e565b610322610f29565b6103a5610f2f565b60405161032f93929190615453565b6103bc610f58565b60405161032f9190615407565b6103806103d7366004614ed8565b610f67565b6103606103ea366004614ce9565b611033565b6103f76110a7565b60405161032f919061533c565b61040c6110cb565b60405161032f9190615675565b6103226110d4565b61038061042f366004614de4565b6110de565b6103226110fa565b61036061044a366004614d99565b61111e565b610380611159565b61045f61116d565b60405161032f91906153c3565b61038061047a366004614f5f565b6111cd565b6103806111eb565b6103226111fd565b6104a261049d366004614e14565b611210565b60405161032f92919061565c565b6103f7611247565b6103226104c6366004614c95565b61126b565b6103806104d9366004614de4565b61128a565b6104f16104ec366004614e14565b6113e3565b60405161032f92919061541a565b61032261050d366004614c95565b6114e6565b610380611501565b610380610528366004614ed8565b6116cb565b6103806117a3565b610322610543366004614f03565b6117b5565b6104a2610556366004614e14565b611807565b6103f761182d565b6103f7611851565b610340611875565b610586610581366004614de4565b6118d6565b60405161032f9291906152b8565b6103606105a2366004614d99565b611a71565b6103606105b5366004614d99565b611aaf565b6103f7611abc565b610360611ac6565b610380611ad4565b6103f7611ae6565b6103806105e8366004614d29565b611b0a565b6104f16105fb366004614e14565b611c53565b61032261060e366004614cb1565b611d76565b610380611db3565b6000846080015161064861062d611851565b6001600160a01b0316336001600160a01b03161460cd611fa3565b61065d6106536110fa565b82146101f4611fa3565b6060610667611fb1565b905060608060005b8961010001515181101561075b57600581116106e157896101000151818151811061069657fe5b602001015160f81c60f81b8382815181106106ad57fe5b60200101907effffffffffffffffffffffffffffffffffffffffffffffffffffffffffffff1916908160001a905350610753565b600681101580156106f3575060268111155b1561075357896101000151818151811061070957fe5b602001015160f81c60f81b82600683038151811061072357fe5b60200101907effffffffffffffffffffffffffffffffffffffffffffffffffffffffffffff1916908160001a9053505b60010161066f565b50610764614add565b60405180604001604052806107788561209d565b8152602001610786846120bb565b90529050600080808c51600181111561079b57fe5b14156109da576107c28c60600151878c815181106107b557fe5b602002602001015161215d565b8c60600181815250507f00000000000000000000000000000000000000000000000000000000000000006001600160a01b03168c604001516001600160a01b03161415610893576108358c847f53656c6c000000000000000000000000000000000000000000000000000000008e612169565b84519093509091507f4d61726b65740000000000000000000000000000000000000000000000000000141561088e5761088181878b8151811061087457fe5b60200260200101516125db565b9750505050505050610b2b565b6109d5565b7f00000000000000000000000000000000000000000000000000000000000000006001600160a01b03168c604001516001600160a01b031614156109d55760006109148c7f00000000000000000000000000000000000000000000000000000000000000008151811061090257fe5b60200260200101518e606001516125e7565b9050610955818d7f00000000000000000000000000000000000000000000000000000000000000008151811061094657fe5b602002602001015160006125f9565b60608e01526109868d857f42757900000000000000000000000000000000000000000000000000000000008f612169565b85519094509092507f4d61726b6574000000000000000000000000000000000000000000000000000014156109d3576109c583888c8151811061087457fe5b985050505050505050610b2b565b505b610b24565b60018c5160018111156109e957fe5b1415610b2457610a038c60600151878b815181106107b557fe5b8c60600181815250507f00000000000000000000000000000000000000000000000000000000000000006001600160a01b03168c602001516001600160a01b03161415610a7b5760006109148c7f00000000000000000000000000000000000000000000000000000000000000008151811061090257fe5b7f00000000000000000000000000000000000000000000000000000000000000006001600160a01b03168c602001516001600160a01b03161415610b2457610ae58c847f53656c6c000000000000000000000000000000000000000000000000000000008e612169565b84519093509091507f4d61726b657400000000000000000000000000000000000000000000000000001415610b245761088181878b8151811061087457fe5b5050505050505b50949350505050565b60038054604080516020601f6002600019610100600188161502019095169490940493840181900481028201810190925282815260609390929091830182828015610bc05780601f10610b9557610100808354040283529160200191610bc0565b820191906000526020600020905b815481529060010190602001808311610ba357829003601f168201915b5050505050905090565b6000610bd7338484612621565b5060015b92915050565b6000838152600c60205260409020600301547f4f70656e0000000000000000000000000000000000000000000000000000000014610c1e57600080fd5b6000838152600c60205260409020600601546001600160a01b0316331415610d19576000838152600c602052604090206007810183905560048101829055426005820155600101547f4c696d69740000000000000000000000000000000000000000000000000000001415610cb9576000838152600c6020908152604080832054835260129091529020839055610cb482612689565b610d19565b6000838152600c60205260409020600101547f53746f70000000000000000000000000000000000000000000000000000000001415610d19576000838152600c6020908152604080832054835260159091529020839055610d19826128a9565b505050565b600a546001600160a01b03163314610d3557600080fd5b6000828152600c60209081526040808320600601546001600160a01b03168352600e8252808320858452600f9092529091205481548110610d7257fe5b60009182526020808320909101829055838252600f81526040808320839055600c825280832083815560018101849055600281018490556003810184905560048101849055600581018490556006810180547fffffffffffffffffffffffff00000000000000000000000000000000000000001690556007810184905560088101849055600901839055600d909152902054600b80549091908110610e1357fe5b60009182526020808320909101829055838252600d81526040808320839055838352600c8252808320600601546001600160a01b03168352600e8252808320848452600f9092529091205481548110610e6857fe5b60009182526020808320909101829055828252600f81526040808320839055600c825280832083815560018101849055600281018490556003810184905560048101849055600581018490556006810180547fffffffffffffffffffffffff00000000000000000000000000000000000000001690556007810184905560088101849055600901839055600d909152902054600b80549091908110610f0957fe5b60009182526020808320909101829055918152600d909152604081205550565b60025490565b6000806000610f3c612ac9565b159250610f47612ae6565b9150610f51612b0a565b9050909192565b6060610f62611fb1565b905090565b807f42757900000000000000000000000000000000000000000000000000000000001480610fb45750807f53656c6c00000000000000000000000000000000000000000000000000000000145b610fbd57600080fd5b600a546001600160a01b03163314610fd457600080fd5b506000828152600c602090815260408083206004810180549095019094557f4f70656e000000000000000000000000000000000000000000000000000000006003850155600b5493849055928252601090522055601180546001019055565b6000806110408533611d76565b9050611064336001600160a01b038716148061105c5750838210155b61019e611fa3565b61106f858585612b2e565b336001600160a01b0386161480159061108a57506000198114155b1561109c5761109c8533858403612621565b506001949350505050565b7f000000000000000000000000000000000000000000000000000000000000000090565b60055460ff1690565b6000610f62612c0e565b6110e6612cab565b6110ee612cf1565b6110f781612d04565b50565b7f000000000000000000000000000000000000000000000000000000000000000090565b3360008181526001602090815260408083206001600160a01b03871684529091528120549091610bd791859061115490866125e7565b612621565b611161612cab565b61116b6000612d7d565b565b336000908152600e6020908152604091829020805483518184028101840190945280845260609392830182828015610bc057602002820191906000526020600020905b8154815260200190600101908083116111b0575050505050905090565b6111d5612cab565b6111dd612cf1565b6111e78282612e0e565b5050565b6111f3612cab565b61116b6001612f26565b600854600090610f629060c06040612f86565b600060606112268651611221612f95565b612f9a565b61123b89898989898989612fa7612fc3613024565b97509795505050505050565b7f000000000000000000000000000000000000000000000000000000000000000090565b6001600160a01b0381166000908152602081905260409020545b919050565b6000818152600c60205260409020600601546001600160a01b031633146112b057600080fd5b6000818152600c602090815260408083208054845260108352818420849055805484526013835281842084905580548452601283528184208490558054845260168352818420849055805484526015835281842084905584845283815560018101849055600281018490556003810184905560048101849055600581018490556006810180547fffffffffffffffffffffffff00000000000000000000000000000000000000001690556007810184905560088101849055600901839055600d909152902054600b8054909190811061138557fe5b60009182526020808320909101829055828252600d81526040808320839055338352600e8252808320848452600f90925290912054815481106113c457fe5b60009182526020808320909101829055918152600f9091526040812055565b606080886113f261062d611851565b6113fd6106536110fa565b6060600061140a866131b3565b15611432576114176131e2565b61142989611423610f29565b886131f9565b92509050611484565b61143a612cf1565b6060611444611fb1565b90506114508a82613225565b6114748d8d8d8d8d611460611ac6565b61146a578d61146d565b60005b878e612fa7565b935091506114828382612fc3565b505b61148e8b82613286565b81895167ffffffffffffffff811180156114a757600080fd5b506040519080825280602002602001820160405280156114d1578160200160208202803683370190505b509450945050505b5097509795505050505050565b6001600160a01b031660009081526006602052604090205490565b60408051600280825260608083018452926020830190803683370190505090507f00000000000000000000000000000000000000000000000000000000000000008160008151811061154f57fe5b60200260200101906001600160a01b031690816001600160a01b0316815250507f00000000000000000000000000000000000000000000000000000000000000008160018151811061159d57fe5b6001600160a01b039290921660209283029190910190910152604080516001808252818301909252606091816020016020820280368337019050509050600954816000815181106115ea57fe5b6020026020010181815250506115fe614af4565b50604080516080810182528381526020808201849052825190810183526000808252928201526060810191909152611634611851565b6001600160a01b031663b95cac2861164a6110fa565b600a546040517fffffffff0000000000000000000000000000000000000000000000000000000060e085901b16815261169492916001600160a01b03169030908790600401615474565b600060405180830381600087803b1580156116ae57600080fd5b505af11580156116c2573d6000803e3d6000fd5b50505050505050565b600a546001600160a01b031633146116e257600080fd5b6000928352601d6020908152604080852080547fffffffffffffffffffffffff0000000000000000000000000000000000000000908116825560018201805482169055600282018054821690556003808301889055600483018890556005830180549092169091556006820187905560078201879055600882018790556009909101869055938552600c9091528084207f46696c6c656400000000000000000000000000000000000000000000000000009084018190559184529092200155565b6117ab612cab565b61116b6001612d7d565b60007f0000000000000000000000000000000000000000000000000000000000000000826040516020016117ea9291906152c6565b604051602081830303815290604052805190602001209050919050565b600060606118188651611221612f95565b61123b89898989898989612fa7613290613024565b7f000000000000000000000000000000000000000000000000000000000000000090565b7f000000000000000000000000000000000000000000000000000000000000000090565b60048054604080516020601f6002600019610100600188161502019095169490940493840181900481028201810190925282815260609390929091830182828015610bc05780601f10610b9557610100808354040283529160200191610bc0565b6000818152601e60209081526040808320548352601d9091528120600201548190819081907f00000000000000000000000000000000000000000000000000000000000000006001600160a01b03908116911614801561197357506000858152601e60209081526040808320548352601d9091529020600601547f4275790000000000000000000000000000000000000000000000000000000000145b156119a15750506000838152601e60209081526040808320548352601d909152902060038101546004909101545b6000858152601e60209081526040808320548352601d9091529020600201547f00000000000000000000000000000000000000000000000000000000000000006001600160a01b039081169116148015611a3857506000858152601e60209081526040808320548352601d9091529020600601547f53656c6c00000000000000000000000000000000000000000000000000000000145b15611a675750506000838152601e60209081526040808320548352601d90915290206003810154600490910154905b9092509050915091565b600080611a7e3385611d76565b9050808310611a9857611a9333856000612621565b611aa5565b611aa53385858403612621565b5060019392505050565b6000610bd7338484612b2e565b6000610f626132f1565b600754610100900460ff1690565b611adc612cab565b61116b6000612f26565b7f000000000000000000000000000000000000000000000000000000000000000090565b611b188442111560d1611fa3565b6001600160a01b0387166000908152600660209081526040808320549051909291611b6f917f0000000000000000000000000000000000000000000000000000000000000000918c918c918c9188918d91016154cf565b6040516020818303038152906040528051906020012090506000611b928261336b565b9050600060018288888860405160008152602001604052604051611bb9949392919061555f565b6020604051602081039080840390855afa158015611bdb573d6000803e3d6000fd5b5050604051601f1901519150611c1d90506001600160a01b03821615801590611c1557508b6001600160a01b0316826001600160a01b0316145b6101f8611fa3565b6001600160a01b038b166000908152600660205260409020600185019055611c468b8b8b612621565b5050505050505050505050565b60608088611c6261062d611851565b611c6d6106536110fa565b6060611c77611fb1565b9050611c81612cf1565b611c89610f29565b611d365760006060611c9e8d8d8d868b613387565b91509150611cb7611cad613433565b83101560cc611fa3565b611cc96000611cc4613433565b61343a565b611cdc8b611cd5613433565b840361343a565b611ce68184613290565b808a5167ffffffffffffffff81118015611cff57600080fd5b50604051908082528060200260200182016040528015611d29578160200160208202803683370190505b50955095505050506114d9565b611d408882613225565b60006060611d688d8d8d8d8d611d54611ac6565b611d5e578d611d61565b60005b898e612fa7565b91509150611cdc8b8361343a565b6000611d80611851565b6001600160a01b0316826001600160a01b03161415611da25750600019610bdb565b611dac8383613444565b9050610bdb565b60408051600280825260608083018452926020830190803683370190505090507f000000000000000000000000000000000000000000000000000000000000000081600081518110611e0157fe5b60200260200101906001600160a01b031690816001600160a01b0316815250507f000000000000000000000000000000000000000000000000000000000000000081600181518110611e4f57fe5b6001600160a01b03929092166020928302919091019091015260408051600180825281830190925260609181602001602082028036833701905050905060095481600081518110611e9c57fe5b602002602001018181525050611eb0614af4565b50604080516080810182528381526020808201849052825190810183526000808252928201526060810191909152611ee6611851565b6001600160a01b0316638bdb3913611efc6110fa565b600a546040517fffffffff0000000000000000000000000000000000000000000000000000000060e085901b168152611694929130916001600160a01b03909116908790600401615474565b806111e78161346f565b6000611f5f8484846134e8565b506001901b60001901811b1992909216911b1790565b6000611f85838311156001611fa3565b50900390565b6000818310611f9a5781611f9c565b825b9392505050565b816111e7576111e78161352f565b60408051600380825260808201909252606091829190602082018380368337019050509050670de0b6b3a7640000817f00000000000000000000000000000000000000000000000000000000000000008151811061200b57fe5b602002602001018181525050670de0b6b3a7640000817f00000000000000000000000000000000000000000000000000000000000000008151811061204c57fe5b602002602001018181525050670de0b6b3a7640000817f00000000000000000000000000000000000000000000000000000000000000008151811061208d57fe5b6020908102919091010152905090565b805160009082906120b2575060009050611285565b50506020015190565b600080828180805b83518110156121525760308482815181106120da57fe5b016020015160f81c10801590612104575060398482815181106120f957fe5b016020015160f81c11155b1561214557829150603084828151811061211a57fe5b602001015160f81c60f81b60f81c60ff160383600a020192508282111561214057600194505b61214a565b600194505b6001016120c3565b509095945050505050565b6000611f9c838361359c565b60008084600001517f4d61726b6574000000000000000000000000000000000000000000000000000014806121be575084517f4c696d6974000000000000000000000000000000000000000000000000000000145b806121e9575084517f53746f7000000000000000000000000000000000000000000000000000000000145b6121f257600080fd5b837f4275790000000000000000000000000000000000000000000000000000000000148061223f5750837f53656c6c00000000000000000000000000000000000000000000000000000000145b61224857600080fd5b60008660c0015142604051602001612261929190615283565b60408051808303601f19018152918152815160209283012060c08a01516000828152600c8552929092206006810180547fffffffffffffffffffffffff0000000000000000000000000000000000000000166001600160a01b0390941693909317909255918801516007820155600b54815560608901516004820155600281018790558751600190910155845190915084907f000000000000000000000000000000000000000000000000000000000000000090811061231d57fe5b6020026020010151600c600083815260200190815260200160002060080181905550837f00000000000000000000000000000000000000000000000000000000000000008151811061236b57fe5b6020908102919091018101516000838152600c83526040808220600981019390935542600590930192909255600b8054600d8552838320819055600180820183559183527f0175b7a638427703f0dbe7bb9bbf987a2551717b34e79f33b5b1008d1fa01db90185905560c08b0180516001600160a01b039081168452600e80875285852054888652600f88528686205591511683528452918120805492830181558152919091200181905585517f4d61726b6574000000000000000000000000000000000000000000000000000014156124c0576000818152600c602090815260408083207f46696c6c656400000000000000000000000000000000000000000000000000006003820155548352601090915290208190556011805460010190556124b6817f6d61726b657400000000000000000000000000000000000000000000000000006135d2565b92509250506125d2565b85517f4c696d69740000000000000000000000000000000000000000000000000000001415612547576000818152600c602090815260408083207f4f70656e0000000000000000000000000000000000000000000000000000000060038201555483526012825290912082905560148054600101905586015161254290612689565b6125c9565b85517f53746f700000000000000000000000000000000000000000000000000000000014156125c9576000818152600c602090815260408083207f4f70656e000000000000000000000000000000000000000000000000000000006003820155548352601582529091208290556017805460010190558601516125c9906128a9565b60008092509250505b94509492505050565b6000611f9c8383613ecc565b6000828201611f9c8482101583611fa3565b60008161260f5761260a8484613f1d565b612619565b6126198484613f3d565b949350505050565b6001600160a01b0380841660008181526001602090815260408083209487168084529490915290819020849055517f8c5be1e5ebec7d5bd14f71427d1e84f3dd0314c0f7b2291e5b200ac8c7c3b9259061267c90859061546b565b60405180910390a3505050565b6000805b601454811015610d19576000818152601260209081526040808320548352600c9091529020600201547f427579000000000000000000000000000000000000000000000000000000000014801561270257506000818152601260209081526040808320548352600c9091529020600701548311155b1561279e5760008181526012602081815260408084208054808652600c84528286205486526010845291852091909155601180546001019055928490525254915061276d817f6c696d6974000000000000000000000000000000000000000000000000000000613f70565b612797827f6c696d69740000000000000000000000000000000000000000000000000000006135d2565b50506128a1565b6000818152601260209081526040808320548352600c9091529020600201547f53656c6c0000000000000000000000000000000000000000000000000000000014801561280957506000818152601260209081526040808320548352600c9091529020600701548310155b156128a15760008181526012602081815260408084208054808652600c845282862054865260108452918520919091556011805460010190559284905252549150612874817f6c696d6974000000000000000000000000000000000000000000000000000000613f70565b61289e827f6c696d69740000000000000000000000000000000000000000000000000000006135d2565b50505b60010161268d565b6000805b601754811015610d19576000818152601560209081526040808320548352600c9091529020600201547f427579000000000000000000000000000000000000000000000000000000000014801561292257506000818152601560209081526040808320548352600c9091529020600701548310155b156129be5760008181526015602081815260408084208054808652600c84528286205486526010845291852091909155601180546001019055928490525254915061298d817f73746f7000000000000000000000000000000000000000000000000000000000613f70565b6129b7827f73746f70000000000000000000000000000000000000000000000000000000006135d2565b5050612ac1565b6000818152601560209081526040808320548352600c9091529020600201547f53656c6c00000000000000000000000000000000000000000000000000000000148015612a2957506000818152601560209081526040808320548352600c9091529020600701548311155b15612ac15760008181526015602081815260408084208054808652600c845282862054865260108452918520919091556011805460010190559284905252549150612a94817f73746f7000000000000000000000000000000000000000000000000000000000613f70565b612abe827f73746f70000000000000000000000000000000000000000000000000000000006135d2565b50505b6001016128ad565b6000612ad3612b0a565b421180610f6257505060075460ff161590565b7f000000000000000000000000000000000000000000000000000000000000000090565b7f000000000000000000000000000000000000000000000000000000000000000090565b612b456001600160a01b0384161515610198611fa3565b612b5c6001600160a01b0383161515610199611fa3565b612b67838383610d19565b6001600160a01b038316600090815260208190526040902054612b8d90826101a0614107565b6001600160a01b038085166000908152602081905260408082209390935590841681522054612bbc90826125e7565b6001600160a01b0380841660008181526020819052604090819020939093559151908516907fddf252ad1be2c89b69c2b068fc378daa952ba7f163c4a11628f55a4df523b3ef9061267c90859061546b565b60007f00000000000000000000000000000000000000000000000000000000000000007f00000000000000000000000000000000000000000000000000000000000000007f0000000000000000000000000000000000000000000000000000000000000000612c7b61411d565b30604051602001612c90959493929190615503565b60405160208183030381529060405280519060200120905090565b6000612cda6000357fffffffff00000000000000000000000000000000000000000000000000000000166117b5565b90506110f7612ce98233614121565b610191611fa3565b61116b612cfc612ac9565b610192611fa3565b612d19612d0f61420a565b82101560cb611fa3565b612d2e612d24614213565b82111560ca611fa3565b600854612d3f908260c06040611f52565b6008556040517fa9ba3ffe0b6c366b81232caab38605a0699ad5398d6cce76f91ee809e322dafc90612d7290839061546b565b60405180910390a150565b8015612d9d57612d98612d8e612ae6565b4210610193611fa3565b612db2565b612db2612da8612b0a565b42106101a9611fa3565b600780547fffffffffffffffffffffffffffffffffffffffffffffffffffffffffffffff00168215151790556040517f9e3a5e37224532dea67b89face185703738a228a6e8a23dee546960180d3be6490612d72908390615448565b6000612e186110fa565b90506000612e24611851565b6001600160a01b031663b05f8e4883866040518363ffffffff1660e01b8152600401612e51929190615548565b60806040518083038186803b158015612e6957600080fd5b505afa158015612e7d573d6000803e3d6000fd5b505050506040513d601f19601f82011682018060405250810190612ea191906150cc565b6040517f18e736d40000000000000000000000000000000000000000000000000000000081529094506001600160a01b03851693506318e736d49250612eee91508590879060040161552f565b600060405180830381600087803b158015612f0857600080fd5b505af1158015612f1c573d6000803e3d6000fd5b5050505050505050565b600780547fffffffffffffffffffffffffffffffffffffffffffffffffffffffffffff00ff16610100831515021790556040517feff3d4d215b42bf0960be9c6d5e05c22cba4df6627a3a523e2acee733b5854c890612d72908390615448565b6001901b6000190191901c1690565b600390565b6111e78183146067611fa3565b60006060612fb661013661352f565b9850989650505050505050565b60005b612fce612f95565b811015610d1957613005838281518110612fe457fe5b6020026020010151838381518110612ff857fe5b6020026020010151613ecc565b83828151811061301157fe5b6020908102919091010152600101612fc6565b333014613113576000306001600160a01b03166000366040516130489291906152f6565b6000604051808303816000865af19150503d8060008114613085576040519150601f19603f3d011682016040523d82523d6000602084013e61308a565b606091505b50509050806000811461309957fe5b60046000803e6000517fffffffff00000000000000000000000000000000000000000000000000000000167f43adbafb0000000000000000000000000000000000000000000000000000000081146130f5573d6000803e3d6000fd5b506020600460003e604060205260243d03602460403e601c3d016000f35b606061311d611fb1565b90506131298782613225565b600060606131418c8c8c8c8c8c898d8d63ffffffff16565b9150915061315381848663ffffffff16565b8051601f1982018390526343adbafb7fffffffffffffffffffffffffffffffffffffffffffffffffffffffffffffffc08301526020027fffffffffffffffffffffffffffffffffffffffffffffffffffffffffffffffdc82016044820181fd5b6000808251118015610bdb575060ff8016828060200190518101906131d8919061510c565b60ff161492915050565b60075461116b90610100900460ff166101b6611fa3565b6000606060006132088461421f565b90506060613217878784614235565b919791965090945050505050565b60005b613230612f95565b811015610d195761326783828151811061324657fe5b602002602001015183838151811061325a57fe5b602002602001015161359c565b83828151811061327357fe5b6020908102919091010152600101613228565b6111e782826142e4565b60005b61329b612f95565b811015610d19576132d28382815181106132b157fe5b60200260200101518383815181106132c557fe5b60200260200101516143a0565b8382815181106132de57fe5b6020908102919091010152600101613293565b60006132fb611851565b6001600160a01b031663aaabadc56040518163ffffffff1660e01b815260040160206040518083038186803b15801561333357600080fd5b505afa158015613347573d6000803e3d6000fd5b505050506040513d601f19601f82011682018060405250810190610f629190614f43565b6000613375612c0e565b826040516020016117ea929190615306565b60006060613393612cf1565b600a546133b0906001600160a01b038881169116146101aa611fa3565b6133c76001600160a01b03861630146101aa611fa3565b60408051600380825260808201909252606091602082018380368337019050509050600954817f00000000000000000000000000000000000000000000000000000000000000008151811061341857fe5b60209081029190910101526009549890975095505050505050565b620f424090565b6111e782826143ee565b6001600160a01b03918216600090815260016020908152604080832093909416825291909152205490565b60028151101561347e576110f7565b60008160008151811061348d57fe5b602002602001015190506000600190505b8251811015610d195760008382815181106134b557fe5b602002602001015190506134de816001600160a01b0316846001600160a01b0316106065611fa3565b915060010161349e565b6134f761010083106064611fa3565b61352060018210158015613519575061351560ff8461010003611f8b565b8211155b6064611fa3565b610d1983821c156101b4611fa3565b7f08c379a0000000000000000000000000000000000000000000000000000000006000908152602060045260076024526642414c23000030600a808404818106603090810160081b95839006959095019082900491820690940160101b939093010160c81b604452606490fd5b60008282026135c08415806135b95750838583816135b657fe5b04145b6003611fa3565b670de0b6b3a764000090049392505050565b60008060005b6011548110156138dc57600081815260106020526040902054851480159061363a57506000858152600c602081815260408084206006908101548686526010845282862054865293909252909220909101546001600160a01b03908116911614155b801561368457506000818152601060209081526040808320548352600c9091529020600301547f46696c6c6564000000000000000000000000000000000000000000000000000014155b156138d4576000818152601060209081526040808320548352600c9091529020600201547f427579000000000000000000000000000000000000000000000000000000000014801561370657506000858152600c60205260409020600201547f53656c6c00000000000000000000000000000000000000000000000000000000145b156137b1576000858152600c60208181526040808420600790810154868652601084528286205486529390925290922090910154106137ac576019546000828152601060209081526040808320548352600c90915290206007015411156137ac576000818152601060209081526040808320548352600c909152902060070154601955600b80548290811061379757fe5b600091825260209091200154601855601c8190555b6138d4565b6000818152601060209081526040808320548352600c9091529020600201547f53656c6c0000000000000000000000000000000000000000000000000000000014801561382e57506000858152600c60205260409020600201547f4275790000000000000000000000000000000000000000000000000000000000145b156138d4576000858152600c60208181526040808420600790810154868652601084528286205486529390925290922090910154116138d457601b546000828152601060209081526040808320548352600c90915290206007015411156138d4576000818152601060209081526040808320548352600c909152902060070154601b55600b8054829081106138bf57fe5b600091825260209091200154601a55601c8190555b6001016135d8565b506000848152600c60205260409020600201547f53656c6c000000000000000000000000000000000000000000000000000000001415613bf75760185415613bec576000848152600c60205260408082206004908101546018548452919092209091015410613a65576000848152600c6020526040808220600480820180546018805487528587209093018054919091039055805490859055815485528385207f46696c6c6564000000000000000000000000000000000000000000000000000060039182018190559084015560068084015492548087529486200154948990526007830154600284015460019094015491956139f0958b956001600160a01b03958616959194919092169291889161447c565b613a1c601c547f6d61726b65740000000000000000000000000000000000000000000000000000613f70565b837f6d61726b657400000000000000000000000000000000000000000000000000001415613a5f576000858152600c602052604090206007015492509050613ec5565b50613b60565b601880546000908152600c602052604080822060049081015488845282842080830180549290920390915584548452828420909101805490849055845484528284207f506172746c7946696c6c656400000000000000000000000000000000000000006003918201819055908301556006808301549554808652938520015493899052600782015460028301546001909301549195613b1b958b956001600160a01b03928316959094919092169291889161447c565b837f6d61726b657400000000000000000000000000000000000000000000000000001415613b5e576000858152600c602052604090206007015492509050613ec5565b505b6000848152600c602052604090206009810154600490910154613b839190611f75565b6000858152600c6020526040902060098101919091556008810154600790910154613bae91906125e7565b6000858152600c60205260409020600881019190915560070154613bd190612689565b6000848152600c6020526040902060070154613bec906128a9565b506000905080613ec5565b6000848152600c60205260409020600201547f42757900000000000000000000000000000000000000000000000000000000001415613ec557601a5415613bec576000848152600c6020526040808220600490810154601a548452919092209091015410613d7f576000848152600c602052604080822060048082018054601a805487528587209093018054919091039055805490859055815485528385207f46696c6c65640000000000000000000000000000000000000000000000000000600391820181905590840155905480855292842060069081015494899052820154600783015460028401546001909401549295613d0a95946001600160a01b03918216948c94909216929188919061447c565b613d36601c547f6d61726b65740000000000000000000000000000000000000000000000000000613f70565b837f6d61726b657400000000000000000000000000000000000000000000000000001415613d79576000858152600c602052604090206007015492509050613ec5565b50613e77565b601a80546000908152600c602052604080822060049081015488845282842080830180549290920390915584548452828420909101805490849055845484528284207f506172746c7946696c6c6564000000000000000000000000000000000000000060039182018190559083015593548084529183206006908101549389905281015460078201546002830154600190930154613e32956001600160a01b03908116948c94909116929188919061447c565b837f6d61726b657400000000000000000000000000000000000000000000000000001415613e75576000858152600c602052604090206007015492509050613ec5565b505b6000848152600c602052604090206009810154600490910154613e9a91906125e7565b6000858152600c6020526040902060098101919091556008810154600790910154613bae9190611f75565b9250929050565b6000613edb8215156004611fa3565b82613ee857506000610bdb565b670de0b6b3a764000083810290613f0b90858381613f0257fe5b04146005611fa3565b828181613f1457fe5b04915050610bdb565b6000613f2c8215156004611fa3565b818381613f3557fe5b049392505050565b6000613f4c8215156004611fa3565b82613f5957506000610bdb565b816001840381613f6557fe5b046001019050610bdb565b807f6d61726b657400000000000000000000000000000000000000000000000000001415613ff857815b601154811015613fe857600160115403811415613fc557600083815260106020526040812055613fe0565b60018301600090815260106020526040808220548583529120555b600101613f9a565b50601180546000190190556111e7565b807f6c696d6974000000000000000000000000000000000000000000000000000000141561408057815b6014548110156140705760016014540381141561404d57600083815260126020526040812055614068565b60018301600090815260126020526040808220548583529120555b600101614022565b50601480546000190190556111e7565b807f73746f700000000000000000000000000000000000000000000000000000000014156111e757815b6017548110156140f8576001601754038114156140d5576000838152601560205260408120556140f0565b60018301600090815260156020526040808220548583529120555b6001016140aa565b50601780546000190190555050565b60006141168484111583611fa3565b5050900390565b4690565b600073ba1ba1ba1ba1ba1ba1ba1ba1ba1ba1ba1ba1ba1b61414061182d565b6001600160a01b03161415801561415b575061415b83614a51565b156141835761416861182d565b6001600160a01b0316336001600160a01b0316149050610bdb565b61418b6132f1565b6001600160a01b0316639be2a8848484306040518463ffffffff1660e01b81526004016141ba939291906154b0565b60206040518083038186803b1580156141d257600080fd5b505afa1580156141e6573d6000803e3d6000fd5b505050506040513d601f19601f82011682018060405250810190611dac9190614dc4565b64e8d4a5100090565b67016345785d8a000090565b600081806020019051810190611f9c9190615128565b606060006142438385613ecc565b9050845167ffffffffffffffff8111801561425d57600080fd5b50604051908082528060200260200182016040528015614287578160200160208202803683370190505b50915060005b85518110156142db576142bc828783815181106142a657fe5b602002602001015161359c90919063ffffffff16565b8382815181106142c857fe5b602090810291909101015260010161428d565b50509392505050565b6142fb6001600160a01b038316151561019b611fa3565b61430782600083610d19565b6001600160a01b03821660009081526020819052604090205461432d90826101b2614107565b6001600160a01b0383166000908152602081905260409020556002546143539082614ab5565b6002556040516000906001600160a01b038416907fddf252ad1be2c89b69c2b068fc378daa952ba7f163c4a11628f55a4df523b3ef9061439490859061546b565b60405180910390a35050565b60006143af8215156004611fa3565b826143bc57506000610bdb565b670de0b6b3a7640000838102906143d690858381613f0257fe5b8260018203816143e257fe5b04600101915050610bdb565b6143fa60008383610d19565b60025461440790826125e7565b6002556001600160a01b03821660009081526020819052604090205461442d90826125e7565b6001600160a01b0383166000818152602081905260408082209390935591519091907fddf252ad1be2c89b69c2b068fc378daa952ba7f163c4a11628f55a4df523b3ef9061439490859061546b565b6000827f427579000000000000000000000000000000000000000000000000000000000014156144be57506000888152600c60205260409020600701546144fa565b827f53656c6c0000000000000000000000000000000000000000000000000000000014156144fa57506000868152600c60205260409020600701545b6000898860405160200161450f9291906152b8565b60405160208183030381529060405280519060200120905080601e60008c81526020019081526020016000208190555080601e60008a8152602001908152602001600020819055506040518061014001604052808a6001600160a01b03168152602001886001600160a01b031681526020017f00000000000000000000000000000000000000000000000000000000000000006001600160a01b031681526020018781526020018381526020017f00000000000000000000000000000000000000000000000000000000000000006001600160a01b0316815260200185815260200184815260200186815260200142815250601d600083815260200190815260200160002060008201518160000160006101000a8154816001600160a01b0302191690836001600160a01b0316021790555060208201518160010160006101000a8154816001600160a01b0302191690836001600160a01b0316021790555060408201518160020160006101000a8154816001600160a01b0302191690836001600160a01b03160217905550606082015181600301556080820151816004015560a08201518160050160006101000a8154816001600160a01b0302191690836001600160a01b0316021790555060c0820151816006015560e082015181600701556101008201518160080155610120820151816009015590505060004290507f156bf7973c4610a54da63e11aee83150e3c726c558bb3a700c5a07f8c89f82268a897f00000000000000000000000000000000000000000000000000000000000000008a877f00000000000000000000000000000000000000000000000000000000000000008c8860405161478b989796959493929190615350565b60405180910390a1600a546040517f055f55400000000000000000000000000000000000000000000000000000000081526000916001600160a01b03169063055f5540906147dd908c9060040161533c565b60206040518083038186803b1580156147f557600080fd5b505afa158015614809573d6000803e3d6000fd5b505050506040513d601f19601f8201168201806040525081019061482d9190614dfc565b600a546040517f055f55400000000000000000000000000000000000000000000000000000000081529192506000916001600160a01b039091169063055f55409061487c908f9060040161533c565b60206040518083038186803b15801561489457600080fd5b505afa1580156148a8573d6000803e3d6000fd5b505050506040513d601f19601f820116820180604052508101906148cc9190614dfc565b90506148d6614b1e565b604051806101c001604052808e6001600160a01b031681526020018c6001600160a01b031681526020017f00000000000000000000000000000000000000000000000000000000000000006001600160a01b031681526020017f50656e64696e670000000000000000000000000000000000000000000000000081526020018381526020018481526020017f00000000000000000000000000000000000000000000000000000000000000006001600160a01b031681526020018b81526020018a81526020016149a68c8c614ac3565b8152602001858152602001306001600160a01b031681526020018f81526020018d8152509050600a60009054906101000a90046001600160a01b03166001600160a01b0316631459945d82876040518363ffffffff1660e01b8152600401614a0f929190615590565b600060405180830381600087803b158015614a2957600080fd5b505af1158015614a3d573d6000803e3d6000fd5b505050505050505050505050505050505050565b6000614a7c7f38e9922e000000000000000000000000000000000000000000000000000000006117b5565b821480610bdb5750614aad7f50dd6ed9000000000000000000000000000000000000000000000000000000006117b5565b909114919050565b6000611f9c83836001614107565b6000828202611f9c8415806135b95750838583816135b657fe5b604080518082019091526000808252602082015290565b60405180608001604052806060815260200160608152602001606081526020016000151581525090565b604080516101c081018252600080825260208201819052918101829052606081018290526080810182905260a0810182905260c0810182905260e08101829052610100810182905261012081018290526101408101829052610160810182905261018081018290526101a081019190915290565b8035610bdb816156aa565b600082601f830112614bad578081fd5b813567ffffffffffffffff811115614bc3578182fd5b6020808202614bd3828201615683565b83815293508184018583018287018401881015614bef57600080fd5b600092505b84831015614c12578035825260019290920191908301908301614bf4565b505050505092915050565b600082601f830112614c2d578081fd5b813567ffffffffffffffff811115614c43578182fd5b614c566020601f19601f84011601615683565b9150808252836020828501011115614c6d57600080fd5b8060208401602084013760009082016020015292915050565b803560028110610bdb57600080fd5b600060208284031215614ca6578081fd5b8135611f9c816156aa565b60008060408385031215614cc3578081fd5b8235614cce816156aa565b91506020830135614cde816156aa565b809150509250929050565b600080600060608486031215614cfd578081fd5b8335614d08816156aa565b92506020840135614d18816156aa565b929592945050506040919091013590565b600080600080600080600060e0888a031215614d43578283fd5b8735614d4e816156aa565b96506020880135614d5e816156aa565b955060408801359450606088013593506080880135614d7c816156bf565b9699959850939692959460a0840135945060c09093013592915050565b60008060408385031215614dab578182fd5b8235614db6816156aa565b946020939093013593505050565b600060208284031215614dd5578081fd5b81518015158114611f9c578182fd5b600060208284031215614df5578081fd5b5035919050565b600060208284031215614e0d578081fd5b5051919050565b600080600080600080600060e0888a031215614e2e578081fd5b873596506020880135614e40816156aa565b95506040880135614e50816156aa565b9450606088013567ffffffffffffffff80821115614e6c578283fd5b614e788b838c01614b9d565b955060808a0135945060a08a0135935060c08a0135915080821115614e9b578283fd5b50614ea88a828b01614c1d565b91505092959891949750929550565b60008060408385031215614ec9578182fd5b50508035926020909101359150565b600080600060608486031215614eec578081fd5b505081359360208301359350604090920135919050565b600060208284031215614f14578081fd5b81357fffffffff0000000000000000000000000000000000000000000000000000000081168114611f9c578182fd5b600060208284031215614f54578081fd5b8151611f9c816156aa565b60008060408385031215614f71578182fd5b8235614f7c816156aa565b9150602083013567ffffffffffffffff811115614f97578182fd5b614fa385828601614c1d565b9150509250929050565b60008060008060808587031215614fc2578182fd5b843567ffffffffffffffff80821115614fd9578384fd5b818701915061012080838a031215614fef578485fd5b614ff881615683565b90506150048984614c86565b81526150138960208501614b92565b60208201526150258960408501614b92565b6040820152606083013560608201526080830135608082015260a083013560a08201526150558960c08501614b92565b60c08201526150678960e08501614b92565b60e0820152610100808401358381111561507f578687fd5b61508b8b828701614c1d565b8284015250508096505060208701359150808211156150a8578384fd5b506150b587828801614b9d565b949794965050505060408301359260600135919050565b600080600080608085870312156150e1578182fd5b8451935060208501519250604085015191506060850151615101816156aa565b939692955090935050565b60006020828403121561511d578081fd5b8151611f9c816156bf565b6000806040838503121561513a578182fd5b8251615145816156bf565b6020939093015192949293505050565b6001600160a01b03169052565b6000815180845260208085019450808401835b8381101561519157815187529582019590820190600101615175565b509495945050505050565b15159052565b60008151808452815b818110156151c7576020818501810151868301820152016151ab565b818111156151d85782602083870101525b50601f01601f19169290920160200192915050565b8051608080845281519084018190526000916020919082019060a0860190845b818110156152325783516001600160a01b03168352928401929184019160010161520d565b50508285015191508581038387015261524b8183615162565b925050506040830151848203604086015261526682826151a2565b915050606083015161527b606086018261519c565b509392505050565b60609290921b7fffffffffffffffffffffffffffffffffffffffff000000000000000000000000168252601482015260340190565b918252602082015260400190565b9182527fffffffff0000000000000000000000000000000000000000000000000000000016602082015260240190565b6000828483379101908152919050565b7f190100000000000000000000000000000000000000000000000000000000000081526002810192909252602282015260420190565b6001600160a01b0391909116815260200190565b6001600160a01b039889168152968816602088015294871660408701526060860193909352608085019190915290931660a083015260c08201929092527f50656e64696e670000000000000000000000000000000000000000000000000060e08201526101008101919091526101200190565b6020808252825182820181905260009190848201906040850190845b818110156153fb578351835292840192918401916001016153df565b50909695505050505050565b600060208252611f9c6020830184615162565b60006040825261542d6040830185615162565b828103602084015261543f8185615162565b95945050505050565b901515815260200190565b92151583526020830191909152604082015260600190565b90815260200190565b60008582526001600160a01b038086166020840152808516604084015250608060608301526154a660808301846151ed565b9695505050505050565b9283526001600160a01b03918216602084015216604082015260600190565b9586526001600160a01b0394851660208701529290931660408501526060840152608083019190915260a082015260c00190565b9485526020850193909352604084019190915260608301526001600160a01b0316608082015260a00190565b60008382526040602083015261261960408301846151a2565b9182526001600160a01b0316602082015260400190565b93845260ff9290921660208401526040830152606082015260800190565b600060208252611f9c60208301846151a2565b60006101e0820190506155a4828551615155565b60208401516155b66020840182615155565b5060408401516155c96040840182615155565b50606084015160608301526080840151608083015260a084015160a083015260c08401516155fa60c0840182615155565b5060e084810151908301526101008085015190830152610120808501519083015261014080850151908301526101608085015161563982850182615155565b505061018084810151908301526101a093840151938201939093526101c0015290565b6000838252604060208301526126196040830184615162565b60ff91909116815260200190565b60405181810167ffffffffffffffff811182821017156156a257600080fd5b604052919050565b6001600160a01b03811681146110f757600080fd5b60ff811681146110f757600080fdfea2646970667358221220f37ce268f903d8368468b590b13b5fb279bbe4065b398e9cb30893561b94459c64736f6c63430007010033",
  "linkReferences": {},
  "deployedLinkReferences": {}
}