{
  "_format": "hh-sol-artifact-1",
  "contractName": "SecondaryIssuePoolFactory",
  "sourceName": "contracts/SecondaryIssuePoolFactory.sol",
  "abi": [
    {
      "inputs": [
        {
          "internalType": "contract IVault",
          "name": "vault",
          "type": "address"
        },
        {
          "internalType": "contract IProtocolFeePercentagesProvider",
          "name": "protocolFeeProvider",
          "type": "address"
        }
      ],
      "stateMutability": "nonpayable",
      "type": "constructor"
    },
    {
      "anonymous": false,
      "inputs": [],
      "name": "FactoryDisabled",
      "type": "event"
    },
    {
      "anonymous": false,
      "inputs": [
        {
          "indexed": true,
          "internalType": "address",
          "name": "pool",
          "type": "address"
        }
      ],
      "name": "PoolCreated",
      "type": "event"
    },
    {
      "inputs": [
        {
          "internalType": "string",
          "name": "name",
          "type": "string"
        },
        {
          "internalType": "string",
          "name": "symbol",
          "type": "string"
        },
        {
          "internalType": "address",
          "name": "security",
          "type": "address"
        },
        {
          "internalType": "address",
          "name": "currency",
          "type": "address"
        },
        {
          "internalType": "uint256",
          "name": "minOrderSize",
          "type": "uint256"
        },
        {
          "internalType": "uint256",
          "name": "tradeFeePercentage",
          "type": "uint256"
        }
      ],
      "name": "create",
      "outputs": [
        {
          "internalType": "address",
          "name": "",
          "type": "address"
        }
      ],
      "stateMutability": "nonpayable",
      "type": "function"
    },
    {
      "inputs": [],
      "name": "disable",
      "outputs": [],
      "stateMutability": "nonpayable",
      "type": "function"
    },
    {
      "inputs": [
        {
          "internalType": "bytes4",
          "name": "selector",
          "type": "bytes4"
        }
      ],
      "name": "getActionId",
      "outputs": [
        {
          "internalType": "bytes32",
          "name": "",
          "type": "bytes32"
        }
      ],
      "stateMutability": "view",
      "type": "function"
    },
    {
      "inputs": [],
      "name": "getAuthorizer",
      "outputs": [
        {
          "internalType": "contract IAuthorizer",
          "name": "",
          "type": "address"
        }
      ],
      "stateMutability": "view",
      "type": "function"
    },
    {
      "inputs": [],
      "name": "getCreationCode",
      "outputs": [
        {
          "internalType": "bytes",
          "name": "",
          "type": "bytes"
        }
      ],
      "stateMutability": "view",
      "type": "function"
    },
    {
      "inputs": [],
      "name": "getCreationCodeContracts",
      "outputs": [
        {
          "internalType": "address",
          "name": "contractA",
          "type": "address"
        },
        {
          "internalType": "address",
          "name": "contractB",
          "type": "address"
        }
      ],
      "stateMutability": "view",
      "type": "function"
    },
    {
      "inputs": [],
      "name": "getPauseConfiguration",
      "outputs": [
        {
          "internalType": "uint256",
          "name": "pauseWindowDuration",
          "type": "uint256"
        },
        {
          "internalType": "uint256",
          "name": "bufferPeriodDuration",
          "type": "uint256"
        }
      ],
      "stateMutability": "view",
      "type": "function"
    },
    {
      "inputs": [],
      "name": "getProtocolFeePercentagesProvider",
      "outputs": [
        {
          "internalType": "contract IProtocolFeePercentagesProvider",
          "name": "",
          "type": "address"
        }
      ],
      "stateMutability": "view",
      "type": "function"
    },
    {
      "inputs": [],
      "name": "getVault",
      "outputs": [
        {
          "internalType": "contract IVault",
          "name": "",
          "type": "address"
        }
      ],
      "stateMutability": "view",
      "type": "function"
    },
    {
      "inputs": [],
      "name": "isDisabled",
      "outputs": [
        {
          "internalType": "bool",
          "name": "",
          "type": "bool"
        }
      ],
      "stateMutability": "view",
      "type": "function"
    },
    {
      "inputs": [
        {
          "internalType": "address",
          "name": "pool",
          "type": "address"
        }
      ],
      "name": "isPoolFromFactory",
      "outputs": [
        {
          "internalType": "bool",
          "name": "",
          "type": "bool"
        }
      ],
      "stateMutability": "view",
      "type": "function"
    }
  ],
  "bytecode": "0x6101806040523480156200001257600080fd5b5060405162009181380380620091818339810160408190526200003591620001fc565b8181604051806020016200004990620001ee565b601f1982820381018352601f90910116604052805183903090839060006002820460a081905280830360e08190528185529091508362000095816200010f602090811b6200043717901c565b60601b6001600160601b0319166080528285018051838252620000c4826200010f602090811b6200043717901c565b6001600160601b0319606091821b811660c05296909352905261010095909552505092821b831661012052509290921b90911661014052505050426276a70001610160525062000250565b80517f602038038060206000396000f3fefefefefefefefefefefefefefefefefefefe808352600091602081018484f090845291506200015d6001600160a01b03831615156101ac62000163565b50919050565b816200017457620001748162000178565b5050565b6200018a816210905360ea1b6200018d565b50565b62461bcd60e51b600090815260206004526007602452600a808404818106603090810160081b958390069590950190829004918206850160101b01602363ffffff0060e086901c160160181b0190930160c81b60445260e882901c90606490fd5b6183f78062000d8a83390190565b600080604083850312156200020f578182fd5b82516200021c816200023a565b60208401519092506200022f816200023a565b809150509250929050565b6001600160a01b03811681146200018a57600080fd5b60805160601c60a05160c05160601c60e051610100516101205160601c6101405160601c61016051610ac1620002c9600039806101ec52806102155250806102c052508061039b52508061034b5250806104915250806101c3528061050d5250806104b25250806101a252806104e95250610ac16000f3fe608060405234801561001057600080fd5b50600436106100a85760003560e01c80636c57f5a9116100715780636c57f5a914610121578063739238d61461012957806374dcc7a41461013e578063851c1bb3146101515780638d928af814610171578063aaabadc514610179576100a8565b8062c194db146100ad578063174481fa146100cb5780632da47c40146100e15780632f2770db146100f75780636634b75314610101575b600080fd5b6100b5610181565b6040516100c2919061098e565b60405180910390f35b6100d36101a0565b6040516100c2929190610941565b6100e96101e6565b6040516100c2929190610a68565b6100ff610250565b005b61011461010f3660046107c7565b610297565b6040516100c2919061095b565b6101146102b5565b6101316102be565b6040516100c2919061092d565b61013161014c366004610847565b6102e2565b61016461015f366004610803565b610347565b6040516100c29190610966565b610131610399565b6101316103bd565b606061019b60405180602001604052806000815250610489565b905090565b7f00000000000000000000000000000000000000000000000000000000000000007f00000000000000000000000000000000000000000000000000000000000000009091565b600080427f000000000000000000000000000000000000000000000000000000000000000081101561024257807f000000000000000000000000000000000000000000000000000000000000000003925062278d00915061024b565b60009250600091505b509091565b610258610562565b610260610593565b6001805460ff1916811790556040517f432acbfd662dbb5d8b378384a67159b47ca9d0f1b79f97cf64cf8585fa362d5090600090a1565b6001600160a01b031660009081526020819052604090205460ff1690565b60015460ff1690565b7f000000000000000000000000000000000000000000000000000000000000000090565b60008060006102ef6101e6565b915091506103386102fe610399565b8c8c8c8c8c8c8c8c8b8b336040516020016103249c9b9a999897969594939291906109e1565b6040516020818303038152906040526105a8565b9b9a5050505050505050505050565b60007f00000000000000000000000000000000000000000000000000000000000000008260405160200161037c929190610915565b604051602081830303815290604052805190602001209050919050565b7f000000000000000000000000000000000000000000000000000000000000000090565b60006103c7610399565b6001600160a01b031663aaabadc56040518163ffffffff1660e01b815260040160206040518083038186803b1580156103ff57600080fd5b505afa158015610413573d6000803e3d6000fd5b505050506040513d601f19601f8201168201806040525081019061019b919061082b565b80517f602038038060206000396000f3fefefefefefefefefefefefefefefefefefefe808352600091602081018484f090845291506104836001600160a01b03831615156101ac610611565b50919050565b8051604080517f00000000000000000000000000000000000000000000000000000000000000007f0000000000000000000000000000000000000000000000000000000000000000818101858101848101602090810190965280855293957f00000000000000000000000000000000000000000000000000000000000000009592947f000000000000000000000000000000000000000000000000000000000000000094938801866000828a3c846000888301883c5060208981019089850101610554818386610623565b505050505050505050919050565b60006105796000356001600160e01b031916610347565b90506105906105888233610661565b610191610611565b50565b6105a661059e6102b5565b1560d3610611565b565b60006105b2610593565b60006105bd836106f1565b6001600160a01b038116600081815260208190526040808220805460ff191660011790555192935090917f83a48fbcfc991335314e74d0496aab6a1987e992ddc85dddbcc4d6dd6ef2e9fc9190a292915050565b8161061f5761061f81610725565b5050565b5b60208110610643578151835260209283019290910190601f1901610624565b905182516020929092036101000a6000190180199091169116179052565b600061066b6103bd565b6001600160a01b0316639be2a8848484306040518463ffffffff1660e01b815260040161069a9392919061096f565b60206040518083038186803b1580156106b257600080fd5b505afa1580156106c6573d6000803e3d6000fd5b505050506040513d601f19601f820116820180604052508101906106ea91906107e3565b9392505050565b600060606106fe83610489565b905060008151602083016000f090506001600160a01b0381166106ea573d6000803e3d6000fd5b62461bcd60e51b600090815260206004526007602452600a808304818106603090810160081b83860601918390049283060160101b016642414c230000300160c81b604452610590916210905360ea1b906242414c90606490fd5b60008083601f840112610791578182fd5b50813567ffffffffffffffff8111156107a8578182fd5b6020830191508360208285010111156107c057600080fd5b9250929050565b6000602082840312156107d8578081fd5b81356106ea81610a76565b6000602082840312156107f4578081fd5b815180151581146106ea578182fd5b600060208284031215610814578081fd5b81356001600160e01b0319811681146106ea578182fd5b60006020828403121561083c578081fd5b81516106ea81610a76565b60008060008060008060008060c0898b031215610862578384fd5b883567ffffffffffffffff80821115610879578586fd5b6108858c838d01610780565b909a50985060208b013591508082111561089d578586fd5b506108aa8b828c01610780565b90975095505060408901356108be81610a76565b935060608901356108ce81610a76565b979a969950949793969295929450505060808201359160a0013590565b60008284528282602086013780602084860101526020601f19601f85011685010190509392505050565b9182526001600160e01b031916602082015260240190565b6001600160a01b0391909116815260200190565b6001600160a01b0392831681529116602082015260400190565b901515815260200190565b90815260200190565b9283526001600160a01b03918216602084015216604082015260600190565b6000602080835283518082850152825b818110156109ba5785810183015185820160400152820161099e565b818111156109cb5783604083870101525b50601f01601f1916929092016040019392505050565b6001600160a01b038d16815261014060208201819052600090610a079083018d8f6108eb565b8281036040840152610a1a818c8e6108eb565b6001600160a01b039a8b166060850152988a166080840152505060a081019590955260c085019390935260e08401919091526101008301529092166101209092019190915295945050505050565b918252602082015260400190565b6001600160a01b038116811461059057600080fdfea2646970667358221220c7fcc485404d2a416741b7e62b8285906a681084657d996065bce97e6d3eec5864736f6c634300070100336102e06040523480156200001257600080fd5b50604051620083f7380380620083f7833981016040819052620000359162000b88565b8960008a8a620000478b8b30620004d1565b6040805160038082526080820190925290602082016060803683370190505089898989828289898d85336001600160a01b031660001b8480604051806040016040528060018152602001603160f81b81525087878160039080519060200190620000b3929190620009f2565b508051620000c9906004906020840190620009f2565b50506005805460ff19166012179055508151602092830120608052805191012060a052507f8b73c3c69bb8fe3d512ecc4cf759cc79239f7b179b0ffacaa9a75d522b39400f60c05260e0526001600160601b0319606091821b81166101005291901b1661012052506200014790506276a700831115610194620005a0565b6200015b62278d00821115610195620005a0565b42909101610140819052016101605285516200017d906002111560c8620005a0565b620001976200018b620005b5565b8751111560c9620005a0565b620001ad86620005ba60201b620020ff1760201c565b620001b884620005c6565b6040516309b2760f60e01b81526000906001600160a01b038c16906309b2760f90620001e9908d9060040162000d51565b602060405180830381600087803b1580156200020457600080fd5b505af115801562000219573d6000803e3d6000fd5b505050506040513d601f19601f820116820180604052508101906200023f919062000b50565b604051633354e3e960e11b81529091506001600160a01b038c16906366a9c7d290620002749084908b908b9060040162000cb5565b600060405180830381600087803b1580156200028f57600080fd5b505af1158015620002a4573d6000803e3d6000fd5b505050508061018081815250508a6001600160a01b031663d2946c2b6040518163ffffffff1660e01b815260040160206040518083038186803b158015620002eb57600080fd5b505afa15801562000300573d6000803e3d6000fd5b505050506040513d601f19601f8201168201806040525081019062000326919062000b69565b6001600160a01b03166101a0816001600160a01b031660601b815250505050505050505050505050866001600160a01b03166101c0816001600160a01b031660601b81525050856001600160a01b03166101e0816001600160a01b031660601b8152505089600a60006101000a8154816001600160a01b0302191690836001600160a01b031602179055506000806000620003c98a8a306200065a60201b60201c565b6102608190526102808390526102a082905291945092509050620003ed8a62000750565b61020052620003fc8962000750565b610220526102408890526001600160601b0319606085901b166102c05260405184908b908b9030906200042f9062000a77565b6200043e949392919062000c8a565b604051809103906000f0801580156200045b573d6000803e3d6000fd5b50600980546001600160a01b0319166001600160a01b0392831617908190556040518c8316927f32e7b5e5c88bb4ec1dca71e1e00fc2444e236858d09faa9ddbb9d8c710549ecb92620004b6928d928f9216908a9062000d6f565b60405180910390a25050505050505050505050505062000db8565b606060008080620004e48787876200065a565b60408051600380825260808201909252939650919450925060208201606080368337019050509350868484815181106200051a57fe5b60200260200101906001600160a01b031690816001600160a01b031681525050858483815181106200054857fe5b60200260200101906001600160a01b031690816001600160a01b031681525050848482815181106200057657fe5b60200260200101906001600160a01b031690816001600160a01b0316815250505050509392505050565b81620005b157620005b18162000824565b5050565b600390565b80620005b18162000839565b620005df620005d4620008c5565b82101560cb620005a0565b620005f8620005ed620008ce565b82111560ca620005a0565b6200061a8160c0603f600854620008da60201b6200210917909392919060201c565b6008556040517fa9ba3ffe0b6c366b81232caab38605a0699ad5398d6cce76f91ee809e322dafc906200064f90839062000d66565b60405180910390a150565b6000806000846001600160a01b0316866001600160a01b03161015620006e357836001600160a01b0316856001600160a01b03161015620006a657506000915060019050600262000747565b836001600160a01b0316866001600160a01b03161015620006d257506000915060029050600162000747565b506001915060029050600062000747565b846001600160a01b0316846001600160a01b031610156200070f57506002915060019050600062000747565b856001600160a01b0316846001600160a01b031610156200073b57506002915060009050600162000747565b50600191506000905060025b93509350939050565b60006001600160a01b038216301415620007745750670de0b6b3a76400006200081f565b6000826001600160a01b031663313ce5676040518163ffffffff1660e01b815260040160206040518083038186803b158015620007b057600080fd5b505afa158015620007c5573d6000803e3d6000fd5b505050506040513d601f19601f82011682018060405250810190620007eb919062000c67565b60ff16905060006200080a601283620008ff60201b6200212c1760201c565b905080600a0a670de0b6b3a764000002925050505b919050565b62000836816210905360ea1b6200091c565b50565b6002815110156200084a5762000836565b6000816000815181106200085a57fe5b602002602001015190506000600190505b8251811015620008c05760008382815181106200088457fe5b60200260200101519050620008b5816001600160a01b0316846001600160a01b0316106065620005a060201b60201c565b91506001016200086b565b505050565b64e8d4a5100090565b67016345785d8a000090565b6000620008e98484846200097d565b506001901b60001901811b1992909216911b1790565b600062000911838311156001620005a0565b508082035b92915050565b62461bcd60e51b600090815260206004526007602452600a808404818106603090810160081b958390069590950190829004918206850160101b01602363ffffff0060e086901c160160181b0190930160c81b60445260e882901c90606490fd5b6200098e61010083106064620005a0565b620009c760018210158015620009bf5750620009bb60ff8461010003620009d860201b620021421760201c565b8211155b6064620005a0565b620008c083821c156101b4620005a0565b6000818310620009e95781620009eb565b825b9392505050565b828054600181600116156101000203166002900490600052602060002090601f016020900481019282601f1062000a3557805160ff191683800117855562000a65565b8280016001018555821562000a65579182015b8281111562000a6557825182559160200191906001019062000a48565b5062000a7392915062000a85565b5090565b6130b1806200534683390190565b5b8082111562000a73576000815560010162000a86565b8051620009168162000da2565b600082601f83011262000aba578081fd5b81516001600160401b038082111562000ad1578283fd5b6040516020601f8401601f191682018101838111838210171562000af3578586fd5b8060405250819450838252868185880101111562000b1057600080fd5b600092505b8383101562000b34578583018101518284018201529182019162000b15565b8383111562000b465760008185840101525b5050505092915050565b60006020828403121562000b62578081fd5b5051919050565b60006020828403121562000b7b578081fd5b8151620009eb8162000da2565b6000806000806000806000806000806101408b8d03121562000ba8578586fd5b62000bb48c8c62000a9c565b60208c0151909a506001600160401b038082111562000bd1578788fd5b62000bdf8e838f0162000aa9565b9a5060408d015191508082111562000bf5578788fd5b5062000c048d828e0162000aa9565b98505062000c168c60608d0162000a9c565b965062000c278c60808d0162000a9c565b955060a08b0151945060c08b0151935060e08b015192506101008b0151915062000c568c6101208d0162000a9c565b90509295989b9194979a5092959850565b60006020828403121562000c79578081fd5b815160ff81168114620009eb578182fd5b6001600160a01b03948516815292841660208401529083166040830152909116606082015260800190565b60006060820185835260206060818501528186518084526080860191508288019350845b8181101562000d015762000cee855162000d96565b8352938301939183019160010162000cd9565b505084810360408601528551808252908201925081860190845b8181101562000d435762000d30835162000d96565b8552938301939183019160010162000d1b565b509298975050505050505050565b602081016003831062000d6057fe5b91905290565b90815260200190565b9384526001600160a01b039283166020850152908216604084015216606082015260800190565b6001600160a01b031690565b6001600160a01b03811681146200083657600080fd5b60805160a05160c05160e0516101005160601c6101205160601c6101405161016051610180516101a05160601c6101c05160601c6101e05160601c61020051610220516102405161026051610280516102a0516102c05160601c61441562000f31600039806110815280612c2e5250806107b252806122425280612c9a5280612cf452508061086452806121dc5250806108e852806115805280611741528061177e52806117bc52806122975250806116495280611b2852508061103e528061226a5280612ccd52508061100a5280612204525080610582528061061852806107565280610b845280610c155280610fbf528061120552806116cc5280611bc65250806105c1528061065852806108085280610a155280610afb5280610c795280610ce752806111c6528061168d5280611a62525080611ed9525080611ab552508061249352508061246f525080611dc1525080611d9d525080611d27525080612d85525080612dc7525080612da652506144156000f3fe608060405234801561001057600080fd5b50600436106102535760003560e01c806370a0823111610146578063a457c2d7116100c3578063d2946c2b11610087578063d2946c2b14610499578063d505accf146104a1578063d5c096c4146104b4578063dd62ed3e146104c7578063ed24911d146104da578063fd19cac8146104e257610253565b8063a457c2d71461045b578063a9059cbb1461046e578063aaabadc514610481578063b35056b814610489578063b7b814fc1461049157610253565b806387ec68171161010a57806387ec68171461041d578063893d20e8146104305780638d928af81461043857806390193b7c1461044057806395d89b411461045357610253565b806370a08231146103bb57806374f3b009146103ce5780637ecebe00146103ef5780638456cb5914610402578063851c1bb31461040a57610253565b806338e9922e116101d457806350dd6ed91161019857806350dd6ed91461036f57806354a844ba1461038257806355c676281461038a5780636028bfd4146103925780636945c1fd146103b357610253565b806338e9922e1461032f57806338fff2d014610344578063395093511461034c5780633f4ba83a1461035f5780634d6d0fd01461036757610253565b80631dd746ea1161021b5780631dd746ea146102d557806323b872dd146102ea5780632541897f146102fd578063313ce567146103125780633644e5151461032757610253565b806301ec954a1461025857806306fdde0314610281578063095ea7b31461029657806318160ddd146102b65780631c0de051146102be575b600080fd5b61026b610266366004613a1b565b6104ea565b6040516102789190613ef3565b60405180910390f35b610289611901565b6040516102789190614037565b6102a96102a436600461376d565b611997565b6040516102789190613ed0565b61026b6119ae565b6102c66119b4565b60405161027893929190613edb565b6102dd6119dd565b6040516102789190613e8f565b6102a96102f83660046136bd565b6119ec565b610305611a60565b6040516102789190613e21565b61031a611a84565b6040516102789190614339565b61026b611a8d565b61034261033d366004613c1a565b611a97565b005b61026b611ab3565b6102a961035a36600461376d565b611ad7565b610342611b12565b61026b611b26565b61034261037d3660046138da565b611b4a565b610342611b68565b61026b611b7a565b6103a56103a03660046137d0565b611b8d565b604051610278929190614320565b610305611bc4565b61026b6103c9366004613669565b611be8565b6103e16103dc3660046137d0565b611c03565b604051610278929190613ea2565b61026b6103fd366004613669565b611d06565b610342611d11565b61026b610418366004613896565b611d23565b6103a561042b3660046137d0565b611d75565b610305611d9b565b610305611dbf565b61026b61044e366004613669565b611de3565b610289611dfe565b6102a961046936600461376d565b611e5f565b6102a961047c36600461376d565b611e9d565b610305611eaa565b6102a9611eb4565b610342611ec5565b610305611ed7565b6103426104af3660046136fd565b611efb565b6103e16104c23660046137d0565b611f86565b61026b6104d5366004613685565b6120a9565b61026b6120e6565b6103056120f0565b600084608001516105176104fc611dbf565b6001600160a01b0316336001600160a01b03161460cd61215a565b61052c610522611ab3565b82146101f461215a565b610534612168565b60008651600181111561054357fe5b148061055b575060018651600181111561055957fe5b145b6105805760405162461bcd60e51b815260040161057790614162565b60405180910390fd5b7f00000000000000000000000000000000000000000000000000000000000000006001600160a01b031686604001516001600160a01b031614806105f957507f00000000000000000000000000000000000000000000000000000000000000006001600160a01b031686604001516001600160a01b0316145b80610610575060408601516001600160a01b031630145b8061065057507f00000000000000000000000000000000000000000000000000000000000000006001600160a01b031686602001516001600160a01b0316145b8061069057507f00000000000000000000000000000000000000000000000000000000000000006001600160a01b031686602001516001600160a01b0316145b806106a7575060208601516001600160a01b031630145b6106c35760405162461bcd60e51b81526004016105779061404a565b60606106cd61217b565b90506106d986826122ee565b6106e1613530565b6000808080808c5160018111156106f457fe5b14156107255761071b8c60600151878c8151811061070e57fe5b602002602001015161235d565b60608d0152610754565b60018c51600181111561073457fe5b14156107545761074e8c60600151878b8151811061070e57fe5b60608d01525b7f00000000000000000000000000000000000000000000000000000000000000006001600160a01b03168c602001516001600160a01b03161480156107a5575060008c5160018111156107a357fe5b145b15610806578b606001518b7f0000000000000000000000000000000000000000000000000000000000000000815181106107db57fe5b602002602001015110156108015760405162461bcd60e51b8152600401610577906140e8565b610937565b7f00000000000000000000000000000000000000000000000000000000000000006001600160a01b03168c602001516001600160a01b0316148015610857575060008c51600181111561085557fe5b145b156108b3578b606001518b7f00000000000000000000000000000000000000000000000000000000000000008151811061088d57fe5b602002602001015110156108015760405162461bcd60e51b815260040161057790614188565b60208c01516001600160a01b0316301480156108db575060008c5160018111156108d957fe5b145b15610937578b606001518b7f00000000000000000000000000000000000000000000000000000000000000008151811061091157fe5b602002602001015110156109375760405162461bcd60e51b8152600401610577906140b1565b6101008c01515115611630578b610100015180602001905181019061095c9190613873565b909450925064131a5b5a5d60da1b91508361119057610979613547565b60095460c08e015160405163ca142f7560e01b81526001600160a01b039092169163ca142f75916109ae918890600401613e76565b60c06040518083038186803b1580156109c657600080fd5b505afa1580156109da573d6000803e3d6000fd5b505050506040513d601f19601f820116820180604052508101906109fe9190613bb4565b60095460c08f015182519293506001600160a01b037f000000000000000000000000000000000000000000000000000000000000000081169392811692635778472a92908216911614610a55578360400151610a5b565b83602001515b6040518263ffffffff1660e01b8152600401610a779190613ef3565b60a06040518083038186803b158015610a8f57600080fd5b505afa158015610aa3573d6000803e3d6000fd5b505050506040513d601f19601f82011682018060405250810190610ac79190613b3a565b602001516001600160a01b031614610aea576763757272656e637960c01b610af7565b67736563757269747960c01b5b92507f00000000000000000000000000000000000000000000000000000000000000006001600160a01b03168d604001516001600160a01b0316148015610b4a575060008d516001811115610b4857fe5b145b15610b8257806080015191508c606001518160a0015114610b7d5760405162461bcd60e51b81526004016105779061420f565b610c11565b7f00000000000000000000000000000000000000000000000000000000000000006001600160a01b03168d604001516001600160a01b0316148015610bd3575060008d516001811115610bd157fe5b145b15610c06578060a0015191508c60600151816080015114610b7d5760405162461bcd60e51b8152600401610577906141bf565b610c11610163612369565b60007f00000000000000000000000000000000000000000000000000000000000000006001600160a01b03168e604001516001600160a01b0316148015610c64575060208e01516001600160a01b031630145b15610c7757506314d95b1b60e21b610ce5565b7f00000000000000000000000000000000000000000000000000000000000000006001600160a01b03168e604001516001600160a01b0316148015610cc8575060208e01516001600160a01b031630145b15610cda57506242757960e81b610ce5565b610ce5610163612369565b7f00000000000000000000000000000000000000000000000000000000000000006001600160a01b03167fd6a806535ec4f172139ede2e9d6bbbe20957ca8a454fd40c9747fe139efe42478f60c001516001600160a01b031684600001516001600160a01b031614610d5b578360400151610d61565b83602001515b67736563757269747960c01b8714610dfc576009546040808701519051632bbc239560e11b81526001600160a01b0390921691635778472a91610da691600401613ef3565b60a06040518083038186803b158015610dbe57600080fd5b505afa158015610dd2573d6000803e3d6000fd5b505050506040513d601f19601f82011682018060405250810190610df69190613b3a565b51610e81565b6009546020860151604051632bbc239560e11b81526001600160a01b0390921691635778472a91610e2f91600401613ef3565b60a06040518083038186803b158015610e4757600080fd5b505afa158015610e5b573d6000803e3d6000fd5b505050506040513d601f19601f82011682018060405250810190610e7f9190613b3a565b515b6763757272656e637960c01b8814610f1c576009546040808801519051632bbc239560e11b81526001600160a01b0390921691635778472a91610ec691600401613ef3565b60a06040518083038186803b158015610ede57600080fd5b505afa158015610ef2573d6000803e3d6000fd5b505050506040513d601f19601f82011682018060405250810190610f169190613b3a565b51610fa1565b6009546020870151604051632bbc239560e11b81526001600160a01b0390921691635778472a91610f4f91600401613ef3565b60a06040518083038186803b158015610f6757600080fd5b505afa158015610f7b573d6000803e3d6000fd5b505050506040513d601f19601f82011682018060405250810190610f9f9190613b3a565b515b85610fbd88608001518960a0015161237990919063ffffffff16565b7f00000000000000000000000000000000000000000000000000000000000000008a8a60600151604051610ff8989796959493929190613f32565b60405180910390a261102e82608001517f00000000000000000000000000000000000000000000000000000000000000006123ca565b608083015260a0820151611062907f00000000000000000000000000000000000000000000000000000000000000006123ca565b60a08301526009546040516371eedc7f60e01b81526001600160a01b037f00000000000000000000000000000000000000000000000000000000000000008116926371eedc7f926110b992879216906004016142cf565b600060405180830381600087803b1580156110d357600080fd5b505af11580156110e7573d6000803e3d6000fd5b50505050600960009054906101000a90046001600160a01b03166001600160a01b031663d729cf6c8f60c00151876040518363ffffffff1660e01b8152600401611132929190613e76565b600060405180830381600087803b15801561114c57600080fd5b505af1158015611160573d6000803e3d6000fd5b5050505061118183898d8151811061117457fe5b60200260200101516123ca565b995050505050505050506118f8565b818414801561119e57508215155b156111bf57604080518082019091528060018152602001849052945061162b565b8261138d577f00000000000000000000000000000000000000000000000000000000000000006001600160a01b03168c604001516001600160a01b0316148061123d57507f00000000000000000000000000000000000000000000000000000000000000006001600160a01b03168c604001516001600160a01b0316145b8015611255575060208c01516001600160a01b031630145b801561126d575060008c51600181111561126b57fe5b145b1561137d5760095460c08d0151604051636b0d76bd60e11b81526001600160a01b039092169163d61aed7a916112a891889190600401613efc565b602060405180830381600087803b1580156112c257600080fd5b505af11580156112d6573d6000803e3d6000fd5b505050506040513d601f19601f820116820180604052508101906112fa91906137b8565b90508b60600151811461131f5760405162461bcd60e51b81526004016105779061411f565b6000805160206143c08339815191528c60c001518d602001518e604001518f6060015187428a6040516113589796959493929190613e35565b60405180910390a161137081878b8151811061117457fe5b97505050505050506118f8565b611388610163612369565b61162b565b82156116205760208c01516001600160a01b0316301480156113bb575060008c5160018111156113b957fe5b145b156114a257600960009054906101000a90046001600160a01b03166001600160a01b03166346764e5e85858f6040518463ffffffff1660e01b815260040161140593929190613ffa565b602060405180830381600087803b15801561141f57600080fd5b505af1158015611433573d6000803e3d6000fd5b505050506040513d601f19601f8201168201806040525081019061145791906137b8565b9050611467818d6060015161212c565b90506000805160206143c08339815191528c60c001518d602001518e604001518f6060015187428a6040516113589796959493929190613e35565b60408c01516001600160a01b0316301480156114ca575060008c5160018111156114c857fe5b145b1561137d57600960009054906101000a90046001600160a01b03166001600160a01b03166346764e5e85858f6040518463ffffffff1660e01b815260040161151493929190613ffa565b602060405180830381600087803b15801561152e57600080fd5b505af1158015611542573d6000803e3d6000fd5b505050506040513d601f19601f8201168201806040525081019061156691906137b8565b90506115768c60600151826123d6565b90508b606001518b7f0000000000000000000000000000000000000000000000000000000000000000815181106115a957fe5b602002602001015110156115cf5760405162461bcd60e51b81526004016105779061425f565b6000805160206143c08339815191528c60c001518d602001518e604001518487428a6040516116049796959493929190613e35565b60405180910390a16113708c60600151878b8151811061117457fe5b61162b610163612369565b611647565b604080518082019091526000808252602082015294505b7f00000000000000000000000000000000000000000000000000000000000000008c60600151101561168b5760405162461bcd60e51b81526004016105779061407a565b7f00000000000000000000000000000000000000000000000000000000000000006001600160a01b03168c602001516001600160a01b0316148061170457507f00000000000000000000000000000000000000000000000000000000000000006001600160a01b03168c602001516001600160a01b0316145b801561171c575060408c01516001600160a01b031630145b8015611734575060008c51600181111561173257fe5b145b1561188b578b606001518b7f00000000000000000000000000000000000000000000000000000000000000008151811061176a57fe5b6020026020010151111561187b576117b98b7f0000000000000000000000000000000000000000000000000000000000000000815181106117a757fe5b60200260200101518d6060015161212c565b8b7f0000000000000000000000000000000000000000000000000000000000000000815181106117e557fe5b6020908102919091010152600954604051635487e8cf60e01b81526001600160a01b0390911690635487e8cf90611822908f908990600401614296565b602060405180830381600087803b15801561183c57600080fd5b505af1158015611850573d6000803e3d6000fd5b505050506040513d601f19601f8201168201806040525081019061187491906137b8565b9150611886565b611886610201612369565b611896565b611896610163612369565b6000805160206143c08339815191528c60c001518d602001518e604001518f60600151896020015142886040516118d39796959493929190613e35565b60405180910390a16118ef8c60600151878b8151811061117457fe5b97505050505050505b50949350505050565b60038054604080516020601f600260001961010060018816150201909516949094049384018190048102820181019092528281526060939092909183018282801561198d5780601f106119625761010080835404028352916020019161198d565b820191906000526020600020905b81548152906001019060200180831161197057829003601f168201915b5050505050905090565b60006119a43384846123e8565b5060015b92915050565b60025490565b60008060006119c1612450565b1592506119cc61246d565b91506119d6612491565b9050909192565b60606119e761217b565b905090565b6000806119f985336120a9565b9050611a1d336001600160a01b0387161480611a155750838210155b61019e61215a565b611a288585856124b5565b336001600160a01b03861614801590611a4357506000198114155b15611a5557611a5585338584036123e8565b506001949350505050565b7f000000000000000000000000000000000000000000000000000000000000000090565b60055460ff1690565b60006119e76120e6565b611a9f612595565b611aa7612168565b611ab0816125c3565b50565b7f000000000000000000000000000000000000000000000000000000000000000090565b3360008181526001602090815260408083206001600160a01b038716845290915281205490916119a4918590611b0d90866123d6565b6123e8565b611b1a612595565b611b24600061263c565b565b7f000000000000000000000000000000000000000000000000000000000000000090565b611b52612595565b611b5a612168565b611b6482826126af565b5050565b611b70612595565b611b2460016127a4565b6008546000906119e79060c0603f6127fb565b60006060611ba38651611b9e61280a565b61280f565b611bb88989898989898961281c61286e6128d7565b97509795505050505050565b7f000000000000000000000000000000000000000000000000000000000000000090565b6001600160a01b031660009081526020819052604090205490565b60608088611c126104fc611dbf565b611c1d610522611ab3565b60606000611c2a86612a01565b15611c5257611c37612a30565b611c4989611c436119ae565b88612a43565b92509050611ca4565b611c5a612a6f565b6060611c6461217b565b9050611c708a826122ee565b611c948d8d8d8d8d611c80611eb4565b611c8a578d611c8d565b60005b878e61281c565b93509150611ca2838261286e565b505b611cae8b82612a77565b81895167ffffffffffffffff81118015611cc757600080fd5b50604051908082528060200260200182016040528015611cf1578160200160208202803683370190505b509450945050505b5097509795505050505050565b60006119a882611de3565b611d19612595565b611b24600161263c565b60007f000000000000000000000000000000000000000000000000000000000000000082604051602001611d58929190613dde565b604051602081830303815290604052805190602001209050919050565b60006060611d868651611b9e61280a565b611bb889898989898989612a81612a9d6128d7565b7f000000000000000000000000000000000000000000000000000000000000000090565b7f000000000000000000000000000000000000000000000000000000000000000090565b6001600160a01b031660009081526006602052604090205490565b60048054604080516020601f600260001961010060018816150201909516949094049384018190048102820181019092528281526060939092909183018282801561198d5780601f106119625761010080835404028352916020019161198d565b600080611e6c33856120a9565b9050808310611e8657611e81338560006123e8565b611e93565b611e9333858584036123e8565b5060019392505050565b60006119a43384846124b5565b60006119e7612b06565b6008546000906119e79060ff612b80565b611ecd612595565b611b2460006127a4565b7f000000000000000000000000000000000000000000000000000000000000000090565b60007f6e71edae12b1b97f4d1f60370fef10105fa2faae0126114a169c64845d6126c9888888611f2a8c611de3565b89604051602001611f4096959493929190613f79565b604051602081830303815290604052805190602001209050611f718882611f68878787612b8a565b886101f8612bc9565b611f7c8888886123e8565b5050505050505050565b60608088611f956104fc611dbf565b611fa0610522611ab3565b611fa8612a6f565b6060611fb261217b565b9050611fbc6119ae565b6120695760006060611fd18d8d8d868b612c20565b91509150611fea611fe0612d45565b83101560cc61215a565b611ffc6000611ff7612d45565b612d4c565b61200f8b612008612d45565b8403612d4c565b6120198184612a9d565b808a5167ffffffffffffffff8111801561203257600080fd5b5060405190808252806020026020018201604052801561205c578160200160208202803683370190505b5095509550505050611cf9565b61207388826122ee565b6000606061209b8d8d8d8d8d612087611eb4565b612091578d612094565b60005b898e612a81565b9150915061200f8b83612d4c565b60006120b3611dbf565b6001600160a01b0316826001600160a01b031614156120d557506000196119a8565b6120df8383612d56565b90506119a8565b60006119e7612d81565b6009546001600160a01b031681565b80611b6481612e1e565b6000612116848484612e9c565b506001901b60001901811b1992909216911b1790565b600061213c83831115600161215a565b50900390565b60008183106121515781612153565b825b9392505050565b81611b6457611b6481612369565b611b24612173612450565b61019261215a565b6060600061218761280a565b905060608167ffffffffffffffff811180156121a257600080fd5b506040519080825280602002602001820160405280156121cc578160200160208202803683370190505b50905060005b828110156122e7577f0000000000000000000000000000000000000000000000000000000000000000811415612240577f000000000000000000000000000000000000000000000000000000000000000082828151811061222f57fe5b6020026020010181815250506122df565b7f0000000000000000000000000000000000000000000000000000000000000000811415612295577f000000000000000000000000000000000000000000000000000000000000000082828151811061222f57fe5b7f00000000000000000000000000000000000000000000000000000000000000008114156122df57670de0b6b3a76400008282815181106122d257fe5b6020026020010181815250505b6001016121d2565b5091505090565b815181516122fd90829061280f565b60005b818110156123575761233884828151811061231757fe5b602002602001015184838151811061232b57fe5b6020026020010151612ee3565b84828151811061234457fe5b6020908102919091010152600101612300565b50505050565b60006121538383612ee3565b611ab0816210905360ea1b612f19565b6000612388821515600461215a565b82612395575060006119a8565b670de0b6b3a7640000838102906123b8908583816123af57fe5b0414600561215a565b8281816123c157fe5b049150506119a8565b60006121538383612379565b6000828201612153848210158361215a565b6001600160a01b0380841660008181526001602090815260408083209487168084529490915290819020849055517f8c5be1e5ebec7d5bd14f71427d1e84f3dd0314c0f7b2291e5b200ac8c7c3b92590612443908590613ef3565b60405180910390a3505050565b600061245a612491565b4211806119e757505060075460ff161590565b7f000000000000000000000000000000000000000000000000000000000000000090565b7f000000000000000000000000000000000000000000000000000000000000000090565b6124cc6001600160a01b038416151561019861215a565b6124e36001600160a01b038316151561019961215a565b6124ee838383612e97565b6001600160a01b03831660009081526020819052604090205461251490826101a0612f7a565b6001600160a01b03808516600090815260208190526040808220939093559084168152205461254390826123d6565b6001600160a01b0380841660008181526020819052604090819020939093559151908516907fddf252ad1be2c89b69c2b068fc378daa952ba7f163c4a11628f55a4df523b3ef90612443908590613ef3565b60006125ac6000356001600160e01b031916611d23565b9050611ab06125bb8233612f90565b61019161215a565b6125d86125ce613079565b82101560cb61215a565b6125ed6125e3613082565b82111560ca61215a565b6008546125fe908260c0603f612109565b6008556040517fa9ba3ffe0b6c366b81232caab38605a0699ad5398d6cce76f91ee809e322dafc90612631908390613ef3565b60405180910390a150565b801561265c5761265761264d61246d565b421061019361215a565b612671565b612671612667612491565b42106101a961215a565b6007805460ff19168215151790556040517f9e3a5e37224532dea67b89face185703738a228a6e8a23dee546960180d3be6490612631908390613ed0565b60006126b9611ab3565b905060006126c5611dbf565b6001600160a01b031663b05f8e4883866040518363ffffffff1660e01b81526004016126f2929190613efc565b60806040518083038186803b15801561270a57600080fd5b505afa15801561271e573d6000803e3d6000fd5b505050506040513d601f19601f820116820180604052508101906127429190613c32565b604051630639cdb560e21b81529094506001600160a01b03851693506318e736d49250612776915085908790600401613fd9565b600060405180830381600087803b15801561279057600080fd5b505af1158015611f7c573d6000803e3d6000fd5b6008546127b3908260ff61308e565b6008556040517feff3d4d215b42bf0960be9c6d5e05c22cba4df6627a3a523e2acee733b5854c8906127e6908390613ed0565b60405180910390a180611ab057611ab0611b24565b6001901b6000190191901c1690565b600390565b611b64818314606761215a565b60006060600061282b846130b5565b9050600181600181111561283b57fe5b146128505761284b610163612369565b612860565b61285a88856130cb565b90935091505b509850989650505050505050565b8151815161287d90829061280f565b60005b81811015612357576128b884828151811061289757fe5b60200260200101518483815181106128ab57fe5b6020026020010151612379565b8482815181106128c457fe5b6020908102919091010152600101612880565b333014612995576000306001600160a01b03166000366040516128fb929190613df6565b6000604051808303816000865af19150503d8060008114612938576040519150601f19603f3d011682016040523d82523d6000602084013e61293d565b606091505b50509050806000811461294c57fe5b60046000803e6000516001600160e01b0319166343adbafb60e01b8114612977573d6000803e3d6000fd5b506020600460003e604060205260243d03602460403e601c3d016000f35b61299d612a6f565b60606129a761217b565b90506129b387826122ee565b600060606129cb8c8c8c8c8c8c898d8d63ffffffff16565b915091506129dd81848663ffffffff16565b8051601f1982018390526343adbafb603f1983015260200260231982016044820181fd5b60008082511180156119a8575060ff801682806020019051810190612a269190613c72565b60ff161492915050565b611b24612a3b611eb4565b6101b661215a565b600060606000612a528461316e565b90506060612a61878784613184565b919791965090945050505050565b611b24612168565b611b648282613233565b60006060612a90610163612369565b9850989650505050505050565b81518151612aac90829061280f565b60005b8181101561235757612ae7848281518110612ac657fe5b6020026020010151848381518110612ada57fe5b60200260200101516132ff565b848281518110612af357fe5b6020908102919091010152600101612aaf565b6000612b10611dbf565b6001600160a01b031663aaabadc56040518163ffffffff1660e01b815260040160206040518083038186803b158015612b4857600080fd5b505afa158015612b5c573d6000803e3d6000fd5b505050506040513d601f19601f820116820180604052508101906119e791906138be565b1c60019081161490565b60408051604180825260808201909252606091829190602082018180368337019050509050836020820152826040820152846060820153949350505050565b6000612bd48561334d565b9050612bea612be4878387613369565b8361215a565b612bf9428410156101b861215a565b5050506001600160a01b039092166000908152600660205260409020805460010190555050565b60006060612c2c612168565b7f0000000000000000000000000000000000000000000000000000000000000000612c676001600160a01b038881169083161461015661215a565b612c87816001600160a01b0316876001600160a01b03161461015661215a565b6060612c9285613418565b9050612cf1817f000000000000000000000000000000000000000000000000000000000000000081518110612cc357fe5b60200260200101517f000000000000000000000000000000000000000000000000000000000000000061235d565b817f000000000000000000000000000000000000000000000000000000000000000081518110612d1d57fe5b60209081029190910101526dffffffffffffffffffffffffffff999098509650505050505050565b620f424090565b611b64828261342e565b6001600160a01b03918216600090815260016020908152604080832093909416825291909152205490565b60007f00000000000000000000000000000000000000000000000000000000000000007f00000000000000000000000000000000000000000000000000000000000000007f0000000000000000000000000000000000000000000000000000000000000000612dee6134c1565b30604051602001612e03959493929190613fad565b60405160208183030381529060405280519060200120905090565b600281511015612e2d57611ab0565b600081600081518110612e3c57fe5b602002602001015190506000600190505b8251811015612e97576000838281518110612e6457fe5b60200260200101519050612e8d816001600160a01b0316846001600160a01b031610606561215a565b9150600101612e4d565b505050565b612eab6101008310606461215a565b612ed460018210158015612ecd5750612ec960ff8461010003612142565b8211155b606461215a565b612e9783821c156101b461215a565b6000828202612f07841580612f00575083858381612efd57fe5b04145b600361215a565b670de0b6b3a764000090049392505050565b62461bcd60e51b600090815260206004526007602452600a808404818106603090810160081b958390069590950190829004918206850160101b01602363ffffff0060e086901c160160181b0190930160c81b60445260e882901c90606490fd5b6000612f89848411158361215a565b5050900390565b600073ba1ba1ba1ba1ba1ba1ba1ba1ba1ba1ba1ba1ba1b612faf611d9b565b6001600160a01b031614158015612fca5750612fca836134c5565b15612ff257612fd7611d9b565b6001600160a01b0316336001600160a01b03161490506119a8565b612ffa612b06565b6001600160a01b0316639be2a8848484306040518463ffffffff1660e01b815260040161302993929190613f13565b60206040518083038186803b15801561304157600080fd5b505afa158015613055573d6000803e3d6000fd5b505050506040513d601f19601f820116820180604052508101906120df9190613798565b64e8d4a5100090565b67016345785d8a000090565b60006001821b19841682846130a45760006130a7565b60015b60ff16901b17949350505050565b6000818060200190518101906119a89190613928565b6000606060006130da84613501565b90506060855167ffffffffffffffff811180156130f657600080fd5b50604051908082528060200260200182016040528015613120578160200160208202803683370190505b50905060005b86518110156131625786818151811061313b57fe5b602002602001015182828151811061314f57fe5b6020908102919091010152600101613126565b50909590945092505050565b6000818060200190518101906121539190613c8e565b606060006131928385612379565b9050845167ffffffffffffffff811180156131ac57600080fd5b506040519080825280602002602001820160405280156131d6578160200160208202803683370190505b50915060005b855181101561322a5761320b828783815181106131f557fe5b6020026020010151612ee390919063ffffffff16565b83828151811061321757fe5b60209081029190910101526001016131dc565b50509392505050565b61324a6001600160a01b038316151561019b61215a565b61325682600083612e97565b6001600160a01b03821660009081526020819052604090205461327c90826101b2612f7a565b6001600160a01b0383166000908152602081905260409020556132af6132aa826132a46119ae565b90613517565b613525565b60006001600160a01b0316826001600160a01b03167fddf252ad1be2c89b69c2b068fc378daa952ba7f163c4a11628f55a4df523b3ef836040516132f39190613ef3565b60405180910390a35050565b600061330e821515600461215a565b8261331b575060006119a8565b670de0b6b3a764000083810290613335908583816123af57fe5b82600182038161334157fe5b046001019150506119a8565b6000613357612d81565b82604051602001611d58929190613e06565b600061337b82516041146101b961215a565b60208281015160408085015160608601518251600080825295019283905292939092811a916001906133b4908990859088908890614019565b6020604051602081039080840390855afa1580156133d6573d6000803e3d6000fd5b5050604051601f1901519150506001600160a01b0381161580159061340c5750876001600160a01b0316816001600160a01b0316145b98975050505050505050565b6060818060200190518101906121539190613971565b61343a60008383612e97565b61344f6132aa826134496119ae565b906123d6565b6001600160a01b03821660009081526020819052604090205461347290826123d6565b6001600160a01b0383166000818152602081905260408082209390935591519091907fddf252ad1be2c89b69c2b068fc378daa952ba7f163c4a11628f55a4df523b3ef906132f3908590613ef3565b4690565b60006134d7631c74c91760e11b611d23565b8214806134f257506134ef6350dd6ed960e01b611d23565b82145b806119a857506119a88261352a565b6000818060200190518101906121539190613944565b600061215383836001612f7a565b600255565b50600090565b604080518082019091526000808252602082015290565b6040805160c081018252600080825260208201819052918101829052606081018290526080810182905260a081019190915290565b80356119a88161438e565b600082601f830112613597578081fd5b81356135aa6135a58261436e565b614347565b8181529150602080830190848101818402860182018710156135cb57600080fd5b60005b848110156135ea578135845292820192908201906001016135ce565b505050505092915050565b600082601f830112613605578081fd5b813567ffffffffffffffff81111561361b578182fd5b61362e601f8201601f1916602001614347565b915080825283602082850101111561364557600080fd5b8060208401602084013760009082016020015292915050565b80356119a8816143a3565b60006020828403121561367a578081fd5b81356121538161438e565b60008060408385031215613697578081fd5b82356136a28161438e565b915060208301356136b28161438e565b809150509250929050565b6000806000606084860312156136d1578081fd5b83356136dc8161438e565b925060208401356136ec8161438e565b929592945050506040919091013590565b600080600080600080600060e0888a031215613717578485fd5b87356137228161438e565b965060208801356137328161438e565b955060408801359450606088013593506080880135613750816143b0565b9699959850939692959460a0840135945060c09093013592915050565b6000806040838503121561377f578182fd5b823561378a8161438e565b946020939093013593505050565b6000602082840312156137a9578081fd5b81518015158114612153578182fd5b6000602082840312156137c9578081fd5b5051919050565b600080600080600080600060e0888a0312156137ea578081fd5b8735965060208801356137fc8161438e565b9550604088013561380c8161438e565b9450606088013567ffffffffffffffff80821115613828578283fd5b6138348b838c01613587565b955060808a0135945060a08a0135935060c08a0135915080821115613857578283fd5b506138648a828b016135f5565b91505092959891949750929550565b60008060408385031215613885578182fd5b505080516020909101519092909150565b6000602082840312156138a7578081fd5b81356001600160e01b031981168114612153578182fd5b6000602082840312156138cf578081fd5b81516121538161438e565b600080604083850312156138ec578182fd5b82356138f78161438e565b9150602083013567ffffffffffffffff811115613912578182fd5b61391e858286016135f5565b9150509250929050565b600060208284031215613939578081fd5b8151612153816143a3565b60008060408385031215613956578182fd5b8251613961816143a3565b6020939093015192949293505050565b60008060408385031215613983578182fd5b825160048110613991578283fd5b8092505060208084015167ffffffffffffffff8111156139af578283fd5b8401601f810186136139bf578283fd5b80516139cd6135a58261436e565b81815283810190838501858402850186018a10156139e9578687fd5b8694505b83851015613a0b5780518352600194909401939185019185016139ed565b5080955050505050509250929050565b60008060008060808587031215613a30578182fd5b843567ffffffffffffffff80821115613a47578384fd5b818701915061012080838a031215613a5d578485fd5b613a6681614347565b9050613a72898461365e565b8152613a81896020850161357c565b6020820152613a93896040850161357c565b6040820152606083013560608201526080830135608082015260a083013560a0820152613ac38960c0850161357c565b60c0820152613ad58960e0850161357c565b60e08201526101008084013583811115613aed578687fd5b613af98b8287016135f5565b828401525050809650506020870135915080821115613b16578384fd5b50613b2387828801613587565b949794965050505060408301359260600135919050565b600060a08284031215613b4b578081fd5b613b5560a0614347565b8251613b608161438e565b81526020830151613b708161438e565b6020820152604083015160038110613b86578283fd5b6040820152606083015160058110613b9c578283fd5b60608201526080928301519281019290925250919050565b600060c08284031215613bc5578081fd5b613bcf60c0614347565b8251613bda8161438e565b808252506020830151602082015260408301516040820152606083015160608201526080830151608082015260a083015160a08201528091505092915050565b600060208284031215613c2b578081fd5b5035919050565b60008060008060808587031215613c47578182fd5b8451935060208501519250604085015191506060850151613c678161438e565b939692955090935050565b600060208284031215613c83578081fd5b8151612153816143b0565b60008060408385031215613ca0578182fd5b8251613961816143b0565b6001600160a01b03169052565b6000815180845260208085019450808401835b83811015613ce757815187529582019590820190600101613ccb565b509495945050505050565b60008151808452815b81811015613d1757602081850181015186830182015201613cfb565b81811115613d285782602083870101525b50601f01601f19169290920160200192915050565b6000610120825160028110613d4e57fe5b808552506020830151613d646020860182613cab565b506040830151613d776040860182613cab565b50606083015160608501526080830151608085015260a083015160a085015260c0830151613da860c0860182613cab565b5060e0830151613dbb60e0860182613cab565b50610100808401518282870152613dd483870182613cf2565b9695505050505050565b9182526001600160e01b031916602082015260240190565b6000828483379101908152919050565b61190160f01b81526002810192909252602282015260420190565b6001600160a01b0391909116815260200190565b6001600160a01b03978816815295871660208701529390951660408501526060840191909152608083015260a082019290925260c081019190915260e00190565b6001600160a01b03929092168252602082015260400190565b6000602082526121536020830184613cb8565b600060408252613eb56040830185613cb8565b8281036020840152613ec78185613cb8565b95945050505050565b901515815260200190565b92151583526020830191909152604082015260600190565b90815260200190565b9182526001600160a01b0316602082015260400190565b9283526001600160a01b03918216602084015216604082015260600190565b9788526001600160a01b03968716602089015294861660408801526060870193909352608086019190915290921660a084015260c083019190915260e08201526101000190565b9586526001600160a01b0394851660208701529290931660408501526060840152608083019190915260a082015260c00190565b9485526020850193909352604084019190915260608301526001600160a01b0316608082015260a00190565b600083825260406020830152613ff26040830184613cf2565b949350505050565b600084825283602083015260606040830152613ec76060830184613d3d565b93845260ff9290921660208401526040830152606082015260800190565b6000602082526121536020830184613cf2565b602080825260169082015275496e76616c6964207377617070656420746f6b656e7360501b604082015260600190565b60208082526018908201527f4f726465722062656c6f77206d696e696d756d2073697a650000000000000000604082015260600190565b6020808252601f908201527f496e73756666696369656e7420706f6f6c20746f6b656e2062616c616e636500604082015260600190565b6020808252601d908201527f496e73756666696369656e742063757272656e63792062616c616e6365000000604082015260600190565b60208082526023908201527f496e73756666696369656e7420706f6f6c20746f6b656e7320737761707065646040820152621034b760e91b606082015260800190565b6020808252600c908201526b0496e76616c696420737761760a41b604082015260600190565b6020808252601d908201527f496e73756666696369656e742073656375726974792062616c616e6365000000604082015260600190565b60208082526030908201527f496e73756666696369656e7420706f6f6c20746f6b656e73207377617070656460408201526f20696e20666f722063757272656e637960801b606082015260800190565b60208082526030908201527f496e73756666696369656e7420706f6f6c20746f6b656e73207377617070656460408201526f20696e20666f7220736563757269747960801b606082015260800190565b6020808252601d908201527f494e53554646494349454e545f494e5445524e414c5f42414c414e4345000000604082015260600190565b6000606082526142a96060830185613d3d565b90508251600381106142b757fe5b80602084015250602083015160408301529392505050565b82516001600160a01b0390811682526020808501519083015260408085015190830152606080850151908301526080808501519083015260a09384015193820193909352911660c082015260e00190565b600083825260406020830152613ff26040830184613cb8565b60ff91909116815260200190565b60405181810167ffffffffffffffff8111828210171561436657600080fd5b604052919050565b600067ffffffffffffffff821115614384578081fd5b5060209081020190565b6001600160a01b0381168114611ab057600080fd5b60028110611ab057600080fd5b60ff81168114611ab057600080fdfe9b85ff671b830162b81f1cb1253d54a6fee66e6f9760fc15cfc3fecccca8f118a2646970667358221220190b202e10124328a92e5379c10a060054472398b42787411031f5b22979553f64736f6c63430007010033608060405260006005553480156200001657600080fd5b50604051620030b1380380620030b1833981016040819052620000399162000106565b620000443362000098565b600b80546001600160a01b039586166001600160a01b0319918216179091556009805494861694821694909417909355600a805492851692841692909217909155600c805491909316911617905562000166565b600080546001600160a01b038381166001600160a01b0319831681178455604051919092169283917f8be0079c531659141344cd1fd0a4f28419497f9722a3daafe3b4186f6b6457e09190a35050565b80516001600160a01b03811681146200010057600080fd5b92915050565b600080600080608085870312156200011c578384fd5b620001288686620000e8565b9350620001398660208701620000e8565b92506200014a8660408701620000e8565b91506200015b8660608701620000e8565b905092959194509250565b612f3b80620001766000396000f3fe608060405234801561001057600080fd5b50600436106101005760003560e01c80637ef9389011610097578063d61aed7a11610066578063d61aed7a146101f3578063d729cf6c14610206578063e43372e914610219578063f2fde38b1461022157610100565b80637ef93890146101a557806381b5da1d146101b85780638da5cb5b146101cb578063ca142f75146101d357610100565b80635487e8cf116100d35780635487e8cf146101605780635778472a146101735780636945c1fd14610193578063715018a61461019b57610100565b80632541897f1461010557806338fff2d01461012357806346764e5e1461013857806346b8b7301461014b575b600080fd5b61010d610234565b60405161011a9190612c90565b60405180910390f35b61012b610243565b60405161011a9190612ce8565b61012b610146366004612b92565b6102d2565b610153610455565b60405161011a9190612ca4565b61012b61016e366004612bf4565b61054a565b610186610181366004612b08565b610740565b60405161011a9190612e26565b61010d610857565b6101a3610866565b005b6101a36101b3366004612be0565b61087e565b6101a36101c6366004612b67565b610955565b61010d610a81565b6101e66101e1366004612add565b610a90565b60405161011a9190612e81565b61012b610201366004612b38565b610b51565b6101a3610214366004612add565b610c5c565b610153610cfb565b6101a361022f366004612ac1565b610d5c565b6009546001600160a01b031690565b600080600c60009054906101000a90046001600160a01b03166001600160a01b03166338fff2d06040518163ffffffff1660e01b815260040160206040518083038186803b15801561029457600080fd5b505afa1580156102a8573d6000803e3d6000fd5b505050506040513d601f19601f820116820180604052508101906102cc9190612b20565b91505090565b60006102f2336102e0610a81565b6001600160a01b0316146101aa610d8b565b6002600085815260066020526040902060010154600160a81b900460ff16600481111561031b57fe5b146103415760405162461bcd60e51b815260040161033890612db8565b60405180910390fd5b60c08201516000858152600660205260409020546001600160a01b0390811691161461037f5760405162461bcd60e51b815260040161033890612d81565b60095460008581526006602052604081206001015490916001600160a01b039182169116146103af5760016103b2565b60005b90506103bf848683610d9d565b6000858152600660209081526040909120600201546009549185015190916001600160a01b03918216911614806104085750600a5460208501516001600160a01b039081169116145b156104325761041b846060015182610e3d565b60008781526006602052604090206002015561044a565b60608401516000878152600660205260409020600201555b9150505b9392505050565b600354606090819067ffffffffffffffff8111801561047357600080fd5b5060405190808252806020026020018201604052801561049d578160200160208202803683370190505b5090506000805b60035481101561054257336001600160a01b031660066000600384815481106104c957fe5b600091825260208083206001600290930201919091015483528201929092526040019020546001600160a01b0316141561053a576003818154811061050a57fe5b90600052602060002090600202016001015483838151811061052857fe5b60209081029190910101526001909101905b6001016104a4565b509091505090565b6000610558336102e0610a81565b60008251600281111561056757fe5b148061057f575060018251600281111561057d57fe5b145b61058857600080fd5b6005544214610597574261059e565b6005546001015b600581905560c08401516040516000926105bb9291602001612c6e565b6040516020818303038152906040528051906020012090506105db6128fe565b6040518060a001604052808660c001516001600160a01b0316815260200186602001516001600160a01b031681526020018560000151600281111561061c57fe5b8152602001600281526060870151602091820152600084815260068252604090819020835181546001600160a01b03199081166001600160a01b03928316178355938501516001830180549095169116178084559184015193945084939092909160ff60a01b1916600160a01b83600281111561069557fe5b0217905550606082015160018201805460ff60a81b1916600160a81b8360048111156106bd57fe5b02179055506080919091015160029091015560095460208201516001600160a01b03908116911614156106fd576106f8846020015183610e4f565b610726565b600a5460208201516001600160a01b039081169116141561072657610726846020015183611068565b6107358282866020015161127d565b925050505b92915050565b6107486128fe565b610750610a81565b6001600160a01b0316336001600160a01b031614806107795750600b546001600160a01b031633145b8061079a57506000828152600660205260409020546001600160a01b031633145b6107b65760405162461bcd60e51b815260040161033890612d1d565b600082815260066020908152604091829020825160a08101845281546001600160a01b03908116825260018301549081169382019390935292909190830190600160a01b900460ff16600281111561080a57fe5b600281111561081557fe5b81526020016001820160159054906101000a900460ff16600481111561083757fe5b600481111561084257fe5b81526020016002820154815250509050919050565b600a546001600160a01b031690565b610872336102e0610a81565b61087c60006118d3565b565b600b546001600160a01b03163314806108af575061089a610a81565b6001600160a01b0316336001600160a01b0316145b6108cb5760405162461bcd60e51b815260040161033890612d54565b600083815260066020526040902060028101805484019055600101805460ff60a81b1916600160a91b17908190556009546001600160a01b039182169116141561091e576109198184610e4f565b610950565b600a546000848152600660205260409020600101546001600160a01b0390811691161415610950576109508184611068565b505050565b600b546001600160a01b03163314806109865750610971610a81565b6001600160a01b0316336001600160a01b0316145b6109a25760405162461bcd60e51b815260040161033890612d54565b600092835260066020908152604080852080546001600160a01b03199081168255600180830180546001600160b01b031990811690915560028085018a9055978952848920805484168155808301805490921690915580880189905592546001600160a01b0390811689526007808752858a20888b528752858a208054851681558084018b9055808a018b905560038082018c905560048083018d905560059283018d905596549093168b52908752858a20978a5296909552928720805490911681559182018690559381018590559081018490559182018390550155565b6000546001600160a01b031690565b610a9861292d565b610aa0610a81565b6001600160a01b0316336001600160a01b03161480610ac75750336001600160a01b038416145b610ae35760405162461bcd60e51b815260040161033890612def565b506001600160a01b03918216600090815260076020908152604080832093835292815290829020825160c0810184528154909416845260018101549184019190915260028101549183019190915260038101546060830152600481015460808301526005015460a082015290565b6000610b5f336102e0610a81565b6002600084815260066020526040902060010154600160a81b900460ff166004811115610b8857fe5b14610ba55760405162461bcd60e51b815260040161033890612db8565b6000838152600660205260409020546001600160a01b03838116911614610bde5760405162461bcd60e51b815260040161033890612d81565b60095460008481526006602052604081206001015490916001600160a01b03918216911614610c0e576001610c11565b60005b9050610c1d8482611923565b505050600090815260066020526040812060028101805482546001600160a01b0319168355600190920180546001600160b01b03191690559190915590565b610c68336102e0610a81565b60005b6001600160a01b038316600090815260086020526040902054811015610950576001600160a01b0383166000908152600860205260409020805483919083908110610cb257fe5b90600052602060002001541415610cf3576001600160a01b0383166000908152600860205260409020805482908110610ce757fe5b60009182526020822001555b600101610c6b565b33600090815260086020908152604091829020805483518184028101840190945280845260609392830182828015610d5257602002820191906000526020600020905b815481526020019060010190808311610d3e575b5050505050905090565b610d68336102e0610a81565b610d7f6001600160a01b03821615156101ab610d8b565b610d88816118d3565b50565b81610d9957610d9981611a8f565b5050565b8015610dee57600082815260026020526040902054600180548592908110610dc157fe5b60009182526020808320600292830201939093558482529091526040902054610919576109196000611a9f565b600082815260046020526040902054600380548592908110610e0c57fe5b6000918252602080832060029092029091019290925583815260049091526040902054610950576109506000611c8d565b600082820161044e8482101583610d8b565b60408051808201909152828152602081018281526003805460018082018355600083815294517fc2575a0e9e593c00f959f8c92f12db2869c3395a3b0502d05e2516446f71f85b60029093029283015592517fc2575a0e9e593c00f959f8c92f12db2869c3395a3b0502d05e2516446f71f85c9091015554610ed091611e79565b90506000610ee18260026000611e8f565b90505b600082118015610f2f575060038281548110610efc57fe5b90600052602060002090600202016000015460038281548110610f1b57fe5b906000526020600020906002020160000154115b1561106257610f3c612962565b60038281548110610f4957fe5b906000526020600020906002020160405180604001604052908160008201548152602001600182015481525050905060038381548110610f8557fe5b906000526020600020906002020160038381548110610fa057fe5b90600052602060002090600202016000820154816000015560018201548160010155905050816004600060038681548110610fd757fe5b906000526020600020906002020160010154815260200190815260200160002081905550806003848154811061100957fe5b906000526020600020906002020160008201518160000155602082015181600101559050508260046000836020015181526020019081526020016000208190555081925061105a8360026000611e8f565b915050610ee4565b50505050565b6040805180820190915282815260208101828152600180548082018255600082815293517fb10e2d527612073b26eecdfd717e6a320cf44b4afac2b0732d9fcbe2b7fa0cf660029092029182015591517fb10e2d527612073b26eecdfd717e6a320cf44b4afac2b0732d9fcbe2b7fa0cf79092019190915580546110eb91611e79565b905060006110fc8260026000611e8f565b90505b60008211801561114a57506001828154811061111757fe5b9060005260206000209060020201600001546001828154811061113657fe5b906000526020600020906002020160000154105b1561106257611157612962565b6001828154811061116457fe5b9060005260206000209060020201604051806040016040529081600082015481526020016001820154815250509050600183815481106111a057fe5b9060005260206000209060020201600183815481106111bb57fe5b906000526020600020906002020160008201548160000155600182015481600101559050508160026000600186815481106111f257fe5b906000526020600020906002020160010154815260200190815260200160002081905550806001848154811061122457fe5b90600052602060002090600202016000820151816000015560208201518160010155905050826002600083602001518152602001908152602001600020819055508192506112758360026000611e8f565b9150506110ff565b60008060008080600080600060606112958c8b611eb7565b9092509050816112af578b9850505050505050505061044e565b600092505b80518310156118765760008184815181106112cb57fe5b60200260200101516020015190506112e16128fe565b600082815260066020908152604091829020825160a08101845281546001600160a01b03908116825260018301549081169382019390935292909190830190600160a01b900460ff16600281111561133557fe5b600281111561134057fe5b81526020016001820160159054906101000a900460ff16600481111561136257fe5b600481111561136d57fe5b815260200160028201548152505090508c6080015160001415611391575050611876565b8d8214806113ad57508c5181516001600160a01b039081169116145b806113c757506000816060015160048111156113c557fe5b145b156113d357505061186b565b8285815181106113df57fe5b60200260200101516000015160001480156113f857508b155b1561140457505061186b565b600a5460208201516001600160a01b039081169116148015611438575060095460208e01516001600160a01b039081169116145b801561148557508b83868151811061144c57fe5b60200260200101516000015110158061146357508b155b80611485575082858151811061147557fe5b6020026020010151600001516000145b156114d25782858151811061149657fe5b6020026020010151600001516000146114c6578285815181106114b557fe5b6020026020010151600001516114c8565b8b5b985081995061157a565b60095460208201516001600160a01b0390811691161480156115065750600a5460208e01516001600160a01b039081169116145b801561153157508b83868151811061151a57fe5b60200260200101516000015111158061153157508b155b1561157a5782858151811061154257fe5b6020026020010151600001516000146115725782858151811061156157fe5b602002602001015160000151611574565b8b5b98508197505b89156116f85760095460208e01516001600160a01b03908116911614156116f35760008a8152600660205260409020600201546115b7908a6121fe565b96508c6080015187106116975760808d015196506115d5878a61224f565b60008b81526006602052604090206002015460808f01519197506115f891611e79565b600660008c81526020019081526020016000206002018190555060008d6080018181525050600660008b815260200190815260200160002060020154600014611642576001611645565b60005b60008b8152600660205260409020600101805460ff60a81b1916600160a81b83600481111561167057fe5b0217905550600060608e01526116888e8b8989612285565b611692898b611068565b6116f3565b86156116f3576116a7878a61224f565b95506116b78d6080015188611e79565b60808e015260008a815260066020526040812060028101919091556001908101805460ff60a81b1916905560608e01526116f38e8b8989612285565b611868565b871561186857600a5460208e01516001600160a01b039081169116141561186857600088815260066020526040902060020154611735908a61224f565b95508c60800151861061180c5760808d01519550611753868a6121fe565b6000898152600660205260409020600201549097506117729088611e79565b600660008a81526020019081526020016000206002018190555060008d608001818152505060066000898152602001908152602001600020600201546000146117bc5760016117bf565b60005b6000898152600660205260409020600101805460ff60a81b1916600160a81b8360048111156117ea57fe5b0217905550600060608e01526118028e898989612285565b6116f38989610e4f565b85156118685761181c868a6121fe565b965061182c8d6080015187611e79565b60808e0152600088815260066020526040812060028101919091556001908101805460ff60a81b1916905560608e01526118688e898989612285565b50505b6001909201916112b4565b60008b60600151600481111561188857fe5b14156118c35760095460208c01516000916001600160a01b039182169116146118b25760016118b5565b60005b90506118c18d82611923565b505b50999a9950505050505050505050565b600080546001600160a01b038381166001600160a01b0319831681178455604051919092169283917f8be0079c531659141344cd1fd0a4f28419497f9722a3daafe3b4186f6b6457e09190a35050565b80156119dc5760008281526002602052604090205461194a57611944612577565b506119d7565b600180546119589082611e79565b8154811061196257fe5b9060005260206000209060020201600160026000858152602001908152602001600020548154811061199057fe5b600091825260209091208254600290920201908155600191820154908201558054806119b857fe5b6000828152602081206002600019909301928302018181556001015590555b610d99565b6000828152600460205260409020546119fd576119f76126bc565b50610d99565b60038054611a0c906001611e79565b81548110611a1657fe5b90600052602060002090600202016003600460008581526020019081526020016000205481548110611a4457fe5b6000918252602090912082546002909202019081556001918201549101556003805480611a6d57fe5b6000828152602081206002600019909301928302018181556001015590555050565b610d88816210905360ea1b6127f9565b60018054611aac91611e79565b611ab782600261285a565b1015610d88576000611aca82600261285a565b9050600060018281548110611adb57fe5b6000918252602082206002909102015491506001611af98482610e3d565b81548110611b0357fe5b906000526020600020906002020160000154905080821015611b2d57611b2a836001610e3d565b92505b60018381548110611b3a57fe5b90600052602060002090600202016000015460018581548110611b5957fe5b9060005260206000209060020201600001541115611b7957505050610d88565b611b81612962565b60018581548110611b8e57fe5b906000526020600020906002020160405180604001604052908160008201548152602001600182015481525050905060018481548110611bca57fe5b906000526020600020906002020160018681548110611be557fe5b90600052602060002090600202016000820154816000015560018201548160010155905050846002600060018781548110611c1c57fe5b9060005260206000209060020201600101548152602001908152602001600020819055508060018581548110611c4e57fe5b6000918252602080832084516002938402909101908155938101516001909401939093559282015181529190526040902083905550909150611a9f9050565b600354611c9b906001611e79565b611ca682600261285a565b1015610d88576000611cb982600261285a565b9050600060038281548110611cca57fe5b6000918252602082206002909102015491506003611ce9846001610e3d565b81548110611cf357fe5b906000526020600020906002020160000154905080821115611d1d57611d1a836001610e3d565b92505b60038381548110611d2a57fe5b90600052602060002090600202016000015460038581548110611d4957fe5b9060005260206000209060020201600001541015611d6957505050610d88565b611d71612962565b60038581548110611d7e57fe5b906000526020600020906002020160405180604001604052908160008201548152602001600182015481525050905060038481548110611dba57fe5b906000526020600020906002020160038681548110611dd557fe5b90600052602060002090600202016000820154816000015560018201548160010155905050846004600060038781548110611e0c57fe5b9060005260206000209060020201600101548152602001908152602001600020819055508060038581548110611e3e57fe5b60009182526020808320845160029093020191825592830151600190910155918101518252600490526040902083905550909150611c8d9050565b6000611e89838311156001610d8b565b50900390565b600081611ea557611ea08484612874565b611eaf565b611eaf8484612894565b949350505050565b6009546000838152600660205260408120600101549091606091839183916001600160a01b03908116911614611f405760035467ffffffffffffffff81118015611f0057600080fd5b50604051908082528060200260200182016040528015611f3a57816020015b611f27612962565b815260200190600190039081611f1f5790505b50611f95565b60015467ffffffffffffffff81118015611f5957600080fd5b50604051908082528060200260200182016040528015611f9357816020015b611f80612962565b815260200190600190039081611f785790505b505b600954600088815260066020526040812060010154929350916001600160a01b03908116911614156120d9575b600154156120d4576000611fd46128c7565b905080611fde5750855b8681108015611fec57508615155b15611ff757506120d4565b611fff612577565b83838151811061200b57fe5b602002602001018190525060008084848151811061202557fe5b6020026020010151600001511161203c5787612055565b83838151811061204857fe5b6020026020010151600001515b90506120a08561209b836006600089898151811061206f57fe5b6020026020010151602001518152602001908152602001600020600201546121fe90919063ffffffff16565b610e3d565b60008a81526006602052604090206002015490955085106120ca57509294509092506121f7915050565b5050600101611fc2565b6121f0565b600a546000888152600660205260409020600101546001600160a01b03908116911614156121f0575b600354158015906121225750856121176128ee565b111580612122575085155b156121f05760006121316128ee565b905061213b6126bc565b83838151811061214757fe5b6020026020010181905250806000146121775782828151811061216657fe5b602002602001015160000151612179565b865b90506121bf8461209b6006600087878151811061219257fe5b6020026020010151602001518152602001908152602001600020600201548461224f90919063ffffffff16565b60008981526006602052604090206002015490945084106121e7575091935091506121f79050565b50600101612102565b5090925090505b9250929050565b600061220d8215156004610d8b565b8261221a5750600061073a565b670de0b6b3a76400008381029061223d9085838161223457fe5b04146005610d8b565b82818161224657fe5b0491505061073a565b600082820261227384158061226c57508385838161226957fe5b04145b6003610d8b565b670de0b6b3a764000090049392505050565b600580546001019081905561229861292d565b6040518060c001604052806006600089815260200190815260200160002060000160009054906101000a90046001600160a01b03166001600160a01b031681526020018781526020018681526020018381526020018581526020018481525090508060076000600660008a815260200190815260200160002060000160009054906101000a90046001600160a01b03166001600160a01b03166001600160a01b03168152602001908152602001600020600084815260200190815260200160002060008201518160000160006101000a8154816001600160a01b0302191690836001600160a01b031602179055506020820151816001015560408201518160020155606082015181600301556080820151816004015560a0820151816005015590505080600760006006600089815260200190815260200160002060000160009054906101000a90046001600160a01b03166001600160a01b03166001600160a01b03168152602001908152602001600020600084815260200190815260200160002060008201518160000160006101000a8154816001600160a01b0302191690836001600160a01b031602179055506020820151816001015560408201518160020155606082015181600301556080820151816004015560a08201518160050155905050600860006006600089815260200190815260200160002060000160009054906101000a90046001600160a01b03166001600160a01b03166001600160a01b0316815260200190815260200160002081606001519080600181540180825580915050600190039060005260206000200160009091909190915055600860006006600088815260200190815260200160002060000160009054906101000a90046001600160a01b03166001600160a01b03166001600160a01b0316815260200190815260200160002081606001519080600181540180825580915050600190039060005260206000200160009091909190915055505050505050565b61257f612962565b60015461259e5760405162461bcd60e51b815260040161033890612cf1565b6125a6612962565b60016000815481106125b457fe5b906000526020600020906002020160405180604001604052908160008201548152602001600182015481525050905060016125f56001805490506001611e79565b815481106125ff57fe5b9060005260206000209060020201600160008154811061261b57fe5b90600052602060002090600202016000820154816000015560018201548160010155905050600060026000600160008154811061265457fe5b906000526020600020906002020160010154815260200190815260200160002081905550600180548061268357fe5b60008281526020812060026000199093019283020181815560019081018290559190925554156126b6576126b681611a9f565b50905090565b6126c4612962565b6003546126e35760405162461bcd60e51b815260040161033890612cf1565b6126eb612962565b60036000815481106126f957fe5b9060005260206000209060020201604051806040016040529081600082015481526020016001820154815250509050600361273a6003805490506001611e79565b8154811061274457fe5b9060005260206000209060020201600360008154811061276057fe5b90600052602060002090600202016000820154816000015560018201548160010155905050600060046000600360008154811061279957fe5b90600052602060002090600202016001015481526020019081526020016000208190555060038054806127c857fe5b6000828152602081206002600019909301928302018181556001018190559155600354156126b6576126b681611c8d565b62461bcd60e51b600090815260206004526007602452600a808404818106603090810160081b958390069590950190829004918206850160101b01602363ffffff0060e086901c160160181b0190930160c81b60445260e882901c90606490fd5b600082820261044e84158061226c57508385838161226957fe5b60006128838215156004610d8b565b81838161288c57fe5b049392505050565b60006128a38215156004610d8b565b826128b05750600061073a565b8160018403816128bc57fe5b04600101905061073a565b600060016000815481106128d757fe5b906000526020600020906002020160000154905090565b600060036000815481106128d757fe5b6040805160a0810182526000808252602082018190529091820190815260200160008152602001600081525090565b6040805160c081018252600080825260208201819052918101829052606081018290526080810182905260a081019190915290565b604080518082019091526000808252602082015290565b803561073a81612ef0565b600082601f830112612994578081fd5b813567ffffffffffffffff8111156129aa578182fd5b6129bd601f8201601f1916602001612ec9565b91508082528360208285010111156129d457600080fd5b8060208401602084013760009082016020015292915050565b80356002811061073a57600080fd5b6000610120808385031215612a0f578182fd5b612a1881612ec9565b915050612a2583836129ed565b8152612a348360208401612979565b6020820152612a468360408401612979565b6040820152606082013560608201526080820135608082015260a082013560a0820152612a768360c08401612979565b60c0820152612a888360e08401612979565b60e08201526101008083013567ffffffffffffffff811115612aa957600080fd5b612ab585828601612984565b82840152505092915050565b600060208284031215612ad2578081fd5b813561044e81612ef0565b60008060408385031215612aef578081fd5b8235612afa81612ef0565b946020939093013593505050565b600060208284031215612b19578081fd5b5035919050565b600060208284031215612b31578081fd5b5051919050565b60008060408385031215612b4a578182fd5b823591506020830135612b5c81612ef0565b809150509250929050565b600080600060608486031215612b7b578081fd5b505081359360208301359350604090920135919050565b600080600060608486031215612ba6578283fd5b8335925060208401359150604084013567ffffffffffffffff811115612bca578182fd5b612bd6868287016129fc565b9150509250925092565b600080600060608486031215612b7b578283fd5b6000808284036060811215612c07578283fd5b833567ffffffffffffffff811115612c1d578384fd5b612c29868287016129fc565b9350506040601f1982011215612c3d578182fd5b50612c486040612ec9565b602084013560038110612c59578283fd5b81526040939093013560208401525092909150565b60609290921b6bffffffffffffffffffffffff19168252601482015260340190565b6001600160a01b0391909116815260200190565b6020808252825182820181905260009190848201906040850190845b81811015612cdc57835183529284019291840191600101612cc0565b50909695505050505050565b90815260200190565b6020808252601290820152714f72646572626f6f6b20697320656d70747960701b604082015260600190565b6020808252601d908201527f556e617574686f72697a65642061636365737320746f206f7264657273000000604082015260600190565b602080825260139082015272556e617574686f72697a65642061636365737360681b604082015260600190565b6020808252601b908201527f53656e646572206973206e6f74206f726465722063726561746f720000000000604082015260600190565b60208082526017908201527f4f7264657220697320616c72656164792066696c6c6564000000000000000000604082015260600190565b6020808252601d908201527f556e617574686f72697a65642061636365737320746f20747261646573000000604082015260600190565b81516001600160a01b03908116825260208084015190911690820152604082015160a082019060038110612e5657fe5b6040830152606083015160058110612e6a57fe5b806060840152506080830151608083015292915050565b81516001600160a01b031681526020808301519082015260408083015190820152606080830151908201526080808301519082015260a0918201519181019190915260c00190565b60405181810167ffffffffffffffff81118282101715612ee857600080fd5b604052919050565b6001600160a01b0381168114610d8857600080fdfea26469706673582212202ce04916ef5ffea5508c15d9ff4e8a6a691ee898bd970d98534ab0d5745a5f9964736f6c63430007010033",
  "linkReferences": {},
  "deployedLinkReferences": {}
}