{
  "_format": "hh-sol-artifact-1",
  "contractName": "SecondaryIssuePool",
  "sourceName": "contracts/SecondaryIssuePool.sol",
  "abi": [
    {
      "inputs": [
        {
          "internalType": "contract IVault",
          "name": "vault",
          "type": "address"
        },
        {
          "internalType": "string",
          "name": "name",
          "type": "string"
        },
        {
          "internalType": "string",
          "name": "symbol",
          "type": "string"
        },
        {
          "internalType": "address",
          "name": "security",
          "type": "address"
        },
        {
          "internalType": "address",
          "name": "currency",
          "type": "address"
        },
        {
          "internalType": "uint256",
          "name": "maxSecurityOffered",
          "type": "uint256"
        },
        {
          "internalType": "uint256",
          "name": "tradeFeePercentage",
          "type": "uint256"
        },
        {
          "internalType": "uint256",
          "name": "pauseWindowDuration",
          "type": "uint256"
        },
        {
          "internalType": "uint256",
          "name": "bufferPeriodDuration",
          "type": "uint256"
        },
        {
          "internalType": "address",
          "name": "owner",
          "type": "address"
        }
      ],
      "stateMutability": "nonpayable",
      "type": "constructor"
    },
    {
      "anonymous": false,
      "inputs": [
        {
          "indexed": true,
          "internalType": "address",
          "name": "owner",
          "type": "address"
        },
        {
          "indexed": true,
          "internalType": "address",
          "name": "spender",
          "type": "address"
        },
        {
          "indexed": false,
          "internalType": "uint256",
          "name": "value",
          "type": "uint256"
        }
      ],
      "name": "Approval",
      "type": "event"
    },
    {
      "anonymous": false,
      "inputs": [
        {
          "indexed": false,
          "internalType": "uint256",
          "name": "bestUnfilledBid",
          "type": "uint256"
        },
        {
          "indexed": false,
          "internalType": "uint256",
          "name": "bestUnfilledOffer",
          "type": "uint256"
        }
      ],
      "name": "BestAvailableTrades",
      "type": "event"
    },
    {
      "anonymous": false,
      "inputs": [
        {
          "indexed": true,
          "internalType": "address",
          "name": "security",
          "type": "address"
        },
        {
          "indexed": false,
          "internalType": "uint256",
          "name": "secondaryOffer",
          "type": "uint256"
        },
        {
          "indexed": false,
          "internalType": "address",
          "name": "currency",
          "type": "address"
        },
        {
          "indexed": false,
          "internalType": "address",
          "name": "orderBook",
          "type": "address"
        }
      ],
      "name": "Offer",
      "type": "event"
    },
    {
      "anonymous": false,
      "inputs": [
        {
          "indexed": false,
          "internalType": "bool",
          "name": "paused",
          "type": "bool"
        }
      ],
      "name": "PausedStateChanged",
      "type": "event"
    },
    {
      "anonymous": false,
      "inputs": [
        {
          "indexed": false,
          "internalType": "bool",
          "name": "enabled",
          "type": "bool"
        }
      ],
      "name": "RecoveryModeStateChanged",
      "type": "event"
    },
    {
      "anonymous": false,
      "inputs": [
        {
          "indexed": false,
          "internalType": "uint256",
          "name": "swapFeePercentage",
          "type": "uint256"
        }
      ],
      "name": "SwapFeePercentageChanged",
      "type": "event"
    },
    {
      "anonymous": false,
      "inputs": [
        {
          "indexed": true,
          "internalType": "address",
          "name": "security",
          "type": "address"
        },
        {
          "indexed": false,
          "internalType": "address",
          "name": "party",
          "type": "address"
        },
        {
          "indexed": false,
          "internalType": "address",
          "name": "counterparty",
          "type": "address"
        },
        {
          "indexed": false,
          "internalType": "uint256",
          "name": "price",
          "type": "uint256"
        },
        {
          "indexed": false,
          "internalType": "uint256",
          "name": "askprice",
          "type": "uint256"
        },
        {
          "indexed": false,
          "internalType": "address",
          "name": "currency",
          "type": "address"
        },
        {
          "indexed": false,
          "internalType": "uint256",
          "name": "amount",
          "type": "uint256"
        },
        {
          "indexed": false,
          "internalType": "bytes32",
          "name": "status",
          "type": "bytes32"
        },
        {
          "indexed": false,
          "internalType": "uint256",
          "name": "executionDate",
          "type": "uint256"
        }
      ],
      "name": "TradeReport",
      "type": "event"
    },
    {
      "anonymous": false,
      "inputs": [
        {
          "indexed": true,
          "internalType": "address",
          "name": "from",
          "type": "address"
        },
        {
          "indexed": true,
          "internalType": "address",
          "name": "to",
          "type": "address"
        },
        {
          "indexed": false,
          "internalType": "uint256",
          "name": "value",
          "type": "uint256"
        }
      ],
      "name": "Transfer",
      "type": "event"
    },
    {
      "inputs": [],
      "name": "DOMAIN_SEPARATOR",
      "outputs": [
        {
          "internalType": "bytes32",
          "name": "",
          "type": "bytes32"
        }
      ],
      "stateMutability": "view",
      "type": "function"
    },
    {
      "inputs": [],
      "name": "_orderbook",
      "outputs": [
        {
          "internalType": "contract Orderbook",
          "name": "",
          "type": "address"
        }
      ],
      "stateMutability": "view",
      "type": "function"
    },
    {
      "inputs": [
        {
          "internalType": "address",
          "name": "owner",
          "type": "address"
        },
        {
          "internalType": "address",
          "name": "spender",
          "type": "address"
        }
      ],
      "name": "allowance",
      "outputs": [
        {
          "internalType": "uint256",
          "name": "",
          "type": "uint256"
        }
      ],
      "stateMutability": "view",
      "type": "function"
    },
    {
      "inputs": [
        {
          "internalType": "address",
          "name": "spender",
          "type": "address"
        },
        {
          "internalType": "uint256",
          "name": "amount",
          "type": "uint256"
        }
      ],
      "name": "approve",
      "outputs": [
        {
          "internalType": "bool",
          "name": "",
          "type": "bool"
        }
      ],
      "stateMutability": "nonpayable",
      "type": "function"
    },
    {
      "inputs": [
        {
          "internalType": "address",
          "name": "account",
          "type": "address"
        }
      ],
      "name": "balanceOf",
      "outputs": [
        {
          "internalType": "uint256",
          "name": "",
          "type": "uint256"
        }
      ],
      "stateMutability": "view",
      "type": "function"
    },
    {
      "inputs": [],
      "name": "decimals",
      "outputs": [
        {
          "internalType": "uint8",
          "name": "",
          "type": "uint8"
        }
      ],
      "stateMutability": "view",
      "type": "function"
    },
    {
      "inputs": [
        {
          "internalType": "address",
          "name": "spender",
          "type": "address"
        },
        {
          "internalType": "uint256",
          "name": "amount",
          "type": "uint256"
        }
      ],
      "name": "decreaseAllowance",
      "outputs": [
        {
          "internalType": "bool",
          "name": "",
          "type": "bool"
        }
      ],
      "stateMutability": "nonpayable",
      "type": "function"
    },
    {
      "inputs": [],
      "name": "disableRecoveryMode",
      "outputs": [],
      "stateMutability": "nonpayable",
      "type": "function"
    },
    {
      "inputs": [],
      "name": "enableRecoveryMode",
      "outputs": [],
      "stateMutability": "nonpayable",
      "type": "function"
    },
    {
      "inputs": [
        {
          "internalType": "bytes4",
          "name": "selector",
          "type": "bytes4"
        }
      ],
      "name": "getActionId",
      "outputs": [
        {
          "internalType": "bytes32",
          "name": "",
          "type": "bytes32"
        }
      ],
      "stateMutability": "view",
      "type": "function"
    },
    {
      "inputs": [],
      "name": "getAuthorizer",
      "outputs": [
        {
          "internalType": "contract IAuthorizer",
          "name": "",
          "type": "address"
        }
      ],
      "stateMutability": "view",
      "type": "function"
    },
    {
      "inputs": [],
      "name": "getCurrency",
      "outputs": [
        {
          "internalType": "address",
          "name": "",
          "type": "address"
        }
      ],
      "stateMutability": "view",
      "type": "function"
    },
    {
      "inputs": [],
      "name": "getDomainSeparator",
      "outputs": [
        {
          "internalType": "bytes32",
          "name": "",
          "type": "bytes32"
        }
      ],
      "stateMutability": "view",
      "type": "function"
    },
    {
      "inputs": [
        {
          "internalType": "address",
          "name": "account",
          "type": "address"
        }
      ],
      "name": "getNextNonce",
      "outputs": [
        {
          "internalType": "uint256",
          "name": "",
          "type": "uint256"
        }
      ],
      "stateMutability": "view",
      "type": "function"
    },
    {
      "inputs": [],
      "name": "getOrderbook",
      "outputs": [
        {
          "internalType": "contract Orderbook",
          "name": "",
          "type": "address"
        }
      ],
      "stateMutability": "view",
      "type": "function"
    },
    {
      "inputs": [],
      "name": "getOwner",
      "outputs": [
        {
          "internalType": "address",
          "name": "",
          "type": "address"
        }
      ],
      "stateMutability": "view",
      "type": "function"
    },
    {
      "inputs": [],
      "name": "getPausedState",
      "outputs": [
        {
          "internalType": "bool",
          "name": "paused",
          "type": "bool"
        },
        {
          "internalType": "uint256",
          "name": "pauseWindowEndTime",
          "type": "uint256"
        },
        {
          "internalType": "uint256",
          "name": "bufferPeriodEndTime",
          "type": "uint256"
        }
      ],
      "stateMutability": "view",
      "type": "function"
    },
    {
      "inputs": [],
      "name": "getPoolId",
      "outputs": [
        {
          "internalType": "bytes32",
          "name": "",
          "type": "bytes32"
        }
      ],
      "stateMutability": "view",
      "type": "function"
    },
    {
      "inputs": [],
      "name": "getProtocolFeesCollector",
      "outputs": [
        {
          "internalType": "contract IProtocolFeesCollector",
          "name": "",
          "type": "address"
        }
      ],
      "stateMutability": "view",
      "type": "function"
    },
    {
      "inputs": [],
      "name": "getScalingFactors",
      "outputs": [
        {
          "internalType": "uint256[]",
          "name": "",
          "type": "uint256[]"
        }
      ],
      "stateMutability": "view",
      "type": "function"
    },
    {
      "inputs": [],
      "name": "getSecurity",
      "outputs": [
        {
          "internalType": "address",
          "name": "",
          "type": "address"
        }
      ],
      "stateMutability": "view",
      "type": "function"
    },
    {
      "inputs": [],
      "name": "getSecurityOffered",
      "outputs": [
        {
          "internalType": "uint256",
          "name": "",
          "type": "uint256"
        }
      ],
      "stateMutability": "view",
      "type": "function"
    },
    {
      "inputs": [],
      "name": "getSwapFeePercentage",
      "outputs": [
        {
          "internalType": "uint256",
          "name": "",
          "type": "uint256"
        }
      ],
      "stateMutability": "view",
      "type": "function"
    },
    {
      "inputs": [],
      "name": "getVault",
      "outputs": [
        {
          "internalType": "contract IVault",
          "name": "",
          "type": "address"
        }
      ],
      "stateMutability": "view",
      "type": "function"
    },
    {
      "inputs": [],
      "name": "inRecoveryMode",
      "outputs": [
        {
          "internalType": "bool",
          "name": "",
          "type": "bool"
        }
      ],
      "stateMutability": "view",
      "type": "function"
    },
    {
      "inputs": [
        {
          "internalType": "address",
          "name": "spender",
          "type": "address"
        },
        {
          "internalType": "uint256",
          "name": "addedValue",
          "type": "uint256"
        }
      ],
      "name": "increaseAllowance",
      "outputs": [
        {
          "internalType": "bool",
          "name": "",
          "type": "bool"
        }
      ],
      "stateMutability": "nonpayable",
      "type": "function"
    },
    {
      "inputs": [],
      "name": "name",
      "outputs": [
        {
          "internalType": "string",
          "name": "",
          "type": "string"
        }
      ],
      "stateMutability": "view",
      "type": "function"
    },
    {
      "inputs": [
        {
          "internalType": "address",
          "name": "owner",
          "type": "address"
        }
      ],
      "name": "nonces",
      "outputs": [
        {
          "internalType": "uint256",
          "name": "",
          "type": "uint256"
        }
      ],
      "stateMutability": "view",
      "type": "function"
    },
    {
      "inputs": [
        {
          "internalType": "bytes32",
          "name": "poolId",
          "type": "bytes32"
        },
        {
          "internalType": "address",
          "name": "sender",
          "type": "address"
        },
        {
          "internalType": "address",
          "name": "recipient",
          "type": "address"
        },
        {
          "internalType": "uint256[]",
          "name": "balances",
          "type": "uint256[]"
        },
        {
          "internalType": "uint256",
          "name": "lastChangeBlock",
          "type": "uint256"
        },
        {
          "internalType": "uint256",
          "name": "protocolSwapFeePercentage",
          "type": "uint256"
        },
        {
          "internalType": "bytes",
          "name": "userData",
          "type": "bytes"
        }
      ],
      "name": "onExitPool",
      "outputs": [
        {
          "internalType": "uint256[]",
          "name": "",
          "type": "uint256[]"
        },
        {
          "internalType": "uint256[]",
          "name": "",
          "type": "uint256[]"
        }
      ],
      "stateMutability": "nonpayable",
      "type": "function"
    },
    {
      "inputs": [
        {
          "internalType": "bytes32",
          "name": "poolId",
          "type": "bytes32"
        },
        {
          "internalType": "address",
          "name": "sender",
          "type": "address"
        },
        {
          "internalType": "address",
          "name": "recipient",
          "type": "address"
        },
        {
          "internalType": "uint256[]",
          "name": "balances",
          "type": "uint256[]"
        },
        {
          "internalType": "uint256",
          "name": "lastChangeBlock",
          "type": "uint256"
        },
        {
          "internalType": "uint256",
          "name": "protocolSwapFeePercentage",
          "type": "uint256"
        },
        {
          "internalType": "bytes",
          "name": "userData",
          "type": "bytes"
        }
      ],
      "name": "onJoinPool",
      "outputs": [
        {
          "internalType": "uint256[]",
          "name": "",
          "type": "uint256[]"
        },
        {
          "internalType": "uint256[]",
          "name": "",
          "type": "uint256[]"
        }
      ],
      "stateMutability": "nonpayable",
      "type": "function"
    },
    {
      "inputs": [
        {
          "components": [
            {
              "internalType": "enum IVault.SwapKind",
              "name": "kind",
              "type": "uint8"
            },
            {
              "internalType": "contract IERC20",
              "name": "tokenIn",
              "type": "address"
            },
            {
              "internalType": "contract IERC20",
              "name": "tokenOut",
              "type": "address"
            },
            {
              "internalType": "uint256",
              "name": "amount",
              "type": "uint256"
            },
            {
              "internalType": "bytes32",
              "name": "poolId",
              "type": "bytes32"
            },
            {
              "internalType": "uint256",
              "name": "lastChangeBlock",
              "type": "uint256"
            },
            {
              "internalType": "address",
              "name": "from",
              "type": "address"
            },
            {
              "internalType": "address",
              "name": "to",
              "type": "address"
            },
            {
              "internalType": "bytes",
              "name": "userData",
              "type": "bytes"
            }
          ],
          "internalType": "struct IPoolSwapStructs.SwapRequest",
          "name": "request",
          "type": "tuple"
        },
        {
          "internalType": "uint256[]",
          "name": "balances",
          "type": "uint256[]"
        },
        {
          "internalType": "uint256",
          "name": "indexIn",
          "type": "uint256"
        },
        {
          "internalType": "uint256",
          "name": "indexOut",
          "type": "uint256"
        }
      ],
      "name": "onSwap",
      "outputs": [
        {
          "internalType": "uint256",
          "name": "",
          "type": "uint256"
        }
      ],
      "stateMutability": "nonpayable",
      "type": "function"
    },
    {
      "inputs": [],
      "name": "pause",
      "outputs": [],
      "stateMutability": "nonpayable",
      "type": "function"
    },
    {
      "inputs": [
        {
          "internalType": "address",
          "name": "owner",
          "type": "address"
        },
        {
          "internalType": "address",
          "name": "spender",
          "type": "address"
        },
        {
          "internalType": "uint256",
          "name": "value",
          "type": "uint256"
        },
        {
          "internalType": "uint256",
          "name": "deadline",
          "type": "uint256"
        },
        {
          "internalType": "uint8",
          "name": "v",
          "type": "uint8"
        },
        {
          "internalType": "bytes32",
          "name": "r",
          "type": "bytes32"
        },
        {
          "internalType": "bytes32",
          "name": "s",
          "type": "bytes32"
        }
      ],
      "name": "permit",
      "outputs": [],
      "stateMutability": "nonpayable",
      "type": "function"
    },
    {
      "inputs": [
        {
          "internalType": "bytes32",
          "name": "poolId",
          "type": "bytes32"
        },
        {
          "internalType": "address",
          "name": "sender",
          "type": "address"
        },
        {
          "internalType": "address",
          "name": "recipient",
          "type": "address"
        },
        {
          "internalType": "uint256[]",
          "name": "balances",
          "type": "uint256[]"
        },
        {
          "internalType": "uint256",
          "name": "lastChangeBlock",
          "type": "uint256"
        },
        {
          "internalType": "uint256",
          "name": "protocolSwapFeePercentage",
          "type": "uint256"
        },
        {
          "internalType": "bytes",
          "name": "userData",
          "type": "bytes"
        }
      ],
      "name": "queryExit",
      "outputs": [
        {
          "internalType": "uint256",
          "name": "bptIn",
          "type": "uint256"
        },
        {
          "internalType": "uint256[]",
          "name": "amountsOut",
          "type": "uint256[]"
        }
      ],
      "stateMutability": "view",
      "type": "function"
    },
    {
      "inputs": [
        {
          "internalType": "bytes32",
          "name": "poolId",
          "type": "bytes32"
        },
        {
          "internalType": "address",
          "name": "sender",
          "type": "address"
        },
        {
          "internalType": "address",
          "name": "recipient",
          "type": "address"
        },
        {
          "internalType": "uint256[]",
          "name": "balances",
          "type": "uint256[]"
        },
        {
          "internalType": "uint256",
          "name": "lastChangeBlock",
          "type": "uint256"
        },
        {
          "internalType": "uint256",
          "name": "protocolSwapFeePercentage",
          "type": "uint256"
        },
        {
          "internalType": "bytes",
          "name": "userData",
          "type": "bytes"
        }
      ],
      "name": "queryJoin",
      "outputs": [
        {
          "internalType": "uint256",
          "name": "bptOut",
          "type": "uint256"
        },
        {
          "internalType": "uint256[]",
          "name": "amountsIn",
          "type": "uint256[]"
        }
      ],
      "stateMutability": "view",
      "type": "function"
    },
    {
      "inputs": [
        {
          "internalType": "contract IERC20",
          "name": "token",
          "type": "address"
        },
        {
          "internalType": "bytes",
          "name": "poolConfig",
          "type": "bytes"
        }
      ],
      "name": "setAssetManagerPoolConfig",
      "outputs": [],
      "stateMutability": "nonpayable",
      "type": "function"
    },
    {
      "inputs": [
        {
          "internalType": "uint256",
          "name": "swapFeePercentage",
          "type": "uint256"
        }
      ],
      "name": "setSwapFeePercentage",
      "outputs": [],
      "stateMutability": "nonpayable",
      "type": "function"
    },
    {
      "inputs": [],
      "name": "symbol",
      "outputs": [
        {
          "internalType": "string",
          "name": "",
          "type": "string"
        }
      ],
      "stateMutability": "view",
      "type": "function"
    },
    {
      "inputs": [],
      "name": "totalSupply",
      "outputs": [
        {
          "internalType": "uint256",
          "name": "",
          "type": "uint256"
        }
      ],
      "stateMutability": "view",
      "type": "function"
    },
    {
      "inputs": [
        {
          "internalType": "address",
          "name": "recipient",
          "type": "address"
        },
        {
          "internalType": "uint256",
          "name": "amount",
          "type": "uint256"
        }
      ],
      "name": "transfer",
      "outputs": [
        {
          "internalType": "bool",
          "name": "",
          "type": "bool"
        }
      ],
      "stateMutability": "nonpayable",
      "type": "function"
    },
    {
      "inputs": [
        {
          "internalType": "address",
          "name": "sender",
          "type": "address"
        },
        {
          "internalType": "address",
          "name": "recipient",
          "type": "address"
        },
        {
          "internalType": "uint256",
          "name": "amount",
          "type": "uint256"
        }
      ],
      "name": "transferFrom",
      "outputs": [
        {
          "internalType": "bool",
          "name": "",
          "type": "bool"
        }
      ],
      "stateMutability": "nonpayable",
      "type": "function"
    },
    {
      "inputs": [],
      "name": "unpause",
      "outputs": [],
      "stateMutability": "nonpayable",
      "type": "function"
    }
  ],
  "bytecode": "0x6102206040523480156200001257600080fd5b506040516200992d3803806200992d833981016040819052620000359162000a93565b8960008a8a620000478b8b30620004c4565b6040805160038082526080820190925290602082016060803683370190505089898989828289898d85336001600160a01b031660001b8480604051806040016040528060018152602001603160f81b81525087878160039080519060200190620000b3929190620008f6565b508051620000c9906004906020840190620008f6565b50506005805460ff19166012179055508151602092830120608052805191012060a052507f8b73c3c69bb8fe3d512ecc4cf759cc79239f7b179b0ffacaa9a75d522b39400f60c05260e0526001600160601b0319606091821b81166101005291901b1661012052506200014790506276a70083111561019462000593565b6200015b62278d0082111561019562000593565b42909101610140819052016101605285516200017d906002111560c862000593565b620001976200018b620005a8565b8751111560c962000593565b620001ad86620005ad60201b62001c0c1760201c565b620001b884620005b9565b6040516309b2760f60e01b81526000906001600160a01b038c16906309b2760f90620001e9908d9060040162000c39565b602060405180830381600087803b1580156200020457600080fd5b505af115801562000219573d6000803e3d6000fd5b505050506040513d601f19601f820116820180604052508101906200023f919062000a54565b604051633354e3e960e11b81529091506001600160a01b038c16906366a9c7d290620002749084908b908b9060040162000b9d565b600060405180830381600087803b1580156200028f57600080fd5b505af1158015620002a4573d6000803e3d6000fd5b505050508061018081815250508a6001600160a01b031663d2946c2b6040518163ffffffff1660e01b815260040160206040518083038186803b158015620002eb57600080fd5b505afa15801562000300573d6000803e3d6000fd5b505050506040513d601f19601f8201168201806040525081019062000326919062000a6d565b6001600160a01b03166101a0816001600160a01b031660601b81525050505050505050505050505086600a60006101000a8154816001600160a01b0302191690836001600160a01b0316021790555085600b60006101000a8154816001600160a01b0302191690836001600160a01b031602179055506000806000620003b48a8a306200064d60201b60201c565b6101c08190526101e0839052610200829052600c8b9055600d8a9055600e80546001600160a01b0319166001600160a01b038981169190911791829055600a54600b546040519699509497509295509081169391811692169030906200041a906200097b565b62000429949392919062000b72565b604051809103906000f08015801562000446573d6000803e3d6000fd5b50600980546001600160a01b0319166001600160a01b039283161790819055600a54600c54600b54604051928516947f3ca60c442fe0a0eec00a4242bd76d6b93ec28f607f78e5b820a53f8538854bbb94620004a9949282169291169062000c57565b60405180910390a25050505050505050505050505062000c98565b606060008080620004d78787876200064d565b60408051600380825260808201909252939650919450925060208201606080368337019050509350868484815181106200050d57fe5b60200260200101906001600160a01b031690816001600160a01b031681525050858483815181106200053b57fe5b60200260200101906001600160a01b031690816001600160a01b031681525050848482815181106200056957fe5b60200260200101906001600160a01b031690816001600160a01b0316815250505050509392505050565b81620005a457620005a48162000743565b5050565b600390565b80620005a48162000758565b620005d2620005c7620007e4565b82101560cb62000593565b620005eb620005e0620007ed565b82111560ca62000593565b6200060d8160c0603f600854620007f960201b62001c1617909392919060201c565b6008556040517fa9ba3ffe0b6c366b81232caab38605a0699ad5398d6cce76f91ee809e322dafc906200064290839062000c4e565b60405180910390a150565b6000806000846001600160a01b0316866001600160a01b03161015620006d657836001600160a01b0316856001600160a01b03161015620006995750600091506001905060026200073a565b836001600160a01b0316866001600160a01b03161015620006c55750600091506002905060016200073a565b50600191506002905060006200073a565b846001600160a01b0316846001600160a01b03161015620007025750600291506001905060006200073a565b856001600160a01b0316846001600160a01b031610156200072e5750600291506000905060016200073a565b50600191506000905060025b93509350939050565b62000755816210905360ea1b6200081e565b50565b600281511015620007695762000755565b6000816000815181106200077957fe5b602002602001015190506000600190505b8251811015620007df576000838281518110620007a357fe5b60200260200101519050620007d4816001600160a01b0316846001600160a01b03161060656200059360201b60201c565b91506001016200078a565b505050565b64e8d4a5100090565b67016345785d8a000090565b6000620008088484846200087f565b506001901b60001901811b1992909216911b1790565b62461bcd60e51b600090815260206004526007602452600a808404818106603090810160081b958390069590950190829004918206850160101b01602363ffffff0060e086901c160160181b0190930160c81b60445260e882901c90606490fd5b620008906101008310606462000593565b620008c960018210158015620008c15750620008bd60ff8461010003620008da60201b62001c391760201c565b8211155b606462000593565b620007df83821c156101b462000593565b6000818310620008eb5781620008ed565b825b90505b92915050565b828054600181600116156101000203166002900490600052602060002090601f016020900481019282601f106200093957805160ff191683800117855562000969565b8280016001018555821562000969579182015b82811115620009695782518255916020019190600101906200094c565b506200097792915062000989565b5090565b614ba58062004d8883390190565b5b808211156200097757600081556001016200098a565b8051620008f08162000c82565b600082601f830112620009be578081fd5b81516001600160401b0380821115620009d5578283fd5b6040516020601f8401601f1916820181018381118382101715620009f7578586fd5b8060405250819450838252868185880101111562000a1457600080fd5b600092505b8383101562000a38578583018101518284018201529182019162000a19565b8383111562000a4a5760008185840101525b5050505092915050565b60006020828403121562000a66578081fd5b5051919050565b60006020828403121562000a7f578081fd5b815162000a8c8162000c82565b9392505050565b6000806000806000806000806000806101408b8d03121562000ab3578586fd5b62000abf8c8c620009a0565b60208c0151909a506001600160401b038082111562000adc578788fd5b62000aea8e838f01620009ad565b9a5060408d015191508082111562000b00578788fd5b5062000b0f8d828e01620009ad565b98505062000b218c60608d01620009a0565b965062000b328c60808d01620009a0565b955060a08b0151945060c08b0151935060e08b015192506101008b0151915062000b618c6101208d01620009a0565b90509295989b9194979a5092959850565b6001600160a01b03948516815292841660208401529083166040830152909116606082015260800190565b60006060820185835260206060818501528186518084526080860191508288019350845b8181101562000be95762000bd6855162000c76565b8352938301939183019160010162000bc1565b505084810360408601528551808252908201925081860190845b8181101562000c2b5762000c18835162000c76565b8552938301939183019160010162000c03565b509298975050505050505050565b602081016003831062000c4857fe5b91905290565b90815260200190565b9283526001600160a01b03918216602084015216604082015260600190565b6001600160a01b031690565b6001600160a01b03811681146200075557600080fd5b60805160a05160c05160e0516101005160601c6101205160601c6101405161016051610180516101a05160601c6101c0516101e0516102005161403e62000d4a600039806112b752806113ba5280611ce45250806112d952806113dc5280611ca3525080611d255280612cdc5250806119e65250806115e2525080611fed525080611fc95250806118b952508061189552508061181f5250806129675250806129a9525080612988525061403e6000f3fe608060405234801561001057600080fd5b50600436106102de5760003560e01c80637ecebe0011610186578063a9059cbb116100e3578063d2946c2b11610097578063dd62ed3e11610071578063dd62ed3e1461055a578063ed24911d1461056d578063fd19cac814610575576102de565b8063d2946c2b1461052c578063d505accf14610534578063d5c096c414610547576102de565b8063ab63c607116100c8578063ab63c60714610514578063b35056b81461051c578063b7b814fc14610524576102de565b8063a9059cbb146104f9578063aaabadc51461050c576102de565b80638d928af81161013a57806395c95a4f1161011f57806395c95a4f146104d657806395d89b41146104de578063a457c2d7146104e6576102de565b80638d928af8146104bb57806390193b7c146104c3576102de565b8063851c1bb31161016b578063851c1bb31461048d57806387ec6817146104a0578063893d20e8146104b3576102de565b80637ecebe00146104725780638456cb5914610485576102de565b806338e9922e1161023f57806354a844ba116101f35780636945c1fd116101cd5780636945c1fd1461043657806370a082311461043e57806374f3b00914610451576102de565b806354a844ba1461040557806355c676281461040d5780636028bfd414610415576102de565b8063395093511161022457806339509351146103d75780633f4ba83a146103ea57806350dd6ed9146103f2576102de565b806338e9922e146103ba57806338fff2d0146103cf576102de565b80631dd746ea116102965780632541897f1161027b5780632541897f14610388578063313ce5671461039d5780633644e515146103b2576102de565b80631dd746ea1461036057806323b872dd14610375576102de565b8063095ea7b3116102c7578063095ea7b31461032157806318160ddd146103415780631c0de05114610349576102de565b806301ec954a146102e357806306fdde031461030c575b600080fd5b6102f66102f1366004613715565b61057d565b6040516103039190613cc2565b60405180910390f35b610314611443565b6040516103039190613da0565b61033461032f36600461348f565b6114d9565b6040516103039190613c9f565b6102f66114f0565b6103516114f6565b60405161030393929190613caa565b61036861151f565b6040516103039190613c5e565b6103346103833660046133df565b61152e565b6103906115a2565b6040516103039190613bc7565b6103a56115b1565b6040516103039190613f32565b6102f66115ba565b6103cd6103c8366004613995565b6115c4565b005b6102f66115e0565b6103346103e536600461348f565b611604565b6103cd61163f565b6103cd6104003660046135d4565b611653565b6103cd611671565b6102f6611683565b6104286104233660046134d5565b611696565b604051610303929190613f0b565b6103906116cd565b6102f661044c36600461338b565b6116dc565b61046461045f3660046134d5565b6116fb565b604051610303929190613c71565b6102f661048036600461338b565b6117fe565b6103cd611809565b6102f661049b366004613578565b61181b565b6104286104ae3660046134d5565b61186d565b610390611893565b6103906118b7565b6102f66104d136600461338b565b6118db565b6102f66118f6565b6103146118fc565b6103346104f436600461348f565b61195d565b61033461050736600461348f565b61199b565b6103906119a8565b6103906119b2565b6103346119c1565b6103cd6119d2565b6103906119e4565b6103cd61054236600461341f565b611a08565b6104646105553660046134d5565b611a93565b6102f66105683660046133a7565b611bb6565b6102f6611bf3565b610390611bfd565b600084608001516105aa61058f6118b7565b6001600160a01b0316336001600160a01b03161460cd611c51565b6105bf6105b56115e0565b82146101f4611c51565b6105c7611c5f565b6000865160018111156105d657fe5b14806105ee57506001865160018111156105ec57fe5b145b61062d576040517f08c379a000000000000000000000000000000000000000000000000000000000815260040161062490613dea565b60405180910390fd5b600b5460408701516001600160a01b03908116911614806106605750600a5460408701516001600160a01b039081169116145b8061067d5750600b5460208701516001600160a01b039081169116145b8061069a5750600a5460208701516001600160a01b039081169116145b6106d0576040517f08c379a000000000000000000000000000000000000000000000000000000000815260040161062490613db3565b60606106da611c72565b90506106e46131b1565b600954604080517f53f203f500000000000000000000000000000000000000000000000000000000815281516001600160a01b03909316926353f203f592600480840193919291829003018186803b15801561073f57600080fd5b505afa158015610753573d6000803e3d6000fd5b505050506040513d601f19601f8201168201806040525081019061077791906139ad565b601055600f55610100880151511561115a576101008801516000906107a7906107a290836001611d5e565b611e19565b9050806110b2576000895160018111156107bd57fe5b1415610c3d57600a5460208a01516001600160a01b03908116911614806107f65750600b5460208a01516001600160a01b039081169116145b15610c38577f46e0a0a7795bd12697b9dd700b91e4107ad29200159ec5a317e5dfc3beaa94d9600f54601054604051610830929190613f24565b60405180910390a16108406131cc565b60095460c08b015160608c01516040517fca142f750000000000000000000000000000000000000000000000000000000081526001600160a01b039093169263ca142f7592610893929091600401613c45565b60006040518083038186803b1580156108ab57600080fd5b505afa1580156108bf573d6000803e3d6000fd5b505050506040513d6000823e601f3d908101601f191682016040526108e79190810190613834565b600a5460208c01519192506060916001600160a01b03908116911614610942576040518060400160405280600881526020017f63757272656e6379000000000000000000000000000000000000000000000000815250610979565b6040518060400160405280600881526020017f73656375726974790000000000000000000000000000000000000000000000008152505b905060008160405160200161098e9190613b23565b6040516020818303038152906040528051906020012083604001516040516020016109b99190613b23565b60405160208183030381529060405280519060200120146109df578261010001516109e5565b82606001515b90508261014001516001600160a01b03167f04ec9268d79829e6eefee872eb80e9989e49711450675408699333640db25749604051602001610a2690613b9e565b604051602081830303815290604052805190602001208560400151604051602001610a519190613b23565b6040516020818303038152906040528051906020012014610a7757846101200151610a7d565b84608001515b604051602001610a8c90613b75565b604051602081830303815290604052805190602001208660400151604051602001610ab79190613b23565b6040516020818303038152906040528051906020012014610add57856101200151610ae3565b85608001515b604051602001610af290613b75565b604051602081830303815290604052805190602001208760400151604051602001610b1d9190613b23565b6040516020818303038152906040528051906020012014610b4d57610100870151610b489086611ebb565b610b5c565b6060870151610b5c9086611ebb565b6101808801516101608901516101c08a0151604051610b819695949392918a91613bdb565b60405180910390a260095460c08d015160608e01516040517fd729cf6c0000000000000000000000000000000000000000000000000000000081526001600160a01b039093169263d729cf6c92610bdc929091600401613c45565b600060405180830381600087803b158015610bf657600080fd5b505af1158015610c0a573d6000803e3d6000fd5b50505050610c2b81878b81518110610c1e57fe5b6020026020010151611f0c565b975050505050505061143a565b6110ad565b600189516001811115610c4c57fe5b14156110ad57600a5460408a01516001600160a01b0390811691161480610c855750600b5460408a01516001600160a01b039081169116145b156110ad577f46e0a0a7795bd12697b9dd700b91e4107ad29200159ec5a317e5dfc3beaa94d9600f54601054604051610cbf929190613f24565b60405180910390a1610ccf6131cc565b60095460c08b015160608c01516040517fca142f750000000000000000000000000000000000000000000000000000000081526001600160a01b039093169263ca142f7592610d22929091600401613c45565b60006040518083038186803b158015610d3a57600080fd5b505afa158015610d4e573d6000803e3d6000fd5b505050506040513d6000823e601f3d908101601f19168201604052610d769190810190613834565b600a5460208c01519192506060916001600160a01b03908116911614610dd1576040518060400160405280600881526020017f63757272656e6379000000000000000000000000000000000000000000000000815250610e08565b6040518060400160405280600881526020017f73656375726974790000000000000000000000000000000000000000000000008152505b9050600081604051602001610e1d9190613b23565b604051602081830303815290604052805190602001208360400151604051602001610e489190613b23565b6040516020818303038152906040528051906020012014610e6e57826101000151610e74565b82606001515b90508261014001516001600160a01b03167f04ec9268d79829e6eefee872eb80e9989e49711450675408699333640db25749604051602001610eb590613b9e565b604051602081830303815290604052805190602001208560400151604051602001610ee09190613b23565b6040516020818303038152906040528051906020012014610f0657846101200151610f0c565b84608001515b604051602001610f1b90613b75565b604051602081830303815290604052805190602001208660400151604051602001610f469190613b23565b6040516020818303038152906040528051906020012014610f6c57856101200151610f72565b85608001515b604051602001610f8190613b75565b604051602081830303815290604052805190602001208760400151604051602001610fac9190613b23565b6040516020818303038152906040528051906020012014610fdc57610100870151610fd79086611ebb565b610feb565b6060870151610feb9086611ebb565b6101808801516101608901516101c08a01516040516110109695949392918a91613bdb565b60405180910390a260095460c08d015160608e01516040517fd729cf6c0000000000000000000000000000000000000000000000000000000081526001600160a01b039093169263d729cf6c9261106b929091600401613c45565b600060405180830381600087803b15801561108557600080fd5b505af1158015611099573d6000803e3d6000fd5b50505050610c2b81878c81518110610c1e57fe5b611154565b6101008901516000906110d2906110cd906001858101611d5e565b611f18565b905080158015906110e257508115155b15611152576040518060400160405280827f4c696d697400000000000000000000000000000000000000000000000000000014611120576002611123565b60015b600281111561112e57fe5b81526101008c0151805160209092019161114d916107a2918790611d5e565b905292505b505b506111c6565b600b5460208901516001600160a01b039081169116148061118d5750600a5460408901516001600160a01b039081169116145b156111ae5750604080518082019091526000815260105460208201526111c6565b506040805180820190915260008152600f5460208201525b6000885160018111156111d557fe5b1415611206576111fc88606001518388815181106111ef57fe5b6020026020010151611f36565b6060890152611235565b60018851600181111561121557fe5b14156112355761122f88606001518387815181106111ef57fe5b60608901525b600b5460408901516001600160a01b03908116911614806112685750600a5460208901516001600160a01b039081169116145b15611338576009546040517f8d357a090000000000000000000000000000000000000000000000000000000081526001600160a01b0390911690638d357a0990611301908b9085906001908d907f0000000000000000000000000000000000000000000000000000000000000000907f000000000000000000000000000000000000000000000000000000000000000090600401613e21565b600060405180830381600087803b15801561131b57600080fd5b505af115801561132f573d6000803e3d6000fd5b50505050611437565b600a5460408901516001600160a01b039081169116148061136b5750600b5460208901516001600160a01b039081169116145b15611437576009546040517f8d357a090000000000000000000000000000000000000000000000000000000081526001600160a01b0390911690638d357a0990611404908b9085906000908d907f0000000000000000000000000000000000000000000000000000000000000000907f000000000000000000000000000000000000000000000000000000000000000090600401613e21565b600060405180830381600087803b15801561141e57600080fd5b505af1158015611432573d6000803e3d6000fd5b505050505b50505b50949350505050565b60038054604080516020601f60026000196101006001881615020190951694909404938401819004810282018101909252828152606093909290918301828280156114cf5780601f106114a4576101008083540402835291602001916114cf565b820191906000526020600020905b8154815290600101906020018083116114b257829003601f168201915b5050505050905090565b60006114e6338484611f42565b5060015b92915050565b60025490565b6000806000611503611faa565b15925061150e611fc7565b9150611518611feb565b9050909192565b6060611529611c72565b905090565b60008061153b8533611bb6565b905061155f336001600160a01b03871614806115575750838210155b61019e611c51565b61156a85858561200f565b336001600160a01b0386161480159061158557506000198114155b15611597576115978533858403611f42565b506001949350505050565b600a546001600160a01b031690565b60055460ff1690565b6000611529611bf3565b6115cc6120ef565b6115d4611c5f565b6115dd81612135565b50565b7f000000000000000000000000000000000000000000000000000000000000000090565b3360008181526001602090815260408083206001600160a01b038716845290915281205490916114e691859061163a90866121ae565b611f42565b6116476120ef565b61165160006121c0565b565b61165b6120ef565b611663611c5f565b61166d8282612251565b5050565b6116796120ef565b611651600161235f565b6008546000906115299060c0603f6123b6565b600060606116ac86516116a76123c5565b6123ca565b6116c1898989898989896123d7612429612498565b97509795505050505050565b600b546001600160a01b031690565b6001600160a01b0381166000908152602081905260409020545b919050565b6060808861170a61058f6118b7565b6117156105b56115e0565b606060006117228661262f565b1561174a5761172f61265e565b6117418961173b6114f0565b88612671565b9250905061179c565b61175261269d565b606061175c611c72565b90506117688a826126a5565b61178c8d8d8d8d8d6117786119c1565b611782578d611785565b60005b878e6123d7565b9350915061179a8382612429565b505b6117a68b8261270e565b81895167ffffffffffffffff811180156117bf57600080fd5b506040519080825280602002602001820160405280156117e9578160200160208202803683370190505b509450945050505b5097509795505050505050565b60006114ea826118db565b6118116120ef565b61165160016121c0565b60007f000000000000000000000000000000000000000000000000000000000000000082604051602001611850929190613ae3565b604051602081830303815290604052805190602001209050919050565b6000606061187e86516116a76123c5565b6116c189898989898989612718612734612498565b7f000000000000000000000000000000000000000000000000000000000000000090565b7f000000000000000000000000000000000000000000000000000000000000000090565b6001600160a01b031660009081526006602052604090205490565b600c5490565b60048054604080516020601f60026000196101006001881615020190951694909404938401819004810282018101909252828152606093909290918301828280156114cf5780601f106114a4576101008083540402835291602001916114cf565b60008061196a3385611bb6565b90508083106119845761197f33856000611f42565b611991565b6119913385858403611f42565b5060019392505050565b60006114e633848461200f565b600061152961279d565b6009546001600160a01b031690565b6008546000906115299060ff612817565b6119da6120ef565b611651600061235f565b7f000000000000000000000000000000000000000000000000000000000000000090565b60007f6e71edae12b1b97f4d1f60370fef10105fa2faae0126114a169c64845d6126c9888888611a378c6118db565b89604051602001611a4d96959493929190613cea565b604051602081830303815290604052805190602001209050611a7e8882611a75878787612821565b886101f8612860565b611a89888888611f42565b5050505050505050565b60608088611aa261058f6118b7565b611aad6105b56115e0565b611ab561269d565b6060611abf611c72565b9050611ac96114f0565b611b765760006060611ade8d8d8d868b6128b7565b91509150611af7611aed612927565b83101560cc611c51565b611b096000611b04612927565b61292e565b611b1c8b611b15612927565b840361292e565b611b268184612734565b808a5167ffffffffffffffff81118015611b3f57600080fd5b50604051908082528060200260200182016040528015611b69578160200160208202803683370190505b50955095505050506117f1565b611b8088826126a5565b60006060611ba88d8d8d8d8d611b946119c1565b611b9e578d611ba1565b60005b898e612718565b91509150611b1c8b8361292e565b6000611bc06118b7565b6001600160a01b0316826001600160a01b03161415611be257506000196114ea565b611bec8383612938565b90506114ea565b6000611529612963565b6009546001600160a01b031681565b8061166d81612a00565b6000611c23848484612a7e565b506001901b60001901811b1992909216911b1790565b6000818310611c485781611c4a565b825b9392505050565b8161166d5761166d81612ac5565b611651611c6a611faa565b610192611c51565b60408051600380825260808201909252606091829190602082018380368337019050509050670de0b6b3a7640000817f000000000000000000000000000000000000000000000000000000000000000081518110611ccc57fe5b602002602001018181525050670de0b6b3a7640000817f000000000000000000000000000000000000000000000000000000000000000081518110611d0d57fe5b602002602001018181525050670de0b6b3a7640000817f000000000000000000000000000000000000000000000000000000000000000081518110611d4e57fe5b6020908102919091010152905090565b6060838184840367ffffffffffffffff81118015611d7b57600080fd5b506040519080825280601f01601f191660200182016040528015611da6576020820181803683370190505b509050845b84811015611e0f57828181518110611dbf57fe5b602001015160f81c60f81b8287830381518110611dd857fe5b60200101907effffffffffffffffffffffffffffffffffffffffffffffffffffffffffffff1916908160001a905350600101611dab565b5095945050505050565b600080828180805b8351811015611eb0576030848281518110611e3857fe5b016020015160f81c10801590611e6257506039848281518110611e5757fe5b016020015160f81c11155b15611ea3578291506030848281518110611e7857fe5b602001015160f81c60f81b60f81c60ff160383600a0201925082821115611e9e57600194505b611ea8565b600194505b600101611e21565b509095945050505050565b6000611eca8215156004611c51565b82611ed7575060006114ea565b670de0b6b3a764000083810290611efa90858381611ef157fe5b04146005611c51565b828181611f0357fe5b049150506114ea565b6000611c4a8383611ebb565b80516000908290611f2d5750600090506116f6565b50506020015190565b6000611c4a8383612aef565b6001600160a01b0380841660008181526001602090815260408083209487168084529490915290819020849055517f8c5be1e5ebec7d5bd14f71427d1e84f3dd0314c0f7b2291e5b200ac8c7c3b92590611f9d908590613cc2565b60405180910390a3505050565b6000611fb4611feb565b42118061152957505060075460ff161590565b7f000000000000000000000000000000000000000000000000000000000000000090565b7f000000000000000000000000000000000000000000000000000000000000000090565b6120266001600160a01b0384161515610198611c51565b61203d6001600160a01b0383161515610199611c51565b612048838383612a79565b6001600160a01b03831660009081526020819052604090205461206e90826101a0612b25565b6001600160a01b03808516600090815260208190526040808220939093559084168152205461209d90826121ae565b6001600160a01b0380841660008181526020819052604090819020939093559151908516907fddf252ad1be2c89b69c2b068fc378daa952ba7f163c4a11628f55a4df523b3ef90611f9d908590613cc2565b600061211e6000357fffffffff000000000000000000000000000000000000000000000000000000001661181b565b90506115dd61212d8233612b3b565b610191611c51565b61214a612140612c24565b82101560cb611c51565b61215f612155612c2d565b82111560ca611c51565b600854612170908260c0603f611c16565b6008556040517fa9ba3ffe0b6c366b81232caab38605a0699ad5398d6cce76f91ee809e322dafc906121a3908390613cc2565b60405180910390a150565b6000828201611c4a8482101583611c51565b80156121e0576121db6121d1611fc7565b4210610193611c51565b6121f5565b6121f56121eb611feb565b42106101a9611c51565b600780547fffffffffffffffffffffffffffffffffffffffffffffffffffffffffffffff00168215151790556040517f9e3a5e37224532dea67b89face185703738a228a6e8a23dee546960180d3be64906121a3908390613c9f565b600061225b6115e0565b905060006122676118b7565b6001600160a01b031663b05f8e4883866040518363ffffffff1660e01b8152600401612294929190613d6b565b60806040518083038186803b1580156122ac57600080fd5b505afa1580156122c0573d6000803e3d6000fd5b505050506040513d601f19601f820116820180604052508101906122e491906139d0565b6040517f18e736d40000000000000000000000000000000000000000000000000000000081529094506001600160a01b03851693506318e736d49250612331915085908790600401613d4a565b600060405180830381600087803b15801561234b57600080fd5b505af1158015611a89573d6000803e3d6000fd5b60085461236e908260ff612c39565b6008556040517feff3d4d215b42bf0960be9c6d5e05c22cba4df6627a3a523e2acee733b5854c8906123a1908390613c9f565b60405180910390a1806115dd576115dd611651565b6001901b6000190191901c1690565b600390565b61166d8183146067611c51565b6000606060006123e684612c60565b905060018160018111156123f657fe5b1461240b57612406610163612ac5565b61241b565b6124158885612c76565b90935091505b509850989650505050505050565b815181516124389082906123ca565b60005b818110156124925761247384828151811061245257fe5b602002602001015184838151811061246657fe5b6020026020010151611ebb565b84828151811061247f57fe5b602090810291909101015260010161243b565b50505050565b333014612587576000306001600160a01b03166000366040516124bc929190613b13565b6000604051808303816000865af19150503d80600081146124f9576040519150601f19603f3d011682016040523d82523d6000602084013e6124fe565b606091505b50509050806000811461250d57fe5b60046000803e6000517fffffffff00000000000000000000000000000000000000000000000000000000167f43adbafb000000000000000000000000000000000000000000000000000000008114612569573d6000803e3d6000fd5b506020600460003e604060205260243d03602460403e601c3d016000f35b61258f61269d565b6060612599611c72565b90506125a587826126a5565b600060606125bd8c8c8c8c8c8c898d8d63ffffffff16565b915091506125cf81848663ffffffff16565b8051601f1982018390526343adbafb7fffffffffffffffffffffffffffffffffffffffffffffffffffffffffffffffc08301526020027fffffffffffffffffffffffffffffffffffffffffffffffffffffffffffffffdc82016044820181fd5b60008082511180156114ea575060ff8016828060200190518101906126549190613a10565b60ff161492915050565b6116516126696119c1565b6101b6611c51565b60006060600061268084612d42565b9050606061268f878784612d58565b919791965090945050505050565b611651611c5f565b815181516126b49082906123ca565b60005b81811015612492576126ef8482815181106126ce57fe5b60200260200101518483815181106126e257fe5b6020026020010151612aef565b8482815181106126fb57fe5b60209081029190910101526001016126b7565b61166d8282612e07565b60006060612727610163612ac5565b9850989650505050505050565b815181516127439082906123ca565b60005b818110156124925761277e84828151811061275d57fe5b602002602001015184838151811061277157fe5b6020026020010151612ed3565b84828151811061278a57fe5b6020908102919091010152600101612746565b60006127a76118b7565b6001600160a01b031663aaabadc56040518163ffffffff1660e01b815260040160206040518083038186803b1580156127df57600080fd5b505afa1580156127f3573d6000803e3d6000fd5b505050506040513d601f19601f8201168201806040525081019061152991906135b8565b1c60019081161490565b60408051604180825260808201909252606091829190602082018180368337019050509050836020820152826040820152846060820153949350505050565b600061286b85612f21565b905061288161287b878387612f3d565b83611c51565b612890428410156101b8611c51565b5050506001600160a01b039092166000908152600660205260409020805460010190555050565b600060606128c3611c5f565b600e546128e0906001600160a01b03888116911614610156611c51565b600e546128fd906001600160a01b03878116911614610156611c51565b6dffffffffffffffffffffffffffff606061291785612fec565b9199919850909650505050505050565b620f424090565b61166d8282613002565b6001600160a01b03918216600090815260016020908152604080832093909416825291909152205490565b60007f00000000000000000000000000000000000000000000000000000000000000007f00000000000000000000000000000000000000000000000000000000000000007f00000000000000000000000000000000000000000000000000000000000000006129d0613095565b306040516020016129e5959493929190613d1e565b60405160208183030381529060405280519060200120905090565b600281511015612a0f576115dd565b600081600081518110612a1e57fe5b602002602001015190506000600190505b8251811015612a79576000838281518110612a4657fe5b60200260200101519050612a6f816001600160a01b0316846001600160a01b0316106065611c51565b9150600101612a2f565b505050565b612a8d61010083106064611c51565b612ab660018210158015612aaf5750612aab60ff8461010003611c39565b8211155b6064611c51565b612a7983821c156101b4611c51565b6115dd817f42414c0000000000000000000000000000000000000000000000000000000000613099565b6000828202612b13841580612b0c575083858381612b0957fe5b04145b6003611c51565b670de0b6b3a764000090049392505050565b6000612b348484111583611c51565b5050900390565b600073ba1ba1ba1ba1ba1ba1ba1ba1ba1ba1ba1ba1ba1b612b5a611893565b6001600160a01b031614158015612b755750612b7583613114565b15612b9d57612b82611893565b6001600160a01b0316336001600160a01b03161490506114ea565b612ba561279d565b6001600160a01b0316639be2a8848484306040518463ffffffff1660e01b8152600401612bd493929190613ccb565b60206040518083038186803b158015612bec57600080fd5b505afa158015612c00573d6000803e3d6000fd5b505050506040513d601f19601f82011682018060405250810190611bec91906134ba565b64e8d4a5100090565b67016345785d8a000090565b60006001821b1984168284612c4f576000612c52565b60015b60ff16901b17949350505050565b6000818060200190518101906114ea9190613622565b600060606000612c8584613182565b90506060855167ffffffffffffffff81118015612ca157600080fd5b50604051908082528060200260200182016040528015612ccb578160200160208202803683370190505b50905060005b8651811015612d36577f00000000000000000000000000000000000000000000000000000000000000008114612d2e57868181518110612d0d57fe5b6020026020010151828281518110612d2157fe5b6020026020010181815250505b600101612cd1565b50909590945092505050565b600081806020019051810190611c4a9190613a2c565b60606000612d668385611ebb565b9050845167ffffffffffffffff81118015612d8057600080fd5b50604051908082528060200260200182016040528015612daa578160200160208202803683370190505b50915060005b8551811015612dfe57612ddf82878381518110612dc957fe5b6020026020010151612aef90919063ffffffff16565b838281518110612deb57fe5b6020908102919091010152600101612db0565b50509392505050565b612e1e6001600160a01b038316151561019b611c51565b612e2a82600083612a79565b6001600160a01b038216600090815260208190526040902054612e5090826101b2612b25565b6001600160a01b038316600090815260208190526040902055612e83612e7e82612e786114f0565b90613198565b6131a6565b60006001600160a01b0316826001600160a01b03167fddf252ad1be2c89b69c2b068fc378daa952ba7f163c4a11628f55a4df523b3ef83604051612ec79190613cc2565b60405180910390a35050565b6000612ee28215156004611c51565b82612eef575060006114ea565b670de0b6b3a764000083810290612f0990858381611ef157fe5b826001820381612f1557fe5b046001019150506114ea565b6000612f2b612963565b82604051602001611850929190613b3f565b6000612f4f82516041146101b9611c51565b60208281015160408085015160608601518251600080825295019283905292939092811a91600190612f88908990859088908890613d82565b6020604051602081039080840390855afa158015612faa573d6000803e3d6000fd5b5050604051601f1901519150506001600160a01b03811615801590612fe05750876001600160a01b0316816001600160a01b0316145b98975050505050505050565b606081806020019051810190611c4a919061366b565b61300e60008383612a79565b613023612e7e8261301d6114f0565b906121ae565b6001600160a01b03821660009081526020819052604090205461304690826121ae565b6001600160a01b0383166000818152602081905260408082209390935591519091907fddf252ad1be2c89b69c2b068fc378daa952ba7f163c4a11628f55a4df523b3ef90612ec7908590613cc2565b4690565b7f08c379a000000000000000000000000000000000000000000000000000000000600090815260206004526007602452600a808404818106603090810160081b958390069590950190829004918206850160101b01602363ffffff0060e086901c160160181b0190930160c81b60445260e882901c90606490fd5b600061313f7f38e9922e0000000000000000000000000000000000000000000000000000000061181b565b82148061317357506131707f50dd6ed90000000000000000000000000000000000000000000000000000000061181b565b82145b806114ea57506114ea826131ab565b600081806020019051810190611c4a919061363e565b6000611c4a83836001612b25565b600255565b50600090565b604080518082019091528060005b8152602001600081525090565b604080516101e08101825260008082526020820181905260609282018390528282018190526080820181905260a0820181905260c0820181905260e082019290925261010081018290526101208101829052610140810182905261016081018290526101808101829052906101a08201906131bf565b80356114ea81613fd7565b80516114ea81613fd7565b600082601f830112613268578081fd5b813561327b61327682613f67565b613f40565b81815291506020808301908481018184028601820187101561329c57600080fd5b60005b848110156132bb5781358452928201929082019060010161329f565b505050505092915050565b805180151581146114ea57600080fd5b600082601f8301126132e6578081fd5b81356132f461327682613f87565b915080825283602082850101111561330b57600080fd5b8060208401602084013760009082016020015292915050565b8051600381106114ea57600080fd5b80356114ea81613fec565b600082601f83011261334e578081fd5b815161335c61327682613f87565b915080825283602082850101111561337357600080fd5b613384816020840160208601613fab565b5092915050565b60006020828403121561339c578081fd5b8135611c4a81613fd7565b600080604083850312156133b9578081fd5b82356133c481613fd7565b915060208301356133d481613fd7565b809150509250929050565b6000806000606084860312156133f3578081fd5b83356133fe81613fd7565b9250602084013561340e81613fd7565b929592945050506040919091013590565b600080600080600080600060e0888a031215613439578485fd5b873561344481613fd7565b9650602088013561345481613fd7565b95506040880135945060608801359350608088013561347281613ff9565b9699959850939692959460a0840135945060c09093013592915050565b600080604083850312156134a1578182fd5b82356134ac81613fd7565b946020939093013593505050565b6000602082840312156134cb578081fd5b611c4a83836132c6565b600080600080600080600060e0888a0312156134ef578081fd5b87359650602088013561350181613fd7565b9550604088013561351181613fd7565b9450606088013567ffffffffffffffff8082111561352d578283fd5b6135398b838c01613258565b955060808a0135945060a08a0135935060c08a013591508082111561355c578283fd5b506135698a828b016132d6565b91505092959891949750929550565b600060208284031215613589578081fd5b81357fffffffff0000000000000000000000000000000000000000000000000000000081168114611c4a578182fd5b6000602082840312156135c9578081fd5b8151611c4a81613fd7565b600080604083850312156135e6578182fd5b82356135f181613fd7565b9150602083013567ffffffffffffffff81111561360c578182fd5b613618858286016132d6565b9150509250929050565b600060208284031215613633578081fd5b8151611c4a81613fec565b60008060408385031215613650578182fd5b825161365b81613fec565b6020939093015192949293505050565b6000806040838503121561367d578182fd5b82516004811061368b578283fd5b8092505060208084015167ffffffffffffffff8111156136a9578283fd5b8401601f810186136136b9578283fd5b80516136c761327682613f67565b81815283810190838501858402850186018a10156136e3578687fd5b8694505b838510156137055780518352600194909401939185019185016136e7565b5080955050505050509250929050565b6000806000806080858703121561372a578182fd5b843567ffffffffffffffff80821115613741578384fd5b818701915061012080838a031215613757578485fd5b61376081613f40565b905061376c8984613333565b815261377b8960208501613242565b602082015261378d8960408501613242565b6040820152606083013560608201526080830135608082015260a083013560a08201526137bd8960c08501613242565b60c08201526137cf8960e08501613242565b60e082015261010080840135838111156137e7578687fd5b6137f38b8287016132d6565b828401525050809650506020870135915080821115613810578384fd5b5061381d87828801613258565b949794965050505060408301359260600135919050565b600060208284031215613845578081fd5b815167ffffffffffffffff8082111561385c578283fd5b81840191506101e0808387031215613872578384fd5b61387b81613f40565b90508251815261388e86602085016132c6565b60208201526040830151828111156138a4578485fd5b6138b08782860161333e565b604083015250606083015160608201526138cd866080850161324d565b608082015260a083015160a08201526138e98660c085016132c6565b60c082015260e0830151828111156138ff578485fd5b61390b8782860161333e565b60e0830152506101008381015190820152610120915061392d8683850161324d565b8282015261014091506139428683850161324d565b8282015261016091506139578683850161324d565b82820152610180915081830151828201526101a0915061397986838501613324565b918101919091526101c091820151918101919091529392505050565b6000602082840312156139a6578081fd5b5035919050565b600080604083850312156139bf578182fd5b505080516020909101519092909150565b600080600080608085870312156139e5578182fd5b8451935060208501519250604085015191506060850151613a0581613fd7565b939692955090935050565b600060208284031215613a21578081fd5b8151611c4a81613ff9565b60008060408385031215613a3e578182fd5b825161365b81613ff9565b6001600160a01b03169052565b6000815180845260208085019450808401835b83811015613a8557815187529582019590820190600101613a69565b509495945050505050565b60008151808452613aa8816020860160208601613fab565b601f01601f19169290920160200192915050565b60028110613ac657fe5b9052565b805160038110613ad657fe5b8252602090810151910152565b9182527fffffffff0000000000000000000000000000000000000000000000000000000016602082015260240190565b6000828483379101908152919050565b60008251613b35818460208701613fab565b9190910192915050565b7f190100000000000000000000000000000000000000000000000000000000000081526002810192909252602282015260420190565b7f63757272656e6379000000000000000000000000000000000000000000000000815260080190565b7f7365637572697479000000000000000000000000000000000000000000000000815260080190565b6001600160a01b0391909116815260200190565b6001600160a01b039788168152958716602087015260408601949094526060850192909252909316608083015260a08201929092527f50656e64696e670000000000000000000000000000000000000000000000000060c082015260e08101919091526101000190565b6001600160a01b03929092168252602082015260400190565b600060208252611c4a6020830184613a56565b600060408252613c846040830185613a56565b8281036020840152613c968185613a56565b95945050505050565b901515815260200190565b92151583526020830191909152604082015260600190565b90815260200190565b9283526001600160a01b03918216602084015216604082015260600190565b9586526001600160a01b0394851660208701529290931660408501526060840152608083019190915260a082015260c00190565b9485526020850193909352604084019190915260608301526001600160a01b0316608082015260a00190565b600083825260406020830152613d636040830184613a90565b949350505050565b9182526001600160a01b0316602082015260400190565b93845260ff9290921660208401526040830152606082015260800190565b600060208252611c4a6020830184613a90565b60208082526016908201527f496e76616c6964207377617070656420746f6b656e7300000000000000000000604082015260600190565b6020808252600c908201527f496e76616c696420737761700000000000000000000000000000000000000000604082015260600190565b600060e08252613e3560e083018951613abc565b6020880151610100613e4981850183613a49565b60408a01519150610120613e5f81860184613a49565b60608b015161014086015260808b015161016086015260a08b015161018086015260c08b01519250613e956101a0860184613a49565b60e08b01519250613eaa6101c0860184613a49565b818b01519250806101e08601525050613ec7610200840182613a90565b9050613ed66020840189613aca565b613ee36060840188613abc565b8281036080840152613ef58187613a56565b60a0840195909552505060c00152949350505050565b600083825260406020830152613d636040830184613a56565b918252602082015260400190565b60ff91909116815260200190565b60405181810167ffffffffffffffff81118282101715613f5f57600080fd5b604052919050565b600067ffffffffffffffff821115613f7d578081fd5b5060209081020190565b600067ffffffffffffffff821115613f9d578081fd5b50601f01601f191660200190565b60005b83811015613fc6578181015183820152602001613fae565b838111156124925750506000910152565b6001600160a01b03811681146115dd57600080fd5b600281106115dd57600080fd5b60ff811681146115dd57600080fdfea26469706673582212204cbddbb5ae2a7ed783be6c588ad92be76e49f1ac7ed0234b274d95bfddb1b51a64736f6c63430007010033608060405260006001553480156200001657600080fd5b5060405162004ba538038062004ba5833981016040819052620000399162000106565b620000443362000098565b601380546001600160a01b039586166001600160a01b031991821617909155601180549486169482169490941790935560128054928516928416929092179091556014805491909316911617905562000166565b600080546001600160a01b038381166001600160a01b0319831681178455604051919092169283917f8be0079c531659141344cd1fd0a4f28419497f9722a3daafe3b4186f6b6457e09190a35050565b80516001600160a01b03811681146200010057600080fd5b92915050565b600080600080608085870312156200011c578384fd5b620001288686620000e8565b9350620001398660208701620000e8565b92506200014a8660408701620000e8565b91506200015b8660608701620000e8565b905092959194509250565b614a2f80620001766000396000f3fe608060405234801561001057600080fd5b506004361061011b5760003560e01c80636945c1fd116100b25780638da5cb5b11610081578063d729cf6c11610066578063d729cf6c1461022a578063e43372e91461023d578063f2fde38b146102455761011b565b80638da5cb5b14610202578063ca142f751461020a5761011b565b80636945c1fd146101cc578063715018a6146101d45780637489ec23146101dc5780638d357a09146101ef5761011b565b806346b8b730116100ee57806346b8b7301461017b5780634c4d8209146101905780634d689270146101a357806353f203f5146101b65761011b565b80630c8605be1461012057806313ce4546146101355780632541897f1461014857806338fff2d014610166575b600080fd5b61013361012e3660046144e1565b610258565b005b610133610143366004614488565b6103e3565b610150610641565b60405161015d919061470f565b60405180910390f35b61016e610650565b60405161015d91906147c2565b6101836106df565b60405161015d9190614723565b61013361019e3660046144a9565b610740565b6101336101b1366004614488565b610821565b6101be610886565b60405161015d9291906149a2565b6101506108b3565b6101336108c2565b6101336101ea366004614458565b6108da565b6101336101fd36600461450c565b610af9565b610150611121565b61021d61021836600461442d565b611130565b60405161015d9190614870565b61013361023836600461442d565b6113be565b61018361145d565b61013361025336600461440a565b6114bc565b6002600084815260036020526040902060010154760100000000000000000000000000000000000000000000900460ff16600481111561029457fe5b146102d4576040517f08c379a00000000000000000000000000000000000000000000000000000000081526004016102cb90614802565b60405180910390fd5b6000838152600360205260409020600401546001600160a01b03163314610327576040517f08c379a00000000000000000000000000000000000000000000000000000000081526004016102cb906147cb565b60008381526003602052604090206005810183905560020181905560015b60008481526003602052604090206001015474010000000000000000000000000000000000000000900460ff16600281111561037d57fe5b14156103935761038e8360016114eb565b6103de565b600260008481526003602052604090206001015474010000000000000000000000000000000000000000900460ff1660028111156103cd57fe5b14156103de576103de83600261172d565b505050565b6013546001600160a01b031633146103fa57600080fd5b6000828152600360209081526040808320600401546001600160a01b03168352600582528083208584526006909252909120548154811061043757fe5b6000918252602080832090910182905583825260068082526040808420849055600380845281852080547fffffffffffffffffffffff0000000000000000000000000000000000000000001681556001810180547fffffffffffffffffff000000000000000000000000000000000000000000000016905560028082018790559181018690556004808201805473ffffffffffffffffffffffffffffffffffffffff1916905560058201879055938101869055600701859055919092529120548154811061050157fe5b600091825260208083209091018290558382526004808252604080842084905584845260038352808420909101546001600160a01b03168352600582528083208484526006909252909120548154811061055757fe5b6000918252602080832090910182905582825260068082526040808420849055600380845281852080547fffffffffffffffffffffff0000000000000000000000000000000000000000001681556001810180547fffffffffffffffffff000000000000000000000000000000000000000000000016905560028082018790559181018690556004808201805473ffffffffffffffffffffffffffffffffffffffff1916905560058201879055938101869055600701859055919092529120548154811061062157fe5b600091825260208083209091018290559181526004909152604081205550565b6011546001600160a01b031690565b600080601460009054906101000a90046001600160a01b03166001600160a01b03166338fff2d06040518163ffffffff1660e01b815260040160206040518083038186803b1580156106a157600080fd5b505afa1580156106b5573d6000803e3d6000fd5b505050506040513d601f19601f820116820180604052508101906106d99190614470565b91505090565b3360009081526005602090815260409182902080548351818402810184019094528084526060939283018282801561073657602002820191906000526020600020905b815481526020019060010190808311610722575b5050505050905090565b6013546001600160a01b0316331461075757600080fd5b600081600181111561076557fe5b148061077c5750600181600181111561077a57fe5b145b61078557600080fd5b60008381526003602052604081206002808201805486019055600190910180547fffffffffffffffffff00ffffffffffffffffffffffffffffffffffffffffffff16760200000000000000000000000000000000000000000000179081905574010000000000000000000000000000000000000000900460ff169081111561080957fe5b141561081a5761038e83600061196a565b6001610345565b6013546001600160a01b0316331461083857600080fd5b600091825260036020526040808320600190810180547fffffffffffffffffff00ffffffffffffffffffffffffffffffffffffffffffff908116909155928452922090910180549091169055565b6000806108a733610895611121565b6001600160a01b0316146101aa613df5565b5050600f546010549091565b6012546001600160a01b031690565b6108ce33610895611121565b6108d86000613e07565b565b6000818152600360205260409020600401546001600160a01b0316331461092d576040517f08c379a00000000000000000000000000000000000000000000000000000000081526004016102cb906147cb565b60008181526008602052604090205460078054909190811061094b57fe5b6000918252602080832090910182905582825260089052604081205560095415610999576000818152600a602052604090205460098054909190811061098d57fe5b60009182526020822001555b6000818152600a6020526040812055600b54156109da576000818152600c6020526040902054600b805490919081106109ce57fe5b60009182526020822001555b6000818152600c60209081526040808320839055600380835281842080547fffffffffffffffffffffff0000000000000000000000000000000000000000001681556001810180547fffffffffffffffffff000000000000000000000000000000000000000000000016905560028082018690559181018590556004808201805473ffffffffffffffffffffffffffffffffffffffff19169055600582018690556006820186905560079091018590559092529091205481548110610a9b57fe5b600091825260208083209091018290558282526004815260408083208390553383526005825280832084845260069092529091205481548110610ada57fe5b6000918252602080832090910182905591815260069091526040812055565b610b0533610895611121565b600085516002811115610b1457fe5b1480610b2c5750600185516002811115610b2a57fe5b145b80610b435750600285516002811115610b4157fe5b145b610b4c57600080fd5b6000846001811115610b5a57fe5b1480610b7157506001846001811115610b6f57fe5b145b610b7a57600080fd5b600154421415610b91576001805481019055610b96565b426001555b60008660c00151600154604051602001610bb19291906146da565b604051602081830303815290604052805190602001209050610bd161412e565b60405180610180016040528089600001516001811115610bed57fe5b815260200189602001516001600160a01b0316815260200189604001516001600160a01b0316815260200188600001516002811115610c2857fe5b8152602001876001811115610c3957fe5b8152602001600281526020018960600151815260200160015481526020018960c001516001600160a01b0316815260200188602001518152602001868681518110610c8057fe5b60200260200101518152602001868581518110610c9957fe5b6020908102919091018101519091526000848152600390915260409020815181549293508392829060ff191660018381811115610cd257fe5b0217905550602082015181547fffffffffffffffffffffff0000000000000000000000000000000000000000ff166101006001600160a01b0392831602178255604083015160018301805473ffffffffffffffffffffffffffffffffffffffff19169190921617808255606084015191907fffffffffffffffffffffff00ffffffffffffffffffffffffffffffffffffffff1674010000000000000000000000000000000000000000836002811115610d8757fe5b021790555060808201518160010160156101000a81548160ff02191690836001811115610db057fe5b021790555060a08201516001820180547fffffffffffffffffff00ffffffffffffffffffffffffffffffffffffffffffff16760100000000000000000000000000000000000000000000836004811115610e0657fe5b021790555060c08281015160028381019190915560e084015160038401556101008401516004808501805473ffffffffffffffffffffffffffffffffffffffff19166001600160a01b03938416179055610120860151600580870191909155610140870151600680880191909155610160909701516007909601959095558254600089815260209283526040808220839055600183810187559582527f405787fa12a823e0f2b7631cc41b3ba8828b3321ca811111fa75cd3aa3bb5ace9092018a9055948f01805184168652868352818620548a8752978352818620979097559551909116835292835292812080549384018155815290812090910183905587516002811115610f1257fe5b1415610fb7576000828152600360209081526040808320600190810180547fffffffffffffffffff00ffffffffffffffffffffffffffffffffffffffffffff167602000000000000000000000000000000000000000000001790556007805460089094529184208390558201815582527fa66cc928b5edb82af9bd49922954155ab7b0942694bea4ce44661d9a8736c68801839055610fb290839061196a565b611117565b600187516002811115610fc657fe5b1415611067576000828152600360209081526040808320600190810180547fffffffffffffffffff00ffffffffffffffffffffffffffffffffffffffffffff1676020000000000000000000000000000000000000000000017905560098054600a909452918420839055828101825592527f6e1540171b6c0c960b71a7020d9f60077f6af931a8bbf590da0223dacf75c7af01839055610fb29083906114eb565b60028751600281111561107657fe5b1415611117576000828152600360209081526040808320600190810180547fffffffffffffffffff00ffffffffffffffffffffffffffffffffffffffffffff16760200000000000000000000000000000000000000000000179055600b8054600c909452918420839055820181559091527f0175b7a638427703f0dbe7bb9bbf987a2551717b34e79f33b5b1008d1fa01db90182905561111782600261172d565b5050505050505050565b6000546001600160a01b031690565b61113861419c565b611140611121565b6001600160a01b0316336001600160a01b031614806111675750336001600160a01b038416145b61119d576040517f08c379a00000000000000000000000000000000000000000000000000000000081526004016102cb90614839565b6001600160a01b0383166000908152600d6020908152604080832085845282529182902082516101e0810184528154815260018083015460ff161515828501526002808401805487516101009482161594909402600019011691909104601f810186900486028301860187528083529295939493860193919290918301828280156112695780601f1061123e57610100808354040283529160200191611269565b820191906000526020600020905b81548152906001019060200180831161124c57829003601f168201915b5050509183525050600382015460208083019190915260048301546001600160a01b031660408084019190915260058401546060840152600684015460ff1615156080840152600784018054825160026101006001841615026000190190921691909104601f810185900485028201850190935282815260a0909401939290919083018282801561133b5780601f106113105761010080835404028352916020019161133b565b820191906000526020600020905b81548152906001019060200180831161131e57829003601f168201915b50505091835250506008820154602082015260098201546001600160a01b039081166040830152600a83015481166060830152600b830154166080820152600c82015460a0820152600d82015460c09091019060ff16600281111561139c57fe5b60028111156113a757fe5b8152602001600e8201548152505090505b92915050565b6113ca33610895611121565b60005b6001600160a01b0383166000908152600e60205260409020548110156103de576001600160a01b0383166000908152600e6020526040902080548391908390811061141457fe5b90600052602060002001541415611455576001600160a01b0383166000908152600e6020526040902080548290811061144957fe5b60009182526020822001555b6001016113cd565b336000908152600e60209081526040918290208054835181840281018401909452808452606093928301828280156107365760200282019190600052602060002090815481526020019060010190808311610722575050505050905090565b6114c833610895611121565b6114df6001600160a01b03821615156101ab613df5565b6114e881613e07565b50565b6000805b600954811015611727576009818154811061150657fe5b60009182526020909120015461151b5761171f565b6000600360006009848154811061152e57fe5b9060005260206000200154815260200190815260200160002060010160159054906101000a900460ff16600181111561156357fe5b1480156115b357506003600085815260200190815260200160002060050154600360006009848154811061159357fe5b906000526020600020015481526020019081526020016000206005015410155b806116515750600160036000600984815481106115cc57fe5b9060005260206000200154815260200190815260200160002060010160159054906101000a900460ff16600181111561160157fe5b14801561165157506003600085815260200190815260200160002060050154600360006009848154811061163157fe5b906000526020600020015481526020019081526020016000206005015411155b1561171f5760076009828154811061166557fe5b60009182526020808320909101548354600181018555938352912090910155600980548290811061169257fe5b906000526020600020015491506116aa816001613e64565b60008360028111156116b857fe5b141580156116c65750838214155b15611714576007805460018181019092557fa66cc928b5edb82af9bd49922954155ab7b0942694bea4ce44661d9a8736c688018590556000858152600a602052604090205461171491613e64565b61171f82600161196a565b6001016114ef565b50505050565b6000805b600b5481101561172757600b818154811061174857fe5b60009182526020909120015461175d57611962565b600060036000600b848154811061177057fe5b9060005260206000200154815260200190815260200160002060010160159054906101000a900460ff1660018111156117a557fe5b1480156117f55750600360008581526020019081526020016000206005015460036000600b84815481106117d557fe5b906000526020600020015481526020019081526020016000206005015411155b806118935750600160036000600b848154811061180e57fe5b9060005260206000200154815260200190815260200160002060010160159054906101000a900460ff16600181111561184357fe5b1480156118935750600360008581526020019081526020016000206005015460036000600b848154811061187357fe5b906000526020600020015481526020019081526020016000206005015410155b15611962576007600b82815481106118a757fe5b60009182526020808320909101548354600181018555938352912090910155600b8054829081106118d457fe5b906000526020600020015491506118ec816002613e64565b60008360028111156118fa57fe5b141580156119085750838214155b156119575760078054600181019091557fa66cc928b5edb82af9bd49922954155ab7b0942694bea4ce44661d9a8736c688018490556000848152600c6020526040902054611957906002613e64565b61196282600261196a565b600101611731565b600080808080805b600754811015611e8f57876007828154811061198a57fe5b9060005260206000200154141580156119f857506000888152600360208190526040822060040154600780546001600160a01b039092169391859081106119cd57fe5b600091825260208083209091015483528201929092526040019020600401546001600160a01b031614155b8015611a4a575060006003600060078481548110611a1257fe5b9060005260206000200154815260200190815260200160002060010160169054906101000a900460ff166004811115611a4757fe5b14155b15611e87576003600060078381548110611a6057fe5b90600052602060002001548152602001908152602001600020600501546000148015611a9b5750600088815260036020526040902060050154155b15611aa557611e87565b60006003600060078481548110611ab857fe5b9060005260206000200154815260200190815260200160002060010160159054906101000a900460ff166001811115611aed57fe5b148015611b335750600160008981526003602052604090206001908101547501000000000000000000000000000000000000000000900460ff1690811115611b3157fe5b145b15611c995760036000898152602001908152602001600020600501546003600060078481548110611b6057fe5b9060005260206000200154815260200190815260200160002060050154101580611b995750600088815260036020526040902060050154155b15611c9457846003600060078481548110611bb057fe5b90600052602060002001548152602001908152602001600020600501541180611bd7575084155b15611c9457600f85905560006003600060078481548110611bf457fe5b9060005260206000200154815260200190815260200160002060010160149054906101000a900460ff166002811115611c2957fe5b14611c61576003600060078381548110611c3f57fe5b9060005260206000200154815260200190815260200160002060050154611c74565b6000888152600360205260409020600501545b945060028181548110611c8357fe5b906000526020600020015495508091505b611e87565b60016003600060078481548110611cac57fe5b9060005260206000200154815260200190815260200160002060010160159054906101000a900460ff166001811115611ce157fe5b148015611d2657506000808981526003602052604090206001908101547501000000000000000000000000000000000000000000900460ff1690811115611d2457fe5b145b15611e875760036000898152602001908152602001600020600501546003600060078481548110611d5357fe5b9060005260206000200154815260200190815260200160002060050154111580611d8c5750600088815260036020526040902060050154155b15611e8757826003600060078481548110611da357fe5b90600052602060002001548152602001908152602001600020600501541080611dca575082155b15611e8757601083905560006003600060078481548110611de757fe5b9060005260206000200154815260200190815260200160002060010160149054906101000a900460ff166002811115611e1c57fe5b14611e54576003600060078381548110611e3257fe5b9060005260206000200154815260200190815260200160002060050154611e67565b6000888152600360205260409020600501545b925060028181548110611e7657fe5b906000526020600020015493508091505b600101611972565b50600080600160008a81526003602052604090206001908101547501000000000000000000000000000000000000000000900460ff1690811115611ecf57fe5b1415612e59578615612e2c5760115460008a81526003602052604090205461010090046001600160a01b039081169116148015611f26575060008981526003602052604081205460ff166001811115611f2457fe5b145b8015611f4957506000898152600360205260409020600281015460079091015410155b156122735760125460008881526003602052604090205461010090046001600160a01b039081169116148015611f99575060008781526003602052604081205460ff166001811115611f9757fe5b145b15611fc157600087815260036020526040902060020154611fba9087614002565b9150612026565b6011546000888152600360205260409020600101546001600160a01b03908116911614801561200c5750600160008881526003602052604090205460ff16600181111561200a57fe5b145b156120265760008781526003602052604090206002015491505b60008981526003602052604090206002015482106121845760008981526003602052604090206002015461205a9087614053565b6012546000898152600360205260409020549192506001600160a01b03908116610100909204161480156120aa5750600160008881526003602052604090205460ff1660018111156120a857fe5b145b6120cf576000878152600360205260409020600201546120ca9082614089565b6120f9565b6000878152600360205260408082206002908101548c845291909220909101546120f99190614089565b6000888152600360205260408082206002808201949094558c835290822092830191909155600190810180547fffffffffffffffffff00ffffffffffffffffffffffffffffffffffffffffffff9081167601000000000000000000000000000000000000000000001790915591018054909116905560075461217f906000190189613e64565b61226e565b61218e8287614053565b60008a8152600360205260409020600201549091506121ad9083614089565b60008a81526003602081905260408083206002808201959095558b8452908320938401839055600193840180547fffffffffffffffffff00ffffffffffffffffffffffffffffffffffffffffffff9081169091558d845293018054909316760100000000000000000000000000000000000000000000179092556007805461226e938793909290918490811061223f57fe5b9060005260206000200154815260200190815260200160002060010160149054906101000a900460ff16613e64565b6125aa565b60125460008a8152600360205260409020600101546001600160a01b0390811691161480156122be5750600160008a81526003602052604090205460ff1660018111156122bc57fe5b145b156125aa576011546000888152600360205260409020600101546001600160a01b03908116911614801561230e5750600160008881526003602052604090205460ff16600181111561230c57fe5b145b156123365760008781526003602052604090206002015461232f9087614053565b905061239a565b60125460008881526003602052604090205461010090046001600160a01b039081169116148015612381575060008781526003602052604081205460ff16600181111561237f57fe5b145b1561239a57506000868152600360205260409020600201545b60008981526003602052604090206002015481106124ef576000898152600360205260409020600201546123ce9087614002565b6011546000898152600360205260409020600101549193506001600160a01b03918216911614801561241a575060008781526003602052604081205460ff16600181111561241857fe5b145b61243f5760008781526003602052604090206002015461243a9083614089565b612469565b6000878152600360205260408082206002908101548c845291909220909101546124699190614089565b6000888152600360205260408082206002808201949094558c835290822092830191909155600190810180547fffffffffffffffffff00ffffffffffffffffffffffffffffffffffffffffffff9081167601000000000000000000000000000000000000000000001790915591018054909116905560075461226e906000190189613e64565b6124f98187614002565b60008a8152600360205260409020600201549092506125189082614089565b60008a81526003602081905260408083206002808201959095558b8452908320938401839055600193840180547fffffffffffffffffff00ffffffffffffffffffffffffffffffffffffffffffff9081169091558d84529301805490931676010000000000000000000000000000000000000000000017909255600780546125aa938793909290918490811061223f57fe5b6125b261419c565b604080516101e081019091528a8152602081016000808d81526003602052604090205460ff1660018111156125e357fe5b146125ef5760006125f2565b60015b1515815260115460008d81526003602090815260409091205492019161010090046001600160a01b03908116911614612660576040518060400160405280600881526020017f63757272656e6379000000000000000000000000000000000000000000000000815250612697565b6040518060400160405280600881526020017f73656375726974790000000000000000000000000000000000000000000000008152505b815260115460008d81526003602090815260409091205492019161010090046001600160a01b039081169116146126ce57836126d0565b845b815260008c8152600360208181526040808420600401546001600160a01b0316828601528085018e90528d845291905281205460609092019160ff16600181111561271757fe5b14612723576000612726565b60015b1515815260115460008b81526003602090815260409091205492019161010090046001600160a01b03908116911614612794576040518060400160405280600881526020017f63757272656e63790000000000000000000000000000000000000000000000008152506127cb565b6040518060400160405280600881526020017f73656375726974790000000000000000000000000000000000000000000000008152505b815260115460008b81526003602090815260409091205492019161010090046001600160a01b039081169116146128025783612804565b845b815260008a8152600360208181526040808420600401546001600160a01b0390811683870152601154811682870152601254166060860152608085018d90528f845291905290206001015460a09091019074010000000000000000000000000000000000000000900460ff16600281111561287b57fe5b81524260209182015260008c81526003808352604080832060048101546001600160a01b03168452600d8552818420920154835290835290819020835181558383015160018201805460ff1916911515919091179055908301518051939450849391926128f09260028501929091019061421a565b5060608201516003820155608082015160048201805473ffffffffffffffffffffffffffffffffffffffff19166001600160a01b0390921691909117905560a0820151600582015560c082015160068201805460ff191691151591909117905560e0820151805161296b91600784019160209091019061421a565b5061010082015160088201556101208201516009820180546001600160a01b0392831673ffffffffffffffffffffffffffffffffffffffff1991821617909155610140840151600a84018054918416918316919091179055610160840151600b84018054919093169116179055610180820151600c8201556101a0820151600d8201805460ff19166001836002811115612a0157fe5b02179055506101c09190910151600e909101556000888152600360208181526040808420600401546001600160a01b03168452600d82528084208e855283835281852090930154845291815291819020835181558383015160018201805460ff19169115159190911790559083015180518493612a8592600285019291019061421a565b5060608201516003820155608082015160048201805473ffffffffffffffffffffffffffffffffffffffff19166001600160a01b0390921691909117905560a0820151600582015560c082015160068201805460ff191691151591909117905560e08201518051612b0091600784019160209091019061421a565b5061010082015160088201556101208201516009820180546001600160a01b0392831673ffffffffffffffffffffffffffffffffffffffff1991821617909155610140840151600a84018054918416918316919091179055610160840151600b84018054919093169116179055610180820151600c8201556101a0820151600d8201805460ff19166001836002811115612b9657fe5b02179055506101c09190910151600e9091015560008a815260036020819052604082209081015490549095507fc9dfa8e50aaf621c8250911908f5c8e1524c8ae0e81ff7707e64135a3807a0ad919060ff166001811115612bf357fe5b14612bff576000612c02565b60015b60115460008d81526003602052604090205461010090046001600160a01b03908116911614612c66576040518060400160405280600881526020017f63757272656e6379000000000000000000000000000000000000000000000000815250612c9d565b6040518060400160405280600881526020017f73656375726974790000000000000000000000000000000000000000000000008152505b60008d8152600360205260408120600401546001600160a01b03169060008d81526003602052604090205460ff166001811115612cd657fe5b14612ce2576000612ce5565b60015b60115460008e81526003602052604090205461010090046001600160a01b03908116911614612d49576040518060400160405280600881526020017f63757272656e6379000000000000000000000000000000000000000000000000815250612d80565b6040518060400160405280600881526020017f73656375726974790000000000000000000000000000000000000000000000008152505b60008e81526003602052604090819020600401549051612db09695949392916001600160a01b0316908c90614767565b60405180910390a15060008981526003602081815260408084206004808201546001600160a01b039081168752600e8086528488208787529387018054855460018181018855968b52888b2001558f89528589209093015490911687528452918520938352905483549182018455928452922090910155612e54565b6000886002811115612e3a57fe5b1415612e5457612e4a89896114eb565b612e54898961172d565b613dea565b6000808a81526003602052604090206001908101547501000000000000000000000000000000000000000000900460ff1690811115612e9457fe5b1415613dea578415613dc25760125460008a81526003602052604090205461010090046001600160a01b039081169116148015612eeb575060008981526003602052604081205460ff166001811115612ee957fe5b145b8015612f0e57506000898152600360205260409020600281015460069091015410155b156132065760115460008681526003602052604090205461010090046001600160a01b039081169116148015612f5e575060008581526003602052604081205460ff166001811115612f5c57fe5b145b15612f8657600085815260036020526040902060020154612f7f9085614053565b9050612fea565b6012546000868152600360205260409020600101546001600160a01b039081169116148015612fd15750600160008681526003602052604090205460ff166001811115612fcf57fe5b145b15612fea57506000848152600360205260409020600201545b60008981526003602052604090206002015481106131465760008981526003602052604090206002015461301e9085614002565b6012546000878152600360205260409020600101549193506001600160a01b03918216911614801561306c5750600160008681526003602052604090205460ff16600181111561306a57fe5b145b6130915760008581526003602052604090206002015461308c9083614089565b6130bb565b6000858152600360205260408082206002908101548c845291909220909101546130bb9190614089565b6000868152600360205260408082206002808201949094558c835290822092830191909155600190810180547fffffffffffffffffff00ffffffffffffffffffffffffffffffffffffffffffff90811676010000000000000000000000000000000000000000000017909155910180549091169055600754613141906000190189613e64565b613201565b6131508185614002565b60008a81526003602052604090206002015490925061316f9082614089565b60008a8152600360208190526040808320600280820195909555898452908320938401839055600193840180547fffffffffffffffffff00ffffffffffffffffffffffffffffffffffffffffffff9081169091558d8452930180549093167601000000000000000000000000000000000000000000001790925560078054613201938793909290918490811061223f57fe5b613540565b60115460008a8152600360205260409020600101546001600160a01b0390811691161480156132515750600160008a81526003602052604090205460ff16600181111561324f57fe5b145b15613540576012546000868152600360205260409020600101546001600160a01b0390811691161480156132a15750600160008681526003602052604090205460ff16600181111561329f57fe5b145b156132c9576000858152600360205260409020600201546132c29085614002565b915061332e565b60115460008681526003602052604090205461010090046001600160a01b039081169116148015613314575060008581526003602052604081205460ff16600181111561331257fe5b145b1561332e5760008581526003602052604090206002015491505b6000898152600360205260409020600201548210613485576000898152600360205260409020600201546133629085614053565b6011546000878152600360205260409020549192506001600160a01b03908116610100909204161480156133b0575060008581526003602052604081205460ff1660018111156133ae57fe5b145b6133d5576000858152600360205260409020600201546133d09082614089565b6133ff565b6000858152600360205260408082206002908101548c845291909220909101546133ff9190614089565b6000868152600360205260408082206002808201949094558c835290822092830191909155600190810180547fffffffffffffffffff00ffffffffffffffffffffffffffffffffffffffffffff90811676010000000000000000000000000000000000000000000017909155910180549091169055600754613201906000190189613e64565b61348f8285614053565b60008a8152600360205260409020600201549091506134ae9083614089565b60008a8152600360208190526040808320600280820195909555898452908320938401839055600193840180547fffffffffffffffffff00ffffffffffffffffffffffffffffffffffffffffffff9081169091558d8452930180549093167601000000000000000000000000000000000000000000001790925560078054613540938793909290918490811061223f57fe5b61354861419c565b604080516101e081019091528a8152602081016000808d81526003602052604090205460ff16600181111561357957fe5b14613585576000613588565b60015b1515815260115460008d81526003602090815260409091205492019161010090046001600160a01b039081169116146135f6576040518060400160405280600881526020017f63757272656e637900000000000000000000000000000000000000000000000081525061362d565b6040518060400160405280600881526020017f73656375726974790000000000000000000000000000000000000000000000008152505b815260115460008d81526003602090815260409091205492019161010090046001600160a01b039081169116146136645783613666565b845b815260008c8152600360208181526040808420600401546001600160a01b0316828601528085018c90528b845291905281205460609092019160ff1660018111156136ad57fe5b146136b95760006136bc565b60015b1515815260115460008981526003602090815260409091205492019161010090046001600160a01b0390811691161461372a576040518060400160405280600881526020017f63757272656e6379000000000000000000000000000000000000000000000000815250613761565b6040518060400160405280600881526020017f73656375726974790000000000000000000000000000000000000000000000008152505b815260115460008981526003602090815260409091205492019161010090046001600160a01b03908116911614613798578361379a565b845b81526000888152600360208181526040808420600401546001600160a01b0390811683870152601154811682870152601254166060860152608085018b90528f845291905290206001015460a09091019074010000000000000000000000000000000000000000900460ff16600281111561381157fe5b81524260209182015260008c81526003808352604080832060048101546001600160a01b03168452600d8552818420920154835290835290819020835181558383015160018201805460ff1916911515919091179055908301518051939450849391926138869260028501929091019061421a565b5060608201516003820155608082015160048201805473ffffffffffffffffffffffffffffffffffffffff19166001600160a01b0390921691909117905560a0820151600582015560c082015160068201805460ff191691151591909117905560e0820151805161390191600784019160209091019061421a565b5061010082015160088201556101208201516009820180546001600160a01b0392831673ffffffffffffffffffffffffffffffffffffffff1991821617909155610140840151600a84018054918416918316919091179055610160840151600b84018054919093169116179055610180820151600c8201556101a0820151600d8201805460ff1916600183600281111561399757fe5b02179055506101c09190910151600e909101556000868152600360208181526040808420600401546001600160a01b03168452600d82528084208e855283835281852090930154845291815291819020835181558383015160018201805460ff19169115159190911790559083015180518493613a1b92600285019291019061421a565b5060608201516003820155608082015160048201805473ffffffffffffffffffffffffffffffffffffffff19166001600160a01b0390921691909117905560a0820151600582015560c082015160068201805460ff191691151591909117905560e08201518051613a9691600784019160209091019061421a565b5061010082015160088201556101208201516009820180546001600160a01b0392831673ffffffffffffffffffffffffffffffffffffffff1991821617909155610140840151600a84018054918416918316919091179055610160840151600b84018054919093169116179055610180820151600c8201556101a0820151600d8201805460ff19166001836002811115613b2c57fe5b02179055506101c09190910151600e9091015560008a815260036020819052604082209081015490549095507fc9dfa8e50aaf621c8250911908f5c8e1524c8ae0e81ff7707e64135a3807a0ad919060ff166001811115613b8957fe5b14613b95576000613b98565b60015b60115460008d81526003602052604090205461010090046001600160a01b03908116911614613bfc576040518060400160405280600881526020017f63757272656e6379000000000000000000000000000000000000000000000000815250613c33565b6040518060400160405280600881526020017f73656375726974790000000000000000000000000000000000000000000000008152505b60008d8152600360205260408120600401546001600160a01b03169060008b81526003602052604090205460ff166001811115613c6c57fe5b14613c78576000613c7b565b60015b60115460008c81526003602052604090205461010090046001600160a01b03908116911614613cdf576040518060400160405280600881526020017f63757272656e6379000000000000000000000000000000000000000000000000815250613d16565b6040518060400160405280600881526020017f73656375726974790000000000000000000000000000000000000000000000008152505b60008c81526003602052604090819020600401549051613d469695949392916001600160a01b0316908c90614767565b60405180910390a15060008981526003602081815260408084206004808201546001600160a01b039081168752600e8086528488208787529387018054855460018181018855968b52888b2001558d89528589209093015490911687528452918520938352905483549182018455928452922090910155613dea565b6000886002811115613dd057fe5b1415613dea57613de089896114eb565b613dea898961172d565b505050505050505050565b81613e0357613e038161409f565b5050565b600080546001600160a01b0383811673ffffffffffffffffffffffffffffffffffffffff19831681178455604051919092169283917f8be0079c531659141344cd1fd0a4f28419497f9722a3daafe3b4186f6b6457e09190a35050565b6000816002811115613e7257fe5b1415613ef257815b600754811015613eec5760075460001901811415613eaf5760078381548110613e9f57fe5b6000918252602082200155613ee4565b60078360010181548110613ebf57fe5b906000526020600020015460078481548110613ed757fe5b6000918252602090912001555b600101613e7a565b50613e03565b6001816002811115613f0057fe5b1415613f7a57815b600954811015613eec5760095460001901811415613f3d5760098381548110613f2d57fe5b6000918252602082200155613f72565b60098360010181548110613f4d57fe5b906000526020600020015460098481548110613f6557fe5b6000918252602090912001555b600101613f08565b6002816002811115613f8857fe5b1415613e0357815b600b548110156103de57600b5460001901811415613fc557600b8381548110613fb557fe5b6000918252602082200155613ffa565b600b8360010181548110613fd557fe5b9060005260206000200154600b8481548110613fed57fe5b6000918252602090912001555b600101613f90565b60006140118215156004613df5565b8261401e575060006113b8565b670de0b6b3a7640000838102906140419085838161403857fe5b04146005613df5565b82818161404a57fe5b049150506113b8565b600082820261407784158061407057508385838161406d57fe5b04145b6003613df5565b670de0b6b3a764000090049392505050565b6000614099838311156001613df5565b50900390565b7f08c379a000000000000000000000000000000000000000000000000000000000600090815260206004526007602452600a808304818106603090810160081b83860601918390049283060160101b016642414c230000300160c81b6044526114e8917f42414c0000000000000000000000000000000000000000000000000000000000906242414c90606490fd5b60408051610180810190915280600081526000602082018190526040820181905260609091019081526020016000815260200160008152602001600081526020016000815260200160006001600160a01b031681526020016000815260200160008152602001600081525090565b604080516101e08101825260008082526020820181905260609282018390528282018190526080820181905260a0820181905260c0820181905260e082019290925261010081018290526101208101829052610140810182905261016081018290526101808101829052906101a08201908152602001600081525090565b828054600181600116156101000203166002900490600052602060002090601f016020900481019282601f1061425b57805160ff1916838001178555614288565b82800160010185558215614288579182015b8281111561428857825182559160200191906001019061426d565b50614294929150614298565b5090565b5b808211156142945760008155600101614299565b80356113b8816149d7565b600082601f8301126142c8578081fd5b813567ffffffffffffffff8111156142de578182fd5b60208082026142ee8282016149b0565b8381529350818401858301828701840188101561430a57600080fd5b600092505b8483101561432d57803582526001929092019190830190830161430f565b505050505092915050565b600082601f830112614348578081fd5b813567ffffffffffffffff81111561435e578182fd5b61438f60207fffffffffffffffffffffffffffffffffffffffffffffffffffffffffffffffe0601f840116016149b0565b91508082528360208285010111156143a657600080fd5b8060208401602084013760009082016020015292915050565b80356113b8816149ec565b6000604082840312156143db578081fd5b6143e560406149b0565b90508135600381106143f657600080fd5b808252506020820135602082015292915050565b60006020828403121561441b578081fd5b8135614426816149d7565b9392505050565b6000806040838503121561443f578081fd5b823561444a816149d7565b946020939093013593505050565b600060208284031215614469578081fd5b5035919050565b600060208284031215614481578081fd5b5051919050565b6000806040838503121561449a578182fd5b50508035926020909101359150565b6000806000606084860312156144bd578081fd5b833592506020840135915060408401356144d6816149ec565b809150509250925092565b6000806000606084860312156144f5578283fd5b505081359360208301359350604090920135919050565b60008060008060008060e08789031215614524578182fd5b863567ffffffffffffffff8082111561453b578384fd5b818901915061012080838c031215614551578485fd5b61455a816149b0565b90506145668b846143bf565b81526145758b602085016142ad565b60208201526145878b604085016142ad565b6040820152606083013560608201526080830135608082015260a083013560a08201526145b78b60c085016142ad565b60c08201526145c98b60e085016142ad565b60e082015261010080840135838111156145e1578687fd5b6145ed8d828701614338565b828401525050809850506146048a60208b016143ca565b96506146138a60608b016143bf565b95506080890135915080821115614628578384fd5b5061463589828a016142b8565b93505060a0870135915060c087013590509295509295509295565b6001600160a01b03169052565b15159052565b6003811061466d57fe5b9052565b60008151808452815b818110156146965760208185018101518683018201520161467a565b818111156146a75782602083870101525b50601f017fffffffffffffffffffffffffffffffffffffffffffffffffffffffffffffffe0169290920160200192915050565b60609290921b7fffffffffffffffffffffffffffffffffffffffff000000000000000000000000168252601482015260340190565b6001600160a01b0391909116815260200190565b6020808252825182820181905260009190848201906040850190845b8181101561475b5783518352928401929184019160010161473f565b50909695505050505050565b6000881515825260e0602083015261478260e0830189614671565b6001600160a01b038089166040850152871515606085015283820360808501526147ac8288614671565b951660a0840152505060c0015295945050505050565b90815260200190565b6020808252601b908201527f53656e646572206973206e6f74206f726465722063726561746f720000000000604082015260600190565b60208082526017908201527f4f7264657220697320616c72656164792066696c6c6564000000000000000000604082015260600190565b6020808252601d908201527f556e617574686f72697a65642061636365737320746f20747261646573000000604082015260600190565b60006020825282516020830152602083015161488f604084018261465d565b5060408301516101e08060608501526148ac610200850183614671565b91506060850151608085015260808501516148ca60a0860182614650565b5060a085015160c085015260c08501516148e760e086018261465d565b5060e08501516101007fffffffffffffffffffffffffffffffffffffffffffffffffffffffffffffffe086850301818701526149238483614671565b9087015161012087810191909152870151909350905061014061494881870183614650565b860151905061016061495c86820183614650565b860151905061018061497086820183614650565b8601516101a08681019190915286015190506101c061499181870183614663565b959095015193019290925250919050565b918252602082015260400190565b60405181810167ffffffffffffffff811182821017156149cf57600080fd5b604052919050565b6001600160a01b03811681146114e857600080fd5b600281106114e857600080fdfea264697066735822122043921055337fd97a44b7185d639be6c9c757b23f65428b45b21096e8710e6fa564736f6c63430007010033",
  "linkReferences": {},
  "deployedLinkReferences": {}
}