{
  "_format": "hh-sol-artifact-1",
  "contractName": "SecondaryIssuePoolFactory",
  "sourceName": "contracts/SecondaryIssuePoolFactory.sol",
  "abi": [
    {
      "inputs": [
        {
          "internalType": "contract IVault",
          "name": "vault",
          "type": "address"
        },
        {
          "internalType": "contract IProtocolFeePercentagesProvider",
          "name": "protocolFeeProvider",
          "type": "address"
        }
      ],
      "stateMutability": "nonpayable",
      "type": "constructor"
    },
    {
      "anonymous": false,
      "inputs": [],
      "name": "FactoryDisabled",
      "type": "event"
    },
    {
      "anonymous": false,
      "inputs": [
        {
          "indexed": true,
          "internalType": "address",
          "name": "pool",
          "type": "address"
        }
      ],
      "name": "PoolCreated",
      "type": "event"
    },
    {
      "inputs": [
        {
          "internalType": "string",
          "name": "name",
          "type": "string"
        },
        {
          "internalType": "string",
          "name": "symbol",
          "type": "string"
        },
        {
          "internalType": "address",
          "name": "security",
          "type": "address"
        },
        {
          "internalType": "address",
          "name": "currency",
          "type": "address"
        },
        {
          "internalType": "uint256",
          "name": "maxAmountsIn",
          "type": "uint256"
        },
        {
          "internalType": "uint256",
          "name": "tradeFeePercentage",
          "type": "uint256"
        }
      ],
      "name": "create",
      "outputs": [
        {
          "internalType": "address",
          "name": "",
          "type": "address"
        }
      ],
      "stateMutability": "nonpayable",
      "type": "function"
    },
    {
      "inputs": [],
      "name": "disable",
      "outputs": [],
      "stateMutability": "nonpayable",
      "type": "function"
    },
    {
      "inputs": [
        {
          "internalType": "bytes4",
          "name": "selector",
          "type": "bytes4"
        }
      ],
      "name": "getActionId",
      "outputs": [
        {
          "internalType": "bytes32",
          "name": "",
          "type": "bytes32"
        }
      ],
      "stateMutability": "view",
      "type": "function"
    },
    {
      "inputs": [],
      "name": "getAuthorizer",
      "outputs": [
        {
          "internalType": "contract IAuthorizer",
          "name": "",
          "type": "address"
        }
      ],
      "stateMutability": "view",
      "type": "function"
    },
    {
      "inputs": [],
      "name": "getCreationCode",
      "outputs": [
        {
          "internalType": "bytes",
          "name": "",
          "type": "bytes"
        }
      ],
      "stateMutability": "view",
      "type": "function"
    },
    {
      "inputs": [],
      "name": "getCreationCodeContracts",
      "outputs": [
        {
          "internalType": "address",
          "name": "contractA",
          "type": "address"
        },
        {
          "internalType": "address",
          "name": "contractB",
          "type": "address"
        }
      ],
      "stateMutability": "view",
      "type": "function"
    },
    {
      "inputs": [],
      "name": "getPauseConfiguration",
      "outputs": [
        {
          "internalType": "uint256",
          "name": "pauseWindowDuration",
          "type": "uint256"
        },
        {
          "internalType": "uint256",
          "name": "bufferPeriodDuration",
          "type": "uint256"
        }
      ],
      "stateMutability": "view",
      "type": "function"
    },
    {
      "inputs": [],
      "name": "getProtocolFeePercentagesProvider",
      "outputs": [
        {
          "internalType": "contract IProtocolFeePercentagesProvider",
          "name": "",
          "type": "address"
        }
      ],
      "stateMutability": "view",
      "type": "function"
    },
    {
      "inputs": [],
      "name": "getVault",
      "outputs": [
        {
          "internalType": "contract IVault",
          "name": "",
          "type": "address"
        }
      ],
      "stateMutability": "view",
      "type": "function"
    },
    {
      "inputs": [],
      "name": "isDisabled",
      "outputs": [
        {
          "internalType": "bool",
          "name": "",
          "type": "bool"
        }
      ],
      "stateMutability": "view",
      "type": "function"
    },
    {
      "inputs": [
        {
          "internalType": "address",
          "name": "pool",
          "type": "address"
        }
      ],
      "name": "isPoolFromFactory",
      "outputs": [
        {
          "internalType": "bool",
          "name": "",
          "type": "bool"
        }
      ],
      "stateMutability": "view",
      "type": "function"
    }
  ],
  "bytecode": "0x6101806040523480156200001257600080fd5b5060405162009eb238038062009eb28339810160408190526200003591620001fc565b8181604051806020016200004990620001ee565b601f1982820381018352601f90910116604052805183903090839060006002820460a081905280830360e08190528185529091508362000095816200010f602090811b6200043717901c565b60601b6001600160601b0319166080528285018051838252620000c4826200010f602090811b6200043717901c565b6001600160601b0319606091821b811660c05296909352905261010095909552505092821b831661012052509290921b90911661014052505050426276a70001610160525062000250565b80517f602038038060206000396000f3fefefefefefefefefefefefefefefefefefefe808352600091602081018484f090845291506200015d6001600160a01b03831615156101ac62000163565b50919050565b816200017457620001748162000178565b5050565b6200018a816210905360ea1b6200018d565b50565b62461bcd60e51b600090815260206004526007602452600a808404818106603090810160081b958390069590950190829004918206850160101b01602363ffffff0060e086901c160160181b0190930160c81b60445260e882901c90606490fd5b6191288062000d8a83390190565b600080604083850312156200020f578182fd5b82516200021c816200023a565b60208401519092506200022f816200023a565b809150509250929050565b6001600160a01b03811681146200018a57600080fd5b60805160601c60a05160c05160601c60e051610100516101205160601c6101405160601c61016051610ac1620002c9600039806101ec52806102155250806102c052508061039b52508061034b5250806104915250806101c3528061050d5250806104b25250806101a252806104e95250610ac16000f3fe608060405234801561001057600080fd5b50600436106100a85760003560e01c80636c57f5a9116100715780636c57f5a914610121578063739238d61461012957806374dcc7a41461013e578063851c1bb3146101515780638d928af814610171578063aaabadc514610179576100a8565b8062c194db146100ad578063174481fa146100cb5780632da47c40146100e15780632f2770db146100f75780636634b75314610101575b600080fd5b6100b5610181565b6040516100c2919061098e565b60405180910390f35b6100d36101a0565b6040516100c2929190610941565b6100e96101e6565b6040516100c2929190610a68565b6100ff610250565b005b61011461010f3660046107c7565b610297565b6040516100c2919061095b565b6101146102b5565b6101316102be565b6040516100c2919061092d565b61013161014c366004610847565b6102e2565b61016461015f366004610803565b610347565b6040516100c29190610966565b610131610399565b6101316103bd565b606061019b60405180602001604052806000815250610489565b905090565b7f00000000000000000000000000000000000000000000000000000000000000007f00000000000000000000000000000000000000000000000000000000000000009091565b600080427f000000000000000000000000000000000000000000000000000000000000000081101561024257807f000000000000000000000000000000000000000000000000000000000000000003925062278d00915061024b565b60009250600091505b509091565b610258610562565b610260610593565b6001805460ff1916811790556040517f432acbfd662dbb5d8b378384a67159b47ca9d0f1b79f97cf64cf8585fa362d5090600090a1565b6001600160a01b031660009081526020819052604090205460ff1690565b60015460ff1690565b7f000000000000000000000000000000000000000000000000000000000000000090565b60008060006102ef6101e6565b915091506103386102fe610399565b8c8c8c8c8c8c8c8c8b8b336040516020016103249c9b9a999897969594939291906109e1565b6040516020818303038152906040526105a8565b9b9a5050505050505050505050565b60007f00000000000000000000000000000000000000000000000000000000000000008260405160200161037c929190610915565b604051602081830303815290604052805190602001209050919050565b7f000000000000000000000000000000000000000000000000000000000000000090565b60006103c7610399565b6001600160a01b031663aaabadc56040518163ffffffff1660e01b815260040160206040518083038186803b1580156103ff57600080fd5b505afa158015610413573d6000803e3d6000fd5b505050506040513d601f19601f8201168201806040525081019061019b919061082b565b80517f602038038060206000396000f3fefefefefefefefefefefefefefefefefefefe808352600091602081018484f090845291506104836001600160a01b03831615156101ac610611565b50919050565b8051604080517f00000000000000000000000000000000000000000000000000000000000000007f0000000000000000000000000000000000000000000000000000000000000000818101858101848101602090810190965280855293957f00000000000000000000000000000000000000000000000000000000000000009592947f000000000000000000000000000000000000000000000000000000000000000094938801866000828a3c846000888301883c5060208981019089850101610554818386610623565b505050505050505050919050565b60006105796000356001600160e01b031916610347565b90506105906105888233610661565b610191610611565b50565b6105a661059e6102b5565b1560d3610611565b565b60006105b2610593565b60006105bd836106f1565b6001600160a01b038116600081815260208190526040808220805460ff191660011790555192935090917f83a48fbcfc991335314e74d0496aab6a1987e992ddc85dddbcc4d6dd6ef2e9fc9190a292915050565b8161061f5761061f81610725565b5050565b5b60208110610643578151835260209283019290910190601f1901610624565b905182516020929092036101000a6000190180199091169116179052565b600061066b6103bd565b6001600160a01b0316639be2a8848484306040518463ffffffff1660e01b815260040161069a9392919061096f565b60206040518083038186803b1580156106b257600080fd5b505afa1580156106c6573d6000803e3d6000fd5b505050506040513d601f19601f820116820180604052508101906106ea91906107e3565b9392505050565b600060606106fe83610489565b905060008151602083016000f090506001600160a01b0381166106ea573d6000803e3d6000fd5b62461bcd60e51b600090815260206004526007602452600a808304818106603090810160081b83860601918390049283060160101b016642414c230000300160c81b604452610590916210905360ea1b906242414c90606490fd5b60008083601f840112610791578182fd5b50813567ffffffffffffffff8111156107a8578182fd5b6020830191508360208285010111156107c057600080fd5b9250929050565b6000602082840312156107d8578081fd5b81356106ea81610a76565b6000602082840312156107f4578081fd5b815180151581146106ea578182fd5b600060208284031215610814578081fd5b81356001600160e01b0319811681146106ea578182fd5b60006020828403121561083c578081fd5b81516106ea81610a76565b60008060008060008060008060c0898b031215610862578384fd5b883567ffffffffffffffff80821115610879578586fd5b6108858c838d01610780565b909a50985060208b013591508082111561089d578586fd5b506108aa8b828c01610780565b90975095505060408901356108be81610a76565b935060608901356108ce81610a76565b979a969950949793969295929450505060808201359160a0013590565b60008284528282602086013780602084860101526020601f19601f85011685010190509392505050565b9182526001600160e01b031916602082015260240190565b6001600160a01b0391909116815260200190565b6001600160a01b0392831681529116602082015260400190565b901515815260200190565b90815260200190565b9283526001600160a01b03918216602084015216604082015260600190565b6000602080835283518082850152825b818110156109ba5785810183015185820160400152820161099e565b818111156109cb5783604083870101525b50601f01601f1916929092016040019392505050565b6001600160a01b038d16815261014060208201819052600090610a079083018d8f6108eb565b8281036040840152610a1a818c8e6108eb565b6001600160a01b039a8b166060850152988a166080840152505060a081019590955260c085019390935260e08401919091526101008301529092166101209092019190915295945050505050565b918252602082015260400190565b6001600160a01b038116811461059057600080fdfea264697066735822122066f730e0698897b5ceacf29e8d198c69f23c5f1af4f8b9841dd022a74a7c22ba64736f6c634300070100336102e06040523480156200001257600080fd5b506040516200912838038062009128833981016040819052620000359162000b8b565b8960008a8a620000478b8b30620004d4565b6040805160038082526080820190925290602082016060803683370190505089898989828289898d85336001600160a01b031660001b8480604051806040016040528060018152602001603160f81b81525087878160039080519060200190620000b3929190620009f5565b508051620000c9906004906020840190620009f5565b50506005805460ff19166012179055508151602092830120608052805191012060a052507f8b73c3c69bb8fe3d512ecc4cf759cc79239f7b179b0ffacaa9a75d522b39400f60c05260e0526001600160601b0319606091821b81166101005291901b1661012052506200014790506276a700831115610194620005a3565b6200015b62278d00821115610195620005a3565b42909101610140819052016101605285516200017d906002111560c8620005a3565b620001976200018b620005b8565b8751111560c9620005a3565b620001ad86620005bd60201b620026441760201c565b620001b884620005c9565b6040516309b2760f60e01b81526000906001600160a01b038c16906309b2760f90620001e9908d9060040162000d54565b602060405180830381600087803b1580156200020457600080fd5b505af115801562000219573d6000803e3d6000fd5b505050506040513d601f19601f820116820180604052508101906200023f919062000b53565b604051633354e3e960e11b81529091506001600160a01b038c16906366a9c7d290620002749084908b908b9060040162000cb8565b600060405180830381600087803b1580156200028f57600080fd5b505af1158015620002a4573d6000803e3d6000fd5b505050508061018081815250508a6001600160a01b031663d2946c2b6040518163ffffffff1660e01b815260040160206040518083038186803b158015620002eb57600080fd5b505afa15801562000300573d6000803e3d6000fd5b505050506040513d601f19601f8201168201806040525081019062000326919062000b6c565b6001600160a01b03166101a0816001600160a01b031660601b815250505050505050505050505050866001600160a01b03166101c0816001600160a01b031660601b81525050856001600160a01b03166101e0816001600160a01b031660601b8152505089600b60006101000a8154816001600160a01b0302191690836001600160a01b031602179055506000806000620003c98a8a306200065d60201b60201c565b6102608190526102808390526102a082905291945092509050620003ed8a62000753565b61020052620003fc8962000753565b61022052600a8890556102408790526001600160601b0319606085901b166102c05260405184908b908b903090620004349062000a7a565b62000443949392919062000c8d565b604051809103906000f08015801562000460573d6000803e3d6000fd5b50600980546001600160a01b0319166001600160a01b0392831617908190556040518c8316927f3ca60c442fe0a0eec00a4242bd76d6b93ec28f607f78e5b820a53f8538854bbb92620004b9928d928f92169062000d72565b60405180910390a25050505050505050505050505062000db3565b606060008080620004e78787876200065d565b60408051600380825260808201909252939650919450925060208201606080368337019050509350868484815181106200051d57fe5b60200260200101906001600160a01b031690816001600160a01b031681525050858483815181106200054b57fe5b60200260200101906001600160a01b031690816001600160a01b031681525050848482815181106200057957fe5b60200260200101906001600160a01b031690816001600160a01b0316815250505050509392505050565b81620005b457620005b48162000827565b5050565b600390565b80620005b4816200083c565b620005e2620005d7620008c8565b82101560cb620005a3565b620005fb620005f0620008d1565b82111560ca620005a3565b6200061d8160c0603f600854620008dd60201b6200264e17909392919060201c565b6008556040517fa9ba3ffe0b6c366b81232caab38605a0699ad5398d6cce76f91ee809e322dafc906200065290839062000d69565b60405180910390a150565b6000806000846001600160a01b0316866001600160a01b03161015620006e657836001600160a01b0316856001600160a01b03161015620006a95750600091506001905060026200074a565b836001600160a01b0316866001600160a01b03161015620006d55750600091506002905060016200074a565b50600191506002905060006200074a565b846001600160a01b0316846001600160a01b03161015620007125750600291506001905060006200074a565b856001600160a01b0316846001600160a01b031610156200073e5750600291506000905060016200074a565b50600191506000905060025b93509350939050565b60006001600160a01b038216301415620007775750670de0b6b3a764000062000822565b6000826001600160a01b031663313ce5676040518163ffffffff1660e01b815260040160206040518083038186803b158015620007b357600080fd5b505afa158015620007c8573d6000803e3d6000fd5b505050506040513d601f19601f82011682018060405250810190620007ee919062000c6a565b60ff16905060006200080d6012836200090260201b620026761760201c565b905080600a0a670de0b6b3a764000002925050505b919050565b62000839816210905360ea1b6200091f565b50565b6002815110156200084d5762000839565b6000816000815181106200085d57fe5b602002602001015190506000600190505b8251811015620008c35760008382815181106200088757fe5b60200260200101519050620008b8816001600160a01b0316846001600160a01b0316106065620005a360201b60201c565b91506001016200086e565b505050565b64e8d4a5100090565b67016345785d8a000090565b6000620008ec84848462000980565b506001901b60001901811b1992909216911b1790565b600062000914838311156001620005a3565b508082035b92915050565b62461bcd60e51b600090815260206004526007602452600a808404818106603090810160081b958390069590950190829004918206850160101b01602363ffffff0060e086901c160160181b0190930160c81b60445260e882901c90606490fd5b6200099161010083106064620005a3565b620009ca60018210158015620009c25750620009be60ff8461010003620009db60201b6200268c1760201c565b8211155b6064620005a3565b620008c383821c156101b4620005a3565b6000818310620009ec5781620009ee565b825b9392505050565b828054600181600116156101000203166002900490600052602060002090601f016020900481019282601f1062000a3857805160ff191683800117855562000a68565b8280016001018555821562000a68579182015b8281111562000a6857825182559160200191906001019062000a4b565b5062000a7692915062000a88565b5090565b6136f28062005a3683390190565b5b8082111562000a76576000815560010162000a89565b8051620009198162000d9d565b600082601f83011262000abd578081fd5b81516001600160401b038082111562000ad4578283fd5b6040516020601f8401601f191682018101838111838210171562000af6578586fd5b8060405250819450838252868185880101111562000b1357600080fd5b600092505b8383101562000b37578583018101518284018201529182019162000b18565b8383111562000b495760008185840101525b5050505092915050565b60006020828403121562000b65578081fd5b5051919050565b60006020828403121562000b7e578081fd5b8151620009ee8162000d9d565b6000806000806000806000806000806101408b8d03121562000bab578586fd5b62000bb78c8c62000a9f565b60208c0151909a506001600160401b038082111562000bd4578788fd5b62000be28e838f0162000aac565b9a5060408d015191508082111562000bf8578788fd5b5062000c078d828e0162000aac565b98505062000c198c60608d0162000a9f565b965062000c2a8c60808d0162000a9f565b955060a08b0151945060c08b0151935060e08b015192506101008b0151915062000c598c6101208d0162000a9f565b90509295989b9194979a5092959850565b60006020828403121562000c7c578081fd5b815160ff81168114620009ee578182fd5b6001600160a01b03948516815292841660208401529083166040830152909116606082015260800190565b60006060820185835260206060818501528186518084526080860191508288019350845b8181101562000d045762000cf1855162000d91565b8352938301939183019160010162000cdc565b505084810360408601528551808252908201925081860190845b8181101562000d465762000d33835162000d91565b8552938301939183019160010162000d1e565b509298975050505050505050565b602081016003831062000d6357fe5b91905290565b90815260200190565b9283526001600160a01b03918216602084015216604082015260600190565b6001600160a01b031690565b6001600160a01b03811681146200083957600080fd5b60805160a05160c05160e0516101005160601c6101205160601c6101405161016051610180516101a05160601c6101c05160601c6101e05160601c61020051610220516102405161026051610280516102a0516102c05160601c614a9c62000f9a6000398061097d52806131165250806107a25280611d22528061278b528061319152806131eb52508061085452806119b65280611a295280611dd452806127255250806127e05280613619525050806127b352806131c452508061274d5250806105a0528061061f52806107465280610ba05280610bf75280610c545280610d205280611004528061110852806111cc52806112d0528061141b528061156a528061161e52806119dd5280611a505280611b2e5280611bad5280611cc65280611ee75280612032528061210d5250806105df528061065f52806107f85280610a015280610ae85280610b3f5280610c935280610ce15280610d6952806110c9528061118d528061130f52806113dc528061152b52806115df52806117db5280611a035280611a765280611b6d5280611bed5280611d785280611f265280611ff352508061241f52508061182e5250806129695250806129455250806123075250806122e352508061226d52508061326e5250806132b052508061328f5250614a9c6000f3fe608060405234801561001057600080fd5b506004361061025e5760003560e01c806370a0823111610146578063a457c2d7116100c3578063d2946c2b11610087578063d2946c2b146104b7578063d505accf146104bf578063d5c096c4146104d2578063dd62ed3e146104e5578063ed24911d146104f8578063fd19cac8146105005761025e565b8063a457c2d714610479578063a9059cbb1461048c578063aaabadc51461049f578063b35056b8146104a7578063b7b814fc146104af5761025e565b806387ec68171161010a57806387ec68171461043b578063893d20e81461044e5780638d928af81461045657806390193b7c1461045e57806395d89b41146104715761025e565b806370a08231146103d957806374f3b009146103ec5780637ecebe001461040d5780638456cb5914610420578063851c1bb3146104285761025e565b806338e9922e116101df57806350dd6ed9116101a357806350dd6ed91461037a57806354a844ba1461038d57806355c67628146103955780636028bfd41461039d578063688d6b79146103be5780636945c1fd146103d15761025e565b806338e9922e1461033a57806338fff2d01461034f57806339509351146103575780633f4ba83a1461036a5780634d6d0fd0146103725761025e565b80631dd746ea116102265780631dd746ea146102e057806323b872dd146102f55780632541897f14610308578063313ce5671461031d5780633644e515146103325761025e565b806301ec954a1461026357806306fdde031461028c578063095ea7b3146102a157806318160ddd146102c15780631c0de051146102c9575b600080fd5b610276610271366004614173565b610508565b6040516102839190614643565b60405180910390f35b61029461167a565b6040516102839190614719565b6102b46102af366004613dac565b611710565b6040516102839190614620565b610276611727565b6102d161172d565b6040516102839392919061462b565b6102e8611756565b60405161028391906145df565b6102b4610303366004613cfc565b611765565b6103106117d9565b6040516102839190614546565b6103256117fd565b6040516102839190614993565b610276611806565b61034d6103483660046143c0565b611810565b005b61027661182c565b6102b4610365366004613dac565b611850565b61034d61188b565b61027661189f565b61034d610388366004613fa8565b6118a5565b61034d6118c3565b6102766118d5565b6103b06103ab366004613ec2565b6118e8565b60405161028392919061497a565b6102766103cc366004614085565b61191f565b61031061210b565b6102766103e7366004613ca8565b61212f565b6103ff6103fa366004613ec2565b61214a565b6040516102839291906145f2565b61027661041b366004613ca8565b61224c565b61034d612257565b610276610436366004613f64565b612269565b6103b0610449366004613ec2565b6122bb565b6103106122e1565b610310612305565b61027661046c366004613ca8565b612329565b610294612344565b6102b4610487366004613dac565b6123a5565b6102b461049a366004613dac565b6123e3565b6103106123f0565b6102b46123fa565b61034d61240b565b61031061241d565b61034d6104cd366004613d3c565b612441565b6103ff6104e0366004613ec2565b6124cc565b6102766104f3366004613cc4565b6125ee565b61027661262b565b610310612635565b6000846080015161053561051a612305565b6001600160a01b0316336001600160a01b03161460cd6126a4565b61054a61054061182c565b82146101f46126a4565b6105526126b2565b60008651600181111561056157fe5b1480610579575060018651600181111561057757fe5b145b61059e5760405162461bcd60e51b8152600401610595906147fa565b60405180910390fd5b7f00000000000000000000000000000000000000000000000000000000000000006001600160a01b031686604001516001600160a01b0316148061061757507f00000000000000000000000000000000000000000000000000000000000000006001600160a01b031686604001516001600160a01b0316145b8061065757507f00000000000000000000000000000000000000000000000000000000000000006001600160a01b031686602001516001600160a01b0316145b8061069757507f00000000000000000000000000000000000000000000000000000000000000006001600160a01b031686602001516001600160a01b0316145b6106b35760405162461bcd60e51b81526004016105959061472c565b60606106bd6126c5565b90506106c98682612837565b6106d1613aa1565b6060600080808b5160018111156106e457fe5b14156107155761070b8b60600151868b815181106106fe57fe5b60200260200101516128a6565b60608c0152610744565b60018b51600181111561072457fe5b14156107445761073e8b60600151868a815181106106fe57fe5b60608c01525b7f00000000000000000000000000000000000000000000000000000000000000006001600160a01b03168b602001516001600160a01b0316148015610795575060008b51600181111561079357fe5b145b156107f6578a606001518a7f0000000000000000000000000000000000000000000000000000000000000000815181106107cb57fe5b602002602001015110156107f15760405162461bcd60e51b815260040161059590614793565b6108a3565b7f00000000000000000000000000000000000000000000000000000000000000006001600160a01b03168b602001516001600160a01b0316148015610847575060008b51600181111561084557fe5b145b156108a3578a606001518a7f00000000000000000000000000000000000000000000000000000000000000008151811061087d57fe5b602002602001015110156108a35760405162461bcd60e51b815260040161059590614820565b6101008b01515115611244578a61010001518060200190518101906108c891906140f7565b81519194509250611221576108db613ab8565b60095460c08d015160405163ca142f7560e01b81526001600160a01b039092169163ca142f75916109109187906004016145c6565b60e06040518083038186803b15801561092857600080fd5b505afa15801561093c573d6000803e3d6000fd5b505050506040513d601f19601f820116820180604052508101906109609190614350565b6009546040516304aec4f960e01b81529192506001600160a01b037f00000000000000000000000000000000000000000000000000000000000000008116926304aec4f9926109b692869291169060040161491b565b600060405180830381600087803b1580156109d057600080fd5b505af11580156109e4573d6000803e3d6000fd5b505060095460c08f01516020850151600094506001600160a01b037f00000000000000000000000000000000000000000000000000000000000000008116945092831692635778472a92918116911614610a42578460400151610a45565b84515b6040518263ffffffff1660e01b8152600401610a619190614643565b6101406040518083038186803b158015610a7a57600080fd5b505afa158015610a8e573d6000803e3d6000fd5b505050506040513d601f19601f82011682018060405250810190610ab29190614291565b602001516001600160a01b031614610ad5576763757272656e637960c01b610ae2565b67736563757269747960c01b5b905060007f00000000000000000000000000000000000000000000000000000000000000006001600160a01b03168e602001516001600160a01b0316148015610b37575060008e516001811115610b3557fe5b145b80610b8e57507f00000000000000000000000000000000000000000000000000000000000000006001600160a01b03168e604001516001600160a01b0316148015610b8e575060018e516001811115610b8c57fe5b145b15610b9e575060c0820151610c52565b7f00000000000000000000000000000000000000000000000000000000000000006001600160a01b03168e602001516001600160a01b0316148015610bef575060008e516001811115610bed57fe5b145b80610c4657507f00000000000000000000000000000000000000000000000000000000000000006001600160a01b03168e604001516001600160a01b0316148015610c46575060018e516001811115610c4457fe5b145b15610c52575060a08201515b7f00000000000000000000000000000000000000000000000000000000000000006001600160a01b03168e604001516001600160a01b03161480610ccb57507f00000000000000000000000000000000000000000000000000000000000000006001600160a01b03168e602001516001600160a01b0316145b15610cdf576314d95b1b60e21b9350610d67565b7f00000000000000000000000000000000000000000000000000000000000000006001600160a01b03168e604001516001600160a01b03161480610d5857507f00000000000000000000000000000000000000000000000000000000000000006001600160a01b03168e602001516001600160a01b0316145b15610d67576242757960e81b93505b7f00000000000000000000000000000000000000000000000000000000000000006001600160a01b03167f08fb458ca19c621bab303b5f2f406bd918bedc1610f85d2f58c66ec89e89f46b67736563757269747960c01b8414610e51576009546040808701519051632bbc239560e11b81526001600160a01b0390921691635778472a91610df791600401614643565b6101406040518083038186803b158015610e1057600080fd5b505afa158015610e24573d6000803e3d6000fd5b505050506040513d601f19601f82011682018060405250810190610e489190614291565b60e00151610ed7565b6009548551604051632bbc239560e11b81526001600160a01b0390921691635778472a91610e8191600401614643565b6101406040518083038186803b158015610e9a57600080fd5b505afa158015610eae573d6000803e3d6000fd5b505050506040513d601f19601f82011682018060405250810190610ed29190614291565b60e001515b6763757272656e637960c01b8514610f76576009546040808801519051632bbc239560e11b81526001600160a01b0390921691635778472a91610f1c91600401614643565b6101406040518083038186803b158015610f3557600080fd5b505afa158015610f49573d6000803e3d6000fd5b505050506040513d601f19601f82011682018060405250810190610f6d9190614291565b60e00151610ffc565b6009548651604051632bbc239560e11b81526001600160a01b0390921691635778472a91610fa691600401614643565b6101406040518083038186803b158015610fbf57600080fd5b505afa158015610fd3573d6000803e3d6000fd5b505050506040513d601f19601f82011682018060405250810190610ff79190614291565b60e001515b8787606001517f0000000000000000000000000000000000000000000000000000000000000000878a6080015160405161103c979695949392919061455a565b60405180910390a260095460c08f01516040516335ca73db60e21b81526001600160a01b039092169163d729cf6c916110799189906004016145c6565b600060405180830381600087803b15801561109357600080fd5b505af11580156110a7573d6000803e3d6000fd5b50600092506110b4915050565b8e5160018111156110c157fe5b1415611176577f00000000000000000000000000000000000000000000000000000000000000006001600160a01b03168e602001516001600160a01b0316148061114057507f00000000000000000000000000000000000000000000000000000000000000006001600160a01b03168e602001516001600160a01b0316145b156111715761116281898d8151811061115557fe5b60200260200101516128b2565b99505050505050505050611671565b611219565b60018e51600181111561118557fe5b1415611219577f00000000000000000000000000000000000000000000000000000000000000006001600160a01b03168e604001516001600160a01b0316148061120457507f00000000000000000000000000000000000000000000000000000000000000006001600160a01b03168e604001516001600160a01b0316145b156112195761116281898e8151811061115557fe5b50505061123f565b811561123f5760408051808201909152806001815260200183905293505b61125b565b604080518082019091526000808252602082015293505b600a548b6060015110156112815760405162461bcd60e51b81526004016105959061475c565b7f1a34f836394c67ea654a70e0ba2d7137cb31617ff49dce901c0a641b016b41808b602001518c604001518d6060015187602001516040516112c6949392919061459d565b60405180910390a17f00000000000000000000000000000000000000000000000000000000000000006001600160a01b03168b604001516001600160a01b0316148061134757507f00000000000000000000000000000000000000000000000000000000000000006001600160a01b03168b602001516001600160a01b0316145b156113da576009546040516332ff3abf60e11b81526001600160a01b03909116906365fe757e90611381908e908890600190600401614857565b602060405180830381600087803b15801561139b57600080fd5b505af11580156113af573d6000803e3d6000fd5b505050506040513d601f19601f820116820180604052508101906113d391906143d8565b91506114e2565b7f00000000000000000000000000000000000000000000000000000000000000006001600160a01b03168b604001516001600160a01b0316148061145357507f00000000000000000000000000000000000000000000000000000000000000006001600160a01b03168b602001516001600160a01b0316145b156114e2576009546040516332ff3abf60e11b81526001600160a01b03909116906365fe757e9061148d908e908890600090600401614857565b602060405180830381600087803b1580156114a757600080fd5b505af11580156114bb573d6000803e3d6000fd5b505050506040513d601f19601f820116820180604052508101906114df91906143d8565b91505b6000845160028111156114f157fe5b141561166b57816115145760405162461bcd60e51b8152600401610595906147ca565b60008b51600181111561152357fe5b14156115c8577f00000000000000000000000000000000000000000000000000000000000000006001600160a01b03168b602001516001600160a01b031614806115a257507f00000000000000000000000000000000000000000000000000000000000000006001600160a01b03168b602001516001600160a01b0316145b156115c3576115b782868a8151811061115557fe5b96505050505050611671565b61166b565b60018b5160018111156115d757fe5b141561166b577f00000000000000000000000000000000000000000000000000000000000000006001600160a01b03168b604001516001600160a01b0316148061165657507f00000000000000000000000000000000000000000000000000000000000000006001600160a01b03168b604001516001600160a01b0316145b1561166b576115b782868b8151811061115557fe5b50505050505b50949350505050565b60038054604080516020601f60026000196101006001881615020190951694909404938401819004810282018101909252828152606093909290918301828280156117065780601f106116db57610100808354040283529160200191611706565b820191906000526020600020905b8154815290600101906020018083116116e957829003601f168201915b5050505050905090565b600061171d3384846128be565b5060015b92915050565b60025490565b600080600061173a612926565b159250611745612943565b915061174f612967565b9050909192565b60606117606126c5565b905090565b60008061177285336125ee565b9050611796336001600160a01b038716148061178e5750838210155b61019e6126a4565b6117a185858561298b565b336001600160a01b038616148015906117bc57506000198114155b156117ce576117ce85338584036128be565b506001949350505050565b7f000000000000000000000000000000000000000000000000000000000000000090565b60055460ff1690565b600061176061262b565b611818612a6b565b6118206126b2565b61182981612a99565b50565b7f000000000000000000000000000000000000000000000000000000000000000090565b3360008181526001602090815260408083206001600160a01b0387168452909152812054909161171d9185906118869086612b12565b6128be565b611893612a6b565b61189d6000612b24565b565b600a5490565b6118ad612a6b565b6118b56126b2565b6118bf8282612b97565b5050565b6118cb612a6b565b61189d6001612c8c565b6008546000906117609060c0603f612ce3565b600060606118fe86516118f9612cf2565b612cf7565b61191389898989898989612d04612d56612dbf565b97509795505050505050565b60006119296126b2565b600b54604051631f29a8cd60e31b81526060916001600160a01b03169063f94d46689061195a908a90600401614643565b60006040518083038186803b15801561197257600080fd5b505afa158015611986573d6000803e3d6000fd5b505050506040513d6000823e601f3d908101601f191682016040526119ae9190810190613dd7565b5091505060007f00000000000000000000000000000000000000000000000000000000000000008514611a01577f0000000000000000000000000000000000000000000000000000000000000000611a23565b7f00000000000000000000000000000000000000000000000000000000000000005b905060007f00000000000000000000000000000000000000000000000000000000000000008514611a74577f0000000000000000000000000000000000000000000000000000000000000000611a96565b7f00000000000000000000000000000000000000000000000000000000000000005b9050611aa0613af4565b808b6001811115611aad57fe5b90816001811115611aba57fe5b9052506001600160a01b038084166020830152821660408201526060810189905261010081018890523360c0820152600081516001811115611af857fe5b1480611b105750600181516001811115611b0e57fe5b145b611b2c5760405162461bcd60e51b8152600401610595906147fa565b7f00000000000000000000000000000000000000000000000000000000000000006001600160a01b031681604001516001600160a01b03161480611ba557507f00000000000000000000000000000000000000000000000000000000000000006001600160a01b031681604001516001600160a01b0316145b80611be557507f00000000000000000000000000000000000000000000000000000000000000006001600160a01b031681602001516001600160a01b0316145b80611c2557507f00000000000000000000000000000000000000000000000000000000000000006001600160a01b031681602001516001600160a01b0316145b611c415760405162461bcd60e51b81526004016105959061472c565b6060611c4b6126c5565b9050611c578582612837565b611c5f613aa1565b606060008085516001811115611c7157fe5b1415611c9557611c8b8560600151858d815181106106fe57fe5b6060860152611cc4565b600185516001811115611ca457fe5b1415611cc457611cbe8560600151858c815181106106fe57fe5b60608601525b7f00000000000000000000000000000000000000000000000000000000000000006001600160a01b031685602001516001600160a01b0316148015611d155750600085516001811115611d1357fe5b145b15611d76578460600151887f000000000000000000000000000000000000000000000000000000000000000081518110611d4b57fe5b60200260200101511015611d715760405162461bcd60e51b815260040161059590614793565b611e23565b7f00000000000000000000000000000000000000000000000000000000000000006001600160a01b031685602001516001600160a01b0316148015611dc75750600085516001811115611dc557fe5b145b15611e23578460600151887f000000000000000000000000000000000000000000000000000000000000000081518110611dfd57fe5b60200260200101511015611e235760405162461bcd60e51b815260040161059590614820565b6101008501515115611e7257846101000151806020019051810190611e4891906140f7565b8151919350915015611e72578015611e725760408051808201909152806001815260200182905292505b600a5485606001511015611e985760405162461bcd60e51b81526004016105959061475c565b7f1a34f836394c67ea654a70e0ba2d7137cb31617ff49dce901c0a641b016b41808560200151866040015187606001518660200151604051611edd949392919061459d565b60405180910390a17f00000000000000000000000000000000000000000000000000000000000000006001600160a01b031685604001516001600160a01b03161480611f5e57507f00000000000000000000000000000000000000000000000000000000000000006001600160a01b031685602001516001600160a01b0316145b15611ff1576009546040516332ff3abf60e11b81526001600160a01b03909116906365fe757e90611f989088908790600190600401614857565b602060405180830381600087803b158015611fb257600080fd5b505af1158015611fc6573d6000803e3d6000fd5b505050506040513d601f19601f82011682018060405250810190611fea91906143d8565b90506120f9565b7f00000000000000000000000000000000000000000000000000000000000000006001600160a01b031685604001516001600160a01b0316148061206a57507f00000000000000000000000000000000000000000000000000000000000000006001600160a01b031685602001516001600160a01b0316145b156120f9576009546040516332ff3abf60e11b81526001600160a01b03909116906365fe757e906120a49088908790600090600401614857565b602060405180830381600087803b1580156120be57600080fd5b505af11580156120d2573d6000803e3d6000fd5b505050506040513d601f19601f820116820180604052508101906120f691906143d8565b90505b50505050505050509695505050505050565b7f000000000000000000000000000000000000000000000000000000000000000090565b6001600160a01b031660009081526020819052604090205490565b6060808861215961051a612305565b61216461054061182c565b6060600061217186612ee9565b156121995761217e612f18565b6121908961218a611727565b88612f2b565b925090506121eb565b6121a1612f57565b60606121ab6126c5565b90506121b78a82612837565b6121db8d8d8d8d8d6121c76123fa565b6121d1578d6121d4565b60005b878e612d04565b935091506121e98382612d56565b505b6121f58b82612f5f565b8189516001600160401b038111801561220d57600080fd5b50604051908082528060200260200182016040528015612237578160200160208202803683370190505b509450945050505b5097509795505050505050565b600061172182612329565b61225f612a6b565b61189d6001612b24565b60007f00000000000000000000000000000000000000000000000000000000000000008260405160200161229e929190614503565b604051602081830303815290604052805190602001209050919050565b600060606122cc86516118f9612cf2565b61191389898989898989612f69612f85612dbf565b7f000000000000000000000000000000000000000000000000000000000000000090565b7f000000000000000000000000000000000000000000000000000000000000000090565b6001600160a01b031660009081526006602052604090205490565b60048054604080516020601f60026000196101006001881615020190951694909404938401819004810282018101909252828152606093909290918301828280156117065780601f106116db57610100808354040283529160200191611706565b6000806123b233856125ee565b90508083106123cc576123c7338560006128be565b6123d9565b6123d933858584036128be565b5060019392505050565b600061171d33848461298b565b6000611760612fee565b6008546000906117609060ff613068565b612413612a6b565b61189d6000612c8c565b7f000000000000000000000000000000000000000000000000000000000000000090565b60007f6e71edae12b1b97f4d1f60370fef10105fa2faae0126114a169c64845d6126c98888886124708c612329565b896040516020016124869695949392919061466b565b6040516020818303038152906040528051906020012090506124b788826124ae878787613072565b886101f86130b1565b6124c28888886128be565b5050505050505050565b606080886124db61051a612305565b6124e661054061182c565b6124ee612f57565b60606124f86126c5565b9050612502611727565b6125ae57600060606125178d8d8d868b613108565b9150915061253061252661322e565b83101560cc6126a4565b612542600061253d61322e565b613235565b6125558b61254e61322e565b8403613235565b61255f8184612f85565b808a516001600160401b038111801561257757600080fd5b506040519080825280602002602001820160405280156125a1578160200160208202803683370190505b509550955050505061223f565b6125b88882612837565b600060606125e08d8d8d8d8d6125cc6123fa565b6125d6578d6125d9565b60005b898e612f69565b915091506125558b83613235565b60006125f8612305565b6001600160a01b0316826001600160a01b0316141561261a5750600019611721565b612624838361323f565b9050611721565b600061176061326a565b6009546001600160a01b031681565b806118bf81613307565b600061265b848484613385565b5082821b6000196001831b01831b198516175b949350505050565b60006126868383111560016126a4565b50900390565b600081831061269b578161269d565b825b9392505050565b816118bf576118bf816133cc565b61189d6126bd612926565b6101926126a4565b606060006126d1612cf2565b90506060816001600160401b03811180156126eb57600080fd5b50604051908082528060200260200182016040528015612715578160200160208202803683370190505b50905060005b82811015612830577f0000000000000000000000000000000000000000000000000000000000000000811415612789577f000000000000000000000000000000000000000000000000000000000000000082828151811061277857fe5b602002602001018181525050612828565b7f00000000000000000000000000000000000000000000000000000000000000008114156127de577f000000000000000000000000000000000000000000000000000000000000000082828151811061277857fe5b7f000000000000000000000000000000000000000000000000000000000000000081141561282857670de0b6b3a764000082828151811061281b57fe5b6020026020010181815250505b60010161271b565b5091505090565b81518151612846908290612cf7565b60005b818110156128a05761288184828151811061286057fe5b602002602001015184838151811061287457fe5b60200260200101516133dc565b84828151811061288d57fe5b6020908102919091010152600101612849565b50505050565b600061269d83836133dc565b600061269d8383613412565b6001600160a01b0380841660008181526001602090815260408083209487168084529490915290819020849055517f8c5be1e5ebec7d5bd14f71427d1e84f3dd0314c0f7b2291e5b200ac8c7c3b92590612919908590614643565b60405180910390a3505050565b6000612930612967565b42118061176057505060075460ff161590565b7f000000000000000000000000000000000000000000000000000000000000000090565b7f000000000000000000000000000000000000000000000000000000000000000090565b6129a26001600160a01b03841615156101986126a4565b6129b96001600160a01b03831615156101996126a4565b6129c4838383613380565b6001600160a01b0383166000908152602081905260409020546129ea90826101a0613463565b6001600160a01b038085166000908152602081905260408082209390935590841681522054612a199082612b12565b6001600160a01b0380841660008181526020819052604090819020939093559151908516907fddf252ad1be2c89b69c2b068fc378daa952ba7f163c4a11628f55a4df523b3ef90612919908590614643565b6000612a826000356001600160e01b031916612269565b9050611829612a918233613479565b6101916126a4565b612aae612aa4613562565b82101560cb6126a4565b612ac3612ab961356b565b82111560ca6126a4565b600854612ad4908260c0603f61264e565b6008556040517fa9ba3ffe0b6c366b81232caab38605a0699ad5398d6cce76f91ee809e322dafc90612b07908390614643565b60405180910390a150565b600082820161269d84821015836126a4565b8015612b4457612b3f612b35612943565b42106101936126a4565b612b59565b612b59612b4f612967565b42106101a96126a4565b6007805460ff19168215151790556040517f9e3a5e37224532dea67b89face185703738a228a6e8a23dee546960180d3be6490612b07908390614620565b6000612ba161182c565b90506000612bad612305565b6001600160a01b031663b05f8e4883866040518363ffffffff1660e01b8152600401612bda9291906146e4565b60806040518083038186803b158015612bf257600080fd5b505afa158015612c06573d6000803e3d6000fd5b505050506040513d601f19601f82011682018060405250810190612c2a91906143f0565b604051630639cdb560e21b81529094506001600160a01b03851693506318e736d49250612c5e9150859087906004016146cb565b600060405180830381600087803b158015612c7857600080fd5b505af11580156124c2573d6000803e3d6000fd5b600854612c9b908260ff613577565b6008556040517feff3d4d215b42bf0960be9c6d5e05c22cba4df6627a3a523e2acee733b5854c890612cce908390614620565b60405180910390a1806118295761182961189d565b6001901b6000190191901c1690565b600390565b6118bf81831460676126a4565b600060606000612d138461359e565b90506001816001811115612d2357fe5b14612d3857612d336101636133cc565b612d48565b612d4288856135b4565b90935091505b509850989650505050505050565b81518151612d65908290612cf7565b60005b818110156128a057612da0848281518110612d7f57fe5b6020026020010151848381518110612d9357fe5b6020026020010151613412565b848281518110612dac57fe5b6020908102919091010152600101612d68565b333014612e7d576000306001600160a01b0316600036604051612de392919061451b565b6000604051808303816000865af19150503d8060008114612e20576040519150601f19603f3d011682016040523d82523d6000602084013e612e25565b606091505b505090508060008114612e3457fe5b60046000803e6000516001600160e01b0319166343adbafb60e01b8114612e5f573d6000803e3d6000fd5b506020600460003e604060205260243d03602460403e601c3d016000f35b612e85612f57565b6060612e8f6126c5565b9050612e9b8782612837565b60006060612eb38c8c8c8c8c8c898d8d63ffffffff16565b91509150612ec581848663ffffffff16565b8051601f1982018390526343adbafb603f1983015260200260231982016044820181fd5b6000808251118015611721575060ff801682806020019051810190612f0e9190614430565b60ff161492915050565b61189d612f236123fa565b6101b66126a4565b600060606000612f3a8461367f565b90506060612f49878784613695565b919791965090945050505050565b61189d6126b2565b6118bf8282613743565b60006060612f786101636133cc565b9850989650505050505050565b81518151612f94908290612cf7565b60005b818110156128a057612fcf848281518110612fae57fe5b6020026020010151848381518110612fc257fe5b602002602001015161380f565b848281518110612fdb57fe5b6020908102919091010152600101612f97565b6000612ff8612305565b6001600160a01b031663aaabadc56040518163ffffffff1660e01b815260040160206040518083038186803b15801561303057600080fd5b505afa158015613044573d6000803e3d6000fd5b505050506040513d601f19601f820116820180604052508101906117609190613f8c565b1c60019081161490565b60408051604180825260808201909252606091829190602082018180368337019050509050836020820152826040820152846060820153949350505050565b60006130bc8561385d565b90506130d26130cc878387613879565b836126a4565b6130e1428410156101b86126a4565b5050506001600160a01b039092166000908152600660205260409020805460010190555050565b600060606131146126b2565b7f000000000000000000000000000000000000000000000000000000000000000061314f6001600160a01b03888116908316146101566126a4565b61316f816001600160a01b0316876001600160a01b0316146101566126a4565b6dffffffffffffffffffffffffffff606061318986613928565b90506131e8817f0000000000000000000000000000000000000000000000000000000000000000815181106131ba57fe5b60200260200101517f00000000000000000000000000000000000000000000000000000000000000006128a6565b817f00000000000000000000000000000000000000000000000000000000000000008151811061321457fe5b602090810291909101015290999098509650505050505050565b620f424090565b6118bf828261393e565b6001600160a01b03918216600090815260016020908152604080832093909416825291909152205490565b60007f00000000000000000000000000000000000000000000000000000000000000007f00000000000000000000000000000000000000000000000000000000000000007f00000000000000000000000000000000000000000000000000000000000000006132d76139d1565b306040516020016132ec95949392919061469f565b60405160208183030381529060405280519060200120905090565b60028151101561331657611829565b60008160008151811061332557fe5b602002602001015190506000600190505b825181101561338057600083828151811061334d57fe5b60200260200101519050613376816001600160a01b0316846001600160a01b03161060656126a4565b9150600101613336565b505050565b613394610100831060646126a4565b6133bd600182101580156133b657506133b260ff846101000361268c565b8211155b60646126a4565b61338083821c156101b46126a4565b611829816210905360ea1b6139d5565b60008282026134008415806133f95750838583816133f657fe5b04145b60036126a4565b670de0b6b3a764000090049392505050565b600061342182151560046126a4565b8261342e57506000611721565b670de0b6b3a7640000838102906134519085838161344857fe5b041460056126a4565b82818161345a57fe5b04915050611721565b600061347284841115836126a4565b5050900390565b600073ba1ba1ba1ba1ba1ba1ba1ba1ba1ba1ba1ba1ba1b6134986122e1565b6001600160a01b0316141580156134b357506134b383613a36565b156134db576134c06122e1565b6001600160a01b0316336001600160a01b0316149050611721565b6134e3612fee565b6001600160a01b0316639be2a8848484306040518463ffffffff1660e01b81526004016135129392919061464c565b60206040518083038186803b15801561352a57600080fd5b505afa15801561353e573d6000803e3d6000fd5b505050506040513d601f19601f820116820180604052508101906126249190613ea2565b64e8d4a5100090565b67016345785d8a000090565b60006001821b198416828461358d576000613590565b60015b60ff16901b17949350505050565b6000818060200190518101906117219190613ff5565b6000606060006135c384613a72565b9050606085516001600160401b03811180156135de57600080fd5b50604051908082528060200260200182016040528015613608578160200160208202803683370190505b50905060005b8651811015613673577f0000000000000000000000000000000000000000000000000000000000000000811461366b5786818151811061364a57fe5b602002602001015182828151811061365e57fe5b6020026020010181815250505b60010161360e565b50909590945092505050565b60008180602001905181019061269d919061444c565b606060006136a38385613412565b905084516001600160401b03811180156136bc57600080fd5b506040519080825280602002602001820160405280156136e6578160200160208202803683370190505b50915060005b855181101561373a5761371b8287838151811061370557fe5b60200260200101516133dc90919063ffffffff16565b83828151811061372757fe5b60209081029190910101526001016136ec565b50509392505050565b61375a6001600160a01b038316151561019b6126a4565b61376682600083613380565b6001600160a01b03821660009081526020819052604090205461378c90826101b2613463565b6001600160a01b0383166000908152602081905260409020556137bf6137ba826137b4611727565b90613a88565b613a96565b60006001600160a01b0316826001600160a01b03167fddf252ad1be2c89b69c2b068fc378daa952ba7f163c4a11628f55a4df523b3ef836040516138039190614643565b60405180910390a35050565b600061381e82151560046126a4565b8261382b57506000611721565b670de0b6b3a7640000838102906138459085838161344857fe5b82600182038161385157fe5b04600101915050611721565b600061386761326a565b8260405160200161229e92919061452b565b600061388b82516041146101b96126a4565b60208281015160408085015160608601518251600080825295019283905292939092811a916001906138c49089908590889088906146fb565b6020604051602081039080840390855afa1580156138e6573d6000803e3d6000fd5b5050604051601f1901519150506001600160a01b0381161580159061391c5750876001600160a01b0316816001600160a01b0316145b98975050505050505050565b60608180602001905181019061269d919061403e565b61394a60008383613380565b61395f6137ba82613959611727565b90612b12565b6001600160a01b0382166000908152602081905260409020546139829082612b12565b6001600160a01b0383166000818152602081905260408082209390935591519091907fddf252ad1be2c89b69c2b068fc378daa952ba7f163c4a11628f55a4df523b3ef90613803908590614643565b4690565b62461bcd60e51b600090815260206004526007602452600a808404818106603090810160081b958390069590950190829004918206850160101b01602363ffffff0060e086901c160160181b0190930160c81b60445260e882901c90606490fd5b6000613a48631c74c91760e11b612269565b821480613a635750613a606350dd6ed960e01b612269565b82145b80611721575061172182613a9b565b60008180602001905181019061269d9190614011565b600061269d83836001613463565b600255565b50600090565b604080518082019091526000808252602082015290565b6040805160e081018252600080825260208201819052918101829052606081018290526080810182905260a0810182905260c081019190915290565b60408051610120810190915280600081526000602082018190526040820181905260608083018290526080830182905260a0830182905260c0830182905260e08301919091526101009091015290565b803561172181614a35565b805161172181614a35565b600082601f830112613b6a578081fd5b8135613b7d613b78826149c7565b6149a1565b818152915060208083019084810181840286018201871015613b9e57600080fd5b60005b84811015613bbd57813584529282019290820190600101613ba1565b505050505092915050565b600082601f830112613bd8578081fd5b8151613be6613b78826149c7565b818152915060208083019084810181840286018201871015613c0757600080fd5b60005b84811015613bbd57815184529282019290820190600101613c0a565b600082601f830112613c36578081fd5b8135613c44613b78826149e6565b9150808252836020828501011115613c5b57600080fd5b8060208401602084013760009082016020015292915050565b805161172181614a4a565b80516005811061172157600080fd5b80516003811061172157600080fd5b803561172181614a4a565b600060208284031215613cb9578081fd5b813561269d81614a35565b60008060408385031215613cd6578081fd5b8235613ce181614a35565b91506020830135613cf181614a35565b809150509250929050565b600080600060608486031215613d10578081fd5b8335613d1b81614a35565b92506020840135613d2b81614a35565b929592945050506040919091013590565b600080600080600080600060e0888a031215613d56578485fd5b8735613d6181614a35565b96506020880135613d7181614a35565b955060408801359450606088013593506080880135613d8f81614a57565b9699959850939692959460a0840135945060c09093013592915050565b60008060408385031215613dbe578182fd5b8235613dc981614a35565b946020939093013593505050565b600080600060608486031215613deb578081fd5b83516001600160401b0380821115613e01578283fd5b818601915086601f830112613e14578283fd5b8151613e22613b78826149c7565b80828252602080830192508086018b828387028901011115613e42578788fd5b8796505b84871015613e6d578051613e5981614a35565b845260019690960195928101928101613e46565b508901519097509350505080821115613e84578283fd5b50613e9186828701613bc8565b925050604084015190509250925092565b600060208284031215613eb3578081fd5b8151801515811461269d578182fd5b600080600080600080600060e0888a031215613edc578081fd5b873596506020880135613eee81614a35565b95506040880135613efe81614a35565b945060608801356001600160401b0380821115613f19578283fd5b613f258b838c01613b5a565b955060808a0135945060a08a0135935060c08a0135915080821115613f48578283fd5b50613f558a828b01613c26565b91505092959891949750929550565b600060208284031215613f75578081fd5b81356001600160e01b03198116811461269d578182fd5b600060208284031215613f9d578081fd5b815161269d81614a35565b60008060408385031215613fba578182fd5b8235613fc581614a35565b915060208301356001600160401b03811115613fdf578182fd5b613feb85828601613c26565b9150509250929050565b600060208284031215614006578081fd5b815161269d81614a4a565b60008060408385031215614023578182fd5b825161402e81614a4a565b6020939093015192949293505050565b60008060408385031215614050578182fd5b82516004811061405e578283fd5b60208401519092506001600160401b03811115614079578182fd5b613feb85828601613bc8565b60008060008060008060c0878903121561409d578384fd5b86356140a881614a4a565b9550602087013594506040870135935060608701356001600160401b038111156140d0578283fd5b6140dc89828a01613c26565b9350506080870135915060a087013590509295509295509295565b60008060408385031215614109578182fd5b82516001600160401b0381111561411e578283fd5b8301601f8101851361412e578283fd5b805161413c613b78826149e6565b818152866020838501011115614150578485fd5b614161826020830160208601614a09565b60209590950151949694955050505050565b60008060008060808587031215614188578182fd5b84356001600160401b038082111561419e578384fd5b818701915061012080838a0312156141b4578485fd5b6141bd816149a1565b90506141c98984613c9d565b81526141d88960208501613b44565b60208201526141ea8960408501613b44565b6040820152606083013560608201526080830135608082015260a083013560a082015261421a8960c08501613b44565b60c082015261422c8960e08501613b44565b60e08201526101008084013583811115614244578687fd5b6142508b828701613c26565b82840152505080965050602087013591508082111561426d578384fd5b5061427a87828801613b5a565b949794965050505060408301359260600135919050565b60006101408083850312156142a4578182fd5b6142ad816149a1565b90506142b98484613c74565b81526142c88460208501613b4f565b60208201526142da8460408501613b4f565b60408201526142ec8460608501613c8e565b60608201526142fe8460808501613c74565b60808201526143108460a08501613c7f565b60a082015260c083015160c082015261432c8460e08501613b4f565b60e08201526101008381015190820152610120928301519281019290925250919050565b600060e08284031215614361578081fd5b61436b60e06149a1565b82518152602083015161437d81614a35565b8060208301525060408301516040820152606083015160608201526080830151608082015260a083015160a082015260c083015160c08201528091505092915050565b6000602082840312156143d1578081fd5b5035919050565b6000602082840312156143e9578081fd5b5051919050565b60008060008060808587031215614405578182fd5b845193506020850151925060408501519150606085015161442581614a35565b939692955090935050565b600060208284031215614441578081fd5b815161269d81614a57565b6000806040838503121561445e578182fd5b825161402e81614a57565b6001600160a01b03169052565b6000815180845260208085019450808401835b838110156144a557815187529582019590820190600101614489565b509495945050505050565b600081518084526144c8816020860160208601614a09565b601f01601f19169290920160200192915050565b600281106144e657fe5b9052565b8051600381106144f657fe5b8252602090810151910152565b9182526001600160e01b031916602082015260240190565b6000828483379101908152919050565b61190160f01b81526002810192909252602282015260420190565b6001600160a01b0391909116815260200190565b6001600160a01b039788168152958716602087015260408601949094526060850192909252909316608083015260a082019290925260c081019190915260e00190565b6001600160a01b0394851681529290931660208301526040820152606081019190915260800190565b6001600160a01b03929092168252602082015260400190565b60006020825261269d6020830184614476565b6000604082526146056040830185614476565b82810360208401526146178185614476565b95945050505050565b901515815260200190565b92151583526020830191909152604082015260600190565b90815260200190565b9283526001600160a01b03918216602084015216604082015260600190565b9586526001600160a01b0394851660208701529290931660408501526060840152608083019190915260a082015260c00190565b9485526020850193909352604084019190915260608301526001600160a01b0316608082015260a00190565b60008382526040602083015261266e60408301846144b0565b9182526001600160a01b0316602082015260400190565b93845260ff9290921660208401526040830152606082015260800190565b60006020825261269d60208301846144b0565b602080825260169082015275496e76616c6964207377617070656420746f6b656e7360501b604082015260600190565b60208082526018908201527f4f726465722062656c6f77206d696e696d756d2073697a650000000000000000604082015260600190565b6020808252601d908201527f496e73756666696369656e742063757272656e63792062616c616e6365000000604082015260600190565b602080825260169082015275496e73756666696369656e74206c697175696469747960501b604082015260600190565b6020808252600c908201526b0496e76616c696420737761760a41b604082015260600190565b6020808252601d908201527f496e73756666696369656e742073656375726974792062616c616e6365000000604082015260600190565b60006080825261486b6080830186516144dc565b602085015161487d60a0840182614469565b50604085015161489060c0840182614469565b50606085015160e08301526080850151610100818185015260a08701519150610120828186015260c088015192506148cc610140860184614469565b60e088015192506148e1610160860184614469565b8188015192508061018086015250506148fe6101a08401826144b0565b91505061490e60208301856144ea565b61266e60608301846144dc565b825181526020808401516001600160a01b039081169183019190915260408085015190830152606080850151908301526080808501519083015260a0808501519083015260c09384015193820193909352911660e08201526101000190565b60008382526040602083015261266e6040830184614476565b60ff91909116815260200190565b6040518181016001600160401b03811182821017156149bf57600080fd5b604052919050565b60006001600160401b038211156149dc578081fd5b5060209081020190565b60006001600160401b038211156149fb578081fd5b50601f01601f191660200190565b60005b83811015614a24578181015183820152602001614a0c565b838111156128a05750506000910152565b6001600160a01b038116811461182957600080fd5b6002811061182957600080fd5b60ff8116811461182957600080fdfea2646970667358221220679e1c990e21fef80fc0f958482a930e99196acd9e06b46452d800fde117a18564736f6c63430007010033608060405260006001553480156200001657600080fd5b50604051620036f2380380620036f2833981016040819052620000399162000106565b620000443362000098565b600980546001600160a01b039586166001600160a01b03199182161790915560078054948616948216949094179093556008805492851692841692909217909155600a805491909316911617905562000166565b600080546001600160a01b038381166001600160a01b0319831681178455604051919092169283917f8be0079c531659141344cd1fd0a4f28419497f9722a3daafe3b4186f6b6457e09190a35050565b80516001600160a01b03811681146200010057600080fd5b92915050565b600080600080608085870312156200011c578384fd5b620001288686620000e8565b9350620001398660208701620000e8565b92506200014a8660408701620000e8565b91506200015b8660608701620000e8565b905092959194509250565b61357c80620001766000396000f3fe608060405234801561001057600080fd5b50600436106101005760003560e01c80637489ec2311610097578063ca142f7511610066578063ca142f75146101e6578063d729cf6c14610206578063e43372e914610219578063f2fde38b1461022157610100565b80637489ec23146101a557806381b5da1d146101b85780638da5cb5b146101cb578063af18cfd8146101d357610100565b80635778472a116100d35780635778472a1461016257806365fe757e146101825780636945c1fd14610195578063715018a61461019d57610100565b80630c8605be146101055780632541897f1461011a57806338fff2d01461013857806346b8b7301461014d575b600080fd5b6101186101133660046130a9565b610234565b005b610122610356565b60405161012f919061321c565b60405180910390f35b610140610365565b60405161012f9190613274565b6101556103f4565b60405161012f9190613230565b610175610170366004613010565b6104dc565b60405161012f91906133fe565b6101406101903660046130bd565b61066d565b6101226109aa565b6101186109b9565b6101186101b3366004613010565b6109d1565b6101186101c6366004613040565b610b28565b610122610c90565b6101186101e136600461306b565b610c9f565b6101f96101f4366004612fe5565b61103f565b60405161012f91906134ab565b610118610214366004612fe5565b61110b565b6101556111aa565b61011861022f366004612fc9565b61120b565b6000838152600260208190526040822060010154600160a01b900460ff169081111561025c57fe5b14156102835760405162461bcd60e51b815260040161027a906132b4565b60405180910390fd5b6002600084815260026020526040902060010154600160b01b900460ff1660048111156102ac57fe5b146102c95760405162461bcd60e51b815260040161027a9061334f565b6000838152600260205260409020600301546001600160a01b031633146103025760405162461bcd60e51b815260040161027a90613318565b6000838152600260208190526040909120600481018490558082018390556001908101549091600160a01b90910460ff169081111561033d57fe5b14156103515761034e83600161123a565b50505b505050565b6007546001600160a01b031690565b600080600a60009054906101000a90046001600160a01b03166001600160a01b03166338fff2d06040518163ffffffff1660e01b815260040160206040518083038186803b1580156103b657600080fd5b505afa1580156103ca573d6000803e3d6000fd5b505050506040513d601f19601f820116820180604052508101906103ee9190613028565b91505090565b600354606090819067ffffffffffffffff8111801561041257600080fd5b5060405190808252806020026020018201604052801561043c578160200160208202803683370190505b5090506000805b6003548110156104d457336001600160a01b0316600260006003848154811061046857fe5b600091825260208083209091015483528201929092526040019020600301546001600160a01b031614156104cc57600381815481106104a357fe5b90600052602060002001548383815181106104ba57fe5b60209081029190910101526001909101905b600101610443565b509091505090565b6104e4612e17565b6104ec610c90565b6001600160a01b0316336001600160a01b0316148061051557506009546001600160a01b031633145b8061053957506000828152600260205260409020600301546001600160a01b031633145b6105555760405162461bcd60e51b815260040161027a9061327d565b60008281526002602052604090819020815161014081019092528054829060ff16600181111561058157fe5b600181111561058c57fe5b8152815461010090046001600160a01b03908116602083015260018301549081166040830152606090910190600160a01b900460ff1660028111156105cd57fe5b60028111156105d857fe5b81526020016001820160159054906101000a900460ff1660018111156105fa57fe5b600181111561060557fe5b81526020016001820160169054906101000a900460ff16600481111561062757fe5b600481111561063257fe5b81526002820154602082015260038201546001600160a01b031660408201526004820154606082015260059091015460809091015292915050565b600061068d3361067b610c90565b6001600160a01b0316146101aa61168a565b60008351600281111561069c57fe5b14806106b457506001835160028111156106b257fe5b145b6106bd57600080fd5b60008260018111156106cb57fe5b14806106e2575060018260018111156106e057fe5b145b6106eb57600080fd5b600154421415610702576001805481019055610707565b426001555b60008460c001516001546040516020016107229291906131fa565b604051602081830303815290604052805190602001209050610742612e17565b6040518061014001604052808760000151600181111561075e57fe5b815260200187602001516001600160a01b0316815260200187604001516001600160a01b031681526020018660000151600281111561079957fe5b81526020018560018111156107aa57fe5b8152600260208083018290526060808b015160408086019190915260c08c01516001600160a01b03169185019190915289820151608085015260a0909301869052600086815291905220815181549293508392829060ff19166001838181111561081057fe5b021790555060208201518154610100600160a81b0319166101006001600160a01b039283160217825560408301516001830180546001600160a01b03191691909216178082556060840151919060ff60a01b1916600160a01b83600281111561087557fe5b021790555060808201518160010160156101000a81548160ff0219169083600181111561089e57fe5b021790555060a082015160018201805460ff60b01b1916600160b01b8360048111156108c657fe5b021790555060c0820151600282015560e08201516003820180546001600160a01b0319166001600160a01b0390921691909117905561010082015160048201556101209091015160059091015560008551600281111561092257fe5b141561093c5761093381600061169c565b925050506109a3565b60018551600281111561094b57fe5b14156109a057600380546000848152600460205260408120829055600180830184559290527fc2575a0e9e593c00f959f8c92f12db2869c3395a3b0502d05e2516446f71f85b0183905561093390829061169c565b50505b9392505050565b6008546001600160a01b031690565b6109c53361067b610c90565b6109cf6000612688565b565b6000818152600260208190526040822060010154600160a01b900460ff16908111156109f957fe5b1415610a175760405162461bcd60e51b815260040161027a906133bd565b6002600082815260026020526040902060010154600160b01b900460ff166004811115610a4057fe5b14610a5d5760405162461bcd60e51b815260040161027a9061334f565b6000818152600260205260409020600301546001600160a01b03163314610a965760405162461bcd60e51b815260040161027a90613318565b60035415610ac857600081815260046020526040902054600380549091908110610abc57fe5b60009182526020822001555b6000908152600460208181526040808420849055600291829052832080546001600160a81b03191681556001810180546001600160b81b03191690559081018390556003810180546001600160a01b031916905590810182905560050155565b6009546001600160a01b0316331480610b595750610b44610c90565b6001600160a01b0316336001600160a01b0316145b610b755760405162461bcd60e51b815260040161027a906132eb565b600092835260026020818152604080862080546001600160a81b03199081168255600180830180546001600160b81b03199081169091558387018a9055600380850180546001600160a01b0319908116825560048088018e905560059788018e90559b8d52878d208054909616865585850180549094169093558489018c9055848201805484168155858c018d90559486018c9055546001600160a01b039081168c52858852868c208a8d528852868c208c8155808501805485169055808a018d90558083018d9055808c018d90558087018d905560069081018d90559454168b52848752858b20988b5297909552928820888155928301805490941690935592810186905592830185905592820184905581018390550155565b6000546001600160a01b031690565b6009546001600160a01b0316331480610cd05750610cbb610c90565b6001600160a01b0316336001600160a01b0316145b610cec5760405162461bcd60e51b815260040161027a906132eb565b6000826001811115610cfa57fe5b1480610d1157506001826001811115610d0f57fe5b145b610d1a57600080fd5b60008481526002602081905260409091208082018054860190556001908101805460ff60b01b1916600160b11b17908190559091600160a01b90910460ff1690811115610d6357fe5b1415610dbb57600380546000868152600460205260408120829055600180830184559290527fc2575a0e9e593c00f959f8c92f12db2869c3395a3b0502d05e2516446f71f85b01859055610db890859061123a565b50505b60018101610dc7612e6e565b5060008581526002602081815260408084206003908101546001600160a01b03908116865260058085528387208988528552838720845160e08101865281548082526001830154909416968101969096529586015493850193909352908401546060840152600484015460808401529083015460a083015260069092015460c082015291908714610e59578151610e5b565b865b9050600087836040015114610e74578260400151610e76565b875b9050610e80612e6e565b6040518060e001604052808481526020016002600086815260200190815260200160002060030160009054906101000a90046001600160a01b03166001600160a01b03168152602001838152602001856060015181526020018681526020018560a0015181526020018560c0015181525090508060056000600260008d815260200190815260200160002060030160009054906101000a90046001600160a01b03166001600160a01b03166001600160a01b0316815260200190815260200160002060008781526020019081526020016000206000820151816000015560208201518160010160006101000a8154816001600160a01b0302191690836001600160a01b0316021790555060408201518160020155606082015181600301556080820151816004015560a0820151816005015560c0820151816006015590505060066000600260008c815260200190815260200160002060030160009054906101000a90046001600160a01b03166001600160a01b03166001600160a01b03168152602001908152602001600020859080600181540180825580915050600190039060005260206000200160009091909190915055505050505050505050565b611047612e6e565b61104f610c90565b6001600160a01b0316336001600160a01b031614806110765750336001600160a01b038416145b6110925760405162461bcd60e51b815260040161027a90613386565b506001600160a01b038083166000908152600560208181526040808420868552825292839020835160e08101855281548152600182015490951691850191909152600281015492840192909252600382015460608401526004820154608084015281015460a08301526006015460c08201525b92915050565b6111173361067b610c90565b60005b6001600160a01b038316600090815260066020526040902054811015610351576001600160a01b038316600090815260066020526040902080548391908390811061116157fe5b906000526020600020015414156111a2576001600160a01b038316600090815260066020526040902080548290811061119657fe5b60009182526020822001555b60010161111a565b3360009081526006602090815260409182902080548351818402810184019094528084526060939283018282801561120157602002820191906000526020600020905b8154815260200190600101908083116111ed575b5050505050905090565b6112173361067b610c90565b61122e6001600160a01b03821615156101ab61168a565b61123781612688565b50565b600060606000606060038054905067ffffffffffffffff8111801561125e57600080fd5b50604051908082528060200260200182016040528015611288578160200160208202803683370190505b5090506000805b60035481101561167d57600381815481106112a657fe5b6000918252602090912001546112bb57611675565b600060026000600384815481106112ce57fe5b9060005260206000200154815260200190815260200160002060010160159054906101000a900460ff16600181111561130357fe5b148015611337575060016000898152600260205260409020600190810154600160a81b900460ff169081111561133557fe5b145b801561139f57506002600089815260200190815260200160002060040154600260006003848154811061136657fe5b906000526020600020015481526020019081526020016000206004015410158061139f5750600088815260026020526040902060040154155b806114885750600160026000600384815481106113b857fe5b9060005260206000200154815260200190815260200160002060010160159054906101000a900460ff1660018111156113ed57fe5b1480156114205750600080898152600260205260409020600190810154600160a81b900460ff169081111561141e57fe5b145b801561148857506002600089815260200190815260200160002060040154600260006003848154811061144f57fe5b90600052602060002001548152602001908152602001600020600401541115806114885750600088815260026020526040902060040154155b15611675576003818154811061149a57fe5b90600052602060002001548383815181106114b157fe5b60209081029190910181019190915260075460008a8152600290925260409091205461010090046001600160a01b03908116911614801561150c575060008881526002602052604081205460ff16600181111561150a57fe5b145b8061155d57506008546000898152600260205260409020600101546001600160a01b03908116911614801561155d5750600160008981526002602052604090205460ff16600181111561155b57fe5b145b156115a05761159984600260006003858154811061157757fe5b90600052602060002001548152602001908152602001600020600201546126d8565b9350611619565b6116168461161160026000600386815481106115b857fe5b906000526020600020015481526020019081526020016000206002015460026000600387815481106115e657fe5b90600052602060002001548152602001908152602001600020600401546126ea90919063ffffffff16565b6126d8565b93505b600087600281111561162757fe5b1415801561164c5750876003828154811061163e57fe5b906000526020600020015414155b1561166e578783836001018151811061166157fe5b6020026020010181815250505b6001909101905b60010161128f565b5091969095509350505050565b816116985761169881612720565b5050565b60008060008080600090506000806000606060038054905067ffffffffffffffff811180156116ca57600080fd5b506040519080825280602002602001820160405280156116f4578160200160208202803683370190505b5090506117068b61012001518b61123a565b909250905060008a600281111561171957fe5b1415611741578a60c0015182101561173c57600098505050505050505050611105565b61176b565b60018a600281111561174f57fe5b141561176b578161176b57600098505050505050505050611105565b600091505b805182101561266f5760c08b01516117875761266f565b8a610120015181838151811061179957fe5b6020026020010151141580156117f257508a60e001516001600160a01b0316600260008385815181106117c857fe5b6020908102919091018101518252810191909152604001600020600301546001600160a01b031614155b8015611840575060006002600083858151811061180b57fe5b6020026020010151815260200190815260200160002060010160169054906101000a900460ff16600481111561183d57fe5b14155b15611a70576002600082848151811061185557fe5b6020026020010151815260200190815260200160002060040154600014801561188157506101008b0151155b1561188b57612664565b60006002600083858151811061189d57fe5b6020026020010151815260200190815260200160002060010160159054906101000a900460ff1660018111156118cf57fe5b1480156118eb575060018b6080015160018111156118e957fe5b145b15611980578a61010001516002600083858151811061190657fe5b602002602001015181526020019081526020016000206004015410158061193057506101008b0151155b1561197b576002600082848151811061194557fe5b6020026020010151815260200190815260200160002060040154965080828151811061196d57fe5b602002602001015197508194505b611a70565b60016002600083858151811061199257fe5b6020026020010151815260200190815260200160002060010160159054906101000a900460ff1660018111156119c457fe5b1480156119e0575060008b6080015160018111156119de57fe5b145b15611a70578a6101000151600260008385815181106119fb57fe5b6020026020010151815260200190815260200160002060040154111580611a2557506101008b0151155b15611a705760026000828481518110611a3a57fe5b60200260200101518152602001908152602001600020600401549650808281518110611a6257fe5b602002602001015195508194505b60018b608001516001811115611a8257fe5b141561209c5787156120975760075460208c01516001600160a01b039081169116148015611abc575060008b516001811115611aba57fe5b145b15611da15760085460008981526002602052604090205461010090046001600160a01b039081169116148015611b0c575060008881526002602052604081205460ff166001811115611b0a57fe5b145b15611b355760008881526002602081905260409091200154611b2e9088612730565b9350611b9b565b6007546000898152600260205260409020600101546001600160a01b039081169116148015611b805750600160008981526002602052604090205460ff166001811115611b7e57fe5b145b15611b9b576000888152600260208190526040909120015493505b8a60c001518410611d2f5760c08b01519350611bb784886126ea565b60085460008a8152600260205260409020549194506001600160a01b0390811661010090920416148015611c075750600160008981526002602052604090205460ff166001811115611c0557fe5b145b611c2d5760008881526002602081905260409091200154611c289084612781565b611c51565b611c51600260008a8152602001908152602001600020600201548c60c00151612781565b60008981526002602081815260408320820184905560c08f01839052918b90529052611ca1576000888152600260205260409020600101805460ff60b01b19169055611c9c85612797565b611cc4565b6000888152600260205260409020600101805460ff60b01b1916600160b01b1790555b600060a08c01526101208b0151611cde90898987876127b2565b600354611cee9060001901612797565b60008b606001516002811115611d0057fe5b1415611d2a57611d1b8b61012001518c60e001516001612ab6565b98505050505050505050611105565b611d9c565b8315611d9c57611d3f84886126ea565b9250611d4f8b60c0015185612781565b60c08c015260008881526002602081905260408220908101919091556001908101805460ff60b01b1916905560a08c01526101208b0151611d9390898987876127b2565b611d9c85612797565b612097565b60085460408c01516001600160a01b039081169116148015611dcf575060018b516001811115611dcd57fe5b145b15612097576007546000898152600260205260409020600101546001600160a01b039081169116148015611e1f5750600160008981526002602052604090205460ff166001811115611e1d57fe5b145b15611e485760008881526002602081905260409091200154611e4190886126ea565b9250611eae565b60085460008981526002602052604090205461010090046001600160a01b039081169116148015611e93575060008881526002602052604081205460ff166001811115611e9157fe5b145b15611eae576000888152600260208190526040909120015492505b8a60c00151831061202a5760c08b01519250611eca8388612730565b60075460008a8152600260205260409020600101549195506001600160a01b039182169116148015611f16575060008881526002602052604081205460ff166001811115611f1457fe5b145b611f3c5760008881526002602081905260409091200154611f379085612781565b611f60565b611f60600260008a8152602001908152602001600020600201548c60c00151612781565b60008981526002602081815260408320820184905560c08f01839052918b90529052611fb0576000888152600260205260409020600101805460ff60b01b19169055611fab85612797565b611fd3565b6000888152600260205260409020600101805460ff60b01b1916600160b01b1790555b600060a08c01526101208b0151611fed90898987876127b2565b600354611ffd9060001901612797565b60008b60600151600281111561200f57fe5b1415611d9c57611d1b8b61012001518c60e001516000612ab6565b82156120975761203a8388612730565b935061204a8b60c0015184612781565b60c08c015260008881526002602081905260408220908101919091556001908101805460ff60b01b1916905560a08c01526101208b015161208e90898987876127b2565b61209785612797565b612664565b60008b6080015160018111156120ae57fe5b14156126645785156126645760085460208c01516001600160a01b0390811691161480156120e8575060008b5160018111156120e657fe5b145b1561236c5760075460008781526002602052604090205461010090046001600160a01b039081169116148015612138575060008681526002602052604081205460ff16600181111561213657fe5b145b15612161576000868152600260208190526040909120015461215a90886126ea565b92506121c7565b6008546000878152600260205260409020600101546001600160a01b0390811691161480156121ac5750600160008781526002602052604090205460ff1660018111156121aa57fe5b145b156121c7576000868152600260208190526040909120015492505b8a60c0015183106123085760c08b015192506121e38388612730565b6008546000888152600260205260409020600101549195506001600160a01b0391821691161480156122315750600160008781526002602052604090205460ff16600181111561222f57fe5b145b61225757600086815260026020819052604090912001546122529085612781565b61227b565b61227b60026000888152602001908152602001600020600201548c60c00151612781565b60008781526002602081815260408320820184905560c08f018390529189905290526122cb576000868152600260205260409020600101805460ff60b01b191690556122c685612797565b6122ee565b6000868152600260205260409020600101805460ff60b01b1916600160b01b1790555b600060a08c01526101208b0151611fed90878987876127b2565b8215612097576123188388612730565b93506123288b60c0015184612781565b60c08c015260008681526002602081905260408220908101919091556001908101805460ff60b01b1916905560a08c01526101208b015161208e90878987876127b2565b60075460408c01516001600160a01b03908116911614801561239a575060018b51600181111561239857fe5b145b15612664576008546000878152600260205260409020600101546001600160a01b0390811691161480156123ea5750600160008781526002602052604090205460ff1660018111156123e857fe5b145b15612413576000868152600260208190526040909120015461240c9088612730565b9350612479565b60075460008781526002602052604090205461010090046001600160a01b03908116911614801561245e575060008681526002602052604081205460ff16600181111561245c57fe5b145b15612479576000868152600260208190526040909120015493505b8a60c0015184106125f75760c08b0151935061249584886126ea565b6007546000888152600260205260409020549194506001600160a01b03908116610100909204161480156124e3575060008681526002602052604081205460ff1660018111156124e157fe5b145b61250957600086815260026020819052604090912001546125049084612781565b61252d565b61252d60026000888152602001908152602001600020600201548c60c00151612781565b60008781526002602081815260408320820184905560c08f0183905291899052905261257d576000868152600260205260409020600101805460ff60b01b1916905561257885612797565b6125a0565b6000868152600260205260409020600101805460ff60b01b1916600160b01b1790555b600060a08c01526101208b01516125ba90878987876127b2565b6003546125ca9060001901612797565b60008b6060015160028111156125dc57fe5b141561209757611d1b8b61012001518c60e001516001612ab6565b83156126645761260784886126ea565b92506126178b60c0015185612781565b60c08c015260008681526002602081905260408220908101919091556001908101805460ff60b01b1916905560a08c01526101208b015161265b90878987876127b2565b61266485612797565b600190910190611770565b50606061267a612c5d565b505050505050505092915050565b600080546001600160a01b038381166001600160a01b0319831681178455604051919092169283917f8be0079c531659141344cd1fd0a4f28419497f9722a3daafe3b4186f6b6457e09190a35050565b60008282016109a3848210158361168a565b600082820261270e84158061270757508385838161270457fe5b04145b600361168a565b670de0b6b3a764000090049392505050565b611237816210905360ea1b612db6565b600061273f821515600461168a565b8261274c57506000611105565b670de0b6b3a76400008381029061276f9085838161276657fe5b0414600561168a565b82818161277857fe5b04915050611105565b600061279183831115600161168a565b50900390565b600381815481106127a457fe5b600091825260208220015550565b600180548101908190556127c4612e6e565b6040518060e00160405280888152602001600260008a815260200190815260200160002060030160009054906101000a90046001600160a01b03166001600160a01b031681526020018781526020018681526020018381526020018581526020018481525090508060056000600260008b815260200190815260200160002060030160009054906101000a90046001600160a01b03166001600160a01b03166001600160a01b0316815260200190815260200160002060008481526020019081526020016000206000820151816000015560208201518160010160006101000a8154816001600160a01b0302191690836001600160a01b0316021790555060408201518160020155606082015181600301556080820151816004015560a0820151816005015560c082015181600601559050508060056000600260008a815260200190815260200160002060030160009054906101000a90046001600160a01b03166001600160a01b03166001600160a01b0316815260200190815260200160002060008481526020019081526020016000206000820151816000015560208201518160010160006101000a8154816001600160a01b0302191690836001600160a01b0316021790555060408201518160020155606082015181600301556080820151816004015560a0820151816005015560c0820151816006015590505060066000600260008a815260200190815260200160002060030160009054906101000a90046001600160a01b03166001600160a01b03166001600160a01b03168152602001908152602001600020829080600181540180825580915050600190039060005260206000200160009091909190915055600660006002600089815260200190815260200160002060030160009054906101000a90046001600160a01b03166001600160a01b03166001600160a01b0316815260200190815260200160002082908060018154018082558091505060019003906000526020600020016000909190919091505550505050505050565b6000806000612ac3612e6e565b60005b6001600160a01b038716600090815260066020526040902054811015612c4a576001600160a01b0387166000908152600660205260409020805482908110612b0a57fe5b60009182526020808320909101546001600160a01b03808b16845260058084526040808620848752855294859020855160e0810187528154808252600183015490941695810195909552600281015495850195909552600385015460608501526004850154608085015284015460a084015260069093015460c083015295509250881415612bb957600086612ba3578260a00151612ba9565b8260c001515b9050612bb584826126d8565b9350505b6001600160a01b0387166000908152600660205260409020805482908110612bdd57fe5b600091825260208083209091018290556001600160a01b038916825260058082526040808420888552909252908220828155600180820180546001600160a01b03191690556002820184905560038201849055600482018490559181018390556006019190915501612ac6565b50612c53612c5d565b5095945050505050565b6000805b600354811015612c985760038181548110612c7857fe5b60009182526020909120015415612c90576001909101905b600101612c61565b5080612cbd576040805160008152602081019182905251612cbb91600391612eaa565b505b60608167ffffffffffffffff81118015612cd657600080fd5b50604051908082528060200260200182016040528015612d00578160200160208202803683370190505b5090506000805b600354811015612d9c5760038181548110612d1e57fe5b60009182526020909120015415612d9457816004600060038481548110612d4157fe5b906000526020600020015481526020019081526020016000208190555060038181548110612d6b57fe5b9060005260206000200154838381518110612d8257fe5b60209081029190910101526001909101905b600101612d07565b508151612db0906003906020850190612eaa565b50505050565b62461bcd60e51b600090815260206004526007602452600a808404818106603090810160081b958390069590950190829004918206850160101b01602363ffffff0060e086901c160160181b0190930160c81b60445260e882901c90606490fd5b60408051610140810190915280600081526000602082018190526040820181905260609091019081526020016000815260200160008152600060208201819052604082018190526060820181905260809091015290565b6040805160e081018252600080825260208201819052918101829052606081018290526080810182905260a0810182905260c081019190915290565b828054828255906000526020600020908101928215612ee5579160200282015b82811115612ee5578251825591602001919060010190612eca565b50612ef1929150612ef5565b5090565b5b80821115612ef15760008155600101612ef6565b803561110581613524565b600082601f830112612f25578081fd5b813567ffffffffffffffff811115612f3b578182fd5b612f4e601f8201601f19166020016134fd565b9150808252836020828501011115612f6557600080fd5b8060208401602084013760009082016020015292915050565b803561110581613539565b600060408284031215612f9a578081fd5b612fa460406134fd565b9050813560038110612fb557600080fd5b808252506020820135602082015292915050565b600060208284031215612fda578081fd5b81356109a381613524565b60008060408385031215612ff7578081fd5b823561300281613524565b946020939093013593505050565b600060208284031215613021578081fd5b5035919050565b600060208284031215613039578081fd5b5051919050565b600080600060608486031215613054578081fd5b505081359360208301359350604090920135919050565b60008060008060808587031215613080578081fd5b8435935060208501359250604085013561309981613539565b9396929550929360600135925050565b600080600060608486031215613054578283fd5b6000806000608084860312156130d1578283fd5b833567ffffffffffffffff808211156130e8578485fd5b81860191506101208083890312156130fe578586fd5b613107816134fd565b90506131138884612f7e565b81526131228860208501612f0a565b60208201526131348860408501612f0a565b6040820152606083013560608201526080830135608082015260a083013560a08201526131648860c08501612f0a565b60c08201526131768860e08501612f0a565b60e0820152610100808401358381111561318e578788fd5b61319a8a828701612f15565b8284015250508095505050506131b38560208601612f89565b91506131c28560608601612f7e565b90509250925092565b6001600160a01b03169052565b600581106131e257fe5b9052565b600381106131e257fe5b600281106131e257fe5b60609290921b6bffffffffffffffffffffffff19168252601482015260340190565b6001600160a01b0391909116815260200190565b6020808252825182820181905260009190848201906040850190845b818110156132685783518352928401929184019160010161324c565b50909695505050505050565b90815260200190565b6020808252601d908201527f556e617574686f72697a65642061636365737320746f206f7264657273000000604082015260600190565b6020808252601f908201527f4d61726b6574206f726465722063616e206e6f74206265206368616e67656400604082015260600190565b602080825260139082015272556e617574686f72697a65642061636365737360681b604082015260600190565b6020808252601b908201527f53656e646572206973206e6f74206f726465722063726561746f720000000000604082015260600190565b60208082526017908201527f4f7264657220697320616c72656164792066696c6c6564000000000000000000604082015260600190565b6020808252601d908201527f556e617574686f72697a65642061636365737320746f20747261646573000000604082015260600190565b60208082526021908201527f4d61726b6574206f726465722063616e206e6f742062652063616e63656c6c656040820152601960fa1b606082015260800190565b6000610140820190506134128284516131f0565b602083015161342460208401826131cb565b50604083015161343760408401826131cb565b50606083015161344a60608401826131e6565b50608083015161345d60808401826131f0565b5060a083015161347060a08401826131d8565b5060c083015160c083015260e083015161348d60e08401826131cb565b50610100838101519083015261012092830151929091019190915290565b815181526020808301516001600160a01b03169082015260408083015190820152606080830151908201526080808301519082015260a0808301519082015260c0918201519181019190915260e00190565b60405181810167ffffffffffffffff8111828210171561351c57600080fd5b604052919050565b6001600160a01b038116811461123757600080fd5b6002811061123757600080fdfea2646970667358221220c3d527f26672fdb60e58852f4ac7727f220a346f5366bd087f25611cacc6941b64736f6c63430007010033",
  "linkReferences": {},
  "deployedLinkReferences": {}
}