{
  "_format": "hh-sol-artifact-1",
  "contractName": "SecondaryIssuePool",
  "sourceName": "contracts/SecondaryIssuePool.sol",
  "abi": [
    {
      "inputs": [
        {
          "internalType": "contract IVault",
          "name": "vault",
          "type": "address"
        },
        {
          "internalType": "string",
          "name": "name",
          "type": "string"
        },
        {
          "internalType": "string",
          "name": "symbol",
          "type": "string"
        },
        {
          "internalType": "address",
          "name": "security",
          "type": "address"
        },
        {
          "internalType": "address",
          "name": "currency",
          "type": "address"
        },
        {
          "internalType": "uint256",
          "name": "maxSecurityOffered",
          "type": "uint256"
        },
        {
          "internalType": "uint256",
          "name": "tradeFeePercentage",
          "type": "uint256"
        },
        {
          "internalType": "uint256",
          "name": "pauseWindowDuration",
          "type": "uint256"
        },
        {
          "internalType": "uint256",
          "name": "bufferPeriodDuration",
          "type": "uint256"
        },
        {
          "internalType": "address",
          "name": "owner",
          "type": "address"
        }
      ],
      "stateMutability": "nonpayable",
      "type": "constructor"
    },
    {
      "anonymous": false,
      "inputs": [
        {
          "indexed": true,
          "internalType": "address",
          "name": "owner",
          "type": "address"
        },
        {
          "indexed": true,
          "internalType": "address",
          "name": "spender",
          "type": "address"
        },
        {
          "indexed": false,
          "internalType": "uint256",
          "name": "value",
          "type": "uint256"
        }
      ],
      "name": "Approval",
      "type": "event"
    },
    {
      "anonymous": false,
      "inputs": [
        {
          "indexed": true,
          "internalType": "address",
          "name": "security",
          "type": "address"
        },
        {
          "indexed": false,
          "internalType": "uint256",
          "name": "secondaryOffer",
          "type": "uint256"
        }
      ],
      "name": "Offer",
      "type": "event"
    },
    {
      "anonymous": false,
      "inputs": [
        {
          "indexed": false,
          "internalType": "bool",
          "name": "paused",
          "type": "bool"
        }
      ],
      "name": "PausedStateChanged",
      "type": "event"
    },
    {
      "anonymous": false,
      "inputs": [
        {
          "indexed": false,
          "internalType": "bool",
          "name": "enabled",
          "type": "bool"
        }
      ],
      "name": "RecoveryModeStateChanged",
      "type": "event"
    },
    {
      "anonymous": false,
      "inputs": [
        {
          "indexed": false,
          "internalType": "uint256",
          "name": "swapFeePercentage",
          "type": "uint256"
        }
      ],
      "name": "SwapFeePercentageChanged",
      "type": "event"
    },
    {
      "anonymous": false,
      "inputs": [
        {
          "indexed": true,
          "internalType": "address",
          "name": "from",
          "type": "address"
        },
        {
          "indexed": true,
          "internalType": "address",
          "name": "to",
          "type": "address"
        },
        {
          "indexed": false,
          "internalType": "uint256",
          "name": "value",
          "type": "uint256"
        }
      ],
      "name": "Transfer",
      "type": "event"
    },
    {
      "anonymous": false,
      "inputs": [
        {
          "indexed": false,
          "internalType": "uint256",
          "name": "bestUnfilledBid",
          "type": "uint256"
        },
        {
          "indexed": false,
          "internalType": "uint256",
          "name": "bestUnfilledOffer",
          "type": "uint256"
        }
      ],
      "name": "bestAvailableTrades",
      "type": "event"
    },
    {
      "anonymous": false,
      "inputs": [
        {
          "indexed": true,
          "internalType": "address",
          "name": "security",
          "type": "address"
        },
        {
          "indexed": false,
          "internalType": "address",
          "name": "party",
          "type": "address"
        },
        {
          "indexed": false,
          "internalType": "address",
          "name": "counterparty",
          "type": "address"
        },
        {
          "indexed": false,
          "internalType": "uint256",
          "name": "price",
          "type": "uint256"
        },
        {
          "indexed": false,
          "internalType": "uint256",
          "name": "askprice",
          "type": "uint256"
        },
        {
          "indexed": false,
          "internalType": "address",
          "name": "currency",
          "type": "address"
        },
        {
          "indexed": false,
          "internalType": "uint256",
          "name": "amount",
          "type": "uint256"
        },
        {
          "indexed": false,
          "internalType": "bytes32",
          "name": "status",
          "type": "bytes32"
        },
        {
          "indexed": false,
          "internalType": "uint256",
          "name": "executionDate",
          "type": "uint256"
        }
      ],
      "name": "tradeReport",
      "type": "event"
    },
    {
      "inputs": [],
      "name": "DOMAIN_SEPARATOR",
      "outputs": [
        {
          "internalType": "bytes32",
          "name": "",
          "type": "bytes32"
        }
      ],
      "stateMutability": "view",
      "type": "function"
    },
    {
      "inputs": [
        {
          "internalType": "address",
          "name": "owner",
          "type": "address"
        },
        {
          "internalType": "address",
          "name": "spender",
          "type": "address"
        }
      ],
      "name": "allowance",
      "outputs": [
        {
          "internalType": "uint256",
          "name": "",
          "type": "uint256"
        }
      ],
      "stateMutability": "view",
      "type": "function"
    },
    {
      "inputs": [
        {
          "internalType": "address",
          "name": "spender",
          "type": "address"
        },
        {
          "internalType": "uint256",
          "name": "amount",
          "type": "uint256"
        }
      ],
      "name": "approve",
      "outputs": [
        {
          "internalType": "bool",
          "name": "",
          "type": "bool"
        }
      ],
      "stateMutability": "nonpayable",
      "type": "function"
    },
    {
      "inputs": [
        {
          "internalType": "address",
          "name": "account",
          "type": "address"
        }
      ],
      "name": "balanceOf",
      "outputs": [
        {
          "internalType": "uint256",
          "name": "",
          "type": "uint256"
        }
      ],
      "stateMutability": "view",
      "type": "function"
    },
    {
      "inputs": [
        {
          "internalType": "bytes32",
          "name": "ref",
          "type": "bytes32"
        }
      ],
      "name": "cancelOrder",
      "outputs": [],
      "stateMutability": "nonpayable",
      "type": "function"
    },
    {
      "inputs": [],
      "name": "decimals",
      "outputs": [
        {
          "internalType": "uint8",
          "name": "",
          "type": "uint8"
        }
      ],
      "stateMutability": "view",
      "type": "function"
    },
    {
      "inputs": [
        {
          "internalType": "address",
          "name": "spender",
          "type": "address"
        },
        {
          "internalType": "uint256",
          "name": "amount",
          "type": "uint256"
        }
      ],
      "name": "decreaseAllowance",
      "outputs": [
        {
          "internalType": "bool",
          "name": "",
          "type": "bool"
        }
      ],
      "stateMutability": "nonpayable",
      "type": "function"
    },
    {
      "inputs": [],
      "name": "disableRecoveryMode",
      "outputs": [],
      "stateMutability": "nonpayable",
      "type": "function"
    },
    {
      "inputs": [
        {
          "internalType": "bytes32",
          "name": "ref",
          "type": "bytes32"
        },
        {
          "internalType": "uint256",
          "name": "_price",
          "type": "uint256"
        },
        {
          "internalType": "uint256",
          "name": "_qty",
          "type": "uint256"
        }
      ],
      "name": "editOrder",
      "outputs": [],
      "stateMutability": "nonpayable",
      "type": "function"
    },
    {
      "inputs": [],
      "name": "enableRecoveryMode",
      "outputs": [],
      "stateMutability": "nonpayable",
      "type": "function"
    },
    {
      "inputs": [
        {
          "internalType": "bytes4",
          "name": "selector",
          "type": "bytes4"
        }
      ],
      "name": "getActionId",
      "outputs": [
        {
          "internalType": "bytes32",
          "name": "",
          "type": "bytes32"
        }
      ],
      "stateMutability": "view",
      "type": "function"
    },
    {
      "inputs": [],
      "name": "getAuthorizer",
      "outputs": [
        {
          "internalType": "contract IAuthorizer",
          "name": "",
          "type": "address"
        }
      ],
      "stateMutability": "view",
      "type": "function"
    },
    {
      "inputs": [],
      "name": "getCurrency",
      "outputs": [
        {
          "internalType": "address",
          "name": "",
          "type": "address"
        }
      ],
      "stateMutability": "view",
      "type": "function"
    },
    {
      "inputs": [],
      "name": "getOrderRef",
      "outputs": [
        {
          "internalType": "bytes32[]",
          "name": "",
          "type": "bytes32[]"
        }
      ],
      "stateMutability": "view",
      "type": "function"
    },
    {
      "inputs": [],
      "name": "getOwner",
      "outputs": [
        {
          "internalType": "address",
          "name": "",
          "type": "address"
        }
      ],
      "stateMutability": "view",
      "type": "function"
    },
    {
      "inputs": [],
      "name": "getPausedState",
      "outputs": [
        {
          "internalType": "bool",
          "name": "paused",
          "type": "bool"
        },
        {
          "internalType": "uint256",
          "name": "pauseWindowEndTime",
          "type": "uint256"
        },
        {
          "internalType": "uint256",
          "name": "bufferPeriodEndTime",
          "type": "uint256"
        }
      ],
      "stateMutability": "view",
      "type": "function"
    },
    {
      "inputs": [],
      "name": "getPoolId",
      "outputs": [
        {
          "internalType": "bytes32",
          "name": "",
          "type": "bytes32"
        }
      ],
      "stateMutability": "view",
      "type": "function"
    },
    {
      "inputs": [],
      "name": "getProtocolFeesCollector",
      "outputs": [
        {
          "internalType": "contract IProtocolFeesCollector",
          "name": "",
          "type": "address"
        }
      ],
      "stateMutability": "view",
      "type": "function"
    },
    {
      "inputs": [],
      "name": "getScalingFactors",
      "outputs": [
        {
          "internalType": "uint256[]",
          "name": "",
          "type": "uint256[]"
        }
      ],
      "stateMutability": "view",
      "type": "function"
    },
    {
      "inputs": [],
      "name": "getSecurity",
      "outputs": [
        {
          "internalType": "address",
          "name": "",
          "type": "address"
        }
      ],
      "stateMutability": "view",
      "type": "function"
    },
    {
      "inputs": [],
      "name": "getSecurityOffered",
      "outputs": [
        {
          "internalType": "uint256",
          "name": "",
          "type": "uint256"
        }
      ],
      "stateMutability": "view",
      "type": "function"
    },
    {
      "inputs": [],
      "name": "getSwapFeePercentage",
      "outputs": [
        {
          "internalType": "uint256",
          "name": "",
          "type": "uint256"
        }
      ],
      "stateMutability": "view",
      "type": "function"
    },
    {
      "inputs": [
        {
          "internalType": "bytes32",
          "name": "ref",
          "type": "bytes32"
        }
      ],
      "name": "getTrade",
      "outputs": [
        {
          "internalType": "uint256",
          "name": "b",
          "type": "uint256"
        },
        {
          "internalType": "uint256",
          "name": "a",
          "type": "uint256"
        }
      ],
      "stateMutability": "view",
      "type": "function"
    },
    {
      "inputs": [],
      "name": "getVault",
      "outputs": [
        {
          "internalType": "contract IVault",
          "name": "",
          "type": "address"
        }
      ],
      "stateMutability": "view",
      "type": "function"
    },
    {
      "inputs": [],
      "name": "inRecoveryMode",
      "outputs": [
        {
          "internalType": "bool",
          "name": "",
          "type": "bool"
        }
      ],
      "stateMutability": "view",
      "type": "function"
    },
    {
      "inputs": [
        {
          "internalType": "address",
          "name": "spender",
          "type": "address"
        },
        {
          "internalType": "uint256",
          "name": "addedValue",
          "type": "uint256"
        }
      ],
      "name": "increaseAllowance",
      "outputs": [
        {
          "internalType": "bool",
          "name": "",
          "type": "bool"
        }
      ],
      "stateMutability": "nonpayable",
      "type": "function"
    },
    {
      "inputs": [],
      "name": "initialize",
      "outputs": [],
      "stateMutability": "nonpayable",
      "type": "function"
    },
    {
      "inputs": [],
      "name": "name",
      "outputs": [
        {
          "internalType": "string",
          "name": "",
          "type": "string"
        }
      ],
      "stateMutability": "view",
      "type": "function"
    },
    {
      "inputs": [
        {
          "internalType": "address",
          "name": "owner",
          "type": "address"
        }
      ],
      "name": "nonces",
      "outputs": [
        {
          "internalType": "uint256",
          "name": "",
          "type": "uint256"
        }
      ],
      "stateMutability": "view",
      "type": "function"
    },
    {
      "inputs": [
        {
          "internalType": "bytes32",
          "name": "poolId",
          "type": "bytes32"
        },
        {
          "internalType": "address",
          "name": "sender",
          "type": "address"
        },
        {
          "internalType": "address",
          "name": "recipient",
          "type": "address"
        },
        {
          "internalType": "uint256[]",
          "name": "balances",
          "type": "uint256[]"
        },
        {
          "internalType": "uint256",
          "name": "lastChangeBlock",
          "type": "uint256"
        },
        {
          "internalType": "uint256",
          "name": "protocolSwapFeePercentage",
          "type": "uint256"
        },
        {
          "internalType": "bytes",
          "name": "userData",
          "type": "bytes"
        }
      ],
      "name": "onExitPool",
      "outputs": [
        {
          "internalType": "uint256[]",
          "name": "",
          "type": "uint256[]"
        },
        {
          "internalType": "uint256[]",
          "name": "",
          "type": "uint256[]"
        }
      ],
      "stateMutability": "nonpayable",
      "type": "function"
    },
    {
      "inputs": [
        {
          "internalType": "bytes32",
          "name": "poolId",
          "type": "bytes32"
        },
        {
          "internalType": "address",
          "name": "sender",
          "type": "address"
        },
        {
          "internalType": "address",
          "name": "recipient",
          "type": "address"
        },
        {
          "internalType": "uint256[]",
          "name": "balances",
          "type": "uint256[]"
        },
        {
          "internalType": "uint256",
          "name": "lastChangeBlock",
          "type": "uint256"
        },
        {
          "internalType": "uint256",
          "name": "protocolSwapFeePercentage",
          "type": "uint256"
        },
        {
          "internalType": "bytes",
          "name": "userData",
          "type": "bytes"
        }
      ],
      "name": "onJoinPool",
      "outputs": [
        {
          "internalType": "uint256[]",
          "name": "",
          "type": "uint256[]"
        },
        {
          "internalType": "uint256[]",
          "name": "",
          "type": "uint256[]"
        }
      ],
      "stateMutability": "nonpayable",
      "type": "function"
    },
    {
      "inputs": [
        {
          "components": [
            {
              "internalType": "enum IVault.SwapKind",
              "name": "kind",
              "type": "uint8"
            },
            {
              "internalType": "contract IERC20",
              "name": "tokenIn",
              "type": "address"
            },
            {
              "internalType": "contract IERC20",
              "name": "tokenOut",
              "type": "address"
            },
            {
              "internalType": "uint256",
              "name": "amount",
              "type": "uint256"
            },
            {
              "internalType": "bytes32",
              "name": "poolId",
              "type": "bytes32"
            },
            {
              "internalType": "uint256",
              "name": "lastChangeBlock",
              "type": "uint256"
            },
            {
              "internalType": "address",
              "name": "from",
              "type": "address"
            },
            {
              "internalType": "address",
              "name": "to",
              "type": "address"
            },
            {
              "internalType": "bytes",
              "name": "userData",
              "type": "bytes"
            }
          ],
          "internalType": "struct IPoolSwapStructs.SwapRequest",
          "name": "request",
          "type": "tuple"
        },
        {
          "internalType": "uint256[]",
          "name": "balances",
          "type": "uint256[]"
        },
        {
          "internalType": "uint256",
          "name": "indexIn",
          "type": "uint256"
        },
        {
          "internalType": "uint256",
          "name": "indexOut",
          "type": "uint256"
        }
      ],
      "name": "onSwap",
      "outputs": [
        {
          "internalType": "uint256",
          "name": "",
          "type": "uint256"
        }
      ],
      "stateMutability": "nonpayable",
      "type": "function"
    },
    {
      "inputs": [
        {
          "internalType": "bytes32",
          "name": "partyRef",
          "type": "bytes32"
        },
        {
          "internalType": "bytes32",
          "name": "counterpartyRef",
          "type": "bytes32"
        }
      ],
      "name": "orderFilled",
      "outputs": [],
      "stateMutability": "nonpayable",
      "type": "function"
    },
    {
      "inputs": [],
      "name": "pause",
      "outputs": [],
      "stateMutability": "nonpayable",
      "type": "function"
    },
    {
      "inputs": [
        {
          "internalType": "address",
          "name": "owner",
          "type": "address"
        },
        {
          "internalType": "address",
          "name": "spender",
          "type": "address"
        },
        {
          "internalType": "uint256",
          "name": "value",
          "type": "uint256"
        },
        {
          "internalType": "uint256",
          "name": "deadline",
          "type": "uint256"
        },
        {
          "internalType": "uint8",
          "name": "v",
          "type": "uint8"
        },
        {
          "internalType": "bytes32",
          "name": "r",
          "type": "bytes32"
        },
        {
          "internalType": "bytes32",
          "name": "s",
          "type": "bytes32"
        }
      ],
      "name": "permit",
      "outputs": [],
      "stateMutability": "nonpayable",
      "type": "function"
    },
    {
      "inputs": [
        {
          "internalType": "bytes32",
          "name": "poolId",
          "type": "bytes32"
        },
        {
          "internalType": "address",
          "name": "sender",
          "type": "address"
        },
        {
          "internalType": "address",
          "name": "recipient",
          "type": "address"
        },
        {
          "internalType": "uint256[]",
          "name": "balances",
          "type": "uint256[]"
        },
        {
          "internalType": "uint256",
          "name": "lastChangeBlock",
          "type": "uint256"
        },
        {
          "internalType": "uint256",
          "name": "protocolSwapFeePercentage",
          "type": "uint256"
        },
        {
          "internalType": "bytes",
          "name": "userData",
          "type": "bytes"
        }
      ],
      "name": "queryExit",
      "outputs": [
        {
          "internalType": "uint256",
          "name": "bptIn",
          "type": "uint256"
        },
        {
          "internalType": "uint256[]",
          "name": "amountsOut",
          "type": "uint256[]"
        }
      ],
      "stateMutability": "view",
      "type": "function"
    },
    {
      "inputs": [
        {
          "internalType": "bytes32",
          "name": "poolId",
          "type": "bytes32"
        },
        {
          "internalType": "address",
          "name": "sender",
          "type": "address"
        },
        {
          "internalType": "address",
          "name": "recipient",
          "type": "address"
        },
        {
          "internalType": "uint256[]",
          "name": "balances",
          "type": "uint256[]"
        },
        {
          "internalType": "uint256",
          "name": "lastChangeBlock",
          "type": "uint256"
        },
        {
          "internalType": "uint256",
          "name": "protocolSwapFeePercentage",
          "type": "uint256"
        },
        {
          "internalType": "bytes",
          "name": "userData",
          "type": "bytes"
        }
      ],
      "name": "queryJoin",
      "outputs": [
        {
          "internalType": "uint256",
          "name": "bptOut",
          "type": "uint256"
        },
        {
          "internalType": "uint256[]",
          "name": "amountsIn",
          "type": "uint256[]"
        }
      ],
      "stateMutability": "view",
      "type": "function"
    },
    {
      "inputs": [
        {
          "internalType": "bytes32",
          "name": "_orderRef",
          "type": "bytes32"
        },
        {
          "internalType": "uint256",
          "name": "_qty",
          "type": "uint256"
        },
        {
          "internalType": "bytes32",
          "name": "_order",
          "type": "bytes32"
        }
      ],
      "name": "revertTrade",
      "outputs": [],
      "stateMutability": "nonpayable",
      "type": "function"
    },
    {
      "inputs": [
        {
          "internalType": "contract IERC20",
          "name": "token",
          "type": "address"
        },
        {
          "internalType": "bytes",
          "name": "poolConfig",
          "type": "bytes"
        }
      ],
      "name": "setAssetManagerPoolConfig",
      "outputs": [],
      "stateMutability": "nonpayable",
      "type": "function"
    },
    {
      "inputs": [
        {
          "internalType": "uint256",
          "name": "swapFeePercentage",
          "type": "uint256"
        }
      ],
      "name": "setSwapFeePercentage",
      "outputs": [],
      "stateMutability": "nonpayable",
      "type": "function"
    },
    {
      "inputs": [],
      "name": "symbol",
      "outputs": [
        {
          "internalType": "string",
          "name": "",
          "type": "string"
        }
      ],
      "stateMutability": "view",
      "type": "function"
    },
    {
      "inputs": [],
      "name": "totalSupply",
      "outputs": [
        {
          "internalType": "uint256",
          "name": "",
          "type": "uint256"
        }
      ],
      "stateMutability": "view",
      "type": "function"
    },
    {
      "inputs": [
        {
          "internalType": "bytes32",
          "name": "tradeRef",
          "type": "bytes32"
        },
        {
          "internalType": "bytes32",
          "name": "partyRef",
          "type": "bytes32"
        },
        {
          "internalType": "bytes32",
          "name": "counterpartyRef",
          "type": "bytes32"
        }
      ],
      "name": "tradeSettled",
      "outputs": [],
      "stateMutability": "nonpayable",
      "type": "function"
    },
    {
      "inputs": [
        {
          "internalType": "address",
          "name": "recipient",
          "type": "address"
        },
        {
          "internalType": "uint256",
          "name": "amount",
          "type": "uint256"
        }
      ],
      "name": "transfer",
      "outputs": [
        {
          "internalType": "bool",
          "name": "",
          "type": "bool"
        }
      ],
      "stateMutability": "nonpayable",
      "type": "function"
    },
    {
      "inputs": [
        {
          "internalType": "address",
          "name": "sender",
          "type": "address"
        },
        {
          "internalType": "address",
          "name": "recipient",
          "type": "address"
        },
        {
          "internalType": "uint256",
          "name": "amount",
          "type": "uint256"
        }
      ],
      "name": "transferFrom",
      "outputs": [
        {
          "internalType": "bool",
          "name": "",
          "type": "bool"
        }
      ],
      "stateMutability": "nonpayable",
      "type": "function"
    },
    {
      "inputs": [],
      "name": "unpause",
      "outputs": [],
      "stateMutability": "nonpayable",
      "type": "function"
    }
  ],
  "bytecode": "0x6102806040527f6e71edae12b1b97f4d1f60370fef10105fa2faae0126114a169c64845d6126c960e052600a805460ff60a01b1916600160a01b17905560006019819055601b819055601c553480156200005857600080fd5b506040516200646a3803806200646a8339810160408190526200007b91620009cf565b8960008a8a6200008d8b8b3062000430565b6040805160038082526080820190925290602082016060803683370190505089898989828289898d85336001600160a01b031660001b8480604051806040016040528060018152602001603160f81b81525087878160039080519060200190620000f992919062000840565b5080516200010f90600490602084019062000840565b50506005805460ff19166012179055508151602092830120608052805191012060a052507f8b73c3c69bb8fe3d512ecc4cf759cc79239f7b179b0ffacaa9a75d522b39400f60c052610100526001600160601b0319606091821b81166101205291901b1661014052506200018e90506276a700831115610194620004ff565b620001a262278d00821115610195620004ff565b4290910161016081905201610180528551620001c4906002111560c8620004ff565b620001de620001d262000514565b8751111560c9620004ff565b620001f4866200051960201b62001e071760201c565b620001ff8462000525565b6040516309b2760f60e01b81526000906001600160a01b038c16906309b2760f9062000230908d9060040162000b4a565b602060405180830381600087803b1580156200024b57600080fd5b505af115801562000260573d6000803e3d6000fd5b505050506040513d601f19601f8201168201806040525081019062000286919062000990565b604051633354e3e960e11b81529091506001600160a01b038c16906366a9c7d290620002bb9084908b908b9060040162000aae565b600060405180830381600087803b158015620002d657600080fd5b505af1158015620002eb573d6000803e3d6000fd5b50505050806101a081815250508a6001600160a01b031663d2946c2b6040518163ffffffff1660e01b815260040160206040518083038186803b1580156200033257600080fd5b505afa15801562000347573d6000803e3d6000fd5b505050506040513d601f19601f820116820180604052508101906200036d9190620009a9565b6001600160a01b03166101c0816001600160a01b031660601b815250505050505050505050505050866001600160a01b03166101e0816001600160a01b031660601b81525050856001600160a01b0316610200816001600160a01b031660601b815250506000806000620003e98a8a30620005b960201b60201c565b6102205261024091909152610260525050506009949094555050600a80546001600160a01b0319166001600160a01b03909316929092179091555062000b8a945050505050565b60606000808062000443878787620005b9565b60408051600380825260808201909252939650919450925060208201606080368337019050509350868484815181106200047957fe5b60200260200101906001600160a01b031690816001600160a01b03168152505085848381518110620004a757fe5b60200260200101906001600160a01b031690816001600160a01b03168152505084848281518110620004d557fe5b60200260200101906001600160a01b031690816001600160a01b0316815250505050509392505050565b8162000510576200051081620006af565b5050565b600390565b80620005108162000702565b6200053e620005336200078f565b82101560cb620004ff565b620005576200054c62000798565b82111560ca620004ff565b620005798160c06040600854620007a460201b62001e1117909392919060201c565b6008556040517fa9ba3ffe0b6c366b81232caab38605a0699ad5398d6cce76f91ee809e322dafc90620005ae90839062000b5f565b60405180910390a150565b6000806000846001600160a01b0316866001600160a01b031610156200064257836001600160a01b0316856001600160a01b0316101562000605575060009150600190506002620006a6565b836001600160a01b0316866001600160a01b0316101562000631575060009150600290506001620006a6565b5060019150600290506000620006a6565b846001600160a01b0316846001600160a01b031610156200066e575060029150600190506000620006a6565b856001600160a01b0316846001600160a01b031610156200069a575060029150600090506001620006a6565b50600191506000905060025b93509350939050565b62461bcd60e51b6000908152602060045260076024526642414c23000030600a808404818106603090810160081b95839006959095019082900491820690940160101b939093010160c81b604452606490fd5b60028151101562000713576200078c565b6000816000815181106200072357fe5b602002602001015190506000600190505b8251811015620007895760008382815181106200074d57fe5b602002602001015190506200077e816001600160a01b0316846001600160a01b0316106065620004ff60201b60201c565b915060010162000734565b50505b50565b64e8d4a5100090565b67016345785d8a000090565b6000620007b3848484620007c9565b506001901b60001901811b1992909216911b1790565b620007da61010083106064620004ff565b62000813600182101580156200080b57506200080760ff84610100036200082460201b62001e341760201c565b8211155b6064620004ff565b6200078983821c156101b4620004ff565b600081831062000835578162000837565b825b90505b92915050565b828054600181600116156101000203166002900490600052602060002090601f016020900481019282601f106200088357805160ff1916838001178555620008b3565b82800160010185558215620008b3579182015b82811115620008b357825182559160200191906001019062000896565b50620008c1929150620008c5565b5090565b5b80821115620008c15760008155600101620008c6565b80516200083a8162000b74565b600082601f830112620008fa578081fd5b81516001600160401b038082111562000911578283fd5b6040516020601f8401601f191682018101838111838210171562000933578586fd5b806040525081945083825286818588010111156200095057600080fd5b600092505b8383101562000974578583018101518284018201529182019162000955565b83831115620009865760008185840101525b5050505092915050565b600060208284031215620009a2578081fd5b5051919050565b600060208284031215620009bb578081fd5b8151620009c88162000b74565b9392505050565b6000806000806000806000806000806101408b8d031215620009ef578586fd5b620009fb8c8c620008dc565b60208c0151909a506001600160401b038082111562000a18578788fd5b62000a268e838f01620008e9565b9a5060408d015191508082111562000a3c578788fd5b5062000a4b8d828e01620008e9565b98505062000a5d8c60608d01620008dc565b965062000a6e8c60808d01620008dc565b955060a08b0151945060c08b0151935060e08b015192506101008b0151915062000a9d8c6101208d01620008dc565b90509295989b9194979a5092959850565b60006060820185835260206060818501528186518084526080860191508288019350845b8181101562000afa5762000ae7855162000b68565b8352938301939183019160010162000ad2565b505084810360408601528551808252908201925081860190845b8181101562000b3c5762000b29835162000b68565b8552938301939183019160010162000b14565b509298975050505050505050565b602081016003831062000b5957fe5b91905290565b90815260200190565b6001600160a01b031690565b6001600160a01b03811681146200078c57600080fd5b60805160a05160c05160e051610100516101205160601c6101405160601c61016051610180516101a0516101c05160601c6101e05160601c6102005160601c6102205161024051610260516157bf62000cab600039806108d95280610a525280611ecc528061219e52508061091d5280611e8b52806121eb5250806115d05280611f0d52806132b25250806107cd5280610a0e5280611249528061450552806146a652806148b25250806108955280610a7d52806110a952806116be528061195b5280611a1a52806144ca52806146575280614851525080611b3c5250806110fc5250806129b55250806129915250806118ad525080611889525080611813525080611b93525080612abb525080612afd525080612adc52506157bf6000f3fe608060405234801561001057600080fd5b506004361061030a5760003560e01c806370a082311161019c57806395c95a4f116100ee578063b35056b811610097578063d505accf11610071578063d505accf146105e2578063d5c096c4146105f5578063dd62ed3e146106085761030a565b8063b35056b8146105ca578063b7b814fc146105d2578063d2946c2b146105da5761030a565b8063a457c2d7116100c8578063a457c2d71461059c578063a9059cbb146105af578063aaabadc5146105c25761030a565b806395c95a4f1461056b57806395d89b4114610573578063a3b137991461057b5761030a565b806382fce88f1161015057806387ec68171161012a57806387ec681714610548578063893d20e81461055b5780638d928af8146105635761030a565b806382fce88f1461051a5780638456cb591461052d578063851c1bb3146105355761030a565b806374f3b0091161018157806374f3b009146104de5780637ecebe00146104ff5780638129fc1c146105125761030a565b806370a08231146104b85780637489ec23146104cb5761030a565b8063313ce5671161026057806346b8b7301161020957806355c67628116101e357806355c67628146104875780636028bfd41461048f5780636945c1fd146104b05761030a565b806346b8b7301461045757806350dd6ed91461046c57806354a844ba1461047f5761030a565b806338fff2d01161023a57806338fff2d014610434578063395093511461043c5780633f4ba83a1461044f5761030a565b8063313ce567146104045780633644e5151461041957806338e9922e146104215761030a565b806318160ddd116102c25780631f0404801161029c5780631f040480146103c957806323b872dd146103dc5780632541897f146103ef5761030a565b806318160ddd146103955780631c0de0511461039d5780631dd746ea146103b45761030a565b8063095ea7b3116102f3578063095ea7b31461034d5780630c8605be1461036d57806313ce4546146103825761030a565b806301ec954a1461030f57806306fdde0314610338575b600080fd5b61032261031d36600461502a565b61061b565b60405161032f9190615449565b60405180910390f35b610340610b34565b60405161032f919061560c565b61036061035b366004614d4a565b610bca565b60405161032f9190615426565b61038061037b366004614f55565b610be1565b005b610380610390366004614f34565b610d1e565b610322610f29565b6103a5610f2f565b60405161032f93929190615431565b6103bc610f58565b60405161032f91906153e5565b6103806103d7366004614f55565b610f67565b6103606103ea366004614c9a565b611033565b6103f76110a7565b60405161032f9190615323565b61040c6110cb565b60405161032f9190615704565b6103226110d4565b61038061042f366004614e61565b6110de565b6103226110fa565b61036061044a366004614d4a565b61111e565b610380611159565b61045f61116d565b60405161032f91906153a1565b61038061047a366004614fdc565b6111cd565b6103806111eb565b6103226111fd565b6104a261049d366004614e91565b611210565b60405161032f9291906156eb565b6103f7611247565b6103226104c6366004614c46565b61126b565b6103806104d9366004614e61565b61128a565b6104f16104ec366004614e91565b6113e3565b60405161032f9291906153f8565b61032261050d366004614c46565b6114e6565b610380611501565b610380610528366004614f55565b611725565b6103806117fd565b610322610543366004614f80565b61180f565b6104a2610556366004614e91565b611861565b6103f7611887565b6103f76118ab565b6103226118cf565b6103406118d5565b61058e610589366004614e61565b611936565b60405161032f92919061529f565b6103606105aa366004614d4a565b611ac5565b6103606105bd366004614d4a565b611b03565b6103f7611b10565b610360611b1a565b610380611b28565b6103f7611b3a565b6103806105f0366004614cda565b611b5e565b6104f1610603366004614e91565b611ca7565b610322610616366004614c62565b611dca565b6000846080015161064861062d6118ab565b6001600160a01b0316336001600160a01b03161460cd611e4c565b61065d6106536110fa565b82146101f4611e4c565b6060610667611e5a565b905060608060005b8961010001515181101561075b57600581116106e157896101000151818151811061069657fe5b602001015160f81c60f81b8382815181106106ad57fe5b60200101907effffffffffffffffffffffffffffffffffffffffffffffffffffffffffffff1916908160001a905350610753565b600681101580156106f3575060268111155b1561075357896101000151818151811061070957fe5b602001015160f81c60f81b82600683038151811061072357fe5b60200101907effffffffffffffffffffffffffffffffffffffffffffffffffffffffffffff1916908160001a9053505b60010161066f565b50610764614a42565b604051806040016040528061077885611f46565b815260200161078684611f64565b90529050600080808c51600181111561079b57fe5b14156109da576107c28c60600151878c815181106107b557fe5b6020026020010151612006565b8c60600181815250507f00000000000000000000000000000000000000000000000000000000000000006001600160a01b03168c604001516001600160a01b03161415610893576108358c847f53656c6c000000000000000000000000000000000000000000000000000000008e612012565b84519093509091507f4d61726b65740000000000000000000000000000000000000000000000000000141561088e5761088181878b8151811061087457fe5b6020026020010151612484565b9750505050505050610b2b565b6109d5565b7f00000000000000000000000000000000000000000000000000000000000000006001600160a01b03168c604001516001600160a01b031614156109d55760006109148c7f00000000000000000000000000000000000000000000000000000000000000008151811061090257fe5b60200260200101518e60600151612490565b9050610955818d7f00000000000000000000000000000000000000000000000000000000000000008151811061094657fe5b602002602001015160006124a2565b60608e01526109868d857f42757900000000000000000000000000000000000000000000000000000000008f612012565b85519094509092507f4d61726b6574000000000000000000000000000000000000000000000000000014156109d3576109c583888c8151811061087457fe5b985050505050505050610b2b565b505b610b24565b60018c5160018111156109e957fe5b1415610b2457610a038c60600151878b815181106107b557fe5b8c60600181815250507f00000000000000000000000000000000000000000000000000000000000000006001600160a01b03168c602001516001600160a01b03161415610a7b5760006109148c7f00000000000000000000000000000000000000000000000000000000000000008151811061090257fe5b7f00000000000000000000000000000000000000000000000000000000000000006001600160a01b03168c602001516001600160a01b03161415610b2457610ae58c847f53656c6c000000000000000000000000000000000000000000000000000000008e612012565b84519093509091507f4d61726b657400000000000000000000000000000000000000000000000000001415610b245761088181878b8151811061087457fe5b5050505050505b50949350505050565b60038054604080516020601f6002600019610100600188161502019095169490940493840181900481028201810190925282815260609390929091830182828015610bc05780601f10610b9557610100808354040283529160200191610bc0565b820191906000526020600020905b815481529060010190602001808311610ba357829003601f168201915b5050505050905090565b6000610bd73384846124ca565b5060015b92915050565b6000838152600c60205260409020600301547f4f70656e0000000000000000000000000000000000000000000000000000000014610c1e57600080fd5b6000838152600c60205260409020600601546001600160a01b0316331415610d19576000838152600c602052604090206007810183905560048101829055426005820155600101547f4c696d69740000000000000000000000000000000000000000000000000000001415610cb9576000838152600c6020908152604080832054835260129091529020839055610cb482612532565b610d19565b6000838152600c60205260409020600101547f53746f70000000000000000000000000000000000000000000000000000000001415610d19576000838152600c6020908152604080832054835260159091529020839055610d1982612752565b505050565b600a546001600160a01b03163314610d3557600080fd5b6000828152600c60209081526040808320600601546001600160a01b03168352600e8252808320858452600f9092529091205481548110610d7257fe5b60009182526020808320909101829055838252600f81526040808320839055600c825280832083815560018101849055600281018490556003810184905560048101849055600581018490556006810180547fffffffffffffffffffffffff00000000000000000000000000000000000000001690556007810184905560088101849055600901839055600d909152902054600b80549091908110610e1357fe5b60009182526020808320909101829055838252600d81526040808320839055838352600c8252808320600601546001600160a01b03168352600e8252808320848452600f9092529091205481548110610e6857fe5b60009182526020808320909101829055828252600f81526040808320839055600c825280832083815560018101849055600281018490556003810184905560048101849055600581018490556006810180547fffffffffffffffffffffffff00000000000000000000000000000000000000001690556007810184905560088101849055600901839055600d909152902054600b80549091908110610f0957fe5b60009182526020808320909101829055918152600d909152604081205550565b60025490565b6000806000610f3c612972565b159250610f4761298f565b9150610f516129b3565b9050909192565b6060610f62611e5a565b905090565b807f42757900000000000000000000000000000000000000000000000000000000001480610fb45750807f53656c6c00000000000000000000000000000000000000000000000000000000145b610fbd57600080fd5b600a546001600160a01b03163314610fd457600080fd5b506000828152600c602090815260408083206004810180549095019094557f4f70656e000000000000000000000000000000000000000000000000000000006003850155600b5493849055928252601090522055601180546001019055565b6000806110408533611dca565b9050611064336001600160a01b038716148061105c5750838210155b61019e611e4c565b61106f8585856129d7565b336001600160a01b0386161480159061108a57506000198114155b1561109c5761109c85338584036124ca565b506001949350505050565b7f000000000000000000000000000000000000000000000000000000000000000090565b60055460ff1690565b6000610f62612ab7565b6110e6612b54565b6110ee612b9a565b6110f781612bad565b50565b7f000000000000000000000000000000000000000000000000000000000000000090565b3360008181526001602090815260408083206001600160a01b03871684529091528120549091610bd79185906111549086612490565b6124ca565b611161612b54565b61116b6000612c26565b565b336000908152600e6020908152604091829020805483518184028101840190945280845260609392830182828015610bc057602002820191906000526020600020905b8154815260200190600101908083116111b0575050505050905090565b6111d5612b54565b6111dd612b9a565b6111e78282612cb7565b5050565b6111f3612b54565b61116b6001612dcf565b600854600090610f629060c06040612e2f565b600060606112268651611221612e3e565b612e43565b61123b89898989898989612e50612e6c612ecd565b97509795505050505050565b7f000000000000000000000000000000000000000000000000000000000000000090565b6001600160a01b0381166000908152602081905260409020545b919050565b6000818152600c60205260409020600601546001600160a01b031633146112b057600080fd5b6000818152600c602090815260408083208054845260108352818420849055805484526013835281842084905580548452601283528184208490558054845260168352818420849055805484526015835281842084905584845283815560018101849055600281018490556003810184905560048101849055600581018490556006810180547fffffffffffffffffffffffff00000000000000000000000000000000000000001690556007810184905560088101849055600901839055600d909152902054600b8054909190811061138557fe5b60009182526020808320909101829055828252600d81526040808320839055338352600e8252808320848452600f90925290912054815481106113c457fe5b60009182526020808320909101829055918152600f9091526040812055565b606080886113f261062d6118ab565b6113fd6106536110fa565b6060600061140a8661305c565b156114325761141761308b565b61142989611423610f29565b886130a2565b92509050611484565b61143a612b9a565b6060611444611e5a565b90506114508a826130ce565b6114748d8d8d8d8d611460611b1a565b61146a578d61146d565b60005b878e612e50565b935091506114828382612e6c565b505b61148e8b8261312f565b81895167ffffffffffffffff811180156114a757600080fd5b506040519080825280602002602001820160405280156114d1578160200160208202803683370190505b509450945050505b5097509795505050505050565b6001600160a01b031660009081526006602052604090205490565b600061150b6110fa565b905060606115176118ab565b6001600160a01b031663f94d4668836040518263ffffffff1660e01b81526004016115429190615449565b60006040518083038186803b15801561155a57600080fd5b505afa15801561156e573d6000803e3d6000fd5b505050506040513d6000823e601f3d908101601f191682016040526115969190810190614d75565b505060408051600380825260808201909252919250606091906020820183803683370190505090506dffffffffffffffffffffffffffff817f0000000000000000000000000000000000000000000000000000000000000000815181106115f957fe5b60200260200101818152505061160d614a59565b604051806080016040528061162185613139565b81526020018381526020016040518060200160405280600081525081526020016000151581525090506116526118ab565b6001600160a01b031663b95cac286116686110fa565b3030856040518563ffffffff1660e01b815260040161168a9493929190615471565b600060405180830381600087803b1580156116a457600080fd5b505af11580156116b8573d6000803e3d6000fd5b505050507f00000000000000000000000000000000000000000000000000000000000000006001600160a01b03167ff1f17f1a9edc53df960a0bec0dc86cb2bf5606c7826b3b8e701e70c91c28aa2a6009546040516117179190615449565b60405180910390a250505050565b600a546001600160a01b0316331461173c57600080fd5b6000928352601f6020908152604080852080547fffffffffffffffffffffffff0000000000000000000000000000000000000000908116825560018201805482169055600282018054821690556003808301889055600483018890556005830180549092169091556006820187905560078201879055600882018790556009909101869055938552600c9091528084207f46696c6c656400000000000000000000000000000000000000000000000000009084018190559184529092200155565b611805612b54565b61116b6001612c26565b60007f0000000000000000000000000000000000000000000000000000000000000000826040516020016118449291906152ad565b604051602081830303815290604052805190602001209050919050565b600060606118728651611221612e3e565b61123b89898989898989612e5061313c612ecd565b7f000000000000000000000000000000000000000000000000000000000000000090565b7f000000000000000000000000000000000000000000000000000000000000000090565b60095490565b60048054604080516020601f6002600019610100600188161502019095169490940493840181900481028201810190925282815260609390929091830182828015610bc05780601f10610b9557610100808354040283529160200191610bc0565b600081815260208080526040808320548352601f9091528120600201548190819081907f00000000000000000000000000000000000000000000000000000000000000006001600160a01b0390811691161480156119cf5750600085815260208080526040808320548352601f9091529020600601547f4275790000000000000000000000000000000000000000000000000000000000145b156119fb575050600083815260208080526040808320548352601f909152902060038101546004909101545b600085815260208080526040808320548352601f9091529020600201547f00000000000000000000000000000000000000000000000000000000000000006001600160a01b039081169116148015611a8e5750600085815260208080526040808320548352601f9091529020600601547f53656c6c00000000000000000000000000000000000000000000000000000000145b15611abb575050600083815260208080526040808320548352601f90915290206003810154600490910154905b9092509050915091565b600080611ad23385611dca565b9050808310611aec57611ae7338560006124ca565b611af9565b611af933858584036124ca565b5060019392505050565b6000610bd73384846129d7565b6000610f6261319d565b600754610100900460ff1690565b611b30612b54565b61116b6000612dcf565b7f000000000000000000000000000000000000000000000000000000000000000090565b611b6c8442111560d1611e4c565b6001600160a01b0387166000908152600660209081526040808320549051909291611bc3917f0000000000000000000000000000000000000000000000000000000000000000918c918c918c9188918d910161555e565b6040516020818303038152906040528051906020012090506000611be682613217565b9050600060018288888860405160008152602001604052604051611c0d94939291906155ee565b6020604051602081039080840390855afa158015611c2f573d6000803e3d6000fd5b5050604051601f1901519150611c7190506001600160a01b03821615801590611c6957508b6001600160a01b0316826001600160a01b0316145b6101f8611e4c565b6001600160a01b038b166000908152600660205260409020600185019055611c9a8b8b8b6124ca565b5050505050505050505050565b60608088611cb661062d6118ab565b611cc16106536110fa565b6060611ccb611e5a565b9050611cd5612b9a565b611cdd610f29565b611d8a5760006060611cf28d8d8d868b613233565b91509150611d0b611d016132f4565b83101560cc611e4c565b611d1d6000611d186132f4565b6132fb565b611d308b611d296132f4565b84036132fb565b611d3a818461313c565b808a5167ffffffffffffffff81118015611d5357600080fd5b50604051908082528060200260200182016040528015611d7d578160200160208202803683370190505b50955095505050506114d9565b611d9488826130ce565b60006060611dbc8d8d8d8d8d611da8611b1a565b611db2578d611db5565b60005b898e612e50565b91509150611d308b836132fb565b6000611dd46118ab565b6001600160a01b0316826001600160a01b03161415611df65750600019610bdb565b611e008383613305565b9050610bdb565b806111e781613330565b6000611e1e8484846133a9565b506001901b60001901811b1992909216911b1790565b6000818310611e435781611e45565b825b9392505050565b816111e7576111e7816133f0565b60408051600380825260808201909252606091829190602082018380368337019050509050670de0b6b3a7640000817f000000000000000000000000000000000000000000000000000000000000000081518110611eb457fe5b602002602001018181525050670de0b6b3a7640000817f000000000000000000000000000000000000000000000000000000000000000081518110611ef557fe5b602002602001018181525050670de0b6b3a7640000817f000000000000000000000000000000000000000000000000000000000000000081518110611f3657fe5b6020908102919091010152905090565b80516000908290611f5b575060009050611285565b50506020015190565b600080828180805b8351811015611ffb576030848281518110611f8357fe5b016020015160f81c10801590611fad57506039848281518110611fa257fe5b016020015160f81c11155b15611fee578291506030848281518110611fc357fe5b602001015160f81c60f81b60f81c60ff160383600a0201925082821115611fe957600194505b611ff3565b600194505b600101611f6c565b509095945050505050565b6000611e45838361345d565b60008084600001517f4d61726b657400000000000000000000000000000000000000000000000000001480612067575084517f4c696d6974000000000000000000000000000000000000000000000000000000145b80612092575084517f53746f7000000000000000000000000000000000000000000000000000000000145b61209b57600080fd5b837f427579000000000000000000000000000000000000000000000000000000000014806120e85750837f53656c6c00000000000000000000000000000000000000000000000000000000145b6120f157600080fd5b60008660c001514260405160200161210a92919061526a565b60408051808303601f19018152918152815160209283012060c08a01516000828152600c8552929092206006810180547fffffffffffffffffffffffff0000000000000000000000000000000000000000166001600160a01b0390941693909317909255918801516007820155600b54815560608901516004820155600281018790558751600190910155845190915084907f00000000000000000000000000000000000000000000000000000000000000009081106121c657fe5b6020026020010151600c600083815260200190815260200160002060080181905550837f00000000000000000000000000000000000000000000000000000000000000008151811061221457fe5b6020908102919091018101516000838152600c83526040808220600981019390935542600590930192909255600b8054600d8552838320819055600180820183559183527f0175b7a638427703f0dbe7bb9bbf987a2551717b34e79f33b5b1008d1fa01db90185905560c08b0180516001600160a01b039081168452600e80875285852054888652600f88528686205591511683528452918120805492830181558152919091200181905585517f4d61726b657400000000000000000000000000000000000000000000000000001415612369576000818152600c602090815260408083207f46696c6c6564000000000000000000000000000000000000000000000000000060038201555483526010909152902081905560118054600101905561235f817f6d61726b65740000000000000000000000000000000000000000000000000000613493565b925092505061247b565b85517f4c696d697400000000000000000000000000000000000000000000000000000014156123f0576000818152600c602090815260408083207f4f70656e000000000000000000000000000000000000000000000000000000006003820155548352601282529091208290556014805460010190558601516123eb90612532565b612472565b85517f53746f70000000000000000000000000000000000000000000000000000000001415612472576000818152600c602090815260408083207f4f70656e0000000000000000000000000000000000000000000000000000000060038201555483526015825290912082905560178054600101905586015161247290612752565b60008092509250505b94509492505050565b6000611e458383613e13565b6000828201611e458482101583611e4c565b6000816124b8576124b38484613e64565b6124c2565b6124c28484613e84565b949350505050565b6001600160a01b0380841660008181526001602090815260408083209487168084529490915290819020849055517f8c5be1e5ebec7d5bd14f71427d1e84f3dd0314c0f7b2291e5b200ac8c7c3b92590612525908590615449565b60405180910390a3505050565b6000805b601454811015610d19576000818152601260209081526040808320548352600c9091529020600201547f42757900000000000000000000000000000000000000000000000000000000001480156125ab57506000818152601260209081526040808320548352600c9091529020600701548311155b156126475760008181526012602081815260408084208054808652600c845282862054865260108452918520919091556011805460010190559284905252549150612616817f6c696d6974000000000000000000000000000000000000000000000000000000613eb7565b612640827f6c696d6974000000000000000000000000000000000000000000000000000000613493565b505061274a565b6000818152601260209081526040808320548352600c9091529020600201547f53656c6c000000000000000000000000000000000000000000000000000000001480156126b257506000818152601260209081526040808320548352600c9091529020600701548310155b1561274a5760008181526012602081815260408084208054808652600c84528286205486526010845291852091909155601180546001019055928490525254915061271d817f6c696d6974000000000000000000000000000000000000000000000000000000613eb7565b612747827f6c696d6974000000000000000000000000000000000000000000000000000000613493565b50505b600101612536565b6000805b601754811015610d19576000818152601560209081526040808320548352600c9091529020600201547f42757900000000000000000000000000000000000000000000000000000000001480156127cb57506000818152601560209081526040808320548352600c9091529020600701548310155b156128675760008181526015602081815260408084208054808652600c845282862054865260108452918520919091556011805460010190559284905252549150612836817f73746f7000000000000000000000000000000000000000000000000000000000613eb7565b612860827f73746f7000000000000000000000000000000000000000000000000000000000613493565b505061296a565b6000818152601560209081526040808320548352600c9091529020600201547f53656c6c000000000000000000000000000000000000000000000000000000001480156128d257506000818152601560209081526040808320548352600c9091529020600701548311155b1561296a5760008181526015602081815260408084208054808652600c84528286205486526010845291852091909155601180546001019055928490525254915061293d817f73746f7000000000000000000000000000000000000000000000000000000000613eb7565b612967827f73746f7000000000000000000000000000000000000000000000000000000000613493565b50505b600101612756565b600061297c6129b3565b421180610f6257505060075460ff161590565b7f000000000000000000000000000000000000000000000000000000000000000090565b7f000000000000000000000000000000000000000000000000000000000000000090565b6129ee6001600160a01b0384161515610198611e4c565b612a056001600160a01b0383161515610199611e4c565b612a10838383610d19565b6001600160a01b038316600090815260208190526040902054612a3690826101a061404e565b6001600160a01b038085166000908152602081905260408082209390935590841681522054612a659082612490565b6001600160a01b0380841660008181526020819052604090819020939093559151908516907fddf252ad1be2c89b69c2b068fc378daa952ba7f163c4a11628f55a4df523b3ef90612525908590615449565b60007f00000000000000000000000000000000000000000000000000000000000000007f00000000000000000000000000000000000000000000000000000000000000007f0000000000000000000000000000000000000000000000000000000000000000612b24614064565b30604051602001612b39959493929190615592565b60405160208183030381529060405280519060200120905090565b6000612b836000357fffffffff000000000000000000000000000000000000000000000000000000001661180f565b90506110f7612b928233614068565b610191611e4c565b61116b612ba5612972565b610192611e4c565b612bc2612bb8614151565b82101560cb611e4c565b612bd7612bcd61415a565b82111560ca611e4c565b600854612be8908260c06040611e11565b6008556040517fa9ba3ffe0b6c366b81232caab38605a0699ad5398d6cce76f91ee809e322dafc90612c1b908390615449565b60405180910390a150565b8015612c4657612c41612c3761298f565b4210610193611e4c565b612c5b565b612c5b612c516129b3565b42106101a9611e4c565b600780547fffffffffffffffffffffffffffffffffffffffffffffffffffffffffffffff00168215151790556040517f9e3a5e37224532dea67b89face185703738a228a6e8a23dee546960180d3be6490612c1b908390615426565b6000612cc16110fa565b90506000612ccd6118ab565b6001600160a01b031663b05f8e4883866040518363ffffffff1660e01b8152600401612cfa9291906155d7565b60806040518083038186803b158015612d1257600080fd5b505afa158015612d26573d6000803e3d6000fd5b505050506040513d601f19601f82011682018060405250810190612d4a9190615149565b6040517f18e736d40000000000000000000000000000000000000000000000000000000081529094506001600160a01b03851693506318e736d49250612d979150859087906004016155be565b600060405180830381600087803b158015612db157600080fd5b505af1158015612dc5573d6000803e3d6000fd5b5050505050505050565b600780547fffffffffffffffffffffffffffffffffffffffffffffffffffffffffffff00ff16610100831515021790556040517feff3d4d215b42bf0960be9c6d5e05c22cba4df6627a3a523e2acee733b5854c890612c1b908390615426565b6001901b6000190191901c1690565b600390565b6111e78183146067611e4c565b60006060612e5f6101626133f0565b9850989650505050505050565b60005b612e77612e3e565b811015610d1957612eae838281518110612e8d57fe5b6020026020010151838381518110612ea157fe5b6020026020010151613e13565b838281518110612eba57fe5b6020908102919091010152600101612e6f565b333014612fbc576000306001600160a01b0316600036604051612ef19291906152dd565b6000604051808303816000865af19150503d8060008114612f2e576040519150601f19603f3d011682016040523d82523d6000602084013e612f33565b606091505b505090508060008114612f4257fe5b60046000803e6000517fffffffff00000000000000000000000000000000000000000000000000000000167f43adbafb000000000000000000000000000000000000000000000000000000008114612f9e573d6000803e3d6000fd5b506020600460003e604060205260243d03602460403e601c3d016000f35b6060612fc6611e5a565b9050612fd287826130ce565b60006060612fea8c8c8c8c8c8c898d8d63ffffffff16565b91509150612ffc81848663ffffffff16565b8051601f1982018390526343adbafb7fffffffffffffffffffffffffffffffffffffffffffffffffffffffffffffffc08301526020027fffffffffffffffffffffffffffffffffffffffffffffffffffffffffffffffdc82016044820181fd5b6000808251118015610bdb575060ff8016828060200190518101906130819190615189565b60ff161492915050565b60075461116b90610100900460ff166101b6611e4c565b6000606060006130b184614166565b905060606130c087878461417c565b919791965090945050505050565b60005b6130d9612e3e565b811015610d19576131108382815181106130ef57fe5b602002602001015183838151811061310357fe5b602002602001015161345d565b83828151811061311c57fe5b60209081029190910101526001016130d1565b6111e7828261422b565b90565b60005b613147612e3e565b811015610d195761317e83828151811061315d57fe5b602002602001015183838151811061317157fe5b60200260200101516142e7565b83828151811061318a57fe5b602090810291909101015260010161313f565b60006131a76118ab565b6001600160a01b031663aaabadc56040518163ffffffff1660e01b815260040160206040518083038186803b1580156131df57600080fd5b505afa1580156131f3573d6000803e3d6000fd5b505050506040513d601f19601f82011682018060405250810190610f629190614fc0565b6000613221612ab7565b826040516020016118449291906152ed565b6000606061323f612b9a565b6132566001600160a01b0387163014610156611e4c565b61326d6001600160a01b0386163014610156611e4c565b604080516003808252608082019092526dffffffffffffffffffffffffffff91606091906020820183803683370190505090506dffffffffffffffffffffffffffff817f0000000000000000000000000000000000000000000000000000000000000000815181106132db57fe5b6020908102919091010152909890975095505050505050565b620f424090565b6111e78282614335565b6001600160a01b03918216600090815260016020908152604080832093909416825291909152205490565b60028151101561333f576110f7565b60008160008151811061334e57fe5b602002602001015190506000600190505b8251811015610d1957600083828151811061337657fe5b6020026020010151905061339f816001600160a01b0316846001600160a01b0316106065611e4c565b915060010161335f565b6133b861010083106064611e4c565b6133e1600182101580156133da57506133d660ff8461010003611e34565b8211155b6064611e4c565b610d1983821c156101b4611e4c565b7f08c379a0000000000000000000000000000000000000000000000000000000006000908152602060045260076024526642414c23000030600a808404818106603090810160081b95839006959095019082900491820690940160101b939093010160c81b604452606490fd5b600082820261348184158061347a57508385838161347757fe5b04145b6003611e4c565b670de0b6b3a764000090049392505050565b60008060005b6011548110156137a95760008181526010602052604090205485148015906134fb57506000858152600c602081815260408084206006908101548686526010845282862054865293909252909220909101546001600160a01b03908116911614155b801561354557506000818152601060209081526040808320548352600c9091529020600301547f46696c6c6564000000000000000000000000000000000000000000000000000014155b156137a1576000818152601060209081526040808320548352600c9091529020600201547f42757900000000000000000000000000000000000000000000000000000000001480156135c757506000858152600c60205260409020600201547f53656c6c00000000000000000000000000000000000000000000000000000000145b15613678576000858152600c6020818152604080842060079081015486865260108452828620548652939092529092209091015410613673576019546000828152601060209081526040808320548352600c90915290206007015411156136735760198054601d556000828152601060209081526040808320548352600c9091529020600701549055600b80548290811061365e57fe5b600091825260209091200154601855601c8190555b6137a1565b6000818152601060209081526040808320548352600c9091529020600201547f53656c6c000000000000000000000000000000000000000000000000000000001480156136f557506000858152600c60205260409020600201547f4275790000000000000000000000000000000000000000000000000000000000145b156137a1576000858152600c60208181526040808420600790810154868652601084528286205486529390925290922090910154116137a157601b546000828152601060209081526040808320548352600c90915290206007015410156137a157601b8054601e556000828152601060209081526040808320548352600c9091529020600701549055600b80548290811061378c57fe5b600091825260209091200154601a55601c8190555b600101613499565b506000848152600c60205260409020600201547f53656c6c000000000000000000000000000000000000000000000000000000001415613b015760185415613af6576000848152600c60205260408082206004908101546018548452919092209091015410613932576000848152600c6020526040808220600480820180546018805487528587209093018054919091039055805490859055815485528385207f46696c6c6564000000000000000000000000000000000000000000000000000060039182018190559084015560068084015492548087529486200154948990526007830154600284015460019094015491956138bd958b956001600160a01b0395861695919491909216929188916143c3565b6138e9601c547f6d61726b65740000000000000000000000000000000000000000000000000000613eb7565b837f6d61726b65740000000000000000000000000000000000000000000000000000141561392c576000858152600c602052604090206007015492509050613e0c565b50613a2d565b601880546000908152600c602052604080822060049081015488845282842080830180549290920390915584548452828420909101805490849055845484528284207f506172746c7946696c6c6564000000000000000000000000000000000000000060039182018190559083015560068083015495548086529385200154938990526007820154600283015460019093015491956139e8958b956001600160a01b0392831695909491909216929188916143c3565b837f6d61726b657400000000000000000000000000000000000000000000000000001415613a2b576000858152600c602052604090206007015492509050613e0c565b505b7fd40a9d664355db2112eab65236b416d419de21b5ccce2d29dc5b2601e62545fa601d54601e54604051613a6292919061529f565b60405180910390a16000848152600c602052604090206009810154600490910154613a8d91906149a0565b6000858152600c6020526040902060098101919091556008810154600790910154613ab89190612490565b6000858152600c60205260409020600881019190915560070154613adb90612532565b6000848152600c6020526040902060070154613af690612752565b506000905080613e0c565b6000848152600c60205260409020600201547f42757900000000000000000000000000000000000000000000000000000000001415613e0c57601a5415613af6576000848152600c6020526040808220600490810154601a548452919092209091015410613c89576000848152600c602052604080822060048082018054601a805487528587209093018054919091039055805490859055815485528385207f46696c6c65640000000000000000000000000000000000000000000000000000600391820181905590840155905480855292842060069081015494899052820154600783015460028401546001909401549295613c1495946001600160a01b03918216948c9490921692918891906143c3565b613c40601c547f6d61726b65740000000000000000000000000000000000000000000000000000613eb7565b837f6d61726b657400000000000000000000000000000000000000000000000000001415613c83576000858152600c602052604090206007015492509050613e0c565b50613d81565b601a80546000908152600c602052604080822060049081015488845282842080830180549290920390915584548452828420909101805490849055845484528284207f506172746c7946696c6c6564000000000000000000000000000000000000000060039182018190559083015593548084529183206006908101549389905281015460078201546002830154600190930154613d3c956001600160a01b03908116948c9490911692918891906143c3565b837f6d61726b657400000000000000000000000000000000000000000000000000001415613d7f576000858152600c602052604090206007015492509050613e0c565b505b7fd40a9d664355db2112eab65236b416d419de21b5ccce2d29dc5b2601e62545fa601d54601e54604051613db692919061529f565b60405180910390a16000848152600c602052604090206009810154600490910154613de19190612490565b6000858152600c6020526040902060098101919091556008810154600790910154613ab891906149a0565b9250929050565b6000613e228215156004611e4c565b82613e2f57506000610bdb565b670de0b6b3a764000083810290613e5290858381613e4957fe5b04146005611e4c565b828181613e5b57fe5b04915050610bdb565b6000613e738215156004611e4c565b818381613e7c57fe5b049392505050565b6000613e938215156004611e4c565b82613ea057506000610bdb565b816001840381613eac57fe5b046001019050610bdb565b807f6d61726b657400000000000000000000000000000000000000000000000000001415613f3f57815b601154811015613f2f57600160115403811415613f0c57600083815260106020526040812055613f27565b60018301600090815260106020526040808220548583529120555b600101613ee1565b50601180546000190190556111e7565b807f6c696d69740000000000000000000000000000000000000000000000000000001415613fc757815b601454811015613fb757600160145403811415613f9457600083815260126020526040812055613faf565b60018301600090815260126020526040808220548583529120555b600101613f69565b50601480546000190190556111e7565b807f73746f700000000000000000000000000000000000000000000000000000000014156111e757815b60175481101561403f5760016017540381141561401c57600083815260156020526040812055614037565b60018301600090815260156020526040808220548583529120555b600101613ff1565b50601780546000190190555050565b600061405d8484111583611e4c565b5050900390565b4690565b600073ba1ba1ba1ba1ba1ba1ba1ba1ba1ba1ba1ba1ba1b614087611887565b6001600160a01b0316141580156140a257506140a2836149b6565b156140ca576140af611887565b6001600160a01b0316336001600160a01b0316149050610bdb565b6140d261319d565b6001600160a01b0316639be2a8848484306040518463ffffffff1660e01b815260040161410193929190615452565b60206040518083038186803b15801561411957600080fd5b505afa15801561412d573d6000803e3d6000fd5b505050506040513d601f19601f82011682018060405250810190611e009190614e41565b64e8d4a5100090565b67016345785d8a000090565b600081806020019051810190611e4591906151a5565b6060600061418a8385613e13565b9050845167ffffffffffffffff811180156141a457600080fd5b506040519080825280602002602001820160405280156141ce578160200160208202803683370190505b50915060005b855181101561422257614203828783815181106141ed57fe5b602002602001015161345d90919063ffffffff16565b83828151811061420f57fe5b60209081029190910101526001016141d4565b50509392505050565b6142426001600160a01b038316151561019b611e4c565b61424e82600083610d19565b6001600160a01b03821660009081526020819052604090205461427490826101b261404e565b6001600160a01b03831660009081526020819052604090205560025461429a9082614a1a565b6002556040516000906001600160a01b038416907fddf252ad1be2c89b69c2b068fc378daa952ba7f163c4a11628f55a4df523b3ef906142db908590615449565b60405180910390a35050565b60006142f68215156004611e4c565b8261430357506000610bdb565b670de0b6b3a76400008381029061431d90858381613e4957fe5b82600182038161432957fe5b04600101915050610bdb565b61434160008383610d19565b60025461434e9082612490565b6002556001600160a01b0382166000908152602081905260409020546143749082612490565b6001600160a01b0383166000818152602081905260408082209390935591519091907fddf252ad1be2c89b69c2b068fc378daa952ba7f163c4a11628f55a4df523b3ef906142db908590615449565b6000827f4275790000000000000000000000000000000000000000000000000000000000141561440557506000888152600c6020526040902060070154614441565b827f53656c6c00000000000000000000000000000000000000000000000000000000141561444157506000868152600c60205260409020600701545b6000898860405160200161445692919061529f565b60405160208183030381529060405280519060200120905080602060008c81526020019081526020016000208190555080602060008a8152602001908152602001600020819055506040518061014001604052808a6001600160a01b03168152602001886001600160a01b031681526020017f00000000000000000000000000000000000000000000000000000000000000006001600160a01b031681526020018781526020018381526020017f00000000000000000000000000000000000000000000000000000000000000006001600160a01b0316815260200185815260200184815260200186815260200142815250601f600083815260200190815260200160002060008201518160000160006101000a8154816001600160a01b0302191690836001600160a01b0316021790555060208201518160010160006101000a8154816001600160a01b0302191690836001600160a01b0316021790555060408201518160020160006101000a8154816001600160a01b0302191690836001600160a01b03160217905550606082015181600301556080820151816004015560a08201518160050160006101000a8154816001600160a01b0302191690836001600160a01b0316021790555060c0820151816006015560e082015181600701556101008201518160080155610120820151816009015590505060004290507f00000000000000000000000000000000000000000000000000000000000000006001600160a01b03167f156bf7973c4610a54da63e11aee83150e3c726c558bb3a700c5a07f8c89f82268b8a8a877f00000000000000000000000000000000000000000000000000000000000000008c886040516146da9796959493929190615337565b60405180910390a2600a546040517f055f55400000000000000000000000000000000000000000000000000000000081526000916001600160a01b03169063055f55409061472c908c90600401615323565b60206040518083038186803b15801561474457600080fd5b505afa158015614758573d6000803e3d6000fd5b505050506040513d601f19601f8201168201806040525081019061477c9190614e79565b600a546040517f055f55400000000000000000000000000000000000000000000000000000000081529192506000916001600160a01b039091169063055f5540906147cb908f90600401615323565b60206040518083038186803b1580156147e357600080fd5b505afa1580156147f7573d6000803e3d6000fd5b505050506040513d601f19601f8201168201806040525081019061481b9190614e79565b9050614825614a83565b604051806101c001604052808e6001600160a01b031681526020018c6001600160a01b031681526020017f00000000000000000000000000000000000000000000000000000000000000006001600160a01b031681526020017f50656e64696e670000000000000000000000000000000000000000000000000081526020018381526020018481526020017f00000000000000000000000000000000000000000000000000000000000000006001600160a01b031681526020018b81526020018a81526020016148f58c8c614a28565b8152602001858152602001306001600160a01b031681526020018f81526020018d8152509050600a60009054906101000a90046001600160a01b03166001600160a01b0316631459945d82876040518363ffffffff1660e01b815260040161495e92919061561f565b600060405180830381600087803b15801561497857600080fd5b505af115801561498c573d6000803e3d6000fd5b505050505050505050505050505050505050565b60006149b0838311156001611e4c565b50900390565b60006149e17f38e9922e0000000000000000000000000000000000000000000000000000000061180f565b821480610bdb5750614a127f50dd6ed90000000000000000000000000000000000000000000000000000000061180f565b909114919050565b6000611e458383600161404e565b6000828202611e4584158061347a57508385838161347757fe5b604080518082019091526000808252602082015290565b60405180608001604052806060815260200160608152602001606081526020016000151581525090565b604080516101c081018252600080825260208201819052918101829052606081018290526080810182905260a0810182905260c0810182905260e08101829052610100810182905261012081018290526101408101829052610160810182905261018081018290526101a081019190915290565b8035610bdb81615765565b600082601f830112614b12578081fd5b8135614b25614b2082615739565b615712565b818152915060208083019084810181840286018201871015614b4657600080fd5b60005b84811015614b6557813584529282019290820190600101614b49565b505050505092915050565b600082601f830112614b80578081fd5b8151614b8e614b2082615739565b818152915060208083019084810181840286018201871015614baf57600080fd5b60005b84811015614b6557815184529282019290820190600101614bb2565b600082601f830112614bde578081fd5b813567ffffffffffffffff811115614bf4578182fd5b614c076020601f19601f84011601615712565b9150808252836020828501011115614c1e57600080fd5b8060208401602084013760009082016020015292915050565b803560028110610bdb57600080fd5b600060208284031215614c57578081fd5b8135611e4581615765565b60008060408385031215614c74578081fd5b8235614c7f81615765565b91506020830135614c8f81615765565b809150509250929050565b600080600060608486031215614cae578081fd5b8335614cb981615765565b92506020840135614cc981615765565b929592945050506040919091013590565b600080600080600080600060e0888a031215614cf4578283fd5b8735614cff81615765565b96506020880135614d0f81615765565b955060408801359450606088013593506080880135614d2d8161577a565b9699959850939692959460a0840135945060c09093013592915050565b60008060408385031215614d5c578182fd5b8235614d6781615765565b946020939093013593505050565b600080600060608486031215614d89578081fd5b835167ffffffffffffffff80821115614da0578283fd5b818601915086601f830112614db3578283fd5b8151614dc1614b2082615739565b80828252602080830192508086018b828387028901011115614de1578788fd5b8796505b84871015614e0c578051614df881615765565b845260019690960195928101928101614de5565b508901519097509350505080821115614e23578283fd5b50614e3086828701614b70565b925050604084015190509250925092565b600060208284031215614e52578081fd5b81518015158114611e45578182fd5b600060208284031215614e72578081fd5b5035919050565b600060208284031215614e8a578081fd5b5051919050565b600080600080600080600060e0888a031215614eab578081fd5b873596506020880135614ebd81615765565b95506040880135614ecd81615765565b9450606088013567ffffffffffffffff80821115614ee9578283fd5b614ef58b838c01614b02565b955060808a0135945060a08a0135935060c08a0135915080821115614f18578283fd5b50614f258a828b01614bce565b91505092959891949750929550565b60008060408385031215614f46578182fd5b50508035926020909101359150565b600080600060608486031215614f69578081fd5b505081359360208301359350604090920135919050565b600060208284031215614f91578081fd5b81357fffffffff0000000000000000000000000000000000000000000000000000000081168114611e45578182fd5b600060208284031215614fd1578081fd5b8151611e4581615765565b60008060408385031215614fee578182fd5b8235614ff981615765565b9150602083013567ffffffffffffffff811115615014578182fd5b61502085828601614bce565b9150509250929050565b6000806000806080858703121561503f578182fd5b843567ffffffffffffffff80821115615056578384fd5b818701915061012080838a03121561506c578485fd5b61507581615712565b90506150818984614c37565b81526150908960208501614af7565b60208201526150a28960408501614af7565b6040820152606083013560608201526080830135608082015260a083013560a08201526150d28960c08501614af7565b60c08201526150e48960e08501614af7565b60e082015261010080840135838111156150fc578687fd5b6151088b828701614bce565b828401525050809650506020870135915080821115615125578384fd5b5061513287828801614b02565b949794965050505060408301359260600135919050565b6000806000806080858703121561515e578182fd5b845193506020850151925060408501519150606085015161517e81615765565b939692955090935050565b60006020828403121561519a578081fd5b8151611e458161577a565b600080604083850312156151b7578182fd5b82516151c28161577a565b6020939093015192949293505050565b6001600160a01b03169052565b6000815180845260208085019450808401835b8381101561520e578151875295820195908201906001016151f2565b509495945050505050565b15159052565b60008151808452815b8181101561524457602081850181015186830182015201615228565b818111156152555782602083870101525b50601f01601f19169290920160200192915050565b60609290921b7fffffffffffffffffffffffffffffffffffffffff000000000000000000000000168252601482015260340190565b918252602082015260400190565b9182527fffffffff0000000000000000000000000000000000000000000000000000000016602082015260240190565b6000828483379101908152919050565b7f190100000000000000000000000000000000000000000000000000000000000081526002810192909252602282015260420190565b6001600160a01b0391909116815260200190565b6001600160a01b039788168152958716602087015260408601949094526060850192909252909316608083015260a08201929092527f50656e64696e670000000000000000000000000000000000000000000000000060c082015260e08101919091526101000190565b6020808252825182820181905260009190848201906040850190845b818110156153d9578351835292840192918401916001016153bd565b50909695505050505050565b600060208252611e4560208301846151df565b60006040825261540b60408301856151df565b828103602084015261541d81856151df565b95945050505050565b901515815260200190565b92151583526020830191909152604082015260600190565b90815260200190565b9283526001600160a01b03918216602084015216604082015260600190565b600085825260206001600160a01b038087168285015280861660408501525060806060840152610100830184516080808601528181518084526101208701915084830193508592505b808310156154e2576154cc8451615759565b82529284019260019290920191908401906154ba565b508387015193507fffffffffffffffffffffffffffffffffffffffffffffffffffffffffffffff809250828682030160a087015261552081856151df565b935050506040850151818584030160c086015261553d838261521f565b92505050606084015161555360e0850182615219565b509695505050505050565b9586526001600160a01b0394851660208701529290931660408501526060840152608083019190915260a082015260c00190565b9485526020850193909352604084019190915260608301526001600160a01b0316608082015260a00190565b6000838252604060208301526124c2604083018461521f565b9182526001600160a01b0316602082015260400190565b93845260ff9290921660208401526040830152606082015260800190565b600060208252611e45602083018461521f565b60006101e0820190506156338285516151d2565b602084015161564560208401826151d2565b50604084015161565860408401826151d2565b50606084015160608301526080840151608083015260a084015160a083015260c084015161568960c08401826151d2565b5060e08481015190830152610100808501519083015261012080850151908301526101408085015190830152610160808501516156c8828501826151d2565b505061018084810151908301526101a093840151938201939093526101c0015290565b6000838252604060208301526124c260408301846151df565b60ff91909116815260200190565b60405181810167ffffffffffffffff8111828210171561573157600080fd5b604052919050565b600067ffffffffffffffff82111561574f578081fd5b5060209081020190565b6001600160a01b031690565b6001600160a01b03811681146110f757600080fd5b60ff811681146110f757600080fdfea26469706673582212209f84627bde49668956866e9962ee81df36132a32e4185ffb322af205b18e858b64736f6c63430007010033",
  "linkReferences": {},
  "deployedLinkReferences": {}
}