{
  "_format": "hh-sol-artifact-1",
  "contractName": "SecondaryIssuePool",
  "sourceName": "contracts/SecondaryIssuePool.sol",
  "abi": [
    {
      "inputs": [
        {
          "internalType": "contract IVault",
          "name": "vault",
          "type": "address"
        },
        {
          "internalType": "string",
          "name": "name",
          "type": "string"
        },
        {
          "internalType": "string",
          "name": "symbol",
          "type": "string"
        },
        {
          "internalType": "address",
          "name": "security",
          "type": "address"
        },
        {
          "internalType": "address",
          "name": "currency",
          "type": "address"
        },
        {
          "internalType": "uint256",
          "name": "minOrderSize",
          "type": "uint256"
        },
        {
          "internalType": "uint256",
          "name": "tradeFeePercentage",
          "type": "uint256"
        },
        {
          "internalType": "uint256",
          "name": "pauseWindowDuration",
          "type": "uint256"
        },
        {
          "internalType": "uint256",
          "name": "bufferPeriodDuration",
          "type": "uint256"
        },
        {
          "internalType": "address",
          "name": "owner",
          "type": "address"
        }
      ],
      "stateMutability": "nonpayable",
      "type": "constructor"
    },
    {
      "anonymous": false,
      "inputs": [
        {
          "indexed": true,
          "internalType": "address",
          "name": "owner",
          "type": "address"
        },
        {
          "indexed": true,
          "internalType": "address",
          "name": "spender",
          "type": "address"
        },
        {
          "indexed": false,
          "internalType": "uint256",
          "name": "value",
          "type": "uint256"
        }
      ],
      "name": "Approval",
      "type": "event"
    },
    {
      "anonymous": false,
      "inputs": [
        {
          "indexed": true,
          "internalType": "address",
          "name": "security",
          "type": "address"
        },
        {
          "indexed": false,
          "internalType": "uint256",
          "name": "minOrderSize",
          "type": "uint256"
        },
        {
          "indexed": false,
          "internalType": "address",
          "name": "currency",
          "type": "address"
        },
        {
          "indexed": false,
          "internalType": "address",
          "name": "orderBook",
          "type": "address"
        }
      ],
      "name": "Offer",
      "type": "event"
    },
    {
      "anonymous": false,
      "inputs": [
        {
          "indexed": false,
          "internalType": "address",
          "name": "tokenIn",
          "type": "address"
        },
        {
          "indexed": false,
          "internalType": "address",
          "name": "tokenOut",
          "type": "address"
        },
        {
          "indexed": false,
          "internalType": "uint256",
          "name": "amountOffered",
          "type": "uint256"
        },
        {
          "indexed": false,
          "internalType": "uint256",
          "name": "priceOffered",
          "type": "uint256"
        },
        {
          "indexed": false,
          "internalType": "bytes32",
          "name": "orderRef",
          "type": "bytes32"
        }
      ],
      "name": "OrderBook",
      "type": "event"
    },
    {
      "anonymous": false,
      "inputs": [
        {
          "indexed": false,
          "internalType": "bool",
          "name": "paused",
          "type": "bool"
        }
      ],
      "name": "PausedStateChanged",
      "type": "event"
    },
    {
      "anonymous": false,
      "inputs": [
        {
          "indexed": false,
          "internalType": "bool",
          "name": "enabled",
          "type": "bool"
        }
      ],
      "name": "RecoveryModeStateChanged",
      "type": "event"
    },
    {
      "anonymous": false,
      "inputs": [
        {
          "indexed": false,
          "internalType": "uint256",
          "name": "swapFeePercentage",
          "type": "uint256"
        }
      ],
      "name": "SwapFeePercentageChanged",
      "type": "event"
    },
    {
      "anonymous": false,
      "inputs": [
        {
          "indexed": true,
          "internalType": "address",
          "name": "security",
          "type": "address"
        },
        {
          "indexed": false,
          "internalType": "address",
          "name": "party",
          "type": "address"
        },
        {
          "indexed": false,
          "internalType": "address",
          "name": "counterparty",
          "type": "address"
        },
        {
          "indexed": false,
          "internalType": "bytes32",
          "name": "orderType",
          "type": "bytes32"
        },
        {
          "indexed": false,
          "internalType": "uint256",
          "name": "price",
          "type": "uint256"
        },
        {
          "indexed": false,
          "internalType": "address",
          "name": "currency",
          "type": "address"
        },
        {
          "indexed": false,
          "internalType": "uint256",
          "name": "amount",
          "type": "uint256"
        },
        {
          "indexed": false,
          "internalType": "uint256",
          "name": "executionDate",
          "type": "uint256"
        }
      ],
      "name": "TradeReport",
      "type": "event"
    },
    {
      "anonymous": false,
      "inputs": [
        {
          "indexed": true,
          "internalType": "address",
          "name": "from",
          "type": "address"
        },
        {
          "indexed": true,
          "internalType": "address",
          "name": "to",
          "type": "address"
        },
        {
          "indexed": false,
          "internalType": "uint256",
          "name": "value",
          "type": "uint256"
        }
      ],
      "name": "Transfer",
      "type": "event"
    },
    {
      "inputs": [],
      "name": "DOMAIN_SEPARATOR",
      "outputs": [
        {
          "internalType": "bytes32",
          "name": "",
          "type": "bytes32"
        }
      ],
      "stateMutability": "view",
      "type": "function"
    },
    {
      "inputs": [],
      "name": "_orderbook",
      "outputs": [
        {
          "internalType": "contract Orderbook",
          "name": "",
          "type": "address"
        }
      ],
      "stateMutability": "view",
      "type": "function"
    },
    {
      "inputs": [
        {
          "internalType": "address",
          "name": "owner",
          "type": "address"
        },
        {
          "internalType": "address",
          "name": "spender",
          "type": "address"
        }
      ],
      "name": "allowance",
      "outputs": [
        {
          "internalType": "uint256",
          "name": "",
          "type": "uint256"
        }
      ],
      "stateMutability": "view",
      "type": "function"
    },
    {
      "inputs": [
        {
          "internalType": "address",
          "name": "spender",
          "type": "address"
        },
        {
          "internalType": "uint256",
          "name": "amount",
          "type": "uint256"
        }
      ],
      "name": "approve",
      "outputs": [
        {
          "internalType": "bool",
          "name": "",
          "type": "bool"
        }
      ],
      "stateMutability": "nonpayable",
      "type": "function"
    },
    {
      "inputs": [
        {
          "internalType": "address",
          "name": "account",
          "type": "address"
        }
      ],
      "name": "balanceOf",
      "outputs": [
        {
          "internalType": "uint256",
          "name": "",
          "type": "uint256"
        }
      ],
      "stateMutability": "view",
      "type": "function"
    },
    {
      "inputs": [],
      "name": "decimals",
      "outputs": [
        {
          "internalType": "uint8",
          "name": "",
          "type": "uint8"
        }
      ],
      "stateMutability": "view",
      "type": "function"
    },
    {
      "inputs": [
        {
          "internalType": "address",
          "name": "spender",
          "type": "address"
        },
        {
          "internalType": "uint256",
          "name": "amount",
          "type": "uint256"
        }
      ],
      "name": "decreaseAllowance",
      "outputs": [
        {
          "internalType": "bool",
          "name": "",
          "type": "bool"
        }
      ],
      "stateMutability": "nonpayable",
      "type": "function"
    },
    {
      "inputs": [],
      "name": "disableRecoveryMode",
      "outputs": [],
      "stateMutability": "nonpayable",
      "type": "function"
    },
    {
      "inputs": [],
      "name": "enableRecoveryMode",
      "outputs": [],
      "stateMutability": "nonpayable",
      "type": "function"
    },
    {
      "inputs": [
        {
          "internalType": "bytes4",
          "name": "selector",
          "type": "bytes4"
        }
      ],
      "name": "getActionId",
      "outputs": [
        {
          "internalType": "bytes32",
          "name": "",
          "type": "bytes32"
        }
      ],
      "stateMutability": "view",
      "type": "function"
    },
    {
      "inputs": [],
      "name": "getAuthorizer",
      "outputs": [
        {
          "internalType": "contract IAuthorizer",
          "name": "",
          "type": "address"
        }
      ],
      "stateMutability": "view",
      "type": "function"
    },
    {
      "inputs": [],
      "name": "getCurrency",
      "outputs": [
        {
          "internalType": "address",
          "name": "",
          "type": "address"
        }
      ],
      "stateMutability": "view",
      "type": "function"
    },
    {
      "inputs": [],
      "name": "getDomainSeparator",
      "outputs": [
        {
          "internalType": "bytes32",
          "name": "",
          "type": "bytes32"
        }
      ],
      "stateMutability": "view",
      "type": "function"
    },
    {
      "inputs": [],
      "name": "getMinOrderSize",
      "outputs": [
        {
          "internalType": "uint256",
          "name": "",
          "type": "uint256"
        }
      ],
      "stateMutability": "view",
      "type": "function"
    },
    {
      "inputs": [
        {
          "internalType": "address",
          "name": "account",
          "type": "address"
        }
      ],
      "name": "getNextNonce",
      "outputs": [
        {
          "internalType": "uint256",
          "name": "",
          "type": "uint256"
        }
      ],
      "stateMutability": "view",
      "type": "function"
    },
    {
      "inputs": [],
      "name": "getOwner",
      "outputs": [
        {
          "internalType": "address",
          "name": "",
          "type": "address"
        }
      ],
      "stateMutability": "view",
      "type": "function"
    },
    {
      "inputs": [],
      "name": "getPausedState",
      "outputs": [
        {
          "internalType": "bool",
          "name": "paused",
          "type": "bool"
        },
        {
          "internalType": "uint256",
          "name": "pauseWindowEndTime",
          "type": "uint256"
        },
        {
          "internalType": "uint256",
          "name": "bufferPeriodEndTime",
          "type": "uint256"
        }
      ],
      "stateMutability": "view",
      "type": "function"
    },
    {
      "inputs": [],
      "name": "getPoolId",
      "outputs": [
        {
          "internalType": "bytes32",
          "name": "",
          "type": "bytes32"
        }
      ],
      "stateMutability": "view",
      "type": "function"
    },
    {
      "inputs": [],
      "name": "getProtocolFeesCollector",
      "outputs": [
        {
          "internalType": "contract IProtocolFeesCollector",
          "name": "",
          "type": "address"
        }
      ],
      "stateMutability": "view",
      "type": "function"
    },
    {
      "inputs": [],
      "name": "getScalingFactors",
      "outputs": [
        {
          "internalType": "uint256[]",
          "name": "",
          "type": "uint256[]"
        }
      ],
      "stateMutability": "view",
      "type": "function"
    },
    {
      "inputs": [],
      "name": "getSecurity",
      "outputs": [
        {
          "internalType": "address",
          "name": "",
          "type": "address"
        }
      ],
      "stateMutability": "view",
      "type": "function"
    },
    {
      "inputs": [],
      "name": "getSwapFeePercentage",
      "outputs": [
        {
          "internalType": "uint256",
          "name": "",
          "type": "uint256"
        }
      ],
      "stateMutability": "view",
      "type": "function"
    },
    {
      "inputs": [],
      "name": "getVault",
      "outputs": [
        {
          "internalType": "contract IVault",
          "name": "",
          "type": "address"
        }
      ],
      "stateMutability": "view",
      "type": "function"
    },
    {
      "inputs": [],
      "name": "inRecoveryMode",
      "outputs": [
        {
          "internalType": "bool",
          "name": "",
          "type": "bool"
        }
      ],
      "stateMutability": "view",
      "type": "function"
    },
    {
      "inputs": [
        {
          "internalType": "address",
          "name": "spender",
          "type": "address"
        },
        {
          "internalType": "uint256",
          "name": "addedValue",
          "type": "uint256"
        }
      ],
      "name": "increaseAllowance",
      "outputs": [
        {
          "internalType": "bool",
          "name": "",
          "type": "bool"
        }
      ],
      "stateMutability": "nonpayable",
      "type": "function"
    },
    {
      "inputs": [],
      "name": "name",
      "outputs": [
        {
          "internalType": "string",
          "name": "",
          "type": "string"
        }
      ],
      "stateMutability": "view",
      "type": "function"
    },
    {
      "inputs": [
        {
          "internalType": "address",
          "name": "owner",
          "type": "address"
        }
      ],
      "name": "nonces",
      "outputs": [
        {
          "internalType": "uint256",
          "name": "",
          "type": "uint256"
        }
      ],
      "stateMutability": "view",
      "type": "function"
    },
    {
      "inputs": [
        {
          "internalType": "bytes32",
          "name": "poolId",
          "type": "bytes32"
        },
        {
          "internalType": "address",
          "name": "sender",
          "type": "address"
        },
        {
          "internalType": "address",
          "name": "recipient",
          "type": "address"
        },
        {
          "internalType": "uint256[]",
          "name": "balances",
          "type": "uint256[]"
        },
        {
          "internalType": "uint256",
          "name": "lastChangeBlock",
          "type": "uint256"
        },
        {
          "internalType": "uint256",
          "name": "protocolSwapFeePercentage",
          "type": "uint256"
        },
        {
          "internalType": "bytes",
          "name": "userData",
          "type": "bytes"
        }
      ],
      "name": "onExitPool",
      "outputs": [
        {
          "internalType": "uint256[]",
          "name": "",
          "type": "uint256[]"
        },
        {
          "internalType": "uint256[]",
          "name": "",
          "type": "uint256[]"
        }
      ],
      "stateMutability": "nonpayable",
      "type": "function"
    },
    {
      "inputs": [
        {
          "internalType": "bytes32",
          "name": "poolId",
          "type": "bytes32"
        },
        {
          "internalType": "address",
          "name": "sender",
          "type": "address"
        },
        {
          "internalType": "address",
          "name": "recipient",
          "type": "address"
        },
        {
          "internalType": "uint256[]",
          "name": "balances",
          "type": "uint256[]"
        },
        {
          "internalType": "uint256",
          "name": "lastChangeBlock",
          "type": "uint256"
        },
        {
          "internalType": "uint256",
          "name": "protocolSwapFeePercentage",
          "type": "uint256"
        },
        {
          "internalType": "bytes",
          "name": "userData",
          "type": "bytes"
        }
      ],
      "name": "onJoinPool",
      "outputs": [
        {
          "internalType": "uint256[]",
          "name": "",
          "type": "uint256[]"
        },
        {
          "internalType": "uint256[]",
          "name": "",
          "type": "uint256[]"
        }
      ],
      "stateMutability": "nonpayable",
      "type": "function"
    },
    {
      "inputs": [
        {
          "internalType": "enum IVault.SwapKind",
          "name": "kind",
          "type": "uint8"
        },
        {
          "internalType": "bytes32",
          "name": "poolId",
          "type": "bytes32"
        },
        {
          "internalType": "uint256",
          "name": "amount",
          "type": "uint256"
        },
        {
          "internalType": "bytes",
          "name": "data",
          "type": "bytes"
        },
        {
          "internalType": "uint256",
          "name": "indexIn",
          "type": "uint256"
        },
        {
          "internalType": "uint256",
          "name": "indexOut",
          "type": "uint256"
        }
      ],
      "name": "onLimit",
      "outputs": [
        {
          "internalType": "uint256",
          "name": "",
          "type": "uint256"
        }
      ],
      "stateMutability": "nonpayable",
      "type": "function"
    },
    {
      "inputs": [
        {
          "components": [
            {
              "internalType": "enum IVault.SwapKind",
              "name": "kind",
              "type": "uint8"
            },
            {
              "internalType": "contract IERC20",
              "name": "tokenIn",
              "type": "address"
            },
            {
              "internalType": "contract IERC20",
              "name": "tokenOut",
              "type": "address"
            },
            {
              "internalType": "uint256",
              "name": "amount",
              "type": "uint256"
            },
            {
              "internalType": "bytes32",
              "name": "poolId",
              "type": "bytes32"
            },
            {
              "internalType": "uint256",
              "name": "lastChangeBlock",
              "type": "uint256"
            },
            {
              "internalType": "address",
              "name": "from",
              "type": "address"
            },
            {
              "internalType": "address",
              "name": "to",
              "type": "address"
            },
            {
              "internalType": "bytes",
              "name": "userData",
              "type": "bytes"
            }
          ],
          "internalType": "struct IPoolSwapStructs.SwapRequest",
          "name": "request",
          "type": "tuple"
        },
        {
          "internalType": "uint256[]",
          "name": "balances",
          "type": "uint256[]"
        },
        {
          "internalType": "uint256",
          "name": "indexIn",
          "type": "uint256"
        },
        {
          "internalType": "uint256",
          "name": "indexOut",
          "type": "uint256"
        }
      ],
      "name": "onSwap",
      "outputs": [
        {
          "internalType": "uint256",
          "name": "",
          "type": "uint256"
        }
      ],
      "stateMutability": "nonpayable",
      "type": "function"
    },
    {
      "inputs": [],
      "name": "pause",
      "outputs": [],
      "stateMutability": "nonpayable",
      "type": "function"
    },
    {
      "inputs": [
        {
          "internalType": "address",
          "name": "owner",
          "type": "address"
        },
        {
          "internalType": "address",
          "name": "spender",
          "type": "address"
        },
        {
          "internalType": "uint256",
          "name": "value",
          "type": "uint256"
        },
        {
          "internalType": "uint256",
          "name": "deadline",
          "type": "uint256"
        },
        {
          "internalType": "uint8",
          "name": "v",
          "type": "uint8"
        },
        {
          "internalType": "bytes32",
          "name": "r",
          "type": "bytes32"
        },
        {
          "internalType": "bytes32",
          "name": "s",
          "type": "bytes32"
        }
      ],
      "name": "permit",
      "outputs": [],
      "stateMutability": "nonpayable",
      "type": "function"
    },
    {
      "inputs": [
        {
          "internalType": "bytes32",
          "name": "poolId",
          "type": "bytes32"
        },
        {
          "internalType": "address",
          "name": "sender",
          "type": "address"
        },
        {
          "internalType": "address",
          "name": "recipient",
          "type": "address"
        },
        {
          "internalType": "uint256[]",
          "name": "balances",
          "type": "uint256[]"
        },
        {
          "internalType": "uint256",
          "name": "lastChangeBlock",
          "type": "uint256"
        },
        {
          "internalType": "uint256",
          "name": "protocolSwapFeePercentage",
          "type": "uint256"
        },
        {
          "internalType": "bytes",
          "name": "userData",
          "type": "bytes"
        }
      ],
      "name": "queryExit",
      "outputs": [
        {
          "internalType": "uint256",
          "name": "bptIn",
          "type": "uint256"
        },
        {
          "internalType": "uint256[]",
          "name": "amountsOut",
          "type": "uint256[]"
        }
      ],
      "stateMutability": "view",
      "type": "function"
    },
    {
      "inputs": [
        {
          "internalType": "bytes32",
          "name": "poolId",
          "type": "bytes32"
        },
        {
          "internalType": "address",
          "name": "sender",
          "type": "address"
        },
        {
          "internalType": "address",
          "name": "recipient",
          "type": "address"
        },
        {
          "internalType": "uint256[]",
          "name": "balances",
          "type": "uint256[]"
        },
        {
          "internalType": "uint256",
          "name": "lastChangeBlock",
          "type": "uint256"
        },
        {
          "internalType": "uint256",
          "name": "protocolSwapFeePercentage",
          "type": "uint256"
        },
        {
          "internalType": "bytes",
          "name": "userData",
          "type": "bytes"
        }
      ],
      "name": "queryJoin",
      "outputs": [
        {
          "internalType": "uint256",
          "name": "bptOut",
          "type": "uint256"
        },
        {
          "internalType": "uint256[]",
          "name": "amountsIn",
          "type": "uint256[]"
        }
      ],
      "stateMutability": "view",
      "type": "function"
    },
    {
      "inputs": [
        {
          "internalType": "contract IERC20",
          "name": "token",
          "type": "address"
        },
        {
          "internalType": "bytes",
          "name": "poolConfig",
          "type": "bytes"
        }
      ],
      "name": "setAssetManagerPoolConfig",
      "outputs": [],
      "stateMutability": "nonpayable",
      "type": "function"
    },
    {
      "inputs": [
        {
          "internalType": "uint256",
          "name": "swapFeePercentage",
          "type": "uint256"
        }
      ],
      "name": "setSwapFeePercentage",
      "outputs": [],
      "stateMutability": "nonpayable",
      "type": "function"
    },
    {
      "inputs": [],
      "name": "symbol",
      "outputs": [
        {
          "internalType": "string",
          "name": "",
          "type": "string"
        }
      ],
      "stateMutability": "view",
      "type": "function"
    },
    {
      "inputs": [],
      "name": "totalSupply",
      "outputs": [
        {
          "internalType": "uint256",
          "name": "",
          "type": "uint256"
        }
      ],
      "stateMutability": "view",
      "type": "function"
    },
    {
      "inputs": [
        {
          "internalType": "address",
          "name": "recipient",
          "type": "address"
        },
        {
          "internalType": "uint256",
          "name": "amount",
          "type": "uint256"
        }
      ],
      "name": "transfer",
      "outputs": [
        {
          "internalType": "bool",
          "name": "",
          "type": "bool"
        }
      ],
      "stateMutability": "nonpayable",
      "type": "function"
    },
    {
      "inputs": [
        {
          "internalType": "address",
          "name": "sender",
          "type": "address"
        },
        {
          "internalType": "address",
          "name": "recipient",
          "type": "address"
        },
        {
          "internalType": "uint256",
          "name": "amount",
          "type": "uint256"
        }
      ],
      "name": "transferFrom",
      "outputs": [
        {
          "internalType": "bool",
          "name": "",
          "type": "bool"
        }
      ],
      "stateMutability": "nonpayable",
      "type": "function"
    },
    {
      "inputs": [],
      "name": "unpause",
      "outputs": [],
      "stateMutability": "nonpayable",
      "type": "function"
    }
  ],
  "bytecode": "0x6102e06040523480156200001257600080fd5b5060405162009f7238038062009f72833981016040819052620000359162000b90565b8960008a8a620000478b8b30620004d9565b6040805160038082526080820190925290602082016060803683370190505089898989828289898d85336001600160a01b031660001b8480604051806040016040528060018152602001603160f81b81525087878160039080519060200190620000b3929190620009fa565b508051620000c9906004906020840190620009fa565b50506005805460ff19166012179055508151602092830120608052805191012060a052507f8b73c3c69bb8fe3d512ecc4cf759cc79239f7b179b0ffacaa9a75d522b39400f60c05260e0526001600160601b0319606091821b81166101005291901b1661012052506200014790506276a700831115610194620005a8565b6200015b62278d00821115610195620005a8565b42909101610140819052016101605285516200017d906002111560c8620005a8565b620001976200018b620005bd565b8751111560c9620005a8565b620001ad86620005c260201b62002c111760201c565b620001b884620005ce565b6040516309b2760f60e01b81526000906001600160a01b038c16906309b2760f90620001e9908d9060040162000d59565b602060405180830381600087803b1580156200020457600080fd5b505af115801562000219573d6000803e3d6000fd5b505050506040513d601f19601f820116820180604052508101906200023f919062000b58565b604051633354e3e960e11b81529091506001600160a01b038c16906366a9c7d290620002749084908b908b9060040162000cbd565b600060405180830381600087803b1580156200028f57600080fd5b505af1158015620002a4573d6000803e3d6000fd5b505050508061018081815250508a6001600160a01b031663d2946c2b6040518163ffffffff1660e01b815260040160206040518083038186803b158015620002eb57600080fd5b505afa15801562000300573d6000803e3d6000fd5b505050506040513d601f19601f8201168201806040525081019062000326919062000b71565b6001600160a01b03166101a0816001600160a01b031660601b815250505050505050505050505050866001600160a01b03166101c0816001600160a01b031660601b81525050856001600160a01b03166101e0816001600160a01b031660601b8152505089600b60006101000a8154816001600160a01b0302191690836001600160a01b031602179055506000806000620003c98a8a306200066260201b60201c565b6102608190526102808390526102a082905291945092509050620003ed8a62000758565b61020052620003fc8962000758565b61022052600a8890556102408790526001600160601b0319606085901b166102c05260405184908b908b903090620004349062000a7f565b62000443949392919062000c92565b604051809103906000f08015801562000460573d6000803e3d6000fd5b50600980546001600160a01b0319166001600160a01b039283161790819055600a546040518d8416937f3ca60c442fe0a0eec00a4242bd76d6b93ec28f607f78e5b820a53f8538854bbb93620004be93928f92919091169062000d77565b60405180910390a25050505050505050505050505062000db8565b606060008080620004ec87878762000662565b60408051600380825260808201909252939650919450925060208201606080368337019050509350868484815181106200052257fe5b60200260200101906001600160a01b031690816001600160a01b031681525050858483815181106200055057fe5b60200260200101906001600160a01b031690816001600160a01b031681525050848482815181106200057e57fe5b60200260200101906001600160a01b031690816001600160a01b0316815250505050509392505050565b81620005b957620005b9816200082c565b5050565b600390565b80620005b98162000841565b620005e7620005dc620008cd565b82101560cb620005a8565b62000600620005f5620008d6565b82111560ca620005a8565b620006228160c0603f600854620008e260201b62002c1b17909392919060201c565b6008556040517fa9ba3ffe0b6c366b81232caab38605a0699ad5398d6cce76f91ee809e322dafc906200065790839062000d6e565b60405180910390a150565b6000806000846001600160a01b0316866001600160a01b03161015620006eb57836001600160a01b0316856001600160a01b03161015620006ae5750600091506001905060026200074f565b836001600160a01b0316866001600160a01b03161015620006da5750600091506002905060016200074f565b50600191506002905060006200074f565b846001600160a01b0316846001600160a01b03161015620007175750600291506001905060006200074f565b856001600160a01b0316846001600160a01b03161015620007435750600291506000905060016200074f565b50600191506000905060025b93509350939050565b60006001600160a01b0382163014156200077c5750670de0b6b3a764000062000827565b6000826001600160a01b031663313ce5676040518163ffffffff1660e01b815260040160206040518083038186803b158015620007b857600080fd5b505afa158015620007cd573d6000803e3d6000fd5b505050506040513d601f19601f82011682018060405250810190620007f3919062000c6f565b60ff1690506000620008126012836200090760201b62002c431760201c565b905080600a0a670de0b6b3a764000002925050505b919050565b6200083e816210905360ea1b62000924565b50565b60028151101562000852576200083e565b6000816000815181106200086257fe5b602002602001015190506000600190505b8251811015620008c85760008382815181106200088c57fe5b60200260200101519050620008bd816001600160a01b0316846001600160a01b0316106065620005a860201b60201c565b915060010162000873565b505050565b64e8d4a5100090565b67016345785d8a000090565b6000620008f184848462000985565b506001901b60001901811b1992909216911b1790565b600062000919838311156001620005a8565b508082035b92915050565b62461bcd60e51b600090815260206004526007602452600a808404818106603090810160081b958390069590950190829004918206850160101b01602363ffffff0060e086901c160160181b0190930160c81b60445260e882901c90606490fd5b6200099661010083106064620005a8565b620009cf60018210158015620009c75750620009c360ff8461010003620009e060201b62002c591760201c565b8211155b6064620005a8565b620008c883821c156101b4620005a8565b6000818310620009f15781620009f3565b825b9392505050565b828054600181600116156101000203166002900490600052602060002090601f016020900481019282601f1062000a3d57805160ff191683800117855562000a6d565b8280016001018555821562000a6d579182015b8281111562000a6d57825182559160200191906001019062000a50565b5062000a7b92915062000a8d565b5090565b613daa80620061c883390190565b5b8082111562000a7b576000815560010162000a8e565b80516200091e8162000da2565b600082601f83011262000ac2578081fd5b81516001600160401b038082111562000ad9578283fd5b6040516020601f8401601f191682018101838111838210171562000afb578586fd5b8060405250819450838252868185880101111562000b1857600080fd5b600092505b8383101562000b3c578583018101518284018201529182019162000b1d565b8383111562000b4e5760008185840101525b5050505092915050565b60006020828403121562000b6a578081fd5b5051919050565b60006020828403121562000b83578081fd5b8151620009f38162000da2565b6000806000806000806000806000806101408b8d03121562000bb0578586fd5b62000bbc8c8c62000aa4565b60208c0151909a506001600160401b038082111562000bd9578788fd5b62000be78e838f0162000ab1565b9a5060408d015191508082111562000bfd578788fd5b5062000c0c8d828e0162000ab1565b98505062000c1e8c60608d0162000aa4565b965062000c2f8c60808d0162000aa4565b955060a08b0151945060c08b0151935060e08b015192506101008b0151915062000c5e8c6101208d0162000aa4565b90509295989b9194979a5092959850565b60006020828403121562000c81578081fd5b815160ff81168114620009f3578182fd5b6001600160a01b03948516815292841660208401529083166040830152909116606082015260800190565b60006060820185835260206060818501528186518084526080860191508288019350845b8181101562000d095762000cf6855162000d96565b8352938301939183019160010162000ce1565b505084810360408601528551808252908201925081860190845b8181101562000d4b5762000d38835162000d96565b8552938301939183019160010162000d23565b509298975050505050505050565b602081016003831062000d6857fe5b91905290565b90815260200190565b9283526001600160a01b03918216602084015216604082015260600190565b6001600160a01b031690565b6001600160a01b03811681146200083e57600080fd5b60805160a05160c05160e0516101005160601c6101205160601c6101405161016051610180516101a05160601c6101c05160601c6101e05160601c61020051610220516102405161026051610280516102a0516102c05160601c61520b62000fbd60003980610e7052806137a052508061082352806122b15280612d59528061381b52806138755250806108d55280611f445280611fb752806123635280612cf3525080612dae5280613cbe52505080610e145280612d81528061384e525080610de05280612d1b525080610620528061069f52806107c75280610bdb5280610c325280610c925280610d765280611205528061132252806113e6528061148f52806115f952806117f55280611a535280611ada5280611b905280611f6b5280611fde52806120bc528061213b52806122555280612429528061259152806126d852508061065f52806106df52806108795280610a145280610b225280610b795280610cd15280610d375280610edc52806112e352806113a752806114ce52806115ba528061183452806118f25280611a9b5280611b515280611d505280611f91528061200452806120fb528061217b5280612307528061246852806125525250806129eb525080611da3525080612f37525080612f135250806128d35250806128af5250806128395250806138f852508061393a525080613919525061520b6000f3fe608060405234801561001057600080fd5b50600436106102de5760003560e01c806370a0823111610186578063a457c2d7116100e3578063d2946c2b11610097578063dd62ed3e11610071578063dd62ed3e14610565578063ed24911d14610578578063fd19cac814610580576102de565b8063d2946c2b14610537578063d505accf1461053f578063d5c096c414610552576102de565b8063aaabadc5116100c8578063aaabadc51461051f578063b35056b814610527578063b7b814fc1461052f576102de565b8063a457c2d7146104f9578063a9059cbb1461050c576102de565b806387ec68171161013a5780638d928af81161011f5780638d928af8146104d657806390193b7c146104de57806395d89b41146104f1576102de565b806387ec6817146104bb578063893d20e8146104ce576102de565b80637ecebe001161016b5780637ecebe001461048d5780638456cb59146104a0578063851c1bb3146104a8576102de565b806370a082311461045957806374f3b0091461046c576102de565b806338e9922e1161023f57806350dd6ed9116101f35780636028bfd4116101cd5780636028bfd41461041d578063688d6b791461043e5780636945c1fd14610451576102de565b806350dd6ed9146103fa57806354a844ba1461040d57806355c6762814610415576102de565b8063395093511161022457806339509351146103d75780633f4ba83a146103ea5780634d6d0fd0146103f2576102de565b806338e9922e146103ba57806338fff2d0146103cf576102de565b80631dd746ea116102965780632541897f1161027b5780632541897f14610388578063313ce5671461039d5780633644e515146103b2576102de565b80631dd746ea1461036057806323b872dd14610375576102de565b8063095ea7b3116102c7578063095ea7b31461032157806318160ddd146103415780631c0de05114610349576102de565b806301ec954a146102e357806306fdde031461030c575b600080fd5b6102f66102f1366004614896565b610588565b6040516103039190614d8a565b60405180910390f35b610314611bef565b6040516103039190614e60565b61033461032f366004614484565b611c85565b6040516103039190614d67565b6102f6611c9c565b610351611ca2565b60405161030393929190614d72565b610368611ccb565b6040516103039190614d26565b6103346103833660046143d4565b611cda565b610390611d4e565b6040516103039190614c85565b6103a5611d72565b60405161030391906150ff565b6102f6611d7b565b6103cd6103c8366004614ae4565b611d85565b005b6102f6611da1565b6103346103e5366004614484565b611dc5565b6103cd611e00565b6102f6611e14565b6103cd6104083660046146c7565b611e1a565b6103cd611e38565b6102f6611e4a565b61043061042b36600461459b565b611e5d565b6040516103039291906150e6565b6102f661044c3660046147a6565b611e94565b6103906126d6565b6102f6610467366004614380565b6126fa565b61047f61047a36600461459b565b612715565b604051610303929190614d39565b6102f661049b366004614380565b612818565b6103cd612823565b6102f66104b636600461466b565b612835565b6104306104c936600461459b565b612887565b6103906128ad565b6103906128d1565b6102f66104ec366004614380565b6128f5565b610314612910565b610334610507366004614484565b612971565b61033461051a366004614484565b6129af565b6103906129bc565b6103346129c6565b6103cd6129d7565b6103906129e9565b6103cd61054d366004614414565b612a0d565b61047f61056036600461459b565b612a98565b6102f661057336600461439c565b612bbb565b6102f6612bf8565b610390612c02565b600084608001516105b561059a6128d1565b6001600160a01b0316336001600160a01b03161460cd612c71565b6105ca6105c0611da1565b82146101f4612c71565b6105d2612c7f565b6000865160018111156105e157fe5b14806105f957506001865160018111156105f757fe5b145b61061e5760405162461bcd60e51b815260040161061590614f4f565b60405180910390fd5b7f00000000000000000000000000000000000000000000000000000000000000006001600160a01b031686604001516001600160a01b0316148061069757507f00000000000000000000000000000000000000000000000000000000000000006001600160a01b031686604001516001600160a01b0316145b806106d757507f00000000000000000000000000000000000000000000000000000000000000006001600160a01b031686602001516001600160a01b0316145b8061071757507f00000000000000000000000000000000000000000000000000000000000000006001600160a01b031686602001516001600160a01b0316145b6107335760405162461bcd60e51b815260040161061590614e73565b606061073d612c92565b90506107498682612e05565b610751614179565b606060008080808c51600181111561076557fe5b14156107965761078c8c60600151878c8151811061077f57fe5b6020026020010151612e74565b60608d01526107c5565b60018c5160018111156107a557fe5b14156107c5576107bf8c60600151878b8151811061077f57fe5b60608d01525b7f00000000000000000000000000000000000000000000000000000000000000006001600160a01b03168c602001516001600160a01b0316148015610816575060008c51600181111561081457fe5b145b15610877578b606001518b7f00000000000000000000000000000000000000000000000000000000000000008151811061084c57fe5b602002602001015110156108725760405162461bcd60e51b815260040161061590614ee1565b610924565b7f00000000000000000000000000000000000000000000000000000000000000006001600160a01b03168c602001516001600160a01b03161480156108c8575060008c5160018111156108c657fe5b145b15610924578b606001518b7f0000000000000000000000000000000000000000000000000000000000000000815181106108fe57fe5b602002602001015110156109245760405162461bcd60e51b815260040161061590614f86565b6101008c0151511561143b578b61010001518060200190518101906109499190614819565b815191955093506114365761095c614190565b60095460c08e01516040517fca142f750000000000000000000000000000000000000000000000000000000081526001600160a01b039092169163ca142f75916109aa918890600401614d0d565b60e06040518083038186803b1580156109c257600080fd5b505afa1580156109d6573d6000803e3d6000fd5b505050506040513d601f19601f820116820180604052508101906109fa9190614a74565b60095460c08f015160208301519293506001600160a01b037f000000000000000000000000000000000000000000000000000000000000000081169392811692635778472a92908216911614610a54578360400151610a57565b83515b6040518263ffffffff1660e01b8152600401610a739190614d8a565b6101406040518083038186803b158015610a8c57600080fd5b505afa158015610aa0573d6000803e3d6000fd5b505050506040513d601f19601f82011682018060405250810190610ac491906149b5565b602001516001600160a01b031614610afc577f63757272656e6379000000000000000000000000000000000000000000000000610b1e565b7f73656375726974790000000000000000000000000000000000000000000000005b92507f00000000000000000000000000000000000000000000000000000000000000006001600160a01b03168d602001516001600160a01b0316148015610b71575060008d516001811115610b6f57fe5b145b80610bc857507f00000000000000000000000000000000000000000000000000000000000000006001600160a01b03168d604001516001600160a01b0316148015610bc8575060018d516001811115610bc657fe5b145b15610bd9578060c001519150610c8e565b7f00000000000000000000000000000000000000000000000000000000000000006001600160a01b03168d602001516001600160a01b0316148015610c2a575060008d516001811115610c2857fe5b145b80610c8157507f00000000000000000000000000000000000000000000000000000000000000006001600160a01b03168d604001516001600160a01b0316148015610c81575060018d516001811115610c7f57fe5b145b15610c8e578060a0015191505b60007f00000000000000000000000000000000000000000000000000000000000000006001600160a01b03168e604001516001600160a01b03161480610d0957507f00000000000000000000000000000000000000000000000000000000000000006001600160a01b03168e602001516001600160a01b0316145b15610d3557507f53656c6c00000000000000000000000000000000000000000000000000000000610dd6565b7f00000000000000000000000000000000000000000000000000000000000000006001600160a01b03168e604001516001600160a01b03161480610dae57507f00000000000000000000000000000000000000000000000000000000000000006001600160a01b03168e602001516001600160a01b0316145b15610dd657507f42757900000000000000000000000000000000000000000000000000000000005b610e048260a001517f0000000000000000000000000000000000000000000000000000000000000000612e80565b60a083015260c0820151610e38907f0000000000000000000000000000000000000000000000000000000000000000612e80565b60c08301526009546040517f04aec4f90000000000000000000000000000000000000000000000000000000081526001600160a01b037f00000000000000000000000000000000000000000000000000000000000000008116926304aec4f992610ea89287921690600401615081565b600060405180830381600087803b158015610ec257600080fd5b505af1158015610ed6573d6000803e3d6000fd5b505050507f00000000000000000000000000000000000000000000000000000000000000006001600160a01b03167f08fb458ca19c621bab303b5f2f406bd918bedc1610f85d2f58c66ec89e89f46b7f73656375726974790000000000000000000000000000000000000000000000008614610ff25760095460408086015190517f5778472a0000000000000000000000000000000000000000000000000000000081526001600160a01b0390921691635778472a91610f9891600401614d8a565b6101406040518083038186803b158015610fb157600080fd5b505afa158015610fc5573d6000803e3d6000fd5b505050506040513d601f19601f82011682018060405250810190610fe991906149b5565b60e00151611091565b60095484516040517f5778472a0000000000000000000000000000000000000000000000000000000081526001600160a01b0390921691635778472a9161103b91600401614d8a565b6101406040518083038186803b15801561105457600080fd5b505afa158015611068573d6000803e3d6000fd5b505050506040513d601f19601f8201168201806040525081019061108c91906149b5565b60e001515b7f63757272656e6379000000000000000000000000000000000000000000000000871461115e5760095460408087015190517f5778472a0000000000000000000000000000000000000000000000000000000081526001600160a01b0390921691635778472a9161110491600401614d8a565b6101406040518083038186803b15801561111d57600080fd5b505afa158015611131573d6000803e3d6000fd5b505050506040513d601f19601f8201168201806040525081019061115591906149b5565b60e001516111fd565b60095485516040517f5778472a0000000000000000000000000000000000000000000000000000000081526001600160a01b0390921691635778472a916111a791600401614d8a565b6101406040518083038186803b1580156111c057600080fd5b505afa1580156111d4573d6000803e3d6000fd5b505050506040513d601f19601f820116820180604052508101906111f891906149b5565b60e001515b8486606001517f000000000000000000000000000000000000000000000000000000000000000089896080015160405161123d9796959493929190614c99565b60405180910390a260095460c08f01516040517fd729cf6c0000000000000000000000000000000000000000000000000000000081526001600160a01b039092169163d729cf6c91611293918990600401614d0d565b600060405180830381600087803b1580156112ad57600080fd5b505af11580156112c1573d6000803e3d6000fd5b50600092506112ce915050565b8e5160018111156112db57fe5b1415611390577f00000000000000000000000000000000000000000000000000000000000000006001600160a01b03168e602001516001600160a01b0316148061135a57507f00000000000000000000000000000000000000000000000000000000000000006001600160a01b03168e602001516001600160a01b0316145b1561138b5761137c83898d8151811061136f57fe5b6020026020010151612e80565b99505050505050505050611be6565b611433565b60018e51600181111561139f57fe5b1415611433577f00000000000000000000000000000000000000000000000000000000000000006001600160a01b03168e604001516001600160a01b0316148061141e57507f00000000000000000000000000000000000000000000000000000000000000006001600160a01b03168e604001516001600160a01b0316145b156114335761137c83898e8151811061136f57fe5b50505b611452565b604080518082019091526000808252602082015294505b60008551600281111561146157fe5b1415611bdf57600a548c60600151101561148d5760405162461bcd60e51b815260040161061590614eaa565b7f00000000000000000000000000000000000000000000000000000000000000006001600160a01b03168c604001516001600160a01b0316148061150657507f00000000000000000000000000000000000000000000000000000000000000006001600160a01b03168c602001516001600160a01b0316145b156115b8576009546040517f65fe757e0000000000000000000000000000000000000000000000000000000081526001600160a01b03909116906365fe757e90611559908f908990600190600401614fbd565b606060405180830381600087803b15801561157357600080fd5b505af1158015611587573d6000803e3d6000fd5b505050506040513d601f19601f820116820180604052508101906115ab919061463e565b90945090925090506116df565b7f00000000000000000000000000000000000000000000000000000000000000006001600160a01b03168c604001516001600160a01b0316148061163157507f00000000000000000000000000000000000000000000000000000000000000006001600160a01b03168c602001516001600160a01b0316145b156116df576009546040517f65fe757e0000000000000000000000000000000000000000000000000000000081526001600160a01b03909116906365fe757e90611684908f908990600090600401614fbd565b606060405180830381600087803b15801561169e57600080fd5b505af11580156116b2573d6000803e3d6000fd5b505050506040513d601f19601f820116820180604052508101906116d6919061463e565b90945090925090505b7f539d902969e42a2f56e454deb040193cddc4dd02a7ef0de4ae9f27bf96e96c7f8c602001518d604001518e60600151886020015186604051611726959493929190614cdc565b60405180910390a18061174b5760405162461bcd60e51b815260040161061590614f18565b611753614190565b60095460c08e01516040517fca142f750000000000000000000000000000000000000000000000000000000081526001600160a01b039092169163ca142f75916117a1918890600401614d0d565b60e06040518083038186803b1580156117b957600080fd5b505afa1580156117cd573d6000803e3d6000fd5b505050506040513d601f19601f820116820180604052508101906117f19190614a74565b90507f00000000000000000000000000000000000000000000000000000000000000006001600160a01b03168d604001516001600160a01b0316148061186c57507f00000000000000000000000000000000000000000000000000000000000000006001600160a01b03168d602001516001600160a01b0316145b15611899577f53656c6c0000000000000000000000000000000000000000000000000000000092506118bd565b7f427579000000000000000000000000000000000000000000000000000000000092505b60095481516040517f5778472a0000000000000000000000000000000000000000000000000000000081526001600160a01b037f00000000000000000000000000000000000000000000000000000000000000008116937f08fb458ca19c621bab303b5f2f406bd918bedc1610f85d2f58c66ec89e89f46b93911691635778472a9161194b91600401614d8a565b6101406040518083038186803b15801561196457600080fd5b505afa158015611978573d6000803e3d6000fd5b505050506040513d601f19601f8201168201806040525081019061199c91906149b5565b60e0015160095460408086015190517f5778472a0000000000000000000000000000000000000000000000000000000081526001600160a01b0390921691635778472a916119ec91600401614d8a565b6101406040518083038186803b158015611a0557600080fd5b505afa158015611a19573d6000803e3d6000fd5b505050506040513d601f19601f82011682018060405250810190611a3d91906149b5565b60e001516060850151604051611a7c93929189917f0000000000000000000000000000000000000000000000000000000000000000908a908d90614c99565b60405180910390a260008d516001811115611a9357fe5b1415611b3a577f00000000000000000000000000000000000000000000000000000000000000006001600160a01b03168d602001516001600160a01b03161480611b1257507f00000000000000000000000000000000000000000000000000000000000000006001600160a01b03168d602001516001600160a01b0316145b15611b3557611b2782888c8151811061136f57fe5b985050505050505050611be6565b611bdd565b60018d516001811115611b4957fe5b1415611bdd577f00000000000000000000000000000000000000000000000000000000000000006001600160a01b03168d604001516001600160a01b03161480611bc857507f00000000000000000000000000000000000000000000000000000000000000006001600160a01b03168d604001516001600160a01b0316145b15611bdd57611b2782888d8151811061136f57fe5b505b5050505050505b50949350505050565b60038054604080516020601f6002600019610100600188161502019095169490940493840181900481028201810190925282815260609390929091830182828015611c7b5780601f10611c5057610100808354040283529160200191611c7b565b820191906000526020600020905b815481529060010190602001808311611c5e57829003601f168201915b5050505050905090565b6000611c92338484612e8c565b5060015b92915050565b60025490565b6000806000611caf612ef4565b159250611cba612f11565b9150611cc4612f35565b9050909192565b6060611cd5612c92565b905090565b600080611ce78533612bbb565b9050611d0b336001600160a01b0387161480611d035750838210155b61019e612c71565b611d16858585612f59565b336001600160a01b03861614801590611d3157506000198114155b15611d4357611d438533858403612e8c565b506001949350505050565b7f000000000000000000000000000000000000000000000000000000000000000090565b60055460ff1690565b6000611cd5612bf8565b611d8d613039565b611d95612c7f565b611d9e8161307f565b50565b7f000000000000000000000000000000000000000000000000000000000000000090565b3360008181526001602090815260408083206001600160a01b03871684529091528120549091611c92918590611dfb90866130f8565b612e8c565b611e08613039565b611e12600061310a565b565b600a5490565b611e22613039565b611e2a612c7f565b611e34828261319b565b5050565b611e40613039565b611e1260016132a9565b600854600090611cd59060c0603f613300565b60006060611e738651611e6e61330f565b613314565b611e88898989898989896133216133736133dc565b97509795505050505050565b6000611e9e612c7f565b600b546040517ff94d46680000000000000000000000000000000000000000000000000000000081526060916001600160a01b03169063f94d466890611ee8908a90600401614d8a565b60006040518083038186803b158015611f0057600080fd5b505afa158015611f14573d6000803e3d6000fd5b505050506040513d6000823e601f3d908101601f19168201604052611f3c91908101906144af565b5091505060007f00000000000000000000000000000000000000000000000000000000000000008514611f8f577f0000000000000000000000000000000000000000000000000000000000000000611fb1565b7f00000000000000000000000000000000000000000000000000000000000000005b905060007f00000000000000000000000000000000000000000000000000000000000000008514612002577f0000000000000000000000000000000000000000000000000000000000000000612024565b7f00000000000000000000000000000000000000000000000000000000000000005b905061202e6141cc565b808b600181111561203b57fe5b9081600181111561204857fe5b9052506001600160a01b038084166020830152821660408201526060810189905261010081018890523360c082015260008151600181111561208657fe5b148061209e575060018151600181111561209c57fe5b145b6120ba5760405162461bcd60e51b815260040161061590614f4f565b7f00000000000000000000000000000000000000000000000000000000000000006001600160a01b031681604001516001600160a01b0316148061213357507f00000000000000000000000000000000000000000000000000000000000000006001600160a01b031681604001516001600160a01b0316145b8061217357507f00000000000000000000000000000000000000000000000000000000000000006001600160a01b031681602001516001600160a01b0316145b806121b357507f00000000000000000000000000000000000000000000000000000000000000006001600160a01b031681602001516001600160a01b0316145b6121cf5760405162461bcd60e51b815260040161061590614e73565b60606121d9612c92565b90506121e58582612e05565b6121ed614179565b6060600080808651600181111561220057fe5b14156122245761221a8660600151868e8151811061077f57fe5b6060870152612253565b60018651600181111561223357fe5b14156122535761224d8660600151868d8151811061077f57fe5b60608701525b7f00000000000000000000000000000000000000000000000000000000000000006001600160a01b031686602001516001600160a01b03161480156122a457506000865160018111156122a257fe5b145b15612305578560600151897f0000000000000000000000000000000000000000000000000000000000000000815181106122da57fe5b602002602001015110156123005760405162461bcd60e51b815260040161061590614ee1565b6123b2565b7f00000000000000000000000000000000000000000000000000000000000000006001600160a01b031686602001516001600160a01b0316148015612356575060008651600181111561235457fe5b145b156123b2578560600151897f00000000000000000000000000000000000000000000000000000000000000008151811061238c57fe5b602002602001015110156123b25760405162461bcd60e51b815260040161061590614f86565b6101008601515115612401578561010001518060200190518101906123d79190614819565b81519194509250156124015781156124015760408051808201909152806001815260200183905293505b600a54866060015110156124275760405162461bcd60e51b815260040161061590614eaa565b7f00000000000000000000000000000000000000000000000000000000000000006001600160a01b031686604001516001600160a01b031614806124a057507f00000000000000000000000000000000000000000000000000000000000000006001600160a01b031686602001516001600160a01b0316145b15612550576009546040517f65fe757e0000000000000000000000000000000000000000000000000000000081526001600160a01b03909116906365fe757e906124f39089908890600190600401614fbd565b606060405180830381600087803b15801561250d57600080fd5b505af1158015612521573d6000803e3d6000fd5b505050506040513d601f19601f82011682018060405250810190612545919061463e565b509091506126749050565b7f00000000000000000000000000000000000000000000000000000000000000006001600160a01b031686604001516001600160a01b031614806125c957507f00000000000000000000000000000000000000000000000000000000000000006001600160a01b031686602001516001600160a01b0316145b15612674576009546040517f65fe757e0000000000000000000000000000000000000000000000000000000081526001600160a01b03909116906365fe757e9061261c9089908890600090600401614fbd565b606060405180830381600087803b15801561263657600080fd5b505af115801561264a573d6000803e3d6000fd5b505050506040513d601f19601f8201168201806040525081019061266e919061463e565b50909150505b7f539d902969e42a2f56e454deb040193cddc4dd02a7ef0de4ae9f27bf96e96c7f8660200151876040015188606001518760200151856040516126bb959493929190614cdc565b60405180910390a15050505050505050509695505050505050565b7f000000000000000000000000000000000000000000000000000000000000000090565b6001600160a01b031660009081526020819052604090205490565b6060808861272461059a6128d1565b61272f6105c0611da1565b6060600061273c86613573565b15612764576127496135a2565b61275b89612755611c9c565b886135b5565b925090506127b6565b61276c6135e1565b6060612776612c92565b90506127828a82612e05565b6127a68d8d8d8d8d6127926129c6565b61279c578d61279f565b60005b878e613321565b935091506127b48382613373565b505b6127c08b826135e9565b81895167ffffffffffffffff811180156127d957600080fd5b50604051908082528060200260200182016040528015612803578160200160208202803683370190505b509450945050505b5097509795505050505050565b6000611c96826128f5565b61282b613039565b611e12600161310a565b60007f00000000000000000000000000000000000000000000000000000000000000008260405160200161286a929190614c0f565b604051602081830303815290604052805190602001209050919050565b600060606128988651611e6e61330f565b611e88898989898989896135f361360f6133dc565b7f000000000000000000000000000000000000000000000000000000000000000090565b7f000000000000000000000000000000000000000000000000000000000000000090565b6001600160a01b031660009081526006602052604090205490565b60048054604080516020601f6002600019610100600188161502019095169490940493840181900481028201810190925282815260609390929091830182828015611c7b5780601f10611c5057610100808354040283529160200191611c7b565b60008061297e3385612bbb565b90508083106129985761299333856000612e8c565b6129a5565b6129a53385858403612e8c565b5060019392505050565b6000611c92338484612f59565b6000611cd5613678565b600854600090611cd59060ff6136f2565b6129df613039565b611e1260006132a9565b7f000000000000000000000000000000000000000000000000000000000000000090565b60007f6e71edae12b1b97f4d1f60370fef10105fa2faae0126114a169c64845d6126c9888888612a3c8c6128f5565b89604051602001612a5296959493929190614db2565b604051602081830303815290604052805190602001209050612a838882612a7a8787876136fc565b886101f861373b565b612a8e888888612e8c565b5050505050505050565b60608088612aa761059a6128d1565b612ab26105c0611da1565b612aba6135e1565b6060612ac4612c92565b9050612ace611c9c565b612b7b5760006060612ae38d8d8d868b613792565b91509150612afc612af26138b8565b83101560cc612c71565b612b0e6000612b096138b8565b6138bf565b612b218b612b1a6138b8565b84036138bf565b612b2b818461360f565b808a5167ffffffffffffffff81118015612b4457600080fd5b50604051908082528060200260200182016040528015612b6e578160200160208202803683370190505b509550955050505061280b565b612b858882612e05565b60006060612bad8d8d8d8d8d612b996129c6565b612ba3578d612ba6565b60005b898e6135f3565b91509150612b218b836138bf565b6000612bc56128d1565b6001600160a01b0316826001600160a01b03161415612be75750600019611c96565b612bf183836138c9565b9050611c96565b6000611cd56138f4565b6009546001600160a01b031681565b80611e3481613991565b6000612c28848484613a0f565b5082821b6000196001831b01831b198516175b949350505050565b6000612c53838311156001612c71565b50900390565b6000818310612c685781612c6a565b825b9392505050565b81611e3457611e3481613a56565b611e12612c8a612ef4565b610192612c71565b60606000612c9e61330f565b905060608167ffffffffffffffff81118015612cb957600080fd5b50604051908082528060200260200182016040528015612ce3578160200160208202803683370190505b50905060005b82811015612dfe577f0000000000000000000000000000000000000000000000000000000000000000811415612d57577f0000000000000000000000000000000000000000000000000000000000000000828281518110612d4657fe5b602002602001018181525050612df6565b7f0000000000000000000000000000000000000000000000000000000000000000811415612dac577f0000000000000000000000000000000000000000000000000000000000000000828281518110612d4657fe5b7f0000000000000000000000000000000000000000000000000000000000000000811415612df657670de0b6b3a7640000828281518110612de957fe5b6020026020010181815250505b600101612ce9565b5091505090565b81518151612e14908290613314565b60005b81811015612e6e57612e4f848281518110612e2e57fe5b6020026020010151848381518110612e4257fe5b6020026020010151613a80565b848281518110612e5b57fe5b6020908102919091010152600101612e17565b50505050565b6000612c6a8383613a80565b6000612c6a8383613ab6565b6001600160a01b0380841660008181526001602090815260408083209487168084529490915290819020849055517f8c5be1e5ebec7d5bd14f71427d1e84f3dd0314c0f7b2291e5b200ac8c7c3b92590612ee7908590614d8a565b60405180910390a3505050565b6000612efe612f35565b421180611cd557505060075460ff161590565b7f000000000000000000000000000000000000000000000000000000000000000090565b7f000000000000000000000000000000000000000000000000000000000000000090565b612f706001600160a01b0384161515610198612c71565b612f876001600160a01b0383161515610199612c71565b612f92838383613a0a565b6001600160a01b038316600090815260208190526040902054612fb890826101a0613b07565b6001600160a01b038085166000908152602081905260408082209390935590841681522054612fe790826130f8565b6001600160a01b0380841660008181526020819052604090819020939093559151908516907fddf252ad1be2c89b69c2b068fc378daa952ba7f163c4a11628f55a4df523b3ef90612ee7908590614d8a565b60006130686000357fffffffff0000000000000000000000000000000000000000000000000000000016612835565b9050611d9e6130778233613b1d565b610191612c71565b61309461308a613c06565b82101560cb612c71565b6130a961309f613c0f565b82111560ca612c71565b6008546130ba908260c0603f612c1b565b6008556040517fa9ba3ffe0b6c366b81232caab38605a0699ad5398d6cce76f91ee809e322dafc906130ed908390614d8a565b60405180910390a150565b6000828201612c6a8482101583612c71565b801561312a5761312561311b612f11565b4210610193612c71565b61313f565b61313f613135612f35565b42106101a9612c71565b600780547fffffffffffffffffffffffffffffffffffffffffffffffffffffffffffffff00168215151790556040517f9e3a5e37224532dea67b89face185703738a228a6e8a23dee546960180d3be64906130ed908390614d67565b60006131a5611da1565b905060006131b16128d1565b6001600160a01b031663b05f8e4883866040518363ffffffff1660e01b81526004016131de929190614e2b565b60806040518083038186803b1580156131f657600080fd5b505afa15801561320a573d6000803e3d6000fd5b505050506040513d601f19601f8201168201806040525081019061322e9190614afc565b6040517f18e736d40000000000000000000000000000000000000000000000000000000081529094506001600160a01b03851693506318e736d4925061327b915085908790600401614e12565b600060405180830381600087803b15801561329557600080fd5b505af1158015612a8e573d6000803e3d6000fd5b6008546132b8908260ff613c1b565b6008556040517feff3d4d215b42bf0960be9c6d5e05c22cba4df6627a3a523e2acee733b5854c8906132eb908390614d67565b60405180910390a180611d9e57611d9e611e12565b6001901b6000190191901c1690565b600390565b611e348183146067612c71565b60006060600061333084613c42565b9050600181600181111561334057fe5b1461335557613350610163613a56565b613365565b61335f8885613c58565b90935091505b509850989650505050505050565b81518151613382908290613314565b60005b81811015612e6e576133bd84828151811061339c57fe5b60200260200101518483815181106133b057fe5b6020026020010151613ab6565b8482815181106133c957fe5b6020908102919091010152600101613385565b3330146134cb576000306001600160a01b0316600036604051613400929190614c3f565b6000604051808303816000865af19150503d806000811461343d576040519150601f19603f3d011682016040523d82523d6000602084013e613442565b606091505b50509050806000811461345157fe5b60046000803e6000517fffffffff00000000000000000000000000000000000000000000000000000000167f43adbafb0000000000000000000000000000000000000000000000000000000081146134ad573d6000803e3d6000fd5b506020600460003e604060205260243d03602460403e601c3d016000f35b6134d36135e1565b60606134dd612c92565b90506134e98782612e05565b600060606135018c8c8c8c8c8c898d8d63ffffffff16565b9150915061351381848663ffffffff16565b8051601f1982018390526343adbafb7fffffffffffffffffffffffffffffffffffffffffffffffffffffffffffffffc08301526020027fffffffffffffffffffffffffffffffffffffffffffffffffffffffffffffffdc82016044820181fd5b6000808251118015611c96575060ff8016828060200190518101906135989190614b3c565b60ff161492915050565b611e126135ad6129c6565b6101b6612c71565b6000606060006135c484613d24565b905060606135d3878784613d3a565b919791965090945050505050565b611e12612c7f565b611e348282613de9565b60006060613602610163613a56565b9850989650505050505050565b8151815161361e908290613314565b60005b81811015612e6e5761365984828151811061363857fe5b602002602001015184838151811061364c57fe5b6020026020010151613eb5565b84828151811061366557fe5b6020908102919091010152600101613621565b60006136826128d1565b6001600160a01b031663aaabadc56040518163ffffffff1660e01b815260040160206040518083038186803b1580156136ba57600080fd5b505afa1580156136ce573d6000803e3d6000fd5b505050506040513d601f19601f82011682018060405250810190611cd591906146ab565b1c60019081161490565b60408051604180825260808201909252606091829190602082018180368337019050509050836020820152826040820152846060820153949350505050565b600061374685613f03565b905061375c613756878387613f1f565b83612c71565b61376b428410156101b8612c71565b5050506001600160a01b039092166000908152600660205260409020805460010190555050565b6000606061379e612c7f565b7f00000000000000000000000000000000000000000000000000000000000000006137d96001600160a01b0388811690831614610156612c71565b6137f9816001600160a01b0316876001600160a01b031614610156612c71565b6dffffffffffffffffffffffffffff606061381386613fce565b9050613872817f00000000000000000000000000000000000000000000000000000000000000008151811061384457fe5b60200260200101517f0000000000000000000000000000000000000000000000000000000000000000612e74565b817f00000000000000000000000000000000000000000000000000000000000000008151811061389e57fe5b602090810291909101015290999098509650505050505050565b620f424090565b611e348282613fe4565b6001600160a01b03918216600090815260016020908152604080832093909416825291909152205490565b60007f00000000000000000000000000000000000000000000000000000000000000007f00000000000000000000000000000000000000000000000000000000000000007f0000000000000000000000000000000000000000000000000000000000000000613961614077565b30604051602001613976959493929190614de6565b60405160208183030381529060405280519060200120905090565b6002815110156139a057611d9e565b6000816000815181106139af57fe5b602002602001015190506000600190505b8251811015613a0a5760008382815181106139d757fe5b60200260200101519050613a00816001600160a01b0316846001600160a01b0316106065612c71565b91506001016139c0565b505050565b613a1e61010083106064612c71565b613a4760018210158015613a405750613a3c60ff8461010003612c59565b8211155b6064612c71565b613a0a83821c156101b4612c71565b611d9e817f42414c000000000000000000000000000000000000000000000000000000000061407b565b6000828202613aa4841580613a9d575083858381613a9a57fe5b04145b6003612c71565b670de0b6b3a764000090049392505050565b6000613ac58215156004612c71565b82613ad257506000611c96565b670de0b6b3a764000083810290613af590858381613aec57fe5b04146005612c71565b828181613afe57fe5b04915050611c96565b6000613b168484111583612c71565b5050900390565b600073ba1ba1ba1ba1ba1ba1ba1ba1ba1ba1ba1ba1ba1b613b3c6128ad565b6001600160a01b031614158015613b575750613b57836140dc565b15613b7f57613b646128ad565b6001600160a01b0316336001600160a01b0316149050611c96565b613b87613678565b6001600160a01b0316639be2a8848484306040518463ffffffff1660e01b8152600401613bb693929190614d93565b60206040518083038186803b158015613bce57600080fd5b505afa158015613be2573d6000803e3d6000fd5b505050506040513d601f19601f82011682018060405250810190612bf1919061457b565b64e8d4a5100090565b67016345785d8a000090565b60006001821b1984168284613c31576000613c34565b60015b60ff16901b17949350505050565b600081806020019051810190611c969190614715565b600060606000613c678461414a565b90506060855167ffffffffffffffff81118015613c8357600080fd5b50604051908082528060200260200182016040528015613cad578160200160208202803683370190505b50905060005b8651811015613d18577f00000000000000000000000000000000000000000000000000000000000000008114613d1057868181518110613cef57fe5b6020026020010151828281518110613d0357fe5b6020026020010181815250505b600101613cb3565b50909590945092505050565b600081806020019051810190612c6a9190614b58565b60606000613d488385613ab6565b9050845167ffffffffffffffff81118015613d6257600080fd5b50604051908082528060200260200182016040528015613d8c578160200160208202803683370190505b50915060005b8551811015613de057613dc182878381518110613dab57fe5b6020026020010151613a8090919063ffffffff16565b838281518110613dcd57fe5b6020908102919091010152600101613d92565b50509392505050565b613e006001600160a01b038316151561019b612c71565b613e0c82600083613a0a565b6001600160a01b038216600090815260208190526040902054613e3290826101b2613b07565b6001600160a01b038316600090815260208190526040902055613e65613e6082613e5a611c9c565b90614160565b61416e565b60006001600160a01b0316826001600160a01b03167fddf252ad1be2c89b69c2b068fc378daa952ba7f163c4a11628f55a4df523b3ef83604051613ea99190614d8a565b60405180910390a35050565b6000613ec48215156004612c71565b82613ed157506000611c96565b670de0b6b3a764000083810290613eeb90858381613aec57fe5b826001820381613ef757fe5b04600101915050611c96565b6000613f0d6138f4565b8260405160200161286a929190614c4f565b6000613f3182516041146101b9612c71565b60208281015160408085015160608601518251600080825295019283905292939092811a91600190613f6a908990859088908890614e42565b6020604051602081039080840390855afa158015613f8c573d6000803e3d6000fd5b5050604051601f1901519150506001600160a01b03811615801590613fc25750876001600160a01b0316816001600160a01b0316145b98975050505050505050565b606081806020019051810190612c6a919061475e565b613ff060008383613a0a565b614005613e6082613fff611c9c565b906130f8565b6001600160a01b03821660009081526020819052604090205461402890826130f8565b6001600160a01b0383166000818152602081905260408082209390935591519091907fddf252ad1be2c89b69c2b068fc378daa952ba7f163c4a11628f55a4df523b3ef90613ea9908590614d8a565b4690565b62461bcd60e51b600090815260206004526007602452600a808404818106603090810160081b958390069590950190829004918206850160101b01602363ffffff0060e086901c160160181b0190930160c81b60445260e882901c90606490fd5b60006141077f38e9922e00000000000000000000000000000000000000000000000000000000612835565b82148061413b57506141387f50dd6ed900000000000000000000000000000000000000000000000000000000612835565b82145b80611c965750611c9682614173565b600081806020019051810190612c6a9190614731565b6000612c6a83836001613b07565b600255565b50600090565b604080518082019091526000808252602082015290565b6040805160e081018252600080825260208201819052918101829052606081018290526080810182905260a0810182905260c081019190915290565b60408051610120810190915280600081526000602082018190526040820181905260608083018290526080830182905260a0830182905260c0830182905260e08301919091526101009091015290565b8035611c96816151a4565b8051611c96816151a4565b600082601f830112614242578081fd5b813561425561425082615134565b61510d565b81815291506020808301908481018184028601820187101561427657600080fd5b60005b8481101561429557813584529282019290820190600101614279565b505050505092915050565b600082601f8301126142b0578081fd5b81516142be61425082615134565b8181529150602080830190848101818402860182018710156142df57600080fd5b60005b84811015614295578151845292820192908201906001016142e2565b600082601f83011261430e578081fd5b813561431c61425082615154565b915080825283602082850101111561433357600080fd5b8060208401602084013760009082016020015292915050565b8051611c96816151b9565b805160058110611c9657600080fd5b805160038110611c9657600080fd5b8035611c96816151b9565b600060208284031215614391578081fd5b8135612c6a816151a4565b600080604083850312156143ae578081fd5b82356143b9816151a4565b915060208301356143c9816151a4565b809150509250929050565b6000806000606084860312156143e8578081fd5b83356143f3816151a4565b92506020840135614403816151a4565b929592945050506040919091013590565b600080600080600080600060e0888a03121561442e578485fd5b8735614439816151a4565b96506020880135614449816151a4565b955060408801359450606088013593506080880135614467816151c6565b9699959850939692959460a0840135945060c09093013592915050565b60008060408385031215614496578182fd5b82356144a1816151a4565b946020939093013593505050565b6000806000606084860312156144c3578081fd5b835167ffffffffffffffff808211156144da578283fd5b818601915086601f8301126144ed578283fd5b81516144fb61425082615134565b80828252602080830192508086018b82838702890101111561451b578788fd5b8796505b84871015614546578051614532816151a4565b84526001969096019592810192810161451f565b50890151909750935050508082111561455d578283fd5b5061456a868287016142a0565b925050604084015190509250925092565b60006020828403121561458c578081fd5b81518015158114612c6a578182fd5b600080600080600080600060e0888a0312156145b5578081fd5b8735965060208801356145c7816151a4565b955060408801356145d7816151a4565b9450606088013567ffffffffffffffff808211156145f3578283fd5b6145ff8b838c01614232565b955060808a0135945060a08a0135935060c08a0135915080821115614622578283fd5b5061462f8a828b016142fe565b91505092959891949750929550565b600080600060608486031215614652578081fd5b8351925060208401519150604084015190509250925092565b60006020828403121561467c578081fd5b81357fffffffff0000000000000000000000000000000000000000000000000000000081168114612c6a578182fd5b6000602082840312156146bc578081fd5b8151612c6a816151a4565b600080604083850312156146d9578182fd5b82356146e4816151a4565b9150602083013567ffffffffffffffff8111156146ff578182fd5b61470b858286016142fe565b9150509250929050565b600060208284031215614726578081fd5b8151612c6a816151b9565b60008060408385031215614743578182fd5b825161474e816151b9565b6020939093015192949293505050565b60008060408385031215614770578182fd5b82516004811061477e578283fd5b602084015190925067ffffffffffffffff81111561479a578182fd5b61470b858286016142a0565b60008060008060008060c087890312156147be578384fd5b86356147c9816151b9565b95506020870135945060408701359350606087013567ffffffffffffffff8111156147f2578283fd5b6147fe89828a016142fe565b9350506080870135915060a087013590509295509295509295565b6000806040838503121561482b578182fd5b825167ffffffffffffffff811115614841578283fd5b8301601f81018513614851578283fd5b805161485f61425082615154565b818152866020838501011115614873578485fd5b614884826020830160208601615178565b60209590950151949694955050505050565b600080600080608085870312156148ab578182fd5b843567ffffffffffffffff808211156148c2578384fd5b818701915061012080838a0312156148d8578485fd5b6148e18161510d565b90506148ed8984614375565b81526148fc896020850161421c565b602082015261490e896040850161421c565b6040820152606083013560608201526080830135608082015260a083013560a082015261493e8960c0850161421c565b60c08201526149508960e0850161421c565b60e08201526101008084013583811115614968578687fd5b6149748b8287016142fe565b828401525050809650506020870135915080821115614991578384fd5b5061499e87828801614232565b949794965050505060408301359260600135919050565b60006101408083850312156149c8578182fd5b6149d18161510d565b90506149dd848461434c565b81526149ec8460208501614227565b60208201526149fe8460408501614227565b6040820152614a108460608501614366565b6060820152614a22846080850161434c565b6080820152614a348460a08501614357565b60a082015260c083015160c0820152614a508460e08501614227565b60e08201526101008381015190820152610120928301519281019290925250919050565b600060e08284031215614a85578081fd5b614a8f60e061510d565b825181526020830151614aa1816151a4565b8060208301525060408301516040820152606083015160608201526080830151608082015260a083015160a082015260c083015160c08201528091505092915050565b600060208284031215614af5578081fd5b5035919050565b60008060008060808587031215614b11578182fd5b8451935060208501519250604085015191506060850151614b31816151a4565b939692955090935050565b600060208284031215614b4d578081fd5b8151612c6a816151c6565b60008060408385031215614b6a578182fd5b825161474e816151c6565b6001600160a01b03169052565b6000815180845260208085019450808401835b83811015614bb157815187529582019590820190600101614b95565b509495945050505050565b60008151808452614bd4816020860160208601615178565b601f01601f19169290920160200192915050565b60028110614bf257fe5b9052565b805160038110614c0257fe5b8252602090810151910152565b9182527fffffffff0000000000000000000000000000000000000000000000000000000016602082015260240190565b6000828483379101908152919050565b7f190100000000000000000000000000000000000000000000000000000000000081526002810192909252602282015260420190565b6001600160a01b0391909116815260200190565b6001600160a01b039788168152958716602087015260408601949094526060850192909252909316608083015260a082019290925260c081019190915260e00190565b6001600160a01b03958616815293909416602084015260408301919091526060820152608081019190915260a00190565b6001600160a01b03929092168252602082015260400190565b600060208252612c6a6020830184614b82565b600060408252614d4c6040830185614b82565b8281036020840152614d5e8185614b82565b95945050505050565b901515815260200190565b92151583526020830191909152604082015260600190565b90815260200190565b9283526001600160a01b03918216602084015216604082015260600190565b9586526001600160a01b0394851660208701529290931660408501526060840152608083019190915260a082015260c00190565b9485526020850193909352604084019190915260608301526001600160a01b0316608082015260a00190565b600083825260406020830152612c3b6040830184614bbc565b9182526001600160a01b0316602082015260400190565b93845260ff9290921660208401526040830152606082015260800190565b600060208252612c6a6020830184614bbc565b60208082526016908201527f496e76616c6964207377617070656420746f6b656e7300000000000000000000604082015260600190565b60208082526018908201527f4f726465722062656c6f77206d696e696d756d2073697a650000000000000000604082015260600190565b6020808252601d908201527f496e73756666696369656e742063757272656e63792062616c616e6365000000604082015260600190565b60208082526016908201527f496e73756666696369656e74206c697175696469747900000000000000000000604082015260600190565b6020808252600c908201527f496e76616c696420737761700000000000000000000000000000000000000000604082015260600190565b6020808252601d908201527f496e73756666696369656e742073656375726974792062616c616e6365000000604082015260600190565b600060808252614fd1608083018651614be8565b6020850151614fe360a0840182614b75565b506040850151614ff660c0840182614b75565b50606085015160e08301526080850151610100818185015260a08701519150610120828186015260c08801519250615032610140860184614b75565b60e08801519250615047610160860184614b75565b8188015192508061018086015250506150646101a0840182614bbc565b9150506150746020830185614bf6565b612c3b6060830184614be8565b6000610100820190508351825260208401516001600160a01b03808216602085015260408601516040850152606086015160608501526080860151608085015260a086015160a085015260c086015160c085015280851660e085015250509392505050565b600083825260406020830152612c3b6040830184614b82565b60ff91909116815260200190565b60405181810167ffffffffffffffff8111828210171561512c57600080fd5b604052919050565b600067ffffffffffffffff82111561514a578081fd5b5060209081020190565b600067ffffffffffffffff82111561516a578081fd5b50601f01601f191660200190565b60005b8381101561519357818101518382015260200161517b565b83811115612e6e5750506000910152565b6001600160a01b0381168114611d9e57600080fd5b60028110611d9e57600080fd5b60ff81168114611d9e57600080fdfea2646970667358221220df4a1de67fac46aceedcfc220af3ae367effe7a979dfb490e2e48378a958d31b64736f6c63430007010033608060405260006001553480156200001657600080fd5b5060405162003daa38038062003daa833981016040819052620000399162000106565b620000443362000098565b600980546001600160a01b039586166001600160a01b03199182161790915560078054948616948216949094179093556008805492851692841692909217909155600a805491909316911617905562000166565b600080546001600160a01b038381166001600160a01b0319831681178455604051919092169283917f8be0079c531659141344cd1fd0a4f28419497f9722a3daafe3b4186f6b6457e09190a35050565b80516001600160a01b03811681146200010057600080fd5b92915050565b600080600080608085870312156200011c578384fd5b620001288686620000e8565b9350620001398660208701620000e8565b92506200014a8660408701620000e8565b91506200015b8660608701620000e8565b905092959194509250565b613c3480620001766000396000f3fe608060405234801561001057600080fd5b50600436106101005760003560e01c80637489ec2311610097578063ca142f7511610066578063ca142f75146101f5578063d729cf6c14610215578063e43372e914610228578063f2fde38b1461023057610100565b80637489ec23146101b457806381b5da1d146101c75780638da5cb5b146101da578063af18cfd8146101e257610100565b80635778472a116100d35780635778472a1461016257806365fe757e146101825780636945c1fd146101a4578063715018a6146101ac57610100565b80630c8605be146101055780632541897f1461011a57806338fff2d01461013857806346b8b7301461014d575b600080fd5b61011861011336600461370d565b610243565b005b6101226103e8565b60405161012f9190613893565b60405180910390f35b6101406103f7565b60405161012f91906138eb565b610155610486565b60405161012f91906138a7565b610175610170366004613674565b61056e565b60405161012f9190613ab1565b610195610190366004613721565b61072a565b60405161012f939291906138f4565b610122610b2e565b610118610b3d565b6101186101c2366004613674565b610b55565b6101186101d53660046136a4565b610d66565b610122610f30565b6101186101f03660046136cf565b610f3f565b610208610203366004613649565b611338565b60405161012f9190613b5e565b610118610223366004613649565b61141e565b6101556114bd565b61011861023e36600461362d565b61151e565b600083815260026020819052604082206001015474010000000000000000000000000000000000000000900460ff169081111561027c57fe5b14156102bd576040517f08c379a00000000000000000000000000000000000000000000000000000000081526004016102b490613941565b60405180910390fd5b6002600084815260026020526040902060010154760100000000000000000000000000000000000000000000900460ff1660048111156102f957fe5b14610330576040517f08c379a00000000000000000000000000000000000000000000000000000000081526004016102b4906139e6565b6000838152600260205260409020600301546001600160a01b03163314610383576040517f08c379a00000000000000000000000000000000000000000000000000000000081526004016102b4906139af565b60008381526002602081905260409091206004810184905580820183905560019081015490917401000000000000000000000000000000000000000090910460ff16908111156103cf57fe5b14156103e3576103e083600161154d565b50505b505050565b6007546001600160a01b031690565b600080600a60009054906101000a90046001600160a01b03166001600160a01b03166338fff2d06040518163ffffffff1660e01b815260040160206040518083038186803b15801561044857600080fd5b505afa15801561045c573d6000803e3d6000fd5b505050506040513d601f19601f82011682018060405250810190610480919061368c565b91505090565b600354606090819067ffffffffffffffff811180156104a457600080fd5b506040519080825280602002602001820160405280156104ce578160200160208202803683370190505b5090506000805b60035481101561056657336001600160a01b031660026000600384815481106104fa57fe5b600091825260208083209091015483528201929092526040019020600301546001600160a01b0316141561055e576003818154811061053557fe5b906000526020600020015483838151811061054c57fe5b60209081029190910101526001909101905b6001016104d5565b509091505090565b61057661345d565b61057e610f30565b6001600160a01b0316336001600160a01b031614806105a757506009546001600160a01b031633145b806105cb57506000828152600260205260409020600301546001600160a01b031633145b610601576040517f08c379a00000000000000000000000000000000000000000000000000000000081526004016102b49061390a565b60008281526002602052604090819020815161014081019092528054829060ff16600181111561062d57fe5b600181111561063857fe5b8152815461010090046001600160a01b0390811660208301526001830154908116604083015260609091019074010000000000000000000000000000000000000000900460ff16600281111561068a57fe5b600281111561069557fe5b81526020016001820160159054906101000a900460ff1660018111156106b757fe5b60018111156106c257fe5b81526020016001820160169054906101000a900460ff1660048111156106e457fe5b60048111156106ef57fe5b81526002820154602082015260038201546001600160a01b031660408201526004820154606082015260059091015460809091015292915050565b6000808061074c3361073a610f30565b6001600160a01b0316146101aa6119c1565b60008551600281111561075b57fe5b1480610773575060018551600281111561077157fe5b145b61077c57600080fd5b600084600181111561078a57fe5b14806107a15750600184600181111561079f57fe5b145b6107aa57600080fd5b6001544214156107c15760018054810190556107c6565b426001555b60008660c001516001546040516020016107e192919061385e565b60405160208183030381529060405280519060200120905061080161345d565b6040518061014001604052808960000151600181111561081d57fe5b815260200189602001516001600160a01b0316815260200189604001516001600160a01b031681526020018860000151600281111561085857fe5b815260200187600181111561086957fe5b8152600260208083018290526060808d015160408086019190915260c08e01516001600160a01b0316918501919091528b820151608085015260a090930186905260008681529190522081518154929350839282907fffffffffffffffffffffffffffffffffffffffffffffffffffffffffffffff0016600183818111156108ed57fe5b0217905550602082015181547fffffffffffffffffffffff0000000000000000000000000000000000000000ff166101006001600160a01b039283160217825560408301516001830180547fffffffffffffffffffffffff0000000000000000000000000000000000000000169190921617808255606084015191907fffffffffffffffffffffff00ffffffffffffffffffffffffffffffffffffffff16740100000000000000000000000000000000000000008360028111156109ad57fe5b021790555060808201518160010160156101000a81548160ff021916908360018111156109d657fe5b021790555060a08201516001820180547fffffffffffffffffff00ffffffffffffffffffffffffffffffffffffffffffff16760100000000000000000000000000000000000000000000836004811115610a2c57fe5b021790555060c0820151600282015560e08201516003820180547fffffffffffffffffffffffff0000000000000000000000000000000000000000166001600160a01b03909216919091179055610100820151600482015561012090910151600590910155600087516002811115610aa057fe5b1415610abe57610ab18160006119d3565b9450945094505050610b25565b600187516002811115610acd57fe5b1415610b2257600380546000848152600460205260408120829055600180830184559290527fc2575a0e9e593c00f959f8c92f12db2869c3395a3b0502d05e2516446f71f85b01839055610ab19082906119d3565b50505b93509350939050565b6008546001600160a01b031690565b610b493361073a610f30565b610b536000612c5b565b565b600081815260026020819052604082206001015474010000000000000000000000000000000000000000900460ff1690811115610b8e57fe5b1415610bc6576040517f08c379a00000000000000000000000000000000000000000000000000000000081526004016102b490613a54565b6002600082815260026020526040902060010154760100000000000000000000000000000000000000000000900460ff166004811115610c0257fe5b14610c39576040517f08c379a00000000000000000000000000000000000000000000000000000000081526004016102b4906139e6565b6000818152600260205260409020600301546001600160a01b03163314610c8c576040517f08c379a00000000000000000000000000000000000000000000000000000000081526004016102b4906139af565b60035415610cbe57600081815260046020526040902054600380549091908110610cb257fe5b60009182526020822001555b6000908152600460208181526040808420849055600291829052832080547fffffffffffffffffffffff0000000000000000000000000000000000000000001681556001810180547fffffffffffffffffff00000000000000000000000000000000000000000000001690559081018390556003810180547fffffffffffffffffffffffff000000000000000000000000000000000000000016905590810182905560050155565b6009546001600160a01b0316331480610d975750610d82610f30565b6001600160a01b0316336001600160a01b0316145b610dcd576040517f08c379a00000000000000000000000000000000000000000000000000000000081526004016102b490613978565b600092835260026020818152604080862080547fffffffffffffffffffffff0000000000000000000000000000000000000000009081168255600180830180547fffffffffffffffffff00000000000000000000000000000000000000000000009081169091558387018a9055600380850180547fffffffffffffffffffffffff0000000000000000000000000000000000000000908116825560048088018e905560059788018e90559b8d52878d208054909616865585850180549094169093558489018c9055848201805484168155858c018d90559486018c9055546001600160a01b039081168c52858852868c208a8d528852868c208c8155808501805485169055808a018d90558083018d9055808c018d90558087018d905560069081018d90559454168b52848752858b20988b5297909552928820888155928301805490941690935592810186905592830185905592820184905581018390550155565b6000546001600160a01b031690565b6009546001600160a01b0316331480610f705750610f5b610f30565b6001600160a01b0316336001600160a01b0316145b610fa6576040517f08c379a00000000000000000000000000000000000000000000000000000000081526004016102b490613978565b6000826001811115610fb457fe5b1480610fcb57506001826001811115610fc957fe5b145b610fd457600080fd5b6000848152600260208190526040909120808201805486019055600190810180547fffffffffffffffffff00ffffffffffffffffffffffffffffffffffffffffffff16760200000000000000000000000000000000000000000000179081905590917401000000000000000000000000000000000000000090910460ff169081111561105c57fe5b14156110b457600380546000868152600460205260408120829055600180830184559290527fc2575a0e9e593c00f959f8c92f12db2869c3395a3b0502d05e2516446f71f85b018590556110b190859061154d565b50505b600181016110c06134b4565b5060008581526002602081815260408084206003908101546001600160a01b03908116865260058085528387208988528552838720845160e08101865281548082526001830154909416968101969096529586015493850193909352908401546060840152600484015460808401529083015460a083015260069092015460c082015291908714611152578151611154565b865b905060008783604001511461116d57826040015161116f565b875b90506111796134b4565b6040518060e001604052808481526020016002600086815260200190815260200160002060030160009054906101000a90046001600160a01b03166001600160a01b03168152602001838152602001856060015181526020018681526020018560a0015181526020018560c0015181525090508060056000600260008d815260200190815260200160002060030160009054906101000a90046001600160a01b03166001600160a01b03166001600160a01b0316815260200190815260200160002060008781526020019081526020016000206000820151816000015560208201518160010160006101000a8154816001600160a01b0302191690836001600160a01b0316021790555060408201518160020155606082015181600301556080820151816004015560a0820151816005015560c0820151816006015590505060066000600260008c815260200190815260200160002060030160009054906101000a90046001600160a01b03166001600160a01b03166001600160a01b03168152602001908152602001600020859080600181540180825580915050600190039060005260206000200160009091909190915055505050505050505050565b6113406134b4565b611348610f30565b6001600160a01b0316336001600160a01b0316148061136f5750336001600160a01b038416145b6113a5576040517f08c379a00000000000000000000000000000000000000000000000000000000081526004016102b490613a1d565b506001600160a01b038083166000908152600560208181526040808420868552825292839020835160e08101855281548152600182015490951691850191909152600281015492840192909252600382015460608401526004820154608084015281015460a08301526006015460c08201525b92915050565b61142a3361073a610f30565b60005b6001600160a01b0383166000908152600660205260409020548110156103e3576001600160a01b038316600090815260066020526040902080548391908390811061147457fe5b906000526020600020015414156114b5576001600160a01b03831660009081526006602052604090208054829081106114a957fe5b60009182526020822001555b60010161142d565b3360009081526006602090815260409182902080548351818402810184019094528084526060939283018282801561151457602002820191906000526020600020905b815481526020019060010190808311611500575b5050505050905090565b61152a3361073a610f30565b6115416001600160a01b03821615156101ab6119c1565b61154a81612c5b565b50565b600060606000606060038054905067ffffffffffffffff8111801561157157600080fd5b5060405190808252806020026020018201604052801561159b578160200160208202803683370190505b5090506000805b6003548110156119b457600381815481106115b957fe5b6000918252602090912001546115ce576119ac565b600060026000600384815481106115e157fe5b9060005260206000200154815260200190815260200160002060010160159054906101000a900460ff16600181111561161657fe5b14801561165c5750600160008981526002602052604090206001908101547501000000000000000000000000000000000000000000900460ff169081111561165a57fe5b145b80156116c457506002600089815260200190815260200160002060040154600260006003848154811061168b57fe5b90600052602060002001548152602001908152602001600020600401541015806116c45750600088815260026020526040902060040154155b806117bf5750600160026000600384815481106116dd57fe5b9060005260206000200154815260200190815260200160002060010160159054906101000a900460ff16600181111561171257fe5b14801561175757506000808981526002602052604090206001908101547501000000000000000000000000000000000000000000900460ff169081111561175557fe5b145b80156117bf57506002600089815260200190815260200160002060040154600260006003848154811061178657fe5b90600052602060002001548152602001908152602001600020600401541115806117bf5750600088815260026020526040902060040154155b156119ac57600381815481106117d157fe5b90600052602060002001548383815181106117e857fe5b60209081029190910181019190915260075460008a8152600290925260409091205461010090046001600160a01b039081169116148015611843575060008881526002602052604081205460ff16600181111561184157fe5b145b8061189457506008546000898152600260205260409020600101546001600160a01b0390811691161480156118945750600160008981526002602052604090205460ff16600181111561189257fe5b145b156118d7576118d08460026000600385815481106118ae57fe5b9060005260206000200154815260200190815260200160002060020154612cc3565b9350611950565b61194d8461194860026000600386815481106118ef57fe5b9060005260206000200154815260200190815260200160002060020154600260006003878154811061191d57fe5b9060005260206000200154815260200190815260200160002060040154612cdc90919063ffffffff16565b612cc3565b93505b600087600281111561195e57fe5b141580156119835750876003828154811061197557fe5b906000526020600020015414155b156119a5578783836001018151811061199857fe5b6020026020010181815250505b6001909101905b6001016115a2565b5091969095509350505050565b816119cf576119cf81612d12565b5050565b60008060008060008080600090506000806000606060038054905067ffffffffffffffff81118015611a0457600080fd5b50604051908082528060200260200182016040528015611a2e578160200160208202803683370190505b509050611a408d61012001518d61154d565b909250905060008c6002811115611a5357fe5b1415611a86578c60c00151821015611a81578c61012001516000809a509a509a505050505050505050612c54565b611abb565b60018c6002811115611a9457fe5b1415611abb5781611abb578c61012001516000809a509a509a505050505050505050612c54565b600091505b8051821015612c405760c08d0151611ad757612c40565b8c6101200151818381518110611ae957fe5b602002602001015114158015611b4257508c60e001516001600160a01b031660026000838581518110611b1857fe5b6020908102919091018101518252810191909152604001600020600301546001600160a01b031614155b8015611b905750600060026000838581518110611b5b57fe5b6020026020010151815260200190815260200160002060010160169054906101000a900460ff166004811115611b8d57fe5b14155b15611dc05760026000828481518110611ba557fe5b60200260200101518152602001908152602001600020600401546000148015611bd157506101008d0151155b15611bdb57612c35565b600060026000838581518110611bed57fe5b6020026020010151815260200190815260200160002060010160159054906101000a900460ff166001811115611c1f57fe5b148015611c3b575060018d608001516001811115611c3957fe5b145b15611cd0578c610100015160026000838581518110611c5657fe5b6020026020010151815260200190815260200160002060040154101580611c8057506101008d0151155b15611ccb5760026000828481518110611c9557fe5b60200260200101518152602001908152602001600020600401549650808281518110611cbd57fe5b602002602001015197508194505b611dc0565b600160026000838581518110611ce257fe5b6020026020010151815260200190815260200160002060010160159054906101000a900460ff166001811115611d1457fe5b148015611d30575060008d608001516001811115611d2e57fe5b145b15611dc0578c610100015160026000838581518110611d4b57fe5b6020026020010151815260200190815260200160002060040154111580611d7557506101008d0151155b15611dc05760026000828481518110611d8a57fe5b60200260200101518152602001908152602001600020600401549650808281518110611db257fe5b602002602001015195508194505b60018d608001516001811115611dd257fe5b14156125455787156125405760075460208e01516001600160a01b039081169116148015611e0c575060008d516001811115611e0a57fe5b145b156121a45760085460008981526002602052604090205461010090046001600160a01b039081169116148015611e5c575060008881526002602052604081205460ff166001811115611e5a57fe5b145b15611e855760008881526002602081905260409091200154611e7e9088612d3c565b9350611eeb565b6007546000898152600260205260409020600101546001600160a01b039081169116148015611ed05750600160008981526002602052604090205460ff166001811115611ece57fe5b145b15611eeb576000888152600260208190526040909120015493505b8c60c0015184106121165760c08d01519350611f078488612cdc565b60085460008a8152600260205260409020549194506001600160a01b0390811661010090920416148015611f575750600160008981526002602052604090205460ff166001811115611f5557fe5b145b611f7d5760008881526002602081905260409091200154611f789084612d8d565b611fa1565b611fa1600260008a8152602001908152602001600020600201548e60c00151612d8d565b600260008a81526020019081526020016000206002018190555060008d60c001818152505060026000898152602001908152602001600020600201546000141561202a57600088815260026020526040902060010180547fffffffffffffffffff00ffffffffffffffffffffffffffffffffffffffffffff16905561202585612da3565b61207b565b600088815260026020526040902060010180547fffffffffffffffffff00ffffffffffffffffffffffffffffffffffffffffffff167601000000000000000000000000000000000000000000001790555b600060a08e01526101208d01516120959089898787612dbe565b6003549095506120c6907fffffffffffffffffffffffffffffffffffffffffffffffffffffffffffffffff01612da3565b60008d6060015160028111156120d857fe5b14156121115760006120f58e61012001518f60e0015160016130ca565b6101208f01519c50959a50949850612c54975050505050505050565b61219f565b831561219f576121268488612cdc565b92506121368d60c0015185612d8d565b60c08e01526000888152600260208190526040822090810191909155600190810180547fffffffffffffffffff00ffffffffffffffffffffffffffffffffffffffffffff16905560a08e01526101208d01516121959089898787612dbe565b5061219f85612da3565b612540565b60085460408e01516001600160a01b0390811691161480156121d2575060018d5160018111156121d057fe5b145b15612540576007546000898152600260205260409020600101546001600160a01b0390811691161480156122225750600160008981526002602052604090205460ff16600181111561222057fe5b145b1561224b57600088815260026020819052604090912001546122449088612cdc565b92506122b1565b60085460008981526002602052604090205461010090046001600160a01b039081169116148015612296575060008881526002602052604081205460ff16600181111561229457fe5b145b156122b1576000888152600260208190526040909120015492505b8c60c0015183106124b75760c08d015192506122cd8388612d3c565b60075460008a8152600260205260409020600101549195506001600160a01b039182169116148015612319575060008881526002602052604081205460ff16600181111561231757fe5b145b61233f576000888152600260208190526040909120015461233a9085612d8d565b612363565b612363600260008a8152602001908152602001600020600201548e60c00151612d8d565b600260008a81526020019081526020016000206002018190555060008d60c00181815250506002600089815260200190815260200160002060020154600014156123ec57600088815260026020526040902060010180547fffffffffffffffffff00ffffffffffffffffffffffffffffffffffffffffffff1690556123e785612da3565b61243d565b600088815260026020526040902060010180547fffffffffffffffffff00ffffffffffffffffffffffffffffffffffffffffffff167601000000000000000000000000000000000000000000001790555b600060a08e01526101208d01516124579089898787612dbe565b600354909550612488907fffffffffffffffffffffffffffffffffffffffffffffffffffffffffffffffff01612da3565b60008d60600151600281111561249a57fe5b141561219f5760006120f58e61012001518f60e0015160006130ca565b8215612540576124c78388612d3c565b93506124d78d60c0015184612d8d565b60c08e01526000888152600260208190526040822090810191909155600190810180547fffffffffffffffffff00ffffffffffffffffffffffffffffffffffffffffffff16905560a08e01526101208d01516125369089898787612dbe565b5061254085612da3565b612c35565b60008d60800151600181111561255757fe5b1415612c35578515612c355760085460208e01516001600160a01b039081169116148015612591575060008d51600181111561258f57fe5b145b156128975760075460008781526002602052604090205461010090046001600160a01b0390811691161480156125e1575060008681526002602052604081205460ff1660018111156125df57fe5b145b1561260a57600086815260026020819052604090912001546126039088612cdc565b9250612670565b6008546000878152600260205260409020600101546001600160a01b0390811691161480156126555750600160008781526002602052604090205460ff16600181111561265357fe5b145b15612670576000868152600260208190526040909120015492505b8c60c0015183106128185760c08d0151925061268c8388612d3c565b6008546000888152600260205260409020600101549195506001600160a01b0391821691161480156126da5750600160008781526002602052604090205460ff1660018111156126d857fe5b145b61270057600086815260026020819052604090912001546126fb9085612d8d565b612724565b61272460026000888152602001908152602001600020600201548e60c00151612d8d565b600260008881526020019081526020016000206002018190555060008d60c00181815250506002600087815260200190815260200160002060020154600014156127ad57600086815260026020526040902060010180547fffffffffffffffffff00ffffffffffffffffffffffffffffffffffffffffffff1690556127a885612da3565b6127fe565b600086815260026020526040902060010180547fffffffffffffffffff00ffffffffffffffffffffffffffffffffffffffffffff167601000000000000000000000000000000000000000000001790555b600060a08e01526101208d01516124579087898787612dbe565b8215612540576128288388612d3c565b93506128388d60c0015184612d8d565b60c08e01526000868152600260208190526040822090810191909155600190810180547fffffffffffffffffff00ffffffffffffffffffffffffffffffffffffffffffff16905560a08e01526101208d01516125369087898787612dbe565b60075460408e01516001600160a01b0390811691161480156128c5575060018d5160018111156128c357fe5b145b15612c35576008546000878152600260205260409020600101546001600160a01b0390811691161480156129155750600160008781526002602052604090205460ff16600181111561291357fe5b145b1561293e57600086815260026020819052604090912001546129379088612d3c565b93506129a4565b60075460008781526002602052604090205461010090046001600160a01b039081169116148015612989575060008681526002602052604081205460ff16600181111561298757fe5b145b156129a4576000868152600260208190526040909120015493505b8c60c001518410612bac5760c08d015193506129c08488612cdc565b6007546000888152600260205260409020549194506001600160a01b0390811661010090920416148015612a0e575060008681526002602052604081205460ff166001811115612a0c57fe5b145b612a345760008681526002602081905260409091200154612a2f9084612d8d565b612a58565b612a5860026000888152602001908152602001600020600201548e60c00151612d8d565b600260008881526020019081526020016000206002018190555060008d60c0018181525050600260008781526020019081526020016000206002015460001415612ae157600086815260026020526040902060010180547fffffffffffffffffff00ffffffffffffffffffffffffffffffffffffffffffff169055612adc85612da3565b612b32565b600086815260026020526040902060010180547fffffffffffffffffff00ffffffffffffffffffffffffffffffffffffffffffff167601000000000000000000000000000000000000000000001790555b600060a08e01526101208d0151612b4c9087898787612dbe565b600354909550612b7d907fffffffffffffffffffffffffffffffffffffffffffffffffffffffffffffffff01612da3565b60008d606001516002811115612b8f57fe5b14156125405760006120f58e61012001518f60e0015160016130ca565b8315612c3557612bbc8488612cdc565b9250612bcc8d60c0015185612d8d565b60c08e01526000868152600260208190526040822090810191909155600190810180547fffffffffffffffffff00ffffffffffffffffffffffffffffffffffffffffffff16905560a08e01526101208d0151612c2b9087898787612dbe565b50612c3585612da3565b600190910190611ac0565b506060612c4b613289565b50505050505050505b9250925092565b600080546001600160a01b038381167fffffffffffffffffffffffff0000000000000000000000000000000000000000831681178455604051919092169283917f8be0079c531659141344cd1fd0a4f28419497f9722a3daafe3b4186f6b6457e09190a35050565b6000828201612cd584821015836119c1565b9392505050565b6000828202612d00841580612cf9575083858381612cf657fe5b04145b60036119c1565b670de0b6b3a764000090049392505050565b61154a817f42414c00000000000000000000000000000000000000000000000000000000006133e2565b6000612d4b82151560046119c1565b82612d5857506000611418565b670de0b6b3a764000083810290612d7b90858381612d7257fe5b041460056119c1565b828181612d8457fe5b04915050611418565b6000612d9d8383111560016119c1565b50900390565b60038181548110612db057fe5b600091825260208220015550565b60018054810190819055600090612dd36134b4565b6040518060e00160405280898152602001600260008b815260200190815260200160002060030160009054906101000a90046001600160a01b03166001600160a01b031681526020018881526020018781526020018381526020018681526020018581525090508060056000600260008c815260200190815260200160002060030160009054906101000a90046001600160a01b03166001600160a01b03166001600160a01b0316815260200190815260200160002060008481526020019081526020016000206000820151816000015560208201518160010160006101000a8154816001600160a01b0302191690836001600160a01b0316021790555060408201518160020155606082015181600301556080820151816004015560a0820151816005015560c082015181600601559050508060056000600260008b815260200190815260200160002060030160009054906101000a90046001600160a01b03166001600160a01b03166001600160a01b0316815260200190815260200160002060008481526020019081526020016000206000820151816000015560208201518160010160006101000a8154816001600160a01b0302191690836001600160a01b0316021790555060408201518160020155606082015181600301556080820151816004015560a0820151816005015560c0820151816006015590505060066000600260008b815260200190815260200160002060030160009054906101000a90046001600160a01b03166001600160a01b03166001600160a01b0316815260200190815260200160002082908060018154018082558091505060019003906000526020600020016000909190919091505560066000600260008a815260200190815260200160002060030160009054906101000a90046001600160a01b03166001600160a01b03166001600160a01b03168152602001908152602001600020829080600181540180825580915050600190039060005260206000200160009091909190915055819250505095945050505050565b60008060006130d76134b4565b60005b6001600160a01b038716600090815260066020526040902054811015613276576001600160a01b038716600090815260066020526040902080548290811061311e57fe5b60009182526020808320909101546001600160a01b03808b16845260058084526040808620848752855294859020855160e0810187528154808252600183015490941695810195909552600281015495850195909552600385015460608501526004850154608085015284015460a084015260069093015460c0830152955092508814156131cd576000866131b7578260a001516131bd565b8260c001515b90506131c98482612cc3565b9350505b6001600160a01b03871660009081526006602052604090208054829081106131f157fe5b600091825260208083209091018290556001600160a01b038916825260058082526040808420888552909252908220828155600180820180547fffffffffffffffffffffffff000000000000000000000000000000000000000016905560028201849055600382018490556004820184905591810183905560060191909155016130da565b5061327f613289565b5095945050505050565b6000805b6003548110156132c457600381815481106132a457fe5b600091825260209091200154156132bc576001909101905b60010161328d565b50806132e95760408051600081526020810191829052516132e7916003916134f0565b505b60608167ffffffffffffffff8111801561330257600080fd5b5060405190808252806020026020018201604052801561332c578160200160208202803683370190505b5090506000805b6003548110156133c8576003818154811061334a57fe5b600091825260209091200154156133c05781600460006003848154811061336d57fe5b90600052602060002001548152602001908152602001600020819055506003818154811061339757fe5b90600052602060002001548383815181106133ae57fe5b60209081029190910101526001909101905b600101613333565b5081516133dc9060039060208501906134f0565b50505050565b7f08c379a000000000000000000000000000000000000000000000000000000000600090815260206004526007602452600a808404818106603090810160081b958390069590950190829004918206850160101b01602363ffffff0060e086901c160160181b0190930160c81b60445260e882901c90606490fd5b60408051610140810190915280600081526000602082018190526040820181905260609091019081526020016000815260200160008152600060208201819052604082018190526060820181905260809091015290565b6040805160e081018252600080825260208201819052918101829052606081018290526080810182905260a0810182905260c081019190915290565b82805482825590600052602060002090810192821561352b579160200282015b8281111561352b578251825591602001919060010190613510565b5061353792915061353b565b5090565b5b80821115613537576000815560010161353c565b803561141881613bdc565b600082601f83011261356b578081fd5b813567ffffffffffffffff811115613581578182fd5b6135b260207fffffffffffffffffffffffffffffffffffffffffffffffffffffffffffffffe0601f84011601613bb5565b91508082528360208285010111156135c957600080fd5b8060208401602084013760009082016020015292915050565b803561141881613bf1565b6000604082840312156135fe578081fd5b6136086040613bb5565b905081356003811061361957600080fd5b808252506020820135602082015292915050565b60006020828403121561363e578081fd5b8135612cd581613bdc565b6000806040838503121561365b578081fd5b823561366681613bdc565b946020939093013593505050565b600060208284031215613685578081fd5b5035919050565b60006020828403121561369d578081fd5b5051919050565b6000806000606084860312156136b8578081fd5b505081359360208301359350604090920135919050565b600080600080608085870312156136e4578081fd5b843593506020850135925060408501356136fd81613bf1565b9396929550929360600135925050565b6000806000606084860312156136b8578283fd5b600080600060808486031215613735578283fd5b833567ffffffffffffffff8082111561374c578485fd5b8186019150610120808389031215613762578586fd5b61376b81613bb5565b905061377788846135e2565b81526137868860208501613550565b60208201526137988860408501613550565b6040820152606083013560608201526080830135608082015260a083013560a08201526137c88860c08501613550565b60c08201526137da8860e08501613550565b60e082015261010080840135838111156137f2578788fd5b6137fe8a82870161355b565b82840152505080955050505061381785602086016135ed565b915061382685606086016135e2565b90509250925092565b6001600160a01b03169052565b6005811061384657fe5b9052565b6003811061384657fe5b6002811061384657fe5b60609290921b7fffffffffffffffffffffffffffffffffffffffff000000000000000000000000168252601482015260340190565b6001600160a01b0391909116815260200190565b6020808252825182820181905260009190848201906040850190845b818110156138df578351835292840192918401916001016138c3565b50909695505050505050565b90815260200190565b9283526020830191909152604082015260600190565b6020808252601d908201527f556e617574686f72697a65642061636365737320746f206f7264657273000000604082015260600190565b6020808252601f908201527f4d61726b6574206f726465722063616e206e6f74206265206368616e67656400604082015260600190565b60208082526013908201527f556e617574686f72697a65642061636365737300000000000000000000000000604082015260600190565b6020808252601b908201527f53656e646572206973206e6f74206f726465722063726561746f720000000000604082015260600190565b60208082526017908201527f4f7264657220697320616c72656164792066696c6c6564000000000000000000604082015260600190565b6020808252601d908201527f556e617574686f72697a65642061636365737320746f20747261646573000000604082015260600190565b60208082526021908201527f4d61726b6574206f726465722063616e206e6f742062652063616e63656c6c6560408201527f6400000000000000000000000000000000000000000000000000000000000000606082015260800190565b600061014082019050613ac5828451613854565b6020830151613ad7602084018261382f565b506040830151613aea604084018261382f565b506060830151613afd606084018261384a565b506080830151613b106080840182613854565b5060a0830151613b2360a084018261383c565b5060c083015160c083015260e0830151613b4060e084018261382f565b50610100838101519083015261012092830151929091019190915290565b600060e082019050825182526001600160a01b03602084015116602083015260408301516040830152606083015160608301526080830151608083015260a083015160a083015260c083015160c083015292915050565b60405181810167ffffffffffffffff81118282101715613bd457600080fd5b604052919050565b6001600160a01b038116811461154a57600080fd5b6002811061154a57600080fdfea26469706673582212203062ffe126cabab2c4b018d58c86e068425347dffff9d2f129b9ef9859a91ec664736f6c63430007010033",
  "linkReferences": {},
  "deployedLinkReferences": {}
}