{
  "_format": "hh-sol-artifact-1",
  "contractName": "SecondaryIssuePoolFactory",
  "sourceName": "contracts/SecondaryIssuePoolFactory.sol",
  "abi": [
    {
      "inputs": [
        {
          "internalType": "contract IVault",
          "name": "vault",
          "type": "address"
        },
        {
          "internalType": "contract IProtocolFeePercentagesProvider",
          "name": "protocolFeeProvider",
          "type": "address"
        }
      ],
      "stateMutability": "nonpayable",
      "type": "constructor"
    },
    {
      "anonymous": false,
      "inputs": [],
      "name": "FactoryDisabled",
      "type": "event"
    },
    {
      "anonymous": false,
      "inputs": [
        {
          "indexed": true,
          "internalType": "address",
          "name": "pool",
          "type": "address"
        }
      ],
      "name": "PoolCreated",
      "type": "event"
    },
    {
      "inputs": [
        {
          "internalType": "string",
          "name": "name",
          "type": "string"
        },
        {
          "internalType": "string",
          "name": "symbol",
          "type": "string"
        },
        {
          "internalType": "address",
          "name": "security",
          "type": "address"
        },
        {
          "internalType": "address",
          "name": "currency",
          "type": "address"
        },
        {
          "internalType": "uint256",
          "name": "minOrderSize",
          "type": "uint256"
        },
        {
          "internalType": "uint256",
          "name": "tradeFeePercentage",
          "type": "uint256"
        }
      ],
      "name": "create",
      "outputs": [
        {
          "internalType": "address",
          "name": "",
          "type": "address"
        }
      ],
      "stateMutability": "nonpayable",
      "type": "function"
    },
    {
      "inputs": [],
      "name": "disable",
      "outputs": [],
      "stateMutability": "nonpayable",
      "type": "function"
    },
    {
      "inputs": [
        {
          "internalType": "bytes4",
          "name": "selector",
          "type": "bytes4"
        }
      ],
      "name": "getActionId",
      "outputs": [
        {
          "internalType": "bytes32",
          "name": "",
          "type": "bytes32"
        }
      ],
      "stateMutability": "view",
      "type": "function"
    },
    {
      "inputs": [],
      "name": "getAuthorizer",
      "outputs": [
        {
          "internalType": "contract IAuthorizer",
          "name": "",
          "type": "address"
        }
      ],
      "stateMutability": "view",
      "type": "function"
    },
    {
      "inputs": [],
      "name": "getCreationCode",
      "outputs": [
        {
          "internalType": "bytes",
          "name": "",
          "type": "bytes"
        }
      ],
      "stateMutability": "view",
      "type": "function"
    },
    {
      "inputs": [],
      "name": "getCreationCodeContracts",
      "outputs": [
        {
          "internalType": "address",
          "name": "contractA",
          "type": "address"
        },
        {
          "internalType": "address",
          "name": "contractB",
          "type": "address"
        }
      ],
      "stateMutability": "view",
      "type": "function"
    },
    {
      "inputs": [],
      "name": "getPauseConfiguration",
      "outputs": [
        {
          "internalType": "uint256",
          "name": "pauseWindowDuration",
          "type": "uint256"
        },
        {
          "internalType": "uint256",
          "name": "bufferPeriodDuration",
          "type": "uint256"
        }
      ],
      "stateMutability": "view",
      "type": "function"
    },
    {
      "inputs": [],
      "name": "getProtocolFeePercentagesProvider",
      "outputs": [
        {
          "internalType": "contract IProtocolFeePercentagesProvider",
          "name": "",
          "type": "address"
        }
      ],
      "stateMutability": "view",
      "type": "function"
    },
    {
      "inputs": [],
      "name": "getVault",
      "outputs": [
        {
          "internalType": "contract IVault",
          "name": "",
          "type": "address"
        }
      ],
      "stateMutability": "view",
      "type": "function"
    },
    {
      "inputs": [],
      "name": "isDisabled",
      "outputs": [
        {
          "internalType": "bool",
          "name": "",
          "type": "bool"
        }
      ],
      "stateMutability": "view",
      "type": "function"
    },
    {
      "inputs": [
        {
          "internalType": "address",
          "name": "pool",
          "type": "address"
        }
      ],
      "name": "isPoolFromFactory",
      "outputs": [
        {
          "internalType": "bool",
          "name": "",
          "type": "bool"
        }
      ],
      "stateMutability": "view",
      "type": "function"
    }
  ],
  "bytecode": "0x6101806040523480156200001257600080fd5b506040516200993e3803806200993e8339810160408190526200003591620001fc565b8181604051806020016200004990620001ee565b601f1982820381018352601f90910116604052805183903090839060006002820460a081905280830360e08190528185529091508362000095816200010f602090811b6200043717901c565b60601b6001600160601b0319166080528285018051838252620000c4826200010f602090811b6200043717901c565b6001600160601b0319606091821b811660c05296909352905261010095909552505092821b831661012052509290921b90911661014052505050426276a70001610160525062000250565b80517f602038038060206000396000f3fefefefefefefefefefefefefefefefefefefe808352600091602081018484f090845291506200015d6001600160a01b03831615156101ac62000163565b50919050565b816200017457620001748162000178565b5050565b6200018a816210905360ea1b6200018d565b50565b62461bcd60e51b600090815260206004526007602452600a808404818106603090810160081b958390069590950190829004918206850160101b01602363ffffff0060e086901c160160181b0190930160c81b60445260e882901c90606490fd5b618bb48062000d8a83390190565b600080604083850312156200020f578182fd5b82516200021c816200023a565b60208401519092506200022f816200023a565b809150509250929050565b6001600160a01b03811681146200018a57600080fd5b60805160601c60a05160c05160601c60e051610100516101205160601c6101405160601c61016051610ac1620002c9600039806101ec52806102155250806102c052508061039b52508061034b5250806104915250806101c3528061050d5250806104b25250806101a252806104e95250610ac16000f3fe608060405234801561001057600080fd5b50600436106100a85760003560e01c80636c57f5a9116100715780636c57f5a914610121578063739238d61461012957806374dcc7a41461013e578063851c1bb3146101515780638d928af814610171578063aaabadc514610179576100a8565b8062c194db146100ad578063174481fa146100cb5780632da47c40146100e15780632f2770db146100f75780636634b75314610101575b600080fd5b6100b5610181565b6040516100c2919061098e565b60405180910390f35b6100d36101a0565b6040516100c2929190610941565b6100e96101e6565b6040516100c2929190610a68565b6100ff610250565b005b61011461010f3660046107c7565b610297565b6040516100c2919061095b565b6101146102b5565b6101316102be565b6040516100c2919061092d565b61013161014c366004610847565b6102e2565b61016461015f366004610803565b610347565b6040516100c29190610966565b610131610399565b6101316103bd565b606061019b60405180602001604052806000815250610489565b905090565b7f00000000000000000000000000000000000000000000000000000000000000007f00000000000000000000000000000000000000000000000000000000000000009091565b600080427f000000000000000000000000000000000000000000000000000000000000000081101561024257807f000000000000000000000000000000000000000000000000000000000000000003925062278d00915061024b565b60009250600091505b509091565b610258610562565b610260610593565b6001805460ff1916811790556040517f432acbfd662dbb5d8b378384a67159b47ca9d0f1b79f97cf64cf8585fa362d5090600090a1565b6001600160a01b031660009081526020819052604090205460ff1690565b60015460ff1690565b7f000000000000000000000000000000000000000000000000000000000000000090565b60008060006102ef6101e6565b915091506103386102fe610399565b8c8c8c8c8c8c8c8c8b8b336040516020016103249c9b9a999897969594939291906109e1565b6040516020818303038152906040526105a8565b9b9a5050505050505050505050565b60007f00000000000000000000000000000000000000000000000000000000000000008260405160200161037c929190610915565b604051602081830303815290604052805190602001209050919050565b7f000000000000000000000000000000000000000000000000000000000000000090565b60006103c7610399565b6001600160a01b031663aaabadc56040518163ffffffff1660e01b815260040160206040518083038186803b1580156103ff57600080fd5b505afa158015610413573d6000803e3d6000fd5b505050506040513d601f19601f8201168201806040525081019061019b919061082b565b80517f602038038060206000396000f3fefefefefefefefefefefefefefefefefefefe808352600091602081018484f090845291506104836001600160a01b03831615156101ac610611565b50919050565b8051604080517f00000000000000000000000000000000000000000000000000000000000000007f0000000000000000000000000000000000000000000000000000000000000000818101858101848101602090810190965280855293957f00000000000000000000000000000000000000000000000000000000000000009592947f000000000000000000000000000000000000000000000000000000000000000094938801866000828a3c846000888301883c5060208981019089850101610554818386610623565b505050505050505050919050565b60006105796000356001600160e01b031916610347565b90506105906105888233610661565b610191610611565b50565b6105a661059e6102b5565b1560d3610611565b565b60006105b2610593565b60006105bd836106f1565b6001600160a01b038116600081815260208190526040808220805460ff191660011790555192935090917f83a48fbcfc991335314e74d0496aab6a1987e992ddc85dddbcc4d6dd6ef2e9fc9190a292915050565b8161061f5761061f81610725565b5050565b5b60208110610643578151835260209283019290910190601f1901610624565b905182516020929092036101000a6000190180199091169116179052565b600061066b6103bd565b6001600160a01b0316639be2a8848484306040518463ffffffff1660e01b815260040161069a9392919061096f565b60206040518083038186803b1580156106b257600080fd5b505afa1580156106c6573d6000803e3d6000fd5b505050506040513d601f19601f820116820180604052508101906106ea91906107e3565b9392505050565b600060606106fe83610489565b905060008151602083016000f090506001600160a01b0381166106ea573d6000803e3d6000fd5b62461bcd60e51b600090815260206004526007602452600a808304818106603090810160081b83860601918390049283060160101b016642414c230000300160c81b604452610590916210905360ea1b906242414c90606490fd5b60008083601f840112610791578182fd5b50813567ffffffffffffffff8111156107a8578182fd5b6020830191508360208285010111156107c057600080fd5b9250929050565b6000602082840312156107d8578081fd5b81356106ea81610a76565b6000602082840312156107f4578081fd5b815180151581146106ea578182fd5b600060208284031215610814578081fd5b81356001600160e01b0319811681146106ea578182fd5b60006020828403121561083c578081fd5b81516106ea81610a76565b60008060008060008060008060c0898b031215610862578384fd5b883567ffffffffffffffff80821115610879578586fd5b6108858c838d01610780565b909a50985060208b013591508082111561089d578586fd5b506108aa8b828c01610780565b90975095505060408901356108be81610a76565b935060608901356108ce81610a76565b979a969950949793969295929450505060808201359160a0013590565b60008284528282602086013780602084860101526020601f19601f85011685010190509392505050565b9182526001600160e01b031916602082015260240190565b6001600160a01b0391909116815260200190565b6001600160a01b0392831681529116602082015260400190565b901515815260200190565b90815260200190565b9283526001600160a01b03918216602084015216604082015260600190565b6000602080835283518082850152825b818110156109ba5785810183015185820160400152820161099e565b818111156109cb5783604083870101525b50601f01601f1916929092016040019392505050565b6001600160a01b038d16815261014060208201819052600090610a079083018d8f6108eb565b8281036040840152610a1a818c8e6108eb565b6001600160a01b039a8b166060850152988a166080840152505060a081019590955260c085019390935260e08401919091526101008301529092166101209092019190915295945050505050565b918252602082015260400190565b6001600160a01b038116811461059057600080fdfea26469706673582212205fba7b3496f7ec5b9a3b90b45f87631f545740ce178fa37fbead3937e1c895e364736f6c634300070100336102c06040523480156200001257600080fd5b5060405162008bb438038062008bb4833981016040819052620000359162000b87565b8960008a8a620000478b8b30620004d0565b6040805160038082526080820190925290602082016060803683370190505089898989828289898d85336001600160a01b031660001b8480604051806040016040528060018152602001603160f81b81525087878160039080519060200190620000b3929190620009f1565b508051620000c9906004906020840190620009f1565b50506005805460ff19166012179055508151602092830120608052805191012060a052507f8b73c3c69bb8fe3d512ecc4cf759cc79239f7b179b0ffacaa9a75d522b39400f60c05260e0526001600160601b0319606091821b81166101005291901b1661012052506200014790506276a7008311156101946200059f565b6200015b62278d008211156101956200059f565b42909101610140819052016101605285516200017d906002111560c86200059f565b620001976200018b620005b4565b8751111560c96200059f565b620001ad86620005b960201b620022d61760201c565b620001b884620005c5565b6040516309b2760f60e01b81526000906001600160a01b038c16906309b2760f90620001e9908d9060040162000d50565b602060405180830381600087803b1580156200020457600080fd5b505af115801562000219573d6000803e3d6000fd5b505050506040513d601f19601f820116820180604052508101906200023f919062000b4f565b604051633354e3e960e11b81529091506001600160a01b038c16906366a9c7d290620002749084908b908b9060040162000cb4565b600060405180830381600087803b1580156200028f57600080fd5b505af1158015620002a4573d6000803e3d6000fd5b505050508061018081815250508a6001600160a01b031663d2946c2b6040518163ffffffff1660e01b815260040160206040518083038186803b158015620002eb57600080fd5b505afa15801562000300573d6000803e3d6000fd5b505050506040513d601f19601f8201168201806040525081019062000326919062000b68565b6001600160a01b03166101a0816001600160a01b031660601b815250505050505050505050505050866001600160a01b03166101c0816001600160a01b031660601b81525050856001600160a01b03166101e0816001600160a01b031660601b8152505089600b60006101000a8154816001600160a01b0302191690836001600160a01b031602179055506000806000620003c98a8a306200065960201b60201c565b61024081905261026083905261028082905291945092509050620003ed8a6200074f565b61020052620003fc896200074f565b61022052600a8890556001600160601b0319606085901b166102a05260405184908b908b9030906200042e9062000a76565b6200043d949392919062000c89565b604051809103906000f0801580156200045a573d6000803e3d6000fd5b50600980546001600160a01b0319166001600160a01b0392831617908190556040518c8316927f32e7b5e5c88bb4ec1dca71e1e00fc2444e236858d09faa9ddbb9d8c710549ecb92620004b5928d928f9216908a9062000d6e565b60405180910390a25050505050505050505050505062000db7565b606060008080620004e387878762000659565b60408051600380825260808201909252939650919450925060208201606080368337019050509350868484815181106200051957fe5b60200260200101906001600160a01b031690816001600160a01b031681525050858483815181106200054757fe5b60200260200101906001600160a01b031690816001600160a01b031681525050848482815181106200057557fe5b60200260200101906001600160a01b031690816001600160a01b0316815250505050509392505050565b81620005b057620005b08162000823565b5050565b600390565b80620005b08162000838565b620005de620005d3620008c4565b82101560cb6200059f565b620005f7620005ec620008cd565b82111560ca6200059f565b620006198160c0603f600854620008d960201b620022e017909392919060201c565b6008556040517fa9ba3ffe0b6c366b81232caab38605a0699ad5398d6cce76f91ee809e322dafc906200064e90839062000d65565b60405180910390a150565b6000806000846001600160a01b0316866001600160a01b03161015620006e257836001600160a01b0316856001600160a01b03161015620006a557506000915060019050600262000746565b836001600160a01b0316866001600160a01b03161015620006d157506000915060029050600162000746565b506001915060029050600062000746565b846001600160a01b0316846001600160a01b031610156200070e57506002915060019050600062000746565b856001600160a01b0316846001600160a01b031610156200073a57506002915060009050600162000746565b50600191506000905060025b93509350939050565b60006001600160a01b038216301415620007735750670de0b6b3a76400006200081e565b6000826001600160a01b031663313ce5676040518163ffffffff1660e01b815260040160206040518083038186803b158015620007af57600080fd5b505afa158015620007c4573d6000803e3d6000fd5b505050506040513d601f19601f82011682018060405250810190620007ea919062000c66565b60ff169050600062000809601283620008fe60201b620023031760201c565b905080600a0a670de0b6b3a764000002925050505b919050565b62000835816210905360ea1b6200091b565b50565b600281511015620008495762000835565b6000816000815181106200085957fe5b602002602001015190506000600190505b8251811015620008bf5760008382815181106200088357fe5b60200260200101519050620008b4816001600160a01b0316846001600160a01b03161060656200059f60201b60201c565b91506001016200086a565b505050565b64e8d4a5100090565b67016345785d8a000090565b6000620008e88484846200097c565b506001901b60001901811b1992909216911b1790565b6000620009108383111560016200059f565b508082035b92915050565b62461bcd60e51b600090815260206004526007602452600a808404818106603090810160081b958390069590950190829004918206850160101b01602363ffffff0060e086901c160160181b0190930160c81b60445260e882901c90606490fd5b6200098d610100831060646200059f565b620009c660018210158015620009be5750620009ba60ff8461010003620009d760201b620023191760201c565b8211155b60646200059f565b620008bf83821c156101b46200059f565b6000818310620009e85781620009ea565b825b9392505050565b828054600181600116156101000203166002900490600052602060002090601f016020900481019282601f1062000a3457805160ff191683800117855562000a64565b8280016001018555821562000a64579182015b8281111562000a6457825182559160200191906001019062000a47565b5062000a7292915062000a84565b5090565b61360680620055ae83390190565b5b8082111562000a72576000815560010162000a85565b8051620009158162000da1565b600082601f83011262000ab9578081fd5b81516001600160401b038082111562000ad0578283fd5b6040516020601f8401601f191682018101838111838210171562000af2578586fd5b8060405250819450838252868185880101111562000b0f57600080fd5b600092505b8383101562000b33578583018101518284018201529182019162000b14565b8383111562000b455760008185840101525b5050505092915050565b60006020828403121562000b61578081fd5b5051919050565b60006020828403121562000b7a578081fd5b8151620009ea8162000da1565b6000806000806000806000806000806101408b8d03121562000ba7578586fd5b62000bb38c8c62000a9b565b60208c0151909a506001600160401b038082111562000bd0578788fd5b62000bde8e838f0162000aa8565b9a5060408d015191508082111562000bf4578788fd5b5062000c038d828e0162000aa8565b98505062000c158c60608d0162000a9b565b965062000c268c60808d0162000a9b565b955060a08b0151945060c08b0151935060e08b015192506101008b0151915062000c558c6101208d0162000a9b565b90509295989b9194979a5092959850565b60006020828403121562000c78578081fd5b815160ff81168114620009ea578182fd5b6001600160a01b03948516815292841660208401529083166040830152909116606082015260800190565b60006060820185835260206060818501528186518084526080860191508288019350845b8181101562000d005762000ced855162000d95565b8352938301939183019160010162000cd8565b505084810360408601528551808252908201925081860190845b8181101562000d425762000d2f835162000d95565b8552938301939183019160010162000d1a565b509298975050505050505050565b602081016003831062000d5f57fe5b91905290565b90815260200190565b9384526001600160a01b039283166020850152908216604084015216606082015260800190565b6001600160a01b031690565b6001600160a01b03811681146200083557600080fd5b60805160a05160c05160e0516101005160601c6101205160601c6101405161016051610180516101a05160601c6101c05160601c6101e05160601c61020051610220516102405161026051610280516102a05160601c61466f62000f3f60003980612e235250806107b252806124195280612e8f5280612ee952508061086452806123b35250806108e852806114c45280611930528061196d52806119ab528061246e5280612f3c52508061102052806124415280612ec2525080610fec52806123db525080610582528061061852806107565280610b905280610c215280610fa1528061117652806115ef5280611780528061182852806118bb5280611d995250806105c1528061065852806108085280610a275280610b075280610c855280610cf3528061113752806115b0528061174152806117e9528061187c5280611c535250806120b0525080611ca6525080612676525080612652525080611f98525080611f74525080611efe525080612fbe525080613000525080612fdf525061466f6000f3fe608060405234801561001057600080fd5b50600436106102535760003560e01c806370a0823111610146578063a457c2d7116100c3578063d2946c2b11610087578063d2946c2b14610499578063d505accf146104a1578063d5c096c4146104b4578063dd62ed3e146104c7578063ed24911d146104da578063fd19cac8146104e257610253565b8063a457c2d71461045b578063a9059cbb1461046e578063aaabadc514610481578063b35056b814610489578063b7b814fc1461049157610253565b806387ec68171161010a57806387ec68171461041d578063893d20e8146104305780638d928af81461043857806390193b7c1461044057806395d89b411461045357610253565b806370a08231146103bb57806374f3b009146103ce5780637ecebe00146103ef5780638456cb5914610402578063851c1bb31461040a57610253565b806338e9922e116101d457806350dd6ed91161019857806350dd6ed91461036f57806354a844ba1461038257806355c676281461038a5780636028bfd4146103925780636945c1fd146103b357610253565b806338e9922e1461032f57806338fff2d014610344578063395093511461034c5780633f4ba83a1461035f5780634d6d0fd01461036757610253565b80631dd746ea1161021b5780631dd746ea146102d557806323b872dd146102ea5780632541897f146102fd578063313ce567146103125780633644e5151461032757610253565b806301ec954a1461025857806306fdde0314610281578063095ea7b31461029657806318160ddd146102b65780631c0de051146102be575b600080fd5b61026b610266366004613c74565b6104ea565b604051610278919061416e565b60405180910390f35b610289611af2565b60405161027891906142b2565b6102a96102a43660046139b1565b611b88565b604051610278919061414b565b61026b611b9f565b6102c6611ba5565b60405161027893929190614156565b6102dd611bce565b604051610278919061410a565b6102a96102f8366004613901565b611bdd565b610305611c51565b604051610278919061409c565b61031a611c75565b6040516102789190614593565b61026b611c7e565b61034261033d366004613e7d565b611c88565b005b61026b611ca4565b6102a961035a3660046139b1565b611cc8565b610342611d03565b61026b611d17565b61034261037d366004613b33565b611d1d565b610342611d3b565b61026b611d4d565b6103a56103a03660046139fc565b611d60565b60405161027892919061457a565b610305611d97565b61026b6103c93660046138ad565b611dbb565b6103e16103dc3660046139fc565b611dda565b60405161027892919061411d565b61026b6103fd3660046138ad565b611edd565b610342611ee8565b61026b610418366004613aef565b611efa565b6103a561042b3660046139fc565b611f4c565b610305611f72565b610305611f96565b61026b61044e3660046138ad565b611fba565b610289611fd5565b6102a96104693660046139b1565b612036565b6102a961047c3660046139b1565b612074565b610305612081565b6102a961208b565b61034261209c565b6103056120ae565b6103426104af366004613941565b6120d2565b6103e16104c23660046139fc565b61215d565b61026b6104d53660046138c9565b612280565b61026b6122bd565b6103056122c7565b600084608001516105176104fc611f96565b6001600160a01b0316336001600160a01b03161460cd612331565b61052c610522611ca4565b82146101f4612331565b61053461233f565b60008651600181111561054357fe5b148061055b575060018651600181111561055957fe5b145b6105805760405162461bcd60e51b81526004016105779061440d565b60405180910390fd5b7f00000000000000000000000000000000000000000000000000000000000000006001600160a01b031686604001516001600160a01b031614806105f957507f00000000000000000000000000000000000000000000000000000000000000006001600160a01b031686604001516001600160a01b0316145b80610610575060408601516001600160a01b031630145b8061065057507f00000000000000000000000000000000000000000000000000000000000000006001600160a01b031686602001516001600160a01b0316145b8061069057507f00000000000000000000000000000000000000000000000000000000000000006001600160a01b031686602001516001600160a01b0316145b806106a7575060208601516001600160a01b031630145b6106c35760405162461bcd60e51b8152600401610577906142c5565b60606106cd612352565b90506106d986826124c5565b6106e1613769565b6000808080808c5160018111156106f457fe5b14156107255761071b8c60600151878c8151811061070e57fe5b6020026020010151612534565b60608d0152610754565b60018c51600181111561073457fe5b14156107545761074e8c60600151878b8151811061070e57fe5b60608d01525b7f00000000000000000000000000000000000000000000000000000000000000006001600160a01b03168c602001516001600160a01b03161480156107a5575060008c5160018111156107a357fe5b145b15610806578b606001518b7f0000000000000000000000000000000000000000000000000000000000000000815181106107db57fe5b602002602001015110156108015760405162461bcd60e51b815260040161057790614363565b610937565b7f00000000000000000000000000000000000000000000000000000000000000006001600160a01b03168c602001516001600160a01b0316148015610857575060008c51600181111561085557fe5b145b156108b3578b606001518b7f00000000000000000000000000000000000000000000000000000000000000008151811061088d57fe5b602002602001015110156108015760405162461bcd60e51b815260040161057790614433565b60208c01516001600160a01b0316301480156108db575060008c5160018111156108d957fe5b145b15610937578b606001518b7f00000000000000000000000000000000000000000000000000000000000000008151811061091157fe5b602002602001015110156109375760405162461bcd60e51b81526004016105779061432c565b6101008c0151511561155c578b610100015180602001905181019061095c9190613a9f565b604080516020810190915260008152919550935061097990612540565b8414156110dc57610988613780565b60095460c08e015160405163ca142f7560e01b81526001600160a01b039092169163ca142f75916109bd9188906004016140f1565b60c06040518083038186803b1580156109d557600080fd5b505afa1580156109e9573d6000803e3d6000fd5b505050506040513d601f19601f82011682018060405250810190610a0d9190613e17565b60095460c08f015160208301519293506001600160a01b037f000000000000000000000000000000000000000000000000000000000000000081169392811692635778472a92908216911614610a67578360400151610a6a565b83515b6040518263ffffffff1660e01b8152600401610a86919061416e565b60c06040518083038186803b158015610a9e57600080fd5b505afa158015610ab2573d6000803e3d6000fd5b505050506040513d601f19601f82011682018060405250810190610ad69190613d93565b516001600160a01b031614610af6576763757272656e637960c01b610b03565b67736563757269747960c01b5b92507f00000000000000000000000000000000000000000000000000000000000000006001600160a01b03168d604001516001600160a01b0316148015610b56575060008d516001811115610b5457fe5b145b15610b8e57806080015191508c606001518160a0015114610b895760405162461bcd60e51b8152600401610577906144ba565b610c1d565b7f00000000000000000000000000000000000000000000000000000000000000006001600160a01b03168d604001516001600160a01b0316148015610bdf575060008d516001811115610bdd57fe5b145b15610c12578060a0015191508c60600151816080015114610b895760405162461bcd60e51b81526004016105779061446a565b610c1d61016361255e565b60007f00000000000000000000000000000000000000000000000000000000000000006001600160a01b03168e604001516001600160a01b0316148015610c70575060208e01516001600160a01b031630145b15610c8357506314d95b1b60e21b610cf1565b7f00000000000000000000000000000000000000000000000000000000000000006001600160a01b03168e604001516001600160a01b0316148015610cd4575060208e01516001600160a01b031630145b15610ce657506242757960e81b610cf1565b610cf161016361255e565b7f00000000000000000000000000000000000000000000000000000000000000006001600160a01b03167fd6a806535ec4f172139ede2e9d6bbbe20957ca8a454fd40c9747fe139efe42478567736563757269747960c01b8714610ddb576009546040808701519051632bbc239560e11b81526001600160a01b0390921691635778472a91610d829160040161416e565b60c06040518083038186803b158015610d9a57600080fd5b505afa158015610dae573d6000803e3d6000fd5b505050506040513d601f19601f82011682018060405250810190610dd29190613d93565b60800151610e60565b6009548551604051632bbc239560e11b81526001600160a01b0390921691635778472a91610e0b9160040161416e565b60c06040518083038186803b158015610e2357600080fd5b505afa158015610e37573d6000803e3d6000fd5b505050506040513d601f19601f82011682018060405250810190610e5b9190613d93565b608001515b6763757272656e637960c01b8814610efe576009546040808801519051632bbc239560e11b81526001600160a01b0390921691635778472a91610ea59160040161416e565b60c06040518083038186803b158015610ebd57600080fd5b505afa158015610ed1573d6000803e3d6000fd5b505050506040513d601f19601f82011682018060405250810190610ef59190613d93565b60800151610f83565b6009548651604051632bbc239560e11b81526001600160a01b0390921691635778472a91610f2e9160040161416e565b60c06040518083038186803b158015610f4657600080fd5b505afa158015610f5a573d6000803e3d6000fd5b505050506040513d601f19601f82011682018060405250810190610f7e9190613d93565b608001515b85610f9f88608001518960a0015161256e90919063ffffffff16565b7f00000000000000000000000000000000000000000000000000000000000000008a8a60600151604051610fda9897969594939291906141ad565b60405180910390a261101082608001517f00000000000000000000000000000000000000000000000000000000000000006125bf565b608083015260a0820151611044907f00000000000000000000000000000000000000000000000000000000000000006125bf565b60a083015260095460c08f01516040516335ca73db60e21b81526001600160a01b039092169163d729cf6c9161107e9189906004016140f1565b600060405180830381600087803b15801561109857600080fd5b505af11580156110ac573d6000803e3d6000fd5b505050506110cd83898d815181106110c057fe5b60200260200101516125bf565b99505050505050505050611ae9565b61110260405180604001604052806005815260200164131a5b5a5d60da1b815250612540565b8414801561110f57508215155b15611130576040805180820190915280600181526020018490529450611557565b826112bd577f00000000000000000000000000000000000000000000000000000000000000006001600160a01b03168c604001516001600160a01b031614806111ae57507f00000000000000000000000000000000000000000000000000000000000000006001600160a01b03168c604001516001600160a01b0316145b80156111c6575060208c01516001600160a01b031630145b80156111de575060008c5160018111156111dc57fe5b145b156112ad5760095460c08d0151604051636b0d76bd60e11b81526001600160a01b039092169163d61aed7a9161121991889190600401614177565b602060405180830381600087803b15801561123357600080fd5b505af1158015611247573d6000803e3d6000fd5b505050506040513d601f19601f8201168201806040525081019061126b9190613e95565b90508b6060015181146112905760405162461bcd60e51b8152600401610577906143ca565b6112a081878b815181106110c057fe5b9750505050505050611ae9565b6112b861016361255e565b611557565b821561154c5760208c01516001600160a01b0316301480156112eb575060008c5160018111156112e957fe5b145b156113ea57600960009054906101000a90046001600160a01b03166001600160a01b03166346764e5e85858f6040518463ffffffff1660e01b815260040161133593929190614275565b602060405180830381600087803b15801561134f57600080fd5b505af1158015611363573d6000803e3d6000fd5b505050506040513d601f19601f820116820180604052508101906113879190613e95565b9050611397818d60600151612303565b905060008051602061461a8339815191528c60c001518d602001518e604001518f6060015187428a6040516113d297969594939291906140b0565b60405180910390a16112a081878b815181106110c057fe5b60408c01516001600160a01b031630148015611412575060008c51600181111561141057fe5b145b156112ad57600960009054906101000a90046001600160a01b03166001600160a01b03166346764e5e85858f6040518463ffffffff1660e01b815260040161145c93929190614275565b602060405180830381600087803b15801561147657600080fd5b505af115801561148a573d6000803e3d6000fd5b505050506040513d601f19601f820116820180604052508101906114ae9190613e95565b90506114be8c6060015182612303565b9050808b7f0000000000000000000000000000000000000000000000000000000000000000815181106114ed57fe5b602002602001015110156115135760405162461bcd60e51b81526004016105779061450a565b60008051602061461a8339815191528c60c001518d602001518e604001518f6060015187428a6040516113d297969594939291906140b0565b61155761016361255e565b611573565b604080518082019091526000808252602082015294505b600a548c6060015110156115995760405162461bcd60e51b8152600401610577906142f5565b6000855160028111156115a857fe5b141561187a577f00000000000000000000000000000000000000000000000000000000000000006001600160a01b03168c602001516001600160a01b0316148061162757507f00000000000000000000000000000000000000000000000000000000000000006001600160a01b03168c602001516001600160a01b0316145b156116bd57600954604051635487e8cf60e01b81526001600160a01b0390911690635487e8cf9061165e908f908990600401614541565b606060405180830381600087803b15801561167857600080fd5b505af115801561168c573d6000803e3d6000fd5b505050506040513d601f19601f820116820180604052508101906116b09190613ac2565b90945090925090506116c8565b6116c861016361255e565b806116e55760405162461bcd60e51b81526004016105779061439a565b60008051602061461a8339815191528c60c001518d602001518e604001518f606001518960200151888860405161172297969594939291906140b0565b60405180910390a160008c51600181111561173957fe5b14156117d2577f00000000000000000000000000000000000000000000000000000000000000006001600160a01b03168c602001516001600160a01b031614806117b857507f00000000000000000000000000000000000000000000000000000000000000006001600160a01b03168c602001516001600160a01b0316145b156117cd576112a081878b815181106110c057fe5b611875565b60018c5160018111156117e157fe5b1415611875577f00000000000000000000000000000000000000000000000000000000000000006001600160a01b03168c604001516001600160a01b0316148061186057507f00000000000000000000000000000000000000000000000000000000000000006001600160a01b03168c604001516001600160a01b0316145b15611875576112a081878c815181106110c057fe5b611ae2565b7f00000000000000000000000000000000000000000000000000000000000000006001600160a01b03168c602001516001600160a01b031614806118f357507f00000000000000000000000000000000000000000000000000000000000000006001600160a01b03168c602001516001600160a01b0316145b801561190b575060408c01516001600160a01b031630145b8015611923575060008c51600181111561192157fe5b145b15611a7e578b606001518b7f00000000000000000000000000000000000000000000000000000000000000008151811061195957fe5b60200260200101511115611a6e576119a88b7f00000000000000000000000000000000000000000000000000000000000000008151811061199657fe5b60200260200101518d60600151612303565b8b7f0000000000000000000000000000000000000000000000000000000000000000815181106119d457fe5b6020908102919091010152600954604051635487e8cf60e01b81526001600160a01b0390911690635487e8cf90611a11908f908990600401614541565b606060405180830381600087803b158015611a2b57600080fd5b505af1158015611a3f573d6000803e3d6000fd5b505050506040513d601f19601f82011682018060405250810190611a639190613ac2565b50909250611a799050565b611a7961020161255e565b611a89565b611a8961016361255e565b60008051602061461a8339815191528c60c001518d602001518e604001518f6060015189602001514288604051611ac697969594939291906140b0565b60405180910390a16112a08c60600151878b815181106110c057fe5b5050505050505b50949350505050565b60038054604080516020601f6002600019610100600188161502019095169490940493840181900481028201810190925282815260609390929091830182828015611b7e5780601f10611b5357610100808354040283529160200191611b7e565b820191906000526020600020905b815481529060010190602001808311611b6157829003601f168201915b5050505050905090565b6000611b953384846125cb565b5060015b92915050565b60025490565b6000806000611bb2612633565b159250611bbd612650565b9150611bc7612674565b9050909192565b6060611bd8612352565b905090565b600080611bea8533612280565b9050611c0e336001600160a01b0387161480611c065750838210155b61019e612331565b611c19858585612698565b336001600160a01b03861614801590611c3457506000198114155b15611c4657611c4685338584036125cb565b506001949350505050565b7f000000000000000000000000000000000000000000000000000000000000000090565b60055460ff1690565b6000611bd86122bd565b611c90612778565b611c9861233f565b611ca1816127a6565b50565b7f000000000000000000000000000000000000000000000000000000000000000090565b3360008181526001602090815260408083206001600160a01b03871684529091528120549091611b95918590611cfe908661281f565b6125cb565b611d0b612778565b611d156000612831565b565b600a5490565b611d25612778565b611d2d61233f565b611d3782826128a4565b5050565b611d43612778565b611d156001612999565b600854600090611bd89060c0603f6129f0565b60006060611d768651611d716129ff565b612a04565b611d8b89898989898989612a11612a63612acc565b97509795505050505050565b7f000000000000000000000000000000000000000000000000000000000000000090565b6001600160a01b0381166000908152602081905260409020545b919050565b60608088611de96104fc611f96565b611df4610522611ca4565b60606000611e0186612bf6565b15611e2957611e0e612c25565b611e2089611e1a611b9f565b88612c38565b92509050611e7b565b611e31612c64565b6060611e3b612352565b9050611e478a826124c5565b611e6b8d8d8d8d8d611e5761208b565b611e61578d611e64565b60005b878e612a11565b93509150611e798382612a63565b505b611e858b82612c6c565b81895167ffffffffffffffff81118015611e9e57600080fd5b50604051908082528060200260200182016040528015611ec8578160200160208202803683370190505b509450945050505b5097509795505050505050565b6000611b9982611fba565b611ef0612778565b611d156001612831565b60007f000000000000000000000000000000000000000000000000000000000000000082604051602001611f2f929190614059565b604051602081830303815290604052805190602001209050919050565b60006060611f5d8651611d716129ff565b611d8b89898989898989612c76612c92612acc565b7f000000000000000000000000000000000000000000000000000000000000000090565b7f000000000000000000000000000000000000000000000000000000000000000090565b6001600160a01b031660009081526006602052604090205490565b60048054604080516020601f6002600019610100600188161502019095169490940493840181900481028201810190925282815260609390929091830182828015611b7e5780601f10611b5357610100808354040283529160200191611b7e565b6000806120433385612280565b905080831061205d57612058338560006125cb565b61206a565b61206a33858584036125cb565b5060019392505050565b6000611b95338484612698565b6000611bd8612cfb565b600854600090611bd89060ff612d75565b6120a4612778565b611d156000612999565b7f000000000000000000000000000000000000000000000000000000000000000090565b60007f6e71edae12b1b97f4d1f60370fef10105fa2faae0126114a169c64845d6126c98888886121018c611fba565b89604051602001612117969594939291906141f4565b604051602081830303815290604052805190602001209050612148888261213f878787612d7f565b886101f8612dbe565b6121538888886125cb565b5050505050505050565b6060808861216c6104fc611f96565b612177610522611ca4565b61217f612c64565b6060612189612352565b9050612193611b9f565b61224057600060606121a88d8d8d868b612e15565b915091506121c16121b7612f7e565b83101560cc612331565b6121d360006121ce612f7e565b612f85565b6121e68b6121df612f7e565b8403612f85565b6121f08184612c92565b808a5167ffffffffffffffff8111801561220957600080fd5b50604051908082528060200260200182016040528015612233578160200160208202803683370190505b5095509550505050611ed0565b61224a88826124c5565b600060606122728d8d8d8d8d61225e61208b565b612268578d61226b565b60005b898e612c76565b915091506121e68b83612f85565b600061228a611f96565b6001600160a01b0316826001600160a01b031614156122ac5750600019611b99565b6122b68383612f8f565b9050611b99565b6000611bd8612fba565b6009546001600160a01b031681565b80611d3781613057565b60006122ed8484846130d5565b506001901b60001901811b1992909216911b1790565b6000612313838311156001612331565b50900390565b6000818310612328578161232a565b825b9392505050565b81611d3757611d378161255e565b611d1561234a612633565b610192612331565b6060600061235e6129ff565b905060608167ffffffffffffffff8111801561237957600080fd5b506040519080825280602002602001820160405280156123a3578160200160208202803683370190505b50905060005b828110156124be577f0000000000000000000000000000000000000000000000000000000000000000811415612417577f000000000000000000000000000000000000000000000000000000000000000082828151811061240657fe5b6020026020010181815250506124b6565b7f000000000000000000000000000000000000000000000000000000000000000081141561246c577f000000000000000000000000000000000000000000000000000000000000000082828151811061240657fe5b7f00000000000000000000000000000000000000000000000000000000000000008114156124b657670de0b6b3a76400008282815181106124a957fe5b6020026020010181815250505b6001016123a9565b5091505090565b815181516124d4908290612a04565b60005b8181101561252e5761250f8482815181106124ee57fe5b602002602001015184838151811061250257fe5b602002602001015161311c565b84828151811061251b57fe5b60209081029190910101526001016124d7565b50505050565b600061232a838361311c565b80516000908290612555575060009050611dd5565b50506020015190565b611ca1816210905360ea1b613152565b600061257d8215156004612331565b8261258a57506000611b99565b670de0b6b3a7640000838102906125ad908583816125a457fe5b04146005612331565b8281816125b657fe5b04915050611b99565b600061232a838361256e565b6001600160a01b0380841660008181526001602090815260408083209487168084529490915290819020849055517f8c5be1e5ebec7d5bd14f71427d1e84f3dd0314c0f7b2291e5b200ac8c7c3b9259061262690859061416e565b60405180910390a3505050565b600061263d612674565b421180611bd857505060075460ff161590565b7f000000000000000000000000000000000000000000000000000000000000000090565b7f000000000000000000000000000000000000000000000000000000000000000090565b6126af6001600160a01b0384161515610198612331565b6126c66001600160a01b0383161515610199612331565b6126d18383836130d0565b6001600160a01b0383166000908152602081905260409020546126f790826101a06131b3565b6001600160a01b038085166000908152602081905260408082209390935590841681522054612726908261281f565b6001600160a01b0380841660008181526020819052604090819020939093559151908516907fddf252ad1be2c89b69c2b068fc378daa952ba7f163c4a11628f55a4df523b3ef9061262690859061416e565b600061278f6000356001600160e01b031916611efa565b9050611ca161279e82336131c9565b610191612331565b6127bb6127b16132b2565b82101560cb612331565b6127d06127c66132bb565b82111560ca612331565b6008546127e1908260c0603f6122e0565b6008556040517fa9ba3ffe0b6c366b81232caab38605a0699ad5398d6cce76f91ee809e322dafc9061281490839061416e565b60405180910390a150565b600082820161232a8482101583612331565b80156128515761284c612842612650565b4210610193612331565b612866565b61286661285c612674565b42106101a9612331565b6007805460ff19168215151790556040517f9e3a5e37224532dea67b89face185703738a228a6e8a23dee546960180d3be649061281490839061414b565b60006128ae611ca4565b905060006128ba611f96565b6001600160a01b031663b05f8e4883866040518363ffffffff1660e01b81526004016128e7929190614177565b60806040518083038186803b1580156128ff57600080fd5b505afa158015612913573d6000803e3d6000fd5b505050506040513d601f19601f820116820180604052508101906129379190613ead565b604051630639cdb560e21b81529094506001600160a01b03851693506318e736d4925061296b915085908790600401614254565b600060405180830381600087803b15801561298557600080fd5b505af1158015612153573d6000803e3d6000fd5b6008546129a8908260ff6132c7565b6008556040517feff3d4d215b42bf0960be9c6d5e05c22cba4df6627a3a523e2acee733b5854c8906129db90839061414b565b60405180910390a180611ca157611ca1611d15565b6001901b6000190191901c1690565b600390565b611d378183146067612331565b600060606000612a20846132ee565b90506001816001811115612a3057fe5b14612a4557612a4061016361255e565b612a55565b612a4f8885613304565b90935091505b509850989650505050505050565b81518151612a72908290612a04565b60005b8181101561252e57612aad848281518110612a8c57fe5b6020026020010151848381518110612aa057fe5b602002602001015161256e565b848281518110612ab957fe5b6020908102919091010152600101612a75565b333014612b8a576000306001600160a01b0316600036604051612af0929190614071565b6000604051808303816000865af19150503d8060008114612b2d576040519150601f19603f3d011682016040523d82523d6000602084013e612b32565b606091505b505090508060008114612b4157fe5b60046000803e6000516001600160e01b0319166343adbafb60e01b8114612b6c573d6000803e3d6000fd5b506020600460003e604060205260243d03602460403e601c3d016000f35b612b92612c64565b6060612b9c612352565b9050612ba887826124c5565b60006060612bc08c8c8c8c8c8c898d8d63ffffffff16565b91509150612bd281848663ffffffff16565b8051601f1982018390526343adbafb603f1983015260200260231982016044820181fd5b6000808251118015611b99575060ff801682806020019051810190612c1b9190613eed565b60ff161492915050565b611d15612c3061208b565b6101b6612331565b600060606000612c47846133a7565b90506060612c568787846133bd565b919791965090945050505050565b611d1561233f565b611d37828261346c565b60006060612c8561016361255e565b9850989650505050505050565b81518151612ca1908290612a04565b60005b8181101561252e57612cdc848281518110612cbb57fe5b6020026020010151848381518110612ccf57fe5b6020026020010151613538565b848281518110612ce857fe5b6020908102919091010152600101612ca4565b6000612d05611f96565b6001600160a01b031663aaabadc56040518163ffffffff1660e01b815260040160206040518083038186803b158015612d3d57600080fd5b505afa158015612d51573d6000803e3d6000fd5b505050506040513d601f19601f82011682018060405250810190611bd89190613b17565b1c60019081161490565b60408051604180825260808201909252606091829190602082018180368337019050509050836020820152826040820152846060820153949350505050565b6000612dc985613586565b9050612ddf612dd98783876135a2565b83612331565b612dee428410156101b8612331565b5050506001600160a01b039092166000908152600660205260409020805460010190555050565b60006060612e2161233f565b7f0000000000000000000000000000000000000000000000000000000000000000612e5c6001600160a01b0388811690831614610156612331565b612e7c816001600160a01b0316876001600160a01b031614610156612331565b6060612e8785613651565b9050612ee6817f000000000000000000000000000000000000000000000000000000000000000081518110612eb857fe5b60200260200101517f0000000000000000000000000000000000000000000000000000000000000000612534565b817f000000000000000000000000000000000000000000000000000000000000000081518110612f1257fe5b60209081029190910101526dffffffffffffffffffffffffffff612f3981620f4240612303565b827f000000000000000000000000000000000000000000000000000000000000000081518110612f6557fe5b6020908102919091010152999098509650505050505050565b620f424090565b611d378282613667565b6001600160a01b03918216600090815260016020908152604080832093909416825291909152205490565b60007f00000000000000000000000000000000000000000000000000000000000000007f00000000000000000000000000000000000000000000000000000000000000007f00000000000000000000000000000000000000000000000000000000000000006130276136fa565b3060405160200161303c959493929190614228565b60405160208183030381529060405280519060200120905090565b60028151101561306657611ca1565b60008160008151811061307557fe5b602002602001015190506000600190505b82518110156130d057600083828151811061309d57fe5b602002602001015190506130c6816001600160a01b0316846001600160a01b0316106065612331565b9150600101613086565b505050565b6130e461010083106064612331565b61310d60018210158015613106575061310260ff8461010003612319565b8211155b6064612331565b6130d083821c156101b4612331565b600082820261314084158061313957508385838161313657fe5b04145b6003612331565b670de0b6b3a764000090049392505050565b62461bcd60e51b600090815260206004526007602452600a808404818106603090810160081b958390069590950190829004918206850160101b01602363ffffff0060e086901c160160181b0190930160c81b60445260e882901c90606490fd5b60006131c28484111583612331565b5050900390565b600073ba1ba1ba1ba1ba1ba1ba1ba1ba1ba1ba1ba1ba1b6131e8611f72565b6001600160a01b0316141580156132035750613203836136fe565b1561322b57613210611f72565b6001600160a01b0316336001600160a01b0316149050611b99565b613233612cfb565b6001600160a01b0316639be2a8848484306040518463ffffffff1660e01b81526004016132629392919061418e565b60206040518083038186803b15801561327a57600080fd5b505afa15801561328e573d6000803e3d6000fd5b505050506040513d601f19601f820116820180604052508101906122b691906139dc565b64e8d4a5100090565b67016345785d8a000090565b60006001821b19841682846132dd5760006132e0565b60015b60ff16901b17949350505050565b600081806020019051810190611b999190613b81565b6000606060006133138461373a565b90506060855167ffffffffffffffff8111801561332f57600080fd5b50604051908082528060200260200182016040528015613359578160200160208202803683370190505b50905060005b865181101561339b5786818151811061337457fe5b602002602001015182828151811061338857fe5b602090810291909101015260010161335f565b50909590945092505050565b60008180602001905181019061232a9190613f09565b606060006133cb838561256e565b9050845167ffffffffffffffff811180156133e557600080fd5b5060405190808252806020026020018201604052801561340f578160200160208202803683370190505b50915060005b8551811015613463576134448287838151811061342e57fe5b602002602001015161311c90919063ffffffff16565b83828151811061345057fe5b6020908102919091010152600101613415565b50509392505050565b6134836001600160a01b038316151561019b612331565b61348f826000836130d0565b6001600160a01b0382166000908152602081905260409020546134b590826101b26131b3565b6001600160a01b0383166000908152602081905260409020556134e86134e3826134dd611b9f565b90613750565b61375e565b60006001600160a01b0316826001600160a01b03167fddf252ad1be2c89b69c2b068fc378daa952ba7f163c4a11628f55a4df523b3ef8360405161352c919061416e565b60405180910390a35050565b60006135478215156004612331565b8261355457506000611b99565b670de0b6b3a76400008381029061356e908583816125a457fe5b82600182038161357a57fe5b04600101915050611b99565b6000613590612fba565b82604051602001611f2f929190614081565b60006135b482516041146101b9612331565b60208281015160408085015160608601518251600080825295019283905292939092811a916001906135ed908990859088908890614294565b6020604051602081039080840390855afa15801561360f573d6000803e3d6000fd5b5050604051601f1901519150506001600160a01b038116158015906136455750876001600160a01b0316816001600160a01b0316145b98975050505050505050565b60608180602001905181019061232a9190613bca565b613673600083836130d0565b6136886134e382613682611b9f565b9061281f565b6001600160a01b0382166000908152602081905260409020546136ab908261281f565b6001600160a01b0383166000818152602081905260408082209390935591519091907fddf252ad1be2c89b69c2b068fc378daa952ba7f163c4a11628f55a4df523b3ef9061352c90859061416e565b4690565b6000613710631c74c91760e11b611efa565b82148061372b57506137286350dd6ed960e01b611efa565b82145b80611b995750611b9982613763565b60008180602001905181019061232a9190613b9d565b600061232a838360016131b3565b600255565b50600090565b604080518082019091526000808252602082015290565b6040805160c081018252600080825260208201819052918101829052606081018290526080810182905260a081019190915290565b8035611b99816145e8565b8051611b99816145e8565b600082601f8301126137db578081fd5b81356137ee6137e9826145c8565b6145a1565b81815291506020808301908481018184028601820187101561380f57600080fd5b60005b8481101561382e57813584529282019290820190600101613812565b505050505092915050565b600082601f830112613849578081fd5b813567ffffffffffffffff81111561385f578182fd5b613872601f8201601f19166020016145a1565b915080825283602082850101111561388957600080fd5b8060208401602084013760009082016020015292915050565b8035611b99816145fd565b6000602082840312156138be578081fd5b813561232a816145e8565b600080604083850312156138db578081fd5b82356138e6816145e8565b915060208301356138f6816145e8565b809150509250929050565b600080600060608486031215613915578081fd5b8335613920816145e8565b92506020840135613930816145e8565b929592945050506040919091013590565b600080600080600080600060e0888a03121561395b578485fd5b8735613966816145e8565b96506020880135613976816145e8565b9550604088013594506060880135935060808801356139948161460a565b9699959850939692959460a0840135945060c09093013592915050565b600080604083850312156139c3578182fd5b82356139ce816145e8565b946020939093013593505050565b6000602082840312156139ed578081fd5b8151801515811461232a578182fd5b600080600080600080600060e0888a031215613a16578081fd5b873596506020880135613a28816145e8565b95506040880135613a38816145e8565b9450606088013567ffffffffffffffff80821115613a54578283fd5b613a608b838c016137cb565b955060808a0135945060a08a0135935060c08a0135915080821115613a83578283fd5b50613a908a828b01613839565b91505092959891949750929550565b60008060408385031215613ab1578182fd5b505080516020909101519092909150565b600080600060608486031215613ad6578081fd5b8351925060208401519150604084015190509250925092565b600060208284031215613b00578081fd5b81356001600160e01b03198116811461232a578182fd5b600060208284031215613b28578081fd5b815161232a816145e8565b60008060408385031215613b45578182fd5b8235613b50816145e8565b9150602083013567ffffffffffffffff811115613b6b578182fd5b613b7785828601613839565b9150509250929050565b600060208284031215613b92578081fd5b815161232a816145fd565b60008060408385031215613baf578182fd5b8251613bba816145fd565b6020939093015192949293505050565b60008060408385031215613bdc578182fd5b825160048110613bea578283fd5b8092505060208084015167ffffffffffffffff811115613c08578283fd5b8401601f81018613613c18578283fd5b8051613c266137e9826145c8565b81815283810190838501858402850186018a1015613c42578687fd5b8694505b83851015613c64578051835260019490940193918501918501613c46565b5080955050505050509250929050565b60008060008060808587031215613c89578182fd5b843567ffffffffffffffff80821115613ca0578384fd5b818701915061012080838a031215613cb6578485fd5b613cbf816145a1565b9050613ccb89846138a2565b8152613cda89602085016137b5565b6020820152613cec89604085016137b5565b6040820152606083013560608201526080830135608082015260a083013560a0820152613d1c8960c085016137b5565b60c0820152613d2e8960e085016137b5565b60e08201526101008084013583811115613d46578687fd5b613d528b828701613839565b828401525050809650506020870135915080821115613d6f578384fd5b50613d7c878288016137cb565b949794965050505060408301359260600135919050565b600060c08284031215613da4578081fd5b613dae60c06145a1565b8251613db9816145e8565b8152602083015160038110613dcc578283fd5b6020820152604083015160058110613de2578283fd5b604082015260608381015190820152613dfe84608085016137c0565b608082015260a083015160a08201528091505092915050565b600060c08284031215613e28578081fd5b613e3260c06145a1565b825181526020830151613e44816145e8565b8060208301525060408301516040820152606083015160608201526080830151608082015260a083015160a08201528091505092915050565b600060208284031215613e8e578081fd5b5035919050565b600060208284031215613ea6578081fd5b5051919050565b60008060008060808587031215613ec2578182fd5b8451935060208501519250604085015191506060850151613ee2816145e8565b939692955090935050565b600060208284031215613efe578081fd5b815161232a8161460a565b60008060408385031215613f1b578182fd5b8251613bba8161460a565b6001600160a01b03169052565b6000815180845260208085019450808401835b83811015613f6257815187529582019590820190600101613f46565b509495945050505050565b60008151808452815b81811015613f9257602081850181015186830182015201613f76565b81811115613fa35782602083870101525b50601f01601f19169290920160200192915050565b6000610120825160028110613fc957fe5b808552506020830151613fdf6020860182613f26565b506040830151613ff26040860182613f26565b50606083015160608501526080830151608085015260a083015160a085015260c083015161402360c0860182613f26565b5060e083015161403660e0860182613f26565b5061010080840151828287015261404f83870182613f6d565b9695505050505050565b9182526001600160e01b031916602082015260240190565b6000828483379101908152919050565b61190160f01b81526002810192909252602282015260420190565b6001600160a01b0391909116815260200190565b6001600160a01b03978816815295871660208701529390951660408501526060840191909152608083015260a082019290925260c081019190915260e00190565b6001600160a01b03929092168252602082015260400190565b60006020825261232a6020830184613f33565b6000604082526141306040830185613f33565b82810360208401526141428185613f33565b95945050505050565b901515815260200190565b92151583526020830191909152604082015260600190565b90815260200190565b9182526001600160a01b0316602082015260400190565b9283526001600160a01b03918216602084015216604082015260600190565b9788526001600160a01b03968716602089015294861660408801526060870193909352608086019190915290921660a084015260c083019190915260e08201526101000190565b9586526001600160a01b0394851660208701529290931660408501526060840152608083019190915260a082015260c00190565b9485526020850193909352604084019190915260608301526001600160a01b0316608082015260a00190565b60008382526040602083015261426d6040830184613f6d565b949350505050565b6000848252836020830152606060408301526141426060830184613fb8565b93845260ff9290921660208401526040830152606082015260800190565b60006020825261232a6020830184613f6d565b602080825260169082015275496e76616c6964207377617070656420746f6b656e7360501b604082015260600190565b60208082526018908201527f4f726465722062656c6f77206d696e696d756d2073697a650000000000000000604082015260600190565b6020808252601f908201527f496e73756666696369656e7420706f6f6c20746f6b656e2062616c616e636500604082015260600190565b6020808252601d908201527f496e73756666696369656e742063757272656e63792062616c616e6365000000604082015260600190565b602080825260169082015275496e73756666696369656e74206c697175696469747960501b604082015260600190565b60208082526023908201527f496e73756666696369656e7420706f6f6c20746f6b656e7320737761707065646040820152621034b760e91b606082015260800190565b6020808252600c908201526b0496e76616c696420737761760a41b604082015260600190565b6020808252601d908201527f496e73756666696369656e742073656375726974792062616c616e6365000000604082015260600190565b60208082526030908201527f496e73756666696369656e7420706f6f6c20746f6b656e73207377617070656460408201526f20696e20666f722063757272656e637960801b606082015260800190565b60208082526030908201527f496e73756666696369656e7420706f6f6c20746f6b656e73207377617070656460408201526f20696e20666f7220736563757269747960801b606082015260800190565b6020808252601d908201527f494e53554646494349454e545f494e5445524e414c5f42414c414e4345000000604082015260600190565b6000606082526145546060830185613fb8565b905082516003811061456257fe5b80602084015250602083015160408301529392505050565b60008382526040602083015261426d6040830184613f33565b60ff91909116815260200190565b60405181810167ffffffffffffffff811182821017156145c057600080fd5b604052919050565b600067ffffffffffffffff8211156145de578081fd5b5060209081020190565b6001600160a01b0381168114611ca157600080fd5b60028110611ca157600080fd5b60ff81168114611ca157600080fdfe9b85ff671b830162b81f1cb1253d54a6fee66e6f9760fc15cfc3fecccca8f118a2646970667358221220e3044287297daa636d9ad9f0fda9d6941864bf6f8515bd7efb8650ebfae94e3364736f6c63430007010033608060405260006005553480156200001657600080fd5b506040516200360638038062003606833981016040819052620000399162000106565b620000443362000098565b600b80546001600160a01b039586166001600160a01b0319918216179091556009805494861694821694909417909355600a805492851692841692909217909155600c805491909316911617905562000166565b600080546001600160a01b038381166001600160a01b0319831681178455604051919092169283917f8be0079c531659141344cd1fd0a4f28419497f9722a3daafe3b4186f6b6457e09190a35050565b80516001600160a01b03811681146200010057600080fd5b92915050565b600080600080608085870312156200011c578384fd5b620001288686620000e8565b9350620001398660208701620000e8565b92506200014a8660408701620000e8565b91506200015b8660608701620000e8565b905092959194509250565b61349080620001766000396000f3fe608060405234801561001057600080fd5b50600436106101005760003560e01c806381b5da1d11610097578063d729cf6c11610066578063d729cf6c14610202578063e43372e914610215578063e5e658fe1461021d578063f2fde38b1461023057610100565b806381b5da1d146101b45780638da5cb5b146101c7578063ca142f75146101cf578063d61aed7a146101ef57610100565b80635487e8cf116100d35780635487e8cf146101605780635778472a146101825780636945c1fd146101a2578063715018a6146101aa57610100565b80632541897f1461010557806338fff2d01461012357806346764e5e1461013857806346b8b7301461014b575b600080fd5b61010d610243565b60405161011a9190613158565b60405180910390f35b61012b610252565b60405161011a91906131a4565b61012b61014636600461306e565b6102e1565b610153610436565b60405161011a919061316c565b61017361016e3660046130bc565b61052b565b60405161011a939291906131ad565b610195610190366004612fc3565b610788565b60405161011a9190613370565b61010d6108aa565b6101b26108b9565b005b6101b26101c2366004613022565b6108d1565b61010d610a06565b6101e26101dd366004612f98565b610a15565b60405161011a91906133d6565b61012b6101fd366004612ff3565b610ad9565b6101b2610210366004612f98565b610c2c565b610153610cd0565b6101b261022b36600461304d565b610d31565b6101b261023e366004612f7c565b610e51565b6009546001600160a01b031690565b600080600c60009054906101000a90046001600160a01b03166001600160a01b03166338fff2d06040518163ffffffff1660e01b815260040160206040518083038186803b1580156102a357600080fd5b505afa1580156102b7573d6000803e3d6000fd5b505050506040513d601f19601f820116820180604052508101906102db9190612fdb565b91505090565b6000610301336102ef610a06565b6001600160a01b0316146101aa610e80565b60008085815260066020526040902054600160a01b900460ff16600281111561032657fe5b141561034d5760405162461bcd60e51b815260040161034490613226565b60405180910390fd5b6002600085815260066020526040902054600160a81b900460ff16600481111561037357fe5b146103905760405162461bcd60e51b8152600401610344906132c1565b60c08201516000858152600660205260409020600201546001600160a01b039081169116146103d15760405162461bcd60e51b81526004016103449061328a565b60008481526006602052604081206003810185905560095490546001600160a01b03908116911614610404576001610407565b60005b9050610414848683610e8e565b5050600092835260066020526040909220600101805460609093015190555090565b600354606090819067ffffffffffffffff8111801561045457600080fd5b5060405190808252806020026020018201604052801561047e578160200160208202803683370190505b5090506000805b60035481101561052357336001600160a01b031660066000600384815481106104aa57fe5b600091825260208083206002928302016001015484528301939093526040909101902001546001600160a01b0316141561051b57600381815481106104eb57fe5b90600052602060002090600202016001015483838151811061050957fe5b60209081029190910101526001909101905b600101610485565b509091505090565b6000808061053b336102ef610a06565b60008451600281111561054a57fe5b1480610562575060018451600281111561056057fe5b145b61056b57600080fd5b60055442141561058357600580546001019055610588565b426005555b60008560c001516005546040516020016105a3929190613136565b6040516020818303038152906040528051906020012090506105c3612da8565b6040518060c0016040528088602001516001600160a01b03168152602001876000015160028111156105f157fe5b81526020016002815260608981015160208084019190915260c08b01516001600160a01b039081166040808601919091528b830151939094019290925260008681526006825292909220835181546001600160a01b0319169216919091178082559183015192935083929091829060ff60a01b1916600160a01b83600281111561067757fe5b021790555060408201518154829060ff60a81b1916600160a81b83600481111561069d57fe5b02179055506060820151600182015560808201516002820180546001600160a01b0319166001600160a01b0390921691909117905560a0909101516003909101556000865160028111156106ed57fe5b141561070c576106ff82826000610f33565b9450945094505050610781565b60018651600281111561071b57fe5b141561077e5760095481516001600160a01b039081169116141561074c576107478660200151836116cd565b610772565b600a5481516001600160a01b0390811691161415610772576107728660200151836118e6565b6106ff82826001610f33565b50505b9250925092565b610790612da8565b610798610a06565b6001600160a01b0316336001600160a01b031614806107c15750600b546001600160a01b031633145b806107e557506000828152600660205260409020600201546001600160a01b031633145b6108015760405162461bcd60e51b8152600401610344906131ef565b600082815260066020908152604091829020825160c0810190935280546001600160a01b03811684529091830190600160a01b900460ff16600281111561084457fe5b600281111561084f57fe5b81528154602090910190600160a81b900460ff16600481111561086e57fe5b600481111561087957fe5b81526001820154602082015260028201546001600160a01b0316604082015260039091015460609091015292915050565b600a546001600160a01b031690565b6108c5336102ef610a06565b6108cf6000611afb565b565b600b546001600160a01b031633148061090257506108ed610a06565b6001600160a01b0316336001600160a01b0316145b61091e5760405162461bcd60e51b81526004016103449061325d565b600092835260066020908152604080852080546001600160b01b031990811682556001808301889055600280840180546001600160a01b0319908116825560039586018b9055988a52858a20805490941684558383018a905583820180548a1681559385018a9055546001600160a01b039081168a526007808852868b20898c528852868b208b815580850180548c1690558084018c90558087018c905560048082018d905560059182018d905595549092168b528752858a20978a529690955292872087815592830180549096169095559181018590559081018490559182018390550155565b6000546001600160a01b031690565b610a1d612de8565b610a25610a06565b6001600160a01b0316336001600160a01b03161480610a4c5750336001600160a01b038416145b610a685760405162461bcd60e51b8152600401610344906132f8565b506001600160a01b038083166000908152600760209081526040808320858452825291829020825160c0810184528154815260018201549094169184019190915260028101549183019190915260038101546060830152600481015460808301526005015460a08201525b92915050565b6000610ae7336102ef610a06565b60008084815260066020526040902054600160a01b900460ff166002811115610b0c57fe5b1415610b2a5760405162461bcd60e51b81526004016103449061332f565b6002600084815260066020526040902054600160a81b900460ff166004811115610b5057fe5b14610b6d5760405162461bcd60e51b8152600401610344906132c1565b6000838152600660205260409020600201546001600160a01b03838116911614610ba95760405162461bcd60e51b81526004016103449061328a565b60095460008481526006602052604081205490916001600160a01b03918216911614610bd6576001610bd9565b60005b9050610be58482611b4b565b505050600090815260066020526040812060018101805482546001600160b01b0319168355908390556002820180546001600160a01b031916905560039091019190915590565b610c38336102ef610a06565b60005b6001600160a01b038316600090815260086020526040902054811015610ccb576001600160a01b0383166000908152600860205260409020805483919083908110610c8257fe5b90600052602060002001541415610cc3576001600160a01b0383166000908152600860205260409020805482908110610cb757fe5b60009182526020822001555b600101610c3b565b505050565b33600090815260086020908152604091829020805483518184028101840190945280845260609392830182828015610d2757602002820191906000526020600020905b815481526020019060010190808311610d13575b5050505050905090565b600b546001600160a01b0316331480610d625750610d4d610a06565b6001600160a01b0316336001600160a01b0316145b610d7e5760405162461bcd60e51b81526004016103449061325d565b60008281526006602052604090206001808201805484019055815460ff60a81b1916600160a91b179182905590600160a01b900460ff166002811115610dc057fe5b1415610e4d576009546000838152600660205260409020546001600160a01b0390811691161415610e0c57600082815260066020526040902060030154610e0790836116cd565b610e4d565b600a546000838152600660205260409020546001600160a01b0390811691161415610e4d57600082815260066020526040902060030154610e4d90836118e6565b5050565b610e5d336102ef610a06565b610e746001600160a01b03821615156101ab610e80565b610e7d81611afb565b50565b81610e4d57610e4d81611cb6565b8015610ee457600082815260026020526040902054600180548592908110610eb257fe5b60009182526020808320600292830201939093558482529091526040902054610edf57610edf6000611cc6565b610ccb565b600082815260046020526040902054600380548592908110610f0257fe5b6000918252602080832060029092029091019290925583815260049091526040902054610ccb57610ccb6000611eb4565b60095482516000918291829182918291829182918291829182916060916001600160a01b0391821691161415610fae5760015467ffffffffffffffff81118015610f7c57600080fd5b50604051908082528060200260200182016040528015610fa6578160200160208202803683370190505b509050610ff5565b60035467ffffffffffffffff81118015610fc757600080fd5b50604051908082528060200260200182016040528015610ff1578160200160208202803683370190505b5090505b610ffe8e6120a0565b909250905060008c600281111561101157fe5b1415611048578c606001518210156110435761102c816123c5565b8d4260009a509a509a5050505050505050506116c4565b611078565b60018c600281111561105657fe5b14156110785781611078578d4260009a509a509a5050505050505050506116c4565b600091505b80518210156116bb5760608d0151611094576116bb565b8d8183815181106110a157fe5b6020026020010151141580156110fa57508c608001516001600160a01b0316600660008385815181106110d057fe5b6020908102919091018101518252810191909152604001600020600201546001600160a01b031614155b8015611148575060006006600083858151811061111357fe5b6020026020010151815260200190815260200160002060000160159054906101000a900460ff16600481111561114557fe5b14155b15611379576006600082848151811061115d57fe5b60200260200101518152602001908152602001600020600301546000148015611188575060a08d0151155b15611192576116b0565b600a5481516001600160a01b03909116906006906000908490869081106111b557fe5b6020908102919091018101518252810191909152604001600020546001600160a01b03161480156111f557506009548d516001600160a01b039081169116145b15611288578c60a001516006600083858151811061120f57fe5b6020026020010151815260200190815260200160002060030154101580611238575060a08d0151155b15611283576006600082848151811061124d57fe5b6020026020010151815260200190815260200160002060030154965080828151811061127557fe5b602002602001015197508194505b611379565b60095481516001600160a01b03909116906006906000908490869081106112ab57fe5b6020908102919091018101518252810191909152604001600020546001600160a01b03161480156112eb5750600a548d516001600160a01b039081169116145b15611379578c60a001516006600083858151811061130557fe5b602002602001015181526020019081526020016000206003015411158061132e575060a08d0151155b15611379576006600082848151811061134357fe5b6020026020010151815260200190815260200160002060030154965080828151811061136b57fe5b602002602001015195508194505b8715611527576009548d516001600160a01b0390811691161415611522576000888152600660205260409020600101546113b39088612504565b93508c6060015184106114c95760608d015193506113d18488612555565b60008981526006602052604090206001015460608f01519194506113f49161258b565b600660008a81526020019081526020016000206001018190555060008d6060018181525050600660008981526020019081526020016000206001015460001461143e576001611441565b60005b6000898152600660205260409020805460ff60a81b1916600160a81b83600481111561146957fe5b0217905550600060408e01526114818e8986866125a1565b945060008d60200151600281111561149557fe5b14156114c45760006114ad8f8f60800151600161289b565b8f9c50959a509498506116c4975050505050505050565b611522565b8315611522576114d98488612555565b92506114e98d606001518561258b565b60608e0152600088815260066020526040808220600180820193909355805460ff60a81b191690558e01526115208e8986866125a1565b505b6116b0565b85156116b057600a548d516001600160a01b03908116911614156116b0576000868152600660205260409020600101546115619088612555565b92508c6060015183106116575760608d0151925061157f8388612504565b60008781526006602052604090206001015490945061159e908561258b565b600660008881526020019081526020016000206001018190555060008d606001818152505060066000878152602001908152602001600020600101546000146115e85760016115eb565b60005b6000878152600660205260409020805460ff60a81b1916600160a81b83600481111561161357fe5b0217905550600060408e015261162b8e8786866125a1565b945060008d60200151600281111561163f57fe5b14156115225760006114ad8f8f60800151600061289b565b82156116b0576116678388612504565b93506116778d606001518461258b565b60608e0152600086815260066020526040808220600180820193909355805460ff60a81b191690558e01526116ae8e8786866125a1565b505b60019091019061107d565b50505050505050505b93509350939050565b60408051808201909152828152602081018281526003805460018082018355600083815294517fc2575a0e9e593c00f959f8c92f12db2869c3395a3b0502d05e2516446f71f85b60029093029283015592517fc2575a0e9e593c00f959f8c92f12db2869c3395a3b0502d05e2516446f71f85c909101555461174e9161258b565b9050600061175f8260026000612a2c565b90505b6000821180156117ad57506003828154811061177a57fe5b9060005260206000209060020201600001546003828154811061179957fe5b906000526020600020906002020160000154115b156118e0576117ba612e1d565b600382815481106117c757fe5b90600052602060002090600202016040518060400160405290816000820154815260200160018201548152505090506003838154811061180357fe5b90600052602060002090600202016003838154811061181e57fe5b9060005260206000209060020201600082015481600001556001820154816001015590505081600460006003868154811061185557fe5b906000526020600020906002020160010154815260200190815260200160002081905550806003848154811061188757fe5b90600052602060002090600202016000820151816000015560208201518160010155905050826004600083602001518152602001908152602001600020819055508192506118d88360026000612a2c565b915050611762565b50505050565b6040805180820190915282815260208101828152600180548082018255600082815293517fb10e2d527612073b26eecdfd717e6a320cf44b4afac2b0732d9fcbe2b7fa0cf660029092029182015591517fb10e2d527612073b26eecdfd717e6a320cf44b4afac2b0732d9fcbe2b7fa0cf79092019190915580546119699161258b565b9050600061197a8260026000612a2c565b90505b6000821180156119c857506001828154811061199557fe5b906000526020600020906002020160000154600182815481106119b457fe5b906000526020600020906002020160000154105b156118e0576119d5612e1d565b600182815481106119e257fe5b906000526020600020906002020160405180604001604052908160008201548152602001600182015481525050905060018381548110611a1e57fe5b906000526020600020906002020160018381548110611a3957fe5b90600052602060002090600202016000820154816000015560018201548160010155905050816002600060018681548110611a7057fe5b9060005260206000209060020201600101548152602001908152602001600020819055508060018481548110611aa257fe5b9060005260206000209060020201600082015181600001556020820151816001015590505082600260008360200151815260200190815260200160002081905550819250611af38360026000612a2c565b91505061197d565b600080546001600160a01b038381166001600160a01b0319831681178455604051919092169283917f8be0079c531659141344cd1fd0a4f28419497f9722a3daafe3b4186f6b6457e09190a35050565b8015611c0357600082815260026020526040902054611b7257611b6c612a54565b50610e07565b60018054611b80908261258b565b81548110611b8a57fe5b90600052602060002090600202016001600260008581526020019081526020016000205481548110611bb857fe5b60009182526020909120825460029092020190815560019182015490820155805480611be057fe5b600082815260208120600260001990930192830201818155600101559055610e4d565b600082815260046020526040902054611c2457611c1e612b73565b50610e4d565b60038054611c3390600161258b565b81548110611c3d57fe5b90600052602060002090600202016003600460008581526020019081526020016000205481548110611c6b57fe5b6000918252602090912082546002909202019081556001918201549101556003805480611c9457fe5b6000828152602081206002600019909301928302018181556001015590555050565b610e7d816210905360ea1b612c8a565b60018054611cd39161258b565b611cde826002612ceb565b1015610e7d576000611cf1826002612ceb565b9050600060018281548110611d0257fe5b6000918252602082206002909102015491506001611d208482612d0c565b81548110611d2a57fe5b906000526020600020906002020160000154905080821015611d5457611d51836001612d0c565b92505b60018381548110611d6157fe5b90600052602060002090600202016000015460018581548110611d8057fe5b9060005260206000209060020201600001541115611da057505050610e7d565b611da8612e1d565b60018581548110611db557fe5b906000526020600020906002020160405180604001604052908160008201548152602001600182015481525050905060018481548110611df157fe5b906000526020600020906002020160018681548110611e0c57fe5b90600052602060002090600202016000820154816000015560018201548160010155905050846002600060018781548110611e4357fe5b9060005260206000209060020201600101548152602001908152602001600020819055508060018581548110611e7557fe5b6000918252602080832084516002938402909101908155938101516001909401939093559282015181529190526040902083905550909150611cc69050565b600354611ec290600161258b565b611ecd826002612ceb565b1015610e7d576000611ee0826002612ceb565b9050600060038281548110611ef157fe5b6000918252602082206002909102015491506003611f10846001612d0c565b81548110611f1a57fe5b906000526020600020906002020160000154905080821115611f4457611f41836001612d0c565b92505b60038381548110611f5157fe5b90600052602060002090600202016000015460038581548110611f7057fe5b9060005260206000209060020201600001541015611f9057505050610e7d565b611f98612e1d565b60038581548110611fa557fe5b906000526020600020906002020160405180604001604052908160008201548152602001600182015481525050905060038481548110611fe157fe5b906000526020600020906002020160038681548110611ffc57fe5b9060005260206000209060020201600082015481600001556001820154816001015590505084600460006003878154811061203357fe5b906000526020600020906002020160010154815260200190815260200160002081905550806003858154811061206557fe5b60009182526020808320845160029093020191825592830151600190910155918101518252600490526040902083905550909150611eb49050565b6009546000828152600660205260408120549091606091839183916001600160a01b03908116911614156121195760015467ffffffffffffffff811180156120e757600080fd5b50604051908082528060200260200182016040528015612111578160200160208202803683370190505b509050612160565b60035467ffffffffffffffff8111801561213257600080fd5b5060405190808252806020026020018201604052801561215c578160200160208202803683370190505b5090505b60095460008681526006602052604081205490916001600160a01b039182169116141561229c575b60015415612291576000868152600660205260409020600301546121aa612d1e565b1015806121c65750600086815260066020526040902060030154155b15612287576121d3612a54565b8282815181106121df57fe5b602002602001018181525050612259836122546006600086868151811061220257fe5b60200260200101518152602001908152602001600020600301546006600087878151811061222c57fe5b602002602001015181526020019081526020016000206001015461250490919063ffffffff16565b612d0c565b600087815260066020526040902060010154909350831061227f575090925090506123c0565b60010161228c565b612291565b612188565b5090925090506123c0565b600a546000878152600660205260409020546001600160a01b03908116911614156123bc575b60035415612291576000868152600660205260409020600301546122e4612d45565b1115806123005750600086815260066020526040902060030154155b156122875761230d612b73565b82828151811061231957fe5b60200260200101818152505061238e836122546006600086868151811061233c57fe5b60200260200101518152602001908152602001600020600101546006600087878151811061236657fe5b602002602001015181526020019081526020016000206003015461255590919063ffffffff16565b60008781526006602052604090206001015490935083106123b4575090925090506123c0565b6001016122c2565b5050505b915091565b60005b8151811015610e4d5760095482516001600160a01b03909116906006906000908590859081106123f457fe5b6020908102919091018101518252810191909152604001600020546001600160a01b03161415612469576124646006600084848151811061243157fe5b602002602001015181526020019081526020016000206003015483838151811061245757fe5b60200260200101516116cd565b6124fc565b600a5482516001600160a01b039091169060069060009085908590811061248c57fe5b6020908102919091018101518252810191909152604001600020546001600160a01b031614156124fc576124fc600660008484815181106124c957fe5b60200260200101518152602001908152602001600020600301548383815181106124ef57fe5b60200260200101516118e6565b6001016123c8565b60006125138215156004610e80565b8261252057506000610ad3565b670de0b6b3a7640000838102906125439085838161253a57fe5b04146005610e80565b82818161254c57fe5b04915050610ad3565b600082820261257984158061257257508385838161256f57fe5b04145b6003610e80565b670de0b6b3a764000090049392505050565b600061259b838311156001610e80565b50900390565b60058054600101908190556000906125b7612de8565b6040518060c00160405280888152602001600660008a815260200190815260200160002060020160009054906101000a90046001600160a01b03166001600160a01b031681526020018781526020018381526020018681526020018581525090508060076000600660008b815260200190815260200160002060020160009054906101000a90046001600160a01b03166001600160a01b03166001600160a01b0316815260200190815260200160002060008481526020019081526020016000206000820151816000015560208201518160010160006101000a8154816001600160a01b0302191690836001600160a01b0316021790555060408201518160020155606082015181600301556080820151816004015560a082015181600501559050508060076000600660008a815260200190815260200160002060020160009054906101000a90046001600160a01b03166001600160a01b03166001600160a01b0316815260200190815260200160002060008481526020019081526020016000206000820151816000015560208201518160010160006101000a8154816001600160a01b0302191690836001600160a01b0316021790555060408201518160020155606082015181600301556080820151816004015560a0820151816005015590505060086000600660008a815260200190815260200160002060020160009054906101000a90046001600160a01b03166001600160a01b03166001600160a01b0316815260200190815260200160002081606001519080600181540180825580915050600190039060005260206000200160009091909190915055600860006006600089815260200190815260200160002060020160009054906101000a90046001600160a01b03166001600160a01b03166001600160a01b03168152602001908152602001600020816060015190806001815401808255809150506001900390600052602060002001600090919091909150558192505050949350505050565b60008060006128a8612de8565b60005b6001600160a01b038716600090815260086020526040902054811015612a20576001600160a01b03871660009081526008602052604090208054829081106128ef57fe5b60009182526020808320909101546001600160a01b03808b168452600783526040808520838652845293849020845160c0810186528154808252600183015490931694810194909452600281015494840194909452600384015460608401526004840154608084015260059093015460a0830152955092508814156129955760008661297f578260800151612985565b8260a001515b90506129918482612d0c565b9350505b6001600160a01b03871660009081526008602052604090208054829081106129b957fe5b600091825260208083209091018290556001600160a01b03891682526007815260408083208784529091528120818155600180820180546001600160a01b0319169055600282018390556003820183905560048201839055600590910191909155016128ab565b50909695505050505050565b600081612a4257612a3d8484612d55565b612a4c565b612a4c8484612d75565b949350505050565b600154600090612a765760405162461bcd60e51b8152600401610344906131c3565b60006001600081548110612a8657fe5b90600052602060002090600202016001015490506001612aac600180549050600161258b565b81548110612ab657fe5b90600052602060002090600202016001600081548110612ad257fe5b906000526020600020906002020160008201548160000155600182015481600101559050506000600260006001600081548110612b0b57fe5b9060005260206000209060020201600101548152602001908152602001600020819055506001805480612b3a57fe5b6000828152602081206002600019909301928302018181556001908101829055919092555415612b6d57612b6d81611cc6565b50905090565b600354600090612b955760405162461bcd60e51b8152600401610344906131c3565b60006003600081548110612ba557fe5b90600052602060002090600202016001015490506003612bcb600380549050600161258b565b81548110612bd557fe5b90600052602060002090600202016003600081548110612bf157fe5b906000526020600020906002020160008201548160000155600182015481600101559050506000600460006003600081548110612c2a57fe5b9060005260206000209060020201600101548152602001908152602001600020819055506003805480612c5957fe5b600082815260208120600260001990930192830201818155600101819055915560035415612b6d57612b6d81611eb4565b62461bcd60e51b600090815260206004526007602452600a808404818106603090810160081b958390069590950190829004918206850160101b01602363ffffff0060e086901c160160181b0190930160c81b60445260e882901c90606490fd5b6000828202612d0584158061257257508385838161256f57fe5b9392505050565b6000828201612d058482101583610e80565b60006001600081548110612d2e57fe5b906000526020600020906002020160000154905090565b60006003600081548110612d2e57fe5b6000612d648215156004610e80565b818381612d6d57fe5b049392505050565b6000612d848215156004610e80565b82612d9157506000610ad3565b816001840381612d9d57fe5b046001019050610ad3565b6040805160c08101909152600080825260208201908152602001600081526020016000815260200160006001600160a01b03168152602001600081525090565b6040805160c081018252600080825260208201819052918101829052606081018290526080810182905260a081019190915290565b604080518082019091526000808252602082015290565b8035610ad381613445565b600082601f830112612e4f578081fd5b813567ffffffffffffffff811115612e65578182fd5b612e78601f8201601f191660200161341e565b9150808252836020828501011115612e8f57600080fd5b8060208401602084013760009082016020015292915050565b803560028110610ad357600080fd5b6000610120808385031215612eca578182fd5b612ed38161341e565b915050612ee08383612ea8565b8152612eef8360208401612e34565b6020820152612f018360408401612e34565b6040820152606082013560608201526080820135608082015260a082013560a0820152612f318360c08401612e34565b60c0820152612f438360e08401612e34565b60e08201526101008083013567ffffffffffffffff811115612f6457600080fd5b612f7085828601612e3f565b82840152505092915050565b600060208284031215612f8d578081fd5b8135612d0581613445565b60008060408385031215612faa578081fd5b8235612fb581613445565b946020939093013593505050565b600060208284031215612fd4578081fd5b5035919050565b600060208284031215612fec578081fd5b5051919050565b60008060408385031215613005578182fd5b82359150602083013561301781613445565b809150509250929050565b600080600060608486031215613036578081fd5b505081359360208301359350604090920135919050565b6000806040838503121561305f578182fd5b50508035926020909101359150565b600080600060608486031215613082578283fd5b8335925060208401359150604084013567ffffffffffffffff8111156130a6578182fd5b6130b286828701612eb7565b9150509250925092565b60008082840360608112156130cf578283fd5b833567ffffffffffffffff8111156130e5578384fd5b6130f186828701612eb7565b9350506040601f1982011215613105578182fd5b50613110604061341e565b602084013560038110613121578283fd5b81526040939093013560208401525092909150565b60609290921b6bffffffffffffffffffffffff19168252601482015260340190565b6001600160a01b0391909116815260200190565b6020808252825182820181905260009190848201906040850190845b81811015612a2057835183529284019291840191600101613188565b90815260200190565b9283526020830191909152604082015260600190565b6020808252601290820152714f72646572626f6f6b20697320656d70747960701b604082015260600190565b6020808252601d908201527f556e617574686f72697a65642061636365737320746f206f7264657273000000604082015260600190565b6020808252601f908201527f4d61726b6574206f726465722063616e206e6f74206265206368616e67656400604082015260600190565b602080825260139082015272556e617574686f72697a65642061636365737360681b604082015260600190565b6020808252601b908201527f53656e646572206973206e6f74206f726465722063726561746f720000000000604082015260600190565b60208082526017908201527f4f7264657220697320616c72656164792066696c6c6564000000000000000000604082015260600190565b6020808252601d908201527f556e617574686f72697a65642061636365737320746f20747261646573000000604082015260600190565b60208082526021908201527f4d61726b6574206f726465722063616e206e6f742062652063616e63656c6c656040820152601960fa1b606082015260800190565b81516001600160a01b039081168252602083015160c0830191906003811061339457fe5b60208401526040840151600581106133a857fe5b80604085015250606084015160608401528060808501511660808401525060a083015160a083015292915050565b815181526020808301516001600160a01b03169082015260408083015190820152606080830151908201526080808301519082015260a0918201519181019190915260c00190565b60405181810167ffffffffffffffff8111828210171561343d57600080fd5b604052919050565b6001600160a01b0381168114610e7d57600080fdfea264697066735822122049501b202b5df2c5c8671958fca7f175b0d2d3d87c46cbbcc6392b9eb6fefede64736f6c63430007010033",
  "linkReferences": {},
  "deployedLinkReferences": {}
}