{
  "_format": "hh-sol-artifact-1",
  "contractName": "SecondaryIssuePool",
  "sourceName": "contracts/SecondaryIssuePool.sol",
  "abi": [
    {
      "inputs": [
        {
          "internalType": "contract IVault",
          "name": "vault",
          "type": "address"
        },
        {
          "internalType": "string",
          "name": "name",
          "type": "string"
        },
        {
          "internalType": "string",
          "name": "symbol",
          "type": "string"
        },
        {
          "internalType": "address",
          "name": "security",
          "type": "address"
        },
        {
          "internalType": "address",
          "name": "currency",
          "type": "address"
        },
        {
          "internalType": "uint256",
          "name": "maxSecurityOffered",
          "type": "uint256"
        },
        {
          "internalType": "uint256",
          "name": "tradeFeePercentage",
          "type": "uint256"
        },
        {
          "internalType": "uint256",
          "name": "pauseWindowDuration",
          "type": "uint256"
        },
        {
          "internalType": "uint256",
          "name": "bufferPeriodDuration",
          "type": "uint256"
        },
        {
          "internalType": "address",
          "name": "owner",
          "type": "address"
        }
      ],
      "stateMutability": "nonpayable",
      "type": "constructor"
    },
    {
      "anonymous": false,
      "inputs": [
        {
          "indexed": true,
          "internalType": "address",
          "name": "owner",
          "type": "address"
        },
        {
          "indexed": true,
          "internalType": "address",
          "name": "spender",
          "type": "address"
        },
        {
          "indexed": false,
          "internalType": "uint256",
          "name": "value",
          "type": "uint256"
        }
      ],
      "name": "Approval",
      "type": "event"
    },
    {
      "anonymous": false,
      "inputs": [
        {
          "indexed": true,
          "internalType": "address",
          "name": "security",
          "type": "address"
        },
        {
          "indexed": false,
          "internalType": "uint256",
          "name": "secondaryOffer",
          "type": "uint256"
        }
      ],
      "name": "Offer",
      "type": "event"
    },
    {
      "anonymous": false,
      "inputs": [
        {
          "indexed": false,
          "internalType": "bool",
          "name": "paused",
          "type": "bool"
        }
      ],
      "name": "PausedStateChanged",
      "type": "event"
    },
    {
      "anonymous": false,
      "inputs": [
        {
          "indexed": false,
          "internalType": "bool",
          "name": "enabled",
          "type": "bool"
        }
      ],
      "name": "RecoveryModeStateChanged",
      "type": "event"
    },
    {
      "anonymous": false,
      "inputs": [
        {
          "indexed": false,
          "internalType": "uint256",
          "name": "swapFeePercentage",
          "type": "uint256"
        }
      ],
      "name": "SwapFeePercentageChanged",
      "type": "event"
    },
    {
      "anonymous": false,
      "inputs": [
        {
          "indexed": true,
          "internalType": "address",
          "name": "from",
          "type": "address"
        },
        {
          "indexed": true,
          "internalType": "address",
          "name": "to",
          "type": "address"
        },
        {
          "indexed": false,
          "internalType": "uint256",
          "name": "value",
          "type": "uint256"
        }
      ],
      "name": "Transfer",
      "type": "event"
    },
    {
      "anonymous": false,
      "inputs": [
        {
          "indexed": false,
          "internalType": "uint256",
          "name": "bestUnfilledBid",
          "type": "uint256"
        },
        {
          "indexed": false,
          "internalType": "uint256",
          "name": "bestUnfilledOffer",
          "type": "uint256"
        }
      ],
      "name": "bestAvailableTrades",
      "type": "event"
    },
    {
      "anonymous": false,
      "inputs": [
        {
          "indexed": true,
          "internalType": "address",
          "name": "security",
          "type": "address"
        },
        {
          "indexed": false,
          "internalType": "address",
          "name": "party",
          "type": "address"
        },
        {
          "indexed": false,
          "internalType": "address",
          "name": "counterparty",
          "type": "address"
        },
        {
          "indexed": false,
          "internalType": "uint256",
          "name": "price",
          "type": "uint256"
        },
        {
          "indexed": false,
          "internalType": "uint256",
          "name": "askprice",
          "type": "uint256"
        },
        {
          "indexed": false,
          "internalType": "address",
          "name": "currency",
          "type": "address"
        },
        {
          "indexed": false,
          "internalType": "uint256",
          "name": "amount",
          "type": "uint256"
        },
        {
          "indexed": false,
          "internalType": "bytes32",
          "name": "status",
          "type": "bytes32"
        },
        {
          "indexed": false,
          "internalType": "uint256",
          "name": "executionDate",
          "type": "uint256"
        }
      ],
      "name": "tradeReport",
      "type": "event"
    },
    {
      "inputs": [],
      "name": "DOMAIN_SEPARATOR",
      "outputs": [
        {
          "internalType": "bytes32",
          "name": "",
          "type": "bytes32"
        }
      ],
      "stateMutability": "view",
      "type": "function"
    },
    {
      "inputs": [
        {
          "internalType": "address",
          "name": "owner",
          "type": "address"
        },
        {
          "internalType": "address",
          "name": "spender",
          "type": "address"
        }
      ],
      "name": "allowance",
      "outputs": [
        {
          "internalType": "uint256",
          "name": "",
          "type": "uint256"
        }
      ],
      "stateMutability": "view",
      "type": "function"
    },
    {
      "inputs": [
        {
          "internalType": "address",
          "name": "spender",
          "type": "address"
        },
        {
          "internalType": "uint256",
          "name": "amount",
          "type": "uint256"
        }
      ],
      "name": "approve",
      "outputs": [
        {
          "internalType": "bool",
          "name": "",
          "type": "bool"
        }
      ],
      "stateMutability": "nonpayable",
      "type": "function"
    },
    {
      "inputs": [
        {
          "internalType": "address",
          "name": "account",
          "type": "address"
        }
      ],
      "name": "balanceOf",
      "outputs": [
        {
          "internalType": "uint256",
          "name": "",
          "type": "uint256"
        }
      ],
      "stateMutability": "view",
      "type": "function"
    },
    {
      "inputs": [
        {
          "internalType": "bytes32",
          "name": "ref",
          "type": "bytes32"
        }
      ],
      "name": "cancelOrder",
      "outputs": [],
      "stateMutability": "nonpayable",
      "type": "function"
    },
    {
      "inputs": [],
      "name": "decimals",
      "outputs": [
        {
          "internalType": "uint8",
          "name": "",
          "type": "uint8"
        }
      ],
      "stateMutability": "view",
      "type": "function"
    },
    {
      "inputs": [
        {
          "internalType": "address",
          "name": "spender",
          "type": "address"
        },
        {
          "internalType": "uint256",
          "name": "amount",
          "type": "uint256"
        }
      ],
      "name": "decreaseAllowance",
      "outputs": [
        {
          "internalType": "bool",
          "name": "",
          "type": "bool"
        }
      ],
      "stateMutability": "nonpayable",
      "type": "function"
    },
    {
      "inputs": [],
      "name": "disableRecoveryMode",
      "outputs": [],
      "stateMutability": "nonpayable",
      "type": "function"
    },
    {
      "inputs": [
        {
          "internalType": "bytes32",
          "name": "ref",
          "type": "bytes32"
        },
        {
          "internalType": "uint256",
          "name": "_price",
          "type": "uint256"
        },
        {
          "internalType": "uint256",
          "name": "_qty",
          "type": "uint256"
        }
      ],
      "name": "editOrder",
      "outputs": [],
      "stateMutability": "nonpayable",
      "type": "function"
    },
    {
      "inputs": [],
      "name": "enableRecoveryMode",
      "outputs": [],
      "stateMutability": "nonpayable",
      "type": "function"
    },
    {
      "inputs": [
        {
          "internalType": "bytes4",
          "name": "selector",
          "type": "bytes4"
        }
      ],
      "name": "getActionId",
      "outputs": [
        {
          "internalType": "bytes32",
          "name": "",
          "type": "bytes32"
        }
      ],
      "stateMutability": "view",
      "type": "function"
    },
    {
      "inputs": [],
      "name": "getAuthorizer",
      "outputs": [
        {
          "internalType": "contract IAuthorizer",
          "name": "",
          "type": "address"
        }
      ],
      "stateMutability": "view",
      "type": "function"
    },
    {
      "inputs": [],
      "name": "getCurrency",
      "outputs": [
        {
          "internalType": "address",
          "name": "",
          "type": "address"
        }
      ],
      "stateMutability": "view",
      "type": "function"
    },
    {
      "inputs": [],
      "name": "getDomainSeparator",
      "outputs": [
        {
          "internalType": "bytes32",
          "name": "",
          "type": "bytes32"
        }
      ],
      "stateMutability": "view",
      "type": "function"
    },
    {
      "inputs": [
        {
          "internalType": "address",
          "name": "account",
          "type": "address"
        }
      ],
      "name": "getNextNonce",
      "outputs": [
        {
          "internalType": "uint256",
          "name": "",
          "type": "uint256"
        }
      ],
      "stateMutability": "view",
      "type": "function"
    },
    {
      "inputs": [],
      "name": "getOrderRef",
      "outputs": [
        {
          "internalType": "bytes32[]",
          "name": "",
          "type": "bytes32[]"
        }
      ],
      "stateMutability": "view",
      "type": "function"
    },
    {
      "inputs": [],
      "name": "getOwner",
      "outputs": [
        {
          "internalType": "address",
          "name": "",
          "type": "address"
        }
      ],
      "stateMutability": "view",
      "type": "function"
    },
    {
      "inputs": [],
      "name": "getPausedState",
      "outputs": [
        {
          "internalType": "bool",
          "name": "paused",
          "type": "bool"
        },
        {
          "internalType": "uint256",
          "name": "pauseWindowEndTime",
          "type": "uint256"
        },
        {
          "internalType": "uint256",
          "name": "bufferPeriodEndTime",
          "type": "uint256"
        }
      ],
      "stateMutability": "view",
      "type": "function"
    },
    {
      "inputs": [],
      "name": "getPoolId",
      "outputs": [
        {
          "internalType": "bytes32",
          "name": "",
          "type": "bytes32"
        }
      ],
      "stateMutability": "view",
      "type": "function"
    },
    {
      "inputs": [],
      "name": "getProtocolFeesCollector",
      "outputs": [
        {
          "internalType": "contract IProtocolFeesCollector",
          "name": "",
          "type": "address"
        }
      ],
      "stateMutability": "view",
      "type": "function"
    },
    {
      "inputs": [],
      "name": "getScalingFactors",
      "outputs": [
        {
          "internalType": "uint256[]",
          "name": "",
          "type": "uint256[]"
        }
      ],
      "stateMutability": "view",
      "type": "function"
    },
    {
      "inputs": [],
      "name": "getSecurity",
      "outputs": [
        {
          "internalType": "address",
          "name": "",
          "type": "address"
        }
      ],
      "stateMutability": "view",
      "type": "function"
    },
    {
      "inputs": [],
      "name": "getSecurityOffered",
      "outputs": [
        {
          "internalType": "uint256",
          "name": "",
          "type": "uint256"
        }
      ],
      "stateMutability": "view",
      "type": "function"
    },
    {
      "inputs": [],
      "name": "getSwapFeePercentage",
      "outputs": [
        {
          "internalType": "uint256",
          "name": "",
          "type": "uint256"
        }
      ],
      "stateMutability": "view",
      "type": "function"
    },
    {
      "inputs": [
        {
          "internalType": "bytes32",
          "name": "ref",
          "type": "bytes32"
        }
      ],
      "name": "getTrade",
      "outputs": [
        {
          "internalType": "uint256",
          "name": "b",
          "type": "uint256"
        },
        {
          "internalType": "uint256",
          "name": "a",
          "type": "uint256"
        }
      ],
      "stateMutability": "view",
      "type": "function"
    },
    {
      "inputs": [],
      "name": "getVault",
      "outputs": [
        {
          "internalType": "contract IVault",
          "name": "",
          "type": "address"
        }
      ],
      "stateMutability": "view",
      "type": "function"
    },
    {
      "inputs": [],
      "name": "inRecoveryMode",
      "outputs": [
        {
          "internalType": "bool",
          "name": "",
          "type": "bool"
        }
      ],
      "stateMutability": "view",
      "type": "function"
    },
    {
      "inputs": [
        {
          "internalType": "address",
          "name": "spender",
          "type": "address"
        },
        {
          "internalType": "uint256",
          "name": "addedValue",
          "type": "uint256"
        }
      ],
      "name": "increaseAllowance",
      "outputs": [
        {
          "internalType": "bool",
          "name": "",
          "type": "bool"
        }
      ],
      "stateMutability": "nonpayable",
      "type": "function"
    },
    {
      "inputs": [],
      "name": "initialize",
      "outputs": [],
      "stateMutability": "nonpayable",
      "type": "function"
    },
    {
      "inputs": [],
      "name": "name",
      "outputs": [
        {
          "internalType": "string",
          "name": "",
          "type": "string"
        }
      ],
      "stateMutability": "view",
      "type": "function"
    },
    {
      "inputs": [
        {
          "internalType": "address",
          "name": "owner",
          "type": "address"
        }
      ],
      "name": "nonces",
      "outputs": [
        {
          "internalType": "uint256",
          "name": "",
          "type": "uint256"
        }
      ],
      "stateMutability": "view",
      "type": "function"
    },
    {
      "inputs": [
        {
          "internalType": "bytes32",
          "name": "poolId",
          "type": "bytes32"
        },
        {
          "internalType": "address",
          "name": "sender",
          "type": "address"
        },
        {
          "internalType": "address",
          "name": "recipient",
          "type": "address"
        },
        {
          "internalType": "uint256[]",
          "name": "balances",
          "type": "uint256[]"
        },
        {
          "internalType": "uint256",
          "name": "lastChangeBlock",
          "type": "uint256"
        },
        {
          "internalType": "uint256",
          "name": "protocolSwapFeePercentage",
          "type": "uint256"
        },
        {
          "internalType": "bytes",
          "name": "userData",
          "type": "bytes"
        }
      ],
      "name": "onExitPool",
      "outputs": [
        {
          "internalType": "uint256[]",
          "name": "",
          "type": "uint256[]"
        },
        {
          "internalType": "uint256[]",
          "name": "",
          "type": "uint256[]"
        }
      ],
      "stateMutability": "nonpayable",
      "type": "function"
    },
    {
      "inputs": [
        {
          "internalType": "bytes32",
          "name": "poolId",
          "type": "bytes32"
        },
        {
          "internalType": "address",
          "name": "sender",
          "type": "address"
        },
        {
          "internalType": "address",
          "name": "recipient",
          "type": "address"
        },
        {
          "internalType": "uint256[]",
          "name": "balances",
          "type": "uint256[]"
        },
        {
          "internalType": "uint256",
          "name": "lastChangeBlock",
          "type": "uint256"
        },
        {
          "internalType": "uint256",
          "name": "protocolSwapFeePercentage",
          "type": "uint256"
        },
        {
          "internalType": "bytes",
          "name": "userData",
          "type": "bytes"
        }
      ],
      "name": "onJoinPool",
      "outputs": [
        {
          "internalType": "uint256[]",
          "name": "",
          "type": "uint256[]"
        },
        {
          "internalType": "uint256[]",
          "name": "",
          "type": "uint256[]"
        }
      ],
      "stateMutability": "nonpayable",
      "type": "function"
    },
    {
      "inputs": [
        {
          "components": [
            {
              "internalType": "enum IVault.SwapKind",
              "name": "kind",
              "type": "uint8"
            },
            {
              "internalType": "contract IERC20",
              "name": "tokenIn",
              "type": "address"
            },
            {
              "internalType": "contract IERC20",
              "name": "tokenOut",
              "type": "address"
            },
            {
              "internalType": "uint256",
              "name": "amount",
              "type": "uint256"
            },
            {
              "internalType": "bytes32",
              "name": "poolId",
              "type": "bytes32"
            },
            {
              "internalType": "uint256",
              "name": "lastChangeBlock",
              "type": "uint256"
            },
            {
              "internalType": "address",
              "name": "from",
              "type": "address"
            },
            {
              "internalType": "address",
              "name": "to",
              "type": "address"
            },
            {
              "internalType": "bytes",
              "name": "userData",
              "type": "bytes"
            }
          ],
          "internalType": "struct IPoolSwapStructs.SwapRequest",
          "name": "request",
          "type": "tuple"
        },
        {
          "internalType": "uint256[]",
          "name": "balances",
          "type": "uint256[]"
        },
        {
          "internalType": "uint256",
          "name": "indexIn",
          "type": "uint256"
        },
        {
          "internalType": "uint256",
          "name": "indexOut",
          "type": "uint256"
        }
      ],
      "name": "onSwap",
      "outputs": [
        {
          "internalType": "uint256",
          "name": "",
          "type": "uint256"
        }
      ],
      "stateMutability": "nonpayable",
      "type": "function"
    },
    {
      "inputs": [
        {
          "internalType": "bytes32",
          "name": "partyRef",
          "type": "bytes32"
        },
        {
          "internalType": "bytes32",
          "name": "counterpartyRef",
          "type": "bytes32"
        }
      ],
      "name": "orderFilled",
      "outputs": [],
      "stateMutability": "nonpayable",
      "type": "function"
    },
    {
      "inputs": [],
      "name": "pause",
      "outputs": [],
      "stateMutability": "nonpayable",
      "type": "function"
    },
    {
      "inputs": [
        {
          "internalType": "address",
          "name": "owner",
          "type": "address"
        },
        {
          "internalType": "address",
          "name": "spender",
          "type": "address"
        },
        {
          "internalType": "uint256",
          "name": "value",
          "type": "uint256"
        },
        {
          "internalType": "uint256",
          "name": "deadline",
          "type": "uint256"
        },
        {
          "internalType": "uint8",
          "name": "v",
          "type": "uint8"
        },
        {
          "internalType": "bytes32",
          "name": "r",
          "type": "bytes32"
        },
        {
          "internalType": "bytes32",
          "name": "s",
          "type": "bytes32"
        }
      ],
      "name": "permit",
      "outputs": [],
      "stateMutability": "nonpayable",
      "type": "function"
    },
    {
      "inputs": [
        {
          "internalType": "bytes32",
          "name": "poolId",
          "type": "bytes32"
        },
        {
          "internalType": "address",
          "name": "sender",
          "type": "address"
        },
        {
          "internalType": "address",
          "name": "recipient",
          "type": "address"
        },
        {
          "internalType": "uint256[]",
          "name": "balances",
          "type": "uint256[]"
        },
        {
          "internalType": "uint256",
          "name": "lastChangeBlock",
          "type": "uint256"
        },
        {
          "internalType": "uint256",
          "name": "protocolSwapFeePercentage",
          "type": "uint256"
        },
        {
          "internalType": "bytes",
          "name": "userData",
          "type": "bytes"
        }
      ],
      "name": "queryExit",
      "outputs": [
        {
          "internalType": "uint256",
          "name": "bptIn",
          "type": "uint256"
        },
        {
          "internalType": "uint256[]",
          "name": "amountsOut",
          "type": "uint256[]"
        }
      ],
      "stateMutability": "view",
      "type": "function"
    },
    {
      "inputs": [
        {
          "internalType": "bytes32",
          "name": "poolId",
          "type": "bytes32"
        },
        {
          "internalType": "address",
          "name": "sender",
          "type": "address"
        },
        {
          "internalType": "address",
          "name": "recipient",
          "type": "address"
        },
        {
          "internalType": "uint256[]",
          "name": "balances",
          "type": "uint256[]"
        },
        {
          "internalType": "uint256",
          "name": "lastChangeBlock",
          "type": "uint256"
        },
        {
          "internalType": "uint256",
          "name": "protocolSwapFeePercentage",
          "type": "uint256"
        },
        {
          "internalType": "bytes",
          "name": "userData",
          "type": "bytes"
        }
      ],
      "name": "queryJoin",
      "outputs": [
        {
          "internalType": "uint256",
          "name": "bptOut",
          "type": "uint256"
        },
        {
          "internalType": "uint256[]",
          "name": "amountsIn",
          "type": "uint256[]"
        }
      ],
      "stateMutability": "view",
      "type": "function"
    },
    {
      "inputs": [
        {
          "internalType": "bytes32",
          "name": "_orderRef",
          "type": "bytes32"
        },
        {
          "internalType": "uint256",
          "name": "_qty",
          "type": "uint256"
        },
        {
          "internalType": "bytes32",
          "name": "_order",
          "type": "bytes32"
        }
      ],
      "name": "revertTrade",
      "outputs": [],
      "stateMutability": "nonpayable",
      "type": "function"
    },
    {
      "inputs": [
        {
          "internalType": "contract IERC20",
          "name": "token",
          "type": "address"
        },
        {
          "internalType": "bytes",
          "name": "poolConfig",
          "type": "bytes"
        }
      ],
      "name": "setAssetManagerPoolConfig",
      "outputs": [],
      "stateMutability": "nonpayable",
      "type": "function"
    },
    {
      "inputs": [
        {
          "internalType": "uint256",
          "name": "swapFeePercentage",
          "type": "uint256"
        }
      ],
      "name": "setSwapFeePercentage",
      "outputs": [],
      "stateMutability": "nonpayable",
      "type": "function"
    },
    {
      "inputs": [],
      "name": "symbol",
      "outputs": [
        {
          "internalType": "string",
          "name": "",
          "type": "string"
        }
      ],
      "stateMutability": "view",
      "type": "function"
    },
    {
      "inputs": [],
      "name": "totalSupply",
      "outputs": [
        {
          "internalType": "uint256",
          "name": "",
          "type": "uint256"
        }
      ],
      "stateMutability": "view",
      "type": "function"
    },
    {
      "inputs": [
        {
          "internalType": "bytes32",
          "name": "tradeRef",
          "type": "bytes32"
        },
        {
          "internalType": "bytes32",
          "name": "partyRef",
          "type": "bytes32"
        },
        {
          "internalType": "bytes32",
          "name": "counterpartyRef",
          "type": "bytes32"
        }
      ],
      "name": "tradeSettled",
      "outputs": [],
      "stateMutability": "nonpayable",
      "type": "function"
    },
    {
      "inputs": [
        {
          "internalType": "address",
          "name": "recipient",
          "type": "address"
        },
        {
          "internalType": "uint256",
          "name": "amount",
          "type": "uint256"
        }
      ],
      "name": "transfer",
      "outputs": [
        {
          "internalType": "bool",
          "name": "",
          "type": "bool"
        }
      ],
      "stateMutability": "nonpayable",
      "type": "function"
    },
    {
      "inputs": [
        {
          "internalType": "address",
          "name": "sender",
          "type": "address"
        },
        {
          "internalType": "address",
          "name": "recipient",
          "type": "address"
        },
        {
          "internalType": "uint256",
          "name": "amount",
          "type": "uint256"
        }
      ],
      "name": "transferFrom",
      "outputs": [
        {
          "internalType": "bool",
          "name": "",
          "type": "bool"
        }
      ],
      "stateMutability": "nonpayable",
      "type": "function"
    },
    {
      "inputs": [],
      "name": "unpause",
      "outputs": [],
      "stateMutability": "nonpayable",
      "type": "function"
    }
  ],
  "bytecode": "0x610260604052600a805460ff60a01b1916600160a01b17905560006019819055601b819055601c553480156200003457600080fd5b5060405162006116380380620061168339810160408190526200005791620009cc565b8960008a8a620000698b8b306200040b565b6040805160038082526080820190925290602082016060803683370190505089898989828289898d85336001600160a01b031660001b8480604051806040016040528060018152602001603160f81b81525087878160039080519060200190620000d59291906200083d565b508051620000eb9060049060208401906200083d565b50506005805460ff19166012179055508151602092830120608052805191012060a052507f8b73c3c69bb8fe3d512ecc4cf759cc79239f7b179b0ffacaa9a75d522b39400f60c05260e0526001600160601b0319606091821b81166101005291901b1661012052506200016990506276a700831115610194620004da565b6200017d62278d00821115610195620004da565b42909101610140819052016101605285516200019f906002111560c8620004da565b620001b9620001ad620004ef565b8751111560c9620004da565b620001cf86620004f460201b62001ceb1760201c565b620001da8462000500565b6040516309b2760f60e01b81526000906001600160a01b038c16906309b2760f906200020b908d9060040162000b47565b602060405180830381600087803b1580156200022657600080fd5b505af11580156200023b573d6000803e3d6000fd5b505050506040513d601f19601f820116820180604052508101906200026191906200098d565b604051633354e3e960e11b81529091506001600160a01b038c16906366a9c7d290620002969084908b908b9060040162000aab565b600060405180830381600087803b158015620002b157600080fd5b505af1158015620002c6573d6000803e3d6000fd5b505050508061018081815250508a6001600160a01b031663d2946c2b6040518163ffffffff1660e01b815260040160206040518083038186803b1580156200030d57600080fd5b505afa15801562000322573d6000803e3d6000fd5b505050506040513d601f19601f82011682018060405250810190620003489190620009a6565b6001600160a01b03166101a0816001600160a01b031660601b815250505050505050505050505050866001600160a01b03166101c0816001600160a01b031660601b81525050856001600160a01b03166101e0816001600160a01b031660601b815250506000806000620003c48a8a306200059460201b60201c565b6102005261022091909152610240525050506009949094555050600a80546001600160a01b0319166001600160a01b03909316929092179091555062000b87945050505050565b6060600080806200041e87878762000594565b60408051600380825260808201909252939650919450925060208201606080368337019050509350868484815181106200045457fe5b60200260200101906001600160a01b031690816001600160a01b031681525050858483815181106200048257fe5b60200260200101906001600160a01b031690816001600160a01b03168152505084848281518110620004b057fe5b60200260200101906001600160a01b031690816001600160a01b0316815250505050509392505050565b81620004eb57620004eb816200068a565b5050565b600390565b80620004eb816200069f565b620005196200050e6200072b565b82101560cb620004da565b620005326200052762000734565b82111560ca620004da565b620005548160c0603f6008546200074060201b62001cf517909392919060201c565b6008556040517fa9ba3ffe0b6c366b81232caab38605a0699ad5398d6cce76f91ee809e322dafc906200058990839062000b5c565b60405180910390a150565b6000806000846001600160a01b0316866001600160a01b031610156200061d57836001600160a01b0316856001600160a01b03161015620005e057506000915060019050600262000681565b836001600160a01b0316866001600160a01b031610156200060c57506000915060029050600162000681565b506001915060029050600062000681565b846001600160a01b0316846001600160a01b031610156200064957506002915060019050600062000681565b856001600160a01b0316846001600160a01b031610156200067557506002915060009050600162000681565b50600191506000905060025b93509350939050565b6200069c816210905360ea1b62000765565b50565b600281511015620006b0576200069c565b600081600081518110620006c057fe5b602002602001015190506000600190505b825181101562000726576000838281518110620006ea57fe5b602002602001015190506200071b816001600160a01b0316846001600160a01b0316106065620004da60201b60201c565b9150600101620006d1565b505050565b64e8d4a5100090565b67016345785d8a000090565b60006200074f848484620007c6565b506001901b60001901811b1992909216911b1790565b62461bcd60e51b600090815260206004526007602452600a808404818106603090810160081b958390069590950190829004918206850160101b01602363ffffff0060e086901c160160181b0190930160c81b60445260e882901c90606490fd5b620007d761010083106064620004da565b62000810600182101580156200080857506200080460ff84610100036200082160201b62001d181760201c565b8211155b6064620004da565b6200072683821c156101b4620004da565b600081831062000832578162000834565b825b90505b92915050565b828054600181600116156101000203166002900490600052602060002090601f016020900481019282601f106200088057805160ff1916838001178555620008b0565b82800160010185558215620008b0579182015b82811115620008b057825182559160200191906001019062000893565b50620008be929150620008c2565b5090565b5b80821115620008be5760008155600101620008c3565b8051620008378162000b71565b600082601f830112620008f7578081fd5b81516001600160401b03808211156200090e578283fd5b6040516020601f8401601f191682018101838111838210171562000930578586fd5b806040525081945083825286818588010111156200094d57600080fd5b600092505b8383101562000971578583018101518284018201529182019162000952565b83831115620009835760008185840101525b5050505092915050565b6000602082840312156200099f578081fd5b5051919050565b600060208284031215620009b8578081fd5b8151620009c58162000b71565b9392505050565b6000806000806000806000806000806101408b8d031215620009ec578586fd5b620009f88c8c620008d9565b60208c0151909a506001600160401b038082111562000a15578788fd5b62000a238e838f01620008e6565b9a5060408d015191508082111562000a39578788fd5b5062000a488d828e01620008e6565b98505062000a5a8c60608d01620008d9565b965062000a6b8c60808d01620008d9565b955060a08b0151945060c08b0151935060e08b015192506101008b0151915062000a9a8c6101208d01620008d9565b90509295989b9194979a5092959850565b60006060820185835260206060818501528186518084526080860191508288019350845b8181101562000af75762000ae4855162000b65565b8352938301939183019160010162000acf565b505084810360408601528551808252908201925081860190845b8181101562000b395762000b26835162000b65565b8552938301939183019160010162000b11565b509298975050505050505050565b602081016003831062000b5657fe5b91905290565b90815260200190565b6001600160a01b031690565b6001600160a01b03811681146200069c57600080fd5b60805160a05160c05160e0516101005160601c6101205160601c6101405161016051610180516101a05160601c6101c05160601c6101e05160601c61020051610220516102405161548262000c946000398061086352806109dc5280611db0528061212b5250806108a75280611d6f528061217852508061154a5280611df1528061323d525080610757528061099852806111d352806145e3528061478452508061081f5280610a075280611033528061163852806118f052806119af52806145a85280614735525080611ad452508061108652508061294252508061291e52508061182752508061180352508061178d5250806132bd5250806132ff5250806132de52506154826000f3fe608060405234801561001057600080fd5b50600436106103205760003560e01c80637489ec23116101a757806395d89b41116100ee578063b7b814fc11610097578063d5c096c411610071578063d5c096c41461061e578063dd62ed3e14610631578063ed24911d1461064457610320565b8063b7b814fc146105fb578063d2946c2b14610603578063d505accf1461060b57610320565b8063a9059cbb116100c8578063a9059cbb146105d8578063aaabadc5146105eb578063b35056b8146105f357610320565b806395d89b411461059c578063a3b13799146105a4578063a457c2d7146105c557610320565b8063851c1bb3116101505780638d928af81161012a5780638d928af81461057957806390193b7c1461058157806395c95a4f1461059457610320565b8063851c1bb31461054b57806387ec68171461055e578063893d20e81461057157610320565b80638129fc1c116101815780638129fc1c1461052857806382fce88f146105305780638456cb591461054357610320565b80637489ec23146104e157806374f3b009146104f45780637ecebe001461051557610320565b80633644e5151161026b57806350dd6ed9116102145780636028bfd4116101ee5780636028bfd4146104a55780636945c1fd146104c657806370a08231146104ce57610320565b806350dd6ed91461048257806354a844ba1461049557806355c676281461049d57610320565b8063395093511161024557806339509351146104525780633f4ba83a1461046557806346b8b7301461046d57610320565b80633644e5151461042f57806338e9922e1461043757806338fff2d01461044a57610320565b80631c0de051116102cd57806323b872dd116102a757806323b872dd146103f25780632541897f14610405578063313ce5671461041a57610320565b80631c0de051146103b35780631dd746ea146103ca5780631f040480146103df57610320565b80630c8605be116102fe5780630c8605be1461038357806313ce45461461039857806318160ddd146103ab57610320565b806301ec954a1461032557806306fdde031461034e578063095ea7b314610363575b600080fd5b610338610333366004614dc6565b61064c565b60405161034591906151d8565b60405180910390f35b610356610abe565b604051610345919061539b565b610376610371366004614afe565b610b54565b60405161034591906151b5565b610396610391366004614cf1565b610b6b565b005b6103966103a6366004614cd0565b610ca8565b610338610eb3565b6103bb610eb9565b604051610345939291906151c0565b6103d2610ee2565b6040516103459190615174565b6103966103ed366004614cf1565b610ef1565b610376610400366004614a4e565b610fbd565b61040d611031565b60405161034591906150b2565b610422611055565b60405161034591906153c7565b61033861105e565b610396610445366004614c15565b611068565b610338611084565b610376610460366004614afe565b6110a8565b6103966110e3565b6104756110f7565b6040516103459190615130565b610396610490366004614d78565b611157565b610396611175565b610338611187565b6104b86104b3366004614c2d565b61119a565b6040516103459291906153ae565b61040d6111d1565b6103386104dc3660046149fa565b6111f5565b6103966104ef366004614c15565b611214565b610507610502366004614c2d565b61136d565b604051610345929190615187565b6103386105233660046149fa565b611470565b61039661147b565b61039661053e366004614cf1565b61169f565b610396611777565b610338610559366004614d1c565b611789565b6104b861056c366004614c2d565b6117db565b61040d611801565b61040d611825565b61033861058f3660046149fa565b611849565b610338611864565b61035661186a565b6105b76105b2366004614c15565b6118cb565b60405161034592919061502e565b6103766105d3366004614afe565b611a5a565b6103766105e6366004614afe565b611a98565b61040d611aa5565b610376611aaf565b610396611ac0565b61040d611ad2565b610396610619366004614a8e565b611af6565b61050761062c366004614c2d565b611b81565b61033861063f366004614a16565b611ca4565b610338611ce1565b6000846080015161067961065e611825565b6001600160a01b0316336001600160a01b03161460cd611d30565b61068e610684611084565b82146101f4611d30565b6060610698611d3e565b905060006106aa886101000151611e2a565b905060006106c26106bd83836001611e48565b611ef1565b90506106cc61486a565b60408051808201909152806106ed6106e8866001878101611e48565b611e2a565b81526020016107106106bd858e61010001515188611e489092919063ffffffff16565b90529050600080808c51600181111561072557fe5b14156109645761074c8c60600151878c8151811061073f57fe5b6020026020010151611f93565b8c60600181815250507f00000000000000000000000000000000000000000000000000000000000000006001600160a01b03168c604001516001600160a01b0316141561081d576107bf8c847f53656c6c000000000000000000000000000000000000000000000000000000008e611f9f565b84519093509091507f4d61726b6574000000000000000000000000000000000000000000000000000014156108185761080b81878b815181106107fe57fe5b6020026020010151612411565b9750505050505050610ab5565b61095f565b7f00000000000000000000000000000000000000000000000000000000000000006001600160a01b03168c604001516001600160a01b0316141561095f57600061089e8c7f00000000000000000000000000000000000000000000000000000000000000008151811061088c57fe5b60200260200101518e6060015161241d565b90506108df818d7f0000000000000000000000000000000000000000000000000000000000000000815181106108d057fe5b6020026020010151600061242f565b60608e01526109108d857f42757900000000000000000000000000000000000000000000000000000000008f611f9f565b85519094509092507f4d61726b65740000000000000000000000000000000000000000000000000000141561095d5761094f83888c815181106107fe57fe5b985050505050505050610ab5565b505b610aae565b60018c51600181111561097357fe5b1415610aae5761098d8c60600151878b8151811061073f57fe5b8c60600181815250507f00000000000000000000000000000000000000000000000000000000000000006001600160a01b03168c602001516001600160a01b03161415610a0557600061089e8c7f00000000000000000000000000000000000000000000000000000000000000008151811061088c57fe5b7f00000000000000000000000000000000000000000000000000000000000000006001600160a01b03168c602001516001600160a01b03161415610aae57610a6f8c847f53656c6c000000000000000000000000000000000000000000000000000000008e611f9f565b84519093509091507f4d61726b657400000000000000000000000000000000000000000000000000001415610aae5761080b81878b815181106107fe57fe5b5050505050505b50949350505050565b60038054604080516020601f6002600019610100600188161502019095169490940493840181900481028201810190925282815260609390929091830182828015610b4a5780601f10610b1f57610100808354040283529160200191610b4a565b820191906000526020600020905b815481529060010190602001808311610b2d57829003601f168201915b5050505050905090565b6000610b61338484612457565b5060015b92915050565b6000838152600c60205260409020600301547f4f70656e0000000000000000000000000000000000000000000000000000000014610ba857600080fd5b6000838152600c60205260409020600601546001600160a01b0316331415610ca3576000838152600c602052604090206007810183905560048101829055426005820155600101547f4c696d69740000000000000000000000000000000000000000000000000000001415610c43576000838152600c6020908152604080832054835260129091529020839055610c3e826124bf565b610ca3565b6000838152600c60205260409020600101547f53746f70000000000000000000000000000000000000000000000000000000001415610ca3576000838152600c6020908152604080832054835260159091529020839055610ca3826126df565b505050565b600a546001600160a01b03163314610cbf57600080fd5b6000828152600c60209081526040808320600601546001600160a01b03168352600e8252808320858452600f9092529091205481548110610cfc57fe5b60009182526020808320909101829055838252600f81526040808320839055600c825280832083815560018101849055600281018490556003810184905560048101849055600581018490556006810180547fffffffffffffffffffffffff00000000000000000000000000000000000000001690556007810184905560088101849055600901839055600d909152902054600b80549091908110610d9d57fe5b60009182526020808320909101829055838252600d81526040808320839055838352600c8252808320600601546001600160a01b03168352600e8252808320848452600f9092529091205481548110610df257fe5b60009182526020808320909101829055828252600f81526040808320839055600c825280832083815560018101849055600281018490556003810184905560048101849055600581018490556006810180547fffffffffffffffffffffffff00000000000000000000000000000000000000001690556007810184905560088101849055600901839055600d909152902054600b80549091908110610e9357fe5b60009182526020808320909101829055918152600d909152604081205550565b60025490565b6000806000610ec66128ff565b159250610ed161291c565b9150610edb612940565b9050909192565b6060610eec611d3e565b905090565b807f42757900000000000000000000000000000000000000000000000000000000001480610f3e5750807f53656c6c00000000000000000000000000000000000000000000000000000000145b610f4757600080fd5b600a546001600160a01b03163314610f5e57600080fd5b506000828152600c602090815260408083206004810180549095019094557f4f70656e000000000000000000000000000000000000000000000000000000006003850155600b5493849055928252601090522055601180546001019055565b600080610fca8533611ca4565b9050610fee336001600160a01b0387161480610fe65750838210155b61019e611d30565b610ff9858585612964565b336001600160a01b0386161480159061101457506000198114155b15611026576110268533858403612457565b506001949350505050565b7f000000000000000000000000000000000000000000000000000000000000000090565b60055460ff1690565b6000610eec611ce1565b611070612a44565b611078612a8a565b61108181612a9d565b50565b7f000000000000000000000000000000000000000000000000000000000000000090565b3360008181526001602090815260408083206001600160a01b03871684529091528120549091610b619185906110de908661241d565b612457565b6110eb612a44565b6110f56000612b16565b565b336000908152600e6020908152604091829020805483518184028101840190945280845260609392830182828015610b4a57602002820191906000526020600020905b81548152602001906001019080831161113a575050505050905090565b61115f612a44565b611167612a8a565b6111718282612ba7565b5050565b61117d612a44565b6110f56001612cb5565b600854600090610eec9060c0603f612d0c565b600060606111b086516111ab612d1b565b612d20565b6111c589898989898989612d2d612d49612db8565b97509795505050505050565b7f000000000000000000000000000000000000000000000000000000000000000090565b6001600160a01b0381166000908152602081905260409020545b919050565b6000818152600c60205260409020600601546001600160a01b0316331461123a57600080fd5b6000818152600c602090815260408083208054845260108352818420849055805484526013835281842084905580548452601283528184208490558054845260168352818420849055805484526015835281842084905584845283815560018101849055600281018490556003810184905560048101849055600581018490556006810180547fffffffffffffffffffffffff00000000000000000000000000000000000000001690556007810184905560088101849055600901839055600d909152902054600b8054909190811061130f57fe5b60009182526020808320909101829055828252600d81526040808320839055338352600e8252808320848452600f909252909120548154811061134e57fe5b60009182526020808320909101829055918152600f9091526040812055565b6060808861137c61065e611825565b611387610684611084565b6060600061139486612f4f565b156113bc576113a1612f7e565b6113b3896113ad610eb3565b88612f91565b9250905061140e565b6113c4612fbd565b60606113ce611d3e565b90506113da8a82612fc5565b6113fe8d8d8d8d8d6113ea611aaf565b6113f4578d6113f7565b60005b878e612d2d565b9350915061140c8382612d49565b505b6114188b8261302e565b81895167ffffffffffffffff8111801561143157600080fd5b5060405190808252806020026020018201604052801561145b578160200160208202803683370190505b509450945050505b5097509795505050505050565b6000610b6582611849565b6000611485611084565b90506060611491611825565b6001600160a01b031663f94d4668836040518263ffffffff1660e01b81526004016114bc91906151d8565b60006040518083038186803b1580156114d457600080fd5b505afa1580156114e8573d6000803e3d6000fd5b505050506040513d6000823e601f3d908101601f191682016040526115109190810190614b29565b505060408051600380825260808201909252919250606091906020820183803683370190505090506dffffffffffffffffffffffffffff817f00000000000000000000000000000000000000000000000000000000000000008151811061157357fe5b602002602001018181525050611587614881565b604051806080016040528061159b85613038565b81526020018381526020016040518060200160405280600081525081526020016000151581525090506115cc611825565b6001600160a01b031663b95cac286115e2611084565b3030856040518563ffffffff1660e01b81526004016116049493929190615200565b600060405180830381600087803b15801561161e57600080fd5b505af1158015611632573d6000803e3d6000fd5b505050507f00000000000000000000000000000000000000000000000000000000000000006001600160a01b03167ff1f17f1a9edc53df960a0bec0dc86cb2bf5606c7826b3b8e701e70c91c28aa2a60095460405161169191906151d8565b60405180910390a250505050565b600a546001600160a01b031633146116b657600080fd5b6000928352601f6020908152604080852080547fffffffffffffffffffffffff0000000000000000000000000000000000000000908116825560018201805482169055600282018054821690556003808301889055600483018890556005830180549092169091556006820187905560078201879055600882018790556009909101869055938552600c9091528084207f46696c6c656400000000000000000000000000000000000000000000000000009084018190559184529092200155565b61177f612a44565b6110f56001612b16565b60007f0000000000000000000000000000000000000000000000000000000000000000826040516020016117be92919061503c565b604051602081830303815290604052805190602001209050919050565b600060606117ec86516111ab612d1b565b6111c589898989898989612d2d61303b612db8565b7f000000000000000000000000000000000000000000000000000000000000000090565b7f000000000000000000000000000000000000000000000000000000000000000090565b6001600160a01b031660009081526006602052604090205490565b60095490565b60048054604080516020601f6002600019610100600188161502019095169490940493840181900481028201810190925282815260609390929091830182828015610b4a5780601f10610b1f57610100808354040283529160200191610b4a565b600081815260208080526040808320548352601f9091528120600201548190819081907f00000000000000000000000000000000000000000000000000000000000000006001600160a01b0390811691161480156119645750600085815260208080526040808320548352601f9091529020600601547f4275790000000000000000000000000000000000000000000000000000000000145b15611990575050600083815260208080526040808320548352601f909152902060038101546004909101545b600085815260208080526040808320548352601f9091529020600201547f00000000000000000000000000000000000000000000000000000000000000006001600160a01b039081169116148015611a235750600085815260208080526040808320548352601f9091529020600601547f53656c6c00000000000000000000000000000000000000000000000000000000145b15611a50575050600083815260208080526040808320548352601f90915290206003810154600490910154905b9092509050915091565b600080611a673385611ca4565b9050808310611a8157611a7c33856000612457565b611a8e565b611a8e3385858403612457565b5060019392505050565b6000610b61338484612964565b6000610eec6130a4565b600854600090610eec9060ff61311e565b611ac8612a44565b6110f56000612cb5565b7f000000000000000000000000000000000000000000000000000000000000000090565b60007f6e71edae12b1b97f4d1f60370fef10105fa2faae0126114a169c64845d6126c9888888611b258c611849565b89604051602001611b3b969594939291906152ed565b604051602081830303815290604052805190602001209050611b6c8882611b63878787613128565b886101f8613167565b611b77888888612457565b5050505050505050565b60608088611b9061065e611825565b611b9b610684611084565b611ba3612fbd565b6060611bad611d3e565b9050611bb7610eb3565b611c645760006060611bcc8d8d8d868b6131be565b91509150611be5611bdb61327f565b83101560cc611d30565b611bf76000611bf261327f565b613284565b611c0a8b611c0361327f565b8403613284565b611c14818461303b565b808a5167ffffffffffffffff81118015611c2d57600080fd5b50604051908082528060200260200182016040528015611c57578160200160208202803683370190505b5095509550505050611463565b611c6e8882612fc5565b60006060611c968d8d8d8d8d611c82611aaf565b611c8c578d611c8f565b60005b898e612d2d565b91509150611c0a8b83613284565b6000611cae611825565b6001600160a01b0316826001600160a01b03161415611cd05750600019610b65565b611cda838361328e565b9050610b65565b6000610eec6132b9565b8061117181613356565b6000611d028484846133cf565b506001901b60001901811b1992909216911b1790565b6000818310611d275781611d29565b825b9392505050565b816111715761117181613416565b60408051600380825260808201909252606091829190602082018380368337019050509050670de0b6b3a7640000817f000000000000000000000000000000000000000000000000000000000000000081518110611d9857fe5b602002602001018181525050670de0b6b3a7640000817f000000000000000000000000000000000000000000000000000000000000000081518110611dd957fe5b602002602001018181525050670de0b6b3a7640000817f000000000000000000000000000000000000000000000000000000000000000081518110611e1a57fe5b6020908102919091010152905090565b80516000908290611e3f57506000905061120f565b50506020015190565b60608083830367ffffffffffffffff81118015611e6457600080fd5b506040519080825280601f01601f191660200182016040528015611e8f576020820181803683370190505b509050835b83811015610ab557858160208110611ea857fe5b1a60f81b8286830381518110611eba57fe5b60200101907effffffffffffffffffffffffffffffffffffffffffffffffffffffffffffff1916908160001a905350600101611e94565b600080828180805b8351811015611f88576030848281518110611f1057fe5b016020015160f81c10801590611f3a57506039848281518110611f2f57fe5b016020015160f81c11155b15611f7b578291506030848281518110611f5057fe5b602001015160f81c60f81b60f81c60ff160383600a0201925082821115611f7657600194505b611f80565b600194505b600101611ef9565b509095945050505050565b6000611d298383613440565b60008084600001517f4d61726b657400000000000000000000000000000000000000000000000000001480611ff4575084517f4c696d6974000000000000000000000000000000000000000000000000000000145b8061201f575084517f53746f7000000000000000000000000000000000000000000000000000000000145b61202857600080fd5b837f427579000000000000000000000000000000000000000000000000000000000014806120755750837f53656c6c00000000000000000000000000000000000000000000000000000000145b61207e57600080fd5b60008660c0015142604051602001612097929190614ff9565b60408051808303601f19018152918152815160209283012060c08a01516000828152600c8552929092206006810180547fffffffffffffffffffffffff0000000000000000000000000000000000000000166001600160a01b0390941693909317909255918801516007820155600b54815560608901516004820155600281018790558751600190910155845190915084907f000000000000000000000000000000000000000000000000000000000000000090811061215357fe5b6020026020010151600c600083815260200190815260200160002060080181905550837f0000000000000000000000000000000000000000000000000000000000000000815181106121a157fe5b6020908102919091018101516000838152600c83526040808220600981019390935542600590930192909255600b8054600d8552838320819055600180820183559183527f0175b7a638427703f0dbe7bb9bbf987a2551717b34e79f33b5b1008d1fa01db90185905560c08b0180516001600160a01b039081168452600e80875285852054888652600f88528686205591511683528452918120805492830181558152919091200181905585517f4d61726b6574000000000000000000000000000000000000000000000000000014156122f6576000818152600c602090815260408083207f46696c6c656400000000000000000000000000000000000000000000000000006003820155548352601090915290208190556011805460010190556122ec817f6d61726b65740000000000000000000000000000000000000000000000000000613476565b9250925050612408565b85517f4c696d6974000000000000000000000000000000000000000000000000000000141561237d576000818152600c602090815260408083207f4f70656e00000000000000000000000000000000000000000000000000000000600382015554835260128252909120829055601480546001019055860151612378906124bf565b6123ff565b85517f53746f700000000000000000000000000000000000000000000000000000000014156123ff576000818152600c602090815260408083207f4f70656e000000000000000000000000000000000000000000000000000000006003820155548352601582529091208290556017805460010190558601516123ff906126df565b60008092509250505b94509492505050565b6000611d298383613d6f565b6000828201611d298482101583611d30565b600081612445576124408484613dc0565b61244f565b61244f8484613de0565b949350505050565b6001600160a01b0380841660008181526001602090815260408083209487168084529490915290819020849055517f8c5be1e5ebec7d5bd14f71427d1e84f3dd0314c0f7b2291e5b200ac8c7c3b925906124b29085906151d8565b60405180910390a3505050565b6000805b601454811015610ca3576000818152601260209081526040808320548352600c9091529020600201547f427579000000000000000000000000000000000000000000000000000000000014801561253857506000818152601260209081526040808320548352600c9091529020600701548311155b156125d45760008181526012602081815260408084208054808652600c8452828620548652601084529185209190915560118054600101905592849052525491506125a3817f6c696d6974000000000000000000000000000000000000000000000000000000613e13565b6125cd827f6c696d6974000000000000000000000000000000000000000000000000000000613476565b50506126d7565b6000818152601260209081526040808320548352600c9091529020600201547f53656c6c0000000000000000000000000000000000000000000000000000000014801561263f57506000818152601260209081526040808320548352600c9091529020600701548310155b156126d75760008181526012602081815260408084208054808652600c8452828620548652601084529185209190915560118054600101905592849052525491506126aa817f6c696d6974000000000000000000000000000000000000000000000000000000613e13565b6126d4827f6c696d6974000000000000000000000000000000000000000000000000000000613476565b50505b6001016124c3565b6000805b601754811015610ca3576000818152601560209081526040808320548352600c9091529020600201547f427579000000000000000000000000000000000000000000000000000000000014801561275857506000818152601560209081526040808320548352600c9091529020600701548310155b156127f45760008181526015602081815260408084208054808652600c8452828620548652601084529185209190915560118054600101905592849052525491506127c3817f73746f7000000000000000000000000000000000000000000000000000000000613e13565b6127ed827f73746f7000000000000000000000000000000000000000000000000000000000613476565b50506128f7565b6000818152601560209081526040808320548352600c9091529020600201547f53656c6c0000000000000000000000000000000000000000000000000000000014801561285f57506000818152601560209081526040808320548352600c9091529020600701548311155b156128f75760008181526015602081815260408084208054808652600c8452828620548652601084529185209190915560118054600101905592849052525491506128ca817f73746f7000000000000000000000000000000000000000000000000000000000613e13565b6128f4827f73746f7000000000000000000000000000000000000000000000000000000000613476565b50505b6001016126e3565b6000612909612940565b421180610eec57505060075460ff161590565b7f000000000000000000000000000000000000000000000000000000000000000090565b7f000000000000000000000000000000000000000000000000000000000000000090565b61297b6001600160a01b0384161515610198611d30565b6129926001600160a01b0383161515610199611d30565b61299d838383610ca3565b6001600160a01b0383166000908152602081905260409020546129c390826101a0613faa565b6001600160a01b0380851660009081526020819052604080822093909355908416815220546129f2908261241d565b6001600160a01b0380841660008181526020819052604090819020939093559151908516907fddf252ad1be2c89b69c2b068fc378daa952ba7f163c4a11628f55a4df523b3ef906124b29085906151d8565b6000612a736000357fffffffff0000000000000000000000000000000000000000000000000000000016611789565b9050611081612a828233613fc0565b610191611d30565b6110f5612a956128ff565b610192611d30565b612ab2612aa86140a9565b82101560cb611d30565b612ac7612abd6140b2565b82111560ca611d30565b600854612ad8908260c0603f611cf5565b6008556040517fa9ba3ffe0b6c366b81232caab38605a0699ad5398d6cce76f91ee809e322dafc90612b0b9083906151d8565b60405180910390a150565b8015612b3657612b31612b2761291c565b4210610193611d30565b612b4b565b612b4b612b41612940565b42106101a9611d30565b600780547fffffffffffffffffffffffffffffffffffffffffffffffffffffffffffffff00168215151790556040517f9e3a5e37224532dea67b89face185703738a228a6e8a23dee546960180d3be6490612b0b9083906151b5565b6000612bb1611084565b90506000612bbd611825565b6001600160a01b031663b05f8e4883866040518363ffffffff1660e01b8152600401612bea929190615366565b60806040518083038186803b158015612c0257600080fd5b505afa158015612c16573d6000803e3d6000fd5b505050506040513d601f19601f82011682018060405250810190612c3a9190614ee5565b6040517f18e736d40000000000000000000000000000000000000000000000000000000081529094506001600160a01b03851693506318e736d49250612c8791508590879060040161534d565b600060405180830381600087803b158015612ca157600080fd5b505af1158015611b77573d6000803e3d6000fd5b600854612cc4908260ff6140be565b6008556040517feff3d4d215b42bf0960be9c6d5e05c22cba4df6627a3a523e2acee733b5854c890612cf79083906151b5565b60405180910390a180611081576110816110f5565b6001901b6000190191901c1690565b600390565b6111718183146067611d30565b60006060612d3c610163613416565b9850989650505050505050565b81518151612d58908290612d20565b60005b81811015612db257612d93848281518110612d7257fe5b6020026020010151848381518110612d8657fe5b6020026020010151613d6f565b848281518110612d9f57fe5b6020908102919091010152600101612d5b565b50505050565b333014612ea7576000306001600160a01b0316600036604051612ddc92919061506c565b6000604051808303816000865af19150503d8060008114612e19576040519150601f19603f3d011682016040523d82523d6000602084013e612e1e565b606091505b505090508060008114612e2d57fe5b60046000803e6000517fffffffff00000000000000000000000000000000000000000000000000000000167f43adbafb000000000000000000000000000000000000000000000000000000008114612e89573d6000803e3d6000fd5b506020600460003e604060205260243d03602460403e601c3d016000f35b612eaf612fbd565b6060612eb9611d3e565b9050612ec58782612fc5565b60006060612edd8c8c8c8c8c8c898d8d63ffffffff16565b91509150612eef81848663ffffffff16565b8051601f1982018390526343adbafb7fffffffffffffffffffffffffffffffffffffffffffffffffffffffffffffffc08301526020027fffffffffffffffffffffffffffffffffffffffffffffffffffffffffffffffdc82016044820181fd5b6000808251118015610b65575060ff801682806020019051810190612f749190614f25565b60ff161492915050565b6110f5612f89611aaf565b6101b6611d30565b600060606000612fa0846140e5565b90506060612faf8787846140fb565b919791965090945050505050565b6110f5612a8a565b81518151612fd4908290612d20565b60005b81811015612db25761300f848281518110612fee57fe5b602002602001015184838151811061300257fe5b6020026020010151613440565b84828151811061301b57fe5b6020908102919091010152600101612fd7565b61117182826141aa565b90565b8151815161304a908290612d20565b60005b81811015612db25761308584828151811061306457fe5b602002602001015184838151811061307857fe5b6020026020010151614276565b84828151811061309157fe5b602090810291909101015260010161304d565b60006130ae611825565b6001600160a01b031663aaabadc56040518163ffffffff1660e01b815260040160206040518083038186803b1580156130e657600080fd5b505afa1580156130fa573d6000803e3d6000fd5b505050506040513d601f19601f82011682018060405250810190610eec9190614d5c565b1c60019081161490565b60408051604180825260808201909252606091829190602082018180368337019050509050836020820152826040820152846060820153949350505050565b6000613172856142c4565b90506131886131828783876142e0565b83611d30565b613197428410156101b8611d30565b5050506001600160a01b039092166000908152600660205260409020805460010190555050565b600060606131ca612a8a565b6131e16001600160a01b0387163014610156611d30565b6131f86001600160a01b0386163014610156611d30565b604080516003808252608082019092526dffffffffffffffffffffffffffff91606091906020820183803683370190505090506dffffffffffffffffffffffffffff817f00000000000000000000000000000000000000000000000000000000000000008151811061326657fe5b6020908102919091010152909890975095505050505050565b600090565b611171828261438f565b6001600160a01b03918216600090815260016020908152604080832093909416825291909152205490565b60007f00000000000000000000000000000000000000000000000000000000000000007f00000000000000000000000000000000000000000000000000000000000000007f0000000000000000000000000000000000000000000000000000000000000000613326614422565b3060405160200161333b959493929190615321565b60405160208183030381529060405280519060200120905090565b60028151101561336557611081565b60008160008151811061337457fe5b602002602001015190506000600190505b8251811015610ca357600083828151811061339c57fe5b602002602001015190506133c5816001600160a01b0316846001600160a01b0316106065611d30565b9150600101613385565b6133de61010083106064611d30565b6134076001821015801561340057506133fc60ff8461010003611d18565b8211155b6064611d30565b610ca383821c156101b4611d30565b611081817f42414c0000000000000000000000000000000000000000000000000000000000614426565b600082820261346484158061345d57508385838161345a57fe5b04145b6003611d30565b670de0b6b3a764000090049392505050565b60008060005b6011548110156137055760008181526010602052604090205485146136fd576000818152601060209081526040808320548352600c9091529020600201547f427579000000000000000000000000000000000000000000000000000000000014801561351857506000858152600c60205260409020600201547f53656c6c00000000000000000000000000000000000000000000000000000000145b156135c9576000858152600c60208181526040808420600790810154868652601084528286205486529390925290922090910154106135c4576019546000828152601060209081526040808320548352600c90915290206007015411156135c45760198054601d556000828152601060209081526040808320548352600c9091529020600701549055600b8054829081106135af57fe5b600091825260209091200154601855601c8190555b6136fd565b6000818152601060209081526040808320548352600c9091529020600201547f53656c6c0000000000000000000000000000000000000000000000000000000014801561364657506000858152600c60205260409020600201547f4275790000000000000000000000000000000000000000000000000000000000145b156136fd576000858152600c60208181526040808420600790810154868652601084528286205486529390925290922090910154116136fd57601b546000828152601060209081526040808320548352600c90915290206007015410806136ad5750601b54155b156136fd57601b8054601e556000828152601060209081526040808320548352600c9091529020600701549055600b8054829081106136e857fe5b600091825260209091200154601a55601c8190555b60010161347c565b506000848152600c60205260409020600201547f53656c6c000000000000000000000000000000000000000000000000000000001415613a5d5760185415613a52576000848152600c6020526040808220600490810154601854845291909220909101541061388e576000848152600c6020526040808220600480820180546018805487528587209093018054919091039055805490859055815485528385207f46696c6c656400000000000000000000000000000000000000000000000000006003918201819055908401556006808401549254808752948620015494899052600783015460028401546001909401549195613819958b956001600160a01b0395861695919491909216929188916144a1565b613845601c547f6d61726b65740000000000000000000000000000000000000000000000000000613e13565b837f6d61726b657400000000000000000000000000000000000000000000000000001415613888576000858152600c602052604090206007015492509050613d68565b50613989565b601880546000908152600c602052604080822060049081015488845282842080830180549290920390915584548452828420909101805490849055845484528284207f506172746c7946696c6c656400000000000000000000000000000000000000006003918201819055908301556006808301549554808652938520015493899052600782015460028301546001909301549195613944958b956001600160a01b0392831695909491909216929188916144a1565b837f6d61726b657400000000000000000000000000000000000000000000000000001415613987576000858152600c602052604090206007015492509050613d68565b505b7fd40a9d664355db2112eab65236b416d419de21b5ccce2d29dc5b2601e62545fa601d54601e546040516139be92919061502e565b60405180910390a16000848152600c6020526040902060098101546004909101546139e991906147cd565b6000858152600c6020526040902060098101919091556008810154600790910154613a14919061241d565b6000858152600c60205260409020600881019190915560070154613a37906124bf565b6000848152600c6020526040902060070154613a52906126df565b506000905080613d68565b6000848152600c60205260409020600201547f42757900000000000000000000000000000000000000000000000000000000001415613d6857601a5415613a52576000848152600c6020526040808220600490810154601a548452919092209091015410613be5576000848152600c602052604080822060048082018054601a805487528587209093018054919091039055805490859055815485528385207f46696c6c65640000000000000000000000000000000000000000000000000000600391820181905590840155905480855292842060069081015494899052820154600783015460028401546001909401549295613b7095946001600160a01b03918216948c9490921692918891906144a1565b613b9c601c547f6d61726b65740000000000000000000000000000000000000000000000000000613e13565b837f6d61726b657400000000000000000000000000000000000000000000000000001415613bdf576000858152600c602052604090206007015492509050613d68565b50613cdd565b601a80546000908152600c602052604080822060049081015488845282842080830180549290920390915584548452828420909101805490849055845484528284207f506172746c7946696c6c6564000000000000000000000000000000000000000060039182018190559083015593548084529183206006908101549389905281015460078201546002830154600190930154613c98956001600160a01b03908116948c9490911692918891906144a1565b837f6d61726b657400000000000000000000000000000000000000000000000000001415613cdb576000858152600c602052604090206007015492509050613d68565b505b7fd40a9d664355db2112eab65236b416d419de21b5ccce2d29dc5b2601e62545fa601d54601e54604051613d1292919061502e565b60405180910390a16000848152600c602052604090206009810154600490910154613d3d919061241d565b6000858152600c6020526040902060098101919091556008810154600790910154613a1491906147cd565b9250929050565b6000613d7e8215156004611d30565b82613d8b57506000610b65565b670de0b6b3a764000083810290613dae90858381613da557fe5b04146005611d30565b828181613db757fe5b04915050610b65565b6000613dcf8215156004611d30565b818381613dd857fe5b049392505050565b6000613def8215156004611d30565b82613dfc57506000610b65565b816001840381613e0857fe5b046001019050610b65565b807f6d61726b657400000000000000000000000000000000000000000000000000001415613e9b57815b601154811015613e8b57600160115403811415613e6857600083815260106020526040812055613e83565b60018301600090815260106020526040808220548583529120555b600101613e3d565b5060118054600019019055611171565b807f6c696d69740000000000000000000000000000000000000000000000000000001415613f2357815b601454811015613f1357600160145403811415613ef057600083815260126020526040812055613f0b565b60018301600090815260126020526040808220548583529120555b600101613ec5565b5060148054600019019055611171565b807f73746f7000000000000000000000000000000000000000000000000000000000141561117157815b601754811015613f9b57600160175403811415613f7857600083815260156020526040812055613f93565b60018301600090815260156020526040808220548583529120555b600101613f4d565b50601780546000190190555050565b6000613fb98484111583611d30565b5050900390565b600073ba1ba1ba1ba1ba1ba1ba1ba1ba1ba1ba1ba1ba1b613fdf611801565b6001600160a01b031614158015613ffa5750613ffa836147e3565b1561402257614007611801565b6001600160a01b0316336001600160a01b0316149050610b65565b61402a6130a4565b6001600160a01b0316639be2a8848484306040518463ffffffff1660e01b8152600401614059939291906151e1565b60206040518083038186803b15801561407157600080fd5b505afa158015614085573d6000803e3d6000fd5b505050506040513d601f19601f82011682018060405250810190611cda9190614bf5565b64e8d4a5100090565b67016345785d8a000090565b60006001821b19841682846140d45760006140d7565b60015b60ff16901b17949350505050565b600081806020019051810190611d299190614f41565b606060006141098385613d6f565b9050845167ffffffffffffffff8111801561412357600080fd5b5060405190808252806020026020018201604052801561414d578160200160208202803683370190505b50915060005b85518110156141a1576141828287838151811061416c57fe5b602002602001015161344090919063ffffffff16565b83828151811061418e57fe5b6020908102919091010152600101614153565b50509392505050565b6141c16001600160a01b038316151561019b611d30565b6141cd82600083610ca3565b6001600160a01b0382166000908152602081905260409020546141f390826101b2613faa565b6001600160a01b0383166000908152602081905260409020556142266142218261421b610eb3565b90614851565b61485f565b60006001600160a01b0316826001600160a01b03167fddf252ad1be2c89b69c2b068fc378daa952ba7f163c4a11628f55a4df523b3ef8360405161426a91906151d8565b60405180910390a35050565b60006142858215156004611d30565b8261429257506000610b65565b670de0b6b3a7640000838102906142ac90858381613da557fe5b8260018203816142b857fe5b04600101915050610b65565b60006142ce6132b9565b826040516020016117be92919061507c565b60006142f282516041146101b9611d30565b60208281015160408085015160608601518251600080825295019283905292939092811a9160019061432b90899085908890889061537d565b6020604051602081039080840390855afa15801561434d573d6000803e3d6000fd5b5050604051601f1901519150506001600160a01b038116158015906143835750876001600160a01b0316816001600160a01b0316145b98975050505050505050565b61439b60008383610ca3565b6143b0614221826143aa610eb3565b9061241d565b6001600160a01b0382166000908152602081905260409020546143d3908261241d565b6001600160a01b0383166000818152602081905260408082209390935591519091907fddf252ad1be2c89b69c2b068fc378daa952ba7f163c4a11628f55a4df523b3ef9061426a9085906151d8565b4690565b7f08c379a000000000000000000000000000000000000000000000000000000000600090815260206004526007602452600a808404818106603090810160081b958390069590950190829004918206850160101b01602363ffffff0060e086901c160160181b0190930160c81b60445260e882901c90606490fd5b6000827f427579000000000000000000000000000000000000000000000000000000000014156144e357506000888152600c602052604090206007015461451f565b827f53656c6c00000000000000000000000000000000000000000000000000000000141561451f57506000868152600c60205260409020600701545b6000898860405160200161453492919061502e565b60405160208183030381529060405280519060200120905080602060008c81526020019081526020016000208190555080602060008a8152602001908152602001600020819055506040518061014001604052808a6001600160a01b03168152602001886001600160a01b031681526020017f00000000000000000000000000000000000000000000000000000000000000006001600160a01b031681526020018781526020018381526020017f00000000000000000000000000000000000000000000000000000000000000006001600160a01b0316815260200185815260200184815260200186815260200142815250601f600083815260200190815260200160002060008201518160000160006101000a8154816001600160a01b0302191690836001600160a01b0316021790555060208201518160010160006101000a8154816001600160a01b0302191690836001600160a01b0316021790555060408201518160020160006101000a8154816001600160a01b0302191690836001600160a01b03160217905550606082015181600301556080820151816004015560a08201518160050160006101000a8154816001600160a01b0302191690836001600160a01b0316021790555060c0820151816006015560e082015181600701556101008201518160080155610120820151816009015590505060004290507f00000000000000000000000000000000000000000000000000000000000000006001600160a01b03167f156bf7973c4610a54da63e11aee83150e3c726c558bb3a700c5a07f8c89f82268b8a8a877f00000000000000000000000000000000000000000000000000000000000000008c886040516147b897969594939291906150c6565b60405180910390a25050505050505050505050565b60006147dd838311156001611d30565b50900390565b600061480e7f38e9922e00000000000000000000000000000000000000000000000000000000611789565b821480614842575061483f7f50dd6ed900000000000000000000000000000000000000000000000000000000611789565b82145b80610b655750610b6582614864565b6000611d2983836001613faa565b600255565b50600090565b604080518082019091526000808252602082015290565b60405180608001604052806060815260200160608152602001606081526020016000151581525090565b8035610b6581615428565b600082601f8301126148c6578081fd5b81356148d96148d4826153fc565b6153d5565b8181529150602080830190848101818402860182018710156148fa57600080fd5b60005b84811015614919578135845292820192908201906001016148fd565b505050505092915050565b600082601f830112614934578081fd5b81516149426148d4826153fc565b81815291506020808301908481018184028601820187101561496357600080fd5b60005b8481101561491957815184529282019290820190600101614966565b600082601f830112614992578081fd5b813567ffffffffffffffff8111156149a8578182fd5b6149bb6020601f19601f840116016153d5565b91508082528360208285010111156149d257600080fd5b8060208401602084013760009082016020015292915050565b803560028110610b6557600080fd5b600060208284031215614a0b578081fd5b8135611d2981615428565b60008060408385031215614a28578081fd5b8235614a3381615428565b91506020830135614a4381615428565b809150509250929050565b600080600060608486031215614a62578081fd5b8335614a6d81615428565b92506020840135614a7d81615428565b929592945050506040919091013590565b600080600080600080600060e0888a031215614aa8578283fd5b8735614ab381615428565b96506020880135614ac381615428565b955060408801359450606088013593506080880135614ae18161543d565b9699959850939692959460a0840135945060c09093013592915050565b60008060408385031215614b10578182fd5b8235614b1b81615428565b946020939093013593505050565b600080600060608486031215614b3d578081fd5b835167ffffffffffffffff80821115614b54578283fd5b818601915086601f830112614b67578283fd5b8151614b756148d4826153fc565b80828252602080830192508086018b828387028901011115614b95578788fd5b8796505b84871015614bc0578051614bac81615428565b845260019690960195928101928101614b99565b508901519097509350505080821115614bd7578283fd5b50614be486828701614924565b925050604084015190509250925092565b600060208284031215614c06578081fd5b81518015158114611d29578182fd5b600060208284031215614c26578081fd5b5035919050565b600080600080600080600060e0888a031215614c47578081fd5b873596506020880135614c5981615428565b95506040880135614c6981615428565b9450606088013567ffffffffffffffff80821115614c85578283fd5b614c918b838c016148b6565b955060808a0135945060a08a0135935060c08a0135915080821115614cb4578283fd5b50614cc18a828b01614982565b91505092959891949750929550565b60008060408385031215614ce2578182fd5b50508035926020909101359150565b600080600060608486031215614d05578081fd5b505081359360208301359350604090920135919050565b600060208284031215614d2d578081fd5b81357fffffffff0000000000000000000000000000000000000000000000000000000081168114611d29578182fd5b600060208284031215614d6d578081fd5b8151611d2981615428565b60008060408385031215614d8a578182fd5b8235614d9581615428565b9150602083013567ffffffffffffffff811115614db0578182fd5b614dbc85828601614982565b9150509250929050565b60008060008060808587031215614ddb578182fd5b843567ffffffffffffffff80821115614df2578384fd5b818701915061012080838a031215614e08578485fd5b614e11816153d5565b9050614e1d89846149eb565b8152614e2c89602085016148ab565b6020820152614e3e89604085016148ab565b6040820152606083013560608201526080830135608082015260a083013560a0820152614e6e8960c085016148ab565b60c0820152614e808960e085016148ab565b60e08201526101008084013583811115614e98578687fd5b614ea48b828701614982565b828401525050809650506020870135915080821115614ec1578384fd5b50614ece878288016148b6565b949794965050505060408301359260600135919050565b60008060008060808587031215614efa578182fd5b8451935060208501519250604085015191506060850151614f1a81615428565b939692955090935050565b600060208284031215614f36578081fd5b8151611d298161543d565b60008060408385031215614f53578182fd5b8251614f5e8161543d565b6020939093015192949293505050565b6000815180845260208085019450808401835b83811015614f9d57815187529582019590820190600101614f81565b509495945050505050565b15159052565b60008151808452815b81811015614fd357602081850181015186830182015201614fb7565b81811115614fe45782602083870101525b50601f01601f19169290920160200192915050565b60609290921b7fffffffffffffffffffffffffffffffffffffffff000000000000000000000000168252601482015260340190565b918252602082015260400190565b9182527fffffffff0000000000000000000000000000000000000000000000000000000016602082015260240190565b6000828483379101908152919050565b7f190100000000000000000000000000000000000000000000000000000000000081526002810192909252602282015260420190565b6001600160a01b0391909116815260200190565b6001600160a01b039788168152958716602087015260408601949094526060850192909252909316608083015260a08201929092527f50656e64696e670000000000000000000000000000000000000000000000000060c082015260e08101919091526101000190565b6020808252825182820181905260009190848201906040850190845b818110156151685783518352928401929184019160010161514c565b50909695505050505050565b600060208252611d296020830184614f6e565b60006040825261519a6040830185614f6e565b82810360208401526151ac8185614f6e565b95945050505050565b901515815260200190565b92151583526020830191909152604082015260600190565b90815260200190565b9283526001600160a01b03918216602084015216604082015260600190565b600085825260206001600160a01b038087168285015280861660408501525060806060840152610100830184516080808601528181518084526101208701915084830193508592505b808310156152715761525b845161541c565b8252928401926001929092019190840190615249565b508387015193507fffffffffffffffffffffffffffffffffffffffffffffffffffffffffffffff809250828682030160a08701526152af8185614f6e565b935050506040850151818584030160c08601526152cc8382614fae565b9250505060608401516152e260e0850182614fa8565b509695505050505050565b9586526001600160a01b0394851660208701529290931660408501526060840152608083019190915260a082015260c00190565b9485526020850193909352604084019190915260608301526001600160a01b0316608082015260a00190565b60008382526040602083015261244f6040830184614fae565b9182526001600160a01b0316602082015260400190565b93845260ff9290921660208401526040830152606082015260800190565b600060208252611d296020830184614fae565b60008382526040602083015261244f6040830184614f6e565b60ff91909116815260200190565b60405181810167ffffffffffffffff811182821017156153f457600080fd5b604052919050565b600067ffffffffffffffff821115615412578081fd5b5060209081020190565b6001600160a01b031690565b6001600160a01b038116811461108157600080fd5b60ff8116811461108157600080fdfea26469706673582212202fcd26a36233c9e2dfd61d31a76d5d2067855fb291fe71ddb8e7c0c3d62ebc4064736f6c63430007010033",
  "linkReferences": {},
  "deployedLinkReferences": {}
}