{
  "_format": "hh-sol-artifact-1",
  "contractName": "SecondaryIssuePool",
  "sourceName": "contracts/SecondaryIssuePool.sol",
  "abi": [
    {
      "inputs": [
        {
          "internalType": "contract IVault",
          "name": "vault",
          "type": "address"
        },
        {
          "internalType": "string",
          "name": "name",
          "type": "string"
        },
        {
          "internalType": "string",
          "name": "symbol",
          "type": "string"
        },
        {
          "internalType": "address",
          "name": "security",
          "type": "address"
        },
        {
          "internalType": "address",
          "name": "currency",
          "type": "address"
        },
        {
          "internalType": "uint256",
          "name": "minOrderSize",
          "type": "uint256"
        },
        {
          "internalType": "uint256",
          "name": "tradeFeePercentage",
          "type": "uint256"
        },
        {
          "internalType": "uint256",
          "name": "pauseWindowDuration",
          "type": "uint256"
        },
        {
          "internalType": "uint256",
          "name": "bufferPeriodDuration",
          "type": "uint256"
        },
        {
          "internalType": "address",
          "name": "owner",
          "type": "address"
        }
      ],
      "stateMutability": "nonpayable",
      "type": "constructor"
    },
    {
      "anonymous": false,
      "inputs": [
        {
          "indexed": true,
          "internalType": "address",
          "name": "owner",
          "type": "address"
        },
        {
          "indexed": true,
          "internalType": "address",
          "name": "spender",
          "type": "address"
        },
        {
          "indexed": false,
          "internalType": "uint256",
          "name": "value",
          "type": "uint256"
        }
      ],
      "name": "Approval",
      "type": "event"
    },
    {
      "anonymous": false,
      "inputs": [
        {
          "indexed": true,
          "internalType": "address",
          "name": "security",
          "type": "address"
        },
        {
          "indexed": false,
          "internalType": "uint256",
          "name": "minOrderSize",
          "type": "uint256"
        },
        {
          "indexed": false,
          "internalType": "address",
          "name": "currency",
          "type": "address"
        },
        {
          "indexed": false,
          "internalType": "address",
          "name": "orderBook",
          "type": "address"
        }
      ],
      "name": "Offer",
      "type": "event"
    },
    {
      "anonymous": false,
      "inputs": [
        {
          "indexed": false,
          "internalType": "address",
          "name": "creator",
          "type": "address"
        },
        {
          "indexed": false,
          "internalType": "address",
          "name": "tokenIn",
          "type": "address"
        },
        {
          "indexed": false,
          "internalType": "address",
          "name": "tokenOut",
          "type": "address"
        },
        {
          "indexed": false,
          "internalType": "uint256",
          "name": "amountOffered",
          "type": "uint256"
        },
        {
          "indexed": false,
          "internalType": "uint256",
          "name": "priceOffered",
          "type": "uint256"
        },
        {
          "indexed": false,
          "internalType": "uint256",
          "name": "timestamp",
          "type": "uint256"
        },
        {
          "indexed": false,
          "internalType": "bytes32",
          "name": "orderRef",
          "type": "bytes32"
        }
      ],
      "name": "OrderBook",
      "type": "event"
    },
    {
      "anonymous": false,
      "inputs": [
        {
          "indexed": false,
          "internalType": "bool",
          "name": "paused",
          "type": "bool"
        }
      ],
      "name": "PausedStateChanged",
      "type": "event"
    },
    {
      "anonymous": false,
      "inputs": [
        {
          "indexed": false,
          "internalType": "bool",
          "name": "enabled",
          "type": "bool"
        }
      ],
      "name": "RecoveryModeStateChanged",
      "type": "event"
    },
    {
      "anonymous": false,
      "inputs": [
        {
          "indexed": false,
          "internalType": "uint256",
          "name": "swapFeePercentage",
          "type": "uint256"
        }
      ],
      "name": "SwapFeePercentageChanged",
      "type": "event"
    },
    {
      "anonymous": false,
      "inputs": [
        {
          "indexed": true,
          "internalType": "address",
          "name": "security",
          "type": "address"
        },
        {
          "indexed": false,
          "internalType": "address",
          "name": "party",
          "type": "address"
        },
        {
          "indexed": false,
          "internalType": "address",
          "name": "counterparty",
          "type": "address"
        },
        {
          "indexed": false,
          "internalType": "bytes32",
          "name": "orderType",
          "type": "bytes32"
        },
        {
          "indexed": false,
          "internalType": "uint256",
          "name": "price",
          "type": "uint256"
        },
        {
          "indexed": false,
          "internalType": "address",
          "name": "currency",
          "type": "address"
        },
        {
          "indexed": false,
          "internalType": "uint256",
          "name": "amount",
          "type": "uint256"
        },
        {
          "indexed": false,
          "internalType": "uint256",
          "name": "executionDate",
          "type": "uint256"
        }
      ],
      "name": "TradeReport",
      "type": "event"
    },
    {
      "anonymous": false,
      "inputs": [
        {
          "indexed": true,
          "internalType": "address",
          "name": "from",
          "type": "address"
        },
        {
          "indexed": true,
          "internalType": "address",
          "name": "to",
          "type": "address"
        },
        {
          "indexed": false,
          "internalType": "uint256",
          "name": "value",
          "type": "uint256"
        }
      ],
      "name": "Transfer",
      "type": "event"
    },
    {
      "inputs": [],
      "name": "DOMAIN_SEPARATOR",
      "outputs": [
        {
          "internalType": "bytes32",
          "name": "",
          "type": "bytes32"
        }
      ],
      "stateMutability": "view",
      "type": "function"
    },
    {
      "inputs": [],
      "name": "_orderbook",
      "outputs": [
        {
          "internalType": "contract Orderbook",
          "name": "",
          "type": "address"
        }
      ],
      "stateMutability": "view",
      "type": "function"
    },
    {
      "inputs": [
        {
          "internalType": "address",
          "name": "owner",
          "type": "address"
        },
        {
          "internalType": "address",
          "name": "spender",
          "type": "address"
        }
      ],
      "name": "allowance",
      "outputs": [
        {
          "internalType": "uint256",
          "name": "",
          "type": "uint256"
        }
      ],
      "stateMutability": "view",
      "type": "function"
    },
    {
      "inputs": [
        {
          "internalType": "address",
          "name": "spender",
          "type": "address"
        },
        {
          "internalType": "uint256",
          "name": "amount",
          "type": "uint256"
        }
      ],
      "name": "approve",
      "outputs": [
        {
          "internalType": "bool",
          "name": "",
          "type": "bool"
        }
      ],
      "stateMutability": "nonpayable",
      "type": "function"
    },
    {
      "inputs": [
        {
          "internalType": "address",
          "name": "account",
          "type": "address"
        }
      ],
      "name": "balanceOf",
      "outputs": [
        {
          "internalType": "uint256",
          "name": "",
          "type": "uint256"
        }
      ],
      "stateMutability": "view",
      "type": "function"
    },
    {
      "inputs": [],
      "name": "decimals",
      "outputs": [
        {
          "internalType": "uint8",
          "name": "",
          "type": "uint8"
        }
      ],
      "stateMutability": "view",
      "type": "function"
    },
    {
      "inputs": [
        {
          "internalType": "address",
          "name": "spender",
          "type": "address"
        },
        {
          "internalType": "uint256",
          "name": "amount",
          "type": "uint256"
        }
      ],
      "name": "decreaseAllowance",
      "outputs": [
        {
          "internalType": "bool",
          "name": "",
          "type": "bool"
        }
      ],
      "stateMutability": "nonpayable",
      "type": "function"
    },
    {
      "inputs": [],
      "name": "disableRecoveryMode",
      "outputs": [],
      "stateMutability": "nonpayable",
      "type": "function"
    },
    {
      "inputs": [],
      "name": "enableRecoveryMode",
      "outputs": [],
      "stateMutability": "nonpayable",
      "type": "function"
    },
    {
      "inputs": [
        {
          "internalType": "bytes4",
          "name": "selector",
          "type": "bytes4"
        }
      ],
      "name": "getActionId",
      "outputs": [
        {
          "internalType": "bytes32",
          "name": "",
          "type": "bytes32"
        }
      ],
      "stateMutability": "view",
      "type": "function"
    },
    {
      "inputs": [],
      "name": "getAuthorizer",
      "outputs": [
        {
          "internalType": "contract IAuthorizer",
          "name": "",
          "type": "address"
        }
      ],
      "stateMutability": "view",
      "type": "function"
    },
    {
      "inputs": [],
      "name": "getCurrency",
      "outputs": [
        {
          "internalType": "address",
          "name": "",
          "type": "address"
        }
      ],
      "stateMutability": "view",
      "type": "function"
    },
    {
      "inputs": [],
      "name": "getDomainSeparator",
      "outputs": [
        {
          "internalType": "bytes32",
          "name": "",
          "type": "bytes32"
        }
      ],
      "stateMutability": "view",
      "type": "function"
    },
    {
      "inputs": [],
      "name": "getMinOrderSize",
      "outputs": [
        {
          "internalType": "uint256",
          "name": "",
          "type": "uint256"
        }
      ],
      "stateMutability": "view",
      "type": "function"
    },
    {
      "inputs": [
        {
          "internalType": "address",
          "name": "account",
          "type": "address"
        }
      ],
      "name": "getNextNonce",
      "outputs": [
        {
          "internalType": "uint256",
          "name": "",
          "type": "uint256"
        }
      ],
      "stateMutability": "view",
      "type": "function"
    },
    {
      "inputs": [],
      "name": "getOwner",
      "outputs": [
        {
          "internalType": "address",
          "name": "",
          "type": "address"
        }
      ],
      "stateMutability": "view",
      "type": "function"
    },
    {
      "inputs": [],
      "name": "getPausedState",
      "outputs": [
        {
          "internalType": "bool",
          "name": "paused",
          "type": "bool"
        },
        {
          "internalType": "uint256",
          "name": "pauseWindowEndTime",
          "type": "uint256"
        },
        {
          "internalType": "uint256",
          "name": "bufferPeriodEndTime",
          "type": "uint256"
        }
      ],
      "stateMutability": "view",
      "type": "function"
    },
    {
      "inputs": [],
      "name": "getPoolId",
      "outputs": [
        {
          "internalType": "bytes32",
          "name": "",
          "type": "bytes32"
        }
      ],
      "stateMutability": "view",
      "type": "function"
    },
    {
      "inputs": [],
      "name": "getProtocolFeesCollector",
      "outputs": [
        {
          "internalType": "contract IProtocolFeesCollector",
          "name": "",
          "type": "address"
        }
      ],
      "stateMutability": "view",
      "type": "function"
    },
    {
      "inputs": [],
      "name": "getScalingFactors",
      "outputs": [
        {
          "internalType": "uint256[]",
          "name": "",
          "type": "uint256[]"
        }
      ],
      "stateMutability": "view",
      "type": "function"
    },
    {
      "inputs": [],
      "name": "getSecurity",
      "outputs": [
        {
          "internalType": "address",
          "name": "",
          "type": "address"
        }
      ],
      "stateMutability": "view",
      "type": "function"
    },
    {
      "inputs": [],
      "name": "getSwapFeePercentage",
      "outputs": [
        {
          "internalType": "uint256",
          "name": "",
          "type": "uint256"
        }
      ],
      "stateMutability": "view",
      "type": "function"
    },
    {
      "inputs": [],
      "name": "getVault",
      "outputs": [
        {
          "internalType": "contract IVault",
          "name": "",
          "type": "address"
        }
      ],
      "stateMutability": "view",
      "type": "function"
    },
    {
      "inputs": [],
      "name": "inRecoveryMode",
      "outputs": [
        {
          "internalType": "bool",
          "name": "",
          "type": "bool"
        }
      ],
      "stateMutability": "view",
      "type": "function"
    },
    {
      "inputs": [
        {
          "internalType": "address",
          "name": "spender",
          "type": "address"
        },
        {
          "internalType": "uint256",
          "name": "addedValue",
          "type": "uint256"
        }
      ],
      "name": "increaseAllowance",
      "outputs": [
        {
          "internalType": "bool",
          "name": "",
          "type": "bool"
        }
      ],
      "stateMutability": "nonpayable",
      "type": "function"
    },
    {
      "inputs": [],
      "name": "name",
      "outputs": [
        {
          "internalType": "string",
          "name": "",
          "type": "string"
        }
      ],
      "stateMutability": "view",
      "type": "function"
    },
    {
      "inputs": [
        {
          "internalType": "address",
          "name": "owner",
          "type": "address"
        }
      ],
      "name": "nonces",
      "outputs": [
        {
          "internalType": "uint256",
          "name": "",
          "type": "uint256"
        }
      ],
      "stateMutability": "view",
      "type": "function"
    },
    {
      "inputs": [
        {
          "internalType": "bytes32",
          "name": "poolId",
          "type": "bytes32"
        },
        {
          "internalType": "address",
          "name": "sender",
          "type": "address"
        },
        {
          "internalType": "address",
          "name": "recipient",
          "type": "address"
        },
        {
          "internalType": "uint256[]",
          "name": "balances",
          "type": "uint256[]"
        },
        {
          "internalType": "uint256",
          "name": "lastChangeBlock",
          "type": "uint256"
        },
        {
          "internalType": "uint256",
          "name": "protocolSwapFeePercentage",
          "type": "uint256"
        },
        {
          "internalType": "bytes",
          "name": "userData",
          "type": "bytes"
        }
      ],
      "name": "onExitPool",
      "outputs": [
        {
          "internalType": "uint256[]",
          "name": "",
          "type": "uint256[]"
        },
        {
          "internalType": "uint256[]",
          "name": "",
          "type": "uint256[]"
        }
      ],
      "stateMutability": "nonpayable",
      "type": "function"
    },
    {
      "inputs": [
        {
          "internalType": "bytes32",
          "name": "poolId",
          "type": "bytes32"
        },
        {
          "internalType": "address",
          "name": "sender",
          "type": "address"
        },
        {
          "internalType": "address",
          "name": "recipient",
          "type": "address"
        },
        {
          "internalType": "uint256[]",
          "name": "balances",
          "type": "uint256[]"
        },
        {
          "internalType": "uint256",
          "name": "lastChangeBlock",
          "type": "uint256"
        },
        {
          "internalType": "uint256",
          "name": "protocolSwapFeePercentage",
          "type": "uint256"
        },
        {
          "internalType": "bytes",
          "name": "userData",
          "type": "bytes"
        }
      ],
      "name": "onJoinPool",
      "outputs": [
        {
          "internalType": "uint256[]",
          "name": "",
          "type": "uint256[]"
        },
        {
          "internalType": "uint256[]",
          "name": "",
          "type": "uint256[]"
        }
      ],
      "stateMutability": "nonpayable",
      "type": "function"
    },
    {
      "inputs": [
        {
          "internalType": "enum IVault.SwapKind",
          "name": "kind",
          "type": "uint8"
        },
        {
          "internalType": "bytes32",
          "name": "poolId",
          "type": "bytes32"
        },
        {
          "internalType": "uint256",
          "name": "amount",
          "type": "uint256"
        },
        {
          "internalType": "bytes",
          "name": "data",
          "type": "bytes"
        },
        {
          "internalType": "uint256",
          "name": "indexIn",
          "type": "uint256"
        },
        {
          "internalType": "uint256",
          "name": "indexOut",
          "type": "uint256"
        }
      ],
      "name": "onLimit",
      "outputs": [
        {
          "internalType": "uint256",
          "name": "",
          "type": "uint256"
        }
      ],
      "stateMutability": "nonpayable",
      "type": "function"
    },
    {
      "inputs": [
        {
          "components": [
            {
              "internalType": "enum IVault.SwapKind",
              "name": "kind",
              "type": "uint8"
            },
            {
              "internalType": "contract IERC20",
              "name": "tokenIn",
              "type": "address"
            },
            {
              "internalType": "contract IERC20",
              "name": "tokenOut",
              "type": "address"
            },
            {
              "internalType": "uint256",
              "name": "amount",
              "type": "uint256"
            },
            {
              "internalType": "bytes32",
              "name": "poolId",
              "type": "bytes32"
            },
            {
              "internalType": "uint256",
              "name": "lastChangeBlock",
              "type": "uint256"
            },
            {
              "internalType": "address",
              "name": "from",
              "type": "address"
            },
            {
              "internalType": "address",
              "name": "to",
              "type": "address"
            },
            {
              "internalType": "bytes",
              "name": "userData",
              "type": "bytes"
            }
          ],
          "internalType": "struct IPoolSwapStructs.SwapRequest",
          "name": "request",
          "type": "tuple"
        },
        {
          "internalType": "uint256[]",
          "name": "balances",
          "type": "uint256[]"
        },
        {
          "internalType": "uint256",
          "name": "indexIn",
          "type": "uint256"
        },
        {
          "internalType": "uint256",
          "name": "indexOut",
          "type": "uint256"
        }
      ],
      "name": "onSwap",
      "outputs": [
        {
          "internalType": "uint256",
          "name": "",
          "type": "uint256"
        }
      ],
      "stateMutability": "nonpayable",
      "type": "function"
    },
    {
      "inputs": [],
      "name": "pause",
      "outputs": [],
      "stateMutability": "nonpayable",
      "type": "function"
    },
    {
      "inputs": [
        {
          "internalType": "address",
          "name": "owner",
          "type": "address"
        },
        {
          "internalType": "address",
          "name": "spender",
          "type": "address"
        },
        {
          "internalType": "uint256",
          "name": "value",
          "type": "uint256"
        },
        {
          "internalType": "uint256",
          "name": "deadline",
          "type": "uint256"
        },
        {
          "internalType": "uint8",
          "name": "v",
          "type": "uint8"
        },
        {
          "internalType": "bytes32",
          "name": "r",
          "type": "bytes32"
        },
        {
          "internalType": "bytes32",
          "name": "s",
          "type": "bytes32"
        }
      ],
      "name": "permit",
      "outputs": [],
      "stateMutability": "nonpayable",
      "type": "function"
    },
    {
      "inputs": [
        {
          "internalType": "bytes32",
          "name": "poolId",
          "type": "bytes32"
        },
        {
          "internalType": "address",
          "name": "sender",
          "type": "address"
        },
        {
          "internalType": "address",
          "name": "recipient",
          "type": "address"
        },
        {
          "internalType": "uint256[]",
          "name": "balances",
          "type": "uint256[]"
        },
        {
          "internalType": "uint256",
          "name": "lastChangeBlock",
          "type": "uint256"
        },
        {
          "internalType": "uint256",
          "name": "protocolSwapFeePercentage",
          "type": "uint256"
        },
        {
          "internalType": "bytes",
          "name": "userData",
          "type": "bytes"
        }
      ],
      "name": "queryExit",
      "outputs": [
        {
          "internalType": "uint256",
          "name": "bptIn",
          "type": "uint256"
        },
        {
          "internalType": "uint256[]",
          "name": "amountsOut",
          "type": "uint256[]"
        }
      ],
      "stateMutability": "view",
      "type": "function"
    },
    {
      "inputs": [
        {
          "internalType": "bytes32",
          "name": "poolId",
          "type": "bytes32"
        },
        {
          "internalType": "address",
          "name": "sender",
          "type": "address"
        },
        {
          "internalType": "address",
          "name": "recipient",
          "type": "address"
        },
        {
          "internalType": "uint256[]",
          "name": "balances",
          "type": "uint256[]"
        },
        {
          "internalType": "uint256",
          "name": "lastChangeBlock",
          "type": "uint256"
        },
        {
          "internalType": "uint256",
          "name": "protocolSwapFeePercentage",
          "type": "uint256"
        },
        {
          "internalType": "bytes",
          "name": "userData",
          "type": "bytes"
        }
      ],
      "name": "queryJoin",
      "outputs": [
        {
          "internalType": "uint256",
          "name": "bptOut",
          "type": "uint256"
        },
        {
          "internalType": "uint256[]",
          "name": "amountsIn",
          "type": "uint256[]"
        }
      ],
      "stateMutability": "view",
      "type": "function"
    },
    {
      "inputs": [
        {
          "internalType": "contract IERC20",
          "name": "token",
          "type": "address"
        },
        {
          "internalType": "bytes",
          "name": "poolConfig",
          "type": "bytes"
        }
      ],
      "name": "setAssetManagerPoolConfig",
      "outputs": [],
      "stateMutability": "nonpayable",
      "type": "function"
    },
    {
      "inputs": [
        {
          "internalType": "uint256",
          "name": "swapFeePercentage",
          "type": "uint256"
        }
      ],
      "name": "setSwapFeePercentage",
      "outputs": [],
      "stateMutability": "nonpayable",
      "type": "function"
    },
    {
      "inputs": [],
      "name": "symbol",
      "outputs": [
        {
          "internalType": "string",
          "name": "",
          "type": "string"
        }
      ],
      "stateMutability": "view",
      "type": "function"
    },
    {
      "inputs": [],
      "name": "totalSupply",
      "outputs": [
        {
          "internalType": "uint256",
          "name": "",
          "type": "uint256"
        }
      ],
      "stateMutability": "view",
      "type": "function"
    },
    {
      "inputs": [
        {
          "internalType": "address",
          "name": "recipient",
          "type": "address"
        },
        {
          "internalType": "uint256",
          "name": "amount",
          "type": "uint256"
        }
      ],
      "name": "transfer",
      "outputs": [
        {
          "internalType": "bool",
          "name": "",
          "type": "bool"
        }
      ],
      "stateMutability": "nonpayable",
      "type": "function"
    },
    {
      "inputs": [
        {
          "internalType": "address",
          "name": "sender",
          "type": "address"
        },
        {
          "internalType": "address",
          "name": "recipient",
          "type": "address"
        },
        {
          "internalType": "uint256",
          "name": "amount",
          "type": "uint256"
        }
      ],
      "name": "transferFrom",
      "outputs": [
        {
          "internalType": "bool",
          "name": "",
          "type": "bool"
        }
      ],
      "stateMutability": "nonpayable",
      "type": "function"
    },
    {
      "inputs": [],
      "name": "unpause",
      "outputs": [],
      "stateMutability": "nonpayable",
      "type": "function"
    }
  ],
  "bytecode": "0x6102e06040523480156200001257600080fd5b5060405162009d2b38038062009d2b833981016040819052620000359162000b8b565b8960008a8a620000478b8b30620004d4565b6040805160038082526080820190925290602082016060803683370190505089898989828289898d85336001600160a01b031660001b8480604051806040016040528060018152602001603160f81b81525087878160039080519060200190620000b3929190620009f5565b508051620000c9906004906020840190620009f5565b50506005805460ff19166012179055508151602092830120608052805191012060a052507f8b73c3c69bb8fe3d512ecc4cf759cc79239f7b179b0ffacaa9a75d522b39400f60c05260e0526001600160601b0319606091821b81166101005291901b1661012052506200014790506276a700831115610194620005a3565b6200015b62278d00821115610195620005a3565b42909101610140819052016101605285516200017d906002111560c8620005a3565b620001976200018b620005b8565b8751111560c9620005a3565b620001ad86620005bd60201b62002a5d1760201c565b620001b884620005c9565b6040516309b2760f60e01b81526000906001600160a01b038c16906309b2760f90620001e9908d9060040162000d54565b602060405180830381600087803b1580156200020457600080fd5b505af115801562000219573d6000803e3d6000fd5b505050506040513d601f19601f820116820180604052508101906200023f919062000b53565b604051633354e3e960e11b81529091506001600160a01b038c16906366a9c7d290620002749084908b908b9060040162000cb8565b600060405180830381600087803b1580156200028f57600080fd5b505af1158015620002a4573d6000803e3d6000fd5b505050508061018081815250508a6001600160a01b031663d2946c2b6040518163ffffffff1660e01b815260040160206040518083038186803b158015620002eb57600080fd5b505afa15801562000300573d6000803e3d6000fd5b505050506040513d601f19601f8201168201806040525081019062000326919062000b6c565b6001600160a01b03166101a0816001600160a01b031660601b815250505050505050505050505050866001600160a01b03166101c0816001600160a01b031660601b81525050856001600160a01b03166101e0816001600160a01b031660601b8152505089600b60006101000a8154816001600160a01b0302191690836001600160a01b031602179055506000806000620003c98a8a306200065d60201b60201c565b6102608190526102808390526102a082905291945092509050620003ed8a62000753565b61020052620003fc8962000753565b61022052600a8890556102408790526001600160601b0319606085901b166102c05260405184908b908b903090620004349062000a7a565b62000443949392919062000c8d565b604051809103906000f08015801562000460573d6000803e3d6000fd5b50600980546001600160a01b0319166001600160a01b0392831617908190556040518c8316927f3ca60c442fe0a0eec00a4242bd76d6b93ec28f607f78e5b820a53f8538854bbb92620004b9928d928f92169062000d72565b60405180910390a25050505050505050505050505062000db3565b606060008080620004e78787876200065d565b60408051600380825260808201909252939650919450925060208201606080368337019050509350868484815181106200051d57fe5b60200260200101906001600160a01b031690816001600160a01b031681525050858483815181106200054b57fe5b60200260200101906001600160a01b031690816001600160a01b031681525050848482815181106200057957fe5b60200260200101906001600160a01b031690816001600160a01b0316815250505050509392505050565b81620005b457620005b48162000827565b5050565b600390565b80620005b4816200083c565b620005e2620005d7620008c8565b82101560cb620005a3565b620005fb620005f0620008d1565b82111560ca620005a3565b6200061d8160c0603f600854620008dd60201b62002a6717909392919060201c565b6008556040517fa9ba3ffe0b6c366b81232caab38605a0699ad5398d6cce76f91ee809e322dafc906200065290839062000d69565b60405180910390a150565b6000806000846001600160a01b0316866001600160a01b03161015620006e657836001600160a01b0316856001600160a01b03161015620006a95750600091506001905060026200074a565b836001600160a01b0316866001600160a01b03161015620006d55750600091506002905060016200074a565b50600191506002905060006200074a565b846001600160a01b0316846001600160a01b03161015620007125750600291506001905060006200074a565b856001600160a01b0316846001600160a01b031610156200073e5750600291506000905060016200074a565b50600191506000905060025b93509350939050565b60006001600160a01b038216301415620007775750670de0b6b3a764000062000822565b6000826001600160a01b031663313ce5676040518163ffffffff1660e01b815260040160206040518083038186803b158015620007b357600080fd5b505afa158015620007c8573d6000803e3d6000fd5b505050506040513d601f19601f82011682018060405250810190620007ee919062000c6a565b60ff16905060006200080d6012836200090260201b62002a8f1760201c565b905080600a0a670de0b6b3a764000002925050505b919050565b62000839816210905360ea1b6200091f565b50565b6002815110156200084d5762000839565b6000816000815181106200085d57fe5b602002602001015190506000600190505b8251811015620008c35760008382815181106200088757fe5b60200260200101519050620008b8816001600160a01b0316846001600160a01b0316106065620005a360201b60201c565b91506001016200086e565b505050565b64e8d4a5100090565b67016345785d8a000090565b6000620008ec84848462000980565b506001901b60001901811b1992909216911b1790565b600062000914838311156001620005a3565b508082035b92915050565b62461bcd60e51b600090815260206004526007602452600a808404818106603090810160081b958390069590950190829004918206850160101b01602363ffffff0060e086901c160160181b0190930160c81b60445260e882901c90606490fd5b6200099161010083106064620005a3565b620009ca60018210158015620009c25750620009be60ff8461010003620009db60201b62002aa51760201c565b8211155b6064620005a3565b620008c383821c156101b4620005a3565b6000818310620009ec5781620009ee565b825b9392505050565b828054600181600116156101000203166002900490600052602060002090601f016020900481019282601f1062000a3857805160ff191683800117855562000a68565b8280016001018555821562000a68579182015b8281111562000a6857825182559160200191906001019062000a4b565b5062000a7692915062000a88565b5090565b613d10806200601b83390190565b5b8082111562000a76576000815560010162000a89565b8051620009198162000d9d565b600082601f83011262000abd578081fd5b81516001600160401b038082111562000ad4578283fd5b6040516020601f8401601f191682018101838111838210171562000af6578586fd5b8060405250819450838252868185880101111562000b1357600080fd5b600092505b8383101562000b37578583018101518284018201529182019162000b18565b8383111562000b495760008185840101525b5050505092915050565b60006020828403121562000b65578081fd5b5051919050565b60006020828403121562000b7e578081fd5b8151620009ee8162000d9d565b6000806000806000806000806000806101408b8d03121562000bab578586fd5b62000bb78c8c62000a9f565b60208c0151909a506001600160401b038082111562000bd4578788fd5b62000be28e838f0162000aac565b9a5060408d015191508082111562000bf8578788fd5b5062000c078d828e0162000aac565b98505062000c198c60608d0162000a9f565b965062000c2a8c60808d0162000a9f565b955060a08b0151945060c08b0151935060e08b015192506101008b0151915062000c598c6101208d0162000a9f565b90509295989b9194979a5092959850565b60006020828403121562000c7c578081fd5b815160ff81168114620009ee578182fd5b6001600160a01b03948516815292841660208401529083166040830152909116606082015260800190565b60006060820185835260206060818501528186518084526080860191508288019350845b8181101562000d045762000cf1855162000d91565b8352938301939183019160010162000cdc565b505084810360408601528551808252908201925081860190845b8181101562000d465762000d33835162000d91565b8552938301939183019160010162000d1e565b509298975050505050505050565b602081016003831062000d6357fe5b91905290565b90815260200190565b9283526001600160a01b03918216602084015216604082015260600190565b6001600160a01b031690565b6001600160a01b03811681146200083957600080fd5b60805160a05160c05160e0516101005160601c6101205160601c6101405161016051610180516101a05160601c6101c05160601c6101e05160601c61020051610220516102405161026051610280516102a0516102c05160601c61506362000fb860003980610e70528061363952508061082352806120f55280612ba552806136b4528061370e5250806108d55280611d885280611dfb52806121a75280612b3f525080612bfa5280613b0652505080610e145280612bcd52806136e7525080610de05280612b67525080610620528061069f52806107c75280610bdb5280610c325280610c925280610d765280611205528061132252806113e6528061148f52806115f952806117585280611899528061192b52806119d35280611daf5280611e225280611f005280611f7f5280612099528061226d52806123d5528061252452508061065f52806106df52806108795280610a145280610b225280610b795280610cd15280610d375280610edc52806112e352806113a752806114ce52806115ba5280611797528061184552806118ec52806119945280611b945280611dd55280611e485280611f3f5280611fbf528061214b52806122ac5280612396525080612837525080611be7525080612dd0525080612dac52508061271f5250806126fb5250806126855250806137915250806137d35250806137b252506150636000f3fe608060405234801561001057600080fd5b50600436106102de5760003560e01c806370a0823111610186578063a457c2d7116100e3578063d2946c2b11610097578063dd62ed3e11610071578063dd62ed3e14610565578063ed24911d14610578578063fd19cac814610580576102de565b8063d2946c2b14610537578063d505accf1461053f578063d5c096c414610552576102de565b8063aaabadc5116100c8578063aaabadc51461051f578063b35056b814610527578063b7b814fc1461052f576102de565b8063a457c2d7146104f9578063a9059cbb1461050c576102de565b806387ec68171161013a5780638d928af81161011f5780638d928af8146104d657806390193b7c146104de57806395d89b41146104f1576102de565b806387ec6817146104bb578063893d20e8146104ce576102de565b80637ecebe001161016b5780637ecebe001461048d5780638456cb59146104a0578063851c1bb3146104a8576102de565b806370a082311461045957806374f3b0091461046c576102de565b806338e9922e1161023f57806350dd6ed9116101f35780636028bfd4116101cd5780636028bfd41461041d578063688d6b791461043e5780636945c1fd14610451576102de565b806350dd6ed9146103fa57806354a844ba1461040d57806355c6762814610415576102de565b8063395093511161022457806339509351146103d75780633f4ba83a146103ea5780634d6d0fd0146103f2576102de565b806338e9922e146103ba57806338fff2d0146103cf576102de565b80631dd746ea116102965780632541897f1161027b5780632541897f14610388578063313ce5671461039d5780633644e515146103b2576102de565b80631dd746ea1461036057806323b872dd14610375576102de565b8063095ea7b3116102c7578063095ea7b31461032157806318160ddd146103415780631c0de05114610349576102de565b806301ec954a146102e357806306fdde031461030c575b600080fd5b6102f66102f13660046146de565b610588565b6040516103039190614be2565b60405180910390f35b610314611a33565b6040516103039190614cb8565b61033461032f3660046142cc565b611ac9565b6040516103039190614bbf565b6102f6611ae0565b610351611ae6565b60405161030393929190614bca565b610368611b0f565b6040516103039190614b7e565b61033461038336600461421c565b611b1e565b610390611b92565b6040516103039190614acd565b6103a5611bb6565b6040516103039190614f57565b6102f6611bbf565b6103cd6103c836600461492c565b611bc9565b005b6102f6611be5565b6103346103e53660046142cc565b611c09565b6103cd611c44565b6102f6611c58565b6103cd61040836600461450f565b611c5e565b6103cd611c7c565b6102f6611c8e565b61043061042b3660046143e3565b611ca1565b604051610303929190614f3e565b6102f661044c3660046145ee565b611cd8565b610390612522565b6102f66104673660046141c8565b612546565b61047f61047a3660046143e3565b612561565b604051610303929190614b91565b6102f661049b3660046141c8565b612664565b6103cd61266f565b6102f66104b63660046144b3565b612681565b6104306104c93660046143e3565b6126d3565b6103906126f9565b61039061271d565b6102f66104ec3660046141c8565b612741565b61031461275c565b6103346105073660046142cc565b6127bd565b61033461051a3660046142cc565b6127fb565b610390612808565b610334612812565b6103cd612823565b610390612835565b6103cd61054d36600461425c565b612859565b61047f6105603660046143e3565b6128e4565b6102f66105733660046141e4565b612a07565b6102f6612a44565b610390612a4e565b600084608001516105b561059a61271d565b6001600160a01b0316336001600160a01b03161460cd612abd565b6105ca6105c0611be5565b82146101f4612abd565b6105d2612acb565b6000865160018111156105e157fe5b14806105f957506001865160018111156105f757fe5b145b61061e5760405162461bcd60e51b815260040161061590614da7565b60405180910390fd5b7f00000000000000000000000000000000000000000000000000000000000000006001600160a01b031686604001516001600160a01b0316148061069757507f00000000000000000000000000000000000000000000000000000000000000006001600160a01b031686604001516001600160a01b0316145b806106d757507f00000000000000000000000000000000000000000000000000000000000000006001600160a01b031686602001516001600160a01b0316145b8061071757507f00000000000000000000000000000000000000000000000000000000000000006001600160a01b031686602001516001600160a01b0316145b6107335760405162461bcd60e51b815260040161061590614ccb565b606061073d612ade565b90506107498682612c51565b610751613fc1565b606060008080808c51600181111561076557fe5b14156107965761078c8c60600151878c8151811061077f57fe5b6020026020010151612cc0565b60608d01526107c5565b60018c5160018111156107a557fe5b14156107c5576107bf8c60600151878b8151811061077f57fe5b60608d01525b7f00000000000000000000000000000000000000000000000000000000000000006001600160a01b03168c602001516001600160a01b0316148015610816575060008c51600181111561081457fe5b145b15610877578b606001518b7f00000000000000000000000000000000000000000000000000000000000000008151811061084c57fe5b602002602001015110156108725760405162461bcd60e51b815260040161061590614d39565b610924565b7f00000000000000000000000000000000000000000000000000000000000000006001600160a01b03168c602001516001600160a01b03161480156108c8575060008c5160018111156108c657fe5b145b15610924578b606001518b7f0000000000000000000000000000000000000000000000000000000000000000815181106108fe57fe5b602002602001015110156109245760405162461bcd60e51b815260040161061590614dde565b6101008c0151511561143b578b61010001518060200190518101906109499190614661565b815191955093506114365761095c613fd8565b60095460c08e01516040517fca142f750000000000000000000000000000000000000000000000000000000081526001600160a01b039092169163ca142f75916109aa918890600401614b65565b60e06040518083038186803b1580156109c257600080fd5b505afa1580156109d6573d6000803e3d6000fd5b505050506040513d601f19601f820116820180604052508101906109fa91906148bc565b60095460c08f015160208301519293506001600160a01b037f000000000000000000000000000000000000000000000000000000000000000081169392811692635778472a92908216911614610a54578360400151610a57565b83515b6040518263ffffffff1660e01b8152600401610a739190614be2565b6101406040518083038186803b158015610a8c57600080fd5b505afa158015610aa0573d6000803e3d6000fd5b505050506040513d601f19601f82011682018060405250810190610ac491906147fd565b602001516001600160a01b031614610afc577f63757272656e6379000000000000000000000000000000000000000000000000610b1e565b7f73656375726974790000000000000000000000000000000000000000000000005b92507f00000000000000000000000000000000000000000000000000000000000000006001600160a01b03168d602001516001600160a01b0316148015610b71575060008d516001811115610b6f57fe5b145b80610bc857507f00000000000000000000000000000000000000000000000000000000000000006001600160a01b03168d604001516001600160a01b0316148015610bc8575060018d516001811115610bc657fe5b145b15610bd9578060c001519150610c8e565b7f00000000000000000000000000000000000000000000000000000000000000006001600160a01b03168d602001516001600160a01b0316148015610c2a575060008d516001811115610c2857fe5b145b80610c8157507f00000000000000000000000000000000000000000000000000000000000000006001600160a01b03168d604001516001600160a01b0316148015610c81575060018d516001811115610c7f57fe5b145b15610c8e578060a0015191505b60007f00000000000000000000000000000000000000000000000000000000000000006001600160a01b03168e604001516001600160a01b03161480610d0957507f00000000000000000000000000000000000000000000000000000000000000006001600160a01b03168e602001516001600160a01b0316145b15610d3557507f53656c6c00000000000000000000000000000000000000000000000000000000610dd6565b7f00000000000000000000000000000000000000000000000000000000000000006001600160a01b03168e604001516001600160a01b03161480610dae57507f00000000000000000000000000000000000000000000000000000000000000006001600160a01b03168e602001516001600160a01b0316145b15610dd657507f42757900000000000000000000000000000000000000000000000000000000005b610e048260a001517f0000000000000000000000000000000000000000000000000000000000000000612ccc565b60a083015260c0820151610e38907f0000000000000000000000000000000000000000000000000000000000000000612ccc565b60c08301526009546040517f04aec4f90000000000000000000000000000000000000000000000000000000081526001600160a01b037f00000000000000000000000000000000000000000000000000000000000000008116926304aec4f992610ea89287921690600401614ed9565b600060405180830381600087803b158015610ec257600080fd5b505af1158015610ed6573d6000803e3d6000fd5b505050507f00000000000000000000000000000000000000000000000000000000000000006001600160a01b03167f08fb458ca19c621bab303b5f2f406bd918bedc1610f85d2f58c66ec89e89f46b7f73656375726974790000000000000000000000000000000000000000000000008614610ff25760095460408086015190517f5778472a0000000000000000000000000000000000000000000000000000000081526001600160a01b0390921691635778472a91610f9891600401614be2565b6101406040518083038186803b158015610fb157600080fd5b505afa158015610fc5573d6000803e3d6000fd5b505050506040513d601f19601f82011682018060405250810190610fe991906147fd565b60e00151611091565b60095484516040517f5778472a0000000000000000000000000000000000000000000000000000000081526001600160a01b0390921691635778472a9161103b91600401614be2565b6101406040518083038186803b15801561105457600080fd5b505afa158015611068573d6000803e3d6000fd5b505050506040513d601f19601f8201168201806040525081019061108c91906147fd565b60e001515b7f63757272656e6379000000000000000000000000000000000000000000000000871461115e5760095460408087015190517f5778472a0000000000000000000000000000000000000000000000000000000081526001600160a01b0390921691635778472a9161110491600401614be2565b6101406040518083038186803b15801561111d57600080fd5b505afa158015611131573d6000803e3d6000fd5b505050506040513d601f19601f8201168201806040525081019061115591906147fd565b60e001516111fd565b60095485516040517f5778472a0000000000000000000000000000000000000000000000000000000081526001600160a01b0390921691635778472a916111a791600401614be2565b6101406040518083038186803b1580156111c057600080fd5b505afa1580156111d4573d6000803e3d6000fd5b505050506040513d601f19601f820116820180604052508101906111f891906147fd565b60e001515b8486606001517f000000000000000000000000000000000000000000000000000000000000000089896080015160405161123d9796959493929190614ae1565b60405180910390a260095460c08f01516040517fd729cf6c0000000000000000000000000000000000000000000000000000000081526001600160a01b039092169163d729cf6c91611293918990600401614b65565b600060405180830381600087803b1580156112ad57600080fd5b505af11580156112c1573d6000803e3d6000fd5b50600092506112ce915050565b8e5160018111156112db57fe5b1415611390577f00000000000000000000000000000000000000000000000000000000000000006001600160a01b03168e602001516001600160a01b0316148061135a57507f00000000000000000000000000000000000000000000000000000000000000006001600160a01b03168e602001516001600160a01b0316145b1561138b5761137c83898d8151811061136f57fe5b6020026020010151612ccc565b99505050505050505050611a2a565b611433565b60018e51600181111561139f57fe5b1415611433577f00000000000000000000000000000000000000000000000000000000000000006001600160a01b03168e604001516001600160a01b0316148061141e57507f00000000000000000000000000000000000000000000000000000000000000006001600160a01b03168e604001516001600160a01b0316145b156114335761137c83898e8151811061136f57fe5b50505b611452565b604080518082019091526000808252602082015294505b60008551600281111561146157fe5b1415611a2357600a548c60600151101561148d5760405162461bcd60e51b815260040161061590614d02565b7f00000000000000000000000000000000000000000000000000000000000000006001600160a01b03168c604001516001600160a01b0316148061150657507f00000000000000000000000000000000000000000000000000000000000000006001600160a01b03168c602001516001600160a01b0316145b156115b8576009546040517f65fe757e0000000000000000000000000000000000000000000000000000000081526001600160a01b03909116906365fe757e90611559908f908990600190600401614e15565b606060405180830381600087803b15801561157357600080fd5b505af1158015611587573d6000803e3d6000fd5b505050506040513d601f19601f820116820180604052508101906115ab9190614486565b90945090925090506116df565b7f00000000000000000000000000000000000000000000000000000000000000006001600160a01b03168c604001516001600160a01b0316148061163157507f00000000000000000000000000000000000000000000000000000000000000006001600160a01b03168c602001516001600160a01b0316145b156116df576009546040517f65fe757e0000000000000000000000000000000000000000000000000000000081526001600160a01b03909116906365fe757e90611684908f908990600090600401614e15565b606060405180830381600087803b15801561169e57600080fd5b505af11580156116b2573d6000803e3d6000fd5b505050506040513d601f19601f820116820180604052508101906116d69190614486565b90945090925090505b806116fc5760405162461bcd60e51b815260040161061590614d70565b7f9b85ff671b830162b81f1cb1253d54a6fee66e6f9760fc15cfc3fecccca8f1188c60c001518d602001518e604001518f606001518960200151888860405161174b9796959493929190614b24565b60405180910390a16000807f00000000000000000000000000000000000000000000000000000000000000006001600160a01b03168e604001516001600160a01b031614806117cf57507f00000000000000000000000000000000000000000000000000000000000000006001600160a01b03168e602001516001600160a01b0316145b1561180e5760608e01517f53656c6c000000000000000000000000000000000000000000000000000000009250611807908490612cd4565b9050611843565b60608e01517f427579000000000000000000000000000000000000000000000000000000000092506118409084612cd4565b90505b7f00000000000000000000000000000000000000000000000000000000000000006001600160a01b03167f08fb458ca19c621bab303b5f2f406bd918bedc1610f85d2f58c66ec89e89f46b8f60c00151600085857f0000000000000000000000000000000000000000000000000000000000000000898c6040516118cd9796959493929190614ae1565b60405180910390a260008e5160018111156118e457fe5b141561197d577f00000000000000000000000000000000000000000000000000000000000000006001600160a01b03168e602001516001600160a01b0316148061196357507f00000000000000000000000000000000000000000000000000000000000000006001600160a01b03168e602001516001600160a01b0316145b156119785761137c83898d8151811061136f57fe5b611a20565b60018e51600181111561198c57fe5b1415611a20577f00000000000000000000000000000000000000000000000000000000000000006001600160a01b03168e604001516001600160a01b03161480611a0b57507f00000000000000000000000000000000000000000000000000000000000000006001600160a01b03168e604001516001600160a01b0316145b15611a205761137c83898e8151811061136f57fe5b50505b5050505050505b50949350505050565b60038054604080516020601f6002600019610100600188161502019095169490940493840181900481028201810190925282815260609390929091830182828015611abf5780601f10611a9457610100808354040283529160200191611abf565b820191906000526020600020905b815481529060010190602001808311611aa257829003601f168201915b5050505050905090565b6000611ad6338484612d25565b5060015b92915050565b60025490565b6000806000611af3612d8d565b159250611afe612daa565b9150611b08612dce565b9050909192565b6060611b19612ade565b905090565b600080611b2b8533612a07565b9050611b4f336001600160a01b0387161480611b475750838210155b61019e612abd565b611b5a858585612df2565b336001600160a01b03861614801590611b7557506000198114155b15611b8757611b878533858403612d25565b506001949350505050565b7f000000000000000000000000000000000000000000000000000000000000000090565b60055460ff1690565b6000611b19612a44565b611bd1612ed2565b611bd9612acb565b611be281612f18565b50565b7f000000000000000000000000000000000000000000000000000000000000000090565b3360008181526001602090815260408083206001600160a01b03871684529091528120549091611ad6918590611c3f9086612f91565b612d25565b611c4c612ed2565b611c566000612fa3565b565b600a5490565b611c66612ed2565b611c6e612acb565b611c788282613034565b5050565b611c84612ed2565b611c566001613142565b600854600090611b199060c0603f613199565b60006060611cb78651611cb26131a8565b6131ad565b611ccc898989898989896131ba61320c613275565b97509795505050505050565b6000611ce2612acb565b600b546040517ff94d46680000000000000000000000000000000000000000000000000000000081526060916001600160a01b03169063f94d466890611d2c908a90600401614be2565b60006040518083038186803b158015611d4457600080fd5b505afa158015611d58573d6000803e3d6000fd5b505050506040513d6000823e601f3d908101601f19168201604052611d8091908101906142f7565b5091505060007f00000000000000000000000000000000000000000000000000000000000000008514611dd3577f0000000000000000000000000000000000000000000000000000000000000000611df5565b7f00000000000000000000000000000000000000000000000000000000000000005b905060007f00000000000000000000000000000000000000000000000000000000000000008514611e46577f0000000000000000000000000000000000000000000000000000000000000000611e68565b7f00000000000000000000000000000000000000000000000000000000000000005b9050611e72614014565b808b6001811115611e7f57fe5b90816001811115611e8c57fe5b9052506001600160a01b038084166020830152821660408201526060810189905261010081018890523360c0820152600081516001811115611eca57fe5b1480611ee25750600181516001811115611ee057fe5b145b611efe5760405162461bcd60e51b815260040161061590614da7565b7f00000000000000000000000000000000000000000000000000000000000000006001600160a01b031681604001516001600160a01b03161480611f7757507f00000000000000000000000000000000000000000000000000000000000000006001600160a01b031681604001516001600160a01b0316145b80611fb757507f00000000000000000000000000000000000000000000000000000000000000006001600160a01b031681602001516001600160a01b0316145b80611ff757507f00000000000000000000000000000000000000000000000000000000000000006001600160a01b031681602001516001600160a01b0316145b6120135760405162461bcd60e51b815260040161061590614ccb565b606061201d612ade565b90506120298582612c51565b612031613fc1565b6060600080808651600181111561204457fe5b14156120685761205e8660600151868e8151811061077f57fe5b6060870152612097565b60018651600181111561207757fe5b1415612097576120918660600151868d8151811061077f57fe5b60608701525b7f00000000000000000000000000000000000000000000000000000000000000006001600160a01b031686602001516001600160a01b03161480156120e857506000865160018111156120e657fe5b145b15612149578560600151897f00000000000000000000000000000000000000000000000000000000000000008151811061211e57fe5b602002602001015110156121445760405162461bcd60e51b815260040161061590614d39565b6121f6565b7f00000000000000000000000000000000000000000000000000000000000000006001600160a01b031686602001516001600160a01b031614801561219a575060008651600181111561219857fe5b145b156121f6578560600151897f0000000000000000000000000000000000000000000000000000000000000000815181106121d057fe5b602002602001015110156121f65760405162461bcd60e51b815260040161061590614dde565b61010086015151156122455785610100015180602001905181019061221b9190614661565b81519194509250156122455781156122455760408051808201909152806001815260200183905293505b600a548660600151101561226b5760405162461bcd60e51b815260040161061590614d02565b7f00000000000000000000000000000000000000000000000000000000000000006001600160a01b031686604001516001600160a01b031614806122e457507f00000000000000000000000000000000000000000000000000000000000000006001600160a01b031686602001516001600160a01b0316145b15612394576009546040517f65fe757e0000000000000000000000000000000000000000000000000000000081526001600160a01b03909116906365fe757e906123379089908890600190600401614e15565b606060405180830381600087803b15801561235157600080fd5b505af1158015612365573d6000803e3d6000fd5b505050506040513d601f19601f820116820180604052508101906123899190614486565b509091506124b89050565b7f00000000000000000000000000000000000000000000000000000000000000006001600160a01b031686604001516001600160a01b0316148061240d57507f00000000000000000000000000000000000000000000000000000000000000006001600160a01b031686602001516001600160a01b0316145b156124b8576009546040517f65fe757e0000000000000000000000000000000000000000000000000000000081526001600160a01b03909116906365fe757e906124609089908890600090600401614e15565b606060405180830381600087803b15801561247a57600080fd5b505af115801561248e573d6000803e3d6000fd5b505050506040513d601f19601f820116820180604052508101906124b29190614486565b50909150505b7f9b85ff671b830162b81f1cb1253d54a6fee66e6f9760fc15cfc3fecccca8f1188660c00151876020015188604001518960600151886020015142876040516125079796959493929190614b24565b60405180910390a15050505050505050509695505050505050565b7f000000000000000000000000000000000000000000000000000000000000000090565b6001600160a01b031660009081526020819052604090205490565b6060808861257061059a61271d565b61257b6105c0611be5565b606060006125888661340c565b156125b05761259561343b565b6125a7896125a1611ae0565b8861344e565b92509050612602565b6125b861347a565b60606125c2612ade565b90506125ce8a82612c51565b6125f28d8d8d8d8d6125de612812565b6125e8578d6125eb565b60005b878e6131ba565b93509150612600838261320c565b505b61260c8b82613482565b81895167ffffffffffffffff8111801561262557600080fd5b5060405190808252806020026020018201604052801561264f578160200160208202803683370190505b509450945050505b5097509795505050505050565b6000611ada82612741565b612677612ed2565b611c566001612fa3565b60007f0000000000000000000000000000000000000000000000000000000000000000826040516020016126b6929190614a57565b604051602081830303815290604052805190602001209050919050565b600060606126e48651611cb26131a8565b611ccc8989898989898961348c6134a8613275565b7f000000000000000000000000000000000000000000000000000000000000000090565b7f000000000000000000000000000000000000000000000000000000000000000090565b6001600160a01b031660009081526006602052604090205490565b60048054604080516020601f6002600019610100600188161502019095169490940493840181900481028201810190925282815260609390929091830182828015611abf5780601f10611a9457610100808354040283529160200191611abf565b6000806127ca3385612a07565b90508083106127e4576127df33856000612d25565b6127f1565b6127f13385858403612d25565b5060019392505050565b6000611ad6338484612df2565b6000611b19613511565b600854600090611b199060ff61358b565b61282b612ed2565b611c566000613142565b7f000000000000000000000000000000000000000000000000000000000000000090565b60007f6e71edae12b1b97f4d1f60370fef10105fa2faae0126114a169c64845d6126c98888886128888c612741565b8960405160200161289e96959493929190614c0a565b6040516020818303038152906040528051906020012090506128cf88826128c6878787613595565b886101f86135d4565b6128da888888612d25565b5050505050505050565b606080886128f361059a61271d565b6128fe6105c0611be5565b61290661347a565b6060612910612ade565b905061291a611ae0565b6129c7576000606061292f8d8d8d868b61362b565b9150915061294861293e613751565b83101560cc612abd565b61295a6000612955613751565b613758565b61296d8b612966613751565b8403613758565b61297781846134a8565b808a5167ffffffffffffffff8111801561299057600080fd5b506040519080825280602002602001820160405280156129ba578160200160208202803683370190505b5095509550505050612657565b6129d18882612c51565b600060606129f98d8d8d8d8d6129e5612812565b6129ef578d6129f2565b60005b898e61348c565b9150915061296d8b83613758565b6000612a1161271d565b6001600160a01b0316826001600160a01b03161415612a335750600019611ada565b612a3d8383613762565b9050611ada565b6000611b1961378d565b6009546001600160a01b031681565b80611c788161382a565b6000612a748484846138a8565b5082821b6000196001831b01831b198516175b949350505050565b6000612a9f838311156001612abd565b50900390565b6000818310612ab45781612ab6565b825b9392505050565b81611c7857611c78816138ef565b611c56612ad6612d8d565b610192612abd565b60606000612aea6131a8565b905060608167ffffffffffffffff81118015612b0557600080fd5b50604051908082528060200260200182016040528015612b2f578160200160208202803683370190505b50905060005b82811015612c4a577f0000000000000000000000000000000000000000000000000000000000000000811415612ba3577f0000000000000000000000000000000000000000000000000000000000000000828281518110612b9257fe5b602002602001018181525050612c42565b7f0000000000000000000000000000000000000000000000000000000000000000811415612bf8577f0000000000000000000000000000000000000000000000000000000000000000828281518110612b9257fe5b7f0000000000000000000000000000000000000000000000000000000000000000811415612c4257670de0b6b3a7640000828281518110612c3557fe5b6020026020010181815250505b600101612b35565b5091505090565b81518151612c609082906131ad565b60005b81811015612cba57612c9b848281518110612c7a57fe5b6020026020010151848381518110612c8e57fe5b6020026020010151613919565b848281518110612ca757fe5b6020908102919091010152600101612c63565b50505050565b6000612ab68383613919565b6000612ab683835b6000612ce38215156004612abd565b82612cf057506000611ada565b670de0b6b3a764000083810290612d1390858381612d0a57fe5b04146005612abd565b828181612d1c57fe5b04915050611ada565b6001600160a01b0380841660008181526001602090815260408083209487168084529490915290819020849055517f8c5be1e5ebec7d5bd14f71427d1e84f3dd0314c0f7b2291e5b200ac8c7c3b92590612d80908590614be2565b60405180910390a3505050565b6000612d97612dce565b421180611b1957505060075460ff161590565b7f000000000000000000000000000000000000000000000000000000000000000090565b7f000000000000000000000000000000000000000000000000000000000000000090565b612e096001600160a01b0384161515610198612abd565b612e206001600160a01b0383161515610199612abd565b612e2b8383836138a3565b6001600160a01b038316600090815260208190526040902054612e5190826101a061394f565b6001600160a01b038085166000908152602081905260408082209390935590841681522054612e809082612f91565b6001600160a01b0380841660008181526020819052604090819020939093559151908516907fddf252ad1be2c89b69c2b068fc378daa952ba7f163c4a11628f55a4df523b3ef90612d80908590614be2565b6000612f016000357fffffffff0000000000000000000000000000000000000000000000000000000016612681565b9050611be2612f108233613965565b610191612abd565b612f2d612f23613a4e565b82101560cb612abd565b612f42612f38613a57565b82111560ca612abd565b600854612f53908260c0603f612a67565b6008556040517fa9ba3ffe0b6c366b81232caab38605a0699ad5398d6cce76f91ee809e322dafc90612f86908390614be2565b60405180910390a150565b6000828201612ab68482101583612abd565b8015612fc357612fbe612fb4612daa565b4210610193612abd565b612fd8565b612fd8612fce612dce565b42106101a9612abd565b600780547fffffffffffffffffffffffffffffffffffffffffffffffffffffffffffffff00168215151790556040517f9e3a5e37224532dea67b89face185703738a228a6e8a23dee546960180d3be6490612f86908390614bbf565b600061303e611be5565b9050600061304a61271d565b6001600160a01b031663b05f8e4883866040518363ffffffff1660e01b8152600401613077929190614c83565b60806040518083038186803b15801561308f57600080fd5b505afa1580156130a3573d6000803e3d6000fd5b505050506040513d601f19601f820116820180604052508101906130c79190614944565b6040517f18e736d40000000000000000000000000000000000000000000000000000000081529094506001600160a01b03851693506318e736d49250613114915085908790600401614c6a565b600060405180830381600087803b15801561312e57600080fd5b505af11580156128da573d6000803e3d6000fd5b600854613151908260ff613a63565b6008556040517feff3d4d215b42bf0960be9c6d5e05c22cba4df6627a3a523e2acee733b5854c890613184908390614bbf565b60405180910390a180611be257611be2611c56565b6001901b6000190191901c1690565b600390565b611c788183146067612abd565b6000606060006131c984613a8a565b905060018160018111156131d957fe5b146131ee576131e96101636138ef565b6131fe565b6131f88885613aa0565b90935091505b509850989650505050505050565b8151815161321b9082906131ad565b60005b81811015612cba5761325684828151811061323557fe5b602002602001015184838151811061324957fe5b6020026020010151612cd4565b84828151811061326257fe5b602090810291909101015260010161321e565b333014613364576000306001600160a01b0316600036604051613299929190614a87565b6000604051808303816000865af19150503d80600081146132d6576040519150601f19603f3d011682016040523d82523d6000602084013e6132db565b606091505b5050905080600081146132ea57fe5b60046000803e6000517fffffffff00000000000000000000000000000000000000000000000000000000167f43adbafb000000000000000000000000000000000000000000000000000000008114613346573d6000803e3d6000fd5b506020600460003e604060205260243d03602460403e601c3d016000f35b61336c61347a565b6060613376612ade565b90506133828782612c51565b6000606061339a8c8c8c8c8c8c898d8d63ffffffff16565b915091506133ac81848663ffffffff16565b8051601f1982018390526343adbafb7fffffffffffffffffffffffffffffffffffffffffffffffffffffffffffffffc08301526020027fffffffffffffffffffffffffffffffffffffffffffffffffffffffffffffffdc82016044820181fd5b6000808251118015611ada575060ff8016828060200190518101906134319190614984565b60ff161492915050565b611c56613446612812565b6101b6612abd565b60006060600061345d84613b6c565b9050606061346c878784613b82565b919791965090945050505050565b611c56612acb565b611c788282613c31565b6000606061349b6101636138ef565b9850989650505050505050565b815181516134b79082906131ad565b60005b81811015612cba576134f28482815181106134d157fe5b60200260200101518483815181106134e557fe5b6020026020010151613cfd565b8482815181106134fe57fe5b60209081029190910101526001016134ba565b600061351b61271d565b6001600160a01b031663aaabadc56040518163ffffffff1660e01b815260040160206040518083038186803b15801561355357600080fd5b505afa158015613567573d6000803e3d6000fd5b505050506040513d601f19601f82011682018060405250810190611b1991906144f3565b1c60019081161490565b60408051604180825260808201909252606091829190602082018180368337019050509050836020820152826040820152846060820153949350505050565b60006135df85613d4b565b90506135f56135ef878387613d67565b83612abd565b613604428410156101b8612abd565b5050506001600160a01b039092166000908152600660205260409020805460010190555050565b60006060613637612acb565b7f00000000000000000000000000000000000000000000000000000000000000006136726001600160a01b0388811690831614610156612abd565b613692816001600160a01b0316876001600160a01b031614610156612abd565b6dffffffffffffffffffffffffffff60606136ac86613e16565b905061370b817f0000000000000000000000000000000000000000000000000000000000000000815181106136dd57fe5b60200260200101517f0000000000000000000000000000000000000000000000000000000000000000612cc0565b817f00000000000000000000000000000000000000000000000000000000000000008151811061373757fe5b602090810291909101015290999098509650505050505050565b620f424090565b611c788282613e2c565b6001600160a01b03918216600090815260016020908152604080832093909416825291909152205490565b60007f00000000000000000000000000000000000000000000000000000000000000007f00000000000000000000000000000000000000000000000000000000000000007f00000000000000000000000000000000000000000000000000000000000000006137fa613ebf565b3060405160200161380f959493929190614c3e565b60405160208183030381529060405280519060200120905090565b60028151101561383957611be2565b60008160008151811061384857fe5b602002602001015190506000600190505b82518110156138a357600083828151811061387057fe5b60200260200101519050613899816001600160a01b0316846001600160a01b0316106065612abd565b9150600101613859565b505050565b6138b761010083106064612abd565b6138e0600182101580156138d957506138d560ff8461010003612aa5565b8211155b6064612abd565b6138a383821c156101b4612abd565b611be2817f42414c0000000000000000000000000000000000000000000000000000000000613ec3565b600082820261393d84158061393657508385838161393357fe5b04145b6003612abd565b670de0b6b3a764000090049392505050565b600061395e8484111583612abd565b5050900390565b600073ba1ba1ba1ba1ba1ba1ba1ba1ba1ba1ba1ba1ba1b6139846126f9565b6001600160a01b03161415801561399f575061399f83613f24565b156139c7576139ac6126f9565b6001600160a01b0316336001600160a01b0316149050611ada565b6139cf613511565b6001600160a01b0316639be2a8848484306040518463ffffffff1660e01b81526004016139fe93929190614beb565b60206040518083038186803b158015613a1657600080fd5b505afa158015613a2a573d6000803e3d6000fd5b505050506040513d601f19601f82011682018060405250810190612a3d91906143c3565b64e8d4a5100090565b67016345785d8a000090565b60006001821b1984168284613a79576000613a7c565b60015b60ff16901b17949350505050565b600081806020019051810190611ada919061455d565b600060606000613aaf84613f92565b90506060855167ffffffffffffffff81118015613acb57600080fd5b50604051908082528060200260200182016040528015613af5578160200160208202803683370190505b50905060005b8651811015613b60577f00000000000000000000000000000000000000000000000000000000000000008114613b5857868181518110613b3757fe5b6020026020010151828281518110613b4b57fe5b6020026020010181815250505b600101613afb565b50909590945092505050565b600081806020019051810190612ab691906149a0565b60606000613b908385612cd4565b9050845167ffffffffffffffff81118015613baa57600080fd5b50604051908082528060200260200182016040528015613bd4578160200160208202803683370190505b50915060005b8551811015613c2857613c0982878381518110613bf357fe5b602002602001015161391990919063ffffffff16565b838281518110613c1557fe5b6020908102919091010152600101613bda565b50509392505050565b613c486001600160a01b038316151561019b612abd565b613c54826000836138a3565b6001600160a01b038216600090815260208190526040902054613c7a90826101b261394f565b6001600160a01b038316600090815260208190526040902055613cad613ca882613ca2611ae0565b90613fa8565b613fb6565b60006001600160a01b0316826001600160a01b03167fddf252ad1be2c89b69c2b068fc378daa952ba7f163c4a11628f55a4df523b3ef83604051613cf19190614be2565b60405180910390a35050565b6000613d0c8215156004612abd565b82613d1957506000611ada565b670de0b6b3a764000083810290613d3390858381612d0a57fe5b826001820381613d3f57fe5b04600101915050611ada565b6000613d5561378d565b826040516020016126b6929190614a97565b6000613d7982516041146101b9612abd565b60208281015160408085015160608601518251600080825295019283905292939092811a91600190613db2908990859088908890614c9a565b6020604051602081039080840390855afa158015613dd4573d6000803e3d6000fd5b5050604051601f1901519150506001600160a01b03811615801590613e0a5750876001600160a01b0316816001600160a01b0316145b98975050505050505050565b606081806020019051810190612ab691906145a6565b613e38600083836138a3565b613e4d613ca882613e47611ae0565b90612f91565b6001600160a01b038216600090815260208190526040902054613e709082612f91565b6001600160a01b0383166000818152602081905260408082209390935591519091907fddf252ad1be2c89b69c2b068fc378daa952ba7f163c4a11628f55a4df523b3ef90613cf1908590614be2565b4690565b62461bcd60e51b600090815260206004526007602452600a808404818106603090810160081b958390069590950190829004918206850160101b01602363ffffff0060e086901c160160181b0190930160c81b60445260e882901c90606490fd5b6000613f4f7f38e9922e00000000000000000000000000000000000000000000000000000000612681565b821480613f835750613f807f50dd6ed900000000000000000000000000000000000000000000000000000000612681565b82145b80611ada5750611ada82613fbb565b600081806020019051810190612ab69190614579565b6000612ab68383600161394f565b600255565b50600090565b604080518082019091526000808252602082015290565b6040805160e081018252600080825260208201819052918101829052606081018290526080810182905260a0810182905260c081019190915290565b60408051610120810190915280600081526000602082018190526040820181905260608083018290526080830182905260a0830182905260c0830182905260e08301919091526101009091015290565b8035611ada81614ffc565b8051611ada81614ffc565b600082601f83011261408a578081fd5b813561409d61409882614f8c565b614f65565b8181529150602080830190848101818402860182018710156140be57600080fd5b60005b848110156140dd578135845292820192908201906001016140c1565b505050505092915050565b600082601f8301126140f8578081fd5b815161410661409882614f8c565b81815291506020808301908481018184028601820187101561412757600080fd5b60005b848110156140dd5781518452928201929082019060010161412a565b600082601f830112614156578081fd5b813561416461409882614fac565b915080825283602082850101111561417b57600080fd5b8060208401602084013760009082016020015292915050565b8051611ada81615011565b805160058110611ada57600080fd5b805160038110611ada57600080fd5b8035611ada81615011565b6000602082840312156141d9578081fd5b8135612ab681614ffc565b600080604083850312156141f6578081fd5b823561420181614ffc565b9150602083013561421181614ffc565b809150509250929050565b600080600060608486031215614230578081fd5b833561423b81614ffc565b9250602084013561424b81614ffc565b929592945050506040919091013590565b600080600080600080600060e0888a031215614276578485fd5b873561428181614ffc565b9650602088013561429181614ffc565b9550604088013594506060880135935060808801356142af8161501e565b9699959850939692959460a0840135945060c09093013592915050565b600080604083850312156142de578182fd5b82356142e981614ffc565b946020939093013593505050565b60008060006060848603121561430b578081fd5b835167ffffffffffffffff80821115614322578283fd5b818601915086601f830112614335578283fd5b815161434361409882614f8c565b80828252602080830192508086018b828387028901011115614363578788fd5b8796505b8487101561438e57805161437a81614ffc565b845260019690960195928101928101614367565b5089015190975093505050808211156143a5578283fd5b506143b2868287016140e8565b925050604084015190509250925092565b6000602082840312156143d4578081fd5b81518015158114612ab6578182fd5b600080600080600080600060e0888a0312156143fd578081fd5b87359650602088013561440f81614ffc565b9550604088013561441f81614ffc565b9450606088013567ffffffffffffffff8082111561443b578283fd5b6144478b838c0161407a565b955060808a0135945060a08a0135935060c08a013591508082111561446a578283fd5b506144778a828b01614146565b91505092959891949750929550565b60008060006060848603121561449a578081fd5b8351925060208401519150604084015190509250925092565b6000602082840312156144c4578081fd5b81357fffffffff0000000000000000000000000000000000000000000000000000000081168114612ab6578182fd5b600060208284031215614504578081fd5b8151612ab681614ffc565b60008060408385031215614521578182fd5b823561452c81614ffc565b9150602083013567ffffffffffffffff811115614547578182fd5b61455385828601614146565b9150509250929050565b60006020828403121561456e578081fd5b8151612ab681615011565b6000806040838503121561458b578182fd5b825161459681615011565b6020939093015192949293505050565b600080604083850312156145b8578182fd5b8251600481106145c6578283fd5b602084015190925067ffffffffffffffff8111156145e2578182fd5b614553858286016140e8565b60008060008060008060c08789031215614606578384fd5b863561461181615011565b95506020870135945060408701359350606087013567ffffffffffffffff81111561463a578283fd5b61464689828a01614146565b9350506080870135915060a087013590509295509295509295565b60008060408385031215614673578182fd5b825167ffffffffffffffff811115614689578283fd5b8301601f81018513614699578283fd5b80516146a761409882614fac565b8181528660208385010111156146bb578485fd5b6146cc826020830160208601614fd0565b60209590950151949694955050505050565b600080600080608085870312156146f3578182fd5b843567ffffffffffffffff8082111561470a578384fd5b818701915061012080838a031215614720578485fd5b61472981614f65565b905061473589846141bd565b81526147448960208501614064565b60208201526147568960408501614064565b6040820152606083013560608201526080830135608082015260a083013560a08201526147868960c08501614064565b60c08201526147988960e08501614064565b60e082015261010080840135838111156147b0578687fd5b6147bc8b828701614146565b8284015250508096505060208701359150808211156147d9578384fd5b506147e68782880161407a565b949794965050505060408301359260600135919050565b6000610140808385031215614810578182fd5b61481981614f65565b90506148258484614194565b8152614834846020850161406f565b6020820152614846846040850161406f565b604082015261485884606085016141ae565b606082015261486a8460808501614194565b608082015261487c8460a0850161419f565b60a082015260c083015160c08201526148988460e0850161406f565b60e08201526101008381015190820152610120928301519281019290925250919050565b600060e082840312156148cd578081fd5b6148d760e0614f65565b8251815260208301516148e981614ffc565b8060208301525060408301516040820152606083015160608201526080830151608082015260a083015160a082015260c083015160c08201528091505092915050565b60006020828403121561493d578081fd5b5035919050565b60008060008060808587031215614959578182fd5b845193506020850151925060408501519150606085015161497981614ffc565b939692955090935050565b600060208284031215614995578081fd5b8151612ab68161501e565b600080604083850312156149b2578182fd5b82516145968161501e565b6001600160a01b03169052565b6000815180845260208085019450808401835b838110156149f9578151875295820195908201906001016149dd565b509495945050505050565b60008151808452614a1c816020860160208601614fd0565b601f01601f19169290920160200192915050565b60028110614a3a57fe5b9052565b805160038110614a4a57fe5b8252602090810151910152565b9182527fffffffff0000000000000000000000000000000000000000000000000000000016602082015260240190565b6000828483379101908152919050565b7f190100000000000000000000000000000000000000000000000000000000000081526002810192909252602282015260420190565b6001600160a01b0391909116815260200190565b6001600160a01b039788168152958716602087015260408601949094526060850192909252909316608083015260a082019290925260c081019190915260e00190565b6001600160a01b03978816815295871660208701529390951660408501526060840191909152608083015260a082019290925260c081019190915260e00190565b6001600160a01b03929092168252602082015260400190565b600060208252612ab660208301846149ca565b600060408252614ba460408301856149ca565b8281036020840152614bb681856149ca565b95945050505050565b901515815260200190565b92151583526020830191909152604082015260600190565b90815260200190565b9283526001600160a01b03918216602084015216604082015260600190565b9586526001600160a01b0394851660208701529290931660408501526060840152608083019190915260a082015260c00190565b9485526020850193909352604084019190915260608301526001600160a01b0316608082015260a00190565b600083825260406020830152612a876040830184614a04565b9182526001600160a01b0316602082015260400190565b93845260ff9290921660208401526040830152606082015260800190565b600060208252612ab66020830184614a04565b60208082526016908201527f496e76616c6964207377617070656420746f6b656e7300000000000000000000604082015260600190565b60208082526018908201527f4f726465722062656c6f77206d696e696d756d2073697a650000000000000000604082015260600190565b6020808252601d908201527f496e73756666696369656e742063757272656e63792062616c616e6365000000604082015260600190565b60208082526016908201527f496e73756666696369656e74206c697175696469747900000000000000000000604082015260600190565b6020808252600c908201527f496e76616c696420737761700000000000000000000000000000000000000000604082015260600190565b6020808252601d908201527f496e73756666696369656e742073656375726974792062616c616e6365000000604082015260600190565b600060808252614e29608083018651614a30565b6020850151614e3b60a08401826149bd565b506040850151614e4e60c08401826149bd565b50606085015160e08301526080850151610100818185015260a08701519150610120828186015260c08801519250614e8a6101408601846149bd565b60e08801519250614e9f6101608601846149bd565b818801519250806101808601525050614ebc6101a0840182614a04565b915050614ecc6020830185614a3e565b612a876060830184614a30565b6000610100820190508351825260208401516001600160a01b03808216602085015260408601516040850152606086015160608501526080860151608085015260a086015160a085015260c086015160c085015280851660e085015250509392505050565b600083825260406020830152612a8760408301846149ca565b60ff91909116815260200190565b60405181810167ffffffffffffffff81118282101715614f8457600080fd5b604052919050565b600067ffffffffffffffff821115614fa2578081fd5b5060209081020190565b600067ffffffffffffffff821115614fc2578081fd5b50601f01601f191660200190565b60005b83811015614feb578181015183820152602001614fd3565b83811115612cba5750506000910152565b6001600160a01b0381168114611be257600080fd5b60028110611be257600080fd5b60ff81168114611be257600080fdfea2646970667358221220456f9ea329c842557c9bab2b873db354516ab9593f6ff01e2e615e78fab7d35164736f6c63430007010033608060405260006001553480156200001657600080fd5b5060405162003d1038038062003d10833981016040819052620000399162000106565b620000443362000098565b600980546001600160a01b039586166001600160a01b03199182161790915560078054948616948216949094179093556008805492851692841692909217909155600a805491909316911617905562000166565b600080546001600160a01b038381166001600160a01b0319831681178455604051919092169283917f8be0079c531659141344cd1fd0a4f28419497f9722a3daafe3b4186f6b6457e09190a35050565b80516001600160a01b03811681146200010057600080fd5b92915050565b600080600080608085870312156200011c578384fd5b620001288686620000e8565b9350620001398660208701620000e8565b92506200014a8660408701620000e8565b91506200015b8660608701620000e8565b905092959194509250565b613b9a80620001766000396000f3fe608060405234801561001057600080fd5b50600436106101005760003560e01c80637489ec2311610097578063ca142f7511610066578063ca142f75146101f5578063d729cf6c14610215578063e43372e914610228578063f2fde38b1461023057610100565b80637489ec23146101b457806381b5da1d146101c75780638da5cb5b146101da578063af18cfd8146101e257610100565b80635778472a116100d35780635778472a1461016257806365fe757e146101825780636945c1fd146101a4578063715018a6146101ac57610100565b80630c8605be146101055780632541897f1461011a57806338fff2d01461013857806346b8b7301461014d575b600080fd5b610118610113366004613673565b610243565b005b6101226103e8565b60405161012f91906137f9565b60405180910390f35b6101406103f7565b60405161012f9190613851565b610155610486565b60405161012f919061380d565b6101756101703660046135da565b61056e565b60405161012f9190613a17565b610195610190366004613687565b61072a565b60405161012f9392919061385a565b610122610b2e565b610118610b3d565b6101186101c23660046135da565b610b55565b6101186101d536600461360a565b610d66565b610122610f30565b6101186101f0366004613635565b610f3f565b6102086102033660046135af565b61132b565b60405161012f9190613ac4565b6101186102233660046135af565b611411565b6101556114b0565b61011861023e366004613593565b611511565b600083815260026020819052604082206001015474010000000000000000000000000000000000000000900460ff169081111561027c57fe5b14156102bd576040517f08c379a00000000000000000000000000000000000000000000000000000000081526004016102b4906138a7565b60405180910390fd5b6002600084815260026020526040902060010154760100000000000000000000000000000000000000000000900460ff1660048111156102f957fe5b14610330576040517f08c379a00000000000000000000000000000000000000000000000000000000081526004016102b49061394c565b6000838152600260205260409020600301546001600160a01b03163314610383576040517f08c379a00000000000000000000000000000000000000000000000000000000081526004016102b490613915565b60008381526002602081905260409091206004810184905580820183905560019081015490917401000000000000000000000000000000000000000090910460ff16908111156103cf57fe5b14156103e3576103e0836001611540565b50505b505050565b6007546001600160a01b031690565b600080600a60009054906101000a90046001600160a01b03166001600160a01b03166338fff2d06040518163ffffffff1660e01b815260040160206040518083038186803b15801561044857600080fd5b505afa15801561045c573d6000803e3d6000fd5b505050506040513d601f19601f8201168201806040525081019061048091906135f2565b91505090565b600354606090819067ffffffffffffffff811180156104a457600080fd5b506040519080825280602002602001820160405280156104ce578160200160208202803683370190505b5090506000805b60035481101561056657336001600160a01b031660026000600384815481106104fa57fe5b600091825260208083209091015483528201929092526040019020600301546001600160a01b0316141561055e576003818154811061053557fe5b906000526020600020015483838151811061054c57fe5b60209081029190910101526001909101905b6001016104d5565b509091505090565b6105766133c3565b61057e610f30565b6001600160a01b0316336001600160a01b031614806105a757506009546001600160a01b031633145b806105cb57506000828152600260205260409020600301546001600160a01b031633145b610601576040517f08c379a00000000000000000000000000000000000000000000000000000000081526004016102b490613870565b60008281526002602052604090819020815161014081019092528054829060ff16600181111561062d57fe5b600181111561063857fe5b8152815461010090046001600160a01b0390811660208301526001830154908116604083015260609091019074010000000000000000000000000000000000000000900460ff16600281111561068a57fe5b600281111561069557fe5b81526020016001820160159054906101000a900460ff1660018111156106b757fe5b60018111156106c257fe5b81526020016001820160169054906101000a900460ff1660048111156106e457fe5b60048111156106ef57fe5b81526002820154602082015260038201546001600160a01b031660408201526004820154606082015260059091015460809091015292915050565b6000808061074c3361073a610f30565b6001600160a01b0316146101aa6119b4565b60008551600281111561075b57fe5b1480610773575060018551600281111561077157fe5b145b61077c57600080fd5b600084600181111561078a57fe5b14806107a15750600184600181111561079f57fe5b145b6107aa57600080fd5b6001544214156107c15760018054810190556107c6565b426001555b60008660c001516001546040516020016107e19291906137c4565b6040516020818303038152906040528051906020012090506108016133c3565b6040518061014001604052808960000151600181111561081d57fe5b815260200189602001516001600160a01b0316815260200189604001516001600160a01b031681526020018860000151600281111561085857fe5b815260200187600181111561086957fe5b8152600260208083018290526060808d015160408086019190915260c08e01516001600160a01b0316918501919091528b820151608085015260a090930186905260008681529190522081518154929350839282907fffffffffffffffffffffffffffffffffffffffffffffffffffffffffffffff0016600183818111156108ed57fe5b0217905550602082015181547fffffffffffffffffffffff0000000000000000000000000000000000000000ff166101006001600160a01b039283160217825560408301516001830180547fffffffffffffffffffffffff0000000000000000000000000000000000000000169190921617808255606084015191907fffffffffffffffffffffff00ffffffffffffffffffffffffffffffffffffffff16740100000000000000000000000000000000000000008360028111156109ad57fe5b021790555060808201518160010160156101000a81548160ff021916908360018111156109d657fe5b021790555060a08201516001820180547fffffffffffffffffff00ffffffffffffffffffffffffffffffffffffffffffff16760100000000000000000000000000000000000000000000836004811115610a2c57fe5b021790555060c0820151600282015560e08201516003820180547fffffffffffffffffffffffff0000000000000000000000000000000000000000166001600160a01b03909216919091179055610100820151600482015561012090910151600590910155600087516002811115610aa057fe5b1415610abe57610ab18160006119c6565b9450945094505050610b25565b600187516002811115610acd57fe5b1415610b2257600380546000848152600460205260408120829055600180830184559290527fc2575a0e9e593c00f959f8c92f12db2869c3395a3b0502d05e2516446f71f85b01839055610ab19082906119c6565b50505b93509350939050565b6008546001600160a01b031690565b610b493361073a610f30565b610b536000612bc1565b565b600081815260026020819052604082206001015474010000000000000000000000000000000000000000900460ff1690811115610b8e57fe5b1415610bc6576040517f08c379a00000000000000000000000000000000000000000000000000000000081526004016102b4906139ba565b6002600082815260026020526040902060010154760100000000000000000000000000000000000000000000900460ff166004811115610c0257fe5b14610c39576040517f08c379a00000000000000000000000000000000000000000000000000000000081526004016102b49061394c565b6000818152600260205260409020600301546001600160a01b03163314610c8c576040517f08c379a00000000000000000000000000000000000000000000000000000000081526004016102b490613915565b60035415610cbe57600081815260046020526040902054600380549091908110610cb257fe5b60009182526020822001555b6000908152600460208181526040808420849055600291829052832080547fffffffffffffffffffffff0000000000000000000000000000000000000000001681556001810180547fffffffffffffffffff00000000000000000000000000000000000000000000001690559081018390556003810180547fffffffffffffffffffffffff000000000000000000000000000000000000000016905590810182905560050155565b6009546001600160a01b0316331480610d975750610d82610f30565b6001600160a01b0316336001600160a01b0316145b610dcd576040517f08c379a00000000000000000000000000000000000000000000000000000000081526004016102b4906138de565b600092835260026020818152604080862080547fffffffffffffffffffffff0000000000000000000000000000000000000000009081168255600180830180547fffffffffffffffffff00000000000000000000000000000000000000000000009081169091558387018a9055600380850180547fffffffffffffffffffffffff0000000000000000000000000000000000000000908116825560048088018e905560059788018e90559b8d52878d208054909616865585850180549094169093558489018c9055848201805484168155858c018d90559486018c9055546001600160a01b039081168c52858852868c208a8d528852868c208c8155808501805485169055808a018d90558083018d9055808c018d90558087018d905560069081018d90559454168b52848752858b20988b5297909552928820888155928301805490941690935592810186905592830185905592820184905581018390550155565b6000546001600160a01b031690565b6009546001600160a01b0316331480610f705750610f5b610f30565b6001600160a01b0316336001600160a01b0316145b610fa6576040517f08c379a00000000000000000000000000000000000000000000000000000000081526004016102b4906138de565b6000826001811115610fb457fe5b1480610fcb57506001826001811115610fc957fe5b145b610fd457600080fd5b6000848152600260208190526040909120808201805486019055600190810180547fffffffffffffffffff00ffffffffffffffffffffffffffffffffffffffffffff16760200000000000000000000000000000000000000000000179081905590917401000000000000000000000000000000000000000090910460ff169081111561105c57fe5b14156110a757600380546000868152600460205260408120829055600182018355919091527fc2575a0e9e593c00f959f8c92f12db2869c3395a3b0502d05e2516446f71f85b018490555b600181016110b361341a565b5060008581526002602081815260408084206003908101546001600160a01b03908116865260058085528387208988528552838720845160e08101865281548082526001830154909416968101969096529586015493850193909352908401546060840152600484015460808401529083015460a083015260069092015460c082015291908714611145578151611147565b865b9050600087836040015114611160578260400151611162565b875b905061116c61341a565b6040518060e001604052808481526020016002600086815260200190815260200160002060030160009054906101000a90046001600160a01b03166001600160a01b03168152602001838152602001856060015181526020018681526020018560a0015181526020018560c0015181525090508060056000600260008d815260200190815260200160002060030160009054906101000a90046001600160a01b03166001600160a01b03166001600160a01b0316815260200190815260200160002060008781526020019081526020016000206000820151816000015560208201518160010160006101000a8154816001600160a01b0302191690836001600160a01b0316021790555060408201518160020155606082015181600301556080820151816004015560a0820151816005015560c0820151816006015590505060066000600260008c815260200190815260200160002060030160009054906101000a90046001600160a01b03166001600160a01b03166001600160a01b03168152602001908152602001600020859080600181540180825580915050600190039060005260206000200160009091909190915055505050505050505050565b61133361341a565b61133b610f30565b6001600160a01b0316336001600160a01b031614806113625750336001600160a01b038416145b611398576040517f08c379a00000000000000000000000000000000000000000000000000000000081526004016102b490613983565b506001600160a01b038083166000908152600560208181526040808420868552825292839020835160e08101855281548152600182015490951691850191909152600281015492840192909252600382015460608401526004820154608084015281015460a08301526006015460c08201525b92915050565b61141d3361073a610f30565b60005b6001600160a01b0383166000908152600660205260409020548110156103e3576001600160a01b038316600090815260066020526040902080548391908390811061146757fe5b906000526020600020015414156114a8576001600160a01b038316600090815260066020526040902080548290811061149c57fe5b60009182526020822001555b600101611420565b3360009081526006602090815260409182902080548351818402810184019094528084526060939283018282801561150757602002820191906000526020600020905b8154815260200190600101908083116114f3575b5050505050905090565b61151d3361073a610f30565b6115346001600160a01b03821615156101ab6119b4565b61153d81612bc1565b50565b600060606000606060038054905067ffffffffffffffff8111801561156457600080fd5b5060405190808252806020026020018201604052801561158e578160200160208202803683370190505b5090506000805b6003548110156119a757600381815481106115ac57fe5b6000918252602090912001546115c15761199f565b600060026000600384815481106115d457fe5b9060005260206000200154815260200190815260200160002060010160159054906101000a900460ff16600181111561160957fe5b14801561164f5750600160008981526002602052604090206001908101547501000000000000000000000000000000000000000000900460ff169081111561164d57fe5b145b80156116b757506002600089815260200190815260200160002060040154600260006003848154811061167e57fe5b90600052602060002001548152602001908152602001600020600401541015806116b75750600088815260026020526040902060040154155b806117b25750600160026000600384815481106116d057fe5b9060005260206000200154815260200190815260200160002060010160159054906101000a900460ff16600181111561170557fe5b14801561174a57506000808981526002602052604090206001908101547501000000000000000000000000000000000000000000900460ff169081111561174857fe5b145b80156117b257506002600089815260200190815260200160002060040154600260006003848154811061177957fe5b90600052602060002001548152602001908152602001600020600401541115806117b25750600088815260026020526040902060040154155b1561199f57600381815481106117c457fe5b90600052602060002001548383815181106117db57fe5b60209081029190910181019190915260075460008a8152600290925260409091205461010090046001600160a01b039081169116148015611836575060008881526002602052604081205460ff16600181111561183457fe5b145b8061188757506008546000898152600260205260409020600101546001600160a01b0390811691161480156118875750600160008981526002602052604090205460ff16600181111561188557fe5b145b156118ca576118c38460026000600385815481106118a157fe5b9060005260206000200154815260200190815260200160002060020154612c29565b9350611943565b6119408461193b60026000600386815481106118e257fe5b9060005260206000200154815260200190815260200160002060020154600260006003878154811061191057fe5b9060005260206000200154815260200190815260200160002060040154612c4290919063ffffffff16565b612c29565b93505b600087600281111561195157fe5b141580156119765750876003828154811061196857fe5b906000526020600020015414155b15611998578783836001018151811061198b57fe5b6020026020010181815250505b6001909101905b600101611595565b5091969095509350505050565b816119c2576119c281612c78565b5050565b60008060008060008080600090506000806000606060038054905067ffffffffffffffff811180156119f757600080fd5b50604051908082528060200260200182016040528015611a21578160200160208202803683370190505b509050611a338d61012001518d611540565b909250905060008c6002811115611a4657fe5b1415611a79578c60c00151821015611a74578c61012001514260009a509a509a505050505050505050612bba565b611aae565b60018c6002811115611a8757fe5b1415611aae5781611aae578c61012001514260009a509a509a505050505050505050612bba565b600091505b8051821015612ba65760c08d0151611aca57612ba6565b8c6101200151818381518110611adc57fe5b602002602001015114158015611b3557508c60e001516001600160a01b031660026000838581518110611b0b57fe5b6020908102919091018101518252810191909152604001600020600301546001600160a01b031614155b8015611b835750600060026000838581518110611b4e57fe5b6020026020010151815260200190815260200160002060010160169054906101000a900460ff166004811115611b8057fe5b14155b15611db35760026000828481518110611b9857fe5b60200260200101518152602001908152602001600020600401546000148015611bc457506101008d0151155b15611bce57612b9b565b600060026000838581518110611be057fe5b6020026020010151815260200190815260200160002060010160159054906101000a900460ff166001811115611c1257fe5b148015611c2e575060018d608001516001811115611c2c57fe5b145b15611cc3578c610100015160026000838581518110611c4957fe5b6020026020010151815260200190815260200160002060040154101580611c7357506101008d0151155b15611cbe5760026000828481518110611c8857fe5b60200260200101518152602001908152602001600020600401549650808281518110611cb057fe5b602002602001015197508194505b611db3565b600160026000838581518110611cd557fe5b6020026020010151815260200190815260200160002060010160159054906101000a900460ff166001811115611d0757fe5b148015611d23575060008d608001516001811115611d2157fe5b145b15611db3578c610100015160026000838581518110611d3e57fe5b6020026020010151815260200190815260200160002060040154111580611d6857506101008d0151155b15611db35760026000828481518110611d7d57fe5b60200260200101518152602001908152602001600020600401549650808281518110611da557fe5b602002602001015195508194505b60018d608001516001811115611dc557fe5b14156124da5787156124d55760075460208e01516001600160a01b039081169116148015611dff575060008d516001811115611dfd57fe5b145b156121685760085460008981526002602052604090205461010090046001600160a01b039081169116148015611e4f575060008881526002602052604081205460ff166001811115611e4d57fe5b145b15611e785760008881526002602081905260409091200154611e719088612ca2565b9350611ede565b6007546000898152600260205260409020600101546001600160a01b039081169116148015611ec35750600160008981526002602052604090205460ff166001811115611ec157fe5b145b15611ede576000888152600260208190526040909120015493505b8c60c0015184106120da5760c08d01519350611efa8488612c42565b60085460008a8152600260205260409020549194506001600160a01b0390811661010090920416148015611f4a5750600160008981526002602052604090205460ff166001811115611f4857fe5b145b611f705760008881526002602081905260409091200154611f6b9084612cf3565b611f94565b611f94600260008a8152602001908152602001600020600201548e60c00151612cf3565b600260008a81526020019081526020016000206002018190555060008d60c001818152505060026000898152602001908152602001600020600201546000141561201d57600088815260026020526040902060010180547fffffffffffffffffff00ffffffffffffffffffffffffffffffffffffffffffff16905561201885612d09565b61206e565b600088815260026020526040902060010180547fffffffffffffffffff00ffffffffffffffffffffffffffffffffffffffffffff167601000000000000000000000000000000000000000000001790555b600060a08e01526101208d01516120889089898787612d24565b945060008d60600151600281111561209c57fe5b14156120d55760006120b98e61012001518f60e001516001613030565b6101208f01519c50959a50949850612bba975050505050505050565b612163565b8315612163576120ea8488612c42565b92506120fa8d60c0015185612cf3565b60c08e01526000888152600260208190526040822090810191909155600190810180547fffffffffffffffffff00ffffffffffffffffffffffffffffffffffffffffffff16905560a08e01526101208d01516121599089898787612d24565b5061216385612d09565b6124d5565b60085460408e01516001600160a01b039081169116148015612196575060018d51600181111561219457fe5b145b156124d5576007546000898152600260205260409020600101546001600160a01b0390811691161480156121e65750600160008981526002602052604090205460ff1660018111156121e457fe5b145b1561220f57600088815260026020819052604090912001546122089088612c42565b9250612275565b60085460008981526002602052604090205461010090046001600160a01b03908116911614801561225a575060008881526002602052604081205460ff16600181111561225857fe5b145b15612275576000888152600260208190526040909120015492505b8c60c00151831061244c5760c08d015192506122918388612ca2565b60075460008a8152600260205260409020600101549195506001600160a01b0391821691161480156122dd575060008881526002602052604081205460ff1660018111156122db57fe5b145b61230357600088815260026020819052604090912001546122fe9085612cf3565b612327565b612327600260008a8152602001908152602001600020600201548e60c00151612cf3565b600260008a81526020019081526020016000206002018190555060008d60c00181815250506002600089815260200190815260200160002060020154600014156123b057600088815260026020526040902060010180547fffffffffffffffffff00ffffffffffffffffffffffffffffffffffffffffffff1690556123ab85612d09565b612401565b600088815260026020526040902060010180547fffffffffffffffffff00ffffffffffffffffffffffffffffffffffffffffffff167601000000000000000000000000000000000000000000001790555b600060a08e01526101208d015161241b9089898787612d24565b945060008d60600151600281111561242f57fe5b14156121635760006120b98e61012001518f60e001516000613030565b82156124d55761245c8388612ca2565b935061246c8d60c0015184612cf3565b60c08e01526000888152600260208190526040822090810191909155600190810180547fffffffffffffffffff00ffffffffffffffffffffffffffffffffffffffffffff16905560a08e01526101208d01516124cb9089898787612d24565b506124d585612d09565b612b9b565b60008d6080015160018111156124ec57fe5b1415612b9b578515612b9b5760085460208e01516001600160a01b039081169116148015612526575060008d51600181111561252457fe5b145b1561282c5760075460008781526002602052604090205461010090046001600160a01b039081169116148015612576575060008681526002602052604081205460ff16600181111561257457fe5b145b1561259f57600086815260026020819052604090912001546125989088612c42565b9250612605565b6008546000878152600260205260409020600101546001600160a01b0390811691161480156125ea5750600160008781526002602052604090205460ff1660018111156125e857fe5b145b15612605576000868152600260208190526040909120015492505b8c60c0015183106127ad5760c08d015192506126218388612ca2565b6008546000888152600260205260409020600101549195506001600160a01b03918216911614801561266f5750600160008781526002602052604090205460ff16600181111561266d57fe5b145b61269557600086815260026020819052604090912001546126909085612cf3565b6126b9565b6126b960026000888152602001908152602001600020600201548e60c00151612cf3565b600260008881526020019081526020016000206002018190555060008d60c001818152505060026000878152602001908152602001600020600201546000141561274257600086815260026020526040902060010180547fffffffffffffffffff00ffffffffffffffffffffffffffffffffffffffffffff16905561273d85612d09565b612793565b600086815260026020526040902060010180547fffffffffffffffffff00ffffffffffffffffffffffffffffffffffffffffffff167601000000000000000000000000000000000000000000001790555b600060a08e01526101208d015161241b9087898787612d24565b82156124d5576127bd8388612ca2565b93506127cd8d60c0015184612cf3565b60c08e01526000868152600260208190526040822090810191909155600190810180547fffffffffffffffffff00ffffffffffffffffffffffffffffffffffffffffffff16905560a08e01526101208d01516124cb9087898787612d24565b60075460408e01516001600160a01b03908116911614801561285a575060018d51600181111561285857fe5b145b15612b9b576008546000878152600260205260409020600101546001600160a01b0390811691161480156128aa5750600160008781526002602052604090205460ff1660018111156128a857fe5b145b156128d357600086815260026020819052604090912001546128cc9088612ca2565b9350612939565b60075460008781526002602052604090205461010090046001600160a01b03908116911614801561291e575060008681526002602052604081205460ff16600181111561291c57fe5b145b15612939576000868152600260208190526040909120015493505b8c60c001518410612b125760c08d015193506129558488612c42565b6007546000888152600260205260409020549194506001600160a01b03908116610100909204161480156129a3575060008681526002602052604081205460ff1660018111156129a157fe5b145b6129c957600086815260026020819052604090912001546129c49084612cf3565b6129ed565b6129ed60026000888152602001908152602001600020600201548e60c00151612cf3565b600260008881526020019081526020016000206002018190555060008d60c0018181525050600260008781526020019081526020016000206002015460001415612a7657600086815260026020526040902060010180547fffffffffffffffffff00ffffffffffffffffffffffffffffffffffffffffffff169055612a7185612d09565b612ac7565b600086815260026020526040902060010180547fffffffffffffffffff00ffffffffffffffffffffffffffffffffffffffffffff167601000000000000000000000000000000000000000000001790555b600060a08e01526101208d0151612ae19087898787612d24565b945060008d606001516002811115612af557fe5b14156124d55760006120b98e61012001518f60e001516001613030565b8315612b9b57612b228488612c42565b9250612b328d60c0015185612cf3565b60c08e01526000868152600260208190526040822090810191909155600190810180547fffffffffffffffffff00ffffffffffffffffffffffffffffffffffffffffffff16905560a08e01526101208d0151612b919087898787612d24565b50612b9b85612d09565b600190910190611ab3565b506060612bb16131ef565b50505050505050505b9250925092565b600080546001600160a01b038381167fffffffffffffffffffffffff0000000000000000000000000000000000000000831681178455604051919092169283917f8be0079c531659141344cd1fd0a4f28419497f9722a3daafe3b4186f6b6457e09190a35050565b6000828201612c3b84821015836119b4565b9392505050565b6000828202612c66841580612c5f575083858381612c5c57fe5b04145b60036119b4565b670de0b6b3a764000090049392505050565b61153d817f42414c0000000000000000000000000000000000000000000000000000000000613348565b6000612cb182151560046119b4565b82612cbe5750600061140b565b670de0b6b3a764000083810290612ce190858381612cd857fe5b041460056119b4565b828181612cea57fe5b0491505061140b565b6000612d038383111560016119b4565b50900390565b60038181548110612d1657fe5b600091825260208220015550565b60018054810190819055600090612d3961341a565b6040518060e00160405280898152602001600260008b815260200190815260200160002060030160009054906101000a90046001600160a01b03166001600160a01b031681526020018881526020018781526020018381526020018681526020018581525090508060056000600260008c815260200190815260200160002060030160009054906101000a90046001600160a01b03166001600160a01b03166001600160a01b0316815260200190815260200160002060008481526020019081526020016000206000820151816000015560208201518160010160006101000a8154816001600160a01b0302191690836001600160a01b0316021790555060408201518160020155606082015181600301556080820151816004015560a0820151816005015560c082015181600601559050508060056000600260008b815260200190815260200160002060030160009054906101000a90046001600160a01b03166001600160a01b03166001600160a01b0316815260200190815260200160002060008481526020019081526020016000206000820151816000015560208201518160010160006101000a8154816001600160a01b0302191690836001600160a01b0316021790555060408201518160020155606082015181600301556080820151816004015560a0820151816005015560c0820151816006015590505060066000600260008b815260200190815260200160002060030160009054906101000a90046001600160a01b03166001600160a01b03166001600160a01b0316815260200190815260200160002082908060018154018082558091505060019003906000526020600020016000909190919091505560066000600260008a815260200190815260200160002060030160009054906101000a90046001600160a01b03166001600160a01b03166001600160a01b03168152602001908152602001600020829080600181540180825580915050600190039060005260206000200160009091909190915055819250505095945050505050565b600080600061303d61341a565b60005b6001600160a01b0387166000908152600660205260409020548110156131dc576001600160a01b038716600090815260066020526040902080548290811061308457fe5b60009182526020808320909101546001600160a01b03808b16845260058084526040808620848752855294859020855160e0810187528154808252600183015490941695810195909552600281015495850195909552600385015460608501526004850154608085015284015460a084015260069093015460c0830152955092508814156131335760008661311d578260a00151613123565b8260c001515b905061312f8482612c29565b9350505b6001600160a01b038716600090815260066020526040902080548290811061315757fe5b600091825260208083209091018290556001600160a01b038916825260058082526040808420888552909252908220828155600180820180547fffffffffffffffffffffffff00000000000000000000000000000000000000001690556002820184905560038201849055600482018490559181018390556006019190915501613040565b506131e56131ef565b5095945050505050565b6000805b60035481101561322a576003818154811061320a57fe5b60009182526020909120015415613222576001909101905b6001016131f3565b508061324f57604080516000815260208101918290525161324d91600391613456565b505b60608167ffffffffffffffff8111801561326857600080fd5b50604051908082528060200260200182016040528015613292578160200160208202803683370190505b5090506000805b60035481101561332e57600381815481106132b057fe5b60009182526020909120015415613326578160046000600384815481106132d357fe5b9060005260206000200154815260200190815260200160002081905550600381815481106132fd57fe5b906000526020600020015483838151811061331457fe5b60209081029190910101526001909101905b600101613299565b508151613342906003906020850190613456565b50505050565b7f08c379a000000000000000000000000000000000000000000000000000000000600090815260206004526007602452600a808404818106603090810160081b958390069590950190829004918206850160101b01602363ffffff0060e086901c160160181b0190930160c81b60445260e882901c90606490fd5b60408051610140810190915280600081526000602082018190526040820181905260609091019081526020016000815260200160008152600060208201819052604082018190526060820181905260809091015290565b6040805160e081018252600080825260208201819052918101829052606081018290526080810182905260a0810182905260c081019190915290565b828054828255906000526020600020908101928215613491579160200282015b82811115613491578251825591602001919060010190613476565b5061349d9291506134a1565b5090565b5b8082111561349d57600081556001016134a2565b803561140b81613b42565b600082601f8301126134d1578081fd5b813567ffffffffffffffff8111156134e7578182fd5b61351860207fffffffffffffffffffffffffffffffffffffffffffffffffffffffffffffffe0601f84011601613b1b565b915080825283602082850101111561352f57600080fd5b8060208401602084013760009082016020015292915050565b803561140b81613b57565b600060408284031215613564578081fd5b61356e6040613b1b565b905081356003811061357f57600080fd5b808252506020820135602082015292915050565b6000602082840312156135a4578081fd5b8135612c3b81613b42565b600080604083850312156135c1578081fd5b82356135cc81613b42565b946020939093013593505050565b6000602082840312156135eb578081fd5b5035919050565b600060208284031215613603578081fd5b5051919050565b60008060006060848603121561361e578081fd5b505081359360208301359350604090920135919050565b6000806000806080858703121561364a578081fd5b8435935060208501359250604085013561366381613b57565b9396929550929360600135925050565b60008060006060848603121561361e578283fd5b60008060006080848603121561369b578283fd5b833567ffffffffffffffff808211156136b2578485fd5b81860191506101208083890312156136c8578586fd5b6136d181613b1b565b90506136dd8884613548565b81526136ec88602085016134b6565b60208201526136fe88604085016134b6565b6040820152606083013560608201526080830135608082015260a083013560a082015261372e8860c085016134b6565b60c08201526137408860e085016134b6565b60e08201526101008084013583811115613758578788fd5b6137648a8287016134c1565b82840152505080955050505061377d8560208601613553565b915061378c8560608601613548565b90509250925092565b6001600160a01b03169052565b600581106137ac57fe5b9052565b600381106137ac57fe5b600281106137ac57fe5b60609290921b7fffffffffffffffffffffffffffffffffffffffff000000000000000000000000168252601482015260340190565b6001600160a01b0391909116815260200190565b6020808252825182820181905260009190848201906040850190845b8181101561384557835183529284019291840191600101613829565b50909695505050505050565b90815260200190565b9283526020830191909152604082015260600190565b6020808252601d908201527f556e617574686f72697a65642061636365737320746f206f7264657273000000604082015260600190565b6020808252601f908201527f4d61726b6574206f726465722063616e206e6f74206265206368616e67656400604082015260600190565b60208082526013908201527f556e617574686f72697a65642061636365737300000000000000000000000000604082015260600190565b6020808252601b908201527f53656e646572206973206e6f74206f726465722063726561746f720000000000604082015260600190565b60208082526017908201527f4f7264657220697320616c72656164792066696c6c6564000000000000000000604082015260600190565b6020808252601d908201527f556e617574686f72697a65642061636365737320746f20747261646573000000604082015260600190565b60208082526021908201527f4d61726b6574206f726465722063616e206e6f742062652063616e63656c6c6560408201527f6400000000000000000000000000000000000000000000000000000000000000606082015260800190565b600061014082019050613a2b8284516137ba565b6020830151613a3d6020840182613795565b506040830151613a506040840182613795565b506060830151613a6360608401826137b0565b506080830151613a7660808401826137ba565b5060a0830151613a8960a08401826137a2565b5060c083015160c083015260e0830151613aa660e0840182613795565b50610100838101519083015261012092830151929091019190915290565b600060e082019050825182526001600160a01b03602084015116602083015260408301516040830152606083015160608301526080830151608083015260a083015160a083015260c083015160c083015292915050565b60405181810167ffffffffffffffff81118282101715613b3a57600080fd5b604052919050565b6001600160a01b038116811461153d57600080fd5b6002811061153d57600080fdfea2646970667358221220c6e3609226e450f7dd9faa867bed91b66cd4cb9026aff5ffa7add2c36276c25c64736f6c63430007010033",
  "linkReferences": {},
  "deployedLinkReferences": {}
}