{
  "_format": "hh-sol-artifact-1",
  "contractName": "SecondaryIssuePoolFactory",
  "sourceName": "contracts/SecondaryIssuePoolFactory.sol",
  "abi": [
    {
      "inputs": [
        {
          "internalType": "contract IVault",
          "name": "vault",
          "type": "address"
        },
        {
          "internalType": "contract IProtocolFeePercentagesProvider",
          "name": "protocolFeeProvider",
          "type": "address"
        }
      ],
      "stateMutability": "nonpayable",
      "type": "constructor"
    },
    {
      "anonymous": false,
      "inputs": [],
      "name": "FactoryDisabled",
      "type": "event"
    },
    {
      "anonymous": false,
      "inputs": [
        {
          "indexed": true,
          "internalType": "address",
          "name": "pool",
          "type": "address"
        }
      ],
      "name": "PoolCreated",
      "type": "event"
    },
    {
      "inputs": [
        {
          "internalType": "string",
          "name": "_name",
          "type": "string"
        },
        {
          "internalType": "string",
          "name": "_symbol",
          "type": "string"
        },
        {
          "internalType": "address",
          "name": "_security",
          "type": "address"
        },
        {
          "internalType": "address",
          "name": "_currency",
          "type": "address"
        },
        {
          "internalType": "uint256",
          "name": "_maxAmountsIn",
          "type": "uint256"
        },
        {
          "internalType": "uint256",
          "name": "_tradeFeePercentage",
          "type": "uint256"
        }
      ],
      "name": "create",
      "outputs": [
        {
          "internalType": "address",
          "name": "",
          "type": "address"
        }
      ],
      "stateMutability": "nonpayable",
      "type": "function"
    },
    {
      "inputs": [],
      "name": "disable",
      "outputs": [],
      "stateMutability": "nonpayable",
      "type": "function"
    },
    {
      "inputs": [
        {
          "internalType": "bytes4",
          "name": "selector",
          "type": "bytes4"
        }
      ],
      "name": "getActionId",
      "outputs": [
        {
          "internalType": "bytes32",
          "name": "",
          "type": "bytes32"
        }
      ],
      "stateMutability": "view",
      "type": "function"
    },
    {
      "inputs": [],
      "name": "getAuthorizer",
      "outputs": [
        {
          "internalType": "contract IAuthorizer",
          "name": "",
          "type": "address"
        }
      ],
      "stateMutability": "view",
      "type": "function"
    },
    {
      "inputs": [],
      "name": "getCreationCode",
      "outputs": [
        {
          "internalType": "bytes",
          "name": "",
          "type": "bytes"
        }
      ],
      "stateMutability": "view",
      "type": "function"
    },
    {
      "inputs": [],
      "name": "getCreationCodeContracts",
      "outputs": [
        {
          "internalType": "address",
          "name": "contractA",
          "type": "address"
        },
        {
          "internalType": "address",
          "name": "contractB",
          "type": "address"
        }
      ],
      "stateMutability": "view",
      "type": "function"
    },
    {
      "inputs": [],
      "name": "getPauseConfiguration",
      "outputs": [
        {
          "internalType": "uint256",
          "name": "pauseWindowDuration",
          "type": "uint256"
        },
        {
          "internalType": "uint256",
          "name": "bufferPeriodDuration",
          "type": "uint256"
        }
      ],
      "stateMutability": "view",
      "type": "function"
    },
    {
      "inputs": [],
      "name": "getProtocolFeePercentagesProvider",
      "outputs": [
        {
          "internalType": "contract IProtocolFeePercentagesProvider",
          "name": "",
          "type": "address"
        }
      ],
      "stateMutability": "view",
      "type": "function"
    },
    {
      "inputs": [],
      "name": "getVault",
      "outputs": [
        {
          "internalType": "contract IVault",
          "name": "",
          "type": "address"
        }
      ],
      "stateMutability": "view",
      "type": "function"
    },
    {
      "inputs": [],
      "name": "isDisabled",
      "outputs": [
        {
          "internalType": "bool",
          "name": "",
          "type": "bool"
        }
      ],
      "stateMutability": "view",
      "type": "function"
    },
    {
      "inputs": [
        {
          "internalType": "address",
          "name": "pool",
          "type": "address"
        }
      ],
      "name": "isPoolFromFactory",
      "outputs": [
        {
          "internalType": "bool",
          "name": "",
          "type": "bool"
        }
      ],
      "stateMutability": "view",
      "type": "function"
    }
  ],
  "bytecode": "0x6101806040523480156200001257600080fd5b5060405162009beb38038062009beb8339810160408190526200003591620001fc565b8181604051806020016200004990620001ee565b601f1982820381018352601f90910116604052805183903090839060006002820460a081905280830360e08190528185529091508362000095816200010f602090811b6200043717901c565b60601b6001600160601b0319166080528285018051838252620000c4826200010f602090811b6200043717901c565b6001600160601b0319606091821b811660c05296909352905261010095909552505092821b831661012052509290921b90911661014052505050426276a70001610160525062000250565b80517f602038038060206000396000f3fefefefefefefefefefefefefefefefefefefe808352600091602081018484f090845291506200015d6001600160a01b03831615156101ac62000163565b50919050565b816200017457620001748162000178565b5050565b6200018a816210905360ea1b6200018d565b50565b62461bcd60e51b600090815260206004526007602452600a808404818106603090810160081b958390069590950190829004918206850160101b01602363ffffff0060e086901c160160181b0190930160c81b60445260e882901c90606490fd5b618e618062000d8a83390190565b600080604083850312156200020f578182fd5b82516200021c816200023a565b60208401519092506200022f816200023a565b809150509250929050565b6001600160a01b03811681146200018a57600080fd5b60805160601c60a05160c05160601c60e051610100516101205160601c6101405160601c61016051610ac1620002c9600039806101ec52806102155250806102c052508061039b52508061034b5250806104915250806101c3528061050d5250806104b25250806101a252806104e95250610ac16000f3fe608060405234801561001057600080fd5b50600436106100a85760003560e01c80636c57f5a9116100715780636c57f5a914610121578063739238d61461012957806374dcc7a41461013e578063851c1bb3146101515780638d928af814610171578063aaabadc514610179576100a8565b8062c194db146100ad578063174481fa146100cb5780632da47c40146100e15780632f2770db146100f75780636634b75314610101575b600080fd5b6100b5610181565b6040516100c2919061098e565b60405180910390f35b6100d36101a0565b6040516100c2929190610941565b6100e96101e6565b6040516100c2929190610a68565b6100ff610250565b005b61011461010f3660046107c7565b610297565b6040516100c2919061095b565b6101146102b5565b6101316102be565b6040516100c2919061092d565b61013161014c366004610847565b6102e2565b61016461015f366004610803565b610347565b6040516100c29190610966565b610131610399565b6101316103bd565b606061019b60405180602001604052806000815250610489565b905090565b7f00000000000000000000000000000000000000000000000000000000000000007f00000000000000000000000000000000000000000000000000000000000000009091565b600080427f000000000000000000000000000000000000000000000000000000000000000081101561024257807f000000000000000000000000000000000000000000000000000000000000000003925062278d00915061024b565b60009250600091505b509091565b610258610562565b610260610593565b6001805460ff1916811790556040517f432acbfd662dbb5d8b378384a67159b47ca9d0f1b79f97cf64cf8585fa362d5090600090a1565b6001600160a01b031660009081526020819052604090205460ff1690565b60015460ff1690565b7f000000000000000000000000000000000000000000000000000000000000000090565b60008060006102ef6101e6565b915091506103386102fe610399565b8c8c8c8c8c8c8c8c8b8b336040516020016103249c9b9a999897969594939291906109e1565b6040516020818303038152906040526105a8565b9b9a5050505050505050505050565b60007f00000000000000000000000000000000000000000000000000000000000000008260405160200161037c929190610915565b604051602081830303815290604052805190602001209050919050565b7f000000000000000000000000000000000000000000000000000000000000000090565b60006103c7610399565b6001600160a01b031663aaabadc56040518163ffffffff1660e01b815260040160206040518083038186803b1580156103ff57600080fd5b505afa158015610413573d6000803e3d6000fd5b505050506040513d601f19601f8201168201806040525081019061019b919061082b565b80517f602038038060206000396000f3fefefefefefefefefefefefefefefefefefefe808352600091602081018484f090845291506104836001600160a01b03831615156101ac610611565b50919050565b8051604080517f00000000000000000000000000000000000000000000000000000000000000007f0000000000000000000000000000000000000000000000000000000000000000818101858101848101602090810190965280855293957f00000000000000000000000000000000000000000000000000000000000000009592947f000000000000000000000000000000000000000000000000000000000000000094938801866000828a3c846000888301883c5060208981019089850101610554818386610623565b505050505050505050919050565b60006105796000356001600160e01b031916610347565b90506105906105888233610661565b610191610611565b50565b6105a661059e6102b5565b1560d3610611565b565b60006105b2610593565b60006105bd836106f1565b6001600160a01b038116600081815260208190526040808220805460ff191660011790555192935090917f83a48fbcfc991335314e74d0496aab6a1987e992ddc85dddbcc4d6dd6ef2e9fc9190a292915050565b8161061f5761061f81610725565b5050565b5b60208110610643578151835260209283019290910190601f1901610624565b905182516020929092036101000a6000190180199091169116179052565b600061066b6103bd565b6001600160a01b0316639be2a8848484306040518463ffffffff1660e01b815260040161069a9392919061096f565b60206040518083038186803b1580156106b257600080fd5b505afa1580156106c6573d6000803e3d6000fd5b505050506040513d601f19601f820116820180604052508101906106ea91906107e3565b9392505050565b600060606106fe83610489565b905060008151602083016000f090506001600160a01b0381166106ea573d6000803e3d6000fd5b62461bcd60e51b600090815260206004526007602452600a808304818106603090810160081b83860601918390049283060160101b016642414c230000300160c81b604452610590916210905360ea1b906242414c90606490fd5b60008083601f840112610791578182fd5b50813567ffffffffffffffff8111156107a8578182fd5b6020830191508360208285010111156107c057600080fd5b9250929050565b6000602082840312156107d8578081fd5b81356106ea81610a76565b6000602082840312156107f4578081fd5b815180151581146106ea578182fd5b600060208284031215610814578081fd5b81356001600160e01b0319811681146106ea578182fd5b60006020828403121561083c578081fd5b81516106ea81610a76565b60008060008060008060008060c0898b031215610862578384fd5b883567ffffffffffffffff80821115610879578586fd5b6108858c838d01610780565b909a50985060208b013591508082111561089d578586fd5b506108aa8b828c01610780565b90975095505060408901356108be81610a76565b935060608901356108ce81610a76565b979a969950949793969295929450505060808201359160a0013590565b60008284528282602086013780602084860101526020601f19601f85011685010190509392505050565b9182526001600160e01b031916602082015260240190565b6001600160a01b0391909116815260200190565b6001600160a01b0392831681529116602082015260400190565b901515815260200190565b90815260200190565b9283526001600160a01b03918216602084015216604082015260600190565b6000602080835283518082850152825b818110156109ba5785810183015185820160400152820161099e565b818111156109cb5783604083870101525b50601f01601f1916929092016040019392505050565b6001600160a01b038d16815261014060208201819052600090610a079083018d8f6108eb565b8281036040840152610a1a818c8e6108eb565b6001600160a01b039a8b166060850152988a166080840152505060a081019590955260c085019390935260e08401919091526101008301529092166101209092019190915295945050505050565b918252602082015260400190565b6001600160a01b038116811461059057600080fdfea2646970667358221220f242d13ba5786423e4b929d7dfb0d3d4ab7973794c2486e958a7ce88bf5ffcfb64736f6c634300070100336102206040523480156200001257600080fd5b5060405162008e6138038062008e61833981016040819052620000359162000a93565b8960008a8a620000478b8b30620004c4565b6040805160038082526080820190925290602082016060803683370190505089898989828289898d85336001600160a01b031660001b8480604051806040016040528060018152602001603160f81b81525087878160039080519060200190620000b3929190620008f6565b508051620000c9906004906020840190620008f6565b50506005805460ff19166012179055508151602092830120608052805191012060a052507f8b73c3c69bb8fe3d512ecc4cf759cc79239f7b179b0ffacaa9a75d522b39400f60c05260e0526001600160601b0319606091821b81166101005291901b1661012052506200014790506276a70083111561019462000593565b6200015b62278d0082111561019562000593565b42909101610140819052016101605285516200017d906002111560c862000593565b620001976200018b620005a8565b8751111560c962000593565b620001ad86620005ad60201b62001a3b1760201c565b620001b884620005b9565b6040516309b2760f60e01b81526000906001600160a01b038c16906309b2760f90620001e9908d9060040162000c39565b602060405180830381600087803b1580156200020457600080fd5b505af115801562000219573d6000803e3d6000fd5b505050506040513d601f19601f820116820180604052508101906200023f919062000a54565b604051633354e3e960e11b81529091506001600160a01b038c16906366a9c7d290620002749084908b908b9060040162000b9d565b600060405180830381600087803b1580156200028f57600080fd5b505af1158015620002a4573d6000803e3d6000fd5b505050508061018081815250508a6001600160a01b031663d2946c2b6040518163ffffffff1660e01b815260040160206040518083038186803b158015620002eb57600080fd5b505afa15801562000300573d6000803e3d6000fd5b505050506040513d601f19601f8201168201806040525081019062000326919062000a6d565b6001600160a01b03166101a0816001600160a01b031660601b81525050505050505050505050505086600a60006101000a8154816001600160a01b0302191690836001600160a01b0316021790555085600b60006101000a8154816001600160a01b0302191690836001600160a01b031602179055506000806000620003b48a8a306200064d60201b60201c565b6101c08190526101e0839052610200829052600c8b9055600d8a9055600e80546001600160a01b0319166001600160a01b038981169190911791829055600a54600b546040519699509497509295509081169391811692169030906200041a906200097b565b62000429949392919062000b72565b604051809103906000f08015801562000446573d6000803e3d6000fd5b50600980546001600160a01b0319166001600160a01b039283161790819055600a54600c54600b54604051928516947f3ca60c442fe0a0eec00a4242bd76d6b93ec28f607f78e5b820a53f8538854bbb94620004a9949282169291169062000c57565b60405180910390a25050505050505050505050505062000c98565b606060008080620004d78787876200064d565b60408051600380825260808201909252939650919450925060208201606080368337019050509350868484815181106200050d57fe5b60200260200101906001600160a01b031690816001600160a01b031681525050858483815181106200053b57fe5b60200260200101906001600160a01b031690816001600160a01b031681525050848482815181106200056957fe5b60200260200101906001600160a01b031690816001600160a01b0316815250505050509392505050565b81620005a457620005a48162000743565b5050565b600390565b80620005a48162000758565b620005d2620005c7620007e4565b82101560cb62000593565b620005eb620005e0620007ed565b82111560ca62000593565b6200060d8160c0603f600854620007f960201b62001a4517909392919060201c565b6008556040517fa9ba3ffe0b6c366b81232caab38605a0699ad5398d6cce76f91ee809e322dafc906200064290839062000c4e565b60405180910390a150565b6000806000846001600160a01b0316866001600160a01b03161015620006d657836001600160a01b0316856001600160a01b03161015620006995750600091506001905060026200073a565b836001600160a01b0316866001600160a01b03161015620006c55750600091506002905060016200073a565b50600191506002905060006200073a565b846001600160a01b0316846001600160a01b03161015620007025750600291506001905060006200073a565b856001600160a01b0316846001600160a01b031610156200072e5750600291506000905060016200073a565b50600191506000905060025b93509350939050565b62000755816210905360ea1b6200081e565b50565b600281511015620007695762000755565b6000816000815181106200077957fe5b602002602001015190506000600190505b8251811015620007df576000838281518110620007a357fe5b60200260200101519050620007d4816001600160a01b0316846001600160a01b03161060656200059360201b60201c565b91506001016200078a565b505050565b64e8d4a5100090565b67016345785d8a000090565b6000620008088484846200087f565b506001901b60001901811b1992909216911b1790565b62461bcd60e51b600090815260206004526007602452600a808404818106603090810160081b958390069590950190829004918206850160101b01602363ffffff0060e086901c160160181b0190930160c81b60445260e882901c90606490fd5b620008906101008310606462000593565b620008c960018210158015620008c15750620008bd60ff8461010003620008da60201b62001a681760201c565b8211155b606462000593565b620007df83821c156101b462000593565b6000818310620008eb5781620008ed565b825b90505b92915050565b828054600181600116156101000203166002900490600052602060002090601f016020900481019282601f106200093957805160ff191683800117855562000969565b8280016001018555821562000969579182015b82811115620009695782518255916020019190600101906200094c565b506200097792915062000989565b5090565b61449280620049cf83390190565b5b808211156200097757600081556001016200098a565b8051620008f08162000c82565b600082601f830112620009be578081fd5b81516001600160401b0380821115620009d5578283fd5b6040516020601f8401601f1916820181018381118382101715620009f7578586fd5b8060405250819450838252868185880101111562000a1457600080fd5b600092505b8383101562000a38578583018101518284018201529182019162000a19565b8383111562000a4a5760008185840101525b5050505092915050565b60006020828403121562000a66578081fd5b5051919050565b60006020828403121562000a7f578081fd5b815162000a8c8162000c82565b9392505050565b6000806000806000806000806000806101408b8d03121562000ab3578586fd5b62000abf8c8c620009a0565b60208c0151909a506001600160401b038082111562000adc578788fd5b62000aea8e838f01620009ad565b9a5060408d015191508082111562000b00578788fd5b5062000b0f8d828e01620009ad565b98505062000b218c60608d01620009a0565b965062000b328c60808d01620009a0565b955060a08b0151945060c08b0151935060e08b015192506101008b0151915062000b618c6101208d01620009a0565b90509295989b9194979a5092959850565b6001600160a01b03948516815292841660208401529083166040830152909116606082015260800190565b60006060820185835260206060818501528186518084526080860191508288019350845b8181101562000be95762000bd6855162000c76565b8352938301939183019160010162000bc1565b505084810360408601528551808252908201925081860190845b8181101562000c2b5762000c18835162000c76565b8552938301939183019160010162000c03565b509298975050505050505050565b602081016003831062000c4857fe5b91905290565b90815260200190565b9283526001600160a01b03918216602084015216604082015260600190565b6001600160a01b031690565b6001600160a01b03811681146200075557600080fd5b60805160a05160c05160e0516101005160601c6101205160601c6101405161016051610180516101a05160601c6101c0516101e05161020051613c8562000d4a6000398061110152806111eb5280611b13525080611123528061120d5280611ad2525080611b545280612a1b525080611816525080611413525080611e03525080611ddf5250806116e95250806116c552508061164f5250806126c15250806127035250806126e25250613c856000f3fe608060405234801561001057600080fd5b506004361061025e5760003560e01c80637ecebe0011610146578063a9059cbb116100c3578063d2946c2b11610087578063d2946c2b146104ac578063d505accf146104b4578063d5c096c4146104c7578063dd62ed3e146104da578063ed24911d146104ed578063fd19cac8146104f55761025e565b8063a9059cbb14610479578063aaabadc51461048c578063ab63c60714610494578063b35056b81461049c578063b7b814fc146104a45761025e565b80638d928af81161010a5780638d928af81461043b57806390193b7c1461044357806395c95a4f1461045657806395d89b411461045e578063a457c2d7146104665761025e565b80637ecebe00146103f25780638456cb5914610405578063851c1bb31461040d57806387ec681714610420578063893d20e8146104335761025e565b806338e9922e116101df57806354a844ba116101a357806354a844ba1461038557806355c676281461038d5780636028bfd4146103955780636945c1fd146103b657806370a08231146103be57806374f3b009146103d15761025e565b806338e9922e1461033a57806338fff2d01461034f57806339509351146103575780633f4ba83a1461036a57806350dd6ed9146103725761025e565b80631dd746ea116102265780631dd746ea146102e057806323b872dd146102f55780632541897f14610308578063313ce5671461031d5780633644e515146103325761025e565b806301ec954a1461026357806306fdde031461028c578063095ea7b3146102a157806318160ddd146102c15780631c0de051146102c9575b600080fd5b6102766102713660046133ec565b6104fd565b6040516102839190613924565b60405180910390f35b610294611274565b6040516102839190613a02565b6102b46102af366004613181565b61130a565b6040516102839190613901565b610276611321565b6102d1611327565b6040516102839392919061390c565b6102e8611350565b60405161028391906138c0565b6102b46103033660046130d1565b61135f565b6103106113d3565b604051610283919061383f565b6103256113e2565b6040516102839190613b7c565b6102766113eb565b61034d61034836600461366a565b6113f5565b005b610276611411565b6102b4610365366004613181565b611435565b61034d611470565b61034d6103803660046132ad565b611484565b61034d6114a2565b6102766114b4565b6103a86103a33660046131c7565b6114c7565b604051610283929190613b55565b6103106114fe565b6102766103cc36600461307d565b61150d565b6103e46103df3660046131c7565b61152c565b6040516102839291906138d3565b61027661040036600461307d565b61162e565b61034d611639565b61027661041b366004613269565b61164b565b6103a861042e3660046131c7565b61169d565b6103106116c3565b6103106116e7565b61027661045136600461307d565b61170b565b610276611726565b61029461172c565b6102b4610474366004613181565b61178d565b6102b4610487366004613181565b6117cb565b6103106117d8565b6103106117e2565b6102b46117f1565b61034d611802565b610310611814565b61034d6104c2366004613111565b611838565b6103e46104d53660046131c7565b6118c3565b6102766104e8366004613099565b6119e5565b610276611a22565b610310611a2c565b6000846080015161052a61050f6116e7565b6001600160a01b0316336001600160a01b03161460cd611a80565b61053f610535611411565b82146101f4611a80565b610547611a8e565b60008651600181111561055657fe5b148061056e575060018651600181111561056c57fe5b145b6105935760405162461bcd60e51b815260040161058a90613a45565b60405180910390fd5b600b5460408701516001600160a01b03908116911614806105c65750600a5460408701516001600160a01b039081169116145b806105e35750600b5460208701516001600160a01b039081169116145b806106005750600a5460208701516001600160a01b039081169116145b61061c5760405162461bcd60e51b815260040161058a90613a15565b6060610626611aa1565b9050610630612ea3565b600954604080516353f203f560e01b815281516001600160a01b03909316926353f203f592600480840193919291829003018186803b15801561067257600080fd5b505afa158015610686573d6000803e3d6000fd5b505050506040513d601f19601f820116820180604052508101906106aa9190613682565b601055600f556101008801515115610fbd576101008801516000906106da906106d590836001611b8d565b611c2f565b905080610f2d576000895160018111156106f057fe5b1415610b1457600a5460208a01516001600160a01b03908116911614806107295750600b5460208a01516001600160a01b039081169116145b15610b0f577f46e0a0a7795bd12697b9dd700b91e4107ad29200159ec5a317e5dfc3beaa94d9600f54601054604051610763929190613b6e565b60405180910390a1610773612ebe565b60095460c08b015160608c015160405163ca142f7560e01b81526001600160a01b039093169263ca142f75926107ad9290916004016138a7565b60006040518083038186803b1580156107c557600080fd5b505afa1580156107d9573d6000803e3d6000fd5b505050506040513d6000823e601f3d908101601f19168201604052610801919081019061350a565b600a5460208c01519192506060916001600160a01b03908116911614610847576040518060400160405280600881526020016763757272656e637960c01b815250610869565b60405180604001604052806008815260200167736563757269747960c01b8152505b905060008160405160200161087e91906137e0565b6040516020818303038152906040528051906020012083604001516040516020016108a991906137e0565b60405160208183030381529060405280519060200120146108cf578261010001516108d5565b82606001515b90508261014001516001600160a01b03167f04ec9268d79829e6eefee872eb80e9989e49711450675408699333640db257496040516020016109169061382b565b60405160208183030381529060405280519060200120856040015160405160200161094191906137e0565b60405160208183030381529060405280519060200120146109675784610120015161096d565b84608001515b60405160200161097c90613817565b6040516020818303038152906040528051906020012086604001516040516020016109a791906137e0565b60405160208183030381529060405280519060200120146109cd578561012001516109d3565b85608001515b6040516020016109e290613817565b604051602081830303815290604052805190602001208760400151604051602001610a0d91906137e0565b6040516020818303038152906040528051906020012014610a3d57610100870151610a389086611cd1565b610a4c565b6060870151610a4c9086611cd1565b6101808801516101608901516101c08a0151604051610a719695949392918a91613853565b60405180910390a260095460c08d015160608e01516040516335ca73db60e21b81526001600160a01b039093169263d729cf6c92610ab39290916004016138a7565b600060405180830381600087803b158015610acd57600080fd5b505af1158015610ae1573d6000803e3d6000fd5b50505050610b0281878b81518110610af557fe5b6020026020010151611d22565b975050505050505061126b565b610f28565b600189516001811115610b2357fe5b1415610f2857600a5460408a01516001600160a01b0390811691161480610b5c5750600b5460408a01516001600160a01b039081169116145b15610f28577f46e0a0a7795bd12697b9dd700b91e4107ad29200159ec5a317e5dfc3beaa94d9600f54601054604051610b96929190613b6e565b60405180910390a1610ba6612ebe565b60095460c08b015160608c015160405163ca142f7560e01b81526001600160a01b039093169263ca142f7592610be09290916004016138a7565b60006040518083038186803b158015610bf857600080fd5b505afa158015610c0c573d6000803e3d6000fd5b505050506040513d6000823e601f3d908101601f19168201604052610c34919081019061350a565b600a5460208c01519192506060916001600160a01b03908116911614610c7a576040518060400160405280600881526020016763757272656e637960c01b815250610c9c565b60405180604001604052806008815260200167736563757269747960c01b8152505b9050600081604051602001610cb191906137e0565b604051602081830303815290604052805190602001208360400151604051602001610cdc91906137e0565b6040516020818303038152906040528051906020012014610d0257826101000151610d08565b82606001515b90508261014001516001600160a01b03167f04ec9268d79829e6eefee872eb80e9989e49711450675408699333640db25749604051602001610d499061382b565b604051602081830303815290604052805190602001208560400151604051602001610d7491906137e0565b6040516020818303038152906040528051906020012014610d9a57846101200151610da0565b84608001515b604051602001610daf90613817565b604051602081830303815290604052805190602001208660400151604051602001610dda91906137e0565b6040516020818303038152906040528051906020012014610e0057856101200151610e06565b85608001515b604051602001610e1590613817565b604051602081830303815290604052805190602001208760400151604051602001610e4091906137e0565b6040516020818303038152906040528051906020012014610e7057610100870151610e6b9086611cd1565b610e7f565b6060870151610e7f9086611cd1565b6101808801516101608901516101c08a0151604051610ea49695949392918a91613853565b60405180910390a260095460c08d015160608e01516040516335ca73db60e21b81526001600160a01b039093169263d729cf6c92610ee69290916004016138a7565b600060405180830381600087803b158015610f0057600080fd5b505af1158015610f14573d6000803e3d6000fd5b50505050610b0281878c81518110610af557fe5b610fb7565b610100890151600090610f4d90610f48906001858101611b8d565b611d2e565b90508015801590610f5d57508115155b15610fb55760405180604001604052808264131a5b5a5d60da1b14610f83576002610f86565b60015b6002811115610f9157fe5b81526101008c01518051602090920191610fb0916106d5918790611b8d565b905292505b505b50611029565b600b5460208901516001600160a01b0390811691161480610ff05750600a5460408901516001600160a01b039081169116145b15611011575060408051808201909152600081526010546020820152611029565b506040805180820190915260008152600f5460208201525b60008851600181111561103857fe5b14156110695761105f886060015183888151811061105257fe5b6020026020010151611d4c565b6060890152611098565b60018851600181111561107857fe5b141561109857611092886060015183878151811061105257fe5b60608901525b600b5460408901516001600160a01b03908116911614806110cb5750600a5460208901516001600160a01b039081169116145b1561118257600954604051638d357a0960e01b81526001600160a01b0390911690638d357a099061114b908b9085906001908d907f0000000000000000000000000000000000000000000000000000000000000000907f000000000000000000000000000000000000000000000000000000000000000090600401613a6b565b600060405180830381600087803b15801561116557600080fd5b505af1158015611179573d6000803e3d6000fd5b50505050611268565b600a5460408901516001600160a01b03908116911614806111b55750600b5460208901516001600160a01b039081169116145b1561126857600954604051638d357a0960e01b81526001600160a01b0390911690638d357a0990611235908b9085906000908d907f0000000000000000000000000000000000000000000000000000000000000000907f000000000000000000000000000000000000000000000000000000000000000090600401613a6b565b600060405180830381600087803b15801561124f57600080fd5b505af1158015611263573d6000803e3d6000fd5b505050505b50505b50949350505050565b60038054604080516020601f60026000196101006001881615020190951694909404938401819004810282018101909252828152606093909290918301828280156113005780601f106112d557610100808354040283529160200191611300565b820191906000526020600020905b8154815290600101906020018083116112e357829003601f168201915b5050505050905090565b6000611317338484611d58565b5060015b92915050565b60025490565b6000806000611334611dc0565b15925061133f611ddd565b9150611349611e01565b9050909192565b606061135a611aa1565b905090565b60008061136c85336119e5565b9050611390336001600160a01b03871614806113885750838210155b61019e611a80565b61139b858585611e25565b336001600160a01b038616148015906113b657506000198114155b156113c8576113c88533858403611d58565b506001949350505050565b600a546001600160a01b031690565b60055460ff1690565b600061135a611a22565b6113fd611f05565b611405611a8e565b61140e81611f33565b50565b7f000000000000000000000000000000000000000000000000000000000000000090565b3360008181526001602090815260408083206001600160a01b0387168452909152812054909161131791859061146b9086611fac565b611d58565b611478611f05565b6114826000611fbe565b565b61148c611f05565b611494611a8e565b61149e8282612031565b5050565b6114aa611f05565b6114826001612126565b60085460009061135a9060c0603f61217d565b600060606114dd86516114d861218c565b612191565b6114f28989898989898961219e6121f061225f565b97509795505050505050565b600b546001600160a01b031690565b6001600160a01b0381166000908152602081905260409020545b919050565b6060808861153b61050f6116e7565b611546610535611411565b6060600061155386612389565b1561157b576115606123b8565b6115728961156c611321565b886123cb565b925090506115cd565b6115836123f7565b606061158d611aa1565b90506115998a826123ff565b6115bd8d8d8d8d8d6115a96117f1565b6115b3578d6115b6565b60005b878e61219e565b935091506115cb83826121f0565b505b6115d78b82612468565b8189516001600160401b03811180156115ef57600080fd5b50604051908082528060200260200182016040528015611619578160200160208202803683370190505b509450945050505b5097509795505050505050565b600061131b8261170b565b611641611f05565b6114826001611fbe565b60007f0000000000000000000000000000000000000000000000000000000000000000826040516020016116809291906137b8565b604051602081830303815290604052805190602001209050919050565b600060606116ae86516114d861218c565b6114f28989898989898961247261248e61225f565b7f000000000000000000000000000000000000000000000000000000000000000090565b7f000000000000000000000000000000000000000000000000000000000000000090565b6001600160a01b031660009081526006602052604090205490565b600c5490565b60048054604080516020601f60026000196101006001881615020190951694909404938401819004810282018101909252828152606093909290918301828280156113005780601f106112d557610100808354040283529160200191611300565b60008061179a33856119e5565b90508083106117b4576117af33856000611d58565b6117c1565b6117c13385858403611d58565b5060019392505050565b6000611317338484611e25565b600061135a6124f7565b6009546001600160a01b031690565b60085460009061135a9060ff612571565b61180a611f05565b6114826000612126565b7f000000000000000000000000000000000000000000000000000000000000000090565b60007f6e71edae12b1b97f4d1f60370fef10105fa2faae0126114a169c64845d6126c98888886118678c61170b565b8960405160200161187d9695949392919061394c565b6040516020818303038152906040528051906020012090506118ae88826118a587878761257b565b886101f86125ba565b6118b9888888611d58565b5050505050505050565b606080886118d261050f6116e7565b6118dd610535611411565b6118e56123f7565b60606118ef611aa1565b90506118f9611321565b6119a5576000606061190e8d8d8d868b612611565b9150915061192761191d612681565b83101560cc611a80565b6119396000611934612681565b612688565b61194c8b611945612681565b8403612688565b611956818461248e565b808a516001600160401b038111801561196e57600080fd5b50604051908082528060200260200182016040528015611998578160200160208202803683370190505b5095509550505050611621565b6119af88826123ff565b600060606119d78d8d8d8d8d6119c36117f1565b6119cd578d6119d0565b60005b898e612472565b9150915061194c8b83612688565b60006119ef6116e7565b6001600160a01b0316826001600160a01b03161415611a11575060001961131b565b611a1b8383612692565b905061131b565b600061135a6126bd565b6009546001600160a01b031681565b8061149e8161275a565b6000611a528484846127d8565b506001901b60001901811b1992909216911b1790565b6000818310611a775781611a79565b825b9392505050565b8161149e5761149e8161281f565b611482611a99611dc0565b610192611a80565b60408051600380825260808201909252606091829190602082018380368337019050509050670de0b6b3a7640000817f000000000000000000000000000000000000000000000000000000000000000081518110611afb57fe5b602002602001018181525050670de0b6b3a7640000817f000000000000000000000000000000000000000000000000000000000000000081518110611b3c57fe5b602002602001018181525050670de0b6b3a7640000817f000000000000000000000000000000000000000000000000000000000000000081518110611b7d57fe5b6020908102919091010152905090565b606083818484036001600160401b0381118015611ba957600080fd5b506040519080825280601f01601f191660200182016040528015611bd4576020820181803683370190505b509050845b84811015611c2557828181518110611bed57fe5b602001015160f81c60f81b8287830381518110611c0657fe5b60200101906001600160f81b031916908160001a905350600101611bd9565b5095945050505050565b600080828180805b8351811015611cc6576030848281518110611c4e57fe5b016020015160f81c10801590611c7857506039848281518110611c6d57fe5b016020015160f81c11155b15611cb9578291506030848281518110611c8e57fe5b602001015160f81c60f81b60f81c60ff160383600a0201925082821115611cb457600194505b611cbe565b600194505b600101611c37565b509095945050505050565b6000611ce08215156004611a80565b82611ced5750600061131b565b670de0b6b3a764000083810290611d1090858381611d0757fe5b04146005611a80565b828181611d1957fe5b0491505061131b565b6000611a798383611cd1565b80516000908290611d43575060009050611527565b50506020015190565b6000611a79838361282f565b6001600160a01b0380841660008181526001602090815260408083209487168084529490915290819020849055517f8c5be1e5ebec7d5bd14f71427d1e84f3dd0314c0f7b2291e5b200ac8c7c3b92590611db3908590613924565b60405180910390a3505050565b6000611dca611e01565b42118061135a57505060075460ff161590565b7f000000000000000000000000000000000000000000000000000000000000000090565b7f000000000000000000000000000000000000000000000000000000000000000090565b611e3c6001600160a01b0384161515610198611a80565b611e536001600160a01b0383161515610199611a80565b611e5e8383836127d3565b6001600160a01b038316600090815260208190526040902054611e8490826101a0612865565b6001600160a01b038085166000908152602081905260408082209390935590841681522054611eb39082611fac565b6001600160a01b0380841660008181526020819052604090819020939093559151908516907fddf252ad1be2c89b69c2b068fc378daa952ba7f163c4a11628f55a4df523b3ef90611db3908590613924565b6000611f1c6000356001600160e01b03191661164b565b905061140e611f2b823361287b565b610191611a80565b611f48611f3e612964565b82101560cb611a80565b611f5d611f5361296d565b82111560ca611a80565b600854611f6e908260c0603f611a45565b6008556040517fa9ba3ffe0b6c366b81232caab38605a0699ad5398d6cce76f91ee809e322dafc90611fa1908390613924565b60405180910390a150565b6000828201611a798482101583611a80565b8015611fde57611fd9611fcf611ddd565b4210610193611a80565b611ff3565b611ff3611fe9611e01565b42106101a9611a80565b6007805460ff19168215151790556040517f9e3a5e37224532dea67b89face185703738a228a6e8a23dee546960180d3be6490611fa1908390613901565b600061203b611411565b905060006120476116e7565b6001600160a01b031663b05f8e4883866040518363ffffffff1660e01b81526004016120749291906139cd565b60806040518083038186803b15801561208c57600080fd5b505afa1580156120a0573d6000803e3d6000fd5b505050506040513d601f19601f820116820180604052508101906120c491906136a5565b604051630639cdb560e21b81529094506001600160a01b03851693506318e736d492506120f89150859087906004016139ac565b600060405180830381600087803b15801561211257600080fd5b505af11580156118b9573d6000803e3d6000fd5b600854612135908260ff612979565b6008556040517feff3d4d215b42bf0960be9c6d5e05c22cba4df6627a3a523e2acee733b5854c890612168908390613901565b60405180910390a18061140e5761140e611482565b6001901b6000190191901c1690565b600390565b61149e8183146067611a80565b6000606060006121ad846129a0565b905060018160018111156121bd57fe5b146121d2576121cd61016361281f565b6121e2565b6121dc88856129b6565b90935091505b509850989650505050505050565b815181516121ff908290612191565b60005b818110156122595761223a84828151811061221957fe5b602002602001015184838151811061222d57fe5b6020026020010151611cd1565b84828151811061224657fe5b6020908102919091010152600101612202565b50505050565b33301461231d576000306001600160a01b03166000366040516122839291906137d0565b6000604051808303816000865af19150503d80600081146122c0576040519150601f19603f3d011682016040523d82523d6000602084013e6122c5565b606091505b5050905080600081146122d457fe5b60046000803e6000516001600160e01b0319166343adbafb60e01b81146122ff573d6000803e3d6000fd5b506020600460003e604060205260243d03602460403e601c3d016000f35b6123256123f7565b606061232f611aa1565b905061233b87826123ff565b600060606123538c8c8c8c8c8c898d8d63ffffffff16565b9150915061236581848663ffffffff16565b8051601f1982018390526343adbafb603f1983015260200260231982016044820181fd5b600080825111801561131b575060ff8016828060200190518101906123ae91906136e5565b60ff161492915050565b6114826123c36117f1565b6101b6611a80565b6000606060006123da84612a81565b905060606123e9878784612a97565b919791965090945050505050565b611482611a8e565b8151815161240e908290612191565b60005b818110156122595761244984828151811061242857fe5b602002602001015184838151811061243c57fe5b602002602001015161282f565b84828151811061245557fe5b6020908102919091010152600101612411565b61149e8282612b45565b6000606061248161016361281f565b9850989650505050505050565b8151815161249d908290612191565b60005b81811015612259576124d88482815181106124b757fe5b60200260200101518483815181106124cb57fe5b6020026020010151612c11565b8482815181106124e457fe5b60209081029190910101526001016124a0565b60006125016116e7565b6001600160a01b031663aaabadc56040518163ffffffff1660e01b815260040160206040518083038186803b15801561253957600080fd5b505afa15801561254d573d6000803e3d6000fd5b505050506040513d601f19601f8201168201806040525081019061135a9190613291565b1c60019081161490565b60408051604180825260808201909252606091829190602082018180368337019050509050836020820152826040820152846060820153949350505050565b60006125c585612c5f565b90506125db6125d5878387612c7b565b83611a80565b6125ea428410156101b8611a80565b5050506001600160a01b039092166000908152600660205260409020805460010190555050565b6000606061261d611a8e565b600e5461263a906001600160a01b03888116911614610156611a80565b600e54612657906001600160a01b03878116911614610156611a80565b6dffffffffffffffffffffffffffff606061267185612d2a565b9199919850909650505050505050565b620f424090565b61149e8282612d40565b6001600160a01b03918216600090815260016020908152604080832093909416825291909152205490565b60007f00000000000000000000000000000000000000000000000000000000000000007f00000000000000000000000000000000000000000000000000000000000000007f000000000000000000000000000000000000000000000000000000000000000061272a612dd3565b3060405160200161273f959493929190613980565b60405160208183030381529060405280519060200120905090565b6002815110156127695761140e565b60008160008151811061277857fe5b602002602001015190506000600190505b82518110156127d35760008382815181106127a057fe5b602002602001015190506127c9816001600160a01b0316846001600160a01b0316106065611a80565b9150600101612789565b505050565b6127e761010083106064611a80565b61281060018210158015612809575061280560ff8461010003611a68565b8211155b6064611a80565b6127d383821c156101b4611a80565b61140e816210905360ea1b612dd7565b600082820261285384158061284c57508385838161284957fe5b04145b6003611a80565b670de0b6b3a764000090049392505050565b60006128748484111583611a80565b5050900390565b600073ba1ba1ba1ba1ba1ba1ba1ba1ba1ba1ba1ba1ba1b61289a6116c3565b6001600160a01b0316141580156128b557506128b583612e38565b156128dd576128c26116c3565b6001600160a01b0316336001600160a01b031614905061131b565b6128e56124f7565b6001600160a01b0316639be2a8848484306040518463ffffffff1660e01b81526004016129149392919061392d565b60206040518083038186803b15801561292c57600080fd5b505afa158015612940573d6000803e3d6000fd5b505050506040513d601f19601f82011682018060405250810190611a1b91906131ac565b64e8d4a5100090565b67016345785d8a000090565b60006001821b198416828461298f576000612992565b60015b60ff16901b17949350505050565b60008180602001905181019061131b91906132fa565b6000606060006129c584612e74565b9050606085516001600160401b03811180156129e057600080fd5b50604051908082528060200260200182016040528015612a0a578160200160208202803683370190505b50905060005b8651811015612a75577f00000000000000000000000000000000000000000000000000000000000000008114612a6d57868181518110612a4c57fe5b6020026020010151828281518110612a6057fe5b6020026020010181815250505b600101612a10565b50909590945092505050565b600081806020019051810190611a799190613701565b60606000612aa58385611cd1565b905084516001600160401b0381118015612abe57600080fd5b50604051908082528060200260200182016040528015612ae8578160200160208202803683370190505b50915060005b8551811015612b3c57612b1d82878381518110612b0757fe5b602002602001015161282f90919063ffffffff16565b838281518110612b2957fe5b6020908102919091010152600101612aee565b50509392505050565b612b5c6001600160a01b038316151561019b611a80565b612b68826000836127d3565b6001600160a01b038216600090815260208190526040902054612b8e90826101b2612865565b6001600160a01b038316600090815260208190526040902055612bc1612bbc82612bb6611321565b90612e8a565b612e98565b60006001600160a01b0316826001600160a01b03167fddf252ad1be2c89b69c2b068fc378daa952ba7f163c4a11628f55a4df523b3ef83604051612c059190613924565b60405180910390a35050565b6000612c208215156004611a80565b82612c2d5750600061131b565b670de0b6b3a764000083810290612c4790858381611d0757fe5b826001820381612c5357fe5b0460010191505061131b565b6000612c696126bd565b826040516020016116809291906137fc565b6000612c8d82516041146101b9611a80565b60208281015160408085015160608601518251600080825295019283905292939092811a91600190612cc69089908590889088906139e4565b6020604051602081039080840390855afa158015612ce8573d6000803e3d6000fd5b5050604051601f1901519150506001600160a01b03811615801590612d1e5750876001600160a01b0316816001600160a01b0316145b98975050505050505050565b606081806020019051810190611a799190613343565b612d4c600083836127d3565b612d61612bbc82612d5b611321565b90611fac565b6001600160a01b038216600090815260208190526040902054612d849082611fac565b6001600160a01b0383166000818152602081905260408082209390935591519091907fddf252ad1be2c89b69c2b068fc378daa952ba7f163c4a11628f55a4df523b3ef90612c05908590613924565b4690565b62461bcd60e51b600090815260206004526007602452600a808404818106603090810160081b958390069590950190829004918206850160101b01602363ffffff0060e086901c160160181b0190930160c81b60445260e882901c90606490fd5b6000612e4a631c74c91760e11b61164b565b821480612e655750612e626350dd6ed960e01b61164b565b82145b8061131b575061131b82612e9d565b600081806020019051810190611a799190613316565b6000611a7983836001612865565b600255565b50600090565b604080518082019091528060005b8152602001600081525090565b604080516101e08101825260008082526020820181905260609282018390528282018190526080820181905260a0820181905260c0820181905260e082019290925261010081018290526101208101829052610140810182905261016081018290526101808101829052906101a0820190612eb1565b803561131b81613c1e565b805161131b81613c1e565b600082601f830112612f5a578081fd5b8135612f6d612f6882613bb0565b613b8a565b818152915060208083019084810181840286018201871015612f8e57600080fd5b60005b84811015612fad57813584529282019290820190600101612f91565b505050505092915050565b8051801515811461131b57600080fd5b600082601f830112612fd8578081fd5b8135612fe6612f6882613bcf565b9150808252836020828501011115612ffd57600080fd5b8060208401602084013760009082016020015292915050565b80516003811061131b57600080fd5b803561131b81613c33565b600082601f830112613040578081fd5b815161304e612f6882613bcf565b915080825283602082850101111561306557600080fd5b613076816020840160208601613bf2565b5092915050565b60006020828403121561308e578081fd5b8135611a7981613c1e565b600080604083850312156130ab578081fd5b82356130b681613c1e565b915060208301356130c681613c1e565b809150509250929050565b6000806000606084860312156130e5578081fd5b83356130f081613c1e565b9250602084013561310081613c1e565b929592945050506040919091013590565b600080600080600080600060e0888a03121561312b578485fd5b873561313681613c1e565b9650602088013561314681613c1e565b95506040880135945060608801359350608088013561316481613c40565b9699959850939692959460a0840135945060c09093013592915050565b60008060408385031215613193578182fd5b823561319e81613c1e565b946020939093013593505050565b6000602082840312156131bd578081fd5b611a798383612fb8565b600080600080600080600060e0888a0312156131e1578081fd5b8735965060208801356131f381613c1e565b9550604088013561320381613c1e565b945060608801356001600160401b038082111561321e578283fd5b61322a8b838c01612f4a565b955060808a0135945060a08a0135935060c08a013591508082111561324d578283fd5b5061325a8a828b01612fc8565b91505092959891949750929550565b60006020828403121561327a578081fd5b81356001600160e01b031981168114611a79578182fd5b6000602082840312156132a2578081fd5b8151611a7981613c1e565b600080604083850312156132bf578182fd5b82356132ca81613c1e565b915060208301356001600160401b038111156132e4578182fd5b6132f085828601612fc8565b9150509250929050565b60006020828403121561330b578081fd5b8151611a7981613c33565b60008060408385031215613328578182fd5b825161333381613c33565b6020939093015192949293505050565b60008060408385031215613355578182fd5b825160048110613363578283fd5b809250506020808401516001600160401b03811115613380578283fd5b8401601f81018613613390578283fd5b805161339e612f6882613bb0565b81815283810190838501858402850186018a10156133ba578687fd5b8694505b838510156133dc5780518352600194909401939185019185016133be565b5080955050505050509250929050565b60008060008060808587031215613401578182fd5b84356001600160401b0380821115613417578384fd5b818701915061012080838a03121561342d578485fd5b61343681613b8a565b90506134428984613025565b81526134518960208501612f34565b60208201526134638960408501612f34565b6040820152606083013560608201526080830135608082015260a083013560a08201526134938960c08501612f34565b60c08201526134a58960e08501612f34565b60e082015261010080840135838111156134bd578687fd5b6134c98b828701612fc8565b8284015250508096505060208701359150808211156134e6578384fd5b506134f387828801612f4a565b949794965050505060408301359260600135919050565b60006020828403121561351b578081fd5b81516001600160401b0380821115613531578283fd5b81840191506101e0808387031215613547578384fd5b61355081613b8a565b9050825181526135638660208501612fb8565b6020820152604083015182811115613579578485fd5b61358587828601613030565b604083015250606083015160608201526135a28660808501612f3f565b608082015260a083015160a08201526135be8660c08501612fb8565b60c082015260e0830151828111156135d4578485fd5b6135e087828601613030565b60e0830152506101008381015190820152610120915061360286838501612f3f565b82820152610140915061361786838501612f3f565b82820152610160915061362c86838501612f3f565b82820152610180915081830151828201526101a0915061364e86838501613016565b918101919091526101c091820151918101919091529392505050565b60006020828403121561367b578081fd5b5035919050565b60008060408385031215613694578182fd5b505080516020909101519092909150565b600080600080608085870312156136ba578182fd5b84519350602085015192506040850151915060608501516136da81613c1e565b939692955090935050565b6000602082840312156136f6578081fd5b8151611a7981613c40565b60008060408385031215613713578182fd5b825161333381613c40565b6001600160a01b03169052565b6000815180845260208085019450808401835b8381101561375a5781518752958201959082019060010161373e565b509495945050505050565b6000815180845261377d816020860160208601613bf2565b601f01601f19169290920160200192915050565b6002811061379b57fe5b9052565b8051600381106137ab57fe5b8252602090810151910152565b9182526001600160e01b031916602082015260240190565b6000828483379101908152919050565b600082516137f2818460208701613bf2565b9190910192915050565b61190160f01b81526002810192909252602282015260420190565b6763757272656e637960c01b815260080190565b67736563757269747960c01b815260080190565b6001600160a01b0391909116815260200190565b6001600160a01b039788168152958716602087015260408601949094526060850192909252909316608083015260a08201929092526650656e64696e6760c81b60c082015260e08101919091526101000190565b6001600160a01b03929092168252602082015260400190565b600060208252611a79602083018461372b565b6000604082526138e6604083018561372b565b82810360208401526138f8818561372b565b95945050505050565b901515815260200190565b92151583526020830191909152604082015260600190565b90815260200190565b9283526001600160a01b03918216602084015216604082015260600190565b9586526001600160a01b0394851660208701529290931660408501526060840152608083019190915260a082015260c00190565b9485526020850193909352604084019190915260608301526001600160a01b0316608082015260a00190565b6000838252604060208301526139c56040830184613765565b949350505050565b9182526001600160a01b0316602082015260400190565b93845260ff9290921660208401526040830152606082015260800190565b600060208252611a796020830184613765565b602080825260169082015275496e76616c6964207377617070656420746f6b656e7360501b604082015260600190565b6020808252600c908201526b0496e76616c696420737761760a41b604082015260600190565b600060e08252613a7f60e083018951613791565b6020880151610100613a938185018361371e565b60408a01519150610120613aa98186018461371e565b60608b015161014086015260808b015161016086015260a08b015161018086015260c08b01519250613adf6101a086018461371e565b60e08b01519250613af46101c086018461371e565b818b01519250806101e08601525050613b11610200840182613765565b9050613b20602084018961379f565b613b2d6060840188613791565b8281036080840152613b3f818761372b565b60a0840195909552505060c00152949350505050565b6000838252604060208301526139c5604083018461372b565b918252602082015260400190565b60ff91909116815260200190565b6040518181016001600160401b0381118282101715613ba857600080fd5b604052919050565b60006001600160401b03821115613bc5578081fd5b5060209081020190565b60006001600160401b03821115613be4578081fd5b50601f01601f191660200190565b60005b83811015613c0d578181015183820152602001613bf5565b838111156122595750506000910152565b6001600160a01b038116811461140e57600080fd5b6002811061140e57600080fd5b60ff8116811461140e57600080fdfea2646970667358221220846a446afbd0fd521d6373c4c7650a7161221976dbd0e20e3b2334fa070ab39164736f6c63430007010033608060405260006001553480156200001657600080fd5b506040516200449238038062004492833981016040819052620000399162000106565b620000443362000098565b601380546001600160a01b039586166001600160a01b031991821617909155601180549486169482169490941790935560128054928516928416929092179091556014805491909316911617905562000166565b600080546001600160a01b038381166001600160a01b0319831681178455604051919092169283917f8be0079c531659141344cd1fd0a4f28419497f9722a3daafe3b4186f6b6457e09190a35050565b80516001600160a01b03811681146200010057600080fd5b92915050565b600080600080608085870312156200011c578384fd5b620001288686620000e8565b9350620001398660208701620000e8565b92506200014a8660408701620000e8565b91506200015b8660608701620000e8565b905092959194509250565b61431c80620001766000396000f3fe608060405234801561001057600080fd5b506004361061010b5760003560e01c80636945c1fd116100a25780638da5cb5b116100715780638da5cb5b146101f2578063ca142f75146101fa578063d729cf6c1461021a578063e43372e91461022d578063f2fde38b146102355761010b565b80636945c1fd146101bc578063715018a6146101c45780637489ec23146101cc5780638d357a09146101df5761010b565b806346b8b730116100de57806346b8b7301461016b5780634c4d8209146101805780634d6892701461019357806353f203f5146101a65761010b565b80630c8605be1461011057806313ce4546146101255780632541897f1461013857806338fff2d014610156575b600080fd5b61012361011e366004613e1d565b610248565b005b610123610133366004613dc4565b61036a565b61014061054e565b60405161014d919061401a565b60405180910390f35b61015e61055d565b60405161014d91906140cd565b6101736105ec565b60405161014d919061402e565b61012361018e366004613de5565b61064d565b6101236101a1366004613dc4565b6106ef565b6101ae610739565b60405161014d92919061428f565b610140610766565b610123610775565b6101236101da366004613d94565b61078d565b6101236101ed366004613e48565b610955565b610140610e68565b61020d610208366004613d69565b610e77565b60405161014d919061417b565b610123610228366004613d69565b6110eb565b61017361118a565b610123610243366004613d46565b6111e9565b6002600084815260036020526040902060010154600160b01b900460ff16600481111561027157fe5b146102975760405162461bcd60e51b815260040161028e9061410d565b60405180910390fd5b6000838152600360205260409020600401546001600160a01b031633146102d05760405162461bcd60e51b815260040161028e906140d6565b60008381526003602052604090206005810183905560020181905560015b600084815260036020526040902060010154600160a01b900460ff16600281111561031557fe5b141561032b57610326836001611218565b610365565b6002600084815260036020526040902060010154600160a01b900460ff16600281111561035457fe5b14156103655761036583600261145a565b505050565b6013546001600160a01b0316331461038157600080fd5b6000828152600360209081526040808320600401546001600160a01b0316835260058252808320858452600690925290912054815481106103be57fe5b6000918252602080832090910182905583825260068082526040808420849055600380845281852080546001600160a81b03191681556001810180546001600160b81b03191690556002808201879055918101869055600480820180546001600160a01b031916905560058201879055938101869055600701859055919092529120548154811061044b57fe5b600091825260208083209091018290558382526004808252604080842084905584845260038352808420909101546001600160a01b0316835260058252808320848452600690925290912054815481106104a157fe5b6000918252602080832090910182905582825260068082526040808420849055600380845281852080546001600160a81b03191681556001810180546001600160b81b03191690556002808201879055918101869055600480820180546001600160a01b031916905560058201879055938101869055600701859055919092529120548154811061052e57fe5b600091825260208083209091018290559181526004909152604081205550565b6011546001600160a01b031690565b600080601460009054906101000a90046001600160a01b03166001600160a01b03166338fff2d06040518163ffffffff1660e01b815260040160206040518083038186803b1580156105ae57600080fd5b505afa1580156105c2573d6000803e3d6000fd5b505050506040513d601f19601f820116820180604052508101906105e69190613dac565b91505090565b3360009081526005602090815260409182902080548351818402810184019094528084526060939283018282801561064357602002820191906000526020600020905b81548152602001906001019080831161062f575b5050505050905090565b6013546001600160a01b0316331461066457600080fd5b600081600181111561067257fe5b14806106895750600181600181111561068757fe5b145b61069257600080fd5b600083815260036020526040812060028082018054860190556001909101805460ff60b01b1916600160b11b1790819055600160a01b900460ff16908111156106d757fe5b14156106e857610326836000611697565b60016102ee565b6013546001600160a01b0316331461070657600080fd5b6000918252600360205260408083206001908101805460ff60b01b19908116909155928452922090910180549091169055565b60008061075a33610748610e68565b6001600160a01b0316146101aa613790565b5050600f546010549091565b6012546001600160a01b031690565b61078133610748610e68565b61078b60006137a2565b565b6000818152600360205260409020600401546001600160a01b031633146107c65760405162461bcd60e51b815260040161028e906140d6565b6000818152600860205260409020546007805490919081106107e457fe5b6000918252602080832090910182905582825260089052604081205560095415610832576000818152600a602052604090205460098054909190811061082657fe5b60009182526020822001555b6000818152600a6020526040812055600b5415610873576000818152600c6020526040902054600b8054909190811061086757fe5b60009182526020822001555b6000818152600c60209081526040808320839055600380835281842080546001600160a81b03191681556001810180546001600160b81b03191690556002808201869055918101859055600480820180546001600160a01b03191690556005820186905560068201869055600790910185905590925290912054815481106108f757fe5b60009182526020808320909101829055828252600481526040808320839055338352600582528083208484526006909252909120548154811061093657fe5b6000918252602080832090910182905591815260069091526040812055565b61096133610748610e68565b60008551600281111561097057fe5b1480610988575060018551600281111561098657fe5b145b8061099f575060028551600281111561099d57fe5b145b6109a857600080fd5b60008460018111156109b657fe5b14806109cd575060018460018111156109cb57fe5b145b6109d657600080fd5b6001544214156109ed5760018054810190556109f2565b426001555b60008660c00151600154604051602001610a0d929190613ff8565b604051602081830303815290604052805190602001209050610a2d613a88565b60405180610180016040528089600001516001811115610a4957fe5b815260200189602001516001600160a01b0316815260200189604001516001600160a01b0316815260200188600001516002811115610a8457fe5b8152602001876001811115610a9557fe5b8152602001600281526020018960600151815260200160015481526020018960c001516001600160a01b0316815260200188602001518152602001868681518110610adc57fe5b60200260200101518152602001868581518110610af557fe5b6020908102919091018101519091526000848152600390915260409020815181549293508392829060ff191660018381811115610b2e57fe5b021790555060208201518154610100600160a81b0319166101006001600160a01b039283160217825560408301516001830180546001600160a01b03191691909216178082556060840151919060ff60a01b1916600160a01b836002811115610b9357fe5b021790555060808201518160010160156101000a81548160ff02191690836001811115610bbc57fe5b021790555060a082015160018201805460ff60b01b1916600160b01b836004811115610be457fe5b021790555060c08281015160028381019190915560e08401516003840155610100840151600480850180546001600160a01b0319166001600160a01b03938416179055610120860151600580870191909155610140870151600680880191909155610160909701516007909601959095558254600089815260209283526040808220839055600183810187559582527f405787fa12a823e0f2b7631cc41b3ba8828b3321ca811111fa75cd3aa3bb5ace9092018a9055948f01805184168652868352818620548a8752978352818620979097559551909116835292835292812080549384018155815290812090910183905587516002811115610ce357fe5b1415610d5a5760008281526003602090815260408083206001908101805460ff60b01b1916600160b11b1790556007805460089094529184208390558201815582527fa66cc928b5edb82af9bd49922954155ab7b0942694bea4ce44661d9a8736c68801839055610d55908390611697565b610e5e565b600187516002811115610d6957fe5b1415610ddc5760008281526003602090815260408083206001908101805460ff60b01b1916600160b11b17905560098054600a909452918420839055828101825592527f6e1540171b6c0c960b71a7020d9f60077f6af931a8bbf590da0223dacf75c7af01839055610d55908390611218565b600287516002811115610deb57fe5b1415610e5e5760008281526003602090815260408083206001908101805460ff60b01b1916600160b11b179055600b8054600c909452918420839055820181559091527f0175b7a638427703f0dbe7bb9bbf987a2551717b34e79f33b5b1008d1fa01db901829055610e5e82600261145a565b5050505050505050565b6000546001600160a01b031690565b610e7f613af6565b610e87610e68565b6001600160a01b0316336001600160a01b03161480610eae5750336001600160a01b038416145b610eca5760405162461bcd60e51b815260040161028e90614144565b6001600160a01b0383166000908152600d6020908152604080832085845282529182902082516101e0810184528154815260018083015460ff161515828501526002808401805487516101009482161594909402600019011691909104601f81018690048602830186018752808352929593949386019391929091830182828015610f965780601f10610f6b57610100808354040283529160200191610f96565b820191906000526020600020905b815481529060010190602001808311610f7957829003601f168201915b5050509183525050600382015460208083019190915260048301546001600160a01b031660408084019190915260058401546060840152600684015460ff1615156080840152600784018054825160026101006001841615026000190190921691909104601f810185900485028201850190935282815260a090940193929091908301828280156110685780601f1061103d57610100808354040283529160200191611068565b820191906000526020600020905b81548152906001019060200180831161104b57829003601f168201915b50505091835250506008820154602082015260098201546001600160a01b039081166040830152600a83015481166060830152600b830154166080820152600c82015460a0820152600d82015460c09091019060ff1660028111156110c957fe5b60028111156110d457fe5b8152602001600e8201548152505090505b92915050565b6110f733610748610e68565b60005b6001600160a01b0383166000908152600e6020526040902054811015610365576001600160a01b0383166000908152600e6020526040902080548391908390811061114157fe5b90600052602060002001541415611182576001600160a01b0383166000908152600e6020526040902080548290811061117657fe5b60009182526020822001555b6001016110fa565b336000908152600e6020908152604091829020805483518184028101840190945280845260609392830182828015610643576020028201919060005260206000209081548152602001906001019080831161062f575050505050905090565b6111f533610748610e68565b61120c6001600160a01b03821615156101ab613790565b611215816137a2565b50565b6000805b600954811015611454576009818154811061123357fe5b6000918252602090912001546112485761144c565b6000600360006009848154811061125b57fe5b9060005260206000200154815260200190815260200160002060010160159054906101000a900460ff16600181111561129057fe5b1480156112e05750600360008581526020019081526020016000206005015460036000600984815481106112c057fe5b906000526020600020015481526020019081526020016000206005015410155b8061137e5750600160036000600984815481106112f957fe5b9060005260206000200154815260200190815260200160002060010160159054906101000a900460ff16600181111561132e57fe5b14801561137e57506003600085815260200190815260200160002060050154600360006009848154811061135e57fe5b906000526020600020015481526020019081526020016000206005015411155b1561144c5760076009828154811061139257fe5b6000918252602080832090910154835460018101855593835291209091015560098054829081106113bf57fe5b906000526020600020015491506113d78160016137f2565b60008360028111156113e557fe5b141580156113f35750838214155b15611441576007805460018181019092557fa66cc928b5edb82af9bd49922954155ab7b0942694bea4ce44661d9a8736c688018590556000858152600a6020526040902054611441916137f2565b61144c826001611697565b60010161121c565b50505050565b6000805b600b5481101561145457600b818154811061147557fe5b60009182526020909120015461148a5761168f565b600060036000600b848154811061149d57fe5b9060005260206000200154815260200190815260200160002060010160159054906101000a900460ff1660018111156114d257fe5b1480156115225750600360008581526020019081526020016000206005015460036000600b848154811061150257fe5b906000526020600020015481526020019081526020016000206005015411155b806115c05750600160036000600b848154811061153b57fe5b9060005260206000200154815260200190815260200160002060010160159054906101000a900460ff16600181111561157057fe5b1480156115c05750600360008581526020019081526020016000206005015460036000600b84815481106115a057fe5b906000526020600020015481526020019081526020016000206005015410155b1561168f576007600b82815481106115d457fe5b60009182526020808320909101548354600181018555938352912090910155600b80548290811061160157fe5b906000526020600020015491506116198160026137f2565b600083600281111561162757fe5b141580156116355750838214155b156116845760078054600181019091557fa66cc928b5edb82af9bd49922954155ab7b0942694bea4ce44661d9a8736c688018490556000848152600c60205260409020546116849060026137f2565b61168f826002611697565b60010161145e565b600080808080805b600754811015611b985787600782815481106116b757fe5b90600052602060002001541415801561172557506000888152600360208190526040822060040154600780546001600160a01b039092169391859081106116fa57fe5b600091825260208083209091015483528201929092526040019020600401546001600160a01b031614155b801561177757506000600360006007848154811061173f57fe5b9060005260206000200154815260200190815260200160002060010160169054906101000a900460ff16600481111561177457fe5b14155b15611b9057600360006007838154811061178d57fe5b906000526020600020015481526020019081526020016000206005015460001480156117c85750600088815260036020526040902060050154155b156117d257611b90565b600060036000600784815481106117e557fe5b9060005260206000200154815260200190815260200160002060010160159054906101000a900460ff16600181111561181a57fe5b14801561184e575060016000898152600360205260409020600190810154600160a81b900460ff169081111561184c57fe5b145b156119b4576003600089815260200190815260200160002060050154600360006007848154811061187b57fe5b90600052602060002001548152602001908152602001600020600501541015806118b45750600088815260036020526040902060050154155b156119af578460036000600784815481106118cb57fe5b906000526020600020015481526020019081526020016000206005015411806118f2575084155b156119af57600f8590556000600360006007848154811061190f57fe5b9060005260206000200154815260200190815260200160002060010160149054906101000a900460ff16600281111561194457fe5b1461197c57600360006007838154811061195a57fe5b906000526020600020015481526020019081526020016000206005015461198f565b6000888152600360205260409020600501545b94506002818154811061199e57fe5b906000526020600020015495508091505b611b90565b600160036000600784815481106119c757fe5b9060005260206000200154815260200190815260200160002060010160159054906101000a900460ff1660018111156119fc57fe5b148015611a2f5750600080898152600360205260409020600190810154600160a81b900460ff1690811115611a2d57fe5b145b15611b905760036000898152602001908152602001600020600501546003600060078481548110611a5c57fe5b9060005260206000200154815260200190815260200160002060050154111580611a955750600088815260036020526040902060050154155b15611b9057826003600060078481548110611aac57fe5b90600052602060002001548152602001908152602001600020600501541080611ad3575082155b15611b9057601083905560006003600060078481548110611af057fe5b9060005260206000200154815260200190815260200160002060010160149054906101000a900460ff166002811115611b2557fe5b14611b5d576003600060078381548110611b3b57fe5b9060005260206000200154815260200190815260200160002060050154611b70565b6000888152600360205260409020600501545b925060028181548110611b7f57fe5b906000526020600020015493508091505b60010161169f565b50600080600160008a8152600360205260409020600190810154600160a81b900460ff1690811115611bc657fe5b14156129ab57861561297e5760115460008a81526003602052604090205461010090046001600160a01b039081169116148015611c1d575060008981526003602052604081205460ff166001811115611c1b57fe5b145b8015611c4057506000898152600360205260409020600281015460079091015410155b15611f0e5760125460008881526003602052604090205461010090046001600160a01b039081169116148015611c90575060008781526003602052604081205460ff166001811115611c8e57fe5b145b15611cb857600087815260036020526040902060020154611cb19087613990565b9150611d1d565b6011546000888152600360205260409020600101546001600160a01b039081169116148015611d035750600160008881526003602052604090205460ff166001811115611d0157fe5b145b15611d1d5760008781526003602052604090206002015491505b6000898152600360205260409020600201548210611e4d57600089815260036020526040902060020154611d5190876139e1565b6012546000898152600360205260409020549192506001600160a01b0390811661010090920416148015611da15750600160008881526003602052604090205460ff166001811115611d9f57fe5b145b611dc657600087815260036020526040902060020154611dc19082613a17565b611df0565b6000878152600360205260408082206002908101548c84529190922090910154611df09190613a17565b6000888152600360205260408082206002808201949094558c8352908220928301919091556001908101805460ff60b01b19908116600160b01b17909155910180549091169055600754611e489060001901896137f2565b611f09565b611e5782876139e1565b60008a815260036020526040902060020154909150611e769083613a17565b60008a81526003602081905260408083206002808201959095558b84529083209384018390556001938401805460ff60b01b199081169091558d845293018054909316600160b01b1790925560078054611f099387939092909184908110611eda57fe5b9060005260206000200154815260200190815260200160002060010160149054906101000a900460ff166137f2565b6121e9565b60125460008a8152600360205260409020600101546001600160a01b039081169116148015611f595750600160008a81526003602052604090205460ff166001811115611f5757fe5b145b156121e9576011546000888152600360205260409020600101546001600160a01b039081169116148015611fa95750600160008881526003602052604090205460ff166001811115611fa757fe5b145b15611fd157600087815260036020526040902060020154611fca90876139e1565b9050612035565b60125460008881526003602052604090205461010090046001600160a01b03908116911614801561201c575060008781526003602052604081205460ff16600181111561201a57fe5b145b1561203557506000868152600360205260409020600201545b600089815260036020526040902060020154811061215c576000898152600360205260409020600201546120699087613990565b6011546000898152600360205260409020600101549193506001600160a01b0391821691161480156120b5575060008781526003602052604081205460ff1660018111156120b357fe5b145b6120da576000878152600360205260409020600201546120d59083613a17565b612104565b6000878152600360205260408082206002908101548c845291909220909101546121049190613a17565b6000888152600360205260408082206002808201949094558c8352908220928301919091556001908101805460ff60b01b19908116600160b01b17909155910180549091169055600754611f099060001901896137f2565b6121668187613990565b60008a8152600360205260409020600201549092506121859082613a17565b60008a81526003602081905260408083206002808201959095558b84529083209384018390556001938401805460ff60b01b199081169091558d845293018054909316600160b01b17909255600780546121e99387939092909184908110611eda57fe5b6121f1613af6565b604080516101e081019091528a8152602081016000808d81526003602052604090205460ff16600181111561222257fe5b1461222e576000612231565b60015b1515815260115460008d81526003602090815260409091205492019161010090046001600160a01b0390811691161461228a576040518060400160405280600881526020016763757272656e637960c01b8152506122ac565b60405180604001604052806008815260200167736563757269747960c01b8152505b815260115460008d81526003602090815260409091205492019161010090046001600160a01b039081169116146122e357836122e5565b845b815260008c8152600360208181526040808420600401546001600160a01b0316828601528085018e90528d845291905281205460609092019160ff16600181111561232c57fe5b1461233857600061233b565b60015b1515815260115460008b81526003602090815260409091205492019161010090046001600160a01b03908116911614612394576040518060400160405280600881526020016763757272656e637960c01b8152506123b6565b60405180604001604052806008815260200167736563757269747960c01b8152505b815260115460008b81526003602090815260409091205492019161010090046001600160a01b039081169116146123ed57836123ef565b845b815260008a8152600360208181526040808420600401546001600160a01b0390811683870152601154811682870152601254166060860152608085018d90528f845291905290206001015460a090910190600160a01b900460ff16600281111561245557fe5b81524260209182015260008c81526003808352604080832060048101546001600160a01b03168452600d8552818420920154835290835290819020835181558383015160018201805460ff1916911515919091179055908301518051939450849391926124ca92600285019290910190613b74565b506060820151600382015560808201516004820180546001600160a01b0319166001600160a01b0390921691909117905560a0820151600582015560c082015160068201805460ff191691151591909117905560e08201518051612538916007840191602090910190613b74565b5061010082015160088201556101208201516009820180546001600160a01b039283166001600160a01b031991821617909155610140840151600a84018054918416918316919091179055610160840151600b84018054919093169116179055610180820151600c8201556101a0820151600d8201805460ff191660018360028111156125c157fe5b02179055506101c09190910151600e909101556000888152600360208181526040808420600401546001600160a01b03168452600d82528084208e855283835281852090930154845291815291819020835181558383015160018201805460ff19169115159190911790559083015180518493612645926002850192910190613b74565b506060820151600382015560808201516004820180546001600160a01b0319166001600160a01b0390921691909117905560a0820151600582015560c082015160068201805460ff191691151591909117905560e082015180516126b3916007840191602090910190613b74565b5061010082015160088201556101208201516009820180546001600160a01b039283166001600160a01b031991821617909155610140840151600a84018054918416918316919091179055610160840151600b84018054919093169116179055610180820151600c8201556101a0820151600d8201805460ff1916600183600281111561273c57fe5b02179055506101c09190910151600e9091015560008a815260036020819052604082209081015490549095507fc9dfa8e50aaf621c8250911908f5c8e1524c8ae0e81ff7707e64135a3807a0ad919060ff16600181111561279957fe5b146127a55760006127a8565b60015b60115460008d81526003602052604090205461010090046001600160a01b039081169116146127f7576040518060400160405280600881526020016763757272656e637960c01b815250612819565b60405180604001604052806008815260200167736563757269747960c01b8152505b60008d8152600360205260408120600401546001600160a01b03169060008d81526003602052604090205460ff16600181111561285257fe5b1461285e576000612861565b60015b60115460008e81526003602052604090205461010090046001600160a01b039081169116146128b0576040518060400160405280600881526020016763757272656e637960c01b8152506128d2565b60405180604001604052806008815260200167736563757269747960c01b8152505b60008e815260036020526040908190206004015490516129029695949392916001600160a01b0316908c90614072565b60405180910390a15060008981526003602081815260408084206004808201546001600160a01b039081168752600e8086528488208787529387018054855460018181018855968b52888b2001558f895285892090930154909116875284529185209383529054835491820184559284529220909101556129a6565b600088600281111561298c57fe5b14156129a65761299c8989611218565b6129a6898961145a565b613785565b6000808a8152600360205260409020600190810154600160a81b900460ff16908111156129d457fe5b141561378557841561375d5760125460008a81526003602052604090205461010090046001600160a01b039081169116148015612a2b575060008981526003602052604081205460ff166001811115612a2957fe5b145b8015612a4e57506000898152600360205260409020600281015460069091015410155b15612cea5760115460008681526003602052604090205461010090046001600160a01b039081169116148015612a9e575060008581526003602052604081205460ff166001811115612a9c57fe5b145b15612ac657600085815260036020526040902060020154612abf90856139e1565b9050612b2a565b6012546000868152600360205260409020600101546001600160a01b039081169116148015612b115750600160008681526003602052604090205460ff166001811115612b0f57fe5b145b15612b2a57506000848152600360205260409020600201545b6000898152600360205260409020600201548110612c5857600089815260036020526040902060020154612b5e9085613990565b6012546000878152600360205260409020600101549193506001600160a01b039182169116148015612bac5750600160008681526003602052604090205460ff166001811115612baa57fe5b145b612bd157600085815260036020526040902060020154612bcc9083613a17565b612bfb565b6000858152600360205260408082206002908101548c84529190922090910154612bfb9190613a17565b6000868152600360205260408082206002808201949094558c8352908220928301919091556001908101805460ff60b01b19908116600160b01b17909155910180549091169055600754612c539060001901896137f2565b612ce5565b612c628185613990565b60008a815260036020526040902060020154909250612c819082613a17565b60008a81526003602081905260408083206002808201959095558984529083209384018390556001938401805460ff60b01b199081169091558d845293018054909316600160b01b1790925560078054612ce59387939092909184908110611eda57fe5b612fc8565b60115460008a8152600360205260409020600101546001600160a01b039081169116148015612d355750600160008a81526003602052604090205460ff166001811115612d3357fe5b145b15612fc8576012546000868152600360205260409020600101546001600160a01b039081169116148015612d855750600160008681526003602052604090205460ff166001811115612d8357fe5b145b15612dad57600085815260036020526040902060020154612da69085613990565b9150612e12565b60115460008681526003602052604090205461010090046001600160a01b039081169116148015612df8575060008581526003602052604081205460ff166001811115612df657fe5b145b15612e125760008581526003602052604090206002015491505b6000898152600360205260409020600201548210612f3b57600089815260036020526040902060020154612e4690856139e1565b6011546000878152600360205260409020549192506001600160a01b0390811661010090920416148015612e94575060008581526003602052604081205460ff166001811115612e9257fe5b145b612eb957600085815260036020526040902060020154612eb49082613a17565b612ee3565b6000858152600360205260408082206002908101548c84529190922090910154612ee39190613a17565b6000868152600360205260408082206002808201949094558c8352908220928301919091556001908101805460ff60b01b19908116600160b01b17909155910180549091169055600754612ce59060001901896137f2565b612f4582856139e1565b60008a815260036020526040902060020154909150612f649083613a17565b60008a81526003602081905260408083206002808201959095558984529083209384018390556001938401805460ff60b01b199081169091558d845293018054909316600160b01b1790925560078054612fc89387939092909184908110611eda57fe5b612fd0613af6565b604080516101e081019091528a8152602081016000808d81526003602052604090205460ff16600181111561300157fe5b1461300d576000613010565b60015b1515815260115460008d81526003602090815260409091205492019161010090046001600160a01b03908116911614613069576040518060400160405280600881526020016763757272656e637960c01b81525061308b565b60405180604001604052806008815260200167736563757269747960c01b8152505b815260115460008d81526003602090815260409091205492019161010090046001600160a01b039081169116146130c257836130c4565b845b815260008c8152600360208181526040808420600401546001600160a01b0316828601528085018c90528b845291905281205460609092019160ff16600181111561310b57fe5b1461311757600061311a565b60015b1515815260115460008981526003602090815260409091205492019161010090046001600160a01b03908116911614613173576040518060400160405280600881526020016763757272656e637960c01b815250613195565b60405180604001604052806008815260200167736563757269747960c01b8152505b815260115460008981526003602090815260409091205492019161010090046001600160a01b039081169116146131cc57836131ce565b845b81526000888152600360208181526040808420600401546001600160a01b0390811683870152601154811682870152601254166060860152608085018b90528f845291905290206001015460a090910190600160a01b900460ff16600281111561323457fe5b81524260209182015260008c81526003808352604080832060048101546001600160a01b03168452600d8552818420920154835290835290819020835181558383015160018201805460ff1916911515919091179055908301518051939450849391926132a992600285019290910190613b74565b506060820151600382015560808201516004820180546001600160a01b0319166001600160a01b0390921691909117905560a0820151600582015560c082015160068201805460ff191691151591909117905560e08201518051613317916007840191602090910190613b74565b5061010082015160088201556101208201516009820180546001600160a01b039283166001600160a01b031991821617909155610140840151600a84018054918416918316919091179055610160840151600b84018054919093169116179055610180820151600c8201556101a0820151600d8201805460ff191660018360028111156133a057fe5b02179055506101c09190910151600e909101556000868152600360208181526040808420600401546001600160a01b03168452600d82528084208e855283835281852090930154845291815291819020835181558383015160018201805460ff19169115159190911790559083015180518493613424926002850192910190613b74565b506060820151600382015560808201516004820180546001600160a01b0319166001600160a01b0390921691909117905560a0820151600582015560c082015160068201805460ff191691151591909117905560e08201518051613492916007840191602090910190613b74565b5061010082015160088201556101208201516009820180546001600160a01b039283166001600160a01b031991821617909155610140840151600a84018054918416918316919091179055610160840151600b84018054919093169116179055610180820151600c8201556101a0820151600d8201805460ff1916600183600281111561351b57fe5b02179055506101c09190910151600e9091015560008a815260036020819052604082209081015490549095507fc9dfa8e50aaf621c8250911908f5c8e1524c8ae0e81ff7707e64135a3807a0ad919060ff16600181111561357857fe5b14613584576000613587565b60015b60115460008d81526003602052604090205461010090046001600160a01b039081169116146135d6576040518060400160405280600881526020016763757272656e637960c01b8152506135f8565b60405180604001604052806008815260200167736563757269747960c01b8152505b60008d8152600360205260408120600401546001600160a01b03169060008b81526003602052604090205460ff16600181111561363157fe5b1461363d576000613640565b60015b60115460008c81526003602052604090205461010090046001600160a01b0390811691161461368f576040518060400160405280600881526020016763757272656e637960c01b8152506136b1565b60405180604001604052806008815260200167736563757269747960c01b8152505b60008c815260036020526040908190206004015490516136e19695949392916001600160a01b0316908c90614072565b60405180910390a15060008981526003602081815260408084206004808201546001600160a01b039081168752600e8086528488208787529387018054855460018181018855968b52888b2001558d89528589209093015490911687528452918520938352905483549182018455928452922090910155613785565b600088600281111561376b57fe5b14156137855761377b8989611218565b613785898961145a565b505050505050505050565b8161379e5761379e81613a2d565b5050565b600080546001600160a01b038381166001600160a01b0319831681178455604051919092169283917f8be0079c531659141344cd1fd0a4f28419497f9722a3daafe3b4186f6b6457e09190a35050565b600081600281111561380057fe5b141561388057815b60075481101561387a576007546000190181141561383d576007838154811061382d57fe5b6000918252602082200155613872565b6007836001018154811061384d57fe5b90600052602060002001546007848154811061386557fe5b6000918252602090912001555b600101613808565b5061379e565b600181600281111561388e57fe5b141561390857815b60095481101561387a57600954600019018114156138cb57600983815481106138bb57fe5b6000918252602082200155613900565b600983600101815481106138db57fe5b9060005260206000200154600984815481106138f357fe5b6000918252602090912001555b600101613896565b600281600281111561391657fe5b141561379e57815b600b5481101561036557600b546000190181141561395357600b838154811061394357fe5b6000918252602082200155613988565b600b836001018154811061396357fe5b9060005260206000200154600b848154811061397b57fe5b6000918252602090912001555b60010161391e565b600061399f8215156004613790565b826139ac575060006110e5565b670de0b6b3a7640000838102906139cf908583816139c657fe5b04146005613790565b8281816139d857fe5b049150506110e5565b6000828202613a058415806139fe5750838583816139fb57fe5b04145b6003613790565b670de0b6b3a764000090049392505050565b6000613a27838311156001613790565b50900390565b62461bcd60e51b600090815260206004526007602452600a808304818106603090810160081b83860601918390049283060160101b016642414c230000300160c81b604452611215916210905360ea1b906242414c90606490fd5b60408051610180810190915280600081526000602082018190526040820181905260609091019081526020016000815260200160008152602001600081526020016000815260200160006001600160a01b031681526020016000815260200160008152602001600081525090565b604080516101e08101825260008082526020820181905260609282018390528282018190526080820181905260a0820181905260c0820181905260e082019290925261010081018290526101208101829052610140810182905261016081018290526101808101829052906101a08201908152602001600081525090565b828054600181600116156101000203166002900490600052602060002090601f016020900481019282601f10613bb557805160ff1916838001178555613be2565b82800160010185558215613be2579182015b82811115613be2578251825591602001919060010190613bc7565b50613bee929150613bf2565b5090565b5b80821115613bee5760008155600101613bf3565b80356110e5816142c4565b600082601f830112613c22578081fd5b813567ffffffffffffffff811115613c38578182fd5b6020808202613c4882820161429d565b83815293508184018583018287018401881015613c6457600080fd5b600092505b84831015613c87578035825260019290920191908301908301613c69565b505050505092915050565b600082601f830112613ca2578081fd5b813567ffffffffffffffff811115613cb8578182fd5b613ccb601f8201601f191660200161429d565b9150808252836020828501011115613ce257600080fd5b8060208401602084013760009082016020015292915050565b80356110e5816142d9565b600060408284031215613d17578081fd5b613d21604061429d565b9050813560038110613d3257600080fd5b808252506020820135602082015292915050565b600060208284031215613d57578081fd5b8135613d62816142c4565b9392505050565b60008060408385031215613d7b578081fd5b8235613d86816142c4565b946020939093013593505050565b600060208284031215613da5578081fd5b5035919050565b600060208284031215613dbd578081fd5b5051919050565b60008060408385031215613dd6578182fd5b50508035926020909101359150565b600080600060608486031215613df9578081fd5b83359250602084013591506040840135613e12816142d9565b809150509250925092565b600080600060608486031215613e31578283fd5b505081359360208301359350604090920135919050565b60008060008060008060e08789031215613e60578182fd5b863567ffffffffffffffff80821115613e77578384fd5b818901915061012080838c031215613e8d578485fd5b613e968161429d565b9050613ea28b84613cfb565b8152613eb18b60208501613c07565b6020820152613ec38b60408501613c07565b6040820152606083013560608201526080830135608082015260a083013560a0820152613ef38b60c08501613c07565b60c0820152613f058b60e08501613c07565b60e08201526101008084013583811115613f1d578687fd5b613f298d828701613c92565b82840152505080985050613f408a60208b01613d06565b9650613f4f8a60608b01613cfb565b95506080890135915080821115613f64578384fd5b50613f7189828a01613c12565b93505060a0870135915060c087013590509295509295509295565b6001600160a01b03169052565b15159052565b60038110613fa957fe5b9052565b60008151808452815b81811015613fd257602081850181015186830182015201613fb6565b81811115613fe35782602083870101525b50601f01601f19169290920160200192915050565b60609290921b6bffffffffffffffffffffffff19168252601482015260340190565b6001600160a01b0391909116815260200190565b6020808252825182820181905260009190848201906040850190845b818110156140665783518352928401929184019160010161404a565b50909695505050505050565b6000881515825260e0602083015261408d60e0830189613fad565b6001600160a01b038881166040850152871515606085015283820360808501526140b78288613fad565b951660a0840152505060c0015295945050505050565b90815260200190565b6020808252601b908201527f53656e646572206973206e6f74206f726465722063726561746f720000000000604082015260600190565b60208082526017908201527f4f7264657220697320616c72656164792066696c6c6564000000000000000000604082015260600190565b6020808252601d908201527f556e617574686f72697a65642061636365737320746f20747261646573000000604082015260600190565b60006020825282516020830152602083015161419a6040840182613f99565b5060408301516101e08060608501526141b7610200850183613fad565b91506060850151608085015260808501516141d560a0860182613f8c565b5060a085015160c085015260c08501516141f260e0860182613f99565b5060e0850151610100601f1986850301818701526142108483613fad565b9087015161012087810191909152870151909350905061014061423581870183613f8c565b860151905061016061424986820183613f8c565b860151905061018061425d86820183613f8c565b8601516101a08681019190915286015190506101c061427e81870183613f9f565b959095015193019290925250919050565b918252602082015260400190565b60405181810167ffffffffffffffff811182821017156142bc57600080fd5b604052919050565b6001600160a01b038116811461121557600080fd5b6002811061121557600080fdfea2646970667358221220f6c190d01f41bc585611f42ed97e87918a5fc82ad3088aec9e0d81284f76596264736f6c63430007010033",
  "linkReferences": {},
  "deployedLinkReferences": {}
}