{
  "_format": "hh-sol-artifact-1",
  "contractName": "SecondaryIssuePoolFactory",
  "sourceName": "contracts/SecondaryIssuePoolFactory.sol",
  "abi": [
    {
      "inputs": [
        {
          "internalType": "contract IVault",
          "name": "vault",
          "type": "address"
        },
        {
          "internalType": "contract IProtocolFeePercentagesProvider",
          "name": "protocolFeeProvider",
          "type": "address"
        }
      ],
      "stateMutability": "nonpayable",
      "type": "constructor"
    },
    {
      "anonymous": false,
      "inputs": [],
      "name": "FactoryDisabled",
      "type": "event"
    },
    {
      "anonymous": false,
      "inputs": [
        {
          "indexed": true,
          "internalType": "address",
          "name": "pool",
          "type": "address"
        }
      ],
      "name": "PoolCreated",
      "type": "event"
    },
    {
      "inputs": [
        {
          "internalType": "string",
          "name": "name",
          "type": "string"
        },
        {
          "internalType": "string",
          "name": "symbol",
          "type": "string"
        },
        {
          "internalType": "address",
          "name": "security",
          "type": "address"
        },
        {
          "internalType": "address",
          "name": "currency",
          "type": "address"
        },
        {
          "internalType": "uint256",
          "name": "minOrderSize",
          "type": "uint256"
        },
        {
          "internalType": "uint256",
          "name": "tradeFeePercentage",
          "type": "uint256"
        }
      ],
      "name": "create",
      "outputs": [
        {
          "internalType": "address",
          "name": "",
          "type": "address"
        }
      ],
      "stateMutability": "nonpayable",
      "type": "function"
    },
    {
      "inputs": [],
      "name": "disable",
      "outputs": [],
      "stateMutability": "nonpayable",
      "type": "function"
    },
    {
      "inputs": [
        {
          "internalType": "bytes4",
          "name": "selector",
          "type": "bytes4"
        }
      ],
      "name": "getActionId",
      "outputs": [
        {
          "internalType": "bytes32",
          "name": "",
          "type": "bytes32"
        }
      ],
      "stateMutability": "view",
      "type": "function"
    },
    {
      "inputs": [],
      "name": "getAuthorizer",
      "outputs": [
        {
          "internalType": "contract IAuthorizer",
          "name": "",
          "type": "address"
        }
      ],
      "stateMutability": "view",
      "type": "function"
    },
    {
      "inputs": [],
      "name": "getCreationCode",
      "outputs": [
        {
          "internalType": "bytes",
          "name": "",
          "type": "bytes"
        }
      ],
      "stateMutability": "view",
      "type": "function"
    },
    {
      "inputs": [],
      "name": "getCreationCodeContracts",
      "outputs": [
        {
          "internalType": "address",
          "name": "contractA",
          "type": "address"
        },
        {
          "internalType": "address",
          "name": "contractB",
          "type": "address"
        }
      ],
      "stateMutability": "view",
      "type": "function"
    },
    {
      "inputs": [],
      "name": "getPauseConfiguration",
      "outputs": [
        {
          "internalType": "uint256",
          "name": "pauseWindowDuration",
          "type": "uint256"
        },
        {
          "internalType": "uint256",
          "name": "bufferPeriodDuration",
          "type": "uint256"
        }
      ],
      "stateMutability": "view",
      "type": "function"
    },
    {
      "inputs": [],
      "name": "getProtocolFeePercentagesProvider",
      "outputs": [
        {
          "internalType": "contract IProtocolFeePercentagesProvider",
          "name": "",
          "type": "address"
        }
      ],
      "stateMutability": "view",
      "type": "function"
    },
    {
      "inputs": [],
      "name": "getVault",
      "outputs": [
        {
          "internalType": "contract IVault",
          "name": "",
          "type": "address"
        }
      ],
      "stateMutability": "view",
      "type": "function"
    },
    {
      "inputs": [],
      "name": "isDisabled",
      "outputs": [
        {
          "internalType": "bool",
          "name": "",
          "type": "bool"
        }
      ],
      "stateMutability": "view",
      "type": "function"
    },
    {
      "inputs": [
        {
          "internalType": "address",
          "name": "pool",
          "type": "address"
        }
      ],
      "name": "isPoolFromFactory",
      "outputs": [
        {
          "internalType": "bool",
          "name": "",
          "type": "bool"
        }
      ],
      "stateMutability": "view",
      "type": "function"
    }
  ],
  "bytecode": "0x6101806040523480156200001257600080fd5b506040516200a1583803806200a1588339810160408190526200003591620001fc565b8181604051806020016200004990620001ee565b601f1982820381018352601f90910116604052805183903090839060006002820460a081905280830360e08190528185529091508362000095816200010f602090811b6200043717901c565b60601b6001600160601b0319166080528285018051838252620000c4826200010f602090811b6200043717901c565b6001600160601b0319606091821b811660c05296909352905261010095909552505092821b831661012052509290921b90911661014052505050426276a70001610160525062000250565b80517f602038038060206000396000f3fefefefefefefefefefefefefefefefefefefe808352600091602081018484f090845291506200015d6001600160a01b03831615156101ac62000163565b50919050565b816200017457620001748162000178565b5050565b6200018a816210905360ea1b6200018d565b50565b62461bcd60e51b600090815260206004526007602452600a808404818106603090810160081b958390069590950190829004918206850160101b01602363ffffff0060e086901c160160181b0190930160c81b60445260e882901c90606490fd5b6193ce8062000d8a83390190565b600080604083850312156200020f578182fd5b82516200021c816200023a565b60208401519092506200022f816200023a565b809150509250929050565b6001600160a01b03811681146200018a57600080fd5b60805160601c60a05160c05160601c60e051610100516101205160601c6101405160601c61016051610ac1620002c9600039806101ec52806102155250806102c052508061039b52508061034b5250806104915250806101c3528061050d5250806104b25250806101a252806104e95250610ac16000f3fe608060405234801561001057600080fd5b50600436106100a85760003560e01c80636c57f5a9116100715780636c57f5a914610121578063739238d61461012957806374dcc7a41461013e578063851c1bb3146101515780638d928af814610171578063aaabadc514610179576100a8565b8062c194db146100ad578063174481fa146100cb5780632da47c40146100e15780632f2770db146100f75780636634b75314610101575b600080fd5b6100b5610181565b6040516100c2919061098e565b60405180910390f35b6100d36101a0565b6040516100c2929190610941565b6100e96101e6565b6040516100c2929190610a68565b6100ff610250565b005b61011461010f3660046107c7565b610297565b6040516100c2919061095b565b6101146102b5565b6101316102be565b6040516100c2919061092d565b61013161014c366004610847565b6102e2565b61016461015f366004610803565b610347565b6040516100c29190610966565b610131610399565b6101316103bd565b606061019b60405180602001604052806000815250610489565b905090565b7f00000000000000000000000000000000000000000000000000000000000000007f00000000000000000000000000000000000000000000000000000000000000009091565b600080427f000000000000000000000000000000000000000000000000000000000000000081101561024257807f000000000000000000000000000000000000000000000000000000000000000003925062278d00915061024b565b60009250600091505b509091565b610258610562565b610260610593565b6001805460ff1916811790556040517f432acbfd662dbb5d8b378384a67159b47ca9d0f1b79f97cf64cf8585fa362d5090600090a1565b6001600160a01b031660009081526020819052604090205460ff1690565b60015460ff1690565b7f000000000000000000000000000000000000000000000000000000000000000090565b60008060006102ef6101e6565b915091506103386102fe610399565b8c8c8c8c8c8c8c8c8b8b336040516020016103249c9b9a999897969594939291906109e1565b6040516020818303038152906040526105a8565b9b9a5050505050505050505050565b60007f00000000000000000000000000000000000000000000000000000000000000008260405160200161037c929190610915565b604051602081830303815290604052805190602001209050919050565b7f000000000000000000000000000000000000000000000000000000000000000090565b60006103c7610399565b6001600160a01b031663aaabadc56040518163ffffffff1660e01b815260040160206040518083038186803b1580156103ff57600080fd5b505afa158015610413573d6000803e3d6000fd5b505050506040513d601f19601f8201168201806040525081019061019b919061082b565b80517f602038038060206000396000f3fefefefefefefefefefefefefefefefefefefe808352600091602081018484f090845291506104836001600160a01b03831615156101ac610611565b50919050565b8051604080517f00000000000000000000000000000000000000000000000000000000000000007f0000000000000000000000000000000000000000000000000000000000000000818101858101848101602090810190965280855293957f00000000000000000000000000000000000000000000000000000000000000009592947f000000000000000000000000000000000000000000000000000000000000000094938801866000828a3c846000888301883c5060208981019089850101610554818386610623565b505050505050505050919050565b60006105796000356001600160e01b031916610347565b90506105906105888233610661565b610191610611565b50565b6105a661059e6102b5565b1560d3610611565b565b60006105b2610593565b60006105bd836106f1565b6001600160a01b038116600081815260208190526040808220805460ff191660011790555192935090917f83a48fbcfc991335314e74d0496aab6a1987e992ddc85dddbcc4d6dd6ef2e9fc9190a292915050565b8161061f5761061f81610725565b5050565b5b60208110610643578151835260209283019290910190601f1901610624565b905182516020929092036101000a6000190180199091169116179052565b600061066b6103bd565b6001600160a01b0316639be2a8848484306040518463ffffffff1660e01b815260040161069a9392919061096f565b60206040518083038186803b1580156106b257600080fd5b505afa1580156106c6573d6000803e3d6000fd5b505050506040513d601f19601f820116820180604052508101906106ea91906107e3565b9392505050565b600060606106fe83610489565b905060008151602083016000f090506001600160a01b0381166106ea573d6000803e3d6000fd5b62461bcd60e51b600090815260206004526007602452600a808304818106603090810160081b83860601918390049283060160101b016642414c230000300160c81b604452610590916210905360ea1b906242414c90606490fd5b60008083601f840112610791578182fd5b50813567ffffffffffffffff8111156107a8578182fd5b6020830191508360208285010111156107c057600080fd5b9250929050565b6000602082840312156107d8578081fd5b81356106ea81610a76565b6000602082840312156107f4578081fd5b815180151581146106ea578182fd5b600060208284031215610814578081fd5b81356001600160e01b0319811681146106ea578182fd5b60006020828403121561083c578081fd5b81516106ea81610a76565b60008060008060008060008060c0898b031215610862578384fd5b883567ffffffffffffffff80821115610879578586fd5b6108858c838d01610780565b909a50985060208b013591508082111561089d578586fd5b506108aa8b828c01610780565b90975095505060408901356108be81610a76565b935060608901356108ce81610a76565b979a969950949793969295929450505060808201359160a0013590565b60008284528282602086013780602084860101526020601f19601f85011685010190509392505050565b9182526001600160e01b031916602082015260240190565b6001600160a01b0391909116815260200190565b6001600160a01b0392831681529116602082015260400190565b901515815260200190565b90815260200190565b9283526001600160a01b03918216602084015216604082015260600190565b6000602080835283518082850152825b818110156109ba5785810183015185820160400152820161099e565b818111156109cb5783604083870101525b50601f01601f1916929092016040019392505050565b6001600160a01b038d16815261014060208201819052600090610a079083018d8f6108eb565b8281036040840152610a1a818c8e6108eb565b6001600160a01b039a8b166060850152988a166080840152505060a081019590955260c085019390935260e08401919091526101008301529092166101209092019190915295945050505050565b918252602082015260400190565b6001600160a01b038116811461059057600080fdfea264697066735822122028820c5688a4f6a9fccdd5f8e4a148eb6f42b8904c1c42c9f544c760c790799b64736f6c634300070100336102e06040523480156200001257600080fd5b50604051620093ce380380620093ce833981016040819052620000359162000b8b565b8960008a8a620000478b8b30620004d4565b6040805160038082526080820190925290602082016060803683370190505089898989828289898d85336001600160a01b031660001b8480604051806040016040528060018152602001603160f81b81525087878160039080519060200190620000b3929190620009f5565b508051620000c9906004906020840190620009f5565b50506005805460ff19166012179055508151602092830120608052805191012060a052507f8b73c3c69bb8fe3d512ecc4cf759cc79239f7b179b0ffacaa9a75d522b39400f60c05260e0526001600160601b0319606091821b81166101005291901b1661012052506200014790506276a700831115610194620005a3565b6200015b62278d00821115610195620005a3565b42909101610140819052016101605285516200017d906002111560c8620005a3565b620001976200018b620005b8565b8751111560c9620005a3565b620001ad86620005bd60201b620027f51760201c565b620001b884620005c9565b6040516309b2760f60e01b81526000906001600160a01b038c16906309b2760f90620001e9908d9060040162000d54565b602060405180830381600087803b1580156200020457600080fd5b505af115801562000219573d6000803e3d6000fd5b505050506040513d601f19601f820116820180604052508101906200023f919062000b53565b604051633354e3e960e11b81529091506001600160a01b038c16906366a9c7d290620002749084908b908b9060040162000cb8565b600060405180830381600087803b1580156200028f57600080fd5b505af1158015620002a4573d6000803e3d6000fd5b505050508061018081815250508a6001600160a01b031663d2946c2b6040518163ffffffff1660e01b815260040160206040518083038186803b158015620002eb57600080fd5b505afa15801562000300573d6000803e3d6000fd5b505050506040513d601f19601f8201168201806040525081019062000326919062000b6c565b6001600160a01b03166101a0816001600160a01b031660601b815250505050505050505050505050866001600160a01b03166101c0816001600160a01b031660601b81525050856001600160a01b03166101e0816001600160a01b031660601b8152505089600b60006101000a8154816001600160a01b0302191690836001600160a01b031602179055506000806000620003c98a8a306200065d60201b60201c565b6102608190526102808390526102a082905291945092509050620003ed8a62000753565b61020052620003fc8962000753565b61022052600a8890556102408790526001600160601b0319606085901b166102c05260405184908b908b903090620004349062000a7a565b62000443949392919062000c8d565b604051809103906000f08015801562000460573d6000803e3d6000fd5b50600980546001600160a01b0319166001600160a01b0392831617908190556040518c8316927f3ca60c442fe0a0eec00a4242bd76d6b93ec28f607f78e5b820a53f8538854bbb92620004b9928d928f92169062000d72565b60405180910390a25050505050505050505050505062000db3565b606060008080620004e78787876200065d565b60408051600380825260808201909252939650919450925060208201606080368337019050509350868484815181106200051d57fe5b60200260200101906001600160a01b031690816001600160a01b031681525050858483815181106200054b57fe5b60200260200101906001600160a01b031690816001600160a01b031681525050848482815181106200057957fe5b60200260200101906001600160a01b031690816001600160a01b0316815250505050509392505050565b81620005b457620005b48162000827565b5050565b600390565b80620005b4816200083c565b620005e2620005d7620008c8565b82101560cb620005a3565b620005fb620005f0620008d1565b82111560ca620005a3565b6200061d8160c0603f600854620008dd60201b620027ff17909392919060201c565b6008556040517fa9ba3ffe0b6c366b81232caab38605a0699ad5398d6cce76f91ee809e322dafc906200065290839062000d69565b60405180910390a150565b6000806000846001600160a01b0316866001600160a01b03161015620006e657836001600160a01b0316856001600160a01b03161015620006a95750600091506001905060026200074a565b836001600160a01b0316866001600160a01b03161015620006d55750600091506002905060016200074a565b50600191506002905060006200074a565b846001600160a01b0316846001600160a01b03161015620007125750600291506001905060006200074a565b856001600160a01b0316846001600160a01b031610156200073e5750600291506000905060016200074a565b50600191506000905060025b93509350939050565b60006001600160a01b038216301415620007775750670de0b6b3a764000062000822565b6000826001600160a01b031663313ce5676040518163ffffffff1660e01b815260040160206040518083038186803b158015620007b357600080fd5b505afa158015620007c8573d6000803e3d6000fd5b505050506040513d601f19601f82011682018060405250810190620007ee919062000c6a565b60ff16905060006200080d6012836200090260201b620028271760201c565b905080600a0a670de0b6b3a764000002925050505b919050565b62000839816210905360ea1b6200091f565b50565b6002815110156200084d5762000839565b6000816000815181106200085d57fe5b602002602001015190506000600190505b8251811015620008c35760008382815181106200088757fe5b60200260200101519050620008b8816001600160a01b0316846001600160a01b0316106065620005a360201b60201c565b91506001016200086e565b505050565b64e8d4a5100090565b67016345785d8a000090565b6000620008ec84848462000980565b506001901b60001901811b1992909216911b1790565b600062000914838311156001620005a3565b508082035b92915050565b62461bcd60e51b600090815260206004526007602452600a808404818106603090810160081b958390069590950190829004918206850160101b01602363ffffff0060e086901c160160181b0190930160c81b60445260e882901c90606490fd5b6200099161010083106064620005a3565b620009ca60018210158015620009c25750620009be60ff8461010003620009db60201b6200283d1760201c565b8211155b6064620005a3565b620008c383821c156101b4620005a3565b6000818310620009ec5781620009ee565b825b9392505050565b828054600181600116156101000203166002900490600052602060002090601f016020900481019282601f1062000a3857805160ff191683800117855562000a68565b8280016001018555821562000a68579182015b8281111562000a6857825182559160200191906001019062000a4b565b5062000a7692915062000a88565b5090565b6137a08062005c2e83390190565b5b8082111562000a76576000815560010162000a89565b8051620009198162000d9d565b600082601f83011262000abd578081fd5b81516001600160401b038082111562000ad4578283fd5b6040516020601f8401601f191682018101838111838210171562000af6578586fd5b8060405250819450838252868185880101111562000b1357600080fd5b600092505b8383101562000b37578583018101518284018201529182019162000b18565b8383111562000b495760008185840101525b5050505092915050565b60006020828403121562000b65578081fd5b5051919050565b60006020828403121562000b7e578081fd5b8151620009ee8162000d9d565b6000806000806000806000806000806101408b8d03121562000bab578586fd5b62000bb78c8c62000a9f565b60208c0151909a506001600160401b038082111562000bd4578788fd5b62000be28e838f0162000aac565b9a5060408d015191508082111562000bf8578788fd5b5062000c078d828e0162000aac565b98505062000c198c60608d0162000a9f565b965062000c2a8c60808d0162000a9f565b955060a08b0151945060c08b0151935060e08b015192506101008b0151915062000c598c6101208d0162000a9f565b90509295989b9194979a5092959850565b60006020828403121562000c7c578081fd5b815160ff81168114620009ee578182fd5b6001600160a01b03948516815292841660208401529083166040830152909116606082015260800190565b60006060820185835260206060818501528186518084526080860191508288019350845b8181101562000d045762000cf1855162000d91565b8352938301939183019160010162000cdc565b505084810360408601528551808252908201925081860190845b8181101562000d465762000d33835162000d91565b8552938301939183019160010162000d1e565b509298975050505050505050565b602081016003831062000d6357fe5b91905290565b90815260200190565b9283526001600160a01b03918216602084015216604082015260600190565b6001600160a01b031690565b6001600160a01b03811681146200083957600080fd5b60805160a05160c05160e0516101005160601c6101205160601c6101405161016051610180516101a05160601c6101c05160601c6101e05160601c61020051610220516102405161026051610280516102a0516102c05160601c614c7662000fb860003980610d6152806133145250806107a35280611ec1528061293c528061338f52806133e95250806108555280611b545280611bc75280611f7352806128d652508061299152806137c652505080610d1e528061296452806133c2525080610cea52806128fe5250806105a0528061061f52806107475280610b185280610b6f5280610bcf5280610c9a5280611068528061116c528061123052806112d9528061142a5280611570528061167e528061171052806117b85280611b7b5280611bee5280611ccc5280611d4b5280611e655280612039528061218852806122be5250806105df528061065f52806107f9528061097b5280610a5f5280610ab65280610c0e5280610c5b5280610dcd528061112d52806111f1528061131852806113eb52806115af528061162a52806116d1528061177952806119795280611ba15280611c145280611d0b5280611d8b5280611f17528061207852806121495250806125d05250806119cc525080612b67525080612b435250806124b852508061249452508061241e52508061346c5250806134ae52508061348d5250614c766000f3fe608060405234801561001057600080fd5b506004361061025e5760003560e01c806370a0823111610146578063a457c2d7116100c3578063d2946c2b11610087578063d2946c2b146104b7578063d505accf146104bf578063d5c096c4146104d2578063dd62ed3e146104e5578063ed24911d146104f8578063fd19cac8146105005761025e565b8063a457c2d714610479578063a9059cbb1461048c578063aaabadc51461049f578063b35056b8146104a7578063b7b814fc146104af5761025e565b806387ec68171161010a57806387ec68171461043b578063893d20e81461044e5780638d928af81461045657806390193b7c1461045e57806395d89b41146104715761025e565b806370a08231146103d957806374f3b009146103ec5780637ecebe001461040d5780638456cb5914610420578063851c1bb3146104285761025e565b806338e9922e116101df57806350dd6ed9116101a357806350dd6ed91461037a57806354a844ba1461038d57806355c67628146103955780636028bfd41461039d578063688d6b79146103be5780636945c1fd146103d15761025e565b806338e9922e1461033a57806338fff2d01461034f57806339509351146103575780633f4ba83a1461036a5780634d6d0fd0146103725761025e565b80631dd746ea116102265780631dd746ea146102e057806323b872dd146102f55780632541897f14610308578063313ce5671461031d5780633644e515146103325761025e565b806301ec954a1461026357806306fdde031461028c578063095ea7b3146102a157806318160ddd146102c15780631c0de051146102c9575b600080fd5b61027661027136600461434d565b610508565b604051610283919061481d565b60405180910390f35b610294611818565b60405161028391906148f3565b6102b46102af366004613f59565b6118ae565b60405161028391906147fa565b6102766118c5565b6102d16118cb565b60405161028393929190614805565b6102e86118f4565b60405161028391906147b9565b6102b4610303366004613ea9565b611903565b610310611977565b6040516102839190614708565b61032561199b565b6040516102839190614b6d565b6102766119a4565b61034d61034836600461459a565b6119ae565b005b6102766119ca565b6102b4610365366004613f59565b6119ee565b61034d611a29565b610276611a3d565b61034d610388366004614182565b611a43565b61034d611a61565b610276611a73565b6103b06103ab36600461406f565b611a86565b604051610283929190614b54565b6102766103cc36600461425f565b611abd565b6103106122bc565b6102766103e7366004613e55565b6122e0565b6103ff6103fa36600461406f565b6122fb565b6040516102839291906147cc565b61027661041b366004613e55565b6123fd565b61034d612408565b61027661043636600461413e565b61241a565b6103b061044936600461406f565b61246c565b610310612492565b6103106124b6565b61027661046c366004613e55565b6124da565b6102946124f5565b6102b4610487366004613f59565b612556565b6102b461049a366004613f59565b612594565b6103106125a1565b6102b46125ab565b61034d6125bc565b6103106125ce565b61034d6104cd366004613ee9565b6125f2565b6103ff6104e036600461406f565b61267d565b6102766104f3366004613e71565b61279f565b6102766127dc565b6103106127e6565b6000846080015161053561051a6124b6565b6001600160a01b0316336001600160a01b03161460cd612855565b61054a6105406119ca565b82146101f4612855565b610552612863565b60008651600181111561056157fe5b1480610579575060018651600181111561057757fe5b145b61059e5760405162461bcd60e51b8152600401610595906149d4565b60405180910390fd5b7f00000000000000000000000000000000000000000000000000000000000000006001600160a01b031686604001516001600160a01b0316148061061757507f00000000000000000000000000000000000000000000000000000000000000006001600160a01b031686604001516001600160a01b0316145b8061065757507f00000000000000000000000000000000000000000000000000000000000000006001600160a01b031686602001516001600160a01b0316145b8061069757507f00000000000000000000000000000000000000000000000000000000000000006001600160a01b031686602001516001600160a01b0316145b6106b35760405162461bcd60e51b815260040161059590614906565b60606106bd612876565b90506106c986826129e8565b6106d1613c4e565b606060008080808c5160018111156106e557fe5b14156107165761070c8c60600151878c815181106106ff57fe5b6020026020010151612a57565b60608d0152610745565b60018c51600181111561072557fe5b14156107455761073f8c60600151878b815181106106ff57fe5b60608d01525b7f00000000000000000000000000000000000000000000000000000000000000006001600160a01b03168c602001516001600160a01b0316148015610796575060008c51600181111561079457fe5b145b156107f7578b606001518b7f0000000000000000000000000000000000000000000000000000000000000000815181106107cc57fe5b602002602001015110156107f25760405162461bcd60e51b81526004016105959061496d565b6108a4565b7f00000000000000000000000000000000000000000000000000000000000000006001600160a01b03168c602001516001600160a01b0316148015610848575060008c51600181111561084657fe5b145b156108a4578b606001518b7f00000000000000000000000000000000000000000000000000000000000000008151811061087e57fe5b602002602001015110156108a45760405162461bcd60e51b8152600401610595906149fa565b6101008c01515115611285578b61010001518060200190518101906108c991906142d1565b81519195509350611280576108dc613c65565b60095460c08e015160405163ca142f7560e01b81526001600160a01b039092169163ca142f75916109119188906004016147a0565b60e06040518083038186803b15801561092957600080fd5b505afa15801561093d573d6000803e3d6000fd5b505050506040513d601f19601f82011682018060405250810190610961919061452a565b60095460c08f015160208301519293506001600160a01b037f000000000000000000000000000000000000000000000000000000000000000081169392811692635778472a929082169116146109bb5783604001516109be565b83515b6040518263ffffffff1660e01b81526004016109da919061481d565b6101406040518083038186803b1580156109f357600080fd5b505afa158015610a07573d6000803e3d6000fd5b505050506040513d601f19601f82011682018060405250810190610a2b919061446b565b602001516001600160a01b031614610a4e576763757272656e637960c01b610a5b565b67736563757269747960c01b5b92507f00000000000000000000000000000000000000000000000000000000000000006001600160a01b03168d602001516001600160a01b0316148015610aae575060008d516001811115610aac57fe5b145b80610b0557507f00000000000000000000000000000000000000000000000000000000000000006001600160a01b03168d604001516001600160a01b0316148015610b05575060018d516001811115610b0357fe5b145b15610b16578060c001519150610bcb565b7f00000000000000000000000000000000000000000000000000000000000000006001600160a01b03168d602001516001600160a01b0316148015610b67575060008d516001811115610b6557fe5b145b80610bbe57507f00000000000000000000000000000000000000000000000000000000000000006001600160a01b03168d604001516001600160a01b0316148015610bbe575060018d516001811115610bbc57fe5b145b15610bcb578060a0015191505b60007f00000000000000000000000000000000000000000000000000000000000000006001600160a01b03168e604001516001600160a01b03161480610c4657507f00000000000000000000000000000000000000000000000000000000000000006001600160a01b03168e602001516001600160a01b0316145b15610c5957506314d95b1b60e21b610ce0565b7f00000000000000000000000000000000000000000000000000000000000000006001600160a01b03168e604001516001600160a01b03161480610cd257507f00000000000000000000000000000000000000000000000000000000000000006001600160a01b03168e602001516001600160a01b0316145b15610ce057506242757960e81b5b610d0e8260a001517f0000000000000000000000000000000000000000000000000000000000000000612a63565b60a083015260c0820151610d42907f0000000000000000000000000000000000000000000000000000000000000000612a63565b60c08301526009546040516304aec4f960e01b81526001600160a01b037f00000000000000000000000000000000000000000000000000000000000000008116926304aec4f992610d999287921690600401614af5565b600060405180830381600087803b158015610db357600080fd5b505af1158015610dc7573d6000803e3d6000fd5b505050507f00000000000000000000000000000000000000000000000000000000000000006001600160a01b03167f08fb458ca19c621bab303b5f2f406bd918bedc1610f85d2f58c66ec89e89f46b67736563757269747960c01b8614610eb5576009546040808601519051632bbc239560e11b81526001600160a01b0390921691635778472a91610e5b9160040161481d565b6101406040518083038186803b158015610e7457600080fd5b505afa158015610e88573d6000803e3d6000fd5b505050506040513d601f19601f82011682018060405250810190610eac919061446b565b60e00151610f3b565b6009548451604051632bbc239560e11b81526001600160a01b0390921691635778472a91610ee59160040161481d565b6101406040518083038186803b158015610efe57600080fd5b505afa158015610f12573d6000803e3d6000fd5b505050506040513d601f19601f82011682018060405250810190610f36919061446b565b60e001515b6763757272656e637960c01b8714610fda576009546040808701519051632bbc239560e11b81526001600160a01b0390921691635778472a91610f809160040161481d565b6101406040518083038186803b158015610f9957600080fd5b505afa158015610fad573d6000803e3d6000fd5b505050506040513d601f19601f82011682018060405250810190610fd1919061446b565b60e00151611060565b6009548551604051632bbc239560e11b81526001600160a01b0390921691635778472a9161100a9160040161481d565b6101406040518083038186803b15801561102357600080fd5b505afa158015611037573d6000803e3d6000fd5b505050506040513d601f19601f8201168201806040525081019061105b919061446b565b60e001515b8486606001517f00000000000000000000000000000000000000000000000000000000000000008989608001516040516110a0979695949392919061471c565b60405180910390a260095460c08f01516040516335ca73db60e21b81526001600160a01b039092169163d729cf6c916110dd9189906004016147a0565b600060405180830381600087803b1580156110f757600080fd5b505af115801561110b573d6000803e3d6000fd5b5060009250611118915050565b8e51600181111561112557fe5b14156111da577f00000000000000000000000000000000000000000000000000000000000000006001600160a01b03168e602001516001600160a01b031614806111a457507f00000000000000000000000000000000000000000000000000000000000000006001600160a01b03168e602001516001600160a01b0316145b156111d5576111c683898d815181106111b957fe5b6020026020010151612a63565b9950505050505050505061180f565b61127d565b60018e5160018111156111e957fe5b141561127d577f00000000000000000000000000000000000000000000000000000000000000006001600160a01b03168e604001516001600160a01b0316148061126857507f00000000000000000000000000000000000000000000000000000000000000006001600160a01b03168e604001516001600160a01b0316145b1561127d576111c683898e815181106111b957fe5b50505b61129c565b604080518082019091526000808252602082015294505b6000855160028111156112ab57fe5b141561180857600a548c6060015110156112d75760405162461bcd60e51b815260040161059590614936565b7f00000000000000000000000000000000000000000000000000000000000000006001600160a01b03168c604001516001600160a01b0316148061135057507f00000000000000000000000000000000000000000000000000000000000000006001600160a01b03168c602001516001600160a01b0316145b156113e9576009546040516332ff3abf60e11b81526001600160a01b03909116906365fe757e9061138a908f908990600190600401614a31565b606060405180830381600087803b1580156113a457600080fd5b505af11580156113b8573d6000803e3d6000fd5b505050506040513d601f19601f820116820180604052508101906113dc9190614111565b90945090925090506114f7565b7f00000000000000000000000000000000000000000000000000000000000000006001600160a01b03168c604001516001600160a01b0316148061146257507f00000000000000000000000000000000000000000000000000000000000000006001600160a01b03168c602001516001600160a01b0316145b156114f7576009546040516332ff3abf60e11b81526001600160a01b03909116906365fe757e9061149c908f908990600090600401614a31565b606060405180830381600087803b1580156114b657600080fd5b505af11580156114ca573d6000803e3d6000fd5b505050506040513d601f19601f820116820180604052508101906114ee9190614111565b90945090925090505b806115145760405162461bcd60e51b8152600401610595906149a4565b7f9b85ff671b830162b81f1cb1253d54a6fee66e6f9760fc15cfc3fecccca8f1188c60c001518d602001518e604001518f6060015189602001518888604051611563979695949392919061475f565b60405180910390a16000807f00000000000000000000000000000000000000000000000000000000000000006001600160a01b03168e604001516001600160a01b031614806115e757507f00000000000000000000000000000000000000000000000000000000000000006001600160a01b03168e602001516001600160a01b0316145b1561160d5760608e01516314d95b1b60e21b9250611606908490612a6b565b9050611628565b60608e01516242757960e81b92506116259084612a6b565b90505b7f00000000000000000000000000000000000000000000000000000000000000006001600160a01b03167f08fb458ca19c621bab303b5f2f406bd918bedc1610f85d2f58c66ec89e89f46b8f60c00151600085857f0000000000000000000000000000000000000000000000000000000000000000898c6040516116b2979695949392919061471c565b60405180910390a260008e5160018111156116c957fe5b1415611762577f00000000000000000000000000000000000000000000000000000000000000006001600160a01b03168e602001516001600160a01b0316148061174857507f00000000000000000000000000000000000000000000000000000000000000006001600160a01b03168e602001516001600160a01b0316145b1561175d576111c683898d815181106111b957fe5b611805565b60018e51600181111561177157fe5b1415611805577f00000000000000000000000000000000000000000000000000000000000000006001600160a01b03168e604001516001600160a01b031614806117f057507f00000000000000000000000000000000000000000000000000000000000000006001600160a01b03168e604001516001600160a01b0316145b15611805576111c683898e815181106111b957fe5b50505b5050505050505b50949350505050565b60038054604080516020601f60026000196101006001881615020190951694909404938401819004810282018101909252828152606093909290918301828280156118a45780601f10611879576101008083540402835291602001916118a4565b820191906000526020600020905b81548152906001019060200180831161188757829003601f168201915b5050505050905090565b60006118bb338484612abc565b5060015b92915050565b60025490565b60008060006118d8612b24565b1592506118e3612b41565b91506118ed612b65565b9050909192565b60606118fe612876565b905090565b600080611910853361279f565b9050611934336001600160a01b038716148061192c5750838210155b61019e612855565b61193f858585612b89565b336001600160a01b0386161480159061195a57506000198114155b1561196c5761196c8533858403612abc565b506001949350505050565b7f000000000000000000000000000000000000000000000000000000000000000090565b60055460ff1690565b60006118fe6127dc565b6119b6612c69565b6119be612863565b6119c781612c97565b50565b7f000000000000000000000000000000000000000000000000000000000000000090565b3360008181526001602090815260408083206001600160a01b038716845290915281205490916118bb918590611a249086612d10565b612abc565b611a31612c69565b611a3b6000612d22565b565b600a5490565b611a4b612c69565b611a53612863565b611a5d8282612d95565b5050565b611a69612c69565b611a3b6001612e8a565b6008546000906118fe9060c0603f612ee1565b60006060611a9c8651611a97612ef0565b612ef5565b611ab189898989898989612f02612f54612fbd565b97509795505050505050565b6000611ac7612863565b600b54604051631f29a8cd60e31b81526060916001600160a01b03169063f94d466890611af8908a9060040161481d565b60006040518083038186803b158015611b1057600080fd5b505afa158015611b24573d6000803e3d6000fd5b505050506040513d6000823e601f3d908101601f19168201604052611b4c9190810190613f84565b5091505060007f00000000000000000000000000000000000000000000000000000000000000008514611b9f577f0000000000000000000000000000000000000000000000000000000000000000611bc1565b7f00000000000000000000000000000000000000000000000000000000000000005b905060007f00000000000000000000000000000000000000000000000000000000000000008514611c12577f0000000000000000000000000000000000000000000000000000000000000000611c34565b7f00000000000000000000000000000000000000000000000000000000000000005b9050611c3e613ca1565b808b6001811115611c4b57fe5b90816001811115611c5857fe5b9052506001600160a01b038084166020830152821660408201526060810189905261010081018890523360c0820152600081516001811115611c9657fe5b1480611cae5750600181516001811115611cac57fe5b145b611cca5760405162461bcd60e51b8152600401610595906149d4565b7f00000000000000000000000000000000000000000000000000000000000000006001600160a01b031681604001516001600160a01b03161480611d4357507f00000000000000000000000000000000000000000000000000000000000000006001600160a01b031681604001516001600160a01b0316145b80611d8357507f00000000000000000000000000000000000000000000000000000000000000006001600160a01b031681602001516001600160a01b0316145b80611dc357507f00000000000000000000000000000000000000000000000000000000000000006001600160a01b031681602001516001600160a01b0316145b611ddf5760405162461bcd60e51b815260040161059590614906565b6060611de9612876565b9050611df585826129e8565b611dfd613c4e565b60606000808086516001811115611e1057fe5b1415611e3457611e2a8660600151868e815181106106ff57fe5b6060870152611e63565b600186516001811115611e4357fe5b1415611e6357611e5d8660600151868d815181106106ff57fe5b60608701525b7f00000000000000000000000000000000000000000000000000000000000000006001600160a01b031686602001516001600160a01b0316148015611eb45750600086516001811115611eb257fe5b145b15611f15578560600151897f000000000000000000000000000000000000000000000000000000000000000081518110611eea57fe5b60200260200101511015611f105760405162461bcd60e51b81526004016105959061496d565b611fc2565b7f00000000000000000000000000000000000000000000000000000000000000006001600160a01b031686602001516001600160a01b0316148015611f665750600086516001811115611f6457fe5b145b15611fc2578560600151897f000000000000000000000000000000000000000000000000000000000000000081518110611f9c57fe5b60200260200101511015611fc25760405162461bcd60e51b8152600401610595906149fa565b610100860151511561201157856101000151806020019051810190611fe791906142d1565b81519194509250156120115781156120115760408051808201909152806001815260200183905293505b600a54866060015110156120375760405162461bcd60e51b815260040161059590614936565b7f00000000000000000000000000000000000000000000000000000000000000006001600160a01b031686604001516001600160a01b031614806120b057507f00000000000000000000000000000000000000000000000000000000000000006001600160a01b031686602001516001600160a01b0316145b15612147576009546040516332ff3abf60e11b81526001600160a01b03909116906365fe757e906120ea9089908890600190600401614a31565b606060405180830381600087803b15801561210457600080fd5b505af1158015612118573d6000803e3d6000fd5b505050506040513d601f19601f8201168201806040525081019061213c9190614111565b509091506122529050565b7f00000000000000000000000000000000000000000000000000000000000000006001600160a01b031686604001516001600160a01b031614806121c057507f00000000000000000000000000000000000000000000000000000000000000006001600160a01b031686602001516001600160a01b0316145b15612252576009546040516332ff3abf60e11b81526001600160a01b03909116906365fe757e906121fa9089908890600090600401614a31565b606060405180830381600087803b15801561221457600080fd5b505af1158015612228573d6000803e3d6000fd5b505050506040513d601f19601f8201168201806040525081019061224c9190614111565b50909150505b7f9b85ff671b830162b81f1cb1253d54a6fee66e6f9760fc15cfc3fecccca8f1188660c00151876020015188604001518960600151886020015142876040516122a1979695949392919061475f565b60405180910390a15050505050505050509695505050505050565b7f000000000000000000000000000000000000000000000000000000000000000090565b6001600160a01b031660009081526020819052604090205490565b6060808861230a61051a6124b6565b6123156105406119ca565b60606000612322866130e7565b1561234a5761232f613116565b6123418961233b6118c5565b88613129565b9250905061239c565b612352613155565b606061235c612876565b90506123688a826129e8565b61238c8d8d8d8d8d6123786125ab565b612382578d612385565b60005b878e612f02565b9350915061239a8382612f54565b505b6123a68b8261315d565b8189516001600160401b03811180156123be57600080fd5b506040519080825280602002602001820160405280156123e8578160200160208202803683370190505b509450945050505b5097509795505050505050565b60006118bf826124da565b612410612c69565b611a3b6001612d22565b60007f00000000000000000000000000000000000000000000000000000000000000008260405160200161244f9291906146c5565b604051602081830303815290604052805190602001209050919050565b6000606061247d8651611a97612ef0565b611ab189898989898989613167613183612fbd565b7f000000000000000000000000000000000000000000000000000000000000000090565b7f000000000000000000000000000000000000000000000000000000000000000090565b6001600160a01b031660009081526006602052604090205490565b60048054604080516020601f60026000196101006001881615020190951694909404938401819004810282018101909252828152606093909290918301828280156118a45780601f10611879576101008083540402835291602001916118a4565b600080612563338561279f565b905080831061257d5761257833856000612abc565b61258a565b61258a3385858403612abc565b5060019392505050565b60006118bb338484612b89565b60006118fe6131ec565b6008546000906118fe9060ff613266565b6125c4612c69565b611a3b6000612e8a565b7f000000000000000000000000000000000000000000000000000000000000000090565b60007f6e71edae12b1b97f4d1f60370fef10105fa2faae0126114a169c64845d6126c98888886126218c6124da565b8960405160200161263796959493929190614845565b604051602081830303815290604052805190602001209050612668888261265f878787613270565b886101f86132af565b612673888888612abc565b5050505050505050565b6060808861268c61051a6124b6565b6126976105406119ca565b61269f613155565b60606126a9612876565b90506126b36118c5565b61275f57600060606126c88d8d8d868b613306565b915091506126e16126d761342c565b83101560cc612855565b6126f360006126ee61342c565b613433565b6127068b6126ff61342c565b8403613433565b6127108184613183565b808a516001600160401b038111801561272857600080fd5b50604051908082528060200260200182016040528015612752578160200160208202803683370190505b50955095505050506123f0565b61276988826129e8565b600060606127918d8d8d8d8d61277d6125ab565b612787578d61278a565b60005b898e613167565b915091506127068b83613433565b60006127a96124b6565b6001600160a01b0316826001600160a01b031614156127cb57506000196118bf565b6127d5838361343d565b90506118bf565b60006118fe613468565b6009546001600160a01b031681565b80611a5d81613505565b600061280c848484613583565b5082821b6000196001831b01831b198516175b949350505050565b6000612837838311156001612855565b50900390565b600081831061284c578161284e565b825b9392505050565b81611a5d57611a5d816135ca565b611a3b61286e612b24565b610192612855565b60606000612882612ef0565b90506060816001600160401b038111801561289c57600080fd5b506040519080825280602002602001820160405280156128c6578160200160208202803683370190505b50905060005b828110156129e1577f000000000000000000000000000000000000000000000000000000000000000081141561293a577f000000000000000000000000000000000000000000000000000000000000000082828151811061292957fe5b6020026020010181815250506129d9565b7f000000000000000000000000000000000000000000000000000000000000000081141561298f577f000000000000000000000000000000000000000000000000000000000000000082828151811061292957fe5b7f00000000000000000000000000000000000000000000000000000000000000008114156129d957670de0b6b3a76400008282815181106129cc57fe5b6020026020010181815250505b6001016128cc565b5091505090565b815181516129f7908290612ef5565b60005b81811015612a5157612a32848281518110612a1157fe5b6020026020010151848381518110612a2557fe5b60200260200101516135da565b848281518110612a3e57fe5b60209081029190910101526001016129fa565b50505050565b600061284e83836135da565b600061284e83835b6000612a7a8215156004612855565b82612a87575060006118bf565b670de0b6b3a764000083810290612aaa90858381612aa157fe5b04146005612855565b828181612ab357fe5b049150506118bf565b6001600160a01b0380841660008181526001602090815260408083209487168084529490915290819020849055517f8c5be1e5ebec7d5bd14f71427d1e84f3dd0314c0f7b2291e5b200ac8c7c3b92590612b1790859061481d565b60405180910390a3505050565b6000612b2e612b65565b4211806118fe57505060075460ff161590565b7f000000000000000000000000000000000000000000000000000000000000000090565b7f000000000000000000000000000000000000000000000000000000000000000090565b612ba06001600160a01b0384161515610198612855565b612bb76001600160a01b0383161515610199612855565b612bc283838361357e565b6001600160a01b038316600090815260208190526040902054612be890826101a0613610565b6001600160a01b038085166000908152602081905260408082209390935590841681522054612c179082612d10565b6001600160a01b0380841660008181526020819052604090819020939093559151908516907fddf252ad1be2c89b69c2b068fc378daa952ba7f163c4a11628f55a4df523b3ef90612b1790859061481d565b6000612c806000356001600160e01b03191661241a565b90506119c7612c8f8233613626565b610191612855565b612cac612ca261370f565b82101560cb612855565b612cc1612cb7613718565b82111560ca612855565b600854612cd2908260c0603f6127ff565b6008556040517fa9ba3ffe0b6c366b81232caab38605a0699ad5398d6cce76f91ee809e322dafc90612d0590839061481d565b60405180910390a150565b600082820161284e8482101583612855565b8015612d4257612d3d612d33612b41565b4210610193612855565b612d57565b612d57612d4d612b65565b42106101a9612855565b6007805460ff19168215151790556040517f9e3a5e37224532dea67b89face185703738a228a6e8a23dee546960180d3be6490612d059083906147fa565b6000612d9f6119ca565b90506000612dab6124b6565b6001600160a01b031663b05f8e4883866040518363ffffffff1660e01b8152600401612dd89291906148be565b60806040518083038186803b158015612df057600080fd5b505afa158015612e04573d6000803e3d6000fd5b505050506040513d601f19601f82011682018060405250810190612e2891906145b2565b604051630639cdb560e21b81529094506001600160a01b03851693506318e736d49250612e5c9150859087906004016148a5565b600060405180830381600087803b158015612e7657600080fd5b505af1158015612673573d6000803e3d6000fd5b600854612e99908260ff613724565b6008556040517feff3d4d215b42bf0960be9c6d5e05c22cba4df6627a3a523e2acee733b5854c890612ecc9083906147fa565b60405180910390a1806119c7576119c7611a3b565b6001901b6000190191901c1690565b600390565b611a5d8183146067612855565b600060606000612f118461374b565b90506001816001811115612f2157fe5b14612f3657612f316101636135ca565b612f46565b612f408885613761565b90935091505b509850989650505050505050565b81518151612f63908290612ef5565b60005b81811015612a5157612f9e848281518110612f7d57fe5b6020026020010151848381518110612f9157fe5b6020026020010151612a6b565b848281518110612faa57fe5b6020908102919091010152600101612f66565b33301461307b576000306001600160a01b0316600036604051612fe19291906146dd565b6000604051808303816000865af19150503d806000811461301e576040519150601f19603f3d011682016040523d82523d6000602084013e613023565b606091505b50509050806000811461303257fe5b60046000803e6000516001600160e01b0319166343adbafb60e01b811461305d573d6000803e3d6000fd5b506020600460003e604060205260243d03602460403e601c3d016000f35b613083613155565b606061308d612876565b905061309987826129e8565b600060606130b18c8c8c8c8c8c898d8d63ffffffff16565b915091506130c381848663ffffffff16565b8051601f1982018390526343adbafb603f1983015260200260231982016044820181fd5b60008082511180156118bf575060ff80168280602001905181019061310c91906145f2565b60ff161492915050565b611a3b6131216125ab565b6101b6612855565b6000606060006131388461382c565b90506060613147878784613842565b919791965090945050505050565b611a3b612863565b611a5d82826138f0565b600060606131766101636135ca565b9850989650505050505050565b81518151613192908290612ef5565b60005b81811015612a51576131cd8482815181106131ac57fe5b60200260200101518483815181106131c057fe5b60200260200101516139bc565b8482815181106131d957fe5b6020908102919091010152600101613195565b60006131f66124b6565b6001600160a01b031663aaabadc56040518163ffffffff1660e01b815260040160206040518083038186803b15801561322e57600080fd5b505afa158015613242573d6000803e3d6000fd5b505050506040513d601f19601f820116820180604052508101906118fe9190614166565b1c60019081161490565b60408051604180825260808201909252606091829190602082018180368337019050509050836020820152826040820152846060820153949350505050565b60006132ba85613a0a565b90506132d06132ca878387613a26565b83612855565b6132df428410156101b8612855565b5050506001600160a01b039092166000908152600660205260409020805460010190555050565b60006060613312612863565b7f000000000000000000000000000000000000000000000000000000000000000061334d6001600160a01b0388811690831614610156612855565b61336d816001600160a01b0316876001600160a01b031614610156612855565b6dffffffffffffffffffffffffffff606061338786613ad5565b90506133e6817f0000000000000000000000000000000000000000000000000000000000000000815181106133b857fe5b60200260200101517f0000000000000000000000000000000000000000000000000000000000000000612a57565b817f00000000000000000000000000000000000000000000000000000000000000008151811061341257fe5b602090810291909101015290999098509650505050505050565b620f424090565b611a5d8282613aeb565b6001600160a01b03918216600090815260016020908152604080832093909416825291909152205490565b60007f00000000000000000000000000000000000000000000000000000000000000007f00000000000000000000000000000000000000000000000000000000000000007f00000000000000000000000000000000000000000000000000000000000000006134d5613b7e565b306040516020016134ea959493929190614879565b60405160208183030381529060405280519060200120905090565b600281511015613514576119c7565b60008160008151811061352357fe5b602002602001015190506000600190505b825181101561357e57600083828151811061354b57fe5b60200260200101519050613574816001600160a01b0316846001600160a01b0316106065612855565b9150600101613534565b505050565b61359261010083106064612855565b6135bb600182101580156135b457506135b060ff846101000361283d565b8211155b6064612855565b61357e83821c156101b4612855565b6119c7816210905360ea1b613b82565b60008282026135fe8415806135f75750838583816135f457fe5b04145b6003612855565b670de0b6b3a764000090049392505050565b600061361f8484111583612855565b5050900390565b600073ba1ba1ba1ba1ba1ba1ba1ba1ba1ba1ba1ba1ba1b613645612492565b6001600160a01b031614158015613660575061366083613be3565b156136885761366d612492565b6001600160a01b0316336001600160a01b03161490506118bf565b6136906131ec565b6001600160a01b0316639be2a8848484306040518463ffffffff1660e01b81526004016136bf93929190614826565b60206040518083038186803b1580156136d757600080fd5b505afa1580156136eb573d6000803e3d6000fd5b505050506040513d601f19601f820116820180604052508101906127d5919061404f565b64e8d4a5100090565b67016345785d8a000090565b60006001821b198416828461373a57600061373d565b60015b60ff16901b17949350505050565b6000818060200190518101906118bf91906141cf565b60006060600061377084613c1f565b9050606085516001600160401b038111801561378b57600080fd5b506040519080825280602002602001820160405280156137b5578160200160208202803683370190505b50905060005b8651811015613820577f00000000000000000000000000000000000000000000000000000000000000008114613818578681815181106137f757fe5b602002602001015182828151811061380b57fe5b6020026020010181815250505b6001016137bb565b50909590945092505050565b60008180602001905181019061284e919061460e565b606060006138508385612a6b565b905084516001600160401b038111801561386957600080fd5b50604051908082528060200260200182016040528015613893578160200160208202803683370190505b50915060005b85518110156138e7576138c8828783815181106138b257fe5b60200260200101516135da90919063ffffffff16565b8382815181106138d457fe5b6020908102919091010152600101613899565b50509392505050565b6139076001600160a01b038316151561019b612855565b6139138260008361357e565b6001600160a01b03821660009081526020819052604090205461393990826101b2613610565b6001600160a01b03831660009081526020819052604090205561396c613967826139616118c5565b90613c35565b613c43565b60006001600160a01b0316826001600160a01b03167fddf252ad1be2c89b69c2b068fc378daa952ba7f163c4a11628f55a4df523b3ef836040516139b0919061481d565b60405180910390a35050565b60006139cb8215156004612855565b826139d8575060006118bf565b670de0b6b3a7640000838102906139f290858381612aa157fe5b8260018203816139fe57fe5b046001019150506118bf565b6000613a14613468565b8260405160200161244f9291906146ed565b6000613a3882516041146101b9612855565b60208281015160408085015160608601518251600080825295019283905292939092811a91600190613a719089908590889088906148d5565b6020604051602081039080840390855afa158015613a93573d6000803e3d6000fd5b5050604051601f1901519150506001600160a01b03811615801590613ac95750876001600160a01b0316816001600160a01b0316145b98975050505050505050565b60608180602001905181019061284e9190614218565b613af76000838361357e565b613b0c61396782613b066118c5565b90612d10565b6001600160a01b038216600090815260208190526040902054613b2f9082612d10565b6001600160a01b0383166000818152602081905260408082209390935591519091907fddf252ad1be2c89b69c2b068fc378daa952ba7f163c4a11628f55a4df523b3ef906139b090859061481d565b4690565b62461bcd60e51b600090815260206004526007602452600a808404818106603090810160081b958390069590950190829004918206850160101b01602363ffffff0060e086901c160160181b0190930160c81b60445260e882901c90606490fd5b6000613bf5631c74c91760e11b61241a565b821480613c105750613c0d6350dd6ed960e01b61241a565b82145b806118bf57506118bf82613c48565b60008180602001905181019061284e91906141eb565b600061284e83836001613610565b600255565b50600090565b604080518082019091526000808252602082015290565b6040805160e081018252600080825260208201819052918101829052606081018290526080810182905260a0810182905260c081019190915290565b60408051610120810190915280600081526000602082018190526040820181905260608083018290526080830182905260a0830182905260c0830182905260e08301919091526101009091015290565b80356118bf81614c0f565b80516118bf81614c0f565b600082601f830112613d17578081fd5b8135613d2a613d2582614ba1565b614b7b565b818152915060208083019084810181840286018201871015613d4b57600080fd5b60005b84811015613d6a57813584529282019290820190600101613d4e565b505050505092915050565b600082601f830112613d85578081fd5b8151613d93613d2582614ba1565b818152915060208083019084810181840286018201871015613db457600080fd5b60005b84811015613d6a57815184529282019290820190600101613db7565b600082601f830112613de3578081fd5b8135613df1613d2582614bc0565b9150808252836020828501011115613e0857600080fd5b8060208401602084013760009082016020015292915050565b80516118bf81614c24565b8051600581106118bf57600080fd5b8051600381106118bf57600080fd5b80356118bf81614c24565b600060208284031215613e66578081fd5b813561284e81614c0f565b60008060408385031215613e83578081fd5b8235613e8e81614c0f565b91506020830135613e9e81614c0f565b809150509250929050565b600080600060608486031215613ebd578081fd5b8335613ec881614c0f565b92506020840135613ed881614c0f565b929592945050506040919091013590565b600080600080600080600060e0888a031215613f03578485fd5b8735613f0e81614c0f565b96506020880135613f1e81614c0f565b955060408801359450606088013593506080880135613f3c81614c31565b9699959850939692959460a0840135945060c09093013592915050565b60008060408385031215613f6b578182fd5b8235613f7681614c0f565b946020939093013593505050565b600080600060608486031215613f98578081fd5b83516001600160401b0380821115613fae578283fd5b818601915086601f830112613fc1578283fd5b8151613fcf613d2582614ba1565b80828252602080830192508086018b828387028901011115613fef578788fd5b8796505b8487101561401a57805161400681614c0f565b845260019690960195928101928101613ff3565b508901519097509350505080821115614031578283fd5b5061403e86828701613d75565b925050604084015190509250925092565b600060208284031215614060578081fd5b8151801515811461284e578182fd5b600080600080600080600060e0888a031215614089578081fd5b87359650602088013561409b81614c0f565b955060408801356140ab81614c0f565b945060608801356001600160401b03808211156140c6578283fd5b6140d28b838c01613d07565b955060808a0135945060a08a0135935060c08a01359150808211156140f5578283fd5b506141028a828b01613dd3565b91505092959891949750929550565b600080600060608486031215614125578081fd5b8351925060208401519150604084015190509250925092565b60006020828403121561414f578081fd5b81356001600160e01b03198116811461284e578182fd5b600060208284031215614177578081fd5b815161284e81614c0f565b60008060408385031215614194578182fd5b823561419f81614c0f565b915060208301356001600160401b038111156141b9578182fd5b6141c585828601613dd3565b9150509250929050565b6000602082840312156141e0578081fd5b815161284e81614c24565b600080604083850312156141fd578182fd5b825161420881614c24565b6020939093015192949293505050565b6000806040838503121561422a578182fd5b825160048110614238578283fd5b60208401519092506001600160401b03811115614253578182fd5b6141c585828601613d75565b60008060008060008060c08789031215614277578384fd5b863561428281614c24565b9550602087013594506040870135935060608701356001600160401b038111156142aa578283fd5b6142b689828a01613dd3565b9350506080870135915060a087013590509295509295509295565b600080604083850312156142e3578182fd5b82516001600160401b038111156142f8578283fd5b8301601f81018513614308578283fd5b8051614316613d2582614bc0565b81815286602083850101111561432a578485fd5b61433b826020830160208601614be3565b60209590950151949694955050505050565b60008060008060808587031215614362578182fd5b84356001600160401b0380821115614378578384fd5b818701915061012080838a03121561438e578485fd5b61439781614b7b565b90506143a38984613e4a565b81526143b28960208501613cf1565b60208201526143c48960408501613cf1565b6040820152606083013560608201526080830135608082015260a083013560a08201526143f48960c08501613cf1565b60c08201526144068960e08501613cf1565b60e0820152610100808401358381111561441e578687fd5b61442a8b828701613dd3565b828401525050809650506020870135915080821115614447578384fd5b5061445487828801613d07565b949794965050505060408301359260600135919050565b600061014080838503121561447e578182fd5b61448781614b7b565b90506144938484613e21565b81526144a28460208501613cfc565b60208201526144b48460408501613cfc565b60408201526144c68460608501613e3b565b60608201526144d88460808501613e21565b60808201526144ea8460a08501613e2c565b60a082015260c083015160c08201526145068460e08501613cfc565b60e08201526101008381015190820152610120928301519281019290925250919050565b600060e0828403121561453b578081fd5b61454560e0614b7b565b82518152602083015161455781614c0f565b8060208301525060408301516040820152606083015160608201526080830151608082015260a083015160a082015260c083015160c08201528091505092915050565b6000602082840312156145ab578081fd5b5035919050565b600080600080608085870312156145c7578182fd5b84519350602085015192506040850151915060608501516145e781614c0f565b939692955090935050565b600060208284031215614603578081fd5b815161284e81614c31565b60008060408385031215614620578182fd5b825161420881614c31565b6001600160a01b03169052565b6000815180845260208085019450808401835b838110156146675781518752958201959082019060010161464b565b509495945050505050565b6000815180845261468a816020860160208601614be3565b601f01601f19169290920160200192915050565b600281106146a857fe5b9052565b8051600381106146b857fe5b8252602090810151910152565b9182526001600160e01b031916602082015260240190565b6000828483379101908152919050565b61190160f01b81526002810192909252602282015260420190565b6001600160a01b0391909116815260200190565b6001600160a01b039788168152958716602087015260408601949094526060850192909252909316608083015260a082019290925260c081019190915260e00190565b6001600160a01b03978816815295871660208701529390951660408501526060840191909152608083015260a082019290925260c081019190915260e00190565b6001600160a01b03929092168252602082015260400190565b60006020825261284e6020830184614638565b6000604082526147df6040830185614638565b82810360208401526147f18185614638565b95945050505050565b901515815260200190565b92151583526020830191909152604082015260600190565b90815260200190565b9283526001600160a01b03918216602084015216604082015260600190565b9586526001600160a01b0394851660208701529290931660408501526060840152608083019190915260a082015260c00190565b9485526020850193909352604084019190915260608301526001600160a01b0316608082015260a00190565b60008382526040602083015261281f6040830184614672565b9182526001600160a01b0316602082015260400190565b93845260ff9290921660208401526040830152606082015260800190565b60006020825261284e6020830184614672565b602080825260169082015275496e76616c6964207377617070656420746f6b656e7360501b604082015260600190565b60208082526018908201527f4f726465722062656c6f77206d696e696d756d2073697a650000000000000000604082015260600190565b6020808252601d908201527f496e73756666696369656e742063757272656e63792062616c616e6365000000604082015260600190565b602080825260169082015275496e73756666696369656e74206c697175696469747960501b604082015260600190565b6020808252600c908201526b0496e76616c696420737761760a41b604082015260600190565b6020808252601d908201527f496e73756666696369656e742073656375726974792062616c616e6365000000604082015260600190565b600060808252614a4560808301865161469e565b6020850151614a5760a084018261462b565b506040850151614a6a60c084018261462b565b50606085015160e08301526080850151610100818185015260a08701519150610120828186015260c08801519250614aa661014086018461462b565b60e08801519250614abb61016086018461462b565b818801519250806101808601525050614ad86101a0840182614672565b915050614ae860208301856146ac565b61281f606083018461469e565b825181526020808401516001600160a01b039081169183019190915260408085015190830152606080850151908301526080808501519083015260a0808501519083015260c09384015193820193909352911660e08201526101000190565b60008382526040602083015261281f6040830184614638565b60ff91909116815260200190565b6040518181016001600160401b0381118282101715614b9957600080fd5b604052919050565b60006001600160401b03821115614bb6578081fd5b5060209081020190565b60006001600160401b03821115614bd5578081fd5b50601f01601f191660200190565b60005b83811015614bfe578181015183820152602001614be6565b83811115612a515750506000910152565b6001600160a01b03811681146119c757600080fd5b600281106119c757600080fd5b60ff811681146119c757600080fdfea26469706673582212209ab2c81404da52009c3b8e724f0e3899fa51cc09d371bbe9e52b32342d6aa27064736f6c63430007010033608060405260006001553480156200001657600080fd5b50604051620037a0380380620037a0833981016040819052620000399162000106565b620000443362000098565b600980546001600160a01b039586166001600160a01b03199182161790915560078054948616948216949094179093556008805492851692841692909217909155600a805491909316911617905562000166565b600080546001600160a01b038381166001600160a01b0319831681178455604051919092169283917f8be0079c531659141344cd1fd0a4f28419497f9722a3daafe3b4186f6b6457e09190a35050565b80516001600160a01b03811681146200010057600080fd5b92915050565b600080600080608085870312156200011c578384fd5b620001288686620000e8565b9350620001398660208701620000e8565b92506200014a8660408701620000e8565b91506200015b8660608701620000e8565b905092959194509250565b61362a80620001766000396000f3fe608060405234801561001057600080fd5b50600436106101005760003560e01c80637489ec2311610097578063ca142f7511610066578063ca142f75146101f5578063d729cf6c14610215578063e43372e914610228578063f2fde38b1461023057610100565b80637489ec23146101b457806381b5da1d146101c75780638da5cb5b146101da578063af18cfd8146101e257610100565b80635778472a116100d35780635778472a1461016257806365fe757e146101825780636945c1fd146101a4578063715018a6146101ac57610100565b80630c8605be146101055780632541897f1461011a57806338fff2d01461013857806346b8b7301461014d575b600080fd5b610118610113366004613141565b610243565b005b610122610365565b60405161012f91906132b4565b60405180910390f35b610140610374565b60405161012f919061330c565b610155610403565b60405161012f91906132c8565b6101756101703660046130a8565b6104eb565b60405161012f91906134ac565b610195610190366004613155565b61067c565b60405161012f93929190613315565b6101226109c1565b6101186109d0565b6101186101c23660046130a8565b6109e8565b6101186101d53660046130d8565b610b3f565b610122610ca7565b6101186101f0366004613103565b610cb6565b61020861020336600461307d565b611049565b60405161012f9190613559565b61011861022336600461307d565b611115565b6101556111b4565b61011861023e366004613061565b611215565b6000838152600260208190526040822060010154600160a01b900460ff169081111561026b57fe5b14156102925760405162461bcd60e51b815260040161028990613362565b60405180910390fd5b6002600084815260026020526040902060010154600160b01b900460ff1660048111156102bb57fe5b146102d85760405162461bcd60e51b8152600401610289906133fd565b6000838152600260205260409020600301546001600160a01b031633146103115760405162461bcd60e51b8152600401610289906133c6565b6000838152600260208190526040909120600481018490558082018390556001908101549091600160a01b90910460ff169081111561034c57fe5b14156103605761035d836001611244565b50505b505050565b6007546001600160a01b031690565b600080600a60009054906101000a90046001600160a01b03166001600160a01b03166338fff2d06040518163ffffffff1660e01b815260040160206040518083038186803b1580156103c557600080fd5b505afa1580156103d9573d6000803e3d6000fd5b505050506040513d601f19601f820116820180604052508101906103fd91906130c0565b91505090565b600354606090819067ffffffffffffffff8111801561042157600080fd5b5060405190808252806020026020018201604052801561044b578160200160208202803683370190505b5090506000805b6003548110156104e357336001600160a01b0316600260006003848154811061047757fe5b600091825260208083209091015483528201929092526040019020600301546001600160a01b031614156104db57600381815481106104b257fe5b90600052602060002001548383815181106104c957fe5b60209081029190910101526001909101905b600101610452565b509091505090565b6104f3612eaf565b6104fb610ca7565b6001600160a01b0316336001600160a01b0316148061052457506009546001600160a01b031633145b8061054857506000828152600260205260409020600301546001600160a01b031633145b6105645760405162461bcd60e51b81526004016102899061332b565b60008281526002602052604090819020815161014081019092528054829060ff16600181111561059057fe5b600181111561059b57fe5b8152815461010090046001600160a01b03908116602083015260018301549081166040830152606090910190600160a01b900460ff1660028111156105dc57fe5b60028111156105e757fe5b81526020016001820160159054906101000a900460ff16600181111561060957fe5b600181111561061457fe5b81526020016001820160169054906101000a900460ff16600481111561063657fe5b600481111561064157fe5b81526002820154602082015260038201546001600160a01b031660408201526004820154606082015260059091015460809091015292915050565b6000808061069e3361068c610ca7565b6001600160a01b0316146101aa611694565b6000855160028111156106ad57fe5b14806106c557506001855160028111156106c357fe5b145b6106ce57600080fd5b60008460018111156106dc57fe5b14806106f3575060018460018111156106f157fe5b145b6106fc57600080fd5b600154421415610713576001805481019055610718565b426001555b60008660c00151600154604051602001610733929190613292565b604051602081830303815290604052805190602001209050610753612eaf565b6040518061014001604052808960000151600181111561076f57fe5b815260200189602001516001600160a01b0316815260200189604001516001600160a01b03168152602001886000015160028111156107aa57fe5b81526020018760018111156107bb57fe5b8152600260208083018290526060808d015160408086019190915260c08e01516001600160a01b0316918501919091528b820151608085015260a0909301869052600086815291905220815181549293508392829060ff19166001838181111561082157fe5b021790555060208201518154610100600160a81b0319166101006001600160a01b039283160217825560408301516001830180546001600160a01b03191691909216178082556060840151919060ff60a01b1916600160a01b83600281111561088657fe5b021790555060808201518160010160156101000a81548160ff021916908360018111156108af57fe5b021790555060a082015160018201805460ff60b01b1916600160b01b8360048111156108d757fe5b021790555060c0820151600282015560e08201516003820180546001600160a01b0319166001600160a01b0390921691909117905561010082015160048201556101209091015160059091015560008751600281111561093357fe5b1415610951576109448160006116a6565b94509450945050506109b8565b60018751600281111561096057fe5b14156109b557600380546000848152600460205260408120829055600180830184559290527fc2575a0e9e593c00f959f8c92f12db2869c3395a3b0502d05e2516446f71f85b018390556109449082906116a6565b50505b93509350939050565b6008546001600160a01b031690565b6109dc3361068c610ca7565b6109e66000612711565b565b6000818152600260208190526040822060010154600160a01b900460ff1690811115610a1057fe5b1415610a2e5760405162461bcd60e51b81526004016102899061346b565b6002600082815260026020526040902060010154600160b01b900460ff166004811115610a5757fe5b14610a745760405162461bcd60e51b8152600401610289906133fd565b6000818152600260205260409020600301546001600160a01b03163314610aad5760405162461bcd60e51b8152600401610289906133c6565b60035415610adf57600081815260046020526040902054600380549091908110610ad357fe5b60009182526020822001555b6000908152600460208181526040808420849055600291829052832080546001600160a81b03191681556001810180546001600160b81b03191690559081018390556003810180546001600160a01b031916905590810182905560050155565b6009546001600160a01b0316331480610b705750610b5b610ca7565b6001600160a01b0316336001600160a01b0316145b610b8c5760405162461bcd60e51b815260040161028990613399565b600092835260026020818152604080862080546001600160a81b03199081168255600180830180546001600160b81b03199081169091558387018a9055600380850180546001600160a01b0319908116825560048088018e905560059788018e90559b8d52878d208054909616865585850180549094169093558489018c9055848201805484168155858c018d90559486018c9055546001600160a01b039081168c52858852868c208a8d528852868c208c8155808501805485169055808a018d90558083018d9055808c018d90558087018d905560069081018d90559454168b52848752858b20988b5297909552928820888155928301805490941690935592810186905592830185905592820184905581018390550155565b6000546001600160a01b031690565b6009546001600160a01b0316331480610ce75750610cd2610ca7565b6001600160a01b0316336001600160a01b0316145b610d035760405162461bcd60e51b815260040161028990613399565b6000826001811115610d1157fe5b1480610d2857506001826001811115610d2657fe5b145b610d3157600080fd5b60008481526002602081905260409091208082018054860190556001908101805460ff60b01b1916600160b11b17908190559091600160a01b90910460ff1690811115610d7a57fe5b1415610dc557600380546000868152600460205260408120829055600182018355919091527fc2575a0e9e593c00f959f8c92f12db2869c3395a3b0502d05e2516446f71f85b018490555b60018101610dd1612f06565b5060008581526002602081815260408084206003908101546001600160a01b03908116865260058085528387208988528552838720845160e08101865281548082526001830154909416968101969096529586015493850193909352908401546060840152600484015460808401529083015460a083015260069092015460c082015291908714610e63578151610e65565b865b9050600087836040015114610e7e578260400151610e80565b875b9050610e8a612f06565b6040518060e001604052808481526020016002600086815260200190815260200160002060030160009054906101000a90046001600160a01b03166001600160a01b03168152602001838152602001856060015181526020018681526020018560a0015181526020018560c0015181525090508060056000600260008d815260200190815260200160002060030160009054906101000a90046001600160a01b03166001600160a01b03166001600160a01b0316815260200190815260200160002060008781526020019081526020016000206000820151816000015560208201518160010160006101000a8154816001600160a01b0302191690836001600160a01b0316021790555060408201518160020155606082015181600301556080820151816004015560a0820151816005015560c0820151816006015590505060066000600260008c815260200190815260200160002060030160009054906101000a90046001600160a01b03166001600160a01b03166001600160a01b03168152602001908152602001600020859080600181540180825580915050600190039060005260206000200160009091909190915055505050505050505050565b611051612f06565b611059610ca7565b6001600160a01b0316336001600160a01b031614806110805750336001600160a01b038416145b61109c5760405162461bcd60e51b815260040161028990613434565b506001600160a01b038083166000908152600560208181526040808420868552825292839020835160e08101855281548152600182015490951691850191909152600281015492840192909252600382015460608401526004820154608084015281015460a08301526006015460c08201525b92915050565b6111213361068c610ca7565b60005b6001600160a01b038316600090815260066020526040902054811015610360576001600160a01b038316600090815260066020526040902080548391908390811061116b57fe5b906000526020600020015414156111ac576001600160a01b03831660009081526006602052604090208054829081106111a057fe5b60009182526020822001555b600101611124565b3360009081526006602090815260409182902080548351818402810184019094528084526060939283018282801561120b57602002820191906000526020600020905b8154815260200190600101908083116111f7575b5050505050905090565b6112213361068c610ca7565b6112386001600160a01b03821615156101ab611694565b61124181612711565b50565b600060606000606060038054905067ffffffffffffffff8111801561126857600080fd5b50604051908082528060200260200182016040528015611292578160200160208202803683370190505b5090506000805b60035481101561168757600381815481106112b057fe5b6000918252602090912001546112c55761167f565b600060026000600384815481106112d857fe5b9060005260206000200154815260200190815260200160002060010160159054906101000a900460ff16600181111561130d57fe5b148015611341575060016000898152600260205260409020600190810154600160a81b900460ff169081111561133f57fe5b145b80156113a957506002600089815260200190815260200160002060040154600260006003848154811061137057fe5b90600052602060002001548152602001908152602001600020600401541015806113a95750600088815260026020526040902060040154155b806114925750600160026000600384815481106113c257fe5b9060005260206000200154815260200190815260200160002060010160159054906101000a900460ff1660018111156113f757fe5b14801561142a5750600080898152600260205260409020600190810154600160a81b900460ff169081111561142857fe5b145b801561149257506002600089815260200190815260200160002060040154600260006003848154811061145957fe5b90600052602060002001548152602001908152602001600020600401541115806114925750600088815260026020526040902060040154155b1561167f57600381815481106114a457fe5b90600052602060002001548383815181106114bb57fe5b60209081029190910181019190915260075460008a8152600290925260409091205461010090046001600160a01b039081169116148015611516575060008881526002602052604081205460ff16600181111561151457fe5b145b8061156757506008546000898152600260205260409020600101546001600160a01b0390811691161480156115675750600160008981526002602052604090205460ff16600181111561156557fe5b145b156115aa576115a384600260006003858154811061158157fe5b9060005260206000200154815260200190815260200160002060020154612761565b9350611623565b6116208461161b60026000600386815481106115c257fe5b906000526020600020015481526020019081526020016000206002015460026000600387815481106115f057fe5b906000526020600020015481526020019081526020016000206004015461277a90919063ffffffff16565b612761565b93505b600087600281111561163157fe5b141580156116565750876003828154811061164857fe5b906000526020600020015414155b15611678578783836001018151811061166b57fe5b6020026020010181815250505b6001909101905b600101611299565b5091969095509350505050565b816116a2576116a2816127b0565b5050565b60008060008060008080600090506000806000606060038054905067ffffffffffffffff811180156116d757600080fd5b50604051908082528060200260200182016040528015611701578160200160208202803683370190505b5090506117138d61012001518d611244565b909250905060008c600281111561172657fe5b1415611759578c60c00151821015611754578c61012001514260009a509a509a50505050505050505061270a565b61178e565b60018c600281111561176757fe5b141561178e578161178e578c61012001514260009a509a509a50505050505050505061270a565b600091505b80518210156126f65760c08d01516117aa576126f6565b8c61012001518183815181106117bc57fe5b60200260200101511415801561181557508c60e001516001600160a01b0316600260008385815181106117eb57fe5b6020908102919091018101518252810191909152604001600020600301546001600160a01b031614155b8015611863575060006002600083858151811061182e57fe5b6020026020010151815260200190815260200160002060010160169054906101000a900460ff16600481111561186057fe5b14155b15611a93576002600082848151811061187857fe5b602002602001015181526020019081526020016000206004015460001480156118a457506101008d0151155b156118ae576126eb565b6000600260008385815181106118c057fe5b6020026020010151815260200190815260200160002060010160159054906101000a900460ff1660018111156118f257fe5b14801561190e575060018d60800151600181111561190c57fe5b145b156119a3578c61010001516002600083858151811061192957fe5b602002602001015181526020019081526020016000206004015410158061195357506101008d0151155b1561199e576002600082848151811061196857fe5b6020026020010151815260200190815260200160002060040154965080828151811061199057fe5b602002602001015197508194505b611a93565b6001600260008385815181106119b557fe5b6020026020010151815260200190815260200160002060010160159054906101000a900460ff1660018111156119e757fe5b148015611a03575060008d608001516001811115611a0157fe5b145b15611a93578c610100015160026000838581518110611a1e57fe5b6020026020010151815260200190815260200160002060040154111580611a4857506101008d0151155b15611a935760026000828481518110611a5d57fe5b60200260200101518152602001908152602001600020600401549650808281518110611a8557fe5b602002602001015195508194505b60018d608001516001811115611aa557fe5b14156120f25787156120ed5760075460208e01516001600160a01b039081169116148015611adf575060008d516001811115611add57fe5b145b15611de45760085460008981526002602052604090205461010090046001600160a01b039081169116148015611b2f575060008881526002602052604081205460ff166001811115611b2d57fe5b145b15611b585760008881526002602081905260409091200154611b5190886127c0565b9350611bbe565b6007546000898152600260205260409020600101546001600160a01b039081169116148015611ba35750600160008981526002602052604090205460ff166001811115611ba157fe5b145b15611bbe576000888152600260208190526040909120015493505b8c60c001518410611d715760c08d01519350611bda848861277a565b60085460008a8152600260205260409020549194506001600160a01b0390811661010090920416148015611c2a5750600160008981526002602052604090205460ff166001811115611c2857fe5b145b611c505760008881526002602081905260409091200154611c4b9084612811565b611c74565b611c74600260008a8152602001908152602001600020600201548e60c00151612811565b600260008a81526020019081526020016000206002018190555060008d60c0018181525050600260008981526020019081526020016000206002015460001415611ce2576000888152600260205260409020600101805460ff60b01b19169055611cdd85612827565b611d05565b6000888152600260205260409020600101805460ff60b01b1916600160b01b1790555b600060a08e01526101208d0151611d1f9089898787612842565b945060008d606001516002811115611d3357fe5b1415611d6c576000611d508e61012001518f60e001516001612b4e565b6101208f01519c50959a5094985061270a975050505050505050565b611ddf565b8315611ddf57611d81848861277a565b9250611d918d60c0015185612811565b60c08e015260008881526002602081905260408220908101919091556001908101805460ff60b01b1916905560a08e01526101208d0151611dd59089898787612842565b50611ddf85612827565b6120ed565b60085460408e01516001600160a01b039081169116148015611e12575060018d516001811115611e1057fe5b145b156120ed576007546000898152600260205260409020600101546001600160a01b039081169116148015611e625750600160008981526002602052604090205460ff166001811115611e6057fe5b145b15611e8b5760008881526002602081905260409091200154611e84908861277a565b9250611ef1565b60085460008981526002602052604090205461010090046001600160a01b039081169116148015611ed6575060008881526002602052604081205460ff166001811115611ed457fe5b145b15611ef1576000888152600260208190526040909120015492505b8c60c00151831061207f5760c08d01519250611f0d83886127c0565b60075460008a8152600260205260409020600101549195506001600160a01b039182169116148015611f59575060008881526002602052604081205460ff166001811115611f5757fe5b145b611f7f5760008881526002602081905260409091200154611f7a9085612811565b611fa3565b611fa3600260008a8152602001908152602001600020600201548e60c00151612811565b600260008a81526020019081526020016000206002018190555060008d60c0018181525050600260008981526020019081526020016000206002015460001415612011576000888152600260205260409020600101805460ff60b01b1916905561200c85612827565b612034565b6000888152600260205260409020600101805460ff60b01b1916600160b01b1790555b600060a08e01526101208d015161204e9089898787612842565b945060008d60600151600281111561206257fe5b1415611ddf576000611d508e61012001518f60e001516000612b4e565b82156120ed5761208f83886127c0565b935061209f8d60c0015184612811565b60c08e015260008881526002602081905260408220908101919091556001908101805460ff60b01b1916905560a08e01526101208d01516120e39089898787612842565b506120ed85612827565b6126eb565b60008d60800151600181111561210457fe5b14156126eb5785156126eb5760085460208e01516001600160a01b03908116911614801561213e575060008d51600181111561213c57fe5b145b156123e05760075460008781526002602052604090205461010090046001600160a01b03908116911614801561218e575060008681526002602052604081205460ff16600181111561218c57fe5b145b156121b757600086815260026020819052604090912001546121b0908861277a565b925061221d565b6008546000878152600260205260409020600101546001600160a01b0390811691161480156122025750600160008781526002602052604090205460ff16600181111561220057fe5b145b1561221d576000868152600260208190526040909120015492505b8c60c00151831061237c5760c08d0151925061223983886127c0565b6008546000888152600260205260409020600101549195506001600160a01b0391821691161480156122875750600160008781526002602052604090205460ff16600181111561228557fe5b145b6122ad57600086815260026020819052604090912001546122a89085612811565b6122d1565b6122d160026000888152602001908152602001600020600201548e60c00151612811565b600260008881526020019081526020016000206002018190555060008d60c001818152505060026000878152602001908152602001600020600201546000141561233f576000868152600260205260409020600101805460ff60b01b1916905561233a85612827565b612362565b6000868152600260205260409020600101805460ff60b01b1916600160b01b1790555b600060a08e01526101208d015161204e9087898787612842565b82156120ed5761238c83886127c0565b935061239c8d60c0015184612811565b60c08e015260008681526002602081905260408220908101919091556001908101805460ff60b01b1916905560a08e01526101208d01516120e39087898787612842565b60075460408e01516001600160a01b03908116911614801561240e575060018d51600181111561240c57fe5b145b156126eb576008546000878152600260205260409020600101546001600160a01b03908116911614801561245e5750600160008781526002602052604090205460ff16600181111561245c57fe5b145b15612487576000868152600260208190526040909120015461248090886127c0565b93506124ed565b60075460008781526002602052604090205461010090046001600160a01b0390811691161480156124d2575060008681526002602052604081205460ff1660018111156124d057fe5b145b156124ed576000868152600260208190526040909120015493505b8c60c00151841061267d5760c08d01519350612509848861277a565b6007546000888152600260205260409020549194506001600160a01b0390811661010090920416148015612557575060008681526002602052604081205460ff16600181111561255557fe5b145b61257d57600086815260026020819052604090912001546125789084612811565b6125a1565b6125a160026000888152602001908152602001600020600201548e60c00151612811565b600260008881526020019081526020016000206002018190555060008d60c001818152505060026000878152602001908152602001600020600201546000141561260f576000868152600260205260409020600101805460ff60b01b1916905561260a85612827565b612632565b6000868152600260205260409020600101805460ff60b01b1916600160b01b1790555b600060a08e01526101208d015161264c9087898787612842565b945060008d60600151600281111561266057fe5b14156120ed576000611d508e61012001518f60e001516001612b4e565b83156126eb5761268d848861277a565b925061269d8d60c0015185612811565b60c08e015260008681526002602081905260408220908101919091556001908101805460ff60b01b1916905560a08e01526101208d01516126e19087898787612842565b506126eb85612827565b600190910190611793565b506060612701612cf5565b50505050505050505b9250925092565b600080546001600160a01b038381166001600160a01b0319831681178455604051919092169283917f8be0079c531659141344cd1fd0a4f28419497f9722a3daafe3b4186f6b6457e09190a35050565b60008282016127738482101583611694565b9392505050565b600082820261279e84158061279757508385838161279457fe5b04145b6003611694565b670de0b6b3a764000090049392505050565b611241816210905360ea1b612e4e565b60006127cf8215156004611694565b826127dc5750600061110f565b670de0b6b3a7640000838102906127ff908583816127f657fe5b04146005611694565b82818161280857fe5b0491505061110f565b6000612821838311156001611694565b50900390565b6003818154811061283457fe5b600091825260208220015550565b60018054810190819055600090612857612f06565b6040518060e00160405280898152602001600260008b815260200190815260200160002060030160009054906101000a90046001600160a01b03166001600160a01b031681526020018881526020018781526020018381526020018681526020018581525090508060056000600260008c815260200190815260200160002060030160009054906101000a90046001600160a01b03166001600160a01b03166001600160a01b0316815260200190815260200160002060008481526020019081526020016000206000820151816000015560208201518160010160006101000a8154816001600160a01b0302191690836001600160a01b0316021790555060408201518160020155606082015181600301556080820151816004015560a0820151816005015560c082015181600601559050508060056000600260008b815260200190815260200160002060030160009054906101000a90046001600160a01b03166001600160a01b03166001600160a01b0316815260200190815260200160002060008481526020019081526020016000206000820151816000015560208201518160010160006101000a8154816001600160a01b0302191690836001600160a01b0316021790555060408201518160020155606082015181600301556080820151816004015560a0820151816005015560c0820151816006015590505060066000600260008b815260200190815260200160002060030160009054906101000a90046001600160a01b03166001600160a01b03166001600160a01b0316815260200190815260200160002082908060018154018082558091505060019003906000526020600020016000909190919091505560066000600260008a815260200190815260200160002060030160009054906101000a90046001600160a01b03166001600160a01b03166001600160a01b03168152602001908152602001600020829080600181540180825580915050600190039060005260206000200160009091909190915055819250505095945050505050565b6000806000612b5b612f06565b60005b6001600160a01b038716600090815260066020526040902054811015612ce2576001600160a01b0387166000908152600660205260409020805482908110612ba257fe5b60009182526020808320909101546001600160a01b03808b16845260058084526040808620848752855294859020855160e0810187528154808252600183015490941695810195909552600281015495850195909552600385015460608501526004850154608085015284015460a084015260069093015460c083015295509250881415612c5157600086612c3b578260a00151612c41565b8260c001515b9050612c4d8482612761565b9350505b6001600160a01b0387166000908152600660205260409020805482908110612c7557fe5b600091825260208083209091018290556001600160a01b038916825260058082526040808420888552909252908220828155600180820180546001600160a01b03191690556002820184905560038201849055600482018490559181018390556006019190915501612b5e565b50612ceb612cf5565b5095945050505050565b6000805b600354811015612d305760038181548110612d1057fe5b60009182526020909120015415612d28576001909101905b600101612cf9565b5080612d55576040805160008152602081019182905251612d5391600391612f42565b505b60608167ffffffffffffffff81118015612d6e57600080fd5b50604051908082528060200260200182016040528015612d98578160200160208202803683370190505b5090506000805b600354811015612e345760038181548110612db657fe5b60009182526020909120015415612e2c57816004600060038481548110612dd957fe5b906000526020600020015481526020019081526020016000208190555060038181548110612e0357fe5b9060005260206000200154838381518110612e1a57fe5b60209081029190910101526001909101905b600101612d9f565b508151612e48906003906020850190612f42565b50505050565b62461bcd60e51b600090815260206004526007602452600a808404818106603090810160081b958390069590950190829004918206850160101b01602363ffffff0060e086901c160160181b0190930160c81b60445260e882901c90606490fd5b60408051610140810190915280600081526000602082018190526040820181905260609091019081526020016000815260200160008152600060208201819052604082018190526060820181905260809091015290565b6040805160e081018252600080825260208201819052918101829052606081018290526080810182905260a0810182905260c081019190915290565b828054828255906000526020600020908101928215612f7d579160200282015b82811115612f7d578251825591602001919060010190612f62565b50612f89929150612f8d565b5090565b5b80821115612f895760008155600101612f8e565b803561110f816135d2565b600082601f830112612fbd578081fd5b813567ffffffffffffffff811115612fd3578182fd5b612fe6601f8201601f19166020016135ab565b9150808252836020828501011115612ffd57600080fd5b8060208401602084013760009082016020015292915050565b803561110f816135e7565b600060408284031215613032578081fd5b61303c60406135ab565b905081356003811061304d57600080fd5b808252506020820135602082015292915050565b600060208284031215613072578081fd5b8135612773816135d2565b6000806040838503121561308f578081fd5b823561309a816135d2565b946020939093013593505050565b6000602082840312156130b9578081fd5b5035919050565b6000602082840312156130d1578081fd5b5051919050565b6000806000606084860312156130ec578081fd5b505081359360208301359350604090920135919050565b60008060008060808587031215613118578081fd5b84359350602085013592506040850135613131816135e7565b9396929550929360600135925050565b6000806000606084860312156130ec578283fd5b600080600060808486031215613169578283fd5b833567ffffffffffffffff80821115613180578485fd5b8186019150610120808389031215613196578586fd5b61319f816135ab565b90506131ab8884613016565b81526131ba8860208501612fa2565b60208201526131cc8860408501612fa2565b6040820152606083013560608201526080830135608082015260a083013560a08201526131fc8860c08501612fa2565b60c082015261320e8860e08501612fa2565b60e08201526101008084013583811115613226578788fd5b6132328a828701612fad565b82840152505080955050505061324b8560208601613021565b915061325a8560608601613016565b90509250925092565b6001600160a01b03169052565b6005811061327a57fe5b9052565b6003811061327a57fe5b6002811061327a57fe5b60609290921b6bffffffffffffffffffffffff19168252601482015260340190565b6001600160a01b0391909116815260200190565b6020808252825182820181905260009190848201906040850190845b81811015613300578351835292840192918401916001016132e4565b50909695505050505050565b90815260200190565b9283526020830191909152604082015260600190565b6020808252601d908201527f556e617574686f72697a65642061636365737320746f206f7264657273000000604082015260600190565b6020808252601f908201527f4d61726b6574206f726465722063616e206e6f74206265206368616e67656400604082015260600190565b602080825260139082015272556e617574686f72697a65642061636365737360681b604082015260600190565b6020808252601b908201527f53656e646572206973206e6f74206f726465722063726561746f720000000000604082015260600190565b60208082526017908201527f4f7264657220697320616c72656164792066696c6c6564000000000000000000604082015260600190565b6020808252601d908201527f556e617574686f72697a65642061636365737320746f20747261646573000000604082015260600190565b60208082526021908201527f4d61726b6574206f726465722063616e206e6f742062652063616e63656c6c656040820152601960fa1b606082015260800190565b6000610140820190506134c0828451613288565b60208301516134d26020840182613263565b5060408301516134e56040840182613263565b5060608301516134f8606084018261327e565b50608083015161350b6080840182613288565b5060a083015161351e60a0840182613270565b5060c083015160c083015260e083015161353b60e0840182613263565b50610100838101519083015261012092830151929091019190915290565b815181526020808301516001600160a01b03169082015260408083015190820152606080830151908201526080808301519082015260a0808301519082015260c0918201519181019190915260e00190565b60405181810167ffffffffffffffff811182821017156135ca57600080fd5b604052919050565b6001600160a01b038116811461124157600080fd5b6002811061124157600080fdfea264697066735822122031051964d8e7f0b5f2f8d167ae21cfaa41e14d24cffb1d40d0d6f5e53092755764736f6c63430007010033",
  "linkReferences": {},
  "deployedLinkReferences": {}
}