{
  "_format": "hh-sol-artifact-1",
  "contractName": "SecondaryIssuePool",
  "sourceName": "contracts/SecondaryIssuePool.sol",
  "abi": [
    {
      "inputs": [
        {
          "internalType": "contract IVault",
          "name": "vault",
          "type": "address"
        },
        {
          "internalType": "string",
          "name": "name",
          "type": "string"
        },
        {
          "internalType": "string",
          "name": "symbol",
          "type": "string"
        },
        {
          "internalType": "address",
          "name": "security",
          "type": "address"
        },
        {
          "internalType": "address",
          "name": "currency",
          "type": "address"
        },
        {
          "internalType": "uint256",
          "name": "minOrderSize",
          "type": "uint256"
        },
        {
          "internalType": "uint256",
          "name": "tradeFeePercentage",
          "type": "uint256"
        },
        {
          "internalType": "uint256",
          "name": "pauseWindowDuration",
          "type": "uint256"
        },
        {
          "internalType": "uint256",
          "name": "bufferPeriodDuration",
          "type": "uint256"
        },
        {
          "internalType": "address",
          "name": "owner",
          "type": "address"
        }
      ],
      "stateMutability": "nonpayable",
      "type": "constructor"
    },
    {
      "anonymous": false,
      "inputs": [
        {
          "indexed": true,
          "internalType": "address",
          "name": "owner",
          "type": "address"
        },
        {
          "indexed": true,
          "internalType": "address",
          "name": "spender",
          "type": "address"
        },
        {
          "indexed": false,
          "internalType": "uint256",
          "name": "value",
          "type": "uint256"
        }
      ],
      "name": "Approval",
      "type": "event"
    },
    {
      "anonymous": false,
      "inputs": [
        {
          "indexed": true,
          "internalType": "address",
          "name": "security",
          "type": "address"
        },
        {
          "indexed": false,
          "internalType": "uint256",
          "name": "minOrderSize",
          "type": "uint256"
        },
        {
          "indexed": false,
          "internalType": "address",
          "name": "currency",
          "type": "address"
        },
        {
          "indexed": false,
          "internalType": "address",
          "name": "orderBook",
          "type": "address"
        },
        {
          "indexed": false,
          "internalType": "address",
          "name": "issueManager",
          "type": "address"
        }
      ],
      "name": "Offer",
      "type": "event"
    },
    {
      "anonymous": false,
      "inputs": [
        {
          "indexed": false,
          "internalType": "address",
          "name": "creator",
          "type": "address"
        },
        {
          "indexed": false,
          "internalType": "address",
          "name": "tokenIn",
          "type": "address"
        },
        {
          "indexed": false,
          "internalType": "address",
          "name": "tokenOut",
          "type": "address"
        },
        {
          "indexed": false,
          "internalType": "uint256",
          "name": "amountOffered",
          "type": "uint256"
        },
        {
          "indexed": false,
          "internalType": "uint256",
          "name": "priceOffered",
          "type": "uint256"
        },
        {
          "indexed": false,
          "internalType": "uint256",
          "name": "timestamp",
          "type": "uint256"
        },
        {
          "indexed": false,
          "internalType": "bytes32",
          "name": "orderRef",
          "type": "bytes32"
        }
      ],
      "name": "OrderBook",
      "type": "event"
    },
    {
      "anonymous": false,
      "inputs": [
        {
          "indexed": false,
          "internalType": "bool",
          "name": "paused",
          "type": "bool"
        }
      ],
      "name": "PausedStateChanged",
      "type": "event"
    },
    {
      "anonymous": false,
      "inputs": [
        {
          "indexed": false,
          "internalType": "bool",
          "name": "enabled",
          "type": "bool"
        }
      ],
      "name": "RecoveryModeStateChanged",
      "type": "event"
    },
    {
      "anonymous": false,
      "inputs": [
        {
          "indexed": false,
          "internalType": "uint256",
          "name": "swapFeePercentage",
          "type": "uint256"
        }
      ],
      "name": "SwapFeePercentageChanged",
      "type": "event"
    },
    {
      "anonymous": false,
      "inputs": [
        {
          "indexed": true,
          "internalType": "address",
          "name": "security",
          "type": "address"
        },
        {
          "indexed": false,
          "internalType": "bytes32",
          "name": "orderRef",
          "type": "bytes32"
        },
        {
          "indexed": false,
          "internalType": "address",
          "name": "party",
          "type": "address"
        },
        {
          "indexed": false,
          "internalType": "address",
          "name": "counterparty",
          "type": "address"
        },
        {
          "indexed": false,
          "internalType": "bytes32",
          "name": "orderType",
          "type": "bytes32"
        },
        {
          "indexed": false,
          "internalType": "uint256",
          "name": "price",
          "type": "uint256"
        },
        {
          "indexed": false,
          "internalType": "address",
          "name": "currency",
          "type": "address"
        },
        {
          "indexed": false,
          "internalType": "uint256",
          "name": "amount",
          "type": "uint256"
        },
        {
          "indexed": false,
          "internalType": "uint256",
          "name": "executionDate",
          "type": "uint256"
        }
      ],
      "name": "TradeReport",
      "type": "event"
    },
    {
      "anonymous": false,
      "inputs": [
        {
          "indexed": true,
          "internalType": "address",
          "name": "from",
          "type": "address"
        },
        {
          "indexed": true,
          "internalType": "address",
          "name": "to",
          "type": "address"
        },
        {
          "indexed": false,
          "internalType": "uint256",
          "name": "value",
          "type": "uint256"
        }
      ],
      "name": "Transfer",
      "type": "event"
    },
    {
      "inputs": [],
      "name": "DOMAIN_SEPARATOR",
      "outputs": [
        {
          "internalType": "bytes32",
          "name": "",
          "type": "bytes32"
        }
      ],
      "stateMutability": "view",
      "type": "function"
    },
    {
      "inputs": [],
      "name": "_orderbook",
      "outputs": [
        {
          "internalType": "contract Orderbook",
          "name": "",
          "type": "address"
        }
      ],
      "stateMutability": "view",
      "type": "function"
    },
    {
      "inputs": [
        {
          "internalType": "address",
          "name": "owner",
          "type": "address"
        },
        {
          "internalType": "address",
          "name": "spender",
          "type": "address"
        }
      ],
      "name": "allowance",
      "outputs": [
        {
          "internalType": "uint256",
          "name": "",
          "type": "uint256"
        }
      ],
      "stateMutability": "view",
      "type": "function"
    },
    {
      "inputs": [
        {
          "internalType": "address",
          "name": "spender",
          "type": "address"
        },
        {
          "internalType": "uint256",
          "name": "amount",
          "type": "uint256"
        }
      ],
      "name": "approve",
      "outputs": [
        {
          "internalType": "bool",
          "name": "",
          "type": "bool"
        }
      ],
      "stateMutability": "nonpayable",
      "type": "function"
    },
    {
      "inputs": [
        {
          "internalType": "address",
          "name": "account",
          "type": "address"
        }
      ],
      "name": "balanceOf",
      "outputs": [
        {
          "internalType": "uint256",
          "name": "",
          "type": "uint256"
        }
      ],
      "stateMutability": "view",
      "type": "function"
    },
    {
      "inputs": [],
      "name": "decimals",
      "outputs": [
        {
          "internalType": "uint8",
          "name": "",
          "type": "uint8"
        }
      ],
      "stateMutability": "view",
      "type": "function"
    },
    {
      "inputs": [
        {
          "internalType": "address",
          "name": "spender",
          "type": "address"
        },
        {
          "internalType": "uint256",
          "name": "amount",
          "type": "uint256"
        }
      ],
      "name": "decreaseAllowance",
      "outputs": [
        {
          "internalType": "bool",
          "name": "",
          "type": "bool"
        }
      ],
      "stateMutability": "nonpayable",
      "type": "function"
    },
    {
      "inputs": [],
      "name": "disableRecoveryMode",
      "outputs": [],
      "stateMutability": "nonpayable",
      "type": "function"
    },
    {
      "inputs": [],
      "name": "enableRecoveryMode",
      "outputs": [],
      "stateMutability": "nonpayable",
      "type": "function"
    },
    {
      "inputs": [
        {
          "internalType": "bytes4",
          "name": "selector",
          "type": "bytes4"
        }
      ],
      "name": "getActionId",
      "outputs": [
        {
          "internalType": "bytes32",
          "name": "",
          "type": "bytes32"
        }
      ],
      "stateMutability": "view",
      "type": "function"
    },
    {
      "inputs": [],
      "name": "getAuthorizer",
      "outputs": [
        {
          "internalType": "contract IAuthorizer",
          "name": "",
          "type": "address"
        }
      ],
      "stateMutability": "view",
      "type": "function"
    },
    {
      "inputs": [],
      "name": "getCurrency",
      "outputs": [
        {
          "internalType": "address",
          "name": "",
          "type": "address"
        }
      ],
      "stateMutability": "view",
      "type": "function"
    },
    {
      "inputs": [],
      "name": "getDomainSeparator",
      "outputs": [
        {
          "internalType": "bytes32",
          "name": "",
          "type": "bytes32"
        }
      ],
      "stateMutability": "view",
      "type": "function"
    },
    {
      "inputs": [],
      "name": "getMinOrderSize",
      "outputs": [
        {
          "internalType": "uint256",
          "name": "",
          "type": "uint256"
        }
      ],
      "stateMutability": "view",
      "type": "function"
    },
    {
      "inputs": [
        {
          "internalType": "address",
          "name": "account",
          "type": "address"
        }
      ],
      "name": "getNextNonce",
      "outputs": [
        {
          "internalType": "uint256",
          "name": "",
          "type": "uint256"
        }
      ],
      "stateMutability": "view",
      "type": "function"
    },
    {
      "inputs": [],
      "name": "getOwner",
      "outputs": [
        {
          "internalType": "address",
          "name": "",
          "type": "address"
        }
      ],
      "stateMutability": "view",
      "type": "function"
    },
    {
      "inputs": [],
      "name": "getPausedState",
      "outputs": [
        {
          "internalType": "bool",
          "name": "paused",
          "type": "bool"
        },
        {
          "internalType": "uint256",
          "name": "pauseWindowEndTime",
          "type": "uint256"
        },
        {
          "internalType": "uint256",
          "name": "bufferPeriodEndTime",
          "type": "uint256"
        }
      ],
      "stateMutability": "view",
      "type": "function"
    },
    {
      "inputs": [],
      "name": "getPoolId",
      "outputs": [
        {
          "internalType": "bytes32",
          "name": "",
          "type": "bytes32"
        }
      ],
      "stateMutability": "view",
      "type": "function"
    },
    {
      "inputs": [],
      "name": "getProtocolFeesCollector",
      "outputs": [
        {
          "internalType": "contract IProtocolFeesCollector",
          "name": "",
          "type": "address"
        }
      ],
      "stateMutability": "view",
      "type": "function"
    },
    {
      "inputs": [],
      "name": "getScalingFactors",
      "outputs": [
        {
          "internalType": "uint256[]",
          "name": "",
          "type": "uint256[]"
        }
      ],
      "stateMutability": "view",
      "type": "function"
    },
    {
      "inputs": [],
      "name": "getSecurity",
      "outputs": [
        {
          "internalType": "address",
          "name": "",
          "type": "address"
        }
      ],
      "stateMutability": "view",
      "type": "function"
    },
    {
      "inputs": [],
      "name": "getSwapFeePercentage",
      "outputs": [
        {
          "internalType": "uint256",
          "name": "",
          "type": "uint256"
        }
      ],
      "stateMutability": "view",
      "type": "function"
    },
    {
      "inputs": [],
      "name": "getVault",
      "outputs": [
        {
          "internalType": "contract IVault",
          "name": "",
          "type": "address"
        }
      ],
      "stateMutability": "view",
      "type": "function"
    },
    {
      "inputs": [],
      "name": "inRecoveryMode",
      "outputs": [
        {
          "internalType": "bool",
          "name": "",
          "type": "bool"
        }
      ],
      "stateMutability": "view",
      "type": "function"
    },
    {
      "inputs": [
        {
          "internalType": "address",
          "name": "spender",
          "type": "address"
        },
        {
          "internalType": "uint256",
          "name": "addedValue",
          "type": "uint256"
        }
      ],
      "name": "increaseAllowance",
      "outputs": [
        {
          "internalType": "bool",
          "name": "",
          "type": "bool"
        }
      ],
      "stateMutability": "nonpayable",
      "type": "function"
    },
    {
      "inputs": [],
      "name": "name",
      "outputs": [
        {
          "internalType": "string",
          "name": "",
          "type": "string"
        }
      ],
      "stateMutability": "view",
      "type": "function"
    },
    {
      "inputs": [
        {
          "internalType": "address",
          "name": "owner",
          "type": "address"
        }
      ],
      "name": "nonces",
      "outputs": [
        {
          "internalType": "uint256",
          "name": "",
          "type": "uint256"
        }
      ],
      "stateMutability": "view",
      "type": "function"
    },
    {
      "inputs": [
        {
          "internalType": "bytes32",
          "name": "poolId",
          "type": "bytes32"
        },
        {
          "internalType": "address",
          "name": "sender",
          "type": "address"
        },
        {
          "internalType": "address",
          "name": "recipient",
          "type": "address"
        },
        {
          "internalType": "uint256[]",
          "name": "balances",
          "type": "uint256[]"
        },
        {
          "internalType": "uint256",
          "name": "lastChangeBlock",
          "type": "uint256"
        },
        {
          "internalType": "uint256",
          "name": "protocolSwapFeePercentage",
          "type": "uint256"
        },
        {
          "internalType": "bytes",
          "name": "userData",
          "type": "bytes"
        }
      ],
      "name": "onExitPool",
      "outputs": [
        {
          "internalType": "uint256[]",
          "name": "",
          "type": "uint256[]"
        },
        {
          "internalType": "uint256[]",
          "name": "",
          "type": "uint256[]"
        }
      ],
      "stateMutability": "nonpayable",
      "type": "function"
    },
    {
      "inputs": [
        {
          "internalType": "bytes32",
          "name": "poolId",
          "type": "bytes32"
        },
        {
          "internalType": "address",
          "name": "sender",
          "type": "address"
        },
        {
          "internalType": "address",
          "name": "recipient",
          "type": "address"
        },
        {
          "internalType": "uint256[]",
          "name": "balances",
          "type": "uint256[]"
        },
        {
          "internalType": "uint256",
          "name": "lastChangeBlock",
          "type": "uint256"
        },
        {
          "internalType": "uint256",
          "name": "protocolSwapFeePercentage",
          "type": "uint256"
        },
        {
          "internalType": "bytes",
          "name": "userData",
          "type": "bytes"
        }
      ],
      "name": "onJoinPool",
      "outputs": [
        {
          "internalType": "uint256[]",
          "name": "",
          "type": "uint256[]"
        },
        {
          "internalType": "uint256[]",
          "name": "",
          "type": "uint256[]"
        }
      ],
      "stateMutability": "nonpayable",
      "type": "function"
    },
    {
      "inputs": [
        {
          "components": [
            {
              "internalType": "enum IVault.SwapKind",
              "name": "kind",
              "type": "uint8"
            },
            {
              "internalType": "contract IERC20",
              "name": "tokenIn",
              "type": "address"
            },
            {
              "internalType": "contract IERC20",
              "name": "tokenOut",
              "type": "address"
            },
            {
              "internalType": "uint256",
              "name": "amount",
              "type": "uint256"
            },
            {
              "internalType": "bytes32",
              "name": "poolId",
              "type": "bytes32"
            },
            {
              "internalType": "uint256",
              "name": "lastChangeBlock",
              "type": "uint256"
            },
            {
              "internalType": "address",
              "name": "from",
              "type": "address"
            },
            {
              "internalType": "address",
              "name": "to",
              "type": "address"
            },
            {
              "internalType": "bytes",
              "name": "userData",
              "type": "bytes"
            }
          ],
          "internalType": "struct IPoolSwapStructs.SwapRequest",
          "name": "request",
          "type": "tuple"
        },
        {
          "internalType": "uint256[]",
          "name": "balances",
          "type": "uint256[]"
        },
        {
          "internalType": "uint256",
          "name": "indexIn",
          "type": "uint256"
        },
        {
          "internalType": "uint256",
          "name": "indexOut",
          "type": "uint256"
        }
      ],
      "name": "onSwap",
      "outputs": [
        {
          "internalType": "uint256",
          "name": "",
          "type": "uint256"
        }
      ],
      "stateMutability": "nonpayable",
      "type": "function"
    },
    {
      "inputs": [],
      "name": "pause",
      "outputs": [],
      "stateMutability": "nonpayable",
      "type": "function"
    },
    {
      "inputs": [
        {
          "internalType": "address",
          "name": "owner",
          "type": "address"
        },
        {
          "internalType": "address",
          "name": "spender",
          "type": "address"
        },
        {
          "internalType": "uint256",
          "name": "value",
          "type": "uint256"
        },
        {
          "internalType": "uint256",
          "name": "deadline",
          "type": "uint256"
        },
        {
          "internalType": "uint8",
          "name": "v",
          "type": "uint8"
        },
        {
          "internalType": "bytes32",
          "name": "r",
          "type": "bytes32"
        },
        {
          "internalType": "bytes32",
          "name": "s",
          "type": "bytes32"
        }
      ],
      "name": "permit",
      "outputs": [],
      "stateMutability": "nonpayable",
      "type": "function"
    },
    {
      "inputs": [
        {
          "internalType": "bytes32",
          "name": "poolId",
          "type": "bytes32"
        },
        {
          "internalType": "address",
          "name": "sender",
          "type": "address"
        },
        {
          "internalType": "address",
          "name": "recipient",
          "type": "address"
        },
        {
          "internalType": "uint256[]",
          "name": "balances",
          "type": "uint256[]"
        },
        {
          "internalType": "uint256",
          "name": "lastChangeBlock",
          "type": "uint256"
        },
        {
          "internalType": "uint256",
          "name": "protocolSwapFeePercentage",
          "type": "uint256"
        },
        {
          "internalType": "bytes",
          "name": "userData",
          "type": "bytes"
        }
      ],
      "name": "queryExit",
      "outputs": [
        {
          "internalType": "uint256",
          "name": "bptIn",
          "type": "uint256"
        },
        {
          "internalType": "uint256[]",
          "name": "amountsOut",
          "type": "uint256[]"
        }
      ],
      "stateMutability": "view",
      "type": "function"
    },
    {
      "inputs": [
        {
          "internalType": "bytes32",
          "name": "poolId",
          "type": "bytes32"
        },
        {
          "internalType": "address",
          "name": "sender",
          "type": "address"
        },
        {
          "internalType": "address",
          "name": "recipient",
          "type": "address"
        },
        {
          "internalType": "uint256[]",
          "name": "balances",
          "type": "uint256[]"
        },
        {
          "internalType": "uint256",
          "name": "lastChangeBlock",
          "type": "uint256"
        },
        {
          "internalType": "uint256",
          "name": "protocolSwapFeePercentage",
          "type": "uint256"
        },
        {
          "internalType": "bytes",
          "name": "userData",
          "type": "bytes"
        }
      ],
      "name": "queryJoin",
      "outputs": [
        {
          "internalType": "uint256",
          "name": "bptOut",
          "type": "uint256"
        },
        {
          "internalType": "uint256[]",
          "name": "amountsIn",
          "type": "uint256[]"
        }
      ],
      "stateMutability": "view",
      "type": "function"
    },
    {
      "inputs": [
        {
          "internalType": "contract IERC20",
          "name": "token",
          "type": "address"
        },
        {
          "internalType": "bytes",
          "name": "poolConfig",
          "type": "bytes"
        }
      ],
      "name": "setAssetManagerPoolConfig",
      "outputs": [],
      "stateMutability": "nonpayable",
      "type": "function"
    },
    {
      "inputs": [
        {
          "internalType": "uint256",
          "name": "swapFeePercentage",
          "type": "uint256"
        }
      ],
      "name": "setSwapFeePercentage",
      "outputs": [],
      "stateMutability": "nonpayable",
      "type": "function"
    },
    {
      "inputs": [],
      "name": "symbol",
      "outputs": [
        {
          "internalType": "string",
          "name": "",
          "type": "string"
        }
      ],
      "stateMutability": "view",
      "type": "function"
    },
    {
      "inputs": [],
      "name": "totalSupply",
      "outputs": [
        {
          "internalType": "uint256",
          "name": "",
          "type": "uint256"
        }
      ],
      "stateMutability": "view",
      "type": "function"
    },
    {
      "inputs": [
        {
          "internalType": "address",
          "name": "recipient",
          "type": "address"
        },
        {
          "internalType": "uint256",
          "name": "amount",
          "type": "uint256"
        }
      ],
      "name": "transfer",
      "outputs": [
        {
          "internalType": "bool",
          "name": "",
          "type": "bool"
        }
      ],
      "stateMutability": "nonpayable",
      "type": "function"
    },
    {
      "inputs": [
        {
          "internalType": "address",
          "name": "sender",
          "type": "address"
        },
        {
          "internalType": "address",
          "name": "recipient",
          "type": "address"
        },
        {
          "internalType": "uint256",
          "name": "amount",
          "type": "uint256"
        }
      ],
      "name": "transferFrom",
      "outputs": [
        {
          "internalType": "bool",
          "name": "",
          "type": "bool"
        }
      ],
      "stateMutability": "nonpayable",
      "type": "function"
    },
    {
      "inputs": [],
      "name": "unpause",
      "outputs": [],
      "stateMutability": "nonpayable",
      "type": "function"
    }
  ],
  "bytecode": "0x6102c06040523480156200001257600080fd5b50604051620093b9380380620093b9833981016040819052620000359162000b87565b8960008a8a620000478b8b30620004d0565b6040805160038082526080820190925290602082016060803683370190505089898989828289898d85336001600160a01b031660001b8480604051806040016040528060018152602001603160f81b81525087878160039080519060200190620000b3929190620009f1565b508051620000c9906004906020840190620009f1565b50506005805460ff19166012179055508151602092830120608052805191012060a052507f8b73c3c69bb8fe3d512ecc4cf759cc79239f7b179b0ffacaa9a75d522b39400f60c05260e0526001600160601b0319606091821b81166101005291901b1661012052506200014790506276a7008311156101946200059f565b6200015b62278d008211156101956200059f565b42909101610140819052016101605285516200017d906002111560c86200059f565b620001976200018b620005b4565b8751111560c96200059f565b620001ad86620005b960201b620025791760201c565b620001b884620005c5565b6040516309b2760f60e01b81526000906001600160a01b038c16906309b2760f90620001e9908d9060040162000d50565b602060405180830381600087803b1580156200020457600080fd5b505af115801562000219573d6000803e3d6000fd5b505050506040513d601f19601f820116820180604052508101906200023f919062000b4f565b604051633354e3e960e11b81529091506001600160a01b038c16906366a9c7d290620002749084908b908b9060040162000cb4565b600060405180830381600087803b1580156200028f57600080fd5b505af1158015620002a4573d6000803e3d6000fd5b505050508061018081815250508a6001600160a01b031663d2946c2b6040518163ffffffff1660e01b815260040160206040518083038186803b158015620002eb57600080fd5b505afa15801562000300573d6000803e3d6000fd5b505050506040513d601f19601f8201168201806040525081019062000326919062000b68565b6001600160a01b03166101a0816001600160a01b031660601b815250505050505050505050505050866001600160a01b03166101c0816001600160a01b031660601b81525050856001600160a01b03166101e0816001600160a01b031660601b8152505089600b60006101000a8154816001600160a01b0302191690836001600160a01b031602179055506000806000620003c98a8a306200065960201b60201c565b61024081905261026083905261028082905291945092509050620003ed8a6200074f565b61020052620003fc896200074f565b61022052600a8890556001600160601b0319606085901b166102a05260405184908b908b9030906200042e9062000a76565b6200043d949392919062000c89565b604051809103906000f0801580156200045a573d6000803e3d6000fd5b50600980546001600160a01b0319166001600160a01b0392831617908190556040518c8316927f32e7b5e5c88bb4ec1dca71e1e00fc2444e236858d09faa9ddbb9d8c710549ecb92620004b5928d928f9216908a9062000d6e565b60405180910390a25050505050505050505050505062000db7565b606060008080620004e387878762000659565b60408051600380825260808201909252939650919450925060208201606080368337019050509350868484815181106200051957fe5b60200260200101906001600160a01b031690816001600160a01b031681525050858483815181106200054757fe5b60200260200101906001600160a01b031690816001600160a01b031681525050848482815181106200057557fe5b60200260200101906001600160a01b031690816001600160a01b0316815250505050509392505050565b81620005b057620005b08162000823565b5050565b600390565b80620005b08162000838565b620005de620005d3620008c4565b82101560cb6200059f565b620005f7620005ec620008cd565b82111560ca6200059f565b620006198160c0603f600854620008d960201b6200258317909392919060201c565b6008556040517fa9ba3ffe0b6c366b81232caab38605a0699ad5398d6cce76f91ee809e322dafc906200064e90839062000d65565b60405180910390a150565b6000806000846001600160a01b0316866001600160a01b03161015620006e257836001600160a01b0316856001600160a01b03161015620006a557506000915060019050600262000746565b836001600160a01b0316866001600160a01b03161015620006d157506000915060029050600162000746565b506001915060029050600062000746565b846001600160a01b0316846001600160a01b031610156200070e57506002915060019050600062000746565b856001600160a01b0316846001600160a01b031610156200073a57506002915060009050600162000746565b50600191506000905060025b93509350939050565b60006001600160a01b038216301415620007735750670de0b6b3a76400006200081e565b6000826001600160a01b031663313ce5676040518163ffffffff1660e01b815260040160206040518083038186803b158015620007af57600080fd5b505afa158015620007c4573d6000803e3d6000fd5b505050506040513d601f19601f82011682018060405250810190620007ea919062000c66565b60ff169050600062000809601283620008fe60201b620025a61760201c565b905080600a0a670de0b6b3a764000002925050505b919050565b62000835816210905360ea1b6200091b565b50565b600281511015620008495762000835565b6000816000815181106200085957fe5b602002602001015190506000600190505b8251811015620008bf5760008382815181106200088357fe5b60200260200101519050620008b4816001600160a01b0316846001600160a01b03161060656200059f60201b60201c565b91506001016200086a565b505050565b64e8d4a5100090565b67016345785d8a000090565b6000620008e88484846200097c565b506001901b60001901811b1992909216911b1790565b6000620009108383111560016200059f565b508082035b92915050565b62461bcd60e51b600090815260206004526007602452600a808404818106603090810160081b958390069590950190829004918206850160101b01602363ffffff0060e086901c160160181b0190930160c81b60445260e882901c90606490fd5b6200098d610100831060646200059f565b620009c660018210158015620009be5750620009ba60ff8461010003620009d760201b620025bc1760201c565b8211155b60646200059f565b620008bf83821c156101b46200059f565b6000818310620009e85781620009ea565b825b9392505050565b828054600181600116156101000203166002900490600052602060002090601f016020900481019282601f1062000a3457805160ff191683800117855562000a64565b8280016001018555821562000a64579182015b8281111562000a6457825182559160200191906001019062000a47565b5062000a7292915062000a84565b5090565b6139868062005a3383390190565b5b8082111562000a72576000815560010162000a85565b8051620009158162000da1565b600082601f83011262000ab9578081fd5b81516001600160401b038082111562000ad0578283fd5b6040516020601f8401601f191682018101838111838210171562000af2578586fd5b8060405250819450838252868185880101111562000b0f57600080fd5b600092505b8383101562000b33578583018101518284018201529182019162000b14565b8383111562000b455760008185840101525b5050505092915050565b60006020828403121562000b61578081fd5b5051919050565b60006020828403121562000b7a578081fd5b8151620009ea8162000da1565b6000806000806000806000806000806101408b8d03121562000ba7578586fd5b62000bb38c8c62000a9b565b60208c0151909a506001600160401b038082111562000bd0578788fd5b62000bde8e838f0162000aa8565b9a5060408d015191508082111562000bf4578788fd5b5062000c038d828e0162000aa8565b98505062000c158c60608d0162000a9b565b965062000c268c60808d0162000a9b565b955060a08b0151945060c08b0151935060e08b015192506101008b0151915062000c558c6101208d0162000a9b565b90509295989b9194979a5092959850565b60006020828403121562000c78578081fd5b815160ff81168114620009ea578182fd5b6001600160a01b03948516815292841660208401529083166040830152909116606082015260800190565b60006060820185835260206060818501528186518084526080860191508288019350845b8181101562000d005762000ced855162000d95565b8352938301939183019160010162000cd8565b505084810360408601528551808252908201925081860190845b8181101562000d425762000d2f835162000d95565b8552938301939183019160010162000d1a565b509298975050505050505050565b602081016003831062000d5f57fe5b91905290565b90815260200190565b9384526001600160a01b039283166020850152908216604084015216606082015260800190565b6001600160a01b031690565b6001600160a01b03811681146200083557600080fd5b60805160a05160c05160e0516101005160601c6101205160601c6101405161016051610180516101a05160601c6101c05160601c6101e05160601c61020051610220516102405161026051610280516102a05160601c614af462000f3f60003980611206528061319c52508061083252806126bc528061320852806132625250806108e4528061265652508061096852806117035280611bac5280611be95280611c2752806127115250806111aa52806126e4528061323b525080611176528061267e525080610602528061069852806107d65280610c5f5280610cf0528061112b528061138a528061184052806119fc5280611aa45280611b37528061204052508061064152806106d852806108885280610ac65280610bd65280610d6d5280610df5528061134b528061180152806119bd5280611a655280611af85280611efa525080612353525080611f4d5250806129155250806128f152508061223b5250806122175250806121a15250806132f35250806133355250806133145250614af46000f3fe608060405234801561001057600080fd5b50600436106102d35760003560e01c806370a0823111610186578063a457c2d7116100e3578063d2946c2b11610097578063dd62ed3e11610071578063dd62ed3e14610547578063ed24911d1461055a578063fd19cac814610562576102d3565b8063d2946c2b14610519578063d505accf14610521578063d5c096c414610534576102d3565b8063aaabadc5116100c8578063aaabadc514610501578063b35056b814610509578063b7b814fc14610511576102d3565b8063a457c2d7146104db578063a9059cbb146104ee576102d3565b806387ec68171161013a5780638d928af81161011f5780638d928af8146104b857806390193b7c146104c057806395d89b41146104d3576102d3565b806387ec68171461049d578063893d20e8146104b0576102d3565b80637ecebe001161016b5780637ecebe001461046f5780638456cb5914610482578063851c1bb31461048a576102d3565b806370a082311461043b57806374f3b0091461044e576102d3565b806338e9922e1161023457806350dd6ed9116101e857806355c67628116101cd57806355c676281461040a5780636028bfd4146104125780636945c1fd14610433576102d3565b806350dd6ed9146103ef57806354a844ba14610402576102d3565b8063395093511161021957806339509351146103cc5780633f4ba83a146103df5780634d6d0fd0146103e7576102d3565b806338e9922e146103af57806338fff2d0146103c4576102d3565b80631dd746ea1161028b5780632541897f116102705780632541897f1461037d578063313ce567146103925780633644e515146103a7576102d3565b80631dd746ea1461035557806323b872dd1461036a576102d3565b8063095ea7b3116102bc578063095ea7b31461031657806318160ddd146103365780631c0de0511461033e576102d3565b806301ec954a146102d857806306fdde0314610301575b600080fd5b6102eb6102e6366004614024565b61056a565b6040516102f8919061456f565b60405180910390f35b610309611d99565b6040516102f891906146b3565b610329610324366004613d49565b611e2f565b6040516102f8919061454c565b6102eb611e46565b610346611e4c565b6040516102f893929190614557565b61035d611e75565b6040516102f8919061450b565b610329610378366004613c99565b611e84565b610385611ef8565b6040516102f8919061449d565b61039a611f1c565b6040516102f89190614a38565b6102eb611f25565b6103c26103bd36600461422d565b611f2f565b005b6102eb611f4b565b6103296103da366004613d49565b611f6f565b6103c2611faa565b6102eb611fbe565b6103c26103fd366004613ee3565b611fc4565b6103c2611fe2565b6102eb611ff4565b610425610420366004613d94565b612007565b6040516102f8929190614a1f565b61038561203e565b6102eb610449366004613c45565b612062565b61046161045c366004613d94565b61207d565b6040516102f892919061451e565b6102eb61047d366004613c45565b612180565b6103c261218b565b6102eb610498366004613e87565b61219d565b6104256104ab366004613d94565b6121ef565b610385612215565b610385612239565b6102eb6104ce366004613c45565b61225d565b610309612278565b6103296104e9366004613d49565b6122d9565b6103296104fc366004613d49565b612317565b610385612324565b61032961232e565b6103c261233f565b610385612351565b6103c261052f366004613cd9565b612375565b610461610542366004613d94565b612400565b6102eb610555366004613c61565b612523565b6102eb612560565b61038561256a565b6000846080015161059761057c612239565b6001600160a01b0316336001600160a01b03161460cd6125d4565b6105ac6105a2611f4b565b82146101f46125d4565b6105b46125e2565b6000865160018111156105c357fe5b14806105db57506001865160018111156105d957fe5b145b6106005760405162461bcd60e51b81526004016105f790614836565b60405180910390fd5b7f00000000000000000000000000000000000000000000000000000000000000006001600160a01b031686604001516001600160a01b0316148061067957507f00000000000000000000000000000000000000000000000000000000000000006001600160a01b031686604001516001600160a01b0316145b80610690575060408601516001600160a01b031630145b806106d057507f00000000000000000000000000000000000000000000000000000000000000006001600160a01b031686602001516001600160a01b0316145b8061071057507f00000000000000000000000000000000000000000000000000000000000000006001600160a01b031686602001516001600160a01b0316145b80610727575060208601516001600160a01b031630145b6107435760405162461bcd60e51b81526004016105f7906146c6565b606061074d6125f5565b90506107598682612768565b610761613aee565b6000808080808c51600181111561077457fe5b14156107a55761079b8c60600151878c8151811061078e57fe5b60200260200101516127d7565b60608d01526107d4565b60018c5160018111156107b457fe5b14156107d4576107ce8c60600151878b8151811061078e57fe5b60608d01525b7f00000000000000000000000000000000000000000000000000000000000000006001600160a01b03168c602001516001600160a01b0316148015610825575060008c51600181111561082357fe5b145b15610886578b606001518b7f00000000000000000000000000000000000000000000000000000000000000008151811061085b57fe5b602002602001015110156108815760405162461bcd60e51b81526004016105f79061476b565b6109b7565b7f00000000000000000000000000000000000000000000000000000000000000006001600160a01b03168c602001516001600160a01b03161480156108d7575060008c5160018111156108d557fe5b145b15610933578b606001518b7f00000000000000000000000000000000000000000000000000000000000000008151811061090d57fe5b602002602001015110156108815760405162461bcd60e51b81526004016105f79061486d565b60208c01516001600160a01b03163014801561095b575060008c51600181111561095957fe5b145b156109b7578b606001518b7f00000000000000000000000000000000000000000000000000000000000000008151811061099157fe5b602002602001015110156109b75760405162461bcd60e51b81526004016105f790614734565b6101008c015151156117ad578b61010001518060200190518101906109dc9190613e37565b90945092507f4c696d697400000000000000000000000000000000000000000000000000000091508361131557610a11613b05565b60095460c08e01516040517fca142f750000000000000000000000000000000000000000000000000000000081526001600160a01b039092169163ca142f7591610a5f9188906004016144f2565b60c06040518083038186803b158015610a7757600080fd5b505afa158015610a8b573d6000803e3d6000fd5b505050506040513d601f19601f82011682018060405250810190610aaf91906141c7565b60095460c08f015182519293506001600160a01b037f000000000000000000000000000000000000000000000000000000000000000081169392811692635778472a92908216911614610b06578360400151610b0c565b83602001515b6040518263ffffffff1660e01b8152600401610b28919061456f565b60c06040518083038186803b158015610b4057600080fd5b505afa158015610b54573d6000803e3d6000fd5b505050506040513d601f19601f82011682018060405250810190610b789190614143565b602001516001600160a01b031614610bb0577f63757272656e6379000000000000000000000000000000000000000000000000610bd2565b7f73656375726974790000000000000000000000000000000000000000000000005b92507f00000000000000000000000000000000000000000000000000000000000000006001600160a01b03168d604001516001600160a01b0316148015610c25575060008d516001811115610c2357fe5b145b15610c5d57806080015191508c606001518160a0015114610c585760405162461bcd60e51b81526004016105f790614901565b610cec565b7f00000000000000000000000000000000000000000000000000000000000000006001600160a01b03168d604001516001600160a01b0316148015610cae575060008d516001811115610cac57fe5b145b15610ce1578060a0015191508c60600151816080015114610c585760405162461bcd60e51b81526004016105f7906148a4565b610cec6101636127e3565b60007f00000000000000000000000000000000000000000000000000000000000000006001600160a01b03168e604001516001600160a01b0316148015610d3f575060208e01516001600160a01b031630145b15610d6b57507f53656c6c00000000000000000000000000000000000000000000000000000000610df3565b7f00000000000000000000000000000000000000000000000000000000000000006001600160a01b03168e604001516001600160a01b0316148015610dbc575060208e01516001600160a01b031630145b15610de857507f4275790000000000000000000000000000000000000000000000000000000000610df3565b610df36101636127e3565b7f00000000000000000000000000000000000000000000000000000000000000006001600160a01b03167fd6a806535ec4f172139ede2e9d6bbbe20957ca8a454fd40c9747fe139efe4247857f73656375726974790000000000000000000000000000000000000000000000008714610f085760095460408087015190517f5778472a0000000000000000000000000000000000000000000000000000000081526001600160a01b0390921691635778472a91610eb29160040161456f565b60c06040518083038186803b158015610eca57600080fd5b505afa158015610ede573d6000803e3d6000fd5b505050506040513d601f19601f82011682018060405250810190610f029190614143565b51610fa6565b60095460208601516040517f5778472a0000000000000000000000000000000000000000000000000000000081526001600160a01b0390921691635778472a91610f549160040161456f565b60c06040518083038186803b158015610f6c57600080fd5b505afa158015610f80573d6000803e3d6000fd5b505050506040513d601f19601f82011682018060405250810190610fa49190614143565b515b7f63757272656e6379000000000000000000000000000000000000000000000000881461106f5760095460408088015190517f5778472a0000000000000000000000000000000000000000000000000000000081526001600160a01b0390921691635778472a916110199160040161456f565b60c06040518083038186803b15801561103157600080fd5b505afa158015611045573d6000803e3d6000fd5b505050506040513d601f19601f820116820180604052508101906110699190614143565b5161110d565b60095460208701516040517f5778472a0000000000000000000000000000000000000000000000000000000081526001600160a01b0390921691635778472a916110bb9160040161456f565b60c06040518083038186803b1580156110d357600080fd5b505afa1580156110e7573d6000803e3d6000fd5b505050506040513d601f19601f8201168201806040525081019061110b9190614143565b515b8561112988608001518960a0015161280d90919063ffffffff16565b7f00000000000000000000000000000000000000000000000000000000000000008a8a606001516040516111649897969594939291906145ae565b60405180910390a261119a82608001517f000000000000000000000000000000000000000000000000000000000000000061285e565b608083015260a08201516111ce907f000000000000000000000000000000000000000000000000000000000000000061285e565b60a08301526009546040517f71eedc7f0000000000000000000000000000000000000000000000000000000081526001600160a01b037f00000000000000000000000000000000000000000000000000000000000000008116926371eedc7f9261123e92879216906004016149ce565b600060405180830381600087803b15801561125857600080fd5b505af115801561126c573d6000803e3d6000fd5b50505050600960009054906101000a90046001600160a01b03166001600160a01b031663d729cf6c8f60c00151876040518363ffffffff1660e01b81526004016112b79291906144f2565b600060405180830381600087803b1580156112d157600080fd5b505af11580156112e5573d6000803e3d6000fd5b5050505061130683898d815181106112f957fe5b602002602001015161285e565b99505050505050505050611d90565b818414801561132357508215155b156113445760408051808201909152806001815260200184905294506117a8565b826114ea577f00000000000000000000000000000000000000000000000000000000000000006001600160a01b03168c604001516001600160a01b031614806113c257507f00000000000000000000000000000000000000000000000000000000000000006001600160a01b03168c604001516001600160a01b0316145b80156113da575060208c01516001600160a01b031630145b80156113f2575060008c5160018111156113f057fe5b145b156114da5760095460c08d01516040517fd61aed7a0000000000000000000000000000000000000000000000000000000081526001600160a01b039092169163d61aed7a9161144691889190600401614578565b602060405180830381600087803b15801561146057600080fd5b505af1158015611474573d6000803e3d6000fd5b505050506040513d601f19601f820116820180604052508101906114989190614245565b90508b6060015181146114bd5760405162461bcd60e51b81526004016105f7906147d9565b6114cd81878b815181106112f957fe5b9750505050505050611d90565b6114e56101636127e3565b6117a8565b821561179d5760208c01516001600160a01b031630148015611518575060008c51600181111561151657fe5b145b1561162957600960009054906101000a90046001600160a01b03166001600160a01b03166346764e5e85858f6040518463ffffffff1660e01b815260040161156293929190614676565b602060405180830381600087803b15801561157c57600080fd5b505af1158015611590573d6000803e3d6000fd5b505050506040513d601f19601f820116820180604052508101906115b49190614245565b90506115c4818d606001516125a6565b90507f9b85ff671b830162b81f1cb1253d54a6fee66e6f9760fc15cfc3fecccca8f1188c60c001518d602001518e604001518f6060015187428a60405161161197969594939291906144b1565b60405180910390a16114cd81878b815181106112f957fe5b60408c01516001600160a01b031630148015611651575060008c51600181111561164f57fe5b145b156114da57600960009054906101000a90046001600160a01b03166001600160a01b03166346764e5e85858f6040518463ffffffff1660e01b815260040161169b93929190614676565b602060405180830381600087803b1580156116b557600080fd5b505af11580156116c9573d6000803e3d6000fd5b505050506040513d601f19601f820116820180604052508101906116ed9190614245565b90506116fd8c60600151826125a6565b9050808b7f00000000000000000000000000000000000000000000000000000000000000008151811061172c57fe5b602002602001015110156117525760405162461bcd60e51b81526004016105f79061495e565b7f9b85ff671b830162b81f1cb1253d54a6fee66e6f9760fc15cfc3fecccca8f1188c60c001518d602001518e604001518f6060015187428a60405161161197969594939291906144b1565b6117a86101636127e3565b6117c4565b604080518082019091526000808252602082015294505b600a548c6060015110156117ea5760405162461bcd60e51b81526004016105f7906146fd565b6000855160028111156117f957fe5b1415611af6577f00000000000000000000000000000000000000000000000000000000000000006001600160a01b03168c602001516001600160a01b0316148061187857507f00000000000000000000000000000000000000000000000000000000000000006001600160a01b03168c602001516001600160a01b0316145b15611927576009546040517f5487e8cf0000000000000000000000000000000000000000000000000000000081526001600160a01b0390911690635487e8cf906118c8908f908990600401614995565b606060405180830381600087803b1580156118e257600080fd5b505af11580156118f6573d6000803e3d6000fd5b505050506040513d601f19601f8201168201806040525081019061191a9190613e5a565b9094509092509050611932565b6119326101636127e3565b8061194f5760405162461bcd60e51b81526004016105f7906147a2565b7f9b85ff671b830162b81f1cb1253d54a6fee66e6f9760fc15cfc3fecccca8f1188c60c001518d602001518e604001518f606001518960200151888860405161199e97969594939291906144b1565b60405180910390a160008c5160018111156119b557fe5b1415611a4e577f00000000000000000000000000000000000000000000000000000000000000006001600160a01b03168c602001516001600160a01b03161480611a3457507f00000000000000000000000000000000000000000000000000000000000000006001600160a01b03168c602001516001600160a01b0316145b15611a49576114cd81878b815181106112f957fe5b611af1565b60018c516001811115611a5d57fe5b1415611af1577f00000000000000000000000000000000000000000000000000000000000000006001600160a01b03168c604001516001600160a01b03161480611adc57507f00000000000000000000000000000000000000000000000000000000000000006001600160a01b03168c604001516001600160a01b0316145b15611af1576114cd81878c815181106112f957fe5b611d89565b7f00000000000000000000000000000000000000000000000000000000000000006001600160a01b03168c602001516001600160a01b03161480611b6f57507f00000000000000000000000000000000000000000000000000000000000000006001600160a01b03168c602001516001600160a01b0316145b8015611b87575060408c01516001600160a01b031630145b8015611b9f575060008c516001811115611b9d57fe5b145b15611d13578b606001518b7f000000000000000000000000000000000000000000000000000000000000000081518110611bd557fe5b60200260200101511115611d0357611c248b7f000000000000000000000000000000000000000000000000000000000000000081518110611c1257fe5b60200260200101518d606001516125a6565b8b7f000000000000000000000000000000000000000000000000000000000000000081518110611c5057fe5b60209081029190910101526009546040517f5487e8cf0000000000000000000000000000000000000000000000000000000081526001600160a01b0390911690635487e8cf90611ca6908f908990600401614995565b606060405180830381600087803b158015611cc057600080fd5b505af1158015611cd4573d6000803e3d6000fd5b505050506040513d601f19601f82011682018060405250810190611cf89190613e5a565b50909250611d0e9050565b611d0e6102016127e3565b611d1e565b611d1e6101636127e3565b7f9b85ff671b830162b81f1cb1253d54a6fee66e6f9760fc15cfc3fecccca8f1188c60c001518d602001518e604001518f6060015189602001514288604051611d6d97969594939291906144b1565b60405180910390a16114cd8c60600151878b815181106112f957fe5b5050505050505b50949350505050565b60038054604080516020601f6002600019610100600188161502019095169490940493840181900481028201810190925282815260609390929091830182828015611e255780601f10611dfa57610100808354040283529160200191611e25565b820191906000526020600020905b815481529060010190602001808311611e0857829003601f168201915b5050505050905090565b6000611e3c33848461286a565b5060015b92915050565b60025490565b6000806000611e596128d2565b159250611e646128ef565b9150611e6e612913565b9050909192565b6060611e7f6125f5565b905090565b600080611e918533612523565b9050611eb5336001600160a01b0387161480611ead5750838210155b61019e6125d4565b611ec0858585612937565b336001600160a01b03861614801590611edb57506000198114155b15611eed57611eed853385840361286a565b506001949350505050565b7f000000000000000000000000000000000000000000000000000000000000000090565b60055460ff1690565b6000611e7f612560565b611f37612a17565b611f3f6125e2565b611f4881612a5d565b50565b7f000000000000000000000000000000000000000000000000000000000000000090565b3360008181526001602090815260408083206001600160a01b03871684529091528120549091611e3c918590611fa59086612ad6565b61286a565b611fb2612a17565b611fbc6000612ae8565b565b600a5490565b611fcc612a17565b611fd46125e2565b611fde8282612b79565b5050565b611fea612a17565b611fbc6001612c87565b600854600090611e7f9060c0603f612cde565b6000606061201d8651612018612ced565b612cf2565b61203289898989898989612cff612d51612dba565b97509795505050505050565b7f000000000000000000000000000000000000000000000000000000000000000090565b6001600160a01b031660009081526020819052604090205490565b6060808861208c61057c612239565b6120976105a2611f4b565b606060006120a486612f6f565b156120cc576120b1612f9e565b6120c3896120bd611e46565b88612fb1565b9250905061211e565b6120d4612fdd565b60606120de6125f5565b90506120ea8a82612768565b61210e8d8d8d8d8d6120fa61232e565b612104578d612107565b60005b878e612cff565b9350915061211c8382612d51565b505b6121288b82612fe5565b81895167ffffffffffffffff8111801561214157600080fd5b5060405190808252806020026020018201604052801561216b578160200160208202803683370190505b509450945050505b5097509795505050505050565b6000611e408261225d565b612193612a17565b611fbc6001612ae8565b60007f0000000000000000000000000000000000000000000000000000000000000000826040516020016121d2929190614427565b604051602081830303815290604052805190602001209050919050565b600060606122008651612018612ced565b61203289898989898989612fef61300b612dba565b7f000000000000000000000000000000000000000000000000000000000000000090565b7f000000000000000000000000000000000000000000000000000000000000000090565b6001600160a01b031660009081526006602052604090205490565b60048054604080516020601f6002600019610100600188161502019095169490940493840181900481028201810190925282815260609390929091830182828015611e255780601f10611dfa57610100808354040283529160200191611e25565b6000806122e63385612523565b9050808310612300576122fb3385600061286a565b61230d565b61230d338585840361286a565b5060019392505050565b6000611e3c338484612937565b6000611e7f613074565b600854600090611e7f9060ff6130ee565b612347612a17565b611fbc6000612c87565b7f000000000000000000000000000000000000000000000000000000000000000090565b60007f6e71edae12b1b97f4d1f60370fef10105fa2faae0126114a169c64845d6126c98888886123a48c61225d565b896040516020016123ba969594939291906145f5565b6040516020818303038152906040528051906020012090506123eb88826123e28787876130f8565b886101f8613137565b6123f688888861286a565b5050505050505050565b6060808861240f61057c612239565b61241a6105a2611f4b565b612422612fdd565b606061242c6125f5565b9050612436611e46565b6124e3576000606061244b8d8d8d868b61318e565b9150915061246461245a6132b3565b83101560cc6125d4565b61247660006124716132b3565b6132ba565b6124898b6124826132b3565b84036132ba565b612493818461300b565b808a5167ffffffffffffffff811180156124ac57600080fd5b506040519080825280602002602001820160405280156124d6578160200160208202803683370190505b5095509550505050612173565b6124ed8882612768565b600060606125158d8d8d8d8d61250161232e565b61250b578d61250e565b60005b898e612fef565b915091506124898b836132ba565b600061252d612239565b6001600160a01b0316826001600160a01b0316141561254f5750600019611e40565b61255983836132c4565b9050611e40565b6000611e7f6132ef565b6009546001600160a01b031681565b80611fde8161338c565b600061259084848461340a565b506001901b60001901811b1992909216911b1790565b60006125b68383111560016125d4565b50900390565b60008183106125cb57816125cd565b825b9392505050565b81611fde57611fde816127e3565b611fbc6125ed6128d2565b6101926125d4565b60606000612601612ced565b905060608167ffffffffffffffff8111801561261c57600080fd5b50604051908082528060200260200182016040528015612646578160200160208202803683370190505b50905060005b82811015612761577f00000000000000000000000000000000000000000000000000000000000000008114156126ba577f00000000000000000000000000000000000000000000000000000000000000008282815181106126a957fe5b602002602001018181525050612759565b7f000000000000000000000000000000000000000000000000000000000000000081141561270f577f00000000000000000000000000000000000000000000000000000000000000008282815181106126a957fe5b7f000000000000000000000000000000000000000000000000000000000000000081141561275957670de0b6b3a764000082828151811061274c57fe5b6020026020010181815250505b60010161264c565b5091505090565b81518151612777908290612cf2565b60005b818110156127d1576127b284828151811061279157fe5b60200260200101518483815181106127a557fe5b6020026020010151613451565b8482815181106127be57fe5b602090810291909101015260010161277a565b50505050565b60006125cd8383613451565b611f48817f42414c0000000000000000000000000000000000000000000000000000000000613487565b600061281c82151560046125d4565b8261282957506000611e40565b670de0b6b3a76400008381029061284c9085838161284357fe5b041460056125d4565b82818161285557fe5b04915050611e40565b60006125cd838361280d565b6001600160a01b0380841660008181526001602090815260408083209487168084529490915290819020849055517f8c5be1e5ebec7d5bd14f71427d1e84f3dd0314c0f7b2291e5b200ac8c7c3b925906128c590859061456f565b60405180910390a3505050565b60006128dc612913565b421180611e7f57505060075460ff161590565b7f000000000000000000000000000000000000000000000000000000000000000090565b7f000000000000000000000000000000000000000000000000000000000000000090565b61294e6001600160a01b03841615156101986125d4565b6129656001600160a01b03831615156101996125d4565b612970838383613405565b6001600160a01b03831660009081526020819052604090205461299690826101a06134e8565b6001600160a01b0380851660009081526020819052604080822093909355908416815220546129c59082612ad6565b6001600160a01b0380841660008181526020819052604090819020939093559151908516907fddf252ad1be2c89b69c2b068fc378daa952ba7f163c4a11628f55a4df523b3ef906128c590859061456f565b6000612a466000357fffffffff000000000000000000000000000000000000000000000000000000001661219d565b9050611f48612a5582336134fe565b6101916125d4565b612a72612a686135e7565b82101560cb6125d4565b612a87612a7d6135f0565b82111560ca6125d4565b600854612a98908260c0603f612583565b6008556040517fa9ba3ffe0b6c366b81232caab38605a0699ad5398d6cce76f91ee809e322dafc90612acb90839061456f565b60405180910390a150565b60008282016125cd84821015836125d4565b8015612b0857612b03612af96128ef565b42106101936125d4565b612b1d565b612b1d612b13612913565b42106101a96125d4565b600780547fffffffffffffffffffffffffffffffffffffffffffffffffffffffffffffff00168215151790556040517f9e3a5e37224532dea67b89face185703738a228a6e8a23dee546960180d3be6490612acb90839061454c565b6000612b83611f4b565b90506000612b8f612239565b6001600160a01b031663b05f8e4883866040518363ffffffff1660e01b8152600401612bbc929190614578565b60806040518083038186803b158015612bd457600080fd5b505afa158015612be8573d6000803e3d6000fd5b505050506040513d601f19601f82011682018060405250810190612c0c919061425d565b6040517f18e736d40000000000000000000000000000000000000000000000000000000081529094506001600160a01b03851693506318e736d49250612c59915085908790600401614655565b600060405180830381600087803b158015612c7357600080fd5b505af11580156123f6573d6000803e3d6000fd5b600854612c96908260ff6135fc565b6008556040517feff3d4d215b42bf0960be9c6d5e05c22cba4df6627a3a523e2acee733b5854c890612cc990839061454c565b60405180910390a180611f4857611f48611fbc565b6001901b6000190191901c1690565b600390565b611fde81831460676125d4565b600060606000612d0e84613623565b90506001816001811115612d1e57fe5b14612d3357612d2e6101636127e3565b612d43565b612d3d8885613639565b90935091505b509850989650505050505050565b81518151612d60908290612cf2565b60005b818110156127d157612d9b848281518110612d7a57fe5b6020026020010151848381518110612d8e57fe5b602002602001015161280d565b848281518110612da757fe5b6020908102919091010152600101612d63565b333014612ea9576000306001600160a01b0316600036604051612dde929190614457565b6000604051808303816000865af19150503d8060008114612e1b576040519150601f19603f3d011682016040523d82523d6000602084013e612e20565b606091505b505090508060008114612e2f57fe5b60046000803e6000517fffffffff00000000000000000000000000000000000000000000000000000000167f43adbafb000000000000000000000000000000000000000000000000000000008114612e8b573d6000803e3d6000fd5b506020600460003e604060205260243d03602460403e601c3d016000f35b612eb1612fdd565b6060612ebb6125f5565b9050612ec78782612768565b60006060612edf8c8c8c8c8c8c898d8d63ffffffff16565b91509150612ef181848663ffffffff16565b80517fffffffffffffffffffffffffffffffffffffffffffffffffffffffffffffffe082018390526343adbafb7fffffffffffffffffffffffffffffffffffffffffffffffffffffffffffffffc08301526020027fffffffffffffffffffffffffffffffffffffffffffffffffffffffffffffffdc82016044820181fd5b6000808251118015611e40575060ff801682806020019051810190612f94919061429d565b60ff161492915050565b611fbc612fa961232e565b6101b66125d4565b600060606000612fc0846136dc565b90506060612fcf8787846136f2565b919791965090945050505050565b611fbc6125e2565b611fde82826137a1565b60006060612ffe6101636127e3565b9850989650505050505050565b8151815161301a908290612cf2565b60005b818110156127d15761305584828151811061303457fe5b602002602001015184838151811061304857fe5b602002602001015161386d565b84828151811061306157fe5b602090810291909101015260010161301d565b600061307e612239565b6001600160a01b031663aaabadc56040518163ffffffff1660e01b815260040160206040518083038186803b1580156130b657600080fd5b505afa1580156130ca573d6000803e3d6000fd5b505050506040513d601f19601f82011682018060405250810190611e7f9190613ec7565b1c60019081161490565b60408051604180825260808201909252606091829190602082018180368337019050509050836020820152826040820152846060820153949350505050565b6000613142856138bb565b90506131586131528783876138d7565b836125d4565b613167428410156101b86125d4565b5050506001600160a01b039092166000908152600660205260409020805460010190555050565b6000606061319a6125e2565b7f00000000000000000000000000000000000000000000000000000000000000006131d56001600160a01b03888116908316146101566125d4565b6131f5816001600160a01b0316876001600160a01b0316146101566125d4565b6060613200856139a4565b905061325f817f00000000000000000000000000000000000000000000000000000000000000008151811061323157fe5b60200260200101517f00000000000000000000000000000000000000000000000000000000000000006127d7565b817f00000000000000000000000000000000000000000000000000000000000000008151811061328b57fe5b60209081029190910101526dffffffffffffffffffffffffffff999098509650505050505050565b620f424090565b611fde82826139ba565b6001600160a01b03918216600090815260016020908152604080832093909416825291909152205490565b60007f00000000000000000000000000000000000000000000000000000000000000007f00000000000000000000000000000000000000000000000000000000000000007f000000000000000000000000000000000000000000000000000000000000000061335c613a4d565b30604051602001613371959493929190614629565b60405160208183030381529060405280519060200120905090565b60028151101561339b57611f48565b6000816000815181106133aa57fe5b602002602001015190506000600190505b82518110156134055760008382815181106133d257fe5b602002602001015190506133fb816001600160a01b0316846001600160a01b03161060656125d4565b91506001016133bb565b505050565b613419610100831060646125d4565b6134426001821015801561343b575061343760ff84610100036125bc565b8211155b60646125d4565b61340583821c156101b46125d4565b600082820261347584158061346e57508385838161346b57fe5b04145b60036125d4565b670de0b6b3a764000090049392505050565b62461bcd60e51b600090815260206004526007602452600a808404818106603090810160081b958390069590950190829004918206850160101b01602363ffffff0060e086901c160160181b0190930160c81b60445260e882901c90606490fd5b60006134f784841115836125d4565b5050900390565b600073ba1ba1ba1ba1ba1ba1ba1ba1ba1ba1ba1ba1ba1b61351d612215565b6001600160a01b031614158015613538575061353883613a51565b1561356057613545612215565b6001600160a01b0316336001600160a01b0316149050611e40565b613568613074565b6001600160a01b0316639be2a8848484306040518463ffffffff1660e01b81526004016135979392919061458f565b60206040518083038186803b1580156135af57600080fd5b505afa1580156135c3573d6000803e3d6000fd5b505050506040513d601f19601f820116820180604052508101906125599190613d74565b64e8d4a5100090565b67016345785d8a000090565b60006001821b1984168284613612576000613615565b60015b60ff16901b17949350505050565b600081806020019051810190611e409190613f31565b60006060600061364884613abf565b90506060855167ffffffffffffffff8111801561366457600080fd5b5060405190808252806020026020018201604052801561368e578160200160208202803683370190505b50905060005b86518110156136d0578681815181106136a957fe5b60200260200101518282815181106136bd57fe5b6020908102919091010152600101613694565b50909590945092505050565b6000818060200190518101906125cd91906142b9565b60606000613700838561280d565b9050845167ffffffffffffffff8111801561371a57600080fd5b50604051908082528060200260200182016040528015613744578160200160208202803683370190505b50915060005b8551811015613798576137798287838151811061376357fe5b602002602001015161345190919063ffffffff16565b83828151811061378557fe5b602090810291909101015260010161374a565b50509392505050565b6137b86001600160a01b038316151561019b6125d4565b6137c482600083613405565b6001600160a01b0382166000908152602081905260409020546137ea90826101b26134e8565b6001600160a01b03831660009081526020819052604090205561381d61381882613812611e46565b90613ad5565b613ae3565b60006001600160a01b0316826001600160a01b03167fddf252ad1be2c89b69c2b068fc378daa952ba7f163c4a11628f55a4df523b3ef83604051613861919061456f565b60405180910390a35050565b600061387c82151560046125d4565b8261388957506000611e40565b670de0b6b3a7640000838102906138a39085838161284357fe5b8260018203816138af57fe5b04600101915050611e40565b60006138c56132ef565b826040516020016121d2929190614467565b60006138e982516041146101b96125d4565b60208281015160408085015160608601518251600080825295019283905292939092811a91600190613922908990859088908890614695565b6020604051602081039080840390855afa158015613944573d6000803e3d6000fd5b50506040517fffffffffffffffffffffffffffffffffffffffffffffffffffffffffffffffe001519150506001600160a01b038116158015906139985750876001600160a01b0316816001600160a01b0316145b98975050505050505050565b6060818060200190518101906125cd9190613f7a565b6139c660008383613405565b6139db613818826139d5611e46565b90612ad6565b6001600160a01b0382166000908152602081905260409020546139fe9082612ad6565b6001600160a01b0383166000818152602081905260408082209390935591519091907fddf252ad1be2c89b69c2b068fc378daa952ba7f163c4a11628f55a4df523b3ef9061386190859061456f565b4690565b6000613a7c7f38e9922e0000000000000000000000000000000000000000000000000000000061219d565b821480613ab05750613aad7f50dd6ed90000000000000000000000000000000000000000000000000000000061219d565b82145b80611e405750611e4082613ae8565b6000818060200190518101906125cd9190613f4d565b60006125cd838360016134e8565b600255565b50600090565b604080518082019091526000808252602082015290565b6040805160c081018252600080825260208201819052918101829052606081018290526080810182905260a081019190915290565b8035611e4081614a8d565b600082601f830112613b55578081fd5b8135613b68613b6382614a6d565b614a46565b818152915060208083019084810181840286018201871015613b8957600080fd5b60005b84811015613ba857813584529282019290820190600101613b8c565b505050505092915050565b600082601f830112613bc3578081fd5b813567ffffffffffffffff811115613bd9578182fd5b613c0a60207fffffffffffffffffffffffffffffffffffffffffffffffffffffffffffffffe0601f84011601614a46565b9150808252836020828501011115613c2157600080fd5b8060208401602084013760009082016020015292915050565b8035611e4081614aa2565b600060208284031215613c56578081fd5b81356125cd81614a8d565b60008060408385031215613c73578081fd5b8235613c7e81614a8d565b91506020830135613c8e81614a8d565b809150509250929050565b600080600060608486031215613cad578081fd5b8335613cb881614a8d565b92506020840135613cc881614a8d565b929592945050506040919091013590565b600080600080600080600060e0888a031215613cf3578485fd5b8735613cfe81614a8d565b96506020880135613d0e81614a8d565b955060408801359450606088013593506080880135613d2c81614aaf565b9699959850939692959460a0840135945060c09093013592915050565b60008060408385031215613d5b578182fd5b8235613d6681614a8d565b946020939093013593505050565b600060208284031215613d85578081fd5b815180151581146125cd578182fd5b600080600080600080600060e0888a031215613dae578081fd5b873596506020880135613dc081614a8d565b95506040880135613dd081614a8d565b9450606088013567ffffffffffffffff80821115613dec578283fd5b613df88b838c01613b45565b955060808a0135945060a08a0135935060c08a0135915080821115613e1b578283fd5b50613e288a828b01613bb3565b91505092959891949750929550565b60008060408385031215613e49578182fd5b505080516020909101519092909150565b600080600060608486031215613e6e578081fd5b8351925060208401519150604084015190509250925092565b600060208284031215613e98578081fd5b81357fffffffff00000000000000000000000000000000000000000000000000000000811681146125cd578182fd5b600060208284031215613ed8578081fd5b81516125cd81614a8d565b60008060408385031215613ef5578182fd5b8235613f0081614a8d565b9150602083013567ffffffffffffffff811115613f1b578182fd5b613f2785828601613bb3565b9150509250929050565b600060208284031215613f42578081fd5b81516125cd81614aa2565b60008060408385031215613f5f578182fd5b8251613f6a81614aa2565b6020939093015192949293505050565b60008060408385031215613f8c578182fd5b825160048110613f9a578283fd5b8092505060208084015167ffffffffffffffff811115613fb8578283fd5b8401601f81018613613fc8578283fd5b8051613fd6613b6382614a6d565b81815283810190838501858402850186018a1015613ff2578687fd5b8694505b83851015614014578051835260019490940193918501918501613ff6565b5080955050505050509250929050565b60008060008060808587031215614039578182fd5b843567ffffffffffffffff80821115614050578384fd5b818701915061012080838a031215614066578485fd5b61406f81614a46565b905061407b8984613c3a565b815261408a8960208501613b3a565b602082015261409c8960408501613b3a565b6040820152606083013560608201526080830135608082015260a083013560a08201526140cc8960c08501613b3a565b60c08201526140de8960e08501613b3a565b60e082015261010080840135838111156140f6578687fd5b6141028b828701613bb3565b82840152505080965050602087013591508082111561411f578384fd5b5061412c87828801613b45565b949794965050505060408301359260600135919050565b600060c08284031215614154578081fd5b61415e60c0614a46565b825161416981614a8d565b8152602083015161417981614a8d565b602082015260408301516003811061418f578283fd5b60408201526060830151600581106141a5578283fd5b60608201526080838101519082015260a0928301519281019290925250919050565b600060c082840312156141d8578081fd5b6141e260c0614a46565b82516141ed81614a8d565b808252506020830151602082015260408301516040820152606083015160608201526080830151608082015260a083015160a08201528091505092915050565b60006020828403121561423e578081fd5b5035919050565b600060208284031215614256578081fd5b5051919050565b60008060008060808587031215614272578182fd5b845193506020850151925060408501519150606085015161429281614a8d565b939692955090935050565b6000602082840312156142ae578081fd5b81516125cd81614aaf565b600080604083850312156142cb578182fd5b8251613f6a81614aaf565b6001600160a01b03169052565b6000815180845260208085019450808401835b83811015614312578151875295820195908201906001016142f6565b509495945050505050565b60008151808452815b8181101561434257602081850181015186830182015201614326565b818111156143535782602083870101525b50601f017fffffffffffffffffffffffffffffffffffffffffffffffffffffffffffffffe0169290920160200192915050565b600061012082516002811061439757fe5b8085525060208301516143ad60208601826142d6565b5060408301516143c060408601826142d6565b50606083015160608501526080830151608085015260a083015160a085015260c08301516143f160c08601826142d6565b5060e083015161440460e08601826142d6565b5061010080840151828287015261441d8387018261431d565b9695505050505050565b9182527fffffffff0000000000000000000000000000000000000000000000000000000016602082015260240190565b6000828483379101908152919050565b7f190100000000000000000000000000000000000000000000000000000000000081526002810192909252602282015260420190565b6001600160a01b0391909116815260200190565b6001600160a01b03978816815295871660208701529390951660408501526060840191909152608083015260a082019290925260c081019190915260e00190565b6001600160a01b03929092168252602082015260400190565b6000602082526125cd60208301846142e3565b60006040825261453160408301856142e3565b828103602084015261454381856142e3565b95945050505050565b901515815260200190565b92151583526020830191909152604082015260600190565b90815260200190565b9182526001600160a01b0316602082015260400190565b9283526001600160a01b03918216602084015216604082015260600190565b9788526001600160a01b03968716602089015294861660408801526060870193909352608086019190915290921660a084015260c083019190915260e08201526101000190565b9586526001600160a01b0394851660208701529290931660408501526060840152608083019190915260a082015260c00190565b9485526020850193909352604084019190915260608301526001600160a01b0316608082015260a00190565b60008382526040602083015261466e604083018461431d565b949350505050565b6000848252836020830152606060408301526145436060830184614386565b93845260ff9290921660208401526040830152606082015260800190565b6000602082526125cd602083018461431d565b60208082526016908201527f496e76616c6964207377617070656420746f6b656e7300000000000000000000604082015260600190565b60208082526018908201527f4f726465722062656c6f77206d696e696d756d2073697a650000000000000000604082015260600190565b6020808252601f908201527f496e73756666696369656e7420706f6f6c20746f6b656e2062616c616e636500604082015260600190565b6020808252601d908201527f496e73756666696369656e742063757272656e63792062616c616e6365000000604082015260600190565b60208082526016908201527f496e73756666696369656e74206c697175696469747900000000000000000000604082015260600190565b60208082526023908201527f496e73756666696369656e7420706f6f6c20746f6b656e73207377617070656460408201527f20696e0000000000000000000000000000000000000000000000000000000000606082015260800190565b6020808252600c908201527f496e76616c696420737761700000000000000000000000000000000000000000604082015260600190565b6020808252601d908201527f496e73756666696369656e742073656375726974792062616c616e6365000000604082015260600190565b60208082526030908201527f496e73756666696369656e7420706f6f6c20746f6b656e73207377617070656460408201527f20696e20666f722063757272656e637900000000000000000000000000000000606082015260800190565b60208082526030908201527f496e73756666696369656e7420706f6f6c20746f6b656e73207377617070656460408201527f20696e20666f7220736563757269747900000000000000000000000000000000606082015260800190565b6020808252601d908201527f494e53554646494349454e545f494e5445524e414c5f42414c414e4345000000604082015260600190565b6000606082526149a86060830185614386565b90508251600381106149b657fe5b80602084015250602083015160408301529392505050565b82516001600160a01b0390811682526020808501519083015260408085015190830152606080850151908301526080808501519083015260a09384015193820193909352911660c082015260e00190565b60008382526040602083015261466e60408301846142e3565b60ff91909116815260200190565b60405181810167ffffffffffffffff81118282101715614a6557600080fd5b604052919050565b600067ffffffffffffffff821115614a83578081fd5b5060209081020190565b6001600160a01b0381168114611f4857600080fd5b60028110611f4857600080fd5b60ff81168114611f4857600080fdfea2646970667358221220f78bf37d7689ac1bcec791d72df730acf1acadf47d7587bd6e50ec6f90d485c364736f6c63430007010033608060405260006005553480156200001657600080fd5b506040516200398638038062003986833981016040819052620000399162000106565b620000443362000098565b600b80546001600160a01b039586166001600160a01b0319918216179091556009805494861694821694909417909355600a805492851692841692909217909155600c805491909316911617905562000166565b600080546001600160a01b038381166001600160a01b0319831681178455604051919092169283917f8be0079c531659141344cd1fd0a4f28419497f9722a3daafe3b4186f6b6457e09190a35050565b80516001600160a01b03811681146200010057600080fd5b92915050565b600080600080608085870312156200011c578384fd5b620001288686620000e8565b9350620001398660208701620000e8565b92506200014a8660408701620000e8565b91506200015b8660608701620000e8565b905092959194509250565b61381080620001766000396000f3fe608060405234801561001057600080fd5b50600436106101005760003560e01c806381b5da1d11610097578063d729cf6c11610066578063d729cf6c14610202578063e43372e914610215578063e5e658fe1461021d578063f2fde38b1461023057610100565b806381b5da1d146101b45780638da5cb5b146101c7578063ca142f75146101cf578063d61aed7a146101ef57610100565b80635487e8cf116100d35780635487e8cf146101605780635778472a146101825780636945c1fd146101a2578063715018a6146101aa57610100565b80632541897f1461010557806338fff2d01461012357806346764e5e1461013857806346b8b7301461014b575b600080fd5b61010d610243565b60405161011a91906134a1565b60405180910390f35b61012b610252565b60405161011a91906134ed565b61012b610146366004613386565b6102e1565b610153610460565b60405161011a91906134b5565b61017361016e3660046133d4565b610555565b60405161011a939291906134f6565b6101956101903660046132db565b610816565b60405161011a91906136ea565b61010d610947565b6101b2610956565b005b6101b26101c236600461333a565b61096e565b61010d610ad3565b6101e26101dd3660046132b0565b610ae2565b60405161011a9190613751565b61012b6101fd36600461330b565b610ba6565b6101b26102103660046132b0565b610d52565b610153610df6565b6101b261022b366004613365565b610e57565b6101b261023e366004613294565b610fbe565b6009546001600160a01b031690565b600080600c60009054906101000a90046001600160a01b03166001600160a01b03166338fff2d06040518163ffffffff1660e01b815260040160206040518083038186803b1580156102a357600080fd5b505afa1580156102b7573d6000803e3d6000fd5b505050506040513d601f19601f820116820180604052508101906102db91906132f3565b91505090565b6000610301336102ef610ad3565b6001600160a01b0316146101aa610fed565b6000808581526006602052604090206001015474010000000000000000000000000000000000000000900460ff16600281111561033a57fe5b14156103615760405162461bcd60e51b81526004016103589061357a565b60405180910390fd5b60026000858152600660205260409020600101547501000000000000000000000000000000000000000000900460ff16600481111561039c57fe5b146103b95760405162461bcd60e51b81526004016103589061361f565b60c08201516000858152600660205260409020546001600160a01b039081169116146103f75760405162461bcd60e51b8152600401610358906135e8565b6000848152600660205260408120600381018590556009546001909101546001600160a01b0390811691161461042e576001610431565b60005b905061043e848683610ffb565b5050600092835260066020526040909220600201805460609093015190555090565b600354606090819067ffffffffffffffff8111801561047e57600080fd5b506040519080825280602002602001820160405280156104a8578160200160208202803683370190505b5090506000805b60035481101561054d57336001600160a01b031660066000600384815481106104d457fe5b600091825260208083206001600290930201919091015483528201929092526040019020546001600160a01b03161415610545576003818154811061051557fe5b90600052602060002090600202016001015483838151811061053357fe5b60209081029190910101526001909101905b6001016104af565b509091505090565b60008080610565336102ef610ad3565b60008451600281111561057457fe5b148061058c575060018451600281111561058a57fe5b145b61059557600080fd5b6005544214156105ad576005805460010190556105b2565b426005555b60008560c001516005546040516020016105cd92919061346c565b6040516020818303038152906040528051906020012090506105ed6130ac565b6040518060c001604052808860c001516001600160a01b0316815260200188602001516001600160a01b031681526020018760000151600281111561062e57fe5b815260200160028152606089015160208083019190915288810151604092830152600085815260068252829020835181547fffffffffffffffffffffffff00000000000000000000000000000000000000009081166001600160a01b039283161783559285015160018301805490941691161780835592840151939450849390929091907fffffffffffffffffffffff00ffffffffffffffffffffffffffffffffffffffff16740100000000000000000000000000000000000000008360028111156106f657fe5b021790555060608201516001820180547fffffffffffffffffffff00ffffffffffffffffffffffffffffffffffffffffff16750100000000000000000000000000000000000000000083600481111561074b57fe5b02179055506080820151600282015560a09091015160039091015560008651600281111561077557fe5b141561079457610787828260006110a0565b945094509450505061080f565b6001865160028111156107a357fe5b141561080c5760095460208201516001600160a01b03908116911614156107d7576107d2866020015183611901565b610800565b600a5460208201516001600160a01b039081169116141561080057610800866020015183611b1a565b610787828260016110a0565b50505b9250925092565b61081e6130ac565b610826610ad3565b6001600160a01b0316336001600160a01b0316148061084f5750600b546001600160a01b031633145b8061087057506000828152600660205260409020546001600160a01b031633145b61088c5760405162461bcd60e51b815260040161035890613543565b600082815260066020908152604091829020825160c08101845281546001600160a01b0390811682526001830154908116938201939093529290919083019074010000000000000000000000000000000000000000900460ff1660028111156108f157fe5b60028111156108fc57fe5b81526020016001820160159054906101000a900460ff16600481111561091e57fe5b600481111561092957fe5b81526002820154602082015260039091015460409091015292915050565b600a546001600160a01b031690565b610962336102ef610ad3565b61096c6000611d2f565b565b600b546001600160a01b031633148061099f575061098a610ad3565b6001600160a01b0316336001600160a01b0316145b6109bb5760405162461bcd60e51b8152600401610358906135b1565b600092835260066020908152604080852080547fffffffffffffffffffffffff00000000000000000000000000000000000000009081168255600180830180547fffffffffffffffffffff0000000000000000000000000000000000000000000090811690915560028085018a905560038086018b9055988a52858a2080548516815580840180549093169092558181018a90558189018a905593546001600160a01b039081168a526007808852868b20898c528852868b208054861681558085018c90558087018c9055808b018c905560048082018d905560059182018d905593549092168b528752858a20978a529690955292872080549091168155918201869055810185905592830184905582018390550155565b6000546001600160a01b031690565b610aea6130e2565b610af2610ad3565b6001600160a01b0316336001600160a01b03161480610b195750336001600160a01b038416145b610b355760405162461bcd60e51b815260040161035890613656565b506001600160a01b038083166000908152600760209081526040808320858452825291829020825160c0810184528154909416845260018101549184019190915260028101549183019190915260038101546060830152600481015460808301526005015460a08201525b92915050565b6000610bb4336102ef610ad3565b6000808481526006602052604090206001015474010000000000000000000000000000000000000000900460ff166002811115610bed57fe5b1415610c0b5760405162461bcd60e51b81526004016103589061368d565b60026000848152600660205260409020600101547501000000000000000000000000000000000000000000900460ff166004811115610c4657fe5b14610c635760405162461bcd60e51b81526004016103589061361f565b6000838152600660205260409020546001600160a01b03838116911614610c9c5760405162461bcd60e51b8152600401610358906135e8565b60095460008481526006602052604081206001015490916001600160a01b03918216911614610ccc576001610ccf565b60005b9050610cdb8482611d97565b505050600090815260066020526040812060028101805482547fffffffffffffffffffffffff00000000000000000000000000000000000000001683556001830180547fffffffffffffffffffff000000000000000000000000000000000000000000001690559083905560039091019190915590565b610d5e336102ef610ad3565b60005b6001600160a01b038316600090815260086020526040902054811015610df1576001600160a01b0383166000908152600860205260409020805483919083908110610da857fe5b90600052602060002001541415610de9576001600160a01b0383166000908152600860205260409020805482908110610ddd57fe5b60009182526020822001555b600101610d61565b505050565b33600090815260086020908152604091829020805483518184028101840190945280845260609392830182828015610e4d57602002820191906000526020600020905b815481526020019060010190808311610e39575b5050505050905090565b600b546001600160a01b0316331480610e885750610e73610ad3565b6001600160a01b0316336001600160a01b0316145b610ea45760405162461bcd60e51b8152600401610358906135b1565b60008281526006602052604090206002808201805484019055600191820180547fffffffffffffffffffff00ffffffffffffffffffffffffffffffffffffffffff167502000000000000000000000000000000000000000000179081905574010000000000000000000000000000000000000000900460ff1690811115610f2757fe5b1415610fba576009546000838152600660205260409020600101546001600160a01b0390811691161415610f7657600082815260066020526040902060030154610f719083611901565b610fba565b600a546000838152600660205260409020600101546001600160a01b0390811691161415610fba57600082815260066020526040902060030154610fba9083611b1a565b5050565b610fca336102ef610ad3565b610fe16001600160a01b03821615156101ab610fed565b610fea81611d2f565b50565b81610fba57610fba81611f3e565b80156110515760008281526002602052604090205460018054859290811061101f57fe5b6000918252602080832060029283020193909355848252909152604090205461104c5761104c6000611f68565b610df1565b60008281526004602052604090205460038054859290811061106f57fe5b6000918252602080832060029092029091019290925583815260049091526040902054610df157610df16000612156565b600080600080600080806000905060008060006060600960009054906101000a90046001600160a01b03166001600160a01b03168d602001516001600160a01b031614156111335760015467ffffffffffffffff8111801561110157600080fd5b5060405190808252806020026020018201604052801561112b578160200160208202803683370190505b50905061117a565b60035467ffffffffffffffff8111801561114c57600080fd5b50604051908082528060200260200182016040528015611176578160200160208202803683370190505b5090505b6111838e612342565b909250905060008c600281111561119657fe5b14156111cd578c608001518210156111c8576111b181612670565b8d4260009a509a509a5050505050505050506118f8565b6111fd565b60018c60028111156111db57fe5b14156111fd57816111fd578d4260009a509a509a5050505050505050506118f8565b600091505b80518210156118ef5760808d0151611219576118ef565b8d81838151811061122657fe5b60200260200101511415801561127c57508c600001516001600160a01b03166006600083858151811061125557fe5b6020908102919091018101518252810191909152604001600020546001600160a01b031614155b80156112ca575060006006600083858151811061129557fe5b6020026020010151815260200190815260200160002060010160159054906101000a900460ff1660048111156112c757fe5b14155b1561150757600660008284815181106112df57fe5b6020026020010151815260200190815260200160002060030154600014801561130a575060a08d0151155b15611314576118e4565b600a5481516001600160a01b039091169060069060009084908690811061133757fe5b6020908102919091018101518252810191909152604001600020600101546001600160a01b031614801561137d575060095460208e01516001600160a01b039081169116145b15611410578c60a001516006600083858151811061139757fe5b60200260200101518152602001908152602001600020600301541015806113c0575060a08d0151155b1561140b57600660008284815181106113d557fe5b602002602001015181526020019081526020016000206003015496508082815181106113fd57fe5b602002602001015197508194505b611507565b60095481516001600160a01b039091169060069060009084908690811061143357fe5b6020908102919091018101518252810191909152604001600020600101546001600160a01b03161480156114795750600a5460208e01516001600160a01b039081169116145b15611507578c60a001516006600083858151811061149357fe5b60200260200101518152602001908152602001600020600301541115806114bc575060a08d0151155b1561150757600660008284815181106114d157fe5b602002602001015181526020019081526020016000206003015496508082815181106114f957fe5b602002602001015195508194505b87156117085760095460208e01516001600160a01b03908116911614156117035760008881526006602052604090206002015461154490886127b5565b93508c60800151841061168a5760808d015193506115628488612806565b60008981526006602052604090206002015460808f01519194506115859161283c565b600660008a81526020019081526020016000206002018190555060008d608001818152505060066000898152602001908152602001600020600201546000146115cf5760016115d2565b60005b600089815260066020526040902060010180547fffffffffffffffffffff00ffffffffffffffffffffffffffffffffffffffffff16750100000000000000000000000000000000000000000083600481111561162a57fe5b0217905550600060608e01526116428e898686612852565b945060008d60400151600281111561165657fe5b141561168557600061166e8f8f600001516001612b4c565b8f9c50959a509498506118f8975050505050505050565b611703565b83156117035761169a8488612806565b92506116aa8d608001518561283c565b60808e015260008881526006602052604081206002810191909155600190810180547fffffffffffffffffffff00ffffffffffffffffffffffffffffffffffffffffff16905560608e01526117018e898686612852565b505b6118e4565b85156118e457600a5460208e01516001600160a01b03908116911614156118e4576000868152600660205260409020600201546117459088612806565b92508c60800151831061186b5760808d0151925061176383886127b5565b600087815260066020526040902060020154909450611782908561283c565b600660008881526020019081526020016000206002018190555060008d608001818152505060066000878152602001908152602001600020600201546000146117cc5760016117cf565b60005b600087815260066020526040902060010180547fffffffffffffffffffff00ffffffffffffffffffffffffffffffffffffffffff16750100000000000000000000000000000000000000000083600481111561182757fe5b0217905550600060608e015261183f8e878686612852565b945060008d60400151600281111561185357fe5b141561170357600061166e8f8f600001516000612b4c565b82156118e45761187b83886127b5565b935061188b8d608001518461283c565b60808e015260008681526006602052604081206002810191909155600190810180547fffffffffffffffffffff00ffffffffffffffffffffffffffffffffffffffffff16905560608e01526118e28e878686612852565b505b600190910190611202565b50505050505050505b93509350939050565b60408051808201909152828152602081018281526003805460018082018355600083815294517fc2575a0e9e593c00f959f8c92f12db2869c3395a3b0502d05e2516446f71f85b60029093029283015592517fc2575a0e9e593c00f959f8c92f12db2869c3395a3b0502d05e2516446f71f85c90910155546119829161283c565b905060006119938260026000612cf4565b90505b6000821180156119e15750600382815481106119ae57fe5b906000526020600020906002020160000154600382815481106119cd57fe5b906000526020600020906002020160000154115b15611b14576119ee613117565b600382815481106119fb57fe5b906000526020600020906002020160405180604001604052908160008201548152602001600182015481525050905060038381548110611a3757fe5b906000526020600020906002020160038381548110611a5257fe5b90600052602060002090600202016000820154816000015560018201548160010155905050816004600060038681548110611a8957fe5b9060005260206000209060020201600101548152602001908152602001600020819055508060038481548110611abb57fe5b9060005260206000209060020201600082015181600001556020820151816001015590505082600460008360200151815260200190815260200160002081905550819250611b0c8360026000612cf4565b915050611996565b50505050565b6040805180820190915282815260208101828152600180548082018255600082815293517fb10e2d527612073b26eecdfd717e6a320cf44b4afac2b0732d9fcbe2b7fa0cf660029092029182015591517fb10e2d527612073b26eecdfd717e6a320cf44b4afac2b0732d9fcbe2b7fa0cf7909201919091558054611b9d9161283c565b90506000611bae8260026000612cf4565b90505b600082118015611bfc575060018281548110611bc957fe5b90600052602060002090600202016000015460018281548110611be857fe5b906000526020600020906002020160000154105b15611b1457611c09613117565b60018281548110611c1657fe5b906000526020600020906002020160405180604001604052908160008201548152602001600182015481525050905060018381548110611c5257fe5b906000526020600020906002020160018381548110611c6d57fe5b90600052602060002090600202016000820154816000015560018201548160010155905050816002600060018681548110611ca457fe5b9060005260206000209060020201600101548152602001908152602001600020819055508060018481548110611cd657fe5b9060005260206000209060020201600082015181600001556020820151816001015590505082600260008360200151815260200190815260200160002081905550819250611d278360026000612cf4565b915050611bb1565b600080546001600160a01b038381167fffffffffffffffffffffffff0000000000000000000000000000000000000000831681178455604051919092169283917f8be0079c531659141344cd1fd0a4f28419497f9722a3daafe3b4186f6b6457e09190a35050565b8015611e6d57600082815260026020526040902054611dbe57611db8612d1c565b50610f71565b60018054611dcc908261283c565b81548110611dd657fe5b90600052602060002090600202016001600260008581526020019081526020016000205481548110611e0457fe5b60009182526020909120825460029092020190815560019182015490820155805480611e2c57fe5b60008281526020812060027fffffffffffffffffffffffffffffffffffffffffffffffffffffffffffffffff90930192830201818155600101559055610fba565b600082815260046020526040902054611e8e57611e88612e59565b50610fba565b60038054611e9d90600161283c565b81548110611ea757fe5b90600052602060002090600202016003600460008581526020019081526020016000205481548110611ed557fe5b6000918252602090912082546002909202019081556001918201549101556003805480611efe57fe5b60008281526020812060027fffffffffffffffffffffffffffffffffffffffffffffffffffffffffffffffff909301928302018181556001015590555050565b610fea817f42414c0000000000000000000000000000000000000000000000000000000000612f8e565b60018054611f759161283c565b611f80826002612fef565b1015610fea576000611f93826002612fef565b9050600060018281548110611fa457fe5b6000918252602082206002909102015491506001611fc28482613010565b81548110611fcc57fe5b906000526020600020906002020160000154905080821015611ff657611ff3836001613010565b92505b6001838154811061200357fe5b9060005260206000209060020201600001546001858154811061202257fe5b906000526020600020906002020160000154111561204257505050610fea565b61204a613117565b6001858154811061205757fe5b90600052602060002090600202016040518060400160405290816000820154815260200160018201548152505090506001848154811061209357fe5b9060005260206000209060020201600186815481106120ae57fe5b906000526020600020906002020160008201548160000155600182015481600101559050508460026000600187815481106120e557fe5b906000526020600020906002020160010154815260200190815260200160002081905550806001858154811061211757fe5b6000918252602080832084516002938402909101908155938101516001909401939093559282015181529190526040902083905550909150611f689050565b60035461216490600161283c565b61216f826002612fef565b1015610fea576000612182826002612fef565b905060006003828154811061219357fe5b60009182526020822060029091020154915060036121b2846001613010565b815481106121bc57fe5b9060005260206000209060020201600001549050808211156121e6576121e3836001613010565b92505b600383815481106121f357fe5b9060005260206000209060020201600001546003858154811061221257fe5b906000526020600020906002020160000154101561223257505050610fea565b61223a613117565b6003858154811061224757fe5b90600052602060002090600202016040518060400160405290816000820154815260200160018201548152505090506003848154811061228357fe5b90600052602060002090600202016003868154811061229e57fe5b906000526020600020906002020160008201548160000155600182015481600101559050508460046000600387815481106122d557fe5b906000526020600020906002020160010154815260200190815260200160002081905550806003858154811061230757fe5b600091825260208083208451600290930201918255928301516001909101559181015182526004905260409020839055509091506121569050565b6009546000828152600660205260408120600101549091606091839183916001600160a01b03908116911614156123be5760015467ffffffffffffffff8111801561238c57600080fd5b506040519080825280602002602001820160405280156123b6578160200160208202803683370190505b509050612405565b60035467ffffffffffffffff811180156123d757600080fd5b50604051908082528060200260200182016040528015612401578160200160208202803683370190505b5090505b60095460008681526006602052604081206001015490916001600160a01b0391821691161415612544575b6001541561253957600086815260066020526040902060030154612452613022565b10158061246e5750600086815260066020526040902060030154155b1561252f5761247b612d1c565b82828151811061248757fe5b602002602001018181525050612501836124fc600660008686815181106124aa57fe5b6020026020010151815260200190815260200160002060030154600660008787815181106124d457fe5b60200260200101518152602001908152602001600020600201546127b590919063ffffffff16565b613010565b60008781526006602052604090206002015490935083106125275750909250905061266b565b600101612534565b612539565b612430565b50909250905061266b565b600a546000878152600660205260409020600101546001600160a01b0390811691161415612667575b600354156125395760008681526006602052604090206003015461258f613049565b1115806125ab5750600086815260066020526040902060030154155b1561252f576125b8612e59565b8282815181106125c457fe5b602002602001018181525050612639836124fc600660008686815181106125e757fe5b60200260200101518152602001908152602001600020600201546006600087878151811061261157fe5b602002602001015181526020019081526020016000206003015461280690919063ffffffff16565b600087815260066020526040902060020154909350831061265f5750909250905061266b565b60010161256d565b5050505b915091565b60005b8151811015610fba5760095482516001600160a01b039091169060069060009085908590811061269f57fe5b6020908102919091018101518252810191909152604001600020600101546001600160a01b0316141561271757612712600660008484815181106126df57fe5b602002602001015181526020019081526020016000206003015483838151811061270557fe5b6020026020010151611901565b6127ad565b600a5482516001600160a01b039091169060069060009085908590811061273a57fe5b6020908102919091018101518252810191909152604001600020600101546001600160a01b031614156127ad576127ad6006600084848151811061277a57fe5b60200260200101518152602001908152602001600020600301548383815181106127a057fe5b6020026020010151611b1a565b600101612673565b60006127c48215156004610fed565b826127d157506000610ba0565b670de0b6b3a7640000838102906127f4908583816127eb57fe5b04146005610fed565b8281816127fd57fe5b04915050610ba0565b600082820261282a84158061282357508385838161282057fe5b04145b6003610fed565b670de0b6b3a764000090049392505050565b600061284c838311156001610fed565b50900390565b60058054600101908190556000906128686130e2565b6040518060c00160405280600660008a815260200190815260200160002060000160009054906101000a90046001600160a01b03166001600160a01b031681526020018881526020018781526020018381526020018681526020018581525090508060076000600660008b815260200190815260200160002060000160009054906101000a90046001600160a01b03166001600160a01b03166001600160a01b03168152602001908152602001600020600084815260200190815260200160002060008201518160000160006101000a8154816001600160a01b0302191690836001600160a01b031602179055506020820151816001015560408201518160020155606082015181600301556080820151816004015560a082015181600501559050508060076000600660008a815260200190815260200160002060000160009054906101000a90046001600160a01b03166001600160a01b03166001600160a01b03168152602001908152602001600020600084815260200190815260200160002060008201518160000160006101000a8154816001600160a01b0302191690836001600160a01b031602179055506020820151816001015560408201518160020155606082015181600301556080820151816004015560a0820151816005015590505060086000600660008a815260200190815260200160002060000160009054906101000a90046001600160a01b03166001600160a01b03166001600160a01b0316815260200190815260200160002081606001519080600181540180825580915050600190039060005260206000200160009091909190915055600860006006600089815260200190815260200160002060000160009054906101000a90046001600160a01b03166001600160a01b03166001600160a01b03168152602001908152602001600020816060015190806001815401808255809150506001900390600052602060002001600090919091909150558192505050949350505050565b6000806000612b596130e2565b60005b6001600160a01b038716600090815260086020526040902054811015612ce8576001600160a01b0387166000908152600860205260409020805482908110612ba057fe5b60009182526020808320909101546001600160a01b03808b168452600783526040808520838652845293849020845160c081018652815490921682526001810154938201849052600281015494820194909452600384015460608201526004840154608082015260059093015460a08401529550909250881415612c4557600086612c2f578260800151612c35565b8260a001515b9050612c418482613010565b9350505b6001600160a01b0387166000908152600860205260409020805482908110612c6957fe5b600091825260208083209091018290556001600160a01b0389168252600781526040808320878452909152812080547fffffffffffffffffffffffff0000000000000000000000000000000000000000168155600180820183905560028201839055600382018390556004820183905560059091019190915501612b5c565b50909695505050505050565b600081612d0a57612d058484613059565b612d14565b612d148484613079565b949350505050565b600154600090612d3e5760405162461bcd60e51b81526004016103589061350c565b60006001600081548110612d4e57fe5b90600052602060002090600202016001015490506001612d74600180549050600161283c565b81548110612d7e57fe5b90600052602060002090600202016001600081548110612d9a57fe5b906000526020600020906002020160008201548160000155600182015481600101559050506000600260006001600081548110612dd357fe5b9060005260206000209060020201600101548152602001908152602001600020819055506001805480612e0257fe5b60008281526020812060027fffffffffffffffffffffffffffffffffffffffffffffffffffffffffffffffff909301928302018181556001908101829055919092555415612e5357612e5381611f68565b50905090565b600354600090612e7b5760405162461bcd60e51b81526004016103589061350c565b60006003600081548110612e8b57fe5b90600052602060002090600202016001015490506003612eb1600380549050600161283c565b81548110612ebb57fe5b90600052602060002090600202016003600081548110612ed757fe5b906000526020600020906002020160008201548160000155600182015481600101559050506000600460006003600081548110612f1057fe5b9060005260206000209060020201600101548152602001908152602001600020819055506003805480612f3f57fe5b60008281526020812060027fffffffffffffffffffffffffffffffffffffffffffffffffffffffffffffffff90930192830201818155600101819055915560035415612e5357612e5381612156565b62461bcd60e51b600090815260206004526007602452600a808404818106603090810160081b958390069590950190829004918206850160101b01602363ffffff0060e086901c160160181b0190930160c81b60445260e882901c90606490fd5b600082820261300984158061282357508385838161282057fe5b9392505050565b60008282016130098482101583610fed565b6000600160008154811061303257fe5b906000526020600020906002020160000154905090565b6000600360008154811061303257fe5b60006130688215156004610fed565b81838161307157fe5b049392505050565b60006130888215156004610fed565b8261309557506000610ba0565b8160018403816130a157fe5b046001019050610ba0565b6040805160c081018252600080825260208201819052909182019081526020016000815260200160008152602001600081525090565b6040805160c081018252600080825260208201819052918101829052606081018290526080810182905260a081019190915290565b604080518082019091526000808252602082015290565b8035610ba0816137c5565b600082601f830112613149578081fd5b813567ffffffffffffffff81111561315f578182fd5b61319060207fffffffffffffffffffffffffffffffffffffffffffffffffffffffffffffffe0601f8401160161379e565b91508082528360208285010111156131a757600080fd5b8060208401602084013760009082016020015292915050565b803560028110610ba057600080fd5b60006101208083850312156131e2578182fd5b6131eb8161379e565b9150506131f883836131c0565b8152613207836020840161312e565b6020820152613219836040840161312e565b6040820152606082013560608201526080820135608082015260a082013560a08201526132498360c0840161312e565b60c082015261325b8360e0840161312e565b60e08201526101008083013567ffffffffffffffff81111561327c57600080fd5b61328885828601613139565b82840152505092915050565b6000602082840312156132a5578081fd5b8135613009816137c5565b600080604083850312156132c2578081fd5b82356132cd816137c5565b946020939093013593505050565b6000602082840312156132ec578081fd5b5035919050565b600060208284031215613304578081fd5b5051919050565b6000806040838503121561331d578182fd5b82359150602083013561332f816137c5565b809150509250929050565b60008060006060848603121561334e578081fd5b505081359360208301359350604090920135919050565b60008060408385031215613377578182fd5b50508035926020909101359150565b60008060006060848603121561339a578283fd5b8335925060208401359150604084013567ffffffffffffffff8111156133be578182fd5b6133ca868287016131cf565b9150509250925092565b60008082840360608112156133e7578283fd5b833567ffffffffffffffff8111156133fd578384fd5b613409868287016131cf565b93505060407fffffffffffffffffffffffffffffffffffffffffffffffffffffffffffffffe08201121561343b578182fd5b50613446604061379e565b602084013560038110613457578283fd5b81526040939093013560208401525092909150565b60609290921b7fffffffffffffffffffffffffffffffffffffffff000000000000000000000000168252601482015260340190565b6001600160a01b0391909116815260200190565b6020808252825182820181905260009190848201906040850190845b81811015612ce8578351835292840192918401916001016134d1565b90815260200190565b9283526020830191909152604082015260600190565b60208082526012908201527f4f72646572626f6f6b20697320656d7074790000000000000000000000000000604082015260600190565b6020808252601d908201527f556e617574686f72697a65642061636365737320746f206f7264657273000000604082015260600190565b6020808252601f908201527f4d61726b6574206f726465722063616e206e6f74206265206368616e67656400604082015260600190565b60208082526013908201527f556e617574686f72697a65642061636365737300000000000000000000000000604082015260600190565b6020808252601b908201527f53656e646572206973206e6f74206f726465722063726561746f720000000000604082015260600190565b60208082526017908201527f4f7264657220697320616c72656164792066696c6c6564000000000000000000604082015260600190565b6020808252601d908201527f556e617574686f72697a65642061636365737320746f20747261646573000000604082015260600190565b60208082526021908201527f4d61726b6574206f726465722063616e206e6f742062652063616e63656c6c6560408201527f6400000000000000000000000000000000000000000000000000000000000000606082015260800190565b600060c0820190506001600160a01b038084511683528060208501511660208401525060408301516003811061371c57fe5b604083015260608301516005811061373057fe5b806060840152506080830151608083015260a083015160a083015292915050565b600060c0820190506001600160a01b0383511682526020830151602083015260408301516040830152606083015160608301526080830151608083015260a083015160a083015292915050565b60405181810167ffffffffffffffff811182821017156137bd57600080fd5b604052919050565b6001600160a01b0381168114610fea57600080fdfea26469706673582212209c88b538df4b4c02c780031d69fcc7b62376841b8c83488e79b09b9be70e9c0d64736f6c63430007010033",
  "linkReferences": {},
  "deployedLinkReferences": {}
}