{
  "_format": "hh-sol-artifact-1",
  "contractName": "SecondaryIssuePoolFactory",
  "sourceName": "contracts/SecondaryIssuePoolFactory.sol",
  "abi": [
    {
      "inputs": [
        {
          "internalType": "contract IVault",
          "name": "vault",
          "type": "address"
        },
        {
          "internalType": "contract IProtocolFeePercentagesProvider",
          "name": "protocolFeeProvider",
          "type": "address"
        }
      ],
      "stateMutability": "nonpayable",
      "type": "constructor"
    },
    {
      "anonymous": false,
      "inputs": [],
      "name": "FactoryDisabled",
      "type": "event"
    },
    {
      "anonymous": false,
      "inputs": [
        {
          "indexed": true,
          "internalType": "address",
          "name": "pool",
          "type": "address"
        }
      ],
      "name": "PoolCreated",
      "type": "event"
    },
    {
      "inputs": [
        {
          "internalType": "string",
          "name": "name",
          "type": "string"
        },
        {
          "internalType": "string",
          "name": "symbol",
          "type": "string"
        },
        {
          "internalType": "address",
          "name": "security",
          "type": "address"
        },
        {
          "internalType": "address",
          "name": "currency",
          "type": "address"
        },
        {
          "internalType": "uint256",
          "name": "maxAmountsIn",
          "type": "uint256"
        },
        {
          "internalType": "uint256",
          "name": "tradeFeePercentage",
          "type": "uint256"
        }
      ],
      "name": "create",
      "outputs": [
        {
          "internalType": "address",
          "name": "",
          "type": "address"
        }
      ],
      "stateMutability": "nonpayable",
      "type": "function"
    },
    {
      "inputs": [],
      "name": "disable",
      "outputs": [],
      "stateMutability": "nonpayable",
      "type": "function"
    },
    {
      "inputs": [
        {
          "internalType": "bytes4",
          "name": "selector",
          "type": "bytes4"
        }
      ],
      "name": "getActionId",
      "outputs": [
        {
          "internalType": "bytes32",
          "name": "",
          "type": "bytes32"
        }
      ],
      "stateMutability": "view",
      "type": "function"
    },
    {
      "inputs": [],
      "name": "getAuthorizer",
      "outputs": [
        {
          "internalType": "contract IAuthorizer",
          "name": "",
          "type": "address"
        }
      ],
      "stateMutability": "view",
      "type": "function"
    },
    {
      "inputs": [],
      "name": "getCreationCode",
      "outputs": [
        {
          "internalType": "bytes",
          "name": "",
          "type": "bytes"
        }
      ],
      "stateMutability": "view",
      "type": "function"
    },
    {
      "inputs": [],
      "name": "getCreationCodeContracts",
      "outputs": [
        {
          "internalType": "address",
          "name": "contractA",
          "type": "address"
        },
        {
          "internalType": "address",
          "name": "contractB",
          "type": "address"
        }
      ],
      "stateMutability": "view",
      "type": "function"
    },
    {
      "inputs": [],
      "name": "getPauseConfiguration",
      "outputs": [
        {
          "internalType": "uint256",
          "name": "pauseWindowDuration",
          "type": "uint256"
        },
        {
          "internalType": "uint256",
          "name": "bufferPeriodDuration",
          "type": "uint256"
        }
      ],
      "stateMutability": "view",
      "type": "function"
    },
    {
      "inputs": [],
      "name": "getProtocolFeePercentagesProvider",
      "outputs": [
        {
          "internalType": "contract IProtocolFeePercentagesProvider",
          "name": "",
          "type": "address"
        }
      ],
      "stateMutability": "view",
      "type": "function"
    },
    {
      "inputs": [],
      "name": "getVault",
      "outputs": [
        {
          "internalType": "contract IVault",
          "name": "",
          "type": "address"
        }
      ],
      "stateMutability": "view",
      "type": "function"
    },
    {
      "inputs": [],
      "name": "isDisabled",
      "outputs": [
        {
          "internalType": "bool",
          "name": "",
          "type": "bool"
        }
      ],
      "stateMutability": "view",
      "type": "function"
    },
    {
      "inputs": [
        {
          "internalType": "address",
          "name": "pool",
          "type": "address"
        }
      ],
      "name": "isPoolFromFactory",
      "outputs": [
        {
          "internalType": "bool",
          "name": "",
          "type": "bool"
        }
      ],
      "stateMutability": "view",
      "type": "function"
    }
  ],
  "bytecode": "0x6101806040523480156200001257600080fd5b506040516200a2fa3803806200a2fa8339810160408190526200003591620001fc565b8181604051806020016200004990620001ee565b601f1982820381018352601f90910116604052805183903090839060006002820460a081905280830360e08190528185529091508362000095816200010f602090811b6200043717901c565b60601b6001600160601b0319166080528285018051838252620000c4826200010f602090811b6200043717901c565b6001600160601b0319606091821b811660c05296909352905261010095909552505092821b831661012052509290921b90911661014052505050426276a70001610160525062000250565b80517f602038038060206000396000f3fefefefefefefefefefefefefefefefefefefe808352600091602081018484f090845291506200015d6001600160a01b03831615156101ac62000163565b50919050565b816200017457620001748162000178565b5050565b6200018a816210905360ea1b6200018d565b50565b62461bcd60e51b600090815260206004526007602452600a808404818106603090810160081b958390069590950190829004918206850160101b01602363ffffff0060e086901c160160181b0190930160c81b60445260e882901c90606490fd5b6195708062000d8a83390190565b600080604083850312156200020f578182fd5b82516200021c816200023a565b60208401519092506200022f816200023a565b809150509250929050565b6001600160a01b03811681146200018a57600080fd5b60805160601c60a05160c05160601c60e051610100516101205160601c6101405160601c61016051610ac1620002c9600039806101ec52806102155250806102c052508061039b52508061034b5250806104915250806101c3528061050d5250806104b25250806101a252806104e95250610ac16000f3fe608060405234801561001057600080fd5b50600436106100a85760003560e01c80636c57f5a9116100715780636c57f5a914610121578063739238d61461012957806374dcc7a41461013e578063851c1bb3146101515780638d928af814610171578063aaabadc514610179576100a8565b8062c194db146100ad578063174481fa146100cb5780632da47c40146100e15780632f2770db146100f75780636634b75314610101575b600080fd5b6100b5610181565b6040516100c2919061098e565b60405180910390f35b6100d36101a0565b6040516100c2929190610941565b6100e96101e6565b6040516100c2929190610a68565b6100ff610250565b005b61011461010f3660046107c7565b610297565b6040516100c2919061095b565b6101146102b5565b6101316102be565b6040516100c2919061092d565b61013161014c366004610847565b6102e2565b61016461015f366004610803565b610347565b6040516100c29190610966565b610131610399565b6101316103bd565b606061019b60405180602001604052806000815250610489565b905090565b7f00000000000000000000000000000000000000000000000000000000000000007f00000000000000000000000000000000000000000000000000000000000000009091565b600080427f000000000000000000000000000000000000000000000000000000000000000081101561024257807f000000000000000000000000000000000000000000000000000000000000000003925062278d00915061024b565b60009250600091505b509091565b610258610562565b610260610593565b6001805460ff1916811790556040517f432acbfd662dbb5d8b378384a67159b47ca9d0f1b79f97cf64cf8585fa362d5090600090a1565b6001600160a01b031660009081526020819052604090205460ff1690565b60015460ff1690565b7f000000000000000000000000000000000000000000000000000000000000000090565b60008060006102ef6101e6565b915091506103386102fe610399565b8c8c8c8c8c8c8c8c8b8b336040516020016103249c9b9a999897969594939291906109e1565b6040516020818303038152906040526105a8565b9b9a5050505050505050505050565b60007f00000000000000000000000000000000000000000000000000000000000000008260405160200161037c929190610915565b604051602081830303815290604052805190602001209050919050565b7f000000000000000000000000000000000000000000000000000000000000000090565b60006103c7610399565b6001600160a01b031663aaabadc56040518163ffffffff1660e01b815260040160206040518083038186803b1580156103ff57600080fd5b505afa158015610413573d6000803e3d6000fd5b505050506040513d601f19601f8201168201806040525081019061019b919061082b565b80517f602038038060206000396000f3fefefefefefefefefefefefefefefefefefefe808352600091602081018484f090845291506104836001600160a01b03831615156101ac610611565b50919050565b8051604080517f00000000000000000000000000000000000000000000000000000000000000007f0000000000000000000000000000000000000000000000000000000000000000818101858101848101602090810190965280855293957f00000000000000000000000000000000000000000000000000000000000000009592947f000000000000000000000000000000000000000000000000000000000000000094938801866000828a3c846000888301883c5060208981019089850101610554818386610623565b505050505050505050919050565b60006105796000356001600160e01b031916610347565b90506105906105888233610661565b610191610611565b50565b6105a661059e6102b5565b1560d3610611565b565b60006105b2610593565b60006105bd836106f1565b6001600160a01b038116600081815260208190526040808220805460ff191660011790555192935090917f83a48fbcfc991335314e74d0496aab6a1987e992ddc85dddbcc4d6dd6ef2e9fc9190a292915050565b8161061f5761061f81610725565b5050565b5b60208110610643578151835260209283019290910190601f1901610624565b905182516020929092036101000a6000190180199091169116179052565b600061066b6103bd565b6001600160a01b0316639be2a8848484306040518463ffffffff1660e01b815260040161069a9392919061096f565b60206040518083038186803b1580156106b257600080fd5b505afa1580156106c6573d6000803e3d6000fd5b505050506040513d601f19601f820116820180604052508101906106ea91906107e3565b9392505050565b600060606106fe83610489565b905060008151602083016000f090506001600160a01b0381166106ea573d6000803e3d6000fd5b62461bcd60e51b600090815260206004526007602452600a808304818106603090810160081b83860601918390049283060160101b016642414c230000300160c81b604452610590916210905360ea1b906242414c90606490fd5b60008083601f840112610791578182fd5b50813567ffffffffffffffff8111156107a8578182fd5b6020830191508360208285010111156107c057600080fd5b9250929050565b6000602082840312156107d8578081fd5b81356106ea81610a76565b6000602082840312156107f4578081fd5b815180151581146106ea578182fd5b600060208284031215610814578081fd5b81356001600160e01b0319811681146106ea578182fd5b60006020828403121561083c578081fd5b81516106ea81610a76565b60008060008060008060008060c0898b031215610862578384fd5b883567ffffffffffffffff80821115610879578586fd5b6108858c838d01610780565b909a50985060208b013591508082111561089d578586fd5b506108aa8b828c01610780565b90975095505060408901356108be81610a76565b935060608901356108ce81610a76565b979a969950949793969295929450505060808201359160a0013590565b60008284528282602086013780602084860101526020601f19601f85011685010190509392505050565b9182526001600160e01b031916602082015260240190565b6001600160a01b0391909116815260200190565b6001600160a01b0392831681529116602082015260400190565b901515815260200190565b90815260200190565b9283526001600160a01b03918216602084015216604082015260600190565b6000602080835283518082850152825b818110156109ba5785810183015185820160400152820161099e565b818111156109cb5783604083870101525b50601f01601f1916929092016040019392505050565b6001600160a01b038d16815261014060208201819052600090610a079083018d8f6108eb565b8281036040840152610a1a818c8e6108eb565b6001600160a01b039a8b166060850152988a166080840152505060a081019590955260c085019390935260e08401919091526101008301529092166101209092019190915295945050505050565b918252602082015260400190565b6001600160a01b038116811461059057600080fdfea26469706673582212205f2843f5ed2a72c1965c95fa90ad84b457a58a303dcef78b7842f76ebccc4aeb64736f6c634300070100336102e06040523480156200001257600080fd5b506040516200957038038062009570833981016040819052620000359162000b90565b8960008a8a620000478b8b30620004d9565b6040805160038082526080820190925290602082016060803683370190505089898989828289898d85336001600160a01b031660001b8480604051806040016040528060018152602001603160f81b81525087878160039080519060200190620000b3929190620009fa565b508051620000c9906004906020840190620009fa565b50506005805460ff19166012179055508151602092830120608052805191012060a052507f8b73c3c69bb8fe3d512ecc4cf759cc79239f7b179b0ffacaa9a75d522b39400f60c05260e0526001600160601b0319606091821b81166101005291901b1661012052506200014790506276a700831115610194620005a8565b6200015b62278d00821115610195620005a8565b42909101610140819052016101605285516200017d906002111560c8620005a8565b620001976200018b620005bd565b8751111560c9620005a8565b620001ad86620005c260201b6200295e1760201c565b620001b884620005ce565b6040516309b2760f60e01b81526000906001600160a01b038c16906309b2760f90620001e9908d9060040162000d59565b602060405180830381600087803b1580156200020457600080fd5b505af115801562000219573d6000803e3d6000fd5b505050506040513d601f19601f820116820180604052508101906200023f919062000b58565b604051633354e3e960e11b81529091506001600160a01b038c16906366a9c7d290620002749084908b908b9060040162000cbd565b600060405180830381600087803b1580156200028f57600080fd5b505af1158015620002a4573d6000803e3d6000fd5b505050508061018081815250508a6001600160a01b031663d2946c2b6040518163ffffffff1660e01b815260040160206040518083038186803b158015620002eb57600080fd5b505afa15801562000300573d6000803e3d6000fd5b505050506040513d601f19601f8201168201806040525081019062000326919062000b71565b6001600160a01b03166101a0816001600160a01b031660601b815250505050505050505050505050866001600160a01b03166101c0816001600160a01b031660601b81525050856001600160a01b03166101e0816001600160a01b031660601b8152505089600b60006101000a8154816001600160a01b0302191690836001600160a01b031602179055506000806000620003c98a8a306200066260201b60201c565b6102608190526102808390526102a082905291945092509050620003ed8a62000758565b61020052620003fc8962000758565b61022052600a8890556102408790526001600160601b0319606085901b166102c05260405184908b908b903090620004349062000a7f565b62000443949392919062000c92565b604051809103906000f08015801562000460573d6000803e3d6000fd5b50600980546001600160a01b0319166001600160a01b039283161790819055600a546040518d8416937f3ca60c442fe0a0eec00a4242bd76d6b93ec28f607f78e5b820a53f8538854bbb93620004be93928f92919091169062000d77565b60405180910390a25050505050505050505050505062000db8565b606060008080620004ec87878762000662565b60408051600380825260808201909252939650919450925060208201606080368337019050509350868484815181106200052257fe5b60200260200101906001600160a01b031690816001600160a01b031681525050858483815181106200055057fe5b60200260200101906001600160a01b031690816001600160a01b031681525050848482815181106200057e57fe5b60200260200101906001600160a01b031690816001600160a01b0316815250505050509392505050565b81620005b957620005b9816200082c565b5050565b600390565b80620005b98162000841565b620005e7620005dc620008cd565b82101560cb620005a8565b62000600620005f5620008d6565b82111560ca620005a8565b620006228160c0603f600854620008e260201b6200296817909392919060201c565b6008556040517fa9ba3ffe0b6c366b81232caab38605a0699ad5398d6cce76f91ee809e322dafc906200065790839062000d6e565b60405180910390a150565b6000806000846001600160a01b0316866001600160a01b03161015620006eb57836001600160a01b0316856001600160a01b03161015620006ae5750600091506001905060026200074f565b836001600160a01b0316866001600160a01b03161015620006da5750600091506002905060016200074f565b50600191506002905060006200074f565b846001600160a01b0316846001600160a01b03161015620007175750600291506001905060006200074f565b856001600160a01b0316846001600160a01b03161015620007435750600291506000905060016200074f565b50600191506000905060025b93509350939050565b60006001600160a01b0382163014156200077c5750670de0b6b3a764000062000827565b6000826001600160a01b031663313ce5676040518163ffffffff1660e01b815260040160206040518083038186803b158015620007b857600080fd5b505afa158015620007cd573d6000803e3d6000fd5b505050506040513d601f19601f82011682018060405250810190620007f3919062000c6f565b60ff1690506000620008126012836200090760201b620029901760201c565b905080600a0a670de0b6b3a764000002925050505b919050565b6200083e816210905360ea1b62000924565b50565b60028151101562000852576200083e565b6000816000815181106200086257fe5b602002602001015190506000600190505b8251811015620008c85760008382815181106200088c57fe5b60200260200101519050620008bd816001600160a01b0316846001600160a01b0316106065620005a860201b60201c565b915060010162000873565b505050565b64e8d4a5100090565b67016345785d8a000090565b6000620008f184848462000985565b506001901b60001901811b1992909216911b1790565b600062000919838311156001620005a8565b508082035b92915050565b62461bcd60e51b600090815260206004526007602452600a808404818106603090810160081b958390069590950190829004918206850160101b01602363ffffff0060e086901c160160181b0190930160c81b60445260e882901c90606490fd5b6200099661010083106064620005a8565b620009cf60018210158015620009c75750620009c360ff8461010003620009e060201b620029a61760201c565b8211155b6064620005a8565b620008c883821c156101b4620005a8565b6000818310620009f15781620009f3565b825b9392505050565b828054600181600116156101000203166002900490600052602060002090601f016020900481019282601f1062000a3d57805160ff191683800117855562000a6d565b8280016001018555821562000a6d579182015b8281111562000a6d57825182559160200191906001019062000a50565b5062000a7b92915062000a8d565b5090565b6137e08062005d9083390190565b5b8082111562000a7b576000815560010162000a8e565b80516200091e8162000da2565b600082601f83011262000ac2578081fd5b81516001600160401b038082111562000ad9578283fd5b6040516020601f8401601f191682018101838111838210171562000afb578586fd5b8060405250819450838252868185880101111562000b1857600080fd5b600092505b8383101562000b3c578583018101518284018201529182019162000b1d565b8383111562000b4e5760008185840101525b5050505092915050565b60006020828403121562000b6a578081fd5b5051919050565b60006020828403121562000b83578081fd5b8151620009f38162000da2565b6000806000806000806000806000806101408b8d03121562000bb0578586fd5b62000bbc8c8c62000aa4565b60208c0151909a506001600160401b038082111562000bd9578788fd5b62000be78e838f0162000ab1565b9a5060408d015191508082111562000bfd578788fd5b5062000c0c8d828e0162000ab1565b98505062000c1e8c60608d0162000aa4565b965062000c2f8c60808d0162000aa4565b955060a08b0151945060c08b0151935060e08b015192506101008b0151915062000c5e8c6101208d0162000aa4565b90509295989b9194979a5092959850565b60006020828403121562000c81578081fd5b815160ff81168114620009f3578182fd5b6001600160a01b03948516815292841660208401529083166040830152909116606082015260800190565b60006060820185835260206060818501528186518084526080860191508288019350845b8181101562000d095762000cf6855162000d96565b8352938301939183019160010162000ce1565b505084810360408601528551808252908201925081860190845b8181101562000d4b5762000d38835162000d96565b8552938301939183019160010162000d23565b509298975050505050505050565b602081016003831062000d6857fe5b91905290565b90815260200190565b9283526001600160a01b03918216602084015216604082015260600190565b6001600160a01b031690565b6001600160a01b03811681146200083e57600080fd5b60805160a05160c05160e0516101005160601c6101205160601c6101405161016051610180516101a05160601c6101c05160601c6101e05160601c61020051610220516102405161026051610280516102a0516102c05160601c614dd362000fbd60003980610d6152806134305250806107a352806120325280612aa552806134ab52806135055250806108555280611cc55280611d3852806120e45280612a3f525080612afa528061393352505080610d1e5280612acd52806134de525080610cea5280612a675250806105a0528061061f52806107475280610b185280610b6f5280610bcf5280610c9a5280611068528061116c528061123052806112d9528061142a52806115f452806117ed5280611874528061192a5280611cec5280611d5f5280611e3d5280611ebc5280611fd652806121aa52806122f952806124275250806105df528061065f52806107f9528061097b5280610a5f5280610ab65280610c0e5280610c5b5280610dcd528061112d52806111f1528061131852806113eb528061163352806116a5528061183552806118eb5280611aea5280611d125280611d855280611e7c5280611efc528061208852806121e952806122ba525080612739525080611b3d525080612c83525080612c5f5250806126215250806125fd5250806125875250806135885250806135ca5250806135a95250614dd36000f3fe608060405234801561001057600080fd5b506004361061025e5760003560e01c806370a0823111610146578063a457c2d7116100c3578063d2946c2b11610087578063d2946c2b146104b7578063d505accf146104bf578063d5c096c4146104d2578063dd62ed3e146104e5578063ed24911d146104f8578063fd19cac8146105005761025e565b8063a457c2d714610479578063a9059cbb1461048c578063aaabadc51461049f578063b35056b8146104a7578063b7b814fc146104af5761025e565b806387ec68171161010a57806387ec68171461043b578063893d20e81461044e5780638d928af81461045657806390193b7c1461045e57806395d89b41146104715761025e565b806370a08231146103d957806374f3b009146103ec5780637ecebe001461040d5780638456cb5914610420578063851c1bb3146104285761025e565b806338e9922e116101df57806350dd6ed9116101a357806350dd6ed91461037a57806354a844ba1461038d57806355c67628146103955780636028bfd41461039d578063688d6b79146103be5780636945c1fd146103d15761025e565b806338e9922e1461033a57806338fff2d01461034f57806339509351146103575780633f4ba83a1461036a5780634d6d0fd0146103725761025e565b80631dd746ea116102265780631dd746ea146102e057806323b872dd146102f55780632541897f14610308578063313ce5671461031d5780633644e515146103325761025e565b806301ec954a1461026357806306fdde031461028c578063095ea7b3146102a157806318160ddd146102c15780631c0de051146102c9575b600080fd5b6102766102713660046144ba565b610508565b604051610283919061497a565b60405180910390f35b610294611989565b6040516102839190614a50565b6102b46102af3660046140c6565b611a1f565b6040516102839190614957565b610276611a36565b6102d1611a3c565b60405161028393929190614962565b6102e8611a65565b6040516102839190614916565b6102b4610303366004614016565b611a74565b610310611ae8565b6040516102839190614875565b610325611b0c565b6040516102839190614cca565b610276611b15565b61034d610348366004614707565b611b1f565b005b610276611b3b565b6102b46103653660046140c6565b611b5f565b61034d611b9a565b610276611bae565b61034d6103883660046142ef565b611bb4565b61034d611bd2565b610276611be4565b6103b06103ab3660046141dc565b611bf7565b604051610283929190614cb1565b6102766103cc3660046143cc565b611c2e565b610310612425565b6102766103e7366004613fc2565b612449565b6103ff6103fa3660046141dc565b612464565b604051610283929190614929565b61027661041b366004613fc2565b612566565b61034d612571565b6102766104363660046142ab565b612583565b6103b06104493660046141dc565b6125d5565b6103106125fb565b61031061261f565b61027661046c366004613fc2565b612643565b61029461265e565b6102b46104873660046140c6565b6126bf565b6102b461049a3660046140c6565b6126fd565b61031061270a565b6102b4612714565b61034d612725565b610310612737565b61034d6104cd366004614056565b61275b565b6103ff6104e03660046141dc565b6127e6565b6102766104f3366004613fde565b612908565b610276612945565b61031061294f565b6000846080015161053561051a61261f565b6001600160a01b0316336001600160a01b03161460cd6129be565b61054a610540611b3b565b82146101f46129be565b6105526129cc565b60008651600181111561056157fe5b1480610579575060018651600181111561057757fe5b145b61059e5760405162461bcd60e51b815260040161059590614b31565b60405180910390fd5b7f00000000000000000000000000000000000000000000000000000000000000006001600160a01b031686604001516001600160a01b0316148061061757507f00000000000000000000000000000000000000000000000000000000000000006001600160a01b031686604001516001600160a01b0316145b8061065757507f00000000000000000000000000000000000000000000000000000000000000006001600160a01b031686602001516001600160a01b0316145b8061069757507f00000000000000000000000000000000000000000000000000000000000000006001600160a01b031686602001516001600160a01b0316145b6106b35760405162461bcd60e51b815260040161059590614a63565b60606106bd6129df565b90506106c98682612b51565b6106d1613dbb565b606060008080808c5160018111156106e557fe5b14156107165761070c8c60600151878c815181106106ff57fe5b6020026020010151612bc0565b60608d0152610745565b60018c51600181111561072557fe5b14156107455761073f8c60600151878b815181106106ff57fe5b60608d01525b7f00000000000000000000000000000000000000000000000000000000000000006001600160a01b03168c602001516001600160a01b0316148015610796575060008c51600181111561079457fe5b145b156107f7578b606001518b7f0000000000000000000000000000000000000000000000000000000000000000815181106107cc57fe5b602002602001015110156107f25760405162461bcd60e51b815260040161059590614aca565b6108a4565b7f00000000000000000000000000000000000000000000000000000000000000006001600160a01b03168c602001516001600160a01b0316148015610848575060008c51600181111561084657fe5b145b156108a4578b606001518b7f00000000000000000000000000000000000000000000000000000000000000008151811061087e57fe5b602002602001015110156108a45760405162461bcd60e51b815260040161059590614b57565b6101008c01515115611285578b61010001518060200190518101906108c9919061443e565b81519195509350611280576108dc613dd2565b60095460c08e015160405163ca142f7560e01b81526001600160a01b039092169163ca142f75916109119188906004016148fd565b60e06040518083038186803b15801561092957600080fd5b505afa15801561093d573d6000803e3d6000fd5b505050506040513d601f19601f820116820180604052508101906109619190614697565b60095460c08f015160208301519293506001600160a01b037f000000000000000000000000000000000000000000000000000000000000000081169392811692635778472a929082169116146109bb5783604001516109be565b83515b6040518263ffffffff1660e01b81526004016109da919061497a565b6101406040518083038186803b1580156109f357600080fd5b505afa158015610a07573d6000803e3d6000fd5b505050506040513d601f19601f82011682018060405250810190610a2b91906145d8565b602001516001600160a01b031614610a4e576763757272656e637960c01b610a5b565b67736563757269747960c01b5b92507f00000000000000000000000000000000000000000000000000000000000000006001600160a01b03168d602001516001600160a01b0316148015610aae575060008d516001811115610aac57fe5b145b80610b0557507f00000000000000000000000000000000000000000000000000000000000000006001600160a01b03168d604001516001600160a01b0316148015610b05575060018d516001811115610b0357fe5b145b15610b16578060c001519150610bcb565b7f00000000000000000000000000000000000000000000000000000000000000006001600160a01b03168d602001516001600160a01b0316148015610b67575060008d516001811115610b6557fe5b145b80610bbe57507f00000000000000000000000000000000000000000000000000000000000000006001600160a01b03168d604001516001600160a01b0316148015610bbe575060018d516001811115610bbc57fe5b145b15610bcb578060a0015191505b60007f00000000000000000000000000000000000000000000000000000000000000006001600160a01b03168e604001516001600160a01b03161480610c4657507f00000000000000000000000000000000000000000000000000000000000000006001600160a01b03168e602001516001600160a01b0316145b15610c5957506314d95b1b60e21b610ce0565b7f00000000000000000000000000000000000000000000000000000000000000006001600160a01b03168e604001516001600160a01b03161480610cd257507f00000000000000000000000000000000000000000000000000000000000000006001600160a01b03168e602001516001600160a01b0316145b15610ce057506242757960e81b5b610d0e8260a001517f0000000000000000000000000000000000000000000000000000000000000000612bcc565b60a083015260c0820151610d42907f0000000000000000000000000000000000000000000000000000000000000000612bcc565b60c08301526009546040516304aec4f960e01b81526001600160a01b037f00000000000000000000000000000000000000000000000000000000000000008116926304aec4f992610d999287921690600401614c52565b600060405180830381600087803b158015610db357600080fd5b505af1158015610dc7573d6000803e3d6000fd5b505050507f00000000000000000000000000000000000000000000000000000000000000006001600160a01b03167f08fb458ca19c621bab303b5f2f406bd918bedc1610f85d2f58c66ec89e89f46b67736563757269747960c01b8614610eb5576009546040808601519051632bbc239560e11b81526001600160a01b0390921691635778472a91610e5b9160040161497a565b6101406040518083038186803b158015610e7457600080fd5b505afa158015610e88573d6000803e3d6000fd5b505050506040513d601f19601f82011682018060405250810190610eac91906145d8565b60e00151610f3b565b6009548451604051632bbc239560e11b81526001600160a01b0390921691635778472a91610ee59160040161497a565b6101406040518083038186803b158015610efe57600080fd5b505afa158015610f12573d6000803e3d6000fd5b505050506040513d601f19601f82011682018060405250810190610f3691906145d8565b60e001515b6763757272656e637960c01b8714610fda576009546040808701519051632bbc239560e11b81526001600160a01b0390921691635778472a91610f809160040161497a565b6101406040518083038186803b158015610f9957600080fd5b505afa158015610fad573d6000803e3d6000fd5b505050506040513d601f19601f82011682018060405250810190610fd191906145d8565b60e00151611060565b6009548551604051632bbc239560e11b81526001600160a01b0390921691635778472a9161100a9160040161497a565b6101406040518083038186803b15801561102357600080fd5b505afa158015611037573d6000803e3d6000fd5b505050506040513d601f19601f8201168201806040525081019061105b91906145d8565b60e001515b8486606001517f00000000000000000000000000000000000000000000000000000000000000008989608001516040516110a09796959493929190614889565b60405180910390a260095460c08f01516040516335ca73db60e21b81526001600160a01b039092169163d729cf6c916110dd9189906004016148fd565b600060405180830381600087803b1580156110f757600080fd5b505af115801561110b573d6000803e3d6000fd5b5060009250611118915050565b8e51600181111561112557fe5b14156111da577f00000000000000000000000000000000000000000000000000000000000000006001600160a01b03168e602001516001600160a01b031614806111a457507f00000000000000000000000000000000000000000000000000000000000000006001600160a01b03168e602001516001600160a01b0316145b156111d5576111c683898d815181106111b957fe5b6020026020010151612bcc565b99505050505050505050611980565b61127d565b60018e5160018111156111e957fe5b141561127d577f00000000000000000000000000000000000000000000000000000000000000006001600160a01b03168e604001516001600160a01b0316148061126857507f00000000000000000000000000000000000000000000000000000000000000006001600160a01b03168e604001516001600160a01b0316145b1561127d576111c683898e815181106111b957fe5b50505b61129c565b604080518082019091526000808252602082015294505b6000855160028111156112ab57fe5b141561197957600a548c6060015110156112d75760405162461bcd60e51b815260040161059590614a93565b7f00000000000000000000000000000000000000000000000000000000000000006001600160a01b03168c604001516001600160a01b0316148061135057507f00000000000000000000000000000000000000000000000000000000000000006001600160a01b03168c602001516001600160a01b0316145b156113e9576009546040516332ff3abf60e11b81526001600160a01b03909116906365fe757e9061138a908f908990600190600401614b8e565b606060405180830381600087803b1580156113a457600080fd5b505af11580156113b8573d6000803e3d6000fd5b505050506040513d601f19601f820116820180604052508101906113dc919061427e565b90945090925090506114f7565b7f00000000000000000000000000000000000000000000000000000000000000006001600160a01b03168c604001516001600160a01b0316148061146257507f00000000000000000000000000000000000000000000000000000000000000006001600160a01b03168c602001516001600160a01b0316145b156114f7576009546040516332ff3abf60e11b81526001600160a01b03909116906365fe757e9061149c908f908990600090600401614b8e565b606060405180830381600087803b1580156114b657600080fd5b505af11580156114ca573d6000803e3d6000fd5b505050506040513d601f19601f820116820180604052508101906114ee919061427e565b90945090925090505b7f539d902969e42a2f56e454deb040193cddc4dd02a7ef0de4ae9f27bf96e96c7f8c602001518d604001518e6060015188602001518660405161153e9594939291906148cc565b60405180910390a1806115635760405162461bcd60e51b815260040161059590614b01565b61156b613dd2565b60095460c08e015160405163ca142f7560e01b81526001600160a01b039092169163ca142f75916115a09188906004016148fd565b60e06040518083038186803b1580156115b857600080fd5b505afa1580156115cc573d6000803e3d6000fd5b505050506040513d601f19601f820116820180604052508101906115f09190614697565b90507f00000000000000000000000000000000000000000000000000000000000000006001600160a01b03168d604001516001600160a01b0316148061166b57507f00000000000000000000000000000000000000000000000000000000000000006001600160a01b03168d602001516001600160a01b0316145b1561167f576314d95b1b60e21b9250611689565b6242757960e81b92505b6009548151604051632bbc239560e11b81526001600160a01b037f00000000000000000000000000000000000000000000000000000000000000008116937f08fb458ca19c621bab303b5f2f406bd918bedc1610f85d2f58c66ec89e89f46b93911691635778472a916116fe9160040161497a565b6101406040518083038186803b15801561171757600080fd5b505afa15801561172b573d6000803e3d6000fd5b505050506040513d601f19601f8201168201806040525081019061174f91906145d8565b60e001516009546040808601519051632bbc239560e11b81526001600160a01b0390921691635778472a916117869160040161497a565b6101406040518083038186803b15801561179f57600080fd5b505afa1580156117b3573d6000803e3d6000fd5b505050506040513d601f19601f820116820180604052508101906117d791906145d8565b60e00151606085015160405161181693929189917f0000000000000000000000000000000000000000000000000000000000000000908a908d90614889565b60405180910390a260008d51600181111561182d57fe5b14156118d4577f00000000000000000000000000000000000000000000000000000000000000006001600160a01b03168d602001516001600160a01b031614806118ac57507f00000000000000000000000000000000000000000000000000000000000000006001600160a01b03168d602001516001600160a01b0316145b156118cf576118c182888c815181106111b957fe5b985050505050505050611980565b611977565b60018d5160018111156118e357fe5b1415611977577f00000000000000000000000000000000000000000000000000000000000000006001600160a01b03168d604001516001600160a01b0316148061196257507f00000000000000000000000000000000000000000000000000000000000000006001600160a01b03168d604001516001600160a01b0316145b15611977576118c182888d815181106111b957fe5b505b5050505050505b50949350505050565b60038054604080516020601f6002600019610100600188161502019095169490940493840181900481028201810190925282815260609390929091830182828015611a155780601f106119ea57610100808354040283529160200191611a15565b820191906000526020600020905b8154815290600101906020018083116119f857829003601f168201915b5050505050905090565b6000611a2c338484612bd8565b5060015b92915050565b60025490565b6000806000611a49612c40565b159250611a54612c5d565b9150611a5e612c81565b9050909192565b6060611a6f6129df565b905090565b600080611a818533612908565b9050611aa5336001600160a01b0387161480611a9d5750838210155b61019e6129be565b611ab0858585612ca5565b336001600160a01b03861614801590611acb57506000198114155b15611add57611add8533858403612bd8565b506001949350505050565b7f000000000000000000000000000000000000000000000000000000000000000090565b60055460ff1690565b6000611a6f612945565b611b27612d85565b611b2f6129cc565b611b3881612db3565b50565b7f000000000000000000000000000000000000000000000000000000000000000090565b3360008181526001602090815260408083206001600160a01b03871684529091528120549091611a2c918590611b959086612e2c565b612bd8565b611ba2612d85565b611bac6000612e3e565b565b600a5490565b611bbc612d85565b611bc46129cc565b611bce8282612eb1565b5050565b611bda612d85565b611bac6001612fa6565b600854600090611a6f9060c0603f612ffd565b60006060611c0d8651611c0861300c565b613011565b611c228989898989898961301e6130706130d9565b97509795505050505050565b6000611c386129cc565b600b54604051631f29a8cd60e31b81526060916001600160a01b03169063f94d466890611c69908a9060040161497a565b60006040518083038186803b158015611c8157600080fd5b505afa158015611c95573d6000803e3d6000fd5b505050506040513d6000823e601f3d908101601f19168201604052611cbd91908101906140f1565b5091505060007f00000000000000000000000000000000000000000000000000000000000000008514611d10577f0000000000000000000000000000000000000000000000000000000000000000611d32565b7f00000000000000000000000000000000000000000000000000000000000000005b905060007f00000000000000000000000000000000000000000000000000000000000000008514611d83577f0000000000000000000000000000000000000000000000000000000000000000611da5565b7f00000000000000000000000000000000000000000000000000000000000000005b9050611daf613e0e565b808b6001811115611dbc57fe5b90816001811115611dc957fe5b9052506001600160a01b038084166020830152821660408201526060810189905261010081018890523360c0820152600081516001811115611e0757fe5b1480611e1f5750600181516001811115611e1d57fe5b145b611e3b5760405162461bcd60e51b815260040161059590614b31565b7f00000000000000000000000000000000000000000000000000000000000000006001600160a01b031681604001516001600160a01b03161480611eb457507f00000000000000000000000000000000000000000000000000000000000000006001600160a01b031681604001516001600160a01b0316145b80611ef457507f00000000000000000000000000000000000000000000000000000000000000006001600160a01b031681602001516001600160a01b0316145b80611f3457507f00000000000000000000000000000000000000000000000000000000000000006001600160a01b031681602001516001600160a01b0316145b611f505760405162461bcd60e51b815260040161059590614a63565b6060611f5a6129df565b9050611f668582612b51565b611f6e613dbb565b60606000808086516001811115611f8157fe5b1415611fa557611f9b8660600151868e815181106106ff57fe5b6060870152611fd4565b600186516001811115611fb457fe5b1415611fd457611fce8660600151868d815181106106ff57fe5b60608701525b7f00000000000000000000000000000000000000000000000000000000000000006001600160a01b031686602001516001600160a01b0316148015612025575060008651600181111561202357fe5b145b15612086578560600151897f00000000000000000000000000000000000000000000000000000000000000008151811061205b57fe5b602002602001015110156120815760405162461bcd60e51b815260040161059590614aca565b612133565b7f00000000000000000000000000000000000000000000000000000000000000006001600160a01b031686602001516001600160a01b03161480156120d757506000865160018111156120d557fe5b145b15612133578560600151897f00000000000000000000000000000000000000000000000000000000000000008151811061210d57fe5b602002602001015110156121335760405162461bcd60e51b815260040161059590614b57565b610100860151511561218257856101000151806020019051810190612158919061443e565b81519194509250156121825781156121825760408051808201909152806001815260200183905293505b600a54866060015110156121a85760405162461bcd60e51b815260040161059590614a93565b7f00000000000000000000000000000000000000000000000000000000000000006001600160a01b031686604001516001600160a01b0316148061222157507f00000000000000000000000000000000000000000000000000000000000000006001600160a01b031686602001516001600160a01b0316145b156122b8576009546040516332ff3abf60e11b81526001600160a01b03909116906365fe757e9061225b9089908890600190600401614b8e565b606060405180830381600087803b15801561227557600080fd5b505af1158015612289573d6000803e3d6000fd5b505050506040513d601f19601f820116820180604052508101906122ad919061427e565b509091506123c39050565b7f00000000000000000000000000000000000000000000000000000000000000006001600160a01b031686604001516001600160a01b0316148061233157507f00000000000000000000000000000000000000000000000000000000000000006001600160a01b031686602001516001600160a01b0316145b156123c3576009546040516332ff3abf60e11b81526001600160a01b03909116906365fe757e9061236b9089908890600090600401614b8e565b606060405180830381600087803b15801561238557600080fd5b505af1158015612399573d6000803e3d6000fd5b505050506040513d601f19601f820116820180604052508101906123bd919061427e565b50909150505b7f539d902969e42a2f56e454deb040193cddc4dd02a7ef0de4ae9f27bf96e96c7f86602001518760400151886060015187602001518560405161240a9594939291906148cc565b60405180910390a15050505050505050509695505050505050565b7f000000000000000000000000000000000000000000000000000000000000000090565b6001600160a01b031660009081526020819052604090205490565b6060808861247361051a61261f565b61247e610540611b3b565b6060600061248b86613203565b156124b357612498613232565b6124aa896124a4611a36565b88613245565b92509050612505565b6124bb613271565b60606124c56129df565b90506124d18a82612b51565b6124f58d8d8d8d8d6124e1612714565b6124eb578d6124ee565b60005b878e61301e565b935091506125038382613070565b505b61250f8b82613279565b8189516001600160401b038111801561252757600080fd5b50604051908082528060200260200182016040528015612551578160200160208202803683370190505b509450945050505b5097509795505050505050565b6000611a3082612643565b612579612d85565b611bac6001612e3e565b60007f0000000000000000000000000000000000000000000000000000000000000000826040516020016125b8929190614832565b604051602081830303815290604052805190602001209050919050565b600060606125e68651611c0861300c565b611c228989898989898961328361329f6130d9565b7f000000000000000000000000000000000000000000000000000000000000000090565b7f000000000000000000000000000000000000000000000000000000000000000090565b6001600160a01b031660009081526006602052604090205490565b60048054604080516020601f6002600019610100600188161502019095169490940493840181900481028201810190925282815260609390929091830182828015611a155780601f106119ea57610100808354040283529160200191611a15565b6000806126cc3385612908565b90508083106126e6576126e133856000612bd8565b6126f3565b6126f33385858403612bd8565b5060019392505050565b6000611a2c338484612ca5565b6000611a6f613308565b600854600090611a6f9060ff613382565b61272d612d85565b611bac6000612fa6565b7f000000000000000000000000000000000000000000000000000000000000000090565b60007f6e71edae12b1b97f4d1f60370fef10105fa2faae0126114a169c64845d6126c988888861278a8c612643565b896040516020016127a0969594939291906149a2565b6040516020818303038152906040528051906020012090506127d188826127c887878761338c565b886101f86133cb565b6127dc888888612bd8565b5050505050505050565b606080886127f561051a61261f565b612800610540611b3b565b612808613271565b60606128126129df565b905061281c611a36565b6128c857600060606128318d8d8d868b613422565b9150915061284a612840613548565b83101560cc6129be565b61285c6000612857613548565b61354f565b61286f8b612868613548565b840361354f565b612879818461329f565b808a516001600160401b038111801561289157600080fd5b506040519080825280602002602001820160405280156128bb578160200160208202803683370190505b5095509550505050612559565b6128d28882612b51565b600060606128fa8d8d8d8d8d6128e6612714565b6128f0578d6128f3565b60005b898e613283565b9150915061286f8b8361354f565b600061291261261f565b6001600160a01b0316826001600160a01b031614156129345750600019611a30565b61293e8383613559565b9050611a30565b6000611a6f613584565b6009546001600160a01b031681565b80611bce81613621565b600061297584848461369f565b5082821b6000196001831b01831b198516175b949350505050565b60006129a08383111560016129be565b50900390565b60008183106129b557816129b7565b825b9392505050565b81611bce57611bce816136e6565b611bac6129d7612c40565b6101926129be565b606060006129eb61300c565b90506060816001600160401b0381118015612a0557600080fd5b50604051908082528060200260200182016040528015612a2f578160200160208202803683370190505b50905060005b82811015612b4a577f0000000000000000000000000000000000000000000000000000000000000000811415612aa3577f0000000000000000000000000000000000000000000000000000000000000000828281518110612a9257fe5b602002602001018181525050612b42565b7f0000000000000000000000000000000000000000000000000000000000000000811415612af8577f0000000000000000000000000000000000000000000000000000000000000000828281518110612a9257fe5b7f0000000000000000000000000000000000000000000000000000000000000000811415612b4257670de0b6b3a7640000828281518110612b3557fe5b6020026020010181815250505b600101612a35565b5091505090565b81518151612b60908290613011565b60005b81811015612bba57612b9b848281518110612b7a57fe5b6020026020010151848381518110612b8e57fe5b60200260200101516136f6565b848281518110612ba757fe5b6020908102919091010152600101612b63565b50505050565b60006129b783836136f6565b60006129b7838361372c565b6001600160a01b0380841660008181526001602090815260408083209487168084529490915290819020849055517f8c5be1e5ebec7d5bd14f71427d1e84f3dd0314c0f7b2291e5b200ac8c7c3b92590612c3390859061497a565b60405180910390a3505050565b6000612c4a612c81565b421180611a6f57505060075460ff161590565b7f000000000000000000000000000000000000000000000000000000000000000090565b7f000000000000000000000000000000000000000000000000000000000000000090565b612cbc6001600160a01b03841615156101986129be565b612cd36001600160a01b03831615156101996129be565b612cde83838361369a565b6001600160a01b038316600090815260208190526040902054612d0490826101a061377d565b6001600160a01b038085166000908152602081905260408082209390935590841681522054612d339082612e2c565b6001600160a01b0380841660008181526020819052604090819020939093559151908516907fddf252ad1be2c89b69c2b068fc378daa952ba7f163c4a11628f55a4df523b3ef90612c3390859061497a565b6000612d9c6000356001600160e01b031916612583565b9050611b38612dab8233613793565b6101916129be565b612dc8612dbe61387c565b82101560cb6129be565b612ddd612dd3613885565b82111560ca6129be565b600854612dee908260c0603f612968565b6008556040517fa9ba3ffe0b6c366b81232caab38605a0699ad5398d6cce76f91ee809e322dafc90612e2190839061497a565b60405180910390a150565b60008282016129b784821015836129be565b8015612e5e57612e59612e4f612c5d565b42106101936129be565b612e73565b612e73612e69612c81565b42106101a96129be565b6007805460ff19168215151790556040517f9e3a5e37224532dea67b89face185703738a228a6e8a23dee546960180d3be6490612e21908390614957565b6000612ebb611b3b565b90506000612ec761261f565b6001600160a01b031663b05f8e4883866040518363ffffffff1660e01b8152600401612ef4929190614a1b565b60806040518083038186803b158015612f0c57600080fd5b505afa158015612f20573d6000803e3d6000fd5b505050506040513d601f19601f82011682018060405250810190612f44919061471f565b604051630639cdb560e21b81529094506001600160a01b03851693506318e736d49250612f78915085908790600401614a02565b600060405180830381600087803b158015612f9257600080fd5b505af11580156127dc573d6000803e3d6000fd5b600854612fb5908260ff613891565b6008556040517feff3d4d215b42bf0960be9c6d5e05c22cba4df6627a3a523e2acee733b5854c890612fe8908390614957565b60405180910390a180611b3857611b38611bac565b6001901b6000190191901c1690565b600390565b611bce81831460676129be565b60006060600061302d846138b8565b9050600181600181111561303d57fe5b146130525761304d6101636136e6565b613062565b61305c88856138ce565b90935091505b509850989650505050505050565b8151815161307f908290613011565b60005b81811015612bba576130ba84828151811061309957fe5b60200260200101518483815181106130ad57fe5b602002602001015161372c565b8482815181106130c657fe5b6020908102919091010152600101613082565b333014613197576000306001600160a01b03166000366040516130fd92919061484a565b6000604051808303816000865af19150503d806000811461313a576040519150601f19603f3d011682016040523d82523d6000602084013e61313f565b606091505b50509050806000811461314e57fe5b60046000803e6000516001600160e01b0319166343adbafb60e01b8114613179573d6000803e3d6000fd5b506020600460003e604060205260243d03602460403e601c3d016000f35b61319f613271565b60606131a96129df565b90506131b58782612b51565b600060606131cd8c8c8c8c8c8c898d8d63ffffffff16565b915091506131df81848663ffffffff16565b8051601f1982018390526343adbafb603f1983015260200260231982016044820181fd5b6000808251118015611a30575060ff801682806020019051810190613228919061475f565b60ff161492915050565b611bac61323d612714565b6101b66129be565b60006060600061325484613999565b905060606132638787846139af565b919791965090945050505050565b611bac6129cc565b611bce8282613a5d565b600060606132926101636136e6565b9850989650505050505050565b815181516132ae908290613011565b60005b81811015612bba576132e98482815181106132c857fe5b60200260200101518483815181106132dc57fe5b6020026020010151613b29565b8482815181106132f557fe5b60209081029190910101526001016132b1565b600061331261261f565b6001600160a01b031663aaabadc56040518163ffffffff1660e01b815260040160206040518083038186803b15801561334a57600080fd5b505afa15801561335e573d6000803e3d6000fd5b505050506040513d601f19601f82011682018060405250810190611a6f91906142d3565b1c60019081161490565b60408051604180825260808201909252606091829190602082018180368337019050509050836020820152826040820152846060820153949350505050565b60006133d685613b77565b90506133ec6133e6878387613b93565b836129be565b6133fb428410156101b86129be565b5050506001600160a01b039092166000908152600660205260409020805460010190555050565b6000606061342e6129cc565b7f00000000000000000000000000000000000000000000000000000000000000006134696001600160a01b03888116908316146101566129be565b613489816001600160a01b0316876001600160a01b0316146101566129be565b6dffffffffffffffffffffffffffff60606134a386613c42565b9050613502817f0000000000000000000000000000000000000000000000000000000000000000815181106134d457fe5b60200260200101517f0000000000000000000000000000000000000000000000000000000000000000612bc0565b817f00000000000000000000000000000000000000000000000000000000000000008151811061352e57fe5b602090810291909101015290999098509650505050505050565b620f424090565b611bce8282613c58565b6001600160a01b03918216600090815260016020908152604080832093909416825291909152205490565b60007f00000000000000000000000000000000000000000000000000000000000000007f00000000000000000000000000000000000000000000000000000000000000007f00000000000000000000000000000000000000000000000000000000000000006135f1613ceb565b306040516020016136069594939291906149d6565b60405160208183030381529060405280519060200120905090565b60028151101561363057611b38565b60008160008151811061363f57fe5b602002602001015190506000600190505b825181101561369a57600083828151811061366757fe5b60200260200101519050613690816001600160a01b0316846001600160a01b03161060656129be565b9150600101613650565b505050565b6136ae610100831060646129be565b6136d7600182101580156136d057506136cc60ff84610100036129a6565b8211155b60646129be565b61369a83821c156101b46129be565b611b38816210905360ea1b613cef565b600082820261371a84158061371357508385838161371057fe5b04145b60036129be565b670de0b6b3a764000090049392505050565b600061373b82151560046129be565b8261374857506000611a30565b670de0b6b3a76400008381029061376b9085838161376257fe5b041460056129be565b82818161377457fe5b04915050611a30565b600061378c84841115836129be565b5050900390565b600073ba1ba1ba1ba1ba1ba1ba1ba1ba1ba1ba1ba1ba1b6137b26125fb565b6001600160a01b0316141580156137cd57506137cd83613d50565b156137f5576137da6125fb565b6001600160a01b0316336001600160a01b0316149050611a30565b6137fd613308565b6001600160a01b0316639be2a8848484306040518463ffffffff1660e01b815260040161382c93929190614983565b60206040518083038186803b15801561384457600080fd5b505afa158015613858573d6000803e3d6000fd5b505050506040513d601f19601f8201168201806040525081019061293e91906141bc565b64e8d4a5100090565b67016345785d8a000090565b60006001821b19841682846138a75760006138aa565b60015b60ff16901b17949350505050565b600081806020019051810190611a30919061433c565b6000606060006138dd84613d8c565b9050606085516001600160401b03811180156138f857600080fd5b50604051908082528060200260200182016040528015613922578160200160208202803683370190505b50905060005b865181101561398d577f000000000000000000000000000000000000000000000000000000000000000081146139855786818151811061396457fe5b602002602001015182828151811061397857fe5b6020026020010181815250505b600101613928565b50909590945092505050565b6000818060200190518101906129b7919061477b565b606060006139bd838561372c565b905084516001600160401b03811180156139d657600080fd5b50604051908082528060200260200182016040528015613a00578160200160208202803683370190505b50915060005b8551811015613a5457613a3582878381518110613a1f57fe5b60200260200101516136f690919063ffffffff16565b838281518110613a4157fe5b6020908102919091010152600101613a06565b50509392505050565b613a746001600160a01b038316151561019b6129be565b613a808260008361369a565b6001600160a01b038216600090815260208190526040902054613aa690826101b261377d565b6001600160a01b038316600090815260208190526040902055613ad9613ad482613ace611a36565b90613da2565b613db0565b60006001600160a01b0316826001600160a01b03167fddf252ad1be2c89b69c2b068fc378daa952ba7f163c4a11628f55a4df523b3ef83604051613b1d919061497a565b60405180910390a35050565b6000613b3882151560046129be565b82613b4557506000611a30565b670de0b6b3a764000083810290613b5f9085838161376257fe5b826001820381613b6b57fe5b04600101915050611a30565b6000613b81613584565b826040516020016125b892919061485a565b6000613ba582516041146101b96129be565b60208281015160408085015160608601518251600080825295019283905292939092811a91600190613bde908990859088908890614a32565b6020604051602081039080840390855afa158015613c00573d6000803e3d6000fd5b5050604051601f1901519150506001600160a01b03811615801590613c365750876001600160a01b0316816001600160a01b0316145b98975050505050505050565b6060818060200190518101906129b79190614385565b613c646000838361369a565b613c79613ad482613c73611a36565b90612e2c565b6001600160a01b038216600090815260208190526040902054613c9c9082612e2c565b6001600160a01b0383166000818152602081905260408082209390935591519091907fddf252ad1be2c89b69c2b068fc378daa952ba7f163c4a11628f55a4df523b3ef90613b1d90859061497a565b4690565b62461bcd60e51b600090815260206004526007602452600a808404818106603090810160081b958390069590950190829004918206850160101b01602363ffffff0060e086901c160160181b0190930160c81b60445260e882901c90606490fd5b6000613d62631c74c91760e11b612583565b821480613d7d5750613d7a6350dd6ed960e01b612583565b82145b80611a305750611a3082613db5565b6000818060200190518101906129b79190614358565b60006129b78383600161377d565b600255565b50600090565b604080518082019091526000808252602082015290565b6040805160e081018252600080825260208201819052918101829052606081018290526080810182905260a0810182905260c081019190915290565b60408051610120810190915280600081526000602082018190526040820181905260608083018290526080830182905260a0830182905260c0830182905260e08301919091526101009091015290565b8035611a3081614d6c565b8051611a3081614d6c565b600082601f830112613e84578081fd5b8135613e97613e9282614cfe565b614cd8565b818152915060208083019084810181840286018201871015613eb857600080fd5b60005b84811015613ed757813584529282019290820190600101613ebb565b505050505092915050565b600082601f830112613ef2578081fd5b8151613f00613e9282614cfe565b818152915060208083019084810181840286018201871015613f2157600080fd5b60005b84811015613ed757815184529282019290820190600101613f24565b600082601f830112613f50578081fd5b8135613f5e613e9282614d1d565b9150808252836020828501011115613f7557600080fd5b8060208401602084013760009082016020015292915050565b8051611a3081614d81565b805160058110611a3057600080fd5b805160038110611a3057600080fd5b8035611a3081614d81565b600060208284031215613fd3578081fd5b81356129b781614d6c565b60008060408385031215613ff0578081fd5b8235613ffb81614d6c565b9150602083013561400b81614d6c565b809150509250929050565b60008060006060848603121561402a578081fd5b833561403581614d6c565b9250602084013561404581614d6c565b929592945050506040919091013590565b600080600080600080600060e0888a031215614070578485fd5b873561407b81614d6c565b9650602088013561408b81614d6c565b9550604088013594506060880135935060808801356140a981614d8e565b9699959850939692959460a0840135945060c09093013592915050565b600080604083850312156140d8578182fd5b82356140e381614d6c565b946020939093013593505050565b600080600060608486031215614105578081fd5b83516001600160401b038082111561411b578283fd5b818601915086601f83011261412e578283fd5b815161413c613e9282614cfe565b80828252602080830192508086018b82838702890101111561415c578788fd5b8796505b8487101561418757805161417381614d6c565b845260019690960195928101928101614160565b50890151909750935050508082111561419e578283fd5b506141ab86828701613ee2565b925050604084015190509250925092565b6000602082840312156141cd578081fd5b815180151581146129b7578182fd5b600080600080600080600060e0888a0312156141f6578081fd5b87359650602088013561420881614d6c565b9550604088013561421881614d6c565b945060608801356001600160401b0380821115614233578283fd5b61423f8b838c01613e74565b955060808a0135945060a08a0135935060c08a0135915080821115614262578283fd5b5061426f8a828b01613f40565b91505092959891949750929550565b600080600060608486031215614292578081fd5b8351925060208401519150604084015190509250925092565b6000602082840312156142bc578081fd5b81356001600160e01b0319811681146129b7578182fd5b6000602082840312156142e4578081fd5b81516129b781614d6c565b60008060408385031215614301578182fd5b823561430c81614d6c565b915060208301356001600160401b03811115614326578182fd5b61433285828601613f40565b9150509250929050565b60006020828403121561434d578081fd5b81516129b781614d81565b6000806040838503121561436a578182fd5b825161437581614d81565b6020939093015192949293505050565b60008060408385031215614397578182fd5b8251600481106143a5578283fd5b60208401519092506001600160401b038111156143c0578182fd5b61433285828601613ee2565b60008060008060008060c087890312156143e4578384fd5b86356143ef81614d81565b9550602087013594506040870135935060608701356001600160401b03811115614417578283fd5b61442389828a01613f40565b9350506080870135915060a087013590509295509295509295565b60008060408385031215614450578182fd5b82516001600160401b03811115614465578283fd5b8301601f81018513614475578283fd5b8051614483613e9282614d1d565b818152866020838501011115614497578485fd5b6144a8826020830160208601614d40565b60209590950151949694955050505050565b600080600080608085870312156144cf578182fd5b84356001600160401b03808211156144e5578384fd5b818701915061012080838a0312156144fb578485fd5b61450481614cd8565b90506145108984613fb7565b815261451f8960208501613e5e565b60208201526145318960408501613e5e565b6040820152606083013560608201526080830135608082015260a083013560a08201526145618960c08501613e5e565b60c08201526145738960e08501613e5e565b60e0820152610100808401358381111561458b578687fd5b6145978b828701613f40565b8284015250508096505060208701359150808211156145b4578384fd5b506145c187828801613e74565b949794965050505060408301359260600135919050565b60006101408083850312156145eb578182fd5b6145f481614cd8565b90506146008484613f8e565b815261460f8460208501613e69565b60208201526146218460408501613e69565b60408201526146338460608501613fa8565b60608201526146458460808501613f8e565b60808201526146578460a08501613f99565b60a082015260c083015160c08201526146738460e08501613e69565b60e08201526101008381015190820152610120928301519281019290925250919050565b600060e082840312156146a8578081fd5b6146b260e0614cd8565b8251815260208301516146c481614d6c565b8060208301525060408301516040820152606083015160608201526080830151608082015260a083015160a082015260c083015160c08201528091505092915050565b600060208284031215614718578081fd5b5035919050565b60008060008060808587031215614734578182fd5b845193506020850151925060408501519150606085015161475481614d6c565b939692955090935050565b600060208284031215614770578081fd5b81516129b781614d8e565b6000806040838503121561478d578182fd5b825161437581614d8e565b6001600160a01b03169052565b6000815180845260208085019450808401835b838110156147d4578151875295820195908201906001016147b8565b509495945050505050565b600081518084526147f7816020860160208601614d40565b601f01601f19169290920160200192915050565b6002811061481557fe5b9052565b80516003811061482557fe5b8252602090810151910152565b9182526001600160e01b031916602082015260240190565b6000828483379101908152919050565b61190160f01b81526002810192909252602282015260420190565b6001600160a01b0391909116815260200190565b6001600160a01b039788168152958716602087015260408601949094526060850192909252909316608083015260a082019290925260c081019190915260e00190565b6001600160a01b03958616815293909416602084015260408301919091526060820152608081019190915260a00190565b6001600160a01b03929092168252602082015260400190565b6000602082526129b760208301846147a5565b60006040825261493c60408301856147a5565b828103602084015261494e81856147a5565b95945050505050565b901515815260200190565b92151583526020830191909152604082015260600190565b90815260200190565b9283526001600160a01b03918216602084015216604082015260600190565b9586526001600160a01b0394851660208701529290931660408501526060840152608083019190915260a082015260c00190565b9485526020850193909352604084019190915260608301526001600160a01b0316608082015260a00190565b60008382526040602083015261298860408301846147df565b9182526001600160a01b0316602082015260400190565b93845260ff9290921660208401526040830152606082015260800190565b6000602082526129b760208301846147df565b602080825260169082015275496e76616c6964207377617070656420746f6b656e7360501b604082015260600190565b60208082526018908201527f4f726465722062656c6f77206d696e696d756d2073697a650000000000000000604082015260600190565b6020808252601d908201527f496e73756666696369656e742063757272656e63792062616c616e6365000000604082015260600190565b602080825260169082015275496e73756666696369656e74206c697175696469747960501b604082015260600190565b6020808252600c908201526b0496e76616c696420737761760a41b604082015260600190565b6020808252601d908201527f496e73756666696369656e742073656375726974792062616c616e6365000000604082015260600190565b600060808252614ba260808301865161480b565b6020850151614bb460a0840182614798565b506040850151614bc760c0840182614798565b50606085015160e08301526080850151610100818185015260a08701519150610120828186015260c08801519250614c03610140860184614798565b60e08801519250614c18610160860184614798565b818801519250806101808601525050614c356101a08401826147df565b915050614c456020830185614819565b612988606083018461480b565b825181526020808401516001600160a01b039081169183019190915260408085015190830152606080850151908301526080808501519083015260a0808501519083015260c09384015193820193909352911660e08201526101000190565b60008382526040602083015261298860408301846147a5565b60ff91909116815260200190565b6040518181016001600160401b0381118282101715614cf657600080fd5b604052919050565b60006001600160401b03821115614d13578081fd5b5060209081020190565b60006001600160401b03821115614d32578081fd5b50601f01601f191660200190565b60005b83811015614d5b578181015183820152602001614d43565b83811115612bba5750506000910152565b6001600160a01b0381168114611b3857600080fd5b60028110611b3857600080fd5b60ff81168114611b3857600080fdfea2646970667358221220c323ed1390c0924e30ceed83353de356470d56eb71ad9f76f48d236f4dc6468c64736f6c63430007010033608060405260006001553480156200001657600080fd5b50604051620037e0380380620037e0833981016040819052620000399162000106565b620000443362000098565b600980546001600160a01b039586166001600160a01b03199182161790915560078054948616948216949094179093556008805492851692841692909217909155600a805491909316911617905562000166565b600080546001600160a01b038381166001600160a01b0319831681178455604051919092169283917f8be0079c531659141344cd1fd0a4f28419497f9722a3daafe3b4186f6b6457e09190a35050565b80516001600160a01b03811681146200010057600080fd5b92915050565b600080600080608085870312156200011c578384fd5b620001288686620000e8565b9350620001398660208701620000e8565b92506200014a8660408701620000e8565b91506200015b8660608701620000e8565b905092959194509250565b61366a80620001766000396000f3fe608060405234801561001057600080fd5b50600436106101005760003560e01c80637489ec2311610097578063ca142f7511610066578063ca142f75146101f5578063d729cf6c14610215578063e43372e914610228578063f2fde38b1461023057610100565b80637489ec23146101b457806381b5da1d146101c75780638da5cb5b146101da578063af18cfd8146101e257610100565b80635778472a116100d35780635778472a1461016257806365fe757e146101825780636945c1fd146101a4578063715018a6146101ac57610100565b80630c8605be146101055780632541897f1461011a57806338fff2d01461013857806346b8b7301461014d575b600080fd5b610118610113366004613181565b610243565b005b610122610365565b60405161012f91906132f4565b60405180910390f35b610140610374565b60405161012f919061334c565b610155610403565b60405161012f9190613308565b6101756101703660046130e8565b6104eb565b60405161012f91906134ec565b610195610190366004613195565b61067c565b60405161012f93929190613355565b6101226109c1565b6101186109d0565b6101186101c23660046130e8565b6109e8565b6101186101d5366004613118565b610b3f565b610122610ca7565b6101186101f0366004613143565b610cb6565b6102086102033660046130bd565b611056565b60405161012f9190613599565b6101186102233660046130bd565b611122565b6101556111c1565b61011861023e3660046130a1565b611222565b6000838152600260208190526040822060010154600160a01b900460ff169081111561026b57fe5b14156102925760405162461bcd60e51b8152600401610289906133a2565b60405180910390fd5b6002600084815260026020526040902060010154600160b01b900460ff1660048111156102bb57fe5b146102d85760405162461bcd60e51b81526004016102899061343d565b6000838152600260205260409020600301546001600160a01b031633146103115760405162461bcd60e51b815260040161028990613406565b6000838152600260208190526040909120600481018490558082018390556001908101549091600160a01b90910460ff169081111561034c57fe5b14156103605761035d836001611251565b50505b505050565b6007546001600160a01b031690565b600080600a60009054906101000a90046001600160a01b03166001600160a01b03166338fff2d06040518163ffffffff1660e01b815260040160206040518083038186803b1580156103c557600080fd5b505afa1580156103d9573d6000803e3d6000fd5b505050506040513d601f19601f820116820180604052508101906103fd9190613100565b91505090565b600354606090819067ffffffffffffffff8111801561042157600080fd5b5060405190808252806020026020018201604052801561044b578160200160208202803683370190505b5090506000805b6003548110156104e357336001600160a01b0316600260006003848154811061047757fe5b600091825260208083209091015483528201929092526040019020600301546001600160a01b031614156104db57600381815481106104b257fe5b90600052602060002001548383815181106104c957fe5b60209081029190910101526001909101905b600101610452565b509091505090565b6104f3612eef565b6104fb610ca7565b6001600160a01b0316336001600160a01b0316148061052457506009546001600160a01b031633145b8061054857506000828152600260205260409020600301546001600160a01b031633145b6105645760405162461bcd60e51b81526004016102899061336b565b60008281526002602052604090819020815161014081019092528054829060ff16600181111561059057fe5b600181111561059b57fe5b8152815461010090046001600160a01b03908116602083015260018301549081166040830152606090910190600160a01b900460ff1660028111156105dc57fe5b60028111156105e757fe5b81526020016001820160159054906101000a900460ff16600181111561060957fe5b600181111561061457fe5b81526020016001820160169054906101000a900460ff16600481111561063657fe5b600481111561064157fe5b81526002820154602082015260038201546001600160a01b031660408201526004820154606082015260059091015460809091015292915050565b6000808061069e3361068c610ca7565b6001600160a01b0316146101aa6116a1565b6000855160028111156106ad57fe5b14806106c557506001855160028111156106c357fe5b145b6106ce57600080fd5b60008460018111156106dc57fe5b14806106f3575060018460018111156106f157fe5b145b6106fc57600080fd5b600154421415610713576001805481019055610718565b426001555b60008660c001516001546040516020016107339291906132d2565b604051602081830303815290604052805190602001209050610753612eef565b6040518061014001604052808960000151600181111561076f57fe5b815260200189602001516001600160a01b0316815260200189604001516001600160a01b03168152602001886000015160028111156107aa57fe5b81526020018760018111156107bb57fe5b8152600260208083018290526060808d015160408086019190915260c08e01516001600160a01b0316918501919091528b820151608085015260a0909301869052600086815291905220815181549293508392829060ff19166001838181111561082157fe5b021790555060208201518154610100600160a81b0319166101006001600160a01b039283160217825560408301516001830180546001600160a01b03191691909216178082556060840151919060ff60a01b1916600160a01b83600281111561088657fe5b021790555060808201518160010160156101000a81548160ff021916908360018111156108af57fe5b021790555060a082015160018201805460ff60b01b1916600160b01b8360048111156108d757fe5b021790555060c0820151600282015560e08201516003820180546001600160a01b0319166001600160a01b0390921691909117905561010082015160048201556101209091015160059091015560008751600281111561093357fe5b1415610951576109448160006116b3565b94509450945050506109b8565b60018751600281111561096057fe5b14156109b557600380546000848152600460205260408120829055600180830184559290527fc2575a0e9e593c00f959f8c92f12db2869c3395a3b0502d05e2516446f71f85b018390556109449082906116b3565b50505b93509350939050565b6008546001600160a01b031690565b6109dc3361068c610ca7565b6109e66000612751565b565b6000818152600260208190526040822060010154600160a01b900460ff1690811115610a1057fe5b1415610a2e5760405162461bcd60e51b8152600401610289906134ab565b6002600082815260026020526040902060010154600160b01b900460ff166004811115610a5757fe5b14610a745760405162461bcd60e51b81526004016102899061343d565b6000818152600260205260409020600301546001600160a01b03163314610aad5760405162461bcd60e51b815260040161028990613406565b60035415610adf57600081815260046020526040902054600380549091908110610ad357fe5b60009182526020822001555b6000908152600460208181526040808420849055600291829052832080546001600160a81b03191681556001810180546001600160b81b03191690559081018390556003810180546001600160a01b031916905590810182905560050155565b6009546001600160a01b0316331480610b705750610b5b610ca7565b6001600160a01b0316336001600160a01b0316145b610b8c5760405162461bcd60e51b8152600401610289906133d9565b600092835260026020818152604080862080546001600160a81b03199081168255600180830180546001600160b81b03199081169091558387018a9055600380850180546001600160a01b0319908116825560048088018e905560059788018e90559b8d52878d208054909616865585850180549094169093558489018c9055848201805484168155858c018d90559486018c9055546001600160a01b039081168c52858852868c208a8d528852868c208c8155808501805485169055808a018d90558083018d9055808c018d90558087018d905560069081018d90559454168b52848752858b20988b5297909552928820888155928301805490941690935592810186905592830185905592820184905581018390550155565b6000546001600160a01b031690565b6009546001600160a01b0316331480610ce75750610cd2610ca7565b6001600160a01b0316336001600160a01b0316145b610d035760405162461bcd60e51b8152600401610289906133d9565b6000826001811115610d1157fe5b1480610d2857506001826001811115610d2657fe5b145b610d3157600080fd5b60008481526002602081905260409091208082018054860190556001908101805460ff60b01b1916600160b11b17908190559091600160a01b90910460ff1690811115610d7a57fe5b1415610dd257600380546000868152600460205260408120829055600180830184559290527fc2575a0e9e593c00f959f8c92f12db2869c3395a3b0502d05e2516446f71f85b01859055610dcf908590611251565b50505b60018101610dde612f46565b5060008581526002602081815260408084206003908101546001600160a01b03908116865260058085528387208988528552838720845160e08101865281548082526001830154909416968101969096529586015493850193909352908401546060840152600484015460808401529083015460a083015260069092015460c082015291908714610e70578151610e72565b865b9050600087836040015114610e8b578260400151610e8d565b875b9050610e97612f46565b6040518060e001604052808481526020016002600086815260200190815260200160002060030160009054906101000a90046001600160a01b03166001600160a01b03168152602001838152602001856060015181526020018681526020018560a0015181526020018560c0015181525090508060056000600260008d815260200190815260200160002060030160009054906101000a90046001600160a01b03166001600160a01b03166001600160a01b0316815260200190815260200160002060008781526020019081526020016000206000820151816000015560208201518160010160006101000a8154816001600160a01b0302191690836001600160a01b0316021790555060408201518160020155606082015181600301556080820151816004015560a0820151816005015560c0820151816006015590505060066000600260008c815260200190815260200160002060030160009054906101000a90046001600160a01b03166001600160a01b03166001600160a01b03168152602001908152602001600020859080600181540180825580915050600190039060005260206000200160009091909190915055505050505050505050565b61105e612f46565b611066610ca7565b6001600160a01b0316336001600160a01b0316148061108d5750336001600160a01b038416145b6110a95760405162461bcd60e51b815260040161028990613474565b506001600160a01b038083166000908152600560208181526040808420868552825292839020835160e08101855281548152600182015490951691850191909152600281015492840192909252600382015460608401526004820154608084015281015460a08301526006015460c08201525b92915050565b61112e3361068c610ca7565b60005b6001600160a01b038316600090815260066020526040902054811015610360576001600160a01b038316600090815260066020526040902080548391908390811061117857fe5b906000526020600020015414156111b9576001600160a01b03831660009081526006602052604090208054829081106111ad57fe5b60009182526020822001555b600101611131565b3360009081526006602090815260409182902080548351818402810184019094528084526060939283018282801561121857602002820191906000526020600020905b815481526020019060010190808311611204575b5050505050905090565b61122e3361068c610ca7565b6112456001600160a01b03821615156101ab6116a1565b61124e81612751565b50565b600060606000606060038054905067ffffffffffffffff8111801561127557600080fd5b5060405190808252806020026020018201604052801561129f578160200160208202803683370190505b5090506000805b60035481101561169457600381815481106112bd57fe5b6000918252602090912001546112d25761168c565b600060026000600384815481106112e557fe5b9060005260206000200154815260200190815260200160002060010160159054906101000a900460ff16600181111561131a57fe5b14801561134e575060016000898152600260205260409020600190810154600160a81b900460ff169081111561134c57fe5b145b80156113b657506002600089815260200190815260200160002060040154600260006003848154811061137d57fe5b90600052602060002001548152602001908152602001600020600401541015806113b65750600088815260026020526040902060040154155b8061149f5750600160026000600384815481106113cf57fe5b9060005260206000200154815260200190815260200160002060010160159054906101000a900460ff16600181111561140457fe5b1480156114375750600080898152600260205260409020600190810154600160a81b900460ff169081111561143557fe5b145b801561149f57506002600089815260200190815260200160002060040154600260006003848154811061146657fe5b906000526020600020015481526020019081526020016000206004015411158061149f5750600088815260026020526040902060040154155b1561168c57600381815481106114b157fe5b90600052602060002001548383815181106114c857fe5b60209081029190910181019190915260075460008a8152600290925260409091205461010090046001600160a01b039081169116148015611523575060008881526002602052604081205460ff16600181111561152157fe5b145b8061157457506008546000898152600260205260409020600101546001600160a01b0390811691161480156115745750600160008981526002602052604090205460ff16600181111561157257fe5b145b156115b7576115b084600260006003858154811061158e57fe5b90600052602060002001548152602001908152602001600020600201546127a1565b9350611630565b61162d8461162860026000600386815481106115cf57fe5b906000526020600020015481526020019081526020016000206002015460026000600387815481106115fd57fe5b90600052602060002001548152602001908152602001600020600401546127ba90919063ffffffff16565b6127a1565b93505b600087600281111561163e57fe5b141580156116635750876003828154811061165557fe5b906000526020600020015414155b15611685578783836001018151811061167857fe5b6020026020010181815250505b6001909101905b6001016112a6565b5091969095509350505050565b816116af576116af816127f0565b5050565b60008060008060008080600090506000806000606060038054905067ffffffffffffffff811180156116e457600080fd5b5060405190808252806020026020018201604052801561170e578160200160208202803683370190505b5090506117208d61012001518d611251565b909250905060008c600281111561173357fe5b1415611766578c60c00151821015611761578c61012001516000809a509a509a50505050505050505061274a565b61179b565b60018c600281111561177457fe5b141561179b578161179b578c61012001516000809a509a509a50505050505050505061274a565b600091505b80518210156127365760c08d01516117b757612736565b8c61012001518183815181106117c957fe5b60200260200101511415801561182257508c60e001516001600160a01b0316600260008385815181106117f857fe5b6020908102919091018101518252810191909152604001600020600301546001600160a01b031614155b8015611870575060006002600083858151811061183b57fe5b6020026020010151815260200190815260200160002060010160169054906101000a900460ff16600481111561186d57fe5b14155b15611aa0576002600082848151811061188557fe5b602002602001015181526020019081526020016000206004015460001480156118b157506101008d0151155b156118bb5761272b565b6000600260008385815181106118cd57fe5b6020026020010151815260200190815260200160002060010160159054906101000a900460ff1660018111156118ff57fe5b14801561191b575060018d60800151600181111561191957fe5b145b156119b0578c61010001516002600083858151811061193657fe5b602002602001015181526020019081526020016000206004015410158061196057506101008d0151155b156119ab576002600082848151811061197557fe5b6020026020010151815260200190815260200160002060040154965080828151811061199d57fe5b602002602001015197508194505b611aa0565b6001600260008385815181106119c257fe5b6020026020010151815260200190815260200160002060010160159054906101000a900460ff1660018111156119f457fe5b148015611a10575060008d608001516001811115611a0e57fe5b145b15611aa0578c610100015160026000838581518110611a2b57fe5b6020026020010151815260200190815260200160002060040154111580611a5557506101008d0151155b15611aa05760026000828481518110611a6a57fe5b60200260200101518152602001908152602001600020600401549650808281518110611a9257fe5b602002602001015195508194505b60018d608001516001811115611ab257fe5b141561212157871561211c5760075460208e01516001600160a01b039081169116148015611aec575060008d516001811115611aea57fe5b145b15611e025760085460008981526002602052604090205461010090046001600160a01b039081169116148015611b3c575060008881526002602052604081205460ff166001811115611b3a57fe5b145b15611b655760008881526002602081905260409091200154611b5e9088612800565b9350611bcb565b6007546000898152600260205260409020600101546001600160a01b039081169116148015611bb05750600160008981526002602052604090205460ff166001811115611bae57fe5b145b15611bcb576000888152600260208190526040909120015493505b8c60c001518410611d8f5760c08d01519350611be784886127ba565b60085460008a8152600260205260409020549194506001600160a01b0390811661010090920416148015611c375750600160008981526002602052604090205460ff166001811115611c3557fe5b145b611c5d5760008881526002602081905260409091200154611c589084612851565b611c81565b611c81600260008a8152602001908152602001600020600201548e60c00151612851565b600260008a81526020019081526020016000206002018190555060008d60c0018181525050600260008981526020019081526020016000206002015460001415611cef576000888152600260205260409020600101805460ff60b01b19169055611cea85612867565b611d12565b6000888152600260205260409020600101805460ff60b01b1916600160b01b1790555b600060a08e01526101208d0151611d2c9089898787612882565b600354909550611d3f9060001901612867565b60008d606001516002811115611d5157fe5b1415611d8a576000611d6e8e61012001518f60e001516001612b8e565b6101208f01519c50959a5094985061274a975050505050505050565b611dfd565b8315611dfd57611d9f84886127ba565b9250611daf8d60c0015185612851565b60c08e015260008881526002602081905260408220908101919091556001908101805460ff60b01b1916905560a08e01526101208d0151611df39089898787612882565b50611dfd85612867565b61211c565b60085460408e01516001600160a01b039081169116148015611e30575060018d516001811115611e2e57fe5b145b1561211c576007546000898152600260205260409020600101546001600160a01b039081169116148015611e805750600160008981526002602052604090205460ff166001811115611e7e57fe5b145b15611ea95760008881526002602081905260409091200154611ea290886127ba565b9250611f0f565b60085460008981526002602052604090205461010090046001600160a01b039081169116148015611ef4575060008881526002602052604081205460ff166001811115611ef257fe5b145b15611f0f576000888152600260208190526040909120015492505b8c60c0015183106120ae5760c08d01519250611f2b8388612800565b60075460008a8152600260205260409020600101549195506001600160a01b039182169116148015611f77575060008881526002602052604081205460ff166001811115611f7557fe5b145b611f9d5760008881526002602081905260409091200154611f989085612851565b611fc1565b611fc1600260008a8152602001908152602001600020600201548e60c00151612851565b600260008a81526020019081526020016000206002018190555060008d60c001818152505060026000898152602001908152602001600020600201546000141561202f576000888152600260205260409020600101805460ff60b01b1916905561202a85612867565b612052565b6000888152600260205260409020600101805460ff60b01b1916600160b01b1790555b600060a08e01526101208d015161206c9089898787612882565b60035490955061207f9060001901612867565b60008d60600151600281111561209157fe5b1415611dfd576000611d6e8e61012001518f60e001516000612b8e565b821561211c576120be8388612800565b93506120ce8d60c0015184612851565b60c08e015260008881526002602081905260408220908101919091556001908101805460ff60b01b1916905560a08e01526101208d01516121129089898787612882565b5061211c85612867565b61272b565b60008d60800151600181111561213357fe5b141561272b57851561272b5760085460208e01516001600160a01b03908116911614801561216d575060008d51600181111561216b57fe5b145b1561240f5760075460008781526002602052604090205461010090046001600160a01b0390811691161480156121bd575060008681526002602052604081205460ff1660018111156121bb57fe5b145b156121e657600086815260026020819052604090912001546121df90886127ba565b925061224c565b6008546000878152600260205260409020600101546001600160a01b0390811691161480156122315750600160008781526002602052604090205460ff16600181111561222f57fe5b145b1561224c576000868152600260208190526040909120015492505b8c60c0015183106123ab5760c08d015192506122688388612800565b6008546000888152600260205260409020600101549195506001600160a01b0391821691161480156122b65750600160008781526002602052604090205460ff1660018111156122b457fe5b145b6122dc57600086815260026020819052604090912001546122d79085612851565b612300565b61230060026000888152602001908152602001600020600201548e60c00151612851565b600260008881526020019081526020016000206002018190555060008d60c001818152505060026000878152602001908152602001600020600201546000141561236e576000868152600260205260409020600101805460ff60b01b1916905561236985612867565b612391565b6000868152600260205260409020600101805460ff60b01b1916600160b01b1790555b600060a08e01526101208d015161206c9087898787612882565b821561211c576123bb8388612800565b93506123cb8d60c0015184612851565b60c08e015260008681526002602081905260408220908101919091556001908101805460ff60b01b1916905560a08e01526101208d01516121129087898787612882565b60075460408e01516001600160a01b03908116911614801561243d575060018d51600181111561243b57fe5b145b1561272b576008546000878152600260205260409020600101546001600160a01b03908116911614801561248d5750600160008781526002602052604090205460ff16600181111561248b57fe5b145b156124b657600086815260026020819052604090912001546124af9088612800565b935061251c565b60075460008781526002602052604090205461010090046001600160a01b039081169116148015612501575060008681526002602052604081205460ff1660018111156124ff57fe5b145b1561251c576000868152600260208190526040909120015493505b8c60c0015184106126bd5760c08d0151935061253884886127ba565b6007546000888152600260205260409020549194506001600160a01b0390811661010090920416148015612586575060008681526002602052604081205460ff16600181111561258457fe5b145b6125ac57600086815260026020819052604090912001546125a79084612851565b6125d0565b6125d060026000888152602001908152602001600020600201548e60c00151612851565b600260008881526020019081526020016000206002018190555060008d60c001818152505060026000878152602001908152602001600020600201546000141561263e576000868152600260205260409020600101805460ff60b01b1916905561263985612867565b612661565b6000868152600260205260409020600101805460ff60b01b1916600160b01b1790555b600060a08e01526101208d015161267b9087898787612882565b60035490955061268e9060001901612867565b60008d6060015160028111156126a057fe5b141561211c576000611d6e8e61012001518f60e001516001612b8e565b831561272b576126cd84886127ba565b92506126dd8d60c0015185612851565b60c08e015260008681526002602081905260408220908101919091556001908101805460ff60b01b1916905560a08e01526101208d01516127219087898787612882565b5061272b85612867565b6001909101906117a0565b506060612741612d35565b50505050505050505b9250925092565b600080546001600160a01b038381166001600160a01b0319831681178455604051919092169283917f8be0079c531659141344cd1fd0a4f28419497f9722a3daafe3b4186f6b6457e09190a35050565b60008282016127b384821015836116a1565b9392505050565b60008282026127de8415806127d75750838583816127d457fe5b04145b60036116a1565b670de0b6b3a764000090049392505050565b61124e816210905360ea1b612e8e565b600061280f82151560046116a1565b8261281c5750600061111c565b670de0b6b3a76400008381029061283f9085838161283657fe5b041460056116a1565b82818161284857fe5b0491505061111c565b60006128618383111560016116a1565b50900390565b6003818154811061287457fe5b600091825260208220015550565b60018054810190819055600090612897612f46565b6040518060e00160405280898152602001600260008b815260200190815260200160002060030160009054906101000a90046001600160a01b03166001600160a01b031681526020018881526020018781526020018381526020018681526020018581525090508060056000600260008c815260200190815260200160002060030160009054906101000a90046001600160a01b03166001600160a01b03166001600160a01b0316815260200190815260200160002060008481526020019081526020016000206000820151816000015560208201518160010160006101000a8154816001600160a01b0302191690836001600160a01b0316021790555060408201518160020155606082015181600301556080820151816004015560a0820151816005015560c082015181600601559050508060056000600260008b815260200190815260200160002060030160009054906101000a90046001600160a01b03166001600160a01b03166001600160a01b0316815260200190815260200160002060008481526020019081526020016000206000820151816000015560208201518160010160006101000a8154816001600160a01b0302191690836001600160a01b0316021790555060408201518160020155606082015181600301556080820151816004015560a0820151816005015560c0820151816006015590505060066000600260008b815260200190815260200160002060030160009054906101000a90046001600160a01b03166001600160a01b03166001600160a01b0316815260200190815260200160002082908060018154018082558091505060019003906000526020600020016000909190919091505560066000600260008a815260200190815260200160002060030160009054906101000a90046001600160a01b03166001600160a01b03166001600160a01b03168152602001908152602001600020829080600181540180825580915050600190039060005260206000200160009091909190915055819250505095945050505050565b6000806000612b9b612f46565b60005b6001600160a01b038716600090815260066020526040902054811015612d22576001600160a01b0387166000908152600660205260409020805482908110612be257fe5b60009182526020808320909101546001600160a01b03808b16845260058084526040808620848752855294859020855160e0810187528154808252600183015490941695810195909552600281015495850195909552600385015460608501526004850154608085015284015460a084015260069093015460c083015295509250881415612c9157600086612c7b578260a00151612c81565b8260c001515b9050612c8d84826127a1565b9350505b6001600160a01b0387166000908152600660205260409020805482908110612cb557fe5b600091825260208083209091018290556001600160a01b038916825260058082526040808420888552909252908220828155600180820180546001600160a01b03191690556002820184905560038201849055600482018490559181018390556006019190915501612b9e565b50612d2b612d35565b5095945050505050565b6000805b600354811015612d705760038181548110612d5057fe5b60009182526020909120015415612d68576001909101905b600101612d39565b5080612d95576040805160008152602081019182905251612d9391600391612f82565b505b60608167ffffffffffffffff81118015612dae57600080fd5b50604051908082528060200260200182016040528015612dd8578160200160208202803683370190505b5090506000805b600354811015612e745760038181548110612df657fe5b60009182526020909120015415612e6c57816004600060038481548110612e1957fe5b906000526020600020015481526020019081526020016000208190555060038181548110612e4357fe5b9060005260206000200154838381518110612e5a57fe5b60209081029190910101526001909101905b600101612ddf565b508151612e88906003906020850190612f82565b50505050565b62461bcd60e51b600090815260206004526007602452600a808404818106603090810160081b958390069590950190829004918206850160101b01602363ffffff0060e086901c160160181b0190930160c81b60445260e882901c90606490fd5b60408051610140810190915280600081526000602082018190526040820181905260609091019081526020016000815260200160008152600060208201819052604082018190526060820181905260809091015290565b6040805160e081018252600080825260208201819052918101829052606081018290526080810182905260a0810182905260c081019190915290565b828054828255906000526020600020908101928215612fbd579160200282015b82811115612fbd578251825591602001919060010190612fa2565b50612fc9929150612fcd565b5090565b5b80821115612fc95760008155600101612fce565b803561111c81613612565b600082601f830112612ffd578081fd5b813567ffffffffffffffff811115613013578182fd5b613026601f8201601f19166020016135eb565b915080825283602082850101111561303d57600080fd5b8060208401602084013760009082016020015292915050565b803561111c81613627565b600060408284031215613072578081fd5b61307c60406135eb565b905081356003811061308d57600080fd5b808252506020820135602082015292915050565b6000602082840312156130b2578081fd5b81356127b381613612565b600080604083850312156130cf578081fd5b82356130da81613612565b946020939093013593505050565b6000602082840312156130f9578081fd5b5035919050565b600060208284031215613111578081fd5b5051919050565b60008060006060848603121561312c578081fd5b505081359360208301359350604090920135919050565b60008060008060808587031215613158578081fd5b8435935060208501359250604085013561317181613627565b9396929550929360600135925050565b60008060006060848603121561312c578283fd5b6000806000608084860312156131a9578283fd5b833567ffffffffffffffff808211156131c0578485fd5b81860191506101208083890312156131d6578586fd5b6131df816135eb565b90506131eb8884613056565b81526131fa8860208501612fe2565b602082015261320c8860408501612fe2565b6040820152606083013560608201526080830135608082015260a083013560a082015261323c8860c08501612fe2565b60c082015261324e8860e08501612fe2565b60e08201526101008084013583811115613266578788fd5b6132728a828701612fed565b82840152505080955050505061328b8560208601613061565b915061329a8560608601613056565b90509250925092565b6001600160a01b03169052565b600581106132ba57fe5b9052565b600381106132ba57fe5b600281106132ba57fe5b60609290921b6bffffffffffffffffffffffff19168252601482015260340190565b6001600160a01b0391909116815260200190565b6020808252825182820181905260009190848201906040850190845b8181101561334057835183529284019291840191600101613324565b50909695505050505050565b90815260200190565b9283526020830191909152604082015260600190565b6020808252601d908201527f556e617574686f72697a65642061636365737320746f206f7264657273000000604082015260600190565b6020808252601f908201527f4d61726b6574206f726465722063616e206e6f74206265206368616e67656400604082015260600190565b602080825260139082015272556e617574686f72697a65642061636365737360681b604082015260600190565b6020808252601b908201527f53656e646572206973206e6f74206f726465722063726561746f720000000000604082015260600190565b60208082526017908201527f4f7264657220697320616c72656164792066696c6c6564000000000000000000604082015260600190565b6020808252601d908201527f556e617574686f72697a65642061636365737320746f20747261646573000000604082015260600190565b60208082526021908201527f4d61726b6574206f726465722063616e206e6f742062652063616e63656c6c656040820152601960fa1b606082015260800190565b6000610140820190506135008284516132c8565b602083015161351260208401826132a3565b50604083015161352560408401826132a3565b50606083015161353860608401826132be565b50608083015161354b60808401826132c8565b5060a083015161355e60a08401826132b0565b5060c083015160c083015260e083015161357b60e08401826132a3565b50610100838101519083015261012092830151929091019190915290565b815181526020808301516001600160a01b03169082015260408083015190820152606080830151908201526080808301519082015260a0808301519082015260c0918201519181019190915260e00190565b60405181810167ffffffffffffffff8111828210171561360a57600080fd5b604052919050565b6001600160a01b038116811461124e57600080fd5b6002811061124e57600080fdfea26469706673582212207dc6d81a27a9d725b3b0aa6c1ec0f9b5f445e6633ddb23d808a190d7f2ed2b9364736f6c63430007010033",
  "linkReferences": {},
  "deployedLinkReferences": {}
}