{
  "_format": "hh-sol-artifact-1",
  "contractName": "WeightedPoolFactory",
  "sourceName": "contracts/WeightedPoolFactory.sol",
  "abi": [
    {
      "inputs": [
        {
          "internalType": "contract IVault",
          "name": "vault",
          "type": "address"
        },
        {
          "internalType": "contract IProtocolFeePercentagesProvider",
          "name": "protocolFeeProvider",
          "type": "address"
        }
      ],
      "stateMutability": "nonpayable",
      "type": "constructor"
    },
    {
      "anonymous": false,
      "inputs": [],
      "name": "FactoryDisabled",
      "type": "event"
    },
    {
      "anonymous": false,
      "inputs": [
        {
          "indexed": true,
          "internalType": "address",
          "name": "pool",
          "type": "address"
        }
      ],
      "name": "PoolCreated",
      "type": "event"
    },
    {
      "inputs": [
        {
          "internalType": "string",
          "name": "name",
          "type": "string"
        },
        {
          "internalType": "string",
          "name": "symbol",
          "type": "string"
        },
        {
          "internalType": "contract IERC20[]",
          "name": "tokens",
          "type": "address[]"
        },
        {
          "internalType": "uint256[]",
          "name": "normalizedWeights",
          "type": "uint256[]"
        },
        {
          "internalType": "contract IRateProvider[]",
          "name": "rateProviders",
          "type": "address[]"
        },
        {
          "internalType": "uint256",
          "name": "swapFeePercentage",
          "type": "uint256"
        },
        {
          "internalType": "address",
          "name": "owner",
          "type": "address"
        }
      ],
      "name": "create",
      "outputs": [
        {
          "internalType": "address",
          "name": "",
          "type": "address"
        }
      ],
      "stateMutability": "nonpayable",
      "type": "function"
    },
    {
      "inputs": [],
      "name": "disable",
      "outputs": [],
      "stateMutability": "nonpayable",
      "type": "function"
    },
    {
      "inputs": [
        {
          "internalType": "bytes4",
          "name": "selector",
          "type": "bytes4"
        }
      ],
      "name": "getActionId",
      "outputs": [
        {
          "internalType": "bytes32",
          "name": "",
          "type": "bytes32"
        }
      ],
      "stateMutability": "view",
      "type": "function"
    },
    {
      "inputs": [],
      "name": "getAuthorizer",
      "outputs": [
        {
          "internalType": "contract IAuthorizer",
          "name": "",
          "type": "address"
        }
      ],
      "stateMutability": "view",
      "type": "function"
    },
    {
      "inputs": [],
      "name": "getCreationCode",
      "outputs": [
        {
          "internalType": "bytes",
          "name": "",
          "type": "bytes"
        }
      ],
      "stateMutability": "view",
      "type": "function"
    },
    {
      "inputs": [],
      "name": "getCreationCodeContracts",
      "outputs": [
        {
          "internalType": "address",
          "name": "contractA",
          "type": "address"
        },
        {
          "internalType": "address",
          "name": "contractB",
          "type": "address"
        }
      ],
      "stateMutability": "view",
      "type": "function"
    },
    {
      "inputs": [],
      "name": "getPauseConfiguration",
      "outputs": [
        {
          "internalType": "uint256",
          "name": "pauseWindowDuration",
          "type": "uint256"
        },
        {
          "internalType": "uint256",
          "name": "bufferPeriodDuration",
          "type": "uint256"
        }
      ],
      "stateMutability": "view",
      "type": "function"
    },
    {
      "inputs": [],
      "name": "getProtocolFeePercentagesProvider",
      "outputs": [
        {
          "internalType": "contract IProtocolFeePercentagesProvider",
          "name": "",
          "type": "address"
        }
      ],
      "stateMutability": "view",
      "type": "function"
    },
    {
      "inputs": [],
      "name": "getVault",
      "outputs": [
        {
          "internalType": "contract IVault",
          "name": "",
          "type": "address"
        }
      ],
      "stateMutability": "view",
      "type": "function"
    },
    {
      "inputs": [],
      "name": "isDisabled",
      "outputs": [
        {
          "internalType": "bool",
          "name": "",
          "type": "bool"
        }
      ],
      "stateMutability": "view",
      "type": "function"
    },
    {
      "inputs": [
        {
          "internalType": "address",
          "name": "pool",
          "type": "address"
        }
      ],
      "name": "isPoolFromFactory",
      "outputs": [
        {
          "internalType": "bool",
          "name": "",
          "type": "bool"
        }
      ],
      "stateMutability": "view",
      "type": "function"
    }
  ],
  "bytecode": "0x6101806040523480156200001257600080fd5b5060405162008b6a38038062008b6a8339810160408190526200003591620001fc565b8181604051806020016200004990620001ee565b601f1982820381018352601f90910116604052805183903090839060006002820460a081905280830360e08190528185529091508362000095816200010f602090811b620004fe17901c565b60601b6001600160601b0319166080528285018051838252620000c4826200010f602090811b620004fe17901c565b6001600160601b0319606091821b811660c05296909352905261010095909552505092821b831661012052509290921b90911661014052505050426276a70001610160525062000250565b80517f602038038060206000396000f3fefefefefefefefefefefefefefefefefefefe808352600091602081018484f090845291506200015d6001600160a01b03831615156101ac62000163565b50919050565b816200017457620001748162000178565b5050565b6200018a816210905360ea1b6200018d565b50565b62461bcd60e51b600090815260206004526007602452600a808404818106603090810160081b958390069590950190829004918206850160101b01602363ffffff0060e086901c160160181b0190930160c81b60445260e882901c90606490fd5b61789b80620012cf83390190565b600080604083850312156200020f578182fd5b82516200021c816200023a565b60208401519092506200022f816200023a565b809150509250929050565b6001600160a01b03811681146200018a57600080fd5b60805160601c60a05160c05160601c60e051610100516101205160601c6101405160601c61016051611006620002c96000398061020c528061023552508061030b5250806104555250806104055250806105655250806101e352806105e15250806105865250806101c252806105bd52506110066000f3fe608060405234801561001057600080fd5b50600436106100c85760003560e01c80636c57f5a911610081578063851c1bb31161005b578063851c1bb3146101715780638d928af814610191578063aaabadc514610199576100c8565b80636c57f5a914610141578063739238d61461014957806380773a931461015e576100c8565b80632da47c40116100b25780632da47c40146101015780632f2770db146101175780636634b75314610121576100c8565b8062c194db146100cd578063174481fa146100eb575b600080fd5b6100d56101a1565b6040516100e29190610e31565b60405180910390f35b6100f36101c0565b6040516100e2929190610dca565b610109610206565b6040516100e2929190610f59565b61011f610270565b005b61013461012f366004610af8565b6102d5565b6040516100e29190610df1565b610134610300565b610151610309565b6040516100e29190610da9565b61015161016c366004610b90565b61032d565b61018461017f366004610b34565b610401565b6040516100e29190610dfc565b610151610453565b610151610477565b60606101bb6040518060200160405280600081525061055d565b905090565b7f00000000000000000000000000000000000000000000000000000000000000007f00000000000000000000000000000000000000000000000000000000000000009091565b600080427f000000000000000000000000000000000000000000000000000000000000000081101561026257807f000000000000000000000000000000000000000000000000000000000000000003925062278d00915061026b565b60009250600091505b509091565b610278610636565b61028061067f565b600180547fffffffffffffffffffffffffffffffffffffffffffffffffffffffffffffff0016811790556040517f432acbfd662dbb5d8b378384a67159b47ca9d0f1b79f97cf64cf8585fa362d5090600090a1565b73ffffffffffffffffffffffffffffffffffffffff1660009081526020819052604090205460ff1690565b60015460ff1690565b7f000000000000000000000000000000000000000000000000000000000000000090565b600080600061033a610206565b915091506103f16040518060e001604052808c81526020018b81526020018a81526020018981526020018881526020018a5167ffffffffffffffff8111801561038257600080fd5b506040519080825280602002602001820160405280156103ac578160200160208202803683370190505b5081526020018790526103bd610453565b6103c5610309565b8585896040516020016103dd96959493929190610e44565b604051602081830303815290604052610694565b925050505b979650505050505050565b60007f000000000000000000000000000000000000000000000000000000000000000082604051602001610436929190610d79565b604051602081830303815290604052805190602001209050919050565b7f000000000000000000000000000000000000000000000000000000000000000090565b6000610481610453565b73ffffffffffffffffffffffffffffffffffffffff1663aaabadc56040518163ffffffff1660e01b815260040160206040518083038186803b1580156104c657600080fd5b505afa1580156104da573d6000803e3d6000fd5b505050506040513d601f19601f820116820180604052508101906101bb9190610b74565b80517f602038038060206000396000f3fefefefefefefefefefefefefefefefefefefe808352600091602081018484f0908452915061055773ffffffffffffffffffffffffffffffffffffffff831615156101ac610728565b50919050565b8051604080517f00000000000000000000000000000000000000000000000000000000000000007f0000000000000000000000000000000000000000000000000000000000000000818101858101848101602090810190965280855293957f00000000000000000000000000000000000000000000000000000000000000009592947f000000000000000000000000000000000000000000000000000000000000000094938801866000828a3c846000888301883c506020898101908985010161062881838661073a565b505050505050505050919050565b60006106656000357fffffffff0000000000000000000000000000000000000000000000000000000016610401565b905061067c61067482336107b4565b610191610728565b50565b61069261068a610300565b1560d3610728565b565b600061069e61067f565b60006106a983610853565b73ffffffffffffffffffffffffffffffffffffffff811660008181526020819052604080822080547fffffffffffffffffffffffffffffffffffffffffffffffffffffffffffffff001660011790555192935090917f83a48fbcfc991335314e74d0496aab6a1987e992ddc85dddbcc4d6dd6ef2e9fc9190a292915050565b81610736576107368161089b565b5050565b5b602081106107785781518352602092830192909101907fffffffffffffffffffffffffffffffffffffffffffffffffffffffffffffffe00161073b565b905182516020929092036101000a7fffffffffffffffffffffffffffffffffffffffffffffffffffffffffffffffff0180199091169116179052565b60006107be610477565b73ffffffffffffffffffffffffffffffffffffffff16639be2a8848484306040518463ffffffff1660e01b81526004016107fa93929190610e05565b60206040518083038186803b15801561081257600080fd5b505afa158015610826573d6000803e3d6000fd5b505050506040513d601f19601f8201168201806040525081019061084a9190610b14565b90505b92915050565b600060606108608361055d565b905060008151602083016000f0905073ffffffffffffffffffffffffffffffffffffffff8116610894573d6000803e3d6000fd5b9392505050565b7f08c379a000000000000000000000000000000000000000000000000000000000600090815260206004526007602452600a808304818106603090810160081b83860601918390049283060160101b016642414c230000300160c81b60445261067c917f42414c0000000000000000000000000000000000000000000000000000000000906242414c90606490fd5b803561084d81610fae565b600082601f830112610945578081fd5b813561095861095382610f8e565b610f67565b81815291506020808301908481018184028601820187101561097957600080fd5b60005b848110156109a157813561098f81610fae565b8452928201929082019060010161097c565b505050505092915050565b600082601f8301126109bc578081fd5b81356109ca61095382610f8e565b8181529150602080830190848101818402860182018710156109eb57600080fd5b60005b848110156109a1578135610a0181610fae565b845292820192908201906001016109ee565b600082601f830112610a23578081fd5b8135610a3161095382610f8e565b818152915060208083019084810181840286018201871015610a5257600080fd5b60005b848110156109a157813584529282019290820190600101610a55565b600082601f830112610a81578081fd5b813567ffffffffffffffff811115610a97578182fd5b610ac860207fffffffffffffffffffffffffffffffffffffffffffffffffffffffffffffffe0601f84011601610f67565b9150808252836020828501011115610adf57600080fd5b8060208401602084013760009082016020015292915050565b600060208284031215610b09578081fd5b813561089481610fae565b600060208284031215610b25578081fd5b81518015158114610894578182fd5b600060208284031215610b45578081fd5b81357fffffffff0000000000000000000000000000000000000000000000000000000081168114610894578182fd5b600060208284031215610b85578081fd5b815161089481610fae565b600080600080600080600060e0888a031215610baa578283fd5b873567ffffffffffffffff80821115610bc1578485fd5b610bcd8b838c01610a71565b985060208a0135915080821115610be2578485fd5b610bee8b838c01610a71565b975060408a0135915080821115610c03578485fd5b610c0f8b838c01610935565b965060608a0135915080821115610c24578485fd5b610c308b838c01610a13565b955060808a0135915080821115610c45578485fd5b50610c528a828b016109ac565b93505060a08801359150610c698960c08a0161092a565b905092959891949750929550565b73ffffffffffffffffffffffffffffffffffffffff169052565b6000815180845260208085019450808401835b83811015610cd657815173ffffffffffffffffffffffffffffffffffffffff1687529582019590820190600101610ca4565b509495945050505050565b6000815180845260208085019450808401835b83811015610cd657815187529582019590820190600101610cf4565b60008151808452815b81811015610d3557602081850181015186830182015201610d19565b81811115610d465782602083870101525b50601f017fffffffffffffffffffffffffffffffffffffffffffffffffffffffffffffffe0169290920160200192915050565b9182527fffffffff0000000000000000000000000000000000000000000000000000000016602082015260240190565b73ffffffffffffffffffffffffffffffffffffffff91909116815260200190565b73ffffffffffffffffffffffffffffffffffffffff92831681529116602082015260400190565b901515815260200190565b90815260200190565b92835273ffffffffffffffffffffffffffffffffffffffff918216602084015216604082015260600190565b60006020825261084a6020830184610d10565b600060c08252875160e060c0840152610e616101a0840182610d10565b905060208901517fffffffffffffffffffffffffffffffffffffffffffffffffffffffffffffff40808584030160e0860152610e9d8383610d10565b925060408b015191508085840301610100860152610ebb8383610c91565b925060608b015191508085840301610120860152610ed98383610ce1565b925060808b015191508085840301610140860152610ef78383610c91565b925060a08b01519150808584030161016086015250610f168282610c91565b60c08b01516101808601529250610f339150506020830188610c77565b610f406040830187610c77565b8460608301528360808301526103f660a0830184610c77565b918252602082015260400190565b60405181810167ffffffffffffffff81118282101715610f8657600080fd5b604052919050565b600067ffffffffffffffff821115610fa4578081fd5b5060209081020190565b73ffffffffffffffffffffffffffffffffffffffff8116811461067c57600080fdfea264697066735822122025cda7a2dae1ae6fed7533ff99f82c979152c61d7ab278586c831eb7662a0d7064736f6c634300070100336106206040523480156200001257600080fd5b506040516200789b3803806200789b833981016040819052620000359162001408565b8560400151518660800151858789600001518a602001518b604001518c60a001518d60c001518b8b8b6000898751600214801562000071575081155b6200007e57600162000081565b60025b8a8a8a8a8a8a8a8a828289898d85336001600160a01b031660001b8480604051806040016040528060018152602001603160f81b81525087878160039080519060200190620000d2929190620010dc565b508051620000e8906004906020840190620010dc565b50506005805460ff19166012179055508151602092830120608052805191012060a052507f8b73c3c69bb8fe3d512ecc4cf759cc79239f7b179b0ffacaa9a75d522b39400f60c05260e0526001600160601b0319606091821b81166101005291901b1661012052506200016690506276a70083111561019462000b2a565b6200017a62278d0082111561019562000b2a565b42909101610140819052016101605285516200019c906002111560c862000b2a565b620001b6620001aa62000b3f565b8751111560c962000b2a565b620001cc8662000b4460201b620013c21760201c565b620001d78462000b50565b6040516309b2760f60e01b81526000906001600160a01b038c16906309b2760f9062000208908d9060040162001650565b602060405180830381600087803b1580156200022357600080fd5b505af115801562000238573d6000803e3d6000fd5b505050506040513d601f19601f820116820180604052508101906200025e9190620013d0565b604051633354e3e960e11b81529091506001600160a01b038c16906366a9c7d290620002939084908b908b90600401620015b4565b600060405180830381600087803b158015620002ae57600080fd5b505af1158015620002c3573d6000803e3d6000fd5b505050508061018081815250508a6001600160a01b031663d2946c2b6040518163ffffffff1660e01b815260040160206040518083038186803b1580156200030a57600080fd5b505afa1580156200031f573d6000803e3d6000fd5b505050506040513d601f19601f82011682018060405250810190620003459190620013e9565b6001600160a01b03166101a0816001600160a01b031660601b81525050505050505050505050505050505050505050505050806001600160a01b03166101c0816001600160a01b031660601b81525050620003a881600062000be460201b60201c565b620003b581600262000be4565b620003c281600362000be4565b50620003d4600883111560c962000b2a565b620003ec82825162000da060201b620013cc1760201c565b620003f78162000daf565b151560f81b6102e052805181906000906200040e57fe5b60200260200101516001600160a01b03166101e0816001600160a01b031660601b81525050806001815181106200044157fe5b60200260200101516001600160a01b0316610200816001600160a01b031660601b8152505060028211620004775760006200048e565b806002815181106200048557fe5b60200260200101515b60601b6001600160601b0319166102205260038211620004b0576000620004c7565b80600381518110620004be57fe5b60200260200101515b60601b6001600160601b0319166102405260048211620004e957600062000500565b80600481518110620004f757fe5b60200260200101515b60601b6001600160601b03191661026052600582116200052257600062000539565b806005815181106200053057fe5b60200260200101515b60601b6001600160601b03191661028052600682116200055b57600062000572565b806006815181106200056957fe5b60200260200101515b60601b6001600160601b0319166102a0526007821162000594576000620005ab565b80600781518110620005a257fe5b60200260200101515b6001600160a01b03166102c0816001600160a01b031660601b81525050505060008660400151519050620005f08188606001515162000da060201b620013cc1760201c565b6103008190526000805b828160ff1610156200066a57600089606001518260ff16815181106200061c57fe5b6020026020010151905062000644662386f26fc1000082101561012e62000b2a60201b60201c565b6200065e818462000e0b60201b620013d91790919060201c565b925050600101620005fa565b5062000683670de0b6b3a7640000821461013462000b2a565b87604001516000815181106200069557fe5b60200260200101516001600160a01b0316610320816001600160a01b031660601b815250508760400151600181518110620006cc57fe5b60200260200101516001600160a01b0316610340816001600160a01b031660601b8152505060028211620007025760006200071d565b87604001516002815181106200071457fe5b60200260200101515b60601b6001600160601b03191661036052600382116200073f5760006200075a565b87604001516003815181106200075157fe5b60200260200101515b60601b6001600160601b03191661038052600482116200077c57600062000797565b87604001516004815181106200078e57fe5b60200260200101515b60601b6001600160601b0319166103a05260058211620007b9576000620007d4565b8760400151600581518110620007cb57fe5b60200260200101515b60601b6001600160601b0319166103c05260068211620007f657600062000811565b87604001516006815181106200080857fe5b60200260200101515b60601b6001600160601b0319166103e05260078211620008335760006200084e565b87604001516007815181106200084557fe5b60200260200101515b6001600160a01b0316610400816001600160a01b031660601b815250506200089588604001516000815181106200088157fe5b602002602001015162000e2860201b60201c565b6104205260408801518051620008b2919060019081106200088157fe5b6104405260028211620008c7576000620008dd565b620008dd88604001516002815181106200088157fe5b6104605260038211620008f257600062000908565b6200090888604001516003815181106200088157fe5b61048052600482116200091d57600062000933565b6200093388604001516004815181106200088157fe5b6104a05260058211620009485760006200095e565b6200095e88604001516005815181106200088157fe5b6104c052600682116200097357600062000989565b6200098988604001516006815181106200088157fe5b6104e052600782116200099e576000620009b4565b620009b488604001516007815181106200088157fe5b6105005260608801518051600090620009c957fe5b602002602001015161052081815250508760600151600181518110620009eb57fe5b602002602001015161054081815250506002821162000a0c57600062000a27565b876060015160028151811062000a1e57fe5b60200260200101515b610560526003821162000a3c57600062000a57565b876060015160038151811062000a4e57fe5b60200260200101515b610580526004821162000a6c57600062000a87565b876060015160048151811062000a7e57fe5b60200260200101515b6105a0526005821162000a9c57600062000ab7565b876060015160058151811062000aae57fe5b60200260200101515b6105c0526006821162000acc57600062000ae7565b876060015160068151811062000ade57fe5b60200260200101515b6105e0526007821162000afc57600062000b17565b876060015160078151811062000b0e57fe5b60200260200101515b6106005250620016d79650505050505050565b8162000b3b5762000b3b8162000ef7565b5050565b600890565b8062000b3b8162000f0c565b62000b6962000b5e62000f98565b82101560cb62000b2a565b62000b8262000b7762000fa1565b82111560ca62000b2a565b62000ba48160c0603f60085462000fad60201b620013eb17909392919060201c565b6008556040517fa9ba3ffe0b6c366b81232caab38605a0699ad5398d6cce76f91ee809e322dafc9062000bd990839062001665565b60405180910390a150565b604051631a7c326360e01b81526000906001600160a01b03841690631a7c32639062000c1590859060040162001665565b60206040518083038186803b15801562000c2e57600080fd5b505afa15801562000c43573d6000803e3d6000fd5b505050506040513d601f19601f8201168201806040525081019062000c699190620013d0565b90508162000cad5762000c878162000fd260201b6200140e1760201c565b600980546001600160401b0319166001600160401b039290921691909117905562000d61565b600282141562000d035762000ccd8162000fd260201b6200140e1760201c565b600980546001600160401b03929092166801000000000000000002600160401b600160801b031990921691909117905562000d61565b600382141562000d545762000d238162000fd260201b6200140e1760201c565b600980546001600160401b0392909216600160801b02600160801b600160c01b031990921691909117905562000d61565b62000d616101bb62000ef7565b817f6bfb689528fa96ec1ad670ad6d6064be1ae96bfd5d2ee35c837fd0fe0c11959a8260405162000d93919062001665565b60405180910390a2505050565b62000b3b828214606762000b2a565b6000805b825181101562000e005760006001600160a01b031683828151811062000dd557fe5b60200260200101516001600160a01b03161462000df757600091505062000e06565b60010162000db3565b50600190505b919050565b600082820162000e1f848210158362000b2a565b90505b92915050565b60006001600160a01b03821630141562000e4c5750670de0b6b3a764000062000e06565b6000826001600160a01b031663313ce5676040518163ffffffff1660e01b815260040160206040518083038186803b15801562000e8857600080fd5b505afa15801562000e9d573d6000803e3d6000fd5b505050506040513d601f19601f8201168201806040525081019062000ec3919062001591565b60ff169050600062000ee260128362000ff060201b6200142b1760201c565b600a0a670de0b6b3a764000002949350505050565b62000f09816210905360ea1b62001008565b50565b60028151101562000f1d5762000f09565b60008160008151811062000f2d57fe5b602002602001015190506000600190505b825181101562000f9357600083828151811062000f5757fe5b6020026020010151905062000f88816001600160a01b0316846001600160a01b031610606562000b2a60201b60201c565b915060010162000f3e565b505050565b64e8d4a5100090565b67016345785d8a000090565b600062000fbc84848462001069565b506001901b60001901811b1992909216911b1790565b600062000fec6001600160401b038311156101ba62000b2a565b5090565b60006200100283831115600162000b2a565b50900390565b62461bcd60e51b600090815260206004526007602452600a808404818106603090810160081b958390069590950190829004918206850160101b01602363ffffff0060e086901c160160181b0190930160c81b60445260e882901c90606490fd5b6200107a6101008310606462000b2a565b620010b360018210158015620010ab5750620010a760ff8461010003620010c460201b620014411760201c565b8211155b606462000b2a565b62000f9383821c156101b462000b2a565b6000818310620010d5578162000e1f565b5090919050565b828054600181600116156101000203166002900490600052602060002090601f016020900481019282601f106200111f57805160ff19168380011785556200114f565b828001600101855582156200114f579182015b828111156200114f57825182559160200191906001019062001132565b5062000fec9291505b8082111562000fec576000815560010162001158565b805162000e2281620016c1565b600082601f8301126200118c578081fd5b8151620011a36200119d8262001695565b6200166e565b818152915060208083019084810181840286018201871015620011c557600080fd5b60005b84811015620011f1578151620011de81620016c1565b84529282019290820190600101620011c8565b505050505092915050565b600082601f8301126200120d578081fd5b81516200121e6200119d8262001695565b8181529150602080830190848101818402860182018710156200124057600080fd5b60005b84811015620011f15781516200125981620016c1565b8452928201929082019060010162001243565b600082601f8301126200127d578081fd5b81516200128e6200119d8262001695565b818152915060208083019084810181840286018201871015620012b057600080fd5b60005b84811015620011f1578151620012c981620016c1565b84529282019290820190600101620012b3565b600082601f830112620012ed578081fd5b8151620012fe6200119d8262001695565b8181529150602080830190848101818402860182018710156200132057600080fd5b60005b84811015620011f15781518452928201929082019060010162001323565b600082601f83011262001352578081fd5b81516001600160401b0381111562001368578182fd5b60206200137e601f8301601f191682016200166e565b925081835284818386010111156200139557600080fd5b60005b82811015620013b557848101820151848201830152810162001398565b82811115620013c75760008284860101525b50505092915050565b600060208284031215620013e2578081fd5b5051919050565b600060208284031215620013fb578081fd5b815162000e1f81620016c1565b60008060008060008060c0878903121562001421578182fd5b86516001600160401b038082111562001438578384fd5b9088019060e0828b0312156200144c578384fd5b6200145860e06200166e565b82518281111562001467578586fd5b620014758c82860162001341565b8252506020830151828111156200148a578586fd5b620014988c82860162001341565b602083015250604083015182811115620014b0578586fd5b620014be8c828601620011fc565b604083015250606083015182811115620014d6578586fd5b620014e48c828601620012dc565b606083015250608083015182811115620014fc578586fd5b6200150a8c8286016200126c565b60808301525060a08301518281111562001522578586fd5b620015308c8286016200117b565b60a08301525060c083015160c08201528098505050506200155588602089016200116e565b94506200156688604089016200116e565b93506060870151925060808701519150620015858860a089016200116e565b90509295509295509295565b600060208284031215620015a3578081fd5b815160ff8116811462000e1f578182fd5b60006060820185835260206060818501528186518084526080860191508288019350845b818110156200160057620015ed8551620016b5565b83529383019391830191600101620015d8565b505084810360408601528551808252908201925081860190845b8181101562001642576200162f8351620016b5565b855293830193918301916001016200161a565b509298975050505050505050565b60208101600383106200165f57fe5b91905290565b90815260200190565b6040518181016001600160401b03811182821017156200168d57600080fd5b604052919050565b60006001600160401b03821115620016ab578081fd5b5060209081020190565b6001600160a01b031690565b6001600160a01b038116811462000f0957600080fd5b60805160a05160c05160e0516101005160601c6101205160601c6101405161016051610180516101a05160601c6101c05160601c6101e05160601c6102005160601c6102205160601c6102405160601c6102605160601c6102805160601c6102a05160601c6102c05160601c6102e05160f81c610300516103205160601c6103405160601c6103605160601c6103805160601c6103a05160601c6103c05160601c6103e05160601c6104005160601c610420516104405161046051610480516104a0516104c0516104e05161050051610520516105405161056051610580516105a0516105c0516105e05161060051615f33620019686000398061228b528061350e52508061224852806134ad525080612205528061344c5250806121c252806133eb52508061217f528061338a52508061213c52806133295250806120f952806132c85250806120bf5280613267525080612b20525080612afc525080612ad8525080612ab4525080612a90525080612a6c525080612a48525080612a2452508061258552806134d3525080612543528061347252508061250152806134115250806124bf52806133b052508061247d528061334f52508061243b52806132ee5250806123f9528061328d5250806123b0528061322c5250806119075250806137c7525080610a015280613a285250806109aa52806139dc52508061095352806139905250806108fc52806139445250806108a552806138f852508061084052806138975250806107e9528061384652508061079b528061380852508061068952806106b452806106df5250806111a1525080610b0152508061174c525080611728525080610ebb525080610e97525080610de55250806128a45250806128e65250806128c55250615f336000f3fe608060405234801561001057600080fd5b50600436106102ff5760003560e01c80637ecebe001161019c578063a9059cbb116100ee578063d2946c2b11610097578063dd62ed3e11610071578063dd62ed3e146105ab578063ed24911d146105be578063f89f27ed146105c6576102ff565b8063d2946c2b1461057d578063d505accf14610585578063d5c096c414610598576102ff565b8063b35056b8116100c8578063b35056b814610565578063b7b814fc1461056d578063c0ff1a1514610575576102ff565b8063a9059cbb14610542578063aaabadc514610555578063b10962781461055d576102ff565b8063893d20e81161015057806395d89b411161012a57806395d89b41146105145780639d2c110c1461051c578063a457c2d71461052f576102ff565b8063893d20e8146104e45780638d928af8146104f957806390193b7c14610501576102ff565b8063851c1bb311610181578063851c1bb3146104b6578063876f303b146104c957806387ec6817146104d1576102ff565b80637ecebe001461049b5780638456cb59146104ae576102ff565b806338e9922e1161025557806354a844ba1161020957806370464016116101e3578063704640161461045457806370a082311461046757806374f3b0091461047a576102ff565b806354a844ba1461042357806355c676281461042b5780636028bfd414610433576102ff565b8063395093511161023a57806339509351146103f55780633f4ba83a1461040857806350dd6ed914610410576102ff565b806338e9922e146103da57806338fff2d0146103ed576102ff565b80631dd746ea116102b757806323ef89ed1161029157806323ef89ed146103b5578063313ce567146103bd5780633644e515146103d2576102ff565b80631dd746ea14610378578063238a2d591461038d57806323b872dd146103a2576102ff565b80630da0669c116102e85780630da0669c1461034257806318160ddd1461034c5780631c0de05114610361576102ff565b806306fdde0314610304578063095ea7b314610322575b600080fd5b61030c6105ce565b6040516103199190615e58565b60405180910390f35b6103356103303660046155e1565b610665565b6040516103199190615d5f565b61034a61067c565b005b610354610707565b6040516103199190615d82565b61036961070d565b60405161031993929190615d6a565b610380610736565b6040516103199190615d27565b610395610745565b6040516103199190615cda565b6103356103b0366004615531565b610a54565b610354610aca565b6103c5610ad0565b6040516103199190615e84565b610354610ad9565b61034a6103e8366004615b12565b610ae3565b610354610aff565b6103356104033660046155e1565b610b23565b61034a610b5e565b61034a61041e366004615851565b610b70565b61034a610b8e565b610354610ba0565b6104466104413660046156f8565b610bb3565b604051610319929190615e6b565b610354610462366004615b12565b610bea565b6103546104753660046154dd565b610c81565b61048d6104883660046156f8565b610c9c565b604051610319929190615d3a565b6103546104a93660046154dd565b610dc4565b61034a610dcf565b6103546104c43660046157f5565b610de1565b610354610e33565b6104466104df3660046156f8565b610e6f565b6104ec610e95565b6040516103199190615cc6565b6104ec610eb9565b61035461050f3660046154dd565b610edd565b61030c610ef8565b61035461052a366004615a16565b610f59565b61033561053d3660046155e1565b611052565b6103356105503660046155e1565b611090565b6104ec61109d565b6103546110a7565b6103356110bf565b61034a6110d0565b6103546110e2565b6104ec61119f565b61034a610593366004615571565b6111c3565b61048d6105a63660046156f8565b61124e565b6103546105b93660046154f9565b611371565b6103546113ae565b6103806113b8565b60038054604080516020601f600260001961010060018816150201909516949094049384018190048102820181019092528281526060939092909183018282801561065a5780601f1061062f5761010080835404028352916020019161065a565b820191906000526020600020905b81548152906001019060200180831161063d57829003601f168201915b505050505090505b90565b6000610672338484611457565b5060015b92915050565b6106846114bf565b6106af7f00000000000000000000000000000000000000000000000000000000000000006000611519565b6106da7f00000000000000000000000000000000000000000000000000000000000000006002611519565b6107057f00000000000000000000000000000000000000000000000000000000000000006003611519565b565b60025490565b600080600061071a611709565b159250610725611726565b915061072f61174a565b9050909192565b606061074061176e565b905090565b60606000610751611905565b905060608167ffffffffffffffff8111801561076c57600080fd5b50604051908082528060200260200182016040528015610796578160200160208202803683370190505b5090507f0000000000000000000000000000000000000000000000000000000000000000816000815181106107c757fe5b60200260200101906001600160a01b031690816001600160a01b0316815250507f00000000000000000000000000000000000000000000000000000000000000008160018151811061081557fe5b60200260200101906001600160a01b031690816001600160a01b0316815250506002821115610891577f00000000000000000000000000000000000000000000000000000000000000008160028151811061086c57fe5b60200260200101906001600160a01b031690816001600160a01b03168152505061089a565b91506106629050565b6003821115610891577f0000000000000000000000000000000000000000000000000000000000000000816003815181106108d157fe5b60200260200101906001600160a01b031690816001600160a01b0316815250506004821115610891577f00000000000000000000000000000000000000000000000000000000000000008160048151811061092857fe5b60200260200101906001600160a01b031690816001600160a01b0316815250506005821115610891577f00000000000000000000000000000000000000000000000000000000000000008160058151811061097f57fe5b60200260200101906001600160a01b031690816001600160a01b0316815250506006821115610891577f0000000000000000000000000000000000000000000000000000000000000000816006815181106109d657fe5b60200260200101906001600160a01b031690816001600160a01b0316815250506007821115610891577f000000000000000000000000000000000000000000000000000000000000000081600781518110610a2d57fe5b60200260200101906001600160a01b031690816001600160a01b0316815250505b91505090565b600080610a618533611371565b9050610a85336001600160a01b0387161480610a7d5750838210155b61019e611929565b610a90858585611937565b336001600160a01b03861614801590610aab57506000198114155b15610abd57610abd8533858403611457565b60019150505b9392505050565b600a5490565b60055460ff1690565b60006107406113ae565b610aeb611a17565b610af3611a5d565b610afc81611a70565b50565b7f000000000000000000000000000000000000000000000000000000000000000090565b3360008181526001602090815260408083206001600160a01b03871684529091528120549091610672918590610b5990866113d9565b611457565b610b66611a17565b6107056000611ae9565b610b78611a17565b610b80611a5d565b610b8a8282611b7a565b5050565b610b96611a17565b6107056001611c88565b6008546000906107409060c0603f611cdf565b60006060610bc98651610bc4611905565b6113cc565b610bde89898989898989611cee611d50611dbf565b97509795505050505050565b6000610bf46110bf565b15610c0157506000610c7c565b81610c19575060095467ffffffffffffffff16610c7c565b6002821415610c41575060095468010000000000000000900467ffffffffffffffff16610c7c565b6003821415610c715750600954700100000000000000000000000000000000900467ffffffffffffffff16610c7c565b610c7c6101bb611f56565b919050565b6001600160a01b031660009081526020819052604090205490565b60608088610cc6610cab610eb9565b6001600160a01b0316336001600160a01b03161460cd611929565b610cdb610cd1610aff565b82146101f4611929565b60606000610ce886611f80565b15610d1057610cf5611faf565b610d0789610d01610707565b88611fc2565b92509050610d62565b610d18611fee565b6060610d2261176e565b9050610d2e8a82611ff6565b610d528d8d8d8d8d610d3e6110bf565b610d48578d610d4b565b60005b878e611cee565b93509150610d608382611d50565b505b610d6c8b8261205f565b81895167ffffffffffffffff81118015610d8557600080fd5b50604051908082528060200260200182016040528015610daf578160200160208202803683370190505b509450945050505b5097509795505050505050565b600061067682610edd565b610dd7611a17565b6107056001611ae9565b60007f000000000000000000000000000000000000000000000000000000000000000082604051602001610e16929190615c50565b604051602081830303815290604052805190602001209050919050565b600080610e3e610707565b90506000610e5b610e4d6110e2565b610e55612069565b846122b7565b509050610e6882826113d9565b9250505090565b60006060610e808651610bc4611905565b610bde898989898989896122fa612343611dbf565b7f000000000000000000000000000000000000000000000000000000000000000090565b7f000000000000000000000000000000000000000000000000000000000000000090565b6001600160a01b031660009081526006602052604090205490565b60048054604080516020601f600260001961010060018816150201909516949094049384018190048102820181019092528281526060939092909183018282801561065a5780601f1061062f5761010080835404028352916020019161065a565b60008360800151610f6b610cab610eb9565b610f76610cd1610aff565b610f7e611fee565b6000610f8d86602001516123ac565b90506000610f9e87604001516123ac565b9050610faa86836125d0565b9550610fb685826125d0565b9450600087516001811115610fc757fe5b141561101357610fda87606001516125dc565b60608801819052610feb90836125d0565b60608801526000610ffd8888886125fd565b90506110098183612630565b945050505061104a565b6110218760600151826125d0565b6060880152600061103388888861263c565b905061103f8184612667565b905061100981612673565b509392505050565b60008061105f3385611371565b90508083106110795761107433856000611457565b611086565b6110863385858403611457565b5060019392505050565b6000610672338484611937565b600061074061268f565b6000610740600060c06110b8612709565b9190611cdf565b6008546000906107409060ff61270f565b6110d8611a17565b6107056000611c88565b600060606110ee610eb9565b6001600160a01b031663f94d4668611104610aff565b6040518263ffffffff1660e01b81526004016111209190615d82565b60006040518083038186803b15801561113857600080fd5b505afa15801561114c573d6000803e3d6000fd5b505050506040513d6000823e601f3d908101601f19168201604052611174919081019061560c565b509150506111898161118461176e565b611ff6565b6060611193612069565b9050610e688183612719565b7f000000000000000000000000000000000000000000000000000000000000000090565b60007f6e71edae12b1b97f4d1f60370fef10105fa2faae0126114a169c64845d6126c98888886111f28c610edd565b8960405160200161120896959493929190615daa565b604051602081830303815290604052805190602001209050611239888261123087878761278b565b886101f86127ca565b611244888888611457565b5050505050505050565b6060808861125d610cab610eb9565b611268610cd1610aff565b611270611fee565b606061127a61176e565b9050611284610707565b61133157600060606112998d8d8d868b612821565b915091506112b26112a8612864565b83101560cc611929565b6112c460006112bf612864565b61286b565b6112d78b6112d0612864565b840361286b565b6112e18184612343565b808a5167ffffffffffffffff811180156112fa57600080fd5b50604051908082528060200260200182016040528015611324578160200160208202803683370190505b5095509550505050610db7565b61133b8882611ff6565b600060606113638d8d8d8d8d61134f6110bf565b611359578d61135c565b60005b898e6122fa565b915091506112d78b8361286b565b600061137b610eb9565b6001600160a01b0316826001600160a01b0316141561139d5750600019610676565b6113a78383612875565b9050610676565b60006107406128a0565b6060610740612069565b80610b8a8161293d565b610b8a8183146067611929565b6000828201610ac38482101583611929565b60006113f88484846129b6565b506001901b60001901811b1992909216911b1790565b600061142767ffffffffffffffff8311156101ba611929565b5090565b600061143b838311156001611929565b50900390565b60008183106114505781610ac3565b5090919050565b6001600160a01b0380841660008181526001602090815260408083209487168084529490915290819020849055517f8c5be1e5ebec7d5bd14f71427d1e84f3dd0314c0f7b2291e5b200ac8c7c3b925906114b2908590615d82565b60405180910390a3505050565b6114c7611a5d565b60006114d16110e2565b90506000806114ef836114e2612069565b6114ea610707565b6122b7565b915091506114fc826129fd565b61150583612a14565b80156115145761151481612a1d565b505050565b6040517f1a7c32630000000000000000000000000000000000000000000000000000000081526000906001600160a01b03841690631a7c326390611561908590600401615d82565b60206040518083038186803b15801561157957600080fd5b505afa15801561158d573d6000803e3d6000fd5b505050506040513d601f19601f820116820180604052508101906115b19190615b2a565b9050816115ff576115c18161140e565b600980547fffffffffffffffffffffffffffffffffffffffffffffffff00000000000000001667ffffffffffffffff929092169190911790556116cc565b600282141561165c576116118161140e565b6009805467ffffffffffffffff9290921668010000000000000000027fffffffffffffffffffffffffffffffff0000000000000000ffffffffffffffff9092169190911790556116cc565b60038214156116c15761166e8161140e565b6009805467ffffffffffffffff92909216700100000000000000000000000000000000027fffffffffffffffff0000000000000000ffffffffffffffffffffffffffffffff9092169190911790556116cc565b6116cc6101bb611f56565b817f6bfb689528fa96ec1ad670ad6d6064be1ae96bfd5d2ee35c837fd0fe0c11959a826040516116fc9190615d82565b60405180910390a2505050565b600061171361174a565b42118061074057505060075460ff161590565b7f000000000000000000000000000000000000000000000000000000000000000090565b7f000000000000000000000000000000000000000000000000000000000000000090565b6060600061177a611905565b905060608167ffffffffffffffff8111801561179557600080fd5b506040519080825280602002602001820160405280156117bf578160200160208202803683370190505b5090506117ca612a22565b816000815181106117d757fe5b6020026020010181815250506117eb612a46565b816001815181106117f857fe5b602002602001018181525050600282111561089157611815612a6a565b8160028151811061182257fe5b60200260200101818152505060038211156108915761183f612a8e565b8160038151811061184c57fe5b602002602001018181525050600482111561089157611869612ab2565b8160048151811061187657fe5b602002602001018181525050600582111561089157611893612ad6565b816005815181106118a057fe5b6020026020010181815250506006821115610891576118bd612afa565b816006815181106118ca57fe5b6020026020010181815250506007821115610891576118e7612b1e565b816007815181106118f457fe5b602002602001018181525050610a4e565b7f000000000000000000000000000000000000000000000000000000000000000090565b81610b8a57610b8a81611f56565b61194e6001600160a01b0384161515610198611929565b6119656001600160a01b0383161515610199611929565b611970838383611514565b6001600160a01b03831660009081526020819052604090205461199690826101a0612b42565b6001600160a01b0380851660009081526020819052604080822093909355908416815220546119c590826113d9565b6001600160a01b0380841660008181526020819052604090819020939093559151908516907fddf252ad1be2c89b69c2b068fc378daa952ba7f163c4a11628f55a4df523b3ef906114b2908590615d82565b6000611a466000357fffffffff0000000000000000000000000000000000000000000000000000000016610de1565b9050610afc611a558233612b58565b610191611929565b610705611a68611709565b610192611929565b611a85611a7b612c41565b82101560cb611929565b611a9a611a90612c4a565b82111560ca611929565b600854611aab908260c0603f6113eb565b6008556040517fa9ba3ffe0b6c366b81232caab38605a0699ad5398d6cce76f91ee809e322dafc90611ade908390615d82565b60405180910390a150565b8015611b0957611b04611afa611726565b4210610193611929565b611b1e565b611b1e611b1461174a565b42106101a9611929565b600780547fffffffffffffffffffffffffffffffffffffffffffffffffffffffffffffff00168215151790556040517f9e3a5e37224532dea67b89face185703738a228a6e8a23dee546960180d3be6490611ade908390615d5f565b6000611b84610aff565b90506000611b90610eb9565b6001600160a01b031663b05f8e4883866040518363ffffffff1660e01b8152600401611bbd929190615e23565b60806040518083038186803b158015611bd557600080fd5b505afa158015611be9573d6000803e3d6000fd5b505050506040513d601f19601f82011682018060405250810190611c0d9190615b42565b6040517f18e736d40000000000000000000000000000000000000000000000000000000081529094506001600160a01b03851693506318e736d49250611c5a915085908790600401615e0a565b600060405180830381600087803b158015611c7457600080fd5b505af1158015611244573d6000803e3d6000fd5b600854611c97908260ff612c56565b6008556040517feff3d4d215b42bf0960be9c6d5e05c22cba4df6627a3a523e2acee733b5854c890611cca908390615d5f565b60405180910390a180610afc57610afc612c7d565b6001901b6000190191901c1690565b6000606080611cfb612069565b9050600080611d0a8a84612cc5565b9150915060006060611d208e8d878c888d612d25565b9092509050611d3c838d838888611d37818961142b565b612db8565b909e909d509b505050505050505050505050565b81518151611d5f9082906113cc565b60005b81811015611db957611d9a848281518110611d7957fe5b6020026020010151848381518110611d8d57fe5b6020026020010151612ddc565b848281518110611da657fe5b6020908102919091010152600101611d62565b50505050565b333014611eae576000306001600160a01b0316600036604051611de3929190615c80565b6000604051808303816000865af19150503d8060008114611e20576040519150601f19603f3d011682016040523d82523d6000602084013e611e25565b606091505b505090508060008114611e3457fe5b60046000803e6000517fffffffff00000000000000000000000000000000000000000000000000000000167f43adbafb000000000000000000000000000000000000000000000000000000008114611e90573d6000803e3d6000fd5b506020600460003e604060205260243d03602460403e601c3d016000f35b611eb6611fee565b6060611ec061176e565b9050611ecc8782611ff6565b60006060611ee48c8c8c8c8c8c898d8d63ffffffff16565b91509150611ef681848663ffffffff16565b8051601f1982018390526343adbafb7fffffffffffffffffffffffffffffffffffffffffffffffffffffffffffffffc08301526020027fffffffffffffffffffffffffffffffffffffffffffffffffffffffffffffffdc82016044820181fd5b610afc817f42414c0000000000000000000000000000000000000000000000000000000000612e2d565b6000808251118015610676575060ff801682806020019051810190611fa59190615b82565b60ff161492915050565b610705611fba6110bf565b6101b6611929565b600060606000611fd184612ea8565b90506060611fe0878784612ebe565b919791965090945050505050565b610705611a5d565b815181516120059082906113cc565b60005b81811015611db95761204084828151811061201f57fe5b602002602001015184838151811061203357fe5b6020026020010151612f6d565b84828151811061204c57fe5b6020908102919091010152600101612008565b610b8a8282612fa3565b60606000612075611905565b905060608167ffffffffffffffff8111801561209057600080fd5b506040519080825280602002602001820160405280156120ba578160200160208202803683370190505b5090507f0000000000000000000000000000000000000000000000000000000000000000816000815181106120eb57fe5b6020026020010181815250507f00000000000000000000000000000000000000000000000000000000000000008160018151811061212557fe5b6020026020010181815250506002821115610891577f00000000000000000000000000000000000000000000000000000000000000008160028151811061216857fe5b6020026020010181815250506003821115610891577f0000000000000000000000000000000000000000000000000000000000000000816003815181106121ab57fe5b6020026020010181815250506004821115610891577f0000000000000000000000000000000000000000000000000000000000000000816004815181106121ee57fe5b6020026020010181815250506005821115610891577f00000000000000000000000000000000000000000000000000000000000000008160058151811061223157fe5b6020026020010181815250506006821115610891577f00000000000000000000000000000000000000000000000000000000000000008160068151811061227457fe5b6020026020010181815250506007821115610891577f0000000000000000000000000000000000000000000000000000000000000000816007815181106118f457fe5b60008060006122cf866122ca6000610bea565b61306f565b90506000806122dd87613095565b915091506122ed86838501613105565b9890975095505050505050565b6000606080612307612069565b90506000806123168a84612cc5565b915091506000606061232c8e8d878c888d613122565b9092509050611d3c838d838888611d3781896113d9565b815181516123529082906113cc565b60005b81811015611db95761238d84828151811061236c57fe5b602002602001015184838151811061238057fe5b602002602001015161319e565b84828151811061239957fe5b6020908102919091010152600101612355565b60007f00000000000000000000000000000000000000000000000000000000000000006001600160a01b0316826001600160a01b031614156123f7576123f0612a22565b9050610c7c565b7f00000000000000000000000000000000000000000000000000000000000000006001600160a01b0316826001600160a01b03161415612439576123f0612a46565b7f00000000000000000000000000000000000000000000000000000000000000006001600160a01b0316826001600160a01b0316141561247b576123f0612a6a565b7f00000000000000000000000000000000000000000000000000000000000000006001600160a01b0316826001600160a01b031614156124bd576123f0612a8e565b7f00000000000000000000000000000000000000000000000000000000000000006001600160a01b0316826001600160a01b031614156124ff576123f0612ab2565b7f00000000000000000000000000000000000000000000000000000000000000006001600160a01b0316826001600160a01b03161415612541576123f0612ad6565b7f00000000000000000000000000000000000000000000000000000000000000006001600160a01b0316826001600160a01b03161415612583576123f0612afa565b7f00000000000000000000000000000000000000000000000000000000000000006001600160a01b0316826001600160a01b031614156125c5576123f0612b1e565b610c7c610135611f56565b6000610ac38383612f6d565b6000806125f16125ea610ba0565b84906131ec565b9050610ac3838261142b565b6000612628836126108660200151613228565b8461261e8860400151613228565b8860600151613532565b949350505050565b6000610ac38383612ddc565b60006126288361264f8660200151613228565b8461265d8860400151613228565b88606001516135ad565b6000610ac3838361319e565b6000610676612688612683610ba0565b613623565b839061319e565b6000612699610eb9565b6001600160a01b031663aaabadc56040518163ffffffff1660e01b815260040160206040518083038186803b1580156126d157600080fd5b505afa1580156126e5573d6000803e3d6000fd5b505050506040513d601f19601f820116820180604052508101906107409190615835565b60085490565b1c60019081161490565b670de0b6b3a764000060005b835181101561277b5761277161276a85838151811061274057fe5b602002602001015185848151811061275457fe5b602002602001015161364990919063ffffffff16565b8390612f6d565b9150600101612725565b5061067660008211610137611929565b60408051604180825260808201909252606091829190602082018180368337019050509050836020820152826040820152846060820153949350505050565b60006127d5856136fa565b90506127eb6127e5878387613716565b83611929565b6127fa428410156101b8611929565b5050506001600160a01b039092166000908152600660205260409020805460010190555050565b6000606061282d6137c5565b6128495761284961284461283f612069565b6137e9565b612a1d565b6128568787878787613a4c565b915091509550959350505050565b620f424090565b610b8a8282613adc565b6001600160a01b03918216600090815260016020908152604080832093909416825291909152205490565b60007f00000000000000000000000000000000000000000000000000000000000000007f00000000000000000000000000000000000000000000000000000000000000007f000000000000000000000000000000000000000000000000000000000000000061290d613b6f565b30604051602001612922959493929190615dde565b60405160208183030381529060405280519060200120905090565b60028151101561294c57610afc565b60008160008151811061295b57fe5b602002602001015190506000600190505b825181101561151457600083828151811061298357fe5b602002602001015190506129ac816001600160a01b0316846001600160a01b0316106065611929565b915060010161296c565b6129c561010083106064611929565b6129ee600182101580156129e757506129e360ff8461010003611441565b8211155b6064611929565b61151483821c156101b4611929565b8015610afc57610afc612a0e61119f565b8261286b565b610afc81613b73565b600a55565b7f000000000000000000000000000000000000000000000000000000000000000090565b7f000000000000000000000000000000000000000000000000000000000000000090565b7f000000000000000000000000000000000000000000000000000000000000000090565b7f000000000000000000000000000000000000000000000000000000000000000090565b7f000000000000000000000000000000000000000000000000000000000000000090565b7f000000000000000000000000000000000000000000000000000000000000000090565b7f000000000000000000000000000000000000000000000000000000000000000090565b7f000000000000000000000000000000000000000000000000000000000000000090565b6000612b518484111583611929565b5050900390565b600073ba1ba1ba1ba1ba1ba1ba1ba1ba1ba1ba1ba1ba1b612b77610e95565b6001600160a01b031614158015612b925750612b9283613b93565b15612bba57612b9f610e95565b6001600160a01b0316336001600160a01b0316149050610676565b612bc261268f565b6001600160a01b0316639be2a8848484306040518463ffffffff1660e01b8152600401612bf193929190615d8b565b60206040518083038186803b158015612c0957600080fd5b505afa158015612c1d573d6000803e3d6000fd5b505050506040513d601f19601f820116820180604052508101906113a791906156d8565b64e8d4a5100090565b67016345785d8a000090565b60006001821b1984168284612c6c576000612c6f565b60015b60ff16901b17949350505050565b612c8d612c886110e2565b612a14565b612c956137c5565b610705576000612ca3610aca565b90506000612cb261283f612069565b905081811115610b8a57610b8a81612a1d565b6000806000612cd2610707565b90506000612ce08587612719565b9050600080612cf08388866122b7565b90925090508015612d0457612d0481612a1d565b612d0d826129fd565b612d1784836113d9565b989297509195505050505050565b600060606000612d3484613b9e565b90506000816003811115612d4457fe5b1415612d6057612d5688888787613bb4565b9250925050612dad565b6001816003811115612d6e57fe5b1415612d7f57612d56888686613c83565b6002816003811115612d8d57fe5b1415612da057612d568888888888613ca1565b612dab610150611f56565b505b965096945050505050565b6000612dc8878787878787613d00565b9050612dd3816129fd565b50505050505050565b6000612deb8215156004611929565b82612df857506000610676565b670de0b6b3a764000083810290612e1b90858381612e1257fe5b04146005611929565b828181612e2457fe5b04915050610676565b7f08c379a000000000000000000000000000000000000000000000000000000000600090815260206004526007602452600a808404818106603090810160081b958390069590950190829004918206850160101b01602363ffffff0060e086901c160160181b0190930160c81b60445260e882901c90606490fd5b600081806020019051810190610ac39190615b9e565b60606000612ecc8385612ddc565b9050845167ffffffffffffffff81118015612ee657600080fd5b50604051908082528060200260200182016040528015612f10578160200160208202803683370190505b50915060005b8551811015612f6457612f4582878381518110612f2f57fe5b6020026020010151612f6d90919063ffffffff16565b838281518110612f5157fe5b6020908102919091010152600101612f16565b50509392505050565b6000828202612f91841580612f8a575083858381612f8757fe5b04145b6003611929565b670de0b6b3a764000090049392505050565b612fba6001600160a01b038316151561019b611929565b612fc682600083611514565b6001600160a01b038216600090815260208190526040902054612fec90826101b2612b42565b6001600160a01b03831660009081526020819052604090205561301f61301a82613014610707565b90613df9565b613e07565b60006001600160a01b0316826001600160a01b03167fddf252ad1be2c89b69c2b068fc378daa952ba7f163c4a11628f55a4df523b3ef836040516130639190615d82565b60405180910390a35050565b6000610ac361308661307f6110a7565b8590612ddc565b670de0b6b3a764000084613e0c565b6000806130a06137c5565b156130b057506000905080613100565b600a5460006130be856137e9565b90508181116130d557600080935093505050613100565b6130fa6130e28284612ddc565b670de0b6b3a76400006130f56002610bea565b613e0c565b93509150505b915091565b6000610ac36131148484613e53565b61311d84613623565b613e6d565b60006060600061313184613e8d565b9050600181600481111561314157fe5b141561315457612d568888888888613ea3565b600281600481111561316257fe5b141561317457612d5688888787613ef3565b600381600481111561318257fe5b141561319357612d56888686613f51565b612dab610136611f56565b60006131ad8215156004611929565b826131ba57506000610676565b670de0b6b3a7640000838102906131d490858381612e1257fe5b8260018203816131e057fe5b04600101915050610676565b6000828202613206841580612f8a575083858381612f8757fe5b80613215576000915050610676565b670de0b6b3a764000060001982016131e0565b60007f00000000000000000000000000000000000000000000000000000000000000006001600160a01b0316826001600160a01b0316141561328b57507f0000000000000000000000000000000000000000000000000000000000000000610c7c565b7f00000000000000000000000000000000000000000000000000000000000000006001600160a01b0316826001600160a01b031614156132ec57507f0000000000000000000000000000000000000000000000000000000000000000610c7c565b7f00000000000000000000000000000000000000000000000000000000000000006001600160a01b0316826001600160a01b0316141561334d57507f0000000000000000000000000000000000000000000000000000000000000000610c7c565b7f00000000000000000000000000000000000000000000000000000000000000006001600160a01b0316826001600160a01b031614156133ae57507f0000000000000000000000000000000000000000000000000000000000000000610c7c565b7f00000000000000000000000000000000000000000000000000000000000000006001600160a01b0316826001600160a01b0316141561340f57507f0000000000000000000000000000000000000000000000000000000000000000610c7c565b7f00000000000000000000000000000000000000000000000000000000000000006001600160a01b0316826001600160a01b0316141561347057507f0000000000000000000000000000000000000000000000000000000000000000610c7c565b7f00000000000000000000000000000000000000000000000000000000000000006001600160a01b0316826001600160a01b031614156134d157507f0000000000000000000000000000000000000000000000000000000000000000610c7c565b7f00000000000000000000000000000000000000000000000000000000000000006001600160a01b0316826001600160a01b031614156125c557507f0000000000000000000000000000000000000000000000000000000000000000610c7c565b600061355461354987670429d069189e0000612f6d565b831115610130611929565b600061356087846113d9565b9050600061356e888361319e565b9050600061357c8887612ddc565b9050600061358a8383613f6f565b905061359f61359882613623565b8990612f6d565b9a9950505050505050505050565b60006135cf6135c485670429d069189e0000612f6d565b831115610131611929565b60006135e56135de868561142b565b869061319e565b905060006135f3858861319e565b905060006136018383613f6f565b9050600061361782670de0b6b3a764000061142b565b905061359f8a826131ec565b6000670de0b6b3a7640000821061363b576000610676565b50670de0b6b3a76400000390565b6000670de0b6b3a7640000821415613662575081610676565b671bc16d674ec8000082141561367c576113a78384612f6d565b673782dace9d9000008214156136ac5760006136988485612f6d565b90506136a48182612f6d565b915050610676565b60006136b88484613ff5565b905060006136d26136cb836127106131ec565b60016113d9565b9050808210156136e757600092505050610676565b6136f1828261142b565b92505050610676565b60006137046128a0565b82604051602001610e16929190615c90565b600061372882516041146101b9611929565b60208281015160408085015160608601518251600080825295019283905292939092811a91600190613761908990859088908890615e3a565b6020604051602081039080840390855afa158015613783573d6000803e3d6000fd5b5050604051601f1901519150506001600160a01b038116158015906137b95750876001600160a01b0316816001600160a01b0316145b98975050505050505050565b7f000000000000000000000000000000000000000000000000000000000000000090565b80516000908161386f61382c8583856137fe57fe5b60200260200101517f000000000000000000000000000000000000000000000000000000000000000061410b565b61386a8660018151811061383c57fe5b60200260200101517f000000000000000000000000000000000000000000000000000000000000000061410b565b612f6d565b905060028211156138c9576138c26138bb8560028151811061388d57fe5b60200260200101517f000000000000000000000000000000000000000000000000000000000000000061410b565b8290612f6d565b90506138d2565b9150610c7c9050565b60038211156138c95761391c6138bb856003815181106138ee57fe5b60200260200101517f000000000000000000000000000000000000000000000000000000000000000061410b565b905060048211156138c9576139686138bb8560048151811061393a57fe5b60200260200101517f000000000000000000000000000000000000000000000000000000000000000061410b565b905060058211156138c9576139b46138bb8560058151811061398657fe5b60200260200101517f000000000000000000000000000000000000000000000000000000000000000061410b565b905060068211156138c957613a006138bb856006815181106139d257fe5b60200260200101517f000000000000000000000000000000000000000000000000000000000000000061410b565b90506007821115610ac3576126286138bb85600781518110613a1e57fe5b60200260200101517f000000000000000000000000000000000000000000000000000000000000000061410b565b600060606000613a5b84613e8d565b9050613a766000826004811115613a6e57fe5b1460ce611929565b6060613a81856141ac565b9050613a8f815187516113cc565b613a998187611ff6565b6060613aa3612069565b90506000613ab18284612719565b90506000613ac0828551613e53565b9050613acb82612a14565b9b929a509198505050505050505050565b613ae860008383611514565b613afd61301a82613af7610707565b906113d9565b6001600160a01b038216600090815260208190526040902054613b2090826113d9565b6001600160a01b0383166000818152602081905260408082209390935591519091907fddf252ad1be2c89b69c2b068fc378daa952ba7f163c4a11628f55a4df523b3ef90613063908590615d82565b4690565b610afc613b8e82600060c0613b86612709565b9291906113eb565b6141c2565b6000610676826141d7565b600081806020019051810190610676919061589f565b60006060600080613bc4856141e2565b91509150613bd6885182106064611929565b6000613c12898381518110613be757fe5b6020026020010151898481518110613bfb57fe5b6020026020010151858a613c0d610ba0565b614204565b90506060895167ffffffffffffffff81118015613c2e57600080fd5b50604051908082528060200260200182016040528015613c58578160200160208202803683370190505b50905081818481518110613c6857fe5b60209081029190910101529299929850919650505050505050565b600060606000613c92846142ba565b90506060611fe08783886142d0565b60006060806000613cb18561436c565b91509150613cc182518a516113cc565b613ccb8288611ff6565b6000613ce18a8a858a613cdc610ba0565b614384565b9050613cf18282111560cf611929565b99919850909650505050505050565b600082821015815b8751811015613d9a5781613d4b57613d46888281518110613d2557fe5b6020026020010151888381518110613d3957fe5b6020026020010151613df9565b613d7b565b613d7b888281518110613d5a57fe5b6020026020010151888381518110613d6e57fe5b60200260200101516113d9565b888281518110613d8757fe5b6020908102919091010152600101613d08565b506000613da78689612719565b90506000613db56000610bea565b9050613dc082612a14565b80613dd15760009350505050613def565b6000613de8613de0848d612ddc565b8888856144c2565b9450505050505b9695505050505050565b6000610ac383836001612b42565b600255565b60008383101580613e1b575081155b15613e2857506000610ac3565b6000613e348486612ddc565b670de0b6b3a7640000039050613e4a8184612f6d565b95945050505050565b6000828202610ac3841580612f8a575083858381612f8757fe5b6000613e7c8215156004611929565b818381613e8557fe5b049392505050565b6000818060200190518101906106769190615960565b60006060806000613eb3856144e5565b91509150613ec3895183516113cc565b613ecd8288611ff6565b6000613ee38a8a858a613ede610ba0565b6144fd565b9050613cf18282101560d0611929565b60006060600080613f0385614638565b91509150613f15885182106064611929565b6000613c12898381518110613f2657fe5b6020026020010151898481518110613f3a57fe5b6020026020010151858a613f4c610ba0565b61464f565b600060606000613f60846146e5565b90506060611fe08783886146fb565b6000670de0b6b3a7640000821415613f88575081610676565b671bc16d674ec80000821415613fa2576113a783846131ec565b673782dace9d900000821415613fca576000613fbe84856131ec565b90506136a481826131ec565b6000613fd68484613ff5565b90506000613fe96136cb836127106131ec565b90506136f182826113d9565b60008161400b5750670de0b6b3a7640000610676565b8261401857506000610676565b61402860ff84901c156006611929565b8261404e770bce5086492111aea88f4bb1ca6bcf584181ea8059f7653284106007611929565b826000670c7d713b49da00008313801561406f5750670f43fc2c04ee000083125b156140a657600061407f8461478d565b9050670de0b6b3a764000080820784020583670de0b6b3a7640000830502019150506140b4565b816140b0846148c4565b0290505b670de0b6b3a764000090056141027ffffffffffffffffffffffffffffffffffffffffffffffffdc702bd3a30fc000082128015906140fb575068070c1cc73b00c800008213155b6008611929565b613def81614c64565b60006001600160a01b0382161561419c5761419783836001600160a01b031663679aefce6040518163ffffffff1660e01b815260040160206040518083038186803b15801561415957600080fd5b505afa15801561416d573d6000803e3d6000fd5b505050506040513d601f19601f820116820180604052508101906141919190615b2a565b90613649565b610ac3565b50670de0b6b3a764000092915050565b606081806020019051810190610ac3919061597b565b6008546141d190826000615134565b60085550565b600061067682615160565b600080828060200190518101906141f9919061592b565b909590945092505050565b60008061421b84614215818861142b565b9061319e565b90506142346709b6e64a8ec60000821015610132611929565b600061425261424b670de0b6b3a764000089612ddc565b8390613f6f565b9050600061426961426283613623565b8a90612f6d565b905060006142806142798a613623565b83906131ec565b9050600061428e838361142b565b9050600061429e6125ea89613623565b90506142aa82826113d9565b9c9b505050505050505050505050565b600081806020019051810190610ac391906158ff565b606060006142de8484612ddc565b90506060855167ffffffffffffffff811180156142fa57600080fd5b50604051908082528060200260200182016040528015614324578160200160208202803683370190505b50905060005b86518110156143625761434383888381518110612f2f57fe5b82828151811061434f57fe5b602090810291909101015260010161432a565b5095945050505050565b60606000828060200190518101906141f991906158ba565b60006060845167ffffffffffffffff811180156143a057600080fd5b506040519080825280602002602001820160405280156143ca578160200160208202803683370190505b5090506000805b885181101561448f5761442a8982815181106143e957fe5b602002602001015161421589848151811061440057fe5b60200260200101518c858151811061441457fe5b602002602001015161142b90919063ffffffff16565b83828151811061443657fe5b60200260200101818152505061448561447e89838151811061445457fe5b602002602001015185848151811061446857fe5b60200260200101516131ec90919063ffffffff16565b83906113d9565b91506001016143d1565b5060006144a089898986868a6151ce565b90506144b56144ae82613623565b87906131ec565b9998505050505050505050565b6000806144d9866144d38688612ddc565b85613e0c565b9050613def8482613105565b60606000828060200190518101906141f991906159be565b60006060845167ffffffffffffffff8111801561451957600080fd5b50604051908082528060200260200182016040528015614543578160200160208202803683370190505b5090506000805b88518110156145f1576145a989828151811061456257fe5b60200260200101516145a389848151811061457957fe5b60200260200101518c858151811061458d57fe5b60200260200101516113d990919063ffffffff16565b90612ddc565b8382815181106145b557fe5b6020026020010181815250506145e761447e8983815181106145d357fe5b6020026020010151858481518110612f2f57fe5b915060010161454a565b50600061460289898986868a6152dd565b90506000670de0b6b3a7640000821161461c57600061359f565b61359f61463183670de0b6b3a764000061142b565b8890612f6d565b600080828060200190518101906141f991906159f8565b6000806146608461421581886113d9565b90506146796729a2241af62c0000821115610133611929565b600061469061424b670de0b6b3a76400008961319e565b905060006146b06146a983670de0b6b3a764000061142b565b8a906131ec565b905060006146c06142798a613623565b905060006146ce838361142b565b9050600061429e6146de89613623565b849061319e565b600081806020019051810190610ac391906159dc565b60606000614709848461319e565b90506060855167ffffffffffffffff8111801561472557600080fd5b5060405190808252806020026020018201604052801561474f578160200160208202803683370190505b50905060005b86518110156143625761476e8388838151811061446857fe5b82828151811061477a57fe5b6020908102919091010152600101614755565b670de0b6b3a7640000026000806ec097ce7bc90715b34b9f1000000000808401907fffffffffffffffffffffffffffffffffff3f68318436f8ea4cb460f000000000850102816147d957fe5b05905060006ec097ce7bc90715b34b9f100000000082800205905081806ec097ce7bc90715b34b9f100000000081840205915060038205016ec097ce7bc90715b34b9f100000000082840205915060058205016ec097ce7bc90715b34b9f100000000082840205915060078205016ec097ce7bc90715b34b9f100000000082840205915060098205016ec097ce7bc90715b34b9f1000000000828402059150600b8205016ec097ce7bc90715b34b9f1000000000828402059150600d8205016ec097ce7bc90715b34b9f1000000000828402059150600f826002919005919091010295945050505050565b6000670de0b6b3a7640000821215614901576148f7826ec097ce7bc90715b34b9f1000000000816148f157fe5b056148c4565b6000039050610c7c565b60007e1600ef3172e58d2e933ec884fde10064c63b5372d805e203c0000000000000831261495257770195e54c5dd42177f53a27172fa9ec630262827000000000830592506806f05b59d3b2000000015b73011798004d755d3c8bc8e03204cf44619e000000831261498a576b1425982cf597cd205cef7380830592506803782dace9d9000000015b606492830292026e01855144814a7ff805980ff008400083126149d2576e01855144814a7ff805980ff008400068056bc75e2d63100000840205925068ad78ebc5ac62000000015b6b02df0ab5a80a22c61ab5a7008312614a0d576b02df0ab5a80a22c61ab5a70068056bc75e2d6310000084020592506856bc75e2d631000000015b693f1fce3da636ea5cf8508312614a4457693f1fce3da636ea5cf85068056bc75e2d631000008402059250682b5e3af16b18800000015b690127fa27722cc06cc5e28312614a7b57690127fa27722cc06cc5e268056bc75e2d6310000084020592506815af1d78b58c400000015b68280e60114edb805d038312614ab05768280e60114edb805d0368056bc75e2d631000008402059250680ad78ebc5ac6200000015b680ebc5fb417461211108312614adb57680ebc5fb4174612111068056bc75e2d631000009384020592015b6808f00f760a4b2db55d8312614b10576808f00f760a4b2db55d68056bc75e2d6310000084020592506802b5e3af16b1880000015b6806f5f17757889379378312614b45576806f5f177578893793768056bc75e2d63100000840205925068015af1d78b58c40000015b6806248f33704b2866038312614b79576806248f33704b28660368056bc75e2d63100000840205925067ad78ebc5ac620000015b6805c548670b9510e7ac8312614bad576805c548670b9510e7ac68056bc75e2d6310000084020592506756bc75e2d6310000015b600068056bc75e2d63100000840168056bc75e2d631000008086030281614bd057fe5b059050600068056bc75e2d63100000828002059050818068056bc75e2d63100000818402059150600382050168056bc75e2d63100000828402059150600582050168056bc75e2d63100000828402059150600782050168056bc75e2d63100000828402059150600982050168056bc75e2d63100000828402059150600b820501600202606485820105979650505050505050565b6000614ca97ffffffffffffffffffffffffffffffffffffffffffffffffdc702bd3a30fc00008312158015614ca2575068070c1cc73b00c800008313155b6009611929565b6000821215614cdd57614cbe82600003614c64565b6ec097ce7bc90715b34b9f100000000081614cd557fe5b059050610c7c565b60006806f05b59d3b20000008312614d3357507ffffffffffffffffffffffffffffffffffffffffffffffff90fa4a62c4e00000090910190770195e54c5dd42177f53a27172fa9ec630262827000000000614d7f565b6803782dace9d90000008312614d7b57507ffffffffffffffffffffffffffffffffffffffffffffffffc87d2531627000000909101906b1425982cf597cd205cef7380614d7f565b5060015b6064929092029168056bc75e2d6310000068ad78ebc5ac620000008412614de5577fffffffffffffffffffffffffffffffffffffffffffffff5287143a539e0000009093019268056bc75e2d631000006e01855144814a7ff805980ff008400082020590505b6856bc75e2d6310000008412614e37577fffffffffffffffffffffffffffffffffffffffffffffffa9438a1d29cf0000009093019268056bc75e2d631000006b02df0ab5a80a22c61ab5a70082020590505b682b5e3af16b188000008412614e87577fffffffffffffffffffffffffffffffffffffffffffffffd4a1c50e94e78000009093019268056bc75e2d63100000693f1fce3da636ea5cf85082020590505b6815af1d78b58c4000008412614ed7577fffffffffffffffffffffffffffffffffffffffffffffffea50e2874a73c000009093019268056bc75e2d63100000690127fa27722cc06cc5e282020590505b680ad78ebc5ac62000008412614f26577ffffffffffffffffffffffffffffffffffffffffffffffff5287143a539e000009093019268056bc75e2d6310000068280e60114edb805d0382020590505b68056bc75e2d631000008412614f75577ffffffffffffffffffffffffffffffffffffffffffffffffa9438a1d29cf000009093019268056bc75e2d63100000680ebc5fb4174612111082020590505b6802b5e3af16b18800008412614fc4577ffffffffffffffffffffffffffffffffffffffffffffffffd4a1c50e94e7800009093019268056bc75e2d631000006808f00f760a4b2db55d82020590505b68015af1d78b58c400008412615013577ffffffffffffffffffffffffffffffffffffffffffffffffea50e2874a73c00009093019268056bc75e2d631000006806f5f177578893793782020590505b68056bc75e2d631000008481019085906002908280020505918201919050600368056bc75e2d631000008783020505918201919050600468056bc75e2d631000008783020505918201919050600568056bc75e2d631000008783020505918201919050600668056bc75e2d631000008783020505918201919050600768056bc75e2d631000008783020505918201919050600868056bc75e2d631000008783020505918201919050600968056bc75e2d631000008783020505918201919050600a68056bc75e2d631000008783020505918201919050600b68056bc75e2d631000008783020505918201919050600c68056bc75e2d631000008783020505918201919050606468056bc75e2d63100000848402058502059695505050505050565b77ffffffffffffffffffffffffffffffffffffffffffffffff828116821b90821b198416179392505050565b600061518b7f38e9922e00000000000000000000000000000000000000000000000000000000610de1565b8214806151bf57506151bc7f50dd6ed900000000000000000000000000000000000000000000000000000000610de1565b82145b806106765750610676826153c8565b670de0b6b3a764000060005b87518110156152d25760008582815181106151f157fe5b602002602001015185111561525457600061521a61520e87613623565b8b8581518110612f2f57fe5b9050600061522e828a868151811061441457fe5b9050600061523e61268888613623565b905061524a83826113d9565b935050505061526b565b86828151811061526057fe5b602002602001015190505b60006152948a848151811061527c57fe5b60200260200101516145a3848d878151811061441457fe5b90506152c66152bf8a85815181106152a857fe5b60200260200101518361364990919063ffffffff16565b8590612f6d565b935050506001016151da565b509695505050505050565b670de0b6b3a764000060005b87518110156152d25760008486838151811061530157fe5b6020026020010151111561536857600061532661520e87670de0b6b3a764000061142b565b9050600061533a828a868151811061441457fe5b9050600061534882886131ec565b905061535e615357838361142b565b84906113d9565b935050505061537f565b86828151811061537457fe5b602002602001015190505b60006153a88a848151811061539057fe5b60200260200101516145a3848d878151811061458d57fe5b90506153bc6152bf8a85815181106152a857fe5b935050506001016152e9565b50600090565b803561067681615ed9565b600082601f8301126153e9578081fd5b81516153fc6153f782615eb9565b615e92565b81815291506020808301908481018184028601820187101561541d57600080fd5b60005b8481101561543c57815184529282019290820190600101615420565b505050505092915050565b600082601f830112615457578081fd5b813567ffffffffffffffff81111561546d578182fd5b6154806020601f19601f84011601615e92565b915080825283602082850101111561549757600080fd5b8060208401602084013760009082016020015292915050565b80516004811061067657600080fd5b80516005811061067657600080fd5b80356002811061067657600080fd5b6000602082840312156154ee578081fd5b8135610ac381615ed9565b6000806040838503121561550b578081fd5b823561551681615ed9565b9150602083013561552681615ed9565b809150509250929050565b600080600060608486031215615545578081fd5b833561555081615ed9565b9250602084013561556081615ed9565b929592945050506040919091013590565b600080600080600080600060e0888a03121561558b578283fd5b873561559681615ed9565b965060208801356155a681615ed9565b9550604088013594506060880135935060808801356155c481615eee565b9699959850939692959460a0840135945060c09093013592915050565b600080604083850312156155f3578182fd5b82356155fe81615ed9565b946020939093013593505050565b600080600060608486031215615620578081fd5b835167ffffffffffffffff80821115615637578283fd5b818601915086601f83011261564a578283fd5b81516156586153f782615eb9565b80828252602080830192508086018b828387028901011115615678578788fd5b8796505b848710156156a357805161568f81615ed9565b84526001969096019592810192810161567c565b5089015190975093505050808211156156ba578283fd5b506156c7868287016153d9565b925050604084015190509250925092565b6000602082840312156156e9578081fd5b81518015158114610ac3578182fd5b600080600080600080600060e0888a031215615712578081fd5b8735965060208089013561572581615ed9565b9650604089013561573581615ed9565b9550606089013567ffffffffffffffff80821115615751578384fd5b818b0191508b601f830112615764578384fd5b81356157726153f782615eb9565b8082825285820191508585018f878886028801011115615790578788fd5b8795505b838610156157b2578035835260019590950194918601918601615794565b509850505060808b0135955060a08b0135945060c08b01359250808311156157d8578384fd5b50506157e68a828b01615447565b91505092959891949750929550565b600060208284031215615806578081fd5b81357fffffffff0000000000000000000000000000000000000000000000000000000081168114610ac3578182fd5b600060208284031215615846578081fd5b8151610ac381615ed9565b60008060408385031215615863578182fd5b823561586e81615ed9565b9150602083013567ffffffffffffffff811115615889578182fd5b61589585828601615447565b9150509250929050565b6000602082840312156158b0578081fd5b610ac383836154b0565b6000806000606084860312156158ce578081fd5b6158d885856154b0565b9250602084015167ffffffffffffffff8111156158f3578182fd5b6156c7868287016153d9565b60008060408385031215615911578182fd5b61591b84846154b0565b9150602083015190509250929050565b60008060006060848603121561593f578081fd5b61594985856154b0565b925060208401519150604084015190509250925092565b600060208284031215615971578081fd5b610ac383836154bf565b6000806040838503121561598d578182fd5b61599784846154bf565b9150602083015167ffffffffffffffff8111156159b2578182fd5b615895858286016153d9565b6000806000606084860312156159d2578081fd5b6158d885856154bf565b600080604083850312156159ee578182fd5b61591b84846154bf565b600080600060608486031215615a0c578081fd5b61594985856154bf565b600080600060608486031215615a2a578081fd5b833567ffffffffffffffff80821115615a41578283fd5b8186019150610120808389031215615a57578384fd5b615a6081615e92565b9050615a6c88846154ce565b8152615a7b88602085016153ce565b6020820152615a8d88604085016153ce565b6040820152606083013560608201526080830135608082015260a083013560a0820152615abd8860c085016153ce565b60c0820152615acf8860e085016153ce565b60e08201526101008084013583811115615ae7578586fd5b615af38a828701615447565b9183019190915250976020870135975060409096013595945050505050565b600060208284031215615b23578081fd5b5035919050565b600060208284031215615b3b578081fd5b5051919050565b60008060008060808587031215615b57578182fd5b8451935060208501519250604085015191506060850151615b7781615ed9565b939692955090935050565b600060208284031215615b93578081fd5b8151610ac381615eee565b60008060408385031215615bb0578182fd5b8251615bbb81615eee565b6020939093015192949293505050565b6000815180845260208085019450808401835b83811015615bfa57815187529582019590820190600101615bde565b509495945050505050565b60008151808452815b81811015615c2a57602081850181015186830182015201615c0e565b81811115615c3b5782602083870101525b50601f01601f19169290920160200192915050565b9182527fffffffff0000000000000000000000000000000000000000000000000000000016602082015260240190565b6000828483379101908152919050565b7f190100000000000000000000000000000000000000000000000000000000000081526002810192909252602282015260420190565b6001600160a01b0391909116815260200190565b6020808252825182820181905260009190848201906040850190845b81811015615d1b5783516001600160a01b031683529284019291840191600101615cf6565b50909695505050505050565b600060208252610ac36020830184615bcb565b600060408252615d4d6040830185615bcb565b8281036020840152613e4a8185615bcb565b901515815260200190565b92151583526020830191909152604082015260600190565b90815260200190565b9283526001600160a01b03918216602084015216604082015260600190565b9586526001600160a01b0394851660208701529290931660408501526060840152608083019190915260a082015260c00190565b9485526020850193909352604084019190915260608301526001600160a01b0316608082015260a00190565b6000838252604060208301526126286040830184615c05565b9182526001600160a01b0316602082015260400190565b93845260ff9290921660208401526040830152606082015260800190565b600060208252610ac36020830184615c05565b6000838252604060208301526126286040830184615bcb565b60ff91909116815260200190565b60405181810167ffffffffffffffff81118282101715615eb157600080fd5b604052919050565b600067ffffffffffffffff821115615ecf578081fd5b5060209081020190565b6001600160a01b0381168114610afc57600080fd5b60ff81168114610afc57600080fdfea26469706673582212203ca61f3898c8a4951293cc842f636e00be832888ba33855c8bc73e13dba7a54d64736f6c63430007010033",
  "linkReferences": {},
  "deployedLinkReferences": {}
}